{
    "contractName": "Classroom",
    "abi": [
        {
            "inputs": [
                {
                    "internalType": "bytes32",
                    "name": "_name",
                    "type": "bytes32"
                },
                {
                    "internalType": "uint24",
                    "name": "_principalCut",
                    "type": "uint24"
                },
                {
                    "internalType": "uint24",
                    "name": "_poolCut",
                    "type": "uint24"
                },
                {
                    "internalType": "int32",
                    "name": "_minScore",
                    "type": "int32"
                },
                {
                    "internalType": "uint256",
                    "name": "_entryPrice",
                    "type": "uint256"
                },
                {
                    "internalType": "uint256",
                    "name": "_duration",
                    "type": "uint256"
                },
                {
                    "internalType": "address payable",
                    "name": "universityAddress",
                    "type": "address"
                },
                {
                    "internalType": "address",
                    "name": "challengeAddress",
                    "type": "address"
                },
                {
                    "internalType": "address",
                    "name": "daiAddress",
                    "type": "address"
                },
                {
                    "internalType": "address",
                    "name": "compoundAddress",
                    "type": "address"
                },
                {
                    "internalType": "address",
                    "name": "studentApplicationFactoryAddress",
                    "type": "address"
                }
            ],
            "stateMutability": "nonpayable",
            "type": "constructor"
        },
        {
            "anonymous": false,
            "inputs": [
                {
                    "indexed": true,
                    "internalType": "bytes32",
                    "name": "id",
                    "type": "bytes32"
                }
            ],
            "name": "ChainlinkCancelled",
            "type": "event"
        },
        {
            "anonymous": false,
            "inputs": [
                {
                    "indexed": true,
                    "internalType": "bytes32",
                    "name": "id",
                    "type": "bytes32"
                }
            ],
            "name": "ChainlinkFulfilled",
            "type": "event"
        },
        {
            "anonymous": false,
            "inputs": [
                {
                    "indexed": true,
                    "internalType": "bytes32",
                    "name": "id",
                    "type": "bytes32"
                }
            ],
            "name": "ChainlinkRequested",
            "type": "event"
        },
        {
            "anonymous": false,
            "inputs": [
                {
                    "indexed": false,
                    "internalType": "address",
                    "name": "",
                    "type": "address"
                }
            ],
            "name": "LogChangeChallenge",
            "type": "event"
        },
        {
            "anonymous": false,
            "inputs": [
                {
                    "indexed": false,
                    "internalType": "uint256",
                    "name": "",
                    "type": "uint256"
                }
            ],
            "name": "LogChangeDuration",
            "type": "event"
        },
        {
            "anonymous": false,
            "inputs": [
                {
                    "indexed": false,
                    "internalType": "uint256",
                    "name": "",
                    "type": "uint256"
                }
            ],
            "name": "LogChangeEntryPrice",
            "type": "event"
        },
        {
            "anonymous": false,
            "inputs": [
                {
                    "indexed": false,
                    "internalType": "int32",
                    "name": "",
                    "type": "int32"
                }
            ],
            "name": "LogChangeMinScore",
            "type": "event"
        },
        {
            "anonymous": false,
            "inputs": [
                {
                    "indexed": false,
                    "internalType": "bytes32",
                    "name": "",
                    "type": "bytes32"
                }
            ],
            "name": "LogChangeName",
            "type": "event"
        },
        {
            "anonymous": false,
            "inputs": [
                {
                    "indexed": false,
                    "internalType": "uint24",
                    "name": "",
                    "type": "uint24"
                }
            ],
            "name": "LogChangePoolCut",
            "type": "event"
        },
        {
            "anonymous": false,
            "inputs": [
                {
                    "indexed": false,
                    "internalType": "uint24",
                    "name": "",
                    "type": "uint24"
                }
            ],
            "name": "LogChangePrincipalCut",
            "type": "event"
        },
        {
            "anonymous": false,
            "inputs": [],
            "name": "LogCloseApplications",
            "type": "event"
        },
        {
            "anonymous": false,
            "inputs": [],
            "name": "LogCourseFinished",
            "type": "event"
        },
        {
            "anonymous": false,
            "inputs": [],
            "name": "LogOpenApplications",
            "type": "event"
        },
        {
            "anonymous": false,
            "inputs": [
                {
                    "indexed": true,
                    "internalType": "address",
                    "name": "previousOwner",
                    "type": "address"
                },
                {
                    "indexed": true,
                    "internalType": "address",
                    "name": "newOwner",
                    "type": "address"
                }
            ],
            "name": "OwnershipTransferred",
            "type": "event"
        },
        {
            "inputs": [],
            "name": "_challengeAddress",
            "outputs": [
                {
                    "internalType": "address",
                    "name": "",
                    "type": "address"
                }
            ],
            "stateMutability": "view",
            "type": "function"
        },
        {
            "inputs": [],
            "name": "applyDAI",
            "outputs": [],
            "stateMutability": "nonpayable",
            "type": "function"
        },
        {
            "inputs": [],
            "name": "beginCourse",
            "outputs": [],
            "stateMutability": "nonpayable",
            "type": "function"
        },
        {
            "inputs": [],
            "name": "cToken",
            "outputs": [
                {
                    "internalType": "contract CERC20",
                    "name": "",
                    "type": "address"
                }
            ],
            "stateMutability": "view",
            "type": "function"
        },
        {
            "inputs": [
                {
                    "internalType": "address",
                    "name": "addr",
                    "type": "address"
                }
            ],
            "name": "changeChallenge",
            "outputs": [],
            "stateMutability": "nonpayable",
            "type": "function"
        },
        {
            "inputs": [
                {
                    "internalType": "uint256",
                    "name": "val",
                    "type": "uint256"
                }
            ],
            "name": "changeDuration",
            "outputs": [],
            "stateMutability": "nonpayable",
            "type": "function"
        },
        {
            "inputs": [
                {
                    "internalType": "uint256",
                    "name": "val",
                    "type": "uint256"
                }
            ],
            "name": "changeEntryPrice",
            "outputs": [],
            "stateMutability": "nonpayable",
            "type": "function"
        },
        {
            "inputs": [
                {
                    "internalType": "int32",
                    "name": "val",
                    "type": "int32"
                }
            ],
            "name": "changeMinScore",
            "outputs": [],
            "stateMutability": "nonpayable",
            "type": "function"
        },
        {
            "inputs": [
                {
                    "internalType": "bytes32",
                    "name": "val",
                    "type": "bytes32"
                }
            ],
            "name": "changeName",
            "outputs": [],
            "stateMutability": "nonpayable",
            "type": "function"
        },
        {
            "inputs": [
                {
                    "internalType": "uint24",
                    "name": "val",
                    "type": "uint24"
                }
            ],
            "name": "changePoolCut",
            "outputs": [],
            "stateMutability": "nonpayable",
            "type": "function"
        },
        {
            "inputs": [
                {
                    "internalType": "uint24",
                    "name": "val",
                    "type": "uint24"
                }
            ],
            "name": "changePrincipalCut",
            "outputs": [],
            "stateMutability": "nonpayable",
            "type": "function"
        },
        {
            "inputs": [],
            "name": "classroomActive",
            "outputs": [
                {
                    "internalType": "bool",
                    "name": "",
                    "type": "bool"
                }
            ],
            "stateMutability": "view",
            "type": "function"
        },
        {
            "inputs": [],
            "name": "closeApplications",
            "outputs": [],
            "stateMutability": "nonpayable",
            "type": "function"
        },
        {
            "inputs": [
                {
                    "internalType": "address",
                    "name": "oracleRandom",
                    "type": "address"
                },
                {
                    "internalType": "bytes32",
                    "name": "requestIdRandom",
                    "type": "bytes32"
                },
                {
                    "internalType": "uint256",
                    "name": "oraclePaymentRandom",
                    "type": "uint256"
                },
                {
                    "internalType": "address",
                    "name": "oracleTimestamp",
                    "type": "address"
                },
                {
                    "internalType": "bytes32",
                    "name": "requestIdTimestamp",
                    "type": "bytes32"
                },
                {
                    "internalType": "uint256",
                    "name": "oraclePaymentTimestamp",
                    "type": "uint256"
                }
            ],
            "name": "configureOracles",
            "outputs": [],
            "stateMutability": "nonpayable",
            "type": "function"
        },
        {
            "inputs": [],
            "name": "courseFinished",
            "outputs": [
                {
                    "internalType": "bool",
                    "name": "",
                    "type": "bool"
                }
            ],
            "stateMutability": "view",
            "type": "function"
        },
        {
            "inputs": [],
            "name": "daiToken",
            "outputs": [
                {
                    "internalType": "contract IERC20",
                    "name": "",
                    "type": "address"
                }
            ],
            "stateMutability": "view",
            "type": "function"
        },
        {
            "inputs": [],
            "name": "duration",
            "outputs": [
                {
                    "internalType": "uint256",
                    "name": "",
                    "type": "uint256"
                }
            ],
            "stateMutability": "view",
            "type": "function"
        },
        {
            "inputs": [],
            "name": "entryPrice",
            "outputs": [
                {
                    "internalType": "uint256",
                    "name": "",
                    "type": "uint256"
                }
            ],
            "stateMutability": "view",
            "type": "function"
        },
        {
            "inputs": [],
            "name": "finishCourse",
            "outputs": [],
            "stateMutability": "nonpayable",
            "type": "function"
        },
        {
            "inputs": [
                {
                    "internalType": "bytes32",
                    "name": "_requestId",
                    "type": "bytes32"
                },
                {
                    "internalType": "uint256",
                    "name": "data",
                    "type": "uint256"
                }
            ],
            "name": "fulfillGenerateSeed",
            "outputs": [],
            "stateMutability": "nonpayable",
            "type": "function"
        },
        {
            "inputs": [
                {
                    "internalType": "bytes32",
                    "name": "_requestId",
                    "type": "bytes32"
                }
            ],
            "name": "fulfillGetTimestamp",
            "outputs": [],
            "stateMutability": "nonpayable",
            "type": "function"
        },
        {
            "inputs": [],
            "name": "isClassroomEmpty",
            "outputs": [
                {
                    "internalType": "bool",
                    "name": "",
                    "type": "bool"
                }
            ],
            "stateMutability": "view",
            "type": "function"
        },
        {
            "inputs": [],
            "name": "isCourseOngoing",
            "outputs": [
                {
                    "internalType": "bool",
                    "name": "",
                    "type": "bool"
                }
            ],
            "stateMutability": "view",
            "type": "function"
        },
        {
            "inputs": [],
            "name": "minScore",
            "outputs": [
                {
                    "internalType": "int32",
                    "name": "",
                    "type": "int32"
                }
            ],
            "stateMutability": "view",
            "type": "function"
        },
        {
            "inputs": [],
            "name": "name",
            "outputs": [
                {
                    "internalType": "bytes32",
                    "name": "",
                    "type": "bytes32"
                }
            ],
            "stateMutability": "view",
            "type": "function"
        },
        {
            "inputs": [],
            "name": "openApplications",
            "outputs": [],
            "stateMutability": "nonpayable",
            "type": "function"
        },
        {
            "inputs": [],
            "name": "openForApplication",
            "outputs": [
                {
                    "internalType": "bool",
                    "name": "",
                    "type": "bool"
                }
            ],
            "stateMutability": "view",
            "type": "function"
        },
        {
            "inputs": [],
            "name": "owner",
            "outputs": [
                {
                    "internalType": "address",
                    "name": "",
                    "type": "address"
                }
            ],
            "stateMutability": "view",
            "type": "function"
        },
        {
            "inputs": [],
            "name": "poolCut",
            "outputs": [
                {
                    "internalType": "uint24",
                    "name": "",
                    "type": "uint24"
                }
            ],
            "stateMutability": "view",
            "type": "function"
        },
        {
            "inputs": [],
            "name": "principalCut",
            "outputs": [
                {
                    "internalType": "uint24",
                    "name": "",
                    "type": "uint24"
                }
            ],
            "stateMutability": "view",
            "type": "function"
        },
        {
            "inputs": [],
            "name": "processResults",
            "outputs": [],
            "stateMutability": "nonpayable",
            "type": "function"
        },
        {
            "inputs": [],
            "name": "renounceOwnership",
            "outputs": [],
            "stateMutability": "nonpayable",
            "type": "function"
        },
        {
            "inputs": [],
            "name": "studentApply",
            "outputs": [],
            "stateMutability": "nonpayable",
            "type": "function"
        },
        {
            "inputs": [
                {
                    "internalType": "address",
                    "name": "newOwner",
                    "type": "address"
                }
            ],
            "name": "transferOwnership",
            "outputs": [],
            "stateMutability": "nonpayable",
            "type": "function"
        },
        {
            "inputs": [
                {
                    "internalType": "address",
                    "name": "newOwner",
                    "type": "address"
                }
            ],
            "name": "transferOwnershipClassroom",
            "outputs": [],
            "stateMutability": "nonpayable",
            "type": "function"
        },
        {
            "inputs": [],
            "name": "university",
            "outputs": [
                {
                    "internalType": "contract IUniversity",
                    "name": "",
                    "type": "address"
                }
            ],
            "stateMutability": "view",
            "type": "function"
        },
        {
            "inputs": [],
            "name": "viewAllApplications",
            "outputs": [
                {
                    "internalType": "address[]",
                    "name": "",
                    "type": "address[]"
                }
            ],
            "stateMutability": "view",
            "type": "function"
        },
        {
            "inputs": [],
            "name": "viewAllStudents",
            "outputs": [
                {
                    "internalType": "address[]",
                    "name": "",
                    "type": "address[]"
                }
            ],
            "stateMutability": "view",
            "type": "function"
        },
        {
            "inputs": [
                {
                    "internalType": "address",
                    "name": "addr",
                    "type": "address"
                }
            ],
            "name": "viewApplication",
            "outputs": [
                {
                    "internalType": "address",
                    "name": "",
                    "type": "address"
                }
            ],
            "stateMutability": "view",
            "type": "function"
        },
        {
            "inputs": [],
            "name": "viewMyApplication",
            "outputs": [
                {
                    "internalType": "address",
                    "name": "",
                    "type": "address"
                }
            ],
            "stateMutability": "view",
            "type": "function"
        },
        {
            "inputs": [],
            "name": "withdrawAllResults",
            "outputs": [],
            "stateMutability": "nonpayable",
            "type": "function"
        }
    ],
    "bytecode": "608060405260016005553480156200001657600080fd5b50604051620042383803806200423883398181016040526101608110156200003d57600080fd5b508051602082015160408301516060840151608085015160a086015160c087015160e08801516101008901516101208a0151610140909a01519899979896979596949593949293919290919060006200009e6001600160e01b036200027916565b600080546001600160a01b0319166001600160a01b0383169081178255604051929350917f8be0079c531659141344cd1fd0a4f28419497f9722a3daafe3b4186f6b6457e0908290a3508a60108190555089601160006101000a81548162ffffff021916908362ffffff16021790555088601160036101000a81548162ffffff021916908362ffffff16021790555087601160066101000a81548163ffffffff021916908360030b63ffffffff160217905550866012819055508560138190555084600760006101000a8154816001600160a01b0302191690836001600160a01b0316021790555083601760006101000a8154816001600160a01b0302191690836001600160a01b031602179055506000600760146101000a81548160ff0219169083151502179055506000600760166101000a81548160ff02191690831515021790555082601460006101000a8154816001600160a01b0302191690836001600160a01b0316021790555081601560006101000a8154816001600160a01b0302191690836001600160a01b0316021790555080601660006101000a8154816001600160a01b0302191690836001600160a01b03160217905550620002686200027d60201b60201c565b505050505050505050505062000718565b3390565b62000287620006c7565b601954620002a7903063100b510360e11b6001600160e01b03620002d616565b601854601a54919250620002d2916001600160a01b039091169083906001600160e01b036200031116565b5050565b620002e0620006c7565b620002ea620006c7565b6200030885858584620004fb60201b6200329c17909392919060201c565b95945050505050565b6005546040805130606090811b60208084019190915260348084018690528451808503909101815260549093018452825192810192909220908601939093526000838152600690915281812080546001600160a01b0319166001600160a01b038816179055905182917fb5e6e01e79f91267dc17b4e6314d5d4d03593d2ceee0fbb452b750bd70ea5af991a26003546001600160a01b0316634000aea08584620003c4876001600160e01b036200054716565b6040518463ffffffff1660e01b815260040180846001600160a01b03166001600160a01b0316815260200183815260200180602001828103825283818151815260200191508051906020019080838360005b838110156200043057818101518382015260200162000416565b50505050905090810190601f1680156200045e5780820380516001836020036101000a031916815260200191505b50945050505050602060405180830381600087803b1580156200048057600080fd5b505af115801562000495573d6000803e3d6000fd5b505050506040513d6020811015620004ac57600080fd5b5051620004eb5760405162461bcd60e51b8152600401808060200182810382526023815260200180620042156023913960400191505060405180910390fd5b6005805460010190559392505050565b62000505620006c7565b6200052285608001516101006200068a60201b620034421760201c565b50509183526001600160a01b031660208301526001600160e01b031916604082015290565b6060634042994660e01b6000808460000151856020015186604001518760600151600189608001516000015160405160240180896001600160a01b03166001600160a01b03168152602001888152602001878152602001866001600160a01b03166001600160a01b03168152602001856001600160e01b0319166001600160e01b031916815260200184815260200183815260200180602001828103825283818151815260200191508051906020019080838360005b8381101562000617578181015183820152602001620005fd565b50505050905090810190601f168015620006455780820380516001836020036101000a031916815260200191505b5060408051601f198184030181529190526020810180516001600160e01b03166001600160e01b0319909d169c909c17909b5250989950505050505050505050919050565b62000694620006fe565b6020820615620006aa5760208206602003820191505b506020828101829052604080518085526000815290920101905290565b6040805160a081018252600080825260208201819052918101829052606081019190915260808101620006f9620006fe565b905290565b604051806040016040528060608152602001600081525090565b613aed80620007286000396000f3fe608060405234801561001057600080fd5b50600436106102535760003560e01c806376eada9111610146578063adf45ef2116100c3578063dfd78adc11610087578063dfd78adc1461051b578063e804f16414610523578063f2fde38b14610545578063f745adfc1461056b578063f87c5cb114610573578063fe7da9e9146105bb57610253565b8063adf45ef2146104de578063ae12894e146104e6578063b594f086146104ee578063bbe3b9261461050b578063be22f5461461051357610253565b80638da5cb5b1161010a5780638da5cb5b14610498578063a3f73c2d146104a0578063a46268a8146104c6578063aa055a40146104ce578063ada02e19146104d657610253565b806376eada91146104235780637c0260cb146104495780638155e977146104515780638646bcec14610473578063898855ed1461047b57610253565b80633bcd97d4116101d4578063604d394311610198578063604d39431461039357806369e527da146103b357806369e7af43146103bb5780636e8055a714610413578063715018a61461041b57610253565b80633bcd97d414610353578063431a16ef1461035b5780634c5e7893146103635780634ffb660c1461036b5780635aa33a2d1461038b57610253565b806313c2bedc1161021b57806313c2bedc146102d957806318b9533b146102fa5780631b9dbc60146103205780632016a20614610328578063319600271461034b57610253565b806306fdde031461025857806309ea165d146102725780630aab4569146102965780630b78cb0e146102b55780630fb5a6b4146102d1575b600080fd5b6102606105d8565b60408051918252519081900360200190f35b61027a6105de565b604080516001600160a01b039092168252519081900360200190f35b6102b3600480360360208110156102ac57600080fd5b50356105ed565b005b6102bd61069e565b604080519115158252519081900360200190f35b6102606106ae565b6102e16106b4565b60408051600392830b90920b8252519081900360200190f35b6102b36004803603602081101561031057600080fd5b50356001600160a01b03166106c7565b6102b36106d3565b6102b36004803603604081101561033e57600080fd5b5080359060200135610979565b6102b3610a2c565b6102bd610b4a565b6102b3610b6a565b6102b3610ca7565b6102b36004803603602081101561038157600080fd5b503560030b610e14565b6102bd610edc565b61039b610eec565b6040805162ffffff9092168252519081900360200190f35b61027a610efe565b6103c3610f0d565b60408051602080825283518183015283519192839290830191858101910280838360005b838110156103ff5781810151838201526020016103e7565b505050509050019250505060405180910390f35b61027a610fc7565b6102b3610fde565b61027a6004803603602081101561043957600080fd5b50356001600160a01b0316611080565b6102b3611122565b6102b36004803603602081101561046757600080fd5b503562ffffff166111fa565b61039b6112a4565b6102b36004803603602081101561049157600080fd5b50356112af565b61027a611342565b6102b3600480360360208110156104b657600080fd5b50356001600160a01b0316611351565b6102bd611446565b6102b3611456565b6102b361160c565b6102bd6117eb565b61027a6117f3565b6102b36004803603602081101561050457600080fd5b5035611802565b6102b3611895565b61027a611a7e565b6103c3611a8d565b6102b36004803603602081101561053957600080fd5b503562ffffff16611b45565b6102b36004803603602081101561055b57600080fd5b50356001600160a01b0316611bfd565b610260611cf5565b6102b3600480360360c081101561058957600080fd5b506001600160a01b03813581169160208101359160408201359160608101359091169060808101359060a00135611cfb565b6102b3600480360360208110156105d157600080fd5b5035611d96565b60105481565b6017546001600160a01b031681565b60008181526006602052604090205481906001600160a01b031633146106445760405162461bcd60e51b8152600401808060200182810382526028815260200180613a906028913960400191505060405180910390fd5b60008181526006602052604080822080546001600160a01b03191690555182917f7cc135e0cebb02c3480ae5d74d377283180a2601f8f644edf7987b009316c63a91a250506007805460ff60b81b1916600160b81b179055565b600754600160a01b900460ff1681565b60135481565b6011546601000000000000900460030b81565b6106d081611bfd565b50565b6106db611342565b6001600160a01b03166106ec611e29565b6001600160a01b031614156107325760405162461bcd60e51b815260040180806020018281038252602d815260200180613936602d913960400191505060405180910390fd5b6007546001600160a01b03166316ded1ce61074b611e29565b6040518263ffffffff1660e01b815260040180826001600160a01b03166001600160a01b0316815260200191505060206040518083038186803b15801561079157600080fd5b505afa1580156107a5573d6000803e3d6000fd5b505050506040513d60208110156107bb57600080fd5b50516107f85760405162461bcd60e51b8152600401808060200182810382526024815260200180613a426024913960400191505060405180910390fd5b600754600160a01b900460ff16610856576040805162461bcd60e51b815260206004820152601e60248201527f436c617373726f6f6d3a206170706c69636174696f6e7320636c6f7365640000604482015290519081900360640190fd5b6000610860611e29565b9050601160069054906101000a900460030b60030b816001600160a01b031663efedc6696040518163ffffffff1660e01b815260040160206040518083038186803b1580156108ae57600080fd5b505afa1580156108c2573d6000803e3d6000fd5b505050506040513d60208110156108d857600080fd5b505160030b121561091a5760405162461bcd60e51b815260040180806020018281038252602c81526020018061385b602c913960400191505060405180910390fd5b600061092582611e2d565b600880546001810182556000919091527ff3f7a9fe364faab93b216da50a3214154f22a0a2b415b23a84c8169e8b636ee30180546001600160a01b0319166001600160a01b03929092169190911790555050565b60008281526006602052604090205482906001600160a01b031633146109d05760405162461bcd60e51b8152600401808060200182810382526028815260200180613a906028913960400191505060405180910390fd5b60008181526006602052604080822080546001600160a01b03191690555182917f7cc135e0cebb02c3480ae5d74d377283180a2601f8f644edf7987b009316c63a91a2610a1c82612012565b8051602090910120600f55505050565b610a34611e29565b6000546001600160a01b03908116911614610a84576040805162461bcd60e51b815260206004820181905260248201526000805160206139ce833981519152604482015290519081900360640190fd5b600754600160a01b900460ff1615610acd5760405162461bcd60e51b815260040180806020018281038252602a815260200180613a66602a913960400191505060405180910390fd5b60085415610b0c5760405162461bcd60e51b81526004018080602001828103825260228152602001806139146022913960400191505060405180910390fd5b6007805460ff60a01b1916600160a01b1790556040517fa5d188159e8a15dc503f9fde55e9da14c8b2ca589603e2567481c0ef90b7972090600090a1565b600954600854600091610b63919063ffffffff61203c16565b1590505b90565b610b72611e29565b6000546001600160a01b03908116911614610bc2576040805162461bcd60e51b815260206004820181905260248201526000805160206139ce833981519152604482015290519081900360640190fd5b600754600160b81b900460ff16610c0a5760405162461bcd60e51b81526004018080602001828103825260248152602001806139846024913960400191505060405180910390fd5b600954610c5e576040805162461bcd60e51b815260206004820152601a60248201527f436c617373726f6f6d3a206e6f206170706c69636174696f6e73000000000000604482015290519081900360640190fd5b610c6661209f565b600e556007805460ff60a81b1916600160a81b1790556040517fadfcc9bbc47b33710f82544eeff8bd0f98c6f78f190e915bd81f4a9dacfdc77790600090a1565b610caf611e29565b6000546001600160a01b03908116911614610cff576040805162461bcd60e51b815260206004820181905260248201526000805160206139ce833981519152604482015290519081900360640190fd5b6014546001600160a01b03166323b872dd30610d19611342565b601454604080516370a0823160e01b815230600482015290516001600160a01b03909216916370a0823191602480820192602092909190829003018186803b158015610d6457600080fd5b505afa158015610d78573d6000803e3d6000fd5b505050506040513d6020811015610d8e57600080fd5b5051604080516001600160e01b031960e087901b1681526001600160a01b0394851660048201529290931660248301526044820152905160648083019260209291908290030181600087803b158015610de657600080fd5b505af1158015610dfa573d6000803e3d6000fd5b505050506040513d6020811015610e1057600080fd5b5050565b610e1c611e29565b6000546001600160a01b03908116911614610e6c576040805162461bcd60e51b815260206004820181905260248201526000805160206139ce833981519152604482015290519081900360640190fd5b60118054600383810b63ffffffff16660100000000000090810269ffffffff0000000000001990931692909217928390556040805192909304810b810b900b815290517f258981eaba02423980e2973ff2ae3bbbba3cc807a5b73faf8f0b068dd7b2af649181900360200190a150565b600754600160a81b900460ff1681565b6011546301000000900462ffffff1681565b6015546001600160a01b031681565b6060610f17611e29565b6000546001600160a01b03908116911614610f67576040805162461bcd60e51b815260206004820181905260248201526000805160206139ce833981519152604482015290519081900360640190fd5b600b805480602002602001604051908101604052809291908181526020018280548015610fbd57602002820191906000526020600020905b81546001600160a01b03168152600190910190602001808311610f9f575b5050505050905090565b6000610fd9610fd4611e29565b611080565b905090565b610fe6611e29565b6000546001600160a01b03908116911614611036576040805162461bcd60e51b815260206004820181905260248201526000805160206139ce833981519152604482015290519081900360640190fd5b600080546040516001600160a01b03909116907f8be0079c531659141344cd1fd0a4f28419497f9722a3daafe3b4186f6b6457e0908390a3600080546001600160a01b0319169055565b600061108a611e29565b6001600160a01b0316826001600160a01b031614806110c857506110ac611342565b6001600160a01b03166110bd611e29565b6001600160a01b0316145b6111035760405162461bcd60e51b81526004018080602001828103825260218152602001806138f36021913960400191505060405180910390fd5b506001600160a01b039081166000908152600a60205260409020541690565b61112a611e29565b6000546001600160a01b0390811691161461117a576040805162461bcd60e51b815260206004820181905260248201526000805160206139ce833981519152604482015290519081900360640190fd5b600754600160a01b900460ff166111c25760405162461bcd60e51b815260040180806020018281038252602a815260200180613a18602a913960400191505060405180910390fd5b6007805460ff60a01b191690556040517f747a4734f50e3ae237b3afeeac30a2d2c7cb965cc122fb9680050fd533b7c0f590600090a1565b611202611e29565b6000546001600160a01b03908116911614611252576040805162461bcd60e51b815260206004820181905260248201526000805160206139ce833981519152604482015290519081900360640190fd5b6011805462ffffff191662ffffff838116919091179182905560408051929091168252517fa24cdd22388a51f932026d20d3229c1d693385bb9ac176742e0e40b4586c2447916020908290030190a150565b60115462ffffff1681565b6112b7611e29565b6000546001600160a01b03908116911614611307576040805162461bcd60e51b815260206004820181905260248201526000805160206139ce833981519152604482015290519081900360640190fd5b60108190556040805182815290517f9f8929be552430dd6434c446d106c34954b2040ca8c4dbf42a39323dd6cda3ca9181900360200190a150565b6000546001600160a01b031690565b611359611e29565b6000546001600160a01b039081169116146113a9576040805162461bcd60e51b815260206004820181905260248201526000805160206139ce833981519152604482015290519081900360640190fd5b6113b1610b4a565b6113ec5760405162461bcd60e51b81526004018080602001828103825260258152602001806138876025913960400191505060405180910390fd5b601780546001600160a01b0319166001600160a01b03838116919091179182905560408051929091168252517fdc58b28697ffd1bd5879b16631587874caec982b482d7ed05df69a5302f6e018916020908290030190a150565b600754600160b01b900460ff1681565b61145e611e29565b6000546001600160a01b039081169116146114ae576040805162461bcd60e51b815260206004820181905260248201526000805160206139ce833981519152604482015290519081900360640190fd5b600754600160a81b900460ff1661150c576040805162461bcd60e51b815260206004820152601e60248201527f436c617373726f6f6d3a20636f75727365206e6f742066696e69736865640000604482015290519081900360640190fd5b601454604080516370a0823160e01b815230600482015290516001600160a01b03909216916370a0823191602480820192602092909190829003018186803b15801561155757600080fd5b505afa15801561156b573d6000803e3d6000fd5b505050506040513d602081101561158157600080fd5b5051600e5411156115c35760405162461bcd60e51b81526004018080602001828103825260248152602001806138cf6024913960400191505060405180910390fd5b6000806115ce61219f565b91509150600060606115e084846122d6565b915091506115ed816126fd565b6115f682612800565b6115fe612859565b611606612c0d565b50505050565b611614611e29565b6000546001600160a01b03908116911614611664576040805162461bcd60e51b815260206004820181905260248201526000805160206139ce833981519152604482015290519081900360640190fd5b601454604080516370a0823160e01b815230600482015290516000926001600160a01b0316916370a08231916024808301926020929190829003018186803b1580156116af57600080fd5b505afa1580156116c3573d6000803e3d6000fd5b505050506040513d60208110156116d957600080fd5b50519050806116e857506117e9565b6014546015546040805163095ea7b360e01b81526001600160a01b039283166004820152602481018590529051919092169163095ea7b39160448083019260209291908290030181600087803b15801561174157600080fd5b505af1158015611755573d6000803e3d6000fd5b505050506040513d602081101561176b57600080fd5b50506015546040805163140e25ad60e31b81526004810184905290516001600160a01b039092169163a0712d68916024808201926020929091908290030181600087803b1580156117bb57600080fd5b505af11580156117cf573d6000803e3d6000fd5b505050506040513d60208110156117e557600080fd5b5050505b565b600954151590565b6007546001600160a01b031681565b61180a611e29565b6000546001600160a01b0390811691161461185a576040805162461bcd60e51b815260206004820181905260248201526000805160206139ce833981519152604482015290519081900360640190fd5b60138190556040805182815290517fa67f34afb53d068e81607cde52dc74c58cbf6a05eac699e5543b97d25e3ca5cb9181900360200190a150565b61189d611e29565b6000546001600160a01b039081169116146118ed576040805162461bcd60e51b815260206004820181905260248201526000805160206139ce833981519152604482015290519081900360640190fd5b600754600160a01b900460ff16156119365760405162461bcd60e51b81526004018080602001828103825260268152602001806139a86026913960400191505060405180910390fd5b601454604080516370a0823160e01b815230600482015290516001600160a01b03909216916370a0823191602480820192602092909190829003018186803b15801561198157600080fd5b505afa158015611995573d6000803e3d6000fd5b505050506040513d60208110156119ab57600080fd5b5051156119e95760405162461bcd60e51b815260040180806020018281038252602a8152602001806139ee602a913960400191505060405180910390fd5b6119f1612c4f565b6040805160008152602081019182905251611a0e9160089161375c565b50600954611a63576040805162461bcd60e51b815260206004820152601f60248201527f436c617373726f6f6d3a206e6f207265616479206170706c69636174696f6e00604482015290519081900360640190fd5b6007805460ff60b01b1916600160b01b1790556117e9612e17565b6014546001600160a01b031681565b6060611a97611e29565b6000546001600160a01b03908116911614611ae7576040805162461bcd60e51b815260206004820181905260248201526000805160206139ce833981519152604482015290519081900360640190fd5b600c805480602002602001604051908101604052809291908181526020018280548015610fbd576020028201919060005260206000209081546001600160a01b03168152600190910190602001808311610f9f575050505050905090565b611b4d611e29565b6000546001600160a01b03908116911614611b9d576040805162461bcd60e51b815260206004820181905260248201526000805160206139ce833981519152604482015290519081900360640190fd5b6011805462ffffff808416630100000090810265ffffff000000199093169290921792839055604080519290930416815290517f9d9f9ef51b12eb719684b7a2e09fc2f7e916cb0e229aecf5658ce6326dfeb1c59181900360200190a150565b611c05611e29565b6000546001600160a01b03908116911614611c55576040805162461bcd60e51b815260206004820181905260248201526000805160206139ce833981519152604482015290519081900360640190fd5b6001600160a01b038116611c9a5760405162461bcd60e51b81526004018080602001828103825260268152602001806138356026913960400191505060405180910390fd5b600080546040516001600160a01b03808516939216917f8be0079c531659141344cd1fd0a4f28419497f9722a3daafe3b4186f6b6457e091a3600080546001600160a01b0319166001600160a01b0392909216919091179055565b60125481565b611d03611e29565b6000546001600160a01b03908116911614611d53576040805162461bcd60e51b815260206004820181905260248201526000805160206139ce833981519152604482015290519081900360640190fd5b601880546001600160a01b039788166001600160a01b031991821617909155601995909555601a93909355601b8054929095169190931617909255601c55601d55565b611d9e611e29565b6000546001600160a01b03908116911614611dee576040805162461bcd60e51b815260206004820181905260248201526000805160206139ce833981519152604482015290519081900360640190fd5b60128190556040805182815290517f84e881bf3fcef92f709a2a62150da178a998fbff128c017f3e846787a2f7f5f59181900360200190a150565b3390565b60165460145460175460009283926001600160a01b039182169263268e5d1d92879230929082169116611e5e612e87565b604080516001600160e01b031960e089901b1681526001600160a01b03968716600482015294861660248601529285166044850152931660648301526084820192909252905160a48083019260209291908290030181600087803b158015611ec557600080fd5b505af1158015611ed9573d6000803e3d6000fd5b505050506040513d6020811015611eef57600080fd5b50516001600160a01b038481166000818152600a602052604080822080546001600160a01b0319168587169081179091556007548251620c1d9360e91b81526004810195909552602485019190915290519495509092169263183b26009260448084019391929182900301818387803b158015611f6b57600080fd5b505af1158015611f7f573d6000803e3d6000fd5b5050600b805460018181019092557f0175b7a638427703f0dbe7bb9bbf987a2551717b34e79f33b5b1008d1fa01db90180546001600160a01b038089166001600160a01b031992831617909255600c805493840181556000527fdf6966c971051c3d54ec59162606531493a51404a002842f56009d7e5cf4a8c79092018054918616919092161790555090915050919050565b60408051602080825281830190925260609160208201818036833750505060208101929092525090565b600082820183811015612096576040805162461bcd60e51b815260206004820152601b60248201527f536166654d6174683a206164646974696f6e206f766572666c6f770000000000604482015290519081900360640190fd5b90505b92915050565b60155460408051633af9e66960e01b8152306004820152905160009283926001600160a01b0390911691633af9e6699160248082019260209290919082900301818787803b1580156120f057600080fd5b505af1158015612104573d6000803e3d6000fd5b505050506040513d602081101561211a57600080fd5b50516015546040805163852a12e360e01b81526004810184905290519293506001600160a01b039091169163852a12e3916024808201926020929091908290030181600087803b15801561216d57600080fd5b505af1158015612181573d6000803e3d6000fd5b505050506040513d602081101561219757600080fd5b509091505090565b6000808080805b6009548110156122cc57600981815481106121bd57fe5b60009182526020822001546040805163144e786960e11b815290516001600160a01b039092169263289cf0d29260048084019382900301818387803b15801561220557600080fd5b505af1158015612219573d6000803e3d6000fd5b5050505060006009828154811061222c57fe5b60009182526020918290200154604080516332c3db0f60e11b815290516001600160a01b0390921692636587b61e92600480840193829003018186803b15801561227557600080fd5b505afa158015612289573d6000803e3d6000fd5b505050506040513d602081101561229f57600080fd5b5051905060038114156122b3576001909301925b80600514156122c3576001909201915b506001016121a6565b5090925090509091565b6009546012546000916060918390612307906122f8908463ffffffff612e9116565b600e549063ffffffff612eea16565b60115460125491925060009161233c91620f4240916123309162ffffff1663ffffffff612e9116565b9063ffffffff612f4716565b9050600061235582601254612eea90919063ffffffff16565b9050600061236d85612330868c63ffffffff612e9116565b60115490915060009061239690620f4240906123309085906301000000900462ffffff16612e91565b905060006123ae8b612330888563ffffffff612eea16565b905060608767ffffffffffffffff811180156123c957600080fd5b506040519080825280602002602001820160405280156123f3578160200160208202803683370190505b50905060005b888110156126635760006009828154811061241057fe5b60009182526020918290200154604080516332c3db0f60e11b815290516001600160a01b0390921692636587b61e92600480840193829003018186803b15801561245957600080fd5b505afa15801561246d573d6000803e3d6000fd5b505050506040513d602081101561248357600080fd5b505190506003811415612537576009828154811061249d57fe5b600091825260208220015460408051637db9abaf60e01b8152600481018b90526024810188905290516001600160a01b0390921692637db9abaf9260448084019382900301818387803b1580156124f357600080fd5b505af1158015612507573d6000803e3d6000fd5b5050505061251e848861203c90919063ffffffff16565b83838151811061252a57fe5b6020026020010181815250505b80600414156125d5576009828154811061254d57fe5b600091825260208220015460408051637db9abaf60e01b8152600481018b90526024810184905290516001600160a01b0390921692637db9abaf9260448084019382900301818387803b1580156125a357600080fd5b505af11580156125b7573d6000803e3d6000fd5b50505050868383815181106125c857fe5b6020026020010181815250505b806005141561265a57600982815481106125eb57fe5b600091825260208220015460408051637db9abaf60e01b8152600481018490526024810184905290516001600160a01b0390921692637db9abaf9260448084019382900301818387803b15801561264157600080fd5b505af1158015612655573d6000803e3d6000fd5b505050505b506001016123f9565b50600754604080516339bf581360e21b815290516000926001600160a01b03169163e6fd604c916004808301926020929190829003018186803b1580156126a957600080fd5b505afa1580156126bd573d6000803e3d6000fd5b505050506040513d60208110156126d357600080fd5b50516012549091506126ea908d9086848d8c612fb1565b9d919c50909a5050505050505050505050565b60005b600954811015610e1057600082828151811061271857fe5b602002602001015111156127f857601454600980546001600160a01b039092169163095ea7b391908490811061274a57fe5b9060005260206000200160009054906101000a90046001600160a01b031684848151811061277457fe5b60200260200101516040518363ffffffff1660e01b815260040180836001600160a01b03166001600160a01b0316815260200182815260200192505050602060405180830381600087803b1580156127cb57600080fd5b505af11580156127df573d6000803e3d6000fd5b505050506040513d60208110156127f557600080fd5b50505b600101612700565b6014546007546040805163a9059cbb60e01b81526001600160a01b039283166004820152602481018590529051919092169163a9059cbb9160448083019260209291908290030181600087803b1580156117bb57600080fd5b60005b6009548110156106d05760006009828154811061287557fe5b60009182526020918290200154604080516332c3db0f60e11b815290516001600160a01b0390921692636587b61e92600480840193829003018186803b1580156128be57600080fd5b505afa1580156128d2573d6000803e3d6000fd5b505050506040513d60208110156128e857600080fd5b5051905060038114156129f457600754600980546001600160a01b03909216916387bfe18891908590811061291957fe5b600091825260209182902001546040805163b8f31a8160e01b815290516001600160a01b039092169263b8f31a8192600480840193829003018186803b15801561296257600080fd5b505afa158015612976573d6000803e3d6000fd5b505050506040513d602081101561298c57600080fd5b5051604080516001600160e01b031960e085901b1681526001600160a01b0390921660048301526001602483015251604480830192600092919082900301818387803b1580156129db57600080fd5b505af11580156129ef573d6000803e3d6000fd5b505050505b8060041415612afc57600754600980546001600160a01b039092169163ff5d8f63919085908110612a2157fe5b600091825260209182902001546040805163b8f31a8160e01b815290516001600160a01b039092169263b8f31a8192600480840193829003018186803b158015612a6a57600080fd5b505afa158015612a7e573d6000803e3d6000fd5b505050506040513d6020811015612a9457600080fd5b5051604080516001600160e01b031960e085901b1681526001600160a01b0390921660048301526001602483015251604480830192600092919082900301818387803b158015612ae357600080fd5b505af1158015612af7573d6000803e3d6000fd5b505050505b8060051415612c0457600754600980546001600160a01b039092169163ff5d8f63919085908110612b2957fe5b600091825260209182902001546040805163b8f31a8160e01b815290516001600160a01b039092169263b8f31a8192600480840193829003018186803b158015612b7257600080fd5b505afa158015612b86573d6000803e3d6000fd5b505050506040513d6020811015612b9c57600080fd5b5051604080516001600160e01b031960e085901b1681526001600160a01b0390921660048301526002602483015251604480830192600092919082900301818387803b158015612beb57600080fd5b505af1158015612bff573d6000803e3d6000fd5b505050505b5060010161285c565b6040805160008152602081019182905251612c2a9160099161375c565b50612c33610ca7565b6000600e556007805462ff00ff60a81b191690556117e9613059565b60005b6008548110156106d05760088181548110612c6957fe5b60009182526020918290200154604080516332c3db0f60e11b815290516001600160a01b0390921692636587b61e92600480840193829003018186803b158015612cb257600080fd5b505afa158015612cc6573d6000803e3d6000fd5b505050506040513d6020811015612cdc57600080fd5b505160011415612da15760088181548110612cf357fe5b600091825260208220015460408051623c57d360e61b815290516001600160a01b0390921692630f15f4c09260048084019382900301818387803b158015612d3a57600080fd5b505af1158015612d4e573d6000803e3d6000fd5b50505050600960088281548110612d6157fe5b60009182526020808320909101548354600181018555938352912090910180546001600160a01b0319166001600160a01b03909216919091179055612e0f565b60088181548110612dae57fe5b600091825260208220015460408051633caccfcb60e11b815290516001600160a01b03909216926379599f969260048084019382900301818387803b158015612df657600080fd5b505af1158015612e0a573d6000803e3d6000fd5b505050505b600101612c52565b612e1f6137c1565b601c54612e349030630aab456960e01b613070565b9050612e6c604051806040016040528060058152602001641d5b9d1a5b60da1b81525060135442018361309b9092919063ffffffff16565b601b54601d54610e10916001600160a01b03169083906130c5565b600f546000401890565b600082612ea057506000612099565b82820282848281612ead57fe5b04146120965760405162461bcd60e51b81526004018080602001828103825260218152602001806139636021913960400191505060405180910390fd5b600082821115612f41576040805162461bcd60e51b815260206004820152601e60248201527f536166654d6174683a207375627472616374696f6e206f766572666c6f770000604482015290519081900360640190fd5b50900390565b6000808211612f9d576040805162461bcd60e51b815260206004820152601a60248201527f536166654d6174683a206469766973696f6e206279207a65726f000000000000604482015290519081900360640190fd5b6000828481612fa857fe5b04949350505050565b600080612fc4888863ffffffff612e9116565b90506000612fe4620f42406123308962ffffff8a1663ffffffff612e9116565b90506000612ff8868b63ffffffff612eea16565b90506000613028620f424061233062ffffff8b1661301c8a8763ffffffff612e9116565b9063ffffffff612e9116565b905061304a8161303e868663ffffffff61203c16565b9063ffffffff61203c16565b9b9a5050505050505050505050565b600140600f5416600040600f541617600f81905550565b6130786137c1565b6130806137c1565b6130928186868663ffffffff61329c16565b95945050505050565b60808301516130b0908363ffffffff6132d916565b60808301516117e5908263ffffffff6132f616565b6005546040805130606090811b60208084019190915260348084018690528451808503909101815260549093018452825192810192909220908601939093526000838152600690915281812080546001600160a01b0319166001600160a01b038816179055905182917fb5e6e01e79f91267dc17b4e6314d5d4d03593d2ceee0fbb452b750bd70ea5af991a26003546001600160a01b0316634000aea0858461316d87613302565b6040518463ffffffff1660e01b815260040180846001600160a01b03166001600160a01b0316815260200183815260200180602001828103825283818151815260200191508051906020019080838360005b838110156131d75781810151838201526020016131bf565b50505050905090810190601f1680156132045780820380516001836020036101000a031916815260200191505b50945050505050602060405180830381600087803b15801561322557600080fd5b505af1158015613239573d6000803e3d6000fd5b505050506040513d602081101561324f57600080fd5b505161328c5760405162461bcd60e51b81526004018080602001828103825260238152602001806138ac6023913960400191505060405180910390fd5b6005805460010190559392505050565b6132a46137c1565b6132b48560800151610100613442565b50509183526001600160a01b031660208301526001600160e01b031916604082015290565b6132e6826003835161347c565b6117e5828263ffffffff61358616565b610e108260008361347c565b6060634042994660e01b6000808460000151856020015186604001518760600151600189608001516000015160405160240180896001600160a01b03166001600160a01b03168152602001888152602001878152602001866001600160a01b03166001600160a01b03168152602001856001600160e01b0319166001600160e01b031916815260200184815260200183815260200180602001828103825283818151815260200191508051906020019080838360005b838110156133d05781810151838201526020016133b8565b50505050905090810190601f1680156133fd5780820380516001836020036101000a031916815260200191505b5060408051601f198184030181529190526020810180516001600160e01b03166001600160e01b0319909d169c909c17909b5250989950505050505050505050919050565b61344a6137f6565b602082061561345f5760208206602003820191505b506020828101829052604080518085526000815290920101905290565b601781116134a35761349d8360e0600585901b16831763ffffffff6135a016565b506117e5565b60ff81116134d9576134c6836018611fe0600586901b161763ffffffff6135a016565b5061349d8382600163ffffffff6135b816565b61ffff8111613510576134fd836019611fe0600586901b161763ffffffff6135a016565b5061349d8382600263ffffffff6135b816565b63ffffffff81116135495761353683601a611fe0600586901b161763ffffffff6135a016565b5061349d8382600463ffffffff6135b816565b67ffffffffffffffff81116117e55761357383601b611fe0600586901b161763ffffffff6135a016565b506116068382600863ffffffff6135b816565b61358e6137f6565b612096838460000151518485516135d9565b6135a86137f6565b6120968384600001515184613685565b6135c06137f6565b6135d18485600001515185856136d0565b949350505050565b6135e16137f6565b82518211156135ef57600080fd5b846020015182850111156136195761361985613611876020015187860161372e565b600202613745565b6000808651805187602083010193508088870111156136385787860182525b505050602084015b6020841061365f5780518252601f199093019260209182019101613640565b51815160001960208690036101000a019081169019919091161790525083949350505050565b61368d6137f6565b836020015183106136a9576136a9848560200151600202613745565b8351805160208583010184815350808514156136c6576001810182525b5093949350505050565b6136d86137f6565b846020015184830111156136f5576136f585858401600202613745565b60006001836101000a0390508551838682010185831982511617815250805184870111156137235783860181525b509495945050505050565b60008183111561373f575081612099565b50919050565b81516137518383613442565b506116068382613586565b8280548282559060005260206000209081019282156137b1579160200282015b828111156137b157825182546001600160a01b0319166001600160a01b0390911617825560209092019160019091019061377c565b506137bd929150613810565b5090565b6040805160a0810182526000808252602082018190529181018290526060810191909152608081016137f16137f6565b905290565b604051806040016040528060608152602001600081525090565b610b6791905b808211156137bd5780546001600160a01b031916815560010161381656fe4f776e61626c653a206e6577206f776e657220697320746865207a65726f2061646472657373436c617373726f6f6d3a2073747564656e7420646f65736e2774206861766520656e6f7567682073636f7265436c617373726f6f6d3a2063616e2774206368616e6765206368616c6c656e6765206e6f77756e61626c6520746f207472616e73666572416e6443616c6c20746f206f7261636c65436c617373726f6f6d3a206e6f7420656e6f7567682044414920746f2070726f63656564436c617373726f6f6d3a2072656164207065726d697373696f6e2064656e696564436c617373726f6f6d3a2073747564656e7473206c697374206e6f7420656d707479436c617373726f6f6d3a2070726f666573736f722063616e277420626520697473206f776e2073747564656e74536166654d6174683a206d756c7469706c69636174696f6e206f766572666c6f77436c617373726f6f6d3a20746f6f20736f6f6e20746f2066696e69736820636f75727365436c617373726f6f6d3a206170706c69636174696f6e7320617265207374696c6c206f70656e4f776e61626c653a2063616c6c6572206973206e6f7420746865206f776e6572436c617373726f6f6d3a20696e7665737420616c6c2062616c616e6365206265666f726520626567696e436c617373726f6f6d3a206170706c69636174696f6e732061726520616c726561647920636c6f736564436c617373726f6f6d3a2073747564656e74206973206e6f742072656769737465726564436c617373726f6f6d3a206170706c69636174696f6e732061726520616c7265616479206f70656e6564536f75726365206d75737420626520746865206f7261636c65206f66207468652072657175657374a26469706673582212207b40d6daf99cc1ed756c6cea4b1f65789de1fbe6ab2fbc36b2e318326e05c3fb64736f6c63430006060033756e61626c6520746f207472616e73666572416e6443616c6c20746f206f7261636c65",
    "sourcePath": "e:/Repositories/Uproot/contracts/Classroom.sol",
    "compiler": {
        "name": "solc",
        "version": "0.6.6+commit.6c089d02"
    },
    "functionHashes": {
        "_challengeAddress()": "09ea165d",
        "applyDAI()": "ada02e19",
        "beginCourse()": "bbe3b926",
        "cToken()": "69e527da",
        "changeChallenge(address)": "a3f73c2d",
        "changeDuration(uint256)": "b594f086",
        "changeEntryPrice(uint256)": "fe7da9e9",
        "changeMinScore(int32)": "4ffb660c",
        "changeName(bytes32)": "898855ed",
        "changePoolCut(uint24)": "e804f164",
        "changePrincipalCut(uint24)": "8155e977",
        "classroomActive()": "a46268a8",
        "closeApplications()": "7c0260cb",
        "configureOracles(address,bytes32,uint256,address,bytes32,uint256)": "f87c5cb1",
        "courseFinished()": "5aa33a2d",
        "daiToken()": "be22f546",
        "duration()": "0fb5a6b4",
        "entryPrice()": "f745adfc",
        "finishCourse()": "431a16ef",
        "fulfillGenerateSeed(bytes32,uint256)": "2016a206",
        "fulfillGetTimestamp(bytes32)": "0aab4569",
        "isClassroomEmpty()": "3bcd97d4",
        "isCourseOngoing()": "adf45ef2",
        "minScore()": "13c2bedc",
        "name()": "06fdde03",
        "openApplications()": "31960027",
        "openForApplication()": "0b78cb0e",
        "owner()": "8da5cb5b",
        "poolCut()": "604d3943",
        "principalCut()": "8646bcec",
        "processResults()": "aa055a40",
        "renounceOwnership()": "715018a6",
        "studentApply()": "1b9dbc60",
        "transferOwnership(address)": "f2fde38b",
        "transferOwnershipClassroom(address)": "18b9533b",
        "university()": "ae12894e",
        "viewAllApplications()": "dfd78adc",
        "viewAllStudents()": "69e7af43",
        "viewApplication(address)": "76eada91",
        "viewMyApplication()": "6e8055a7",
        "withdrawAllResults()": "4c5e7893"
    },
    "gasEstimates": {
        "creation": {
            "codeDepositCost": "3017000",
            "executionCost": "infinite",
            "totalCost": "infinite"
        },
        "external": {
            "_challengeAddress()": "1106",
            "applyDAI()": "infinite",
            "beginCourse()": "infinite",
            "cToken()": "1104",
            "changeChallenge(address)": "infinite",
            "changeDuration(uint256)": "infinite",
            "changeEntryPrice(uint256)": "infinite",
            "changeMinScore(int32)": "infinite",
            "changeName(bytes32)": "infinite",
            "changePoolCut(uint24)": "infinite",
            "changePrincipalCut(uint24)": "infinite",
            "classroomActive()": "1116",
            "closeApplications()": "infinite",
            "configureOracles(address,bytes32,uint256,address,bytes32,uint256)": "infinite",
            "courseFinished()": "1161",
            "daiToken()": "1170",
            "duration()": "1133",
            "entryPrice()": "1108",
            "finishCourse()": "infinite",
            "fulfillGenerateSeed(bytes32,uint256)": "infinite",
            "fulfillGetTimestamp(bytes32)": "infinite",
            "isClassroomEmpty()": "infinite",
            "isCourseOngoing()": "1055",
            "minScore()": "1085",
            "name()": "1045",
            "openApplications()": "infinite",
            "openForApplication()": "1140",
            "owner()": "1082",
            "poolCut()": "1069",
            "principalCut()": "1125",
            "processResults()": "infinite",
            "renounceOwnership()": "infinite",
            "studentApply()": "infinite",
            "transferOwnership(address)": "infinite",
            "transferOwnershipClassroom(address)": "infinite",
            "university()": "1104",
            "viewAllApplications()": "infinite",
            "viewAllStudents()": "infinite",
            "viewApplication(address)": "infinite",
            "viewMyApplication()": "infinite",
            "withdrawAllResults()": "infinite"
        },
        "internal": {
            "_accountValues(uint256,uint256)": "infinite",
            "_calculateUniversityShare(uint256,uint256,uint256,uint24,uint256,uint256)": "infinite",
            "_clearClassroom()": "infinite",
            "_createStudentApplication(address)": "infinite",
            "_generateSeed()": "infinite",
            "_mutateSeed()": "21681",
            "_recoverInvestment()": "infinite",
            "_resolveStudentAllowances(uint256[] memory)": "infinite",
            "_resolveUniversityCut(uint256)": "infinite",
            "_setAlarm()": "infinite",
            "_startAnswerVerification()": "infinite",
            "_updateStudentScores()": "infinite",
            "checkApplications()": "infinite",
            "generateNewSeed()": "841"
        }
    }
}