{
    "contractName": "Classroom",
    "abi": [
        {
            "inputs": [
                {
                    "internalType": "bytes32",
                    "name": "name",
                    "type": "bytes32"
                },
                {
                    "internalType": "address",
                    "name": "universityAddress",
                    "type": "address"
                }
            ],
            "stateMutability": "nonpayable",
            "type": "constructor"
        },
        {
            "anonymous": false,
            "inputs": [
                {
                    "indexed": true,
                    "internalType": "address",
                    "name": "previousOwner",
                    "type": "address"
                },
                {
                    "indexed": true,
                    "internalType": "address",
                    "name": "newOwner",
                    "type": "address"
                }
            ],
            "name": "OwnershipTransferred",
            "type": "event"
        },
        {
            "inputs": [],
            "name": "applicationsState",
            "outputs": [
                {
                    "internalType": "bool",
                    "name": "",
                    "type": "bool"
                }
            ],
            "stateMutability": "view",
            "type": "function"
        },
        {
            "inputs": [],
            "name": "beginClass",
            "outputs": [],
            "stateMutability": "nonpayable",
            "type": "function"
        },
        {
            "inputs": [],
            "name": "cToken",
            "outputs": [
                {
                    "internalType": "contract CERC20",
                    "name": "",
                    "type": "address"
                }
            ],
            "stateMutability": "view",
            "type": "function"
        },
        {
            "inputs": [],
            "name": "classroomActive",
            "outputs": [
                {
                    "internalType": "bool",
                    "name": "",
                    "type": "bool"
                }
            ],
            "stateMutability": "view",
            "type": "function"
        },
        {
            "inputs": [],
            "name": "closeApplications",
            "outputs": [],
            "stateMutability": "nonpayable",
            "type": "function"
        },
        {
            "inputs": [],
            "name": "daiToken",
            "outputs": [
                {
                    "internalType": "contract IERC20",
                    "name": "",
                    "type": "address"
                }
            ],
            "stateMutability": "view",
            "type": "function"
        },
        {
            "inputs": [],
            "name": "name",
            "outputs": [
                {
                    "internalType": "bytes32",
                    "name": "",
                    "type": "bytes32"
                }
            ],
            "stateMutability": "view",
            "type": "function"
        },
        {
            "inputs": [],
            "name": "openApplications",
            "outputs": [],
            "stateMutability": "nonpayable",
            "type": "function"
        },
        {
            "inputs": [],
            "name": "owner",
            "outputs": [
                {
                    "internalType": "address",
                    "name": "",
                    "type": "address"
                }
            ],
            "stateMutability": "view",
            "type": "function"
        },
        {
            "inputs": [],
            "name": "renounceOwnership",
            "outputs": [],
            "stateMutability": "nonpayable",
            "type": "function"
        },
        {
            "inputs": [
                {
                    "internalType": "int32",
                    "name": "val",
                    "type": "int32"
                }
            ],
            "name": "setMinScore",
            "outputs": [],
            "stateMutability": "nonpayable",
            "type": "function"
        },
        {
            "inputs": [],
            "name": "studentApply",
            "outputs": [],
            "stateMutability": "nonpayable",
            "type": "function"
        },
        {
            "inputs": [
                {
                    "internalType": "address",
                    "name": "newOwner",
                    "type": "address"
                }
            ],
            "name": "transferOwnership",
            "outputs": [],
            "stateMutability": "nonpayable",
            "type": "function"
        }
    ],
    "bytecode": "608060405234801561001057600080fd5b50604051610f98380380610f988339818101604052604081101561003357600080fd5b508051602090910151600061004f6001600160e01b0361010316565b600080546001600160a01b0319166001600160a01b0383169081178255604051929350917f8be0079c531659141344cd1fd0a4f28419497f9722a3daafe3b4186f6b6457e0908290a3506001919091556002805460ff60a01b196001600160a01b039093166001600160a01b031990911617821690556005805460068054909316909255774f96fe3b7a6cf9725f59d353f723c1bdb64ca6aa000000006001600160c01b0319909216919091179055610107565b3390565b610e82806101166000396000f3fe608060405234801561001057600080fd5b50600436106100cf5760003560e01c80637c0260cb1161008c578063be22f54611610066578063be22f54614610160578063db07351714610168578063df55946a14610170578063f2fde38b14610190576100cf565b80637c0260cb146101345780638da5cb5b1461013c578063a46268a814610144576100cf565b806306fdde03146100d45780631b9dbc60146100ee57806331960027146100f85780634d50f3801461010057806369e527da14610108578063715018a61461012c575b600080fd5b6100dc6101b6565b60408051918252519081900360200190f35b6100f66101bc565b005b6100f6610403565b6100f66104f8565b61011061060a565b604080516001600160a01b039092168252519081900360200190f35b6100f6610619565b6100f66106bb565b61011061076a565b61014c610779565b604080519115158252519081900360200190f35b610110610789565b61014c6107a0565b6100f66004803603602081101561018657600080fd5b503560030b6107b0565b6100f6600480360360208110156101a657600080fd5b50356001600160a01b0316610829565b60015490565b6002546001600160a01b03166316ded1ce6101d5610921565b6040518263ffffffff1660e01b815260040180826001600160a01b03166001600160a01b0316815260200191505060206040518083038186803b15801561021b57600080fd5b505afa15801561022f573d6000803e3d6000fd5b505050506040513d602081101561024557600080fd5b50516102825760405162461bcd60e51b8152600401808060200182810382526024815260200180610dff6024913960400191505060405180910390fd5b600254600160a01b900460ff166102e0576040805162461bcd60e51b815260206004820152601e60248201527f436c617373726f6f6d3a206170706c69636174696f6e7320636c6f7365640000604482015290519081900360640190fd5b60006102ea610921565b9050600560009054906101000a900460030b60030b816001600160a01b031663efedc6696040518163ffffffff1660e01b815260040160206040518083038186803b15801561033857600080fd5b505afa15801561034c573d6000803e3d6000fd5b505050506040513d602081101561036257600080fd5b505160030b12156103a45760405162461bcd60e51b815260040180806020018281038252602c815260200180610d41602c913960400191505060405180910390fd5b60006103af82610925565b600380546001810182556000919091527fc2575a0e9e593c00f959f8c92f12db2869c3395a3b0502d05e2516446f71f85b0180546001600160a01b0319166001600160a01b03929092169190911790555050565b61040b610921565b6000546001600160a01b0390811691161461045b576040805162461bcd60e51b81526020600482018190526024820152600080516020610db5833981519152604482015290519081900360640190fd5b600254600160a01b900460ff16156104a45760405162461bcd60e51b815260040180806020018281038252602a815260200180610e23602a913960400191505060405180910390fd5b600354156104e35760405162461bcd60e51b8152600401808060200182810382526022815260200180610d6d6022913960400191505060405180910390fd5b6002805460ff60a01b1916600160a01b179055565b610500610921565b6000546001600160a01b03908116911614610550576040805162461bcd60e51b81526020600482018190526024820152600080516020610db5833981519152604482015290519081900360640190fd5b600254600160a01b900460ff16156105995760405162461bcd60e51b8152600401808060200182810382526026815260200180610d8f6026913960400191505060405180910390fd5b6105a1610999565b6003546105f5576040805162461bcd60e51b815260206004820152601d60248201527f436c617373726f6f6d3a206e6f2073747564656e74206170706c696564000000604482015290519081900360640190fd5b6006805460ff60a01b1916600160a01b179055565b6006546001600160a01b031681565b610621610921565b6000546001600160a01b03908116911614610671576040805162461bcd60e51b81526020600482018190526024820152600080516020610db5833981519152604482015290519081900360640190fd5b600080546040516001600160a01b03909116907f8be0079c531659141344cd1fd0a4f28419497f9722a3daafe3b4186f6b6457e0908390a3600080546001600160a01b0319169055565b6106c3610921565b6000546001600160a01b03908116911614610713576040805162461bcd60e51b81526020600482018190526024820152600080516020610db5833981519152604482015290519081900360640190fd5b600254600160a01b900460ff1661075b5760405162461bcd60e51b815260040180806020018281038252602a815260200180610dd5602a913960400191505060405180910390fd5b6002805460ff60a01b19169055565b6000546001600160a01b031690565b600654600160a01b900460ff1681565b60055464010000000090046001600160a01b031681565b600254600160a01b900460ff1690565b6107b8610921565b6000546001600160a01b03908116911614610808576040805162461bcd60e51b81526020600482018190526024820152600080516020610db5833981519152604482015290519081900360640190fd5b6005805460039290920b63ffffffff1663ffffffff19909216919091179055565b610831610921565b6000546001600160a01b03908116911614610881576040805162461bcd60e51b81526020600482018190526024820152600080516020610db5833981519152604482015290519081900360640190fd5b6001600160a01b0381166108c65760405162461bcd60e51b8152600401808060200182810382526026815260200180610d1b6026913960400191505060405180910390fd5b600080546040516001600160a01b03808516939216917f8be0079c531659141344cd1fd0a4f28419497f9722a3daafe3b4186f6b6457e091a3600080546001600160a01b0319166001600160a01b0392909216919091179055565b3390565b600080826040516109359061099b565b6001600160a01b03909116815260405190819003602001906000f080158015610962573d6000803e3d6000fd5b506001600160a01b03938416600090815260046020526040902080546001600160a01b031916948216949094179093555090919050565b565b610372806109a98339019056fe608060405234801561001057600080fd5b506040516103723803806103728339818101604052602081101561003357600080fd5b505160006100486001600160e01b0361009816565b600080546001600160a01b0319166001600160a01b0383169081178255604051929350917f8be0079c531659141344cd1fd0a4f28419497f9722a3daafe3b4186f6b6457e0908290a3505061009c565b3390565b6102c7806100ab6000396000f3fe608060405234801561001057600080fd5b50600436106100415760003560e01c8063715018a6146100465780638da5cb5b14610050578063f2fde38b14610074575b600080fd5b61004e61009a565b005b61005861014e565b604080516001600160a01b039092168252519081900360200190f35b61004e6004803603602081101561008a57600080fd5b50356001600160a01b031661015d565b6100a2610267565b6000546001600160a01b03908116911614610104576040805162461bcd60e51b815260206004820181905260248201527f4f776e61626c653a2063616c6c6572206973206e6f7420746865206f776e6572604482015290519081900360640190fd5b600080546040516001600160a01b03909116907f8be0079c531659141344cd1fd0a4f28419497f9722a3daafe3b4186f6b6457e0908390a3600080546001600160a01b0319169055565b6000546001600160a01b031690565b610165610267565b6000546001600160a01b039081169116146101c7576040805162461bcd60e51b815260206004820181905260248201527f4f776e61626c653a2063616c6c6572206973206e6f7420746865206f776e6572604482015290519081900360640190fd5b6001600160a01b03811661020c5760405162461bcd60e51b815260040180806020018281038252602681526020018061026c6026913960400191505060405180910390fd5b600080546040516001600160a01b03808516939216917f8be0079c531659141344cd1fd0a4f28419497f9722a3daafe3b4186f6b6457e091a3600080546001600160a01b0319166001600160a01b0392909216919091179055565b339056fe4f776e61626c653a206e6577206f776e657220697320746865207a65726f2061646472657373a2646970667358221220c2bca4e283c469538fe473cdd31a3430b73e15c4bb1933869b034ee3b66c6ca864736f6c634300060600334f776e61626c653a206e6577206f776e657220697320746865207a65726f2061646472657373436c617373726f6f6d3a2073747564656e7420646f65736e2774206861766520656e6f7567682073636f7265436c617373726f6f6d3a2073747564656e7473206c697374206e6f7420656d707479436c617373726f6f6d3a206170706c69636174696f6e7320617265207374696c6c206f70656e4f776e61626c653a2063616c6c6572206973206e6f7420746865206f776e6572436c617373726f6f6d3a206170706c69636174696f6e732061726520616c726561647920636c6f736564436c617373726f6f6d3a2073747564656e74206973206e6f742072656769737465726564436c617373726f6f6d3a206170706c69636174696f6e732061726520616c7265616479206f70656e6564a2646970667358221220aecac3e4ee09e0cc70a4f62c5fcb5f5d88338c35460e19884e9a0d1ee95de1a364736f6c63430006060033",
    "sourcePath": "e:/Repositories/Uproot/contracts/Classroom.sol",
    "compiler": {
        "name": "solc",
        "version": "0.6.6+commit.6c089d02"
    },
    "functionHashes": {
        "applicationsState()": "db073517",
        "beginClass()": "4d50f380",
        "cToken()": "69e527da",
        "classroomActive()": "a46268a8",
        "closeApplications()": "7c0260cb",
        "daiToken()": "be22f546",
        "name()": "06fdde03",
        "openApplications()": "31960027",
        "owner()": "8da5cb5b",
        "renounceOwnership()": "715018a6",
        "setMinScore(int32)": "df55946a",
        "studentApply()": "1b9dbc60",
        "transferOwnership(address)": "f2fde38b"
    },
    "gasEstimates": {
        "creation": {
            "codeDepositCost": "742800",
            "executionCost": "infinite",
            "totalCost": "infinite"
        },
        "external": {
            "applicationsState()": "1071",
            "beginClass()": "infinite",
            "cToken()": "1126",
            "classroomActive()": "1094",
            "closeApplications()": "infinite",
            "daiToken()": "1070",
            "name()": "999",
            "openApplications()": "infinite",
            "owner()": "1082",
            "renounceOwnership()": "infinite",
            "setMinScore(int32)": "infinite",
            "studentApply()": "infinite",
            "transferOwnership(address)": "infinite"
        },
        "internal": {
            "_createStudentApplication(contract Student)": "infinite",
            "checkApplications()": "9"
        }
    }
}