{
    "contractName": "Classroom",
    "abi": [
        {
            "inputs": [
                {
                    "internalType": "bytes32",
                    "name": "name_",
                    "type": "bytes32"
                },
                {
                    "internalType": "uint24",
                    "name": "principalCut_",
                    "type": "uint24"
                },
                {
                    "internalType": "uint24",
                    "name": "poolCut_",
                    "type": "uint24"
                },
                {
                    "internalType": "int32",
                    "name": "minScore_",
                    "type": "int32"
                },
                {
                    "internalType": "uint256",
                    "name": "entryPrice_",
                    "type": "uint256"
                },
                {
                    "internalType": "uint256",
                    "name": "duration_",
                    "type": "uint256"
                },
                {
                    "internalType": "address payable",
                    "name": "universityAddress",
                    "type": "address"
                },
                {
                    "internalType": "address",
                    "name": "challengeAddress_",
                    "type": "address"
                },
                {
                    "internalType": "address",
                    "name": "daiAddress",
                    "type": "address"
                },
                {
                    "internalType": "address",
                    "name": "compoundDAIAddress",
                    "type": "address"
                },
                {
                    "internalType": "address",
                    "name": "studentApplicationFactoryAddress",
                    "type": "address"
                }
            ],
            "stateMutability": "nonpayable",
            "type": "constructor"
        },
        {
            "anonymous": false,
            "inputs": [
                {
                    "indexed": true,
                    "internalType": "bytes32",
                    "name": "id",
                    "type": "bytes32"
                }
            ],
            "name": "ChainlinkCancelled",
            "type": "event"
        },
        {
            "anonymous": false,
            "inputs": [
                {
                    "indexed": true,
                    "internalType": "bytes32",
                    "name": "id",
                    "type": "bytes32"
                }
            ],
            "name": "ChainlinkFulfilled",
            "type": "event"
        },
        {
            "anonymous": false,
            "inputs": [
                {
                    "indexed": true,
                    "internalType": "bytes32",
                    "name": "id",
                    "type": "bytes32"
                }
            ],
            "name": "ChainlinkRequested",
            "type": "event"
        },
        {
            "anonymous": false,
            "inputs": [
                {
                    "indexed": false,
                    "internalType": "address",
                    "name": "",
                    "type": "address"
                }
            ],
            "name": "LogChangeChallenge",
            "type": "event"
        },
        {
            "anonymous": false,
            "inputs": [
                {
                    "indexed": false,
                    "internalType": "uint256",
                    "name": "",
                    "type": "uint256"
                }
            ],
            "name": "LogChangeDuration",
            "type": "event"
        },
        {
            "anonymous": false,
            "inputs": [
                {
                    "indexed": false,
                    "internalType": "uint256",
                    "name": "",
                    "type": "uint256"
                }
            ],
            "name": "LogChangeEntryPrice",
            "type": "event"
        },
        {
            "anonymous": false,
            "inputs": [
                {
                    "indexed": false,
                    "internalType": "int32",
                    "name": "",
                    "type": "int32"
                }
            ],
            "name": "LogChangeMinScore",
            "type": "event"
        },
        {
            "anonymous": false,
            "inputs": [
                {
                    "indexed": false,
                    "internalType": "bytes32",
                    "name": "",
                    "type": "bytes32"
                }
            ],
            "name": "LogChangeName",
            "type": "event"
        },
        {
            "anonymous": false,
            "inputs": [
                {
                    "indexed": false,
                    "internalType": "uint24",
                    "name": "",
                    "type": "uint24"
                }
            ],
            "name": "LogChangePoolCut",
            "type": "event"
        },
        {
            "anonymous": false,
            "inputs": [
                {
                    "indexed": false,
                    "internalType": "uint24",
                    "name": "",
                    "type": "uint24"
                }
            ],
            "name": "LogChangePrincipalCut",
            "type": "event"
        },
        {
            "anonymous": false,
            "inputs": [],
            "name": "LogCloseApplications",
            "type": "event"
        },
        {
            "anonymous": false,
            "inputs": [],
            "name": "LogCourseFinished",
            "type": "event"
        },
        {
            "anonymous": false,
            "inputs": [],
            "name": "LogOpenApplications",
            "type": "event"
        },
        {
            "anonymous": false,
            "inputs": [
                {
                    "indexed": true,
                    "internalType": "address",
                    "name": "previousOwner",
                    "type": "address"
                },
                {
                    "indexed": true,
                    "internalType": "address",
                    "name": "newOwner",
                    "type": "address"
                }
            ],
            "name": "OwnershipTransferred",
            "type": "event"
        },
        {
            "inputs": [],
            "name": "aTokenDAI",
            "outputs": [
                {
                    "internalType": "address",
                    "name": "",
                    "type": "address"
                }
            ],
            "stateMutability": "view",
            "type": "function"
        },
        {
            "inputs": [],
            "name": "aaveLendingPool",
            "outputs": [
                {
                    "internalType": "contract ILendingPool",
                    "name": "",
                    "type": "address"
                }
            ],
            "stateMutability": "view",
            "type": "function"
        },
        {
            "inputs": [],
            "name": "aaveLendingPoolCore",
            "outputs": [
                {
                    "internalType": "address",
                    "name": "",
                    "type": "address"
                }
            ],
            "stateMutability": "view",
            "type": "function"
        },
        {
            "inputs": [],
            "name": "aaveProvider",
            "outputs": [
                {
                    "internalType": "contract ILendingPoolAddressesProvider",
                    "name": "",
                    "type": "address"
                }
            ],
            "stateMutability": "view",
            "type": "function"
        },
        {
            "inputs": [],
            "name": "accountValues",
            "outputs": [],
            "stateMutability": "nonpayable",
            "type": "function"
        },
        {
            "inputs": [],
            "name": "applyDAI",
            "outputs": [],
            "stateMutability": "nonpayable",
            "type": "function"
        },
        {
            "inputs": [
                {
                    "internalType": "uint256",
                    "name": "val",
                    "type": "uint256"
                }
            ],
            "name": "applyFundsAave",
            "outputs": [],
            "stateMutability": "nonpayable",
            "type": "function"
        },
        {
            "inputs": [
                {
                    "internalType": "uint256",
                    "name": "val",
                    "type": "uint256"
                }
            ],
            "name": "applyFundsCompound",
            "outputs": [],
            "stateMutability": "nonpayable",
            "type": "function"
        },
        {
            "inputs": [
                {
                    "internalType": "bool",
                    "name": "setAlatm",
                    "type": "bool"
                }
            ],
            "name": "beginCourse",
            "outputs": [],
            "stateMutability": "nonpayable",
            "type": "function"
        },
        {
            "inputs": [],
            "name": "cDAI",
            "outputs": [
                {
                    "internalType": "address",
                    "name": "",
                    "type": "address"
                }
            ],
            "stateMutability": "view",
            "type": "function"
        },
        {
            "inputs": [],
            "name": "challengeAddress",
            "outputs": [
                {
                    "internalType": "address",
                    "name": "",
                    "type": "address"
                }
            ],
            "stateMutability": "view",
            "type": "function"
        },
        {
            "inputs": [
                {
                    "internalType": "address",
                    "name": "addr",
                    "type": "address"
                }
            ],
            "name": "changeChallenge",
            "outputs": [],
            "stateMutability": "nonpayable",
            "type": "function"
        },
        {
            "inputs": [
                {
                    "internalType": "uint256",
                    "name": "ppm",
                    "type": "uint256"
                }
            ],
            "name": "changeCompoundApplyPercentage",
            "outputs": [],
            "stateMutability": "nonpayable",
            "type": "function"
        },
        {
            "inputs": [
                {
                    "internalType": "uint256",
                    "name": "val",
                    "type": "uint256"
                }
            ],
            "name": "changeDuration",
            "outputs": [],
            "stateMutability": "nonpayable",
            "type": "function"
        },
        {
            "inputs": [
                {
                    "internalType": "uint256",
                    "name": "val",
                    "type": "uint256"
                }
            ],
            "name": "changeEntryPrice",
            "outputs": [],
            "stateMutability": "nonpayable",
            "type": "function"
        },
        {
            "inputs": [
                {
                    "internalType": "int32",
                    "name": "val",
                    "type": "int32"
                }
            ],
            "name": "changeMinScore",
            "outputs": [],
            "stateMutability": "nonpayable",
            "type": "function"
        },
        {
            "inputs": [
                {
                    "internalType": "bytes32",
                    "name": "val",
                    "type": "bytes32"
                }
            ],
            "name": "changeName",
            "outputs": [],
            "stateMutability": "nonpayable",
            "type": "function"
        },
        {
            "inputs": [
                {
                    "internalType": "uint24",
                    "name": "val",
                    "type": "uint24"
                }
            ],
            "name": "changePoolCut",
            "outputs": [],
            "stateMutability": "nonpayable",
            "type": "function"
        },
        {
            "inputs": [
                {
                    "internalType": "uint24",
                    "name": "val",
                    "type": "uint24"
                }
            ],
            "name": "changePrincipalCut",
            "outputs": [],
            "stateMutability": "nonpayable",
            "type": "function"
        },
        {
            "inputs": [],
            "name": "classroomActive",
            "outputs": [
                {
                    "internalType": "bool",
                    "name": "",
                    "type": "bool"
                }
            ],
            "stateMutability": "view",
            "type": "function"
        },
        {
            "inputs": [],
            "name": "closeApplications",
            "outputs": [],
            "stateMutability": "nonpayable",
            "type": "function"
        },
        {
            "inputs": [],
            "name": "compoundApplyPercentage",
            "outputs": [
                {
                    "internalType": "uint256",
                    "name": "",
                    "type": "uint256"
                }
            ],
            "stateMutability": "view",
            "type": "function"
        },
        {
            "inputs": [
                {
                    "internalType": "address",
                    "name": "lendingPoolAddressesProvider",
                    "type": "address"
                }
            ],
            "name": "configureAave",
            "outputs": [],
            "stateMutability": "nonpayable",
            "type": "function"
        },
        {
            "inputs": [
                {
                    "internalType": "address",
                    "name": "oracleRandom_",
                    "type": "address"
                },
                {
                    "internalType": "bytes32",
                    "name": "requestIdRandom_",
                    "type": "bytes32"
                },
                {
                    "internalType": "uint256",
                    "name": "oraclePaymentRandom_",
                    "type": "uint256"
                },
                {
                    "internalType": "address",
                    "name": "oracleTimestamp_",
                    "type": "address"
                },
                {
                    "internalType": "bytes32",
                    "name": "requestIdTimestamp_",
                    "type": "bytes32"
                },
                {
                    "internalType": "uint256",
                    "name": "oraclePaymentTimestamp_",
                    "type": "uint256"
                },
                {
                    "internalType": "address",
                    "name": "linkToken_",
                    "type": "address"
                },
                {
                    "internalType": "bool",
                    "name": "generateSeed",
                    "type": "bool"
                }
            ],
            "name": "configureOracles",
            "outputs": [],
            "stateMutability": "nonpayable",
            "type": "function"
        },
        {
            "inputs": [
                {
                    "internalType": "address",
                    "name": "uniswapDAI_",
                    "type": "address"
                },
                {
                    "internalType": "address",
                    "name": "uniswapLINK_",
                    "type": "address"
                },
                {
                    "internalType": "address",
                    "name": "uniswapRouter_",
                    "type": "address"
                }
            ],
            "name": "configureUniswap",
            "outputs": [],
            "stateMutability": "nonpayable",
            "type": "function"
        },
        {
            "inputs": [],
            "name": "countActiveApplications",
            "outputs": [
                {
                    "internalType": "uint256",
                    "name": "count",
                    "type": "uint256"
                }
            ],
            "stateMutability": "view",
            "type": "function"
        },
        {
            "inputs": [],
            "name": "countNewApplications",
            "outputs": [
                {
                    "internalType": "uint256",
                    "name": "count",
                    "type": "uint256"
                }
            ],
            "stateMutability": "view",
            "type": "function"
        },
        {
            "inputs": [],
            "name": "countReadyApplications",
            "outputs": [
                {
                    "internalType": "uint256",
                    "name": "count",
                    "type": "uint256"
                }
            ],
            "stateMutability": "view",
            "type": "function"
        },
        {
            "inputs": [],
            "name": "courseBalance",
            "outputs": [
                {
                    "internalType": "uint256",
                    "name": "",
                    "type": "uint256"
                }
            ],
            "stateMutability": "view",
            "type": "function"
        },
        {
            "inputs": [],
            "name": "courseFinished",
            "outputs": [
                {
                    "internalType": "bool",
                    "name": "",
                    "type": "bool"
                }
            ],
            "stateMutability": "view",
            "type": "function"
        },
        {
            "inputs": [],
            "name": "coursePostBalance",
            "outputs": [
                {
                    "internalType": "uint256",
                    "name": "",
                    "type": "uint256"
                }
            ],
            "stateMutability": "view",
            "type": "function"
        },
        {
            "inputs": [],
            "name": "daiToken",
            "outputs": [
                {
                    "internalType": "address",
                    "name": "",
                    "type": "address"
                }
            ],
            "stateMutability": "view",
            "type": "function"
        },
        {
            "inputs": [],
            "name": "duration",
            "outputs": [
                {
                    "internalType": "uint256",
                    "name": "",
                    "type": "uint256"
                }
            ],
            "stateMutability": "view",
            "type": "function"
        },
        {
            "inputs": [],
            "name": "emptyCount",
            "outputs": [
                {
                    "internalType": "uint256",
                    "name": "",
                    "type": "uint256"
                }
            ],
            "stateMutability": "view",
            "type": "function"
        },
        {
            "inputs": [],
            "name": "endProcessResults",
            "outputs": [],
            "stateMutability": "nonpayable",
            "type": "function"
        },
        {
            "inputs": [],
            "name": "entryPrice",
            "outputs": [
                {
                    "internalType": "uint256",
                    "name": "",
                    "type": "uint256"
                }
            ],
            "stateMutability": "view",
            "type": "function"
        },
        {
            "inputs": [],
            "name": "finishCourse",
            "outputs": [],
            "stateMutability": "nonpayable",
            "type": "function"
        },
        {
            "inputs": [
                {
                    "internalType": "bytes32",
                    "name": "_requestId",
                    "type": "bytes32"
                },
                {
                    "internalType": "uint256",
                    "name": "data",
                    "type": "uint256"
                }
            ],
            "name": "fulfillGenerateSeed",
            "outputs": [],
            "stateMutability": "nonpayable",
            "type": "function"
        },
        {
            "inputs": [
                {
                    "internalType": "bytes32",
                    "name": "_requestId",
                    "type": "bytes32"
                }
            ],
            "name": "fulfillGetTimestamp",
            "outputs": [],
            "stateMutability": "nonpayable",
            "type": "function"
        },
        {
            "inputs": [],
            "name": "isClassroomEmpty",
            "outputs": [
                {
                    "internalType": "bool",
                    "name": "",
                    "type": "bool"
                }
            ],
            "stateMutability": "view",
            "type": "function"
        },
        {
            "inputs": [],
            "name": "isCourseOngoing",
            "outputs": [
                {
                    "internalType": "bool",
                    "name": "",
                    "type": "bool"
                }
            ],
            "stateMutability": "view",
            "type": "function"
        },
        {
            "inputs": [],
            "name": "linkToken",
            "outputs": [
                {
                    "internalType": "address",
                    "name": "",
                    "type": "address"
                }
            ],
            "stateMutability": "view",
            "type": "function"
        },
        {
            "inputs": [],
            "name": "minScore",
            "outputs": [
                {
                    "internalType": "int32",
                    "name": "",
                    "type": "int32"
                }
            ],
            "stateMutability": "view",
            "type": "function"
        },
        {
            "inputs": [],
            "name": "name",
            "outputs": [
                {
                    "internalType": "bytes32",
                    "name": "",
                    "type": "bytes32"
                }
            ],
            "stateMutability": "view",
            "type": "function"
        },
        {
            "inputs": [],
            "name": "openApplications",
            "outputs": [],
            "stateMutability": "nonpayable",
            "type": "function"
        },
        {
            "inputs": [],
            "name": "openForApplication",
            "outputs": [
                {
                    "internalType": "bool",
                    "name": "",
                    "type": "bool"
                }
            ],
            "stateMutability": "view",
            "type": "function"
        },
        {
            "inputs": [],
            "name": "oraclePaymentRandom",
            "outputs": [
                {
                    "internalType": "uint256",
                    "name": "",
                    "type": "uint256"
                }
            ],
            "stateMutability": "view",
            "type": "function"
        },
        {
            "inputs": [],
            "name": "oraclePaymentTimestamp",
            "outputs": [
                {
                    "internalType": "uint256",
                    "name": "",
                    "type": "uint256"
                }
            ],
            "stateMutability": "view",
            "type": "function"
        },
        {
            "inputs": [],
            "name": "oracleRandom",
            "outputs": [
                {
                    "internalType": "address",
                    "name": "",
                    "type": "address"
                }
            ],
            "stateMutability": "view",
            "type": "function"
        },
        {
            "inputs": [],
            "name": "oracleTimestamp",
            "outputs": [
                {
                    "internalType": "address",
                    "name": "",
                    "type": "address"
                }
            ],
            "stateMutability": "view",
            "type": "function"
        },
        {
            "inputs": [],
            "name": "owner",
            "outputs": [
                {
                    "internalType": "address",
                    "name": "",
                    "type": "address"
                }
            ],
            "stateMutability": "view",
            "type": "function"
        },
        {
            "inputs": [],
            "name": "ownerClassroom",
            "outputs": [
                {
                    "internalType": "address",
                    "name": "",
                    "type": "address"
                }
            ],
            "stateMutability": "view",
            "type": "function"
        },
        {
            "inputs": [],
            "name": "poolCut",
            "outputs": [
                {
                    "internalType": "uint24",
                    "name": "",
                    "type": "uint24"
                }
            ],
            "stateMutability": "view",
            "type": "function"
        },
        {
            "inputs": [],
            "name": "principalCut",
            "outputs": [
                {
                    "internalType": "uint24",
                    "name": "",
                    "type": "uint24"
                }
            ],
            "stateMutability": "view",
            "type": "function"
        },
        {
            "inputs": [],
            "name": "processResults",
            "outputs": [],
            "stateMutability": "nonpayable",
            "type": "function"
        },
        {
            "inputs": [],
            "name": "renounceOwnership",
            "outputs": [],
            "stateMutability": "nonpayable",
            "type": "function"
        },
        {
            "inputs": [],
            "name": "requestIdRandom",
            "outputs": [
                {
                    "internalType": "bytes32",
                    "name": "",
                    "type": "bytes32"
                }
            ],
            "stateMutability": "view",
            "type": "function"
        },
        {
            "inputs": [],
            "name": "requestIdTimestamp",
            "outputs": [
                {
                    "internalType": "bytes32",
                    "name": "",
                    "type": "bytes32"
                }
            ],
            "stateMutability": "view",
            "type": "function"
        },
        {
            "inputs": [],
            "name": "resolveStudentAllowances",
            "outputs": [],
            "stateMutability": "nonpayable",
            "type": "function"
        },
        {
            "inputs": [],
            "name": "resolveUniversityCut",
            "outputs": [],
            "stateMutability": "nonpayable",
            "type": "function"
        },
        {
            "inputs": [],
            "name": "startAnswerVerification",
            "outputs": [],
            "stateMutability": "nonpayable",
            "type": "function"
        },
        {
            "inputs": [],
            "name": "startDate",
            "outputs": [
                {
                    "internalType": "uint256",
                    "name": "",
                    "type": "uint256"
                }
            ],
            "stateMutability": "view",
            "type": "function"
        },
        {
            "inputs": [
                {
                    "internalType": "uint256",
                    "name": "",
                    "type": "uint256"
                }
            ],
            "name": "studentAllowances",
            "outputs": [
                {
                    "internalType": "uint256",
                    "name": "",
                    "type": "uint256"
                }
            ],
            "stateMutability": "view",
            "type": "function"
        },
        {
            "inputs": [],
            "name": "studentApplicationFactory",
            "outputs": [
                {
                    "internalType": "contract IStudentApplicationFactory",
                    "name": "",
                    "type": "address"
                }
            ],
            "stateMutability": "view",
            "type": "function"
        },
        {
            "inputs": [],
            "name": "studentApply",
            "outputs": [],
            "stateMutability": "nonpayable",
            "type": "function"
        },
        {
            "inputs": [],
            "name": "successCount",
            "outputs": [
                {
                    "internalType": "uint256",
                    "name": "",
                    "type": "uint256"
                }
            ],
            "stateMutability": "view",
            "type": "function"
        },
        {
            "inputs": [
                {
                    "internalType": "uint256",
                    "name": "amount",
                    "type": "uint256"
                },
                {
                    "internalType": "uint256",
                    "name": "deadline",
                    "type": "uint256"
                }
            ],
            "name": "swapDAI_LINK",
            "outputs": [],
            "stateMutability": "nonpayable",
            "type": "function"
        },
        {
            "inputs": [
                {
                    "internalType": "uint256",
                    "name": "amount",
                    "type": "uint256"
                },
                {
                    "internalType": "uint256",
                    "name": "deadline",
                    "type": "uint256"
                }
            ],
            "name": "swapLINK_DAI",
            "outputs": [],
            "stateMutability": "nonpayable",
            "type": "function"
        },
        {
            "inputs": [
                {
                    "internalType": "address",
                    "name": "newOwner",
                    "type": "address"
                }
            ],
            "name": "transferOwnership",
            "outputs": [],
            "stateMutability": "nonpayable",
            "type": "function"
        },
        {
            "inputs": [
                {
                    "internalType": "address",
                    "name": "newOwner",
                    "type": "address"
                }
            ],
            "name": "transferOwnershipClassroom",
            "outputs": [],
            "stateMutability": "nonpayable",
            "type": "function"
        },
        {
            "inputs": [],
            "name": "uniswapDAI",
            "outputs": [
                {
                    "internalType": "address",
                    "name": "",
                    "type": "address"
                }
            ],
            "stateMutability": "view",
            "type": "function"
        },
        {
            "inputs": [],
            "name": "uniswapLINK",
            "outputs": [
                {
                    "internalType": "address",
                    "name": "",
                    "type": "address"
                }
            ],
            "stateMutability": "view",
            "type": "function"
        },
        {
            "inputs": [],
            "name": "uniswapRouter",
            "outputs": [
                {
                    "internalType": "contract IUniswapV2Router01",
                    "name": "",
                    "type": "address"
                }
            ],
            "stateMutability": "view",
            "type": "function"
        },
        {
            "inputs": [],
            "name": "university",
            "outputs": [
                {
                    "internalType": "contract IUniversity",
                    "name": "",
                    "type": "address"
                }
            ],
            "stateMutability": "view",
            "type": "function"
        },
        {
            "inputs": [],
            "name": "universityCut",
            "outputs": [
                {
                    "internalType": "uint256",
                    "name": "",
                    "type": "uint256"
                }
            ],
            "stateMutability": "view",
            "type": "function"
        },
        {
            "inputs": [],
            "name": "updateStudentScores",
            "outputs": [],
            "stateMutability": "nonpayable",
            "type": "function"
        },
        {
            "inputs": [
                {
                    "internalType": "address",
                    "name": "addr",
                    "type": "address"
                }
            ],
            "name": "viewApplication",
            "outputs": [
                {
                    "internalType": "address",
                    "name": "",
                    "type": "address"
                }
            ],
            "stateMutability": "view",
            "type": "function"
        },
        {
            "inputs": [],
            "name": "viewMyApplication",
            "outputs": [
                {
                    "internalType": "address",
                    "name": "",
                    "type": "address"
                }
            ],
            "stateMutability": "view",
            "type": "function"
        },
        {
            "inputs": [],
            "name": "viewProcessPhase",
            "outputs": [
                {
                    "internalType": "uint16",
                    "name": "",
                    "type": "uint16"
                }
            ],
            "stateMutability": "view",
            "type": "function"
        },
        {
            "inputs": [],
            "name": "withdrawAllResults",
            "outputs": [],
            "stateMutability": "nonpayable",
            "type": "function"
        }
    ],
    "bytecode": "608060405260016005553480156200001657600080fd5b50604051620058d1380380620058d183398181016040526101608110156200003d57600080fd5b508051602082015160408301516060840151608085015160a086015160c087015160e08801516101008901516101208a0151610140909a01519899979896979596949593949293919290919060006200009e6001600160e01b03620001c316565b600080546001600160a01b0319166001600160a01b0383169081178255604051929350917f8be0079c531659141344cd1fd0a4f28419497f9722a3daafe3b4186f6b6457e0908290a35060109a909a556011805462ffffff191662ffffff9a8b161765ffffff0000001916630100000099909a16989098029890981763ffffffff60301b1916660100000000000063ffffffff60039890980b9790971696909602959095179095556012929092556013556207a12060145560078054601580546001600160a01b03199081166001600160a01b03978816179091559081169285169290921762ff00ff60a01b191690556016805482169284169290921790915560178054821693831693909317909255601880549092169216919091179055620001c7565b3390565b6156fa80620001d76000396000f3fe608060405234801561001057600080fd5b506004361061047f5760003560e01c806386c79e0b11610257578063b56bc55311610146578063e804f164116100c3578063f2fde38b11610087578063f2fde38b1461098f578063f745adfc146109b5578063fa245bf0146109bd578063faaecf37146109dc578063fe7da9e9146109e45761047f565b8063e804f16414610932578063e9d337b814610954578063e9ead5211461095c578063eb7ab29d14610964578063f0607e431461096c5761047f565b8063c799f5e21161010a578063c799f5e2146108ec578063ca58298e14610912578063cdb3bff91461091a578063d4213fad14610922578063d8e5ea581461092a5761047f565b8063b56bc55314610894578063b594f0861461089c578063be22f546146108b9578063bf96d53f146108c1578063c2d0b303146108c95761047f565b8063a2281a85116101d4578063ada02e1911610198578063ada02e1914610857578063adf45ef21461085f578063ae12894e14610867578063b0f1eaa21461086f578063b5365c3c1461088c5761047f565b8063a2281a8514610811578063a3f73c2d14610819578063a46268a81461083f578063aa055a4014610847578063aaaed76f1461084f5761047f565b80638da5cb5b1161021b5780638da5cb5b146107d4578063952f1c14146107dc578063988b6438146107e45780639b5dbe78146107ec5780639e6e0b5f146108095761047f565b806386c79e0b1461079757806387429a9c1461079f578063898855ed146107a75780638b45fb67146107c45780638cf086ad146107cc5761047f565b80634587787711610373578063715018a6116102f057806380380906116102b457806380380906146107405780638155e9771461075d578063834a320c1461077f57806384952ba4146107875780638646bcec1461078f5761047f565b8063715018a6146106fa578063735de9f71461070257806376eada911461070a5780637c0260cb146107305780637f419df5146107385761047f565b80635b8f96de116103375780635b8f96de1461068a578063604d3943146106c25780636ae88cc2146106e25780636e8055a7146106ea5780636f6941b9146106f25761047f565b806345877877146106335780634c5e7893146106525780634ffb660c1461065a57806357970e931461067a5780635aa33a2d146106825761047f565b80632016a2061161040157806331960027116103c5578063319600271461060b5780633bcd97d4146106135780633c1656051461061b5780633ca5583314610623578063431a16ef1461062b5761047f565b80632016a206146105ac5780632058e906146105cf578063277a74b7146105d757806329d18879146105df5780632ed53773146106035761047f565b80630fb5a6b4116104485780630fb5a6b4146104fe57806313c2bedc14610506578063149c6d101461052757806318b9533b1461057e5780631b9dbc60146105a45761047f565b80624f84111461048457806306fdde03146104a35780630aab4569146104bd5780630b78cb0e146104da5780630b97bc86146104f6575b600080fd5b6104a16004803603602081101561049a57600080fd5b5035610a01565b005b6104ab610aa0565b60408051918252519081900360200190f35b6104a1600480360360208110156104d357600080fd5b5035610aa6565b6104e2610b51565b604080519115158252519081900360200190f35b6104ab610b61565b6104ab610b67565b61050e610b6d565b60408051600392830b90920b8252519081900360200190f35b6104a1600480360361010081101561053e57600080fd5b506001600160a01b038135811691602081013591604082013591606081013582169160808201359160a08101359160c0820135169060e001351515610b80565b6104a16004803603602081101561059457600080fd5b50356001600160a01b0316610d0d565b6104a1610d19565b6104a1600480360360408110156105c257600080fd5b5080359060200135611023565b6104ab6110d6565b6104a16110dc565b6105e7611186565b604080516001600160a01b039092168252519081900360200190f35b6104ab611195565b6104a161119b565b6104e2611487565b6104a16114a7565b6105e7611551565b6104a1611560565b61063b61170d565b6040805161ffff9092168252519081900360200190f35b6104a1611735565b6104a16004803603602081101561067057600080fd5b503560030b611866565b6105e761192e565b6104e261193d565b6104a1600480360360608110156106a057600080fd5b506001600160a01b03813581169160208101358216916040909101351661194d565b6106ca6119e4565b6040805162ffffff9092168252519081900360200190f35b6104ab6119f6565b6105e7611afa565b6105e7611b11565b6104a1611b20565b6105e7611bc2565b6105e76004803603602081101561072057600080fd5b50356001600160a01b0316611bd1565b6104a1611c73565b6104a1611d4b565b6104a16004803603602081101561075657600080fd5b5035611df0565b6104a16004803603602081101561077357600080fd5b503562ffffff16611eec565b6104ab611f96565b6105e7612090565b6106ca61209f565b6104ab6120aa565b6105e76120b0565b6104a1600480360360208110156107bd57600080fd5b50356120bf565b6105e7612152565b6104ab61215c565b6105e7612162565b6104ab612171565b6104a161226d565b6104a16004803603602081101561080257600080fd5b5035612317565b6104ab61240f565b6105e7612415565b6104a16004803603602081101561082f57600080fd5b50356001600160a01b0316612424565b6104e2612519565b6104a1612529565b6105e7612656565b6104a1612665565b6104e2612793565b6105e761279b565b6104ab6004803603602081101561088557600080fd5b50356127aa565b6105e76127c8565b6105e76127d7565b6104a1600480360360208110156108b257600080fd5b50356127e6565b6105e7612879565b6104ab612888565b6104a1600480360360408110156108df57600080fd5b508035906020013561288e565b6104a16004803603602081101561090257600080fd5b50356001600160a01b0316612965565b6104ab612b7a565b6105e7612bdb565b6104ab612bea565b6104ab612bf0565b6104a16004803603602081101561094857600080fd5b503562ffffff16612bf6565b6105e7612cae565b6104ab612cbd565b6104a1612cc3565b6104a16004803603604081101561098257600080fd5b5080359060200135612d77565b6104a1600480360360208110156109a557600080fd5b50356001600160a01b0316612e4a565b6104ab612f42565b6104a1600480360360208110156109d357600080fd5b50351515612f48565b6104a1613167565b6104a1600480360360208110156109fa57600080fd5b5035613211565b610a096132a4565b6000546001600160a01b03908116911614610a59576040805162461bcd60e51b81526020600482018190526024820152600080516020615548833981519152604482015290519081900360640190fd5b620f4240811115610a9b5760405162461bcd60e51b815260040180806020018281038252602981526020018061543b6029913960400191505060405180910390fd5b601455565b60105481565b60008181526006602052604090205481906001600160a01b03163314610afd5760405162461bcd60e51b815260040180806020018281038252602881526020018061565b6028913960400191505060405180910390fd5b60008181526006602052604080822080546001600160a01b03191690555182917f7cc135e0cebb02c3480ae5d74d377283180a2601f8f644edf7987b009316c63a91a250506009805460ff19166001179055565b600754600160a01b900460ff1681565b60085481565b60135481565b6011546601000000000000900460030b81565b610b886132a4565b6000546001600160a01b03908116911614610bd8576040805162461bcd60e51b81526020600482018190526024820152600080516020615548833981519152604482015290519081900360640190fd5b601980546001600160a01b03808b166001600160a01b031992831617909255601a899055601b889055601c8054888416908316179055601d869055601e859055601f805492851692909116919091179055610c32826132a8565b601b54601f54604080516370a0823160e01b815230600482015290516001600160a01b03909216916370a0823191602480820192602092909190829003018186803b158015610c8057600080fd5b505afa158015610c94573d6000803e3d6000fd5b505050506040513d6020811015610caa57600080fd5b50511015610ce95760405162461bcd60e51b81526004018080602001828103825260218152602001806152ea6021913960400191505060405180910390fd5b8015610cfc57610cf76132ca565b610d03565b600040600f555b5050505050505050565b610d1681612e4a565b50565b610d21612162565b6001600160a01b0316610d326132a4565b6001600160a01b0316637a6c8b536040518163ffffffff1660e01b815260040160206040518083038186803b158015610d6a57600080fd5b505afa158015610d7e573d6000803e3d6000fd5b505050506040513d6020811015610d9457600080fd5b50516001600160a01b03161415610ddc5760405162461bcd60e51b815260040180806020018281038252602d8152602001806154b0602d913960400191505060405180910390fd5b6007546001600160a01b03166316ded1ce610df56132a4565b6040518263ffffffff1660e01b815260040180826001600160a01b03166001600160a01b0316815260200191505060206040518083038186803b158015610e3b57600080fd5b505afa158015610e4f573d6000803e3d6000fd5b505050506040513d6020811015610e6557600080fd5b5051610ea25760405162461bcd60e51b81526004018080602001828103825260248152602001806155ea6024913960400191505060405180910390fd5b6000610eac6132a4565b9050601160069054906101000a900460030b60030b816001600160a01b031663efedc6696040518163ffffffff1660e01b815260040160206040518083038186803b158015610efa57600080fd5b505afa158015610f0e573d6000803e3d6000fd5b505050506040513d6020811015610f2457600080fd5b505160030b1215610f665760405162461bcd60e51b815260040180806020018281038252602c815260200180615355602c913960400191505060405180910390fd5b600754600160a01b900460ff16610fc4576040805162461bcd60e51b815260206004820152601e60248201527f436c617373726f6f6d3a206170706c69636174696f6e7320636c6f7365640000604482015290519081900360640190fd5b6000610fcf82613307565b600a80546001810182556000919091527fc65a7bb8d6351c1cf70c95a316cc6a92839c986682d98bc35f958f4883f9d2a80180546001600160a01b0319166001600160a01b03929092169190911790555050565b60008281526006602052604090205482906001600160a01b0316331461107a5760405162461bcd60e51b815260040180806020018281038252602881526020018061565b6028913960400191505060405180910390fd5b60008181526006602052604080822080546001600160a01b03191690555182917f7cc135e0cebb02c3480ae5d74d377283180a2601f8f644edf7987b009316c63a91a26110c682613464565b8051602090910120600f55505050565b60295481565b602c54600461ffff909116116111235760405162461bcd60e51b815260040180806020018281038252602a815260200180615486602a913960400191505060405180910390fd5b602c54600661ffff9091161061116e576040805162461bcd60e51b815260206004820152601c6024820152600080516020615683833981519152604482015290519081900360640190fd5b61117661348e565b602c805461ffff19166006179055565b6015546001600160a01b031681565b601b5481565b6111a36132a4565b6000546001600160a01b039081169116146111f3576040805162461bcd60e51b81526020600482018190526024820152600080516020615548833981519152604482015290519081900360640190fd5b6019546001600160a01b0316611250576040805162461bcd60e51b815260206004820152601e60248201527f436c617373726f6f6d3a207365747570206f7261636c65732066697273740000604482015290519081900360640190fd5b6020546001600160a01b03166112ad576040805162461bcd60e51b815260206004820152601e60248201527f436c617373726f6f6d3a20736574757020556e69737761702066697273740000604482015290519081900360640190fd5b6025546001600160a01b031661130a576040805162461bcd60e51b815260206004820152601b60248201527f436c617373726f6f6d3a20736574757020416176652066697273740000000000604482015290519081900360640190fd5b600754600160a01b900460ff16156113535760405162461bcd60e51b815260040180806020018281038252602a81526020018061560e602a913960400191505060405180910390fd5b600a54156113925760405162461bcd60e51b81526004018080602001828103825260228152602001806154646022913960400191505060405180910390fd5b601e54601f54604080516370a0823160e01b815230600482015290516001600160a01b03909216916370a0823191602480820192602092909190829003018186803b1580156113e057600080fd5b505afa1580156113f4573d6000803e3d6000fd5b505050506040513d602081101561140a57600080fd5b505110156114495760405162461bcd60e51b81526004018080602001828103825260218152602001806152ea6021913960400191505060405180910390fd5b6007805460ff60a01b1916600160a01b1790556040517fa5d188159e8a15dc503f9fde55e9da14c8b2ca589603e2567481c0ef90b7972090600090a1565b600b54600a546000916114a0919063ffffffff61385216565b1590505b90565b602c54600161ffff909116116114ee5760405162461bcd60e51b815260040180806020018281038252602d8152602001806153c9602d913960400191505060405180910390fd5b602c54600361ffff90911610611539576040805162461bcd60e51b815260206004820152601c6024820152600080516020615683833981519152604482015290519081900360640190fd5b6115416138b5565b602c805461ffff19166003179055565b6025546001600160a01b031681565b6115686132a4565b6000546001600160a01b039081169116146115b8576040805162461bcd60e51b81526020600482018190526024820152600080516020615548833981519152604482015290519081900360640190fd5b600b5461160c576040805162461bcd60e51b815260206004820152601a60248201527f436c617373726f6f6d3a206e6f206170706c69636174696f6e73000000000000604482015290519081900360640190fd5b60095460ff1661164d5760405162461bcd60e51b81526004018080602001828103825260248152602001806154fe6024913960400191505060405180910390fd5b601654604080516370a0823160e01b815230600482015290516001600160a01b03909216916370a0823191602480820192602092909190829003018186803b15801561169857600080fd5b505afa1580156116ac573d6000803e3d6000fd5b505050506040513d60208110156116c257600080fd5b5051600e556116cf613c13565b6007805460ff60a81b1916600160a81b1790556040517fadfcc9bbc47b33710f82544eeff8bd0f98c6f78f190e915bd81f4a9dacfdc77790600090a1565b600754600090600160a81b900460ff1661172a57506000196114a4565b50602c5461ffff1690565b61173d6132a4565b6000546001600160a01b0390811691161461178d576040805162461bcd60e51b81526020600482018190526024820152600080516020615548833981519152604482015290519081900360640190fd5b611795611487565b6117d05760405162461bcd60e51b81526004018080602001828103825260228152602001806156a36022913960400191505060405180910390fd5b601654611864906001600160a01b03166117e8612162565b601654604080516370a0823160e01b815230600482015290516001600160a01b03909216916370a0823191602480820192602092909190829003018186803b15801561183357600080fd5b505afa158015611847573d6000803e3d6000fd5b505050506040513d602081101561185d57600080fd5b5051613dea565b565b61186e6132a4565b6000546001600160a01b039081169116146118be576040805162461bcd60e51b81526020600482018190526024820152600080516020615548833981519152604482015290519081900360640190fd5b60118054600383810b63ffffffff16660100000000000090810269ffffffff0000000000001990931692909217928390556040805192909304810b810b900b815290517f258981eaba02423980e2973ff2ae3bbbba3cc807a5b73faf8f0b068dd7b2af649181900360200190a150565b601f546001600160a01b031681565b600754600160a81b900460ff1681565b6119556132a4565b6000546001600160a01b039081169116146119a5576040805162461bcd60e51b81526020600482018190526024820152600080516020615548833981519152604482015290519081900360640190fd5b602080546001600160a01b039485166001600160a01b031991821617909155602180549385169382169390931790925560228054919093169116179055565b6011546301000000900462ffffff1681565b6000611a006132a4565b6000546001600160a01b03908116911614611a50576040805162461bcd60e51b81526020600482018190526024820152600080516020615548833981519152604482015290519081900360640190fd5b60005b600a54811015611af657600a8181548110611a6a57fe5b60009182526020918290200154604080516332c3db0f60e11b815290516001600160a01b0390921692636587b61e92600480840193829003018186803b158015611ab357600080fd5b505afa158015611ac7573d6000803e3d6000fd5b505050506040513d6020811015611add57600080fd5b505160011415611aee576001909101905b600101611a53565b5090565b6000611b0c611b076132a4565b611bd1565b905090565b6017546001600160a01b031681565b611b286132a4565b6000546001600160a01b03908116911614611b78576040805162461bcd60e51b81526020600482018190526024820152600080516020615548833981519152604482015290519081900360640190fd5b600080546040516001600160a01b03909116907f8be0079c531659141344cd1fd0a4f28419497f9722a3daafe3b4186f6b6457e0908390a3600080546001600160a01b0319169055565b6022546001600160a01b031681565b6000611bdb6132a4565b6001600160a01b0316826001600160a01b03161480611c195750611bfd612162565b6001600160a01b0316611c0e6132a4565b6001600160a01b0316145b611c545760405162461bcd60e51b815260040180806020018281038252602181526020018061541a6021913960400191505060405180910390fd5b506001600160a01b039081166000908152600c60205260409020541690565b611c7b6132a4565b6000546001600160a01b03908116911614611ccb576040805162461bcd60e51b81526020600482018190526024820152600080516020615548833981519152604482015290519081900360640190fd5b600754600160a01b900460ff16611d135760405162461bcd60e51b815260040180806020018281038252602a815260200180615592602a913960400191505060405180910390fd5b6007805460ff60a01b191690556040517f747a4734f50e3ae237b3afeeac30a2d2c7cb965cc122fb9680050fd533b7c0f590600090a1565b602c5461ffff16611d8d5760405162461bcd60e51b815260040180806020018281038252602481526020018061530b6024913960400191505060405180910390fd5b602c54600261ffff90911610611dd8576040805162461bcd60e51b815260206004820152601c6024820152600080516020615683833981519152604482015290519081900360640190fd5b611de0613f4d565b602c805461ffff19166002179055565b611df86132a4565b6000546001600160a01b03908116911614611e48576040805162461bcd60e51b81526020600482018190526024820152600080516020615548833981519152604482015290519081900360640190fd5b80611e5257610d16565b601654601754611e6f916001600160a01b0390811691168361408c565b6017546040805163140e25ad60e31b81526004810184905290516001600160a01b039092169163a0712d68916024808201926020929091908290030181600087803b158015611ebd57600080fd5b505af1158015611ed1573d6000803e3d6000fd5b505050506040513d6020811015611ee757600080fd5b505050565b611ef46132a4565b6000546001600160a01b03908116911614611f44576040805162461bcd60e51b81526020600482018190526024820152600080516020615548833981519152604482015290519081900360640190fd5b6011805462ffffff191662ffffff838116919091179182905560408051929091168252517fa24cdd22388a51f932026d20d3229c1d693385bb9ac176742e0e40b4586c2447916020908290030190a150565b6000611fa06132a4565b6000546001600160a01b03908116911614611ff0576040805162461bcd60e51b81526020600482018190526024820152600080516020615548833981519152604482015290519081900360640190fd5b600754600160a81b900460ff16612008576000611b0c565b600e54601654604080516370a0823160e01b81523060048201529051611b0c93926001600160a01b0316916370a08231916024808301926020929190829003018186803b15801561205857600080fd5b505afa15801561206c573d6000803e3d6000fd5b505050506040513d602081101561208257600080fd5b50519063ffffffff6141ef16565b6020546001600160a01b031681565b60115462ffffff1681565b601a5481565b6023546001600160a01b031681565b6120c76132a4565b6000546001600160a01b03908116911614612117576040805162461bcd60e51b81526020600482018190526024820152600080516020615548833981519152604482015290519081900360640190fd5b60108190556040805182815290517f9f8929be552430dd6434c446d106c34954b2040ca8c4dbf42a39323dd6cda3ca9181900360200190a150565b6000611b0c612162565b60285481565b6000546001600160a01b031690565b600061217b6132a4565b6000546001600160a01b039081169116146121cb576040805162461bcd60e51b81526020600482018190526024820152600080516020615548833981519152604482015290519081900360640190fd5b60005b600a54811015611af657600a81815481106121e557fe5b60009182526020918290200154604080516332c3db0f60e11b815290516001600160a01b0390921692636587b61e92600480840193829003018186803b15801561222e57600080fd5b505afa158015612242573d6000803e3d6000fd5b505050506040513d602081101561225857600080fd5b5051612265576001909101905b6001016121ce565b602c54600361ffff909116116122b45760405162461bcd60e51b815260040180806020018281038252602e8152602001806155bc602e913960400191505060405180910390fd5b602c54600561ffff909116106122ff576040805162461bcd60e51b815260206004820152601c6024820152600080516020615683833981519152604482015290519081900360640190fd5b61230761424c565b602c805461ffff19166005179055565b61231f6132a4565b6000546001600160a01b0390811691161461236f576040805162461bcd60e51b81526020600482018190526024820152600080516020615548833981519152604482015290519081900360640190fd5b8061237957610d16565b601654602554612396916001600160a01b0390811691168361408c565b6024805460165460408051636968703360e11b81526001600160a01b0392831660048201529384018590526000604485018190529051919092169263d2d0e06692606480830193919282900301818387803b1580156123f457600080fd5b505af1158015612408573d6000803e3d6000fd5b5050505050565b60145481565b6019546001600160a01b031681565b61242c6132a4565b6000546001600160a01b0390811691161461247c576040805162461bcd60e51b81526020600482018190526024820152600080516020615548833981519152604482015290519081900360640190fd5b612484611487565b6124bf5760405162461bcd60e51b81526004018080602001828103825260258152602001806153816025913960400191505060405180910390fd5b601580546001600160a01b0319166001600160a01b03838116919091179182905560408051929091168252517fdc58b28697ffd1bd5879b16631587874caec982b482d7ed05df69a5302f6e018916020908290030190a150565b600754600160b01b900460ff1681565b600754600160a81b900460ff16612587576040805162461bcd60e51b815260206004820152601e60248201527f436c617373726f6f6d3a20636f75727365206e6f742066696e69736865640000604482015290519081900360640190fd5b61258f611f96565b602755600b546012546125a79163ffffffff6142e616565b60275410156125e75760405162461bcd60e51b81526004018080602001828103825260248152602001806153f66024913960400191505060405180910390fd5b602c805461ffff19166001179055600b5467ffffffffffffffff8111801561260e57600080fd5b50604051908082528060200260200182016040528015612638578160200160208202803683370190505b50805161264d91602b9160209091019061518b565b5061186461433f565b6018546001600160a01b031681565b61266d6132a4565b6000546001600160a01b039081169116146126bd576040805162461bcd60e51b81526020600482018190526024820152600080516020615548833981519152604482015290519081900360640190fd5b601654604080516370a0823160e01b815230600482015290516000926001600160a01b0316916370a08231916024808301926020929190829003018186803b15801561270857600080fd5b505afa15801561271c573d6000803e3d6000fd5b505050506040513d602081101561273257600080fd5b50519050806127415750611864565b600061276b620f424061275f846014546142e690919063ffffffff16565b9063ffffffff6143c216565b9050600061277f838363ffffffff6141ef16565b905061278a82611df0565b611ee781612317565b600b54151590565b6007546001600160a01b031681565b602b81815481106127b757fe5b600091825260209091200154905081565b6026546001600160a01b031681565b6021546001600160a01b031681565b6127ee6132a4565b6000546001600160a01b0390811691161461283e576040805162461bcd60e51b81526020600482018190526024820152600080516020615548833981519152604482015290519081900360640190fd5b60138190556040805182815290517fa67f34afb53d068e81607cde52dc74c58cbf6a05eac699e5543b97d25e3ca5cb9181900360200190a150565b6016546001600160a01b031681565b601e5481565b6128966132a4565b6000546001600160a01b039081169116146128e6576040805162461bcd60e51b81526020600482018190526024820152600080516020615548833981519152604482015290519081900360640190fd5b6021546001600160a01b0316612943576040805162461bcd60e51b815260206004820152601f60248201527f556e69766572736974793a20736574757020756e697377617020666972737400604482015290519081900360640190fd5b602054602154612961916001600160a01b039081169116848461442c565b5050565b61296d6132a4565b6000546001600160a01b039081169116146129bd576040805162461bcd60e51b81526020600482018190526024820152600080516020615548833981519152604482015290519081900360640190fd5b602380546001600160a01b0319166001600160a01b0383811691909117918290556040805163076b7fbb60e51b81529051929091169163ed6ff76091600480820192602092909190829003018186803b158015612a1957600080fd5b505afa158015612a2d573d6000803e3d6000fd5b505050506040513d6020811015612a4357600080fd5b5051602580546001600160a01b0319166001600160a01b0392831617905560235460408051630261bf8b60e01b815290519190921691630261bf8b916004808301926020929190829003018186803b158015612a9e57600080fd5b505afa158015612ab2573d6000803e3d6000fd5b505050506040513d6020811015612ac857600080fd5b5051602480546001600160a01b0319166001600160a01b0392831617815560255460165460408051631a59df7760e11b815291851660048301525191909316926334b3beee9281810192602092909190829003018186803b158015612b2c57600080fd5b505afa158015612b40573d6000803e3d6000fd5b505050506040513d6020811015612b5657600080fd5b5051602680546001600160a01b0319166001600160a01b0390921691909117905550565b6000612b846132a4565b6000546001600160a01b03908116911614612bd4576040805162461bcd60e51b81526020600482018190526024820152600080516020615548833981519152604482015290519081900360640190fd5b50600b5490565b601c546001600160a01b031681565b602a5481565b601d5481565b612bfe6132a4565b6000546001600160a01b03908116911614612c4e576040805162461bcd60e51b81526020600482018190526024820152600080516020615548833981519152604482015290519081900360640190fd5b6011805462ffffff808416630100000090810265ffffff000000199093169290921792839055604080519290930416815290517f9d9f9ef51b12eb719684b7a2e09fc2f7e916cb0e229aecf5658ce6326dfeb1c59181900360200190a150565b6024546001600160a01b031681565b60275481565b612ccb6132a4565b6000546001600160a01b03908116911614612d1b576040805162461bcd60e51b81526020600482018190526024820152600080516020615548833981519152604482015290519081900360640190fd5b602c54600561ffff90911611612d625760405162461bcd60e51b81526004018080602001828103825260298152602001806152c16029913960400191505060405180910390fd5b612d6a61433f565b602c805461ffff19169055565b612d7f6132a4565b6000546001600160a01b03908116911614612dcf576040805162461bcd60e51b81526020600482018190526024820152600080516020615548833981519152604482015290519081900360640190fd5b6021546001600160a01b0316612e2c576040805162461bcd60e51b815260206004820152601f60248201527f556e69766572736974793a20736574757020756e697377617020666972737400604482015290519081900360640190fd5b602154602054612961916001600160a01b039081169116848461442c565b612e526132a4565b6000546001600160a01b03908116911614612ea2576040805162461bcd60e51b81526020600482018190526024820152600080516020615548833981519152604482015290519081900360640190fd5b6001600160a01b038116612ee75760405162461bcd60e51b815260040180806020018281038252602681526020018061532f6026913960400191505060405180910390fd5b600080546040516001600160a01b03808516939216917f8be0079c531659141344cd1fd0a4f28419497f9722a3daafe3b4186f6b6457e091a3600080546001600160a01b0319166001600160a01b0392909216919091179055565b60125481565b612f506132a4565b6000546001600160a01b03908116911614612fa0576040805162461bcd60e51b81526020600482018190526024820152600080516020615548833981519152604482015290519081900360640190fd5b600754600160a01b900460ff1615612fe95760405162461bcd60e51b81526004018080602001828103825260268152602001806155226026913960400191505060405180910390fd5b600754600160b01b900460ff1615613048576040805162461bcd60e51b815260206004820152601e60248201527f436c617373726f6f6d3a20636f7572736520616c7265616479206f70656e0000604482015290519081900360640190fd5b601654604080516370a0823160e01b815230600482015290516001600160a01b03909216916370a0823191602480820192602092909190829003018186803b15801561309357600080fd5b505afa1580156130a7573d6000803e3d6000fd5b505050506040513d60208110156130bd57600080fd5b5051156130fb5760405162461bcd60e51b815260040180806020018281038252602a815260200180615568602a913960400191505060405180910390fd5b613103614634565b604080516000815260208101918290525161312091600a916151d2565b50600b5461312d57610d16565b6007805460ff60b01b1916600160b01b179055426008558015613157576131526147fc565b610d16565b6009805460ff1916600117905550565b602c54600261ffff909116116131ae5760405162461bcd60e51b81526004018080602001828103825260238152602001806156386023913960400191505060405180910390fd5b602c54600461ffff909116106131f9576040805162461bcd60e51b815260206004820152601c6024820152600080516020615683833981519152604482015290519081900360640190fd5b61320161486c565b602c805461ffff19166004179055565b6132196132a4565b6000546001600160a01b03908116911614613269576040805162461bcd60e51b81526020600482018190526024820152600080516020615548833981519152604482015290519081900360640190fd5b60128190556040805182815290517f84e881bf3fcef92f709a2a62150da178a998fbff128c017f3e846787a2f7f5f59181900360200190a150565b3390565b600380546001600160a01b0319166001600160a01b0392909216919091179055565b6132d2615233565b601a546132e7903063100b510360e11b614907565b601954601b54919250612961916001600160a01b03909116908390614932565b60185460165460155460009283926001600160a01b039182169263268e5d1d92879230929082169116613338614b09565b604080516001600160e01b031960e089901b1681526001600160a01b03968716600482015294861660248601529285166044850152931660648301526084820192909252905160a48083019260209291908290030181600087803b15801561339f57600080fd5b505af11580156133b3573d6000803e3d6000fd5b505050506040513d60208110156133c957600080fd5b50516001600160a01b038481166000818152600c602052604080822080546001600160a01b0319168587169081179091556007548251620c1d9360e91b81526004810195909552602485019190915290519495509092169263183b26009260448084019391929182900301818387803b15801561344557600080fd5b505af1158015613459573d6000803e3d6000fd5b509295945050505050565b60408051602080825281830190925260609160208201818036833750505060208101929092525090565b602c5461ffff1660051461349e57fe5b60005b600b54811015610d16576000600b82815481106134ba57fe5b60009182526020918290200154604080516332c3db0f60e11b815290516001600160a01b0390921692636587b61e92600480840193829003018186803b15801561350357600080fd5b505afa158015613517573d6000803e3d6000fd5b505050506040513d602081101561352d57600080fd5b50519050600381141561363957600754600b80546001600160a01b03909216916387bfe18891908590811061355e57fe5b600091825260209182902001546040805163b8f31a8160e01b815290516001600160a01b039092169263b8f31a8192600480840193829003018186803b1580156135a757600080fd5b505afa1580156135bb573d6000803e3d6000fd5b505050506040513d60208110156135d157600080fd5b5051604080516001600160e01b031960e085901b1681526001600160a01b0390921660048301526001602483015251604480830192600092919082900301818387803b15801561362057600080fd5b505af1158015613634573d6000803e3d6000fd5b505050505b806004141561374157600754600b80546001600160a01b039092169163ff5d8f6391908590811061366657fe5b600091825260209182902001546040805163b8f31a8160e01b815290516001600160a01b039092169263b8f31a8192600480840193829003018186803b1580156136af57600080fd5b505afa1580156136c3573d6000803e3d6000fd5b505050506040513d60208110156136d957600080fd5b5051604080516001600160e01b031960e085901b1681526001600160a01b0390921660048301526001602483015251604480830192600092919082900301818387803b15801561372857600080fd5b505af115801561373c573d6000803e3d6000fd5b505050505b806005141561384957600754600b80546001600160a01b039092169163ff5d8f6391908590811061376e57fe5b600091825260209182902001546040805163b8f31a8160e01b815290516001600160a01b039092169263b8f31a8192600480840193829003018186803b1580156137b757600080fd5b505afa1580156137cb573d6000803e3d6000fd5b505050506040513d60208110156137e157600080fd5b5051604080516001600160e01b031960e085901b1681526001600160a01b0390921660048301526002602483015251604480830192600092919082900301818387803b15801561383057600080fd5b505af1158015613844573d6000803e3d6000fd5b505050505b506001016134a1565b6000828201838110156138ac576040805162461bcd60e51b815260206004820152601b60248201527f536166654d6174683a206164646974696f6e206f766572666c6f770000000000604482015290519081900360640190fd5b90505b92915050565b602c5461ffff166002146138c557fe5b600b546012546000906138f1906138e2908463ffffffff6142e616565b6027549063ffffffff6141ef16565b60115460125491925060009161391a91620f42409161275f9162ffffff1663ffffffff6142e616565b90506000613933826012546141ef90919063ffffffff16565b905060006139508561275f602854876142e690919063ffffffff16565b60115490915060009061397990620f42409061275f9085906301000000900462ffffff166142e6565b9050600061399660285461275f84896141ef90919063ffffffff16565b905060005b87811015613c07576000600b82815481106139b257fe5b60009182526020918290200154604080516332c3db0f60e11b815290516001600160a01b0390921692636587b61e92600480840193829003018186803b1580156139fb57600080fd5b505afa158015613a0f573d6000803e3d6000fd5b505050506040513d6020811015613a2557600080fd5b505190506003811415613ada57600b8281548110613a3f57fe5b600091825260208220015460408051637db9abaf60e01b8152600481018a90526024810187905290516001600160a01b0390921692637db9abaf9260448084019382900301818387803b158015613a9557600080fd5b505af1158015613aa9573d6000803e3d6000fd5b50505050613ac0838761385290919063ffffffff16565b602b8381548110613acd57fe5b6000918252602090912001555b8060041415613b7957600b8281548110613af057fe5b600091825260208220015460408051637db9abaf60e01b8152600481018a90526024810184905290516001600160a01b0390921692637db9abaf9260448084019382900301818387803b158015613b4657600080fd5b505af1158015613b5a573d6000803e3d6000fd5b5050505085602b8381548110613b6c57fe5b6000918252602090912001555b8060051415613bfe57600b8281548110613b8f57fe5b600091825260208220015460408051637db9abaf60e01b8152600481018490526024810184905290516001600160a01b0390921692637db9abaf9260448084019382900301818387803b158015613be557600080fd5b505af1158015613bf9573d6000803e3d6000fd5b505050505b5060010161399b565b50610d03828887614b45565b601754604080516370a0823160e01b815230600482015290516000926001600160a01b0316916370a08231916024808301926020929190829003018186803b158015613c5e57600080fd5b505afa158015613c72573d6000803e3d6000fd5b505050506040513d6020811015613c8857600080fd5b50516017546040805163db006a7560e01b81526004810184905290519293506001600160a01b039091169163db006a75916024808201926020929091908290030181600087803b158015613cdb57600080fd5b505af1158015613cef573d6000803e3d6000fd5b505050506040513d6020811015613d0557600080fd5b5050602654604080516370a0823160e01b815230600482015290516000926001600160a01b0316916370a08231916024808301926020929190829003018186803b158015613d5257600080fd5b505afa158015613d66573d6000803e3d6000fd5b505050506040513d6020811015613d7c57600080fd5b50516026546040805163db006a7560e01b81526004810184905290519293506001600160a01b039091169163db006a759160248082019260009290919082900301818387803b158015613dce57600080fd5b505af1158015613de2573d6000803e3d6000fd5b505050505050565b604080516001600160a01b038481166024830152604480830185905283518084039091018152606490920183526020820180516001600160e01b031663a9059cbb60e01b178152925182516000946060949389169392918291908083835b60208310613e675780518252601f199092019160209182019101613e48565b6001836020036101000a0380198251168184511680821785525050505050509050019150506000604051808303816000865af19150503d8060008114613ec9576040519150601f19603f3d011682016040523d82523d6000602084013e613ece565b606091505b5091509150818015613efc575080511580613efc5750808060200190516020811015613ef957600080fd5b50515b612408576040805162461bcd60e51b815260206004820152601f60248201527f5472616e7366657248656c7065723a205452414e534645525f4641494c454400604482015290519081900360640190fd5b602c5461ffff16600114613f5d57fe5b60005b600b54811015610d1657600b8181548110613f7757fe5b60009182526020822001546040805163144e786960e11b815290516001600160a01b039092169263289cf0d29260048084019382900301818387803b158015613fbf57600080fd5b505af1158015613fd3573d6000803e3d6000fd5b505050506000600b8281548110613fe657fe5b60009182526020918290200154604080516332c3db0f60e11b815290516001600160a01b0390921692636587b61e92600480840193829003018186803b15801561402f57600080fd5b505afa158015614043573d6000803e3d6000fd5b505050506040513d602081101561405957600080fd5b505190506003811415614070576028805460010190555b8060051415614083576029805460010190555b50600101613f60565b604080516001600160a01b038481166024830152604480830185905283518084039091018152606490920183526020820180516001600160e01b031663095ea7b360e01b178152925182516000946060949389169392918291908083835b602083106141095780518252601f1990920191602091820191016140ea565b6001836020036101000a0380198251168184511680821785525050505050509050019150506000604051808303816000865af19150503d806000811461416b576040519150601f19603f3d011682016040523d82523d6000602084013e614170565b606091505b509150915081801561419e57508051158061419e575080806020019051602081101561419b57600080fd5b50515b612408576040805162461bcd60e51b815260206004820152601e60248201527f5472616e7366657248656c7065723a20415050524f56455f4641494c45440000604482015290519081900360640190fd5b600082821115614246576040805162461bcd60e51b815260206004820152601e60248201527f536166654d6174683a207375627472616374696f6e206f766572666c6f770000604482015290519081900360640190fd5b50900390565b602c5461ffff1660041461425c57fe5b601654600754602a5461427c926001600160a01b03908116921690613dea565b600754602a54604080516307d4728360e51b81526004810192909252516001600160a01b039092169163fa8e50609160248082019260009290919082900301818387803b1580156142cc57600080fd5b505af11580156142e0573d6000803e3d6000fd5b50505050565b6000826142f5575060006138af565b8282028284828161430257fe5b04146138ac5760405162461bcd60e51b81526004018080602001828103825260218152602001806154dd6021913960400191505060405180910390fd5b602c5461ffff1660061461434f57fe5b604080516000815260208101918290525161436c91600b916151d2565b50614375611735565b6000600e81905560288190556029819055602a81905560408051918252602082019081905290516143a891602b9161518b565b506007805460ff60a81b191690556009805460ff19169055565b6000808211614418576040805162461bcd60e51b815260206004820152601a60248201527f536166654d6174683a206469766973696f6e206279207a65726f000000000000604482015290519081900360640190fd5b600082848161442357fe5b04949350505050565b6022546144449085906001600160a01b03168461408c565b6040805160028082526060808301845292602083019080368337019050509050848160008151811061447257fe5b60200260200101906001600160a01b031690816001600160a01b03168152505083816001815181106144a057fe5b6001600160a01b039283166020918202929092018101919091526022546040516338ed173960e01b81526004810187815260006024830181905230606484018190526084840189905260a060448501908152885160a4860152885195909716966338ed1739968b9693958a9593948c94939260c49092019187810191028083838b5b8381101561453a578181015183820152602001614522565b505050509050019650505050505050600060405180830381600087803b15801561456357600080fd5b505af1158015614577573d6000803e3d6000fd5b505050506040513d6000823e601f3d908101601f1916820160405260208110156145a057600080fd5b81019080805160405193929190846401000000008211156145c057600080fd5b9083019060208201858111156145d557600080fd5b82518660208202830111640100000000821117156145f257600080fd5b82525081516020918201928201910280838360005b8381101561461f578181015183820152602001614607565b50505050905001604052505050505050505050565b60005b600a54811015610d1657600a818154811061464e57fe5b60009182526020918290200154604080516332c3db0f60e11b815290516001600160a01b0390921692636587b61e92600480840193829003018186803b15801561469757600080fd5b505afa1580156146ab573d6000803e3d6000fd5b505050506040513d60208110156146c157600080fd5b50516001141561478657600a81815481106146d857fe5b600091825260208220015460408051623c57d360e61b815290516001600160a01b0390921692630f15f4c09260048084019382900301818387803b15801561471f57600080fd5b505af1158015614733573d6000803e3d6000fd5b50505050600b600a828154811061474657fe5b60009182526020808320909101548354600181018555938352912090910180546001600160a01b0319166001600160a01b039092169190911790556147f4565b600a818154811061479357fe5b600091825260208220015460408051633caccfcb60e11b815290516001600160a01b03909216926379599f969260048084019382900301818387803b1580156147db57600080fd5b505af11580156147ef573d6000803e3d6000fd5b505050505b600101614637565b614804615233565b601d546148199030630aab456960e01b614907565b9050614851604051806040016040528060058152602001641d5b9d1a5b60da1b815250601354420183614c789092919063ffffffff16565b601c54601e54612961916001600160a01b0316908390614932565b602c5461ffff1660031461487c57fe5b60005b600b54811015610d16576000602b828154811061489857fe5b906000526020600020015411156148ff57601654600b80546148ff926001600160a01b03169190849081106148c957fe5b600091825260209091200154602b80546001600160a01b0390921691859081106148ef57fe5b9060005260206000200154613dea565b60010161487f565b61490f615233565b614917615233565b6149298186868663ffffffff614ca216565b95945050505050565b6005546040805130606090811b60208084019190915260348084018690528451808503909101815260549093018452825192810192909220908601939093526000838152600690915281812080546001600160a01b0319166001600160a01b038816179055905182917fb5e6e01e79f91267dc17b4e6314d5d4d03593d2ceee0fbb452b750bd70ea5af991a26003546001600160a01b0316634000aea085846149da87614cdf565b6040518463ffffffff1660e01b815260040180846001600160a01b03166001600160a01b0316815260200183815260200180602001828103825283818151815260200191508051906020019080838360005b83811015614a44578181015183820152602001614a2c565b50505050905090810190601f168015614a715780820380516001836020036101000a031916815260200191505b50945050505050602060405180830381600087803b158015614a9257600080fd5b505af1158015614aa6573d6000803e3d6000fd5b505050506040513d6020811015614abc57600080fd5b5051614af95760405162461bcd60e51b81526004018080602001828103825260238152602001806153a66023913960400191505060405180910390fd5b6005805460010190559392505050565b6000614b13614e1f565b600f54600040186040516020018082815260200191505060405160208183030381529060405280519060200120905090565b600080600760009054906101000a90046001600160a01b03166001600160a01b031663e6fd604c6040518163ffffffff1660e01b815260040160206040518083038186803b158015614b9657600080fd5b505afa158015614baa573d6000803e3d6000fd5b505050506040513d6020811015614bc057600080fd5b5051601254602954919250600091614bdd9163ffffffff6142e616565b90506000614bfd620f424061275f8962ffffff871663ffffffff6142e616565b90506000614c16602954886141ef90919063ffffffff16565b90506000614c46620f424061275f62ffffff8816614c3a8b8763ffffffff6142e616565b9063ffffffff6142e616565b9050614c6881614c5c868663ffffffff61385216565b9063ffffffff61385216565b602a555093979650505050505050565b6080830151614c8d908363ffffffff614e4816565b6080830151611ee7908263ffffffff614e6516565b614caa615233565b614cba8560800151610100614e71565b50509183526001600160a01b031660208301526001600160e01b031916604082015290565b6060634042994660e01b6000808460000151856020015186604001518760600151600189608001516000015160405160240180896001600160a01b03166001600160a01b03168152602001888152602001878152602001866001600160a01b03166001600160a01b03168152602001856001600160e01b0319166001600160e01b031916815260200184815260200183815260200180602001828103825283818151815260200191508051906020019080838360005b83811015614dad578181015183820152602001614d95565b50505050905090810190601f168015614dda5780820380516001836020036101000a031916815260200191505b5060408051601f198184030181529190526020810180516001600160e01b03166001600160e01b0319909d169c909c17909b5250989950505050505050505050919050565b600f80546040805160208082019390935281518082038401815290820190915280519101209055565b614e558260038351614eab565b611ee7828263ffffffff614fb516565b61296182600083614eab565b614e79615268565b6020820615614e8e5760208206602003820191505b506020828101829052604080518085526000815290920101905290565b60178111614ed257614ecc8360e0600585901b16831763ffffffff614fcf16565b50611ee7565b60ff8111614f0857614ef5836018611fe0600586901b161763ffffffff614fcf16565b50614ecc8382600163ffffffff614fe716565b61ffff8111614f3f57614f2c836019611fe0600586901b161763ffffffff614fcf16565b50614ecc8382600263ffffffff614fe716565b63ffffffff8111614f7857614f6583601a611fe0600586901b161763ffffffff614fcf16565b50614ecc8382600463ffffffff614fe716565b67ffffffffffffffff8111611ee757614fa283601b611fe0600586901b161763ffffffff614fcf16565b506142e08382600863ffffffff614fe716565b614fbd615268565b6138ac83846000015151848551615008565b614fd7615268565b6138ac83846000015151846150b4565b614fef615268565b6150008485600001515185856150ff565b949350505050565b615010615268565b825182111561501e57600080fd5b846020015182850111156150485761504885615040876020015187860161515d565b600202615174565b6000808651805187602083010193508088870111156150675787860182525b505050602084015b6020841061508e5780518252601f19909301926020918201910161506f565b51815160001960208690036101000a019081169019919091161790525083949350505050565b6150bc615268565b836020015183106150d8576150d8848560200151600202615174565b8351805160208583010184815350808514156150f5576001810182525b5093949350505050565b615107615268565b846020015184830111156151245761512485858401600202615174565b60006001836101000a0390508551838682010185831982511617815250805184870111156151525783860181525b509495945050505050565b60008183111561516e5750816138af565b50919050565b81516151808383614e71565b506142e08382614fb5565b8280548282559060005260206000209081019282156151c6579160200282015b828111156151c65782518255916020019190600101906151ab565b50611af6929150615282565b828054828255906000526020600020908101928215615227579160200282015b8281111561522757825182546001600160a01b0319166001600160a01b039091161782556020909201916001909101906151f2565b50611af692915061529c565b6040805160a081018252600080825260208201819052918101829052606081019190915260808101615263615268565b905290565b604051806040016040528060608152602001600081525090565b6114a491905b80821115611af65760008155600101615288565b6114a491905b80821115611af65780546001600160a01b03191681556001016152a256fe436c617373726f6f6d3a2063616c6c2075706461746553747564656e7453636f726573206669727374436c617373726f6f6d3a206e6f7420656e6f756768204c696e6b20746f6b656e73436c617373726f6f6d3a2063616c6c2070726f63657373526573756c74732066697273744f776e61626c653a206e6577206f776e657220697320746865207a65726f2061646472657373436c617373726f6f6d3a2073747564656e7420646f65736e2774206861766520656e6f7567682073636f7265436c617373726f6f6d3a2063616e2774206368616e6765206368616c6c656e6765206e6f77756e61626c6520746f207472616e73666572416e6443616c6c20746f206f7261636c65436c617373726f6f6d3a2063616c6c207374617274416e73776572566572696669636174696f6e206669727374436c617373726f6f6d3a206e6f7420656e6f7567682044414920746f2070726f63656564436c617373726f6f6d3a2072656164207065726d697373696f6e2064656e696564436c617373726f6f6d3a2063616e2774206265206d6f72652074686174203130302520696e2070706d436c617373726f6f6d3a2073747564656e7473206c697374206e6f7420656d707479436c617373726f6f6d3a2063616c6c207265736f6c7665556e6976657273697479437574206669727374436c617373726f6f6d3a2070726f666573736f722063616e277420626520697473206f776e2073747564656e74536166654d6174683a206d756c7469706c69636174696f6e206f766572666c6f77436c617373726f6f6d3a20746f6f20736f6f6e20746f2066696e69736820636f75727365436c617373726f6f6d3a206170706c69636174696f6e7320617265207374696c6c206f70656e4f776e61626c653a2063616c6c6572206973206e6f7420746865206f776e6572436c617373726f6f6d3a20696e7665737420616c6c2062616c616e6365206265666f726520626567696e436c617373726f6f6d3a206170706c69636174696f6e732061726520616c726561647920636c6f736564436c617373726f6f6d3a2063616c6c207265736f6c766553747564656e74416c6c6f77616e636573206669727374436c617373726f6f6d3a2073747564656e74206973206e6f742072656769737465726564436c617373726f6f6d3a206170706c69636174696f6e732061726520616c7265616479206f70656e6564436c617373726f6f6d3a2063616c6c206163636f756e7456616c756573206669727374536f75726365206d75737420626520746865206f7261636c65206f66207468652072657175657374436c617373726f6f6d3a207374657020616c726561647920646f6e650000000043616e2774207769746864726177207769746820636c617373726f6f6d2066756c6ca2646970667358221220fc6c01c195d73b3f27affeb9e97645bdf2e66abf865f7993cad51a185adba9f764736f6c63430006060033",
    "sourcePath": "e:/Repositories/Uproot/contracts/Classroom.sol",
    "compiler": {
        "name": "solc",
        "version": "0.6.6+commit.6c089d02"
    },
    "functionHashes": {
        "aTokenDAI()": "b5365c3c",
        "aaveLendingPool()": "e9d337b8",
        "aaveLendingPoolCore()": "3ca55833",
        "aaveProvider()": "87429a9c",
        "accountValues()": "3c165605",
        "applyDAI()": "ada02e19",
        "applyFundsAave(uint256)": "9b5dbe78",
        "applyFundsCompound(uint256)": "80380906",
        "beginCourse(bool)": "fa245bf0",
        "cDAI()": "6f6941b9",
        "challengeAddress()": "29d18879",
        "changeChallenge(address)": "a3f73c2d",
        "changeCompoundApplyPercentage(uint256)": "004f8411",
        "changeDuration(uint256)": "b594f086",
        "changeEntryPrice(uint256)": "fe7da9e9",
        "changeMinScore(int32)": "4ffb660c",
        "changeName(bytes32)": "898855ed",
        "changePoolCut(uint24)": "e804f164",
        "changePrincipalCut(uint24)": "8155e977",
        "classroomActive()": "a46268a8",
        "closeApplications()": "7c0260cb",
        "compoundApplyPercentage()": "9e6e0b5f",
        "configureAave(address)": "c799f5e2",
        "configureOracles(address,bytes32,uint256,address,bytes32,uint256,address,bool)": "149c6d10",
        "configureUniswap(address,address,address)": "5b8f96de",
        "countActiveApplications()": "ca58298e",
        "countNewApplications()": "952f1c14",
        "countReadyApplications()": "6ae88cc2",
        "courseBalance()": "834a320c",
        "courseFinished()": "5aa33a2d",
        "coursePostBalance()": "e9ead521",
        "daiToken()": "be22f546",
        "duration()": "0fb5a6b4",
        "emptyCount()": "2058e906",
        "endProcessResults()": "eb7ab29d",
        "entryPrice()": "f745adfc",
        "finishCourse()": "431a16ef",
        "fulfillGenerateSeed(bytes32,uint256)": "2016a206",
        "fulfillGetTimestamp(bytes32)": "0aab4569",
        "isClassroomEmpty()": "3bcd97d4",
        "isCourseOngoing()": "adf45ef2",
        "linkToken()": "57970e93",
        "minScore()": "13c2bedc",
        "name()": "06fdde03",
        "openApplications()": "31960027",
        "openForApplication()": "0b78cb0e",
        "oraclePaymentRandom()": "2ed53773",
        "oraclePaymentTimestamp()": "bf96d53f",
        "oracleRandom()": "a2281a85",
        "oracleTimestamp()": "cdb3bff9",
        "owner()": "8da5cb5b",
        "ownerClassroom()": "8b45fb67",
        "poolCut()": "604d3943",
        "principalCut()": "8646bcec",
        "processResults()": "aa055a40",
        "renounceOwnership()": "715018a6",
        "requestIdRandom()": "86c79e0b",
        "requestIdTimestamp()": "d8e5ea58",
        "resolveStudentAllowances()": "faaecf37",
        "resolveUniversityCut()": "988b6438",
        "startAnswerVerification()": "7f419df5",
        "startDate()": "0b97bc86",
        "studentAllowances(uint256)": "b0f1eaa2",
        "studentApplicationFactory()": "aaaed76f",
        "studentApply()": "1b9dbc60",
        "successCount()": "8cf086ad",
        "swapDAI_LINK(uint256,uint256)": "c2d0b303",
        "swapLINK_DAI(uint256,uint256)": "f0607e43",
        "transferOwnership(address)": "f2fde38b",
        "transferOwnershipClassroom(address)": "18b9533b",
        "uniswapDAI()": "84952ba4",
        "uniswapLINK()": "b56bc553",
        "uniswapRouter()": "735de9f7",
        "university()": "ae12894e",
        "universityCut()": "d4213fad",
        "updateStudentScores()": "277a74b7",
        "viewApplication(address)": "76eada91",
        "viewMyApplication()": "6e8055a7",
        "viewProcessPhase()": "45877877",
        "withdrawAllResults()": "4c5e7893"
    },
    "gasEstimates": {
        "creation": {
            "codeDepositCost": "4453200",
            "executionCost": "infinite",
            "totalCost": "infinite"
        },
        "external": {
            "aTokenDAI()": "1192",
            "aaveLendingPool()": "1126",
            "aaveLendingPoolCore()": "1171",
            "aaveProvider()": "1128",
            "accountValues()": "infinite",
            "applyDAI()": "infinite",
            "applyFundsAave(uint256)": "infinite",
            "applyFundsCompound(uint256)": "infinite",
            "beginCourse(bool)": "infinite",
            "cDAI()": "1193",
            "challengeAddress()": "1172",
            "changeChallenge(address)": "infinite",
            "changeCompoundApplyPercentage(uint256)": "infinite",
            "changeDuration(uint256)": "infinite",
            "changeEntryPrice(uint256)": "infinite",
            "changeMinScore(int32)": "infinite",
            "changeName(bytes32)": "infinite",
            "changePoolCut(uint24)": "infinite",
            "changePrincipalCut(uint24)": "infinite",
            "classroomActive()": "1139",
            "closeApplications()": "infinite",
            "compoundApplyPercentage()": "1154",
            "configureAave(address)": "infinite",
            "configureOracles(address,bytes32,uint256,address,bytes32,uint256,address,bool)": "infinite",
            "configureUniswap(address,address,address)": "infinite",
            "countActiveApplications()": "infinite",
            "countNewApplications()": "infinite",
            "countReadyApplications()": "infinite",
            "courseBalance()": "infinite",
            "courseFinished()": "1184",
            "coursePostBalance()": "1109",
            "daiToken()": "1149",
            "duration()": "1067",
            "emptyCount()": "1089",
            "endProcessResults()": "infinite",
            "entryPrice()": "1086",
            "finishCourse()": "infinite",
            "fulfillGenerateSeed(bytes32,uint256)": "infinite",
            "fulfillGetTimestamp(bytes32)": "infinite",
            "isClassroomEmpty()": "infinite",
            "isCourseOngoing()": "1099",
            "linkToken()": "1172",
            "minScore()": "1130",
            "name()": "1090",
            "openApplications()": "infinite",
            "openForApplication()": "1163",
            "oraclePaymentRandom()": "1155",
            "oraclePaymentTimestamp()": "1132",
            "oracleRandom()": "1105",
            "oracleTimestamp()": "1148",
            "owner()": "1105",
            "ownerClassroom()": "1207",
            "poolCut()": "1114",
            "principalCut()": "1168",
            "processResults()": "infinite",
            "renounceOwnership()": "infinite",
            "requestIdRandom()": "1067",
            "requestIdTimestamp()": "1153",
            "resolveStudentAllowances()": "infinite",
            "resolveUniversityCut()": "infinite",
            "startAnswerVerification()": "infinite",
            "startDate()": "1156",
            "studentAllowances(uint256)": "2064",
            "studentApplicationFactory()": "1193",
            "studentApply()": "infinite",
            "successCount()": "1155",
            "swapDAI_LINK(uint256,uint256)": "infinite",
            "swapLINK_DAI(uint256,uint256)": "infinite",
            "transferOwnership(address)": "infinite",
            "transferOwnershipClassroom(address)": "infinite",
            "uniswapDAI()": "1170",
            "uniswapLINK()": "1105",
            "uniswapRouter()": "1127",
            "university()": "1148",
            "universityCut()": "1131",
            "updateStudentScores()": "infinite",
            "viewApplication(address)": "infinite",
            "viewMyApplication()": "infinite",
            "viewProcessPhase()": "1930",
            "withdrawAllResults()": "infinite"
        },
        "internal": {
            "_accountValues()": "infinite",
            "_calculateUniversityShare(uint256,uint256,uint256)": "infinite",
            "_clearClassroom()": "infinite",
            "_createStudentApplication(address)": "infinite",
            "_generateSeed()": "infinite",
            "_mutateSeed()": "infinite",
            "_recoverInvestment()": "infinite",
            "_resolveStudentAllowances()": "infinite",
            "_resolveUniversityCut()": "infinite",
            "_setAlarm()": "infinite",
            "_startAnswerVerification()": "infinite",
            "_updateStudentScores()": "infinite",
            "checkApplications()": "infinite",
            "generateNewSeed()": "infinite",
            "swapBlind(address,address,uint256,uint256)": "infinite"
        }
    }
}