{
  "contractName": "Classroom",
  "abi": [
    {
      "inputs": [
        {
          "internalType": "bytes32",
          "name": "name",
          "type": "bytes32"
        },
        {
          "internalType": "uint24",
          "name": "principalCut",
          "type": "uint24"
        },
        {
          "internalType": "uint24",
          "name": "poolCut",
          "type": "uint24"
        },
        {
          "internalType": "int32",
          "name": "minScore",
          "type": "int32"
        },
        {
          "internalType": "uint256",
          "name": "entryPrice",
          "type": "uint256"
        },
        {
          "internalType": "uint256",
          "name": "duration",
          "type": "uint256"
        },
        {
          "internalType": "address",
          "name": "universityAddress",
          "type": "address"
        },
        {
          "internalType": "address",
          "name": "daiAddress",
          "type": "address"
        }
      ],
      "stateMutability": "nonpayable",
      "type": "constructor"
    },
    {
      "anonymous": false,
      "inputs": [
        {
          "indexed": true,
          "internalType": "address",
          "name": "previousOwner",
          "type": "address"
        },
        {
          "indexed": true,
          "internalType": "address",
          "name": "newOwner",
          "type": "address"
        }
      ],
      "name": "OwnershipTransferred",
      "type": "event"
    },
    {
      "anonymous": false,
      "inputs": [],
      "name": "warnCloseApplications",
      "type": "event"
    },
    {
      "anonymous": false,
      "inputs": [],
      "name": "warnOpenApplications",
      "type": "event"
    },
    {
      "inputs": [],
      "name": "cToken",
      "outputs": [
        {
          "internalType": "contract CERC20",
          "name": "",
          "type": "address"
        }
      ],
      "stateMutability": "view",
      "type": "function"
    },
    {
      "inputs": [],
      "name": "classroomActive",
      "outputs": [
        {
          "internalType": "bool",
          "name": "",
          "type": "bool"
        }
      ],
      "stateMutability": "view",
      "type": "function"
    },
    {
      "inputs": [],
      "name": "daiToken",
      "outputs": [
        {
          "internalType": "contract IERC20",
          "name": "",
          "type": "address"
        }
      ],
      "stateMutability": "view",
      "type": "function"
    },
    {
      "inputs": [],
      "name": "owner",
      "outputs": [
        {
          "internalType": "address",
          "name": "",
          "type": "address"
        }
      ],
      "stateMutability": "view",
      "type": "function"
    },
    {
      "inputs": [],
      "name": "renounceOwnership",
      "outputs": [],
      "stateMutability": "nonpayable",
      "type": "function"
    },
    {
      "inputs": [
        {
          "internalType": "address",
          "name": "newOwner",
          "type": "address"
        }
      ],
      "name": "transferOwnership",
      "outputs": [],
      "stateMutability": "nonpayable",
      "type": "function"
    },
    {
      "inputs": [],
      "name": "name",
      "outputs": [
        {
          "internalType": "bytes32",
          "name": "",
          "type": "bytes32"
        }
      ],
      "stateMutability": "view",
      "type": "function"
    },
    {
      "inputs": [
        {
          "internalType": "bytes32",
          "name": "val",
          "type": "bytes32"
        }
      ],
      "name": "changeName",
      "outputs": [],
      "stateMutability": "nonpayable",
      "type": "function"
    },
    {
      "inputs": [],
      "name": "principalCut",
      "outputs": [
        {
          "internalType": "uint24",
          "name": "",
          "type": "uint24"
        }
      ],
      "stateMutability": "view",
      "type": "function"
    },
    {
      "inputs": [
        {
          "internalType": "uint24",
          "name": "val",
          "type": "uint24"
        }
      ],
      "name": "changePrincipalCut",
      "outputs": [],
      "stateMutability": "nonpayable",
      "type": "function"
    },
    {
      "inputs": [],
      "name": "poolCut",
      "outputs": [
        {
          "internalType": "uint24",
          "name": "",
          "type": "uint24"
        }
      ],
      "stateMutability": "view",
      "type": "function"
    },
    {
      "inputs": [
        {
          "internalType": "uint24",
          "name": "val",
          "type": "uint24"
        }
      ],
      "name": "changePoolCut",
      "outputs": [],
      "stateMutability": "nonpayable",
      "type": "function"
    },
    {
      "inputs": [],
      "name": "minScore",
      "outputs": [
        {
          "internalType": "int32",
          "name": "",
          "type": "int32"
        }
      ],
      "stateMutability": "view",
      "type": "function"
    },
    {
      "inputs": [
        {
          "internalType": "int32",
          "name": "val",
          "type": "int32"
        }
      ],
      "name": "setMinScore",
      "outputs": [],
      "stateMutability": "nonpayable",
      "type": "function"
    },
    {
      "inputs": [],
      "name": "entryPrice",
      "outputs": [
        {
          "internalType": "uint256",
          "name": "",
          "type": "uint256"
        }
      ],
      "stateMutability": "view",
      "type": "function"
    },
    {
      "inputs": [
        {
          "internalType": "uint256",
          "name": "val",
          "type": "uint256"
        }
      ],
      "name": "setEntryPrice",
      "outputs": [],
      "stateMutability": "nonpayable",
      "type": "function"
    },
    {
      "inputs": [],
      "name": "duration",
      "outputs": [
        {
          "internalType": "uint256",
          "name": "",
          "type": "uint256"
        }
      ],
      "stateMutability": "view",
      "type": "function"
    },
    {
      "inputs": [
        {
          "internalType": "uint256",
          "name": "val",
          "type": "uint256"
        }
      ],
      "name": "setDuration",
      "outputs": [],
      "stateMutability": "nonpayable",
      "type": "function"
    },
    {
      "inputs": [],
      "name": "applicationsState",
      "outputs": [
        {
          "internalType": "bool",
          "name": "",
          "type": "bool"
        }
      ],
      "stateMutability": "view",
      "type": "function"
    },
    {
      "inputs": [],
      "name": "viewAllApplications",
      "outputs": [
        {
          "internalType": "address[]",
          "name": "",
          "type": "address[]"
        }
      ],
      "stateMutability": "view",
      "type": "function"
    },
    {
      "inputs": [],
      "name": "viewAllStudents",
      "outputs": [
        {
          "internalType": "address[]",
          "name": "",
          "type": "address[]"
        }
      ],
      "stateMutability": "view",
      "type": "function"
    },
    {
      "inputs": [],
      "name": "viewSeed",
      "outputs": [
        {
          "internalType": "bytes32",
          "name": "",
          "type": "bytes32"
        }
      ],
      "stateMutability": "view",
      "type": "function"
    },
    {
      "inputs": [],
      "name": "openApplications",
      "outputs": [],
      "stateMutability": "nonpayable",
      "type": "function"
    },
    {
      "inputs": [],
      "name": "closeApplications",
      "outputs": [],
      "stateMutability": "nonpayable",
      "type": "function"
    },
    {
      "inputs": [],
      "name": "applyDAI",
      "outputs": [],
      "stateMutability": "nonpayable",
      "type": "function"
    },
    {
      "inputs": [],
      "name": "studentApply",
      "outputs": [],
      "stateMutability": "nonpayable",
      "type": "function"
    },
    {
      "inputs": [],
      "name": "viewMyApplication",
      "outputs": [
        {
          "internalType": "address",
          "name": "",
          "type": "address"
        }
      ],
      "stateMutability": "view",
      "type": "function"
    },
    {
      "inputs": [
        {
          "internalType": "address",
          "name": "addr",
          "type": "address"
        }
      ],
      "name": "viewApplication",
      "outputs": [
        {
          "internalType": "address",
          "name": "",
          "type": "address"
        }
      ],
      "stateMutability": "view",
      "type": "function"
    },
    {
      "inputs": [],
      "name": "beginCourse",
      "outputs": [],
      "stateMutability": "nonpayable",
      "type": "function"
    },
    {
      "inputs": [],
      "name": "finishCourse",
      "outputs": [],
      "stateMutability": "nonpayable",
      "type": "function"
    }
  ],
  "bytecode": "0x60806040523480156200001157600080fd5b5060405162005e4a38038062005e4a83398181016040526101008110156200003857600080fd5b8101908080519060200190929190805190602001909291908051906020019092919080519060200190929190805190602001909291908051906020019092919080519060200190929190805190602001909291905050506000620000a16200029260201b60201c565b9050806000806101000a81548173ffffffffffffffffffffffffffffffffffffffff021916908373ffffffffffffffffffffffffffffffffffffffff1602179055508073ffffffffffffffffffffffffffffffffffffffff16600073ffffffffffffffffffffffffffffffffffffffff167f8be0079c531659141344cd1fd0a4f28419497f9722a3daafe3b4186f6b6457e060405160405180910390a3508760088190555081600160006101000a81548173ffffffffffffffffffffffffffffffffffffffff021916908373ffffffffffffffffffffffffffffffffffffffff1602179055506000600160146101000a81548160ff02191690831515021790555086600960006101000a81548162ffffff021916908362ffffff16021790555085600960036101000a81548162ffffff021916908362ffffff16021790555084600960066101000a81548163ffffffff021916908360030b63ffffffff16021790555083600a8190555082600b819055506000600e60146101000a81548160ff02191690831515021790555080600d60006101000a81548173ffffffffffffffffffffffffffffffffffffffff021916908373ffffffffffffffffffffffffffffffffffffffff1602179055506200027e6200029a60201b60201c565b600c819055505050505050505050620002c2565b600033905090565b60007f52414e444f4d0000000000000000000000000000000000000000000000000000905090565b615b7880620002d26000396000f3fe60806040523480156200001157600080fd5b5060043610620002085760003560e01c8063898855ed116200011d578063db07351711620000b1578063f2fde38b116200007b578063f2fde38b14620006e2578063f6be71d11462000729578063f745adfc146200075a578063fc48258d146200077a5762000208565b8063db07351714620005f1578063df55946a1462000615578063dfd78adc1462000649578063e804f16414620006ac5762000208565b8063a6e77af111620000f3578063a6e77af1146200055c578063ada02e19146200058d578063bbe3b9261462000599578063be22f54614620005a55762000208565b8063898855ed14620004bb5780638da5cb5b14620004ec578063a46268a814620005385762000208565b806369e527da11620001a157806376eada91116200016b57806376eada9114620003c85780637c0260cb146200044f5780638155e977146200045b5780638646bcec14620004915762000208565b806369e527da14620002c157806369e7af43146200030d5780636e8055a71462000370578063715018a614620003bc5762000208565b80631b9dbc6011620001e35780631b9dbc60146200027357806331960027146200027f578063431a16ef146200028b578063604d394314620002975762000208565b806306fdde03146200020d5780630fb5a6b4146200022d57806313c2bedc146200024d575b600080fd5b620002176200079a565b6040518082815260200191505060405180910390f35b62000237620007a4565b6040518082815260200191505060405180910390f35b62000257620007ae565b604051808260030b60030b815260200191505060405180910390f35b6200027d620007c5565b005b6200028962000b95565b005b6200029562000d71565b005b620002a162000f7b565b604051808262ffffff1662ffffff16815260200191505060405180910390f35b620002cb62000f94565b604051808273ffffffffffffffffffffffffffffffffffffffff1673ffffffffffffffffffffffffffffffffffffffff16815260200191505060405180910390f35b6200031762000fba565b6040518080602001828103825283818151815260200191508051906020019060200280838360005b838110156200035c5780820151818401526020810190506200033f565b505050509050019250505060405180910390f35b6200037a62001116565b604051808273ffffffffffffffffffffffffffffffffffffffff1673ffffffffffffffffffffffffffffffffffffffff16815260200191505060405180910390f35b620003c662001131565b005b6200040d60048036036020811015620003e057600080fd5b81019080803573ffffffffffffffffffffffffffffffffffffffff169060200190929190505050620012bc565b604051808273ffffffffffffffffffffffffffffffffffffffff1673ffffffffffffffffffffffffffffffffffffffff16815260200191505060405180910390f35b62000459620013fd565b005b6200048f600480360360208110156200047357600080fd5b81019080803562ffffff16906020019092919050505062001583565b005b6200049b62001671565b604051808262ffffff1662ffffff16815260200191505060405180910390f35b620004ea60048036036020811015620004d357600080fd5b81019080803590602001909291905050506200168a565b005b620004f662001760565b604051808273ffffffffffffffffffffffffffffffffffffffff1673ffffffffffffffffffffffffffffffffffffffff16815260200191505060405180910390f35b6200054262001789565b604051808215151515815260200191505060405180910390f35b6200058b600480360360208110156200057457600080fd5b81019080803590602001909291905050506200179c565b005b6200059762001872565b005b620005a362001ac0565b005b620005af62001d16565b604051808273ffffffffffffffffffffffffffffffffffffffff1673ffffffffffffffffffffffffffffffffffffffff16815260200191505060405180910390f35b620005fb62001d3c565b604051808215151515815260200191505060405180910390f35b62000647600480360360208110156200062d57600080fd5b81019080803560030b906020019092919050505062001d53565b005b6200065362001e46565b6040518080602001828103825283818151815260200191508051906020019060200280838360005b83811015620006985780820151818401526020810190506200067b565b505050509050019250505060405180910390f35b620006e060048036036020811015620006c457600080fd5b81019080803562ffffff16906020019092919050505062001fa2565b005b6200072760048036036020811015620006fa57600080fd5b81019080803573ffffffffffffffffffffffffffffffffffffffff16906020019092919050505062002090565b005b62000758600480360360208110156200074157600080fd5b8101908080359060200190929190505050620022a2565b005b6200076462002378565b6040518082815260200191505060405180910390f35b6200078462002382565b6040518082815260200191505060405180910390f35b6000600854905090565b6000600b54905090565b6000600960069054906101000a900460030b905090565b620007cf62001760565b73ffffffffffffffffffffffffffffffffffffffff16620007ef62002458565b73ffffffffffffffffffffffffffffffffffffffff1614156200085e576040517f08c379a000000000000000000000000000000000000000000000000000000000815260040180806020018281038252602d81526020018062005a33602d913960400191505060405180910390fd5b600160009054906101000a900473ffffffffffffffffffffffffffffffffffffffff1673ffffffffffffffffffffffffffffffffffffffff166316ded1ce620008a662002458565b6040518263ffffffff1660e01b8152600401808273ffffffffffffffffffffffffffffffffffffffff1673ffffffffffffffffffffffffffffffffffffffff16815260200191505060206040518083038186803b1580156200090757600080fd5b505afa1580156200091c573d6000803e3d6000fd5b505050506040513d60208110156200093357600080fd5b81019080805190602001909291905050506200099b576040517f08c379a000000000000000000000000000000000000000000000000000000000815260040180806020018281038252602481526020018062005af56024913960400191505060405180910390fd5b600160149054906101000a900460ff1662000a1e576040517f08c379a000000000000000000000000000000000000000000000000000000000815260040180806020018281038252601e8152602001807f436c617373726f6f6d3a206170706c69636174696f6e7320636c6f736564000081525060200191505060405180910390fd5b600062000a2a62002458565b9050600960069054906101000a900460030b60030b8173ffffffffffffffffffffffffffffffffffffffff1663efedc6696040518163ffffffff1660e01b815260040160206040518083038186803b15801562000a8657600080fd5b505afa15801562000a9b573d6000803e3d6000fd5b505050506040513d602081101562000ab257600080fd5b810190808051906020019092919050505060030b121562000b1f576040517f08c379a000000000000000000000000000000000000000000000000000000000815260040180806020018281038252602c815260200180620059c4602c913960400191505060405180910390fd5b600062000b2c8262002460565b90506002819080600181540180825580915050600190039060005260206000200160009091909190916101000a81548173ffffffffffffffffffffffffffffffffffffffff021916908373ffffffffffffffffffffffffffffffffffffffff1602179055505050565b62000b9f62002458565b73ffffffffffffffffffffffffffffffffffffffff166000809054906101000a900473ffffffffffffffffffffffffffffffffffffffff1673ffffffffffffffffffffffffffffffffffffffff161462000c61576040517f08c379a00000000000000000000000000000000000000000000000000000000081526004018080602001828103825260208152602001807f4f776e61626c653a2063616c6c6572206973206e6f7420746865206f776e657281525060200191505060405180910390fd5b600160149054906101000a900460ff161562000cc9576040517f08c379a000000000000000000000000000000000000000000000000000000000815260040180806020018281038252602a81526020018062005b19602a913960400191505060405180910390fd5b60006002805490501462000d29576040517f08c379a000000000000000000000000000000000000000000000000000000000815260040180806020018281038252602281526020018062005a116022913960400191505060405180910390fd5b60018060146101000a81548160ff0219169083151502179055507fed7fc56e5f714753b4e32ad38ecdac1df8e9cf07b3ae93031020b5452df875db60405160405180910390a1565b62000d7b62002458565b73ffffffffffffffffffffffffffffffffffffffff166000809054906101000a900473ffffffffffffffffffffffffffffffffffffffff1673ffffffffffffffffffffffffffffffffffffffff161462000e3d576040517f08c379a00000000000000000000000000000000000000000000000000000000081526004018080602001828103825260208152602001807f4f776e61626c653a2063616c6c6572206973206e6f7420746865206f776e657281525060200191505060405180910390fd5b42600754111562000e9a576040517f08c379a000000000000000000000000000000000000000000000000000000000815260040180806020018281038252602481526020018062005a816024913960400191505060405180910390fd5b60006003805490501162000f16576040517f08c379a000000000000000000000000000000000000000000000000000000000815260040180806020018281038252601a8152602001807f436c617373726f6f6d3a206e6f206170706c69636174696f6e7300000000000081525060200191505060405180910390fd5b60008062000f23620026a9565b91509150600062000f336200291a565b90506000606062000f46838686620029fe565b9150915062000f558162003289565b62000f608262003402565b62000f6a62003405565b62000f746200342a565b5050505050565b6000600960039054906101000a900462ffffff16905090565b600e60009054906101000a900473ffffffffffffffffffffffffffffffffffffffff1681565b606062000fc662002458565b73ffffffffffffffffffffffffffffffffffffffff166000809054906101000a900473ffffffffffffffffffffffffffffffffffffffff1673ffffffffffffffffffffffffffffffffffffffff161462001088576040517f08c379a00000000000000000000000000000000000000000000000000000000081526004018080602001828103825260208152602001807f4f776e61626c653a2063616c6c6572206973206e6f7420746865206f776e657281525060200191505060405180910390fd5b60058054806020026020016040519081016040528092919081815260200182805480156200110c57602002820191906000526020600020905b8160009054906101000a900473ffffffffffffffffffffffffffffffffffffffff1673ffffffffffffffffffffffffffffffffffffffff1681526020019060010190808311620010c1575b5050505050905090565b60006200112c6200112662002458565b620012bc565b905090565b6200113b62002458565b73ffffffffffffffffffffffffffffffffffffffff166000809054906101000a900473ffffffffffffffffffffffffffffffffffffffff1673ffffffffffffffffffffffffffffffffffffffff1614620011fd576040517f08c379a00000000000000000000000000000000000000000000000000000000081526004018080602001828103825260208152602001807f4f776e61626c653a2063616c6c6572206973206e6f7420746865206f776e657281525060200191505060405180910390fd5b600073ffffffffffffffffffffffffffffffffffffffff166000809054906101000a900473ffffffffffffffffffffffffffffffffffffffff1673ffffffffffffffffffffffffffffffffffffffff167f8be0079c531659141344cd1fd0a4f28419497f9722a3daafe3b4186f6b6457e060405160405180910390a360008060006101000a81548173ffffffffffffffffffffffffffffffffffffffff021916908373ffffffffffffffffffffffffffffffffffffffff160217905550565b6000620012c862002458565b73ffffffffffffffffffffffffffffffffffffffff168273ffffffffffffffffffffffffffffffffffffffff1614806200133f57506200130762001760565b73ffffffffffffffffffffffffffffffffffffffff166200132762002458565b73ffffffffffffffffffffffffffffffffffffffff16145b62001396576040517f08c379a0000000000000000000000000000000000000000000000000000000008152600401808060200182810382526021815260200180620059f06021913960400191505060405180910390fd5b600460008373ffffffffffffffffffffffffffffffffffffffff1673ffffffffffffffffffffffffffffffffffffffff16815260200190815260200160002060009054906101000a900473ffffffffffffffffffffffffffffffffffffffff169050919050565b6200140762002458565b73ffffffffffffffffffffffffffffffffffffffff166000809054906101000a900473ffffffffffffffffffffffffffffffffffffffff1673ffffffffffffffffffffffffffffffffffffffff1614620014c9576040517f08c379a00000000000000000000000000000000000000000000000000000000081526004018080602001828103825260208152602001807f4f776e61626c653a2063616c6c6572206973206e6f7420746865206f776e657281525060200191505060405180910390fd5b600160149054906101000a900460ff1662001530576040517f08c379a000000000000000000000000000000000000000000000000000000000815260040180806020018281038252602a81526020018062005acb602a913960400191505060405180910390fd5b6000600160146101000a81548160ff0219169083151502179055506200155562001872565b7f67ccc69b776bd9c78655440e78d4efa80a5630c9ab0d7b487930d75be9b8d80b60405160405180910390a1565b6200158d62002458565b73ffffffffffffffffffffffffffffffffffffffff166000809054906101000a900473ffffffffffffffffffffffffffffffffffffffff1673ffffffffffffffffffffffffffffffffffffffff16146200164f576040517f08c379a00000000000000000000000000000000000000000000000000000000081526004018080602001828103825260208152602001807f4f776e61626c653a2063616c6c6572206973206e6f7420746865206f776e657281525060200191505060405180910390fd5b80600960006101000a81548162ffffff021916908362ffffff16021790555050565b6000600960009054906101000a900462ffffff16905090565b6200169462002458565b73ffffffffffffffffffffffffffffffffffffffff166000809054906101000a900473ffffffffffffffffffffffffffffffffffffffff1673ffffffffffffffffffffffffffffffffffffffff161462001756576040517f08c379a00000000000000000000000000000000000000000000000000000000081526004018080602001828103825260208152602001807f4f776e61626c653a2063616c6c6572206973206e6f7420746865206f776e657281525060200191505060405180910390fd5b8060088190555050565b60008060009054906101000a900473ffffffffffffffffffffffffffffffffffffffff16905090565b600e60149054906101000a900460ff1681565b620017a662002458565b73ffffffffffffffffffffffffffffffffffffffff166000809054906101000a900473ffffffffffffffffffffffffffffffffffffffff1673ffffffffffffffffffffffffffffffffffffffff161462001868576040517f08c379a00000000000000000000000000000000000000000000000000000000081526004018080602001828103825260208152602001807f4f776e61626c653a2063616c6c6572206973206e6f7420746865206f776e657281525060200191505060405180910390fd5b80600a8190555050565b6200187c62002458565b73ffffffffffffffffffffffffffffffffffffffff166000809054906101000a900473ffffffffffffffffffffffffffffffffffffffff1673ffffffffffffffffffffffffffffffffffffffff16146200193e576040517f08c379a00000000000000000000000000000000000000000000000000000000081526004018080602001828103825260208152602001807f4f776e61626c653a2063616c6c6572206973206e6f7420746865206f776e657281525060200191505060405180910390fd5b6000600d60009054906101000a900473ffffffffffffffffffffffffffffffffffffffff1673ffffffffffffffffffffffffffffffffffffffff166370a08231306040518263ffffffff1660e01b8152600401808273ffffffffffffffffffffffffffffffffffffffff1673ffffffffffffffffffffffffffffffffffffffff16815260200191505060206040518083038186803b158015620019e057600080fd5b505afa158015620019f5573d6000803e3d6000fd5b505050506040513d602081101562001a0c57600080fd5b810190808051906020019092919050505090506000811162001a96576040517f08c379a000000000000000000000000000000000000000000000000000000000815260040180806020018281038252601c8152602001807f436c617373726f6f6d3a206e6f2066756e647320746f206170706c790000000081525060200191505060405180910390fd5b7f504c414345484f4c44455200000000000000000000000000000000000000000060088190555050565b62001aca62002458565b73ffffffffffffffffffffffffffffffffffffffff166000809054906101000a900473ffffffffffffffffffffffffffffffffffffffff1673ffffffffffffffffffffffffffffffffffffffff161462001b8c576040517f08c379a00000000000000000000000000000000000000000000000000000000081526004018080602001828103825260208152602001807f4f776e61626c653a2063616c6c6572206973206e6f7420746865206f776e657281525060200191505060405180910390fd5b600160149054906101000a900460ff161562001bf4576040517f08c379a000000000000000000000000000000000000000000000000000000000815260040180806020018281038252602681526020018062005aa56026913960400191505060405180910390fd5b62001bfe6200348e565b600067ffffffffffffffff8111801562001c1757600080fd5b5060405190808252806020026020018201604052801562001c475781602001602082028036833780820191505090505b506002908051906020019062001c5f92919062003aeb565b5060006003805490501162001cdc576040517f08c379a000000000000000000000000000000000000000000000000000000000815260040180806020018281038252601f8152602001807f436c617373726f6f6d3a206e6f207265616479206170706c69636174696f6e0081525060200191505060405180910390fd5b6001600e60146101000a81548160ff02191690831515021790555062001d0e600b5442620037b090919063ffffffff16565b600781905550565b600d60009054906101000a900473ffffffffffffffffffffffffffffffffffffffff1681565b6000600160149054906101000a900460ff16905090565b62001d5d62002458565b73ffffffffffffffffffffffffffffffffffffffff166000809054906101000a900473ffffffffffffffffffffffffffffffffffffffff1673ffffffffffffffffffffffffffffffffffffffff161462001e1f576040517f08c379a00000000000000000000000000000000000000000000000000000000081526004018080602001828103825260208152602001807f4f776e61626c653a2063616c6c6572206973206e6f7420746865206f776e657281525060200191505060405180910390fd5b80600960066101000a81548163ffffffff021916908360030b63ffffffff16021790555050565b606062001e5262002458565b73ffffffffffffffffffffffffffffffffffffffff166000809054906101000a900473ffffffffffffffffffffffffffffffffffffffff1673ffffffffffffffffffffffffffffffffffffffff161462001f14576040517f08c379a00000000000000000000000000000000000000000000000000000000081526004018080602001828103825260208152602001807f4f776e61626c653a2063616c6c6572206973206e6f7420746865206f776e657281525060200191505060405180910390fd5b600680548060200260200160405190810160405280929190818152602001828054801562001f9857602002820191906000526020600020905b8160009054906101000a900473ffffffffffffffffffffffffffffffffffffffff1673ffffffffffffffffffffffffffffffffffffffff168152602001906001019080831162001f4d575b5050505050905090565b62001fac62002458565b73ffffffffffffffffffffffffffffffffffffffff166000809054906101000a900473ffffffffffffffffffffffffffffffffffffffff1673ffffffffffffffffffffffffffffffffffffffff16146200206e576040517f08c379a00000000000000000000000000000000000000000000000000000000081526004018080602001828103825260208152602001807f4f776e61626c653a2063616c6c6572206973206e6f7420746865206f776e657281525060200191505060405180910390fd5b80600960036101000a81548162ffffff021916908362ffffff16021790555050565b6200209a62002458565b73ffffffffffffffffffffffffffffffffffffffff166000809054906101000a900473ffffffffffffffffffffffffffffffffffffffff1673ffffffffffffffffffffffffffffffffffffffff16146200215c576040517f08c379a00000000000000000000000000000000000000000000000000000000081526004018080602001828103825260208152602001807f4f776e61626c653a2063616c6c6572206973206e6f7420746865206f776e657281525060200191505060405180910390fd5b600073ffffffffffffffffffffffffffffffffffffffff168173ffffffffffffffffffffffffffffffffffffffff161415620021e4576040517f08c379a00000000000000000000000000000000000000000000000000000000081526004018080602001828103825260268152602001806200599e6026913960400191505060405180910390fd5b8073ffffffffffffffffffffffffffffffffffffffff166000809054906101000a900473ffffffffffffffffffffffffffffffffffffffff1673ffffffffffffffffffffffffffffffffffffffff167f8be0079c531659141344cd1fd0a4f28419497f9722a3daafe3b4186f6b6457e060405160405180910390a3806000806101000a81548173ffffffffffffffffffffffffffffffffffffffff021916908373ffffffffffffffffffffffffffffffffffffffff16021790555050565b620022ac62002458565b73ffffffffffffffffffffffffffffffffffffffff166000809054906101000a900473ffffffffffffffffffffffffffffffffffffffff1673ffffffffffffffffffffffffffffffffffffffff16146200236e576040517f08c379a00000000000000000000000000000000000000000000000000000000081526004018080602001828103825260208152602001807f4f776e61626c653a2063616c6c6572206973206e6f7420746865206f776e657281525060200191505060405180910390fd5b80600b8190555050565b6000600a54905090565b60006200238e62002458565b73ffffffffffffffffffffffffffffffffffffffff166000809054906101000a900473ffffffffffffffffffffffffffffffffffffffff1673ffffffffffffffffffffffffffffffffffffffff161462002450576040517f08c379a00000000000000000000000000000000000000000000000000000000081526004018080602001828103825260208152602001807f4f776e61626c653a2063616c6c6572206973206e6f7420746865206f776e657281525060200191505060405180910390fd5b600c54905090565b600033905090565b6000808230600d60009054906101000a900473ffffffffffffffffffffffffffffffffffffffff16600c54604051620024999062003b7a565b808573ffffffffffffffffffffffffffffffffffffffff1673ffffffffffffffffffffffffffffffffffffffff1681526020018473ffffffffffffffffffffffffffffffffffffffff1673ffffffffffffffffffffffffffffffffffffffff1681526020018373ffffffffffffffffffffffffffffffffffffffff1673ffffffffffffffffffffffffffffffffffffffff168152602001828152602001945050505050604051809103906000f08015801562002559573d6000803e3d6000fd5b50905080600460008573ffffffffffffffffffffffffffffffffffffffff1673ffffffffffffffffffffffffffffffffffffffff16815260200190815260200160002060006101000a81548173ffffffffffffffffffffffffffffffffffffffff021916908373ffffffffffffffffffffffffffffffffffffffff1602179055506005839080600181540180825580915050600190039060005260206000200160009091909190916101000a81548173ffffffffffffffffffffffffffffffffffffffff021916908373ffffffffffffffffffffffffffffffffffffffff1602179055506006819080600181540180825580915050600190039060005260206000200160009091909190916101000a81548173ffffffffffffffffffffffffffffffffffffffff021916908373ffffffffffffffffffffffffffffffffffffffff16021790555080915050919050565b6000806000809050600080905060008090505b6003805490508110156200290d5760038181548110620026d857fe5b9060005260206000200160009054906101000a900473ffffffffffffffffffffffffffffffffffffffff1673ffffffffffffffffffffffffffffffffffffffff1663289cf0d26040518163ffffffff1660e01b8152600401600060405180830381600087803b1580156200274b57600080fd5b505af115801562002760573d6000803e3d6000fd5b5050505060038082815481106200277357fe5b9060005260206000200160009054906101000a900473ffffffffffffffffffffffffffffffffffffffff1673ffffffffffffffffffffffffffffffffffffffff16636587b61e6040518163ffffffff1660e01b815260040160206040518083038186803b158015620027e457600080fd5b505afa158015620027f9573d6000803e3d6000fd5b505050506040513d60208110156200281057600080fd5b81019080805190602001909291905050501415620028315782806001019350505b6005600382815481106200284157fe5b9060005260206000200160009054906101000a900473ffffffffffffffffffffffffffffffffffffffff1673ffffffffffffffffffffffffffffffffffffffff16636587b61e6040518163ffffffff1660e01b815260040160206040518083038186803b158015620028b257600080fd5b505afa158015620028c7573d6000803e3d6000fd5b505050506040513d6020811015620028de57600080fd5b81019080805190602001909291905050501415620028ff5781806001019250505b8080600101915050620026bc565b5081819350935050509091565b6000600d60009054906101000a900473ffffffffffffffffffffffffffffffffffffffff1673ffffffffffffffffffffffffffffffffffffffff166370a08231306040518263ffffffff1660e01b8152600401808273ffffffffffffffffffffffffffffffffffffffff1673ffffffffffffffffffffffffffffffffffffffff16815260200191505060206040518083038186803b158015620029bc57600080fd5b505afa158015620029d1573d6000803e3d6000fd5b505050506040513d6020811015620029e857600080fd5b8101908080519060200190929190505050905090565b6000606060006003805490509050600062002a3962002a2983600a546200383990919063ffffffff16565b88620038c490919063ffffffff16565b9050600062002a81620f424062002a72600960009054906101000a900462ffffff1662ffffff16600a546200383990919063ffffffff16565b6200391090919063ffffffff16565b9050600062002a9c82600a54620038c490919063ffffffff16565b9050600062002ac98562002aba8b876200383990919063ffffffff16565b6200391090919063ffffffff16565b9050600062002b0f620f424062002b00600960039054906101000a900462ffffff1662ffffff16856200383990919063ffffffff16565b6200391090919063ffffffff16565b9050600062002b3c8b62002b2d8489620038c490919063ffffffff16565b6200391090919063ffffffff16565b905060608767ffffffffffffffff8111801562002b5857600080fd5b5060405190808252806020026020018201604052801562002b885781602001602082028036833780820191505090505b50905060008090505b888110156200304a57600380828154811062002ba957fe5b9060005260206000200160009054906101000a900473ffffffffffffffffffffffffffffffffffffffff1673ffffffffffffffffffffffffffffffffffffffff16636587b61e6040518163ffffffff1660e01b815260040160206040518083038186803b15801562002c1a57600080fd5b505afa15801562002c2f573d6000803e3d6000fd5b505050506040513d602081101562002c4657600080fd5b8101908080519060200190929190505050141562002d3a576003818154811062002c6c57fe5b9060005260206000200160009054906101000a900473ffffffffffffffffffffffffffffffffffffffff1673ffffffffffffffffffffffffffffffffffffffff16637db9abaf87856040518363ffffffff1660e01b81526004018083815260200182815260200192505050600060405180830381600087803b15801562002cf257600080fd5b505af115801562002d07573d6000803e3d6000fd5b5050505062002d208387620037b090919063ffffffff16565b82828151811062002d2d57fe5b6020026020010181815250505b60046003828154811062002d4a57fe5b9060005260206000200160009054906101000a900473ffffffffffffffffffffffffffffffffffffffff1673ffffffffffffffffffffffffffffffffffffffff16636587b61e6040518163ffffffff1660e01b815260040160206040518083038186803b15801562002dbb57600080fd5b505afa15801562002dd0573d6000803e3d6000fd5b505050506040513d602081101562002de757600080fd5b8101908080519060200190929190505050141562002ec8576003818154811062002e0d57fe5b9060005260206000200160009054906101000a900473ffffffffffffffffffffffffffffffffffffffff1673ffffffffffffffffffffffffffffffffffffffff16637db9abaf8760006040518363ffffffff1660e01b81526004018083815260200182815260200192505050600060405180830381600087803b15801562002e9457600080fd5b505af115801562002ea9573d6000803e3d6000fd5b505050508582828151811062002ebb57fe5b6020026020010181815250505b60056003828154811062002ed857fe5b9060005260206000200160009054906101000a900473ffffffffffffffffffffffffffffffffffffffff1673ffffffffffffffffffffffffffffffffffffffff16636587b61e6040518163ffffffff1660e01b815260040160206040518083038186803b15801562002f4957600080fd5b505afa15801562002f5e573d6000803e3d6000fd5b505050506040513d602081101562002f7557600080fd5b810190808051906020019092919050505014156200303c576003818154811062002f9b57fe5b9060005260206000200160009054906101000a900473ffffffffffffffffffffffffffffffffffffffff1673ffffffffffffffffffffffffffffffffffffffff16637db9abaf6000806040518363ffffffff1660e01b81526004018083815260200182815260200192505050600060405180830381600087803b1580156200302257600080fd5b505af115801562003037573d6000803e3d6000fd5b505050505b808060010191505062002b91565b50600062003064600a548d6200383990919063ffffffff16565b905060006200313e620f42406200312f600160009054906101000a900473ffffffffffffffffffffffffffffffffffffffff1673ffffffffffffffffffffffffffffffffffffffff1663e6fd604c6040518163ffffffff1660e01b815260040160206040518083038186803b158015620030dd57600080fd5b505afa158015620030f2573d6000803e3d6000fd5b505050506040513d60208110156200310957600080fd5b810190808051906020019092919050505062ffffff16886200383990919063ffffffff16565b6200391090919063ffffffff16565b90506000620031578e8c620038c490919063ffffffff16565b9050600062003245620f424062003236600160009054906101000a900473ffffffffffffffffffffffffffffffffffffffff1673ffffffffffffffffffffffffffffffffffffffff1663e6fd604c6040518163ffffffff1660e01b815260040160206040518083038186803b158015620031d057600080fd5b505afa158015620031e5573d6000803e3d6000fd5b505050506040513d6020811015620031fc57600080fd5b810190808051906020019092919050505062ffffff1662003227868f6200383990919063ffffffff16565b6200383990919063ffffffff16565b6200391090919063ffffffff16565b90506200327081620032618587620037b090919063ffffffff16565b620037b090919063ffffffff16565b859d509d50505050505050505050505050935093915050565b60008090505b600380549050811015620033fe576000828281518110620032ac57fe5b60200260200101511115620033f057600d60009054906101000a900473ffffffffffffffffffffffffffffffffffffffff1673ffffffffffffffffffffffffffffffffffffffff1663095ea7b3600383815481106200330757fe5b9060005260206000200160009054906101000a900473ffffffffffffffffffffffffffffffffffffffff168484815181106200333f57fe5b60200260200101516040518363ffffffff1660e01b8152600401808373ffffffffffffffffffffffffffffffffffffffff1673ffffffffffffffffffffffffffffffffffffffff16815260200182815260200192505050602060405180830381600087803b158015620033b157600080fd5b505af1158015620033c6573d6000803e3d6000fd5b505050506040513d6020811015620033dd57600080fd5b8101908080519060200190929190505050505b80806001019150506200328f565b5050565b50565b60008090505b600380549050811015620034275780806001019150506200340b565b50565b600067ffffffffffffffff811180156200344357600080fd5b50604051908082528060200260200182016040528015620034735781602001602082028036833780820191505090505b50600390805190602001906200348b92919062003aeb565b50565b60008090505b6002805490508110156200374b57600160028281548110620034b257fe5b9060005260206000200160009054906101000a900473ffffffffffffffffffffffffffffffffffffffff1673ffffffffffffffffffffffffffffffffffffffff16636587b61e6040518163ffffffff1660e01b815260040160206040518083038186803b1580156200352357600080fd5b505afa15801562003538573d6000803e3d6000fd5b505050506040513d60208110156200354f57600080fd5b81019080805190602001909291905050501415620036a257600281815481106200357557fe5b9060005260206000200160009054906101000a900473ffffffffffffffffffffffffffffffffffffffff1673ffffffffffffffffffffffffffffffffffffffff16630f15f4c06040518163ffffffff1660e01b8152600401600060405180830381600087803b158015620035e857600080fd5b505af1158015620035fd573d6000803e3d6000fd5b505050506003600282815481106200361157fe5b9060005260206000200160009054906101000a900473ffffffffffffffffffffffffffffffffffffffff169080600181540180825580915050600190039060005260206000200160009091909190916101000a81548173ffffffffffffffffffffffffffffffffffffffff021916908373ffffffffffffffffffffffffffffffffffffffff1602179055506200373d565b60028181548110620036b057fe5b9060005260206000200160009054906101000a900473ffffffffffffffffffffffffffffffffffffffff1673ffffffffffffffffffffffffffffffffffffffff166379599f966040518163ffffffff1660e01b8152600401600060405180830381600087803b1580156200372357600080fd5b505af115801562003738573d6000803e3d6000fd5b505050505b808060010191505062003494565b50600067ffffffffffffffff811180156200376557600080fd5b50604051908082528060200260200182016040528015620037955781602001602082028036833780820191505090505b5060029080519060200190620037ad92919062003aeb565b50565b6000808284019050838110156200382f576040517f08c379a000000000000000000000000000000000000000000000000000000000815260040180806020018281038252601b8152602001807f536166654d6174683a206164646974696f6e206f766572666c6f77000000000081525060200191505060405180910390fd5b8091505092915050565b6000808314156200384e5760009050620038be565b60008284029050828482816200386057fe5b0414620038b9576040517f08c379a000000000000000000000000000000000000000000000000000000000815260040180806020018281038252602181526020018062005a606021913960400191505060405180910390fd5b809150505b92915050565b60006200390883836040518060400160405280601e81526020017f536166654d6174683a207375627472616374696f6e206f766572666c6f7700008152506200395c565b905092915050565b60006200395483836040518060400160405280601a81526020017f536166654d6174683a206469766973696f6e206279207a65726f00000000000081525062003a20565b905092915050565b600083831115829062003a0d576040517f08c379a00000000000000000000000000000000000000000000000000000000081526004018080602001828103825283818151815260200191508051906020019080838360005b83811015620039d1578082015181840152602081019050620039b4565b50505050905090810190601f168015620039ff5780820380516001836020036101000a031916815260200191505b509250505060405180910390fd5b5060008385039050809150509392505050565b6000808311829062003ad0576040517f08c379a00000000000000000000000000000000000000000000000000000000081526004018080602001828103825283818151815260200191508051906020019080838360005b8381101562003a9457808201518184015260208101905062003a77565b50505050905090810190601f16801562003ac25780820380516001836020036101000a031916815260200191505b509250505060405180910390fd5b50600083858162003add57fe5b049050809150509392505050565b82805482825590600052602060002090810192821562003b67579160200282015b8281111562003b665782518260006101000a81548173ffffffffffffffffffffffffffffffffffffffff021916908373ffffffffffffffffffffffffffffffffffffffff1602179055509160200191906001019062003b0c565b5b50905062003b76919062003b88565b5090565b611dcf8062003bcf83390190565b62003bcb91905b8082111562003bc757600081816101000a81549073ffffffffffffffffffffffffffffffffffffffff02191690555060010162003b8f565b5090565b9056fe608060405234801561001057600080fd5b5060405162001dcf38038062001dcf8339818101604052608081101561003557600080fd5b8101908080519060200190929190805190602001909291908051906020019092919080519060200190929190505050600061007461023260201b60201c565b9050806000806101000a81548173ffffffffffffffffffffffffffffffffffffffff021916908373ffffffffffffffffffffffffffffffffffffffff1602179055508073ffffffffffffffffffffffffffffffffffffffff16600073ffffffffffffffffffffffffffffffffffffffff167f8be0079c531659141344cd1fd0a4f28419497f9722a3daafe3b4186f6b6457e060405160405180910390a3506000600260146101000a81548160ff0219169083600681111561013157fe5b021790555083600360006101000a81548173ffffffffffffffffffffffffffffffffffffffff021916908373ffffffffffffffffffffffffffffffffffffffff16021790555082600460006101000a81548173ffffffffffffffffffffffffffffffffffffffff021916908373ffffffffffffffffffffffffffffffffffffffff1602179055506000600660006101000a81548160ff02191690831515021790555081600160006101000a81548173ffffffffffffffffffffffffffffffffffffffff021916908373ffffffffffffffffffffffffffffffffffffffff1602179055506102238161023a60201b60201c565b60058190555050505050610266565b600033905090565b60007f52414e444f4d000000000000000000000000000000000000000000000000000082189050919050565b611b5980620002766000396000f3fe608060405234801561001057600080fd5b506004361061010b5760003560e01c8063715018a6116100a25780638da5cb5b116100715780638da5cb5b14610274578063be22f546146102be578063c7a51bc314610308578063f2fde38b14610326578063fc48258d1461036a5761010b565b8063715018a61461021e57806379599f96146102285780637db9abaf14610232578063872d7c791461026a5761010b565b80633db0bfd2116100de5780633db0bfd2146101505780636587b61e1461019e57806366995a46146101bc57806370bc0d6f146102005761010b565b80630bb8ebf6146101105780630f15f4c014610132578063289cf0d21461013c5780632d24947b14610146575b600080fd5b610118610388565b604051808215151515815260200191505060405180910390f35b61013a61043f565b005b6101446105ab565b005b61014e61070f565b005b61019c6004803603604081101561016657600080fd5b81019080803573ffffffffffffffffffffffffffffffffffffffff169060200190929190803590602001909291905050506109e4565b005b6101a6610c30565b6040518082815260200191505060405180910390f35b6101fe600480360360208110156101d257600080fd5b81019080803573ffffffffffffffffffffffffffffffffffffffff169060200190929190505050610d43565b005b610208610d56565b6040518082815260200191505060405180910390f35b610226610e95565b005b61023061101d565b005b6102686004803603604081101561024857600080fd5b81019080803590602001909291908035906020019092919050505061118a565b005b6102726112c5565b005b61027c6114d4565b604051808273ffffffffffffffffffffffffffffffffffffffff1673ffffffffffffffffffffffffffffffffffffffff16815260200191505060405180910390f35b6102c66114fd565b604051808273ffffffffffffffffffffffffffffffffffffffff1673ffffffffffffffffffffffffffffffffffffffff16815260200191505060405180910390f35b610310611523565b6040518082815260200191505060405180910390f35b6103686004803603602081101561033c57600080fd5b81019080803573ffffffffffffffffffffffffffffffffffffffff169060200190929190505050611661565b005b61037261186e565b6040518082815260200191505060405180910390f35b6000600260009054906101000a900473ffffffffffffffffffffffffffffffffffffffff1673ffffffffffffffffffffffffffffffffffffffff166339e7357c6040518163ffffffff1660e01b815260040160206040518083038186803b1580156103f257600080fd5b505afa92505050801561042657506040513d602081101561041257600080fd5b810190808051906020019092919050505060015b610433576000905061043c565b60055481149150505b90565b610447611941565b73ffffffffffffffffffffffffffffffffffffffff166000809054906101000a900473ffffffffffffffffffffffffffffffffffffffff1673ffffffffffffffffffffffffffffffffffffffff1614610508576040517f08c379a00000000000000000000000000000000000000000000000000000000081526004018080602001828103825260208152602001807f4f776e61626c653a2063616c6c6572206973206e6f7420746865206f776e657281525060200191505060405180910390fd5b6000600681111561051557fe5b600260149054906101000a900460ff16600681111561053057fe5b14610586576040517f08c379a000000000000000000000000000000000000000000000000000000000815260040180806020018281038252602a815260200180611a7a602a913960400191505060405180910390fd5b60028060146101000a81548160ff021916908360068111156105a457fe5b0217905550565b6105b3611941565b73ffffffffffffffffffffffffffffffffffffffff166000809054906101000a900473ffffffffffffffffffffffffffffffffffffffff1673ffffffffffffffffffffffffffffffffffffffff1614610674576040517f08c379a00000000000000000000000000000000000000000000000000000000081526004018080602001828103825260208152602001807f4f776e61626c653a2063616c6c6572206973206e6f7420746865206f776e657281525060200191505060405180910390fd5b600660009054906101000a900460ff166106b1576005600260146101000a81548160ff021916908360068111156106a757fe5b021790555061070d565b6106b9610388565b156106e7576003600260146101000a81548160ff021916908360068111156106dd57fe5b021790555061070c565b6004600260146101000a81548160ff0219169083600681111561070657fe5b02179055505b5b565b6000600681111561071c57fe5b600260149054906101000a900460ff16600681111561073757fe5b1461078d576040517f08c379a000000000000000000000000000000000000000000000000000000000815260040180806020018281038252602a815260200180611a7a602a913960400191505060405180910390fd5b600160009054906101000a900473ffffffffffffffffffffffffffffffffffffffff1673ffffffffffffffffffffffffffffffffffffffff166323b872dd33600460009054906101000a900473ffffffffffffffffffffffffffffffffffffffff16600460009054906101000a900473ffffffffffffffffffffffffffffffffffffffff1673ffffffffffffffffffffffffffffffffffffffff1663f745adfc6040518163ffffffff1660e01b815260040160206040518083038186803b15801561085757600080fd5b505afa15801561086b573d6000803e3d6000fd5b505050506040513d602081101561088157600080fd5b81019080805190602001909291905050506040518463ffffffff1660e01b8152600401808473ffffffffffffffffffffffffffffffffffffffff1673ffffffffffffffffffffffffffffffffffffffff1681526020018373ffffffffffffffffffffffffffffffffffffffff1673ffffffffffffffffffffffffffffffffffffffff1681526020018281526020019350505050602060405180830381600087803b15801561092e57600080fd5b505af1158015610942573d6000803e3d6000fd5b505050506040513d602081101561095857600080fd5b81019080805190602001909291905050506109be576040517f08c379a000000000000000000000000000000000000000000000000000000000815260040180806020018281038252602a815260200180611aa4602a913960400191505060405180910390fd5b6001600260146101000a81548160ff021916908360068111156109dd57fe5b0217905550565b600360009054906101000a900473ffffffffffffffffffffffffffffffffffffffff1673ffffffffffffffffffffffffffffffffffffffff16610a25611941565b73ffffffffffffffffffffffffffffffffffffffff1614610a91576040517f08c379a000000000000000000000000000000000000000000000000000000000815260040180806020018281038252602d8152602001806119ee602d913960400191505060405180910390fd5b6002610a9b610c30565b11610af1576040517f08c379a000000000000000000000000000000000000000000000000000000000815260040180806020018281038252602c815260200180611ace602c913960400191505060405180910390fd5b600160009054906101000a900473ffffffffffffffffffffffffffffffffffffffff1673ffffffffffffffffffffffffffffffffffffffff166323b872dd600460009054906101000a900473ffffffffffffffffffffffffffffffffffffffff1684846040518463ffffffff1660e01b8152600401808473ffffffffffffffffffffffffffffffffffffffff1673ffffffffffffffffffffffffffffffffffffffff1681526020018373ffffffffffffffffffffffffffffffffffffffff1673ffffffffffffffffffffffffffffffffffffffff1681526020018281526020019350505050602060405180830381600087803b158015610bf057600080fd5b505af1158015610c04573d6000803e3d6000fd5b505050506040513d6020811015610c1a57600080fd5b8101908080519060200190929190505050505050565b6000600360009054906101000a900473ffffffffffffffffffffffffffffffffffffffff1673ffffffffffffffffffffffffffffffffffffffff16610c73611941565b73ffffffffffffffffffffffffffffffffffffffff161480610cce5750610c986114d4565b73ffffffffffffffffffffffffffffffffffffffff16610cb6611941565b73ffffffffffffffffffffffffffffffffffffffff16145b610d23576040517f08c379a000000000000000000000000000000000000000000000000000000000815260040180806020018281038252602a815260200180611afa602a913960400191505060405180910390fd5b600260149054906101000a900460ff166006811115610d3e57fe5b905090565b610d5381600854600754016109e4565b50565b6000600660009054906101000a900460ff16610dbd576040517f08c379a00000000000000000000000000000000000000000000000000000000081526004018080602001828103825260298152602001806119c56029913960400191505060405180910390fd5b600260009054906101000a900473ffffffffffffffffffffffffffffffffffffffff1673ffffffffffffffffffffffffffffffffffffffff16610dfe611941565b73ffffffffffffffffffffffffffffffffffffffff1614610e6a576040517f08c379a00000000000000000000000000000000000000000000000000000000081526004018080602001828103825260258152602001806119a06025913960400191505060405180910390fd5b6005547f4841434b4d4f4e455900000000000000000000000000000000000000000000001917905090565b610e9d611941565b73ffffffffffffffffffffffffffffffffffffffff166000809054906101000a900473ffffffffffffffffffffffffffffffffffffffff1673ffffffffffffffffffffffffffffffffffffffff1614610f5e576040517f08c379a00000000000000000000000000000000000000000000000000000000081526004018080602001828103825260208152602001807f4f776e61626c653a2063616c6c6572206973206e6f7420746865206f776e657281525060200191505060405180910390fd5b600073ffffffffffffffffffffffffffffffffffffffff166000809054906101000a900473ffffffffffffffffffffffffffffffffffffffff1673ffffffffffffffffffffffffffffffffffffffff167f8be0079c531659141344cd1fd0a4f28419497f9722a3daafe3b4186f6b6457e060405160405180910390a360008060006101000a81548173ffffffffffffffffffffffffffffffffffffffff021916908373ffffffffffffffffffffffffffffffffffffffff160217905550565b611025611941565b73ffffffffffffffffffffffffffffffffffffffff166000809054906101000a900473ffffffffffffffffffffffffffffffffffffffff1673ffffffffffffffffffffffffffffffffffffffff16146110e6576040517f08c379a00000000000000000000000000000000000000000000000000000000081526004018080602001828103825260208152602001807f4f776e61626c653a2063616c6c6572206973206e6f7420746865206f776e657281525060200191505060405180910390fd5b600060068111156110f357fe5b600260149054906101000a900460ff16600681111561110e57fe5b14611164576040517f08c379a000000000000000000000000000000000000000000000000000000000815260040180806020018281038252602a815260200180611a7a602a913960400191505060405180910390fd5b6006600260146101000a81548160ff0219169083600681111561118357fe5b0217905550565b611192611941565b73ffffffffffffffffffffffffffffffffffffffff166000809054906101000a900473ffffffffffffffffffffffffffffffffffffffff1673ffffffffffffffffffffffffffffffffffffffff1614611253576040517f08c379a00000000000000000000000000000000000000000000000000000000081526004018080602001828103825260208152602001807f4f776e61626c653a2063616c6c6572206973206e6f7420746865206f776e657281525060200191505060405180910390fd5b600261125d610c30565b116112b3576040517f08c379a000000000000000000000000000000000000000000000000000000000815260040180806020018281038252603081526020018061194a6030913960400191505060405180910390fd5b81600781905550806008819055505050565b600260068111156112d257fe5b600260149054906101000a900460ff1660068111156112ed57fe5b14611343576040517f08c379a000000000000000000000000000000000000000000000000000000000815260040180806020018281038252602d815260200180611a4d602d913960400191505060405180910390fd5b600061134d611941565b9050600360009054906101000a900473ffffffffffffffffffffffffffffffffffffffff1673ffffffffffffffffffffffffffffffffffffffff168173ffffffffffffffffffffffffffffffffffffffff1663893d20e86040518163ffffffff1660e01b815260040160206040518083038186803b1580156113ce57600080fd5b505afa1580156113e2573d6000803e3d6000fd5b505050506040513d60208110156113f857600080fd5b810190808051906020019092919050505073ffffffffffffffffffffffffffffffffffffffff1614611475576040517f08c379a0000000000000000000000000000000000000000000000000000000008152600401808060200182810382526032815260200180611a1b6032913960400191505060405180910390fd5b80600260006101000a81548173ffffffffffffffffffffffffffffffffffffffff021916908373ffffffffffffffffffffffffffffffffffffffff1602179055506001600660006101000a81548160ff02191690831515021790555050565b60008060009054906101000a900473ffffffffffffffffffffffffffffffffffffffff16905090565b600160009054906101000a900473ffffffffffffffffffffffffffffffffffffffff1681565b6000600660009054906101000a900460ff1661158a576040517f08c379a00000000000000000000000000000000000000000000000000000000081526004018080602001828103825260298152602001806119c56029913960400191505060405180910390fd5b600260009054906101000a900473ffffffffffffffffffffffffffffffffffffffff1673ffffffffffffffffffffffffffffffffffffffff166115cb611941565b73ffffffffffffffffffffffffffffffffffffffff1614611637576040517f08c379a00000000000000000000000000000000000000000000000000000000081526004018080602001828103825260258152602001806119a06025913960400191505060405180910390fd5b6005547f4841434b4d4f4e4559000000000000000000000000000000000000000000000017905090565b611669611941565b73ffffffffffffffffffffffffffffffffffffffff166000809054906101000a900473ffffffffffffffffffffffffffffffffffffffff1673ffffffffffffffffffffffffffffffffffffffff161461172a576040517f08c379a00000000000000000000000000000000000000000000000000000000081526004018080602001828103825260208152602001807f4f776e61626c653a2063616c6c6572206973206e6f7420746865206f776e657281525060200191505060405180910390fd5b600073ffffffffffffffffffffffffffffffffffffffff168173ffffffffffffffffffffffffffffffffffffffff1614156117b0576040517f08c379a000000000000000000000000000000000000000000000000000000000815260040180806020018281038252602681526020018061197a6026913960400191505060405180910390fd5b8073ffffffffffffffffffffffffffffffffffffffff166000809054906101000a900473ffffffffffffffffffffffffffffffffffffffff1673ffffffffffffffffffffffffffffffffffffffff167f8be0079c531659141344cd1fd0a4f28419497f9722a3daafe3b4186f6b6457e060405160405180910390a3806000806101000a81548173ffffffffffffffffffffffffffffffffffffffff021916908373ffffffffffffffffffffffffffffffffffffffff16021790555050565b6000611878611941565b73ffffffffffffffffffffffffffffffffffffffff166000809054906101000a900473ffffffffffffffffffffffffffffffffffffffff1673ffffffffffffffffffffffffffffffffffffffff1614611939576040517f08c379a00000000000000000000000000000000000000000000000000000000081526004018080602001828103825260208152602001807f4f776e61626c653a2063616c6c6572206973206e6f7420746865206f776e657281525060200191505060405180910390fd5b600554905090565b60003390509056fe53747564656e744170706c69636174696f6e3a206170706c69636174696f6e206e6f742066696e6973686564207965744f776e61626c653a206e6577206f776e657220697320746865207a65726f206164647265737353747564656e744170706c69636174696f6e3a2061726520796f75206368656174696e673f53747564656e744170706c69636174696f6e3a20616e73776572206e6f74207265676973746572656453747564656e744170706c69636174696f6e3a206f6e6c792073747564656e742063616e20776974686472617753747564656e744170706c69636174696f6e3a2073747564656e74206973206e6f74206f776e6572206f6620616e7377657253747564656e744170706c69636174696f6e3a206170706c69636174696f6e206973206e6f742061637469766553747564656e744170706c69636174696f6e3a206170706c69636174696f6e206973206e6f74204e657753747564656e744170706c69636174696f6e3a20636f756c64206e6f74207472616e736665722044414953747564656e744170706c69636174696f6e3a206170706c69636174696f6e206e6f742066696e697368656453747564656e744170706c69636174696f6e3a2072656164207065726d697373696f6e2064656e696564a26469706673582212205a9b8923eb655ff150886617e1f56033bc8c274cbe03458fc1f95ba31d9e58cc64736f6c634300060600334f776e61626c653a206e6577206f776e657220697320746865207a65726f2061646472657373436c617373726f6f6d3a2073747564656e7420646f65736e2774206861766520656e6f7567682073636f7265436c617373726f6f6d3a2072656164207065726d697373696f6e2064656e696564436c617373726f6f6d3a2073747564656e7473206c697374206e6f7420656d707479436c617373726f6f6d3a2070726f666573736f722063616e277420626520697473206f776e2073747564656e74536166654d6174683a206d756c7469706c69636174696f6e206f766572666c6f77436c617373726f6f6d3a20746f6f20736f6f6e20746f2066696e69736820636f75727365436c617373726f6f6d3a206170706c69636174696f6e7320617265207374696c6c206f70656e436c617373726f6f6d3a206170706c69636174696f6e732061726520616c726561647920636c6f736564436c617373726f6f6d3a2073747564656e74206973206e6f742072656769737465726564436c617373726f6f6d3a206170706c69636174696f6e732061726520616c7265616479206f70656e6564a2646970667358221220dcc98617bd2864ca9eac9ca0c37f1b6f4792f52676bf9d6868fcefb2039221c364736f6c63430006060033",
  "immutableReferences": {},
  "source": "pragma solidity 0.6.6;\r\n\r\nimport \"@openzeppelin/contracts/math/SafeMath.sol\";\r\nimport \"@openzeppelin/contracts/access/AccessControl.sol\";\r\nimport \"@openzeppelin/contracts/access/Ownable.sol\";\r\nimport \"@openzeppelin/contracts/token/ERC20/IERC20.sol\";\r\nimport \"@openzeppelin/contracts/token/ERC20/IERC20.sol\";\r\nimport \"@openzeppelin/contracts/utils/Address.sol\";\r\nimport \"./University.sol\";\r\nimport \"./Student.sol\";\r\nimport \"./StudentApplication.sol\";\r\n\r\ncontract Classroom is Ownable {\r\n    using SafeMath for uint256;\r\n\r\n    University _university;\r\n    bool _openForApplication;\r\n    StudentApplication[] _studentApplications;\r\n    StudentApplication[] _validStudentApplications;\r\n    mapping(address => address) _studentApplicationsLink;\r\n    address[] _studentsLookUp;\r\n    address[] _applicationsLookUp;\r\n    uint _endDate;\r\n\r\n    //Classroom parameters\r\n    bytes32 _name;\r\n    uint24 _principalCut;\r\n    uint24 _poolCut;\r\n    int32 _minScore;\r\n    uint _entryPrice;\r\n    uint _duration;\r\n    bytes32 _seed;\r\n\r\n    IERC20 public daiToken;\r\n    CERC20 public cToken;\r\n\r\n    bool public classroomActive;\r\n\r\n    event warnOpenApplications();\r\n\r\n    event warnCloseApplications();\r\n\r\n    constructor(bytes32 name, uint24 principalCut, uint24 poolCut, int32 minScore, uint entryPrice,\r\n            uint duration, address universityAddress, address daiAddress) public {\r\n        _name = name;\r\n        _university = University(universityAddress);\r\n        _openForApplication = false;\r\n        _principalCut = principalCut;\r\n        _poolCut = poolCut;\r\n        _minScore = minScore;\r\n        _entryPrice = entryPrice;\r\n        _duration = duration;\r\n        classroomActive = false;\r\n        //Kovan address\r\n        daiToken = IERC20(daiAddress);\r\n        _seed = generateSeed();\r\n    }\r\n\r\n    function name() public view returns (bytes32) {\r\n        return _name;\r\n    }\r\n\r\n    function changeName(bytes32 val) public onlyOwner {\r\n        _name = val;\r\n    }\r\n\r\n    function principalCut() public view returns (uint24){\r\n        return _principalCut;\r\n    }\r\n\r\n    function changePrincipalCut(uint24 val) public onlyOwner {\r\n        _principalCut = val;\r\n    }\r\n\r\n    function poolCut() public view returns (uint24){\r\n        return _poolCut;\r\n    }\r\n\r\n    function changePoolCut(uint24 val) public onlyOwner {\r\n        _poolCut = val;\r\n    }\r\n\r\n    function minScore() public view returns (int32) {\r\n        return _minScore;\r\n    }\r\n\r\n    function setMinScore(int32 val) public onlyOwner {\r\n        _minScore = val;\r\n    }\r\n\r\n    function entryPrice() public view returns (uint) {\r\n        return _entryPrice;\r\n    }\r\n\r\n    function setEntryPrice(uint val) public onlyOwner {\r\n        _entryPrice = val;\r\n    }\r\n\r\n    function duration() public view returns (uint) {\r\n        return _duration;\r\n    }\r\n\r\n    function setDuration(uint val) public onlyOwner {\r\n        _duration = val;\r\n    }\r\n\r\n    function applicationsState() public view returns (bool) {\r\n        return _openForApplication;\r\n    }\r\n\r\n    function viewAllApplications() public view onlyOwner returns (address[] memory) {\r\n        return _applicationsLookUp;\r\n    }\r\n\r\n    function viewAllStudents() public view onlyOwner returns (address[] memory) {\r\n        return _studentsLookUp;\r\n    }\r\n\r\n    function generateSeed() internal pure returns (bytes32) {\r\n        //TODO:\r\n        return \"RANDOM\";\r\n    }\r\n\r\n    function viewSeed() public view onlyOwner returns (bytes32) {\r\n        return _seed;\r\n    }\r\n\r\n    function openApplications() public onlyOwner {\r\n        require(!_openForApplication, \"Classroom: applications are already opened\");\r\n        require(_studentApplications.length == 0, \"Classroom: students list not empty\");\r\n        _openForApplication = true;\r\n        emit warnOpenApplications();\r\n    }\r\n\r\n    function closeApplications() public onlyOwner {\r\n        require(_openForApplication, \"Classroom: applications are already closed\");\r\n        _openForApplication = false;\r\n        applyDAI();\r\n        emit warnCloseApplications();\r\n    }\r\n\r\n    //public onlyOwner allow the professor to apply money before closing applications\r\n    function applyDAI() public onlyOwner {\r\n        uint balance = daiToken.balanceOf(address(this));\r\n        require(balance > 0, \"Classroom: no funds to apply\");\r\n        _name = \"PLACEHOLDER\";\r\n        //TODO:\r\n    }\r\n\r\n    function studentApply() public{\r\n        require(_msgSender() != owner(), \"Classroom: professor can't be its own student\");\r\n        require(_university.studentIsRegistered(_msgSender()), \"Classroom: student is not registered\");\r\n        require(_openForApplication, \"Classroom: applications closed\");\r\n        Student applicant = Student(_msgSender());\r\n        require(applicant.score() >= _minScore, \"Classroom: student doesn't have enough score\");\r\n        StudentApplication application = _createStudentApplication(applicant);\r\n        _studentApplications.push(application);\r\n    }\r\n\r\n    function _createStudentApplication(Student student) internal returns (StudentApplication) {\r\n        //TODO: fetch contract from external factory to reduce size\r\n        StudentApplication newApplication = new StudentApplication(address(student), address(this), address(daiToken), _seed);\r\n        _studentApplicationsLink[address(student)] = address(newApplication);\r\n        _studentsLookUp.push(address(student));\r\n        _applicationsLookUp.push(address(newApplication));\r\n        return newApplication;\r\n    }\r\n\r\n    function viewMyApplication() public view returns (address) {\r\n        return viewApplication(_msgSender());\r\n    }\r\n\r\n    function viewApplication(address addr) public view returns (address) {\r\n        require(addr == _msgSender() || _msgSender() == owner(), \"Classroom: read permission denied\");\r\n        return _studentApplicationsLink[addr];\r\n    }\r\n\r\n    function beginCourse() public onlyOwner {\r\n        require(!_openForApplication, \"Classroom: applications are still open\");\r\n        checkApplications();\r\n        _studentApplications = new StudentApplication[](0);\r\n        require(_validStudentApplications.length > 0, \"Classroom: no ready application\");\r\n        classroomActive = true;\r\n        //TODO: use oracle\r\n        _endDate = block.timestamp.add(_duration);\r\n    }\r\n\r\n    function checkApplications() internal {\r\n        for (uint i = 0; i < _studentApplications.length ; i++) {\r\n            if (_studentApplications[i].applicationState() == 1) {\r\n                _studentApplications[i].activate();\r\n                _validStudentApplications.push(_studentApplications[i]);\r\n            }\r\n            else {\r\n                _studentApplications[i].expire();\r\n            }\r\n        }\r\n        _studentApplications = new StudentApplication[](0);\r\n    }\r\n\r\n    function finishCourse() public onlyOwner {\r\n        //TODO: use oracle\r\n        require (_endDate <= block.timestamp, \"Classroom: too soon to finish course\");\r\n        require (_validStudentApplications.length > 0, \"Classroom: no applications\");\r\n        (uint successCount, uint emptyCount) = _startAnswerVerification();\r\n        uint totalBalance = _recoverInvestment();\r\n        (uint universityCut, uint[] memory studentAllowances) = _accountValues(totalBalance, successCount, emptyCount);\r\n        _resolveStudentAllowances(studentAllowances);\r\n        _resolveUniversityCut(universityCut);\r\n        _updateStudentScores();\r\n        _clearClassroom();\r\n    }\r\n\r\n    function _startAnswerVerification() internal returns (uint, uint) {\r\n        uint successCount = 0;\r\n        uint emptyCount = 0;\r\n        for (uint i = 0; i < _validStudentApplications.length ; i++) {\r\n            _validStudentApplications[i].registerFinalAnswer();\r\n            if (_validStudentApplications[i].applicationState() == 3) successCount++;\r\n            if (_validStudentApplications[i].applicationState() == 5) emptyCount++;\r\n        }\r\n        return (successCount, emptyCount);\r\n    }\r\n\r\n    function _recoverInvestment() internal returns (uint) {\r\n        \r\n        return daiToken.balanceOf(address(this));\r\n    }\r\n\r\n    function _accountValues(uint totalBalance, uint successCount, uint emptyCount) internal returns (uint, uint[] memory) {\r\n        uint nStudents = _validStudentApplications.length;\r\n        uint returnsPool = totalBalance.sub(_entryPrice.mul(nStudents));\r\n        uint professorPaymentPerStudent = _entryPrice.mul(_principalCut).div(10 ** 6);\r\n        uint studentPrincipalReturn = _entryPrice.sub(professorPaymentPerStudent);\r\n        uint successPool = returnsPool.mul(successCount).div(nStudents);\r\n        uint professorTotalPoolSuccessShare = successPool.mul(_poolCut).div(10 ** 6);\r\n        uint successStudentPoolShare = returnsPool.sub(professorTotalPoolSuccessShare).div(successCount);\r\n        uint[] memory studentAllowances = new uint[](nStudents);\r\n        for (uint i = 0; i < nStudents ; i++) {\r\n            if (_validStudentApplications[i].applicationState() == 3) {\r\n                _validStudentApplications[i].accountAllowance(studentPrincipalReturn, successStudentPoolShare);\r\n                studentAllowances[i] = studentPrincipalReturn.add(successStudentPoolShare);\r\n            }\r\n            if (_validStudentApplications[i].applicationState() == 4){\r\n                _validStudentApplications[i].accountAllowance(studentPrincipalReturn, 0);\r\n                studentAllowances[i] = studentPrincipalReturn;\r\n            }\r\n            if (_validStudentApplications[i].applicationState() == 5)\r\n                _validStudentApplications[i].accountAllowance(0, 0);\r\n        }\r\n        uint universityEmptyShare = emptyCount.mul(_entryPrice);\r\n        uint universityPaymentShare = professorTotalPoolSuccessShare.mul(_university.cut()).div(10 ** 6);\r\n        uint notEmptyCount = nStudents.sub(emptyCount);\r\n        uint universitySucessPoolShare = professorPaymentPerStudent.mul(notEmptyCount).mul(_university.cut()).div(10 ** 6);\r\n        return (universityEmptyShare.add(universityPaymentShare).add(universitySucessPoolShare), studentAllowances);\r\n    }\r\n\r\n    function _resolveStudentAllowances(uint[] memory studentAllowances) internal {\r\n        for (uint i = 0; i < _validStudentApplications.length ; i++) {\r\n            if (studentAllowances[i] > 0) daiToken.approve(address(_validStudentApplications[i]), studentAllowances[i]);\r\n        }\r\n    }\r\n\r\n    function _resolveUniversityCut(uint universityCut) internal {\r\n        //TODO:\r\n    }\r\n\r\n    function _updateStudentScores() internal {\r\n        for (uint i = 0; i < _validStudentApplications.length ; i++) {\r\n            //TODO:\r\n        }\r\n    }\r\n\r\n    function _clearClassroom() internal {\r\n        _validStudentApplications = new StudentApplication[](0);\r\n    }\r\n}",
  "sourcePath": "/mnt/e/Repositories/Uproot/contracts/Classroom.sol",
  "compiler": {
    "name": "solc",
    "version": "0.6.6+commit.6c089d02.Emscripten.clang"
  },
  "schemaVersion": "3.1.0",
  "updatedAt": "2020-05-02T02:28:42.710Z",
  "devdoc": {
    "methods": {
      "owner()": {
        "details": "Returns the address of the current owner."
      },
      "renounceOwnership()": {
        "details": "Leaves the contract without owner. It will not be possible to call `onlyOwner` functions anymore. Can only be called by the current owner.     * NOTE: Renouncing ownership will leave the contract without an owner, thereby removing any functionality that is only available to the owner."
      },
      "transferOwnership(address)": {
        "details": "Transfers ownership of the contract to a new account (`newOwner`). Can only be called by the current owner."
      }
    }
  },
  "userdoc": {
    "methods": {}
  }
}