{
  "contractName": "Classroom",
  "abi": [
    {
      "inputs": [
        {
          "internalType": "bytes32",
          "name": "_name",
          "type": "bytes32"
        },
        {
          "internalType": "uint24",
          "name": "_principalCut",
          "type": "uint24"
        },
        {
          "internalType": "uint24",
          "name": "_poolCut",
          "type": "uint24"
        },
        {
          "internalType": "int32",
          "name": "_minScore",
          "type": "int32"
        },
        {
          "internalType": "uint256",
          "name": "_entryPrice",
          "type": "uint256"
        },
        {
          "internalType": "uint256",
          "name": "_duration",
          "type": "uint256"
        },
        {
          "internalType": "address",
          "name": "universityAddress",
          "type": "address"
        },
        {
          "internalType": "address",
          "name": "challengeAddress",
          "type": "address"
        },
        {
          "internalType": "address",
          "name": "daiAddress",
          "type": "address"
        },
        {
          "internalType": "address",
          "name": "compoundAddress",
          "type": "address"
        }
      ],
      "stateMutability": "nonpayable",
      "type": "constructor"
    },
    {
      "anonymous": false,
      "inputs": [
        {
          "indexed": true,
          "internalType": "bytes32",
          "name": "id",
          "type": "bytes32"
        }
      ],
      "name": "ChainlinkCancelled",
      "type": "event"
    },
    {
      "anonymous": false,
      "inputs": [
        {
          "indexed": true,
          "internalType": "bytes32",
          "name": "id",
          "type": "bytes32"
        }
      ],
      "name": "ChainlinkFulfilled",
      "type": "event"
    },
    {
      "anonymous": false,
      "inputs": [
        {
          "indexed": true,
          "internalType": "bytes32",
          "name": "id",
          "type": "bytes32"
        }
      ],
      "name": "ChainlinkRequested",
      "type": "event"
    },
    {
      "anonymous": false,
      "inputs": [
        {
          "indexed": false,
          "internalType": "address",
          "name": "",
          "type": "address"
        }
      ],
      "name": "LogChangeChallenge",
      "type": "event"
    },
    {
      "anonymous": false,
      "inputs": [
        {
          "indexed": false,
          "internalType": "uint256",
          "name": "",
          "type": "uint256"
        }
      ],
      "name": "LogChangeDuration",
      "type": "event"
    },
    {
      "anonymous": false,
      "inputs": [
        {
          "indexed": false,
          "internalType": "uint256",
          "name": "",
          "type": "uint256"
        }
      ],
      "name": "LogChangeEntryPrice",
      "type": "event"
    },
    {
      "anonymous": false,
      "inputs": [
        {
          "indexed": false,
          "internalType": "int32",
          "name": "",
          "type": "int32"
        }
      ],
      "name": "LogChangeMinScore",
      "type": "event"
    },
    {
      "anonymous": false,
      "inputs": [
        {
          "indexed": false,
          "internalType": "bytes32",
          "name": "",
          "type": "bytes32"
        }
      ],
      "name": "LogChangeName",
      "type": "event"
    },
    {
      "anonymous": false,
      "inputs": [
        {
          "indexed": false,
          "internalType": "uint24",
          "name": "",
          "type": "uint24"
        }
      ],
      "name": "LogChangePoolCut",
      "type": "event"
    },
    {
      "anonymous": false,
      "inputs": [
        {
          "indexed": false,
          "internalType": "uint24",
          "name": "",
          "type": "uint24"
        }
      ],
      "name": "LogChangePrincipalCut",
      "type": "event"
    },
    {
      "anonymous": false,
      "inputs": [],
      "name": "LogCloseApplications",
      "type": "event"
    },
    {
      "anonymous": false,
      "inputs": [],
      "name": "LogCourseFinished",
      "type": "event"
    },
    {
      "anonymous": false,
      "inputs": [],
      "name": "LogOpenApplications",
      "type": "event"
    },
    {
      "anonymous": false,
      "inputs": [
        {
          "indexed": true,
          "internalType": "address",
          "name": "previousOwner",
          "type": "address"
        },
        {
          "indexed": true,
          "internalType": "address",
          "name": "newOwner",
          "type": "address"
        }
      ],
      "name": "OwnershipTransferred",
      "type": "event"
    },
    {
      "inputs": [],
      "name": "_challengeAddress",
      "outputs": [
        {
          "internalType": "address",
          "name": "",
          "type": "address"
        }
      ],
      "stateMutability": "view",
      "type": "function"
    },
    {
      "inputs": [],
      "name": "cToken",
      "outputs": [
        {
          "internalType": "contract CERC20",
          "name": "",
          "type": "address"
        }
      ],
      "stateMutability": "view",
      "type": "function"
    },
    {
      "inputs": [],
      "name": "classroomActive",
      "outputs": [
        {
          "internalType": "bool",
          "name": "",
          "type": "bool"
        }
      ],
      "stateMutability": "view",
      "type": "function"
    },
    {
      "inputs": [],
      "name": "courseFinished",
      "outputs": [
        {
          "internalType": "bool",
          "name": "",
          "type": "bool"
        }
      ],
      "stateMutability": "view",
      "type": "function"
    },
    {
      "inputs": [],
      "name": "daiToken",
      "outputs": [
        {
          "internalType": "contract IERC20",
          "name": "",
          "type": "address"
        }
      ],
      "stateMutability": "view",
      "type": "function"
    },
    {
      "inputs": [],
      "name": "duration",
      "outputs": [
        {
          "internalType": "uint256",
          "name": "",
          "type": "uint256"
        }
      ],
      "stateMutability": "view",
      "type": "function"
    },
    {
      "inputs": [],
      "name": "entryPrice",
      "outputs": [
        {
          "internalType": "uint256",
          "name": "",
          "type": "uint256"
        }
      ],
      "stateMutability": "view",
      "type": "function"
    },
    {
      "inputs": [],
      "name": "minScore",
      "outputs": [
        {
          "internalType": "int32",
          "name": "",
          "type": "int32"
        }
      ],
      "stateMutability": "view",
      "type": "function"
    },
    {
      "inputs": [],
      "name": "name",
      "outputs": [
        {
          "internalType": "bytes32",
          "name": "",
          "type": "bytes32"
        }
      ],
      "stateMutability": "view",
      "type": "function"
    },
    {
      "inputs": [],
      "name": "openForApplication",
      "outputs": [
        {
          "internalType": "bool",
          "name": "",
          "type": "bool"
        }
      ],
      "stateMutability": "view",
      "type": "function"
    },
    {
      "inputs": [],
      "name": "owner",
      "outputs": [
        {
          "internalType": "address",
          "name": "",
          "type": "address"
        }
      ],
      "stateMutability": "view",
      "type": "function"
    },
    {
      "inputs": [],
      "name": "poolCut",
      "outputs": [
        {
          "internalType": "uint24",
          "name": "",
          "type": "uint24"
        }
      ],
      "stateMutability": "view",
      "type": "function"
    },
    {
      "inputs": [],
      "name": "principalCut",
      "outputs": [
        {
          "internalType": "uint24",
          "name": "",
          "type": "uint24"
        }
      ],
      "stateMutability": "view",
      "type": "function"
    },
    {
      "inputs": [],
      "name": "renounceOwnership",
      "outputs": [],
      "stateMutability": "nonpayable",
      "type": "function"
    },
    {
      "inputs": [
        {
          "internalType": "address",
          "name": "newOwner",
          "type": "address"
        }
      ],
      "name": "transferOwnership",
      "outputs": [],
      "stateMutability": "nonpayable",
      "type": "function"
    },
    {
      "inputs": [],
      "name": "university",
      "outputs": [
        {
          "internalType": "contract University",
          "name": "",
          "type": "address"
        }
      ],
      "stateMutability": "view",
      "type": "function"
    },
    {
      "inputs": [
        {
          "internalType": "address",
          "name": "oracleRandom",
          "type": "address"
        },
        {
          "internalType": "bytes32",
          "name": "requestIdRandom",
          "type": "bytes32"
        },
        {
          "internalType": "uint256",
          "name": "oraclePaymentRandom",
          "type": "uint256"
        },
        {
          "internalType": "address",
          "name": "oracleTimestamp",
          "type": "address"
        },
        {
          "internalType": "bytes32",
          "name": "requestIdTimestamp",
          "type": "bytes32"
        },
        {
          "internalType": "uint256",
          "name": "oraclePaymentTimestamp",
          "type": "uint256"
        }
      ],
      "name": "configureOracles",
      "outputs": [],
      "stateMutability": "nonpayable",
      "type": "function"
    },
    {
      "inputs": [
        {
          "internalType": "bytes32",
          "name": "val",
          "type": "bytes32"
        }
      ],
      "name": "changeName",
      "outputs": [],
      "stateMutability": "nonpayable",
      "type": "function"
    },
    {
      "inputs": [
        {
          "internalType": "uint24",
          "name": "val",
          "type": "uint24"
        }
      ],
      "name": "changePrincipalCut",
      "outputs": [],
      "stateMutability": "nonpayable",
      "type": "function"
    },
    {
      "inputs": [
        {
          "internalType": "uint24",
          "name": "val",
          "type": "uint24"
        }
      ],
      "name": "changePoolCut",
      "outputs": [],
      "stateMutability": "nonpayable",
      "type": "function"
    },
    {
      "inputs": [
        {
          "internalType": "int32",
          "name": "val",
          "type": "int32"
        }
      ],
      "name": "changeMinScore",
      "outputs": [],
      "stateMutability": "nonpayable",
      "type": "function"
    },
    {
      "inputs": [
        {
          "internalType": "uint256",
          "name": "val",
          "type": "uint256"
        }
      ],
      "name": "changeEntryPrice",
      "outputs": [],
      "stateMutability": "nonpayable",
      "type": "function"
    },
    {
      "inputs": [
        {
          "internalType": "uint256",
          "name": "val",
          "type": "uint256"
        }
      ],
      "name": "changeDuration",
      "outputs": [],
      "stateMutability": "nonpayable",
      "type": "function"
    },
    {
      "inputs": [],
      "name": "viewAllApplications",
      "outputs": [
        {
          "internalType": "address[]",
          "name": "",
          "type": "address[]"
        }
      ],
      "stateMutability": "view",
      "type": "function"
    },
    {
      "inputs": [],
      "name": "viewAllStudents",
      "outputs": [
        {
          "internalType": "address[]",
          "name": "",
          "type": "address[]"
        }
      ],
      "stateMutability": "view",
      "type": "function"
    },
    {
      "inputs": [
        {
          "internalType": "bytes32",
          "name": "_requestId",
          "type": "bytes32"
        },
        {
          "internalType": "uint256",
          "name": "data",
          "type": "uint256"
        }
      ],
      "name": "fulfillGenerateSeed",
      "outputs": [],
      "stateMutability": "nonpayable",
      "type": "function"
    },
    {
      "inputs": [
        {
          "internalType": "bytes32",
          "name": "_requestId",
          "type": "bytes32"
        }
      ],
      "name": "fulfillGetTimestamp",
      "outputs": [],
      "stateMutability": "nonpayable",
      "type": "function"
    },
    {
      "inputs": [
        {
          "internalType": "address",
          "name": "addr",
          "type": "address"
        }
      ],
      "name": "changeChallenge",
      "outputs": [],
      "stateMutability": "nonpayable",
      "type": "function"
    },
    {
      "inputs": [],
      "name": "isClassroomEmpty",
      "outputs": [
        {
          "internalType": "bool",
          "name": "",
          "type": "bool"
        }
      ],
      "stateMutability": "view",
      "type": "function"
    },
    {
      "inputs": [],
      "name": "isCourseOngoing",
      "outputs": [
        {
          "internalType": "bool",
          "name": "",
          "type": "bool"
        }
      ],
      "stateMutability": "view",
      "type": "function"
    },
    {
      "inputs": [],
      "name": "openApplications",
      "outputs": [],
      "stateMutability": "nonpayable",
      "type": "function"
    },
    {
      "inputs": [],
      "name": "closeApplications",
      "outputs": [],
      "stateMutability": "nonpayable",
      "type": "function"
    },
    {
      "inputs": [],
      "name": "applyDAI",
      "outputs": [],
      "stateMutability": "nonpayable",
      "type": "function"
    },
    {
      "inputs": [],
      "name": "studentApply",
      "outputs": [],
      "stateMutability": "nonpayable",
      "type": "function"
    },
    {
      "inputs": [],
      "name": "viewMyApplication",
      "outputs": [
        {
          "internalType": "address",
          "name": "",
          "type": "address"
        }
      ],
      "stateMutability": "view",
      "type": "function"
    },
    {
      "inputs": [
        {
          "internalType": "address",
          "name": "addr",
          "type": "address"
        }
      ],
      "name": "viewApplication",
      "outputs": [
        {
          "internalType": "address",
          "name": "",
          "type": "address"
        }
      ],
      "stateMutability": "view",
      "type": "function"
    },
    {
      "inputs": [],
      "name": "beginCourse",
      "outputs": [],
      "stateMutability": "nonpayable",
      "type": "function"
    },
    {
      "inputs": [],
      "name": "finishCourse",
      "outputs": [],
      "stateMutability": "nonpayable",
      "type": "function"
    },
    {
      "inputs": [],
      "name": "processResults",
      "outputs": [],
      "stateMutability": "nonpayable",
      "type": "function"
    },
    {
      "inputs": [],
      "name": "withdrawAllResults",
      "outputs": [],
      "stateMutability": "nonpayable",
      "type": "function"
    }
  ],
  "bytecode": "0x608060405260016005553480156200001657600080fd5b5060405162005f9238038062005f9283398181016040526101408110156200003d57600080fd5b508051602082015160408301516060840151608085015160a086015160c087015160e088015161010089015161012090990151979896979596949593949293919290916000620000956001600160e01b03620001a916565b600080546001600160a01b0319166001600160a01b0383169081178255604051929350917f8be0079c531659141344cd1fd0a4f28419497f9722a3daafe3b4186f6b6457e0908290a35060108a90556011805462ffffff191662ffffff8b81169190911765ffffff00000019166301000000918b16919091021763ffffffff60301b1916660100000000000063ffffffff60038b900b16021790556012869055601385905560078054601680546001600160a01b03199081166001600160a01b03888116919091179092559182168782161762ff00ff60a01b19169092556014805482168584161790556015805490911691831691909117905562000199620001ad565b5050505050505050505062000648565b3390565b620001b7620005f7565b601854620001d7903063100b510360e11b6001600160e01b036200020616565b60175460195491925062000202916001600160a01b039091169083906001600160e01b036200024116565b5050565b62000210620005f7565b6200021a620005f7565b62000238858585846200042b60201b620039bd17909392919060201c565b95945050505050565b6005546040805130606090811b60208084019190915260348084018690528451808503909101815260549093018452825192810192909220908601939093526000838152600690915281812080546001600160a01b0319166001600160a01b038816179055905182917fb5e6e01e79f91267dc17b4e6314d5d4d03593d2ceee0fbb452b750bd70ea5af991a26003546001600160a01b0316634000aea08584620002f4876001600160e01b036200047716565b6040518463ffffffff1660e01b815260040180846001600160a01b03166001600160a01b0316815260200183815260200180602001828103825283818151815260200191508051906020019080838360005b838110156200036057818101518382015260200162000346565b50505050905090810190601f1680156200038e5780820380516001836020036101000a031916815260200191505b50945050505050602060405180830381600087803b158015620003b057600080fd5b505af1158015620003c5573d6000803e3d6000fd5b505050506040513d6020811015620003dc57600080fd5b50516200041b5760405162461bcd60e51b815260040180806020018281038252602381526020018062005f6f6023913960400191505060405180910390fd5b6005805460010190559392505050565b62000435620005f7565b620004528560800151610100620005ba60201b62003baf1760201c565b50509183526001600160a01b031660208301526001600160e01b031916604082015290565b6060634042994660e01b6000808460000151856020015186604001518760600151600189608001516000015160405160240180896001600160a01b03166001600160a01b03168152602001888152602001878152602001866001600160a01b03166001600160a01b03168152602001856001600160e01b0319166001600160e01b031916815260200184815260200183815260200180602001828103825283818151815260200191508051906020019080838360005b83811015620005475781810151838201526020016200052d565b50505050905090810190601f168015620005755780820380516001836020036101000a031916815260200191505b5060408051601f198184030181529190526020810180516001600160e01b03166001600160e01b0319909d169c909c17909b5250989950505050505050505050919050565b620005c46200062e565b6020820615620005da5760208206602003820191505b506020828101829052604080518085526000815290920101905290565b6040805160a081018252600080825260208201819052918101829052606081019190915260808101620006296200062e565b905290565b604051806040016040528060608152602001600081525090565b61591780620006586000396000f3fe60806040523480156200001157600080fd5b5060043610620003105760003560e01c80637c0260cb11620001a1578063ae12894e11620000ed578063e804f1641162000099578063f745adfc116200007b578063f745adfc1462000658578063f87c5cb11462000662578063fe7da9e914620006ad5762000310565b8063e804f164146200060a578063f2fde38b146200062f5762000310565b8063bbe3b92611620000cf578063bbe3b92614620005ec578063be22f54614620005f6578063dfd78adc14620006005762000310565b8063ae12894e14620005c2578063b594f08614620005cc5762000310565b8063a3f73c2d116200014d578063aa055a40116200012f578063aa055a4014620005a4578063ada02e1914620005ae578063adf45ef214620005b85762000310565b8063a3f73c2d1462000571578063a46268a8146200059a5762000310565b80638646bcec11620001835780638646bcec146200053d578063898855ed14620005475780638da5cb5b14620005675762000310565b80637c0260cb146200050e5780638155e97714620005185762000310565b8063431a16ef116200026157806369e527da116200020d5780636e8055a711620001ef5780636e8055a714620004d1578063715018a614620004db57806376eada9114620004e55762000310565b806369e527da146200046b57806369e7af4314620004755762000310565b80634ffb660c11620002435780634ffb660c146200041c5780635aa33a2d146200043f578063604d394314620004495762000310565b8063431a16ef14620004085780634c5e789314620004125762000310565b806313c2bedc11620002c15780632016a20611620002a35780632016a20614620003ce5780633196002714620003f45780633bcd97d414620003fe5762000310565b806313c2bedc14620003a15780631b9dbc6014620003c45762000310565b80630aab456911620002f75780630aab456914620003575780630b78cb0e14620003795780630fb5a6b414620003975762000310565b806306fdde03146200031557806309ea165d1462000331575b600080fd5b6200031f620006cd565b60408051918252519081900360200190f35b6200033b620006d3565b604080516001600160a01b039092168252519081900360200190f35b62000377600480360360208110156200036f57600080fd5b5035620006e2565b005b62000383620007c4565b604080519115158252519081900360200190f35b6200031f620007d4565b620003ab620007da565b60408051600392830b90920b8252519081900360200190f35b62000377620007ed565b6200037760048036036040811015620003e657600080fd5b508035906020013562000aaa565b6200037762000b61565b6200038362000ca2565b6200037762000cc4565b6200037762000e39565b62000377600480360360208110156200043457600080fd5b503560030b62000fb2565b6200038362001093565b62000453620010a3565b6040805162ffffff9092168252519081900360200190f35b6200033b620010b5565b6200047f620010c4565b60408051602080825283518183015283519192839290830191858101910280838360005b83811015620004bd578181015183820152602001620004a3565b505050509050019250505060405180910390f35b6200033b62001184565b620003776200119f565b6200033b60048036036020811015620004fd57600080fd5b50356001600160a01b031662001245565b62000377620012f0565b62000377600480360360208110156200053057600080fd5b503562ffffff16620013e9565b6200045362001497565b62000377600480360360208110156200055f57600080fd5b5035620014a2565b6200033b62001539565b62000377600480360360208110156200058957600080fd5b50356001600160a01b031662001548565b6200038362001645565b6200037762001668565b6200037762001834565b6200038362001a54565b6200033b62001a5c565b6200037760048036036020811015620005e457600080fd5b503562001a6b565b6200037762001b02565b6200033b62001d2b565b6200047f62001d3a565b62000377600480360360208110156200062257600080fd5b503562ffffff1662001df8565b62000377600480360360208110156200064757600080fd5b50356001600160a01b031662001eb4565b6200031f62001fb2565b62000377600480360360c08110156200067a57600080fd5b506001600160a01b03813581169160208101359160408201359160608101359091169060808101359060a0013562001fb8565b6200037760048036036020811015620006c557600080fd5b503562002057565b60105481565b6016546001600160a01b031681565b60008181526006602052604090205481906001600160a01b031633146200073b5760405162461bcd60e51b8152600401808060200182810382526028815260200180620058ba6028913960400191505060405180910390fd5b60008181526006602052604080822080546001600160a01b03191690555182917f7cc135e0cebb02c3480ae5d74d377283180a2601f8f644edf7987b009316c63a91a25050600780547fffffffffffffffff00ffffffffffffffffffffffffffffffffffffffffffffff1677010000000000000000000000000000000000000000000000179055565b600754600160a01b900460ff1681565b60135481565b6011546601000000000000900460030b81565b620007f762001539565b6001600160a01b03166200080a620020ee565b6001600160a01b03161415620008525760405162461bcd60e51b815260040180806020018281038252602d81526020018062005760602d913960400191505060405180910390fd5b6007546001600160a01b03166316ded1ce6200086d620020ee565b6040518263ffffffff1660e01b815260040180826001600160a01b03166001600160a01b0316815260200191505060206040518083038186803b158015620008b457600080fd5b505afa158015620008c9573d6000803e3d6000fd5b505050506040513d6020811015620008e057600080fd5b50516200091f5760405162461bcd60e51b81526004018080602001828103825260248152602001806200586c6024913960400191505060405180910390fd5b600754600160a01b900460ff166200097e576040805162461bcd60e51b815260206004820152601e60248201527f436c617373726f6f6d3a206170706c69636174696f6e7320636c6f7365640000604482015290519081900360640190fd5b60006200098a620020ee565b9050601160069054906101000a900460030b60030b816001600160a01b031663efedc6696040518163ffffffff1660e01b815260040160206040518083038186803b158015620009d957600080fd5b505afa158015620009ee573d6000803e3d6000fd5b505050506040513d602081101562000a0557600080fd5b505160030b121562000a495760405162461bcd60e51b815260040180806020018281038252602c81526020018062005685602c913960400191505060405180910390fd5b600062000a5682620020f2565b600880546001810182556000919091527ff3f7a9fe364faab93b216da50a3214154f22a0a2b415b23a84c8169e8b636ee30180546001600160a01b0319166001600160a01b03929092169190911790555050565b60008281526006602052604090205482906001600160a01b0316331462000b035760405162461bcd60e51b8152600401808060200182810382526028815260200180620058ba6028913960400191505060405180910390fd5b60008181526006602052604080822080546001600160a01b03191690555182917f7cc135e0cebb02c3480ae5d74d377283180a2601f8f644edf7987b009316c63a91a262000b5182620022b1565b8051602090910120600f55505050565b62000b6b620020ee565b6000546001600160a01b0390811691161462000bbd576040805162461bcd60e51b81526020600482018190526024820152600080516020620057f8833981519152604482015290519081900360640190fd5b600754600160a01b900460ff161562000c085760405162461bcd60e51b815260040180806020018281038252602a81526020018062005890602a913960400191505060405180910390fd5b6008541562000c495760405162461bcd60e51b81526004018080602001828103825260228152602001806200573e6022913960400191505060405180910390fd5b600780547fffffffffffffffffffffff00ffffffffffffffffffffffffffffffffffffffff16600160a01b1790556040517fa5d188159e8a15dc503f9fde55e9da14c8b2ca589603e2567481c0ef90b7972090600090a1565b60095460085460009162000cbd919063ffffffff620022db16565b1590505b90565b62000cce620020ee565b6000546001600160a01b0390811691161462000d20576040805162461bcd60e51b81526020600482018190526024820152600080516020620057f8833981519152604482015290519081900360640190fd5b60075477010000000000000000000000000000000000000000000000900460ff1662000d7e5760405162461bcd60e51b8152600401808060200182810382526024815260200180620057ae6024913960400191505060405180910390fd5b60095462000dd3576040805162461bcd60e51b815260206004820152601a60248201527f436c617373726f6f6d3a206e6f206170706c69636174696f6e73000000000000604482015290519081900360640190fd5b62000ddd6200233f565b600e55600780547fffffffffffffffffffff00ffffffffffffffffffffffffffffffffffffffffff16600160a81b1790556040517fadfcc9bbc47b33710f82544eeff8bd0f98c6f78f190e915bd81f4a9dacfdc77790600090a1565b62000e43620020ee565b6000546001600160a01b0390811691161462000e95576040805162461bcd60e51b81526020600482018190526024820152600080516020620057f8833981519152604482015290519081900360640190fd5b6014546001600160a01b03166323b872dd3062000eb162001539565b601454604080516370a0823160e01b815230600482015290516001600160a01b03909216916370a0823191602480820192602092909190829003018186803b15801562000efd57600080fd5b505afa15801562000f12573d6000803e3d6000fd5b505050506040513d602081101562000f2957600080fd5b5051604080516001600160e01b031960e087901b1681526001600160a01b0394851660048201529290931660248301526044820152905160648083019260209291908290030181600087803b15801562000f8257600080fd5b505af115801562000f97573d6000803e3d6000fd5b505050506040513d602081101562000fae57600080fd5b5050565b62000fbc620020ee565b6000546001600160a01b039081169116146200100e576040805162461bcd60e51b81526020600482018190526024820152600080516020620057f8833981519152604482015290519081900360640190fd5b60118054600383810b63ffffffff1666010000000000009081027fffffffffffffffffffffffffffffffffffffffffffff00000000ffffffffffff90931692909217928390556040805192909304810b810b900b815290517f258981eaba02423980e2973ff2ae3bbbba3cc807a5b73faf8f0b068dd7b2af649181900360200190a150565b600754600160a81b900460ff1681565b6011546301000000900462ffffff1681565b6015546001600160a01b031681565b6060620010d0620020ee565b6000546001600160a01b0390811691161462001122576040805162461bcd60e51b81526020600482018190526024820152600080516020620057f8833981519152604482015290519081900360640190fd5b600b8054806020026020016040519081016040528092919081815260200182805480156200117a57602002820191906000526020600020905b81546001600160a01b031681526001909101906020018083116200115b575b5050505050905090565b60006200119a62001194620020ee565b62001245565b905090565b620011a9620020ee565b6000546001600160a01b03908116911614620011fb576040805162461bcd60e51b81526020600482018190526024820152600080516020620057f8833981519152604482015290519081900360640190fd5b600080546040516001600160a01b03909116907f8be0079c531659141344cd1fd0a4f28419497f9722a3daafe3b4186f6b6457e0908390a3600080546001600160a01b0319169055565b600062001251620020ee565b6001600160a01b0316826001600160a01b031614806200129457506200127662001539565b6001600160a01b031662001289620020ee565b6001600160a01b0316145b620012d15760405162461bcd60e51b81526004018080602001828103825260218152602001806200571d6021913960400191505060405180910390fd5b506001600160a01b039081166000908152600a60205260409020541690565b620012fa620020ee565b6000546001600160a01b039081169116146200134c576040805162461bcd60e51b81526020600482018190526024820152600080516020620057f8833981519152604482015290519081900360640190fd5b600754600160a01b900460ff16620013965760405162461bcd60e51b815260040180806020018281038252602a81526020018062005842602a913960400191505060405180910390fd5b600780547fffffffffffffffffffffff00ffffffffffffffffffffffffffffffffffffffff1690556040517f747a4734f50e3ae237b3afeeac30a2d2c7cb965cc122fb9680050fd533b7c0f590600090a1565b620013f3620020ee565b6000546001600160a01b0390811691161462001445576040805162461bcd60e51b81526020600482018190526024820152600080516020620057f8833981519152604482015290519081900360640190fd5b6011805462ffffff191662ffffff838116919091179182905560408051929091168252517fa24cdd22388a51f932026d20d3229c1d693385bb9ac176742e0e40b4586c2447916020908290030190a150565b60115462ffffff1681565b620014ac620020ee565b6000546001600160a01b03908116911614620014fe576040805162461bcd60e51b81526020600482018190526024820152600080516020620057f8833981519152604482015290519081900360640190fd5b60108190556040805182815290517f9f8929be552430dd6434c446d106c34954b2040ca8c4dbf42a39323dd6cda3ca9181900360200190a150565b6000546001600160a01b031690565b62001552620020ee565b6000546001600160a01b03908116911614620015a4576040805162461bcd60e51b81526020600482018190526024820152600080516020620057f8833981519152604482015290519081900360640190fd5b620015ae62000ca2565b620015eb5760405162461bcd60e51b8152600401808060200182810382526025815260200180620056b16025913960400191505060405180910390fd5b601680546001600160a01b0319166001600160a01b03838116919091179182905560408051929091168252517fdc58b28697ffd1bd5879b16631587874caec982b482d7ed05df69a5302f6e018916020908290030190a150565b600754760100000000000000000000000000000000000000000000900460ff1681565b62001672620020ee565b6000546001600160a01b03908116911614620016c4576040805162461bcd60e51b81526020600482018190526024820152600080516020620057f8833981519152604482015290519081900360640190fd5b600754600160a81b900460ff1662001723576040805162461bcd60e51b815260206004820152601e60248201527f436c617373726f6f6d3a20636f75727365206e6f742066696e69736865640000604482015290519081900360640190fd5b601454604080516370a0823160e01b815230600482015290516001600160a01b03909216916370a0823191602480820192602092909190829003018186803b1580156200176f57600080fd5b505afa15801562001784573d6000803e3d6000fd5b505050506040513d60208110156200179b57600080fd5b5051600e541115620017df5760405162461bcd60e51b8152600401808060200182810382526024815260200180620056f96024913960400191505060405180910390fd5b600080620017ec62002477565b915091506000606062001800848462002651565b915091506200180f8162002ccb565b6200181a8262002dd7565b6200182462002e4a565b6200182e62003320565b50505050565b6200183e620020ee565b6000546001600160a01b0390811691161462001890576040805162461bcd60e51b81526020600482018190526024820152600080516020620057f8833981519152604482015290519081900360640190fd5b601454604080516370a0823160e01b815230600482015290516000926001600160a01b0316916370a08231916024808301926020929190829003018186803b158015620018dc57600080fd5b505afa158015620018f1573d6000803e3d6000fd5b505050506040513d60208110156200190857600080fd5b505190508062001919575062001a52565b601454601554604080517f095ea7b30000000000000000000000000000000000000000000000000000000081526001600160a01b039283166004820152602481018590529051919092169163095ea7b39160448083019260209291908290030181600087803b1580156200198c57600080fd5b505af1158015620019a1573d6000803e3d6000fd5b505050506040513d6020811015620019b857600080fd5b5050601554604080517fa0712d680000000000000000000000000000000000000000000000000000000081526004810184905290516001600160a01b039092169163a0712d68916024808201926020929091908290030181600087803b15801562001a2257600080fd5b505af115801562001a37573d6000803e3d6000fd5b505050506040513d602081101562001a4e57600080fd5b5050505b565b600954151590565b6007546001600160a01b031681565b62001a75620020ee565b6000546001600160a01b0390811691161462001ac7576040805162461bcd60e51b81526020600482018190526024820152600080516020620057f8833981519152604482015290519081900360640190fd5b60138190556040805182815290517fa67f34afb53d068e81607cde52dc74c58cbf6a05eac699e5543b97d25e3ca5cb9181900360200190a150565b62001b0c620020ee565b6000546001600160a01b0390811691161462001b5e576040805162461bcd60e51b81526020600482018190526024820152600080516020620057f8833981519152604482015290519081900360640190fd5b600754600160a01b900460ff161562001ba95760405162461bcd60e51b8152600401808060200182810382526026815260200180620057d26026913960400191505060405180910390fd5b601454604080516370a0823160e01b815230600482015290516001600160a01b03909216916370a0823191602480820192602092909190829003018186803b15801562001bf557600080fd5b505afa15801562001c0a573d6000803e3d6000fd5b505050506040513d602081101562001c2157600080fd5b50511562001c615760405162461bcd60e51b815260040180806020018281038252602a81526020018062005818602a913960400191505060405180910390fd5b62001c6b62003381565b604080516000815260208101918290525162001c8a9160089162003f0d565b5060095462001ce0576040805162461bcd60e51b815260206004820152601f60248201527f436c617373726f6f6d3a206e6f207265616479206170706c69636174696f6e00604482015290519081900360640190fd5b600780547fffffffffffffffffff00ffffffffffffffffffffffffffffffffffffffffffff1676010000000000000000000000000000000000000000000017905562001a526200358b565b6014546001600160a01b031681565b606062001d46620020ee565b6000546001600160a01b0390811691161462001d98576040805162461bcd60e51b81526020600482018190526024820152600080516020620057f8833981519152604482015290519081900360640190fd5b600c8054806020026020016040519081016040528092919081815260200182805480156200117a576020028201919060005260206000209081546001600160a01b031681526001909101906020018083116200115b575050505050905090565b62001e02620020ee565b6000546001600160a01b0390811691161462001e54576040805162461bcd60e51b81526020600482018190526024820152600080516020620057f8833981519152604482015290519081900360640190fd5b6011805462ffffff808416630100000090810265ffffff000000199093169290921792839055604080519290930416815290517f9d9f9ef51b12eb719684b7a2e09fc2f7e916cb0e229aecf5658ce6326dfeb1c59181900360200190a150565b62001ebe620020ee565b6000546001600160a01b0390811691161462001f10576040805162461bcd60e51b81526020600482018190526024820152600080516020620057f8833981519152604482015290519081900360640190fd5b6001600160a01b03811662001f575760405162461bcd60e51b81526004018080602001828103825260268152602001806200565f6026913960400191505060405180910390fd5b600080546040516001600160a01b03808516939216917f8be0079c531659141344cd1fd0a4f28419497f9722a3daafe3b4186f6b6457e091a3600080546001600160a01b0319166001600160a01b0392909216919091179055565b60125481565b62001fc2620020ee565b6000546001600160a01b0390811691161462002014576040805162461bcd60e51b81526020600482018190526024820152600080516020620057f8833981519152604482015290519081900360640190fd5b601780546001600160a01b039788166001600160a01b031991821617909155601895909555601993909355601a8054929095169190931617909255601b55601c55565b62002061620020ee565b6000546001600160a01b03908116911614620020b3576040805162461bcd60e51b81526020600482018190526024820152600080516020620057f8833981519152604482015290519081900360640190fd5b60128190556040805182815290517f84e881bf3fcef92f709a2a62150da178a998fbff128c017f3e846787a2f7f5f59181900360200190a150565b3390565b6014546016546000918291849130916001600160a01b0391821691166200211862003634565b604051620021269062003f77565b6001600160a01b039586168152938516602085015291841660408085019190915293166060830152608082015290519081900360a001906000f08015801562002173573d6000803e3d6000fd5b506001600160a01b038481166000818152600a602052604080822080546001600160a01b03191686861690811790915560075482517f183b26000000000000000000000000000000000000000000000000000000000081526004810195909552602485019190915290519495509092169263183b26009260448084019391929182900301818387803b1580156200220957600080fd5b505af11580156200221e573d6000803e3d6000fd5b5050600b805460018181019092557f0175b7a638427703f0dbe7bb9bbf987a2551717b34e79f33b5b1008d1fa01db90180546001600160a01b038089166001600160a01b031992831617909255600c805493840181556000527fdf6966c971051c3d54ec59162606531493a51404a002842f56009d7e5cf4a8c79092018054918616919092161790555090915050919050565b60408051602080825281830190925260609160208201818036833750505060208101929092525090565b60008282018381101562002336576040805162461bcd60e51b815260206004820152601b60248201527f536166654d6174683a206164646974696f6e206f766572666c6f770000000000604482015290519081900360640190fd5b90505b92915050565b601554604080517f3af9e669000000000000000000000000000000000000000000000000000000008152306004820152905160009283926001600160a01b0390911691633af9e6699160248082019260209290919082900301818787803b158015620023aa57600080fd5b505af1158015620023bf573d6000803e3d6000fd5b505050506040513d6020811015620023d657600080fd5b5051601554604080517f852a12e30000000000000000000000000000000000000000000000000000000081526004810184905290519293506001600160a01b039091169163852a12e3916024808201926020929091908290030181600087803b1580156200244357600080fd5b505af115801562002458573d6000803e3d6000fd5b505050506040513d60208110156200246f57600080fd5b509091505090565b6000808080805b6009548110156200264757600981815481106200249757fe5b6000918252602082200154604080517f289cf0d200000000000000000000000000000000000000000000000000000000815290516001600160a01b039092169263289cf0d29260048084019382900301818387803b158015620024f957600080fd5b505af11580156200250e573d6000803e3d6000fd5b50505050600981815481106200252057fe5b60009182526020918290200154604080516332c3db0f60e11b815290516001600160a01b0390921692636587b61e92600480840193829003018186803b1580156200256a57600080fd5b505afa1580156200257f573d6000803e3d6000fd5b505050506040513d60208110156200259657600080fd5b505160031415620025a8576001909201915b60098181548110620025b657fe5b60009182526020918290200154604080516332c3db0f60e11b815290516001600160a01b0390921692636587b61e92600480840193829003018186803b1580156200260057600080fd5b505afa15801562002615573d6000803e3d6000fd5b505050506040513d60208110156200262c57600080fd5b5051600514156200263e576001909101905b6001016200247e565b5090925090509091565b6009546012546000916060918390620026869062002676908463ffffffff6200363e16565b600e549063ffffffff6200369c16565b601154601254919250600091620026bf91620f424091620026b29162ffffff1663ffffffff6200363e16565b9063ffffffff620036fa16565b90506000620026da826012546200369c90919063ffffffff16565b90506000620026f585620026b2868c63ffffffff6200363e16565b6011549091506000906200272190620f424090620026b29085906301000000900462ffffff166200363e565b905060006200273c8b620026b2888563ffffffff6200369c16565b905060608767ffffffffffffffff811180156200275857600080fd5b5060405190808252806020026020018201604052801562002783578160200160208202803683370190505b50905060005b8881101562002b0d5760098181548110620027a057fe5b60009182526020918290200154604080516332c3db0f60e11b815290516001600160a01b0390921692636587b61e92600480840193829003018186803b158015620027ea57600080fd5b505afa158015620027ff573d6000803e3d6000fd5b505050506040513d60208110156200281657600080fd5b505160031415620028ce57600981815481106200282f57fe5b600091825260208220015460408051637db9abaf60e01b8152600481018a90526024810187905290516001600160a01b0390921692637db9abaf9260448084019382900301818387803b1580156200288657600080fd5b505af11580156200289b573d6000803e3d6000fd5b50505050620028b48387620022db90919063ffffffff16565b828281518110620028c157fe5b6020026020010181815250505b60098181548110620028dc57fe5b60009182526020918290200154604080516332c3db0f60e11b815290516001600160a01b0390921692636587b61e92600480840193829003018186803b1580156200292657600080fd5b505afa1580156200293b573d6000803e3d6000fd5b505050506040513d60208110156200295257600080fd5b505160041415620029f657600981815481106200296b57fe5b600091825260208220015460408051637db9abaf60e01b8152600481018a90526024810184905290516001600160a01b0390921692637db9abaf9260448084019382900301818387803b158015620029c257600080fd5b505af1158015620029d7573d6000803e3d6000fd5b5050505085828281518110620029e957fe5b6020026020010181815250505b6009818154811062002a0457fe5b60009182526020918290200154604080516332c3db0f60e11b815290516001600160a01b0390921692636587b61e92600480840193829003018186803b15801562002a4e57600080fd5b505afa15801562002a63573d6000803e3d6000fd5b505050506040513d602081101562002a7a57600080fd5b50516005141562002b04576009818154811062002a9357fe5b600091825260208220015460408051637db9abaf60e01b8152600481018490526024810184905290516001600160a01b0390921692637db9abaf9260448084019382900301818387803b15801562002aea57600080fd5b505af115801562002aff573d6000803e3d6000fd5b505050505b60010162002789565b50600062002b276012548d6200363e90919063ffffffff16565b9050600062002bc7620f4240620026b2600760009054906101000a90046001600160a01b03166001600160a01b031663e6fd604c6040518163ffffffff1660e01b815260040160206040518083038186803b15801562002b8657600080fd5b505afa15801562002b9b573d6000803e3d6000fd5b505050506040513d602081101562002bb257600080fd5b5051889062ffffff1663ffffffff6200363e16565b9050600062002bdd8b8f63ffffffff6200369c16565b9050600062002c8e620f4240620026b2600760009054906101000a90046001600160a01b03166001600160a01b031663e6fd604c6040518163ffffffff1660e01b815260040160206040518083038186803b15801562002c3c57600080fd5b505afa15801562002c51573d6000803e3d6000fd5b505050506040513d602081101562002c6857600080fd5b505162ffffff1662002c818e8763ffffffff6200363e16565b9063ffffffff6200363e16565b905062002cb48162002ca7868663ffffffff620022db16565b9063ffffffff620022db16565b9d50939b5050505050505050505050509250929050565b60005b60095481101562000fae57600082828151811062002ce857fe5b6020026020010151111562002dce57601454600980546001600160a01b039092169163095ea7b391908490811062002d1c57fe5b9060005260206000200160009054906101000a90046001600160a01b031684848151811062002d4757fe5b60200260200101516040518363ffffffff1660e01b815260040180836001600160a01b03166001600160a01b0316815260200182815260200192505050602060405180830381600087803b15801562002d9f57600080fd5b505af115801562002db4573d6000803e3d6000fd5b505050506040513d602081101562002dcb57600080fd5b50505b60010162002cce565b601454600754604080517fa9059cbb0000000000000000000000000000000000000000000000000000000081526001600160a01b039283166004820152602481018590529051919092169163a9059cbb9160448083019260209291908290030181600087803b15801562001a2257600080fd5b60005b6009548110156200331d576009818154811062002e6657fe5b60009182526020918290200154604080516332c3db0f60e11b815290516001600160a01b0390921692636587b61e92600480840193829003018186803b15801562002eb057600080fd5b505afa15801562002ec5573d6000803e3d6000fd5b505050506040513d602081101562002edc57600080fd5b50516003141562002fec57600754600980546001600160a01b03909216916387bfe18891908490811062002f0c57fe5b600091825260209182902001546040805163b8f31a8160e01b815290516001600160a01b039092169263b8f31a8192600480840193829003018186803b15801562002f5657600080fd5b505afa15801562002f6b573d6000803e3d6000fd5b505050506040513d602081101562002f8257600080fd5b5051604080516001600160e01b031960e085901b1681526001600160a01b0390921660048301526001602483015251604480830192600092919082900301818387803b15801562002fd257600080fd5b505af115801562002fe7573d6000803e3d6000fd5b505050505b6009818154811062002ffa57fe5b60009182526020918290200154604080516332c3db0f60e11b815290516001600160a01b0390921692636587b61e92600480840193829003018186803b1580156200304457600080fd5b505afa15801562003059573d6000803e3d6000fd5b505050506040513d60208110156200307057600080fd5b5051600414156200318057600754600980546001600160a01b039092169163ff5d8f63919084908110620030a057fe5b600091825260209182902001546040805163b8f31a8160e01b815290516001600160a01b039092169263b8f31a8192600480840193829003018186803b158015620030ea57600080fd5b505afa158015620030ff573d6000803e3d6000fd5b505050506040513d60208110156200311657600080fd5b5051604080516001600160e01b031960e085901b1681526001600160a01b0390921660048301526001602483015251604480830192600092919082900301818387803b1580156200316657600080fd5b505af11580156200317b573d6000803e3d6000fd5b505050505b600981815481106200318e57fe5b60009182526020918290200154604080516332c3db0f60e11b815290516001600160a01b0390921692636587b61e92600480840193829003018186803b158015620031d857600080fd5b505afa158015620031ed573d6000803e3d6000fd5b505050506040513d60208110156200320457600080fd5b5051600514156200331457600754600980546001600160a01b039092169163ff5d8f639190849081106200323457fe5b600091825260209182902001546040805163b8f31a8160e01b815290516001600160a01b039092169263b8f31a8192600480840193829003018186803b1580156200327e57600080fd5b505afa15801562003293573d6000803e3d6000fd5b505050506040513d6020811015620032aa57600080fd5b5051604080516001600160e01b031960e085901b1681526001600160a01b0390921660048301526002602483015251604480830192600092919082900301818387803b158015620032fa57600080fd5b505af11580156200330f573d6000803e3d6000fd5b505050505b60010162002e4d565b50565b60408051600081526020810191829052516200333f9160099162003f0d565b506200334a62000e39565b6000600e55600780547fffffffffffffffff00ff00ffffffffffffffffffffffffffffffffffffffffff16905562001a5262003766565b60005b6008548110156200331d57600881815481106200339d57fe5b60009182526020918290200154604080516332c3db0f60e11b815290516001600160a01b0390921692636587b61e92600480840193829003018186803b158015620033e757600080fd5b505afa158015620033fc573d6000803e3d6000fd5b505050506040513d60208110156200341357600080fd5b505160011415620034f857600881815481106200342c57fe5b6000918252602082200154604080517f0f15f4c000000000000000000000000000000000000000000000000000000000815290516001600160a01b0390921692630f15f4c09260048084019382900301818387803b1580156200348e57600080fd5b505af1158015620034a3573d6000803e3d6000fd5b50505050600960088281548110620034b757fe5b60009182526020808320909101548354600181018555938352912090910180546001600160a01b0319166001600160a01b0390921691909117905562003582565b600881815481106200350657fe5b6000918252602082200154604080517f79599f9600000000000000000000000000000000000000000000000000000000815290516001600160a01b03909216926379599f969260048084019382900301818387803b1580156200356857600080fd5b505af11580156200357d573d6000803e3d6000fd5b505050505b60010162003384565b6200359562003f85565b601b54620035c590307f0aab4569000000000000000000000000000000000000000000000000000000006200377d565b9050620036176040518060400160405280600581526020017f756e74696c000000000000000000000000000000000000000000000000000000815250601354420183620037ae9092919063ffffffff16565b601a54601c5462000fae916001600160a01b0316908390620037dc565b600f546000401890565b6000826200364f5750600062002339565b828202828482816200365d57fe5b0414620023365760405162461bcd60e51b81526004018080602001828103825260218152602001806200578d6021913960400191505060405180910390fd5b600082821115620036f4576040805162461bcd60e51b815260206004820152601e60248201527f536166654d6174683a207375627472616374696f6e206f766572666c6f770000604482015290519081900360640190fd5b50900390565b600080821162003751576040805162461bcd60e51b815260206004820152601a60248201527f536166654d6174683a206469766973696f6e206279207a65726f000000000000604482015290519081900360640190fd5b60008284816200375d57fe5b04949350505050565b600140600f5416600040600f541617600f81905550565b6200378762003f85565b6200379162003f85565b620037a58186868663ffffffff620039bd16565b95945050505050565b6080830151620037c5908363ffffffff620039fe16565b608083015162001a4e908263ffffffff62003a1f16565b6005546040805130606090811b60208084019190915260348084018690528451808503909101815260549093018452825192810192909220908601939093526000838152600690915281812080546001600160a01b0319166001600160a01b038816179055905182917fb5e6e01e79f91267dc17b4e6314d5d4d03593d2ceee0fbb452b750bd70ea5af991a26003546001600160a01b0316634000aea08584620038868762003a2d565b6040518463ffffffff1660e01b815260040180846001600160a01b03166001600160a01b0316815260200183815260200180602001828103825283818151815260200191508051906020019080838360005b83811015620038f2578181015183820152602001620038d8565b50505050905090810190601f168015620039205780820380516001836020036101000a031916815260200191505b50945050505050602060405180830381600087803b1580156200394257600080fd5b505af115801562003957573d6000803e3d6000fd5b505050506040513d60208110156200396e57600080fd5b5051620039ad5760405162461bcd60e51b8152600401808060200182810382526023815260200180620056d66023913960400191505060405180910390fd5b6005805460010190559392505050565b620039c762003f85565b620039d9856080015161010062003baf565b50509183526001600160a01b031660208301526001600160e01b031916604082015290565b62003a0d826003835162003bec565b62001a4e828263ffffffff62003d0e16565b62000fae8260008362003bec565b6060634042994660e01b6000808460000151856020015186604001518760600151600189608001516000015160405160240180896001600160a01b03166001600160a01b03168152602001888152602001878152602001866001600160a01b03166001600160a01b03168152602001857bffffffffffffffffffffffffffffffffffffffffffffffffffffffff19167bffffffffffffffffffffffffffffffffffffffffffffffffffffffff1916815260200184815260200183815260200180602001828103825283818151815260200191508051906020019080838360005b8381101562003b2757818101518382015260200162003b0d565b50505050905090810190601f16801562003b555780820380516001836020036101000a031916815260200191505b5060408051601f198184030181529190526020810180517bffffffffffffffffffffffffffffffffffffffffffffffffffffffff166001600160e01b0319909d169c909c17909b5250989950505050505050505050919050565b62003bb962003fbc565b602082061562003bcf5760208206602003820191505b506020828101829052604080518085526000815290920101905290565b6017811162003c175762003c108360e0600585901b16831763ffffffff62003d2c16565b5062001a4e565b60ff811162003c525762003c3d836018611fe0600586901b161763ffffffff62003d2c16565b5062003c108382600163ffffffff62003d4816565b61ffff811162003c8e5762003c79836019611fe0600586901b161763ffffffff62003d2c16565b5062003c108382600263ffffffff62003d4816565b63ffffffff811162003ccc5762003cb783601a611fe0600586901b161763ffffffff62003d2c16565b5062003c108382600463ffffffff62003d4816565b67ffffffffffffffff811162001a4e5762003cf983601b611fe0600586901b161763ffffffff62003d2c16565b506200182e8382600863ffffffff62003d4816565b62003d1862003fbc565b620023368384600001515184855162003d6d565b62003d3662003fbc565b62002336838460000151518462003e24565b62003d5262003fbc565b62003d6584856000015151858562003e75565b949350505050565b62003d7762003fbc565b825182111562003d8657600080fd5b8460200151828501111562003db55762003db58562003dac876020015187860162003ed9565b60020262003ef2565b60008086518051876020830101935080888701111562003dd55787860182525b505050602084015b6020841062003dfe5780518252601f19909301926020918201910162003ddd565b51815160001960208690036101000a019081169019919091161790525083949350505050565b62003e2e62003fbc565b8360200151831062003e4d5762003e4d84856020015160020262003ef2565b83518051602085830101848153508085141562003e6b576001810182525b5093949350505050565b62003e7f62003fbc565b8460200151848301111562003e9f5762003e9f8585840160020262003ef2565b60006001836101000a03905085518386820101858319825116178152508051848701111562003ece5783860181525b509495945050505050565b60008183111562003eec57508162002339565b50919050565b815162003f00838362003baf565b506200182e838262003d0e565b82805482825590600052602060002090810192821562003f65579160200282015b8281111562003f6557825182546001600160a01b0319166001600160a01b0390911617825560209092019160019091019062003f2e565b5062003f7392915062003fd6565b5090565b6116618062003ffe83390190565b6040805160a08101825260008082526020820181905291810182905260608101919091526080810162003fb762003fbc565b905290565b604051806040016040528060608152602001600081525090565b62000cc191905b8082111562003f735780546001600160a01b031916815560010162003fdd56fe608060405234801561001057600080fd5b50604051611661380380611661833981810160405260a081101561003357600080fd5b5080516020820151604083015160608401516080909401519293919290919060006100656001600160e01b0361011f16565b600080546001600160a01b0319166001600160a01b0383169081178255604051929350917f8be0079c531659141344cd1fd0a4f28419497f9722a3daafe3b4186f6b6457e0908290a3506003805460ff60a01b19169055600480546001600160a01b03199081166001600160a01b0397881617909155600580548216958716959095179094556007805460ff1916905560018054851693861693909317909255600691909155600280549092169216919091179055610123565b3390565b61152f806101326000396000f3fe608060405234801561001057600080fd5b50600436106101365760003560e01c806366995a46116100b2578063872d7c7911610081578063b8f31a8111610066578063b8f31a81146102de578063be22f546146102e6578063f2fde38b146102ee57610136565b8063872d7c79146102ce5780638da5cb5b146102d657610136565b806366995a4614610275578063715018a61461029b57806379599f96146102a35780637db9abaf146102ab57610136565b806329d188791161010957806337edd7e7116100ee57806337edd7e7146101c45780633db0bfd2146102415780636587b61e1461026d57610136565b806329d18879146101985780632d24947b146101bc57610136565b80630bb8ebf61461013b5780630f15f4c0146101575780632344e4ec14610161578063289cf0d214610190575b600080fd5b610143610314565b604080519115158252519081900360200190f35b61015f6103ad565b005b61017e6004803603602081101561017757600080fd5b503561048a565b60408051918252519081900360200190f35b61015f61067f565b6101a0610754565b604080516001600160a01b039092168252519081900360200190f35b61015f6107ea565b6101cc6109c8565b6040805160208082528351818301528351919283929083019185019080838360005b838110156102065781810151838201526020016101ee565b50505050905090810190601f1680156102335780820380516001836020036101000a031916815260200191505b509250505060405180910390f35b61015f6004803603604081101561025757600080fd5b506001600160a01b038135169060200135610b8e565b61017e610cd7565b61015f6004803603602081101561028b57600080fd5b50356001600160a01b0316610d7a565b61015f610d8d565b61015f610e4e565b61015f600480360360408110156102c157600080fd5b5080359060200135610f28565b61015f610fe3565b6101a061114a565b6101a0611159565b6101a06111d5565b61015f6004803603602081101561030457600080fd5b50356001600160a01b03166111e4565b600354604080517f39e7357c00000000000000000000000000000000000000000000000000000000815290516000926001600160a01b0316916339e7357c916004808301926020929190829003018186803b15801561037257600080fd5b505afa92505050801561039757506040513d602081101561039257600080fd5b505160015b6103a3575060006103aa565b6006541490505b90565b6103b56112fb565b6000546001600160a01b03908116911614610417576040805162461bcd60e51b815260206004820181905260248201527f4f776e61626c653a2063616c6c6572206973206e6f7420746865206f776e6572604482015290519081900360640190fd5b6000600354600160a01b900460ff16600681111561043157fe5b1461046d5760405162461bcd60e51b815260040180806020018281038252602a81526020018061142a602a913960400191505060405180910390fd5b600380546002919060ff60a01b1916600160a01b835b0217905550565b60075460009060ff166104ce5760405162461bcd60e51b815260040180806020018281038252602981526020018061137b6029913960400191505060405180910390fd5b6003546001600160a01b03166104e26112fb565b6001600160a01b0316146105275760405162461bcd60e51b81526004018080602001828103825260258152602001806113566025913960400191505060405180910390fd5b600260009054906101000a90046001600160a01b03166001600160a01b0316630b435c546040518163ffffffff1660e01b815260040160206040518083038186803b15801561057557600080fd5b505afa158015610589573d6000803e3d6000fd5b505050506040513d602081101561059f57600080fd5b505182106105de5760405162461bcd60e51b81526004018080602001828103825260268152602001806114d46026913960400191505060405180910390fd5b600254600654604080517fcee0510f000000000000000000000000000000000000000000000000000000008152600481018690526024810192909252516001600160a01b039092169163cee0510f91604480820192602092909190829003018186803b15801561064d57600080fd5b505afa158015610661573d6000803e3d6000fd5b505050506040513d602081101561067757600080fd5b505192915050565b6106876112fb565b6000546001600160a01b039081169116146106e9576040805162461bcd60e51b815260206004820181905260248201527f4f776e61626c653a2063616c6c6572206973206e6f7420746865206f776e6572604482015290519081900360640190fd5b60075460ff1661071357600380546005919060ff60a01b1916600160a01b835b0217905550610752565b61071b610314565b156107385760038054819060ff60a01b1916600160a01b82610709565b600380546004919060ff60a01b1916600160a01b83610483565b565b6004546000906001600160a01b031661076b6112fb565b6001600160a01b0316148061079f575061078361114a565b6001600160a01b03166107946112fb565b6001600160a01b0316145b6107da5760405162461bcd60e51b815260040180806020018281038252602a8152602001806114aa602a913960400191505060405180910390fd5b506002546001600160a01b031690565b6000600354600160a01b900460ff16600681111561080457fe5b146108405760405162461bcd60e51b815260040180806020018281038252602a81526020018061142a602a913960400191505060405180910390fd5b600154600554604080517ff745adfc00000000000000000000000000000000000000000000000000000000815290516001600160a01b03938416936323b872dd933393911691829163f745adfc916004808301926020929190829003018186803b1580156108ad57600080fd5b505afa1580156108c1573d6000803e3d6000fd5b505050506040513d60208110156108d757600080fd5b5051604080517fffffffff0000000000000000000000000000000000000000000000000000000060e087901b1681526001600160a01b0394851660048201529290931660248301526044820152905160648083019260209291908290030181600087803b15801561094757600080fd5b505af115801561095b573d6000803e3d6000fd5b505050506040513d602081101561097157600080fd5b50516109ae5760405162461bcd60e51b815260040180806020018281038252602a815260200180611454602a913960400191505060405180910390fd5b600380546001919060ff60a01b1916600160a01b83610483565b6004546060906001600160a01b03166109df6112fb565b6001600160a01b03161480610a1357506109f761114a565b6001600160a01b0316610a086112fb565b6001600160a01b0316145b610a4e5760405162461bcd60e51b815260040180806020018281038252602a8152602001806114aa602a913960400191505060405180910390fd5b600260009054906101000a90046001600160a01b03166001600160a01b031663724465436040518163ffffffff1660e01b815260040160006040518083038186803b158015610a9c57600080fd5b505afa158015610ab0573d6000803e3d6000fd5b505050506040513d6000823e601f3d908101601f191682016040526020811015610ad957600080fd5b8101908080516040519392919084640100000000821115610af957600080fd5b908301906020820185811115610b0e57600080fd5b8251640100000000811182820188101715610b2857600080fd5b82525081516020918201929091019080838360005b83811015610b55578181015183820152602001610b3d565b50505050905090810190601f168015610b825780820380516001836020036101000a031916815260200191505b50604052505050905090565b6004546001600160a01b0316610ba26112fb565b6001600160a01b031614610be75760405162461bcd60e51b815260040180806020018281038252602d8152602001806113a4602d913960400191505060405180910390fd5b6002610bf1610cd7565b11610c2d5760405162461bcd60e51b815260040180806020018281038252602c81526020018061147e602c913960400191505060405180910390fd5b600154600554604080517f23b872dd0000000000000000000000000000000000000000000000000000000081526001600160a01b039283166004820152858316602482015260448101859052905191909216916323b872dd9160648083019260209291908290030181600087803b158015610ca757600080fd5b505af1158015610cbb573d6000803e3d6000fd5b505050506040513d6020811015610cd157600080fd5b50505050565b6004546000906001600160a01b0316610cee6112fb565b6001600160a01b03161480610d225750610d0661114a565b6001600160a01b0316610d176112fb565b6001600160a01b0316145b610d5d5760405162461bcd60e51b815260040180806020018281038252602a8152602001806114aa602a913960400191505060405180910390fd5b600354600160a01b900460ff166006811115610d7557fe5b905090565b610d8a8160095460085401610b8e565b50565b610d956112fb565b6000546001600160a01b03908116911614610df7576040805162461bcd60e51b815260206004820181905260248201527f4f776e61626c653a2063616c6c6572206973206e6f7420746865206f776e6572604482015290519081900360640190fd5b600080546040516001600160a01b03909116907f8be0079c531659141344cd1fd0a4f28419497f9722a3daafe3b4186f6b6457e0908390a36000805473ffffffffffffffffffffffffffffffffffffffff19169055565b610e566112fb565b6000546001600160a01b03908116911614610eb8576040805162461bcd60e51b815260206004820181905260248201527f4f776e61626c653a2063616c6c6572206973206e6f7420746865206f776e6572604482015290519081900360640190fd5b6000600354600160a01b900460ff166006811115610ed257fe5b14610f0e5760405162461bcd60e51b815260040180806020018281038252602a81526020018061142a602a913960400191505060405180910390fd5b600380546006919060ff60a01b1916600160a01b83610483565b610f306112fb565b6000546001600160a01b03908116911614610f92576040805162461bcd60e51b815260206004820181905260248201527f4f776e61626c653a2063616c6c6572206973206e6f7420746865206f776e6572604482015290519081900360640190fd5b6002610f9c610cd7565b11610fd85760405162461bcd60e51b81526004018080602001828103825260308152602001806113006030913960400191505060405180910390fd5b600891909155600955565b6002600354600160a01b900460ff166006811115610ffd57fe5b146110395760405162461bcd60e51b815260040180806020018281038252602d8152602001806113d1602d913960400191505060405180910390fd5b60006110436112fb565b9050600460009054906101000a90046001600160a01b03166001600160a01b0316816001600160a01b031663893d20e86040518163ffffffff1660e01b815260040160206040518083038186803b15801561109d57600080fd5b505afa1580156110b1573d6000803e3d6000fd5b505050506040513d60208110156110c757600080fd5b50516001600160a01b03161461110e5760405162461bcd60e51b815260040180806020018281038252602c8152602001806113fe602c913960400191505060405180910390fd5b6003805473ffffffffffffffffffffffffffffffffffffffff19166001600160a01b03929092169190911790556007805460ff19166001179055565b6000546001600160a01b031690565b60006111636112fb565b6000546001600160a01b039081169116146111c5576040805162461bcd60e51b815260206004820181905260248201527f4f776e61626c653a2063616c6c6572206973206e6f7420746865206f776e6572604482015290519081900360640190fd5b506004546001600160a01b031690565b6001546001600160a01b031681565b6111ec6112fb565b6000546001600160a01b0390811691161461124e576040805162461bcd60e51b815260206004820181905260248201527f4f776e61626c653a2063616c6c6572206973206e6f7420746865206f776e6572604482015290519081900360640190fd5b6001600160a01b0381166112935760405162461bcd60e51b81526004018080602001828103825260268152602001806113306026913960400191505060405180910390fd5b600080546040516001600160a01b03808516939216917f8be0079c531659141344cd1fd0a4f28419497f9722a3daafe3b4186f6b6457e091a36000805473ffffffffffffffffffffffffffffffffffffffff19166001600160a01b0392909216919091179055565b339056fe53747564656e744170706c69636174696f6e3a206170706c69636174696f6e206e6f742066696e6973686564207965744f776e61626c653a206e6577206f776e657220697320746865207a65726f206164647265737353747564656e744170706c69636174696f6e3a2061726520796f75206368656174696e673f53747564656e744170706c69636174696f6e3a20616e73776572206e6f74207265676973746572656453747564656e744170706c69636174696f6e3a206f6e6c792073747564656e742063616e20776974686472617753747564656e744170706c69636174696f6e3a206170706c69636174696f6e206973206e6f742061637469766553747564656e744170706c69636174696f6e3a206765744f776e657220726573756c742069732077726f6e6753747564656e744170706c69636174696f6e3a206170706c69636174696f6e206973206e6f74204e657753747564656e744170706c69636174696f6e3a20636f756c64206e6f74207472616e736665722044414953747564656e744170706c69636174696f6e3a206170706c69636174696f6e206e6f742066696e697368656453747564656e744170706c69636174696f6e3a2072656164207065726d697373696f6e2064656e69656453747564656e744170706c69636174696f6e3a2068696e74206e6f7420617661696c61626c65a264697066735822122048979778e450baba17eebc267e2b29077c16e9ff2ec5e9d46fc17fb9aae7402a64736f6c634300060600334f776e61626c653a206e6577206f776e657220697320746865207a65726f2061646472657373436c617373726f6f6d3a2073747564656e7420646f65736e2774206861766520656e6f7567682073636f7265436c617373726f6f6d3a2063616e2774206368616e6765206368616c6c656e6765206e6f77756e61626c6520746f207472616e73666572416e6443616c6c20746f206f7261636c65436c617373726f6f6d3a206e6f7420656e6f7567682044414920746f2070726f63656564436c617373726f6f6d3a2072656164207065726d697373696f6e2064656e696564436c617373726f6f6d3a2073747564656e7473206c697374206e6f7420656d707479436c617373726f6f6d3a2070726f666573736f722063616e277420626520697473206f776e2073747564656e74536166654d6174683a206d756c7469706c69636174696f6e206f766572666c6f77436c617373726f6f6d3a20746f6f20736f6f6e20746f2066696e69736820636f75727365436c617373726f6f6d3a206170706c69636174696f6e7320617265207374696c6c206f70656e4f776e61626c653a2063616c6c6572206973206e6f7420746865206f776e6572436c617373726f6f6d3a20696e7665737420616c6c2062616c616e6365206265666f726520626567696e436c617373726f6f6d3a206170706c69636174696f6e732061726520616c726561647920636c6f736564436c617373726f6f6d3a2073747564656e74206973206e6f742072656769737465726564436c617373726f6f6d3a206170706c69636174696f6e732061726520616c7265616479206f70656e6564536f75726365206d75737420626520746865206f7261636c65206f66207468652072657175657374a26469706673582212201cfb2795b3268c7b7aa78f68601c286eda63929826dfabf9b79e3bf688e4b9bf64736f6c63430006060033756e61626c6520746f207472616e73666572416e6443616c6c20746f206f7261636c65",
  "immutableReferences": {},
  "source": "pragma solidity 0.6.6;\r\n\r\nimport \"@openzeppelin/contracts/math/SafeMath.sol\";\r\nimport \"@openzeppelin/contracts/access/AccessControl.sol\";\r\nimport \"@openzeppelin/contracts/access/Ownable.sol\";\r\nimport \"@openzeppelin/contracts/token/ERC20/IERC20.sol\";\r\nimport \"@openzeppelin/contracts/utils/Address.sol\";\r\nimport \"@chainlink/contracts/src/v0.6/ChainlinkClient.sol\";\r\nimport \"./University.sol\";\r\nimport \"./Student.sol\";\r\nimport \"./StudentApplication.sol\";\r\nimport \"./IClassroomChallenge.sol\";\r\n\r\n\r\ncontract Classroom is Ownable, ChainlinkClient {\r\n    University public university;\r\n    bool public openForApplication;\r\n    bool public courseFinished;\r\n    bool public classroomActive;\r\n    bool _timestampAlarm;\r\n    StudentApplication[] _studentApplications;\r\n    StudentApplication[] _validStudentApplications;\r\n    mapping(address => address) _studentApplicationsLink;\r\n    address[] _studentsLookUp;\r\n    address[] _applicationsLookUp;\r\n    uint256 _endDate;\r\n    uint256 _totalBalance;\r\n    bytes32 _seed;\r\n\r\n    //Classroom parameters\r\n    bytes32 public name;\r\n    uint24 public principalCut;\r\n    uint24 public poolCut;\r\n    int32 public minScore;\r\n    uint256 public entryPrice;\r\n    uint256 public duration;\r\n\r\n    IERC20 public daiToken;\r\n    CERC20 public cToken;\r\n    address public _challengeAddress;\r\n\r\n    address _oracleRandom;\r\n    bytes32 _requestIdRandom;\r\n    uint256 _oraclePaymentRandom;\r\n    address _oracleTimestamp;\r\n    bytes32 _requestIdTimestamp;\r\n    uint256 _oraclePaymentTimestamp;\r\n\r\n    constructor(\r\n        bytes32 _name,\r\n        uint24 _principalCut,\r\n        uint24 _poolCut,\r\n        int32 _minScore,\r\n        uint256 _entryPrice,\r\n        uint256 _duration,\r\n        address universityAddress,\r\n        address challengeAddress,\r\n        address daiAddress,\r\n        address compoundAddress\r\n    ) public {\r\n        name = _name;\r\n        principalCut = _principalCut;\r\n        poolCut = _poolCut;\r\n        minScore = _minScore;\r\n        entryPrice = _entryPrice;\r\n        duration = _duration;\r\n        university = University(universityAddress);\r\n        _challengeAddress = challengeAddress;\r\n        openForApplication = false;\r\n        classroomActive = false;\r\n        daiToken = IERC20(daiAddress);\r\n        cToken = CERC20(compoundAddress);\r\n        _generateSeed();\r\n    }\r\n\r\n    event LogOpenApplications();\r\n    event LogCloseApplications();\r\n    event LogCourseFinished();\r\n    event LogChangeChallenge(address);\r\n    event LogChangeName(bytes32);\r\n    event LogChangePrincipalCut(uint24);\r\n    event LogChangePoolCut(uint24);\r\n    event LogChangeMinScore(int32);\r\n    event LogChangeEntryPrice(uint256);\r\n    event LogChangeDuration(uint256);\r\n\r\n    // @dev \"Stack too deep\" error if done in the constructor\r\n    function configureOracles(\r\n        address oracleRandom,\r\n        bytes32 requestIdRandom,\r\n        uint256 oraclePaymentRandom,\r\n        address oracleTimestamp,\r\n        bytes32 requestIdTimestamp,\r\n        uint256 oraclePaymentTimestamp\r\n    ) public onlyOwner {\r\n        _oracleRandom = oracleRandom;\r\n        _requestIdRandom = requestIdRandom;\r\n        _oraclePaymentRandom = oraclePaymentRandom;\r\n        _oracleTimestamp = oracleTimestamp;\r\n        _requestIdTimestamp = requestIdTimestamp;\r\n        _oraclePaymentTimestamp = oraclePaymentTimestamp;\r\n    }\r\n\r\n    function changeName(bytes32 val) public onlyOwner {\r\n        name = val;\r\n        emit LogChangeName(name);\r\n    }\r\n\r\n    function changePrincipalCut(uint24 val) public onlyOwner {\r\n        principalCut = val;\r\n        emit LogChangePrincipalCut(principalCut);\r\n    }\r\n\r\n    function changePoolCut(uint24 val) public onlyOwner {\r\n        poolCut = val;\r\n        emit LogChangePoolCut(poolCut);\r\n    }\r\n\r\n    function changeMinScore(int32 val) public onlyOwner {\r\n        minScore = val;\r\n        emit LogChangeMinScore(minScore);\r\n    }\r\n\r\n    function changeEntryPrice(uint256 val) public onlyOwner {\r\n        entryPrice = val;\r\n        emit LogChangeEntryPrice(entryPrice);\r\n    }\r\n\r\n    function changeDuration(uint256 val) public onlyOwner {\r\n        duration = val;\r\n        emit LogChangeDuration(duration);\r\n    }\r\n\r\n    function viewAllApplications()\r\n        public\r\n        view\r\n        onlyOwner\r\n        returns (address[] memory)\r\n    {\r\n        return _applicationsLookUp;\r\n    }\r\n\r\n    function viewAllStudents()\r\n        public\r\n        view\r\n        onlyOwner\r\n        returns (address[] memory)\r\n    {\r\n        return _studentsLookUp;\r\n    }\r\n\r\n    function _generateSeed() internal {\r\n        Chainlink.Request memory req = buildChainlinkRequest(\r\n            _requestIdRandom,\r\n            address(this),\r\n            this.fulfillGenerateSeed.selector\r\n        );\r\n        sendChainlinkRequestTo(_oracleRandom, req, _oraclePaymentRandom);\r\n    }\r\n\r\n    function fulfillGenerateSeed(bytes32 _requestId, uint256 data)\r\n        public\r\n        recordChainlinkFulfillment(_requestId)\r\n    {\r\n        _seed = keccak256(_toBytes(data));\r\n    }\r\n\r\n    function _toBytes(uint256 x) internal pure returns (bytes memory b) {\r\n        b = new bytes(32);\r\n        assembly {\r\n            mstore(add(b, 32), x)\r\n        }\r\n    }\r\n\r\n    function _setAlarm() internal {\r\n        Chainlink.Request memory req = buildChainlinkRequest(\r\n            _requestIdTimestamp,\r\n            address(this),\r\n            this.fulfillGetTimestamp.selector\r\n        );\r\n        req.addUint(\"until\", now + duration);\r\n        sendChainlinkRequestTo(_oracleTimestamp, req, _oraclePaymentTimestamp);\r\n    }\r\n\r\n    function fulfillGetTimestamp(bytes32 _requestId)\r\n        public\r\n        recordChainlinkFulfillment(_requestId)\r\n    {\r\n        _timestampAlarm = true;\r\n    }\r\n\r\n    function changeChallenge(address addr) public onlyOwner {\r\n        require(isClassroomEmpty(), \"Classroom: can't change challenge now\");\r\n        _challengeAddress = addr;\r\n        emit LogChangeChallenge(_challengeAddress);\r\n    }\r\n\r\n    function isClassroomEmpty() public view returns (bool) {\r\n        return\r\n            _studentApplications.length.add(_validStudentApplications.length) ==\r\n            0;\r\n    }\r\n\r\n    function isCourseOngoing() public view returns (bool) {\r\n        return _validStudentApplications.length > 0;\r\n    }\r\n\r\n    function openApplications() public onlyOwner {\r\n        require(\r\n            !openForApplication,\r\n            \"Classroom: applications are already opened\"\r\n        );\r\n        require(\r\n            _studentApplications.length == 0,\r\n            \"Classroom: students list not empty\"\r\n        );\r\n        openForApplication = true;\r\n        emit LogOpenApplications();\r\n    }\r\n\r\n    function closeApplications() public onlyOwner {\r\n        require(\r\n            openForApplication,\r\n            \"Classroom: applications are already closed\"\r\n        );\r\n        openForApplication = false;\r\n        emit LogCloseApplications();\r\n    }\r\n\r\n    //public onlyOwner allow the professor to apply money before and after closing applications\r\n    function applyDAI() public onlyOwner {\r\n        uint256 balance = daiToken.balanceOf(address(this));\r\n        if (balance <= 0) return;\r\n        daiToken.approve(address(cToken), balance);\r\n        cToken.mint(balance);\r\n    }\r\n\r\n    function studentApply() public {\r\n        require(\r\n            _msgSender() != owner(),\r\n            \"Classroom: professor can't be its own student\"\r\n        );\r\n        require(\r\n            university.studentIsRegistered(_msgSender()),\r\n            \"Classroom: student is not registered\"\r\n        );\r\n        require(openForApplication, \"Classroom: applications closed\");\r\n        Student applicant = Student(_msgSender());\r\n        require(\r\n            applicant.score() >= minScore,\r\n            \"Classroom: student doesn't have enough score\"\r\n        );\r\n        StudentApplication application = _createStudentApplication(applicant);\r\n        _studentApplications.push(application);\r\n    }\r\n\r\n    function _createStudentApplication(Student student)\r\n        internal\r\n        returns (StudentApplication)\r\n    {\r\n        //TODO: fetch contract from external factory to reduce size\r\n        StudentApplication newApplication = new StudentApplication(\r\n            address(student),\r\n            address(this),\r\n            address(daiToken),\r\n            _challengeAddress,\r\n            generateNewSeed()\r\n        );\r\n        _studentApplicationsLink[address(student)] = address(newApplication);\r\n        university.registerStudentApplication(\r\n            address(student),\r\n            address(newApplication)\r\n        );\r\n        _studentsLookUp.push(address(student));\r\n        _applicationsLookUp.push(address(newApplication));\r\n        return newApplication;\r\n    }\r\n\r\n    function generateNewSeed() internal view returns (bytes32) {\r\n        return blockhash(0) ^ _seed;\r\n    }\r\n\r\n    function viewMyApplication() public view returns (address) {\r\n        return viewApplication(_msgSender());\r\n    }\r\n\r\n    function viewApplication(address addr) public view returns (address) {\r\n        require(\r\n            addr == _msgSender() || _msgSender() == owner(),\r\n            \"Classroom: read permission denied\"\r\n        );\r\n        return _studentApplicationsLink[addr];\r\n    }\r\n\r\n    function beginCourse() public onlyOwner {\r\n        require(!openForApplication, \"Classroom: applications are still open\");\r\n        require(\r\n            daiToken.balanceOf(address(this)) == 0,\r\n            \"Classroom: invest all balance before begin\"\r\n        );\r\n        checkApplications();\r\n        _studentApplications = new StudentApplication[](0);\r\n        require(\r\n            _validStudentApplications.length > 0,\r\n            \"Classroom: no ready application\"\r\n        );\r\n        classroomActive = true;\r\n        _setAlarm();\r\n    }\r\n\r\n    function checkApplications() internal {\r\n        for (uint256 i = 0; i < _studentApplications.length; i++) {\r\n            if (_studentApplications[i].applicationState() == 1) {\r\n                _studentApplications[i].activate();\r\n                _validStudentApplications.push(_studentApplications[i]);\r\n            } else {\r\n                _studentApplications[i].expire();\r\n            }\r\n        }\r\n    }\r\n\r\n    function finishCourse() public onlyOwner {\r\n        require(_timestampAlarm, \"Classroom: too soon to finish course\");\r\n        require(\r\n            _validStudentApplications.length > 0,\r\n            \"Classroom: no applications\"\r\n        );\r\n        _totalBalance = _recoverInvestment();\r\n        courseFinished = true;\r\n        emit LogCourseFinished();\r\n    }\r\n\r\n    function _recoverInvestment() internal returns (uint256) {\r\n        uint256 balance = cToken.balanceOfUnderlying(address(this));\r\n        cToken.redeemUnderlying(balance);\r\n        return balance;\r\n    }\r\n\r\n    function processResults() public onlyOwner {\r\n        require(courseFinished, \"Classroom: course not finished\");\r\n        require(\r\n            _totalBalance <= daiToken.balanceOf(address(this)),\r\n            \"Classroom: not enough DAI to proceed\"\r\n        );\r\n        (uint256 successCount, uint256 emptyCount) = _startAnswerVerification();\r\n        (\r\n            uint256 universityCut,\r\n            uint256[] memory studentAllowances\r\n        ) = _accountValues(successCount, emptyCount);\r\n        _resolveStudentAllowances(studentAllowances);\r\n        _resolveUniversityCut(universityCut);\r\n        _updateStudentScores();\r\n        _clearClassroom();\r\n    }\r\n\r\n    function _startAnswerVerification() internal returns (uint256, uint256) {\r\n        uint256 successCount = 0;\r\n        uint256 emptyCount = 0;\r\n        for (uint256 i = 0; i < _validStudentApplications.length; i++) {\r\n            _validStudentApplications[i].registerFinalAnswer();\r\n            if (_validStudentApplications[i].applicationState() == 3)\r\n                successCount++;\r\n            if (_validStudentApplications[i].applicationState() == 5)\r\n                emptyCount++;\r\n        }\r\n        return (successCount, emptyCount);\r\n    }\r\n\r\n    function _accountValues(uint256 successCount, uint256 emptyCount)\r\n        internal\r\n        returns (uint256, uint256[] memory)\r\n    {\r\n        uint256 nStudents = _validStudentApplications.length;\r\n        uint256 returnsPool = _totalBalance.sub(entryPrice.mul(nStudents));\r\n        uint256 professorPaymentPerStudent = entryPrice.mul(principalCut).div(\r\n            10**6\r\n        );\r\n        uint256 studentPrincipalReturn = entryPrice.sub(\r\n            professorPaymentPerStudent\r\n        );\r\n        uint256 successPool = returnsPool.mul(successCount).div(nStudents);\r\n        uint256 professorTotalPoolSuccessShare = successPool.mul(poolCut).div(\r\n            10**6\r\n        );\r\n        uint256 successStudentPoolShare = returnsPool\r\n            .sub(professorTotalPoolSuccessShare)\r\n            .div(successCount);\r\n        uint256[] memory studentAllowances = new uint256[](nStudents);\r\n        for (uint256 i = 0; i < nStudents; i++) {\r\n            if (_validStudentApplications[i].applicationState() == 3) {\r\n                _validStudentApplications[i].accountAllowance(\r\n                    studentPrincipalReturn,\r\n                    successStudentPoolShare\r\n                );\r\n                studentAllowances[i] = studentPrincipalReturn.add(\r\n                    successStudentPoolShare\r\n                );\r\n            }\r\n            if (_validStudentApplications[i].applicationState() == 4) {\r\n                _validStudentApplications[i].accountAllowance(\r\n                    studentPrincipalReturn,\r\n                    0\r\n                );\r\n                studentAllowances[i] = studentPrincipalReturn;\r\n            }\r\n            if (_validStudentApplications[i].applicationState() == 5)\r\n                _validStudentApplications[i].accountAllowance(0, 0);\r\n        }\r\n        uint256 universityEmptyShare = emptyCount.mul(entryPrice);\r\n        uint256 universityPaymentShare = professorTotalPoolSuccessShare\r\n            .mul(university.cut())\r\n            .div(10**6);\r\n        uint256 notEmptyCount = nStudents.sub(emptyCount);\r\n        uint256 universitySucessPoolShare = professorPaymentPerStudent\r\n            .mul(notEmptyCount)\r\n            .mul(university.cut())\r\n            .div(10**6);\r\n        return (\r\n            universityEmptyShare.add(universityPaymentShare).add(\r\n                universitySucessPoolShare\r\n            ),\r\n            studentAllowances\r\n        );\r\n    }\r\n\r\n    function _resolveStudentAllowances(uint256[] memory studentAllowances)\r\n        internal\r\n    {\r\n        for (uint256 i = 0; i < _validStudentApplications.length; i++) {\r\n            if (studentAllowances[i] > 0)\r\n                daiToken.approve(\r\n                    address(_validStudentApplications[i]),\r\n                    studentAllowances[i]\r\n                );\r\n        }\r\n    }\r\n\r\n    function _resolveUniversityCut(uint256 universityCut) internal {\r\n        daiToken.transfer(address(university), universityCut);\r\n    }\r\n\r\n    function _updateStudentScores() internal {\r\n        for (uint256 i = 0; i < _validStudentApplications.length; i++) {\r\n            if (_validStudentApplications[i].applicationState() == 3)\r\n                university.addStudentScore(\r\n                    _validStudentApplications[i].studentAddress(),\r\n                    1\r\n                );\r\n            if (_validStudentApplications[i].applicationState() == 4)\r\n                university.subStudentScore(\r\n                    _validStudentApplications[i].studentAddress(),\r\n                    1\r\n                );\r\n            if (_validStudentApplications[i].applicationState() == 5)\r\n                university.subStudentScore(\r\n                    _validStudentApplications[i].studentAddress(),\r\n                    2\r\n                );\r\n        }\r\n    }\r\n\r\n    function _clearClassroom() internal {\r\n        _validStudentApplications = new StudentApplication[](0);\r\n        withdrawAllResults();\r\n        _totalBalance = 0;\r\n        courseFinished = false;\r\n        _timestampAlarm = false;\r\n        _mutateSeed();\r\n    }\r\n\r\n    function _mutateSeed() internal {\r\n        _seed = (_seed & blockhash(0)) | (_seed & blockhash(1));\r\n    }\r\n\r\n    function withdrawAllResults() public onlyOwner {\r\n        daiToken.transferFrom(\r\n            address(this),\r\n            owner(),\r\n            daiToken.balanceOf(address(this))\r\n        );\r\n    }\r\n}\r\n",
  "sourcePath": "/mnt/e/Repositories/Uproot/contracts/Classroom.sol",
  "compiler": {
    "name": "solc",
    "version": "0.6.6+commit.6c089d02.Emscripten.clang"
  },
  "schemaVersion": "3.1.0",
  "updatedAt": "2020-05-04T00:01:58.551Z",
  "devdoc": {
    "methods": {
      "owner()": {
        "details": "Returns the address of the current owner."
      },
      "renounceOwnership()": {
        "details": "Leaves the contract without owner. It will not be possible to call `onlyOwner` functions anymore. Can only be called by the current owner.     * NOTE: Renouncing ownership will leave the contract without an owner, thereby removing any functionality that is only available to the owner."
      },
      "transferOwnership(address)": {
        "details": "Transfers ownership of the contract to a new account (`newOwner`). Can only be called by the current owner."
      }
    }
  },
  "userdoc": {
    "methods": {}
  }
}