{
  "contractName": "Classroom",
  "abi": [
    {
      "inputs": [
        {
          "internalType": "bytes32",
          "name": "name",
          "type": "bytes32"
        },
        {
          "internalType": "uint24",
          "name": "principalCut",
          "type": "uint24"
        },
        {
          "internalType": "uint24",
          "name": "poolCut",
          "type": "uint24"
        },
        {
          "internalType": "int32",
          "name": "minScore",
          "type": "int32"
        },
        {
          "internalType": "uint256",
          "name": "entryPrice",
          "type": "uint256"
        },
        {
          "internalType": "uint256",
          "name": "duration",
          "type": "uint256"
        },
        {
          "internalType": "address",
          "name": "universityAddress",
          "type": "address"
        },
        {
          "internalType": "address",
          "name": "daiAddress",
          "type": "address"
        },
        {
          "internalType": "address",
          "name": "compoundAddress",
          "type": "address"
        }
      ],
      "stateMutability": "nonpayable",
      "type": "constructor"
    },
    {
      "anonymous": false,
      "inputs": [
        {
          "indexed": true,
          "internalType": "address",
          "name": "previousOwner",
          "type": "address"
        },
        {
          "indexed": true,
          "internalType": "address",
          "name": "newOwner",
          "type": "address"
        }
      ],
      "name": "OwnershipTransferred",
      "type": "event"
    },
    {
      "anonymous": false,
      "inputs": [],
      "name": "warnCloseApplications",
      "type": "event"
    },
    {
      "anonymous": false,
      "inputs": [],
      "name": "warnOpenApplications",
      "type": "event"
    },
    {
      "inputs": [],
      "name": "cToken",
      "outputs": [
        {
          "internalType": "contract CERC20",
          "name": "",
          "type": "address"
        }
      ],
      "stateMutability": "view",
      "type": "function"
    },
    {
      "inputs": [],
      "name": "classroomActive",
      "outputs": [
        {
          "internalType": "bool",
          "name": "",
          "type": "bool"
        }
      ],
      "stateMutability": "view",
      "type": "function"
    },
    {
      "inputs": [],
      "name": "daiToken",
      "outputs": [
        {
          "internalType": "contract IERC20",
          "name": "",
          "type": "address"
        }
      ],
      "stateMutability": "view",
      "type": "function"
    },
    {
      "inputs": [],
      "name": "owner",
      "outputs": [
        {
          "internalType": "address",
          "name": "",
          "type": "address"
        }
      ],
      "stateMutability": "view",
      "type": "function"
    },
    {
      "inputs": [],
      "name": "renounceOwnership",
      "outputs": [],
      "stateMutability": "nonpayable",
      "type": "function"
    },
    {
      "inputs": [
        {
          "internalType": "address",
          "name": "newOwner",
          "type": "address"
        }
      ],
      "name": "transferOwnership",
      "outputs": [],
      "stateMutability": "nonpayable",
      "type": "function"
    },
    {
      "inputs": [],
      "name": "name",
      "outputs": [
        {
          "internalType": "bytes32",
          "name": "",
          "type": "bytes32"
        }
      ],
      "stateMutability": "view",
      "type": "function"
    },
    {
      "inputs": [
        {
          "internalType": "bytes32",
          "name": "val",
          "type": "bytes32"
        }
      ],
      "name": "changeName",
      "outputs": [],
      "stateMutability": "nonpayable",
      "type": "function"
    },
    {
      "inputs": [],
      "name": "principalCut",
      "outputs": [
        {
          "internalType": "uint24",
          "name": "",
          "type": "uint24"
        }
      ],
      "stateMutability": "view",
      "type": "function"
    },
    {
      "inputs": [
        {
          "internalType": "uint24",
          "name": "val",
          "type": "uint24"
        }
      ],
      "name": "changePrincipalCut",
      "outputs": [],
      "stateMutability": "nonpayable",
      "type": "function"
    },
    {
      "inputs": [],
      "name": "poolCut",
      "outputs": [
        {
          "internalType": "uint24",
          "name": "",
          "type": "uint24"
        }
      ],
      "stateMutability": "view",
      "type": "function"
    },
    {
      "inputs": [
        {
          "internalType": "uint24",
          "name": "val",
          "type": "uint24"
        }
      ],
      "name": "changePoolCut",
      "outputs": [],
      "stateMutability": "nonpayable",
      "type": "function"
    },
    {
      "inputs": [],
      "name": "minScore",
      "outputs": [
        {
          "internalType": "int32",
          "name": "",
          "type": "int32"
        }
      ],
      "stateMutability": "view",
      "type": "function"
    },
    {
      "inputs": [
        {
          "internalType": "int32",
          "name": "val",
          "type": "int32"
        }
      ],
      "name": "setMinScore",
      "outputs": [],
      "stateMutability": "nonpayable",
      "type": "function"
    },
    {
      "inputs": [],
      "name": "entryPrice",
      "outputs": [
        {
          "internalType": "uint256",
          "name": "",
          "type": "uint256"
        }
      ],
      "stateMutability": "view",
      "type": "function"
    },
    {
      "inputs": [
        {
          "internalType": "uint256",
          "name": "val",
          "type": "uint256"
        }
      ],
      "name": "setEntryPrice",
      "outputs": [],
      "stateMutability": "nonpayable",
      "type": "function"
    },
    {
      "inputs": [],
      "name": "duration",
      "outputs": [
        {
          "internalType": "uint256",
          "name": "",
          "type": "uint256"
        }
      ],
      "stateMutability": "view",
      "type": "function"
    },
    {
      "inputs": [
        {
          "internalType": "uint256",
          "name": "val",
          "type": "uint256"
        }
      ],
      "name": "setDuration",
      "outputs": [],
      "stateMutability": "nonpayable",
      "type": "function"
    },
    {
      "inputs": [],
      "name": "applicationsState",
      "outputs": [
        {
          "internalType": "bool",
          "name": "",
          "type": "bool"
        }
      ],
      "stateMutability": "view",
      "type": "function"
    },
    {
      "inputs": [],
      "name": "viewAllApplications",
      "outputs": [
        {
          "internalType": "address[]",
          "name": "",
          "type": "address[]"
        }
      ],
      "stateMutability": "view",
      "type": "function"
    },
    {
      "inputs": [],
      "name": "viewAllStudents",
      "outputs": [
        {
          "internalType": "address[]",
          "name": "",
          "type": "address[]"
        }
      ],
      "stateMutability": "view",
      "type": "function"
    },
    {
      "inputs": [],
      "name": "viewSeed",
      "outputs": [
        {
          "internalType": "bytes32",
          "name": "",
          "type": "bytes32"
        }
      ],
      "stateMutability": "view",
      "type": "function"
    },
    {
      "inputs": [],
      "name": "isCourseOngoing",
      "outputs": [
        {
          "internalType": "bool",
          "name": "",
          "type": "bool"
        }
      ],
      "stateMutability": "view",
      "type": "function"
    },
    {
      "inputs": [],
      "name": "openApplications",
      "outputs": [],
      "stateMutability": "nonpayable",
      "type": "function"
    },
    {
      "inputs": [],
      "name": "closeApplications",
      "outputs": [],
      "stateMutability": "nonpayable",
      "type": "function"
    },
    {
      "inputs": [],
      "name": "applyDAI",
      "outputs": [],
      "stateMutability": "nonpayable",
      "type": "function"
    },
    {
      "inputs": [],
      "name": "studentApply",
      "outputs": [],
      "stateMutability": "nonpayable",
      "type": "function"
    },
    {
      "inputs": [],
      "name": "viewMyApplication",
      "outputs": [
        {
          "internalType": "address",
          "name": "",
          "type": "address"
        }
      ],
      "stateMutability": "view",
      "type": "function"
    },
    {
      "inputs": [
        {
          "internalType": "address",
          "name": "addr",
          "type": "address"
        }
      ],
      "name": "viewApplication",
      "outputs": [
        {
          "internalType": "address",
          "name": "",
          "type": "address"
        }
      ],
      "stateMutability": "view",
      "type": "function"
    },
    {
      "inputs": [],
      "name": "beginCourse",
      "outputs": [],
      "stateMutability": "nonpayable",
      "type": "function"
    },
    {
      "inputs": [],
      "name": "finishCourse",
      "outputs": [],
      "stateMutability": "nonpayable",
      "type": "function"
    },
    {
      "inputs": [],
      "name": "processResults",
      "outputs": [],
      "stateMutability": "nonpayable",
      "type": "function"
    },
    {
      "inputs": [],
      "name": "withdrawAllResults",
      "outputs": [],
      "stateMutability": "nonpayable",
      "type": "function"
    }
  ],
  "bytecode": "0x60806040523480156200001157600080fd5b50604051620071c3380380620071c383398181016040526101208110156200003857600080fd5b810190808051906020019092919080519060200190929190805190602001909291908051906020019092919080519060200190929190805190602001909291908051906020019092919080519060200190929190805190602001909291905050506000620000ab620002de60201b60201c565b9050806000806101000a81548173ffffffffffffffffffffffffffffffffffffffff021916908373ffffffffffffffffffffffffffffffffffffffff1602179055508073ffffffffffffffffffffffffffffffffffffffff16600073ffffffffffffffffffffffffffffffffffffffff167f8be0079c531659141344cd1fd0a4f28419497f9722a3daafe3b4186f6b6457e060405160405180910390a3508860098190555082600160006101000a81548173ffffffffffffffffffffffffffffffffffffffff021916908373ffffffffffffffffffffffffffffffffffffffff1602179055506000600160146101000a81548160ff02191690831515021790555087600a60006101000a81548162ffffff021916908362ffffff16021790555086600a60036101000a81548162ffffff021916908362ffffff16021790555085600a60066101000a81548163ffffffff021916908360030b63ffffffff16021790555084600b8190555083600c819055506000600f60146101000a81548160ff02191690831515021790555081600e60006101000a81548173ffffffffffffffffffffffffffffffffffffffff021916908373ffffffffffffffffffffffffffffffffffffffff16021790555080600f60006101000a81548173ffffffffffffffffffffffffffffffffffffffff021916908373ffffffffffffffffffffffffffffffffffffffff160217905550620002c9620002e660201b60201c565b600d819055505050505050505050506200030e565b600033905090565b60007f52414e444f4d0000000000000000000000000000000000000000000000000000905090565b616ea5806200031e6000396000f3fe60806040523480156200001157600080fd5b50600436106200022c5760003560e01c8063898855ed1162000135578063be22f54611620000bd578063e804f1641162000087578063e804f164146200070c578063f2fde38b1462000742578063f6be71d11462000789578063f745adfc14620007ba578063fc48258d14620007da576200022c565b8063be22f5461462000605578063db0735171462000651578063df55946a1462000675578063dfd78adc14620006a9576200022c565b8063aa055a4011620000ff578063aa055a4014620005bd578063ada02e1914620005c9578063adf45ef214620005d5578063bbe3b92614620005f9576200022c565b8063898855ed14620004eb5780638da5cb5b146200051c578063a46268a81462000568578063a6e77af1146200058c576200022c565b806369e527da11620001b957806376eada91116200018357806376eada9114620003f85780637c0260cb146200047f5780638155e977146200048b5780638646bcec14620004c1576200022c565b806369e527da14620002f157806369e7af43146200033d5780636e8055a714620003a0578063715018a614620003ec576200022c565b80633196002711620001fb5780633196002714620002a3578063431a16ef14620002af5780634c5e789314620002bb578063604d394314620002c7576200022c565b806306fdde0314620002315780630fb5a6b4146200025157806313c2bedc14620002715780631b9dbc601462000297575b600080fd5b6200023b620007fa565b6040518082815260200191505060405180910390f35b6200025b62000804565b6040518082815260200191505060405180910390f35b6200027b6200080e565b604051808260030b60030b815260200191505060405180910390f35b620002a162000825565b005b620002ad62000bf5565b005b620002b962000dd1565b005b620002c562000fa2565b005b620002d162001271565b604051808262ffffff1662ffffff16815260200191505060405180910390f35b620002fb6200128a565b604051808273ffffffffffffffffffffffffffffffffffffffff1673ffffffffffffffffffffffffffffffffffffffff16815260200191505060405180910390f35b62000347620012b0565b6040518080602001828103825283818151815260200191508051906020019060200280838360005b838110156200038c5780820151818401526020810190506200036f565b505050509050019250505060405180910390f35b620003aa6200140c565b604051808273ffffffffffffffffffffffffffffffffffffffff1673ffffffffffffffffffffffffffffffffffffffff16815260200191505060405180910390f35b620003f662001427565b005b6200043d600480360360208110156200041057600080fd5b81019080803573ffffffffffffffffffffffffffffffffffffffff169060200190929190505050620015b2565b604051808273ffffffffffffffffffffffffffffffffffffffff1673ffffffffffffffffffffffffffffffffffffffff16815260200191505060405180910390f35b62000489620016f3565b005b620004bf60048036036020811015620004a357600080fd5b81019080803562ffffff1690602001909291905050506200186f565b005b620004cb6200195d565b604051808262ffffff1662ffffff16815260200191505060405180910390f35b6200051a600480360360208110156200050357600080fd5b810190808035906020019092919050505062001976565b005b6200052662001a4c565b604051808273ffffffffffffffffffffffffffffffffffffffff1673ffffffffffffffffffffffffffffffffffffffff16815260200191505060405180910390f35b6200057262001a75565b604051808215151515815260200191505060405180910390f35b620005bb60048036036020811015620005a457600080fd5b810190808035906020019092919050505062001a88565b005b620005c762001b5e565b005b620005d362001e3b565b005b620005df620021ba565b604051808215151515815260200191505060405180910390f35b62000603620021c9565b005b6200060f62002556565b604051808273ffffffffffffffffffffffffffffffffffffffff1673ffffffffffffffffffffffffffffffffffffffff16815260200191505060405180910390f35b6200065b6200257c565b604051808215151515815260200191505060405180910390f35b620006a7600480360360208110156200068d57600080fd5b81019080803560030b906020019092919050505062002593565b005b620006b362002686565b6040518080602001828103825283818151815260200191508051906020019060200280838360005b83811015620006f8578082015181840152602081019050620006db565b505050509050019250505060405180910390f35b62000740600480360360208110156200072457600080fd5b81019080803562ffffff169060200190929190505050620027e2565b005b62000787600480360360208110156200075a57600080fd5b81019080803573ffffffffffffffffffffffffffffffffffffffff169060200190929190505050620028d0565b005b620007b860048036036020811015620007a157600080fd5b810190808035906020019092919050505062002ae2565b005b620007c462002bb8565b6040518082815260200191505060405180910390f35b620007e462002bc2565b6040518082815260200191505060405180910390f35b6000600954905090565b6000600c54905090565b6000600a60069054906101000a900460030b905090565b6200082f62001a4c565b73ffffffffffffffffffffffffffffffffffffffff166200084f62002c98565b73ffffffffffffffffffffffffffffffffffffffff161415620008be576040517f08c379a000000000000000000000000000000000000000000000000000000000815260040180806020018281038252602d81526020018062006d36602d913960400191505060405180910390fd5b600160009054906101000a900473ffffffffffffffffffffffffffffffffffffffff1673ffffffffffffffffffffffffffffffffffffffff166316ded1ce6200090662002c98565b6040518263ffffffff1660e01b8152600401808273ffffffffffffffffffffffffffffffffffffffff1673ffffffffffffffffffffffffffffffffffffffff16815260200191505060206040518083038186803b1580156200096757600080fd5b505afa1580156200097c573d6000803e3d6000fd5b505050506040513d60208110156200099357600080fd5b8101908080519060200190929190505050620009fb576040517f08c379a000000000000000000000000000000000000000000000000000000000815260040180806020018281038252602481526020018062006e226024913960400191505060405180910390fd5b600160149054906101000a900460ff1662000a7e576040517f08c379a000000000000000000000000000000000000000000000000000000000815260040180806020018281038252601e8152602001807f436c617373726f6f6d3a206170706c69636174696f6e7320636c6f736564000081525060200191505060405180910390fd5b600062000a8a62002c98565b9050600a60069054906101000a900460030b60030b8173ffffffffffffffffffffffffffffffffffffffff1663efedc6696040518163ffffffff1660e01b815260040160206040518083038186803b15801562000ae657600080fd5b505afa15801562000afb573d6000803e3d6000fd5b505050506040513d602081101562000b1257600080fd5b810190808051906020019092919050505060030b121562000b7f576040517f08c379a000000000000000000000000000000000000000000000000000000000815260040180806020018281038252602c81526020018062006ca3602c913960400191505060405180910390fd5b600062000b8c8262002ca0565b90506002819080600181540180825580915050600190039060005260206000200160009091909190916101000a81548173ffffffffffffffffffffffffffffffffffffffff021916908373ffffffffffffffffffffffffffffffffffffffff1602179055505050565b62000bff62002c98565b73ffffffffffffffffffffffffffffffffffffffff166000809054906101000a900473ffffffffffffffffffffffffffffffffffffffff1673ffffffffffffffffffffffffffffffffffffffff161462000cc1576040517f08c379a00000000000000000000000000000000000000000000000000000000081526004018080602001828103825260208152602001807f4f776e61626c653a2063616c6c6572206973206e6f7420746865206f776e657281525060200191505060405180910390fd5b600160149054906101000a900460ff161562000d29576040517f08c379a000000000000000000000000000000000000000000000000000000000815260040180806020018281038252602a81526020018062006e46602a913960400191505060405180910390fd5b60006002805490501462000d89576040517f08c379a000000000000000000000000000000000000000000000000000000000815260040180806020018281038252602281526020018062006d146022913960400191505060405180910390fd5b60018060146101000a81548160ff0219169083151502179055507fed7fc56e5f714753b4e32ad38ecdac1df8e9cf07b3ae93031020b5452df875db60405160405180910390a1565b62000ddb62002c98565b73ffffffffffffffffffffffffffffffffffffffff166000809054906101000a900473ffffffffffffffffffffffffffffffffffffffff1673ffffffffffffffffffffffffffffffffffffffff161462000e9d576040517f08c379a00000000000000000000000000000000000000000000000000000000081526004018080602001828103825260208152602001807f4f776e61626c653a2063616c6c6572206973206e6f7420746865206f776e657281525060200191505060405180910390fd5b42600754111562000efa576040517f08c379a000000000000000000000000000000000000000000000000000000000815260040180806020018281038252602481526020018062006d846024913960400191505060405180910390fd5b60006003805490501162000f76576040517f08c379a000000000000000000000000000000000000000000000000000000000815260040180806020018281038252601a8152602001807f436c617373726f6f6d3a206e6f206170706c69636174696f6e7300000000000081525060200191505060405180910390fd5b62000f8062002fd8565b60088190555060018060156101000a81548160ff021916908315150217905550565b62000fac62002c98565b73ffffffffffffffffffffffffffffffffffffffff166000809054906101000a900473ffffffffffffffffffffffffffffffffffffffff1673ffffffffffffffffffffffffffffffffffffffff16146200106e576040517f08c379a00000000000000000000000000000000000000000000000000000000081526004018080602001828103825260208152602001807f4f776e61626c653a2063616c6c6572206973206e6f7420746865206f776e657281525060200191505060405180910390fd5b600e60009054906101000a900473ffffffffffffffffffffffffffffffffffffffff1673ffffffffffffffffffffffffffffffffffffffff166323b872dd30620010b762001a4c565b600e60009054906101000a900473ffffffffffffffffffffffffffffffffffffffff1673ffffffffffffffffffffffffffffffffffffffff166370a08231306040518263ffffffff1660e01b8152600401808273ffffffffffffffffffffffffffffffffffffffff1673ffffffffffffffffffffffffffffffffffffffff16815260200191505060206040518083038186803b1580156200115757600080fd5b505afa1580156200116c573d6000803e3d6000fd5b505050506040513d60208110156200118357600080fd5b81019080805190602001909291905050506040518463ffffffff1660e01b8152600401808473ffffffffffffffffffffffffffffffffffffffff1673ffffffffffffffffffffffffffffffffffffffff1681526020018373ffffffffffffffffffffffffffffffffffffffff1673ffffffffffffffffffffffffffffffffffffffff1681526020018281526020019350505050602060405180830381600087803b1580156200123157600080fd5b505af115801562001246573d6000803e3d6000fd5b505050506040513d60208110156200125d57600080fd5b810190808051906020019092919050505050565b6000600a60039054906101000a900462ffffff16905090565b600f60009054906101000a900473ffffffffffffffffffffffffffffffffffffffff1681565b6060620012bc62002c98565b73ffffffffffffffffffffffffffffffffffffffff166000809054906101000a900473ffffffffffffffffffffffffffffffffffffffff1673ffffffffffffffffffffffffffffffffffffffff16146200137e576040517f08c379a00000000000000000000000000000000000000000000000000000000081526004018080602001828103825260208152602001807f4f776e61626c653a2063616c6c6572206973206e6f7420746865206f776e657281525060200191505060405180910390fd5b60058054806020026020016040519081016040528092919081815260200182805480156200140257602002820191906000526020600020905b8160009054906101000a900473ffffffffffffffffffffffffffffffffffffffff1673ffffffffffffffffffffffffffffffffffffffff1681526020019060010190808311620013b7575b5050505050905090565b6000620014226200141c62002c98565b620015b2565b905090565b6200143162002c98565b73ffffffffffffffffffffffffffffffffffffffff166000809054906101000a900473ffffffffffffffffffffffffffffffffffffffff1673ffffffffffffffffffffffffffffffffffffffff1614620014f3576040517f08c379a00000000000000000000000000000000000000000000000000000000081526004018080602001828103825260208152602001807f4f776e61626c653a2063616c6c6572206973206e6f7420746865206f776e657281525060200191505060405180910390fd5b600073ffffffffffffffffffffffffffffffffffffffff166000809054906101000a900473ffffffffffffffffffffffffffffffffffffffff1673ffffffffffffffffffffffffffffffffffffffff167f8be0079c531659141344cd1fd0a4f28419497f9722a3daafe3b4186f6b6457e060405160405180910390a360008060006101000a81548173ffffffffffffffffffffffffffffffffffffffff021916908373ffffffffffffffffffffffffffffffffffffffff160217905550565b6000620015be62002c98565b73ffffffffffffffffffffffffffffffffffffffff168273ffffffffffffffffffffffffffffffffffffffff161480620016355750620015fd62001a4c565b73ffffffffffffffffffffffffffffffffffffffff166200161d62002c98565b73ffffffffffffffffffffffffffffffffffffffff16145b6200168c576040517f08c379a000000000000000000000000000000000000000000000000000000000815260040180806020018281038252602181526020018062006cf36021913960400191505060405180910390fd5b600460008373ffffffffffffffffffffffffffffffffffffffff1673ffffffffffffffffffffffffffffffffffffffff16815260200190815260200160002060009054906101000a900473ffffffffffffffffffffffffffffffffffffffff169050919050565b620016fd62002c98565b73ffffffffffffffffffffffffffffffffffffffff166000809054906101000a900473ffffffffffffffffffffffffffffffffffffffff1673ffffffffffffffffffffffffffffffffffffffff1614620017bf576040517f08c379a00000000000000000000000000000000000000000000000000000000081526004018080602001828103825260208152602001807f4f776e61626c653a2063616c6c6572206973206e6f7420746865206f776e657281525060200191505060405180910390fd5b600160149054906101000a900460ff1662001826576040517f08c379a000000000000000000000000000000000000000000000000000000000815260040180806020018281038252602a81526020018062006df8602a913960400191505060405180910390fd5b6000600160146101000a81548160ff0219169083151502179055507f67ccc69b776bd9c78655440e78d4efa80a5630c9ab0d7b487930d75be9b8d80b60405160405180910390a1565b6200187962002c98565b73ffffffffffffffffffffffffffffffffffffffff166000809054906101000a900473ffffffffffffffffffffffffffffffffffffffff1673ffffffffffffffffffffffffffffffffffffffff16146200193b576040517f08c379a00000000000000000000000000000000000000000000000000000000081526004018080602001828103825260208152602001807f4f776e61626c653a2063616c6c6572206973206e6f7420746865206f776e657281525060200191505060405180910390fd5b80600a60006101000a81548162ffffff021916908362ffffff16021790555050565b6000600a60009054906101000a900462ffffff16905090565b6200198062002c98565b73ffffffffffffffffffffffffffffffffffffffff166000809054906101000a900473ffffffffffffffffffffffffffffffffffffffff1673ffffffffffffffffffffffffffffffffffffffff161462001a42576040517f08c379a00000000000000000000000000000000000000000000000000000000081526004018080602001828103825260208152602001807f4f776e61626c653a2063616c6c6572206973206e6f7420746865206f776e657281525060200191505060405180910390fd5b8060098190555050565b60008060009054906101000a900473ffffffffffffffffffffffffffffffffffffffff16905090565b600f60149054906101000a900460ff1681565b62001a9262002c98565b73ffffffffffffffffffffffffffffffffffffffff166000809054906101000a900473ffffffffffffffffffffffffffffffffffffffff1673ffffffffffffffffffffffffffffffffffffffff161462001b54576040517f08c379a00000000000000000000000000000000000000000000000000000000081526004018080602001828103825260208152602001807f4f776e61626c653a2063616c6c6572206973206e6f7420746865206f776e657281525060200191505060405180910390fd5b80600b8190555050565b62001b6862002c98565b73ffffffffffffffffffffffffffffffffffffffff166000809054906101000a900473ffffffffffffffffffffffffffffffffffffffff1673ffffffffffffffffffffffffffffffffffffffff161462001c2a576040517f08c379a00000000000000000000000000000000000000000000000000000000081526004018080602001828103825260208152602001807f4f776e61626c653a2063616c6c6572206973206e6f7420746865206f776e657281525060200191505060405180910390fd5b600160159054906101000a900460ff1662001cad576040517f08c379a000000000000000000000000000000000000000000000000000000000815260040180806020018281038252601e8152602001807f436c617373726f6f6d3a20636f75727365206e6f742066696e6973686564000081525060200191505060405180910390fd5b600e60009054906101000a900473ffffffffffffffffffffffffffffffffffffffff1673ffffffffffffffffffffffffffffffffffffffff166370a08231306040518263ffffffff1660e01b8152600401808273ffffffffffffffffffffffffffffffffffffffff1673ffffffffffffffffffffffffffffffffffffffff16815260200191505060206040518083038186803b15801562001d4d57600080fd5b505afa15801562001d62573d6000803e3d6000fd5b505050506040513d602081101562001d7957600080fd5b8101908080519060200190929190505050600854111562001de6576040517f08c379a000000000000000000000000000000000000000000000000000000000815260040180806020018281038252602481526020018062006ccf6024913960400191505060405180910390fd5b60008062001df362003177565b915091506000606062001e078484620033e8565b9150915062001e168162003c74565b62001e218262003ded565b62001e2b62003efa565b62001e35620045f6565b50505050565b62001e4562002c98565b73ffffffffffffffffffffffffffffffffffffffff166000809054906101000a900473ffffffffffffffffffffffffffffffffffffffff1673ffffffffffffffffffffffffffffffffffffffff161462001f07576040517f08c379a00000000000000000000000000000000000000000000000000000000081526004018080602001828103825260208152602001807f4f776e61626c653a2063616c6c6572206973206e6f7420746865206f776e657281525060200191505060405180910390fd5b6000600e60009054906101000a900473ffffffffffffffffffffffffffffffffffffffff1673ffffffffffffffffffffffffffffffffffffffff166370a08231306040518263ffffffff1660e01b8152600401808273ffffffffffffffffffffffffffffffffffffffff1673ffffffffffffffffffffffffffffffffffffffff16815260200191505060206040518083038186803b15801562001fa957600080fd5b505afa15801562001fbe573d6000803e3d6000fd5b505050506040513d602081101562001fd557600080fd5b810190808051906020019092919050505090506000811162001ff85750620021b8565b600e60009054906101000a900473ffffffffffffffffffffffffffffffffffffffff1673ffffffffffffffffffffffffffffffffffffffff1663095ea7b3600f60009054906101000a900473ffffffffffffffffffffffffffffffffffffffff16836040518363ffffffff1660e01b8152600401808373ffffffffffffffffffffffffffffffffffffffff1673ffffffffffffffffffffffffffffffffffffffff16815260200182815260200192505050602060405180830381600087803b158015620020c457600080fd5b505af1158015620020d9573d6000803e3d6000fd5b505050506040513d6020811015620020f057600080fd5b810190808051906020019092919050505050600f60009054906101000a900473ffffffffffffffffffffffffffffffffffffffff1673ffffffffffffffffffffffffffffffffffffffff1663a0712d68826040518263ffffffff1660e01b815260040180828152602001915050602060405180830381600087803b1580156200217857600080fd5b505af11580156200218d573d6000803e3d6000fd5b505050506040513d6020811015620021a457600080fd5b810190808051906020019092919050505050505b565b60008060038054905011905090565b620021d362002c98565b73ffffffffffffffffffffffffffffffffffffffff166000809054906101000a900473ffffffffffffffffffffffffffffffffffffffff1673ffffffffffffffffffffffffffffffffffffffff161462002295576040517f08c379a00000000000000000000000000000000000000000000000000000000081526004018080602001828103825260208152602001807f4f776e61626c653a2063616c6c6572206973206e6f7420746865206f776e657281525060200191505060405180910390fd5b600160149054906101000a900460ff1615620022fd576040517f08c379a000000000000000000000000000000000000000000000000000000000815260040180806020018281038252602681526020018062006da86026913960400191505060405180910390fd5b6000600e60009054906101000a900473ffffffffffffffffffffffffffffffffffffffff1673ffffffffffffffffffffffffffffffffffffffff166370a08231306040518263ffffffff1660e01b8152600401808273ffffffffffffffffffffffffffffffffffffffff1673ffffffffffffffffffffffffffffffffffffffff16815260200191505060206040518083038186803b1580156200239f57600080fd5b505afa158015620023b4573d6000803e3d6000fd5b505050506040513d6020811015620023cb57600080fd5b81019080805190602001909291905050501462002434576040517f08c379a000000000000000000000000000000000000000000000000000000000815260040180806020018281038252602a81526020018062006dce602a913960400191505060405180910390fd5b6200243e62004687565b600067ffffffffffffffff811180156200245757600080fd5b50604051908082528060200260200182016040528015620024875781602001602082028036833780820191505090505b50600290805190602001906200249f92919062004c82565b506000600380549050116200251c576040517f08c379a000000000000000000000000000000000000000000000000000000000815260040180806020018281038252601f8152602001807f436c617373726f6f6d3a206e6f207265616479206170706c69636174696f6e0081525060200191505060405180910390fd5b6001600f60146101000a81548160ff0219169083151502179055506200254e600c54426200494790919063ffffffff16565b600781905550565b600e60009054906101000a900473ffffffffffffffffffffffffffffffffffffffff1681565b6000600160149054906101000a900460ff16905090565b6200259d62002c98565b73ffffffffffffffffffffffffffffffffffffffff166000809054906101000a900473ffffffffffffffffffffffffffffffffffffffff1673ffffffffffffffffffffffffffffffffffffffff16146200265f576040517f08c379a00000000000000000000000000000000000000000000000000000000081526004018080602001828103825260208152602001807f4f776e61626c653a2063616c6c6572206973206e6f7420746865206f776e657281525060200191505060405180910390fd5b80600a60066101000a81548163ffffffff021916908360030b63ffffffff16021790555050565b60606200269262002c98565b73ffffffffffffffffffffffffffffffffffffffff166000809054906101000a900473ffffffffffffffffffffffffffffffffffffffff1673ffffffffffffffffffffffffffffffffffffffff161462002754576040517f08c379a00000000000000000000000000000000000000000000000000000000081526004018080602001828103825260208152602001807f4f776e61626c653a2063616c6c6572206973206e6f7420746865206f776e657281525060200191505060405180910390fd5b6006805480602002602001604051908101604052809291908181526020018280548015620027d857602002820191906000526020600020905b8160009054906101000a900473ffffffffffffffffffffffffffffffffffffffff1673ffffffffffffffffffffffffffffffffffffffff16815260200190600101908083116200278d575b5050505050905090565b620027ec62002c98565b73ffffffffffffffffffffffffffffffffffffffff166000809054906101000a900473ffffffffffffffffffffffffffffffffffffffff1673ffffffffffffffffffffffffffffffffffffffff1614620028ae576040517f08c379a00000000000000000000000000000000000000000000000000000000081526004018080602001828103825260208152602001807f4f776e61626c653a2063616c6c6572206973206e6f7420746865206f776e657281525060200191505060405180910390fd5b80600a60036101000a81548162ffffff021916908362ffffff16021790555050565b620028da62002c98565b73ffffffffffffffffffffffffffffffffffffffff166000809054906101000a900473ffffffffffffffffffffffffffffffffffffffff1673ffffffffffffffffffffffffffffffffffffffff16146200299c576040517f08c379a00000000000000000000000000000000000000000000000000000000081526004018080602001828103825260208152602001807f4f776e61626c653a2063616c6c6572206973206e6f7420746865206f776e657281525060200191505060405180910390fd5b600073ffffffffffffffffffffffffffffffffffffffff168173ffffffffffffffffffffffffffffffffffffffff16141562002a24576040517f08c379a000000000000000000000000000000000000000000000000000000000815260040180806020018281038252602681526020018062006c7d6026913960400191505060405180910390fd5b8073ffffffffffffffffffffffffffffffffffffffff166000809054906101000a900473ffffffffffffffffffffffffffffffffffffffff1673ffffffffffffffffffffffffffffffffffffffff167f8be0079c531659141344cd1fd0a4f28419497f9722a3daafe3b4186f6b6457e060405160405180910390a3806000806101000a81548173ffffffffffffffffffffffffffffffffffffffff021916908373ffffffffffffffffffffffffffffffffffffffff16021790555050565b62002aec62002c98565b73ffffffffffffffffffffffffffffffffffffffff166000809054906101000a900473ffffffffffffffffffffffffffffffffffffffff1673ffffffffffffffffffffffffffffffffffffffff161462002bae576040517f08c379a00000000000000000000000000000000000000000000000000000000081526004018080602001828103825260208152602001807f4f776e61626c653a2063616c6c6572206973206e6f7420746865206f776e657281525060200191505060405180910390fd5b80600c8190555050565b6000600b54905090565b600062002bce62002c98565b73ffffffffffffffffffffffffffffffffffffffff166000809054906101000a900473ffffffffffffffffffffffffffffffffffffffff1673ffffffffffffffffffffffffffffffffffffffff161462002c90576040517f08c379a00000000000000000000000000000000000000000000000000000000081526004018080602001828103825260208152602001807f4f776e61626c653a2063616c6c6572206973206e6f7420746865206f776e657281525060200191505060405180910390fd5b600d54905090565b600033905090565b6000808230600e60009054906101000a900473ffffffffffffffffffffffffffffffffffffffff16600d5460405162002cd99062004d11565b808573ffffffffffffffffffffffffffffffffffffffff1673ffffffffffffffffffffffffffffffffffffffff1681526020018473ffffffffffffffffffffffffffffffffffffffff1673ffffffffffffffffffffffffffffffffffffffff1681526020018373ffffffffffffffffffffffffffffffffffffffff1673ffffffffffffffffffffffffffffffffffffffff168152602001828152602001945050505050604051809103906000f08015801562002d99573d6000803e3d6000fd5b50905080600460008573ffffffffffffffffffffffffffffffffffffffff1673ffffffffffffffffffffffffffffffffffffffff16815260200190815260200160002060006101000a81548173ffffffffffffffffffffffffffffffffffffffff021916908373ffffffffffffffffffffffffffffffffffffffff160217905550600160009054906101000a900473ffffffffffffffffffffffffffffffffffffffff1673ffffffffffffffffffffffffffffffffffffffff1663183b260084836040518363ffffffff1660e01b8152600401808373ffffffffffffffffffffffffffffffffffffffff1673ffffffffffffffffffffffffffffffffffffffff1681526020018273ffffffffffffffffffffffffffffffffffffffff1673ffffffffffffffffffffffffffffffffffffffff16815260200192505050600060405180830381600087803b15801562002ef057600080fd5b505af115801562002f05573d6000803e3d6000fd5b505050506005839080600181540180825580915050600190039060005260206000200160009091909190916101000a81548173ffffffffffffffffffffffffffffffffffffffff021916908373ffffffffffffffffffffffffffffffffffffffff1602179055506006819080600181540180825580915050600190039060005260206000200160009091909190916101000a81548173ffffffffffffffffffffffffffffffffffffffff021916908373ffffffffffffffffffffffffffffffffffffffff16021790555080915050919050565b600080600f60009054906101000a900473ffffffffffffffffffffffffffffffffffffffff1673ffffffffffffffffffffffffffffffffffffffff16633af9e669306040518263ffffffff1660e01b8152600401808273ffffffffffffffffffffffffffffffffffffffff1673ffffffffffffffffffffffffffffffffffffffff168152602001915050602060405180830381600087803b1580156200307d57600080fd5b505af115801562003092573d6000803e3d6000fd5b505050506040513d6020811015620030a957600080fd5b81019080805190602001909291905050509050600f60009054906101000a900473ffffffffffffffffffffffffffffffffffffffff1673ffffffffffffffffffffffffffffffffffffffff1663852a12e3826040518263ffffffff1660e01b815260040180828152602001915050602060405180830381600087803b1580156200313257600080fd5b505af115801562003147573d6000803e3d6000fd5b505050506040513d60208110156200315e57600080fd5b8101908080519060200190929190505050508091505090565b6000806000809050600080905060008090505b600380549050811015620033db5760038181548110620031a657fe5b9060005260206000200160009054906101000a900473ffffffffffffffffffffffffffffffffffffffff1673ffffffffffffffffffffffffffffffffffffffff1663289cf0d26040518163ffffffff1660e01b8152600401600060405180830381600087803b1580156200321957600080fd5b505af11580156200322e573d6000803e3d6000fd5b5050505060038082815481106200324157fe5b9060005260206000200160009054906101000a900473ffffffffffffffffffffffffffffffffffffffff1673ffffffffffffffffffffffffffffffffffffffff16636587b61e6040518163ffffffff1660e01b815260040160206040518083038186803b158015620032b257600080fd5b505afa158015620032c7573d6000803e3d6000fd5b505050506040513d6020811015620032de57600080fd5b81019080805190602001909291905050501415620032ff5782806001019350505b6005600382815481106200330f57fe5b9060005260206000200160009054906101000a900473ffffffffffffffffffffffffffffffffffffffff1673ffffffffffffffffffffffffffffffffffffffff16636587b61e6040518163ffffffff1660e01b815260040160206040518083038186803b1580156200338057600080fd5b505afa15801562003395573d6000803e3d6000fd5b505050506040513d6020811015620033ac57600080fd5b81019080805190602001909291905050501415620033cd5781806001019250505b80806001019150506200318a565b5081819350935050509091565b60006060600060038054905090506000620034256200341383600b54620049d090919063ffffffff16565b60085462004a5b90919063ffffffff16565b905060006200346d620f42406200345e600a60009054906101000a900462ffffff1662ffffff16600b54620049d090919063ffffffff16565b62004aa790919063ffffffff16565b905060006200348882600b5462004a5b90919063ffffffff16565b90506000620034b585620034a68b87620049d090919063ffffffff16565b62004aa790919063ffffffff16565b90506000620034fb620f4240620034ec600a60039054906101000a900462ffffff1662ffffff1685620049d090919063ffffffff16565b62004aa790919063ffffffff16565b90506000620035288b62003519848962004a5b90919063ffffffff16565b62004aa790919063ffffffff16565b905060608767ffffffffffffffff811180156200354457600080fd5b50604051908082528060200260200182016040528015620035745781602001602082028036833780820191505090505b50905060008090505b8881101562003a365760038082815481106200359557fe5b9060005260206000200160009054906101000a900473ffffffffffffffffffffffffffffffffffffffff1673ffffffffffffffffffffffffffffffffffffffff16636587b61e6040518163ffffffff1660e01b815260040160206040518083038186803b1580156200360657600080fd5b505afa1580156200361b573d6000803e3d6000fd5b505050506040513d60208110156200363257600080fd5b810190808051906020019092919050505014156200372657600381815481106200365857fe5b9060005260206000200160009054906101000a900473ffffffffffffffffffffffffffffffffffffffff1673ffffffffffffffffffffffffffffffffffffffff16637db9abaf87856040518363ffffffff1660e01b81526004018083815260200182815260200192505050600060405180830381600087803b158015620036de57600080fd5b505af1158015620036f3573d6000803e3d6000fd5b505050506200370c83876200494790919063ffffffff16565b8282815181106200371957fe5b6020026020010181815250505b6004600382815481106200373657fe5b9060005260206000200160009054906101000a900473ffffffffffffffffffffffffffffffffffffffff1673ffffffffffffffffffffffffffffffffffffffff16636587b61e6040518163ffffffff1660e01b815260040160206040518083038186803b158015620037a757600080fd5b505afa158015620037bc573d6000803e3d6000fd5b505050506040513d6020811015620037d357600080fd5b81019080805190602001909291905050501415620038b45760038181548110620037f957fe5b9060005260206000200160009054906101000a900473ffffffffffffffffffffffffffffffffffffffff1673ffffffffffffffffffffffffffffffffffffffff16637db9abaf8760006040518363ffffffff1660e01b81526004018083815260200182815260200192505050600060405180830381600087803b1580156200388057600080fd5b505af115801562003895573d6000803e3d6000fd5b5050505085828281518110620038a757fe5b6020026020010181815250505b600560038281548110620038c457fe5b9060005260206000200160009054906101000a900473ffffffffffffffffffffffffffffffffffffffff1673ffffffffffffffffffffffffffffffffffffffff16636587b61e6040518163ffffffff1660e01b815260040160206040518083038186803b1580156200393557600080fd5b505afa1580156200394a573d6000803e3d6000fd5b505050506040513d60208110156200396157600080fd5b8101908080519060200190929190505050141562003a2857600381815481106200398757fe5b9060005260206000200160009054906101000a900473ffffffffffffffffffffffffffffffffffffffff1673ffffffffffffffffffffffffffffffffffffffff16637db9abaf6000806040518363ffffffff1660e01b81526004018083815260200182815260200192505050600060405180830381600087803b15801562003a0e57600080fd5b505af115801562003a23573d6000803e3d6000fd5b505050505b80806001019150506200357d565b50600062003a50600b548d620049d090919063ffffffff16565b9050600062003b2a620f424062003b1b600160009054906101000a900473ffffffffffffffffffffffffffffffffffffffff1673ffffffffffffffffffffffffffffffffffffffff1663e6fd604c6040518163ffffffff1660e01b815260040160206040518083038186803b15801562003ac957600080fd5b505afa15801562003ade573d6000803e3d6000fd5b505050506040513d602081101562003af557600080fd5b810190808051906020019092919050505062ffffff1688620049d090919063ffffffff16565b62004aa790919063ffffffff16565b9050600062003b438e8c62004a5b90919063ffffffff16565b9050600062003c31620f424062003c22600160009054906101000a900473ffffffffffffffffffffffffffffffffffffffff1673ffffffffffffffffffffffffffffffffffffffff1663e6fd604c6040518163ffffffff1660e01b815260040160206040518083038186803b15801562003bbc57600080fd5b505afa15801562003bd1573d6000803e3d6000fd5b505050506040513d602081101562003be857600080fd5b810190808051906020019092919050505062ffffff1662003c13868f620049d090919063ffffffff16565b620049d090919063ffffffff16565b62004aa790919063ffffffff16565b905062003c5c8162003c4d85876200494790919063ffffffff16565b6200494790919063ffffffff16565b859d509d505050505050505050505050509250929050565b60008090505b60038054905081101562003de957600082828151811062003c9757fe5b6020026020010151111562003ddb57600e60009054906101000a900473ffffffffffffffffffffffffffffffffffffffff1673ffffffffffffffffffffffffffffffffffffffff1663095ea7b36003838154811062003cf257fe5b9060005260206000200160009054906101000a900473ffffffffffffffffffffffffffffffffffffffff1684848151811062003d2a57fe5b60200260200101516040518363ffffffff1660e01b8152600401808373ffffffffffffffffffffffffffffffffffffffff1673ffffffffffffffffffffffffffffffffffffffff16815260200182815260200192505050602060405180830381600087803b15801562003d9c57600080fd5b505af115801562003db1573d6000803e3d6000fd5b505050506040513d602081101562003dc857600080fd5b8101908080519060200190929190505050505b808060010191505062003c7a565b5050565b600e60009054906101000a900473ffffffffffffffffffffffffffffffffffffffff1673ffffffffffffffffffffffffffffffffffffffff1663a9059cbb600160009054906101000a900473ffffffffffffffffffffffffffffffffffffffff16836040518363ffffffff1660e01b8152600401808373ffffffffffffffffffffffffffffffffffffffff1673ffffffffffffffffffffffffffffffffffffffff16815260200182815260200192505050602060405180830381600087803b15801562003eb957600080fd5b505af115801562003ece573d6000803e3d6000fd5b505050506040513d602081101562003ee557600080fd5b81019080805190602001909291905050505050565b60008090505b600380549050811015620045f357600380828154811062003f1d57fe5b9060005260206000200160009054906101000a900473ffffffffffffffffffffffffffffffffffffffff1673ffffffffffffffffffffffffffffffffffffffff16636587b61e6040518163ffffffff1660e01b815260040160206040518083038186803b15801562003f8e57600080fd5b505afa15801562003fa3573d6000803e3d6000fd5b505050506040513d602081101562003fba57600080fd5b810190808051906020019092919050505014156200415557600160009054906101000a900473ffffffffffffffffffffffffffffffffffffffff1673ffffffffffffffffffffffffffffffffffffffff166387bfe188600383815481106200401e57fe5b9060005260206000200160009054906101000a900473ffffffffffffffffffffffffffffffffffffffff1673ffffffffffffffffffffffffffffffffffffffff1663b8f31a816040518163ffffffff1660e01b815260040160206040518083038186803b1580156200408f57600080fd5b505afa158015620040a4573d6000803e3d6000fd5b505050506040513d6020811015620040bb57600080fd5b810190808051906020019092919050505060016040518363ffffffff1660e01b8152600401808373ffffffffffffffffffffffffffffffffffffffff1673ffffffffffffffffffffffffffffffffffffffff1681526020018260030b815260200192505050600060405180830381600087803b1580156200413b57600080fd5b505af115801562004150573d6000803e3d6000fd5b505050505b6004600382815481106200416557fe5b9060005260206000200160009054906101000a900473ffffffffffffffffffffffffffffffffffffffff1673ffffffffffffffffffffffffffffffffffffffff16636587b61e6040518163ffffffff1660e01b815260040160206040518083038186803b158015620041d657600080fd5b505afa158015620041eb573d6000803e3d6000fd5b505050506040513d60208110156200420257600080fd5b810190808051906020019092919050505014156200439d57600160009054906101000a900473ffffffffffffffffffffffffffffffffffffffff1673ffffffffffffffffffffffffffffffffffffffff1663ff5d8f63600383815481106200426657fe5b9060005260206000200160009054906101000a900473ffffffffffffffffffffffffffffffffffffffff1673ffffffffffffffffffffffffffffffffffffffff1663b8f31a816040518163ffffffff1660e01b815260040160206040518083038186803b158015620042d757600080fd5b505afa158015620042ec573d6000803e3d6000fd5b505050506040513d60208110156200430357600080fd5b810190808051906020019092919050505060016040518363ffffffff1660e01b8152600401808373ffffffffffffffffffffffffffffffffffffffff1673ffffffffffffffffffffffffffffffffffffffff1681526020018260030b815260200192505050600060405180830381600087803b1580156200438357600080fd5b505af115801562004398573d6000803e3d6000fd5b505050505b600560038281548110620043ad57fe5b9060005260206000200160009054906101000a900473ffffffffffffffffffffffffffffffffffffffff1673ffffffffffffffffffffffffffffffffffffffff16636587b61e6040518163ffffffff1660e01b815260040160206040518083038186803b1580156200441e57600080fd5b505afa15801562004433573d6000803e3d6000fd5b505050506040513d60208110156200444a57600080fd5b81019080805190602001909291905050501415620045e557600160009054906101000a900473ffffffffffffffffffffffffffffffffffffffff1673ffffffffffffffffffffffffffffffffffffffff1663ff5d8f6360038381548110620044ae57fe5b9060005260206000200160009054906101000a900473ffffffffffffffffffffffffffffffffffffffff1673ffffffffffffffffffffffffffffffffffffffff1663b8f31a816040518163ffffffff1660e01b815260040160206040518083038186803b1580156200451f57600080fd5b505afa15801562004534573d6000803e3d6000fd5b505050506040513d60208110156200454b57600080fd5b810190808051906020019092919050505060026040518363ffffffff1660e01b8152600401808373ffffffffffffffffffffffffffffffffffffffff1673ffffffffffffffffffffffffffffffffffffffff1681526020018260030b815260200192505050600060405180830381600087803b158015620045cb57600080fd5b505af1158015620045e0573d6000803e3d6000fd5b505050505b808060010191505062003f00565b50565b600067ffffffffffffffff811180156200460f57600080fd5b506040519080825280602002602001820160405280156200463f5781602001602082028036833780820191505090505b50600390805190602001906200465792919062004c82565b506200466262000fa2565b60006008819055506000600160156101000a81548160ff021916908315150217905550565b60008090505b6002805490508110156200494457600160028281548110620046ab57fe5b9060005260206000200160009054906101000a900473ffffffffffffffffffffffffffffffffffffffff1673ffffffffffffffffffffffffffffffffffffffff16636587b61e6040518163ffffffff1660e01b815260040160206040518083038186803b1580156200471c57600080fd5b505afa15801562004731573d6000803e3d6000fd5b505050506040513d60208110156200474857600080fd5b810190808051906020019092919050505014156200489b57600281815481106200476e57fe5b9060005260206000200160009054906101000a900473ffffffffffffffffffffffffffffffffffffffff1673ffffffffffffffffffffffffffffffffffffffff16630f15f4c06040518163ffffffff1660e01b8152600401600060405180830381600087803b158015620047e157600080fd5b505af1158015620047f6573d6000803e3d6000fd5b505050506003600282815481106200480a57fe5b9060005260206000200160009054906101000a900473ffffffffffffffffffffffffffffffffffffffff169080600181540180825580915050600190039060005260206000200160009091909190916101000a81548173ffffffffffffffffffffffffffffffffffffffff021916908373ffffffffffffffffffffffffffffffffffffffff16021790555062004936565b60028181548110620048a957fe5b9060005260206000200160009054906101000a900473ffffffffffffffffffffffffffffffffffffffff1673ffffffffffffffffffffffffffffffffffffffff166379599f966040518163ffffffff1660e01b8152600401600060405180830381600087803b1580156200491c57600080fd5b505af115801562004931573d6000803e3d6000fd5b505050505b80806001019150506200468d565b50565b600080828401905083811015620049c6576040517f08c379a000000000000000000000000000000000000000000000000000000000815260040180806020018281038252601b8152602001807f536166654d6174683a206164646974696f6e206f766572666c6f77000000000081525060200191505060405180910390fd5b8091505092915050565b600080831415620049e5576000905062004a55565b6000828402905082848281620049f757fe5b041462004a50576040517f08c379a000000000000000000000000000000000000000000000000000000000815260040180806020018281038252602181526020018062006d636021913960400191505060405180910390fd5b809150505b92915050565b600062004a9f83836040518060400160405280601e81526020017f536166654d6174683a207375627472616374696f6e206f766572666c6f77000081525062004af3565b905092915050565b600062004aeb83836040518060400160405280601a81526020017f536166654d6174683a206469766973696f6e206279207a65726f00000000000081525062004bb7565b905092915050565b600083831115829062004ba4576040517f08c379a00000000000000000000000000000000000000000000000000000000081526004018080602001828103825283818151815260200191508051906020019080838360005b8381101562004b6857808201518184015260208101905062004b4b565b50505050905090810190601f16801562004b965780820380516001836020036101000a031916815260200191505b509250505060405180910390fd5b5060008385039050809150509392505050565b6000808311829062004c67576040517f08c379a00000000000000000000000000000000000000000000000000000000081526004018080602001828103825283818151815260200191508051906020019080838360005b8381101562004c2b57808201518184015260208101905062004c0e565b50505050905090810190601f16801562004c595780820380516001836020036101000a031916815260200191505b509250505060405180910390fd5b50600083858162004c7457fe5b049050809150509392505050565b82805482825590600052602060002090810192821562004cfe579160200282015b8281111562004cfd5782518260006101000a81548173ffffffffffffffffffffffffffffffffffffffff021916908373ffffffffffffffffffffffffffffffffffffffff1602179055509160200191906001019062004ca3565b5b50905062004d0d919062004d1f565b5090565b611f178062004d6683390190565b62004d6291905b8082111562004d5e57600081816101000a81549073ffffffffffffffffffffffffffffffffffffffff02191690555060010162004d26565b5090565b9056fe608060405234801561001057600080fd5b5060405162001f1738038062001f178339818101604052608081101561003557600080fd5b8101908080519060200190929190805190602001909291908051906020019092919080519060200190929190505050600061007461023260201b60201c565b9050806000806101000a81548173ffffffffffffffffffffffffffffffffffffffff021916908373ffffffffffffffffffffffffffffffffffffffff1602179055508073ffffffffffffffffffffffffffffffffffffffff16600073ffffffffffffffffffffffffffffffffffffffff167f8be0079c531659141344cd1fd0a4f28419497f9722a3daafe3b4186f6b6457e060405160405180910390a3506000600260146101000a81548160ff0219169083600681111561013157fe5b021790555083600360006101000a81548173ffffffffffffffffffffffffffffffffffffffff021916908373ffffffffffffffffffffffffffffffffffffffff16021790555082600460006101000a81548173ffffffffffffffffffffffffffffffffffffffff021916908373ffffffffffffffffffffffffffffffffffffffff1602179055506000600660006101000a81548160ff02191690831515021790555081600160006101000a81548173ffffffffffffffffffffffffffffffffffffffff021916908373ffffffffffffffffffffffffffffffffffffffff1602179055506102238161023a60201b60201c565b60058190555050505050610266565b600033905090565b60007f52414e444f4d000000000000000000000000000000000000000000000000000082189050919050565b611ca180620002766000396000f3fe608060405234801561001057600080fd5b50600436106101165760003560e01c806379599f96116100a2578063b8f31a8111610071578063b8f31a81146102c9578063be22f54614610313578063c7a51bc31461035d578063f2fde38b1461037b578063fc48258d146103bf57610116565b806379599f96146102335780637db9abaf1461023d578063872d7c79146102755780638da5cb5b1461027f57610116565b80633db0bfd2116100e95780633db0bfd21461015b5780636587b61e146101a957806366995a46146101c757806370bc0d6f1461020b578063715018a61461022957610116565b80630bb8ebf61461011b5780630f15f4c01461013d578063289cf0d2146101475780632d24947b14610151575b600080fd5b6101236103dd565b604051808215151515815260200191505060405180910390f35b610145610494565b005b61014f610600565b005b610159610764565b005b6101a76004803603604081101561017157600080fd5b81019080803573ffffffffffffffffffffffffffffffffffffffff16906020019092919080359060200190929190505050610a39565b005b6101b1610c85565b6040518082815260200191505060405180910390f35b610209600480360360208110156101dd57600080fd5b81019080803573ffffffffffffffffffffffffffffffffffffffff169060200190929190505050610d98565b005b610213610dab565b6040518082815260200191505060405180910390f35b610231610eea565b005b61023b611072565b005b6102736004803603604081101561025357600080fd5b8101908080359060200190929190803590602001909291905050506111df565b005b61027d61131a565b005b610287611529565b604051808273ffffffffffffffffffffffffffffffffffffffff1673ffffffffffffffffffffffffffffffffffffffff16815260200191505060405180910390f35b6102d1611552565b604051808273ffffffffffffffffffffffffffffffffffffffff1673ffffffffffffffffffffffffffffffffffffffff16815260200191505060405180910390f35b61031b611645565b604051808273ffffffffffffffffffffffffffffffffffffffff1673ffffffffffffffffffffffffffffffffffffffff16815260200191505060405180910390f35b61036561166b565b6040518082815260200191505060405180910390f35b6103bd6004803603602081101561039157600080fd5b81019080803573ffffffffffffffffffffffffffffffffffffffff1690602001909291905050506117a9565b005b6103c76119b6565b6040518082815260200191505060405180910390f35b6000600260009054906101000a900473ffffffffffffffffffffffffffffffffffffffff1673ffffffffffffffffffffffffffffffffffffffff166339e7357c6040518163ffffffff1660e01b815260040160206040518083038186803b15801561044757600080fd5b505afa92505050801561047b57506040513d602081101561046757600080fd5b810190808051906020019092919050505060015b6104885760009050610491565b60055481149150505b90565b61049c611a89565b73ffffffffffffffffffffffffffffffffffffffff166000809054906101000a900473ffffffffffffffffffffffffffffffffffffffff1673ffffffffffffffffffffffffffffffffffffffff161461055d576040517f08c379a00000000000000000000000000000000000000000000000000000000081526004018080602001828103825260208152602001807f4f776e61626c653a2063616c6c6572206973206e6f7420746865206f776e657281525060200191505060405180910390fd5b6000600681111561056a57fe5b600260149054906101000a900460ff16600681111561058557fe5b146105db576040517f08c379a000000000000000000000000000000000000000000000000000000000815260040180806020018281038252602a815260200180611bc2602a913960400191505060405180910390fd5b60028060146101000a81548160ff021916908360068111156105f957fe5b0217905550565b610608611a89565b73ffffffffffffffffffffffffffffffffffffffff166000809054906101000a900473ffffffffffffffffffffffffffffffffffffffff1673ffffffffffffffffffffffffffffffffffffffff16146106c9576040517f08c379a00000000000000000000000000000000000000000000000000000000081526004018080602001828103825260208152602001807f4f776e61626c653a2063616c6c6572206973206e6f7420746865206f776e657281525060200191505060405180910390fd5b600660009054906101000a900460ff16610706576005600260146101000a81548160ff021916908360068111156106fc57fe5b0217905550610762565b61070e6103dd565b1561073c576003600260146101000a81548160ff0219169083600681111561073257fe5b0217905550610761565b6004600260146101000a81548160ff0219169083600681111561075b57fe5b02179055505b5b565b6000600681111561077157fe5b600260149054906101000a900460ff16600681111561078c57fe5b146107e2576040517f08c379a000000000000000000000000000000000000000000000000000000000815260040180806020018281038252602a815260200180611bc2602a913960400191505060405180910390fd5b600160009054906101000a900473ffffffffffffffffffffffffffffffffffffffff1673ffffffffffffffffffffffffffffffffffffffff166323b872dd33600460009054906101000a900473ffffffffffffffffffffffffffffffffffffffff16600460009054906101000a900473ffffffffffffffffffffffffffffffffffffffff1673ffffffffffffffffffffffffffffffffffffffff1663f745adfc6040518163ffffffff1660e01b815260040160206040518083038186803b1580156108ac57600080fd5b505afa1580156108c0573d6000803e3d6000fd5b505050506040513d60208110156108d657600080fd5b81019080805190602001909291905050506040518463ffffffff1660e01b8152600401808473ffffffffffffffffffffffffffffffffffffffff1673ffffffffffffffffffffffffffffffffffffffff1681526020018373ffffffffffffffffffffffffffffffffffffffff1673ffffffffffffffffffffffffffffffffffffffff1681526020018281526020019350505050602060405180830381600087803b15801561098357600080fd5b505af1158015610997573d6000803e3d6000fd5b505050506040513d60208110156109ad57600080fd5b8101908080519060200190929190505050610a13576040517f08c379a000000000000000000000000000000000000000000000000000000000815260040180806020018281038252602a815260200180611bec602a913960400191505060405180910390fd5b6001600260146101000a81548160ff02191690836006811115610a3257fe5b0217905550565b600360009054906101000a900473ffffffffffffffffffffffffffffffffffffffff1673ffffffffffffffffffffffffffffffffffffffff16610a7a611a89565b73ffffffffffffffffffffffffffffffffffffffff1614610ae6576040517f08c379a000000000000000000000000000000000000000000000000000000000815260040180806020018281038252602d815260200180611b36602d913960400191505060405180910390fd5b6002610af0610c85565b11610b46576040517f08c379a000000000000000000000000000000000000000000000000000000000815260040180806020018281038252602c815260200180611c16602c913960400191505060405180910390fd5b600160009054906101000a900473ffffffffffffffffffffffffffffffffffffffff1673ffffffffffffffffffffffffffffffffffffffff166323b872dd600460009054906101000a900473ffffffffffffffffffffffffffffffffffffffff1684846040518463ffffffff1660e01b8152600401808473ffffffffffffffffffffffffffffffffffffffff1673ffffffffffffffffffffffffffffffffffffffff1681526020018373ffffffffffffffffffffffffffffffffffffffff1673ffffffffffffffffffffffffffffffffffffffff1681526020018281526020019350505050602060405180830381600087803b158015610c4557600080fd5b505af1158015610c59573d6000803e3d6000fd5b505050506040513d6020811015610c6f57600080fd5b8101908080519060200190929190505050505050565b6000600360009054906101000a900473ffffffffffffffffffffffffffffffffffffffff1673ffffffffffffffffffffffffffffffffffffffff16610cc8611a89565b73ffffffffffffffffffffffffffffffffffffffff161480610d235750610ced611529565b73ffffffffffffffffffffffffffffffffffffffff16610d0b611a89565b73ffffffffffffffffffffffffffffffffffffffff16145b610d78576040517f08c379a000000000000000000000000000000000000000000000000000000000815260040180806020018281038252602a815260200180611c42602a913960400191505060405180910390fd5b600260149054906101000a900460ff166006811115610d9357fe5b905090565b610da88160085460075401610a39565b50565b6000600660009054906101000a900460ff16610e12576040517f08c379a0000000000000000000000000000000000000000000000000000000008152600401808060200182810382526029815260200180611b0d6029913960400191505060405180910390fd5b600260009054906101000a900473ffffffffffffffffffffffffffffffffffffffff1673ffffffffffffffffffffffffffffffffffffffff16610e53611a89565b73ffffffffffffffffffffffffffffffffffffffff1614610ebf576040517f08c379a0000000000000000000000000000000000000000000000000000000008152600401808060200182810382526025815260200180611ae86025913960400191505060405180910390fd5b6005547f4841434b4d4f4e455900000000000000000000000000000000000000000000001917905090565b610ef2611a89565b73ffffffffffffffffffffffffffffffffffffffff166000809054906101000a900473ffffffffffffffffffffffffffffffffffffffff1673ffffffffffffffffffffffffffffffffffffffff1614610fb3576040517f08c379a00000000000000000000000000000000000000000000000000000000081526004018080602001828103825260208152602001807f4f776e61626c653a2063616c6c6572206973206e6f7420746865206f776e657281525060200191505060405180910390fd5b600073ffffffffffffffffffffffffffffffffffffffff166000809054906101000a900473ffffffffffffffffffffffffffffffffffffffff1673ffffffffffffffffffffffffffffffffffffffff167f8be0079c531659141344cd1fd0a4f28419497f9722a3daafe3b4186f6b6457e060405160405180910390a360008060006101000a81548173ffffffffffffffffffffffffffffffffffffffff021916908373ffffffffffffffffffffffffffffffffffffffff160217905550565b61107a611a89565b73ffffffffffffffffffffffffffffffffffffffff166000809054906101000a900473ffffffffffffffffffffffffffffffffffffffff1673ffffffffffffffffffffffffffffffffffffffff161461113b576040517f08c379a00000000000000000000000000000000000000000000000000000000081526004018080602001828103825260208152602001807f4f776e61626c653a2063616c6c6572206973206e6f7420746865206f776e657281525060200191505060405180910390fd5b6000600681111561114857fe5b600260149054906101000a900460ff16600681111561116357fe5b146111b9576040517f08c379a000000000000000000000000000000000000000000000000000000000815260040180806020018281038252602a815260200180611bc2602a913960400191505060405180910390fd5b6006600260146101000a81548160ff021916908360068111156111d857fe5b0217905550565b6111e7611a89565b73ffffffffffffffffffffffffffffffffffffffff166000809054906101000a900473ffffffffffffffffffffffffffffffffffffffff1673ffffffffffffffffffffffffffffffffffffffff16146112a8576040517f08c379a00000000000000000000000000000000000000000000000000000000081526004018080602001828103825260208152602001807f4f776e61626c653a2063616c6c6572206973206e6f7420746865206f776e657281525060200191505060405180910390fd5b60026112b2610c85565b11611308576040517f08c379a0000000000000000000000000000000000000000000000000000000008152600401808060200182810382526030815260200180611a926030913960400191505060405180910390fd5b81600781905550806008819055505050565b6002600681111561132757fe5b600260149054906101000a900460ff16600681111561134257fe5b14611398576040517f08c379a000000000000000000000000000000000000000000000000000000000815260040180806020018281038252602d815260200180611b95602d913960400191505060405180910390fd5b60006113a2611a89565b9050600360009054906101000a900473ffffffffffffffffffffffffffffffffffffffff1673ffffffffffffffffffffffffffffffffffffffff168173ffffffffffffffffffffffffffffffffffffffff1663893d20e86040518163ffffffff1660e01b815260040160206040518083038186803b15801561142357600080fd5b505afa158015611437573d6000803e3d6000fd5b505050506040513d602081101561144d57600080fd5b810190808051906020019092919050505073ffffffffffffffffffffffffffffffffffffffff16146114ca576040517f08c379a0000000000000000000000000000000000000000000000000000000008152600401808060200182810382526032815260200180611b636032913960400191505060405180910390fd5b80600260006101000a81548173ffffffffffffffffffffffffffffffffffffffff021916908373ffffffffffffffffffffffffffffffffffffffff1602179055506001600660006101000a81548160ff02191690831515021790555050565b60008060009054906101000a900473ffffffffffffffffffffffffffffffffffffffff16905090565b600061155c611a89565b73ffffffffffffffffffffffffffffffffffffffff166000809054906101000a900473ffffffffffffffffffffffffffffffffffffffff1673ffffffffffffffffffffffffffffffffffffffff161461161d576040517f08c379a00000000000000000000000000000000000000000000000000000000081526004018080602001828103825260208152602001807f4f776e61626c653a2063616c6c6572206973206e6f7420746865206f776e657281525060200191505060405180910390fd5b600360009054906101000a900473ffffffffffffffffffffffffffffffffffffffff16905090565b600160009054906101000a900473ffffffffffffffffffffffffffffffffffffffff1681565b6000600660009054906101000a900460ff166116d2576040517f08c379a0000000000000000000000000000000000000000000000000000000008152600401808060200182810382526029815260200180611b0d6029913960400191505060405180910390fd5b600260009054906101000a900473ffffffffffffffffffffffffffffffffffffffff1673ffffffffffffffffffffffffffffffffffffffff16611713611a89565b73ffffffffffffffffffffffffffffffffffffffff161461177f576040517f08c379a0000000000000000000000000000000000000000000000000000000008152600401808060200182810382526025815260200180611ae86025913960400191505060405180910390fd5b6005547f4841434b4d4f4e4559000000000000000000000000000000000000000000000017905090565b6117b1611a89565b73ffffffffffffffffffffffffffffffffffffffff166000809054906101000a900473ffffffffffffffffffffffffffffffffffffffff1673ffffffffffffffffffffffffffffffffffffffff1614611872576040517f08c379a00000000000000000000000000000000000000000000000000000000081526004018080602001828103825260208152602001807f4f776e61626c653a2063616c6c6572206973206e6f7420746865206f776e657281525060200191505060405180910390fd5b600073ffffffffffffffffffffffffffffffffffffffff168173ffffffffffffffffffffffffffffffffffffffff1614156118f8576040517f08c379a0000000000000000000000000000000000000000000000000000000008152600401808060200182810382526026815260200180611ac26026913960400191505060405180910390fd5b8073ffffffffffffffffffffffffffffffffffffffff166000809054906101000a900473ffffffffffffffffffffffffffffffffffffffff1673ffffffffffffffffffffffffffffffffffffffff167f8be0079c531659141344cd1fd0a4f28419497f9722a3daafe3b4186f6b6457e060405160405180910390a3806000806101000a81548173ffffffffffffffffffffffffffffffffffffffff021916908373ffffffffffffffffffffffffffffffffffffffff16021790555050565b60006119c0611a89565b73ffffffffffffffffffffffffffffffffffffffff166000809054906101000a900473ffffffffffffffffffffffffffffffffffffffff1673ffffffffffffffffffffffffffffffffffffffff1614611a81576040517f08c379a00000000000000000000000000000000000000000000000000000000081526004018080602001828103825260208152602001807f4f776e61626c653a2063616c6c6572206973206e6f7420746865206f776e657281525060200191505060405180910390fd5b600554905090565b60003390509056fe53747564656e744170706c69636174696f6e3a206170706c69636174696f6e206e6f742066696e6973686564207965744f776e61626c653a206e6577206f776e657220697320746865207a65726f206164647265737353747564656e744170706c69636174696f6e3a2061726520796f75206368656174696e673f53747564656e744170706c69636174696f6e3a20616e73776572206e6f74207265676973746572656453747564656e744170706c69636174696f6e3a206f6e6c792073747564656e742063616e20776974686472617753747564656e744170706c69636174696f6e3a2073747564656e74206973206e6f74206f776e6572206f6620616e7377657253747564656e744170706c69636174696f6e3a206170706c69636174696f6e206973206e6f742061637469766553747564656e744170706c69636174696f6e3a206170706c69636174696f6e206973206e6f74204e657753747564656e744170706c69636174696f6e3a20636f756c64206e6f74207472616e736665722044414953747564656e744170706c69636174696f6e3a206170706c69636174696f6e206e6f742066696e697368656453747564656e744170706c69636174696f6e3a2072656164207065726d697373696f6e2064656e696564a26469706673582212203981c61472221d734032bee9f0437318a00546ae5aac7ea5758425b72d628b9064736f6c634300060600334f776e61626c653a206e6577206f776e657220697320746865207a65726f2061646472657373436c617373726f6f6d3a2073747564656e7420646f65736e2774206861766520656e6f7567682073636f7265436c617373726f6f6d3a206e6f7420656e6f7567682044414920746f2070726f63656564436c617373726f6f6d3a2072656164207065726d697373696f6e2064656e696564436c617373726f6f6d3a2073747564656e7473206c697374206e6f7420656d707479436c617373726f6f6d3a2070726f666573736f722063616e277420626520697473206f776e2073747564656e74536166654d6174683a206d756c7469706c69636174696f6e206f766572666c6f77436c617373726f6f6d3a20746f6f20736f6f6e20746f2066696e69736820636f75727365436c617373726f6f6d3a206170706c69636174696f6e7320617265207374696c6c206f70656e436c617373726f6f6d3a20696e7665737420616c6c2062616c616e6365206265666f726520626567696e436c617373726f6f6d3a206170706c69636174696f6e732061726520616c726561647920636c6f736564436c617373726f6f6d3a2073747564656e74206973206e6f742072656769737465726564436c617373726f6f6d3a206170706c69636174696f6e732061726520616c7265616479206f70656e6564a2646970667358221220b0b8eb8de156008cae9ba49d61c483ce4a8537ef779e0f1fb02540da97b1684564736f6c63430006060033",
  "immutableReferences": {},
  "source": "pragma solidity 0.6.6;\r\n\r\nimport \"@openzeppelin/contracts/math/SafeMath.sol\";\r\nimport \"@openzeppelin/contracts/access/AccessControl.sol\";\r\nimport \"@openzeppelin/contracts/access/Ownable.sol\";\r\nimport \"@openzeppelin/contracts/token/ERC20/IERC20.sol\";\r\nimport \"@openzeppelin/contracts/utils/Address.sol\";\r\nimport \"./University.sol\";\r\nimport \"./Student.sol\";\r\nimport \"./StudentApplication.sol\";\r\n\r\ncontract Classroom is Ownable {\r\n    using SafeMath for uint256;\r\n\r\n    University _university;\r\n    bool _openForApplication;\r\n    bool _courseFinished;\r\n    StudentApplication[] _studentApplications;\r\n    StudentApplication[] _validStudentApplications;\r\n    mapping(address => address) _studentApplicationsLink;\r\n    address[] _studentsLookUp;\r\n    address[] _applicationsLookUp;\r\n    uint _endDate;\r\n    uint _totalBalance;\r\n\r\n    //Classroom parameters\r\n    bytes32 _name;\r\n    uint24 _principalCut;\r\n    uint24 _poolCut;\r\n    int32 _minScore;\r\n    uint _entryPrice;\r\n    uint _duration;\r\n    bytes32 _seed;\r\n\r\n    IERC20 public daiToken;\r\n    CERC20 public cToken;\r\n\r\n    bool public classroomActive;\r\n\r\n    event warnOpenApplications();\r\n\r\n    event warnCloseApplications();\r\n\r\n    constructor(bytes32 name, uint24 principalCut, uint24 poolCut, int32 minScore, uint entryPrice,\r\n            uint duration, address universityAddress, address daiAddress, address compoundAddress) public {\r\n        _name = name;\r\n        _university = University(universityAddress);\r\n        _openForApplication = false;\r\n        _principalCut = principalCut;\r\n        _poolCut = poolCut;\r\n        _minScore = minScore;\r\n        _entryPrice = entryPrice;\r\n        _duration = duration;\r\n        classroomActive = false;\r\n        //Kovan address\r\n        daiToken = IERC20(daiAddress);\r\n        cToken = CERC20(compoundAddress);\r\n        _seed = generateSeed();\r\n    }\r\n\r\n    function name() public view returns (bytes32) {\r\n        return _name;\r\n    }\r\n\r\n    function changeName(bytes32 val) public onlyOwner {\r\n        _name = val;\r\n    }\r\n\r\n    function principalCut() public view returns (uint24){\r\n        return _principalCut;\r\n    }\r\n\r\n    function changePrincipalCut(uint24 val) public onlyOwner {\r\n        _principalCut = val;\r\n    }\r\n\r\n    function poolCut() public view returns (uint24){\r\n        return _poolCut;\r\n    }\r\n\r\n    function changePoolCut(uint24 val) public onlyOwner {\r\n        _poolCut = val;\r\n    }\r\n\r\n    function minScore() public view returns (int32) {\r\n        return _minScore;\r\n    }\r\n\r\n    function setMinScore(int32 val) public onlyOwner {\r\n        _minScore = val;\r\n    }\r\n\r\n    function entryPrice() public view returns (uint) {\r\n        return _entryPrice;\r\n    }\r\n\r\n    function setEntryPrice(uint val) public onlyOwner {\r\n        _entryPrice = val;\r\n    }\r\n\r\n    function duration() public view returns (uint) {\r\n        return _duration;\r\n    }\r\n\r\n    function setDuration(uint val) public onlyOwner {\r\n        _duration = val;\r\n    }\r\n\r\n    function applicationsState() public view returns (bool) {\r\n        return _openForApplication;\r\n    }\r\n\r\n    function viewAllApplications() public view onlyOwner returns (address[] memory) {\r\n        return _applicationsLookUp;\r\n    }\r\n\r\n    function viewAllStudents() public view onlyOwner returns (address[] memory) {\r\n        return _studentsLookUp;\r\n    }\r\n\r\n    function generateSeed() internal pure returns (bytes32) {\r\n        //TODO:\r\n        return \"RANDOM\";\r\n    }\r\n\r\n    function viewSeed() public view onlyOwner returns (bytes32) {\r\n        return _seed;\r\n    }\r\n\r\n    function isCourseOngoing() public view returns (bool) {\r\n        return _validStudentApplications.length > 0;\r\n    }\r\n\r\n    function openApplications() public onlyOwner {\r\n        require(!_openForApplication, \"Classroom: applications are already opened\");\r\n        require(_studentApplications.length == 0, \"Classroom: students list not empty\");\r\n        _openForApplication = true;\r\n        emit warnOpenApplications();\r\n    }\r\n\r\n    function closeApplications() public onlyOwner {\r\n        require(_openForApplication, \"Classroom: applications are already closed\");\r\n        _openForApplication = false;\r\n        emit warnCloseApplications();\r\n    }\r\n\r\n    //public onlyOwner allow the professor to apply money before and after closing applications\r\n    function applyDAI() public onlyOwner {\r\n        uint balance = daiToken.balanceOf(address(this));\r\n        if (balance <= 0) return;\r\n        daiToken.approve(address(cToken), balance);\r\n        cToken.mint(balance);\r\n    }\r\n\r\n    function studentApply() public{\r\n        require(_msgSender() != owner(), \"Classroom: professor can't be its own student\");\r\n        require(_university.studentIsRegistered(_msgSender()), \"Classroom: student is not registered\");\r\n        require(_openForApplication, \"Classroom: applications closed\");\r\n        Student applicant = Student(_msgSender());\r\n        require(applicant.score() >= _minScore, \"Classroom: student doesn't have enough score\");\r\n        StudentApplication application = _createStudentApplication(applicant);\r\n        _studentApplications.push(application);\r\n    }\r\n\r\n    function _createStudentApplication(Student student) internal returns (StudentApplication) {\r\n        //TODO: fetch contract from external factory to reduce size\r\n        StudentApplication newApplication = new StudentApplication(address(student), address(this), address(daiToken), _seed);\r\n        _studentApplicationsLink[address(student)] = address(newApplication);\r\n        _university.registerStudentApplication(address(student), address(newApplication));\r\n        _studentsLookUp.push(address(student));\r\n        _applicationsLookUp.push(address(newApplication));\r\n        return newApplication;\r\n    }\r\n\r\n    function viewMyApplication() public view returns (address) {\r\n        return viewApplication(_msgSender());\r\n    }\r\n\r\n    function viewApplication(address addr) public view returns (address) {\r\n        require(addr == _msgSender() || _msgSender() == owner(), \"Classroom: read permission denied\");\r\n        return _studentApplicationsLink[addr];\r\n    }\r\n\r\n    function beginCourse() public onlyOwner {\r\n        require(!_openForApplication, \"Classroom: applications are still open\");\r\n        require(daiToken.balanceOf(address(this)) == 0, \"Classroom: invest all balance before begin\");\r\n        checkApplications();\r\n        _studentApplications = new StudentApplication[](0);\r\n        require(_validStudentApplications.length > 0, \"Classroom: no ready application\");\r\n        classroomActive = true;\r\n        //TODO: use oracle\r\n        _endDate = block.timestamp.add(_duration);\r\n    }\r\n\r\n    function checkApplications() internal {\r\n        for (uint i = 0; i < _studentApplications.length ; i++) {\r\n            if (_studentApplications[i].applicationState() == 1) {\r\n                _studentApplications[i].activate();\r\n                _validStudentApplications.push(_studentApplications[i]);\r\n            }\r\n            else {\r\n                _studentApplications[i].expire();\r\n            }\r\n        }\r\n    }\r\n\r\n    function finishCourse() public onlyOwner {\r\n        //TODO: use oracle\r\n        require (_endDate <= block.timestamp, \"Classroom: too soon to finish course\");\r\n        require (_validStudentApplications.length > 0, \"Classroom: no applications\");\r\n        _totalBalance = _recoverInvestment();\r\n        _courseFinished = true;\r\n    }\r\n\r\n    function _recoverInvestment() internal returns (uint) {\r\n        uint balance = cToken.balanceOfUnderlying(address(this));\r\n        cToken.redeemUnderlying(balance);\r\n        return balance;\r\n    }\r\n\r\n    function processResults () public onlyOwner {\r\n        require(_courseFinished, \"Classroom: course not finished\");\r\n        require(_totalBalance <= daiToken.balanceOf(address(this)), \"Classroom: not enough DAI to proceed\");\r\n        (uint successCount, uint emptyCount) = _startAnswerVerification();\r\n        (uint universityCut, uint[] memory studentAllowances) = _accountValues(successCount, emptyCount);\r\n        _resolveStudentAllowances(studentAllowances);\r\n        _resolveUniversityCut(universityCut);\r\n        _updateStudentScores();\r\n        _clearClassroom();\r\n    }\r\n\r\n    function _startAnswerVerification() internal returns (uint, uint) {\r\n        uint successCount = 0;\r\n        uint emptyCount = 0;\r\n        for (uint i = 0; i < _validStudentApplications.length ; i++) {\r\n            _validStudentApplications[i].registerFinalAnswer();\r\n            if (_validStudentApplications[i].applicationState() == 3) successCount++;\r\n            if (_validStudentApplications[i].applicationState() == 5) emptyCount++;\r\n        }\r\n        return (successCount, emptyCount);\r\n    }\r\n\r\n    function _accountValues(uint successCount, uint emptyCount) internal returns (uint, uint[] memory) {\r\n        uint nStudents = _validStudentApplications.length;\r\n        uint returnsPool = _totalBalance.sub(_entryPrice.mul(nStudents));\r\n        uint professorPaymentPerStudent = _entryPrice.mul(_principalCut).div(10 ** 6);\r\n        uint studentPrincipalReturn = _entryPrice.sub(professorPaymentPerStudent);\r\n        uint successPool = returnsPool.mul(successCount).div(nStudents);\r\n        uint professorTotalPoolSuccessShare = successPool.mul(_poolCut).div(10 ** 6);\r\n        uint successStudentPoolShare = returnsPool.sub(professorTotalPoolSuccessShare).div(successCount);\r\n        uint[] memory studentAllowances = new uint[](nStudents);\r\n        for (uint i = 0; i < nStudents ; i++) {\r\n            if (_validStudentApplications[i].applicationState() == 3) {\r\n                _validStudentApplications[i].accountAllowance(studentPrincipalReturn, successStudentPoolShare);\r\n                studentAllowances[i] = studentPrincipalReturn.add(successStudentPoolShare);\r\n            }\r\n            if (_validStudentApplications[i].applicationState() == 4){\r\n                _validStudentApplications[i].accountAllowance(studentPrincipalReturn, 0);\r\n                studentAllowances[i] = studentPrincipalReturn;\r\n            }\r\n            if (_validStudentApplications[i].applicationState() == 5)\r\n                _validStudentApplications[i].accountAllowance(0, 0);\r\n        }\r\n        uint universityEmptyShare = emptyCount.mul(_entryPrice);\r\n        uint universityPaymentShare = professorTotalPoolSuccessShare.mul(_university.cut()).div(10 ** 6);\r\n        uint notEmptyCount = nStudents.sub(emptyCount);\r\n        uint universitySucessPoolShare = professorPaymentPerStudent.mul(notEmptyCount).mul(_university.cut()).div(10 ** 6);\r\n        return (universityEmptyShare.add(universityPaymentShare).add(universitySucessPoolShare), studentAllowances);\r\n    }\r\n\r\n    function _resolveStudentAllowances(uint[] memory studentAllowances) internal {\r\n        for (uint i = 0; i < _validStudentApplications.length ; i++) {\r\n            if (studentAllowances[i] > 0) daiToken.approve(address(_validStudentApplications[i]), studentAllowances[i]);\r\n        }\r\n    }\r\n\r\n    function _resolveUniversityCut(uint universityCut) internal {\r\n        daiToken.transfer(address(_university), universityCut);\r\n    }\r\n\r\n    function _updateStudentScores() internal {\r\n        for (uint i = 0; i < _validStudentApplications.length ; i++) {\r\n            if (_validStudentApplications[i].applicationState() == 3)\r\n                _university.addStudentScore(_validStudentApplications[i].studentAddress(), 1);\r\n            if (_validStudentApplications[i].applicationState() == 4)\r\n                _university.subStudentScore(_validStudentApplications[i].studentAddress(), 1);\r\n            if (_validStudentApplications[i].applicationState() == 5)\r\n                _university.subStudentScore(_validStudentApplications[i].studentAddress(), 2);\r\n        }\r\n    }\r\n\r\n    function _clearClassroom() internal {\r\n        _validStudentApplications = new StudentApplication[](0);\r\n        withdrawAllResults();\r\n        _totalBalance = 0;\r\n        _courseFinished = false;\r\n    }\r\n\r\n    function withdrawAllResults() public onlyOwner {\r\n        daiToken.transferFrom(address(this), owner(), daiToken.balanceOf(address(this)));\r\n    }\r\n}",
  "sourcePath": "/mnt/e/Repositories/Uproot/contracts/Classroom.sol",
  "compiler": {
    "name": "solc",
    "version": "0.6.6+commit.6c089d02.Emscripten.clang"
  },
  "schemaVersion": "3.1.0",
  "updatedAt": "2020-05-02T19:27:24.731Z",
  "devdoc": {
    "methods": {
      "owner()": {
        "details": "Returns the address of the current owner."
      },
      "renounceOwnership()": {
        "details": "Leaves the contract without owner. It will not be possible to call `onlyOwner` functions anymore. Can only be called by the current owner.     * NOTE: Renouncing ownership will leave the contract without an owner, thereby removing any functionality that is only available to the owner."
      },
      "transferOwnership(address)": {
        "details": "Transfers ownership of the contract to a new account (`newOwner`). Can only be called by the current owner."
      }
    }
  },
  "userdoc": {
    "methods": {}
  }
}