{
  "contractName": "Classroom",
  "abi": [
    {
      "inputs": [
        {
          "internalType": "bytes32",
          "name": "_name",
          "type": "bytes32"
        },
        {
          "internalType": "uint24",
          "name": "_principalCut",
          "type": "uint24"
        },
        {
          "internalType": "uint24",
          "name": "_poolCut",
          "type": "uint24"
        },
        {
          "internalType": "int32",
          "name": "_minScore",
          "type": "int32"
        },
        {
          "internalType": "uint256",
          "name": "_entryPrice",
          "type": "uint256"
        },
        {
          "internalType": "uint256",
          "name": "_duration",
          "type": "uint256"
        },
        {
          "internalType": "address",
          "name": "universityAddress",
          "type": "address"
        },
        {
          "internalType": "address",
          "name": "daiAddress",
          "type": "address"
        },
        {
          "internalType": "address",
          "name": "compoundAddress",
          "type": "address"
        },
        {
          "internalType": "address",
          "name": "challengeAddress",
          "type": "address"
        }
      ],
      "stateMutability": "nonpayable",
      "type": "constructor"
    },
    {
      "anonymous": false,
      "inputs": [
        {
          "indexed": false,
          "internalType": "address",
          "name": "",
          "type": "address"
        }
      ],
      "name": "LogChangeChallenge",
      "type": "event"
    },
    {
      "anonymous": false,
      "inputs": [
        {
          "indexed": false,
          "internalType": "uint256",
          "name": "",
          "type": "uint256"
        }
      ],
      "name": "LogChangeDuration",
      "type": "event"
    },
    {
      "anonymous": false,
      "inputs": [
        {
          "indexed": false,
          "internalType": "uint256",
          "name": "",
          "type": "uint256"
        }
      ],
      "name": "LogChangeEntryPrice",
      "type": "event"
    },
    {
      "anonymous": false,
      "inputs": [
        {
          "indexed": false,
          "internalType": "int32",
          "name": "",
          "type": "int32"
        }
      ],
      "name": "LogChangeMinScore",
      "type": "event"
    },
    {
      "anonymous": false,
      "inputs": [
        {
          "indexed": false,
          "internalType": "bytes32",
          "name": "",
          "type": "bytes32"
        }
      ],
      "name": "LogChangeName",
      "type": "event"
    },
    {
      "anonymous": false,
      "inputs": [
        {
          "indexed": false,
          "internalType": "uint24",
          "name": "",
          "type": "uint24"
        }
      ],
      "name": "LogChangePoolCut",
      "type": "event"
    },
    {
      "anonymous": false,
      "inputs": [
        {
          "indexed": false,
          "internalType": "uint24",
          "name": "",
          "type": "uint24"
        }
      ],
      "name": "LogChangePrincipalCut",
      "type": "event"
    },
    {
      "anonymous": false,
      "inputs": [],
      "name": "LogCloseApplications",
      "type": "event"
    },
    {
      "anonymous": false,
      "inputs": [],
      "name": "LogCourseFinished",
      "type": "event"
    },
    {
      "anonymous": false,
      "inputs": [],
      "name": "LogOpenApplications",
      "type": "event"
    },
    {
      "anonymous": false,
      "inputs": [
        {
          "indexed": true,
          "internalType": "address",
          "name": "previousOwner",
          "type": "address"
        },
        {
          "indexed": true,
          "internalType": "address",
          "name": "newOwner",
          "type": "address"
        }
      ],
      "name": "OwnershipTransferred",
      "type": "event"
    },
    {
      "inputs": [],
      "name": "_challengeAddress",
      "outputs": [
        {
          "internalType": "address",
          "name": "",
          "type": "address"
        }
      ],
      "stateMutability": "view",
      "type": "function"
    },
    {
      "inputs": [],
      "name": "cToken",
      "outputs": [
        {
          "internalType": "contract CERC20",
          "name": "",
          "type": "address"
        }
      ],
      "stateMutability": "view",
      "type": "function"
    },
    {
      "inputs": [],
      "name": "classroomActive",
      "outputs": [
        {
          "internalType": "bool",
          "name": "",
          "type": "bool"
        }
      ],
      "stateMutability": "view",
      "type": "function"
    },
    {
      "inputs": [],
      "name": "courseFinished",
      "outputs": [
        {
          "internalType": "bool",
          "name": "",
          "type": "bool"
        }
      ],
      "stateMutability": "view",
      "type": "function"
    },
    {
      "inputs": [],
      "name": "daiToken",
      "outputs": [
        {
          "internalType": "contract IERC20",
          "name": "",
          "type": "address"
        }
      ],
      "stateMutability": "view",
      "type": "function"
    },
    {
      "inputs": [],
      "name": "duration",
      "outputs": [
        {
          "internalType": "uint256",
          "name": "",
          "type": "uint256"
        }
      ],
      "stateMutability": "view",
      "type": "function"
    },
    {
      "inputs": [],
      "name": "entryPrice",
      "outputs": [
        {
          "internalType": "uint256",
          "name": "",
          "type": "uint256"
        }
      ],
      "stateMutability": "view",
      "type": "function"
    },
    {
      "inputs": [],
      "name": "minScore",
      "outputs": [
        {
          "internalType": "int32",
          "name": "",
          "type": "int32"
        }
      ],
      "stateMutability": "view",
      "type": "function"
    },
    {
      "inputs": [],
      "name": "name",
      "outputs": [
        {
          "internalType": "bytes32",
          "name": "",
          "type": "bytes32"
        }
      ],
      "stateMutability": "view",
      "type": "function"
    },
    {
      "inputs": [],
      "name": "openForApplication",
      "outputs": [
        {
          "internalType": "bool",
          "name": "",
          "type": "bool"
        }
      ],
      "stateMutability": "view",
      "type": "function"
    },
    {
      "inputs": [],
      "name": "owner",
      "outputs": [
        {
          "internalType": "address",
          "name": "",
          "type": "address"
        }
      ],
      "stateMutability": "view",
      "type": "function"
    },
    {
      "inputs": [],
      "name": "poolCut",
      "outputs": [
        {
          "internalType": "uint24",
          "name": "",
          "type": "uint24"
        }
      ],
      "stateMutability": "view",
      "type": "function"
    },
    {
      "inputs": [],
      "name": "principalCut",
      "outputs": [
        {
          "internalType": "uint24",
          "name": "",
          "type": "uint24"
        }
      ],
      "stateMutability": "view",
      "type": "function"
    },
    {
      "inputs": [],
      "name": "renounceOwnership",
      "outputs": [],
      "stateMutability": "nonpayable",
      "type": "function"
    },
    {
      "inputs": [
        {
          "internalType": "address",
          "name": "newOwner",
          "type": "address"
        }
      ],
      "name": "transferOwnership",
      "outputs": [],
      "stateMutability": "nonpayable",
      "type": "function"
    },
    {
      "inputs": [],
      "name": "university",
      "outputs": [
        {
          "internalType": "contract University",
          "name": "",
          "type": "address"
        }
      ],
      "stateMutability": "view",
      "type": "function"
    },
    {
      "inputs": [
        {
          "internalType": "bytes32",
          "name": "val",
          "type": "bytes32"
        }
      ],
      "name": "changeName",
      "outputs": [],
      "stateMutability": "nonpayable",
      "type": "function"
    },
    {
      "inputs": [
        {
          "internalType": "uint24",
          "name": "val",
          "type": "uint24"
        }
      ],
      "name": "changePrincipalCut",
      "outputs": [],
      "stateMutability": "nonpayable",
      "type": "function"
    },
    {
      "inputs": [
        {
          "internalType": "uint24",
          "name": "val",
          "type": "uint24"
        }
      ],
      "name": "changePoolCut",
      "outputs": [],
      "stateMutability": "nonpayable",
      "type": "function"
    },
    {
      "inputs": [
        {
          "internalType": "int32",
          "name": "val",
          "type": "int32"
        }
      ],
      "name": "changeMinScore",
      "outputs": [],
      "stateMutability": "nonpayable",
      "type": "function"
    },
    {
      "inputs": [
        {
          "internalType": "uint256",
          "name": "val",
          "type": "uint256"
        }
      ],
      "name": "changeEntryPrice",
      "outputs": [],
      "stateMutability": "nonpayable",
      "type": "function"
    },
    {
      "inputs": [
        {
          "internalType": "uint256",
          "name": "val",
          "type": "uint256"
        }
      ],
      "name": "changeDuration",
      "outputs": [],
      "stateMutability": "nonpayable",
      "type": "function"
    },
    {
      "inputs": [],
      "name": "viewAllApplications",
      "outputs": [
        {
          "internalType": "address[]",
          "name": "",
          "type": "address[]"
        }
      ],
      "stateMutability": "view",
      "type": "function"
    },
    {
      "inputs": [],
      "name": "viewAllStudents",
      "outputs": [
        {
          "internalType": "address[]",
          "name": "",
          "type": "address[]"
        }
      ],
      "stateMutability": "view",
      "type": "function"
    },
    {
      "inputs": [],
      "name": "viewSeed",
      "outputs": [
        {
          "internalType": "bytes32",
          "name": "",
          "type": "bytes32"
        }
      ],
      "stateMutability": "view",
      "type": "function"
    },
    {
      "inputs": [
        {
          "internalType": "address",
          "name": "addr",
          "type": "address"
        }
      ],
      "name": "changeChallenge",
      "outputs": [],
      "stateMutability": "nonpayable",
      "type": "function"
    },
    {
      "inputs": [],
      "name": "isClassroomEmpty",
      "outputs": [
        {
          "internalType": "bool",
          "name": "",
          "type": "bool"
        }
      ],
      "stateMutability": "view",
      "type": "function"
    },
    {
      "inputs": [],
      "name": "isCourseOngoing",
      "outputs": [
        {
          "internalType": "bool",
          "name": "",
          "type": "bool"
        }
      ],
      "stateMutability": "view",
      "type": "function"
    },
    {
      "inputs": [],
      "name": "openApplications",
      "outputs": [],
      "stateMutability": "nonpayable",
      "type": "function"
    },
    {
      "inputs": [],
      "name": "closeApplications",
      "outputs": [],
      "stateMutability": "nonpayable",
      "type": "function"
    },
    {
      "inputs": [],
      "name": "applyDAI",
      "outputs": [],
      "stateMutability": "nonpayable",
      "type": "function"
    },
    {
      "inputs": [],
      "name": "studentApply",
      "outputs": [],
      "stateMutability": "nonpayable",
      "type": "function"
    },
    {
      "inputs": [],
      "name": "viewMyApplication",
      "outputs": [
        {
          "internalType": "address",
          "name": "",
          "type": "address"
        }
      ],
      "stateMutability": "view",
      "type": "function"
    },
    {
      "inputs": [
        {
          "internalType": "address",
          "name": "addr",
          "type": "address"
        }
      ],
      "name": "viewApplication",
      "outputs": [
        {
          "internalType": "address",
          "name": "",
          "type": "address"
        }
      ],
      "stateMutability": "view",
      "type": "function"
    },
    {
      "inputs": [],
      "name": "beginCourse",
      "outputs": [],
      "stateMutability": "nonpayable",
      "type": "function"
    },
    {
      "inputs": [],
      "name": "finishCourse",
      "outputs": [],
      "stateMutability": "nonpayable",
      "type": "function"
    },
    {
      "inputs": [],
      "name": "processResults",
      "outputs": [],
      "stateMutability": "nonpayable",
      "type": "function"
    },
    {
      "inputs": [],
      "name": "withdrawAllResults",
      "outputs": [],
      "stateMutability": "nonpayable",
      "type": "function"
    }
  ],
  "bytecode": "0x60806040523480156200001157600080fd5b5060405162007c3538038062007c3583398181016040526101408110156200003857600080fd5b81019080805190602001909291908051906020019092919080519060200190929190805190602001909291908051906020019092919080519060200190929190805190602001909291908051906020019092919080519060200190929190805190602001909291905050506000620000b56200032a60201b60201c565b9050806000806101000a81548173ffffffffffffffffffffffffffffffffffffffff021916908373ffffffffffffffffffffffffffffffffffffffff1602179055508073ffffffffffffffffffffffffffffffffffffffff16600073ffffffffffffffffffffffffffffffffffffffff167f8be0079c531659141344cd1fd0a4f28419497f9722a3daafe3b4186f6b6457e060405160405180910390a3508960098190555088600a60006101000a81548162ffffff021916908362ffffff16021790555087600a60036101000a81548162ffffff021916908362ffffff16021790555086600a60066101000a81548163ffffffff021916908360030b63ffffffff16021790555085600b8190555084600c8190555083600160006101000a81548173ffffffffffffffffffffffffffffffffffffffff021916908373ffffffffffffffffffffffffffffffffffffffff1602179055506000600160146101000a81548160ff0219169083151502179055506000601060146101000a81548160ff02191690831515021790555082600e60006101000a81548173ffffffffffffffffffffffffffffffffffffffff021916908373ffffffffffffffffffffffffffffffffffffffff16021790555081600f60006101000a81548173ffffffffffffffffffffffffffffffffffffffff021916908373ffffffffffffffffffffffffffffffffffffffff16021790555080601060006101000a81548173ffffffffffffffffffffffffffffffffffffffff021916908373ffffffffffffffffffffffffffffffffffffffff160217905550620003146200033260201b60201c565b600d81905550505050505050505050506200035a565b600033905090565b60007f52414e444f4d0000000000000000000000000000000000000000000000000000905090565b6178cb806200036a6000396000f3fe60806040523480156200001157600080fd5b5060043610620002685760003560e01c80638155e977116200014d578063ae12894e11620000c9578063e804f1641162000087578063e804f164146200086f578063f2fde38b14620008a5578063f745adfc14620008ec578063fc48258d146200090c578063fe7da9e9146200092c5762000268565b8063ae12894e1462000737578063b594f0861462000783578063bbe3b92614620007b4578063be22f54614620007c0578063dfd78adc146200080c5762000268565b8063a3f73c2d1162000117578063a3f73c2d1462000690578063a46268a814620006d7578063aa055a4014620006fb578063ada02e191462000707578063adf45ef214620007135762000268565b80638155e97714620005b35780638646bcec14620005e9578063898855ed14620006135780638da5cb5b14620006445762000268565b80634c5e789311620001e957806369e7af4311620001a757806369e7af4314620004655780636e8055a714620004c8578063715018a6146200051457806376eada9114620005205780637c0260cb14620005a75762000268565b80634c5e7893146200038b5780634ffb660c14620003975780635aa33a2d14620003cb578063604d394314620003ef57806369e527da14620004195762000268565b806313c2bedc116200023757806313c2bedc146200031d5780631b9dbc60146200034357806331960027146200034f5780633bcd97d4146200035b578063431a16ef146200037f5762000268565b806306fdde03146200026d57806309ea165d146200028d5780630b78cb0e14620002d95780630fb5a6b414620002fd575b600080fd5b620002776200095d565b6040518082815260200191505060405180910390f35b6200029762000963565b604051808273ffffffffffffffffffffffffffffffffffffffff1673ffffffffffffffffffffffffffffffffffffffff16815260200191505060405180910390f35b620002e362000989565b604051808215151515815260200191505060405180910390f35b620003076200099c565b6040518082815260200191505060405180910390f35b62000327620009a2565b604051808260030b60030b815260200191505060405180910390f35b6200034d620009b5565b005b6200035962000d85565b005b6200036562000f61565b604051808215151515815260200191505060405180910390f35b6200038962000f89565b005b6200039562001186565b005b620003c960048036036020811015620003af57600080fd5b81019080803560030b906020019092919050505062001455565b005b620003d562001594565b604051808215151515815260200191505060405180910390f35b620003f9620015a7565b604051808262ffffff1662ffffff16815260200191505060405180910390f35b62000423620015bc565b604051808273ffffffffffffffffffffffffffffffffffffffff1673ffffffffffffffffffffffffffffffffffffffff16815260200191505060405180910390f35b6200046f620015e2565b6040518080602001828103825283818151815260200191508051906020019060200280838360005b83811015620004b457808201518184015260208101905062000497565b505050509050019250505060405180910390f35b620004d26200173e565b604051808273ffffffffffffffffffffffffffffffffffffffff1673ffffffffffffffffffffffffffffffffffffffff16815260200191505060405180910390f35b6200051e62001759565b005b62000565600480360360208110156200053857600080fd5b81019080803573ffffffffffffffffffffffffffffffffffffffff169060200190929190505050620018e4565b604051808273ffffffffffffffffffffffffffffffffffffffff1673ffffffffffffffffffffffffffffffffffffffff16815260200191505060405180910390f35b620005b162001a25565b005b620005e760048036036020811015620005cb57600080fd5b81019080803562ffffff16906020019092919050505062001ba1565b005b620005f362001ce1565b604051808262ffffff1662ffffff16815260200191505060405180910390f35b62000642600480360360208110156200062b57600080fd5b810190808035906020019092919050505062001cf6565b005b6200064e62001e05565b604051808273ffffffffffffffffffffffffffffffffffffffff1673ffffffffffffffffffffffffffffffffffffffff16815260200191505060405180910390f35b620006d560048036036020811015620006a857600080fd5b81019080803573ffffffffffffffffffffffffffffffffffffffff16906020019092919050505062001e2e565b005b620006e162002024565b604051808215151515815260200191505060405180910390f35b6200070562002037565b005b6200071162002314565b005b6200071d62002693565b604051808215151515815260200191505060405180910390f35b62000741620026a2565b604051808273ffffffffffffffffffffffffffffffffffffffff1673ffffffffffffffffffffffffffffffffffffffff16815260200191505060405180910390f35b620007b2600480360360208110156200079b57600080fd5b8101908080359060200190929190505050620026c8565b005b620007be620027d7565b005b620007ca62002b64565b604051808273ffffffffffffffffffffffffffffffffffffffff1673ffffffffffffffffffffffffffffffffffffffff16815260200191505060405180910390f35b6200081662002b8a565b6040518080602001828103825283818151815260200191508051906020019060200280838360005b838110156200085b5780820151818401526020810190506200083e565b505050509050019250505060405180910390f35b620008a3600480360360208110156200088757600080fd5b81019080803562ffffff16906020019092919050505062002ce6565b005b620008ea60048036036020811015620008bd57600080fd5b81019080803573ffffffffffffffffffffffffffffffffffffffff16906020019092919050505062002e26565b005b620008f662003038565b6040518082815260200191505060405180910390f35b620009166200303e565b6040518082815260200191505060405180910390f35b6200095b600480360360208110156200094457600080fd5b810190808035906020019092919050505062003114565b005b60095481565b601060009054906101000a900473ffffffffffffffffffffffffffffffffffffffff1681565b600160149054906101000a900460ff1681565b600c5481565b600a60069054906101000a900460030b81565b620009bf62001e05565b73ffffffffffffffffffffffffffffffffffffffff16620009df62003223565b73ffffffffffffffffffffffffffffffffffffffff16141562000a4e576040517f08c379a000000000000000000000000000000000000000000000000000000000815260040180806020018281038252602d8152602001806200775c602d913960400191505060405180910390fd5b600160009054906101000a900473ffffffffffffffffffffffffffffffffffffffff1673ffffffffffffffffffffffffffffffffffffffff166316ded1ce62000a9662003223565b6040518263ffffffff1660e01b8152600401808273ffffffffffffffffffffffffffffffffffffffff1673ffffffffffffffffffffffffffffffffffffffff16815260200191505060206040518083038186803b15801562000af757600080fd5b505afa15801562000b0c573d6000803e3d6000fd5b505050506040513d602081101562000b2357600080fd5b810190808051906020019092919050505062000b8b576040517f08c379a0000000000000000000000000000000000000000000000000000000008152600401808060200182810382526024815260200180620078486024913960400191505060405180910390fd5b600160149054906101000a900460ff1662000c0e576040517f08c379a000000000000000000000000000000000000000000000000000000000815260040180806020018281038252601e8152602001807f436c617373726f6f6d3a206170706c69636174696f6e7320636c6f736564000081525060200191505060405180910390fd5b600062000c1a62003223565b9050600a60069054906101000a900460030b60030b8173ffffffffffffffffffffffffffffffffffffffff1663efedc6696040518163ffffffff1660e01b815260040160206040518083038186803b15801562000c7657600080fd5b505afa15801562000c8b573d6000803e3d6000fd5b505050506040513d602081101562000ca257600080fd5b810190808051906020019092919050505060030b121562000d0f576040517f08c379a000000000000000000000000000000000000000000000000000000000815260040180806020018281038252602c815260200180620076a4602c913960400191505060405180910390fd5b600062000d1c826200322b565b90506002819080600181540180825580915050600190039060005260206000200160009091909190916101000a81548173ffffffffffffffffffffffffffffffffffffffff021916908373ffffffffffffffffffffffffffffffffffffffff1602179055505050565b62000d8f62003223565b73ffffffffffffffffffffffffffffffffffffffff166000809054906101000a900473ffffffffffffffffffffffffffffffffffffffff1673ffffffffffffffffffffffffffffffffffffffff161462000e51576040517f08c379a00000000000000000000000000000000000000000000000000000000081526004018080602001828103825260208152602001807f4f776e61626c653a2063616c6c6572206973206e6f7420746865206f776e657281525060200191505060405180910390fd5b600160149054906101000a900460ff161562000eb9576040517f08c379a000000000000000000000000000000000000000000000000000000000815260040180806020018281038252602a8152602001806200786c602a913960400191505060405180910390fd5b60006002805490501462000f19576040517f08c379a00000000000000000000000000000000000000000000000000000000081526004018080602001828103825260228152602001806200773a6022913960400191505060405180910390fd5b60018060146101000a81548160ff0219169083151502179055507fa5d188159e8a15dc503f9fde55e9da14c8b2ca589603e2567481c0ef90b7972060405160405180910390a1565b60008062000f83600380549050600280549050620035b990919063ffffffff16565b14905090565b62000f9362003223565b73ffffffffffffffffffffffffffffffffffffffff166000809054906101000a900473ffffffffffffffffffffffffffffffffffffffff1673ffffffffffffffffffffffffffffffffffffffff161462001055576040517f08c379a00000000000000000000000000000000000000000000000000000000081526004018080602001828103825260208152602001807f4f776e61626c653a2063616c6c6572206973206e6f7420746865206f776e657281525060200191505060405180910390fd5b426007541115620010b2576040517f08c379a0000000000000000000000000000000000000000000000000000000008152600401808060200182810382526024815260200180620077aa6024913960400191505060405180910390fd5b6000600380549050116200112e576040517f08c379a000000000000000000000000000000000000000000000000000000000815260040180806020018281038252601a8152602001807f436c617373726f6f6d3a206e6f206170706c69636174696f6e7300000000000081525060200191505060405180910390fd5b6200113862003642565b60088190555060018060156101000a81548160ff0219169083151502179055507fadfcc9bbc47b33710f82544eeff8bd0f98c6f78f190e915bd81f4a9dacfdc77760405160405180910390a1565b6200119062003223565b73ffffffffffffffffffffffffffffffffffffffff166000809054906101000a900473ffffffffffffffffffffffffffffffffffffffff1673ffffffffffffffffffffffffffffffffffffffff161462001252576040517f08c379a00000000000000000000000000000000000000000000000000000000081526004018080602001828103825260208152602001807f4f776e61626c653a2063616c6c6572206973206e6f7420746865206f776e657281525060200191505060405180910390fd5b600e60009054906101000a900473ffffffffffffffffffffffffffffffffffffffff1673ffffffffffffffffffffffffffffffffffffffff166323b872dd306200129b62001e05565b600e60009054906101000a900473ffffffffffffffffffffffffffffffffffffffff1673ffffffffffffffffffffffffffffffffffffffff166370a08231306040518263ffffffff1660e01b8152600401808273ffffffffffffffffffffffffffffffffffffffff1673ffffffffffffffffffffffffffffffffffffffff16815260200191505060206040518083038186803b1580156200133b57600080fd5b505afa15801562001350573d6000803e3d6000fd5b505050506040513d60208110156200136757600080fd5b81019080805190602001909291905050506040518463ffffffff1660e01b8152600401808473ffffffffffffffffffffffffffffffffffffffff1673ffffffffffffffffffffffffffffffffffffffff1681526020018373ffffffffffffffffffffffffffffffffffffffff1673ffffffffffffffffffffffffffffffffffffffff1681526020018281526020019350505050602060405180830381600087803b1580156200141557600080fd5b505af11580156200142a573d6000803e3d6000fd5b505050506040513d60208110156200144157600080fd5b810190808051906020019092919050505050565b6200145f62003223565b73ffffffffffffffffffffffffffffffffffffffff166000809054906101000a900473ffffffffffffffffffffffffffffffffffffffff1673ffffffffffffffffffffffffffffffffffffffff161462001521576040517f08c379a00000000000000000000000000000000000000000000000000000000081526004018080602001828103825260208152602001807f4f776e61626c653a2063616c6c6572206973206e6f7420746865206f776e657281525060200191505060405180910390fd5b80600a60066101000a81548163ffffffff021916908360030b63ffffffff1602179055507f258981eaba02423980e2973ff2ae3bbbba3cc807a5b73faf8f0b068dd7b2af64600a60069054906101000a900460030b604051808260030b60030b815260200191505060405180910390a150565b600160159054906101000a900460ff1681565b600a60039054906101000a900462ffffff1681565b600f60009054906101000a900473ffffffffffffffffffffffffffffffffffffffff1681565b6060620015ee62003223565b73ffffffffffffffffffffffffffffffffffffffff166000809054906101000a900473ffffffffffffffffffffffffffffffffffffffff1673ffffffffffffffffffffffffffffffffffffffff1614620016b0576040517f08c379a00000000000000000000000000000000000000000000000000000000081526004018080602001828103825260208152602001807f4f776e61626c653a2063616c6c6572206973206e6f7420746865206f776e657281525060200191505060405180910390fd5b60058054806020026020016040519081016040528092919081815260200182805480156200173457602002820191906000526020600020905b8160009054906101000a900473ffffffffffffffffffffffffffffffffffffffff1673ffffffffffffffffffffffffffffffffffffffff1681526020019060010190808311620016e9575b5050505050905090565b6000620017546200174e62003223565b620018e4565b905090565b6200176362003223565b73ffffffffffffffffffffffffffffffffffffffff166000809054906101000a900473ffffffffffffffffffffffffffffffffffffffff1673ffffffffffffffffffffffffffffffffffffffff161462001825576040517f08c379a00000000000000000000000000000000000000000000000000000000081526004018080602001828103825260208152602001807f4f776e61626c653a2063616c6c6572206973206e6f7420746865206f776e657281525060200191505060405180910390fd5b600073ffffffffffffffffffffffffffffffffffffffff166000809054906101000a900473ffffffffffffffffffffffffffffffffffffffff1673ffffffffffffffffffffffffffffffffffffffff167f8be0079c531659141344cd1fd0a4f28419497f9722a3daafe3b4186f6b6457e060405160405180910390a360008060006101000a81548173ffffffffffffffffffffffffffffffffffffffff021916908373ffffffffffffffffffffffffffffffffffffffff160217905550565b6000620018f062003223565b73ffffffffffffffffffffffffffffffffffffffff168273ffffffffffffffffffffffffffffffffffffffff1614806200196757506200192f62001e05565b73ffffffffffffffffffffffffffffffffffffffff166200194f62003223565b73ffffffffffffffffffffffffffffffffffffffff16145b620019be576040517f08c379a0000000000000000000000000000000000000000000000000000000008152600401808060200182810382526021815260200180620077196021913960400191505060405180910390fd5b600460008373ffffffffffffffffffffffffffffffffffffffff1673ffffffffffffffffffffffffffffffffffffffff16815260200190815260200160002060009054906101000a900473ffffffffffffffffffffffffffffffffffffffff169050919050565b62001a2f62003223565b73ffffffffffffffffffffffffffffffffffffffff166000809054906101000a900473ffffffffffffffffffffffffffffffffffffffff1673ffffffffffffffffffffffffffffffffffffffff161462001af1576040517f08c379a00000000000000000000000000000000000000000000000000000000081526004018080602001828103825260208152602001807f4f776e61626c653a2063616c6c6572206973206e6f7420746865206f776e657281525060200191505060405180910390fd5b600160149054906101000a900460ff1662001b58576040517f08c379a000000000000000000000000000000000000000000000000000000000815260040180806020018281038252602a8152602001806200781e602a913960400191505060405180910390fd5b6000600160146101000a81548160ff0219169083151502179055507f747a4734f50e3ae237b3afeeac30a2d2c7cb965cc122fb9680050fd533b7c0f560405160405180910390a1565b62001bab62003223565b73ffffffffffffffffffffffffffffffffffffffff166000809054906101000a900473ffffffffffffffffffffffffffffffffffffffff1673ffffffffffffffffffffffffffffffffffffffff161462001c6d576040517f08c379a00000000000000000000000000000000000000000000000000000000081526004018080602001828103825260208152602001807f4f776e61626c653a2063616c6c6572206973206e6f7420746865206f776e657281525060200191505060405180910390fd5b80600a60006101000a81548162ffffff021916908362ffffff1602179055507fa24cdd22388a51f932026d20d3229c1d693385bb9ac176742e0e40b4586c2447600a60009054906101000a900462ffffff16604051808262ffffff1662ffffff16815260200191505060405180910390a150565b600a60009054906101000a900462ffffff1681565b62001d0062003223565b73ffffffffffffffffffffffffffffffffffffffff166000809054906101000a900473ffffffffffffffffffffffffffffffffffffffff1673ffffffffffffffffffffffffffffffffffffffff161462001dc2576040517f08c379a00000000000000000000000000000000000000000000000000000000081526004018080602001828103825260208152602001807f4f776e61626c653a2063616c6c6572206973206e6f7420746865206f776e657281525060200191505060405180910390fd5b806009819055507f9f8929be552430dd6434c446d106c34954b2040ca8c4dbf42a39323dd6cda3ca6009546040518082815260200191505060405180910390a150565b60008060009054906101000a900473ffffffffffffffffffffffffffffffffffffffff16905090565b62001e3862003223565b73ffffffffffffffffffffffffffffffffffffffff166000809054906101000a900473ffffffffffffffffffffffffffffffffffffffff1673ffffffffffffffffffffffffffffffffffffffff161462001efa576040517f08c379a00000000000000000000000000000000000000000000000000000000081526004018080602001828103825260208152602001807f4f776e61626c653a2063616c6c6572206973206e6f7420746865206f776e657281525060200191505060405180910390fd5b62001f0462000f61565b62001f5b576040517f08c379a0000000000000000000000000000000000000000000000000000000008152600401808060200182810382526025815260200180620076d06025913960400191505060405180910390fd5b80601060006101000a81548173ffffffffffffffffffffffffffffffffffffffff021916908373ffffffffffffffffffffffffffffffffffffffff1602179055507fdc58b28697ffd1bd5879b16631587874caec982b482d7ed05df69a5302f6e018601060009054906101000a900473ffffffffffffffffffffffffffffffffffffffff16604051808273ffffffffffffffffffffffffffffffffffffffff1673ffffffffffffffffffffffffffffffffffffffff16815260200191505060405180910390a150565b601060149054906101000a900460ff1681565b6200204162003223565b73ffffffffffffffffffffffffffffffffffffffff166000809054906101000a900473ffffffffffffffffffffffffffffffffffffffff1673ffffffffffffffffffffffffffffffffffffffff161462002103576040517f08c379a00000000000000000000000000000000000000000000000000000000081526004018080602001828103825260208152602001807f4f776e61626c653a2063616c6c6572206973206e6f7420746865206f776e657281525060200191505060405180910390fd5b600160159054906101000a900460ff1662002186576040517f08c379a000000000000000000000000000000000000000000000000000000000815260040180806020018281038252601e8152602001807f436c617373726f6f6d3a20636f75727365206e6f742066696e6973686564000081525060200191505060405180910390fd5b600e60009054906101000a900473ffffffffffffffffffffffffffffffffffffffff1673ffffffffffffffffffffffffffffffffffffffff166370a08231306040518263ffffffff1660e01b8152600401808273ffffffffffffffffffffffffffffffffffffffff1673ffffffffffffffffffffffffffffffffffffffff16815260200191505060206040518083038186803b1580156200222657600080fd5b505afa1580156200223b573d6000803e3d6000fd5b505050506040513d60208110156200225257600080fd5b81019080805190602001909291905050506008541115620022bf576040517f08c379a0000000000000000000000000000000000000000000000000000000008152600401808060200182810382526024815260200180620076f56024913960400191505060405180910390fd5b600080620022cc620037e1565b9150915060006060620022e0848462003a52565b91509150620022ef81620042de565b620022fa8262004457565b6200230462004564565b6200230e62004c60565b50505050565b6200231e62003223565b73ffffffffffffffffffffffffffffffffffffffff166000809054906101000a900473ffffffffffffffffffffffffffffffffffffffff1673ffffffffffffffffffffffffffffffffffffffff1614620023e0576040517f08c379a00000000000000000000000000000000000000000000000000000000081526004018080602001828103825260208152602001807f4f776e61626c653a2063616c6c6572206973206e6f7420746865206f776e657281525060200191505060405180910390fd5b6000600e60009054906101000a900473ffffffffffffffffffffffffffffffffffffffff1673ffffffffffffffffffffffffffffffffffffffff166370a08231306040518263ffffffff1660e01b8152600401808273ffffffffffffffffffffffffffffffffffffffff1673ffffffffffffffffffffffffffffffffffffffff16815260200191505060206040518083038186803b1580156200248257600080fd5b505afa15801562002497573d6000803e3d6000fd5b505050506040513d6020811015620024ae57600080fd5b8101908080519060200190929190505050905060008111620024d1575062002691565b600e60009054906101000a900473ffffffffffffffffffffffffffffffffffffffff1673ffffffffffffffffffffffffffffffffffffffff1663095ea7b3600f60009054906101000a900473ffffffffffffffffffffffffffffffffffffffff16836040518363ffffffff1660e01b8152600401808373ffffffffffffffffffffffffffffffffffffffff1673ffffffffffffffffffffffffffffffffffffffff16815260200182815260200192505050602060405180830381600087803b1580156200259d57600080fd5b505af1158015620025b2573d6000803e3d6000fd5b505050506040513d6020811015620025c957600080fd5b810190808051906020019092919050505050600f60009054906101000a900473ffffffffffffffffffffffffffffffffffffffff1673ffffffffffffffffffffffffffffffffffffffff1663a0712d68826040518263ffffffff1660e01b815260040180828152602001915050602060405180830381600087803b1580156200265157600080fd5b505af115801562002666573d6000803e3d6000fd5b505050506040513d60208110156200267d57600080fd5b810190808051906020019092919050505050505b565b60008060038054905011905090565b600160009054906101000a900473ffffffffffffffffffffffffffffffffffffffff1681565b620026d262003223565b73ffffffffffffffffffffffffffffffffffffffff166000809054906101000a900473ffffffffffffffffffffffffffffffffffffffff1673ffffffffffffffffffffffffffffffffffffffff161462002794576040517f08c379a00000000000000000000000000000000000000000000000000000000081526004018080602001828103825260208152602001807f4f776e61626c653a2063616c6c6572206973206e6f7420746865206f776e657281525060200191505060405180910390fd5b80600c819055507fa67f34afb53d068e81607cde52dc74c58cbf6a05eac699e5543b97d25e3ca5cb600c546040518082815260200191505060405180910390a150565b620027e162003223565b73ffffffffffffffffffffffffffffffffffffffff166000809054906101000a900473ffffffffffffffffffffffffffffffffffffffff1673ffffffffffffffffffffffffffffffffffffffff1614620028a3576040517f08c379a00000000000000000000000000000000000000000000000000000000081526004018080602001828103825260208152602001807f4f776e61626c653a2063616c6c6572206973206e6f7420746865206f776e657281525060200191505060405180910390fd5b600160149054906101000a900460ff16156200290b576040517f08c379a0000000000000000000000000000000000000000000000000000000008152600401808060200182810382526026815260200180620077ce6026913960400191505060405180910390fd5b6000600e60009054906101000a900473ffffffffffffffffffffffffffffffffffffffff1673ffffffffffffffffffffffffffffffffffffffff166370a08231306040518263ffffffff1660e01b8152600401808273ffffffffffffffffffffffffffffffffffffffff1673ffffffffffffffffffffffffffffffffffffffff16815260200191505060206040518083038186803b158015620029ad57600080fd5b505afa158015620029c2573d6000803e3d6000fd5b505050506040513d6020811015620029d957600080fd5b81019080805190602001909291905050501462002a42576040517f08c379a000000000000000000000000000000000000000000000000000000000815260040180806020018281038252602a815260200180620077f4602a913960400191505060405180910390fd5b62002a4c62004cf1565b600067ffffffffffffffff8111801562002a6557600080fd5b5060405190808252806020026020018201604052801562002a955781602001602082028036833780820191505090505b506002908051906020019062002aad92919062005263565b5060006003805490501162002b2a576040517f08c379a000000000000000000000000000000000000000000000000000000000815260040180806020018281038252601f8152602001807f436c617373726f6f6d3a206e6f207265616479206170706c69636174696f6e0081525060200191505060405180910390fd5b6001601060146101000a81548160ff02191690831515021790555062002b5c600c5442620035b990919063ffffffff16565b600781905550565b600e60009054906101000a900473ffffffffffffffffffffffffffffffffffffffff1681565b606062002b9662003223565b73ffffffffffffffffffffffffffffffffffffffff166000809054906101000a900473ffffffffffffffffffffffffffffffffffffffff1673ffffffffffffffffffffffffffffffffffffffff161462002c58576040517f08c379a00000000000000000000000000000000000000000000000000000000081526004018080602001828103825260208152602001807f4f776e61626c653a2063616c6c6572206973206e6f7420746865206f776e657281525060200191505060405180910390fd5b600680548060200260200160405190810160405280929190818152602001828054801562002cdc57602002820191906000526020600020905b8160009054906101000a900473ffffffffffffffffffffffffffffffffffffffff1673ffffffffffffffffffffffffffffffffffffffff168152602001906001019080831162002c91575b5050505050905090565b62002cf062003223565b73ffffffffffffffffffffffffffffffffffffffff166000809054906101000a900473ffffffffffffffffffffffffffffffffffffffff1673ffffffffffffffffffffffffffffffffffffffff161462002db2576040517f08c379a00000000000000000000000000000000000000000000000000000000081526004018080602001828103825260208152602001807f4f776e61626c653a2063616c6c6572206973206e6f7420746865206f776e657281525060200191505060405180910390fd5b80600a60036101000a81548162ffffff021916908362ffffff1602179055507f9d9f9ef51b12eb719684b7a2e09fc2f7e916cb0e229aecf5658ce6326dfeb1c5600a60039054906101000a900462ffffff16604051808262ffffff1662ffffff16815260200191505060405180910390a150565b62002e3062003223565b73ffffffffffffffffffffffffffffffffffffffff166000809054906101000a900473ffffffffffffffffffffffffffffffffffffffff1673ffffffffffffffffffffffffffffffffffffffff161462002ef2576040517f08c379a00000000000000000000000000000000000000000000000000000000081526004018080602001828103825260208152602001807f4f776e61626c653a2063616c6c6572206973206e6f7420746865206f776e657281525060200191505060405180910390fd5b600073ffffffffffffffffffffffffffffffffffffffff168173ffffffffffffffffffffffffffffffffffffffff16141562002f7a576040517f08c379a00000000000000000000000000000000000000000000000000000000081526004018080602001828103825260268152602001806200767e6026913960400191505060405180910390fd5b8073ffffffffffffffffffffffffffffffffffffffff166000809054906101000a900473ffffffffffffffffffffffffffffffffffffffff1673ffffffffffffffffffffffffffffffffffffffff167f8be0079c531659141344cd1fd0a4f28419497f9722a3daafe3b4186f6b6457e060405160405180910390a3806000806101000a81548173ffffffffffffffffffffffffffffffffffffffff021916908373ffffffffffffffffffffffffffffffffffffffff16021790555050565b600b5481565b60006200304a62003223565b73ffffffffffffffffffffffffffffffffffffffff166000809054906101000a900473ffffffffffffffffffffffffffffffffffffffff1673ffffffffffffffffffffffffffffffffffffffff16146200310c576040517f08c379a00000000000000000000000000000000000000000000000000000000081526004018080602001828103825260208152602001807f4f776e61626c653a2063616c6c6572206973206e6f7420746865206f776e657281525060200191505060405180910390fd5b600d54905090565b6200311e62003223565b73ffffffffffffffffffffffffffffffffffffffff166000809054906101000a900473ffffffffffffffffffffffffffffffffffffffff1673ffffffffffffffffffffffffffffffffffffffff1614620031e0576040517f08c379a00000000000000000000000000000000000000000000000000000000081526004018080602001828103825260208152602001807f4f776e61626c653a2063616c6c6572206973206e6f7420746865206f776e657281525060200191505060405180910390fd5b80600b819055507f84e881bf3fcef92f709a2a62150da178a998fbff128c017f3e846787a2f7f5f5600b546040518082815260200191505060405180910390a150565b600033905090565b6000808230600e60009054906101000a900473ffffffffffffffffffffffffffffffffffffffff16601060009054906101000a900473ffffffffffffffffffffffffffffffffffffffff16600d546040516200328790620052f2565b808673ffffffffffffffffffffffffffffffffffffffff1673ffffffffffffffffffffffffffffffffffffffff1681526020018573ffffffffffffffffffffffffffffffffffffffff1673ffffffffffffffffffffffffffffffffffffffff1681526020018473ffffffffffffffffffffffffffffffffffffffff1673ffffffffffffffffffffffffffffffffffffffff1681526020018373ffffffffffffffffffffffffffffffffffffffff1673ffffffffffffffffffffffffffffffffffffffff16815260200182815260200195505050505050604051809103906000f0801580156200337a573d6000803e3d6000fd5b50905080600460008573ffffffffffffffffffffffffffffffffffffffff1673ffffffffffffffffffffffffffffffffffffffff16815260200190815260200160002060006101000a81548173ffffffffffffffffffffffffffffffffffffffff021916908373ffffffffffffffffffffffffffffffffffffffff160217905550600160009054906101000a900473ffffffffffffffffffffffffffffffffffffffff1673ffffffffffffffffffffffffffffffffffffffff1663183b260084836040518363ffffffff1660e01b8152600401808373ffffffffffffffffffffffffffffffffffffffff1673ffffffffffffffffffffffffffffffffffffffff1681526020018273ffffffffffffffffffffffffffffffffffffffff1673ffffffffffffffffffffffffffffffffffffffff16815260200192505050600060405180830381600087803b158015620034d157600080fd5b505af1158015620034e6573d6000803e3d6000fd5b505050506005839080600181540180825580915050600190039060005260206000200160009091909190916101000a81548173ffffffffffffffffffffffffffffffffffffffff021916908373ffffffffffffffffffffffffffffffffffffffff1602179055506006819080600181540180825580915050600190039060005260206000200160009091909190916101000a81548173ffffffffffffffffffffffffffffffffffffffff021916908373ffffffffffffffffffffffffffffffffffffffff16021790555080915050919050565b60008082840190508381101562003638576040517f08c379a000000000000000000000000000000000000000000000000000000000815260040180806020018281038252601b8152602001807f536166654d6174683a206164646974696f6e206f766572666c6f77000000000081525060200191505060405180910390fd5b8091505092915050565b600080600f60009054906101000a900473ffffffffffffffffffffffffffffffffffffffff1673ffffffffffffffffffffffffffffffffffffffff16633af9e669306040518263ffffffff1660e01b8152600401808273ffffffffffffffffffffffffffffffffffffffff1673ffffffffffffffffffffffffffffffffffffffff168152602001915050602060405180830381600087803b158015620036e757600080fd5b505af1158015620036fc573d6000803e3d6000fd5b505050506040513d60208110156200371357600080fd5b81019080805190602001909291905050509050600f60009054906101000a900473ffffffffffffffffffffffffffffffffffffffff1673ffffffffffffffffffffffffffffffffffffffff1663852a12e3826040518263ffffffff1660e01b815260040180828152602001915050602060405180830381600087803b1580156200379c57600080fd5b505af1158015620037b1573d6000803e3d6000fd5b505050506040513d6020811015620037c857600080fd5b8101908080519060200190929190505050508091505090565b6000806000809050600080905060008090505b60038054905081101562003a4557600381815481106200381057fe5b9060005260206000200160009054906101000a900473ffffffffffffffffffffffffffffffffffffffff1673ffffffffffffffffffffffffffffffffffffffff1663289cf0d26040518163ffffffff1660e01b8152600401600060405180830381600087803b1580156200388357600080fd5b505af115801562003898573d6000803e3d6000fd5b505050506003808281548110620038ab57fe5b9060005260206000200160009054906101000a900473ffffffffffffffffffffffffffffffffffffffff1673ffffffffffffffffffffffffffffffffffffffff16636587b61e6040518163ffffffff1660e01b815260040160206040518083038186803b1580156200391c57600080fd5b505afa15801562003931573d6000803e3d6000fd5b505050506040513d60208110156200394857600080fd5b81019080805190602001909291905050501415620039695782806001019350505b6005600382815481106200397957fe5b9060005260206000200160009054906101000a900473ffffffffffffffffffffffffffffffffffffffff1673ffffffffffffffffffffffffffffffffffffffff16636587b61e6040518163ffffffff1660e01b815260040160206040518083038186803b158015620039ea57600080fd5b505afa158015620039ff573d6000803e3d6000fd5b505050506040513d602081101562003a1657600080fd5b8101908080519060200190929190505050141562003a375781806001019250505b8080600101915050620037f4565b5081819350935050509091565b6000606060006003805490509050600062003a8f62003a7d83600b5462004fb190919063ffffffff16565b6008546200503c90919063ffffffff16565b9050600062003ad7620f424062003ac8600a60009054906101000a900462ffffff1662ffffff16600b5462004fb190919063ffffffff16565b6200508890919063ffffffff16565b9050600062003af282600b546200503c90919063ffffffff16565b9050600062003b1f8562003b108b8762004fb190919063ffffffff16565b6200508890919063ffffffff16565b9050600062003b65620f424062003b56600a60039054906101000a900462ffffff1662ffffff168562004fb190919063ffffffff16565b6200508890919063ffffffff16565b9050600062003b928b62003b8384896200503c90919063ffffffff16565b6200508890919063ffffffff16565b905060608767ffffffffffffffff8111801562003bae57600080fd5b5060405190808252806020026020018201604052801562003bde5781602001602082028036833780820191505090505b50905060008090505b88811015620040a057600380828154811062003bff57fe5b9060005260206000200160009054906101000a900473ffffffffffffffffffffffffffffffffffffffff1673ffffffffffffffffffffffffffffffffffffffff16636587b61e6040518163ffffffff1660e01b815260040160206040518083038186803b15801562003c7057600080fd5b505afa15801562003c85573d6000803e3d6000fd5b505050506040513d602081101562003c9c57600080fd5b8101908080519060200190929190505050141562003d90576003818154811062003cc257fe5b9060005260206000200160009054906101000a900473ffffffffffffffffffffffffffffffffffffffff1673ffffffffffffffffffffffffffffffffffffffff16637db9abaf87856040518363ffffffff1660e01b81526004018083815260200182815260200192505050600060405180830381600087803b15801562003d4857600080fd5b505af115801562003d5d573d6000803e3d6000fd5b5050505062003d768387620035b990919063ffffffff16565b82828151811062003d8357fe5b6020026020010181815250505b60046003828154811062003da057fe5b9060005260206000200160009054906101000a900473ffffffffffffffffffffffffffffffffffffffff1673ffffffffffffffffffffffffffffffffffffffff16636587b61e6040518163ffffffff1660e01b815260040160206040518083038186803b15801562003e1157600080fd5b505afa15801562003e26573d6000803e3d6000fd5b505050506040513d602081101562003e3d57600080fd5b8101908080519060200190929190505050141562003f1e576003818154811062003e6357fe5b9060005260206000200160009054906101000a900473ffffffffffffffffffffffffffffffffffffffff1673ffffffffffffffffffffffffffffffffffffffff16637db9abaf8760006040518363ffffffff1660e01b81526004018083815260200182815260200192505050600060405180830381600087803b15801562003eea57600080fd5b505af115801562003eff573d6000803e3d6000fd5b505050508582828151811062003f1157fe5b6020026020010181815250505b60056003828154811062003f2e57fe5b9060005260206000200160009054906101000a900473ffffffffffffffffffffffffffffffffffffffff1673ffffffffffffffffffffffffffffffffffffffff16636587b61e6040518163ffffffff1660e01b815260040160206040518083038186803b15801562003f9f57600080fd5b505afa15801562003fb4573d6000803e3d6000fd5b505050506040513d602081101562003fcb57600080fd5b8101908080519060200190929190505050141562004092576003818154811062003ff157fe5b9060005260206000200160009054906101000a900473ffffffffffffffffffffffffffffffffffffffff1673ffffffffffffffffffffffffffffffffffffffff16637db9abaf6000806040518363ffffffff1660e01b81526004018083815260200182815260200192505050600060405180830381600087803b1580156200407857600080fd5b505af11580156200408d573d6000803e3d6000fd5b505050505b808060010191505062003be7565b506000620040ba600b548d62004fb190919063ffffffff16565b9050600062004194620f424062004185600160009054906101000a900473ffffffffffffffffffffffffffffffffffffffff1673ffffffffffffffffffffffffffffffffffffffff1663e6fd604c6040518163ffffffff1660e01b815260040160206040518083038186803b1580156200413357600080fd5b505afa15801562004148573d6000803e3d6000fd5b505050506040513d60208110156200415f57600080fd5b810190808051906020019092919050505062ffffff168862004fb190919063ffffffff16565b6200508890919063ffffffff16565b90506000620041ad8e8c6200503c90919063ffffffff16565b905060006200429b620f42406200428c600160009054906101000a900473ffffffffffffffffffffffffffffffffffffffff1673ffffffffffffffffffffffffffffffffffffffff1663e6fd604c6040518163ffffffff1660e01b815260040160206040518083038186803b1580156200422657600080fd5b505afa1580156200423b573d6000803e3d6000fd5b505050506040513d60208110156200425257600080fd5b810190808051906020019092919050505062ffffff166200427d868f62004fb190919063ffffffff16565b62004fb190919063ffffffff16565b6200508890919063ffffffff16565b9050620042c681620042b78587620035b990919063ffffffff16565b620035b990919063ffffffff16565b859d509d505050505050505050505050509250929050565b60008090505b600380549050811015620044535760008282815181106200430157fe5b602002602001015111156200444557600e60009054906101000a900473ffffffffffffffffffffffffffffffffffffffff1673ffffffffffffffffffffffffffffffffffffffff1663095ea7b3600383815481106200435c57fe5b9060005260206000200160009054906101000a900473ffffffffffffffffffffffffffffffffffffffff168484815181106200439457fe5b60200260200101516040518363ffffffff1660e01b8152600401808373ffffffffffffffffffffffffffffffffffffffff1673ffffffffffffffffffffffffffffffffffffffff16815260200182815260200192505050602060405180830381600087803b1580156200440657600080fd5b505af11580156200441b573d6000803e3d6000fd5b505050506040513d60208110156200443257600080fd5b8101908080519060200190929190505050505b8080600101915050620042e4565b5050565b600e60009054906101000a900473ffffffffffffffffffffffffffffffffffffffff1673ffffffffffffffffffffffffffffffffffffffff1663a9059cbb600160009054906101000a900473ffffffffffffffffffffffffffffffffffffffff16836040518363ffffffff1660e01b8152600401808373ffffffffffffffffffffffffffffffffffffffff1673ffffffffffffffffffffffffffffffffffffffff16815260200182815260200192505050602060405180830381600087803b1580156200452357600080fd5b505af115801562004538573d6000803e3d6000fd5b505050506040513d60208110156200454f57600080fd5b81019080805190602001909291905050505050565b60008090505b60038054905081101562004c5d5760038082815481106200458757fe5b9060005260206000200160009054906101000a900473ffffffffffffffffffffffffffffffffffffffff1673ffffffffffffffffffffffffffffffffffffffff16636587b61e6040518163ffffffff1660e01b815260040160206040518083038186803b158015620045f857600080fd5b505afa1580156200460d573d6000803e3d6000fd5b505050506040513d60208110156200462457600080fd5b81019080805190602001909291905050501415620047bf57600160009054906101000a900473ffffffffffffffffffffffffffffffffffffffff1673ffffffffffffffffffffffffffffffffffffffff166387bfe188600383815481106200468857fe5b9060005260206000200160009054906101000a900473ffffffffffffffffffffffffffffffffffffffff1673ffffffffffffffffffffffffffffffffffffffff1663b8f31a816040518163ffffffff1660e01b815260040160206040518083038186803b158015620046f957600080fd5b505afa1580156200470e573d6000803e3d6000fd5b505050506040513d60208110156200472557600080fd5b810190808051906020019092919050505060016040518363ffffffff1660e01b8152600401808373ffffffffffffffffffffffffffffffffffffffff1673ffffffffffffffffffffffffffffffffffffffff1681526020018260030b815260200192505050600060405180830381600087803b158015620047a557600080fd5b505af1158015620047ba573d6000803e3d6000fd5b505050505b600460038281548110620047cf57fe5b9060005260206000200160009054906101000a900473ffffffffffffffffffffffffffffffffffffffff1673ffffffffffffffffffffffffffffffffffffffff16636587b61e6040518163ffffffff1660e01b815260040160206040518083038186803b1580156200484057600080fd5b505afa15801562004855573d6000803e3d6000fd5b505050506040513d60208110156200486c57600080fd5b8101908080519060200190929190505050141562004a0757600160009054906101000a900473ffffffffffffffffffffffffffffffffffffffff1673ffffffffffffffffffffffffffffffffffffffff1663ff5d8f6360038381548110620048d057fe5b9060005260206000200160009054906101000a900473ffffffffffffffffffffffffffffffffffffffff1673ffffffffffffffffffffffffffffffffffffffff1663b8f31a816040518163ffffffff1660e01b815260040160206040518083038186803b1580156200494157600080fd5b505afa15801562004956573d6000803e3d6000fd5b505050506040513d60208110156200496d57600080fd5b810190808051906020019092919050505060016040518363ffffffff1660e01b8152600401808373ffffffffffffffffffffffffffffffffffffffff1673ffffffffffffffffffffffffffffffffffffffff1681526020018260030b815260200192505050600060405180830381600087803b158015620049ed57600080fd5b505af115801562004a02573d6000803e3d6000fd5b505050505b60056003828154811062004a1757fe5b9060005260206000200160009054906101000a900473ffffffffffffffffffffffffffffffffffffffff1673ffffffffffffffffffffffffffffffffffffffff16636587b61e6040518163ffffffff1660e01b815260040160206040518083038186803b15801562004a8857600080fd5b505afa15801562004a9d573d6000803e3d6000fd5b505050506040513d602081101562004ab457600080fd5b8101908080519060200190929190505050141562004c4f57600160009054906101000a900473ffffffffffffffffffffffffffffffffffffffff1673ffffffffffffffffffffffffffffffffffffffff1663ff5d8f636003838154811062004b1857fe5b9060005260206000200160009054906101000a900473ffffffffffffffffffffffffffffffffffffffff1673ffffffffffffffffffffffffffffffffffffffff1663b8f31a816040518163ffffffff1660e01b815260040160206040518083038186803b15801562004b8957600080fd5b505afa15801562004b9e573d6000803e3d6000fd5b505050506040513d602081101562004bb557600080fd5b810190808051906020019092919050505060026040518363ffffffff1660e01b8152600401808373ffffffffffffffffffffffffffffffffffffffff1673ffffffffffffffffffffffffffffffffffffffff1681526020018260030b815260200192505050600060405180830381600087803b15801562004c3557600080fd5b505af115801562004c4a573d6000803e3d6000fd5b505050505b80806001019150506200456a565b50565b600067ffffffffffffffff8111801562004c7957600080fd5b5060405190808252806020026020018201604052801562004ca95781602001602082028036833780820191505090505b506003908051906020019062004cc192919062005263565b5062004ccc62001186565b60006008819055506000600160156101000a81548160ff021916908315150217905550565b60008090505b60028054905081101562004fae5760016002828154811062004d1557fe5b9060005260206000200160009054906101000a900473ffffffffffffffffffffffffffffffffffffffff1673ffffffffffffffffffffffffffffffffffffffff16636587b61e6040518163ffffffff1660e01b815260040160206040518083038186803b15801562004d8657600080fd5b505afa15801562004d9b573d6000803e3d6000fd5b505050506040513d602081101562004db257600080fd5b8101908080519060200190929190505050141562004f05576002818154811062004dd857fe5b9060005260206000200160009054906101000a900473ffffffffffffffffffffffffffffffffffffffff1673ffffffffffffffffffffffffffffffffffffffff16630f15f4c06040518163ffffffff1660e01b8152600401600060405180830381600087803b15801562004e4b57600080fd5b505af115801562004e60573d6000803e3d6000fd5b5050505060036002828154811062004e7457fe5b9060005260206000200160009054906101000a900473ffffffffffffffffffffffffffffffffffffffff169080600181540180825580915050600190039060005260206000200160009091909190916101000a81548173ffffffffffffffffffffffffffffffffffffffff021916908373ffffffffffffffffffffffffffffffffffffffff16021790555062004fa0565b6002818154811062004f1357fe5b9060005260206000200160009054906101000a900473ffffffffffffffffffffffffffffffffffffffff1673ffffffffffffffffffffffffffffffffffffffff166379599f966040518163ffffffff1660e01b8152600401600060405180830381600087803b15801562004f8657600080fd5b505af115801562004f9b573d6000803e3d6000fd5b505050505b808060010191505062004cf7565b50565b60008083141562004fc6576000905062005036565b600082840290508284828162004fd857fe5b041462005031576040517f08c379a0000000000000000000000000000000000000000000000000000000008152600401808060200182810382526021815260200180620077896021913960400191505060405180910390fd5b809150505b92915050565b60006200508083836040518060400160405280601e81526020017f536166654d6174683a207375627472616374696f6e206f766572666c6f770000815250620050d4565b905092915050565b6000620050cc83836040518060400160405280601a81526020017f536166654d6174683a206469766973696f6e206279207a65726f00000000000081525062005198565b905092915050565b600083831115829062005185576040517f08c379a00000000000000000000000000000000000000000000000000000000081526004018080602001828103825283818151815260200191508051906020019080838360005b83811015620051495780820151818401526020810190506200512c565b50505050905090810190601f168015620051775780820380516001836020036101000a031916815260200191505b509250505060405180910390fd5b5060008385039050809150509392505050565b6000808311829062005248576040517f08c379a00000000000000000000000000000000000000000000000000000000081526004018080602001828103825283818151815260200191508051906020019080838360005b838110156200520c578082015181840152602081019050620051ef565b50505050905090810190601f1680156200523a5780820380516001836020036101000a031916815260200191505b509250505060405180910390fd5b5060008385816200525557fe5b049050809150509392505050565b828054828255906000526020600020908101928215620052df579160200282015b82811115620052de5782518260006101000a81548173ffffffffffffffffffffffffffffffffffffffff021916908373ffffffffffffffffffffffffffffffffffffffff1602179055509160200191906001019062005284565b5b509050620052ee919062005300565b5090565b612337806200534783390190565b6200534391905b808211156200533f57600081816101000a81549073ffffffffffffffffffffffffffffffffffffffff02191690555060010162005307565b5090565b9056fe60806040523480156200001157600080fd5b506040516200233738038062002337833981810160405260a08110156200003757600080fd5b8101908080519060200190929190805190602001909291908051906020019092919080519060200190929190805190602001909291905050506000620000826200028660201b60201c565b9050806000806101000a81548173ffffffffffffffffffffffffffffffffffffffff021916908373ffffffffffffffffffffffffffffffffffffffff1602179055508073ffffffffffffffffffffffffffffffffffffffff16600073ffffffffffffffffffffffffffffffffffffffff167f8be0079c531659141344cd1fd0a4f28419497f9722a3daafe3b4186f6b6457e060405160405180910390a3506000600360146101000a81548160ff021916908360068111156200014057fe5b021790555084600460006101000a81548173ffffffffffffffffffffffffffffffffffffffff021916908373ffffffffffffffffffffffffffffffffffffffff16021790555083600560006101000a81548173ffffffffffffffffffffffffffffffffffffffff021916908373ffffffffffffffffffffffffffffffffffffffff1602179055506000600760006101000a81548160ff02191690831515021790555082600160006101000a81548173ffffffffffffffffffffffffffffffffffffffff021916908373ffffffffffffffffffffffffffffffffffffffff16021790555062000234816200028e60201b60201c565b60068190555081600260006101000a81548173ffffffffffffffffffffffffffffffffffffffff021916908373ffffffffffffffffffffffffffffffffffffffff1602179055505050505050620002ba565b600033905090565b60007f52414e444f4d000000000000000000000000000000000000000000000000000082189050919050565b61206d80620002ca6000396000f3fe608060405234801561001057600080fd5b50600436106101165760003560e01c806366995a46116100a2578063872d7c7911610071578063872d7c79146103665780638da5cb5b14610370578063b8f31a81146103ba578063be22f54614610404578063f2fde38b1461044e57610116565b806366995a46146102d6578063715018a61461031a57806379599f96146103245780637db9abaf1461032e57610116565b806329d18879116100e957806329d18879146101935780632d24947b146101dd57806337edd7e7146101e75780633db0bfd21461026a5780636587b61e146102b857610116565b80630bb8ebf61461011b5780630f15f4c01461013d5780632344e4ec14610147578063289cf0d214610189575b600080fd5b610123610492565b604051808215151515815260200191505060405180910390f35b610145610549565b005b6101736004803603602081101561015d57600080fd5b81019080803590602001909291905050506106b6565b6040518082815260200191505060405180910390f35b610191610983565b005b61019b610ae6565b604051808273ffffffffffffffffffffffffffffffffffffffff1673ffffffffffffffffffffffffffffffffffffffff16815260200191505060405180910390f35b6101e5610c01565b005b6101ef610ed6565b6040518080602001828103825283818151815260200191508051906020019080838360005b8381101561022f578082015181840152602081019050610214565b50505050905090810190601f16801561025c5780820380516001836020036101000a031916815260200191505b509250505060405180910390f35b6102b66004803603604081101561028057600080fd5b81019080803573ffffffffffffffffffffffffffffffffffffffff1690602001909291908035906020019092919050505061112f565b005b6102c061137b565b6040518082815260200191505060405180910390f35b610318600480360360208110156102ec57600080fd5b81019080803573ffffffffffffffffffffffffffffffffffffffff16906020019092919050505061148e565b005b6103226114a1565b005b61032c611629565b005b6103646004803603604081101561034457600080fd5b810190808035906020019092919080359060200190929190505050611796565b005b61036e6118d1565b005b610378611ae0565b604051808273ffffffffffffffffffffffffffffffffffffffff1673ffffffffffffffffffffffffffffffffffffffff16815260200191505060405180910390f35b6103c2611b09565b604051808273ffffffffffffffffffffffffffffffffffffffff1673ffffffffffffffffffffffffffffffffffffffff16815260200191505060405180910390f35b61040c611bfc565b604051808273ffffffffffffffffffffffffffffffffffffffff1673ffffffffffffffffffffffffffffffffffffffff16815260200191505060405180910390f35b6104906004803603602081101561046457600080fd5b81019080803573ffffffffffffffffffffffffffffffffffffffff169060200190929190505050611c22565b005b6000600360009054906101000a900473ffffffffffffffffffffffffffffffffffffffff1673ffffffffffffffffffffffffffffffffffffffff166339e7357c6040518163ffffffff1660e01b815260040160206040518083038186803b1580156104fc57600080fd5b505afa92505050801561053057506040513d602081101561051c57600080fd5b810190808051906020019092919050505060015b61053d5760009050610546565b60065481149150505b90565b610551611e2f565b73ffffffffffffffffffffffffffffffffffffffff166000809054906101000a900473ffffffffffffffffffffffffffffffffffffffff1673ffffffffffffffffffffffffffffffffffffffff1614610612576040517f08c379a00000000000000000000000000000000000000000000000000000000081526004018080602001828103825260208152602001807f4f776e61626c653a2063616c6c6572206973206e6f7420746865206f776e657281525060200191505060405180910390fd5b6000600681111561061f57fe5b600360149054906101000a900460ff16600681111561063a57fe5b14610690576040517f08c379a000000000000000000000000000000000000000000000000000000000815260040180806020018281038252602a815260200180611f68602a913960400191505060405180910390fd5b6002600360146101000a81548160ff021916908360068111156106af57fe5b0217905550565b6000600760009054906101000a900460ff1661071d576040517f08c379a0000000000000000000000000000000000000000000000000000000008152600401808060200182810382526029815260200180611eb36029913960400191505060405180910390fd5b600360009054906101000a900473ffffffffffffffffffffffffffffffffffffffff1673ffffffffffffffffffffffffffffffffffffffff1661075e611e2f565b73ffffffffffffffffffffffffffffffffffffffff16146107ca576040517f08c379a0000000000000000000000000000000000000000000000000000000008152600401808060200182810382526025815260200180611e8e6025913960400191505060405180910390fd5b600260009054906101000a900473ffffffffffffffffffffffffffffffffffffffff1673ffffffffffffffffffffffffffffffffffffffff16630b435c546040518163ffffffff1660e01b815260040160206040518083038186803b15801561083257600080fd5b505afa158015610846573d6000803e3d6000fd5b505050506040513d602081101561085c57600080fd5b810190808051906020019092919050505082106108c4576040517f08c379a00000000000000000000000000000000000000000000000000000000081526004018080602001828103825260268152602001806120126026913960400191505060405180910390fd5b600260009054906101000a900473ffffffffffffffffffffffffffffffffffffffff1673ffffffffffffffffffffffffffffffffffffffff1663cee0510f836006546040518363ffffffff1660e01b8152600401808381526020018281526020019250505060206040518083038186803b15801561094157600080fd5b505afa158015610955573d6000803e3d6000fd5b505050506040513d602081101561096b57600080fd5b81019080805190602001909291905050509050919050565b61098b611e2f565b73ffffffffffffffffffffffffffffffffffffffff166000809054906101000a900473ffffffffffffffffffffffffffffffffffffffff1673ffffffffffffffffffffffffffffffffffffffff1614610a4c576040517f08c379a00000000000000000000000000000000000000000000000000000000081526004018080602001828103825260208152602001807f4f776e61626c653a2063616c6c6572206973206e6f7420746865206f776e657281525060200191505060405180910390fd5b600760009054906101000a900460ff16610a89576005600360146101000a81548160ff02191690836006811115610a7f57fe5b0217905550610ae4565b610a91610492565b15610abe5760038060146101000a81548160ff02191690836006811115610ab457fe5b0217905550610ae3565b6004600360146101000a81548160ff02191690836006811115610add57fe5b02179055505b5b565b6000600460009054906101000a900473ffffffffffffffffffffffffffffffffffffffff1673ffffffffffffffffffffffffffffffffffffffff16610b29611e2f565b73ffffffffffffffffffffffffffffffffffffffff161480610b845750610b4e611ae0565b73ffffffffffffffffffffffffffffffffffffffff16610b6c611e2f565b73ffffffffffffffffffffffffffffffffffffffff16145b610bd9576040517f08c379a000000000000000000000000000000000000000000000000000000000815260040180806020018281038252602a815260200180611fe8602a913960400191505060405180910390fd5b600260009054906101000a900473ffffffffffffffffffffffffffffffffffffffff16905090565b60006006811115610c0e57fe5b600360149054906101000a900460ff166006811115610c2957fe5b14610c7f576040517f08c379a000000000000000000000000000000000000000000000000000000000815260040180806020018281038252602a815260200180611f68602a913960400191505060405180910390fd5b600160009054906101000a900473ffffffffffffffffffffffffffffffffffffffff1673ffffffffffffffffffffffffffffffffffffffff166323b872dd33600560009054906101000a900473ffffffffffffffffffffffffffffffffffffffff16600560009054906101000a900473ffffffffffffffffffffffffffffffffffffffff1673ffffffffffffffffffffffffffffffffffffffff1663f745adfc6040518163ffffffff1660e01b815260040160206040518083038186803b158015610d4957600080fd5b505afa158015610d5d573d6000803e3d6000fd5b505050506040513d6020811015610d7357600080fd5b81019080805190602001909291905050506040518463ffffffff1660e01b8152600401808473ffffffffffffffffffffffffffffffffffffffff1673ffffffffffffffffffffffffffffffffffffffff1681526020018373ffffffffffffffffffffffffffffffffffffffff1673ffffffffffffffffffffffffffffffffffffffff1681526020018281526020019350505050602060405180830381600087803b158015610e2057600080fd5b505af1158015610e34573d6000803e3d6000fd5b505050506040513d6020811015610e4a57600080fd5b8101908080519060200190929190505050610eb0576040517f08c379a000000000000000000000000000000000000000000000000000000000815260040180806020018281038252602a815260200180611f92602a913960400191505060405180910390fd5b6001600360146101000a81548160ff02191690836006811115610ecf57fe5b0217905550565b6060600460009054906101000a900473ffffffffffffffffffffffffffffffffffffffff1673ffffffffffffffffffffffffffffffffffffffff16610f19611e2f565b73ffffffffffffffffffffffffffffffffffffffff161480610f745750610f3e611ae0565b73ffffffffffffffffffffffffffffffffffffffff16610f5c611e2f565b73ffffffffffffffffffffffffffffffffffffffff16145b610fc9576040517f08c379a000000000000000000000000000000000000000000000000000000000815260040180806020018281038252602a815260200180611fe8602a913960400191505060405180910390fd5b600260009054906101000a900473ffffffffffffffffffffffffffffffffffffffff1673ffffffffffffffffffffffffffffffffffffffff1663724465436040518163ffffffff1660e01b815260040160006040518083038186803b15801561103157600080fd5b505afa158015611045573d6000803e3d6000fd5b505050506040513d6000823e3d601f19601f82011682018060405250602081101561106f57600080fd5b810190808051604051939291908464010000000082111561108f57600080fd5b838201915060208201858111156110a557600080fd5b82518660018202830111640100000000821117156110c257600080fd5b8083526020830192505050908051906020019080838360005b838110156110f65780820151818401526020810190506110db565b50505050905090810190601f1680156111235780820380516001836020036101000a031916815260200191505b50604052505050905090565b600460009054906101000a900473ffffffffffffffffffffffffffffffffffffffff1673ffffffffffffffffffffffffffffffffffffffff16611170611e2f565b73ffffffffffffffffffffffffffffffffffffffff16146111dc576040517f08c379a000000000000000000000000000000000000000000000000000000000815260040180806020018281038252602d815260200180611edc602d913960400191505060405180910390fd5b60026111e661137b565b1161123c576040517f08c379a000000000000000000000000000000000000000000000000000000000815260040180806020018281038252602c815260200180611fbc602c913960400191505060405180910390fd5b600160009054906101000a900473ffffffffffffffffffffffffffffffffffffffff1673ffffffffffffffffffffffffffffffffffffffff166323b872dd600560009054906101000a900473ffffffffffffffffffffffffffffffffffffffff1684846040518463ffffffff1660e01b8152600401808473ffffffffffffffffffffffffffffffffffffffff1673ffffffffffffffffffffffffffffffffffffffff1681526020018373ffffffffffffffffffffffffffffffffffffffff1673ffffffffffffffffffffffffffffffffffffffff1681526020018281526020019350505050602060405180830381600087803b15801561133b57600080fd5b505af115801561134f573d6000803e3d6000fd5b505050506040513d602081101561136557600080fd5b8101908080519060200190929190505050505050565b6000600460009054906101000a900473ffffffffffffffffffffffffffffffffffffffff1673ffffffffffffffffffffffffffffffffffffffff166113be611e2f565b73ffffffffffffffffffffffffffffffffffffffff16148061141957506113e3611ae0565b73ffffffffffffffffffffffffffffffffffffffff16611401611e2f565b73ffffffffffffffffffffffffffffffffffffffff16145b61146e576040517f08c379a000000000000000000000000000000000000000000000000000000000815260040180806020018281038252602a815260200180611fe8602a913960400191505060405180910390fd5b600360149054906101000a900460ff16600681111561148957fe5b905090565b61149e816009546008540161112f565b50565b6114a9611e2f565b73ffffffffffffffffffffffffffffffffffffffff166000809054906101000a900473ffffffffffffffffffffffffffffffffffffffff1673ffffffffffffffffffffffffffffffffffffffff161461156a576040517f08c379a00000000000000000000000000000000000000000000000000000000081526004018080602001828103825260208152602001807f4f776e61626c653a2063616c6c6572206973206e6f7420746865206f776e657281525060200191505060405180910390fd5b600073ffffffffffffffffffffffffffffffffffffffff166000809054906101000a900473ffffffffffffffffffffffffffffffffffffffff1673ffffffffffffffffffffffffffffffffffffffff167f8be0079c531659141344cd1fd0a4f28419497f9722a3daafe3b4186f6b6457e060405160405180910390a360008060006101000a81548173ffffffffffffffffffffffffffffffffffffffff021916908373ffffffffffffffffffffffffffffffffffffffff160217905550565b611631611e2f565b73ffffffffffffffffffffffffffffffffffffffff166000809054906101000a900473ffffffffffffffffffffffffffffffffffffffff1673ffffffffffffffffffffffffffffffffffffffff16146116f2576040517f08c379a00000000000000000000000000000000000000000000000000000000081526004018080602001828103825260208152602001807f4f776e61626c653a2063616c6c6572206973206e6f7420746865206f776e657281525060200191505060405180910390fd5b600060068111156116ff57fe5b600360149054906101000a900460ff16600681111561171a57fe5b14611770576040517f08c379a000000000000000000000000000000000000000000000000000000000815260040180806020018281038252602a815260200180611f68602a913960400191505060405180910390fd5b6006600360146101000a81548160ff0219169083600681111561178f57fe5b0217905550565b61179e611e2f565b73ffffffffffffffffffffffffffffffffffffffff166000809054906101000a900473ffffffffffffffffffffffffffffffffffffffff1673ffffffffffffffffffffffffffffffffffffffff161461185f576040517f08c379a00000000000000000000000000000000000000000000000000000000081526004018080602001828103825260208152602001807f4f776e61626c653a2063616c6c6572206973206e6f7420746865206f776e657281525060200191505060405180910390fd5b600261186961137b565b116118bf576040517f08c379a0000000000000000000000000000000000000000000000000000000008152600401808060200182810382526030815260200180611e386030913960400191505060405180910390fd5b81600881905550806009819055505050565b600260068111156118de57fe5b600360149054906101000a900460ff1660068111156118f957fe5b1461194f576040517f08c379a000000000000000000000000000000000000000000000000000000000815260040180806020018281038252602d815260200180611f3b602d913960400191505060405180910390fd5b6000611959611e2f565b9050600460009054906101000a900473ffffffffffffffffffffffffffffffffffffffff1673ffffffffffffffffffffffffffffffffffffffff168173ffffffffffffffffffffffffffffffffffffffff1663893d20e86040518163ffffffff1660e01b815260040160206040518083038186803b1580156119da57600080fd5b505afa1580156119ee573d6000803e3d6000fd5b505050506040513d6020811015611a0457600080fd5b810190808051906020019092919050505073ffffffffffffffffffffffffffffffffffffffff1614611a81576040517f08c379a0000000000000000000000000000000000000000000000000000000008152600401808060200182810382526032815260200180611f096032913960400191505060405180910390fd5b80600360006101000a81548173ffffffffffffffffffffffffffffffffffffffff021916908373ffffffffffffffffffffffffffffffffffffffff1602179055506001600760006101000a81548160ff02191690831515021790555050565b60008060009054906101000a900473ffffffffffffffffffffffffffffffffffffffff16905090565b6000611b13611e2f565b73ffffffffffffffffffffffffffffffffffffffff166000809054906101000a900473ffffffffffffffffffffffffffffffffffffffff1673ffffffffffffffffffffffffffffffffffffffff1614611bd4576040517f08c379a00000000000000000000000000000000000000000000000000000000081526004018080602001828103825260208152602001807f4f776e61626c653a2063616c6c6572206973206e6f7420746865206f776e657281525060200191505060405180910390fd5b600460009054906101000a900473ffffffffffffffffffffffffffffffffffffffff16905090565b600160009054906101000a900473ffffffffffffffffffffffffffffffffffffffff1681565b611c2a611e2f565b73ffffffffffffffffffffffffffffffffffffffff166000809054906101000a900473ffffffffffffffffffffffffffffffffffffffff1673ffffffffffffffffffffffffffffffffffffffff1614611ceb576040517f08c379a00000000000000000000000000000000000000000000000000000000081526004018080602001828103825260208152602001807f4f776e61626c653a2063616c6c6572206973206e6f7420746865206f776e657281525060200191505060405180910390fd5b600073ffffffffffffffffffffffffffffffffffffffff168173ffffffffffffffffffffffffffffffffffffffff161415611d71576040517f08c379a0000000000000000000000000000000000000000000000000000000008152600401808060200182810382526026815260200180611e686026913960400191505060405180910390fd5b8073ffffffffffffffffffffffffffffffffffffffff166000809054906101000a900473ffffffffffffffffffffffffffffffffffffffff1673ffffffffffffffffffffffffffffffffffffffff167f8be0079c531659141344cd1fd0a4f28419497f9722a3daafe3b4186f6b6457e060405160405180910390a3806000806101000a81548173ffffffffffffffffffffffffffffffffffffffff021916908373ffffffffffffffffffffffffffffffffffffffff16021790555050565b60003390509056fe53747564656e744170706c69636174696f6e3a206170706c69636174696f6e206e6f742066696e6973686564207965744f776e61626c653a206e6577206f776e657220697320746865207a65726f206164647265737353747564656e744170706c69636174696f6e3a2061726520796f75206368656174696e673f53747564656e744170706c69636174696f6e3a20616e73776572206e6f74207265676973746572656453747564656e744170706c69636174696f6e3a206f6e6c792073747564656e742063616e20776974686472617753747564656e744170706c69636174696f6e3a2073747564656e74206973206e6f74206f776e6572206f6620616e7377657253747564656e744170706c69636174696f6e3a206170706c69636174696f6e206973206e6f742061637469766553747564656e744170706c69636174696f6e3a206170706c69636174696f6e206973206e6f74204e657753747564656e744170706c69636174696f6e3a20636f756c64206e6f74207472616e736665722044414953747564656e744170706c69636174696f6e3a206170706c69636174696f6e206e6f742066696e697368656453747564656e744170706c69636174696f6e3a2072656164207065726d697373696f6e2064656e69656453747564656e744170706c69636174696f6e3a2068696e74206e6f7420617661696c61626c65a26469706673582212201b8b9ba3cf7b94fd160958d8f8e6c763790379678dc77ddcfc3e77d3d4f20fd064736f6c634300060600334f776e61626c653a206e6577206f776e657220697320746865207a65726f2061646472657373436c617373726f6f6d3a2073747564656e7420646f65736e2774206861766520656e6f7567682073636f7265436c617373726f6f6d3a2063616e2774206368616e6765206368616c6c656e6765206e6f77436c617373726f6f6d3a206e6f7420656e6f7567682044414920746f2070726f63656564436c617373726f6f6d3a2072656164207065726d697373696f6e2064656e696564436c617373726f6f6d3a2073747564656e7473206c697374206e6f7420656d707479436c617373726f6f6d3a2070726f666573736f722063616e277420626520697473206f776e2073747564656e74536166654d6174683a206d756c7469706c69636174696f6e206f766572666c6f77436c617373726f6f6d3a20746f6f20736f6f6e20746f2066696e69736820636f75727365436c617373726f6f6d3a206170706c69636174696f6e7320617265207374696c6c206f70656e436c617373726f6f6d3a20696e7665737420616c6c2062616c616e6365206265666f726520626567696e436c617373726f6f6d3a206170706c69636174696f6e732061726520616c726561647920636c6f736564436c617373726f6f6d3a2073747564656e74206973206e6f742072656769737465726564436c617373726f6f6d3a206170706c69636174696f6e732061726520616c7265616479206f70656e6564a2646970667358221220586504b9ac9124c0cb84f443c4319f87bce77b77c99b333db33b7d76de6e640564736f6c63430006060033",
  "immutableReferences": {},
  "source": "pragma solidity 0.6.6;\r\n\r\nimport \"@openzeppelin/contracts/math/SafeMath.sol\";\r\nimport \"@openzeppelin/contracts/access/AccessControl.sol\";\r\nimport \"@openzeppelin/contracts/access/Ownable.sol\";\r\nimport \"@openzeppelin/contracts/token/ERC20/IERC20.sol\";\r\nimport \"@openzeppelin/contracts/utils/Address.sol\";\r\nimport \"./University.sol\";\r\nimport \"./Student.sol\";\r\nimport \"./StudentApplication.sol\";\r\nimport \"./IClassroomChallenge.sol\";\r\n\r\ncontract Classroom is Ownable {\r\n    using SafeMath for uint256;\r\n\r\n    University public university;\r\n    bool public openForApplication;\r\n    bool public courseFinished;\r\n    StudentApplication[] _studentApplications;\r\n    StudentApplication[] _validStudentApplications;\r\n    mapping(address => address) _studentApplicationsLink;\r\n    address[] _studentsLookUp;\r\n    address[] _applicationsLookUp;\r\n    uint _endDate;\r\n    uint _totalBalance;\r\n\r\n    //Classroom parameters\r\n    bytes32 public name;\r\n    uint24 public principalCut;\r\n    uint24 public poolCut;\r\n    int32 public minScore;\r\n    uint public entryPrice;\r\n    uint public duration;\r\n    bytes32 _seed;\r\n\r\n    IERC20 public daiToken;\r\n    CERC20 public cToken;\r\n    address public _challengeAddress;\r\n\r\n    bool public classroomActive;\r\n\r\n    constructor(bytes32 _name, uint24 _principalCut, uint24 _poolCut, int32 _minScore, uint _entryPrice,\r\n            uint _duration, address universityAddress, address daiAddress, address compoundAddress, address challengeAddress) public {\r\n        name = _name;\r\n        principalCut = _principalCut;\r\n        poolCut = _poolCut;\r\n        minScore = _minScore;\r\n        entryPrice = _entryPrice;\r\n        duration = _duration;\r\n        university = University(universityAddress);\r\n        openForApplication = false;\r\n        classroomActive = false;\r\n        //Kovan address\r\n        daiToken = IERC20(daiAddress);\r\n        cToken = CERC20(compoundAddress);\r\n        _challengeAddress = challengeAddress;\r\n        _seed = generateSeed();\r\n    }\r\n\r\n    event LogOpenApplications();\r\n    event LogCloseApplications();\r\n    event LogCourseFinished();\r\n    event LogChangeChallenge(address);\r\n    event LogChangeName(bytes32);\r\n    event LogChangePrincipalCut(uint24);\r\n    event LogChangePoolCut(uint24);\r\n    event LogChangeMinScore(int32);\r\n    event LogChangeEntryPrice(uint);\r\n    event LogChangeDuration(uint);\r\n\r\n    function changeName(bytes32 val) public onlyOwner {\r\n        name = val;\r\n        emit LogChangeName(name);\r\n    }\r\n\r\n    function changePrincipalCut(uint24 val) public onlyOwner {\r\n        principalCut = val;\r\n        emit LogChangePrincipalCut(principalCut);\r\n    }\r\n\r\n    function changePoolCut(uint24 val) public onlyOwner {\r\n        poolCut = val;\r\n        emit LogChangePoolCut(poolCut);\r\n    }\r\n\r\n    function changeMinScore(int32 val) public onlyOwner {\r\n        minScore = val;\r\n        emit LogChangeMinScore(minScore);\r\n    }\r\n\r\n    function changeEntryPrice(uint val) public onlyOwner {\r\n        entryPrice = val;\r\n        emit LogChangeEntryPrice(entryPrice);\r\n    }\r\n\r\n    function changeDuration(uint val) public onlyOwner {\r\n        duration = val;\r\n        emit LogChangeDuration(duration);\r\n    }\r\n\r\n    function viewAllApplications() public view onlyOwner returns (address[] memory) {\r\n        return _applicationsLookUp;\r\n    }\r\n\r\n    function viewAllStudents() public view onlyOwner returns (address[] memory) {\r\n        return _studentsLookUp;\r\n    }\r\n\r\n    function generateSeed() internal pure returns (bytes32) {\r\n        //TODO:\r\n        return \"RANDOM\";\r\n    }\r\n\r\n    function viewSeed() public view onlyOwner returns (bytes32) {\r\n        return _seed;\r\n    }\r\n\r\n    function changeChallenge(address addr) public onlyOwner {\r\n        require(isClassroomEmpty(), \"Classroom: can't change challenge now\");\r\n        _challengeAddress = addr;\r\n        emit LogChangeChallenge(_challengeAddress);\r\n    }\r\n    //TODO: allow teacher to setup a custom challenge\r\n\r\n    function isClassroomEmpty() public view returns (bool) {\r\n        return _studentApplications.length.add(_validStudentApplications.length) == 0;\r\n    }\r\n\r\n    function isCourseOngoing() public view returns (bool) {\r\n        return _validStudentApplications.length > 0;\r\n    }\r\n\r\n    function openApplications() public onlyOwner {\r\n        require(!openForApplication, \"Classroom: applications are already opened\");\r\n        require(_studentApplications.length == 0, \"Classroom: students list not empty\");\r\n        openForApplication = true;\r\n        emit LogOpenApplications();\r\n    }\r\n\r\n    function closeApplications() public onlyOwner {\r\n        require(openForApplication, \"Classroom: applications are already closed\");\r\n        openForApplication = false;\r\n        emit LogCloseApplications();\r\n    }\r\n\r\n    //public onlyOwner allow the professor to apply money before and after closing applications\r\n    function applyDAI() public onlyOwner {\r\n        uint balance = daiToken.balanceOf(address(this));\r\n        if (balance <= 0) return;\r\n        daiToken.approve(address(cToken), balance);\r\n        cToken.mint(balance);\r\n    }\r\n\r\n    function studentApply() public{\r\n        require(_msgSender() != owner(), \"Classroom: professor can't be its own student\");\r\n        require(university.studentIsRegistered(_msgSender()), \"Classroom: student is not registered\");\r\n        require(openForApplication, \"Classroom: applications closed\");\r\n        Student applicant = Student(_msgSender());\r\n        require(applicant.score() >= minScore, \"Classroom: student doesn't have enough score\");\r\n        StudentApplication application = _createStudentApplication(applicant);\r\n        _studentApplications.push(application);\r\n    }\r\n\r\n    function _createStudentApplication(Student student) internal returns (StudentApplication) {\r\n        //TODO: fetch contract from external factory to reduce size\r\n        StudentApplication newApplication = new StudentApplication(address(student), address(this), address(daiToken), _challengeAddress, _seed);\r\n        _studentApplicationsLink[address(student)] = address(newApplication);\r\n        university.registerStudentApplication(address(student), address(newApplication));\r\n        _studentsLookUp.push(address(student));\r\n        _applicationsLookUp.push(address(newApplication));\r\n        return newApplication;\r\n    }\r\n\r\n    function viewMyApplication() public view returns (address) {\r\n        return viewApplication(_msgSender());\r\n    }\r\n\r\n    function viewApplication(address addr) public view returns (address) {\r\n        require(addr == _msgSender() || _msgSender() == owner(), \"Classroom: read permission denied\");\r\n        return _studentApplicationsLink[addr];\r\n    }\r\n\r\n    function beginCourse() public onlyOwner {\r\n        require(!openForApplication, \"Classroom: applications are still open\");\r\n        require(daiToken.balanceOf(address(this)) == 0, \"Classroom: invest all balance before begin\");\r\n        checkApplications();\r\n        _studentApplications = new StudentApplication[](0);\r\n        require(_validStudentApplications.length > 0, \"Classroom: no ready application\");\r\n        classroomActive = true;\r\n        //TODO: use oracle\r\n        _endDate = block.timestamp.add(duration);\r\n    }\r\n\r\n    function checkApplications() internal {\r\n        for (uint i = 0; i < _studentApplications.length ; i++) {\r\n            if (_studentApplications[i].applicationState() == 1) {\r\n                _studentApplications[i].activate();\r\n                _validStudentApplications.push(_studentApplications[i]);\r\n            }\r\n            else {\r\n                _studentApplications[i].expire();\r\n            }\r\n        }\r\n    }\r\n\r\n    function finishCourse() public onlyOwner {\r\n        //TODO: use oracle\r\n        require (_endDate <= block.timestamp, \"Classroom: too soon to finish course\");\r\n        require (_validStudentApplications.length > 0, \"Classroom: no applications\");\r\n        _totalBalance = _recoverInvestment();\r\n        courseFinished = true;\r\n        emit LogCourseFinished();\r\n    }\r\n\r\n    function _recoverInvestment() internal returns (uint) {\r\n        uint balance = cToken.balanceOfUnderlying(address(this));\r\n        cToken.redeemUnderlying(balance);\r\n        return balance;\r\n    }\r\n\r\n    function processResults () public onlyOwner {\r\n        require(courseFinished, \"Classroom: course not finished\");\r\n        require(_totalBalance <= daiToken.balanceOf(address(this)), \"Classroom: not enough DAI to proceed\");\r\n        (uint successCount, uint emptyCount) = _startAnswerVerification();\r\n        (uint universityCut, uint[] memory studentAllowances) = _accountValues(successCount, emptyCount);\r\n        _resolveStudentAllowances(studentAllowances);\r\n        _resolveUniversityCut(universityCut);\r\n        _updateStudentScores();\r\n        _clearClassroom();\r\n    }\r\n\r\n    function _startAnswerVerification() internal returns (uint, uint) {\r\n        uint successCount = 0;\r\n        uint emptyCount = 0;\r\n        for (uint i = 0; i < _validStudentApplications.length ; i++) {\r\n            _validStudentApplications[i].registerFinalAnswer();\r\n            if (_validStudentApplications[i].applicationState() == 3) successCount++;\r\n            if (_validStudentApplications[i].applicationState() == 5) emptyCount++;\r\n        }\r\n        return (successCount, emptyCount);\r\n    }\r\n\r\n    function _accountValues(uint successCount, uint emptyCount) internal returns (uint, uint[] memory) {\r\n        uint nStudents = _validStudentApplications.length;\r\n        uint returnsPool = _totalBalance.sub(entryPrice.mul(nStudents));\r\n        uint professorPaymentPerStudent = entryPrice.mul(principalCut).div(10 ** 6);\r\n        uint studentPrincipalReturn = entryPrice.sub(professorPaymentPerStudent);\r\n        uint successPool = returnsPool.mul(successCount).div(nStudents);\r\n        uint professorTotalPoolSuccessShare = successPool.mul(poolCut).div(10 ** 6);\r\n        uint successStudentPoolShare = returnsPool.sub(professorTotalPoolSuccessShare).div(successCount);\r\n        uint[] memory studentAllowances = new uint[](nStudents);\r\n        for (uint i = 0; i < nStudents ; i++) {\r\n            if (_validStudentApplications[i].applicationState() == 3) {\r\n                _validStudentApplications[i].accountAllowance(studentPrincipalReturn, successStudentPoolShare);\r\n                studentAllowances[i] = studentPrincipalReturn.add(successStudentPoolShare);\r\n            }\r\n            if (_validStudentApplications[i].applicationState() == 4){\r\n                _validStudentApplications[i].accountAllowance(studentPrincipalReturn, 0);\r\n                studentAllowances[i] = studentPrincipalReturn;\r\n            }\r\n            if (_validStudentApplications[i].applicationState() == 5)\r\n                _validStudentApplications[i].accountAllowance(0, 0);\r\n        }\r\n        uint universityEmptyShare = emptyCount.mul(entryPrice);\r\n        uint universityPaymentShare = professorTotalPoolSuccessShare.mul(university.cut()).div(10 ** 6);\r\n        uint notEmptyCount = nStudents.sub(emptyCount);\r\n        uint universitySucessPoolShare = professorPaymentPerStudent.mul(notEmptyCount).mul(university.cut()).div(10 ** 6);\r\n        return (universityEmptyShare.add(universityPaymentShare).add(universitySucessPoolShare), studentAllowances);\r\n    }\r\n\r\n    function _resolveStudentAllowances(uint[] memory studentAllowances) internal {\r\n        for (uint i = 0; i < _validStudentApplications.length ; i++) {\r\n            if (studentAllowances[i] > 0) daiToken.approve(address(_validStudentApplications[i]), studentAllowances[i]);\r\n        }\r\n    }\r\n\r\n    function _resolveUniversityCut(uint universityCut) internal {\r\n        daiToken.transfer(address(university), universityCut);\r\n    }\r\n\r\n    function _updateStudentScores() internal {\r\n        for (uint i = 0; i < _validStudentApplications.length ; i++) {\r\n            if (_validStudentApplications[i].applicationState() == 3)\r\n                university.addStudentScore(_validStudentApplications[i].studentAddress(), 1);\r\n            if (_validStudentApplications[i].applicationState() == 4)\r\n                university.subStudentScore(_validStudentApplications[i].studentAddress(), 1);\r\n            if (_validStudentApplications[i].applicationState() == 5)\r\n                university.subStudentScore(_validStudentApplications[i].studentAddress(), 2);\r\n        }\r\n    }\r\n\r\n    function _clearClassroom() internal {\r\n        _validStudentApplications = new StudentApplication[](0);\r\n        withdrawAllResults();\r\n        _totalBalance = 0;\r\n        courseFinished = false;\r\n    }\r\n\r\n    function withdrawAllResults() public onlyOwner {\r\n        daiToken.transferFrom(address(this), owner(), daiToken.balanceOf(address(this)));\r\n    }\r\n}",
  "sourcePath": "/mnt/e/Repositories/Uproot/contracts/Classroom.sol",
  "compiler": {
    "name": "solc",
    "version": "0.6.6+commit.6c089d02.Emscripten.clang"
  },
  "schemaVersion": "3.1.0",
  "updatedAt": "2020-05-02T23:52:45.617Z",
  "devdoc": {
    "methods": {
      "owner()": {
        "details": "Returns the address of the current owner."
      },
      "renounceOwnership()": {
        "details": "Leaves the contract without owner. It will not be possible to call `onlyOwner` functions anymore. Can only be called by the current owner.     * NOTE: Renouncing ownership will leave the contract without an owner, thereby removing any functionality that is only available to the owner."
      },
      "transferOwnership(address)": {
        "details": "Transfers ownership of the contract to a new account (`newOwner`). Can only be called by the current owner."
      }
    }
  },
  "userdoc": {
    "methods": {}
  }
}