{
  "contractName": "Classroom",
  "abi": [
    {
      "inputs": [
        {
          "internalType": "bytes32",
          "name": "_name",
          "type": "bytes32"
        },
        {
          "internalType": "uint24",
          "name": "_principalCut",
          "type": "uint24"
        },
        {
          "internalType": "uint24",
          "name": "_poolCut",
          "type": "uint24"
        },
        {
          "internalType": "int32",
          "name": "_minScore",
          "type": "int32"
        },
        {
          "internalType": "uint256",
          "name": "_entryPrice",
          "type": "uint256"
        },
        {
          "internalType": "uint256",
          "name": "_duration",
          "type": "uint256"
        },
        {
          "internalType": "address payable",
          "name": "universityAddress",
          "type": "address"
        },
        {
          "internalType": "address",
          "name": "challengeAddress",
          "type": "address"
        },
        {
          "internalType": "address",
          "name": "daiAddress",
          "type": "address"
        },
        {
          "internalType": "address",
          "name": "compoundAddress",
          "type": "address"
        },
        {
          "internalType": "address",
          "name": "studentApplicationFactoryAddress",
          "type": "address"
        }
      ],
      "stateMutability": "nonpayable",
      "type": "constructor"
    },
    {
      "anonymous": false,
      "inputs": [
        {
          "indexed": true,
          "internalType": "bytes32",
          "name": "id",
          "type": "bytes32"
        }
      ],
      "name": "ChainlinkCancelled",
      "type": "event"
    },
    {
      "anonymous": false,
      "inputs": [
        {
          "indexed": true,
          "internalType": "bytes32",
          "name": "id",
          "type": "bytes32"
        }
      ],
      "name": "ChainlinkFulfilled",
      "type": "event"
    },
    {
      "anonymous": false,
      "inputs": [
        {
          "indexed": true,
          "internalType": "bytes32",
          "name": "id",
          "type": "bytes32"
        }
      ],
      "name": "ChainlinkRequested",
      "type": "event"
    },
    {
      "anonymous": false,
      "inputs": [
        {
          "indexed": false,
          "internalType": "address",
          "name": "",
          "type": "address"
        }
      ],
      "name": "LogChangeChallenge",
      "type": "event"
    },
    {
      "anonymous": false,
      "inputs": [
        {
          "indexed": false,
          "internalType": "uint256",
          "name": "",
          "type": "uint256"
        }
      ],
      "name": "LogChangeDuration",
      "type": "event"
    },
    {
      "anonymous": false,
      "inputs": [
        {
          "indexed": false,
          "internalType": "uint256",
          "name": "",
          "type": "uint256"
        }
      ],
      "name": "LogChangeEntryPrice",
      "type": "event"
    },
    {
      "anonymous": false,
      "inputs": [
        {
          "indexed": false,
          "internalType": "int32",
          "name": "",
          "type": "int32"
        }
      ],
      "name": "LogChangeMinScore",
      "type": "event"
    },
    {
      "anonymous": false,
      "inputs": [
        {
          "indexed": false,
          "internalType": "bytes32",
          "name": "",
          "type": "bytes32"
        }
      ],
      "name": "LogChangeName",
      "type": "event"
    },
    {
      "anonymous": false,
      "inputs": [
        {
          "indexed": false,
          "internalType": "uint24",
          "name": "",
          "type": "uint24"
        }
      ],
      "name": "LogChangePoolCut",
      "type": "event"
    },
    {
      "anonymous": false,
      "inputs": [
        {
          "indexed": false,
          "internalType": "uint24",
          "name": "",
          "type": "uint24"
        }
      ],
      "name": "LogChangePrincipalCut",
      "type": "event"
    },
    {
      "anonymous": false,
      "inputs": [],
      "name": "LogCloseApplications",
      "type": "event"
    },
    {
      "anonymous": false,
      "inputs": [],
      "name": "LogCourseFinished",
      "type": "event"
    },
    {
      "anonymous": false,
      "inputs": [],
      "name": "LogOpenApplications",
      "type": "event"
    },
    {
      "anonymous": false,
      "inputs": [
        {
          "indexed": true,
          "internalType": "address",
          "name": "previousOwner",
          "type": "address"
        },
        {
          "indexed": true,
          "internalType": "address",
          "name": "newOwner",
          "type": "address"
        }
      ],
      "name": "OwnershipTransferred",
      "type": "event"
    },
    {
      "inputs": [],
      "name": "_challengeAddress",
      "outputs": [
        {
          "internalType": "address",
          "name": "",
          "type": "address"
        }
      ],
      "stateMutability": "view",
      "type": "function"
    },
    {
      "inputs": [],
      "name": "cToken",
      "outputs": [
        {
          "internalType": "contract CERC20",
          "name": "",
          "type": "address"
        }
      ],
      "stateMutability": "view",
      "type": "function"
    },
    {
      "inputs": [],
      "name": "classroomActive",
      "outputs": [
        {
          "internalType": "bool",
          "name": "",
          "type": "bool"
        }
      ],
      "stateMutability": "view",
      "type": "function"
    },
    {
      "inputs": [],
      "name": "courseFinished",
      "outputs": [
        {
          "internalType": "bool",
          "name": "",
          "type": "bool"
        }
      ],
      "stateMutability": "view",
      "type": "function"
    },
    {
      "inputs": [],
      "name": "daiToken",
      "outputs": [
        {
          "internalType": "contract IERC20",
          "name": "",
          "type": "address"
        }
      ],
      "stateMutability": "view",
      "type": "function"
    },
    {
      "inputs": [],
      "name": "duration",
      "outputs": [
        {
          "internalType": "uint256",
          "name": "",
          "type": "uint256"
        }
      ],
      "stateMutability": "view",
      "type": "function"
    },
    {
      "inputs": [],
      "name": "entryPrice",
      "outputs": [
        {
          "internalType": "uint256",
          "name": "",
          "type": "uint256"
        }
      ],
      "stateMutability": "view",
      "type": "function"
    },
    {
      "inputs": [],
      "name": "minScore",
      "outputs": [
        {
          "internalType": "int32",
          "name": "",
          "type": "int32"
        }
      ],
      "stateMutability": "view",
      "type": "function"
    },
    {
      "inputs": [],
      "name": "name",
      "outputs": [
        {
          "internalType": "bytes32",
          "name": "",
          "type": "bytes32"
        }
      ],
      "stateMutability": "view",
      "type": "function"
    },
    {
      "inputs": [],
      "name": "openForApplication",
      "outputs": [
        {
          "internalType": "bool",
          "name": "",
          "type": "bool"
        }
      ],
      "stateMutability": "view",
      "type": "function"
    },
    {
      "inputs": [],
      "name": "owner",
      "outputs": [
        {
          "internalType": "address",
          "name": "",
          "type": "address"
        }
      ],
      "stateMutability": "view",
      "type": "function"
    },
    {
      "inputs": [],
      "name": "poolCut",
      "outputs": [
        {
          "internalType": "uint24",
          "name": "",
          "type": "uint24"
        }
      ],
      "stateMutability": "view",
      "type": "function"
    },
    {
      "inputs": [],
      "name": "principalCut",
      "outputs": [
        {
          "internalType": "uint24",
          "name": "",
          "type": "uint24"
        }
      ],
      "stateMutability": "view",
      "type": "function"
    },
    {
      "inputs": [],
      "name": "renounceOwnership",
      "outputs": [],
      "stateMutability": "nonpayable",
      "type": "function"
    },
    {
      "inputs": [
        {
          "internalType": "address",
          "name": "newOwner",
          "type": "address"
        }
      ],
      "name": "transferOwnership",
      "outputs": [],
      "stateMutability": "nonpayable",
      "type": "function"
    },
    {
      "inputs": [],
      "name": "university",
      "outputs": [
        {
          "internalType": "contract IUniversity",
          "name": "",
          "type": "address"
        }
      ],
      "stateMutability": "view",
      "type": "function"
    },
    {
      "inputs": [
        {
          "internalType": "address",
          "name": "oracleRandom",
          "type": "address"
        },
        {
          "internalType": "bytes32",
          "name": "requestIdRandom",
          "type": "bytes32"
        },
        {
          "internalType": "uint256",
          "name": "oraclePaymentRandom",
          "type": "uint256"
        },
        {
          "internalType": "address",
          "name": "oracleTimestamp",
          "type": "address"
        },
        {
          "internalType": "bytes32",
          "name": "requestIdTimestamp",
          "type": "bytes32"
        },
        {
          "internalType": "uint256",
          "name": "oraclePaymentTimestamp",
          "type": "uint256"
        },
        {
          "internalType": "address",
          "name": "linkToken",
          "type": "address"
        }
      ],
      "name": "configureOracles",
      "outputs": [],
      "stateMutability": "nonpayable",
      "type": "function"
    },
    {
      "inputs": [
        {
          "internalType": "address",
          "name": "newOwner",
          "type": "address"
        }
      ],
      "name": "transferOwnershipClassroom",
      "outputs": [],
      "stateMutability": "nonpayable",
      "type": "function"
    },
    {
      "inputs": [
        {
          "internalType": "bytes32",
          "name": "val",
          "type": "bytes32"
        }
      ],
      "name": "changeName",
      "outputs": [],
      "stateMutability": "nonpayable",
      "type": "function"
    },
    {
      "inputs": [
        {
          "internalType": "uint24",
          "name": "val",
          "type": "uint24"
        }
      ],
      "name": "changePrincipalCut",
      "outputs": [],
      "stateMutability": "nonpayable",
      "type": "function"
    },
    {
      "inputs": [
        {
          "internalType": "uint24",
          "name": "val",
          "type": "uint24"
        }
      ],
      "name": "changePoolCut",
      "outputs": [],
      "stateMutability": "nonpayable",
      "type": "function"
    },
    {
      "inputs": [
        {
          "internalType": "int32",
          "name": "val",
          "type": "int32"
        }
      ],
      "name": "changeMinScore",
      "outputs": [],
      "stateMutability": "nonpayable",
      "type": "function"
    },
    {
      "inputs": [
        {
          "internalType": "uint256",
          "name": "val",
          "type": "uint256"
        }
      ],
      "name": "changeEntryPrice",
      "outputs": [],
      "stateMutability": "nonpayable",
      "type": "function"
    },
    {
      "inputs": [
        {
          "internalType": "uint256",
          "name": "val",
          "type": "uint256"
        }
      ],
      "name": "changeDuration",
      "outputs": [],
      "stateMutability": "nonpayable",
      "type": "function"
    },
    {
      "inputs": [
        {
          "internalType": "address",
          "name": "addr",
          "type": "address"
        }
      ],
      "name": "changeChallenge",
      "outputs": [],
      "stateMutability": "nonpayable",
      "type": "function"
    },
    {
      "inputs": [],
      "name": "viewAllApplications",
      "outputs": [
        {
          "internalType": "address[]",
          "name": "",
          "type": "address[]"
        }
      ],
      "stateMutability": "view",
      "type": "function"
    },
    {
      "inputs": [],
      "name": "viewMyApplication",
      "outputs": [
        {
          "internalType": "address",
          "name": "",
          "type": "address"
        }
      ],
      "stateMutability": "view",
      "type": "function"
    },
    {
      "inputs": [
        {
          "internalType": "address",
          "name": "addr",
          "type": "address"
        }
      ],
      "name": "viewApplication",
      "outputs": [
        {
          "internalType": "address",
          "name": "",
          "type": "address"
        }
      ],
      "stateMutability": "view",
      "type": "function"
    },
    {
      "inputs": [],
      "name": "viewAllStudents",
      "outputs": [
        {
          "internalType": "address[]",
          "name": "",
          "type": "address[]"
        }
      ],
      "stateMutability": "view",
      "type": "function"
    },
    {
      "inputs": [],
      "name": "isClassroomEmpty",
      "outputs": [
        {
          "internalType": "bool",
          "name": "",
          "type": "bool"
        }
      ],
      "stateMutability": "view",
      "type": "function"
    },
    {
      "inputs": [],
      "name": "isCourseOngoing",
      "outputs": [
        {
          "internalType": "bool",
          "name": "",
          "type": "bool"
        }
      ],
      "stateMutability": "view",
      "type": "function"
    },
    {
      "inputs": [],
      "name": "openApplications",
      "outputs": [],
      "stateMutability": "nonpayable",
      "type": "function"
    },
    {
      "inputs": [],
      "name": "closeApplications",
      "outputs": [],
      "stateMutability": "nonpayable",
      "type": "function"
    },
    {
      "inputs": [],
      "name": "applyDAI",
      "outputs": [],
      "stateMutability": "nonpayable",
      "type": "function"
    },
    {
      "inputs": [],
      "name": "studentApply",
      "outputs": [],
      "stateMutability": "nonpayable",
      "type": "function"
    },
    {
      "inputs": [],
      "name": "beginCourse",
      "outputs": [],
      "stateMutability": "nonpayable",
      "type": "function"
    },
    {
      "inputs": [],
      "name": "finishCourse",
      "outputs": [],
      "stateMutability": "nonpayable",
      "type": "function"
    },
    {
      "inputs": [],
      "name": "processResults",
      "outputs": [],
      "stateMutability": "nonpayable",
      "type": "function"
    },
    {
      "inputs": [],
      "name": "withdrawAllResults",
      "outputs": [],
      "stateMutability": "nonpayable",
      "type": "function"
    },
    {
      "inputs": [
        {
          "internalType": "bytes32",
          "name": "_requestId",
          "type": "bytes32"
        },
        {
          "internalType": "uint256",
          "name": "data",
          "type": "uint256"
        }
      ],
      "name": "fulfillGenerateSeed",
      "outputs": [],
      "stateMutability": "nonpayable",
      "type": "function"
    },
    {
      "inputs": [
        {
          "internalType": "bytes32",
          "name": "_requestId",
          "type": "bytes32"
        }
      ],
      "name": "fulfillGetTimestamp",
      "outputs": [],
      "stateMutability": "nonpayable",
      "type": "function"
    }
  ],
  "bytecode": "0x608060405260016005553480156200001657600080fd5b50604051620045ac380380620045ac83398181016040526101608110156200003d57600080fd5b508051602082015160408301516060840151608085015160a086015160c087015160e08801516101008901516101208a0151610140909a01519899979896979596949593949293919290919060006200009e6001600160e01b036200027916565b600080546001600160a01b0319166001600160a01b0383169081178255604051929350917f8be0079c531659141344cd1fd0a4f28419497f9722a3daafe3b4186f6b6457e0908290a3508a60108190555089601160006101000a81548162ffffff021916908362ffffff16021790555088601160036101000a81548162ffffff021916908362ffffff16021790555087601160066101000a81548163ffffffff021916908360030b63ffffffff160217905550866012819055508560138190555084600760006101000a8154816001600160a01b0302191690836001600160a01b0316021790555083601760006101000a8154816001600160a01b0302191690836001600160a01b031602179055506000600760146101000a81548160ff0219169083151502179055506000600760166101000a81548160ff02191690831515021790555082601460006101000a8154816001600160a01b0302191690836001600160a01b0316021790555081601560006101000a8154816001600160a01b0302191690836001600160a01b0316021790555080601660006101000a8154816001600160a01b0302191690836001600160a01b03160217905550620002686200027d60201b60201c565b505050505050505050505062000718565b3390565b62000287620006c7565b601954620002a7903063100b510360e11b6001600160e01b03620002d616565b601854601a54919250620002d2916001600160a01b039091169083906001600160e01b036200031116565b5050565b620002e0620006c7565b620002ea620006c7565b6200030885858584620004fb60201b620035ef17909392919060201c565b95945050505050565b6005546040805130606090811b60208084019190915260348084018690528451808503909101815260549093018452825192810192909220908601939093526000838152600690915281812080546001600160a01b0319166001600160a01b038816179055905182917fb5e6e01e79f91267dc17b4e6314d5d4d03593d2ceee0fbb452b750bd70ea5af991a26003546001600160a01b0316634000aea08584620003c4876001600160e01b036200054716565b6040518463ffffffff1660e01b815260040180846001600160a01b03166001600160a01b0316815260200183815260200180602001828103825283818151815260200191508051906020019080838360005b838110156200043057818101518382015260200162000416565b50505050905090810190601f1680156200045e5780820380516001836020036101000a031916815260200191505b50945050505050602060405180830381600087803b1580156200048057600080fd5b505af115801562000495573d6000803e3d6000fd5b505050506040513d6020811015620004ac57600080fd5b5051620004eb5760405162461bcd60e51b8152600401808060200182810382526023815260200180620045896023913960400191505060405180910390fd5b6005805460010190559392505050565b62000505620006c7565b6200052285608001516101006200068a60201b620037951760201c565b50509183526001600160a01b031660208301526001600160e01b031916604082015290565b6060634042994660e01b6000808460000151856020015186604001518760600151600189608001516000015160405160240180896001600160a01b03166001600160a01b03168152602001888152602001878152602001866001600160a01b03166001600160a01b03168152602001856001600160e01b0319166001600160e01b031916815260200184815260200183815260200180602001828103825283818151815260200191508051906020019080838360005b8381101562000617578181015183820152602001620005fd565b50505050905090810190601f168015620006455780820380516001836020036101000a031916815260200191505b5060408051601f198184030181529190526020810180516001600160e01b03166001600160e01b0319909d169c909c17909b5250989950505050505050505050919050565b62000694620006fe565b6020820615620006aa5760208206602003820191505b506020828101829052604080518085526000815290920101905290565b6040805160a081018252600080825260208201819052918101829052606081019190915260808101620006f9620006fe565b905290565b604051806040016040528060608152602001600081525090565b613e6180620007286000396000f3fe608060405234801561001057600080fd5b50600436106102d35760003560e01c8063715018a611610186578063ada02e19116100e3578063be22f54611610097578063f2fde38b11610071578063f2fde38b14610615578063f745adfc1461063b578063fe7da9e914610643576102d3565b8063be22f546146105e3578063dfd78adc146105eb578063e804f164146105f3576102d3565b8063ae12894e116100c8578063ae12894e146105b6578063b594f086146105be578063bbe3b926146105db576102d3565b8063ada02e19146105a6578063adf45ef2146105ae576102d3565b8063898855ed1161013a578063a3f73c2d1161011f578063a3f73c2d14610570578063a46268a814610596578063aa055a401461059e576102d3565b8063898855ed1461054b5780638da5cb5b14610568576102d3565b80637c0260cb1161016b5780637c0260cb146105195780638155e977146105215780638646bcec14610543576102d3565b8063715018a6146104eb57806376eada91146104f3576102d3565b80633bcd97d4116102345780635ca8f92c116101e857806369e527da116101cd57806369e527da1461048357806369e7af431461048b5780636e8055a7146104e3576102d3565b80635ca8f92c14610413578063604d394314610463576102d3565b80634c5e7893116102195780634c5e7893146103e35780634ffb660c146103eb5780635aa33a2d1461040b576102d3565b80633bcd97d4146103d3578063431a16ef146103db576102d3565b806313c2bedc1161028b5780631b9dbc60116102705780631b9dbc60146103a05780632016a206146103a857806331960027146103cb576102d3565b806313c2bedc1461035957806318b9533b1461037a576102d3565b80630aab4569116102bc5780630aab4569146103165780630b78cb0e146103355780630fb5a6b414610351576102d3565b806306fdde03146102d857806309ea165d146102f2575b600080fd5b6102e0610660565b60408051918252519081900360200190f35b6102fa610666565b604080516001600160a01b039092168252519081900360200190f35b6103336004803603602081101561032c57600080fd5b5035610675565b005b61033d610741565b604080519115158252519081900360200190f35b6102e0610751565b610361610757565b60408051600392830b90920b8252519081900360200190f35b6103336004803603602081101561039057600080fd5b50356001600160a01b031661076a565b610333610776565b610333600480360360408110156103be57600080fd5b5080359060200135610a1c565b610333610acf565b61033d610d13565b610333610d33565b610333610e8b565b6103336004803603602081101561040157600080fd5b503560030b610ff8565b61033d6110c0565b610333600480360360e081101561042957600080fd5b506001600160a01b038135811691602081013591604082013591606081013582169160808201359160a08101359160c090910135166110d0565b61046b611179565b6040805162ffffff9092168252519081900360200190f35b6102fa61118b565b61049361119a565b60408051602080825283518183015283519192839290830191858101910280838360005b838110156104cf5781810151838201526020016104b7565b505050509050019250505060405180910390f35b6102fa611254565b61033361126b565b6102fa6004803603602081101561050957600080fd5b50356001600160a01b031661130d565b6103336113af565b6103336004803603602081101561053757600080fd5b503562ffffff16611487565b61046b611531565b6103336004803603602081101561056157600080fd5b503561153c565b6102fa6115cf565b6103336004803603602081101561058657600080fd5b50356001600160a01b03166115de565b61033d6116d3565b6103336116e3565b610333611899565b61033d611aaa565b6102fa611ab2565b610333600480360360208110156105d457600080fd5b5035611ac1565b610333611b54565b6102fa611d58565b610493611d67565b6103336004803603602081101561060957600080fd5b503562ffffff16611e1f565b6103336004803603602081101561062b57600080fd5b50356001600160a01b0316611ed7565b6102e0611fcf565b6103336004803603602081101561065957600080fd5b5035611fd5565b60105481565b6017546001600160a01b031681565b60008181526006602052604090205481906001600160a01b031633146106cc5760405162461bcd60e51b8152600401808060200182810382526028815260200180613e046028913960400191505060405180910390fd5b60008181526006602052604080822080546001600160a01b03191690555182917f7cc135e0cebb02c3480ae5d74d377283180a2601f8f644edf7987b009316c63a91a25050600780547fffffffffffffffff00ffffffffffffffffffffffffffffffffffffffffffffff16600160b81b179055565b600754600160a01b900460ff1681565b60135481565b6011546601000000000000900460030b81565b61077381611ed7565b50565b61077e6115cf565b6001600160a01b031661078f612068565b6001600160a01b031614156107d55760405162461bcd60e51b815260040180806020018281038252602d815260200180613caa602d913960400191505060405180910390fd5b6007546001600160a01b03166316ded1ce6107ee612068565b6040518263ffffffff1660e01b815260040180826001600160a01b03166001600160a01b0316815260200191505060206040518083038186803b15801561083457600080fd5b505afa158015610848573d6000803e3d6000fd5b505050506040513d602081101561085e57600080fd5b505161089b5760405162461bcd60e51b8152600401808060200182810382526024815260200180613db66024913960400191505060405180910390fd5b600754600160a01b900460ff166108f9576040805162461bcd60e51b815260206004820152601e60248201527f436c617373726f6f6d3a206170706c69636174696f6e7320636c6f7365640000604482015290519081900360640190fd5b6000610903612068565b9050601160069054906101000a900460030b60030b816001600160a01b031663efedc6696040518163ffffffff1660e01b815260040160206040518083038186803b15801561095157600080fd5b505afa158015610965573d6000803e3d6000fd5b505050506040513d602081101561097b57600080fd5b505160030b12156109bd5760405162461bcd60e51b815260040180806020018281038252602c815260200180613bcf602c913960400191505060405180910390fd5b60006109c88261206c565b600880546001810182556000919091527ff3f7a9fe364faab93b216da50a3214154f22a0a2b415b23a84c8169e8b636ee30180546001600160a01b0319166001600160a01b03929092169190911790555050565b60008281526006602052604090205482906001600160a01b03163314610a735760405162461bcd60e51b8152600401808060200182810382526028815260200180613e046028913960400191505060405180910390fd5b60008181526006602052604080822080546001600160a01b03191690555182917f7cc135e0cebb02c3480ae5d74d377283180a2601f8f644edf7987b009316c63a91a2610abf8261226b565b8051602090910120600f55505050565b610ad7612068565b6000546001600160a01b03908116911614610b27576040805162461bcd60e51b81526020600482018190526024820152600080516020613d42833981519152604482015290519081900360640190fd5b6018546001600160a01b0316610b84576040805162461bcd60e51b815260206004820152601e60248201527f436c617373726f6f6d3a207365747570206f7261636c65732066697273740000604482015290519081900360640190fd5b600754600160a01b900460ff1615610bcd5760405162461bcd60e51b815260040180806020018281038252602a815260200180613dda602a913960400191505060405180910390fd5b60085415610c0c5760405162461bcd60e51b8152600401808060200182810382526022815260200180613c886022913960400191505060405180910390fd5b601d54601a54610c219163ffffffff61229516565b601e54604080516370a0823160e01b815230600482015290516001600160a01b03909216916370a0823191602480820192602092909190829003018186803b158015610c6c57600080fd5b505afa158015610c80573d6000803e3d6000fd5b505050506040513d6020811015610c9657600080fd5b50511015610cd55760405162461bcd60e51b8152600401808060200182810382526021815260200180613b886021913960400191505060405180910390fd5b6007805460ff60a01b1916600160a01b1790556040517fa5d188159e8a15dc503f9fde55e9da14c8b2ca589603e2567481c0ef90b7972090600090a1565b600954600854600091610d2c919063ffffffff61229516565b1590505b90565b610d3b612068565b6000546001600160a01b03908116911614610d8b576040805162461bcd60e51b81526020600482018190526024820152600080516020613d42833981519152604482015290519081900360640190fd5b600754600160b81b900460ff16610dd35760405162461bcd60e51b8152600401808060200182810382526024815260200180613cf86024913960400191505060405180910390fd5b600954610e27576040805162461bcd60e51b815260206004820152601a60248201527f436c617373726f6f6d3a206e6f206170706c69636174696f6e73000000000000604482015290519081900360640190fd5b610e2f6122f8565b600e55600780547fffffffffffffffffffff00ffffffffffffffffffffffffffffffffffffffffff16600160a81b1790556040517fadfcc9bbc47b33710f82544eeff8bd0f98c6f78f190e915bd81f4a9dacfdc77790600090a1565b610e93612068565b6000546001600160a01b03908116911614610ee3576040805162461bcd60e51b81526020600482018190526024820152600080516020613d42833981519152604482015290519081900360640190fd5b6014546001600160a01b03166323b872dd30610efd6115cf565b601454604080516370a0823160e01b815230600482015290516001600160a01b03909216916370a0823191602480820192602092909190829003018186803b158015610f4857600080fd5b505afa158015610f5c573d6000803e3d6000fd5b505050506040513d6020811015610f7257600080fd5b5051604080516001600160e01b031960e087901b1681526001600160a01b0394851660048201529290931660248301526044820152905160648083019260209291908290030181600087803b158015610fca57600080fd5b505af1158015610fde573d6000803e3d6000fd5b505050506040513d6020811015610ff457600080fd5b5050565b611000612068565b6000546001600160a01b03908116911614611050576040805162461bcd60e51b81526020600482018190526024820152600080516020613d42833981519152604482015290519081900360640190fd5b60118054600383810b63ffffffff16660100000000000090810269ffffffff0000000000001990931692909217928390556040805192909304810b810b900b815290517f258981eaba02423980e2973ff2ae3bbbba3cc807a5b73faf8f0b068dd7b2af649181900360200190a150565b600754600160a81b900460ff1681565b6110d8612068565b6000546001600160a01b03908116911614611128576040805162461bcd60e51b81526020600482018190526024820152600080516020613d42833981519152604482015290519081900360640190fd5b601880546001600160a01b039889166001600160a01b031991821617909155601996909655601a94909455601b805493871693861693909317909255601c55601d55601e8054919093169116179055565b6011546301000000900462ffffff1681565b6015546001600160a01b031681565b60606111a4612068565b6000546001600160a01b039081169116146111f4576040805162461bcd60e51b81526020600482018190526024820152600080516020613d42833981519152604482015290519081900360640190fd5b600b80548060200260200160405190810160405280929190818152602001828054801561124a57602002820191906000526020600020905b81546001600160a01b0316815260019091019060200180831161122c575b5050505050905090565b6000611266611261612068565b61130d565b905090565b611273612068565b6000546001600160a01b039081169116146112c3576040805162461bcd60e51b81526020600482018190526024820152600080516020613d42833981519152604482015290519081900360640190fd5b600080546040516001600160a01b03909116907f8be0079c531659141344cd1fd0a4f28419497f9722a3daafe3b4186f6b6457e0908390a3600080546001600160a01b0319169055565b6000611317612068565b6001600160a01b0316826001600160a01b0316148061135557506113396115cf565b6001600160a01b031661134a612068565b6001600160a01b0316145b6113905760405162461bcd60e51b8152600401808060200182810382526021815260200180613c676021913960400191505060405180910390fd5b506001600160a01b039081166000908152600a60205260409020541690565b6113b7612068565b6000546001600160a01b03908116911614611407576040805162461bcd60e51b81526020600482018190526024820152600080516020613d42833981519152604482015290519081900360640190fd5b600754600160a01b900460ff1661144f5760405162461bcd60e51b815260040180806020018281038252602a815260200180613d8c602a913960400191505060405180910390fd5b6007805460ff60a01b191690556040517f747a4734f50e3ae237b3afeeac30a2d2c7cb965cc122fb9680050fd533b7c0f590600090a1565b61148f612068565b6000546001600160a01b039081169116146114df576040805162461bcd60e51b81526020600482018190526024820152600080516020613d42833981519152604482015290519081900360640190fd5b6011805462ffffff191662ffffff838116919091179182905560408051929091168252517fa24cdd22388a51f932026d20d3229c1d693385bb9ac176742e0e40b4586c2447916020908290030190a150565b60115462ffffff1681565b611544612068565b6000546001600160a01b03908116911614611594576040805162461bcd60e51b81526020600482018190526024820152600080516020613d42833981519152604482015290519081900360640190fd5b60108190556040805182815290517f9f8929be552430dd6434c446d106c34954b2040ca8c4dbf42a39323dd6cda3ca9181900360200190a150565b6000546001600160a01b031690565b6115e6612068565b6000546001600160a01b03908116911614611636576040805162461bcd60e51b81526020600482018190526024820152600080516020613d42833981519152604482015290519081900360640190fd5b61163e610d13565b6116795760405162461bcd60e51b8152600401808060200182810382526025815260200180613bfb6025913960400191505060405180910390fd5b601780546001600160a01b0319166001600160a01b03838116919091179182905560408051929091168252517fdc58b28697ffd1bd5879b16631587874caec982b482d7ed05df69a5302f6e018916020908290030190a150565b600754600160b01b900460ff1681565b6116eb612068565b6000546001600160a01b0390811691161461173b576040805162461bcd60e51b81526020600482018190526024820152600080516020613d42833981519152604482015290519081900360640190fd5b600754600160a81b900460ff16611799576040805162461bcd60e51b815260206004820152601e60248201527f436c617373726f6f6d3a20636f75727365206e6f742066696e69736865640000604482015290519081900360640190fd5b601454604080516370a0823160e01b815230600482015290516001600160a01b03909216916370a0823191602480820192602092909190829003018186803b1580156117e457600080fd5b505afa1580156117f8573d6000803e3d6000fd5b505050506040513d602081101561180e57600080fd5b5051600e5411156118505760405162461bcd60e51b8152600401808060200182810382526024815260200180613c436024913960400191505060405180910390fd5b60008061185b61242a565b915091506000606061186d848461257a565b9150915061187a816129ba565b61188382612abd565b61188b612b2f565b611893612ee3565b50505050565b6118a1612068565b6000546001600160a01b039081169116146118f1576040805162461bcd60e51b81526020600482018190526024820152600080516020613d42833981519152604482015290519081900360640190fd5b601454604080516370a0823160e01b815230600482015290516000926001600160a01b0316916370a08231916024808301926020929190829003018186803b15801561193c57600080fd5b505afa158015611950573d6000803e3d6000fd5b505050506040513d602081101561196657600080fd5b50519050806119755750611aa8565b601454601554604080517f095ea7b30000000000000000000000000000000000000000000000000000000081526001600160a01b039283166004820152602481018590529051919092169163095ea7b39160448083019260209291908290030181600087803b1580156119e757600080fd5b505af11580156119fb573d6000803e3d6000fd5b505050506040513d6020811015611a1157600080fd5b5050601554604080517fa0712d680000000000000000000000000000000000000000000000000000000081526004810184905290516001600160a01b039092169163a0712d68916024808201926020929091908290030181600087803b158015611a7a57600080fd5b505af1158015611a8e573d6000803e3d6000fd5b505050506040513d6020811015611aa457600080fd5b5050505b565b600954151590565b6007546001600160a01b031681565b611ac9612068565b6000546001600160a01b03908116911614611b19576040805162461bcd60e51b81526020600482018190526024820152600080516020613d42833981519152604482015290519081900360640190fd5b60138190556040805182815290517fa67f34afb53d068e81607cde52dc74c58cbf6a05eac699e5543b97d25e3ca5cb9181900360200190a150565b611b5c612068565b6000546001600160a01b03908116911614611bac576040805162461bcd60e51b81526020600482018190526024820152600080516020613d42833981519152604482015290519081900360640190fd5b600754600160a01b900460ff1615611bf55760405162461bcd60e51b8152600401808060200182810382526026815260200180613d1c6026913960400191505060405180910390fd5b601454604080516370a0823160e01b815230600482015290516001600160a01b03909216916370a0823191602480820192602092909190829003018186803b158015611c4057600080fd5b505afa158015611c54573d6000803e3d6000fd5b505050506040513d6020811015611c6a57600080fd5b505115611ca85760405162461bcd60e51b815260040180806020018281038252602a815260200180613d62602a913960400191505060405180910390fd5b611cb0612f3e565b6040805160008152602081019182905251611ccd91600891613aaf565b50600954611d22576040805162461bcd60e51b815260206004820152601f60248201527f436c617373726f6f6d3a206e6f207265616479206170706c69636174696f6e00604482015290519081900360640190fd5b600780547fffffffffffffffffff00ffffffffffffffffffffffffffffffffffffffffffff16600160b01b179055611aa8613139565b6014546001600160a01b031681565b6060611d71612068565b6000546001600160a01b03908116911614611dc1576040805162461bcd60e51b81526020600482018190526024820152600080516020613d42833981519152604482015290519081900360640190fd5b600c80548060200260200160405190810160405280929190818152602001828054801561124a576020028201919060005260206000209081546001600160a01b0316815260019091019060200180831161122c575050505050905090565b611e27612068565b6000546001600160a01b03908116911614611e77576040805162461bcd60e51b81526020600482018190526024820152600080516020613d42833981519152604482015290519081900360640190fd5b6011805462ffffff808416630100000090810265ffffff000000199093169290921792839055604080519290930416815290517f9d9f9ef51b12eb719684b7a2e09fc2f7e916cb0e229aecf5658ce6326dfeb1c59181900360200190a150565b611edf612068565b6000546001600160a01b03908116911614611f2f576040805162461bcd60e51b81526020600482018190526024820152600080516020613d42833981519152604482015290519081900360640190fd5b6001600160a01b038116611f745760405162461bcd60e51b8152600401808060200182810382526026815260200180613ba96026913960400191505060405180910390fd5b600080546040516001600160a01b03808516939216917f8be0079c531659141344cd1fd0a4f28419497f9722a3daafe3b4186f6b6457e091a3600080546001600160a01b0319166001600160a01b0392909216919091179055565b60125481565b611fdd612068565b6000546001600160a01b0390811691161461202d576040805162461bcd60e51b81526020600482018190526024820152600080516020613d42833981519152604482015290519081900360640190fd5b60128190556040805182815290517f84e881bf3fcef92f709a2a62150da178a998fbff128c017f3e846787a2f7f5f59181900360200190a150565b3390565b60165460145460175460009283926001600160a01b039182169263268e5d1d9287923092908216911661209d6131da565b604080516001600160e01b031960e089901b1681526001600160a01b03968716600482015294861660248601529285166044850152931660648301526084820192909252905160a48083019260209291908290030181600087803b15801561210457600080fd5b505af1158015612118573d6000803e3d6000fd5b505050506040513d602081101561212e57600080fd5b50516001600160a01b038481166000818152600a602052604080822080546001600160a01b03191685871690811790915560075482517f183b26000000000000000000000000000000000000000000000000000000000081526004810195909552602485019190915290519495509092169263183b26009260448084019391929182900301818387803b1580156121c457600080fd5b505af11580156121d8573d6000803e3d6000fd5b5050600b805460018181019092557f0175b7a638427703f0dbe7bb9bbf987a2551717b34e79f33b5b1008d1fa01db90180546001600160a01b038089166001600160a01b031992831617909255600c805493840181556000527fdf6966c971051c3d54ec59162606531493a51404a002842f56009d7e5cf4a8c79092018054918616919092161790555090915050919050565b60408051602080825281830190925260609160208201818036833750505060208101929092525090565b6000828201838110156122ef576040805162461bcd60e51b815260206004820152601b60248201527f536166654d6174683a206164646974696f6e206f766572666c6f770000000000604482015290519081900360640190fd5b90505b92915050565b601554604080517f3af9e669000000000000000000000000000000000000000000000000000000008152306004820152905160009283926001600160a01b0390911691633af9e6699160248082019260209290919082900301818787803b15801561236257600080fd5b505af1158015612376573d6000803e3d6000fd5b505050506040513d602081101561238c57600080fd5b5051601554604080517f852a12e30000000000000000000000000000000000000000000000000000000081526004810184905290519293506001600160a01b039091169163852a12e3916024808201926020929091908290030181600087803b1580156123f857600080fd5b505af115801561240c573d6000803e3d6000fd5b505050506040513d602081101561242257600080fd5b509091505090565b6000808080805b600954811015612570576009818154811061244857fe5b6000918252602082200154604080517f289cf0d200000000000000000000000000000000000000000000000000000000815290516001600160a01b039092169263289cf0d29260048084019382900301818387803b1580156124a957600080fd5b505af11580156124bd573d6000803e3d6000fd5b505050506000600982815481106124d057fe5b60009182526020918290200154604080516332c3db0f60e11b815290516001600160a01b0390921692636587b61e92600480840193829003018186803b15801561251957600080fd5b505afa15801561252d573d6000803e3d6000fd5b505050506040513d602081101561254357600080fd5b505190506003811415612557576001909301925b8060051415612567576001909201915b50600101612431565b5090925090509091565b60095460125460009160609183906125ab9061259c908463ffffffff6131e416565b600e549063ffffffff61323d16565b6011546012549192506000916125e091620f4240916125d49162ffffff1663ffffffff6131e416565b9063ffffffff61329a16565b905060006125f98260125461323d90919063ffffffff16565b90506000612611856125d4868c63ffffffff6131e416565b60115490915060009061263a90620f4240906125d49085906301000000900462ffffff166131e4565b905060006126528b6125d4888563ffffffff61323d16565b905060608767ffffffffffffffff8111801561266d57600080fd5b50604051908082528060200260200182016040528015612697578160200160208202803683370190505b50905060005b88811015612907576000600982815481106126b457fe5b60009182526020918290200154604080516332c3db0f60e11b815290516001600160a01b0390921692636587b61e92600480840193829003018186803b1580156126fd57600080fd5b505afa158015612711573d6000803e3d6000fd5b505050506040513d602081101561272757600080fd5b5051905060038114156127db576009828154811061274157fe5b600091825260208220015460408051637db9abaf60e01b8152600481018b90526024810188905290516001600160a01b0390921692637db9abaf9260448084019382900301818387803b15801561279757600080fd5b505af11580156127ab573d6000803e3d6000fd5b505050506127c2848861229590919063ffffffff16565b8383815181106127ce57fe5b6020026020010181815250505b806004141561287957600982815481106127f157fe5b600091825260208220015460408051637db9abaf60e01b8152600481018b90526024810184905290516001600160a01b0390921692637db9abaf9260448084019382900301818387803b15801561284757600080fd5b505af115801561285b573d6000803e3d6000fd5b505050508683838151811061286c57fe5b6020026020010181815250505b80600514156128fe576009828154811061288f57fe5b600091825260208220015460408051637db9abaf60e01b8152600481018490526024810184905290516001600160a01b0390921692637db9abaf9260448084019382900301818387803b1580156128e557600080fd5b505af11580156128f9573d6000803e3d6000fd5b505050505b5060010161269d565b50600754604080517fe6fd604c00000000000000000000000000000000000000000000000000000000815290516000926001600160a01b03169163e6fd604c916004808301926020929190829003018186803b15801561296657600080fd5b505afa15801561297a573d6000803e3d6000fd5b505050506040513d602081101561299057600080fd5b50516012549091506129a7908d9086848d8c613304565b9d919c50909a5050505050505050505050565b60005b600954811015610ff45760008282815181106129d557fe5b60200260200101511115612ab557601454600980546001600160a01b039092169163095ea7b3919084908110612a0757fe5b9060005260206000200160009054906101000a90046001600160a01b0316848481518110612a3157fe5b60200260200101516040518363ffffffff1660e01b815260040180836001600160a01b03166001600160a01b0316815260200182815260200192505050602060405180830381600087803b158015612a8857600080fd5b505af1158015612a9c573d6000803e3d6000fd5b505050506040513d6020811015612ab257600080fd5b50505b6001016129bd565b601454600754604080517fa9059cbb0000000000000000000000000000000000000000000000000000000081526001600160a01b039283166004820152602481018590529051919092169163a9059cbb9160448083019260209291908290030181600087803b158015611a7a57600080fd5b60005b60095481101561077357600060098281548110612b4b57fe5b60009182526020918290200154604080516332c3db0f60e11b815290516001600160a01b0390921692636587b61e92600480840193829003018186803b158015612b9457600080fd5b505afa158015612ba8573d6000803e3d6000fd5b505050506040513d6020811015612bbe57600080fd5b505190506003811415612cca57600754600980546001600160a01b03909216916387bfe188919085908110612bef57fe5b600091825260209182902001546040805163b8f31a8160e01b815290516001600160a01b039092169263b8f31a8192600480840193829003018186803b158015612c3857600080fd5b505afa158015612c4c573d6000803e3d6000fd5b505050506040513d6020811015612c6257600080fd5b5051604080516001600160e01b031960e085901b1681526001600160a01b0390921660048301526001602483015251604480830192600092919082900301818387803b158015612cb157600080fd5b505af1158015612cc5573d6000803e3d6000fd5b505050505b8060041415612dd257600754600980546001600160a01b039092169163ff5d8f63919085908110612cf757fe5b600091825260209182902001546040805163b8f31a8160e01b815290516001600160a01b039092169263b8f31a8192600480840193829003018186803b158015612d4057600080fd5b505afa158015612d54573d6000803e3d6000fd5b505050506040513d6020811015612d6a57600080fd5b5051604080516001600160e01b031960e085901b1681526001600160a01b0390921660048301526001602483015251604480830192600092919082900301818387803b158015612db957600080fd5b505af1158015612dcd573d6000803e3d6000fd5b505050505b8060051415612eda57600754600980546001600160a01b039092169163ff5d8f63919085908110612dff57fe5b600091825260209182902001546040805163b8f31a8160e01b815290516001600160a01b039092169263b8f31a8192600480840193829003018186803b158015612e4857600080fd5b505afa158015612e5c573d6000803e3d6000fd5b505050506040513d6020811015612e7257600080fd5b5051604080516001600160e01b031960e085901b1681526001600160a01b0390921660048301526002602483015251604480830192600092919082900301818387803b158015612ec157600080fd5b505af1158015612ed5573d6000803e3d6000fd5b505050505b50600101612b32565b6040805160008152602081019182905251612f0091600991613aaf565b50612f09610e8b565b6000600e55600780547fffffffffffffffff00ff00ffffffffffffffffffffffffffffffffffffffffff169055611aa86133ac565b60005b6008548110156107735760088181548110612f5857fe5b60009182526020918290200154604080516332c3db0f60e11b815290516001600160a01b0390921692636587b61e92600480840193829003018186803b158015612fa157600080fd5b505afa158015612fb5573d6000803e3d6000fd5b505050506040513d6020811015612fcb57600080fd5b5051600114156130aa5760088181548110612fe257fe5b6000918252602082200154604080517f0f15f4c000000000000000000000000000000000000000000000000000000000815290516001600160a01b0390921692630f15f4c09260048084019382900301818387803b15801561304357600080fd5b505af1158015613057573d6000803e3d6000fd5b5050505060096008828154811061306a57fe5b60009182526020808320909101548354600181018555938352912090910180546001600160a01b0319166001600160a01b03909216919091179055613131565b600881815481106130b757fe5b6000918252602082200154604080517f79599f9600000000000000000000000000000000000000000000000000000000815290516001600160a01b03909216926379599f969260048084019382900301818387803b15801561311857600080fd5b505af115801561312c573d6000803e3d6000fd5b505050505b600101612f41565b613141613b14565b601c5461316f90307f0aab4569000000000000000000000000000000000000000000000000000000006133c3565b90506131bf6040518060400160405280600581526020017f756e74696c0000000000000000000000000000000000000000000000000000008152506013544201836133ee9092919063ffffffff16565b601b54601d54610ff4916001600160a01b0316908390613418565b600f546000401890565b6000826131f3575060006122f2565b8282028284828161320057fe5b04146122ef5760405162461bcd60e51b8152600401808060200182810382526021815260200180613cd76021913960400191505060405180910390fd5b600082821115613294576040805162461bcd60e51b815260206004820152601e60248201527f536166654d6174683a207375627472616374696f6e206f766572666c6f770000604482015290519081900360640190fd5b50900390565b60008082116132f0576040805162461bcd60e51b815260206004820152601a60248201527f536166654d6174683a206469766973696f6e206279207a65726f000000000000604482015290519081900360640190fd5b60008284816132fb57fe5b04949350505050565b600080613317888863ffffffff6131e416565b90506000613337620f42406125d48962ffffff8a1663ffffffff6131e416565b9050600061334b868b63ffffffff61323d16565b9050600061337b620f42406125d462ffffff8b1661336f8a8763ffffffff6131e416565b9063ffffffff6131e416565b905061339d81613391868663ffffffff61229516565b9063ffffffff61229516565b9b9a5050505050505050505050565b600140600f5416600040600f541617600f81905550565b6133cb613b14565b6133d3613b14565b6133e58186868663ffffffff6135ef16565b95945050505050565b6080830151613403908363ffffffff61362c16565b6080830151611aa4908263ffffffff61364916565b6005546040805130606090811b60208084019190915260348084018690528451808503909101815260549093018452825192810192909220908601939093526000838152600690915281812080546001600160a01b0319166001600160a01b038816179055905182917fb5e6e01e79f91267dc17b4e6314d5d4d03593d2ceee0fbb452b750bd70ea5af991a26003546001600160a01b0316634000aea085846134c087613655565b6040518463ffffffff1660e01b815260040180846001600160a01b03166001600160a01b0316815260200183815260200180602001828103825283818151815260200191508051906020019080838360005b8381101561352a578181015183820152602001613512565b50505050905090810190601f1680156135575780820380516001836020036101000a031916815260200191505b50945050505050602060405180830381600087803b15801561357857600080fd5b505af115801561358c573d6000803e3d6000fd5b505050506040513d60208110156135a257600080fd5b50516135df5760405162461bcd60e51b8152600401808060200182810382526023815260200180613c206023913960400191505060405180910390fd5b6005805460010190559392505050565b6135f7613b14565b6136078560800151610100613795565b50509183526001600160a01b031660208301526001600160e01b031916604082015290565b61363982600383516137cf565b611aa4828263ffffffff6138d916565b610ff4826000836137cf565b6060634042994660e01b6000808460000151856020015186604001518760600151600189608001516000015160405160240180896001600160a01b03166001600160a01b03168152602001888152602001878152602001866001600160a01b03166001600160a01b03168152602001856001600160e01b0319166001600160e01b031916815260200184815260200183815260200180602001828103825283818151815260200191508051906020019080838360005b8381101561372357818101518382015260200161370b565b50505050905090810190601f1680156137505780820380516001836020036101000a031916815260200191505b5060408051601f198184030181529190526020810180516001600160e01b03166001600160e01b0319909d169c909c17909b5250989950505050505050505050919050565b61379d613b49565b60208206156137b25760208206602003820191505b506020828101829052604080518085526000815290920101905290565b601781116137f6576137f08360e0600585901b16831763ffffffff6138f316565b50611aa4565b60ff811161382c57613819836018611fe0600586901b161763ffffffff6138f316565b506137f08382600163ffffffff61390b16565b61ffff811161386357613850836019611fe0600586901b161763ffffffff6138f316565b506137f08382600263ffffffff61390b16565b63ffffffff811161389c5761388983601a611fe0600586901b161763ffffffff6138f316565b506137f08382600463ffffffff61390b16565b67ffffffffffffffff8111611aa4576138c683601b611fe0600586901b161763ffffffff6138f316565b506118938382600863ffffffff61390b16565b6138e1613b49565b6122ef8384600001515184855161392c565b6138fb613b49565b6122ef83846000015151846139d8565b613913613b49565b613924848560000151518585613a23565b949350505050565b613934613b49565b825182111561394257600080fd5b8460200151828501111561396c5761396c856139648760200151878601613a81565b600202613a98565b60008086518051876020830101935080888701111561398b5787860182525b505050602084015b602084106139b25780518252601f199093019260209182019101613993565b51815160001960208690036101000a019081169019919091161790525083949350505050565b6139e0613b49565b836020015183106139fc576139fc848560200151600202613a98565b835180516020858301018481535080851415613a19576001810182525b5093949350505050565b613a2b613b49565b84602001518483011115613a4857613a4885858401600202613a98565b60006001836101000a039050855183868201018583198251161781525080518487011115613a765783860181525b509495945050505050565b600081831115613a925750816122f2565b50919050565b8151613aa48383613795565b5061189383826138d9565b828054828255906000526020600020908101928215613b04579160200282015b82811115613b0457825182546001600160a01b0319166001600160a01b03909116178255602090920191600190910190613acf565b50613b10929150613b63565b5090565b6040805160a081018252600080825260208201819052918101829052606081019190915260808101613b44613b49565b905290565b604051806040016040528060608152602001600081525090565b610d3091905b80821115613b105780546001600160a01b0319168155600101613b6956fe436c617373726f6f6d3a206e6f7420656e6f756768204c696e6b20746f6b656e734f776e61626c653a206e6577206f776e657220697320746865207a65726f2061646472657373436c617373726f6f6d3a2073747564656e7420646f65736e2774206861766520656e6f7567682073636f7265436c617373726f6f6d3a2063616e2774206368616e6765206368616c6c656e6765206e6f77756e61626c6520746f207472616e73666572416e6443616c6c20746f206f7261636c65436c617373726f6f6d3a206e6f7420656e6f7567682044414920746f2070726f63656564436c617373726f6f6d3a2072656164207065726d697373696f6e2064656e696564436c617373726f6f6d3a2073747564656e7473206c697374206e6f7420656d707479436c617373726f6f6d3a2070726f666573736f722063616e277420626520697473206f776e2073747564656e74536166654d6174683a206d756c7469706c69636174696f6e206f766572666c6f77436c617373726f6f6d3a20746f6f20736f6f6e20746f2066696e69736820636f75727365436c617373726f6f6d3a206170706c69636174696f6e7320617265207374696c6c206f70656e4f776e61626c653a2063616c6c6572206973206e6f7420746865206f776e6572436c617373726f6f6d3a20696e7665737420616c6c2062616c616e6365206265666f726520626567696e436c617373726f6f6d3a206170706c69636174696f6e732061726520616c726561647920636c6f736564436c617373726f6f6d3a2073747564656e74206973206e6f742072656769737465726564436c617373726f6f6d3a206170706c69636174696f6e732061726520616c7265616479206f70656e6564536f75726365206d75737420626520746865206f7261636c65206f66207468652072657175657374a2646970667358221220debe8e4597bffb6b48fa3162bef9c9ee94824f39e3dab91a497df901442d3abc64736f6c63430006060033756e61626c6520746f207472616e73666572416e6443616c6c20746f206f7261636c65",
  "immutableReferences": {},
  "source": "pragma solidity 0.6.6;\n\nimport \"@openzeppelin/contracts/math/SafeMath.sol\";\nimport \"@openzeppelin/contracts/access/AccessControl.sol\";\nimport \"@openzeppelin/contracts/access/Ownable.sol\";\nimport \"@openzeppelin/contracts/token/ERC20/IERC20.sol\";\nimport \"@openzeppelin/contracts/utils/Address.sol\";\nimport \"@chainlink/contracts/src/v0.6/ChainlinkClient.sol\";\nimport \"@chainlink/contracts/src/v0.6/interfaces/LinkTokenInterface.sol\";\nimport \"./interface/IUniversity.sol\";\nimport \"./interface/IStudent.sol\";\nimport \"./interface/IClassroom.sol\";\nimport \"./interface/IStudentApplication.sol\";\nimport \"./interface/IClassroomChallenge.sol\";\nimport \"./interface/IStudentApplicationFactory.sol\";\nimport \"./StudentApplicationFactory.sol\";\nimport \"./MyUtils.sol\";\n\n\ncontract Classroom is Ownable, ChainlinkClient, IClassroom {\n    IUniversity public university;\n    bool public openForApplication;\n    bool public courseFinished;\n    bool public classroomActive;\n    bool _timestampAlarm;\n    address[] _studentApplications;\n    address[] _validStudentApplications;\n    mapping(address => address) _studentApplicationsLink;\n    address[] _studentsLookUp;\n    address[] _applicationsLookUp;\n    uint256 _endDate;\n    uint256 _totalBalance;\n    bytes32 _seed;\n\n    //Classroom parameters\n    bytes32 public name;\n    uint24 public principalCut;\n    uint24 public poolCut;\n    int32 public minScore;\n    uint256 public override entryPrice;\n    uint256 public duration;\n\n    IERC20 public daiToken;\n    CERC20 public cToken;\n    StudentApplicationFactory _studentApplicationFactory;\n    address public _challengeAddress;\n\n    address _oracleRandom;\n    bytes32 _requestIdRandom;\n    uint256 _oraclePaymentRandom;\n    address _oracleTimestamp;\n    bytes32 _requestIdTimestamp;\n    uint256 _oraclePaymentTimestamp;\n    address _linkToken;\n\n    constructor(\n        bytes32 _name,\n        uint24 _principalCut,\n        uint24 _poolCut,\n        int32 _minScore,\n        uint256 _entryPrice,\n        uint256 _duration,\n        address payable universityAddress,\n        address challengeAddress,\n        address daiAddress,\n        address compoundAddress,\n        address studentApplicationFactoryAddress\n    ) public {\n        name = _name;\n        principalCut = _principalCut;\n        poolCut = _poolCut;\n        minScore = _minScore;\n        entryPrice = _entryPrice;\n        duration = _duration;\n        university = IUniversity(universityAddress);\n        _challengeAddress = challengeAddress;\n        openForApplication = false;\n        classroomActive = false;\n        daiToken = IERC20(daiAddress);\n        cToken = CERC20(compoundAddress);\n        _studentApplicationFactory = StudentApplicationFactory(studentApplicationFactoryAddress);\n        _generateSeed();\n    }\n\n    event LogOpenApplications();\n    event LogCloseApplications();\n    event LogCourseFinished();\n    event LogChangeChallenge(address);\n    event LogChangeName(bytes32);\n    event LogChangePrincipalCut(uint24);\n    event LogChangePoolCut(uint24);\n    event LogChangeMinScore(int32);\n    event LogChangeEntryPrice(uint256);\n    event LogChangeDuration(uint256);\n\n    // @dev \"Stack too deep\" error if done in the constructor\n    function configureOracles(\n        address oracleRandom,\n        bytes32 requestIdRandom,\n        uint256 oraclePaymentRandom,\n        address oracleTimestamp,\n        bytes32 requestIdTimestamp,\n        uint256 oraclePaymentTimestamp,\n        address linkToken\n    ) public onlyOwner {\n        _oracleRandom = oracleRandom;\n        _requestIdRandom = requestIdRandom;\n        _oraclePaymentRandom = oraclePaymentRandom;\n        _oracleTimestamp = oracleTimestamp;\n        _requestIdTimestamp = requestIdTimestamp;\n        _oraclePaymentTimestamp = oraclePaymentTimestamp;\n        _linkToken = linkToken;\n    }\n\n    function transferOwnershipClassroom(address newOwner) public override {\n        transferOwnership(newOwner);\n    }\n\n    //TODO: Buy LINK with DAI using Uniswap\n\n    function changeName(bytes32 val) public onlyOwner {\n        name = val;\n        emit LogChangeName(name);\n    }\n\n    function changePrincipalCut(uint24 val) public onlyOwner {\n        principalCut = val;\n        emit LogChangePrincipalCut(principalCut);\n    }\n\n    function changePoolCut(uint24 val) public onlyOwner {\n        poolCut = val;\n        emit LogChangePoolCut(poolCut);\n    }\n\n    function changeMinScore(int32 val) public onlyOwner {\n        minScore = val;\n        emit LogChangeMinScore(minScore);\n    }\n\n    function changeEntryPrice(uint256 val) public onlyOwner {\n        entryPrice = val;\n        emit LogChangeEntryPrice(entryPrice);\n    }\n\n    function changeDuration(uint256 val) public onlyOwner {\n        duration = val;\n        emit LogChangeDuration(duration);\n    }\n\n    function changeChallenge(address addr) public onlyOwner {\n        require(isClassroomEmpty(), \"Classroom: can't change challenge now\");\n        _challengeAddress = addr;\n        emit LogChangeChallenge(_challengeAddress);\n    }\n\n    function viewAllApplications()\n        public\n        view\n        onlyOwner\n        returns (address[] memory)\n    {\n        return _applicationsLookUp;\n    }\n\n    function viewMyApplication() public view override returns (address) {\n        return viewApplication(_msgSender());\n    }\n\n    function viewApplication(address addr) public view returns (address) {\n        require(\n            addr == _msgSender() || _msgSender() == owner(),\n            \"Classroom: read permission denied\"\n        );\n        return _studentApplicationsLink[addr];\n    }\n\n    function viewAllStudents()\n        public\n        view\n        onlyOwner\n        returns (address[] memory)\n    {\n        return _studentsLookUp;\n    }\n\n    function isClassroomEmpty() public view returns (bool) {\n        return\n            _studentApplications.length.add(_validStudentApplications.length) ==\n            0;\n    }\n\n    function isCourseOngoing() public view returns (bool) {\n        return _validStudentApplications.length > 0;\n    }\n\n    function openApplications() public onlyOwner {\n        require(\n            _oracleRandom != address(0),\n            \"Classroom: setup oracles first\"\n        );\n        require(\n            !openForApplication,\n            \"Classroom: applications are already opened\"\n        );\n        require(\n            _studentApplications.length == 0,\n            \"Classroom: students list not empty\"\n        );\n        require(\n            LinkTokenInterface(_linkToken).balanceOf(address(this)) >= _oraclePaymentRandom.add(_oraclePaymentTimestamp),\n            \"Classroom: not enough Link tokens\"\n        );\n        openForApplication = true;\n        emit LogOpenApplications();\n    }\n\n    function closeApplications() public onlyOwner {\n        require(\n            openForApplication,\n            \"Classroom: applications are already closed\"\n        );\n        openForApplication = false;\n        emit LogCloseApplications();\n    }\n\n    //public onlyOwner allow the professor to apply money before and after closing applications\n    function applyDAI() public onlyOwner {\n        uint256 balance = daiToken.balanceOf(address(this));\n        if (balance <= 0) return;\n        daiToken.approve(address(cToken), balance);\n        cToken.mint(balance);\n    }\n\n    function studentApply() public override {\n        require(\n            _msgSender() != owner(),\n            \"Classroom: professor can't be its own student\"\n        );\n        require(\n            university.studentIsRegistered(_msgSender()),\n            \"Classroom: student is not registered\"\n        );\n        require(openForApplication, \"Classroom: applications closed\");\n        IStudent applicant = IStudent(_msgSender());\n        require(\n            applicant.score() >= minScore,\n            \"Classroom: student doesn't have enough score\"\n        );\n        address application = _createStudentApplication(address(applicant));\n        _studentApplications.push(application);\n    }\n\n    function _createStudentApplication(address student)\n        internal\n        returns (address)\n    {\n        address newApplication = _studentApplicationFactory.newStudentApplication(\n            student,\n            address(this),\n            address(daiToken),\n            _challengeAddress,\n            generateNewSeed()\n        );\n        _studentApplicationsLink[student] = newApplication;\n        university.registerStudentApplication(\n            student,\n            newApplication\n        );\n        _studentsLookUp.push(student);\n        _applicationsLookUp.push(newApplication);\n        return newApplication;\n    }\n\n    function generateNewSeed() internal view returns (bytes32) {\n        return blockhash(0) ^ _seed;\n    }\n\n    function beginCourse() public onlyOwner {\n        require(!openForApplication, \"Classroom: applications are still open\");\n        require(\n            daiToken.balanceOf(address(this)) == 0,\n            \"Classroom: invest all balance before begin\"\n        );\n        checkApplications();\n        _studentApplications = new address[](0);\n        require(\n            _validStudentApplications.length > 0,\n            \"Classroom: no ready application\"\n        );\n        classroomActive = true;\n        _setAlarm();\n    }\n\n    function checkApplications() internal {\n        for (uint256 i = 0; i < _studentApplications.length; i++) {\n            if (IStudentApplication(_studentApplications[i]).applicationState() == 1) {\n                IStudentApplication(_studentApplications[i]).activate();\n                _validStudentApplications.push(_studentApplications[i]);\n            } else {\n                IStudentApplication(_studentApplications[i]).expire();\n            }\n        }\n    }\n\n    function finishCourse() public onlyOwner {\n        require(_timestampAlarm, \"Classroom: too soon to finish course\");\n        require(\n            _validStudentApplications.length > 0,\n            \"Classroom: no applications\"\n        );\n        _totalBalance = _recoverInvestment();\n        courseFinished = true;\n        emit LogCourseFinished();\n    }\n\n    function _recoverInvestment() internal returns (uint256) {\n        uint256 balance = cToken.balanceOfUnderlying(address(this));\n        cToken.redeemUnderlying(balance);\n        return balance;\n    }\n\n    function processResults() public onlyOwner {\n        require(courseFinished, \"Classroom: course not finished\");\n        require(\n            _totalBalance <= daiToken.balanceOf(address(this)),\n            \"Classroom: not enough DAI to proceed\"\n        );\n        (uint256 successCount, uint256 emptyCount) = _startAnswerVerification();\n        (\n            uint256 universityCut,\n            uint256[] memory studentAllowances\n        ) = _accountValues(successCount, emptyCount);\n        _resolveStudentAllowances(studentAllowances);\n        _resolveUniversityCut(universityCut);\n        _updateStudentScores();\n        _clearClassroom();\n    }\n\n    function _startAnswerVerification() internal returns (uint256, uint256) {\n        uint256 successCount = 0;\n        uint256 emptyCount = 0;\n        for (uint256 i = 0; i < _validStudentApplications.length; i++) {\n            IStudentApplication(_validStudentApplications[i]).registerFinalAnswer();\n            uint256 appState = IStudentApplication(_validStudentApplications[i]).applicationState();\n            if (appState == 3)\n                successCount++;\n            if (appState == 5)\n                emptyCount++;\n        }\n        return (successCount, emptyCount);\n    }\n\n    function _accountValues(uint256 successCount, uint256 emptyCount)\n        internal\n        returns (uint256, uint256[] memory)\n    {\n        uint256 nStudents = _validStudentApplications.length;\n        uint256 returnsPool = _totalBalance.sub(entryPrice.mul(nStudents));\n        uint256 professorPaymentPerStudent = entryPrice.mul(principalCut).div(\n            10**6\n        );\n        uint256 studentPrincipalReturn = entryPrice.sub(\n            professorPaymentPerStudent\n        );\n        uint256 successPool = returnsPool.mul(successCount).div(nStudents);\n        uint256 professorTotalPoolSuccessShare = successPool.mul(poolCut).div(\n            10**6\n        );\n        uint256 successStudentPoolShare = returnsPool\n            .sub(professorTotalPoolSuccessShare)\n            .div(successCount);\n        uint256[] memory studentAllowances = new uint256[](nStudents);\n        for (uint256 i = 0; i < nStudents; i++) {\n            uint256 appState = IStudentApplication(_validStudentApplications[i]).applicationState();\n            if (appState == 3) {\n                IStudentApplication(_validStudentApplications[i]).accountAllowance(\n                    studentPrincipalReturn,\n                    successStudentPoolShare\n                );\n                studentAllowances[i] = studentPrincipalReturn.add(\n                    successStudentPoolShare\n                );\n            }\n            if (appState == 4) {\n                IStudentApplication(_validStudentApplications[i]).accountAllowance(\n                    studentPrincipalReturn,\n                    0\n                );\n                studentAllowances[i] = studentPrincipalReturn;\n            }\n            if (appState== 5)\n                IStudentApplication(_validStudentApplications[i]).accountAllowance(0, 0);\n        }\n        uint24 uCut = university.cut();\n        return (\n            _calculateUniversityShare(emptyCount, \n                entryPrice,\n                professorTotalPoolSuccessShare,\n                uCut,\n                nStudents,\n                professorPaymentPerStudent\n            ),\n            studentAllowances\n        );\n    }\n\n    function _calculateUniversityShare(uint256 emptyCount, uint256 _entryPrice, uint256 professorTotalPoolSuccessShare, uint24 uCut, uint256 nStudents, uint professorPaymentPerStudent) internal pure returns (uint){\n        uint256 universityEmptyShare = emptyCount.mul(_entryPrice);\n        uint256 universityPaymentShare = professorTotalPoolSuccessShare\n            .mul(uCut)\n            .div(10**6);\n        uint256 notEmptyCount = nStudents.sub(emptyCount);\n        uint256 universitySucessPoolShare = professorPaymentPerStudent\n            .mul(notEmptyCount)\n            .mul(uCut)\n            .div(10**6);\n        return universityEmptyShare\n            .add(universityPaymentShare)\n            .add(universitySucessPoolShare);\n    }\n\n    function _resolveStudentAllowances(uint256[] memory studentAllowances)\n        internal\n    {\n        for (uint256 i = 0; i < _validStudentApplications.length; i++) {\n            if (studentAllowances[i] > 0)\n                daiToken.approve(\n                    address(_validStudentApplications[i]),\n                    studentAllowances[i]\n                );\n        }\n    }\n\n    function _resolveUniversityCut(uint256 universityCut) internal {\n        daiToken.transfer(address(university), universityCut);\n    }\n\n    function _updateStudentScores() internal {\n        for (uint256 i = 0; i < _validStudentApplications.length; i++) {\n            uint256 appState = IStudentApplication(_validStudentApplications[i]).applicationState();\n            if (appState == 3)\n                university.addStudentScore(\n                    IStudentApplication(_validStudentApplications[i]).studentAddress(),\n                    1\n                );\n            if (appState == 4)\n                university.subStudentScore(\n                    IStudentApplication(_validStudentApplications[i]).studentAddress(),\n                    1\n                );\n            if (appState == 5)\n                university.subStudentScore(\n                    IStudentApplication(_validStudentApplications[i]).studentAddress(),\n                    2\n                );\n        }\n    }\n\n    function _clearClassroom() internal {\n        _validStudentApplications = new address[](0);\n        withdrawAllResults();\n        _totalBalance = 0;\n        courseFinished = false;\n        _timestampAlarm = false;\n        _mutateSeed();\n    }\n\n    function _mutateSeed() internal {\n        _seed = (_seed & blockhash(0)) | (_seed & blockhash(1));\n    }\n\n    function withdrawAllResults() public onlyOwner {\n        daiToken.transferFrom(\n            address(this),\n            owner(),\n            daiToken.balanceOf(address(this))\n        );\n    }\n\n    function _generateSeed() internal {\n        Chainlink.Request memory req = buildChainlinkRequest(\n            _requestIdRandom,\n            address(this),\n            this.fulfillGenerateSeed.selector\n        );\n        sendChainlinkRequestTo(_oracleRandom, req, _oraclePaymentRandom);\n    }\n\n    function fulfillGenerateSeed(bytes32 _requestId, uint256 data)\n        public\n        recordChainlinkFulfillment(_requestId)\n    {\n        _seed = keccak256(MyUtils._toBytes(data));\n    }\n\n    function _setAlarm() internal {\n        Chainlink.Request memory req = buildChainlinkRequest(\n            _requestIdTimestamp,\n            address(this),\n            this.fulfillGetTimestamp.selector\n        );\n        req.addUint(\"until\", now + duration);\n        sendChainlinkRequestTo(_oracleTimestamp, req, _oraclePaymentTimestamp);\n    }\n\n    function fulfillGetTimestamp(bytes32 _requestId)\n        public\n        recordChainlinkFulfillment(_requestId)\n    {\n        _timestampAlarm = true;\n    }\n}\n",
  "sourcePath": "/Users/flavioneto/Uproot/contracts/Classroom.sol",
  "compiler": {
    "name": "solc",
    "version": "0.6.6+commit.6c089d02.Emscripten.clang"
  },
  "schemaVersion": "3.1.0",
  "updatedAt": "2020-05-06T00:52:30.770Z",
  "devdoc": {
    "methods": {
      "owner()": {
        "details": "Returns the address of the current owner."
      },
      "renounceOwnership()": {
        "details": "Leaves the contract without owner. It will not be possible to call `onlyOwner` functions anymore. Can only be called by the current owner.     * NOTE: Renouncing ownership will leave the contract without an owner, thereby removing any functionality that is only available to the owner."
      },
      "transferOwnership(address)": {
        "details": "Transfers ownership of the contract to a new account (`newOwner`). Can only be called by the current owner."
      }
    }
  },
  "userdoc": {
    "methods": {}
  }
}