{
  "contractName": "Classroom",
  "abi": [
    {
      "inputs": [
        {
          "internalType": "bytes32",
          "name": "name_",
          "type": "bytes32"
        },
        {
          "internalType": "uint24",
          "name": "principalCut_",
          "type": "uint24"
        },
        {
          "internalType": "uint24",
          "name": "poolCut_",
          "type": "uint24"
        },
        {
          "internalType": "int32",
          "name": "minScore_",
          "type": "int32"
        },
        {
          "internalType": "uint256",
          "name": "entryPrice_",
          "type": "uint256"
        },
        {
          "internalType": "uint256",
          "name": "duration_",
          "type": "uint256"
        },
        {
          "internalType": "address payable",
          "name": "universityAddress",
          "type": "address"
        },
        {
          "internalType": "address",
          "name": "challengeAddress_",
          "type": "address"
        },
        {
          "internalType": "address",
          "name": "daiAddress",
          "type": "address"
        },
        {
          "internalType": "address",
          "name": "compoundDAIAddress",
          "type": "address"
        },
        {
          "internalType": "address",
          "name": "studentApplicationFactoryAddress",
          "type": "address"
        }
      ],
      "stateMutability": "nonpayable",
      "type": "constructor"
    },
    {
      "anonymous": false,
      "inputs": [
        {
          "indexed": true,
          "internalType": "bytes32",
          "name": "id",
          "type": "bytes32"
        }
      ],
      "name": "ChainlinkCancelled",
      "type": "event"
    },
    {
      "anonymous": false,
      "inputs": [
        {
          "indexed": true,
          "internalType": "bytes32",
          "name": "id",
          "type": "bytes32"
        }
      ],
      "name": "ChainlinkFulfilled",
      "type": "event"
    },
    {
      "anonymous": false,
      "inputs": [
        {
          "indexed": true,
          "internalType": "bytes32",
          "name": "id",
          "type": "bytes32"
        }
      ],
      "name": "ChainlinkRequested",
      "type": "event"
    },
    {
      "anonymous": false,
      "inputs": [
        {
          "indexed": false,
          "internalType": "address",
          "name": "",
          "type": "address"
        }
      ],
      "name": "LogChangeChallenge",
      "type": "event"
    },
    {
      "anonymous": false,
      "inputs": [
        {
          "indexed": false,
          "internalType": "uint256",
          "name": "",
          "type": "uint256"
        }
      ],
      "name": "LogChangeDuration",
      "type": "event"
    },
    {
      "anonymous": false,
      "inputs": [
        {
          "indexed": false,
          "internalType": "uint256",
          "name": "",
          "type": "uint256"
        }
      ],
      "name": "LogChangeEntryPrice",
      "type": "event"
    },
    {
      "anonymous": false,
      "inputs": [
        {
          "indexed": false,
          "internalType": "int32",
          "name": "",
          "type": "int32"
        }
      ],
      "name": "LogChangeMinScore",
      "type": "event"
    },
    {
      "anonymous": false,
      "inputs": [
        {
          "indexed": false,
          "internalType": "bytes32",
          "name": "",
          "type": "bytes32"
        }
      ],
      "name": "LogChangeName",
      "type": "event"
    },
    {
      "anonymous": false,
      "inputs": [
        {
          "indexed": false,
          "internalType": "uint24",
          "name": "",
          "type": "uint24"
        }
      ],
      "name": "LogChangePoolCut",
      "type": "event"
    },
    {
      "anonymous": false,
      "inputs": [
        {
          "indexed": false,
          "internalType": "uint24",
          "name": "",
          "type": "uint24"
        }
      ],
      "name": "LogChangePrincipalCut",
      "type": "event"
    },
    {
      "anonymous": false,
      "inputs": [],
      "name": "LogCloseApplications",
      "type": "event"
    },
    {
      "anonymous": false,
      "inputs": [],
      "name": "LogCourseFinished",
      "type": "event"
    },
    {
      "anonymous": false,
      "inputs": [],
      "name": "LogOpenApplications",
      "type": "event"
    },
    {
      "anonymous": false,
      "inputs": [
        {
          "indexed": true,
          "internalType": "address",
          "name": "previousOwner",
          "type": "address"
        },
        {
          "indexed": true,
          "internalType": "address",
          "name": "newOwner",
          "type": "address"
        }
      ],
      "name": "OwnershipTransferred",
      "type": "event"
    },
    {
      "inputs": [],
      "name": "cDAI",
      "outputs": [
        {
          "internalType": "contract CERC20",
          "name": "",
          "type": "address"
        }
      ],
      "stateMutability": "view",
      "type": "function"
    },
    {
      "inputs": [],
      "name": "challengeAddress",
      "outputs": [
        {
          "internalType": "address",
          "name": "",
          "type": "address"
        }
      ],
      "stateMutability": "view",
      "type": "function"
    },
    {
      "inputs": [],
      "name": "classroomActive",
      "outputs": [
        {
          "internalType": "bool",
          "name": "",
          "type": "bool"
        }
      ],
      "stateMutability": "view",
      "type": "function"
    },
    {
      "inputs": [],
      "name": "compoundApplyPercentage",
      "outputs": [
        {
          "internalType": "uint256",
          "name": "",
          "type": "uint256"
        }
      ],
      "stateMutability": "view",
      "type": "function"
    },
    {
      "inputs": [],
      "name": "courseFinished",
      "outputs": [
        {
          "internalType": "bool",
          "name": "",
          "type": "bool"
        }
      ],
      "stateMutability": "view",
      "type": "function"
    },
    {
      "inputs": [],
      "name": "daiToken",
      "outputs": [
        {
          "internalType": "contract IERC20",
          "name": "",
          "type": "address"
        }
      ],
      "stateMutability": "view",
      "type": "function"
    },
    {
      "inputs": [],
      "name": "duration",
      "outputs": [
        {
          "internalType": "uint256",
          "name": "",
          "type": "uint256"
        }
      ],
      "stateMutability": "view",
      "type": "function"
    },
    {
      "inputs": [],
      "name": "entryPrice",
      "outputs": [
        {
          "internalType": "uint256",
          "name": "",
          "type": "uint256"
        }
      ],
      "stateMutability": "view",
      "type": "function"
    },
    {
      "inputs": [],
      "name": "minScore",
      "outputs": [
        {
          "internalType": "int32",
          "name": "",
          "type": "int32"
        }
      ],
      "stateMutability": "view",
      "type": "function"
    },
    {
      "inputs": [],
      "name": "name",
      "outputs": [
        {
          "internalType": "bytes32",
          "name": "",
          "type": "bytes32"
        }
      ],
      "stateMutability": "view",
      "type": "function"
    },
    {
      "inputs": [],
      "name": "openForApplication",
      "outputs": [
        {
          "internalType": "bool",
          "name": "",
          "type": "bool"
        }
      ],
      "stateMutability": "view",
      "type": "function"
    },
    {
      "inputs": [],
      "name": "owner",
      "outputs": [
        {
          "internalType": "address",
          "name": "",
          "type": "address"
        }
      ],
      "stateMutability": "view",
      "type": "function"
    },
    {
      "inputs": [],
      "name": "poolCut",
      "outputs": [
        {
          "internalType": "uint24",
          "name": "",
          "type": "uint24"
        }
      ],
      "stateMutability": "view",
      "type": "function"
    },
    {
      "inputs": [],
      "name": "principalCut",
      "outputs": [
        {
          "internalType": "uint24",
          "name": "",
          "type": "uint24"
        }
      ],
      "stateMutability": "view",
      "type": "function"
    },
    {
      "inputs": [],
      "name": "renounceOwnership",
      "outputs": [],
      "stateMutability": "nonpayable",
      "type": "function"
    },
    {
      "inputs": [
        {
          "internalType": "address",
          "name": "newOwner",
          "type": "address"
        }
      ],
      "name": "transferOwnership",
      "outputs": [],
      "stateMutability": "nonpayable",
      "type": "function"
    },
    {
      "inputs": [],
      "name": "university",
      "outputs": [
        {
          "internalType": "contract IUniversity",
          "name": "",
          "type": "address"
        }
      ],
      "stateMutability": "view",
      "type": "function"
    },
    {
      "inputs": [
        {
          "internalType": "address",
          "name": "oracleRandom",
          "type": "address"
        },
        {
          "internalType": "bytes32",
          "name": "requestIdRandom",
          "type": "bytes32"
        },
        {
          "internalType": "uint256",
          "name": "oraclePaymentRandom",
          "type": "uint256"
        },
        {
          "internalType": "address",
          "name": "oracleTimestamp",
          "type": "address"
        },
        {
          "internalType": "bytes32",
          "name": "requestIdTimestamp",
          "type": "bytes32"
        },
        {
          "internalType": "uint256",
          "name": "oraclePaymentTimestamp",
          "type": "uint256"
        },
        {
          "internalType": "address",
          "name": "linkToken",
          "type": "address"
        }
      ],
      "name": "configureOracles",
      "outputs": [],
      "stateMutability": "nonpayable",
      "type": "function"
    },
    {
      "inputs": [
        {
          "internalType": "address",
          "name": "uniswapDAI",
          "type": "address"
        },
        {
          "internalType": "address",
          "name": "uniswapLINK",
          "type": "address"
        },
        {
          "internalType": "address",
          "name": "uniswapRouter",
          "type": "address"
        }
      ],
      "name": "configureUniswap",
      "outputs": [],
      "stateMutability": "nonpayable",
      "type": "function"
    },
    {
      "inputs": [
        {
          "internalType": "address",
          "name": "lendingPoolAddressesProvider",
          "type": "address"
        }
      ],
      "name": "configureAave",
      "outputs": [],
      "stateMutability": "nonpayable",
      "type": "function"
    },
    {
      "inputs": [
        {
          "internalType": "address",
          "name": "newOwner",
          "type": "address"
        }
      ],
      "name": "transferOwnershipClassroom",
      "outputs": [],
      "stateMutability": "nonpayable",
      "type": "function"
    },
    {
      "inputs": [
        {
          "internalType": "bytes32",
          "name": "val",
          "type": "bytes32"
        }
      ],
      "name": "changeName",
      "outputs": [],
      "stateMutability": "nonpayable",
      "type": "function"
    },
    {
      "inputs": [
        {
          "internalType": "uint24",
          "name": "val",
          "type": "uint24"
        }
      ],
      "name": "changePrincipalCut",
      "outputs": [],
      "stateMutability": "nonpayable",
      "type": "function"
    },
    {
      "inputs": [
        {
          "internalType": "uint24",
          "name": "val",
          "type": "uint24"
        }
      ],
      "name": "changePoolCut",
      "outputs": [],
      "stateMutability": "nonpayable",
      "type": "function"
    },
    {
      "inputs": [
        {
          "internalType": "int32",
          "name": "val",
          "type": "int32"
        }
      ],
      "name": "changeMinScore",
      "outputs": [],
      "stateMutability": "nonpayable",
      "type": "function"
    },
    {
      "inputs": [
        {
          "internalType": "uint256",
          "name": "val",
          "type": "uint256"
        }
      ],
      "name": "changeEntryPrice",
      "outputs": [],
      "stateMutability": "nonpayable",
      "type": "function"
    },
    {
      "inputs": [
        {
          "internalType": "uint256",
          "name": "val",
          "type": "uint256"
        }
      ],
      "name": "changeDuration",
      "outputs": [],
      "stateMutability": "nonpayable",
      "type": "function"
    },
    {
      "inputs": [
        {
          "internalType": "uint256",
          "name": "ppm",
          "type": "uint256"
        }
      ],
      "name": "changeCompoundApplyPercentage",
      "outputs": [],
      "stateMutability": "nonpayable",
      "type": "function"
    },
    {
      "inputs": [
        {
          "internalType": "address",
          "name": "addr",
          "type": "address"
        }
      ],
      "name": "changeChallenge",
      "outputs": [],
      "stateMutability": "nonpayable",
      "type": "function"
    },
    {
      "inputs": [],
      "name": "viewAllApplications",
      "outputs": [
        {
          "internalType": "address[]",
          "name": "",
          "type": "address[]"
        }
      ],
      "stateMutability": "view",
      "type": "function"
    },
    {
      "inputs": [],
      "name": "viewMyApplication",
      "outputs": [
        {
          "internalType": "address",
          "name": "",
          "type": "address"
        }
      ],
      "stateMutability": "view",
      "type": "function"
    },
    {
      "inputs": [
        {
          "internalType": "address",
          "name": "addr",
          "type": "address"
        }
      ],
      "name": "viewApplication",
      "outputs": [
        {
          "internalType": "address",
          "name": "",
          "type": "address"
        }
      ],
      "stateMutability": "view",
      "type": "function"
    },
    {
      "inputs": [],
      "name": "viewAllStudents",
      "outputs": [
        {
          "internalType": "address[]",
          "name": "",
          "type": "address[]"
        }
      ],
      "stateMutability": "view",
      "type": "function"
    },
    {
      "inputs": [],
      "name": "isClassroomEmpty",
      "outputs": [
        {
          "internalType": "bool",
          "name": "",
          "type": "bool"
        }
      ],
      "stateMutability": "view",
      "type": "function"
    },
    {
      "inputs": [],
      "name": "isCourseOngoing",
      "outputs": [
        {
          "internalType": "bool",
          "name": "",
          "type": "bool"
        }
      ],
      "stateMutability": "view",
      "type": "function"
    },
    {
      "inputs": [],
      "name": "openApplications",
      "outputs": [],
      "stateMutability": "nonpayable",
      "type": "function"
    },
    {
      "inputs": [],
      "name": "closeApplications",
      "outputs": [],
      "stateMutability": "nonpayable",
      "type": "function"
    },
    {
      "inputs": [],
      "name": "applyDAI",
      "outputs": [],
      "stateMutability": "nonpayable",
      "type": "function"
    },
    {
      "inputs": [],
      "name": "studentApply",
      "outputs": [],
      "stateMutability": "nonpayable",
      "type": "function"
    },
    {
      "inputs": [],
      "name": "beginCourse",
      "outputs": [],
      "stateMutability": "nonpayable",
      "type": "function"
    },
    {
      "inputs": [],
      "name": "finishCourse",
      "outputs": [],
      "stateMutability": "nonpayable",
      "type": "function"
    },
    {
      "inputs": [],
      "name": "processResults",
      "outputs": [],
      "stateMutability": "nonpayable",
      "type": "function"
    },
    {
      "inputs": [],
      "name": "withdrawAllResults",
      "outputs": [],
      "stateMutability": "nonpayable",
      "type": "function"
    },
    {
      "inputs": [
        {
          "internalType": "uint256",
          "name": "amount",
          "type": "uint256"
        },
        {
          "internalType": "uint256",
          "name": "deadline",
          "type": "uint256"
        }
      ],
      "name": "swapDAI_LINK",
      "outputs": [],
      "stateMutability": "nonpayable",
      "type": "function"
    },
    {
      "inputs": [
        {
          "internalType": "uint256",
          "name": "amount",
          "type": "uint256"
        },
        {
          "internalType": "uint256",
          "name": "deadline",
          "type": "uint256"
        }
      ],
      "name": "swapLINK_DAI",
      "outputs": [],
      "stateMutability": "nonpayable",
      "type": "function"
    },
    {
      "inputs": [
        {
          "internalType": "bytes32",
          "name": "_requestId",
          "type": "bytes32"
        },
        {
          "internalType": "uint256",
          "name": "data",
          "type": "uint256"
        }
      ],
      "name": "fulfillGenerateSeed",
      "outputs": [],
      "stateMutability": "nonpayable",
      "type": "function"
    },
    {
      "inputs": [
        {
          "internalType": "bytes32",
          "name": "_requestId",
          "type": "bytes32"
        }
      ],
      "name": "fulfillGetTimestamp",
      "outputs": [],
      "stateMutability": "nonpayable",
      "type": "function"
    }
  ],
  "bytecode": "0x608060405260016005553480156200001657600080fd5b5060405162004e4b38038062004e4b83398181016040526101608110156200003d57600080fd5b508051602082015160408301516060840151608085015160a086015160c087015160e08801516101008901516101208a0151610140909a01519899979896979596949593949293919290919060006200009e6001600160e01b03620001c316565b600080546001600160a01b0319166001600160a01b0383169081178255604051929350917f8be0079c531659141344cd1fd0a4f28419497f9722a3daafe3b4186f6b6457e0908290a35060109a909a556011805462ffffff191662ffffff9a8b161765ffffff0000001916630100000099909a16989098029890981763ffffffff60301b1916660100000000000063ffffffff60039890980b9790971696909602959095179095556012929092556013556207a12060145560078054601580546001600160a01b03199081166001600160a01b03978816179091559081169285169290921762ff00ff60a01b191690556016805482169284169290921790915560178054821693831693909317909255601880549092169216919091179055620001c7565b3390565b614c7480620001d76000396000f3fe608060405234801561001057600080fd5b50600436106103145760003560e01c806376eada91116101a7578063ae12894e116100ee578063dfd78adc11610097578063f2fde38b11610071578063f2fde38b1461071f578063f745adfc14610745578063fe7da9e91461074d57610314565b8063dfd78adc146106d2578063e804f164146106da578063f0607e43146106fc57610314565b8063be22f546116100c8578063be22f54614610681578063c2d0b30314610689578063c799f5e2146106ac57610314565b8063ae12894e14610654578063b594f0861461065c578063bbe3b9261461067957610314565b80639e6e0b5f11610150578063aa055a401161012a578063aa055a401461063c578063ada02e1914610644578063adf45ef21461064c57610314565b80639e6e0b5f14610606578063a3f73c2d1461060e578063a46268a81461063457610314565b80638646bcec116101815780638646bcec146105d9578063898855ed146105e15780638da5cb5b146105fe57610314565b806376eada91146105895780637c0260cb146105af5780638155e977146105b757610314565b80633bcd97d41161026b5780635ca8f92c116102145780636e8055a7116101ee5780636e8055a7146105715780636f6941b914610579578063715018a61461058157610314565b80635ca8f92c146104a9578063604d3943146104f957806369e7af431461051957610314565b80634ffb660c116102455780634ffb660c146104495780635aa33a2d146104695780635b8f96de1461047157610314565b80633bcd97d414610431578063431a16ef146104395780634c5e78931461044157610314565b806313c2bedc116102cd5780632016a206116102a75780632016a206146103e257806329d1887914610405578063319600271461042957610314565b806313c2bedc1461039357806318b9533b146103b45780631b9dbc60146103da57610314565b80630aab4569116102fe5780630aab4569146103525780630b78cb0e1461036f5780630fb5a6b41461038b57610314565b80624f84111461031957806306fdde0314610338575b600080fd5b6103366004803603602081101561032f57600080fd5b503561076a565b005b610340610809565b60408051918252519081900360200190f35b6103366004803603602081101561036857600080fd5b503561080f565b6103776108db565b604080519115158252519081900360200190f35b6103406108eb565b61039b6108f1565b60408051600392830b90920b8252519081900360200190f35b610336600480360360208110156103ca57600080fd5b50356001600160a01b0316610904565b610336610910565b610336600480360360408110156103f857600080fd5b5080359060200135610bb6565b61040d610c69565b604080516001600160a01b039092168252519081900360200190f35b610336610c78565b610377610f64565b610336610f84565b6103366110dc565b6103366004803603602081101561045f57600080fd5b503560030b611249565b610377611311565b6103366004803603606081101561048757600080fd5b506001600160a01b038135811691602081013582169160409091013516611321565b610336600480360360e08110156104bf57600080fd5b506001600160a01b038135811691602081013591604082013591606081013582169160808201359160a08101359160c090910135166113b8565b61050161151e565b6040805162ffffff9092168252519081900360200190f35b610521611530565b60408051602080825283518183015283519192839290830191858101910280838360005b8381101561055d578181015183820152602001610545565b505050509050019250505060405180910390f35b61040d6115ea565b61040d611601565b610336611610565b61040d6004803603602081101561059f57600080fd5b50356001600160a01b03166116b2565b610336611754565b610336600480360360208110156105cd57600080fd5b503562ffffff1661182c565b6105016118d6565b610336600480360360208110156105f757600080fd5b50356118e1565b61040d611974565b610340611983565b6103366004803603602081101561062457600080fd5b50356001600160a01b0316611989565b610377611a7e565b610336611a8e565b610336611c44565b610377611d78565b61040d611d80565b6103366004803603602081101561067257600080fd5b5035611d8f565b610336611e22565b61040d612026565b6103366004803603604081101561069f57600080fd5b5080359060200135612035565b610336600480360360208110156106c257600080fd5b50356001600160a01b0316612108565b610521612368565b610336600480360360208110156106f057600080fd5b503562ffffff16612420565b6103366004803603604081101561071257600080fd5b50803590602001356124d8565b6103366004803603602081101561073557600080fd5b50356001600160a01b03166125ab565b6103406126a3565b6103366004803603602081101561076357600080fd5b50356126a9565b61077261273c565b6000546001600160a01b039081169116146107c2576040805162461bcd60e51b81526020600482018190526024820152600080516020614b55833981519152604482015290519081900360640190fd5b620f42408111156108045760405162461bcd60e51b8152600401808060200182810382526029815260200180614a726029913960400191505060405180910390fd5b601455565b60105481565b60008181526006602052604090205481906001600160a01b031633146108665760405162461bcd60e51b8152600401808060200182810382526028815260200180614c176028913960400191505060405180910390fd5b60008181526006602052604080822080546001600160a01b03191690555182917f7cc135e0cebb02c3480ae5d74d377283180a2601f8f644edf7987b009316c63a91a25050600780547fffffffffffffffff00ffffffffffffffffffffffffffffffffffffffffffffff16600160b81b179055565b600754600160a01b900460ff1681565b60135481565b6011546601000000000000900460030b81565b61090d816125ab565b50565b610918611974565b6001600160a01b031661092961273c565b6001600160a01b0316141561096f5760405162461bcd60e51b815260040180806020018281038252602d815260200180614abd602d913960400191505060405180910390fd5b6007546001600160a01b03166316ded1ce61098861273c565b6040518263ffffffff1660e01b815260040180826001600160a01b03166001600160a01b0316815260200191505060206040518083038186803b1580156109ce57600080fd5b505afa1580156109e2573d6000803e3d6000fd5b505050506040513d60208110156109f857600080fd5b5051610a355760405162461bcd60e51b8152600401808060200182810382526024815260200180614bc96024913960400191505060405180910390fd5b600754600160a01b900460ff16610a93576040805162461bcd60e51b815260206004820152601e60248201527f436c617373726f6f6d3a206170706c69636174696f6e7320636c6f7365640000604482015290519081900360640190fd5b6000610a9d61273c565b9050601160069054906101000a900460030b60030b816001600160a01b031663efedc6696040518163ffffffff1660e01b815260040160206040518083038186803b158015610aeb57600080fd5b505afa158015610aff573d6000803e3d6000fd5b505050506040513d6020811015610b1557600080fd5b505160030b1215610b575760405162461bcd60e51b815260040180806020018281038252602c8152602001806149b9602c913960400191505060405180910390fd5b6000610b6282612740565b600880546001810182556000919091527ff3f7a9fe364faab93b216da50a3214154f22a0a2b415b23a84c8169e8b636ee30180546001600160a01b0319166001600160a01b03929092169190911790555050565b60008281526006602052604090205482906001600160a01b03163314610c0d5760405162461bcd60e51b8152600401808060200182810382526028815260200180614c176028913960400191505060405180910390fd5b60008181526006602052604080822080546001600160a01b03191690555182917f7cc135e0cebb02c3480ae5d74d377283180a2601f8f644edf7987b009316c63a91a2610c598261293f565b8051602090910120600f55505050565b6015546001600160a01b031681565b610c8061273c565b6000546001600160a01b03908116911614610cd0576040805162461bcd60e51b81526020600482018190526024820152600080516020614b55833981519152604482015290519081900360640190fd5b6019546001600160a01b0316610d2d576040805162461bcd60e51b815260206004820152601e60248201527f436c617373726f6f6d3a207365747570206f7261636c65732066697273740000604482015290519081900360640190fd5b6020546001600160a01b0316610d8a576040805162461bcd60e51b815260206004820152601e60248201527f436c617373726f6f6d3a20736574757020556e69737761702066697273740000604482015290519081900360640190fd5b6025546001600160a01b0316610de7576040805162461bcd60e51b815260206004820152601b60248201527f436c617373726f6f6d3a20736574757020416176652066697273740000000000604482015290519081900360640190fd5b600754600160a01b900460ff1615610e305760405162461bcd60e51b815260040180806020018281038252602a815260200180614bed602a913960400191505060405180910390fd5b60085415610e6f5760405162461bcd60e51b8152600401808060200182810382526022815260200180614a9b6022913960400191505060405180910390fd5b601e54601f54604080516370a0823160e01b815230600482015290516001600160a01b03909216916370a0823191602480820192602092909190829003018186803b158015610ebd57600080fd5b505afa158015610ed1573d6000803e3d6000fd5b505050506040513d6020811015610ee757600080fd5b50511015610f265760405162461bcd60e51b81526004018080602001828103825260218152602001806149726021913960400191505060405180910390fd5b6007805460ff60a01b1916600160a01b1790556040517fa5d188159e8a15dc503f9fde55e9da14c8b2ca589603e2567481c0ef90b7972090600090a1565b600954600854600091610f7d919063ffffffff61296916565b1590505b90565b610f8c61273c565b6000546001600160a01b03908116911614610fdc576040805162461bcd60e51b81526020600482018190526024820152600080516020614b55833981519152604482015290519081900360640190fd5b600754600160b81b900460ff166110245760405162461bcd60e51b8152600401808060200182810382526024815260200180614b0b6024913960400191505060405180910390fd5b600954611078576040805162461bcd60e51b815260206004820152601a60248201527f436c617373726f6f6d3a206e6f206170706c69636174696f6e73000000000000604482015290519081900360640190fd5b6110806129cc565b600e55600780547fffffffffffffffffffff00ffffffffffffffffffffffffffffffffffffffffff16600160a81b1790556040517fadfcc9bbc47b33710f82544eeff8bd0f98c6f78f190e915bd81f4a9dacfdc77790600090a1565b6110e461273c565b6000546001600160a01b03908116911614611134576040805162461bcd60e51b81526020600482018190526024820152600080516020614b55833981519152604482015290519081900360640190fd5b6016546001600160a01b03166323b872dd3061114e611974565b601654604080516370a0823160e01b815230600482015290516001600160a01b03909216916370a0823191602480820192602092909190829003018186803b15801561119957600080fd5b505afa1580156111ad573d6000803e3d6000fd5b505050506040513d60208110156111c357600080fd5b5051604080516001600160e01b031960e087901b1681526001600160a01b0394851660048201529290931660248301526044820152905160648083019260209291908290030181600087803b15801561121b57600080fd5b505af115801561122f573d6000803e3d6000fd5b505050506040513d602081101561124557600080fd5b5050565b61125161273c565b6000546001600160a01b039081169116146112a1576040805162461bcd60e51b81526020600482018190526024820152600080516020614b55833981519152604482015290519081900360640190fd5b60118054600383810b63ffffffff16660100000000000090810269ffffffff0000000000001990931692909217928390556040805192909304810b810b900b815290517f258981eaba02423980e2973ff2ae3bbbba3cc807a5b73faf8f0b068dd7b2af649181900360200190a150565b600754600160a81b900460ff1681565b61132961273c565b6000546001600160a01b03908116911614611379576040805162461bcd60e51b81526020600482018190526024820152600080516020614b55833981519152604482015290519081900360640190fd5b602080546001600160a01b039485166001600160a01b031991821617909155602180549385169382169390931790925560228054919093169116179055565b6113c061273c565b6000546001600160a01b03908116911614611410576040805162461bcd60e51b81526020600482018190526024820152600080516020614b55833981519152604482015290519081900360640190fd5b601980546001600160a01b03808a166001600160a01b031992831617909255601a889055601b879055601c8054878416908316179055601d859055601e849055601f805484841692169190911790819055604080516370a0823160e01b81523060048201529051889392909216916370a0823191602480820192602092909190829003018186803b1580156114a457600080fd5b505afa1580156114b8573d6000803e3d6000fd5b505050506040513d60208110156114ce57600080fd5b5051101561150d5760405162461bcd60e51b81526004018080602001828103825260218152602001806149726021913960400191505060405180910390fd5b611515612bbe565b50505050505050565b6011546301000000900462ffffff1681565b606061153a61273c565b6000546001600160a01b0390811691161461158a576040805162461bcd60e51b81526020600482018190526024820152600080516020614b55833981519152604482015290519081900360640190fd5b600b8054806020026020016040519081016040528092919081815260200182805480156115e057602002820191906000526020600020905b81546001600160a01b031681526001909101906020018083116115c2575b5050505050905090565b60006115fc6115f761273c565b6116b2565b905090565b6017546001600160a01b031681565b61161861273c565b6000546001600160a01b03908116911614611668576040805162461bcd60e51b81526020600482018190526024820152600080516020614b55833981519152604482015290519081900360640190fd5b600080546040516001600160a01b03909116907f8be0079c531659141344cd1fd0a4f28419497f9722a3daafe3b4186f6b6457e0908390a3600080546001600160a01b0319169055565b60006116bc61273c565b6001600160a01b0316826001600160a01b031614806116fa57506116de611974565b6001600160a01b03166116ef61273c565b6001600160a01b0316145b6117355760405162461bcd60e51b8152600401808060200182810382526021815260200180614a516021913960400191505060405180910390fd5b506001600160a01b039081166000908152600a60205260409020541690565b61175c61273c565b6000546001600160a01b039081169116146117ac576040805162461bcd60e51b81526020600482018190526024820152600080516020614b55833981519152604482015290519081900360640190fd5b600754600160a01b900460ff166117f45760405162461bcd60e51b815260040180806020018281038252602a815260200180614b9f602a913960400191505060405180910390fd5b6007805460ff60a01b191690556040517f747a4734f50e3ae237b3afeeac30a2d2c7cb965cc122fb9680050fd533b7c0f590600090a1565b61183461273c565b6000546001600160a01b03908116911614611884576040805162461bcd60e51b81526020600482018190526024820152600080516020614b55833981519152604482015290519081900360640190fd5b6011805462ffffff191662ffffff838116919091179182905560408051929091168252517fa24cdd22388a51f932026d20d3229c1d693385bb9ac176742e0e40b4586c2447916020908290030190a150565b60115462ffffff1681565b6118e961273c565b6000546001600160a01b03908116911614611939576040805162461bcd60e51b81526020600482018190526024820152600080516020614b55833981519152604482015290519081900360640190fd5b60108190556040805182815290517f9f8929be552430dd6434c446d106c34954b2040ca8c4dbf42a39323dd6cda3ca9181900360200190a150565b6000546001600160a01b031690565b60145481565b61199161273c565b6000546001600160a01b039081169116146119e1576040805162461bcd60e51b81526020600482018190526024820152600080516020614b55833981519152604482015290519081900360640190fd5b6119e9610f64565b611a245760405162461bcd60e51b81526004018080602001828103825260258152602001806149e56025913960400191505060405180910390fd5b601580546001600160a01b0319166001600160a01b03838116919091179182905560408051929091168252517fdc58b28697ffd1bd5879b16631587874caec982b482d7ed05df69a5302f6e018916020908290030190a150565b600754600160b01b900460ff1681565b611a9661273c565b6000546001600160a01b03908116911614611ae6576040805162461bcd60e51b81526020600482018190526024820152600080516020614b55833981519152604482015290519081900360640190fd5b600754600160a81b900460ff16611b44576040805162461bcd60e51b815260206004820152601e60248201527f436c617373726f6f6d3a20636f75727365206e6f742066696e69736865640000604482015290519081900360640190fd5b601654604080516370a0823160e01b815230600482015290516001600160a01b03909216916370a0823191602480820192602092909190829003018186803b158015611b8f57600080fd5b505afa158015611ba3573d6000803e3d6000fd5b505050506040513d6020811015611bb957600080fd5b5051600e541115611bfb5760405162461bcd60e51b8152600401808060200182810382526024815260200180614a2d6024913960400191505060405180910390fd5b600080611c06612c14565b9150915060006060611c188484612d64565b91509150611c2581613198565b611c2e82613220565b611c366132be565b611c3e613672565b50505050565b611c4c61273c565b6000546001600160a01b03908116911614611c9c576040805162461bcd60e51b81526020600482018190526024820152600080516020614b55833981519152604482015290519081900360640190fd5b601654604080516370a0823160e01b815230600482015290516000926001600160a01b0316916370a08231916024808301926020929190829003018186803b158015611ce757600080fd5b505afa158015611cfb573d6000803e3d6000fd5b505050506040513d6020811015611d1157600080fd5b5051905080611d205750611d76565b6000611d4a620f4240611d3e846014546136cd90919063ffffffff16565b9063ffffffff61372616565b90506000611d5e838363ffffffff61379016565b9050611d69826137ed565b611d728161389b565b5050505b565b600954151590565b6007546001600160a01b031681565b611d9761273c565b6000546001600160a01b03908116911614611de7576040805162461bcd60e51b81526020600482018190526024820152600080516020614b55833981519152604482015290519081900360640190fd5b60138190556040805182815290517fa67f34afb53d068e81607cde52dc74c58cbf6a05eac699e5543b97d25e3ca5cb9181900360200190a150565b611e2a61273c565b6000546001600160a01b03908116911614611e7a576040805162461bcd60e51b81526020600482018190526024820152600080516020614b55833981519152604482015290519081900360640190fd5b600754600160a01b900460ff1615611ec35760405162461bcd60e51b8152600401808060200182810382526026815260200180614b2f6026913960400191505060405180910390fd5b601654604080516370a0823160e01b815230600482015290516001600160a01b03909216916370a0823191602480820192602092909190829003018186803b158015611f0e57600080fd5b505afa158015611f22573d6000803e3d6000fd5b505050506040513d6020811015611f3857600080fd5b505115611f765760405162461bcd60e51b815260040180806020018281038252602a815260200180614b75602a913960400191505060405180910390fd5b611f7e61392f565b6040805160008152602081019182905251611f9b91600891614899565b50600954611ff0576040805162461bcd60e51b815260206004820152601f60248201527f436c617373726f6f6d3a206e6f207265616479206170706c69636174696f6e00604482015290519081900360640190fd5b600780547fffffffffffffffffff00ffffffffffffffffffffffffffffffffffffffffffff16600160b01b179055611d76613b2a565b6016546001600160a01b031681565b61203d61273c565b6000546001600160a01b0390811691161461208d576040805162461bcd60e51b81526020600482018190526024820152600080516020614b55833981519152604482015290519081900360640190fd5b6021546001600160a01b03166120ea576040805162461bcd60e51b815260206004820152601f60248201527f556e69766572736974793a20736574757020756e697377617020666972737400604482015290519081900360640190fd5b602054602154611245916001600160a01b0390811691168484613bcb565b61211061273c565b6000546001600160a01b03908116911614612160576040805162461bcd60e51b81526020600482018190526024820152600080516020614b55833981519152604482015290519081900360640190fd5b602380546001600160a01b0319166001600160a01b038381169190911791829055604080517f0261bf8b00000000000000000000000000000000000000000000000000000000815290519290911691630261bf8b91600480820192602092909190829003018186803b1580156121d557600080fd5b505afa1580156121e9573d6000803e3d6000fd5b505050506040513d60208110156121ff57600080fd5b5051602480546001600160a01b0319166001600160a01b03928316179055602354604080517fed6ff7600000000000000000000000000000000000000000000000000000000081529051919092169163ed6ff760916004808301926020929190829003018186803b15801561227357600080fd5b505afa158015612287573d6000803e3d6000fd5b505050506040513d602081101561229d57600080fd5b5051602580546001600160a01b0319166001600160a01b039283161790819055601654604080517f34b3beee00000000000000000000000000000000000000000000000000000000815291841660048301525191909216916334b3beee916024808301926020929190829003018186803b15801561231a57600080fd5b505afa15801561232e573d6000803e3d6000fd5b505050506040513d602081101561234457600080fd5b5051602680546001600160a01b0319166001600160a01b0390921691909117905550565b606061237261273c565b6000546001600160a01b039081169116146123c2576040805162461bcd60e51b81526020600482018190526024820152600080516020614b55833981519152604482015290519081900360640190fd5b600c8054806020026020016040519081016040528092919081815260200182805480156115e0576020028201919060005260206000209081546001600160a01b031681526001909101906020018083116115c2575050505050905090565b61242861273c565b6000546001600160a01b03908116911614612478576040805162461bcd60e51b81526020600482018190526024820152600080516020614b55833981519152604482015290519081900360640190fd5b6011805462ffffff808416630100000090810265ffffff000000199093169290921792839055604080519290930416815290517f9d9f9ef51b12eb719684b7a2e09fc2f7e916cb0e229aecf5658ce6326dfeb1c59181900360200190a150565b6124e061273c565b6000546001600160a01b03908116911614612530576040805162461bcd60e51b81526020600482018190526024820152600080516020614b55833981519152604482015290519081900360640190fd5b6021546001600160a01b031661258d576040805162461bcd60e51b815260206004820152601f60248201527f556e69766572736974793a20736574757020756e697377617020666972737400604482015290519081900360640190fd5b602154602054611245916001600160a01b0390811691168484613bcb565b6125b361273c565b6000546001600160a01b03908116911614612603576040805162461bcd60e51b81526020600482018190526024820152600080516020614b55833981519152604482015290519081900360640190fd5b6001600160a01b0381166126485760405162461bcd60e51b81526004018080602001828103825260268152602001806149936026913960400191505060405180910390fd5b600080546040516001600160a01b03808516939216917f8be0079c531659141344cd1fd0a4f28419497f9722a3daafe3b4186f6b6457e091a3600080546001600160a01b0319166001600160a01b0392909216919091179055565b60125481565b6126b161273c565b6000546001600160a01b03908116911614612701576040805162461bcd60e51b81526020600482018190526024820152600080516020614b55833981519152604482015290519081900360640190fd5b60128190556040805182815290517f84e881bf3fcef92f709a2a62150da178a998fbff128c017f3e846787a2f7f5f59181900360200190a150565b3390565b60185460165460155460009283926001600160a01b039182169263268e5d1d92879230929082169116612771613dec565b604080516001600160e01b031960e089901b1681526001600160a01b03968716600482015294861660248601529285166044850152931660648301526084820192909252905160a48083019260209291908290030181600087803b1580156127d857600080fd5b505af11580156127ec573d6000803e3d6000fd5b505050506040513d602081101561280257600080fd5b50516001600160a01b038481166000818152600a602052604080822080546001600160a01b03191685871690811790915560075482517f183b26000000000000000000000000000000000000000000000000000000000081526004810195909552602485019190915290519495509092169263183b26009260448084019391929182900301818387803b15801561289857600080fd5b505af11580156128ac573d6000803e3d6000fd5b5050600b805460018181019092557f0175b7a638427703f0dbe7bb9bbf987a2551717b34e79f33b5b1008d1fa01db90180546001600160a01b038089166001600160a01b031992831617909255600c805493840181556000527fdf6966c971051c3d54ec59162606531493a51404a002842f56009d7e5cf4a8c79092018054918616919092161790555090915050919050565b60408051602080825281830190925260609160208201818036833750505060208101929092525090565b6000828201838110156129c3576040805162461bcd60e51b815260206004820152601b60248201527f536166654d6174683a206164646974696f6e206f766572666c6f770000000000604482015290519081900360640190fd5b90505b92915050565b601754604080516370a0823160e01b8152306004820152905160009283926001600160a01b03909116916370a0823191602480820192602092909190829003018186803b158015612a1c57600080fd5b505afa158015612a30573d6000803e3d6000fd5b505050506040513d6020811015612a4657600080fd5b50516017546040805163db006a7560e01b81526004810184905290519293506001600160a01b039091169163db006a75916024808201926020929091908290030181600087803b158015612a9957600080fd5b505af1158015612aad573d6000803e3d6000fd5b505050506040513d6020811015612ac357600080fd5b5050602654604080516370a0823160e01b815230600482015290516000926001600160a01b0316916370a08231916024808301926020929190829003018186803b158015612b1057600080fd5b505afa158015612b24573d6000803e3d6000fd5b505050506040513d6020811015612b3a57600080fd5b50516026546040805163db006a7560e01b81526004810184905290519293506001600160a01b039091169163db006a759160248082019260009290919082900301818387803b158015612b8c57600080fd5b505af1158015612ba0573d6000803e3d6000fd5b50505050612bb7818361296990919063ffffffff16565b9250505090565b612bc66148fe565b601a54612bf490307f2016a20600000000000000000000000000000000000000000000000000000000613df6565b601954601b54919250611245916001600160a01b03909116908390613e21565b6000808080805b600954811015612d5a5760098181548110612c3257fe5b6000918252602082200154604080517f289cf0d200000000000000000000000000000000000000000000000000000000815290516001600160a01b039092169263289cf0d29260048084019382900301818387803b158015612c9357600080fd5b505af1158015612ca7573d6000803e3d6000fd5b50505050600060098281548110612cba57fe5b60009182526020918290200154604080516332c3db0f60e11b815290516001600160a01b0390921692636587b61e92600480840193829003018186803b158015612d0357600080fd5b505afa158015612d17573d6000803e3d6000fd5b505050506040513d6020811015612d2d57600080fd5b505190506003811415612d41576001909301925b8060051415612d51576001909201915b50600101612c1b565b5090925090509091565b6009546012546000916060918390612d9590612d86908463ffffffff6136cd16565b600e549063ffffffff61379016565b601154601254919250600091612dbe91620f424091611d3e9162ffffff1663ffffffff6136cd16565b90506000612dd78260125461379090919063ffffffff16565b90506000612def85611d3e868c63ffffffff6136cd16565b601154909150600090612e1890620f424090611d3e9085906301000000900462ffffff166136cd565b90506000612e308b611d3e888563ffffffff61379016565b905060608767ffffffffffffffff81118015612e4b57600080fd5b50604051908082528060200260200182016040528015612e75578160200160208202803683370190505b50905060005b888110156130e557600060098281548110612e9257fe5b60009182526020918290200154604080516332c3db0f60e11b815290516001600160a01b0390921692636587b61e92600480840193829003018186803b158015612edb57600080fd5b505afa158015612eef573d6000803e3d6000fd5b505050506040513d6020811015612f0557600080fd5b505190506003811415612fb95760098281548110612f1f57fe5b600091825260208220015460408051637db9abaf60e01b8152600481018b90526024810188905290516001600160a01b0390921692637db9abaf9260448084019382900301818387803b158015612f7557600080fd5b505af1158015612f89573d6000803e3d6000fd5b50505050612fa0848861296990919063ffffffff16565b838381518110612fac57fe5b6020026020010181815250505b80600414156130575760098281548110612fcf57fe5b600091825260208220015460408051637db9abaf60e01b8152600481018b90526024810184905290516001600160a01b0390921692637db9abaf9260448084019382900301818387803b15801561302557600080fd5b505af1158015613039573d6000803e3d6000fd5b505050508683838151811061304a57fe5b6020026020010181815250505b80600514156130dc576009828154811061306d57fe5b600091825260208220015460408051637db9abaf60e01b8152600481018490526024810184905290516001600160a01b0390921692637db9abaf9260448084019382900301818387803b1580156130c357600080fd5b505af11580156130d7573d6000803e3d6000fd5b505050505b50600101612e7b565b50600754604080517fe6fd604c00000000000000000000000000000000000000000000000000000000815290516000926001600160a01b03169163e6fd604c916004808301926020929190829003018186803b15801561314457600080fd5b505afa158015613158573d6000803e3d6000fd5b505050506040513d602081101561316e57600080fd5b5051601254909150613185908d9086848d8c613ff8565b9d919c50909a5050505050505050505050565b60005b6009548110156112455760008282815181106131b357fe5b602002602001015111156132185760165460098054613218926001600160a01b03169190849081106131e157fe5b9060005260206000200160009054906101000a90046001600160a01b031684848151811061320b57fe5b60200260200101516140a0565b60010161319b565b60165460075461323d916001600160a01b0390811691168361421c565b600754604080517ffa8e50600000000000000000000000000000000000000000000000000000000081526004810184905290516001600160a01b039092169163fa8e50609160248082019260009290919082900301818387803b1580156132a357600080fd5b505af11580156132b7573d6000803e3d6000fd5b5050505050565b60005b60095481101561090d576000600982815481106132da57fe5b60009182526020918290200154604080516332c3db0f60e11b815290516001600160a01b0390921692636587b61e92600480840193829003018186803b15801561332357600080fd5b505afa158015613337573d6000803e3d6000fd5b505050506040513d602081101561334d57600080fd5b50519050600381141561345957600754600980546001600160a01b03909216916387bfe18891908590811061337e57fe5b600091825260209182902001546040805163b8f31a8160e01b815290516001600160a01b039092169263b8f31a8192600480840193829003018186803b1580156133c757600080fd5b505afa1580156133db573d6000803e3d6000fd5b505050506040513d60208110156133f157600080fd5b5051604080516001600160e01b031960e085901b1681526001600160a01b0390921660048301526001602483015251604480830192600092919082900301818387803b15801561344057600080fd5b505af1158015613454573d6000803e3d6000fd5b505050505b806004141561356157600754600980546001600160a01b039092169163ff5d8f6391908590811061348657fe5b600091825260209182902001546040805163b8f31a8160e01b815290516001600160a01b039092169263b8f31a8192600480840193829003018186803b1580156134cf57600080fd5b505afa1580156134e3573d6000803e3d6000fd5b505050506040513d60208110156134f957600080fd5b5051604080516001600160e01b031960e085901b1681526001600160a01b0390921660048301526001602483015251604480830192600092919082900301818387803b15801561354857600080fd5b505af115801561355c573d6000803e3d6000fd5b505050505b806005141561366957600754600980546001600160a01b039092169163ff5d8f6391908590811061358e57fe5b600091825260209182902001546040805163b8f31a8160e01b815290516001600160a01b039092169263b8f31a8192600480840193829003018186803b1580156135d757600080fd5b505afa1580156135eb573d6000803e3d6000fd5b505050506040513d602081101561360157600080fd5b5051604080516001600160e01b031960e085901b1681526001600160a01b0390921660048301526002602483015251604480830192600092919082900301818387803b15801561365057600080fd5b505af1158015613664573d6000803e3d6000fd5b505050505b506001016132c1565b604080516000815260208101918290525161368f91600991614899565b506136986110dc565b6000600e55600780547fffffffffffffffff00ff00ffffffffffffffffffffffffffffffffffffffffff169055611d76614398565b6000826136dc575060006129c6565b828202828482816136e957fe5b04146129c35760405162461bcd60e51b8152600401808060200182810382526021815260200180614aea6021913960400191505060405180910390fd5b600080821161377c576040805162461bcd60e51b815260206004820152601a60248201527f536166654d6174683a206469766973696f6e206279207a65726f000000000000604482015290519081900360640190fd5b600082848161378757fe5b04949350505050565b6000828211156137e7576040805162461bcd60e51b815260206004820152601e60248201527f536166654d6174683a207375627472616374696f6e206f766572666c6f770000604482015290519081900360640190fd5b50900390565b60165460175461380a916001600160a01b039081169116836140a0565b601754604080517fa0712d680000000000000000000000000000000000000000000000000000000081526004810184905290516001600160a01b039092169163a0712d68916024808201926020929091908290030181600087803b15801561387157600080fd5b505af1158015613885573d6000803e3d6000fd5b505050506040513d6020811015611d7257600080fd5b6016546025546138b8916001600160a01b039081169116836140a0565b60248054601654604080517fd2d0e0660000000000000000000000000000000000000000000000000000000081526001600160a01b0392831660048201529384018590526000604485018190529051919092169263d2d0e06692606480830193919282900301818387803b1580156132a357600080fd5b60005b60085481101561090d576008818154811061394957fe5b60009182526020918290200154604080516332c3db0f60e11b815290516001600160a01b0390921692636587b61e92600480840193829003018186803b15801561399257600080fd5b505afa1580156139a6573d6000803e3d6000fd5b505050506040513d60208110156139bc57600080fd5b505160011415613a9b57600881815481106139d357fe5b6000918252602082200154604080517f0f15f4c000000000000000000000000000000000000000000000000000000000815290516001600160a01b0390921692630f15f4c09260048084019382900301818387803b158015613a3457600080fd5b505af1158015613a48573d6000803e3d6000fd5b50505050600960088281548110613a5b57fe5b60009182526020808320909101548354600181018555938352912090910180546001600160a01b0319166001600160a01b03909216919091179055613b22565b60088181548110613aa857fe5b6000918252602082200154604080517f79599f9600000000000000000000000000000000000000000000000000000000815290516001600160a01b03909216926379599f969260048084019382900301818387803b158015613b0957600080fd5b505af1158015613b1d573d6000803e3d6000fd5b505050505b600101613932565b613b326148fe565b601d54613b6090307f0aab456900000000000000000000000000000000000000000000000000000000613df6565b9050613bb06040518060400160405280600581526020017f756e74696c0000000000000000000000000000000000000000000000000000008152506013544201836143af9092919063ffffffff16565b601c54601e54611245916001600160a01b0316908390613e21565b602254613be39085906001600160a01b0316846140a0565b60408051600280825260608083018452926020830190803683370190505090508481600081518110613c1157fe5b60200260200101906001600160a01b031690816001600160a01b0316815250508381600181518110613c3f57fe5b6001600160a01b039283166020918202929092018101919091526022546040517f38ed17390000000000000000000000000000000000000000000000000000000081526004810187815260006024830181905230606484018190526084840189905260a060448501908152885160a4860152885195909716966338ed1739968b9693958a9593948c94939260c49092019187810191028083838b5b83811015613cf2578181015183820152602001613cda565b505050509050019650505050505050600060405180830381600087803b158015613d1b57600080fd5b505af1158015613d2f573d6000803e3d6000fd5b505050506040513d6000823e601f3d908101601f191682016040526020811015613d5857600080fd5b8101908080516040519392919084640100000000821115613d7857600080fd5b908301906020820185811115613d8d57600080fd5b8251866020820283011164010000000082111715613daa57600080fd5b82525081516020918201928201910280838360005b83811015613dd7578181015183820152602001613dbf565b50505050905001604052505050505050505050565b600f546000401890565b613dfe6148fe565b613e066148fe565b613e188186868663ffffffff6143d916565b95945050505050565b6005546040805130606090811b60208084019190915260348084018690528451808503909101815260549093018452825192810192909220908601939093526000838152600690915281812080546001600160a01b0319166001600160a01b038816179055905182917fb5e6e01e79f91267dc17b4e6314d5d4d03593d2ceee0fbb452b750bd70ea5af991a26003546001600160a01b0316634000aea08584613ec987614416565b6040518463ffffffff1660e01b815260040180846001600160a01b03166001600160a01b0316815260200183815260200180602001828103825283818151815260200191508051906020019080838360005b83811015613f33578181015183820152602001613f1b565b50505050905090810190601f168015613f605780820380516001836020036101000a031916815260200191505b50945050505050602060405180830381600087803b158015613f8157600080fd5b505af1158015613f95573d6000803e3d6000fd5b505050506040513d6020811015613fab57600080fd5b5051613fe85760405162461bcd60e51b8152600401808060200182810382526023815260200180614a0a6023913960400191505060405180910390fd5b6005805460010190559392505050565b60008061400b888863ffffffff6136cd16565b9050600061402b620f4240611d3e8962ffffff8a1663ffffffff6136cd16565b9050600061403f868b63ffffffff61379016565b9050600061406f620f4240611d3e62ffffff8b166140638a8763ffffffff6136cd16565b9063ffffffff6136cd16565b905061409181614085868663ffffffff61296916565b9063ffffffff61296916565b9b9a5050505050505050505050565b604080516001600160a01b038481166024830152604480830185905283518084039091018152606490920183526020820180516001600160e01b03167f095ea7b300000000000000000000000000000000000000000000000000000000178152925182516000946060949389169392918291908083835b602083106141365780518252601f199092019160209182019101614117565b6001836020036101000a0380198251168184511680821785525050505050509050019150506000604051808303816000865af19150503d8060008114614198576040519150601f19603f3d011682016040523d82523d6000602084013e61419d565b606091505b50915091508180156141cb5750805115806141cb57508080602001905160208110156141c857600080fd5b50515b6132b7576040805162461bcd60e51b815260206004820152601e60248201527f5472616e7366657248656c7065723a20415050524f56455f4641494c45440000604482015290519081900360640190fd5b604080516001600160a01b038481166024830152604480830185905283518084039091018152606490920183526020820180516001600160e01b03167fa9059cbb00000000000000000000000000000000000000000000000000000000178152925182516000946060949389169392918291908083835b602083106142b25780518252601f199092019160209182019101614293565b6001836020036101000a0380198251168184511680821785525050505050509050019150506000604051808303816000865af19150503d8060008114614314576040519150601f19603f3d011682016040523d82523d6000602084013e614319565b606091505b5091509150818015614347575080511580614347575080806020019051602081101561434457600080fd5b50515b6132b7576040805162461bcd60e51b815260206004820152601f60248201527f5472616e7366657248656c7065723a205452414e534645525f4641494c454400604482015290519081900360640190fd5b600140600f5416600040600f541617600f81905550565b60808301516143c4908363ffffffff61455616565b6080830151611d72908263ffffffff61457316565b6143e16148fe565b6143f1856080015161010061457f565b50509183526001600160a01b031660208301526001600160e01b031916604082015290565b6060634042994660e01b6000808460000151856020015186604001518760600151600189608001516000015160405160240180896001600160a01b03166001600160a01b03168152602001888152602001878152602001866001600160a01b03166001600160a01b03168152602001856001600160e01b0319166001600160e01b031916815260200184815260200183815260200180602001828103825283818151815260200191508051906020019080838360005b838110156144e45781810151838201526020016144cc565b50505050905090810190601f1680156145115780820380516001836020036101000a031916815260200191505b5060408051601f198184030181529190526020810180516001600160e01b03166001600160e01b0319909d169c909c17909b5250989950505050505050505050919050565b61456382600383516145b9565b611d72828263ffffffff6146c316565b611245826000836145b9565b614587614933565b602082061561459c5760208206602003820191505b506020828101829052604080518085526000815290920101905290565b601781116145e0576145da8360e0600585901b16831763ffffffff6146dd16565b50611d72565b60ff811161461657614603836018611fe0600586901b161763ffffffff6146dd16565b506145da8382600163ffffffff6146f516565b61ffff811161464d5761463a836019611fe0600586901b161763ffffffff6146dd16565b506145da8382600263ffffffff6146f516565b63ffffffff81116146865761467383601a611fe0600586901b161763ffffffff6146dd16565b506145da8382600463ffffffff6146f516565b67ffffffffffffffff8111611d72576146b083601b611fe0600586901b161763ffffffff6146dd16565b50611c3e8382600863ffffffff6146f516565b6146cb614933565b6129c383846000015151848551614716565b6146e5614933565b6129c383846000015151846147c2565b6146fd614933565b61470e84856000015151858561480d565b949350505050565b61471e614933565b825182111561472c57600080fd5b84602001518285011115614756576147568561474e876020015187860161486b565b600202614882565b6000808651805187602083010193508088870111156147755787860182525b505050602084015b6020841061479c5780518252601f19909301926020918201910161477d565b51815160001960208690036101000a019081169019919091161790525083949350505050565b6147ca614933565b836020015183106147e6576147e6848560200151600202614882565b835180516020858301018481535080851415614803576001810182525b5093949350505050565b614815614933565b846020015184830111156148325761483285858401600202614882565b60006001836101000a0390508551838682010185831982511617815250805184870111156148605783860181525b509495945050505050565b60008183111561487c5750816129c6565b50919050565b815161488e838361457f565b50611c3e83826146c3565b8280548282559060005260206000209081019282156148ee579160200282015b828111156148ee57825182546001600160a01b0319166001600160a01b039091161782556020909201916001909101906148b9565b506148fa92915061494d565b5090565b6040805160a08101825260008082526020820181905291810182905260608101919091526080810161492e614933565b905290565b604051806040016040528060608152602001600081525090565b610f8191905b808211156148fa5780546001600160a01b031916815560010161495356fe436c617373726f6f6d3a206e6f7420656e6f756768204c696e6b20746f6b656e734f776e61626c653a206e6577206f776e657220697320746865207a65726f2061646472657373436c617373726f6f6d3a2073747564656e7420646f65736e2774206861766520656e6f7567682073636f7265436c617373726f6f6d3a2063616e2774206368616e6765206368616c6c656e6765206e6f77756e61626c6520746f207472616e73666572416e6443616c6c20746f206f7261636c65436c617373726f6f6d3a206e6f7420656e6f7567682044414920746f2070726f63656564436c617373726f6f6d3a2072656164207065726d697373696f6e2064656e696564436c617373726f6f6d3a2063616e2774206265206d6f72652074686174203130302520696e2070706d436c617373726f6f6d3a2073747564656e7473206c697374206e6f7420656d707479436c617373726f6f6d3a2070726f666573736f722063616e277420626520697473206f776e2073747564656e74536166654d6174683a206d756c7469706c69636174696f6e206f766572666c6f77436c617373726f6f6d3a20746f6f20736f6f6e20746f2066696e69736820636f75727365436c617373726f6f6d3a206170706c69636174696f6e7320617265207374696c6c206f70656e4f776e61626c653a2063616c6c6572206973206e6f7420746865206f776e6572436c617373726f6f6d3a20696e7665737420616c6c2062616c616e6365206265666f726520626567696e436c617373726f6f6d3a206170706c69636174696f6e732061726520616c726561647920636c6f736564436c617373726f6f6d3a2073747564656e74206973206e6f742072656769737465726564436c617373726f6f6d3a206170706c69636174696f6e732061726520616c7265616479206f70656e6564536f75726365206d75737420626520746865206f7261636c65206f66207468652072657175657374a2646970667358221220cca78b63cdfc0ebcfc0be20b456b5e751e7fbf94988b5326cb80032904a1caa364736f6c63430006060033",
  "immutableReferences": {},
  "source": "pragma solidity ^0.6.6;\r\n\r\nimport \"@openzeppelin/contracts/math/SafeMath.sol\";\r\nimport \"@openzeppelin/contracts/access/AccessControl.sol\";\r\nimport \"@openzeppelin/contracts/access/Ownable.sol\";\r\nimport \"@openzeppelin/contracts/token/ERC20/IERC20.sol\";\r\nimport \"@openzeppelin/contracts/utils/Address.sol\";\r\nimport \"@chainlink/contracts/src/v0.6/ChainlinkClient.sol\";\r\nimport \"@chainlink/contracts/src/v0.6/interfaces/LinkTokenInterface.sol\";\r\nimport \"@uniswap/v2-periphery/contracts/interfaces/IUniswapV2Router01.sol\";\r\nimport \"@uniswap/lib/contracts/libraries/TransferHelper.sol\";\r\nimport \"./interface/Aave/aToken.sol\";\r\nimport \"./interface/Aave/ILendingPool.sol\";\r\nimport \"./interface/Aave/ILendingPoolAddressesProvider.sol\";\r\nimport \"./interface/IUniversity.sol\";\r\nimport \"./interface/IStudent.sol\";\r\nimport \"./interface/IClassroom.sol\";\r\nimport \"./interface/IStudentApplication.sol\";\r\nimport \"./interface/IClassroomChallenge.sol\";\r\nimport \"./interface/IStudentApplicationFactory.sol\";\r\nimport \"./StudentApplicationFactory.sol\";\r\nimport \"./MyUtils.sol\";\r\n\r\n\r\ncontract Classroom is Ownable, ChainlinkClient, IClassroom {\r\n    IUniversity public university;\r\n    bool public openForApplication;\r\n    bool public courseFinished;\r\n    bool public classroomActive;\r\n    bool _timestampAlarm;\r\n    address[] _studentApplications;\r\n    address[] _validStudentApplications;\r\n    mapping(address => address) _studentApplicationsLink;\r\n    address[] _studentsLookUp;\r\n    address[] _applicationsLookUp;\r\n    uint256 _endDate;\r\n    uint256 _totalBalance;\r\n    bytes32 _seed;\r\n\r\n    //Classroom parameters\r\n    bytes32 public name;\r\n    uint24 public principalCut;\r\n    uint24 public poolCut;\r\n    int32 public minScore;\r\n    uint256 public override entryPrice;\r\n    uint256 public duration;\r\n    uint256 public compoundApplyPercentage;\r\n    address public challengeAddress;\r\n\r\n    //Tokens\r\n    IERC20 public daiToken;\r\n    CERC20 public cDAI;\r\n\r\n    //Factory\r\n    StudentApplicationFactory _studentApplicationFactory;\r\n\r\n    //Chainlink config\r\n    address _oracleRandom;\r\n    bytes32 _requestIdRandom;\r\n    uint256 _oraclePaymentRandom;\r\n    address _oracleTimestamp;\r\n    bytes32 _requestIdTimestamp;\r\n    uint256 _oraclePaymentTimestamp;\r\n    address _linkToken;\r\n\r\n    //Uniswap Config\r\n    address _uniswapDAI;\r\n    address _uniswapLINK;\r\n    IUniswapV2Router01 _uniswapRouter;\r\n\r\n    //Aave Config\r\n    ILendingPoolAddressesProvider _aaveProvider;\r\n    ILendingPool _aaveLendingPool;\r\n    address _aaveLendingPoolCore;\r\n    address _aTokenDAI;\r\n\r\n    constructor(\r\n        bytes32 name_,\r\n        uint24 principalCut_,\r\n        uint24 poolCut_,\r\n        int32 minScore_,\r\n        uint256 entryPrice_,\r\n        uint256 duration_,\r\n        address payable universityAddress,\r\n        address challengeAddress_,\r\n        address daiAddress,\r\n        address compoundDAIAddress,\r\n        address studentApplicationFactoryAddress\r\n    ) public {\r\n        name = name_;\r\n        principalCut = principalCut_;\r\n        poolCut = poolCut_;\r\n        minScore = minScore_;\r\n        entryPrice = entryPrice_;\r\n        duration = duration_;\r\n        compoundApplyPercentage = 0.5 * 1e6;\r\n        university = IUniversity(universityAddress);\r\n        challengeAddress = challengeAddress_;\r\n        openForApplication = false;\r\n        classroomActive = false;\r\n        daiToken = IERC20(daiAddress);\r\n        cDAI = CERC20(compoundDAIAddress);\r\n        _studentApplicationFactory = StudentApplicationFactory(studentApplicationFactoryAddress);\r\n    }\r\n\r\n    event LogOpenApplications();\r\n    event LogCloseApplications();\r\n    event LogCourseFinished();\r\n    event LogChangeChallenge(address);\r\n    event LogChangeName(bytes32);\r\n    event LogChangePrincipalCut(uint24);\r\n    event LogChangePoolCut(uint24);\r\n    event LogChangeMinScore(int32);\r\n    event LogChangeEntryPrice(uint256);\r\n    event LogChangeDuration(uint256);\r\n\r\n    // @dev \"Stack too deep\" error if done in the constructor\r\n    function configureOracles(\r\n        address oracleRandom,\r\n        bytes32 requestIdRandom,\r\n        uint256 oraclePaymentRandom,\r\n        address oracleTimestamp,\r\n        bytes32 requestIdTimestamp,\r\n        uint256 oraclePaymentTimestamp,\r\n        address linkToken\r\n    ) public onlyOwner {\r\n        _oracleRandom = oracleRandom;\r\n        _requestIdRandom = requestIdRandom;\r\n        _oraclePaymentRandom = oraclePaymentRandom;\r\n        _oracleTimestamp = oracleTimestamp;\r\n        _requestIdTimestamp = requestIdTimestamp;\r\n        _oraclePaymentTimestamp = oraclePaymentTimestamp;\r\n        _linkToken = linkToken;\r\n        require(\r\n            LinkTokenInterface(_linkToken).balanceOf(address(this)) >= _oraclePaymentRandom,\r\n            \"Classroom: not enough Link tokens\"\r\n        );\r\n        _generateSeed();\r\n    }\r\n\r\n    function configureUniswap(\r\n        address uniswapDAI,\r\n        address uniswapLINK,\r\n        address uniswapRouter\r\n    ) public onlyOwner {\r\n        _uniswapDAI = uniswapDAI;\r\n        _uniswapLINK = uniswapLINK;\r\n        _uniswapRouter = IUniswapV2Router01(uniswapRouter);\r\n    }\r\n\r\n    function configureAave(\r\n        address lendingPoolAddressesProvider\r\n    ) public onlyOwner {\r\n        _aaveProvider = ILendingPoolAddressesProvider(lendingPoolAddressesProvider);\r\n        _aaveLendingPool = ILendingPool(_aaveProvider.getLendingPool());\r\n        _aaveLendingPoolCore = _aaveProvider.getLendingPoolCore();\r\n        _aTokenDAI = ILendingPoolCore(_aaveLendingPoolCore)\r\n            .getReserveATokenAddress(address(daiToken));\r\n    }\r\n\r\n    function transferOwnershipClassroom(address newOwner) public override {\r\n        transferOwnership(newOwner);\r\n    }\r\n\r\n    function changeName(bytes32 val) public onlyOwner {\r\n        name = val;\r\n        emit LogChangeName(name);\r\n    }\r\n\r\n    function changePrincipalCut(uint24 val) public onlyOwner {\r\n        principalCut = val;\r\n        emit LogChangePrincipalCut(principalCut);\r\n    }\r\n\r\n    function changePoolCut(uint24 val) public onlyOwner {\r\n        poolCut = val;\r\n        emit LogChangePoolCut(poolCut);\r\n    }\r\n\r\n    function changeMinScore(int32 val) public onlyOwner {\r\n        minScore = val;\r\n        emit LogChangeMinScore(minScore);\r\n    }\r\n\r\n    function changeEntryPrice(uint256 val) public onlyOwner {\r\n        entryPrice = val;\r\n        emit LogChangeEntryPrice(entryPrice);\r\n    }\r\n\r\n    function changeDuration(uint256 val) public onlyOwner {\r\n        duration = val;\r\n        emit LogChangeDuration(duration);\r\n    }\r\n\r\n    function changeCompoundApplyPercentage(uint256 ppm) public onlyOwner {\r\n        require(ppm <= 1e6, \"Classroom: can't be more that 100% in ppm\");\r\n        compoundApplyPercentage = ppm;\r\n    }\r\n\r\n    function changeChallenge(address addr) public onlyOwner {\r\n        require(isClassroomEmpty(), \"Classroom: can't change challenge now\");\r\n        challengeAddress = addr;\r\n        emit LogChangeChallenge(challengeAddress);\r\n    }\r\n\r\n    function viewAllApplications()\r\n        public\r\n        view\r\n        onlyOwner\r\n        returns (address[] memory)\r\n    {\r\n        return _applicationsLookUp;\r\n    }\r\n\r\n    function viewMyApplication() public view override returns (address) {\r\n        return viewApplication(_msgSender());\r\n    }\r\n\r\n    function viewApplication(address addr) public view returns (address) {\r\n        require(\r\n            addr == _msgSender() || _msgSender() == owner(),\r\n            \"Classroom: read permission denied\"\r\n        );\r\n        return _studentApplicationsLink[addr];\r\n    }\r\n\r\n    function viewAllStudents()\r\n        public\r\n        view\r\n        onlyOwner\r\n        returns (address[] memory)\r\n    {\r\n        return _studentsLookUp;\r\n    }\r\n\r\n    function isClassroomEmpty() public view returns (bool) {\r\n        return\r\n            _studentApplications.length.add(_validStudentApplications.length) ==\r\n            0;\r\n    }\r\n\r\n    function isCourseOngoing() public view returns (bool) {\r\n        return _validStudentApplications.length > 0;\r\n    }\r\n\r\n    function openApplications() public onlyOwner {\r\n        require(\r\n            _oracleRandom != address(0),\r\n            \"Classroom: setup oracles first\"\r\n        );\r\n        require(\r\n            _uniswapDAI != address(0),\r\n            \"Classroom: setup Uniswap first\"\r\n        );\r\n        require(\r\n            _aaveLendingPoolCore != address(0),\r\n            \"Classroom: setup Aave first\"\r\n        );\r\n        require(\r\n            !openForApplication,\r\n            \"Classroom: applications are already opened\"\r\n        );\r\n        require(\r\n            _studentApplications.length == 0,\r\n            \"Classroom: students list not empty\"\r\n        );\r\n        require(\r\n            LinkTokenInterface(_linkToken).balanceOf(address(this)) >= _oraclePaymentTimestamp,\r\n            \"Classroom: not enough Link tokens\"\r\n        );\r\n        openForApplication = true;\r\n        emit LogOpenApplications();\r\n    }\r\n\r\n    function closeApplications() public onlyOwner {\r\n        require(\r\n            openForApplication,\r\n            \"Classroom: applications are already closed\"\r\n        );\r\n        openForApplication = false;\r\n        emit LogCloseApplications();\r\n    }\r\n\r\n    //public onlyOwner allow the professor to apply money before and after closing applications\r\n    function applyDAI() public onlyOwner {\r\n        uint256 balance = daiToken.balanceOf(address(this));\r\n        if (balance <= 0) return;\r\n        uint256 compoundApply = compoundApplyPercentage.mul(balance).div(1e6);\r\n        uint256 aaveApply = balance.sub(compoundApply);\r\n        applyCompound(compoundApply);\r\n        applyAave(aaveApply);\r\n    }\r\n\r\n    function applyCompound(uint256 val) internal{\r\n        TransferHelper.safeApprove(address(daiToken), address(cDAI), val);\r\n        cDAI.mint(val);\r\n    }\r\n\r\n    function applyAave(uint256 val) internal{\r\n        TransferHelper.safeApprove(address(daiToken), _aaveLendingPoolCore, val);\r\n        _aaveLendingPool.deposit(address(daiToken), val, 0);\r\n    }\r\n\r\n    function studentApply() public override {\r\n        require(\r\n            _msgSender() != owner(),\r\n            \"Classroom: professor can't be its own student\"\r\n        );\r\n        require(\r\n            university.studentIsRegistered(_msgSender()),\r\n            \"Classroom: student is not registered\"\r\n        );\r\n        require(openForApplication, \"Classroom: applications closed\");\r\n        IStudent applicant = IStudent(_msgSender());\r\n        require(\r\n            applicant.score() >= minScore,\r\n            \"Classroom: student doesn't have enough score\"\r\n        );\r\n        address application = _createStudentApplication(address(applicant));\r\n        _studentApplications.push(application);\r\n    }\r\n\r\n    function _createStudentApplication(address student)\r\n        internal\r\n        returns (address)\r\n    {\r\n        address newApplication = _studentApplicationFactory.newStudentApplication(\r\n            student,\r\n            address(this),\r\n            address(daiToken),\r\n            challengeAddress,\r\n            generateNewSeed()\r\n        );\r\n        _studentApplicationsLink[student] = newApplication;\r\n        university.registerStudentApplication(\r\n            student,\r\n            newApplication\r\n        );\r\n        _studentsLookUp.push(student);\r\n        _applicationsLookUp.push(newApplication);\r\n        return newApplication;\r\n    }\r\n\r\n    function generateNewSeed() internal view returns (bytes32) {\r\n        return blockhash(0) ^ _seed;\r\n    }\r\n\r\n    function beginCourse() public onlyOwner {\r\n        require(!openForApplication, \"Classroom: applications are still open\");\r\n        require(\r\n            daiToken.balanceOf(address(this)) == 0,\r\n            \"Classroom: invest all balance before begin\"\r\n        );\r\n        checkApplications();\r\n        _studentApplications = new address[](0);\r\n        require(\r\n            _validStudentApplications.length > 0,\r\n            \"Classroom: no ready application\"\r\n        );\r\n        classroomActive = true;\r\n        _setAlarm();\r\n    }\r\n\r\n    function checkApplications() internal {\r\n        for (uint256 i = 0; i < _studentApplications.length; i++) {\r\n            if (IStudentApplication(_studentApplications[i]).applicationState() == 1) {\r\n                IStudentApplication(_studentApplications[i]).activate();\r\n                _validStudentApplications.push(_studentApplications[i]);\r\n            } else {\r\n                IStudentApplication(_studentApplications[i]).expire();\r\n            }\r\n        }\r\n    }\r\n\r\n    function finishCourse() public onlyOwner {\r\n        require(_timestampAlarm, \"Classroom: too soon to finish course\");\r\n        require(\r\n            _validStudentApplications.length > 0,\r\n            \"Classroom: no applications\"\r\n        );\r\n        _totalBalance = _recoverInvestment();\r\n        courseFinished = true;\r\n        emit LogCourseFinished();\r\n    }\r\n\r\n    function _recoverInvestment() internal returns (uint256) {\r\n        uint256 balanceCompound = cDAI.balanceOf(address(this));\r\n        cDAI.redeem(balanceCompound);\r\n        uint256 balanceAave = aToken(_aTokenDAI).balanceOf(address(this));\r\n        aToken(_aTokenDAI).redeem(balanceAave);\r\n        return balanceCompound.add(balanceAave);\r\n    }\r\n\r\n    function processResults() public onlyOwner {\r\n        require(courseFinished, \"Classroom: course not finished\");\r\n        require(\r\n            _totalBalance <= daiToken.balanceOf(address(this)),\r\n            \"Classroom: not enough DAI to proceed\"\r\n        );\r\n        (uint256 successCount, uint256 emptyCount) = _startAnswerVerification();\r\n        (\r\n            uint256 universityCut,\r\n            uint256[] memory studentAllowances\r\n        ) = _accountValues(successCount, emptyCount);\r\n        _resolveStudentAllowances(studentAllowances);\r\n        _resolveUniversityCut(universityCut);\r\n        _updateStudentScores();\r\n        _clearClassroom();\r\n    }\r\n\r\n    function _startAnswerVerification() internal returns (uint256, uint256) {\r\n        uint256 successCount = 0;\r\n        uint256 emptyCount = 0;\r\n        for (uint256 i = 0; i < _validStudentApplications.length; i++) {\r\n            IStudentApplication(_validStudentApplications[i]).registerFinalAnswer();\r\n            uint256 appState = IStudentApplication(_validStudentApplications[i]).applicationState();\r\n            if (appState == 3)\r\n                successCount++;\r\n            if (appState == 5)\r\n                emptyCount++;\r\n        }\r\n        return (successCount, emptyCount);\r\n    }\r\n\r\n    function _accountValues(uint256 successCount, uint256 emptyCount)\r\n        internal\r\n        returns (uint256, uint256[] memory)\r\n    {\r\n        uint256 nStudents = _validStudentApplications.length;\r\n        uint256 returnsPool = _totalBalance.sub(entryPrice.mul(nStudents));\r\n        uint256 professorPaymentPerStudent = entryPrice.mul(principalCut).div(\r\n            1e6\r\n        );\r\n        uint256 studentPrincipalReturn = entryPrice.sub(\r\n            professorPaymentPerStudent\r\n        );\r\n        uint256 successPool = returnsPool.mul(successCount).div(nStudents);\r\n        uint256 professorTotalPoolSuccessShare = successPool.mul(poolCut).div(\r\n            1e6\r\n        );\r\n        uint256 successStudentPoolShare = returnsPool\r\n            .sub(professorTotalPoolSuccessShare)\r\n            .div(successCount);\r\n        uint256[] memory studentAllowances = new uint256[](nStudents);\r\n        for (uint256 i = 0; i < nStudents; i++) {\r\n            uint256 appState = IStudentApplication(_validStudentApplications[i]).applicationState();\r\n            if (appState == 3) {\r\n                IStudentApplication(_validStudentApplications[i]).accountAllowance(\r\n                    studentPrincipalReturn,\r\n                    successStudentPoolShare\r\n                );\r\n                studentAllowances[i] = studentPrincipalReturn.add(\r\n                    successStudentPoolShare\r\n                );\r\n            }\r\n            if (appState == 4) {\r\n                IStudentApplication(_validStudentApplications[i]).accountAllowance(\r\n                    studentPrincipalReturn,\r\n                    0\r\n                );\r\n                studentAllowances[i] = studentPrincipalReturn;\r\n            }\r\n            if (appState== 5)\r\n                IStudentApplication(_validStudentApplications[i]).accountAllowance(0, 0);\r\n        }\r\n        uint24 uCut = university.cut();\r\n        return (\r\n            _calculateUniversityShare(emptyCount, \r\n                entryPrice,\r\n                professorTotalPoolSuccessShare,\r\n                uCut,\r\n                nStudents,\r\n                professorPaymentPerStudent\r\n            ),\r\n            studentAllowances\r\n        );\r\n    }\r\n\r\n    function _calculateUniversityShare(uint256 emptyCount, uint256 _entryPrice, uint256 professorTotalPoolSuccessShare, uint24 uCut, uint256 nStudents, uint professorPaymentPerStudent) internal pure returns (uint){\r\n        uint256 universityEmptyShare = emptyCount.mul(_entryPrice);\r\n        uint256 universityPaymentShare = professorTotalPoolSuccessShare\r\n            .mul(uCut)\r\n            .div(1e6);\r\n        uint256 notEmptyCount = nStudents.sub(emptyCount);\r\n        uint256 universitySucessPoolShare = professorPaymentPerStudent\r\n            .mul(notEmptyCount)\r\n            .mul(uCut)\r\n            .div(1e6);\r\n        return universityEmptyShare\r\n            .add(universityPaymentShare)\r\n            .add(universitySucessPoolShare);\r\n    }\r\n\r\n    function _resolveStudentAllowances(uint256[] memory studentAllowances)\r\n        internal\r\n    {\r\n        for (uint256 i = 0; i < _validStudentApplications.length; i++) {\r\n            if (studentAllowances[i] > 0)\r\n                TransferHelper.safeApprove\r\n                    (address(daiToken),\r\n                    address(_validStudentApplications[i]),\r\n                    studentAllowances[i]\r\n                );\r\n        }\r\n    }\r\n\r\n    function _resolveUniversityCut(uint256 universityCut) internal {\r\n        TransferHelper.safeTransfer(address(daiToken), address(university), universityCut);\r\n        university.accountRevenue(universityCut);\r\n    }\r\n\r\n    function _updateStudentScores() internal {\r\n        for (uint256 i = 0; i < _validStudentApplications.length; i++) {\r\n            uint256 appState = IStudentApplication(_validStudentApplications[i]).applicationState();\r\n            if (appState == 3)\r\n                university.addStudentScore(\r\n                    IStudentApplication(_validStudentApplications[i]).studentAddress(),\r\n                    1\r\n                );\r\n            if (appState == 4)\r\n                university.subStudentScore(\r\n                    IStudentApplication(_validStudentApplications[i]).studentAddress(),\r\n                    1\r\n                );\r\n            if (appState == 5)\r\n                university.subStudentScore(\r\n                    IStudentApplication(_validStudentApplications[i]).studentAddress(),\r\n                    2\r\n                );\r\n        }\r\n    }\r\n\r\n    function _clearClassroom() internal {\r\n        _validStudentApplications = new address[](0);\r\n        withdrawAllResults();\r\n        _totalBalance = 0;\r\n        courseFinished = false;\r\n        _timestampAlarm = false;\r\n        _mutateSeed();\r\n    }\r\n\r\n    function _mutateSeed() internal {\r\n        _seed = (_seed & blockhash(0)) | (_seed & blockhash(1));\r\n    }\r\n\r\n    function withdrawAllResults() public onlyOwner {\r\n        daiToken.transferFrom(\r\n            address(this),\r\n            owner(),\r\n            daiToken.balanceOf(address(this))\r\n        );\r\n    }\r\n\r\n    function swapDAI_LINK(uint256 amount, uint256 deadline) public onlyOwner {\r\n        require(\r\n            _uniswapLINK != address(0),\r\n            \"University: setup uniswap first\"\r\n        );\r\n        swapBlind(_uniswapDAI, _uniswapLINK, amount, deadline);\r\n    }\r\n\r\n    function swapLINK_DAI(uint256 amount, uint256 deadline) public onlyOwner {\r\n        require(\r\n            _uniswapLINK != address(0),\r\n            \"University: setup uniswap first\"\r\n        );\r\n        swapBlind(_uniswapLINK, _uniswapDAI, amount, deadline);\r\n    }\r\n\r\n    function swapBlind(address tokenA, address tokenB, uint256 amount, uint256 deadline) internal {\r\n        TransferHelper.safeApprove(tokenA, address(_uniswapRouter), amount);\r\n        address[] memory path = new address[](2);\r\n        path[0] = tokenA;\r\n        path[1] = tokenB;\r\n        _uniswapRouter.swapExactTokensForTokens(\r\n            amount,\r\n            0,\r\n            path,\r\n            address(this),\r\n            deadline\r\n        );\r\n    }\r\n\r\n    function _generateSeed() internal {\r\n        Chainlink.Request memory req = buildChainlinkRequest(\r\n            _requestIdRandom,\r\n            address(this),\r\n            this.fulfillGenerateSeed.selector\r\n        );\r\n        sendChainlinkRequestTo(_oracleRandom, req, _oraclePaymentRandom);\r\n    }\r\n\r\n    function fulfillGenerateSeed(bytes32 _requestId, uint256 data)\r\n        public\r\n        recordChainlinkFulfillment(_requestId)\r\n    {\r\n        _seed = keccak256(MyUtils._toBytes(data));\r\n    }\r\n\r\n    function _setAlarm() internal {\r\n        Chainlink.Request memory req = buildChainlinkRequest(\r\n            _requestIdTimestamp,\r\n            address(this),\r\n            this.fulfillGetTimestamp.selector\r\n        );\r\n        req.addUint(\"until\", now + duration);\r\n        sendChainlinkRequestTo(_oracleTimestamp, req, _oraclePaymentTimestamp);\r\n    }\r\n\r\n    function fulfillGetTimestamp(bytes32 _requestId)\r\n        public\r\n        recordChainlinkFulfillment(_requestId)\r\n    {\r\n        _timestampAlarm = true;\r\n    }\r\n}\r\n",
  "sourcePath": "/mnt/e/Repositories/Uproot/contracts/Classroom.sol",
  "compiler": {
    "name": "solc",
    "version": "0.6.6+commit.6c089d02.Emscripten.clang"
  },
  "schemaVersion": "3.1.0",
  "updatedAt": "2020-05-07T17:22:28.429Z",
  "devdoc": {
    "methods": {
      "owner()": {
        "details": "Returns the address of the current owner."
      },
      "renounceOwnership()": {
        "details": "Leaves the contract without owner. It will not be possible to call `onlyOwner` functions anymore. Can only be called by the current owner.     * NOTE: Renouncing ownership will leave the contract without an owner, thereby removing any functionality that is only available to the owner."
      },
      "transferOwnership(address)": {
        "details": "Transfers ownership of the contract to a new account (`newOwner`). Can only be called by the current owner."
      }
    }
  },
  "userdoc": {
    "methods": {}
  }
}