{
  "contractName": "Classroom",
  "abi": [
    {
      "inputs": [
        {
          "internalType": "bytes32",
          "name": "_name",
          "type": "bytes32"
        },
        {
          "internalType": "uint24",
          "name": "_principalCut",
          "type": "uint24"
        },
        {
          "internalType": "uint24",
          "name": "_poolCut",
          "type": "uint24"
        },
        {
          "internalType": "int32",
          "name": "_minScore",
          "type": "int32"
        },
        {
          "internalType": "uint256",
          "name": "_entryPrice",
          "type": "uint256"
        },
        {
          "internalType": "uint256",
          "name": "_duration",
          "type": "uint256"
        },
        {
          "internalType": "address payable",
          "name": "universityAddress",
          "type": "address"
        },
        {
          "internalType": "address",
          "name": "challengeAddress",
          "type": "address"
        },
        {
          "internalType": "address",
          "name": "daiAddress",
          "type": "address"
        },
        {
          "internalType": "address",
          "name": "compoundDAIAddress",
          "type": "address"
        },
        {
          "internalType": "address",
          "name": "studentApplicationFactoryAddress",
          "type": "address"
        }
      ],
      "stateMutability": "nonpayable",
      "type": "constructor"
    },
    {
      "anonymous": false,
      "inputs": [
        {
          "indexed": true,
          "internalType": "bytes32",
          "name": "id",
          "type": "bytes32"
        }
      ],
      "name": "ChainlinkCancelled",
      "type": "event"
    },
    {
      "anonymous": false,
      "inputs": [
        {
          "indexed": true,
          "internalType": "bytes32",
          "name": "id",
          "type": "bytes32"
        }
      ],
      "name": "ChainlinkFulfilled",
      "type": "event"
    },
    {
      "anonymous": false,
      "inputs": [
        {
          "indexed": true,
          "internalType": "bytes32",
          "name": "id",
          "type": "bytes32"
        }
      ],
      "name": "ChainlinkRequested",
      "type": "event"
    },
    {
      "anonymous": false,
      "inputs": [
        {
          "indexed": false,
          "internalType": "address",
          "name": "",
          "type": "address"
        }
      ],
      "name": "LogChangeChallenge",
      "type": "event"
    },
    {
      "anonymous": false,
      "inputs": [
        {
          "indexed": false,
          "internalType": "uint256",
          "name": "",
          "type": "uint256"
        }
      ],
      "name": "LogChangeDuration",
      "type": "event"
    },
    {
      "anonymous": false,
      "inputs": [
        {
          "indexed": false,
          "internalType": "uint256",
          "name": "",
          "type": "uint256"
        }
      ],
      "name": "LogChangeEntryPrice",
      "type": "event"
    },
    {
      "anonymous": false,
      "inputs": [
        {
          "indexed": false,
          "internalType": "int32",
          "name": "",
          "type": "int32"
        }
      ],
      "name": "LogChangeMinScore",
      "type": "event"
    },
    {
      "anonymous": false,
      "inputs": [
        {
          "indexed": false,
          "internalType": "bytes32",
          "name": "",
          "type": "bytes32"
        }
      ],
      "name": "LogChangeName",
      "type": "event"
    },
    {
      "anonymous": false,
      "inputs": [
        {
          "indexed": false,
          "internalType": "uint24",
          "name": "",
          "type": "uint24"
        }
      ],
      "name": "LogChangePoolCut",
      "type": "event"
    },
    {
      "anonymous": false,
      "inputs": [
        {
          "indexed": false,
          "internalType": "uint24",
          "name": "",
          "type": "uint24"
        }
      ],
      "name": "LogChangePrincipalCut",
      "type": "event"
    },
    {
      "anonymous": false,
      "inputs": [],
      "name": "LogCloseApplications",
      "type": "event"
    },
    {
      "anonymous": false,
      "inputs": [],
      "name": "LogCourseFinished",
      "type": "event"
    },
    {
      "anonymous": false,
      "inputs": [],
      "name": "LogOpenApplications",
      "type": "event"
    },
    {
      "anonymous": false,
      "inputs": [
        {
          "indexed": true,
          "internalType": "address",
          "name": "previousOwner",
          "type": "address"
        },
        {
          "indexed": true,
          "internalType": "address",
          "name": "newOwner",
          "type": "address"
        }
      ],
      "name": "OwnershipTransferred",
      "type": "event"
    },
    {
      "inputs": [],
      "name": "_challengeAddress",
      "outputs": [
        {
          "internalType": "address",
          "name": "",
          "type": "address"
        }
      ],
      "stateMutability": "view",
      "type": "function"
    },
    {
      "inputs": [],
      "name": "_uniswapRouter",
      "outputs": [
        {
          "internalType": "contract IUniswapV2Router01",
          "name": "",
          "type": "address"
        }
      ],
      "stateMutability": "view",
      "type": "function"
    },
    {
      "inputs": [],
      "name": "cDAI",
      "outputs": [
        {
          "internalType": "contract CERC20",
          "name": "",
          "type": "address"
        }
      ],
      "stateMutability": "view",
      "type": "function"
    },
    {
      "inputs": [],
      "name": "classroomActive",
      "outputs": [
        {
          "internalType": "bool",
          "name": "",
          "type": "bool"
        }
      ],
      "stateMutability": "view",
      "type": "function"
    },
    {
      "inputs": [],
      "name": "courseFinished",
      "outputs": [
        {
          "internalType": "bool",
          "name": "",
          "type": "bool"
        }
      ],
      "stateMutability": "view",
      "type": "function"
    },
    {
      "inputs": [],
      "name": "daiToken",
      "outputs": [
        {
          "internalType": "contract IERC20",
          "name": "",
          "type": "address"
        }
      ],
      "stateMutability": "view",
      "type": "function"
    },
    {
      "inputs": [],
      "name": "duration",
      "outputs": [
        {
          "internalType": "uint256",
          "name": "",
          "type": "uint256"
        }
      ],
      "stateMutability": "view",
      "type": "function"
    },
    {
      "inputs": [],
      "name": "entryPrice",
      "outputs": [
        {
          "internalType": "uint256",
          "name": "",
          "type": "uint256"
        }
      ],
      "stateMutability": "view",
      "type": "function"
    },
    {
      "inputs": [],
      "name": "minScore",
      "outputs": [
        {
          "internalType": "int32",
          "name": "",
          "type": "int32"
        }
      ],
      "stateMutability": "view",
      "type": "function"
    },
    {
      "inputs": [],
      "name": "name",
      "outputs": [
        {
          "internalType": "bytes32",
          "name": "",
          "type": "bytes32"
        }
      ],
      "stateMutability": "view",
      "type": "function"
    },
    {
      "inputs": [],
      "name": "openForApplication",
      "outputs": [
        {
          "internalType": "bool",
          "name": "",
          "type": "bool"
        }
      ],
      "stateMutability": "view",
      "type": "function"
    },
    {
      "inputs": [],
      "name": "owner",
      "outputs": [
        {
          "internalType": "address",
          "name": "",
          "type": "address"
        }
      ],
      "stateMutability": "view",
      "type": "function"
    },
    {
      "inputs": [],
      "name": "poolCut",
      "outputs": [
        {
          "internalType": "uint24",
          "name": "",
          "type": "uint24"
        }
      ],
      "stateMutability": "view",
      "type": "function"
    },
    {
      "inputs": [],
      "name": "principalCut",
      "outputs": [
        {
          "internalType": "uint24",
          "name": "",
          "type": "uint24"
        }
      ],
      "stateMutability": "view",
      "type": "function"
    },
    {
      "inputs": [],
      "name": "renounceOwnership",
      "outputs": [],
      "stateMutability": "nonpayable",
      "type": "function"
    },
    {
      "inputs": [
        {
          "internalType": "address",
          "name": "newOwner",
          "type": "address"
        }
      ],
      "name": "transferOwnership",
      "outputs": [],
      "stateMutability": "nonpayable",
      "type": "function"
    },
    {
      "inputs": [],
      "name": "university",
      "outputs": [
        {
          "internalType": "contract IUniversity",
          "name": "",
          "type": "address"
        }
      ],
      "stateMutability": "view",
      "type": "function"
    },
    {
      "inputs": [
        {
          "internalType": "address",
          "name": "oracleRandom",
          "type": "address"
        },
        {
          "internalType": "bytes32",
          "name": "requestIdRandom",
          "type": "bytes32"
        },
        {
          "internalType": "uint256",
          "name": "oraclePaymentRandom",
          "type": "uint256"
        },
        {
          "internalType": "address",
          "name": "oracleTimestamp",
          "type": "address"
        },
        {
          "internalType": "bytes32",
          "name": "requestIdTimestamp",
          "type": "bytes32"
        },
        {
          "internalType": "uint256",
          "name": "oraclePaymentTimestamp",
          "type": "uint256"
        },
        {
          "internalType": "address",
          "name": "linkToken",
          "type": "address"
        }
      ],
      "name": "configureOracles",
      "outputs": [],
      "stateMutability": "nonpayable",
      "type": "function"
    },
    {
      "inputs": [
        {
          "internalType": "address",
          "name": "uniswapLINK",
          "type": "address"
        },
        {
          "internalType": "address",
          "name": "uniswapDAI",
          "type": "address"
        },
        {
          "internalType": "address",
          "name": "uniswapRouter",
          "type": "address"
        }
      ],
      "name": "configureUniswap",
      "outputs": [],
      "stateMutability": "nonpayable",
      "type": "function"
    },
    {
      "inputs": [
        {
          "internalType": "address",
          "name": "newOwner",
          "type": "address"
        }
      ],
      "name": "transferOwnershipClassroom",
      "outputs": [],
      "stateMutability": "nonpayable",
      "type": "function"
    },
    {
      "inputs": [
        {
          "internalType": "bytes32",
          "name": "val",
          "type": "bytes32"
        }
      ],
      "name": "changeName",
      "outputs": [],
      "stateMutability": "nonpayable",
      "type": "function"
    },
    {
      "inputs": [
        {
          "internalType": "uint24",
          "name": "val",
          "type": "uint24"
        }
      ],
      "name": "changePrincipalCut",
      "outputs": [],
      "stateMutability": "nonpayable",
      "type": "function"
    },
    {
      "inputs": [
        {
          "internalType": "uint24",
          "name": "val",
          "type": "uint24"
        }
      ],
      "name": "changePoolCut",
      "outputs": [],
      "stateMutability": "nonpayable",
      "type": "function"
    },
    {
      "inputs": [
        {
          "internalType": "int32",
          "name": "val",
          "type": "int32"
        }
      ],
      "name": "changeMinScore",
      "outputs": [],
      "stateMutability": "nonpayable",
      "type": "function"
    },
    {
      "inputs": [
        {
          "internalType": "uint256",
          "name": "val",
          "type": "uint256"
        }
      ],
      "name": "changeEntryPrice",
      "outputs": [],
      "stateMutability": "nonpayable",
      "type": "function"
    },
    {
      "inputs": [
        {
          "internalType": "uint256",
          "name": "val",
          "type": "uint256"
        }
      ],
      "name": "changeDuration",
      "outputs": [],
      "stateMutability": "nonpayable",
      "type": "function"
    },
    {
      "inputs": [
        {
          "internalType": "address",
          "name": "addr",
          "type": "address"
        }
      ],
      "name": "changeChallenge",
      "outputs": [],
      "stateMutability": "nonpayable",
      "type": "function"
    },
    {
      "inputs": [],
      "name": "viewAllApplications",
      "outputs": [
        {
          "internalType": "address[]",
          "name": "",
          "type": "address[]"
        }
      ],
      "stateMutability": "view",
      "type": "function"
    },
    {
      "inputs": [],
      "name": "viewMyApplication",
      "outputs": [
        {
          "internalType": "address",
          "name": "",
          "type": "address"
        }
      ],
      "stateMutability": "view",
      "type": "function"
    },
    {
      "inputs": [
        {
          "internalType": "address",
          "name": "addr",
          "type": "address"
        }
      ],
      "name": "viewApplication",
      "outputs": [
        {
          "internalType": "address",
          "name": "",
          "type": "address"
        }
      ],
      "stateMutability": "view",
      "type": "function"
    },
    {
      "inputs": [],
      "name": "viewAllStudents",
      "outputs": [
        {
          "internalType": "address[]",
          "name": "",
          "type": "address[]"
        }
      ],
      "stateMutability": "view",
      "type": "function"
    },
    {
      "inputs": [],
      "name": "isClassroomEmpty",
      "outputs": [
        {
          "internalType": "bool",
          "name": "",
          "type": "bool"
        }
      ],
      "stateMutability": "view",
      "type": "function"
    },
    {
      "inputs": [],
      "name": "isCourseOngoing",
      "outputs": [
        {
          "internalType": "bool",
          "name": "",
          "type": "bool"
        }
      ],
      "stateMutability": "view",
      "type": "function"
    },
    {
      "inputs": [],
      "name": "openApplications",
      "outputs": [],
      "stateMutability": "nonpayable",
      "type": "function"
    },
    {
      "inputs": [],
      "name": "closeApplications",
      "outputs": [],
      "stateMutability": "nonpayable",
      "type": "function"
    },
    {
      "inputs": [],
      "name": "applyDAI",
      "outputs": [],
      "stateMutability": "nonpayable",
      "type": "function"
    },
    {
      "inputs": [],
      "name": "studentApply",
      "outputs": [],
      "stateMutability": "nonpayable",
      "type": "function"
    },
    {
      "inputs": [],
      "name": "beginCourse",
      "outputs": [],
      "stateMutability": "nonpayable",
      "type": "function"
    },
    {
      "inputs": [],
      "name": "finishCourse",
      "outputs": [],
      "stateMutability": "nonpayable",
      "type": "function"
    },
    {
      "inputs": [],
      "name": "processResults",
      "outputs": [],
      "stateMutability": "nonpayable",
      "type": "function"
    },
    {
      "inputs": [],
      "name": "withdrawAllResults",
      "outputs": [],
      "stateMutability": "nonpayable",
      "type": "function"
    },
    {
      "inputs": [
        {
          "internalType": "uint256",
          "name": "amount",
          "type": "uint256"
        },
        {
          "internalType": "uint256",
          "name": "deadline",
          "type": "uint256"
        }
      ],
      "name": "swapDAI_LINK",
      "outputs": [],
      "stateMutability": "nonpayable",
      "type": "function"
    },
    {
      "inputs": [
        {
          "internalType": "uint256",
          "name": "amount",
          "type": "uint256"
        },
        {
          "internalType": "uint256",
          "name": "deadline",
          "type": "uint256"
        }
      ],
      "name": "swapLINK_DAI",
      "outputs": [],
      "stateMutability": "nonpayable",
      "type": "function"
    },
    {
      "inputs": [
        {
          "internalType": "bytes32",
          "name": "_requestId",
          "type": "bytes32"
        },
        {
          "internalType": "uint256",
          "name": "data",
          "type": "uint256"
        }
      ],
      "name": "fulfillGenerateSeed",
      "outputs": [],
      "stateMutability": "nonpayable",
      "type": "function"
    },
    {
      "inputs": [
        {
          "internalType": "bytes32",
          "name": "_requestId",
          "type": "bytes32"
        }
      ],
      "name": "fulfillGetTimestamp",
      "outputs": [],
      "stateMutability": "nonpayable",
      "type": "function"
    }
  ],
  "bytecode": "0x608060405260016005553480156200001657600080fd5b506040516200485f3803806200485f83398181016040526101608110156200003d57600080fd5b508051602082015160408301516060840151608085015160a086015160c087015160e08801516101008901516101208a0151610140909a01519899979896979596949593949293919290919060006200009e6001600160e01b03620001bc16565b600080546001600160a01b0319166001600160a01b0383169081178255604051929350917f8be0079c531659141344cd1fd0a4f28419497f9722a3daafe3b4186f6b6457e0908290a35060109a909a556011805462ffffff191662ffffff9a8b161765ffffff0000001916630100000099909a16989098029890981763ffffffff60301b1916660100000000000063ffffffff60039890980b97909716969096029590951790955560129290925560135560078054601780546001600160a01b03199081166001600160a01b03978816179091559081169285169290921762ff00ff60a01b191690556014805482169284169290921790915560158054821693831693909317909255601680549092169216919091179055620001c0565b3390565b61468f80620001d06000396000f3fe608060405234801561001057600080fd5b50600436106102ff5760003560e01c8063715018a61161019c578063adf45ef2116100ee578063dfd78adc11610097578063f2fde38b11610071578063f2fde38b146106c7578063f745adfc146106ed578063fe7da9e9146106f5576102ff565b8063dfd78adc1461067a578063e804f16414610682578063f0607e43146106a4576102ff565b8063bbe3b926116100c8578063bbe3b92614610647578063be22f5461461064f578063c2d0b30314610657576102ff565b8063adf45ef21461061a578063ae12894e14610622578063b594f0861461062a576102ff565b8063898855ed11610150578063a46268a81161012a578063a46268a814610602578063aa055a401461060a578063ada02e1914610612576102ff565b8063898855ed146105b75780638da5cb5b146105d4578063a3f73c2d146105dc576102ff565b80637c0260cb116101815780637c0260cb146105855780638155e9771461058d5780638646bcec146105af576102ff565b8063715018a61461055757806376eada911461055f576102ff565b8063431a16ef116102555780635ca8f92c1161020957806369e7af43116101e357806369e7af43146104ef5780636e8055a7146105475780636f6941b91461054f576102ff565b80635ca8f92c14610477578063604d3943146104c757806365b61b77146104e7576102ff565b80634ffb660c1161023a5780634ffb660c146104175780635aa33a2d146104375780635b8f96de1461043f576102ff565b8063431a16ef146104075780634c5e78931461040f576102ff565b806313c2bedc116102b75780632016a206116102915780632016a206146103d457806331960027146103f75780633bcd97d4146103ff576102ff565b806313c2bedc1461038557806318b9533b146103a65780631b9dbc60146103cc576102ff565b80630aab4569116102e85780630aab4569146103425780630b78cb0e146103615780630fb5a6b41461037d576102ff565b806306fdde031461030457806309ea165d1461031e575b600080fd5b61030c610712565b60408051918252519081900360200190f35b610326610718565b604080516001600160a01b039092168252519081900360200190f35b61035f6004803603602081101561035857600080fd5b5035610727565b005b6103696107f3565b604080519115158252519081900360200190f35b61030c610803565b61038d610809565b60408051600392830b90920b8252519081900360200190f35b61035f600480360360208110156103bc57600080fd5b50356001600160a01b031661081c565b61035f610828565b61035f600480360360408110156103ea57600080fd5b5080359060200135610ace565b61035f610b81565b610369610db3565b61035f610dd3565b61035f610f2b565b61035f6004803603602081101561042d57600080fd5b503560030b611098565b610369611160565b61035f6004803603606081101561045557600080fd5b506001600160a01b038135811691602081013582169160409091013516611170565b61035f600480360360e081101561048d57600080fd5b506001600160a01b038135811691602081013591604082013591606081013582169160808201359160a08101359160c09091013516611207565b6104cf61136d565b6040805162ffffff9092168252519081900360200190f35b61032661137f565b6104f761138e565b60408051602080825283518183015283519192839290830191858101910280838360005b8381101561053357818101518382015260200161051b565b505050509050019250505060405180910390f35b610326611448565b61032661145f565b61035f61146e565b6103266004803603602081101561057557600080fd5b50356001600160a01b0316611510565b61035f6115b2565b61035f600480360360208110156105a357600080fd5b503562ffffff1661168a565b6104cf611734565b61035f600480360360208110156105cd57600080fd5b503561173f565b6103266117d2565b61035f600480360360208110156105f257600080fd5b50356001600160a01b03166117e1565b6103696118d6565b61035f6118e6565b61035f611a9c565b610369611c2c565b610326611c34565b61035f6004803603602081101561064057600080fd5b5035611c43565b61035f611cd6565b610326611eda565b61035f6004803603604081101561066d57600080fd5b5080359060200135611ee9565b6104f7611fbc565b61035f6004803603602081101561069857600080fd5b503562ffffff16612074565b61035f600480360360408110156106ba57600080fd5b508035906020013561212c565b61035f600480360360208110156106dd57600080fd5b50356001600160a01b03166121ff565b61030c6122f7565b61035f6004803603602081101561070b57600080fd5b50356122fd565b60105481565b6017546001600160a01b031681565b60008181526006602052604090205481906001600160a01b0316331461077e5760405162461bcd60e51b81526004018080602001828103825260288152602001806146326028913960400191505060405180910390fd5b60008181526006602052604080822080546001600160a01b03191690555182917f7cc135e0cebb02c3480ae5d74d377283180a2601f8f644edf7987b009316c63a91a25050600780547fffffffffffffffff00ffffffffffffffffffffffffffffffffffffffffffffff16600160b81b179055565b600754600160a01b900460ff1681565b60135481565b6011546601000000000000900460030b81565b610825816121ff565b50565b6108306117d2565b6001600160a01b0316610841612390565b6001600160a01b031614156108875760405162461bcd60e51b815260040180806020018281038252602d8152602001806144d8602d913960400191505060405180910390fd5b6007546001600160a01b03166316ded1ce6108a0612390565b6040518263ffffffff1660e01b815260040180826001600160a01b03166001600160a01b0316815260200191505060206040518083038186803b1580156108e657600080fd5b505afa1580156108fa573d6000803e3d6000fd5b505050506040513d602081101561091057600080fd5b505161094d5760405162461bcd60e51b81526004018080602001828103825260248152602001806145e46024913960400191505060405180910390fd5b600754600160a01b900460ff166109ab576040805162461bcd60e51b815260206004820152601e60248201527f436c617373726f6f6d3a206170706c69636174696f6e7320636c6f7365640000604482015290519081900360640190fd5b60006109b5612390565b9050601160069054906101000a900460030b60030b816001600160a01b031663efedc6696040518163ffffffff1660e01b815260040160206040518083038186803b158015610a0357600080fd5b505afa158015610a17573d6000803e3d6000fd5b505050506040513d6020811015610a2d57600080fd5b505160030b1215610a6f5760405162461bcd60e51b815260040180806020018281038252602c8152602001806143fd602c913960400191505060405180910390fd5b6000610a7a82612394565b600880546001810182556000919091527ff3f7a9fe364faab93b216da50a3214154f22a0a2b415b23a84c8169e8b636ee30180546001600160a01b0319166001600160a01b03929092169190911790555050565b60008281526006602052604090205482906001600160a01b03163314610b255760405162461bcd60e51b81526004018080602001828103825260288152602001806146326028913960400191505060405180910390fd5b60008181526006602052604080822080546001600160a01b03191690555182917f7cc135e0cebb02c3480ae5d74d377283180a2601f8f644edf7987b009316c63a91a2610b7182612593565b8051602090910120600f55505050565b610b89612390565b6000546001600160a01b03908116911614610bd9576040805162461bcd60e51b81526020600482018190526024820152600080516020614570833981519152604482015290519081900360640190fd5b6018546001600160a01b0316610c36576040805162461bcd60e51b815260206004820152601e60248201527f436c617373726f6f6d3a207365747570206f7261636c65732066697273740000604482015290519081900360640190fd5b600754600160a01b900460ff1615610c7f5760405162461bcd60e51b815260040180806020018281038252602a815260200180614608602a913960400191505060405180910390fd5b60085415610cbe5760405162461bcd60e51b81526004018080602001828103825260228152602001806144b66022913960400191505060405180910390fd5b601d54601e54604080516370a0823160e01b815230600482015290516001600160a01b03909216916370a0823191602480820192602092909190829003018186803b158015610d0c57600080fd5b505afa158015610d20573d6000803e3d6000fd5b505050506040513d6020811015610d3657600080fd5b50511015610d755760405162461bcd60e51b81526004018080602001828103825260218152602001806143b66021913960400191505060405180910390fd5b6007805460ff60a01b1916600160a01b1790556040517fa5d188159e8a15dc503f9fde55e9da14c8b2ca589603e2567481c0ef90b7972090600090a1565b600954600854600091610dcc919063ffffffff6125bd16565b1590505b90565b610ddb612390565b6000546001600160a01b03908116911614610e2b576040805162461bcd60e51b81526020600482018190526024820152600080516020614570833981519152604482015290519081900360640190fd5b600754600160b81b900460ff16610e735760405162461bcd60e51b81526004018080602001828103825260248152602001806145266024913960400191505060405180910390fd5b600954610ec7576040805162461bcd60e51b815260206004820152601a60248201527f436c617373726f6f6d3a206e6f206170706c69636174696f6e73000000000000604482015290519081900360640190fd5b610ecf612620565b600e55600780547fffffffffffffffffffff00ffffffffffffffffffffffffffffffffffffffffff16600160a81b1790556040517fadfcc9bbc47b33710f82544eeff8bd0f98c6f78f190e915bd81f4a9dacfdc77790600090a1565b610f33612390565b6000546001600160a01b03908116911614610f83576040805162461bcd60e51b81526020600482018190526024820152600080516020614570833981519152604482015290519081900360640190fd5b6014546001600160a01b03166323b872dd30610f9d6117d2565b601454604080516370a0823160e01b815230600482015290516001600160a01b03909216916370a0823191602480820192602092909190829003018186803b158015610fe857600080fd5b505afa158015610ffc573d6000803e3d6000fd5b505050506040513d602081101561101257600080fd5b5051604080516001600160e01b031960e087901b1681526001600160a01b0394851660048201529290931660248301526044820152905160648083019260209291908290030181600087803b15801561106a57600080fd5b505af115801561107e573d6000803e3d6000fd5b505050506040513d602081101561109457600080fd5b5050565b6110a0612390565b6000546001600160a01b039081169116146110f0576040805162461bcd60e51b81526020600482018190526024820152600080516020614570833981519152604482015290519081900360640190fd5b60118054600383810b63ffffffff16660100000000000090810269ffffffff0000000000001990931692909217928390556040805192909304810b810b900b815290517f258981eaba02423980e2973ff2ae3bbbba3cc807a5b73faf8f0b068dd7b2af649181900360200190a150565b600754600160a81b900460ff1681565b611178612390565b6000546001600160a01b039081169116146111c8576040805162461bcd60e51b81526020600482018190526024820152600080516020614570833981519152604482015290519081900360640190fd5b601f80546001600160a01b039485166001600160a01b031991821617909155602080549385169382169390931790925560218054919093169116179055565b61120f612390565b6000546001600160a01b0390811691161461125f576040805162461bcd60e51b81526020600482018190526024820152600080516020614570833981519152604482015290519081900360640190fd5b601880546001600160a01b03808a166001600160a01b0319928316179092556019889055601a879055601b8054878416908316179055601c859055601d849055601e805484841692169190911790819055604080516370a0823160e01b81523060048201529051889392909216916370a0823191602480820192602092909190829003018186803b1580156112f357600080fd5b505afa158015611307573d6000803e3d6000fd5b505050506040513d602081101561131d57600080fd5b5051101561135c5760405162461bcd60e51b81526004018080602001828103825260218152602001806143b66021913960400191505060405180910390fd5b611364612738565b50505050505050565b6011546301000000900462ffffff1681565b6021546001600160a01b031681565b6060611398612390565b6000546001600160a01b039081169116146113e8576040805162461bcd60e51b81526020600482018190526024820152600080516020614570833981519152604482015290519081900360640190fd5b600b80548060200260200160405190810160405280929190818152602001828054801561143e57602002820191906000526020600020905b81546001600160a01b03168152600190910190602001808311611420575b5050505050905090565b600061145a611455612390565b611510565b905090565b6015546001600160a01b031681565b611476612390565b6000546001600160a01b039081169116146114c6576040805162461bcd60e51b81526020600482018190526024820152600080516020614570833981519152604482015290519081900360640190fd5b600080546040516001600160a01b03909116907f8be0079c531659141344cd1fd0a4f28419497f9722a3daafe3b4186f6b6457e0908390a3600080546001600160a01b0319169055565b600061151a612390565b6001600160a01b0316826001600160a01b03161480611558575061153c6117d2565b6001600160a01b031661154d612390565b6001600160a01b0316145b6115935760405162461bcd60e51b81526004018080602001828103825260218152602001806144956021913960400191505060405180910390fd5b506001600160a01b039081166000908152600a60205260409020541690565b6115ba612390565b6000546001600160a01b0390811691161461160a576040805162461bcd60e51b81526020600482018190526024820152600080516020614570833981519152604482015290519081900360640190fd5b600754600160a01b900460ff166116525760405162461bcd60e51b815260040180806020018281038252602a8152602001806145ba602a913960400191505060405180910390fd5b6007805460ff60a01b191690556040517f747a4734f50e3ae237b3afeeac30a2d2c7cb965cc122fb9680050fd533b7c0f590600090a1565b611692612390565b6000546001600160a01b039081169116146116e2576040805162461bcd60e51b81526020600482018190526024820152600080516020614570833981519152604482015290519081900360640190fd5b6011805462ffffff191662ffffff838116919091179182905560408051929091168252517fa24cdd22388a51f932026d20d3229c1d693385bb9ac176742e0e40b4586c2447916020908290030190a150565b60115462ffffff1681565b611747612390565b6000546001600160a01b03908116911614611797576040805162461bcd60e51b81526020600482018190526024820152600080516020614570833981519152604482015290519081900360640190fd5b60108190556040805182815290517f9f8929be552430dd6434c446d106c34954b2040ca8c4dbf42a39323dd6cda3ca9181900360200190a150565b6000546001600160a01b031690565b6117e9612390565b6000546001600160a01b03908116911614611839576040805162461bcd60e51b81526020600482018190526024820152600080516020614570833981519152604482015290519081900360640190fd5b611841610db3565b61187c5760405162461bcd60e51b81526004018080602001828103825260258152602001806144296025913960400191505060405180910390fd5b601780546001600160a01b0319166001600160a01b03838116919091179182905560408051929091168252517fdc58b28697ffd1bd5879b16631587874caec982b482d7ed05df69a5302f6e018916020908290030190a150565b600754600160b01b900460ff1681565b6118ee612390565b6000546001600160a01b0390811691161461193e576040805162461bcd60e51b81526020600482018190526024820152600080516020614570833981519152604482015290519081900360640190fd5b600754600160a81b900460ff1661199c576040805162461bcd60e51b815260206004820152601e60248201527f436c617373726f6f6d3a20636f75727365206e6f742066696e69736865640000604482015290519081900360640190fd5b601454604080516370a0823160e01b815230600482015290516001600160a01b03909216916370a0823191602480820192602092909190829003018186803b1580156119e757600080fd5b505afa1580156119fb573d6000803e3d6000fd5b505050506040513d6020811015611a1157600080fd5b5051600e541115611a535760405162461bcd60e51b81526004018080602001828103825260248152602001806144716024913960400191505060405180910390fd5b600080611a5e61278e565b9150915060006060611a7084846128de565b91509150611a7d81612d1e565b611a8682612da6565b611a8e612e44565b611a966131f8565b50505050565b611aa4612390565b6000546001600160a01b03908116911614611af4576040805162461bcd60e51b81526020600482018190526024820152600080516020614570833981519152604482015290519081900360640190fd5b601454604080516370a0823160e01b815230600482015290516000926001600160a01b0316916370a08231916024808301926020929190829003018186803b158015611b3f57600080fd5b505afa158015611b53573d6000803e3d6000fd5b505050506040513d6020811015611b6957600080fd5b5051905080611b785750611c2a565b601454601554611b95916001600160a01b03908116911683613253565b601554604080517fa0712d680000000000000000000000000000000000000000000000000000000081526004810184905290516001600160a01b039092169163a0712d68916024808201926020929091908290030181600087803b158015611bfc57600080fd5b505af1158015611c10573d6000803e3d6000fd5b505050506040513d6020811015611c2657600080fd5b5050505b565b600954151590565b6007546001600160a01b031681565b611c4b612390565b6000546001600160a01b03908116911614611c9b576040805162461bcd60e51b81526020600482018190526024820152600080516020614570833981519152604482015290519081900360640190fd5b60138190556040805182815290517fa67f34afb53d068e81607cde52dc74c58cbf6a05eac699e5543b97d25e3ca5cb9181900360200190a150565b611cde612390565b6000546001600160a01b03908116911614611d2e576040805162461bcd60e51b81526020600482018190526024820152600080516020614570833981519152604482015290519081900360640190fd5b600754600160a01b900460ff1615611d775760405162461bcd60e51b815260040180806020018281038252602681526020018061454a6026913960400191505060405180910390fd5b601454604080516370a0823160e01b815230600482015290516001600160a01b03909216916370a0823191602480820192602092909190829003018186803b158015611dc257600080fd5b505afa158015611dd6573d6000803e3d6000fd5b505050506040513d6020811015611dec57600080fd5b505115611e2a5760405162461bcd60e51b815260040180806020018281038252602a815260200180614590602a913960400191505060405180910390fd5b611e326133cf565b6040805160008152602081019182905251611e4f916008916142dd565b50600954611ea4576040805162461bcd60e51b815260206004820152601f60248201527f436c617373726f6f6d3a206e6f207265616479206170706c69636174696f6e00604482015290519081900360640190fd5b600780547fffffffffffffffffff00ffffffffffffffffffffffffffffffffffffffffffff16600160b01b179055611c2a6135ca565b6014546001600160a01b031681565b611ef1612390565b6000546001600160a01b03908116911614611f41576040805162461bcd60e51b81526020600482018190526024820152600080516020614570833981519152604482015290519081900360640190fd5b601f546001600160a01b0316611f9e576040805162461bcd60e51b815260206004820152601f60248201527f556e69766572736974793a20736574757020756e697377617020666972737400604482015290519081900360640190fd5b602054601f54611094916001600160a01b039081169116848461366b565b6060611fc6612390565b6000546001600160a01b03908116911614612016576040805162461bcd60e51b81526020600482018190526024820152600080516020614570833981519152604482015290519081900360640190fd5b600c80548060200260200160405190810160405280929190818152602001828054801561143e576020028201919060005260206000209081546001600160a01b03168152600190910190602001808311611420575050505050905090565b61207c612390565b6000546001600160a01b039081169116146120cc576040805162461bcd60e51b81526020600482018190526024820152600080516020614570833981519152604482015290519081900360640190fd5b6011805462ffffff808416630100000090810265ffffff000000199093169290921792839055604080519290930416815290517f9d9f9ef51b12eb719684b7a2e09fc2f7e916cb0e229aecf5658ce6326dfeb1c59181900360200190a150565b612134612390565b6000546001600160a01b03908116911614612184576040805162461bcd60e51b81526020600482018190526024820152600080516020614570833981519152604482015290519081900360640190fd5b601f546001600160a01b03166121e1576040805162461bcd60e51b815260206004820152601f60248201527f556e69766572736974793a20736574757020756e697377617020666972737400604482015290519081900360640190fd5b601f54602054611094916001600160a01b039081169116848461366b565b612207612390565b6000546001600160a01b03908116911614612257576040805162461bcd60e51b81526020600482018190526024820152600080516020614570833981519152604482015290519081900360640190fd5b6001600160a01b03811661229c5760405162461bcd60e51b81526004018080602001828103825260268152602001806143d76026913960400191505060405180910390fd5b600080546040516001600160a01b03808516939216917f8be0079c531659141344cd1fd0a4f28419497f9722a3daafe3b4186f6b6457e091a3600080546001600160a01b0319166001600160a01b0392909216919091179055565b60125481565b612305612390565b6000546001600160a01b03908116911614612355576040805162461bcd60e51b81526020600482018190526024820152600080516020614570833981519152604482015290519081900360640190fd5b60128190556040805182815290517f84e881bf3fcef92f709a2a62150da178a998fbff128c017f3e846787a2f7f5f59181900360200190a150565b3390565b60165460145460175460009283926001600160a01b039182169263268e5d1d928792309290821691166123c561388c565b604080516001600160e01b031960e089901b1681526001600160a01b03968716600482015294861660248601529285166044850152931660648301526084820192909252905160a48083019260209291908290030181600087803b15801561242c57600080fd5b505af1158015612440573d6000803e3d6000fd5b505050506040513d602081101561245657600080fd5b50516001600160a01b038481166000818152600a602052604080822080546001600160a01b03191685871690811790915560075482517f183b26000000000000000000000000000000000000000000000000000000000081526004810195909552602485019190915290519495509092169263183b26009260448084019391929182900301818387803b1580156124ec57600080fd5b505af1158015612500573d6000803e3d6000fd5b5050600b805460018181019092557f0175b7a638427703f0dbe7bb9bbf987a2551717b34e79f33b5b1008d1fa01db90180546001600160a01b038089166001600160a01b031992831617909255600c805493840181556000527fdf6966c971051c3d54ec59162606531493a51404a002842f56009d7e5cf4a8c79092018054918616919092161790555090915050919050565b60408051602080825281830190925260609160208201818036833750505060208101929092525090565b600082820183811015612617576040805162461bcd60e51b815260206004820152601b60248201527f536166654d6174683a206164646974696f6e206f766572666c6f770000000000604482015290519081900360640190fd5b90505b92915050565b601554604080516370a0823160e01b8152306004820152905160009283926001600160a01b03909116916370a0823191602480820192602092909190829003018186803b15801561267057600080fd5b505afa158015612684573d6000803e3d6000fd5b505050506040513d602081101561269a57600080fd5b5051601554604080517fdb006a750000000000000000000000000000000000000000000000000000000081526004810184905290519293506001600160a01b039091169163db006a75916024808201926020929091908290030181600087803b15801561270657600080fd5b505af115801561271a573d6000803e3d6000fd5b505050506040513d602081101561273057600080fd5b509091505090565b612740614342565b60195461276e90307f2016a20600000000000000000000000000000000000000000000000000000000613896565b601854601a54919250611094916001600160a01b039091169083906138c1565b6000808080805b6009548110156128d457600981815481106127ac57fe5b6000918252602082200154604080517f289cf0d200000000000000000000000000000000000000000000000000000000815290516001600160a01b039092169263289cf0d29260048084019382900301818387803b15801561280d57600080fd5b505af1158015612821573d6000803e3d6000fd5b5050505060006009828154811061283457fe5b60009182526020918290200154604080516332c3db0f60e11b815290516001600160a01b0390921692636587b61e92600480840193829003018186803b15801561287d57600080fd5b505afa158015612891573d6000803e3d6000fd5b505050506040513d60208110156128a757600080fd5b5051905060038114156128bb576001909301925b80600514156128cb576001909201915b50600101612795565b5090925090509091565b600954601254600091606091839061290f90612900908463ffffffff613a9816565b600e549063ffffffff613af116565b60115460125491925060009161294491620f4240916129389162ffffff1663ffffffff613a9816565b9063ffffffff613b4e16565b9050600061295d82601254613af190919063ffffffff16565b9050600061297585612938868c63ffffffff613a9816565b60115490915060009061299e90620f4240906129389085906301000000900462ffffff16613a98565b905060006129b68b612938888563ffffffff613af116565b905060608767ffffffffffffffff811180156129d157600080fd5b506040519080825280602002602001820160405280156129fb578160200160208202803683370190505b50905060005b88811015612c6b57600060098281548110612a1857fe5b60009182526020918290200154604080516332c3db0f60e11b815290516001600160a01b0390921692636587b61e92600480840193829003018186803b158015612a6157600080fd5b505afa158015612a75573d6000803e3d6000fd5b505050506040513d6020811015612a8b57600080fd5b505190506003811415612b3f5760098281548110612aa557fe5b600091825260208220015460408051637db9abaf60e01b8152600481018b90526024810188905290516001600160a01b0390921692637db9abaf9260448084019382900301818387803b158015612afb57600080fd5b505af1158015612b0f573d6000803e3d6000fd5b50505050612b2684886125bd90919063ffffffff16565b838381518110612b3257fe5b6020026020010181815250505b8060041415612bdd5760098281548110612b5557fe5b600091825260208220015460408051637db9abaf60e01b8152600481018b90526024810184905290516001600160a01b0390921692637db9abaf9260448084019382900301818387803b158015612bab57600080fd5b505af1158015612bbf573d6000803e3d6000fd5b5050505086838381518110612bd057fe5b6020026020010181815250505b8060051415612c625760098281548110612bf357fe5b600091825260208220015460408051637db9abaf60e01b8152600481018490526024810184905290516001600160a01b0390921692637db9abaf9260448084019382900301818387803b158015612c4957600080fd5b505af1158015612c5d573d6000803e3d6000fd5b505050505b50600101612a01565b50600754604080517fe6fd604c00000000000000000000000000000000000000000000000000000000815290516000926001600160a01b03169163e6fd604c916004808301926020929190829003018186803b158015612cca57600080fd5b505afa158015612cde573d6000803e3d6000fd5b505050506040513d6020811015612cf457600080fd5b5051601254909150612d0b908d9086848d8c613bb8565b9d919c50909a5050505050505050505050565b60005b600954811015611094576000828281518110612d3957fe5b60200260200101511115612d9e5760145460098054612d9e926001600160a01b0316919084908110612d6757fe5b9060005260206000200160009054906101000a90046001600160a01b0316848481518110612d9157fe5b6020026020010151613253565b600101612d21565b601454600754612dc3916001600160a01b03908116911683613c60565b600754604080517ffa8e50600000000000000000000000000000000000000000000000000000000081526004810184905290516001600160a01b039092169163fa8e50609160248082019260009290919082900301818387803b158015612e2957600080fd5b505af1158015612e3d573d6000803e3d6000fd5b5050505050565b60005b60095481101561082557600060098281548110612e6057fe5b60009182526020918290200154604080516332c3db0f60e11b815290516001600160a01b0390921692636587b61e92600480840193829003018186803b158015612ea957600080fd5b505afa158015612ebd573d6000803e3d6000fd5b505050506040513d6020811015612ed357600080fd5b505190506003811415612fdf57600754600980546001600160a01b03909216916387bfe188919085908110612f0457fe5b600091825260209182902001546040805163b8f31a8160e01b815290516001600160a01b039092169263b8f31a8192600480840193829003018186803b158015612f4d57600080fd5b505afa158015612f61573d6000803e3d6000fd5b505050506040513d6020811015612f7757600080fd5b5051604080516001600160e01b031960e085901b1681526001600160a01b0390921660048301526001602483015251604480830192600092919082900301818387803b158015612fc657600080fd5b505af1158015612fda573d6000803e3d6000fd5b505050505b80600414156130e757600754600980546001600160a01b039092169163ff5d8f6391908590811061300c57fe5b600091825260209182902001546040805163b8f31a8160e01b815290516001600160a01b039092169263b8f31a8192600480840193829003018186803b15801561305557600080fd5b505afa158015613069573d6000803e3d6000fd5b505050506040513d602081101561307f57600080fd5b5051604080516001600160e01b031960e085901b1681526001600160a01b0390921660048301526001602483015251604480830192600092919082900301818387803b1580156130ce57600080fd5b505af11580156130e2573d6000803e3d6000fd5b505050505b80600514156131ef57600754600980546001600160a01b039092169163ff5d8f6391908590811061311457fe5b600091825260209182902001546040805163b8f31a8160e01b815290516001600160a01b039092169263b8f31a8192600480840193829003018186803b15801561315d57600080fd5b505afa158015613171573d6000803e3d6000fd5b505050506040513d602081101561318757600080fd5b5051604080516001600160e01b031960e085901b1681526001600160a01b0390921660048301526002602483015251604480830192600092919082900301818387803b1580156131d657600080fd5b505af11580156131ea573d6000803e3d6000fd5b505050505b50600101612e47565b6040805160008152602081019182905251613215916009916142dd565b5061321e610f2b565b6000600e55600780547fffffffffffffffff00ff00ffffffffffffffffffffffffffffffffffffffffff169055611c2a613ddc565b604080516001600160a01b038481166024830152604480830185905283518084039091018152606490920183526020820180516001600160e01b03167f095ea7b300000000000000000000000000000000000000000000000000000000178152925182516000946060949389169392918291908083835b602083106132e95780518252601f1990920191602091820191016132ca565b6001836020036101000a0380198251168184511680821785525050505050509050019150506000604051808303816000865af19150503d806000811461334b576040519150601f19603f3d011682016040523d82523d6000602084013e613350565b606091505b509150915081801561337e57508051158061337e575080806020019051602081101561337b57600080fd5b50515b612e3d576040805162461bcd60e51b815260206004820152601e60248201527f5472616e7366657248656c7065723a20415050524f56455f4641494c45440000604482015290519081900360640190fd5b60005b60085481101561082557600881815481106133e957fe5b60009182526020918290200154604080516332c3db0f60e11b815290516001600160a01b0390921692636587b61e92600480840193829003018186803b15801561343257600080fd5b505afa158015613446573d6000803e3d6000fd5b505050506040513d602081101561345c57600080fd5b50516001141561353b576008818154811061347357fe5b6000918252602082200154604080517f0f15f4c000000000000000000000000000000000000000000000000000000000815290516001600160a01b0390921692630f15f4c09260048084019382900301818387803b1580156134d457600080fd5b505af11580156134e8573d6000803e3d6000fd5b505050506009600882815481106134fb57fe5b60009182526020808320909101548354600181018555938352912090910180546001600160a01b0319166001600160a01b039092169190911790556135c2565b6008818154811061354857fe5b6000918252602082200154604080517f79599f9600000000000000000000000000000000000000000000000000000000815290516001600160a01b03909216926379599f969260048084019382900301818387803b1580156135a957600080fd5b505af11580156135bd573d6000803e3d6000fd5b505050505b6001016133d2565b6135d2614342565b601c5461360090307f0aab456900000000000000000000000000000000000000000000000000000000613896565b90506136506040518060400160405280600581526020017f756e74696c000000000000000000000000000000000000000000000000000000815250601354420183613df39092919063ffffffff16565b601b54601d54611094916001600160a01b03169083906138c1565b6021546136839085906001600160a01b031684613253565b604080516002808252606080830184529260208301908036833701905050905084816000815181106136b157fe5b60200260200101906001600160a01b031690816001600160a01b03168152505083816001815181106136df57fe5b6001600160a01b039283166020918202929092018101919091526021546040517f38ed17390000000000000000000000000000000000000000000000000000000081526004810187815260006024830181905230606484018190526084840189905260a060448501908152885160a4860152885195909716966338ed1739968b9693958a9593948c94939260c49092019187810191028083838b5b8381101561379257818101518382015260200161377a565b505050509050019650505050505050600060405180830381600087803b1580156137bb57600080fd5b505af11580156137cf573d6000803e3d6000fd5b505050506040513d6000823e601f3d908101601f1916820160405260208110156137f857600080fd5b810190808051604051939291908464010000000082111561381857600080fd5b90830190602082018581111561382d57600080fd5b825186602082028301116401000000008211171561384a57600080fd5b82525081516020918201928201910280838360005b8381101561387757818101518382015260200161385f565b50505050905001604052505050505050505050565b600f546000401890565b61389e614342565b6138a6614342565b6138b88186868663ffffffff613e1d16565b95945050505050565b6005546040805130606090811b60208084019190915260348084018690528451808503909101815260549093018452825192810192909220908601939093526000838152600690915281812080546001600160a01b0319166001600160a01b038816179055905182917fb5e6e01e79f91267dc17b4e6314d5d4d03593d2ceee0fbb452b750bd70ea5af991a26003546001600160a01b0316634000aea0858461396987613e5a565b6040518463ffffffff1660e01b815260040180846001600160a01b03166001600160a01b0316815260200183815260200180602001828103825283818151815260200191508051906020019080838360005b838110156139d35781810151838201526020016139bb565b50505050905090810190601f168015613a005780820380516001836020036101000a031916815260200191505b50945050505050602060405180830381600087803b158015613a2157600080fd5b505af1158015613a35573d6000803e3d6000fd5b505050506040513d6020811015613a4b57600080fd5b5051613a885760405162461bcd60e51b815260040180806020018281038252602381526020018061444e6023913960400191505060405180910390fd5b6005805460010190559392505050565b600082613aa75750600061261a565b82820282848281613ab457fe5b04146126175760405162461bcd60e51b81526004018080602001828103825260218152602001806145056021913960400191505060405180910390fd5b600082821115613b48576040805162461bcd60e51b815260206004820152601e60248201527f536166654d6174683a207375627472616374696f6e206f766572666c6f770000604482015290519081900360640190fd5b50900390565b6000808211613ba4576040805162461bcd60e51b815260206004820152601a60248201527f536166654d6174683a206469766973696f6e206279207a65726f000000000000604482015290519081900360640190fd5b6000828481613baf57fe5b04949350505050565b600080613bcb888863ffffffff613a9816565b90506000613beb620f42406129388962ffffff8a1663ffffffff613a9816565b90506000613bff868b63ffffffff613af116565b90506000613c2f620f424061293862ffffff8b16613c238a8763ffffffff613a9816565b9063ffffffff613a9816565b9050613c5181613c45868663ffffffff6125bd16565b9063ffffffff6125bd16565b9b9a5050505050505050505050565b604080516001600160a01b038481166024830152604480830185905283518084039091018152606490920183526020820180516001600160e01b03167fa9059cbb00000000000000000000000000000000000000000000000000000000178152925182516000946060949389169392918291908083835b60208310613cf65780518252601f199092019160209182019101613cd7565b6001836020036101000a0380198251168184511680821785525050505050509050019150506000604051808303816000865af19150503d8060008114613d58576040519150601f19603f3d011682016040523d82523d6000602084013e613d5d565b606091505b5091509150818015613d8b575080511580613d8b5750808060200190516020811015613d8857600080fd5b50515b612e3d576040805162461bcd60e51b815260206004820152601f60248201527f5472616e7366657248656c7065723a205452414e534645525f4641494c454400604482015290519081900360640190fd5b600140600f5416600040600f541617600f81905550565b6080830151613e08908363ffffffff613f9a16565b6080830151611c26908263ffffffff613fb716565b613e25614342565b613e358560800151610100613fc3565b50509183526001600160a01b031660208301526001600160e01b031916604082015290565b6060634042994660e01b6000808460000151856020015186604001518760600151600189608001516000015160405160240180896001600160a01b03166001600160a01b03168152602001888152602001878152602001866001600160a01b03166001600160a01b03168152602001856001600160e01b0319166001600160e01b031916815260200184815260200183815260200180602001828103825283818151815260200191508051906020019080838360005b83811015613f28578181015183820152602001613f10565b50505050905090810190601f168015613f555780820380516001836020036101000a031916815260200191505b5060408051601f198184030181529190526020810180516001600160e01b03166001600160e01b0319909d169c909c17909b5250989950505050505050505050919050565b613fa78260038351613ffd565b611c26828263ffffffff61410716565b61109482600083613ffd565b613fcb614377565b6020820615613fe05760208206602003820191505b506020828101829052604080518085526000815290920101905290565b601781116140245761401e8360e0600585901b16831763ffffffff61412116565b50611c26565b60ff811161405a57614047836018611fe0600586901b161763ffffffff61412116565b5061401e8382600163ffffffff61413916565b61ffff81116140915761407e836019611fe0600586901b161763ffffffff61412116565b5061401e8382600263ffffffff61413916565b63ffffffff81116140ca576140b783601a611fe0600586901b161763ffffffff61412116565b5061401e8382600463ffffffff61413916565b67ffffffffffffffff8111611c26576140f483601b611fe0600586901b161763ffffffff61412116565b50611a968382600863ffffffff61413916565b61410f614377565b6126178384600001515184855161415a565b614129614377565b6126178384600001515184614206565b614141614377565b614152848560000151518585614251565b949350505050565b614162614377565b825182111561417057600080fd5b8460200151828501111561419a5761419a8561419287602001518786016142af565b6002026142c6565b6000808651805187602083010193508088870111156141b95787860182525b505050602084015b602084106141e05780518252601f1990930192602091820191016141c1565b51815160001960208690036101000a019081169019919091161790525083949350505050565b61420e614377565b8360200151831061422a5761422a8485602001516002026142c6565b835180516020858301018481535080851415614247576001810182525b5093949350505050565b614259614377565b8460200151848301111561427657614276858584016002026142c6565b60006001836101000a0390508551838682010185831982511617815250805184870111156142a45783860181525b509495945050505050565b6000818311156142c057508161261a565b50919050565b81516142d28383613fc3565b50611a968382614107565b828054828255906000526020600020908101928215614332579160200282015b8281111561433257825182546001600160a01b0319166001600160a01b039091161782556020909201916001909101906142fd565b5061433e929150614391565b5090565b6040805160a081018252600080825260208201819052918101829052606081019190915260808101614372614377565b905290565b604051806040016040528060608152602001600081525090565b610dd091905b8082111561433e5780546001600160a01b031916815560010161439756fe436c617373726f6f6d3a206e6f7420656e6f756768204c696e6b20746f6b656e734f776e61626c653a206e6577206f776e657220697320746865207a65726f2061646472657373436c617373726f6f6d3a2073747564656e7420646f65736e2774206861766520656e6f7567682073636f7265436c617373726f6f6d3a2063616e2774206368616e6765206368616c6c656e6765206e6f77756e61626c6520746f207472616e73666572416e6443616c6c20746f206f7261636c65436c617373726f6f6d3a206e6f7420656e6f7567682044414920746f2070726f63656564436c617373726f6f6d3a2072656164207065726d697373696f6e2064656e696564436c617373726f6f6d3a2073747564656e7473206c697374206e6f7420656d707479436c617373726f6f6d3a2070726f666573736f722063616e277420626520697473206f776e2073747564656e74536166654d6174683a206d756c7469706c69636174696f6e206f766572666c6f77436c617373726f6f6d3a20746f6f20736f6f6e20746f2066696e69736820636f75727365436c617373726f6f6d3a206170706c69636174696f6e7320617265207374696c6c206f70656e4f776e61626c653a2063616c6c6572206973206e6f7420746865206f776e6572436c617373726f6f6d3a20696e7665737420616c6c2062616c616e6365206265666f726520626567696e436c617373726f6f6d3a206170706c69636174696f6e732061726520616c726561647920636c6f736564436c617373726f6f6d3a2073747564656e74206973206e6f742072656769737465726564436c617373726f6f6d3a206170706c69636174696f6e732061726520616c7265616479206f70656e6564536f75726365206d75737420626520746865206f7261636c65206f66207468652072657175657374a2646970667358221220d89a04256e155c5deaa29c65bb82c06e67ba8932feed81cd300a3b91509ae1ea64736f6c63430006060033",
  "immutableReferences": {},
  "source": "pragma solidity 0.6.6;\r\n\r\nimport \"@openzeppelin/contracts/math/SafeMath.sol\";\r\nimport \"@openzeppelin/contracts/access/AccessControl.sol\";\r\nimport \"@openzeppelin/contracts/access/Ownable.sol\";\r\nimport \"@openzeppelin/contracts/token/ERC20/IERC20.sol\";\r\nimport \"@openzeppelin/contracts/utils/Address.sol\";\r\nimport \"@chainlink/contracts/src/v0.6/ChainlinkClient.sol\";\r\nimport \"@chainlink/contracts/src/v0.6/interfaces/LinkTokenInterface.sol\";\r\nimport \"@uniswap/v2-periphery/contracts/interfaces/IUniswapV2Router01.sol\";\r\nimport \"@uniswap/lib/contracts/libraries/TransferHelper.sol\";\r\nimport \"./interface/IUniversity.sol\";\r\nimport \"./interface/IStudent.sol\";\r\nimport \"./interface/IClassroom.sol\";\r\nimport \"./interface/IStudentApplication.sol\";\r\nimport \"./interface/IClassroomChallenge.sol\";\r\nimport \"./interface/IStudentApplicationFactory.sol\";\r\nimport \"./StudentApplicationFactory.sol\";\r\nimport \"./MyUtils.sol\";\r\n\r\n\r\ncontract Classroom is Ownable, ChainlinkClient, IClassroom {\r\n    IUniversity public university;\r\n    bool public openForApplication;\r\n    bool public courseFinished;\r\n    bool public classroomActive;\r\n    bool _timestampAlarm;\r\n    address[] _studentApplications;\r\n    address[] _validStudentApplications;\r\n    mapping(address => address) _studentApplicationsLink;\r\n    address[] _studentsLookUp;\r\n    address[] _applicationsLookUp;\r\n    uint256 _endDate;\r\n    uint256 _totalBalance;\r\n    bytes32 _seed;\r\n\r\n    //Classroom parameters\r\n    bytes32 public name;\r\n    uint24 public principalCut;\r\n    uint24 public poolCut;\r\n    int32 public minScore;\r\n    uint256 public override entryPrice;\r\n    uint256 public duration;\r\n\r\n    IERC20 public daiToken;\r\n    CERC20 public cDAI;\r\n    StudentApplicationFactory _studentApplicationFactory;\r\n    address public _challengeAddress;\r\n\r\n    //Chainlink config\r\n    address _oracleRandom;\r\n    bytes32 _requestIdRandom;\r\n    uint256 _oraclePaymentRandom;\r\n    address _oracleTimestamp;\r\n    bytes32 _requestIdTimestamp;\r\n    uint256 _oraclePaymentTimestamp;\r\n    address _linkToken;\r\n\r\n    //Uniswap Config\r\n    address _uniswapLINK;\r\n    address _uniswapDAI;\r\n    IUniswapV2Router01 public _uniswapRouter;\r\n\r\n    constructor(\r\n        bytes32 _name,\r\n        uint24 _principalCut,\r\n        uint24 _poolCut,\r\n        int32 _minScore,\r\n        uint256 _entryPrice,\r\n        uint256 _duration,\r\n        address payable universityAddress,\r\n        address challengeAddress,\r\n        address daiAddress,\r\n        address compoundDAIAddress,\r\n        address studentApplicationFactoryAddress\r\n    ) public {\r\n        name = _name;\r\n        principalCut = _principalCut;\r\n        poolCut = _poolCut;\r\n        minScore = _minScore;\r\n        entryPrice = _entryPrice;\r\n        duration = _duration;\r\n        university = IUniversity(universityAddress);\r\n        _challengeAddress = challengeAddress;\r\n        openForApplication = false;\r\n        classroomActive = false;\r\n        daiToken = IERC20(daiAddress);\r\n        cDAI = CERC20(compoundDAIAddress);\r\n        _studentApplicationFactory = StudentApplicationFactory(studentApplicationFactoryAddress);\r\n    }\r\n\r\n    event LogOpenApplications();\r\n    event LogCloseApplications();\r\n    event LogCourseFinished();\r\n    event LogChangeChallenge(address);\r\n    event LogChangeName(bytes32);\r\n    event LogChangePrincipalCut(uint24);\r\n    event LogChangePoolCut(uint24);\r\n    event LogChangeMinScore(int32);\r\n    event LogChangeEntryPrice(uint256);\r\n    event LogChangeDuration(uint256);\r\n\r\n    // @dev \"Stack too deep\" error if done in the constructor\r\n    function configureOracles(\r\n        address oracleRandom,\r\n        bytes32 requestIdRandom,\r\n        uint256 oraclePaymentRandom,\r\n        address oracleTimestamp,\r\n        bytes32 requestIdTimestamp,\r\n        uint256 oraclePaymentTimestamp,\r\n        address linkToken\r\n    ) public onlyOwner {\r\n        _oracleRandom = oracleRandom;\r\n        _requestIdRandom = requestIdRandom;\r\n        _oraclePaymentRandom = oraclePaymentRandom;\r\n        _oracleTimestamp = oracleTimestamp;\r\n        _requestIdTimestamp = requestIdTimestamp;\r\n        _oraclePaymentTimestamp = oraclePaymentTimestamp;\r\n        _linkToken = linkToken;\r\n        require(\r\n            LinkTokenInterface(_linkToken).balanceOf(address(this)) >= _oraclePaymentRandom,\r\n            \"Classroom: not enough Link tokens\"\r\n        );\r\n        _generateSeed();\r\n    }\r\n\r\n    function configureUniswap(\r\n        address uniswapLINK,\r\n        address uniswapDAI,\r\n        address uniswapRouter\r\n    ) public onlyOwner {\r\n        _uniswapLINK = uniswapLINK;\r\n        _uniswapDAI = uniswapDAI;\r\n        _uniswapRouter = IUniswapV2Router01(uniswapRouter);\r\n    }\r\n\r\n    function transferOwnershipClassroom(address newOwner) public override {\r\n        transferOwnership(newOwner);\r\n    }\r\n\r\n    function changeName(bytes32 val) public onlyOwner {\r\n        name = val;\r\n        emit LogChangeName(name);\r\n    }\r\n\r\n    function changePrincipalCut(uint24 val) public onlyOwner {\r\n        principalCut = val;\r\n        emit LogChangePrincipalCut(principalCut);\r\n    }\r\n\r\n    function changePoolCut(uint24 val) public onlyOwner {\r\n        poolCut = val;\r\n        emit LogChangePoolCut(poolCut);\r\n    }\r\n\r\n    function changeMinScore(int32 val) public onlyOwner {\r\n        minScore = val;\r\n        emit LogChangeMinScore(minScore);\r\n    }\r\n\r\n    function changeEntryPrice(uint256 val) public onlyOwner {\r\n        entryPrice = val;\r\n        emit LogChangeEntryPrice(entryPrice);\r\n    }\r\n\r\n    function changeDuration(uint256 val) public onlyOwner {\r\n        duration = val;\r\n        emit LogChangeDuration(duration);\r\n    }\r\n\r\n    function changeChallenge(address addr) public onlyOwner {\r\n        require(isClassroomEmpty(), \"Classroom: can't change challenge now\");\r\n        _challengeAddress = addr;\r\n        emit LogChangeChallenge(_challengeAddress);\r\n    }\r\n\r\n    function viewAllApplications()\r\n        public\r\n        view\r\n        onlyOwner\r\n        returns (address[] memory)\r\n    {\r\n        return _applicationsLookUp;\r\n    }\r\n\r\n    function viewMyApplication() public view override returns (address) {\r\n        return viewApplication(_msgSender());\r\n    }\r\n\r\n    function viewApplication(address addr) public view returns (address) {\r\n        require(\r\n            addr == _msgSender() || _msgSender() == owner(),\r\n            \"Classroom: read permission denied\"\r\n        );\r\n        return _studentApplicationsLink[addr];\r\n    }\r\n\r\n    function viewAllStudents()\r\n        public\r\n        view\r\n        onlyOwner\r\n        returns (address[] memory)\r\n    {\r\n        return _studentsLookUp;\r\n    }\r\n\r\n    function isClassroomEmpty() public view returns (bool) {\r\n        return\r\n            _studentApplications.length.add(_validStudentApplications.length) ==\r\n            0;\r\n    }\r\n\r\n    function isCourseOngoing() public view returns (bool) {\r\n        return _validStudentApplications.length > 0;\r\n    }\r\n\r\n    function openApplications() public onlyOwner {\r\n        require(\r\n            _oracleRandom != address(0),\r\n            \"Classroom: setup oracles first\"\r\n        );\r\n        require(\r\n            !openForApplication,\r\n            \"Classroom: applications are already opened\"\r\n        );\r\n        require(\r\n            _studentApplications.length == 0,\r\n            \"Classroom: students list not empty\"\r\n        );\r\n        require(\r\n            LinkTokenInterface(_linkToken).balanceOf(address(this)) >= _oraclePaymentTimestamp,\r\n            \"Classroom: not enough Link tokens\"\r\n        );\r\n        openForApplication = true;\r\n        emit LogOpenApplications();\r\n    }\r\n\r\n    function closeApplications() public onlyOwner {\r\n        require(\r\n            openForApplication,\r\n            \"Classroom: applications are already closed\"\r\n        );\r\n        openForApplication = false;\r\n        emit LogCloseApplications();\r\n    }\r\n\r\n    //public onlyOwner allow the professor to apply money before and after closing applications\r\n    function applyDAI() public onlyOwner {\r\n        uint256 balance = daiToken.balanceOf(address(this));\r\n        if (balance <= 0) return;\r\n        TransferHelper.safeApprove(address(daiToken), address(cDAI), balance);\r\n        cDAI.mint(balance);\r\n    }\r\n\r\n    function studentApply() public override {\r\n        require(\r\n            _msgSender() != owner(),\r\n            \"Classroom: professor can't be its own student\"\r\n        );\r\n        require(\r\n            university.studentIsRegistered(_msgSender()),\r\n            \"Classroom: student is not registered\"\r\n        );\r\n        require(openForApplication, \"Classroom: applications closed\");\r\n        IStudent applicant = IStudent(_msgSender());\r\n        require(\r\n            applicant.score() >= minScore,\r\n            \"Classroom: student doesn't have enough score\"\r\n        );\r\n        address application = _createStudentApplication(address(applicant));\r\n        _studentApplications.push(application);\r\n    }\r\n\r\n    function _createStudentApplication(address student)\r\n        internal\r\n        returns (address)\r\n    {\r\n        address newApplication = _studentApplicationFactory.newStudentApplication(\r\n            student,\r\n            address(this),\r\n            address(daiToken),\r\n            _challengeAddress,\r\n            generateNewSeed()\r\n        );\r\n        _studentApplicationsLink[student] = newApplication;\r\n        university.registerStudentApplication(\r\n            student,\r\n            newApplication\r\n        );\r\n        _studentsLookUp.push(student);\r\n        _applicationsLookUp.push(newApplication);\r\n        return newApplication;\r\n    }\r\n\r\n    function generateNewSeed() internal view returns (bytes32) {\r\n        return blockhash(0) ^ _seed;\r\n    }\r\n\r\n    function beginCourse() public onlyOwner {\r\n        require(!openForApplication, \"Classroom: applications are still open\");\r\n        require(\r\n            daiToken.balanceOf(address(this)) == 0,\r\n            \"Classroom: invest all balance before begin\"\r\n        );\r\n        checkApplications();\r\n        _studentApplications = new address[](0);\r\n        require(\r\n            _validStudentApplications.length > 0,\r\n            \"Classroom: no ready application\"\r\n        );\r\n        classroomActive = true;\r\n        _setAlarm();\r\n    }\r\n\r\n    function checkApplications() internal {\r\n        for (uint256 i = 0; i < _studentApplications.length; i++) {\r\n            if (IStudentApplication(_studentApplications[i]).applicationState() == 1) {\r\n                IStudentApplication(_studentApplications[i]).activate();\r\n                _validStudentApplications.push(_studentApplications[i]);\r\n            } else {\r\n                IStudentApplication(_studentApplications[i]).expire();\r\n            }\r\n        }\r\n    }\r\n\r\n    function finishCourse() public onlyOwner {\r\n        require(_timestampAlarm, \"Classroom: too soon to finish course\");\r\n        require(\r\n            _validStudentApplications.length > 0,\r\n            \"Classroom: no applications\"\r\n        );\r\n        _totalBalance = _recoverInvestment();\r\n        courseFinished = true;\r\n        emit LogCourseFinished();\r\n    }\r\n\r\n    function _recoverInvestment() internal returns (uint256) {\r\n        uint256 balance = cDAI.balanceOf(address(this));\r\n        cDAI.redeem(balance);\r\n        return balance;\r\n    }\r\n\r\n    function processResults() public onlyOwner {\r\n        require(courseFinished, \"Classroom: course not finished\");\r\n        require(\r\n            _totalBalance <= daiToken.balanceOf(address(this)),\r\n            \"Classroom: not enough DAI to proceed\"\r\n        );\r\n        (uint256 successCount, uint256 emptyCount) = _startAnswerVerification();\r\n        (\r\n            uint256 universityCut,\r\n            uint256[] memory studentAllowances\r\n        ) = _accountValues(successCount, emptyCount);\r\n        _resolveStudentAllowances(studentAllowances);\r\n        _resolveUniversityCut(universityCut);\r\n        _updateStudentScores();\r\n        _clearClassroom();\r\n    }\r\n\r\n    function _startAnswerVerification() internal returns (uint256, uint256) {\r\n        uint256 successCount = 0;\r\n        uint256 emptyCount = 0;\r\n        for (uint256 i = 0; i < _validStudentApplications.length; i++) {\r\n            IStudentApplication(_validStudentApplications[i]).registerFinalAnswer();\r\n            uint256 appState = IStudentApplication(_validStudentApplications[i]).applicationState();\r\n            if (appState == 3)\r\n                successCount++;\r\n            if (appState == 5)\r\n                emptyCount++;\r\n        }\r\n        return (successCount, emptyCount);\r\n    }\r\n\r\n    function _accountValues(uint256 successCount, uint256 emptyCount)\r\n        internal\r\n        returns (uint256, uint256[] memory)\r\n    {\r\n        uint256 nStudents = _validStudentApplications.length;\r\n        uint256 returnsPool = _totalBalance.sub(entryPrice.mul(nStudents));\r\n        uint256 professorPaymentPerStudent = entryPrice.mul(principalCut).div(\r\n            10**6\r\n        );\r\n        uint256 studentPrincipalReturn = entryPrice.sub(\r\n            professorPaymentPerStudent\r\n        );\r\n        uint256 successPool = returnsPool.mul(successCount).div(nStudents);\r\n        uint256 professorTotalPoolSuccessShare = successPool.mul(poolCut).div(\r\n            10**6\r\n        );\r\n        uint256 successStudentPoolShare = returnsPool\r\n            .sub(professorTotalPoolSuccessShare)\r\n            .div(successCount);\r\n        uint256[] memory studentAllowances = new uint256[](nStudents);\r\n        for (uint256 i = 0; i < nStudents; i++) {\r\n            uint256 appState = IStudentApplication(_validStudentApplications[i]).applicationState();\r\n            if (appState == 3) {\r\n                IStudentApplication(_validStudentApplications[i]).accountAllowance(\r\n                    studentPrincipalReturn,\r\n                    successStudentPoolShare\r\n                );\r\n                studentAllowances[i] = studentPrincipalReturn.add(\r\n                    successStudentPoolShare\r\n                );\r\n            }\r\n            if (appState == 4) {\r\n                IStudentApplication(_validStudentApplications[i]).accountAllowance(\r\n                    studentPrincipalReturn,\r\n                    0\r\n                );\r\n                studentAllowances[i] = studentPrincipalReturn;\r\n            }\r\n            if (appState== 5)\r\n                IStudentApplication(_validStudentApplications[i]).accountAllowance(0, 0);\r\n        }\r\n        uint24 uCut = university.cut();\r\n        return (\r\n            _calculateUniversityShare(emptyCount, \r\n                entryPrice,\r\n                professorTotalPoolSuccessShare,\r\n                uCut,\r\n                nStudents,\r\n                professorPaymentPerStudent\r\n            ),\r\n            studentAllowances\r\n        );\r\n    }\r\n\r\n    function _calculateUniversityShare(uint256 emptyCount, uint256 _entryPrice, uint256 professorTotalPoolSuccessShare, uint24 uCut, uint256 nStudents, uint professorPaymentPerStudent) internal pure returns (uint){\r\n        uint256 universityEmptyShare = emptyCount.mul(_entryPrice);\r\n        uint256 universityPaymentShare = professorTotalPoolSuccessShare\r\n            .mul(uCut)\r\n            .div(10**6);\r\n        uint256 notEmptyCount = nStudents.sub(emptyCount);\r\n        uint256 universitySucessPoolShare = professorPaymentPerStudent\r\n            .mul(notEmptyCount)\r\n            .mul(uCut)\r\n            .div(10**6);\r\n        return universityEmptyShare\r\n            .add(universityPaymentShare)\r\n            .add(universitySucessPoolShare);\r\n    }\r\n\r\n    function _resolveStudentAllowances(uint256[] memory studentAllowances)\r\n        internal\r\n    {\r\n        for (uint256 i = 0; i < _validStudentApplications.length; i++) {\r\n            if (studentAllowances[i] > 0)\r\n                TransferHelper.safeApprove\r\n                    (address(daiToken),\r\n                    address(_validStudentApplications[i]),\r\n                    studentAllowances[i]\r\n                );\r\n        }\r\n    }\r\n\r\n    function _resolveUniversityCut(uint256 universityCut) internal {\r\n        TransferHelper.safeTransfer(address(daiToken), address(university), universityCut);\r\n        university.accountRevenue(universityCut);\r\n    }\r\n\r\n    function _updateStudentScores() internal {\r\n        for (uint256 i = 0; i < _validStudentApplications.length; i++) {\r\n            uint256 appState = IStudentApplication(_validStudentApplications[i]).applicationState();\r\n            if (appState == 3)\r\n                university.addStudentScore(\r\n                    IStudentApplication(_validStudentApplications[i]).studentAddress(),\r\n                    1\r\n                );\r\n            if (appState == 4)\r\n                university.subStudentScore(\r\n                    IStudentApplication(_validStudentApplications[i]).studentAddress(),\r\n                    1\r\n                );\r\n            if (appState == 5)\r\n                university.subStudentScore(\r\n                    IStudentApplication(_validStudentApplications[i]).studentAddress(),\r\n                    2\r\n                );\r\n        }\r\n    }\r\n\r\n    function _clearClassroom() internal {\r\n        _validStudentApplications = new address[](0);\r\n        withdrawAllResults();\r\n        _totalBalance = 0;\r\n        courseFinished = false;\r\n        _timestampAlarm = false;\r\n        _mutateSeed();\r\n    }\r\n\r\n    function _mutateSeed() internal {\r\n        _seed = (_seed & blockhash(0)) | (_seed & blockhash(1));\r\n    }\r\n\r\n    function withdrawAllResults() public onlyOwner {\r\n        daiToken.transferFrom(\r\n            address(this),\r\n            owner(),\r\n            daiToken.balanceOf(address(this))\r\n        );\r\n    }\r\n\r\n    function swapDAI_LINK(uint256 amount, uint256 deadline) public onlyOwner {\r\n        require(\r\n            _uniswapLINK != address(0),\r\n            \"University: setup uniswap first\"\r\n        );\r\n        swapBlind(_uniswapDAI, _uniswapLINK, amount, deadline);\r\n    }\r\n\r\n    function swapLINK_DAI(uint256 amount, uint256 deadline) public onlyOwner {\r\n        require(\r\n            _uniswapLINK != address(0),\r\n            \"University: setup uniswap first\"\r\n        );\r\n        swapBlind(_uniswapLINK, _uniswapDAI, amount, deadline);\r\n    }\r\n\r\n    function swapBlind(address tokenA, address tokenB, uint256 amount, uint256 deadline) internal {\r\n        TransferHelper.safeApprove(tokenA, address(_uniswapRouter), amount);\r\n        address[] memory path = new address[](2);\r\n        path[0] = tokenA;\r\n        path[1] = tokenB;\r\n        _uniswapRouter.swapExactTokensForTokens(\r\n            amount,\r\n            0,\r\n            path,\r\n            address(this),\r\n            deadline\r\n        );\r\n    }\r\n\r\n    function _generateSeed() internal {\r\n        Chainlink.Request memory req = buildChainlinkRequest(\r\n            _requestIdRandom,\r\n            address(this),\r\n            this.fulfillGenerateSeed.selector\r\n        );\r\n        sendChainlinkRequestTo(_oracleRandom, req, _oraclePaymentRandom);\r\n    }\r\n\r\n    function fulfillGenerateSeed(bytes32 _requestId, uint256 data)\r\n        public\r\n        recordChainlinkFulfillment(_requestId)\r\n    {\r\n        _seed = keccak256(MyUtils._toBytes(data));\r\n    }\r\n\r\n    function _setAlarm() internal {\r\n        Chainlink.Request memory req = buildChainlinkRequest(\r\n            _requestIdTimestamp,\r\n            address(this),\r\n            this.fulfillGetTimestamp.selector\r\n        );\r\n        req.addUint(\"until\", now + duration);\r\n        sendChainlinkRequestTo(_oracleTimestamp, req, _oraclePaymentTimestamp);\r\n    }\r\n\r\n    function fulfillGetTimestamp(bytes32 _requestId)\r\n        public\r\n        recordChainlinkFulfillment(_requestId)\r\n    {\r\n        _timestampAlarm = true;\r\n    }\r\n}\r\n",
  "sourcePath": "/mnt/e/Repositories/Uproot/contracts/Classroom.sol",
  "compiler": {
    "name": "solc",
    "version": "0.6.6+commit.6c089d02.Emscripten.clang"
  },
  "schemaVersion": "3.1.0",
  "updatedAt": "2020-05-06T13:47:14.722Z",
  "devdoc": {
    "methods": {
      "owner()": {
        "details": "Returns the address of the current owner."
      },
      "renounceOwnership()": {
        "details": "Leaves the contract without owner. It will not be possible to call `onlyOwner` functions anymore. Can only be called by the current owner.     * NOTE: Renouncing ownership will leave the contract without an owner, thereby removing any functionality that is only available to the owner."
      },
      "transferOwnership(address)": {
        "details": "Transfers ownership of the contract to a new account (`newOwner`). Can only be called by the current owner."
      }
    }
  },
  "userdoc": {
    "methods": {}
  }
}