{
  "contractName": "Classroom",
  "abi": [
    {
      "inputs": [
        {
          "internalType": "bytes32",
          "name": "name",
          "type": "bytes32"
        },
        {
          "internalType": "address",
          "name": "universityAddress",
          "type": "address"
        }
      ],
      "stateMutability": "nonpayable",
      "type": "constructor"
    },
    {
      "anonymous": false,
      "inputs": [
        {
          "indexed": true,
          "internalType": "address",
          "name": "previousOwner",
          "type": "address"
        },
        {
          "indexed": true,
          "internalType": "address",
          "name": "newOwner",
          "type": "address"
        }
      ],
      "name": "OwnershipTransferred",
      "type": "event"
    },
    {
      "inputs": [],
      "name": "cToken",
      "outputs": [
        {
          "internalType": "contract CERC20",
          "name": "",
          "type": "address"
        }
      ],
      "stateMutability": "view",
      "type": "function"
    },
    {
      "inputs": [],
      "name": "classroomActive",
      "outputs": [
        {
          "internalType": "bool",
          "name": "",
          "type": "bool"
        }
      ],
      "stateMutability": "view",
      "type": "function"
    },
    {
      "inputs": [],
      "name": "daiToken",
      "outputs": [
        {
          "internalType": "contract IERC20",
          "name": "",
          "type": "address"
        }
      ],
      "stateMutability": "view",
      "type": "function"
    },
    {
      "inputs": [],
      "name": "owner",
      "outputs": [
        {
          "internalType": "address",
          "name": "",
          "type": "address"
        }
      ],
      "stateMutability": "view",
      "type": "function"
    },
    {
      "inputs": [],
      "name": "renounceOwnership",
      "outputs": [],
      "stateMutability": "nonpayable",
      "type": "function"
    },
    {
      "inputs": [
        {
          "internalType": "address",
          "name": "newOwner",
          "type": "address"
        }
      ],
      "name": "transferOwnership",
      "outputs": [],
      "stateMutability": "nonpayable",
      "type": "function"
    },
    {
      "inputs": [],
      "name": "name",
      "outputs": [
        {
          "internalType": "bytes32",
          "name": "",
          "type": "bytes32"
        }
      ],
      "stateMutability": "view",
      "type": "function"
    },
    {
      "inputs": [
        {
          "internalType": "bytes32",
          "name": "val",
          "type": "bytes32"
        }
      ],
      "name": "changeName",
      "outputs": [],
      "stateMutability": "nonpayable",
      "type": "function"
    },
    {
      "inputs": [],
      "name": "minScore",
      "outputs": [
        {
          "internalType": "int32",
          "name": "",
          "type": "int32"
        }
      ],
      "stateMutability": "view",
      "type": "function"
    },
    {
      "inputs": [
        {
          "internalType": "int32",
          "name": "val",
          "type": "int32"
        }
      ],
      "name": "setMinScore",
      "outputs": [],
      "stateMutability": "nonpayable",
      "type": "function"
    },
    {
      "inputs": [],
      "name": "entryPrice",
      "outputs": [
        {
          "internalType": "uint256",
          "name": "",
          "type": "uint256"
        }
      ],
      "stateMutability": "view",
      "type": "function"
    },
    {
      "inputs": [
        {
          "internalType": "uint256",
          "name": "val",
          "type": "uint256"
        }
      ],
      "name": "setEntryPrice",
      "outputs": [],
      "stateMutability": "nonpayable",
      "type": "function"
    },
    {
      "inputs": [],
      "name": "applicationsState",
      "outputs": [
        {
          "internalType": "bool",
          "name": "",
          "type": "bool"
        }
      ],
      "stateMutability": "view",
      "type": "function"
    },
    {
      "inputs": [],
      "name": "viewSeed",
      "outputs": [
        {
          "internalType": "bytes32",
          "name": "",
          "type": "bytes32"
        }
      ],
      "stateMutability": "view",
      "type": "function"
    },
    {
      "inputs": [],
      "name": "openApplications",
      "outputs": [],
      "stateMutability": "nonpayable",
      "type": "function"
    },
    {
      "inputs": [],
      "name": "closeApplications",
      "outputs": [],
      "stateMutability": "nonpayable",
      "type": "function"
    },
    {
      "inputs": [],
      "name": "studentApply",
      "outputs": [],
      "stateMutability": "nonpayable",
      "type": "function"
    },
    {
      "inputs": [],
      "name": "beginClass",
      "outputs": [],
      "stateMutability": "nonpayable",
      "type": "function"
    },
    {
      "inputs": [],
      "name": "applyDAI",
      "outputs": [],
      "stateMutability": "nonpayable",
      "type": "function"
    }
  ],
  "bytecode": "0x608060405234801561001057600080fd5b506040516200353f3803806200353f8339818101604052604081101561003557600080fd5b810190808051906020019092919080519060200190929190505050600061006061021160201b60201c565b9050806000806101000a81548173ffffffffffffffffffffffffffffffffffffffff021916908373ffffffffffffffffffffffffffffffffffffffff1602179055508073ffffffffffffffffffffffffffffffffffffffff16600073ffffffffffffffffffffffffffffffffffffffff167f8be0079c531659141344cd1fd0a4f28419497f9722a3daafe3b4186f6b6457e060405160405180910390a3508160018190555080600260006101000a81548173ffffffffffffffffffffffffffffffffffffffff021916908373ffffffffffffffffffffffffffffffffffffffff1602179055506000600260146101000a81548160ff0219169083151502179055506000600660006101000a81548163ffffffff021916908360030b63ffffffff1602179055506000600a60146101000a81548160ff021916908315150217905550734f96fe3b7a6cf9725f59d353f723c1bdb64ca6aa600960006101000a81548173ffffffffffffffffffffffffffffffffffffffff021916908373ffffffffffffffffffffffffffffffffffffffff16021790555061020461021960201b60201c565b6008819055505050610241565b600033905090565b60007f52414e444f4d0000000000000000000000000000000000000000000000000000905090565b6132ee80620002516000396000f3fe60806040523480156200001157600080fd5b50600436106200013c5760003560e01c80638da5cb5b11620000bd578063db073517116200007b578063db0735171462000339578063df55946a146200035d578063f2fde38b1462000391578063f745adfc14620003d8578063fc48258d14620003f8576200013c565b80638da5cb5b1462000240578063a46268a8146200028c578063a6e77af114620002b0578063ada02e1914620002e1578063be22f54614620002ed576200013c565b80634d50f380116200010b5780634d50f380146200019f57806369e527da14620001ab578063715018a614620001f75780637c0260cb1462000203578063898855ed146200020f576200013c565b806306fdde03146200014157806313c2bedc14620001615780631b9dbc601462000187578063319600271462000193575b600080fd5b6200014b62000418565b6040518082815260200191505060405180910390f35b6200016b62000422565b604051808260030b60030b815260200191505060405180910390f35b6200019162000439565b005b6200019d62000770565b005b620001a962000921565b005b620001b562000af8565b604051808273ffffffffffffffffffffffffffffffffffffffff1673ffffffffffffffffffffffffffffffffffffffff16815260200191505060405180910390f35b6200020162000b1e565b005b6200020d62000ca9565b005b6200023e600480360360208110156200022757600080fd5b810190808035906020019092919050505062000e03565b005b6200024a62000ed9565b604051808273ffffffffffffffffffffffffffffffffffffffff1673ffffffffffffffffffffffffffffffffffffffff16815260200191505060405180910390f35b6200029662000f02565b604051808215151515815260200191505060405180910390f35b620002df60048036036020811015620002c857600080fd5b810190808035906020019092919050505062000f15565b005b620002eb62000feb565b005b620002f762001239565b604051808273ffffffffffffffffffffffffffffffffffffffff1673ffffffffffffffffffffffffffffffffffffffff16815260200191505060405180910390f35b620003436200125f565b604051808215151515815260200191505060405180910390f35b6200038f600480360360208110156200037557600080fd5b81019080803560030b906020019092919050505062001276565b005b620003d660048036036020811015620003a957600080fd5b81019080803573ffffffffffffffffffffffffffffffffffffffff16906020019092919050505062001369565b005b620003e26200157b565b6040518082815260200191505060405180910390f35b6200040262001585565b6040518082815260200191505060405180910390f35b6000600154905090565b6000600660009054906101000a900460030b905090565b600260009054906101000a900473ffffffffffffffffffffffffffffffffffffffff1673ffffffffffffffffffffffffffffffffffffffff166316ded1ce620004816200165b565b6040518263ffffffff1660e01b8152600401808273ffffffffffffffffffffffffffffffffffffffff1673ffffffffffffffffffffffffffffffffffffffff16815260200191505060206040518083038186803b158015620004e257600080fd5b505afa158015620004f7573d6000803e3d6000fd5b505050506040513d60208110156200050e57600080fd5b810190808051906020019092919050505062000576576040517f08c379a00000000000000000000000000000000000000000000000000000000081526004018080602001828103825260248152602001806200326b6024913960400191505060405180910390fd5b600260149054906101000a900460ff16620005f9576040517f08c379a000000000000000000000000000000000000000000000000000000000815260040180806020018281038252601e8152602001807f436c617373726f6f6d3a206170706c69636174696f6e7320636c6f736564000081525060200191505060405180910390fd5b6000620006056200165b565b9050600660009054906101000a900460030b60030b8173ffffffffffffffffffffffffffffffffffffffff1663efedc6696040518163ffffffff1660e01b815260040160206040518083038186803b1580156200066157600080fd5b505afa15801562000676573d6000803e3d6000fd5b505050506040513d60208110156200068d57600080fd5b810190808051906020019092919050505060030b1215620006fa576040517f08c379a000000000000000000000000000000000000000000000000000000000815260040180806020018281038252602c815260200180620031cd602c913960400191505060405180910390fd5b6000620007078262001663565b90506003819080600181540180825580915050600190039060005260206000200160009091909190916101000a81548173ffffffffffffffffffffffffffffffffffffffff021916908373ffffffffffffffffffffffffffffffffffffffff1602179055505050565b6200077a6200165b565b73ffffffffffffffffffffffffffffffffffffffff166000809054906101000a900473ffffffffffffffffffffffffffffffffffffffff1673ffffffffffffffffffffffffffffffffffffffff16146200083c576040517f08c379a00000000000000000000000000000000000000000000000000000000081526004018080602001828103825260208152602001807f4f776e61626c653a2063616c6c6572206973206e6f7420746865206f776e657281525060200191505060405180910390fd5b600260149054906101000a900460ff1615620008a4576040517f08c379a000000000000000000000000000000000000000000000000000000000815260040180806020018281038252602a8152602001806200328f602a913960400191505060405180910390fd5b60006003805490501462000904576040517f08c379a0000000000000000000000000000000000000000000000000000000008152600401808060200182810382526022815260200180620031f96022913960400191505060405180910390fd5b6001600260146101000a81548160ff021916908315150217905550565b6200092b6200165b565b73ffffffffffffffffffffffffffffffffffffffff166000809054906101000a900473ffffffffffffffffffffffffffffffffffffffff1673ffffffffffffffffffffffffffffffffffffffff1614620009ed576040517f08c379a00000000000000000000000000000000000000000000000000000000081526004018080602001828103825260208152602001807f4f776e61626c653a2063616c6c6572206973206e6f7420746865206f776e657281525060200191505060405180910390fd5b600260149054906101000a900460ff161562000a55576040517f08c379a00000000000000000000000000000000000000000000000000000000081526004018080602001828103825260268152602001806200321b6026913960400191505060405180910390fd5b62000a5f62001790565b60006004805490501162000adb576040517f08c379a000000000000000000000000000000000000000000000000000000000815260040180806020018281038252601f8152602001807f436c617373726f6f6d3a206e6f207265616479206170706c69636174696f6e0081525060200191505060405180910390fd5b6001600a60146101000a81548160ff021916908315150217905550565b600a60009054906101000a900473ffffffffffffffffffffffffffffffffffffffff1681565b62000b286200165b565b73ffffffffffffffffffffffffffffffffffffffff166000809054906101000a900473ffffffffffffffffffffffffffffffffffffffff1673ffffffffffffffffffffffffffffffffffffffff161462000bea576040517f08c379a00000000000000000000000000000000000000000000000000000000081526004018080602001828103825260208152602001807f4f776e61626c653a2063616c6c6572206973206e6f7420746865206f776e657281525060200191505060405180910390fd5b600073ffffffffffffffffffffffffffffffffffffffff166000809054906101000a900473ffffffffffffffffffffffffffffffffffffffff1673ffffffffffffffffffffffffffffffffffffffff167f8be0079c531659141344cd1fd0a4f28419497f9722a3daafe3b4186f6b6457e060405160405180910390a360008060006101000a81548173ffffffffffffffffffffffffffffffffffffffff021916908373ffffffffffffffffffffffffffffffffffffffff160217905550565b62000cb36200165b565b73ffffffffffffffffffffffffffffffffffffffff166000809054906101000a900473ffffffffffffffffffffffffffffffffffffffff1673ffffffffffffffffffffffffffffffffffffffff161462000d75576040517f08c379a00000000000000000000000000000000000000000000000000000000081526004018080602001828103825260208152602001807f4f776e61626c653a2063616c6c6572206973206e6f7420746865206f776e657281525060200191505060405180910390fd5b600260149054906101000a900460ff1662000ddc576040517f08c379a000000000000000000000000000000000000000000000000000000000815260040180806020018281038252602a81526020018062003241602a913960400191505060405180910390fd5b6000600260146101000a81548160ff02191690831515021790555062000e0162000feb565b565b62000e0d6200165b565b73ffffffffffffffffffffffffffffffffffffffff166000809054906101000a900473ffffffffffffffffffffffffffffffffffffffff1673ffffffffffffffffffffffffffffffffffffffff161462000ecf576040517f08c379a00000000000000000000000000000000000000000000000000000000081526004018080602001828103825260208152602001807f4f776e61626c653a2063616c6c6572206973206e6f7420746865206f776e657281525060200191505060405180910390fd5b8060018190555050565b60008060009054906101000a900473ffffffffffffffffffffffffffffffffffffffff16905090565b600a60149054906101000a900460ff1681565b62000f1f6200165b565b73ffffffffffffffffffffffffffffffffffffffff166000809054906101000a900473ffffffffffffffffffffffffffffffffffffffff1673ffffffffffffffffffffffffffffffffffffffff161462000fe1576040517f08c379a00000000000000000000000000000000000000000000000000000000081526004018080602001828103825260208152602001807f4f776e61626c653a2063616c6c6572206973206e6f7420746865206f776e657281525060200191505060405180910390fd5b8060078190555050565b62000ff56200165b565b73ffffffffffffffffffffffffffffffffffffffff166000809054906101000a900473ffffffffffffffffffffffffffffffffffffffff1673ffffffffffffffffffffffffffffffffffffffff1614620010b7576040517f08c379a00000000000000000000000000000000000000000000000000000000081526004018080602001828103825260208152602001807f4f776e61626c653a2063616c6c6572206973206e6f7420746865206f776e657281525060200191505060405180910390fd5b6000600960009054906101000a900473ffffffffffffffffffffffffffffffffffffffff1673ffffffffffffffffffffffffffffffffffffffff166370a08231306040518263ffffffff1660e01b8152600401808273ffffffffffffffffffffffffffffffffffffffff1673ffffffffffffffffffffffffffffffffffffffff16815260200191505060206040518083038186803b1580156200115957600080fd5b505afa1580156200116e573d6000803e3d6000fd5b505050506040513d60208110156200118557600080fd5b81019080805190602001909291905050509050600081116200120f576040517f08c379a000000000000000000000000000000000000000000000000000000000815260040180806020018281038252601c8152602001807f436c617373726f6f6d3a206e6f2066756e647320746f206170706c790000000081525060200191505060405180910390fd5b7f504c414345484f4c44455200000000000000000000000000000000000000000060018190555050565b600960009054906101000a900473ffffffffffffffffffffffffffffffffffffffff1681565b6000600260149054906101000a900460ff16905090565b620012806200165b565b73ffffffffffffffffffffffffffffffffffffffff166000809054906101000a900473ffffffffffffffffffffffffffffffffffffffff1673ffffffffffffffffffffffffffffffffffffffff161462001342576040517f08c379a00000000000000000000000000000000000000000000000000000000081526004018080602001828103825260208152602001807f4f776e61626c653a2063616c6c6572206973206e6f7420746865206f776e657281525060200191505060405180910390fd5b80600660006101000a81548163ffffffff021916908360030b63ffffffff16021790555050565b620013736200165b565b73ffffffffffffffffffffffffffffffffffffffff166000809054906101000a900473ffffffffffffffffffffffffffffffffffffffff1673ffffffffffffffffffffffffffffffffffffffff161462001435576040517f08c379a00000000000000000000000000000000000000000000000000000000081526004018080602001828103825260208152602001807f4f776e61626c653a2063616c6c6572206973206e6f7420746865206f776e657281525060200191505060405180910390fd5b600073ffffffffffffffffffffffffffffffffffffffff168173ffffffffffffffffffffffffffffffffffffffff161415620014bd576040517f08c379a0000000000000000000000000000000000000000000000000000000008152600401808060200182810382526026815260200180620031a76026913960400191505060405180910390fd5b8073ffffffffffffffffffffffffffffffffffffffff166000809054906101000a900473ffffffffffffffffffffffffffffffffffffffff1673ffffffffffffffffffffffffffffffffffffffff167f8be0079c531659141344cd1fd0a4f28419497f9722a3daafe3b4186f6b6457e060405160405180910390a3806000806101000a81548173ffffffffffffffffffffffffffffffffffffffff021916908373ffffffffffffffffffffffffffffffffffffffff16021790555050565b6000600754905090565b6000620015916200165b565b73ffffffffffffffffffffffffffffffffffffffff166000809054906101000a900473ffffffffffffffffffffffffffffffffffffffff1673ffffffffffffffffffffffffffffffffffffffff161462001653576040517f08c379a00000000000000000000000000000000000000000000000000000000081526004018080602001828103825260208152602001807f4f776e61626c653a2063616c6c6572206973206e6f7420746865206f776e657281525060200191505060405180910390fd5b600854905090565b600033905090565b6000808230600854604051620016799062001a12565b808473ffffffffffffffffffffffffffffffffffffffff1673ffffffffffffffffffffffffffffffffffffffff1681526020018373ffffffffffffffffffffffffffffffffffffffff1673ffffffffffffffffffffffffffffffffffffffff1681526020018281526020019350505050604051809103906000f08015801562001706573d6000803e3d6000fd5b50905080600560008573ffffffffffffffffffffffffffffffffffffffff1673ffffffffffffffffffffffffffffffffffffffff16815260200190815260200160002060006101000a81548173ffffffffffffffffffffffffffffffffffffffff021916908373ffffffffffffffffffffffffffffffffffffffff16021790555080915050919050565b60008090505b600380549050811015620019ad57600160038281548110620017b457fe5b9060005260206000200160009054906101000a900473ffffffffffffffffffffffffffffffffffffffff1673ffffffffffffffffffffffffffffffffffffffff16636587b61e6040518163ffffffff1660e01b815260040160206040518083038186803b1580156200182557600080fd5b505afa1580156200183a573d6000803e3d6000fd5b505050506040513d60208110156200185157600080fd5b810190808051906020019092919050505014156200199f57600381815481106200187757fe5b9060005260206000200160009054906101000a900473ffffffffffffffffffffffffffffffffffffffff1673ffffffffffffffffffffffffffffffffffffffff16630f15f4c06040518163ffffffff1660e01b8152600401600060405180830381600087803b158015620018ea57600080fd5b505af1158015620018ff573d6000803e3d6000fd5b505050506004600382815481106200191357fe5b9060005260206000200160009054906101000a900473ffffffffffffffffffffffffffffffffffffffff169080600181540180825580915050600190039060005260206000200160009091909190916101000a81548173ffffffffffffffffffffffffffffffffffffffff021916908373ffffffffffffffffffffffffffffffffffffffff1602179055505b808060010191505062001796565b50600067ffffffffffffffff81118015620019c757600080fd5b50604051908082528060200260200182016040528015620019f75781602001602082028036833780820191505090505b506003908051906020019062001a0f92919062001a20565b50565b6116b18062001af683390190565b82805482825590600052602060002090810192821562001a9c579160200282015b8281111562001a9b5782518260006101000a81548173ffffffffffffffffffffffffffffffffffffffff021916908373ffffffffffffffffffffffffffffffffffffffff1602179055509160200191906001019062001a41565b5b50905062001aab919062001aaf565b5090565b62001af291905b8082111562001aee57600081816101000a81549073ffffffffffffffffffffffffffffffffffffffff02191690555060010162001ab6565b5090565b9056fe608060405234801561001057600080fd5b506040516116b13803806116b18339818101604052606081101561003357600080fd5b81019080805190602001909291908051906020019092919080519060200190929190505050600061006861023960201b60201c565b9050806000806101000a81548173ffffffffffffffffffffffffffffffffffffffff021916908373ffffffffffffffffffffffffffffffffffffffff1602179055508073ffffffffffffffffffffffffffffffffffffffff16600073ffffffffffffffffffffffffffffffffffffffff167f8be0079c531659141344cd1fd0a4f28419497f9722a3daafe3b4186f6b6457e060405160405180910390a3506000600260146101000a81548160ff0219169083600581111561012557fe5b021790555082600360006101000a81548173ffffffffffffffffffffffffffffffffffffffff021916908373ffffffffffffffffffffffffffffffffffffffff16021790555081600460006101000a81548173ffffffffffffffffffffffffffffffffffffffff021916908373ffffffffffffffffffffffffffffffffffffffff1602179055506000600660006101000a81548160ff021916908315150217905550734f96fe3b7a6cf9725f59d353f723c1bdb64ca6aa600160006101000a81548173ffffffffffffffffffffffffffffffffffffffff021916908373ffffffffffffffffffffffffffffffffffffffff16021790555061022b8161024160201b60201c565b60058190555050505061026d565b600033905090565b60007f52414e444f4d000000000000000000000000000000000000000000000000000082189050919050565b6114358061027c6000396000f3fe608060405234801561001057600080fd5b50600436106100cf5760003560e01c8063715018a61161008c578063be22f54611610066578063be22f546146101ae578063c7a51bc3146101f8578063f2fde38b14610216578063fc48258d1461025a576100cf565b8063715018a614610150578063872d7c791461015a5780638da5cb5b14610164576100cf565b80630bb8ebf6146100d45780630f15f4c0146100f6578063289cf0d2146101005780632d24947b1461010a5780636587b61e1461011457806370bc0d6f14610132575b600080fd5b6100dc610278565b604051808215151515815260200191505060405180910390f35b6100fe610326565b005b610108610414565b005b610112610578565b005b61011c61084d565b6040518082815260200191505060405180910390f35b61013a610960565b6040518082815260200191505060405180910390f35b610158610a9e565b005b610162610c26565b005b61016c610e35565b604051808273ffffffffffffffffffffffffffffffffffffffff1673ffffffffffffffffffffffffffffffffffffffff16815260200191505060405180910390f35b6101b6610e5e565b604051808273ffffffffffffffffffffffffffffffffffffffff1673ffffffffffffffffffffffffffffffffffffffff16815260200191505060405180910390f35b610200610e84565b6040518082815260200191505060405180910390f35b6102586004803603602081101561022c57600080fd5b81019080803573ffffffffffffffffffffffffffffffffffffffff169060200190929190505050610fc2565b005b6102626111cf565b6040518082815260200191505060405180910390f35b6000600554600260009054906101000a900473ffffffffffffffffffffffffffffffffffffffff1673ffffffffffffffffffffffffffffffffffffffff166339e7357c6040518163ffffffff1660e01b815260040160206040518083038186803b1580156102e557600080fd5b505afa1580156102f9573d6000803e3d6000fd5b505050506040513d602081101561030f57600080fd5b810190808051906020019092919050505014905090565b61032e6112a2565b73ffffffffffffffffffffffffffffffffffffffff166000809054906101000a900473ffffffffffffffffffffffffffffffffffffffff1673ffffffffffffffffffffffffffffffffffffffff16146103ef576040517f08c379a00000000000000000000000000000000000000000000000000000000081526004018080602001828103825260208152602001807f4f776e61626c653a2063616c6c6572206973206e6f7420746865206f776e657281525060200191505060405180910390fd5b60028060146101000a81548160ff0219169083600581111561040d57fe5b0217905550565b61041c6112a2565b73ffffffffffffffffffffffffffffffffffffffff166000809054906101000a900473ffffffffffffffffffffffffffffffffffffffff1673ffffffffffffffffffffffffffffffffffffffff16146104dd576040517f08c379a00000000000000000000000000000000000000000000000000000000081526004018080602001828103825260208152602001807f4f776e61626c653a2063616c6c6572206973206e6f7420746865206f776e657281525060200191505060405180910390fd5b600660009054906101000a900460ff1661051a576005600260146101000a81548160ff0219169083600581111561051057fe5b0217905550610576565b610522610278565b15610550576003600260146101000a81548160ff0219169083600581111561054657fe5b0217905550610575565b6004600260146101000a81548160ff0219169083600581111561056f57fe5b02179055505b5b565b6000600581111561058557fe5b600260149054906101000a900460ff1660058111156105a057fe5b146105f6576040517f08c379a000000000000000000000000000000000000000000000000000000000815260040180806020018281038252602e8152602001806113d2602e913960400191505060405180910390fd5b600160009054906101000a900473ffffffffffffffffffffffffffffffffffffffff1673ffffffffffffffffffffffffffffffffffffffff166323b872dd33600460009054906101000a900473ffffffffffffffffffffffffffffffffffffffff16600460009054906101000a900473ffffffffffffffffffffffffffffffffffffffff1673ffffffffffffffffffffffffffffffffffffffff1663f745adfc6040518163ffffffff1660e01b815260040160206040518083038186803b1580156106c057600080fd5b505afa1580156106d4573d6000803e3d6000fd5b505050506040513d60208110156106ea57600080fd5b81019080805190602001909291905050506040518463ffffffff1660e01b8152600401808473ffffffffffffffffffffffffffffffffffffffff1673ffffffffffffffffffffffffffffffffffffffff1681526020018373ffffffffffffffffffffffffffffffffffffffff1673ffffffffffffffffffffffffffffffffffffffff1681526020018281526020019350505050602060405180830381600087803b15801561079757600080fd5b505af11580156107ab573d6000803e3d6000fd5b505050506040513d60208110156107c157600080fd5b8101908080519060200190929190505050610827576040517f08c379a000000000000000000000000000000000000000000000000000000000815260040180806020018281038252602a81526020018061137e602a913960400191505060405180910390fd5b6001600260146101000a81548160ff0219169083600581111561084657fe5b0217905550565b6000600360009054906101000a900473ffffffffffffffffffffffffffffffffffffffff1673ffffffffffffffffffffffffffffffffffffffff166108906112a2565b73ffffffffffffffffffffffffffffffffffffffff1614806108eb57506108b5610e35565b73ffffffffffffffffffffffffffffffffffffffff166108d36112a2565b73ffffffffffffffffffffffffffffffffffffffff16145b610940576040517f08c379a000000000000000000000000000000000000000000000000000000000815260040180806020018281038252602a8152602001806113a8602a913960400191505060405180910390fd5b600260149054906101000a900460ff16600581111561095b57fe5b905090565b6000600660009054906101000a900460ff166109c7576040517f08c379a00000000000000000000000000000000000000000000000000000000081526004018080602001828103825260298152602001806112f66029913960400191505060405180910390fd5b600260009054906101000a900473ffffffffffffffffffffffffffffffffffffffff1673ffffffffffffffffffffffffffffffffffffffff16610a086112a2565b73ffffffffffffffffffffffffffffffffffffffff1614610a74576040517f08c379a00000000000000000000000000000000000000000000000000000000081526004018080602001828103825260258152602001806112d16025913960400191505060405180910390fd5b6005547f48494e543200000000000000000000000000000000000000000000000000000017905090565b610aa66112a2565b73ffffffffffffffffffffffffffffffffffffffff166000809054906101000a900473ffffffffffffffffffffffffffffffffffffffff1673ffffffffffffffffffffffffffffffffffffffff1614610b67576040517f08c379a00000000000000000000000000000000000000000000000000000000081526004018080602001828103825260208152602001807f4f776e61626c653a2063616c6c6572206973206e6f7420746865206f776e657281525060200191505060405180910390fd5b600073ffffffffffffffffffffffffffffffffffffffff166000809054906101000a900473ffffffffffffffffffffffffffffffffffffffff1673ffffffffffffffffffffffffffffffffffffffff167f8be0079c531659141344cd1fd0a4f28419497f9722a3daafe3b4186f6b6457e060405160405180910390a360008060006101000a81548173ffffffffffffffffffffffffffffffffffffffff021916908373ffffffffffffffffffffffffffffffffffffffff160217905550565b60026005811115610c3357fe5b600260149054906101000a900460ff166005811115610c4e57fe5b14610ca4576040517f08c379a000000000000000000000000000000000000000000000000000000000815260040180806020018281038252602d815260200180611351602d913960400191505060405180910390fd5b6000610cae6112a2565b9050600360009054906101000a900473ffffffffffffffffffffffffffffffffffffffff1673ffffffffffffffffffffffffffffffffffffffff168173ffffffffffffffffffffffffffffffffffffffff1663893d20e86040518163ffffffff1660e01b815260040160206040518083038186803b158015610d2f57600080fd5b505afa158015610d43573d6000803e3d6000fd5b505050506040513d6020811015610d5957600080fd5b810190808051906020019092919050505073ffffffffffffffffffffffffffffffffffffffff1614610dd6576040517f08c379a000000000000000000000000000000000000000000000000000000000815260040180806020018281038252603281526020018061131f6032913960400191505060405180910390fd5b80600260006101000a81548173ffffffffffffffffffffffffffffffffffffffff021916908373ffffffffffffffffffffffffffffffffffffffff1602179055506001600660006101000a81548160ff02191690831515021790555050565b60008060009054906101000a900473ffffffffffffffffffffffffffffffffffffffff16905090565b600160009054906101000a900473ffffffffffffffffffffffffffffffffffffffff1681565b6000600660009054906101000a900460ff16610eeb576040517f08c379a00000000000000000000000000000000000000000000000000000000081526004018080602001828103825260298152602001806112f66029913960400191505060405180910390fd5b600260009054906101000a900473ffffffffffffffffffffffffffffffffffffffff1673ffffffffffffffffffffffffffffffffffffffff16610f2c6112a2565b73ffffffffffffffffffffffffffffffffffffffff1614610f98576040517f08c379a00000000000000000000000000000000000000000000000000000000081526004018080602001828103825260258152602001806112d16025913960400191505060405180910390fd5b6005547f48494e543100000000000000000000000000000000000000000000000000000017905090565b610fca6112a2565b73ffffffffffffffffffffffffffffffffffffffff166000809054906101000a900473ffffffffffffffffffffffffffffffffffffffff1673ffffffffffffffffffffffffffffffffffffffff161461108b576040517f08c379a00000000000000000000000000000000000000000000000000000000081526004018080602001828103825260208152602001807f4f776e61626c653a2063616c6c6572206973206e6f7420746865206f776e657281525060200191505060405180910390fd5b600073ffffffffffffffffffffffffffffffffffffffff168173ffffffffffffffffffffffffffffffffffffffff161415611111576040517f08c379a00000000000000000000000000000000000000000000000000000000081526004018080602001828103825260268152602001806112ab6026913960400191505060405180910390fd5b8073ffffffffffffffffffffffffffffffffffffffff166000809054906101000a900473ffffffffffffffffffffffffffffffffffffffff1673ffffffffffffffffffffffffffffffffffffffff167f8be0079c531659141344cd1fd0a4f28419497f9722a3daafe3b4186f6b6457e060405160405180910390a3806000806101000a81548173ffffffffffffffffffffffffffffffffffffffff021916908373ffffffffffffffffffffffffffffffffffffffff16021790555050565b60006111d96112a2565b73ffffffffffffffffffffffffffffffffffffffff166000809054906101000a900473ffffffffffffffffffffffffffffffffffffffff1673ffffffffffffffffffffffffffffffffffffffff161461129a576040517f08c379a00000000000000000000000000000000000000000000000000000000081526004018080602001828103825260208152602001807f4f776e61626c653a2063616c6c6572206973206e6f7420746865206f776e657281525060200191505060405180910390fd5b600554905090565b60003390509056fe4f776e61626c653a206e6577206f776e657220697320746865207a65726f206164647265737353747564656e744170706c69636174696f6e3a2061726520796f75206368656174696e673f53747564656e744170706c69636174696f6e3a20616e73776572206e6f74207265676973746572656453747564656e744170706c69636174696f6e3a2073747564656e74206973206e6f74206f776e6572206f6620616e7377657253747564656e744170706c69636174696f6e3a206170706c69636174696f6e206973206e6f742061637469766553747564656e744170706c69636174696f6e3a20636f756c64206e6f74207472616e736665722044414953747564656e744170706c69636174696f6e3a2072656164207065726d697373696f6e2064656e69656453747564656e744170706c69636174696f6e3a206170706c69636174696f6e206973206e6f7420646f726d616e74a2646970667358221220a090d4c3ef44e1cff2f234243b47545f3c29187c9341c5b428642ad97b4cdf3464736f6c634300060600334f776e61626c653a206e6577206f776e657220697320746865207a65726f2061646472657373436c617373726f6f6d3a2073747564656e7420646f65736e2774206861766520656e6f7567682073636f7265436c617373726f6f6d3a2073747564656e7473206c697374206e6f7420656d707479436c617373726f6f6d3a206170706c69636174696f6e7320617265207374696c6c206f70656e436c617373726f6f6d3a206170706c69636174696f6e732061726520616c726561647920636c6f736564436c617373726f6f6d3a2073747564656e74206973206e6f742072656769737465726564436c617373726f6f6d3a206170706c69636174696f6e732061726520616c7265616479206f70656e6564a2646970667358221220733bcf089d2f3dc7b0b213bb4d2339ec35d7b2b8340462e3a77ee5aa058e03ed64736f6c63430006060033",
  "immutableReferences": {},
  "source": "pragma solidity 0.6.6;\r\n\r\nimport \"@openzeppelin/contracts/math/SafeMath.sol\";\r\nimport \"@openzeppelin/contracts/access/AccessControl.sol\";\r\nimport \"@openzeppelin/contracts/access/Ownable.sol\";\r\nimport \"@openzeppelin/contracts/token/ERC20/IERC20.sol\";\r\nimport \"@openzeppelin/contracts/token/ERC20/IERC20.sol\";\r\nimport \"@openzeppelin/contracts/utils/Address.sol\";\r\nimport \"./University.sol\";\r\nimport \"./Student.sol\";\r\nimport \"./StudentApplication.sol\";\r\n\r\ncontract Classroom is Ownable {\r\n    using SafeMath for uint256;\r\n\r\n    bytes32 _name;\r\n    University _university;\r\n    bool _openForApplication;\r\n    StudentApplication[] _studentApplications;\r\n    StudentApplication[] _validStudentApplications;\r\n    mapping(address => address) _studentApplicationsLink;\r\n\r\n    //Classroom parameters\r\n    int32 _minScore;\r\n    uint _entryPrice;\r\n    bytes32 _seed;\r\n\r\n    IERC20 public daiToken;\r\n    CERC20 public cToken;\r\n\r\n    bool public classroomActive;\r\n\r\n    constructor(bytes32 name, address universityAddress) public {\r\n        _name = name;\r\n        _university = University(universityAddress);\r\n        _openForApplication = false;\r\n        _minScore = 0;\r\n        classroomActive = false;\r\n        //Kovan address\r\n        daiToken = IERC20(0x4F96Fe3b7A6Cf9725f59d353F723c1bDb64CA6Aa);\r\n        _seed = generateSeed();\r\n    }\r\n\r\n    function name() public view returns (bytes32) {\r\n        return _name;\r\n    }\r\n\r\n    function changeName(bytes32 val) public onlyOwner {\r\n        _name = val;\r\n    }\r\n\r\n    function minScore() public view returns (int32) {\r\n        return _minScore;\r\n    }\r\n\r\n    function setMinScore(int32 val) public onlyOwner {\r\n        _minScore = val;\r\n    }\r\n\r\n    function entryPrice() public view returns (uint) {\r\n        return _entryPrice;\r\n    }\r\n\r\n    function setEntryPrice(uint val) public onlyOwner {\r\n        _entryPrice = val;\r\n    }\r\n\r\n    function applicationsState() public view returns (bool) {\r\n        return _openForApplication;\r\n    }\r\n\r\n    function generateSeed() internal pure returns (bytes32) {\r\n        //TODO:\r\n        return \"RANDOM\";\r\n    }\r\n\r\n    function viewSeed() public view onlyOwner returns (bytes32) {\r\n        return _seed;\r\n    }\r\n\r\n    function openApplications() public onlyOwner {\r\n        require(!_openForApplication, \"Classroom: applications are already opened\");\r\n        require(_studentApplications.length == 0, \"Classroom: students list not empty\");\r\n        _openForApplication = true;\r\n    }\r\n\r\n    function closeApplications() public onlyOwner {\r\n        require(_openForApplication, \"Classroom: applications are already closed\");\r\n        _openForApplication = false;\r\n        applyDAI();\r\n    }\r\n\r\n    function studentApply() public{\r\n        require(_university.studentIsRegistered(_msgSender()), \"Classroom: student is not registered\");\r\n        require(_openForApplication, \"Classroom: applications closed\");\r\n        Student applicant = Student(_msgSender());\r\n        require(applicant.score() >= _minScore, \"Classroom: student doesn't have enough score\");\r\n        StudentApplication application = _createStudentApplication(applicant);\r\n        _studentApplications.push(application);\r\n    }\r\n\r\n    function _createStudentApplication(Student student) internal returns (StudentApplication) {\r\n        //TODO: fetch contract from external factory to reduce size\r\n        StudentApplication newApplication = new StudentApplication(address(student), address(this), _seed);\r\n        _studentApplicationsLink[address(student)] = address(newApplication);\r\n        return newApplication;\r\n    }\r\n\r\n    function beginClass() public onlyOwner {\r\n        require(!_openForApplication, \"Classroom: applications are still open\");\r\n        checkApplications();\r\n        require(_validStudentApplications.length > 0, \"Classroom: no ready application\");\r\n        classroomActive = true;\r\n    }\r\n\r\n    function checkApplications() internal {\r\n        for (uint i = 0; i < _studentApplications.length ; i++) {\r\n            if (_studentApplications[i].applicationState() == 1) {\r\n                _studentApplications[i].activate();\r\n                _validStudentApplications.push(_studentApplications[i]);\r\n            }\r\n        }\r\n        _studentApplications = new StudentApplication[](0);\r\n    }\r\n\r\n    //public onlyOwner allow the professor to apply money before closing applications\r\n    function applyDAI() public onlyOwner {\r\n        uint balance = daiToken.balanceOf(address(this));\r\n        require(balance > 0, \"Classroom: no funds to apply\");\r\n        _name = \"PLACEHOLDER\";\r\n        //TODO:\r\n    }\r\n}",
  "sourcePath": "/mnt/e/Repositories/Uproot/contracts/Classroom.sol",
  "compiler": {
    "name": "solc",
    "version": "0.6.6+commit.6c089d02.Emscripten.clang"
  },
  "schemaVersion": "3.1.0",
  "updatedAt": "2020-05-01T19:38:00.621Z",
  "devdoc": {
    "methods": {
      "owner()": {
        "details": "Returns the address of the current owner."
      },
      "renounceOwnership()": {
        "details": "Leaves the contract without owner. It will not be possible to call `onlyOwner` functions anymore. Can only be called by the current owner.     * NOTE: Renouncing ownership will leave the contract without an owner, thereby removing any functionality that is only available to the owner."
      },
      "transferOwnership(address)": {
        "details": "Transfers ownership of the contract to a new account (`newOwner`). Can only be called by the current owner."
      }
    }
  },
  "userdoc": {
    "methods": {}
  }
}