{
  "contractName": "Classroom",
  "abi": [
    {
      "inputs": [
        {
          "internalType": "bytes32",
          "name": "_name",
          "type": "bytes32"
        },
        {
          "internalType": "uint24",
          "name": "_principalCut",
          "type": "uint24"
        },
        {
          "internalType": "uint24",
          "name": "_poolCut",
          "type": "uint24"
        },
        {
          "internalType": "int32",
          "name": "_minScore",
          "type": "int32"
        },
        {
          "internalType": "uint256",
          "name": "_entryPrice",
          "type": "uint256"
        },
        {
          "internalType": "uint256",
          "name": "_duration",
          "type": "uint256"
        },
        {
          "internalType": "address payable",
          "name": "universityAddress",
          "type": "address"
        },
        {
          "internalType": "address",
          "name": "challengeAddress",
          "type": "address"
        },
        {
          "internalType": "address",
          "name": "daiAddress",
          "type": "address"
        },
        {
          "internalType": "address",
          "name": "compoundAddress",
          "type": "address"
        },
        {
          "internalType": "address",
          "name": "studentApplicationFactoryAddress",
          "type": "address"
        }
      ],
      "stateMutability": "nonpayable",
      "type": "constructor"
    },
    {
      "anonymous": false,
      "inputs": [
        {
          "indexed": true,
          "internalType": "bytes32",
          "name": "id",
          "type": "bytes32"
        }
      ],
      "name": "ChainlinkCancelled",
      "type": "event"
    },
    {
      "anonymous": false,
      "inputs": [
        {
          "indexed": true,
          "internalType": "bytes32",
          "name": "id",
          "type": "bytes32"
        }
      ],
      "name": "ChainlinkFulfilled",
      "type": "event"
    },
    {
      "anonymous": false,
      "inputs": [
        {
          "indexed": true,
          "internalType": "bytes32",
          "name": "id",
          "type": "bytes32"
        }
      ],
      "name": "ChainlinkRequested",
      "type": "event"
    },
    {
      "anonymous": false,
      "inputs": [
        {
          "indexed": false,
          "internalType": "address",
          "name": "",
          "type": "address"
        }
      ],
      "name": "LogChangeChallenge",
      "type": "event"
    },
    {
      "anonymous": false,
      "inputs": [
        {
          "indexed": false,
          "internalType": "uint256",
          "name": "",
          "type": "uint256"
        }
      ],
      "name": "LogChangeDuration",
      "type": "event"
    },
    {
      "anonymous": false,
      "inputs": [
        {
          "indexed": false,
          "internalType": "uint256",
          "name": "",
          "type": "uint256"
        }
      ],
      "name": "LogChangeEntryPrice",
      "type": "event"
    },
    {
      "anonymous": false,
      "inputs": [
        {
          "indexed": false,
          "internalType": "int32",
          "name": "",
          "type": "int32"
        }
      ],
      "name": "LogChangeMinScore",
      "type": "event"
    },
    {
      "anonymous": false,
      "inputs": [
        {
          "indexed": false,
          "internalType": "bytes32",
          "name": "",
          "type": "bytes32"
        }
      ],
      "name": "LogChangeName",
      "type": "event"
    },
    {
      "anonymous": false,
      "inputs": [
        {
          "indexed": false,
          "internalType": "uint24",
          "name": "",
          "type": "uint24"
        }
      ],
      "name": "LogChangePoolCut",
      "type": "event"
    },
    {
      "anonymous": false,
      "inputs": [
        {
          "indexed": false,
          "internalType": "uint24",
          "name": "",
          "type": "uint24"
        }
      ],
      "name": "LogChangePrincipalCut",
      "type": "event"
    },
    {
      "anonymous": false,
      "inputs": [],
      "name": "LogCloseApplications",
      "type": "event"
    },
    {
      "anonymous": false,
      "inputs": [],
      "name": "LogCourseFinished",
      "type": "event"
    },
    {
      "anonymous": false,
      "inputs": [],
      "name": "LogOpenApplications",
      "type": "event"
    },
    {
      "anonymous": false,
      "inputs": [
        {
          "indexed": true,
          "internalType": "address",
          "name": "previousOwner",
          "type": "address"
        },
        {
          "indexed": true,
          "internalType": "address",
          "name": "newOwner",
          "type": "address"
        }
      ],
      "name": "OwnershipTransferred",
      "type": "event"
    },
    {
      "inputs": [],
      "name": "_challengeAddress",
      "outputs": [
        {
          "internalType": "address",
          "name": "",
          "type": "address"
        }
      ],
      "stateMutability": "view",
      "type": "function"
    },
    {
      "inputs": [],
      "name": "cToken",
      "outputs": [
        {
          "internalType": "contract CERC20",
          "name": "",
          "type": "address"
        }
      ],
      "stateMutability": "view",
      "type": "function"
    },
    {
      "inputs": [],
      "name": "classroomActive",
      "outputs": [
        {
          "internalType": "bool",
          "name": "",
          "type": "bool"
        }
      ],
      "stateMutability": "view",
      "type": "function"
    },
    {
      "inputs": [],
      "name": "courseFinished",
      "outputs": [
        {
          "internalType": "bool",
          "name": "",
          "type": "bool"
        }
      ],
      "stateMutability": "view",
      "type": "function"
    },
    {
      "inputs": [],
      "name": "daiToken",
      "outputs": [
        {
          "internalType": "contract IERC20",
          "name": "",
          "type": "address"
        }
      ],
      "stateMutability": "view",
      "type": "function"
    },
    {
      "inputs": [],
      "name": "duration",
      "outputs": [
        {
          "internalType": "uint256",
          "name": "",
          "type": "uint256"
        }
      ],
      "stateMutability": "view",
      "type": "function"
    },
    {
      "inputs": [],
      "name": "entryPrice",
      "outputs": [
        {
          "internalType": "uint256",
          "name": "",
          "type": "uint256"
        }
      ],
      "stateMutability": "view",
      "type": "function"
    },
    {
      "inputs": [],
      "name": "minScore",
      "outputs": [
        {
          "internalType": "int32",
          "name": "",
          "type": "int32"
        }
      ],
      "stateMutability": "view",
      "type": "function"
    },
    {
      "inputs": [],
      "name": "name",
      "outputs": [
        {
          "internalType": "bytes32",
          "name": "",
          "type": "bytes32"
        }
      ],
      "stateMutability": "view",
      "type": "function"
    },
    {
      "inputs": [],
      "name": "openForApplication",
      "outputs": [
        {
          "internalType": "bool",
          "name": "",
          "type": "bool"
        }
      ],
      "stateMutability": "view",
      "type": "function"
    },
    {
      "inputs": [],
      "name": "owner",
      "outputs": [
        {
          "internalType": "address",
          "name": "",
          "type": "address"
        }
      ],
      "stateMutability": "view",
      "type": "function"
    },
    {
      "inputs": [],
      "name": "poolCut",
      "outputs": [
        {
          "internalType": "uint24",
          "name": "",
          "type": "uint24"
        }
      ],
      "stateMutability": "view",
      "type": "function"
    },
    {
      "inputs": [],
      "name": "principalCut",
      "outputs": [
        {
          "internalType": "uint24",
          "name": "",
          "type": "uint24"
        }
      ],
      "stateMutability": "view",
      "type": "function"
    },
    {
      "inputs": [],
      "name": "renounceOwnership",
      "outputs": [],
      "stateMutability": "nonpayable",
      "type": "function"
    },
    {
      "inputs": [
        {
          "internalType": "address",
          "name": "newOwner",
          "type": "address"
        }
      ],
      "name": "transferOwnership",
      "outputs": [],
      "stateMutability": "nonpayable",
      "type": "function"
    },
    {
      "inputs": [],
      "name": "university",
      "outputs": [
        {
          "internalType": "contract IUniversity",
          "name": "",
          "type": "address"
        }
      ],
      "stateMutability": "view",
      "type": "function"
    },
    {
      "inputs": [
        {
          "internalType": "address",
          "name": "oracleRandom",
          "type": "address"
        },
        {
          "internalType": "bytes32",
          "name": "requestIdRandom",
          "type": "bytes32"
        },
        {
          "internalType": "uint256",
          "name": "oraclePaymentRandom",
          "type": "uint256"
        },
        {
          "internalType": "address",
          "name": "oracleTimestamp",
          "type": "address"
        },
        {
          "internalType": "bytes32",
          "name": "requestIdTimestamp",
          "type": "bytes32"
        },
        {
          "internalType": "uint256",
          "name": "oraclePaymentTimestamp",
          "type": "uint256"
        }
      ],
      "name": "configureOracles",
      "outputs": [],
      "stateMutability": "nonpayable",
      "type": "function"
    },
    {
      "inputs": [
        {
          "internalType": "address",
          "name": "newOwner",
          "type": "address"
        }
      ],
      "name": "transferOwnershipClassroom",
      "outputs": [],
      "stateMutability": "nonpayable",
      "type": "function"
    },
    {
      "inputs": [
        {
          "internalType": "bytes32",
          "name": "val",
          "type": "bytes32"
        }
      ],
      "name": "changeName",
      "outputs": [],
      "stateMutability": "nonpayable",
      "type": "function"
    },
    {
      "inputs": [
        {
          "internalType": "uint24",
          "name": "val",
          "type": "uint24"
        }
      ],
      "name": "changePrincipalCut",
      "outputs": [],
      "stateMutability": "nonpayable",
      "type": "function"
    },
    {
      "inputs": [
        {
          "internalType": "uint24",
          "name": "val",
          "type": "uint24"
        }
      ],
      "name": "changePoolCut",
      "outputs": [],
      "stateMutability": "nonpayable",
      "type": "function"
    },
    {
      "inputs": [
        {
          "internalType": "int32",
          "name": "val",
          "type": "int32"
        }
      ],
      "name": "changeMinScore",
      "outputs": [],
      "stateMutability": "nonpayable",
      "type": "function"
    },
    {
      "inputs": [
        {
          "internalType": "uint256",
          "name": "val",
          "type": "uint256"
        }
      ],
      "name": "changeEntryPrice",
      "outputs": [],
      "stateMutability": "nonpayable",
      "type": "function"
    },
    {
      "inputs": [
        {
          "internalType": "uint256",
          "name": "val",
          "type": "uint256"
        }
      ],
      "name": "changeDuration",
      "outputs": [],
      "stateMutability": "nonpayable",
      "type": "function"
    },
    {
      "inputs": [
        {
          "internalType": "address",
          "name": "addr",
          "type": "address"
        }
      ],
      "name": "changeChallenge",
      "outputs": [],
      "stateMutability": "nonpayable",
      "type": "function"
    },
    {
      "inputs": [],
      "name": "viewAllApplications",
      "outputs": [
        {
          "internalType": "address[]",
          "name": "",
          "type": "address[]"
        }
      ],
      "stateMutability": "view",
      "type": "function"
    },
    {
      "inputs": [],
      "name": "viewMyApplication",
      "outputs": [
        {
          "internalType": "address",
          "name": "",
          "type": "address"
        }
      ],
      "stateMutability": "view",
      "type": "function"
    },
    {
      "inputs": [
        {
          "internalType": "address",
          "name": "addr",
          "type": "address"
        }
      ],
      "name": "viewApplication",
      "outputs": [
        {
          "internalType": "address",
          "name": "",
          "type": "address"
        }
      ],
      "stateMutability": "view",
      "type": "function"
    },
    {
      "inputs": [],
      "name": "viewAllStudents",
      "outputs": [
        {
          "internalType": "address[]",
          "name": "",
          "type": "address[]"
        }
      ],
      "stateMutability": "view",
      "type": "function"
    },
    {
      "inputs": [],
      "name": "isClassroomEmpty",
      "outputs": [
        {
          "internalType": "bool",
          "name": "",
          "type": "bool"
        }
      ],
      "stateMutability": "view",
      "type": "function"
    },
    {
      "inputs": [],
      "name": "isCourseOngoing",
      "outputs": [
        {
          "internalType": "bool",
          "name": "",
          "type": "bool"
        }
      ],
      "stateMutability": "view",
      "type": "function"
    },
    {
      "inputs": [],
      "name": "openApplications",
      "outputs": [],
      "stateMutability": "nonpayable",
      "type": "function"
    },
    {
      "inputs": [],
      "name": "closeApplications",
      "outputs": [],
      "stateMutability": "nonpayable",
      "type": "function"
    },
    {
      "inputs": [],
      "name": "applyDAI",
      "outputs": [],
      "stateMutability": "nonpayable",
      "type": "function"
    },
    {
      "inputs": [],
      "name": "studentApply",
      "outputs": [],
      "stateMutability": "nonpayable",
      "type": "function"
    },
    {
      "inputs": [],
      "name": "beginCourse",
      "outputs": [],
      "stateMutability": "nonpayable",
      "type": "function"
    },
    {
      "inputs": [],
      "name": "finishCourse",
      "outputs": [],
      "stateMutability": "nonpayable",
      "type": "function"
    },
    {
      "inputs": [],
      "name": "processResults",
      "outputs": [],
      "stateMutability": "nonpayable",
      "type": "function"
    },
    {
      "inputs": [],
      "name": "withdrawAllResults",
      "outputs": [],
      "stateMutability": "nonpayable",
      "type": "function"
    },
    {
      "inputs": [
        {
          "internalType": "bytes32",
          "name": "_requestId",
          "type": "bytes32"
        },
        {
          "internalType": "uint256",
          "name": "data",
          "type": "uint256"
        }
      ],
      "name": "fulfillGenerateSeed",
      "outputs": [],
      "stateMutability": "nonpayable",
      "type": "function"
    },
    {
      "inputs": [
        {
          "internalType": "bytes32",
          "name": "_requestId",
          "type": "bytes32"
        }
      ],
      "name": "fulfillGetTimestamp",
      "outputs": [],
      "stateMutability": "nonpayable",
      "type": "function"
    }
  ],
  "bytecode": "0x608060405260016005553480156200001657600080fd5b506040516200444f3803806200444f83398181016040526101608110156200003d57600080fd5b508051602082015160408301516060840151608085015160a086015160c087015160e08801516101008901516101208a0151610140909a01519899979896979596949593949293919290919060006200009e6001600160e01b036200027916565b600080546001600160a01b0319166001600160a01b0383169081178255604051929350917f8be0079c531659141344cd1fd0a4f28419497f9722a3daafe3b4186f6b6457e0908290a3508a60108190555089601160006101000a81548162ffffff021916908362ffffff16021790555088601160036101000a81548162ffffff021916908362ffffff16021790555087601160066101000a81548163ffffffff021916908360030b63ffffffff160217905550866012819055508560138190555084600760006101000a8154816001600160a01b0302191690836001600160a01b0316021790555083601760006101000a8154816001600160a01b0302191690836001600160a01b031602179055506000600760146101000a81548160ff0219169083151502179055506000600760166101000a81548160ff02191690831515021790555082601460006101000a8154816001600160a01b0302191690836001600160a01b0316021790555081601560006101000a8154816001600160a01b0302191690836001600160a01b0316021790555080601660006101000a8154816001600160a01b0302191690836001600160a01b03160217905550620002686200027d60201b60201c565b505050505050505050505062000718565b3390565b62000287620006c7565b601954620002a7903063100b510360e11b6001600160e01b03620002d616565b601854601a54919250620002d2916001600160a01b039091169083906001600160e01b036200031116565b5050565b620002e0620006c7565b620002ea620006c7565b6200030885858584620004fb60201b620034b317909392919060201c565b95945050505050565b6005546040805130606090811b60208084019190915260348084018690528451808503909101815260549093018452825192810192909220908601939093526000838152600690915281812080546001600160a01b0319166001600160a01b038816179055905182917fb5e6e01e79f91267dc17b4e6314d5d4d03593d2ceee0fbb452b750bd70ea5af991a26003546001600160a01b0316634000aea08584620003c4876001600160e01b036200054716565b6040518463ffffffff1660e01b815260040180846001600160a01b03166001600160a01b0316815260200183815260200180602001828103825283818151815260200191508051906020019080838360005b838110156200043057818101518382015260200162000416565b50505050905090810190601f1680156200045e5780820380516001836020036101000a031916815260200191505b50945050505050602060405180830381600087803b1580156200048057600080fd5b505af115801562000495573d6000803e3d6000fd5b505050506040513d6020811015620004ac57600080fd5b5051620004eb5760405162461bcd60e51b81526004018080602001828103825260238152602001806200442c6023913960400191505060405180910390fd5b6005805460010190559392505050565b62000505620006c7565b6200052285608001516101006200068a60201b620036591760201c565b50509183526001600160a01b031660208301526001600160e01b031916604082015290565b6060634042994660e01b6000808460000151856020015186604001518760600151600189608001516000015160405160240180896001600160a01b03166001600160a01b03168152602001888152602001878152602001866001600160a01b03166001600160a01b03168152602001856001600160e01b0319166001600160e01b031916815260200184815260200183815260200180602001828103825283818151815260200191508051906020019080838360005b8381101562000617578181015183820152602001620005fd565b50505050905090810190601f168015620006455780820380516001836020036101000a031916815260200191505b5060408051601f198184030181529190526020810180516001600160e01b03166001600160e01b0319909d169c909c17909b5250989950505050505050505050919050565b62000694620006fe565b6020820615620006aa5760208206602003820191505b506020828101829052604080518085526000815290920101905290565b6040805160a081018252600080825260208201819052918101829052606081019190915260808101620006f9620006fe565b905290565b604051806040016040528060608152602001600081525090565b613d0480620007286000396000f3fe608060405234801561001057600080fd5b50600436106102d35760003560e01c806376eada9111610186578063adf45ef2116100e3578063dfd78adc11610097578063f745adfc11610071578063f745adfc146105eb578063f87c5cb1146105f3578063fe7da9e91461063b576102d3565b8063dfd78adc1461059b578063e804f164146105a3578063f2fde38b146105c5576102d3565b8063b594f086116100c8578063b594f0861461056e578063bbe3b9261461058b578063be22f54614610593576102d3565b8063adf45ef21461055e578063ae12894e14610566576102d3565b80638da5cb5b1161013a578063a46268a81161011f578063a46268a814610546578063aa055a401461054e578063ada02e1914610556576102d3565b80638da5cb5b14610518578063a3f73c2d14610520576102d3565b80638155e9771161016b5780638155e977146104d15780638646bcec146104f3578063898855ed146104fb576102d3565b806376eada91146104a35780637c0260cb146104c9576102d3565b80633bcd97d411610234578063604d3943116101e857806369e7af43116101cd57806369e7af431461043b5780636e8055a714610493578063715018a61461049b576102d3565b8063604d39431461041357806369e527da14610433576102d3565b80634c5e7893116102195780634c5e7893146103e35780634ffb660c146103eb5780635aa33a2d1461040b576102d3565b80633bcd97d4146103d3578063431a16ef146103db576102d3565b806313c2bedc1161028b5780631b9dbc60116102705780631b9dbc60146103a05780632016a206146103a857806331960027146103cb576102d3565b806313c2bedc1461035957806318b9533b1461037a576102d3565b80630aab4569116102bc5780630aab4569146103165780630b78cb0e146103355780630fb5a6b414610351576102d3565b806306fdde03146102d857806309ea165d146102f2575b600080fd5b6102e0610658565b60408051918252519081900360200190f35b6102fa61065e565b604080516001600160a01b039092168252519081900360200190f35b6103336004803603602081101561032c57600080fd5b503561066d565b005b61033d610739565b604080519115158252519081900360200190f35b6102e0610749565b61036161074f565b60408051600392830b90920b8252519081900360200190f35b6103336004803603602081101561039057600080fd5b50356001600160a01b0316610762565b61033361076e565b610333600480360360408110156103be57600080fd5b5080359060200135610a14565b610333610ac7565b61033d610be5565b610333610c05565b610333610d5d565b6103336004803603602081101561040157600080fd5b503560030b610eca565b61033d610f92565b61041b610fa2565b6040805162ffffff9092168252519081900360200190f35b6102fa610fb4565b610443610fc3565b60408051602080825283518183015283519192839290830191858101910280838360005b8381101561047f578181015183820152602001610467565b505050509050019250505060405180910390f35b6102fa61107d565b610333611094565b6102fa600480360360208110156104b957600080fd5b50356001600160a01b0316611136565b6103336111d8565b610333600480360360208110156104e757600080fd5b503562ffffff166112b0565b61041b61135a565b6103336004803603602081101561051157600080fd5b5035611365565b6102fa6113f8565b6103336004803603602081101561053657600080fd5b50356001600160a01b0316611407565b61033d6114fc565b61033361150c565b6103336116c2565b61033d6118d3565b6102fa6118db565b6103336004803603602081101561058457600080fd5b50356118ea565b61033361197d565b6102fa611b81565b610443611b90565b610333600480360360208110156105b957600080fd5b503562ffffff16611c48565b610333600480360360208110156105db57600080fd5b50356001600160a01b0316611d00565b6102e0611df8565b610333600480360360c081101561060957600080fd5b506001600160a01b03813581169160208101359160408201359160608101359091169060808101359060a00135611dfe565b6103336004803603602081101561065157600080fd5b5035611e99565b60105481565b6017546001600160a01b031681565b60008181526006602052604090205481906001600160a01b031633146106c45760405162461bcd60e51b8152600401808060200182810382526028815260200180613ca76028913960400191505060405180910390fd5b60008181526006602052604080822080546001600160a01b03191690555182917f7cc135e0cebb02c3480ae5d74d377283180a2601f8f644edf7987b009316c63a91a25050600780547fffffffffffffffff00ffffffffffffffffffffffffffffffffffffffffffffff16600160b81b179055565b600754600160a01b900460ff1681565b60135481565b6011546601000000000000900460030b81565b61076b81611d00565b50565b6107766113f8565b6001600160a01b0316610787611f2c565b6001600160a01b031614156107cd5760405162461bcd60e51b815260040180806020018281038252602d815260200180613b4d602d913960400191505060405180910390fd5b6007546001600160a01b03166316ded1ce6107e6611f2c565b6040518263ffffffff1660e01b815260040180826001600160a01b03166001600160a01b0316815260200191505060206040518083038186803b15801561082c57600080fd5b505afa158015610840573d6000803e3d6000fd5b505050506040513d602081101561085657600080fd5b50516108935760405162461bcd60e51b8152600401808060200182810382526024815260200180613c596024913960400191505060405180910390fd5b600754600160a01b900460ff166108f1576040805162461bcd60e51b815260206004820152601e60248201527f436c617373726f6f6d3a206170706c69636174696f6e7320636c6f7365640000604482015290519081900360640190fd5b60006108fb611f2c565b9050601160069054906101000a900460030b60030b816001600160a01b031663efedc6696040518163ffffffff1660e01b815260040160206040518083038186803b15801561094957600080fd5b505afa15801561095d573d6000803e3d6000fd5b505050506040513d602081101561097357600080fd5b505160030b12156109b55760405162461bcd60e51b815260040180806020018281038252602c815260200180613a72602c913960400191505060405180910390fd5b60006109c082611f30565b600880546001810182556000919091527ff3f7a9fe364faab93b216da50a3214154f22a0a2b415b23a84c8169e8b636ee30180546001600160a01b0319166001600160a01b03929092169190911790555050565b60008281526006602052604090205482906001600160a01b03163314610a6b5760405162461bcd60e51b8152600401808060200182810382526028815260200180613ca76028913960400191505060405180910390fd5b60008181526006602052604080822080546001600160a01b03191690555182917f7cc135e0cebb02c3480ae5d74d377283180a2601f8f644edf7987b009316c63a91a2610ab78261212f565b8051602090910120600f55505050565b610acf611f2c565b6000546001600160a01b03908116911614610b1f576040805162461bcd60e51b81526020600482018190526024820152600080516020613be5833981519152604482015290519081900360640190fd5b600754600160a01b900460ff1615610b685760405162461bcd60e51b815260040180806020018281038252602a815260200180613c7d602a913960400191505060405180910390fd5b60085415610ba75760405162461bcd60e51b8152600401808060200182810382526022815260200180613b2b6022913960400191505060405180910390fd5b6007805460ff60a01b1916600160a01b1790556040517fa5d188159e8a15dc503f9fde55e9da14c8b2ca589603e2567481c0ef90b7972090600090a1565b600954600854600091610bfe919063ffffffff61215916565b1590505b90565b610c0d611f2c565b6000546001600160a01b03908116911614610c5d576040805162461bcd60e51b81526020600482018190526024820152600080516020613be5833981519152604482015290519081900360640190fd5b600754600160b81b900460ff16610ca55760405162461bcd60e51b8152600401808060200182810382526024815260200180613b9b6024913960400191505060405180910390fd5b600954610cf9576040805162461bcd60e51b815260206004820152601a60248201527f436c617373726f6f6d3a206e6f206170706c69636174696f6e73000000000000604482015290519081900360640190fd5b610d016121bc565b600e55600780547fffffffffffffffffffff00ffffffffffffffffffffffffffffffffffffffffff16600160a81b1790556040517fadfcc9bbc47b33710f82544eeff8bd0f98c6f78f190e915bd81f4a9dacfdc77790600090a1565b610d65611f2c565b6000546001600160a01b03908116911614610db5576040805162461bcd60e51b81526020600482018190526024820152600080516020613be5833981519152604482015290519081900360640190fd5b6014546001600160a01b03166323b872dd30610dcf6113f8565b601454604080516370a0823160e01b815230600482015290516001600160a01b03909216916370a0823191602480820192602092909190829003018186803b158015610e1a57600080fd5b505afa158015610e2e573d6000803e3d6000fd5b505050506040513d6020811015610e4457600080fd5b5051604080516001600160e01b031960e087901b1681526001600160a01b0394851660048201529290931660248301526044820152905160648083019260209291908290030181600087803b158015610e9c57600080fd5b505af1158015610eb0573d6000803e3d6000fd5b505050506040513d6020811015610ec657600080fd5b5050565b610ed2611f2c565b6000546001600160a01b03908116911614610f22576040805162461bcd60e51b81526020600482018190526024820152600080516020613be5833981519152604482015290519081900360640190fd5b60118054600383810b63ffffffff16660100000000000090810269ffffffff0000000000001990931692909217928390556040805192909304810b810b900b815290517f258981eaba02423980e2973ff2ae3bbbba3cc807a5b73faf8f0b068dd7b2af649181900360200190a150565b600754600160a81b900460ff1681565b6011546301000000900462ffffff1681565b6015546001600160a01b031681565b6060610fcd611f2c565b6000546001600160a01b0390811691161461101d576040805162461bcd60e51b81526020600482018190526024820152600080516020613be5833981519152604482015290519081900360640190fd5b600b80548060200260200160405190810160405280929190818152602001828054801561107357602002820191906000526020600020905b81546001600160a01b03168152600190910190602001808311611055575b5050505050905090565b600061108f61108a611f2c565b611136565b905090565b61109c611f2c565b6000546001600160a01b039081169116146110ec576040805162461bcd60e51b81526020600482018190526024820152600080516020613be5833981519152604482015290519081900360640190fd5b600080546040516001600160a01b03909116907f8be0079c531659141344cd1fd0a4f28419497f9722a3daafe3b4186f6b6457e0908390a3600080546001600160a01b0319169055565b6000611140611f2c565b6001600160a01b0316826001600160a01b0316148061117e57506111626113f8565b6001600160a01b0316611173611f2c565b6001600160a01b0316145b6111b95760405162461bcd60e51b8152600401808060200182810382526021815260200180613b0a6021913960400191505060405180910390fd5b506001600160a01b039081166000908152600a60205260409020541690565b6111e0611f2c565b6000546001600160a01b03908116911614611230576040805162461bcd60e51b81526020600482018190526024820152600080516020613be5833981519152604482015290519081900360640190fd5b600754600160a01b900460ff166112785760405162461bcd60e51b815260040180806020018281038252602a815260200180613c2f602a913960400191505060405180910390fd5b6007805460ff60a01b191690556040517f747a4734f50e3ae237b3afeeac30a2d2c7cb965cc122fb9680050fd533b7c0f590600090a1565b6112b8611f2c565b6000546001600160a01b03908116911614611308576040805162461bcd60e51b81526020600482018190526024820152600080516020613be5833981519152604482015290519081900360640190fd5b6011805462ffffff191662ffffff838116919091179182905560408051929091168252517fa24cdd22388a51f932026d20d3229c1d693385bb9ac176742e0e40b4586c2447916020908290030190a150565b60115462ffffff1681565b61136d611f2c565b6000546001600160a01b039081169116146113bd576040805162461bcd60e51b81526020600482018190526024820152600080516020613be5833981519152604482015290519081900360640190fd5b60108190556040805182815290517f9f8929be552430dd6434c446d106c34954b2040ca8c4dbf42a39323dd6cda3ca9181900360200190a150565b6000546001600160a01b031690565b61140f611f2c565b6000546001600160a01b0390811691161461145f576040805162461bcd60e51b81526020600482018190526024820152600080516020613be5833981519152604482015290519081900360640190fd5b611467610be5565b6114a25760405162461bcd60e51b8152600401808060200182810382526025815260200180613a9e6025913960400191505060405180910390fd5b601780546001600160a01b0319166001600160a01b03838116919091179182905560408051929091168252517fdc58b28697ffd1bd5879b16631587874caec982b482d7ed05df69a5302f6e018916020908290030190a150565b600754600160b01b900460ff1681565b611514611f2c565b6000546001600160a01b03908116911614611564576040805162461bcd60e51b81526020600482018190526024820152600080516020613be5833981519152604482015290519081900360640190fd5b600754600160a81b900460ff166115c2576040805162461bcd60e51b815260206004820152601e60248201527f436c617373726f6f6d3a20636f75727365206e6f742066696e69736865640000604482015290519081900360640190fd5b601454604080516370a0823160e01b815230600482015290516001600160a01b03909216916370a0823191602480820192602092909190829003018186803b15801561160d57600080fd5b505afa158015611621573d6000803e3d6000fd5b505050506040513d602081101561163757600080fd5b5051600e5411156116795760405162461bcd60e51b8152600401808060200182810382526024815260200180613ae66024913960400191505060405180910390fd5b6000806116846122ee565b9150915060006060611696848461243e565b915091506116a38161287e565b6116ac82612981565b6116b46129f3565b6116bc612da7565b50505050565b6116ca611f2c565b6000546001600160a01b0390811691161461171a576040805162461bcd60e51b81526020600482018190526024820152600080516020613be5833981519152604482015290519081900360640190fd5b601454604080516370a0823160e01b815230600482015290516000926001600160a01b0316916370a08231916024808301926020929190829003018186803b15801561176557600080fd5b505afa158015611779573d6000803e3d6000fd5b505050506040513d602081101561178f57600080fd5b505190508061179e57506118d1565b601454601554604080517f095ea7b30000000000000000000000000000000000000000000000000000000081526001600160a01b039283166004820152602481018590529051919092169163095ea7b39160448083019260209291908290030181600087803b15801561181057600080fd5b505af1158015611824573d6000803e3d6000fd5b505050506040513d602081101561183a57600080fd5b5050601554604080517fa0712d680000000000000000000000000000000000000000000000000000000081526004810184905290516001600160a01b039092169163a0712d68916024808201926020929091908290030181600087803b1580156118a357600080fd5b505af11580156118b7573d6000803e3d6000fd5b505050506040513d60208110156118cd57600080fd5b5050505b565b600954151590565b6007546001600160a01b031681565b6118f2611f2c565b6000546001600160a01b03908116911614611942576040805162461bcd60e51b81526020600482018190526024820152600080516020613be5833981519152604482015290519081900360640190fd5b60138190556040805182815290517fa67f34afb53d068e81607cde52dc74c58cbf6a05eac699e5543b97d25e3ca5cb9181900360200190a150565b611985611f2c565b6000546001600160a01b039081169116146119d5576040805162461bcd60e51b81526020600482018190526024820152600080516020613be5833981519152604482015290519081900360640190fd5b600754600160a01b900460ff1615611a1e5760405162461bcd60e51b8152600401808060200182810382526026815260200180613bbf6026913960400191505060405180910390fd5b601454604080516370a0823160e01b815230600482015290516001600160a01b03909216916370a0823191602480820192602092909190829003018186803b158015611a6957600080fd5b505afa158015611a7d573d6000803e3d6000fd5b505050506040513d6020811015611a9357600080fd5b505115611ad15760405162461bcd60e51b815260040180806020018281038252602a815260200180613c05602a913960400191505060405180910390fd5b611ad9612e02565b6040805160008152602081019182905251611af691600891613973565b50600954611b4b576040805162461bcd60e51b815260206004820152601f60248201527f436c617373726f6f6d3a206e6f207265616479206170706c69636174696f6e00604482015290519081900360640190fd5b600780547fffffffffffffffffff00ffffffffffffffffffffffffffffffffffffffffffff16600160b01b1790556118d1612ffd565b6014546001600160a01b031681565b6060611b9a611f2c565b6000546001600160a01b03908116911614611bea576040805162461bcd60e51b81526020600482018190526024820152600080516020613be5833981519152604482015290519081900360640190fd5b600c805480602002602001604051908101604052809291908181526020018280548015611073576020028201919060005260206000209081546001600160a01b03168152600190910190602001808311611055575050505050905090565b611c50611f2c565b6000546001600160a01b03908116911614611ca0576040805162461bcd60e51b81526020600482018190526024820152600080516020613be5833981519152604482015290519081900360640190fd5b6011805462ffffff808416630100000090810265ffffff000000199093169290921792839055604080519290930416815290517f9d9f9ef51b12eb719684b7a2e09fc2f7e916cb0e229aecf5658ce6326dfeb1c59181900360200190a150565b611d08611f2c565b6000546001600160a01b03908116911614611d58576040805162461bcd60e51b81526020600482018190526024820152600080516020613be5833981519152604482015290519081900360640190fd5b6001600160a01b038116611d9d5760405162461bcd60e51b8152600401808060200182810382526026815260200180613a4c6026913960400191505060405180910390fd5b600080546040516001600160a01b03808516939216917f8be0079c531659141344cd1fd0a4f28419497f9722a3daafe3b4186f6b6457e091a3600080546001600160a01b0319166001600160a01b0392909216919091179055565b60125481565b611e06611f2c565b6000546001600160a01b03908116911614611e56576040805162461bcd60e51b81526020600482018190526024820152600080516020613be5833981519152604482015290519081900360640190fd5b601880546001600160a01b039788166001600160a01b031991821617909155601995909555601a93909355601b8054929095169190931617909255601c55601d55565b611ea1611f2c565b6000546001600160a01b03908116911614611ef1576040805162461bcd60e51b81526020600482018190526024820152600080516020613be5833981519152604482015290519081900360640190fd5b60128190556040805182815290517f84e881bf3fcef92f709a2a62150da178a998fbff128c017f3e846787a2f7f5f59181900360200190a150565b3390565b60165460145460175460009283926001600160a01b039182169263268e5d1d92879230929082169116611f6161309e565b604080516001600160e01b031960e089901b1681526001600160a01b03968716600482015294861660248601529285166044850152931660648301526084820192909252905160a48083019260209291908290030181600087803b158015611fc857600080fd5b505af1158015611fdc573d6000803e3d6000fd5b505050506040513d6020811015611ff257600080fd5b50516001600160a01b038481166000818152600a602052604080822080546001600160a01b03191685871690811790915560075482517f183b26000000000000000000000000000000000000000000000000000000000081526004810195909552602485019190915290519495509092169263183b26009260448084019391929182900301818387803b15801561208857600080fd5b505af115801561209c573d6000803e3d6000fd5b5050600b805460018181019092557f0175b7a638427703f0dbe7bb9bbf987a2551717b34e79f33b5b1008d1fa01db90180546001600160a01b038089166001600160a01b031992831617909255600c805493840181556000527fdf6966c971051c3d54ec59162606531493a51404a002842f56009d7e5cf4a8c79092018054918616919092161790555090915050919050565b60408051602080825281830190925260609160208201818036833750505060208101929092525090565b6000828201838110156121b3576040805162461bcd60e51b815260206004820152601b60248201527f536166654d6174683a206164646974696f6e206f766572666c6f770000000000604482015290519081900360640190fd5b90505b92915050565b601554604080517f3af9e669000000000000000000000000000000000000000000000000000000008152306004820152905160009283926001600160a01b0390911691633af9e6699160248082019260209290919082900301818787803b15801561222657600080fd5b505af115801561223a573d6000803e3d6000fd5b505050506040513d602081101561225057600080fd5b5051601554604080517f852a12e30000000000000000000000000000000000000000000000000000000081526004810184905290519293506001600160a01b039091169163852a12e3916024808201926020929091908290030181600087803b1580156122bc57600080fd5b505af11580156122d0573d6000803e3d6000fd5b505050506040513d60208110156122e657600080fd5b509091505090565b6000808080805b600954811015612434576009818154811061230c57fe5b6000918252602082200154604080517f289cf0d200000000000000000000000000000000000000000000000000000000815290516001600160a01b039092169263289cf0d29260048084019382900301818387803b15801561236d57600080fd5b505af1158015612381573d6000803e3d6000fd5b5050505060006009828154811061239457fe5b60009182526020918290200154604080516332c3db0f60e11b815290516001600160a01b0390921692636587b61e92600480840193829003018186803b1580156123dd57600080fd5b505afa1580156123f1573d6000803e3d6000fd5b505050506040513d602081101561240757600080fd5b50519050600381141561241b576001909301925b806005141561242b576001909201915b506001016122f5565b5090925090509091565b600954601254600091606091839061246f90612460908463ffffffff6130a816565b600e549063ffffffff61310116565b6011546012549192506000916124a491620f4240916124989162ffffff1663ffffffff6130a816565b9063ffffffff61315e16565b905060006124bd8260125461310190919063ffffffff16565b905060006124d585612498868c63ffffffff6130a816565b6011549091506000906124fe90620f4240906124989085906301000000900462ffffff166130a8565b905060006125168b612498888563ffffffff61310116565b905060608767ffffffffffffffff8111801561253157600080fd5b5060405190808252806020026020018201604052801561255b578160200160208202803683370190505b50905060005b888110156127cb5760006009828154811061257857fe5b60009182526020918290200154604080516332c3db0f60e11b815290516001600160a01b0390921692636587b61e92600480840193829003018186803b1580156125c157600080fd5b505afa1580156125d5573d6000803e3d6000fd5b505050506040513d60208110156125eb57600080fd5b50519050600381141561269f576009828154811061260557fe5b600091825260208220015460408051637db9abaf60e01b8152600481018b90526024810188905290516001600160a01b0390921692637db9abaf9260448084019382900301818387803b15801561265b57600080fd5b505af115801561266f573d6000803e3d6000fd5b50505050612686848861215990919063ffffffff16565b83838151811061269257fe5b6020026020010181815250505b806004141561273d57600982815481106126b557fe5b600091825260208220015460408051637db9abaf60e01b8152600481018b90526024810184905290516001600160a01b0390921692637db9abaf9260448084019382900301818387803b15801561270b57600080fd5b505af115801561271f573d6000803e3d6000fd5b505050508683838151811061273057fe5b6020026020010181815250505b80600514156127c2576009828154811061275357fe5b600091825260208220015460408051637db9abaf60e01b8152600481018490526024810184905290516001600160a01b0390921692637db9abaf9260448084019382900301818387803b1580156127a957600080fd5b505af11580156127bd573d6000803e3d6000fd5b505050505b50600101612561565b50600754604080517fe6fd604c00000000000000000000000000000000000000000000000000000000815290516000926001600160a01b03169163e6fd604c916004808301926020929190829003018186803b15801561282a57600080fd5b505afa15801561283e573d6000803e3d6000fd5b505050506040513d602081101561285457600080fd5b505160125490915061286b908d9086848d8c6131c8565b9d919c50909a5050505050505050505050565b60005b600954811015610ec657600082828151811061289957fe5b6020026020010151111561297957601454600980546001600160a01b039092169163095ea7b39190849081106128cb57fe5b9060005260206000200160009054906101000a90046001600160a01b03168484815181106128f557fe5b60200260200101516040518363ffffffff1660e01b815260040180836001600160a01b03166001600160a01b0316815260200182815260200192505050602060405180830381600087803b15801561294c57600080fd5b505af1158015612960573d6000803e3d6000fd5b505050506040513d602081101561297657600080fd5b50505b600101612881565b601454600754604080517fa9059cbb0000000000000000000000000000000000000000000000000000000081526001600160a01b039283166004820152602481018590529051919092169163a9059cbb9160448083019260209291908290030181600087803b1580156118a357600080fd5b60005b60095481101561076b57600060098281548110612a0f57fe5b60009182526020918290200154604080516332c3db0f60e11b815290516001600160a01b0390921692636587b61e92600480840193829003018186803b158015612a5857600080fd5b505afa158015612a6c573d6000803e3d6000fd5b505050506040513d6020811015612a8257600080fd5b505190506003811415612b8e57600754600980546001600160a01b03909216916387bfe188919085908110612ab357fe5b600091825260209182902001546040805163b8f31a8160e01b815290516001600160a01b039092169263b8f31a8192600480840193829003018186803b158015612afc57600080fd5b505afa158015612b10573d6000803e3d6000fd5b505050506040513d6020811015612b2657600080fd5b5051604080516001600160e01b031960e085901b1681526001600160a01b0390921660048301526001602483015251604480830192600092919082900301818387803b158015612b7557600080fd5b505af1158015612b89573d6000803e3d6000fd5b505050505b8060041415612c9657600754600980546001600160a01b039092169163ff5d8f63919085908110612bbb57fe5b600091825260209182902001546040805163b8f31a8160e01b815290516001600160a01b039092169263b8f31a8192600480840193829003018186803b158015612c0457600080fd5b505afa158015612c18573d6000803e3d6000fd5b505050506040513d6020811015612c2e57600080fd5b5051604080516001600160e01b031960e085901b1681526001600160a01b0390921660048301526001602483015251604480830192600092919082900301818387803b158015612c7d57600080fd5b505af1158015612c91573d6000803e3d6000fd5b505050505b8060051415612d9e57600754600980546001600160a01b039092169163ff5d8f63919085908110612cc357fe5b600091825260209182902001546040805163b8f31a8160e01b815290516001600160a01b039092169263b8f31a8192600480840193829003018186803b158015612d0c57600080fd5b505afa158015612d20573d6000803e3d6000fd5b505050506040513d6020811015612d3657600080fd5b5051604080516001600160e01b031960e085901b1681526001600160a01b0390921660048301526002602483015251604480830192600092919082900301818387803b158015612d8557600080fd5b505af1158015612d99573d6000803e3d6000fd5b505050505b506001016129f6565b6040805160008152602081019182905251612dc491600991613973565b50612dcd610d5d565b6000600e55600780547fffffffffffffffff00ff00ffffffffffffffffffffffffffffffffffffffffff1690556118d1613270565b60005b60085481101561076b5760088181548110612e1c57fe5b60009182526020918290200154604080516332c3db0f60e11b815290516001600160a01b0390921692636587b61e92600480840193829003018186803b158015612e6557600080fd5b505afa158015612e79573d6000803e3d6000fd5b505050506040513d6020811015612e8f57600080fd5b505160011415612f6e5760088181548110612ea657fe5b6000918252602082200154604080517f0f15f4c000000000000000000000000000000000000000000000000000000000815290516001600160a01b0390921692630f15f4c09260048084019382900301818387803b158015612f0757600080fd5b505af1158015612f1b573d6000803e3d6000fd5b50505050600960088281548110612f2e57fe5b60009182526020808320909101548354600181018555938352912090910180546001600160a01b0319166001600160a01b03909216919091179055612ff5565b60088181548110612f7b57fe5b6000918252602082200154604080517f79599f9600000000000000000000000000000000000000000000000000000000815290516001600160a01b03909216926379599f969260048084019382900301818387803b158015612fdc57600080fd5b505af1158015612ff0573d6000803e3d6000fd5b505050505b600101612e05565b6130056139d8565b601c5461303390307f0aab456900000000000000000000000000000000000000000000000000000000613287565b90506130836040518060400160405280600581526020017f756e74696c0000000000000000000000000000000000000000000000000000008152506013544201836132b29092919063ffffffff16565b601b54601d54610ec6916001600160a01b03169083906132dc565b600f546000401890565b6000826130b7575060006121b6565b828202828482816130c457fe5b04146121b35760405162461bcd60e51b8152600401808060200182810382526021815260200180613b7a6021913960400191505060405180910390fd5b600082821115613158576040805162461bcd60e51b815260206004820152601e60248201527f536166654d6174683a207375627472616374696f6e206f766572666c6f770000604482015290519081900360640190fd5b50900390565b60008082116131b4576040805162461bcd60e51b815260206004820152601a60248201527f536166654d6174683a206469766973696f6e206279207a65726f000000000000604482015290519081900360640190fd5b60008284816131bf57fe5b04949350505050565b6000806131db888863ffffffff6130a816565b905060006131fb620f42406124988962ffffff8a1663ffffffff6130a816565b9050600061320f868b63ffffffff61310116565b9050600061323f620f424061249862ffffff8b166132338a8763ffffffff6130a816565b9063ffffffff6130a816565b905061326181613255868663ffffffff61215916565b9063ffffffff61215916565b9b9a5050505050505050505050565b600140600f5416600040600f541617600f81905550565b61328f6139d8565b6132976139d8565b6132a98186868663ffffffff6134b316565b95945050505050565b60808301516132c7908363ffffffff6134f016565b60808301516118cd908263ffffffff61350d16565b6005546040805130606090811b60208084019190915260348084018690528451808503909101815260549093018452825192810192909220908601939093526000838152600690915281812080546001600160a01b0319166001600160a01b038816179055905182917fb5e6e01e79f91267dc17b4e6314d5d4d03593d2ceee0fbb452b750bd70ea5af991a26003546001600160a01b0316634000aea0858461338487613519565b6040518463ffffffff1660e01b815260040180846001600160a01b03166001600160a01b0316815260200183815260200180602001828103825283818151815260200191508051906020019080838360005b838110156133ee5781810151838201526020016133d6565b50505050905090810190601f16801561341b5780820380516001836020036101000a031916815260200191505b50945050505050602060405180830381600087803b15801561343c57600080fd5b505af1158015613450573d6000803e3d6000fd5b505050506040513d602081101561346657600080fd5b50516134a35760405162461bcd60e51b8152600401808060200182810382526023815260200180613ac36023913960400191505060405180910390fd5b6005805460010190559392505050565b6134bb6139d8565b6134cb8560800151610100613659565b50509183526001600160a01b031660208301526001600160e01b031916604082015290565b6134fd8260038351613693565b6118cd828263ffffffff61379d16565b610ec682600083613693565b6060634042994660e01b6000808460000151856020015186604001518760600151600189608001516000015160405160240180896001600160a01b03166001600160a01b03168152602001888152602001878152602001866001600160a01b03166001600160a01b03168152602001856001600160e01b0319166001600160e01b031916815260200184815260200183815260200180602001828103825283818151815260200191508051906020019080838360005b838110156135e75781810151838201526020016135cf565b50505050905090810190601f1680156136145780820380516001836020036101000a031916815260200191505b5060408051601f198184030181529190526020810180516001600160e01b03166001600160e01b0319909d169c909c17909b5250989950505050505050505050919050565b613661613a0d565b60208206156136765760208206602003820191505b506020828101829052604080518085526000815290920101905290565b601781116136ba576136b48360e0600585901b16831763ffffffff6137b716565b506118cd565b60ff81116136f0576136dd836018611fe0600586901b161763ffffffff6137b716565b506136b48382600163ffffffff6137cf16565b61ffff811161372757613714836019611fe0600586901b161763ffffffff6137b716565b506136b48382600263ffffffff6137cf16565b63ffffffff81116137605761374d83601a611fe0600586901b161763ffffffff6137b716565b506136b48382600463ffffffff6137cf16565b67ffffffffffffffff81116118cd5761378a83601b611fe0600586901b161763ffffffff6137b716565b506116bc8382600863ffffffff6137cf16565b6137a5613a0d565b6121b3838460000151518485516137f0565b6137bf613a0d565b6121b3838460000151518461389c565b6137d7613a0d565b6137e88485600001515185856138e7565b949350505050565b6137f8613a0d565b825182111561380657600080fd5b8460200151828501111561383057613830856138288760200151878601613945565b60020261395c565b60008086518051876020830101935080888701111561384f5787860182525b505050602084015b602084106138765780518252601f199093019260209182019101613857565b51815160001960208690036101000a019081169019919091161790525083949350505050565b6138a4613a0d565b836020015183106138c0576138c084856020015160020261395c565b8351805160208583010184815350808514156138dd576001810182525b5093949350505050565b6138ef613a0d565b8460200151848301111561390c5761390c8585840160020261395c565b60006001836101000a03905085518386820101858319825116178152508051848701111561393a5783860181525b509495945050505050565b6000818311156139565750816121b6565b50919050565b81516139688383613659565b506116bc838261379d565b8280548282559060005260206000209081019282156139c8579160200282015b828111156139c857825182546001600160a01b0319166001600160a01b03909116178255602090920191600190910190613993565b506139d4929150613a27565b5090565b6040805160a081018252600080825260208201819052918101829052606081019190915260808101613a08613a0d565b905290565b604051806040016040528060608152602001600081525090565b610c0291905b808211156139d45780546001600160a01b0319168155600101613a2d56fe4f776e61626c653a206e6577206f776e657220697320746865207a65726f2061646472657373436c617373726f6f6d3a2073747564656e7420646f65736e2774206861766520656e6f7567682073636f7265436c617373726f6f6d3a2063616e2774206368616e6765206368616c6c656e6765206e6f77756e61626c6520746f207472616e73666572416e6443616c6c20746f206f7261636c65436c617373726f6f6d3a206e6f7420656e6f7567682044414920746f2070726f63656564436c617373726f6f6d3a2072656164207065726d697373696f6e2064656e696564436c617373726f6f6d3a2073747564656e7473206c697374206e6f7420656d707479436c617373726f6f6d3a2070726f666573736f722063616e277420626520697473206f776e2073747564656e74536166654d6174683a206d756c7469706c69636174696f6e206f766572666c6f77436c617373726f6f6d3a20746f6f20736f6f6e20746f2066696e69736820636f75727365436c617373726f6f6d3a206170706c69636174696f6e7320617265207374696c6c206f70656e4f776e61626c653a2063616c6c6572206973206e6f7420746865206f776e6572436c617373726f6f6d3a20696e7665737420616c6c2062616c616e6365206265666f726520626567696e436c617373726f6f6d3a206170706c69636174696f6e732061726520616c726561647920636c6f736564436c617373726f6f6d3a2073747564656e74206973206e6f742072656769737465726564436c617373726f6f6d3a206170706c69636174696f6e732061726520616c7265616479206f70656e6564536f75726365206d75737420626520746865206f7261636c65206f66207468652072657175657374a2646970667358221220494cc11d832972dc00b006770a0a456286468719b337750d500c363988405f8264736f6c63430006060033756e61626c6520746f207472616e73666572416e6443616c6c20746f206f7261636c65",
  "immutableReferences": {},
  "source": "pragma solidity 0.6.6;\r\n\r\nimport \"@openzeppelin/contracts/math/SafeMath.sol\";\r\nimport \"@openzeppelin/contracts/access/AccessControl.sol\";\r\nimport \"@openzeppelin/contracts/access/Ownable.sol\";\r\nimport \"@openzeppelin/contracts/token/ERC20/IERC20.sol\";\r\nimport \"@openzeppelin/contracts/utils/Address.sol\";\r\nimport \"@chainlink/contracts/src/v0.6/ChainlinkClient.sol\";\r\nimport \"./interface/IUniversity.sol\";\r\nimport \"./interface/IStudent.sol\";\r\nimport \"./interface/IClassroom.sol\";\r\nimport \"./interface/IStudentApplication.sol\";\r\nimport \"./interface/IClassroomChallenge.sol\";\r\nimport \"./interface/IStudentApplicationFactory.sol\";\r\nimport \"./StudentApplicationFactory.sol\";\r\nimport \"./MyUtils.sol\";\r\n\r\n\r\ncontract Classroom is Ownable, ChainlinkClient, IClassroom {\r\n    IUniversity public university;\r\n    bool public openForApplication;\r\n    bool public courseFinished;\r\n    bool public classroomActive;\r\n    bool _timestampAlarm;\r\n    address[] _studentApplications;\r\n    address[] _validStudentApplications;\r\n    mapping(address => address) _studentApplicationsLink;\r\n    address[] _studentsLookUp;\r\n    address[] _applicationsLookUp;\r\n    uint256 _endDate;\r\n    uint256 _totalBalance;\r\n    bytes32 _seed;\r\n\r\n    //Classroom parameters\r\n    bytes32 public name;\r\n    uint24 public principalCut;\r\n    uint24 public poolCut;\r\n    int32 public minScore;\r\n    uint256 public override entryPrice;\r\n    uint256 public duration;\r\n\r\n    IERC20 public daiToken;\r\n    CERC20 public cToken;\r\n    StudentApplicationFactory _studentApplicationFactory;\r\n    address public _challengeAddress;\r\n\r\n    address _oracleRandom;\r\n    bytes32 _requestIdRandom;\r\n    uint256 _oraclePaymentRandom;\r\n    address _oracleTimestamp;\r\n    bytes32 _requestIdTimestamp;\r\n    uint256 _oraclePaymentTimestamp;\r\n\r\n    constructor(\r\n        bytes32 _name,\r\n        uint24 _principalCut,\r\n        uint24 _poolCut,\r\n        int32 _minScore,\r\n        uint256 _entryPrice,\r\n        uint256 _duration,\r\n        address payable universityAddress,\r\n        address challengeAddress,\r\n        address daiAddress,\r\n        address compoundAddress,\r\n        address studentApplicationFactoryAddress\r\n    ) public {\r\n        name = _name;\r\n        principalCut = _principalCut;\r\n        poolCut = _poolCut;\r\n        minScore = _minScore;\r\n        entryPrice = _entryPrice;\r\n        duration = _duration;\r\n        university = IUniversity(universityAddress);\r\n        _challengeAddress = challengeAddress;\r\n        openForApplication = false;\r\n        classroomActive = false;\r\n        daiToken = IERC20(daiAddress);\r\n        cToken = CERC20(compoundAddress);\r\n        _studentApplicationFactory = StudentApplicationFactory(studentApplicationFactoryAddress);\r\n        _generateSeed();\r\n    }\r\n\r\n    event LogOpenApplications();\r\n    event LogCloseApplications();\r\n    event LogCourseFinished();\r\n    event LogChangeChallenge(address);\r\n    event LogChangeName(bytes32);\r\n    event LogChangePrincipalCut(uint24);\r\n    event LogChangePoolCut(uint24);\r\n    event LogChangeMinScore(int32);\r\n    event LogChangeEntryPrice(uint256);\r\n    event LogChangeDuration(uint256);\r\n\r\n    // @dev \"Stack too deep\" error if done in the constructor\r\n    function configureOracles(\r\n        address oracleRandom,\r\n        bytes32 requestIdRandom,\r\n        uint256 oraclePaymentRandom,\r\n        address oracleTimestamp,\r\n        bytes32 requestIdTimestamp,\r\n        uint256 oraclePaymentTimestamp\r\n    ) public onlyOwner {\r\n        _oracleRandom = oracleRandom;\r\n        _requestIdRandom = requestIdRandom;\r\n        _oraclePaymentRandom = oraclePaymentRandom;\r\n        _oracleTimestamp = oracleTimestamp;\r\n        _requestIdTimestamp = requestIdTimestamp;\r\n        _oraclePaymentTimestamp = oraclePaymentTimestamp;\r\n    }\r\n\r\n    function transferOwnershipClassroom(address newOwner) public override {\r\n        transferOwnership(newOwner);\r\n    }\r\n\r\n    //TODO: Buy LINK with DAI using Uniswap\r\n\r\n    function changeName(bytes32 val) public onlyOwner {\r\n        name = val;\r\n        emit LogChangeName(name);\r\n    }\r\n\r\n    function changePrincipalCut(uint24 val) public onlyOwner {\r\n        principalCut = val;\r\n        emit LogChangePrincipalCut(principalCut);\r\n    }\r\n\r\n    function changePoolCut(uint24 val) public onlyOwner {\r\n        poolCut = val;\r\n        emit LogChangePoolCut(poolCut);\r\n    }\r\n\r\n    function changeMinScore(int32 val) public onlyOwner {\r\n        minScore = val;\r\n        emit LogChangeMinScore(minScore);\r\n    }\r\n\r\n    function changeEntryPrice(uint256 val) public onlyOwner {\r\n        entryPrice = val;\r\n        emit LogChangeEntryPrice(entryPrice);\r\n    }\r\n\r\n    function changeDuration(uint256 val) public onlyOwner {\r\n        duration = val;\r\n        emit LogChangeDuration(duration);\r\n    }\r\n\r\n    function changeChallenge(address addr) public onlyOwner {\r\n        require(isClassroomEmpty(), \"Classroom: can't change challenge now\");\r\n        _challengeAddress = addr;\r\n        emit LogChangeChallenge(_challengeAddress);\r\n    }\r\n\r\n    function viewAllApplications()\r\n        public\r\n        view\r\n        onlyOwner\r\n        returns (address[] memory)\r\n    {\r\n        return _applicationsLookUp;\r\n    }\r\n\r\n    function viewMyApplication() public view override returns (address) {\r\n        return viewApplication(_msgSender());\r\n    }\r\n\r\n    function viewApplication(address addr) public view returns (address) {\r\n        require(\r\n            addr == _msgSender() || _msgSender() == owner(),\r\n            \"Classroom: read permission denied\"\r\n        );\r\n        return _studentApplicationsLink[addr];\r\n    }\r\n\r\n    function viewAllStudents()\r\n        public\r\n        view\r\n        onlyOwner\r\n        returns (address[] memory)\r\n    {\r\n        return _studentsLookUp;\r\n    }\r\n\r\n    function isClassroomEmpty() public view returns (bool) {\r\n        return\r\n            _studentApplications.length.add(_validStudentApplications.length) ==\r\n            0;\r\n    }\r\n\r\n    function isCourseOngoing() public view returns (bool) {\r\n        return _validStudentApplications.length > 0;\r\n    }\r\n\r\n    function openApplications() public onlyOwner {\r\n        //TODO: require Oracle setup and Link funds\r\n        require(\r\n            !openForApplication,\r\n            \"Classroom: applications are already opened\"\r\n        );\r\n        require(\r\n            _studentApplications.length == 0,\r\n            \"Classroom: students list not empty\"\r\n        );\r\n        openForApplication = true;\r\n        emit LogOpenApplications();\r\n    }\r\n\r\n    function closeApplications() public onlyOwner {\r\n        require(\r\n            openForApplication,\r\n            \"Classroom: applications are already closed\"\r\n        );\r\n        openForApplication = false;\r\n        emit LogCloseApplications();\r\n    }\r\n\r\n    //public onlyOwner allow the professor to apply money before and after closing applications\r\n    function applyDAI() public onlyOwner {\r\n        uint256 balance = daiToken.balanceOf(address(this));\r\n        if (balance <= 0) return;\r\n        daiToken.approve(address(cToken), balance);\r\n        cToken.mint(balance);\r\n    }\r\n\r\n    function studentApply() public override {\r\n        require(\r\n            _msgSender() != owner(),\r\n            \"Classroom: professor can't be its own student\"\r\n        );\r\n        require(\r\n            university.studentIsRegistered(_msgSender()),\r\n            \"Classroom: student is not registered\"\r\n        );\r\n        require(openForApplication, \"Classroom: applications closed\");\r\n        IStudent applicant = IStudent(_msgSender());\r\n        require(\r\n            applicant.score() >= minScore,\r\n            \"Classroom: student doesn't have enough score\"\r\n        );\r\n        address application = _createStudentApplication(address(applicant));\r\n        _studentApplications.push(application);\r\n    }\r\n\r\n    function _createStudentApplication(address student)\r\n        internal\r\n        returns (address)\r\n    {\r\n        address newApplication = _studentApplicationFactory.newStudentApplication(\r\n            student,\r\n            address(this),\r\n            address(daiToken),\r\n            _challengeAddress,\r\n            generateNewSeed()\r\n        );\r\n        _studentApplicationsLink[student] = newApplication;\r\n        university.registerStudentApplication(\r\n            student,\r\n            newApplication\r\n        );\r\n        _studentsLookUp.push(student);\r\n        _applicationsLookUp.push(newApplication);\r\n        return newApplication;\r\n    }\r\n\r\n    function generateNewSeed() internal view returns (bytes32) {\r\n        return blockhash(0) ^ _seed;\r\n    }\r\n\r\n    function beginCourse() public onlyOwner {\r\n        require(!openForApplication, \"Classroom: applications are still open\");\r\n        require(\r\n            daiToken.balanceOf(address(this)) == 0,\r\n            \"Classroom: invest all balance before begin\"\r\n        );\r\n        checkApplications();\r\n        _studentApplications = new address[](0);\r\n        require(\r\n            _validStudentApplications.length > 0,\r\n            \"Classroom: no ready application\"\r\n        );\r\n        classroomActive = true;\r\n        _setAlarm();\r\n    }\r\n\r\n    function checkApplications() internal {\r\n        for (uint256 i = 0; i < _studentApplications.length; i++) {\r\n            if (IStudentApplication(_studentApplications[i]).applicationState() == 1) {\r\n                IStudentApplication(_studentApplications[i]).activate();\r\n                _validStudentApplications.push(_studentApplications[i]);\r\n            } else {\r\n                IStudentApplication(_studentApplications[i]).expire();\r\n            }\r\n        }\r\n    }\r\n\r\n    function finishCourse() public onlyOwner {\r\n        require(_timestampAlarm, \"Classroom: too soon to finish course\");\r\n        require(\r\n            _validStudentApplications.length > 0,\r\n            \"Classroom: no applications\"\r\n        );\r\n        _totalBalance = _recoverInvestment();\r\n        courseFinished = true;\r\n        emit LogCourseFinished();\r\n    }\r\n\r\n    function _recoverInvestment() internal returns (uint256) {\r\n        uint256 balance = cToken.balanceOfUnderlying(address(this));\r\n        cToken.redeemUnderlying(balance);\r\n        return balance;\r\n    }\r\n\r\n    function processResults() public onlyOwner {\r\n        require(courseFinished, \"Classroom: course not finished\");\r\n        require(\r\n            _totalBalance <= daiToken.balanceOf(address(this)),\r\n            \"Classroom: not enough DAI to proceed\"\r\n        );\r\n        (uint256 successCount, uint256 emptyCount) = _startAnswerVerification();\r\n        (\r\n            uint256 universityCut,\r\n            uint256[] memory studentAllowances\r\n        ) = _accountValues(successCount, emptyCount);\r\n        _resolveStudentAllowances(studentAllowances);\r\n        _resolveUniversityCut(universityCut);\r\n        _updateStudentScores();\r\n        _clearClassroom();\r\n    }\r\n\r\n    function _startAnswerVerification() internal returns (uint256, uint256) {\r\n        uint256 successCount = 0;\r\n        uint256 emptyCount = 0;\r\n        for (uint256 i = 0; i < _validStudentApplications.length; i++) {\r\n            IStudentApplication(_validStudentApplications[i]).registerFinalAnswer();\r\n            uint256 appState = IStudentApplication(_validStudentApplications[i]).applicationState();\r\n            if (appState == 3)\r\n                successCount++;\r\n            if (appState == 5)\r\n                emptyCount++;\r\n        }\r\n        return (successCount, emptyCount);\r\n    }\r\n\r\n    function _accountValues(uint256 successCount, uint256 emptyCount)\r\n        internal\r\n        returns (uint256, uint256[] memory)\r\n    {\r\n        uint256 nStudents = _validStudentApplications.length;\r\n        uint256 returnsPool = _totalBalance.sub(entryPrice.mul(nStudents));\r\n        uint256 professorPaymentPerStudent = entryPrice.mul(principalCut).div(\r\n            10**6\r\n        );\r\n        uint256 studentPrincipalReturn = entryPrice.sub(\r\n            professorPaymentPerStudent\r\n        );\r\n        uint256 successPool = returnsPool.mul(successCount).div(nStudents);\r\n        uint256 professorTotalPoolSuccessShare = successPool.mul(poolCut).div(\r\n            10**6\r\n        );\r\n        uint256 successStudentPoolShare = returnsPool\r\n            .sub(professorTotalPoolSuccessShare)\r\n            .div(successCount);\r\n        uint256[] memory studentAllowances = new uint256[](nStudents);\r\n        for (uint256 i = 0; i < nStudents; i++) {\r\n            uint256 appState = IStudentApplication(_validStudentApplications[i]).applicationState();\r\n            if (appState == 3) {\r\n                IStudentApplication(_validStudentApplications[i]).accountAllowance(\r\n                    studentPrincipalReturn,\r\n                    successStudentPoolShare\r\n                );\r\n                studentAllowances[i] = studentPrincipalReturn.add(\r\n                    successStudentPoolShare\r\n                );\r\n            }\r\n            if (appState == 4) {\r\n                IStudentApplication(_validStudentApplications[i]).accountAllowance(\r\n                    studentPrincipalReturn,\r\n                    0\r\n                );\r\n                studentAllowances[i] = studentPrincipalReturn;\r\n            }\r\n            if (appState== 5)\r\n                IStudentApplication(_validStudentApplications[i]).accountAllowance(0, 0);\r\n        }\r\n        uint24 uCut = university.cut();\r\n        return (\r\n            _calculateUniversityShare(emptyCount, \r\n                entryPrice,\r\n                professorTotalPoolSuccessShare,\r\n                uCut,\r\n                nStudents,\r\n                professorPaymentPerStudent\r\n            ),\r\n            studentAllowances\r\n        );\r\n    }\r\n\r\n    function _calculateUniversityShare(uint256 emptyCount, uint256 _entryPrice, uint256 professorTotalPoolSuccessShare, uint24 uCut, uint256 nStudents, uint professorPaymentPerStudent) internal pure returns (uint){\r\n        uint256 universityEmptyShare = emptyCount.mul(_entryPrice);\r\n        uint256 universityPaymentShare = professorTotalPoolSuccessShare\r\n            .mul(uCut)\r\n            .div(10**6);\r\n        uint256 notEmptyCount = nStudents.sub(emptyCount);\r\n        uint256 universitySucessPoolShare = professorPaymentPerStudent\r\n            .mul(notEmptyCount)\r\n            .mul(uCut)\r\n            .div(10**6);\r\n        return universityEmptyShare\r\n            .add(universityPaymentShare)\r\n            .add(universitySucessPoolShare);\r\n    }\r\n\r\n    function _resolveStudentAllowances(uint256[] memory studentAllowances)\r\n        internal\r\n    {\r\n        for (uint256 i = 0; i < _validStudentApplications.length; i++) {\r\n            if (studentAllowances[i] > 0)\r\n                daiToken.approve(\r\n                    address(_validStudentApplications[i]),\r\n                    studentAllowances[i]\r\n                );\r\n        }\r\n    }\r\n\r\n    function _resolveUniversityCut(uint256 universityCut) internal {\r\n        daiToken.transfer(address(university), universityCut);\r\n    }\r\n\r\n    function _updateStudentScores() internal {\r\n        for (uint256 i = 0; i < _validStudentApplications.length; i++) {\r\n            uint256 appState = IStudentApplication(_validStudentApplications[i]).applicationState();\r\n            if (appState == 3)\r\n                university.addStudentScore(\r\n                    IStudentApplication(_validStudentApplications[i]).studentAddress(),\r\n                    1\r\n                );\r\n            if (appState == 4)\r\n                university.subStudentScore(\r\n                    IStudentApplication(_validStudentApplications[i]).studentAddress(),\r\n                    1\r\n                );\r\n            if (appState == 5)\r\n                university.subStudentScore(\r\n                    IStudentApplication(_validStudentApplications[i]).studentAddress(),\r\n                    2\r\n                );\r\n        }\r\n    }\r\n\r\n    function _clearClassroom() internal {\r\n        _validStudentApplications = new address[](0);\r\n        withdrawAllResults();\r\n        _totalBalance = 0;\r\n        courseFinished = false;\r\n        _timestampAlarm = false;\r\n        _mutateSeed();\r\n    }\r\n\r\n    function _mutateSeed() internal {\r\n        _seed = (_seed & blockhash(0)) | (_seed & blockhash(1));\r\n    }\r\n\r\n    function withdrawAllResults() public onlyOwner {\r\n        daiToken.transferFrom(\r\n            address(this),\r\n            owner(),\r\n            daiToken.balanceOf(address(this))\r\n        );\r\n    }\r\n\r\n    function _generateSeed() internal {\r\n        Chainlink.Request memory req = buildChainlinkRequest(\r\n            _requestIdRandom,\r\n            address(this),\r\n            this.fulfillGenerateSeed.selector\r\n        );\r\n        sendChainlinkRequestTo(_oracleRandom, req, _oraclePaymentRandom);\r\n    }\r\n\r\n    function fulfillGenerateSeed(bytes32 _requestId, uint256 data)\r\n        public\r\n        recordChainlinkFulfillment(_requestId)\r\n    {\r\n        _seed = keccak256(MyUtils._toBytes(data));\r\n    }\r\n\r\n    function _setAlarm() internal {\r\n        Chainlink.Request memory req = buildChainlinkRequest(\r\n            _requestIdTimestamp,\r\n            address(this),\r\n            this.fulfillGetTimestamp.selector\r\n        );\r\n        req.addUint(\"until\", now + duration);\r\n        sendChainlinkRequestTo(_oracleTimestamp, req, _oraclePaymentTimestamp);\r\n    }\r\n\r\n    function fulfillGetTimestamp(bytes32 _requestId)\r\n        public\r\n        recordChainlinkFulfillment(_requestId)\r\n    {\r\n        _timestampAlarm = true;\r\n    }\r\n}\r\n",
  "sourcePath": "/mnt/e/Repositories/Uproot/contracts/Classroom.sol",
  "compiler": {
    "name": "solc",
    "version": "0.6.6+commit.6c089d02.Emscripten.clang"
  },
  "schemaVersion": "3.1.0",
  "updatedAt": "2020-05-05T01:20:38.357Z",
  "devdoc": {
    "methods": {
      "owner()": {
        "details": "Returns the address of the current owner."
      },
      "renounceOwnership()": {
        "details": "Leaves the contract without owner. It will not be possible to call `onlyOwner` functions anymore. Can only be called by the current owner.     * NOTE: Renouncing ownership will leave the contract without an owner, thereby removing any functionality that is only available to the owner."
      },
      "transferOwnership(address)": {
        "details": "Transfers ownership of the contract to a new account (`newOwner`). Can only be called by the current owner."
      }
    }
  },
  "userdoc": {
    "methods": {}
  }
}