{
  "contractName": "StudentApplication",
  "abi": [
    {
      "inputs": [
        {
          "internalType": "address",
          "name": "studentAddress",
          "type": "address"
        },
        {
          "internalType": "address",
          "name": "classroomAddress",
          "type": "address"
        },
        {
          "internalType": "address",
          "name": "daiAddress",
          "type": "address"
        },
        {
          "internalType": "bytes32",
          "name": "classroomSeed",
          "type": "bytes32"
        }
      ],
      "stateMutability": "nonpayable",
      "type": "constructor"
    },
    {
      "anonymous": false,
      "inputs": [
        {
          "indexed": true,
          "internalType": "address",
          "name": "previousOwner",
          "type": "address"
        },
        {
          "indexed": true,
          "internalType": "address",
          "name": "newOwner",
          "type": "address"
        }
      ],
      "name": "OwnershipTransferred",
      "type": "event"
    },
    {
      "inputs": [],
      "name": "daiToken",
      "outputs": [
        {
          "internalType": "contract IERC20",
          "name": "",
          "type": "address"
        }
      ],
      "stateMutability": "view",
      "type": "function"
    },
    {
      "inputs": [],
      "name": "owner",
      "outputs": [
        {
          "internalType": "address",
          "name": "",
          "type": "address"
        }
      ],
      "stateMutability": "view",
      "type": "function"
    },
    {
      "inputs": [],
      "name": "renounceOwnership",
      "outputs": [],
      "stateMutability": "nonpayable",
      "type": "function"
    },
    {
      "inputs": [
        {
          "internalType": "address",
          "name": "newOwner",
          "type": "address"
        }
      ],
      "name": "transferOwnership",
      "outputs": [],
      "stateMutability": "nonpayable",
      "type": "function"
    },
    {
      "inputs": [],
      "name": "viewSeed",
      "outputs": [
        {
          "internalType": "bytes32",
          "name": "",
          "type": "bytes32"
        }
      ],
      "stateMutability": "view",
      "type": "function"
    },
    {
      "inputs": [],
      "name": "applicationState",
      "outputs": [
        {
          "internalType": "uint256",
          "name": "",
          "type": "uint256"
        }
      ],
      "stateMutability": "view",
      "type": "function"
    },
    {
      "inputs": [],
      "name": "payEntryPrice",
      "outputs": [],
      "stateMutability": "nonpayable",
      "type": "function"
    },
    {
      "inputs": [],
      "name": "activate",
      "outputs": [],
      "stateMutability": "nonpayable",
      "type": "function"
    },
    {
      "inputs": [],
      "name": "expire",
      "outputs": [],
      "stateMutability": "nonpayable",
      "type": "function"
    },
    {
      "inputs": [],
      "name": "registerAnswer",
      "outputs": [],
      "stateMutability": "nonpayable",
      "type": "function"
    },
    {
      "inputs": [],
      "name": "getHint1",
      "outputs": [
        {
          "internalType": "bytes32",
          "name": "",
          "type": "bytes32"
        }
      ],
      "stateMutability": "view",
      "type": "function"
    },
    {
      "inputs": [],
      "name": "getHint2",
      "outputs": [
        {
          "internalType": "bytes32",
          "name": "",
          "type": "bytes32"
        }
      ],
      "stateMutability": "view",
      "type": "function"
    },
    {
      "inputs": [],
      "name": "verifyAnswer",
      "outputs": [
        {
          "internalType": "bool",
          "name": "",
          "type": "bool"
        }
      ],
      "stateMutability": "view",
      "type": "function"
    },
    {
      "inputs": [],
      "name": "registerFinalAnswer",
      "outputs": [],
      "stateMutability": "nonpayable",
      "type": "function"
    },
    {
      "inputs": [
        {
          "internalType": "uint256",
          "name": "principal",
          "type": "uint256"
        },
        {
          "internalType": "uint256",
          "name": "prize",
          "type": "uint256"
        }
      ],
      "name": "accountAllowance",
      "outputs": [],
      "stateMutability": "nonpayable",
      "type": "function"
    },
    {
      "inputs": [
        {
          "internalType": "address",
          "name": "to",
          "type": "address"
        }
      ],
      "name": "withdrawAllResults",
      "outputs": [],
      "stateMutability": "nonpayable",
      "type": "function"
    },
    {
      "inputs": [
        {
          "internalType": "address",
          "name": "to",
          "type": "address"
        },
        {
          "internalType": "uint256",
          "name": "val",
          "type": "uint256"
        }
      ],
      "name": "withdrawResults",
      "outputs": [],
      "stateMutability": "nonpayable",
      "type": "function"
    }
  ],
  "bytecode": "0x608060405234801561001057600080fd5b5060405162001dcf38038062001dcf8339818101604052608081101561003557600080fd5b8101908080519060200190929190805190602001909291908051906020019092919080519060200190929190505050600061007461023260201b60201c565b9050806000806101000a81548173ffffffffffffffffffffffffffffffffffffffff021916908373ffffffffffffffffffffffffffffffffffffffff1602179055508073ffffffffffffffffffffffffffffffffffffffff16600073ffffffffffffffffffffffffffffffffffffffff167f8be0079c531659141344cd1fd0a4f28419497f9722a3daafe3b4186f6b6457e060405160405180910390a3506000600260146101000a81548160ff0219169083600681111561013157fe5b021790555083600360006101000a81548173ffffffffffffffffffffffffffffffffffffffff021916908373ffffffffffffffffffffffffffffffffffffffff16021790555082600460006101000a81548173ffffffffffffffffffffffffffffffffffffffff021916908373ffffffffffffffffffffffffffffffffffffffff1602179055506000600660006101000a81548160ff02191690831515021790555081600160006101000a81548173ffffffffffffffffffffffffffffffffffffffff021916908373ffffffffffffffffffffffffffffffffffffffff1602179055506102238161023a60201b60201c565b60058190555050505050610266565b600033905090565b60007f52414e444f4d000000000000000000000000000000000000000000000000000082189050919050565b611b5980620002766000396000f3fe608060405234801561001057600080fd5b506004361061010b5760003560e01c8063715018a6116100a25780638da5cb5b116100715780638da5cb5b14610274578063be22f546146102be578063c7a51bc314610308578063f2fde38b14610326578063fc48258d1461036a5761010b565b8063715018a61461021e57806379599f96146102285780637db9abaf14610232578063872d7c791461026a5761010b565b80633db0bfd2116100de5780633db0bfd2146101505780636587b61e1461019e57806366995a46146101bc57806370bc0d6f146102005761010b565b80630bb8ebf6146101105780630f15f4c014610132578063289cf0d21461013c5780632d24947b14610146575b600080fd5b610118610388565b604051808215151515815260200191505060405180910390f35b61013a61043f565b005b6101446105ab565b005b61014e61070f565b005b61019c6004803603604081101561016657600080fd5b81019080803573ffffffffffffffffffffffffffffffffffffffff169060200190929190803590602001909291905050506109e4565b005b6101a6610c30565b6040518082815260200191505060405180910390f35b6101fe600480360360208110156101d257600080fd5b81019080803573ffffffffffffffffffffffffffffffffffffffff169060200190929190505050610d43565b005b610208610d56565b6040518082815260200191505060405180910390f35b610226610e95565b005b61023061101d565b005b6102686004803603604081101561024857600080fd5b81019080803590602001909291908035906020019092919050505061118a565b005b6102726112c5565b005b61027c6114d4565b604051808273ffffffffffffffffffffffffffffffffffffffff1673ffffffffffffffffffffffffffffffffffffffff16815260200191505060405180910390f35b6102c66114fd565b604051808273ffffffffffffffffffffffffffffffffffffffff1673ffffffffffffffffffffffffffffffffffffffff16815260200191505060405180910390f35b610310611523565b6040518082815260200191505060405180910390f35b6103686004803603602081101561033c57600080fd5b81019080803573ffffffffffffffffffffffffffffffffffffffff169060200190929190505050611661565b005b61037261186e565b6040518082815260200191505060405180910390f35b6000600260009054906101000a900473ffffffffffffffffffffffffffffffffffffffff1673ffffffffffffffffffffffffffffffffffffffff166339e7357c6040518163ffffffff1660e01b815260040160206040518083038186803b1580156103f257600080fd5b505afa92505050801561042657506040513d602081101561041257600080fd5b810190808051906020019092919050505060015b610433576000905061043c565b60055481149150505b90565b610447611941565b73ffffffffffffffffffffffffffffffffffffffff166000809054906101000a900473ffffffffffffffffffffffffffffffffffffffff1673ffffffffffffffffffffffffffffffffffffffff1614610508576040517f08c379a00000000000000000000000000000000000000000000000000000000081526004018080602001828103825260208152602001807f4f776e61626c653a2063616c6c6572206973206e6f7420746865206f776e657281525060200191505060405180910390fd5b6000600681111561051557fe5b600260149054906101000a900460ff16600681111561053057fe5b14610586576040517f08c379a000000000000000000000000000000000000000000000000000000000815260040180806020018281038252602a815260200180611a7a602a913960400191505060405180910390fd5b60028060146101000a81548160ff021916908360068111156105a457fe5b0217905550565b6105b3611941565b73ffffffffffffffffffffffffffffffffffffffff166000809054906101000a900473ffffffffffffffffffffffffffffffffffffffff1673ffffffffffffffffffffffffffffffffffffffff1614610674576040517f08c379a00000000000000000000000000000000000000000000000000000000081526004018080602001828103825260208152602001807f4f776e61626c653a2063616c6c6572206973206e6f7420746865206f776e657281525060200191505060405180910390fd5b600660009054906101000a900460ff166106b1576005600260146101000a81548160ff021916908360068111156106a757fe5b021790555061070d565b6106b9610388565b156106e7576003600260146101000a81548160ff021916908360068111156106dd57fe5b021790555061070c565b6004600260146101000a81548160ff0219169083600681111561070657fe5b02179055505b5b565b6000600681111561071c57fe5b600260149054906101000a900460ff16600681111561073757fe5b1461078d576040517f08c379a000000000000000000000000000000000000000000000000000000000815260040180806020018281038252602a815260200180611a7a602a913960400191505060405180910390fd5b600160009054906101000a900473ffffffffffffffffffffffffffffffffffffffff1673ffffffffffffffffffffffffffffffffffffffff166323b872dd33600460009054906101000a900473ffffffffffffffffffffffffffffffffffffffff16600460009054906101000a900473ffffffffffffffffffffffffffffffffffffffff1673ffffffffffffffffffffffffffffffffffffffff1663f745adfc6040518163ffffffff1660e01b815260040160206040518083038186803b15801561085757600080fd5b505afa15801561086b573d6000803e3d6000fd5b505050506040513d602081101561088157600080fd5b81019080805190602001909291905050506040518463ffffffff1660e01b8152600401808473ffffffffffffffffffffffffffffffffffffffff1673ffffffffffffffffffffffffffffffffffffffff1681526020018373ffffffffffffffffffffffffffffffffffffffff1673ffffffffffffffffffffffffffffffffffffffff1681526020018281526020019350505050602060405180830381600087803b15801561092e57600080fd5b505af1158015610942573d6000803e3d6000fd5b505050506040513d602081101561095857600080fd5b81019080805190602001909291905050506109be576040517f08c379a000000000000000000000000000000000000000000000000000000000815260040180806020018281038252602a815260200180611aa4602a913960400191505060405180910390fd5b6001600260146101000a81548160ff021916908360068111156109dd57fe5b0217905550565b600360009054906101000a900473ffffffffffffffffffffffffffffffffffffffff1673ffffffffffffffffffffffffffffffffffffffff16610a25611941565b73ffffffffffffffffffffffffffffffffffffffff1614610a91576040517f08c379a000000000000000000000000000000000000000000000000000000000815260040180806020018281038252602d8152602001806119ee602d913960400191505060405180910390fd5b6002610a9b610c30565b11610af1576040517f08c379a000000000000000000000000000000000000000000000000000000000815260040180806020018281038252602c815260200180611ace602c913960400191505060405180910390fd5b600160009054906101000a900473ffffffffffffffffffffffffffffffffffffffff1673ffffffffffffffffffffffffffffffffffffffff166323b872dd600460009054906101000a900473ffffffffffffffffffffffffffffffffffffffff1684846040518463ffffffff1660e01b8152600401808473ffffffffffffffffffffffffffffffffffffffff1673ffffffffffffffffffffffffffffffffffffffff1681526020018373ffffffffffffffffffffffffffffffffffffffff1673ffffffffffffffffffffffffffffffffffffffff1681526020018281526020019350505050602060405180830381600087803b158015610bf057600080fd5b505af1158015610c04573d6000803e3d6000fd5b505050506040513d6020811015610c1a57600080fd5b8101908080519060200190929190505050505050565b6000600360009054906101000a900473ffffffffffffffffffffffffffffffffffffffff1673ffffffffffffffffffffffffffffffffffffffff16610c73611941565b73ffffffffffffffffffffffffffffffffffffffff161480610cce5750610c986114d4565b73ffffffffffffffffffffffffffffffffffffffff16610cb6611941565b73ffffffffffffffffffffffffffffffffffffffff16145b610d23576040517f08c379a000000000000000000000000000000000000000000000000000000000815260040180806020018281038252602a815260200180611afa602a913960400191505060405180910390fd5b600260149054906101000a900460ff166006811115610d3e57fe5b905090565b610d5381600854600754016109e4565b50565b6000600660009054906101000a900460ff16610dbd576040517f08c379a00000000000000000000000000000000000000000000000000000000081526004018080602001828103825260298152602001806119c56029913960400191505060405180910390fd5b600260009054906101000a900473ffffffffffffffffffffffffffffffffffffffff1673ffffffffffffffffffffffffffffffffffffffff16610dfe611941565b73ffffffffffffffffffffffffffffffffffffffff1614610e6a576040517f08c379a00000000000000000000000000000000000000000000000000000000081526004018080602001828103825260258152602001806119a06025913960400191505060405180910390fd5b6005547f4841434b4d4f4e455900000000000000000000000000000000000000000000001917905090565b610e9d611941565b73ffffffffffffffffffffffffffffffffffffffff166000809054906101000a900473ffffffffffffffffffffffffffffffffffffffff1673ffffffffffffffffffffffffffffffffffffffff1614610f5e576040517f08c379a00000000000000000000000000000000000000000000000000000000081526004018080602001828103825260208152602001807f4f776e61626c653a2063616c6c6572206973206e6f7420746865206f776e657281525060200191505060405180910390fd5b600073ffffffffffffffffffffffffffffffffffffffff166000809054906101000a900473ffffffffffffffffffffffffffffffffffffffff1673ffffffffffffffffffffffffffffffffffffffff167f8be0079c531659141344cd1fd0a4f28419497f9722a3daafe3b4186f6b6457e060405160405180910390a360008060006101000a81548173ffffffffffffffffffffffffffffffffffffffff021916908373ffffffffffffffffffffffffffffffffffffffff160217905550565b611025611941565b73ffffffffffffffffffffffffffffffffffffffff166000809054906101000a900473ffffffffffffffffffffffffffffffffffffffff1673ffffffffffffffffffffffffffffffffffffffff16146110e6576040517f08c379a00000000000000000000000000000000000000000000000000000000081526004018080602001828103825260208152602001807f4f776e61626c653a2063616c6c6572206973206e6f7420746865206f776e657281525060200191505060405180910390fd5b600060068111156110f357fe5b600260149054906101000a900460ff16600681111561110e57fe5b14611164576040517f08c379a000000000000000000000000000000000000000000000000000000000815260040180806020018281038252602a815260200180611a7a602a913960400191505060405180910390fd5b6006600260146101000a81548160ff0219169083600681111561118357fe5b0217905550565b611192611941565b73ffffffffffffffffffffffffffffffffffffffff166000809054906101000a900473ffffffffffffffffffffffffffffffffffffffff1673ffffffffffffffffffffffffffffffffffffffff1614611253576040517f08c379a00000000000000000000000000000000000000000000000000000000081526004018080602001828103825260208152602001807f4f776e61626c653a2063616c6c6572206973206e6f7420746865206f776e657281525060200191505060405180910390fd5b600261125d610c30565b116112b3576040517f08c379a000000000000000000000000000000000000000000000000000000000815260040180806020018281038252603081526020018061194a6030913960400191505060405180910390fd5b81600781905550806008819055505050565b600260068111156112d257fe5b600260149054906101000a900460ff1660068111156112ed57fe5b14611343576040517f08c379a000000000000000000000000000000000000000000000000000000000815260040180806020018281038252602d815260200180611a4d602d913960400191505060405180910390fd5b600061134d611941565b9050600360009054906101000a900473ffffffffffffffffffffffffffffffffffffffff1673ffffffffffffffffffffffffffffffffffffffff168173ffffffffffffffffffffffffffffffffffffffff1663893d20e86040518163ffffffff1660e01b815260040160206040518083038186803b1580156113ce57600080fd5b505afa1580156113e2573d6000803e3d6000fd5b505050506040513d60208110156113f857600080fd5b810190808051906020019092919050505073ffffffffffffffffffffffffffffffffffffffff1614611475576040517f08c379a0000000000000000000000000000000000000000000000000000000008152600401808060200182810382526032815260200180611a1b6032913960400191505060405180910390fd5b80600260006101000a81548173ffffffffffffffffffffffffffffffffffffffff021916908373ffffffffffffffffffffffffffffffffffffffff1602179055506001600660006101000a81548160ff02191690831515021790555050565b60008060009054906101000a900473ffffffffffffffffffffffffffffffffffffffff16905090565b600160009054906101000a900473ffffffffffffffffffffffffffffffffffffffff1681565b6000600660009054906101000a900460ff1661158a576040517f08c379a00000000000000000000000000000000000000000000000000000000081526004018080602001828103825260298152602001806119c56029913960400191505060405180910390fd5b600260009054906101000a900473ffffffffffffffffffffffffffffffffffffffff1673ffffffffffffffffffffffffffffffffffffffff166115cb611941565b73ffffffffffffffffffffffffffffffffffffffff1614611637576040517f08c379a00000000000000000000000000000000000000000000000000000000081526004018080602001828103825260258152602001806119a06025913960400191505060405180910390fd5b6005547f4841434b4d4f4e4559000000000000000000000000000000000000000000000017905090565b611669611941565b73ffffffffffffffffffffffffffffffffffffffff166000809054906101000a900473ffffffffffffffffffffffffffffffffffffffff1673ffffffffffffffffffffffffffffffffffffffff161461172a576040517f08c379a00000000000000000000000000000000000000000000000000000000081526004018080602001828103825260208152602001807f4f776e61626c653a2063616c6c6572206973206e6f7420746865206f776e657281525060200191505060405180910390fd5b600073ffffffffffffffffffffffffffffffffffffffff168173ffffffffffffffffffffffffffffffffffffffff1614156117b0576040517f08c379a000000000000000000000000000000000000000000000000000000000815260040180806020018281038252602681526020018061197a6026913960400191505060405180910390fd5b8073ffffffffffffffffffffffffffffffffffffffff166000809054906101000a900473ffffffffffffffffffffffffffffffffffffffff1673ffffffffffffffffffffffffffffffffffffffff167f8be0079c531659141344cd1fd0a4f28419497f9722a3daafe3b4186f6b6457e060405160405180910390a3806000806101000a81548173ffffffffffffffffffffffffffffffffffffffff021916908373ffffffffffffffffffffffffffffffffffffffff16021790555050565b6000611878611941565b73ffffffffffffffffffffffffffffffffffffffff166000809054906101000a900473ffffffffffffffffffffffffffffffffffffffff1673ffffffffffffffffffffffffffffffffffffffff1614611939576040517f08c379a00000000000000000000000000000000000000000000000000000000081526004018080602001828103825260208152602001807f4f776e61626c653a2063616c6c6572206973206e6f7420746865206f776e657281525060200191505060405180910390fd5b600554905090565b60003390509056fe53747564656e744170706c69636174696f6e3a206170706c69636174696f6e206e6f742066696e6973686564207965744f776e61626c653a206e6577206f776e657220697320746865207a65726f206164647265737353747564656e744170706c69636174696f6e3a2061726520796f75206368656174696e673f53747564656e744170706c69636174696f6e3a20616e73776572206e6f74207265676973746572656453747564656e744170706c69636174696f6e3a206f6e6c792073747564656e742063616e20776974686472617753747564656e744170706c69636174696f6e3a2073747564656e74206973206e6f74206f776e6572206f6620616e7377657253747564656e744170706c69636174696f6e3a206170706c69636174696f6e206973206e6f742061637469766553747564656e744170706c69636174696f6e3a206170706c69636174696f6e206973206e6f74204e657753747564656e744170706c69636174696f6e3a20636f756c64206e6f74207472616e736665722044414953747564656e744170706c69636174696f6e3a206170706c69636174696f6e206e6f742066696e697368656453747564656e744170706c69636174696f6e3a2072656164207065726d697373696f6e2064656e696564a26469706673582212205a9b8923eb655ff150886617e1f56033bc8c274cbe03458fc1f95ba31d9e58cc64736f6c63430006060033",
  "immutableReferences": {},
  "source": "pragma solidity 0.6.6;\r\n\r\nimport \"@openzeppelin/contracts/math/SafeMath.sol\";\r\nimport \"@openzeppelin/contracts/access/AccessControl.sol\";\r\nimport \"@openzeppelin/contracts/access/Ownable.sol\";\r\nimport \"@openzeppelin/contracts/token/ERC20/IERC20.sol\";\r\nimport \"@openzeppelin/contracts/token/ERC20/IERC20.sol\";\r\nimport \"@openzeppelin/contracts/utils/Address.sol\";\r\nimport \"./University.sol\";\r\nimport \"./Student.sol\";\r\nimport \"./Classroom.sol\";\r\nimport \"./IStudentAnswer.sol\";\r\n\r\ncontract StudentApplication is Ownable {\r\n    using SafeMath for uint256;\r\n\r\n    IERC20 public daiToken;\r\n\r\n    enum ApplicationState {\r\n        New,\r\n        Ready,\r\n        Active,\r\n        Success,\r\n        Failed,\r\n        Empty,\r\n        Expired\r\n    }\r\n\r\n    IStudentAnswer _answer;\r\n    ApplicationState _applicationState;\r\n    address _studentAddress;\r\n    address _classroomAddress;\r\n    bytes32 _seed;\r\n    bool _hasAnswer;\r\n    uint _principalReturned;\r\n    uint _completionPrize;\r\n\r\n    constructor(address studentAddress, address classroomAddress, address daiAddress, bytes32 classroomSeed) public {\r\n        _applicationState = ApplicationState.New;\r\n        _studentAddress = studentAddress;\r\n        _classroomAddress = classroomAddress;\r\n        _hasAnswer = false;\r\n        //Kovan address\r\n        daiToken = IERC20(daiAddress);\r\n        _seed = generateSeed(classroomSeed);\r\n    }\r\n\r\n    function generateSeed(bytes32 baseSeed) internal pure returns (bytes32) {\r\n        //TODO:\r\n        return baseSeed^\"RANDOM\";\r\n    }\r\n\r\n    function viewSeed() public view onlyOwner returns (bytes32) {\r\n        return _seed;\r\n    }\r\n\r\n    function applicationState() public view returns (uint) {\r\n        require(_msgSender() == _studentAddress || _msgSender() == owner(), \"StudentApplication: read permission denied\");\r\n        return uint(_applicationState);\r\n    }\r\n\r\n    function payEntryPrice() external {\r\n        require(_applicationState == ApplicationState.New, \"StudentApplication: application is not New\");\r\n        require(daiToken.transferFrom(msg.sender, _classroomAddress, Classroom(_classroomAddress).entryPrice()),\r\n            \"StudentApplication: could not transfer DAI\");\r\n        _applicationState = ApplicationState.Ready;\r\n    }\r\n\r\n    function activate() public onlyOwner {\r\n        require( _applicationState == ApplicationState.New, \"StudentApplication: application is not New\");\r\n        _applicationState = ApplicationState.Active;\r\n    }\r\n\r\n    function expire() public onlyOwner {\r\n        require( _applicationState == ApplicationState.New, \"StudentApplication: application is not New\");\r\n        _applicationState = ApplicationState.Expired;\r\n    }\r\n\r\n    function registerAnswer() public {\r\n       require(_applicationState == ApplicationState.Active, \"StudentApplication: application is not active\");\r\n       IStudentAnswer answer = IStudentAnswer(_msgSender());\r\n       require(answer.getOwner() == _studentAddress, \"StudentApplication: student is not owner of answer\");\r\n       _answer = answer;\r\n       _hasAnswer = true;\r\n    }\r\n\r\n    function getHint1() public view returns (bytes32) {\r\n        require(_hasAnswer, \"StudentApplication: answer not registered\");\r\n        require(_msgSender() == address(_answer), \"StudentApplication: are you cheating?\");\r\n        return bytes32(\"HACKMONEY\") | _seed;\r\n    }\r\n\r\n    function getHint2() public view returns (bytes32) {\r\n        require(_hasAnswer, \"StudentApplication: answer not registered\");\r\n        require(_msgSender() == address(_answer), \"StudentApplication: are you cheating?\");\r\n        return ~bytes32(\"HACKMONEY\") | _seed;\r\n    }\r\n\r\n    function verifyAnswer() public view returns (bool) {\r\n        try _answer.getSeed() returns (bytes32 seed) {\r\n            return seed == _seed;\r\n        }\r\n        catch {\r\n            return false;\r\n        }\r\n    }\r\n\r\n    function registerFinalAnswer() public onlyOwner {\r\n        if (!_hasAnswer) {\r\n            _applicationState = ApplicationState.Empty;\r\n        }\r\n        else {\r\n            if (verifyAnswer()) _applicationState = ApplicationState.Success;\r\n            else _applicationState = ApplicationState.Failed;\r\n        }\r\n    }\r\n\r\n    function accountAllowance(uint principal, uint prize) public onlyOwner {\r\n        require(applicationState() > 2, \"StudentApplication: application not finished yet\");\r\n        _principalReturned = principal;\r\n        _completionPrize = prize;\r\n    }\r\n\r\n    function withdrawAllResults(address to) public {\r\n        withdrawResults(to, _principalReturned + _completionPrize);\r\n    }\r\n\r\n    function withdrawResults(address to, uint val) public {\r\n        require(_msgSender() == _studentAddress, \"StudentApplication: only student can withdraw\");\r\n        require(applicationState() > 2, \"StudentApplication: application not finished\");\r\n        daiToken.transferFrom(_classroomAddress, to, val);\r\n    }\r\n}",
  "sourcePath": "/mnt/e/Repositories/Uproot/contracts/StudentApplication.sol",
  "compiler": {
    "name": "solc",
    "version": "0.6.6+commit.6c089d02.Emscripten.clang"
  },
  "schemaVersion": "3.1.0",
  "updatedAt": "2020-05-02T02:28:42.732Z",
  "devdoc": {
    "methods": {
      "owner()": {
        "details": "Returns the address of the current owner."
      },
      "renounceOwnership()": {
        "details": "Leaves the contract without owner. It will not be possible to call `onlyOwner` functions anymore. Can only be called by the current owner.     * NOTE: Renouncing ownership will leave the contract without an owner, thereby removing any functionality that is only available to the owner."
      },
      "transferOwnership(address)": {
        "details": "Transfers ownership of the contract to a new account (`newOwner`). Can only be called by the current owner."
      }
    }
  },
  "userdoc": {
    "methods": {}
  }
}