{
  "contractName": "StudentApplication",
  "abi": [
    {
      "inputs": [
        {
          "internalType": "address",
          "name": "studentAddress",
          "type": "address"
        },
        {
          "internalType": "address",
          "name": "classroomAddress",
          "type": "address"
        },
        {
          "internalType": "address",
          "name": "daiAddress",
          "type": "address"
        },
        {
          "internalType": "address",
          "name": "challengeAddress",
          "type": "address"
        },
        {
          "internalType": "bytes32",
          "name": "classroomSeed",
          "type": "bytes32"
        }
      ],
      "stateMutability": "nonpayable",
      "type": "constructor"
    },
    {
      "anonymous": false,
      "inputs": [
        {
          "indexed": true,
          "internalType": "address",
          "name": "previousOwner",
          "type": "address"
        },
        {
          "indexed": true,
          "internalType": "address",
          "name": "newOwner",
          "type": "address"
        }
      ],
      "name": "OwnershipTransferred",
      "type": "event"
    },
    {
      "inputs": [],
      "name": "daiToken",
      "outputs": [
        {
          "internalType": "contract IERC20",
          "name": "",
          "type": "address"
        }
      ],
      "stateMutability": "view",
      "type": "function"
    },
    {
      "inputs": [],
      "name": "owner",
      "outputs": [
        {
          "internalType": "address",
          "name": "",
          "type": "address"
        }
      ],
      "stateMutability": "view",
      "type": "function"
    },
    {
      "inputs": [],
      "name": "renounceOwnership",
      "outputs": [],
      "stateMutability": "nonpayable",
      "type": "function"
    },
    {
      "inputs": [
        {
          "internalType": "address",
          "name": "newOwner",
          "type": "address"
        }
      ],
      "name": "transferOwnership",
      "outputs": [],
      "stateMutability": "nonpayable",
      "type": "function"
    },
    {
      "inputs": [],
      "name": "studentAddress",
      "outputs": [
        {
          "internalType": "address",
          "name": "",
          "type": "address"
        }
      ],
      "stateMutability": "view",
      "type": "function"
    },
    {
      "inputs": [],
      "name": "applicationState",
      "outputs": [
        {
          "internalType": "uint256",
          "name": "",
          "type": "uint256"
        }
      ],
      "stateMutability": "view",
      "type": "function"
    },
    {
      "inputs": [],
      "name": "challengeAddress",
      "outputs": [
        {
          "internalType": "address",
          "name": "",
          "type": "address"
        }
      ],
      "stateMutability": "view",
      "type": "function"
    },
    {
      "inputs": [],
      "name": "payEntryPrice",
      "outputs": [],
      "stateMutability": "nonpayable",
      "type": "function"
    },
    {
      "inputs": [],
      "name": "activate",
      "outputs": [],
      "stateMutability": "nonpayable",
      "type": "function"
    },
    {
      "inputs": [],
      "name": "expire",
      "outputs": [],
      "stateMutability": "nonpayable",
      "type": "function"
    },
    {
      "inputs": [],
      "name": "registerAnswer",
      "outputs": [],
      "stateMutability": "nonpayable",
      "type": "function"
    },
    {
      "inputs": [],
      "name": "viewChallengeMaterial",
      "outputs": [
        {
          "internalType": "string",
          "name": "",
          "type": "string"
        }
      ],
      "stateMutability": "view",
      "type": "function"
    },
    {
      "inputs": [
        {
          "internalType": "uint256",
          "name": "index",
          "type": "uint256"
        }
      ],
      "name": "getHint",
      "outputs": [
        {
          "internalType": "bytes32",
          "name": "",
          "type": "bytes32"
        }
      ],
      "stateMutability": "view",
      "type": "function"
    },
    {
      "inputs": [],
      "name": "verifyAnswer",
      "outputs": [
        {
          "internalType": "bool",
          "name": "",
          "type": "bool"
        }
      ],
      "stateMutability": "view",
      "type": "function"
    },
    {
      "inputs": [],
      "name": "registerFinalAnswer",
      "outputs": [],
      "stateMutability": "nonpayable",
      "type": "function"
    },
    {
      "inputs": [
        {
          "internalType": "uint256",
          "name": "principal",
          "type": "uint256"
        },
        {
          "internalType": "uint256",
          "name": "prize",
          "type": "uint256"
        }
      ],
      "name": "accountAllowance",
      "outputs": [],
      "stateMutability": "nonpayable",
      "type": "function"
    },
    {
      "inputs": [
        {
          "internalType": "address",
          "name": "to",
          "type": "address"
        }
      ],
      "name": "withdrawAllResults",
      "outputs": [],
      "stateMutability": "nonpayable",
      "type": "function"
    },
    {
      "inputs": [
        {
          "internalType": "address",
          "name": "to",
          "type": "address"
        },
        {
          "internalType": "uint256",
          "name": "val",
          "type": "uint256"
        }
      ],
      "name": "withdrawResults",
      "outputs": [],
      "stateMutability": "nonpayable",
      "type": "function"
    }
  ],
  "bytecode": "0x60806040523480156200001157600080fd5b506040516200233738038062002337833981810160405260a08110156200003757600080fd5b8101908080519060200190929190805190602001909291908051906020019092919080519060200190929190805190602001909291905050506000620000826200028660201b60201c565b9050806000806101000a81548173ffffffffffffffffffffffffffffffffffffffff021916908373ffffffffffffffffffffffffffffffffffffffff1602179055508073ffffffffffffffffffffffffffffffffffffffff16600073ffffffffffffffffffffffffffffffffffffffff167f8be0079c531659141344cd1fd0a4f28419497f9722a3daafe3b4186f6b6457e060405160405180910390a3506000600360146101000a81548160ff021916908360068111156200014057fe5b021790555084600460006101000a81548173ffffffffffffffffffffffffffffffffffffffff021916908373ffffffffffffffffffffffffffffffffffffffff16021790555083600560006101000a81548173ffffffffffffffffffffffffffffffffffffffff021916908373ffffffffffffffffffffffffffffffffffffffff1602179055506000600760006101000a81548160ff02191690831515021790555082600160006101000a81548173ffffffffffffffffffffffffffffffffffffffff021916908373ffffffffffffffffffffffffffffffffffffffff16021790555062000234816200028e60201b60201c565b60068190555081600260006101000a81548173ffffffffffffffffffffffffffffffffffffffff021916908373ffffffffffffffffffffffffffffffffffffffff1602179055505050505050620002ba565b600033905090565b60007f52414e444f4d000000000000000000000000000000000000000000000000000082189050919050565b61206d80620002ca6000396000f3fe608060405234801561001057600080fd5b50600436106101165760003560e01c806366995a46116100a2578063872d7c7911610071578063872d7c79146103665780638da5cb5b14610370578063b8f31a81146103ba578063be22f54614610404578063f2fde38b1461044e57610116565b806366995a46146102d6578063715018a61461031a57806379599f96146103245780637db9abaf1461032e57610116565b806329d18879116100e957806329d18879146101935780632d24947b146101dd57806337edd7e7146101e75780633db0bfd21461026a5780636587b61e146102b857610116565b80630bb8ebf61461011b5780630f15f4c01461013d5780632344e4ec14610147578063289cf0d214610189575b600080fd5b610123610492565b604051808215151515815260200191505060405180910390f35b610145610549565b005b6101736004803603602081101561015d57600080fd5b81019080803590602001909291905050506106b6565b6040518082815260200191505060405180910390f35b610191610983565b005b61019b610ae6565b604051808273ffffffffffffffffffffffffffffffffffffffff1673ffffffffffffffffffffffffffffffffffffffff16815260200191505060405180910390f35b6101e5610c01565b005b6101ef610ed6565b6040518080602001828103825283818151815260200191508051906020019080838360005b8381101561022f578082015181840152602081019050610214565b50505050905090810190601f16801561025c5780820380516001836020036101000a031916815260200191505b509250505060405180910390f35b6102b66004803603604081101561028057600080fd5b81019080803573ffffffffffffffffffffffffffffffffffffffff1690602001909291908035906020019092919050505061112f565b005b6102c061137b565b6040518082815260200191505060405180910390f35b610318600480360360208110156102ec57600080fd5b81019080803573ffffffffffffffffffffffffffffffffffffffff16906020019092919050505061148e565b005b6103226114a1565b005b61032c611629565b005b6103646004803603604081101561034457600080fd5b810190808035906020019092919080359060200190929190505050611796565b005b61036e6118d1565b005b610378611ae0565b604051808273ffffffffffffffffffffffffffffffffffffffff1673ffffffffffffffffffffffffffffffffffffffff16815260200191505060405180910390f35b6103c2611b09565b604051808273ffffffffffffffffffffffffffffffffffffffff1673ffffffffffffffffffffffffffffffffffffffff16815260200191505060405180910390f35b61040c611bfc565b604051808273ffffffffffffffffffffffffffffffffffffffff1673ffffffffffffffffffffffffffffffffffffffff16815260200191505060405180910390f35b6104906004803603602081101561046457600080fd5b81019080803573ffffffffffffffffffffffffffffffffffffffff169060200190929190505050611c22565b005b6000600360009054906101000a900473ffffffffffffffffffffffffffffffffffffffff1673ffffffffffffffffffffffffffffffffffffffff166339e7357c6040518163ffffffff1660e01b815260040160206040518083038186803b1580156104fc57600080fd5b505afa92505050801561053057506040513d602081101561051c57600080fd5b810190808051906020019092919050505060015b61053d5760009050610546565b60065481149150505b90565b610551611e2f565b73ffffffffffffffffffffffffffffffffffffffff166000809054906101000a900473ffffffffffffffffffffffffffffffffffffffff1673ffffffffffffffffffffffffffffffffffffffff1614610612576040517f08c379a00000000000000000000000000000000000000000000000000000000081526004018080602001828103825260208152602001807f4f776e61626c653a2063616c6c6572206973206e6f7420746865206f776e657281525060200191505060405180910390fd5b6000600681111561061f57fe5b600360149054906101000a900460ff16600681111561063a57fe5b14610690576040517f08c379a000000000000000000000000000000000000000000000000000000000815260040180806020018281038252602a815260200180611f68602a913960400191505060405180910390fd5b6002600360146101000a81548160ff021916908360068111156106af57fe5b0217905550565b6000600760009054906101000a900460ff1661071d576040517f08c379a0000000000000000000000000000000000000000000000000000000008152600401808060200182810382526029815260200180611eb36029913960400191505060405180910390fd5b600360009054906101000a900473ffffffffffffffffffffffffffffffffffffffff1673ffffffffffffffffffffffffffffffffffffffff1661075e611e2f565b73ffffffffffffffffffffffffffffffffffffffff16146107ca576040517f08c379a0000000000000000000000000000000000000000000000000000000008152600401808060200182810382526025815260200180611e8e6025913960400191505060405180910390fd5b600260009054906101000a900473ffffffffffffffffffffffffffffffffffffffff1673ffffffffffffffffffffffffffffffffffffffff16630b435c546040518163ffffffff1660e01b815260040160206040518083038186803b15801561083257600080fd5b505afa158015610846573d6000803e3d6000fd5b505050506040513d602081101561085c57600080fd5b810190808051906020019092919050505082106108c4576040517f08c379a00000000000000000000000000000000000000000000000000000000081526004018080602001828103825260268152602001806120126026913960400191505060405180910390fd5b600260009054906101000a900473ffffffffffffffffffffffffffffffffffffffff1673ffffffffffffffffffffffffffffffffffffffff1663cee0510f836006546040518363ffffffff1660e01b8152600401808381526020018281526020019250505060206040518083038186803b15801561094157600080fd5b505afa158015610955573d6000803e3d6000fd5b505050506040513d602081101561096b57600080fd5b81019080805190602001909291905050509050919050565b61098b611e2f565b73ffffffffffffffffffffffffffffffffffffffff166000809054906101000a900473ffffffffffffffffffffffffffffffffffffffff1673ffffffffffffffffffffffffffffffffffffffff1614610a4c576040517f08c379a00000000000000000000000000000000000000000000000000000000081526004018080602001828103825260208152602001807f4f776e61626c653a2063616c6c6572206973206e6f7420746865206f776e657281525060200191505060405180910390fd5b600760009054906101000a900460ff16610a89576005600360146101000a81548160ff02191690836006811115610a7f57fe5b0217905550610ae4565b610a91610492565b15610abe5760038060146101000a81548160ff02191690836006811115610ab457fe5b0217905550610ae3565b6004600360146101000a81548160ff02191690836006811115610add57fe5b02179055505b5b565b6000600460009054906101000a900473ffffffffffffffffffffffffffffffffffffffff1673ffffffffffffffffffffffffffffffffffffffff16610b29611e2f565b73ffffffffffffffffffffffffffffffffffffffff161480610b845750610b4e611ae0565b73ffffffffffffffffffffffffffffffffffffffff16610b6c611e2f565b73ffffffffffffffffffffffffffffffffffffffff16145b610bd9576040517f08c379a000000000000000000000000000000000000000000000000000000000815260040180806020018281038252602a815260200180611fe8602a913960400191505060405180910390fd5b600260009054906101000a900473ffffffffffffffffffffffffffffffffffffffff16905090565b60006006811115610c0e57fe5b600360149054906101000a900460ff166006811115610c2957fe5b14610c7f576040517f08c379a000000000000000000000000000000000000000000000000000000000815260040180806020018281038252602a815260200180611f68602a913960400191505060405180910390fd5b600160009054906101000a900473ffffffffffffffffffffffffffffffffffffffff1673ffffffffffffffffffffffffffffffffffffffff166323b872dd33600560009054906101000a900473ffffffffffffffffffffffffffffffffffffffff16600560009054906101000a900473ffffffffffffffffffffffffffffffffffffffff1673ffffffffffffffffffffffffffffffffffffffff1663f745adfc6040518163ffffffff1660e01b815260040160206040518083038186803b158015610d4957600080fd5b505afa158015610d5d573d6000803e3d6000fd5b505050506040513d6020811015610d7357600080fd5b81019080805190602001909291905050506040518463ffffffff1660e01b8152600401808473ffffffffffffffffffffffffffffffffffffffff1673ffffffffffffffffffffffffffffffffffffffff1681526020018373ffffffffffffffffffffffffffffffffffffffff1673ffffffffffffffffffffffffffffffffffffffff1681526020018281526020019350505050602060405180830381600087803b158015610e2057600080fd5b505af1158015610e34573d6000803e3d6000fd5b505050506040513d6020811015610e4a57600080fd5b8101908080519060200190929190505050610eb0576040517f08c379a000000000000000000000000000000000000000000000000000000000815260040180806020018281038252602a815260200180611f92602a913960400191505060405180910390fd5b6001600360146101000a81548160ff02191690836006811115610ecf57fe5b0217905550565b6060600460009054906101000a900473ffffffffffffffffffffffffffffffffffffffff1673ffffffffffffffffffffffffffffffffffffffff16610f19611e2f565b73ffffffffffffffffffffffffffffffffffffffff161480610f745750610f3e611ae0565b73ffffffffffffffffffffffffffffffffffffffff16610f5c611e2f565b73ffffffffffffffffffffffffffffffffffffffff16145b610fc9576040517f08c379a000000000000000000000000000000000000000000000000000000000815260040180806020018281038252602a815260200180611fe8602a913960400191505060405180910390fd5b600260009054906101000a900473ffffffffffffffffffffffffffffffffffffffff1673ffffffffffffffffffffffffffffffffffffffff1663724465436040518163ffffffff1660e01b815260040160006040518083038186803b15801561103157600080fd5b505afa158015611045573d6000803e3d6000fd5b505050506040513d6000823e3d601f19601f82011682018060405250602081101561106f57600080fd5b810190808051604051939291908464010000000082111561108f57600080fd5b838201915060208201858111156110a557600080fd5b82518660018202830111640100000000821117156110c257600080fd5b8083526020830192505050908051906020019080838360005b838110156110f65780820151818401526020810190506110db565b50505050905090810190601f1680156111235780820380516001836020036101000a031916815260200191505b50604052505050905090565b600460009054906101000a900473ffffffffffffffffffffffffffffffffffffffff1673ffffffffffffffffffffffffffffffffffffffff16611170611e2f565b73ffffffffffffffffffffffffffffffffffffffff16146111dc576040517f08c379a000000000000000000000000000000000000000000000000000000000815260040180806020018281038252602d815260200180611edc602d913960400191505060405180910390fd5b60026111e661137b565b1161123c576040517f08c379a000000000000000000000000000000000000000000000000000000000815260040180806020018281038252602c815260200180611fbc602c913960400191505060405180910390fd5b600160009054906101000a900473ffffffffffffffffffffffffffffffffffffffff1673ffffffffffffffffffffffffffffffffffffffff166323b872dd600560009054906101000a900473ffffffffffffffffffffffffffffffffffffffff1684846040518463ffffffff1660e01b8152600401808473ffffffffffffffffffffffffffffffffffffffff1673ffffffffffffffffffffffffffffffffffffffff1681526020018373ffffffffffffffffffffffffffffffffffffffff1673ffffffffffffffffffffffffffffffffffffffff1681526020018281526020019350505050602060405180830381600087803b15801561133b57600080fd5b505af115801561134f573d6000803e3d6000fd5b505050506040513d602081101561136557600080fd5b8101908080519060200190929190505050505050565b6000600460009054906101000a900473ffffffffffffffffffffffffffffffffffffffff1673ffffffffffffffffffffffffffffffffffffffff166113be611e2f565b73ffffffffffffffffffffffffffffffffffffffff16148061141957506113e3611ae0565b73ffffffffffffffffffffffffffffffffffffffff16611401611e2f565b73ffffffffffffffffffffffffffffffffffffffff16145b61146e576040517f08c379a000000000000000000000000000000000000000000000000000000000815260040180806020018281038252602a815260200180611fe8602a913960400191505060405180910390fd5b600360149054906101000a900460ff16600681111561148957fe5b905090565b61149e816009546008540161112f565b50565b6114a9611e2f565b73ffffffffffffffffffffffffffffffffffffffff166000809054906101000a900473ffffffffffffffffffffffffffffffffffffffff1673ffffffffffffffffffffffffffffffffffffffff161461156a576040517f08c379a00000000000000000000000000000000000000000000000000000000081526004018080602001828103825260208152602001807f4f776e61626c653a2063616c6c6572206973206e6f7420746865206f776e657281525060200191505060405180910390fd5b600073ffffffffffffffffffffffffffffffffffffffff166000809054906101000a900473ffffffffffffffffffffffffffffffffffffffff1673ffffffffffffffffffffffffffffffffffffffff167f8be0079c531659141344cd1fd0a4f28419497f9722a3daafe3b4186f6b6457e060405160405180910390a360008060006101000a81548173ffffffffffffffffffffffffffffffffffffffff021916908373ffffffffffffffffffffffffffffffffffffffff160217905550565b611631611e2f565b73ffffffffffffffffffffffffffffffffffffffff166000809054906101000a900473ffffffffffffffffffffffffffffffffffffffff1673ffffffffffffffffffffffffffffffffffffffff16146116f2576040517f08c379a00000000000000000000000000000000000000000000000000000000081526004018080602001828103825260208152602001807f4f776e61626c653a2063616c6c6572206973206e6f7420746865206f776e657281525060200191505060405180910390fd5b600060068111156116ff57fe5b600360149054906101000a900460ff16600681111561171a57fe5b14611770576040517f08c379a000000000000000000000000000000000000000000000000000000000815260040180806020018281038252602a815260200180611f68602a913960400191505060405180910390fd5b6006600360146101000a81548160ff0219169083600681111561178f57fe5b0217905550565b61179e611e2f565b73ffffffffffffffffffffffffffffffffffffffff166000809054906101000a900473ffffffffffffffffffffffffffffffffffffffff1673ffffffffffffffffffffffffffffffffffffffff161461185f576040517f08c379a00000000000000000000000000000000000000000000000000000000081526004018080602001828103825260208152602001807f4f776e61626c653a2063616c6c6572206973206e6f7420746865206f776e657281525060200191505060405180910390fd5b600261186961137b565b116118bf576040517f08c379a0000000000000000000000000000000000000000000000000000000008152600401808060200182810382526030815260200180611e386030913960400191505060405180910390fd5b81600881905550806009819055505050565b600260068111156118de57fe5b600360149054906101000a900460ff1660068111156118f957fe5b1461194f576040517f08c379a000000000000000000000000000000000000000000000000000000000815260040180806020018281038252602d815260200180611f3b602d913960400191505060405180910390fd5b6000611959611e2f565b9050600460009054906101000a900473ffffffffffffffffffffffffffffffffffffffff1673ffffffffffffffffffffffffffffffffffffffff168173ffffffffffffffffffffffffffffffffffffffff1663893d20e86040518163ffffffff1660e01b815260040160206040518083038186803b1580156119da57600080fd5b505afa1580156119ee573d6000803e3d6000fd5b505050506040513d6020811015611a0457600080fd5b810190808051906020019092919050505073ffffffffffffffffffffffffffffffffffffffff1614611a81576040517f08c379a0000000000000000000000000000000000000000000000000000000008152600401808060200182810382526032815260200180611f096032913960400191505060405180910390fd5b80600360006101000a81548173ffffffffffffffffffffffffffffffffffffffff021916908373ffffffffffffffffffffffffffffffffffffffff1602179055506001600760006101000a81548160ff02191690831515021790555050565b60008060009054906101000a900473ffffffffffffffffffffffffffffffffffffffff16905090565b6000611b13611e2f565b73ffffffffffffffffffffffffffffffffffffffff166000809054906101000a900473ffffffffffffffffffffffffffffffffffffffff1673ffffffffffffffffffffffffffffffffffffffff1614611bd4576040517f08c379a00000000000000000000000000000000000000000000000000000000081526004018080602001828103825260208152602001807f4f776e61626c653a2063616c6c6572206973206e6f7420746865206f776e657281525060200191505060405180910390fd5b600460009054906101000a900473ffffffffffffffffffffffffffffffffffffffff16905090565b600160009054906101000a900473ffffffffffffffffffffffffffffffffffffffff1681565b611c2a611e2f565b73ffffffffffffffffffffffffffffffffffffffff166000809054906101000a900473ffffffffffffffffffffffffffffffffffffffff1673ffffffffffffffffffffffffffffffffffffffff1614611ceb576040517f08c379a00000000000000000000000000000000000000000000000000000000081526004018080602001828103825260208152602001807f4f776e61626c653a2063616c6c6572206973206e6f7420746865206f776e657281525060200191505060405180910390fd5b600073ffffffffffffffffffffffffffffffffffffffff168173ffffffffffffffffffffffffffffffffffffffff161415611d71576040517f08c379a0000000000000000000000000000000000000000000000000000000008152600401808060200182810382526026815260200180611e686026913960400191505060405180910390fd5b8073ffffffffffffffffffffffffffffffffffffffff166000809054906101000a900473ffffffffffffffffffffffffffffffffffffffff1673ffffffffffffffffffffffffffffffffffffffff167f8be0079c531659141344cd1fd0a4f28419497f9722a3daafe3b4186f6b6457e060405160405180910390a3806000806101000a81548173ffffffffffffffffffffffffffffffffffffffff021916908373ffffffffffffffffffffffffffffffffffffffff16021790555050565b60003390509056fe53747564656e744170706c69636174696f6e3a206170706c69636174696f6e206e6f742066696e6973686564207965744f776e61626c653a206e6577206f776e657220697320746865207a65726f206164647265737353747564656e744170706c69636174696f6e3a2061726520796f75206368656174696e673f53747564656e744170706c69636174696f6e3a20616e73776572206e6f74207265676973746572656453747564656e744170706c69636174696f6e3a206f6e6c792073747564656e742063616e20776974686472617753747564656e744170706c69636174696f6e3a2073747564656e74206973206e6f74206f776e6572206f6620616e7377657253747564656e744170706c69636174696f6e3a206170706c69636174696f6e206973206e6f742061637469766553747564656e744170706c69636174696f6e3a206170706c69636174696f6e206973206e6f74204e657753747564656e744170706c69636174696f6e3a20636f756c64206e6f74207472616e736665722044414953747564656e744170706c69636174696f6e3a206170706c69636174696f6e206e6f742066696e697368656453747564656e744170706c69636174696f6e3a2072656164207065726d697373696f6e2064656e69656453747564656e744170706c69636174696f6e3a2068696e74206e6f7420617661696c61626c65a26469706673582212201b8b9ba3cf7b94fd160958d8f8e6c763790379678dc77ddcfc3e77d3d4f20fd064736f6c63430006060033",
  "immutableReferences": {},
  "source": "pragma solidity 0.6.6;\r\n\r\nimport \"@openzeppelin/contracts/math/SafeMath.sol\";\r\nimport \"@openzeppelin/contracts/access/AccessControl.sol\";\r\nimport \"@openzeppelin/contracts/access/Ownable.sol\";\r\nimport \"@openzeppelin/contracts/token/ERC20/IERC20.sol\";\r\nimport \"@openzeppelin/contracts/utils/Address.sol\";\r\nimport \"./University.sol\";\r\nimport \"./Student.sol\";\r\nimport \"./Classroom.sol\";\r\nimport \"./IStudentAnswer.sol\";\r\nimport \"./IClassroomChallenge.sol\";\r\n\r\ncontract StudentApplication is Ownable {\r\n    using SafeMath for uint256;\r\n\r\n    IERC20 public daiToken;\r\n    IClassroomChallenge _challenge;\r\n\r\n    enum ApplicationState {\r\n        New,\r\n        Ready,\r\n        Active,\r\n        Success,\r\n        Failed,\r\n        Empty,\r\n        Expired\r\n    }\r\n\r\n    IStudentAnswer _answer;\r\n    ApplicationState _applicationState;\r\n    address _studentAddress;\r\n    address _classroomAddress;\r\n    bytes32 _seed;\r\n    bool _hasAnswer;\r\n    uint _principalReturned;\r\n    uint _completionPrize;\r\n\r\n    constructor(address studentAddress, address classroomAddress, address daiAddress, address challengeAddress, bytes32 classroomSeed) public {\r\n        _applicationState = ApplicationState.New;\r\n        _studentAddress = studentAddress;\r\n        _classroomAddress = classroomAddress;\r\n        _hasAnswer = false;\r\n        //Kovan address\r\n        daiToken = IERC20(daiAddress);\r\n        _seed = generateSeed(classroomSeed);\r\n        _challenge = IClassroomChallenge(challengeAddress);\r\n    }\r\n\r\n    function generateSeed(bytes32 baseSeed) internal pure returns (bytes32) {\r\n        //TODO:\r\n        return baseSeed^\"RANDOM\";\r\n    }\r\n\r\n    function studentAddress() public view onlyOwner returns (address) {\r\n        return _studentAddress;\r\n    }\r\n\r\n    function applicationState() public view returns (uint) {\r\n        require(_msgSender() == _studentAddress || _msgSender() == owner(), \"StudentApplication: read permission denied\");\r\n        return uint(_applicationState);\r\n    }\r\n\r\n    function challengeAddress() public view returns (address) {\r\n        require(_msgSender() == _studentAddress || _msgSender() == owner(), \"StudentApplication: read permission denied\");\r\n        return address(_challenge);\r\n    }\r\n\r\n    function payEntryPrice() external {\r\n        require(_applicationState == ApplicationState.New, \"StudentApplication: application is not New\");\r\n        require(daiToken.transferFrom(msg.sender, _classroomAddress, Classroom(_classroomAddress).entryPrice()),\r\n            \"StudentApplication: could not transfer DAI\");\r\n        _applicationState = ApplicationState.Ready;\r\n    }\r\n\r\n    function activate() public onlyOwner {\r\n        require( _applicationState == ApplicationState.New, \"StudentApplication: application is not New\");\r\n        _applicationState = ApplicationState.Active;\r\n    }\r\n\r\n    function expire() public onlyOwner {\r\n        require( _applicationState == ApplicationState.New, \"StudentApplication: application is not New\");\r\n        _applicationState = ApplicationState.Expired;\r\n    }\r\n\r\n    function registerAnswer() public {\r\n       require(_applicationState == ApplicationState.Active, \"StudentApplication: application is not active\");\r\n       IStudentAnswer answer = IStudentAnswer(_msgSender());\r\n       require(answer.getOwner() == _studentAddress, \"StudentApplication: student is not owner of answer\");\r\n       _answer = answer;\r\n       _hasAnswer = true;\r\n    }\r\n\r\n    function viewChallengeMaterial() public view returns (string memory) {\r\n        require(_msgSender() == _studentAddress || _msgSender() == owner(), \"StudentApplication: read permission denied\");\r\n        return _challenge.viewMaterial();\r\n    }\r\n\r\n    function getHint(uint index) public view returns (bytes32) {\r\n        require(_hasAnswer, \"StudentApplication: answer not registered\");\r\n        require(_msgSender() == address(_answer), \"StudentApplication: are you cheating?\");\r\n        require(index < _challenge.hintsCount(), \"StudentApplication: hint not available\");\r\n        return _challenge.getHint(index, _seed);\r\n    }\r\n\r\n    function verifyAnswer() public view returns (bool) {\r\n        try _answer.getSeed() returns (bytes32 seed) {\r\n            return seed == _seed;\r\n        }\r\n        catch {\r\n            return false;\r\n        }\r\n    }\r\n\r\n    function registerFinalAnswer() public onlyOwner {\r\n        if (!_hasAnswer) {\r\n            _applicationState = ApplicationState.Empty;\r\n        }\r\n        else {\r\n            if (verifyAnswer()) _applicationState = ApplicationState.Success;\r\n            else _applicationState = ApplicationState.Failed;\r\n        }\r\n    }\r\n\r\n    function accountAllowance(uint principal, uint prize) public onlyOwner {\r\n        require(applicationState() > 2, \"StudentApplication: application not finished yet\");\r\n        _principalReturned = principal;\r\n        _completionPrize = prize;\r\n    }\r\n\r\n    function withdrawAllResults(address to) public {\r\n        withdrawResults(to, _principalReturned + _completionPrize);\r\n    }\r\n\r\n    function withdrawResults(address to, uint val) public {\r\n        require(_msgSender() == _studentAddress, \"StudentApplication: only student can withdraw\");\r\n        require(applicationState() > 2, \"StudentApplication: application not finished\");\r\n        daiToken.transferFrom(_classroomAddress, to, val);\r\n    }\r\n}",
  "sourcePath": "/mnt/e/Repositories/Uproot/contracts/StudentApplication.sol",
  "compiler": {
    "name": "solc",
    "version": "0.6.6+commit.6c089d02.Emscripten.clang"
  },
  "schemaVersion": "3.1.0",
  "updatedAt": "2020-05-02T23:52:45.649Z",
  "devdoc": {
    "methods": {
      "owner()": {
        "details": "Returns the address of the current owner."
      },
      "renounceOwnership()": {
        "details": "Leaves the contract without owner. It will not be possible to call `onlyOwner` functions anymore. Can only be called by the current owner.     * NOTE: Renouncing ownership will leave the contract without an owner, thereby removing any functionality that is only available to the owner."
      },
      "transferOwnership(address)": {
        "details": "Transfers ownership of the contract to a new account (`newOwner`). Can only be called by the current owner."
      }
    }
  },
  "userdoc": {
    "methods": {}
  }
}