{
  "contractName": "Student",
  "abi": [
    {
      "inputs": [
        {
          "internalType": "bytes32",
          "name": "name",
          "type": "bytes32"
        },
        {
          "internalType": "address",
          "name": "universityAddress",
          "type": "address"
        }
      ],
      "stateMutability": "nonpayable",
      "type": "constructor"
    },
    {
      "anonymous": false,
      "inputs": [
        {
          "indexed": true,
          "internalType": "address",
          "name": "previousOwner",
          "type": "address"
        },
        {
          "indexed": true,
          "internalType": "address",
          "name": "newOwner",
          "type": "address"
        }
      ],
      "name": "OwnershipTransferred",
      "type": "event"
    },
    {
      "anonymous": false,
      "inputs": [
        {
          "indexed": true,
          "internalType": "bytes32",
          "name": "role",
          "type": "bytes32"
        },
        {
          "indexed": true,
          "internalType": "address",
          "name": "account",
          "type": "address"
        },
        {
          "indexed": true,
          "internalType": "address",
          "name": "sender",
          "type": "address"
        }
      ],
      "name": "RoleGranted",
      "type": "event"
    },
    {
      "anonymous": false,
      "inputs": [
        {
          "indexed": true,
          "internalType": "bytes32",
          "name": "role",
          "type": "bytes32"
        },
        {
          "indexed": true,
          "internalType": "address",
          "name": "account",
          "type": "address"
        },
        {
          "indexed": true,
          "internalType": "address",
          "name": "sender",
          "type": "address"
        }
      ],
      "name": "RoleRevoked",
      "type": "event"
    },
    {
      "inputs": [],
      "name": "DEFAULT_ADMIN_ROLE",
      "outputs": [
        {
          "internalType": "bytes32",
          "name": "",
          "type": "bytes32"
        }
      ],
      "stateMutability": "view",
      "type": "function"
    },
    {
      "inputs": [],
      "name": "MODIFY_SCORE_ROLE",
      "outputs": [
        {
          "internalType": "bytes32",
          "name": "",
          "type": "bytes32"
        }
      ],
      "stateMutability": "view",
      "type": "function"
    },
    {
      "inputs": [],
      "name": "READ_SCORE_ROLE",
      "outputs": [
        {
          "internalType": "bytes32",
          "name": "",
          "type": "bytes32"
        }
      ],
      "stateMutability": "view",
      "type": "function"
    },
    {
      "inputs": [],
      "name": "cToken",
      "outputs": [
        {
          "internalType": "contract CERC20",
          "name": "",
          "type": "address"
        }
      ],
      "stateMutability": "view",
      "type": "function"
    },
    {
      "inputs": [],
      "name": "daiToken",
      "outputs": [
        {
          "internalType": "contract IERC20",
          "name": "",
          "type": "address"
        }
      ],
      "stateMutability": "view",
      "type": "function"
    },
    {
      "inputs": [
        {
          "internalType": "bytes32",
          "name": "role",
          "type": "bytes32"
        }
      ],
      "name": "getRoleAdmin",
      "outputs": [
        {
          "internalType": "bytes32",
          "name": "",
          "type": "bytes32"
        }
      ],
      "stateMutability": "view",
      "type": "function"
    },
    {
      "inputs": [
        {
          "internalType": "bytes32",
          "name": "role",
          "type": "bytes32"
        },
        {
          "internalType": "uint256",
          "name": "index",
          "type": "uint256"
        }
      ],
      "name": "getRoleMember",
      "outputs": [
        {
          "internalType": "address",
          "name": "",
          "type": "address"
        }
      ],
      "stateMutability": "view",
      "type": "function"
    },
    {
      "inputs": [
        {
          "internalType": "bytes32",
          "name": "role",
          "type": "bytes32"
        }
      ],
      "name": "getRoleMemberCount",
      "outputs": [
        {
          "internalType": "uint256",
          "name": "",
          "type": "uint256"
        }
      ],
      "stateMutability": "view",
      "type": "function"
    },
    {
      "inputs": [
        {
          "internalType": "bytes32",
          "name": "role",
          "type": "bytes32"
        },
        {
          "internalType": "address",
          "name": "account",
          "type": "address"
        }
      ],
      "name": "grantRole",
      "outputs": [],
      "stateMutability": "nonpayable",
      "type": "function"
    },
    {
      "inputs": [
        {
          "internalType": "bytes32",
          "name": "role",
          "type": "bytes32"
        },
        {
          "internalType": "address",
          "name": "account",
          "type": "address"
        }
      ],
      "name": "hasRole",
      "outputs": [
        {
          "internalType": "bool",
          "name": "",
          "type": "bool"
        }
      ],
      "stateMutability": "view",
      "type": "function"
    },
    {
      "inputs": [],
      "name": "owner",
      "outputs": [
        {
          "internalType": "address",
          "name": "",
          "type": "address"
        }
      ],
      "stateMutability": "view",
      "type": "function"
    },
    {
      "inputs": [],
      "name": "renounceOwnership",
      "outputs": [],
      "stateMutability": "nonpayable",
      "type": "function"
    },
    {
      "inputs": [
        {
          "internalType": "bytes32",
          "name": "role",
          "type": "bytes32"
        },
        {
          "internalType": "address",
          "name": "account",
          "type": "address"
        }
      ],
      "name": "renounceRole",
      "outputs": [],
      "stateMutability": "nonpayable",
      "type": "function"
    },
    {
      "inputs": [
        {
          "internalType": "bytes32",
          "name": "role",
          "type": "bytes32"
        },
        {
          "internalType": "address",
          "name": "account",
          "type": "address"
        }
      ],
      "name": "revokeRole",
      "outputs": [],
      "stateMutability": "nonpayable",
      "type": "function"
    },
    {
      "inputs": [
        {
          "internalType": "address",
          "name": "newOwner",
          "type": "address"
        }
      ],
      "name": "transferOwnership",
      "outputs": [],
      "stateMutability": "nonpayable",
      "type": "function"
    },
    {
      "inputs": [],
      "name": "name",
      "outputs": [
        {
          "internalType": "bytes32",
          "name": "",
          "type": "bytes32"
        }
      ],
      "stateMutability": "view",
      "type": "function"
    },
    {
      "inputs": [
        {
          "internalType": "bytes32",
          "name": "val",
          "type": "bytes32"
        }
      ],
      "name": "changeName",
      "outputs": [],
      "stateMutability": "nonpayable",
      "type": "function"
    },
    {
      "inputs": [],
      "name": "score",
      "outputs": [
        {
          "internalType": "int32",
          "name": "",
          "type": "int32"
        }
      ],
      "stateMutability": "view",
      "type": "function"
    },
    {
      "inputs": [
        {
          "internalType": "int32",
          "name": "val",
          "type": "int32"
        }
      ],
      "name": "addScore",
      "outputs": [],
      "stateMutability": "nonpayable",
      "type": "function"
    },
    {
      "inputs": [
        {
          "internalType": "int32",
          "name": "val",
          "type": "int32"
        }
      ],
      "name": "subScore",
      "outputs": [],
      "stateMutability": "nonpayable",
      "type": "function"
    },
    {
      "inputs": [
        {
          "internalType": "address",
          "name": "classroomAddress",
          "type": "address"
        }
      ],
      "name": "applyToClassroom",
      "outputs": [],
      "stateMutability": "nonpayable",
      "type": "function"
    },
    {
      "inputs": [],
      "name": "removeFromMyClassroom",
      "outputs": [],
      "stateMutability": "nonpayable",
      "type": "function"
    },
    {
      "inputs": [
        {
          "internalType": "address",
          "name": "classroom",
          "type": "address"
        },
        {
          "internalType": "address",
          "name": "to",
          "type": "address"
        }
      ],
      "name": "withdrawAllResultsFromClassroom",
      "outputs": [],
      "stateMutability": "nonpayable",
      "type": "function"
    },
    {
      "inputs": [
        {
          "internalType": "address",
          "name": "classroom",
          "type": "address"
        },
        {
          "internalType": "address",
          "name": "to",
          "type": "address"
        },
        {
          "internalType": "uint256",
          "name": "val",
          "type": "uint256"
        }
      ],
      "name": "withdrawResultsFromClassroom",
      "outputs": [],
      "stateMutability": "nonpayable",
      "type": "function"
    },
    {
      "inputs": [
        {
          "internalType": "address",
          "name": "application",
          "type": "address"
        },
        {
          "internalType": "address",
          "name": "to",
          "type": "address"
        }
      ],
      "name": "withdrawAllResultsFromApplication",
      "outputs": [],
      "stateMutability": "nonpayable",
      "type": "function"
    },
    {
      "inputs": [
        {
          "internalType": "address",
          "name": "application",
          "type": "address"
        },
        {
          "internalType": "address",
          "name": "to",
          "type": "address"
        },
        {
          "internalType": "uint256",
          "name": "val",
          "type": "uint256"
        }
      ],
      "name": "withdrawResultsFromApplication",
      "outputs": [],
      "stateMutability": "nonpayable",
      "type": "function"
    },
    {
      "inputs": [
        {
          "internalType": "address",
          "name": "applicationAddr",
          "type": "address"
        },
        {
          "internalType": "bytes32",
          "name": "cName",
          "type": "bytes32"
        },
        {
          "internalType": "uint24",
          "name": "cCut",
          "type": "uint24"
        },
        {
          "internalType": "uint24",
          "name": "cPCut",
          "type": "uint24"
        },
        {
          "internalType": "int32",
          "name": "minScore",
          "type": "int32"
        },
        {
          "internalType": "uint256",
          "name": "entryPrice",
          "type": "uint256"
        },
        {
          "internalType": "uint256",
          "name": "duration",
          "type": "uint256"
        }
      ],
      "name": "requestClassroom",
      "outputs": [],
      "stateMutability": "nonpayable",
      "type": "function"
    }
  ],
  "bytecode": "0x60806040523480156200001157600080fd5b5060405162002d7038038062002d70833981810160405260408110156200003757600080fd5b810190808051906020019092919080519060200190929190505050600062000064620002fc60201b60201c565b9050806000806101000a81548173ffffffffffffffffffffffffffffffffffffffff021916908373ffffffffffffffffffffffffffffffffffffffff1602179055508073ffffffffffffffffffffffffffffffffffffffff16600073ffffffffffffffffffffffffffffffffffffffff167f8be0079c531659141344cd1fd0a4f28419497f9722a3daafe3b4186f6b6457e060405160405180910390a350816002819055506000600560006101000a81548163ffffffff021916908360030b63ffffffff16021790555080600360006101000a81548173ffffffffffffffffffffffffffffffffffffffff021916908373ffffffffffffffffffffffffffffffffffffffff160217905550620001936000801b62000187620002fc60201b60201c565b6200030460201b60201c565b620001e960405180807f524541445f53434f52455f524f4c450000000000000000000000000000000000815250600f0190506040518091039020620001dd620002fc60201b60201c565b6200031a60201b60201c565b6200023060405180807f4d4f444946595f53434f52455f524f4c4500000000000000000000000000000081525060110190506040518091039020826200031a60201b60201c565b8073ffffffffffffffffffffffffffffffffffffffff1662000257620002fc60201b60201c565b73ffffffffffffffffffffffffffffffffffffffff1614620002f457620002ba60405180807f524541445f53434f52455f524f4c450000000000000000000000000000000000815250600f0190506040518091039020826200031a60201b60201c565b620002cf6000801b826200031a60201b60201c565b620002f36000801b620002e7620002fc60201b60201c565b620003be60201b60201c565b5b50506200081c565b600033905090565b6200031682826200046960201b60201c565b5050565b62000351600160008481526020019081526020016000206002015462000345620002fc60201b60201c565b6200050d60201b60201c565b620003a8576040517f08c379a000000000000000000000000000000000000000000000000000000000815260040180806020018281038252602f81526020018062002d12602f913960400191505060405180910390fd5b620003ba82826200046960201b60201c565b5050565b620003ce620002fc60201b60201c565b73ffffffffffffffffffffffffffffffffffffffff168173ffffffffffffffffffffffffffffffffffffffff161462000453576040517f08c379a000000000000000000000000000000000000000000000000000000000815260040180806020018281038252602f81526020018062002d41602f913960400191505060405180910390fd5b6200046582826200054660201b60201c565b5050565b620004988160016000858152602001908152602001600020600001620005ea60201b620020e81790919060201c565b156200050957620004ae620002fc60201b60201c565b73ffffffffffffffffffffffffffffffffffffffff168173ffffffffffffffffffffffffffffffffffffffff16837f2f8788117e7eff1d82e926ec794901d17c78024a50270940304540a733656f0d60405160405180910390a45b5050565b60006200053e82600160008681526020019081526020016000206000016200062260201b620020a31790919060201c565b905092915050565b6200057581600160008581526020019081526020016000206000016200065a60201b620021181790919060201c565b15620005e6576200058b620002fc60201b60201c565b73ffffffffffffffffffffffffffffffffffffffff168173ffffffffffffffffffffffffffffffffffffffff16837ff6391f5c32d9c69d2a47ea670b442974b53935d1edc7fd64eb21e047a839171b60405160405180910390a45b5050565b60006200061a836000018373ffffffffffffffffffffffffffffffffffffffff1660001b6200069260201b60201c565b905092915050565b600062000652836000018373ffffffffffffffffffffffffffffffffffffffff1660001b6200070c60201b60201c565b905092915050565b60006200068a836000018373ffffffffffffffffffffffffffffffffffffffff1660001b6200072f60201b60201c565b905092915050565b6000620006a683836200070c60201b60201c565b6200070157826000018290806001815401808255809150506001900390600052602060002001600090919091909150558260000180549050836001016000848152602001908152602001600020819055506001905062000706565b600090505b92915050565b600080836001016000848152602001908152602001600020541415905092915050565b600080836001016000848152602001908152602001600020549050600081146200081057600060018203905060006001866000018054905003905060008660000182815481106200077c57fe5b90600052602060002001549050808760000184815481106200079a57fe5b9060005260206000200181905550600183018760010160008381526020019081526020016000208190555086600001805480620007d357fe5b6001900381819060005260206000200160009055905586600101600087815260200190815260200160002060009055600194505050505062000816565b60009150505b92915050565b6124e6806200082c6000396000f3fe608060405234801561001057600080fd5b50600436106101a95760003560e01c80638da5cb5b116100f9578063be22f54611610097578063d547741f11610071578063d547741f146107b7578063db4d5e8714610805578063efedc66914610869578063f2fde38b1461088d576101a9565b8063be22f5461461069e578063be812489146106e8578063ca15c87314610775576101a9565b80639fcb17de116100d35780639fcb17de14610573578063a217fddf146105e1578063aa4f38c7146105ff578063ba6019d314610630576101a9565b80638da5cb5b1461044b5780639010d07c1461049557806391d148541461050d576101a9565b806331fb5fde1161016657806369e527da1161014057806369e527da146103ab578063715018a6146103f55780637206f3d6146103ff578063898855ed1461041d576101a9565b806331fb5fde146102e857806336568abe1461032c578063686513501461037a576101a9565b806306fdde03146101ae5780631b99219f146101cc578063222baa3a146101ea578063248a9ca3146101f4578063295869be146102365780632f2ff15d1461029a575b600080fd5b6101b66108d1565b6040518082815260200191505060405180910390f35b6101d46108db565b6040518082815260200191505060405180910390f35b6101f2610914565b005b6102206004803603602081101561020a57600080fd5b8101908080359060200190929190505050610a01565b6040518082815260200191505060405180910390f35b6102986004803603604081101561024c57600080fd5b81019080803573ffffffffffffffffffffffffffffffffffffffff169060200190929190803573ffffffffffffffffffffffffffffffffffffffff169060200190929190505050610a21565b005b6102e6600480360360408110156102b057600080fd5b8101908080359060200190929190803573ffffffffffffffffffffffffffffffffffffffff169060200190929190505050610b78565b005b61032a600480360360208110156102fe57600080fd5b81019080803573ffffffffffffffffffffffffffffffffffffffff169060200190929190505050610c02565b005b6103786004803603604081101561034257600080fd5b8101908080359060200190929190803573ffffffffffffffffffffffffffffffffffffffff169060200190929190505050610eff565b005b6103a96004803603602081101561039057600080fd5b81019080803560030b9060200190929190505050610f98565b005b6103b3611107565b604051808273ffffffffffffffffffffffffffffffffffffffff1673ffffffffffffffffffffffffffffffffffffffff16815260200191505060405180910390f35b6103fd61112d565b005b6104076112b5565b6040518082815260200191505060405180910390f35b6104496004803603602081101561043357600080fd5b81019080803590602001909291905050506112ee565b005b6104536113c1565b604051808273ffffffffffffffffffffffffffffffffffffffff1673ffffffffffffffffffffffffffffffffffffffff16815260200191505060405180910390f35b6104cb600480360360408110156104ab57600080fd5b8101908080359060200190929190803590602001909291905050506113ea565b604051808273ffffffffffffffffffffffffffffffffffffffff1673ffffffffffffffffffffffffffffffffffffffff16815260200191505060405180910390f35b6105596004803603604081101561052357600080fd5b8101908080359060200190929190803573ffffffffffffffffffffffffffffffffffffffff16906020019092919050505061141c565b604051808215151515815260200191505060405180910390f35b6105df6004803603606081101561058957600080fd5b81019080803573ffffffffffffffffffffffffffffffffffffffff169060200190929190803573ffffffffffffffffffffffffffffffffffffffff1690602001909291908035906020019092919050505061144e565b005b6105e96115bb565b6040518082815260200191505060405180910390f35b61062e6004803603602081101561061557600080fd5b81019080803560030b90602001909291905050506115c2565b005b61069c6004803603606081101561064657600080fd5b81019080803573ffffffffffffffffffffffffffffffffffffffff169060200190929190803573ffffffffffffffffffffffffffffffffffffffff16906020019092919080359060200190929190505050611731565b005b6106a661188a565b604051808273ffffffffffffffffffffffffffffffffffffffff1673ffffffffffffffffffffffffffffffffffffffff16815260200191505060405180910390f35b610773600480360360e08110156106fe57600080fd5b81019080803573ffffffffffffffffffffffffffffffffffffffff16906020019092919080359060200190929190803562ffffff169060200190929190803562ffffff169060200190929190803560030b906020019092919080359060200190929190803590602001909291905050506118b0565b005b6107a16004803603602081101561078b57600080fd5b8101908080359060200190929190505050611a85565b6040518082815260200191505060405180910390f35b610803600480360360408110156107cd57600080fd5b8101908080359060200190929190803573ffffffffffffffffffffffffffffffffffffffff169060200190929190505050611aac565b005b6108676004803603604081101561081b57600080fd5b81019080803573ffffffffffffffffffffffffffffffffffffffff169060200190929190803573ffffffffffffffffffffffffffffffffffffffff169060200190929190505050611b36565b005b610871611c9a565b604051808260030b60030b815260200191505060405180910390f35b6108cf600480360360208110156108a357600080fd5b81019080803573ffffffffffffffffffffffffffffffffffffffff169060200190929190505050611d4c565b005b6000600254905090565b60405180807f524541445f53434f52455f524f4c450000000000000000000000000000000000815250600f019050604051809103902081565b60008090505b6004805490508110156109fe5761092f611f59565b73ffffffffffffffffffffffffffffffffffffffff166004828154811061095257fe5b9060005260206000200160009054906101000a900473ffffffffffffffffffffffffffffffffffffffff1673ffffffffffffffffffffffffffffffffffffffff1614156109f1576000600482815481106109a857fe5b9060005260206000200160006101000a81548173ffffffffffffffffffffffffffffffffffffffff021916908373ffffffffffffffffffffffffffffffffffffffff1602179055505b808060010191505061091a565b50565b600060016000838152602001908152602001600020600201549050919050565b610a29611f59565b73ffffffffffffffffffffffffffffffffffffffff166000809054906101000a900473ffffffffffffffffffffffffffffffffffffffff1673ffffffffffffffffffffffffffffffffffffffff1614610aea576040517f08c379a00000000000000000000000000000000000000000000000000000000081526004018080602001828103825260208152602001807f4f776e61626c653a2063616c6c6572206973206e6f7420746865206f776e657281525060200191505060405180910390fd5b610b748273ffffffffffffffffffffffffffffffffffffffff16636e8055a76040518163ffffffff1660e01b815260040160206040518083038186803b158015610b3357600080fd5b505afa158015610b47573d6000803e3d6000fd5b505050506040513d6020811015610b5d57600080fd5b810190808051906020019092919050505082611b36565b5050565b610b9f6001600084815260200190815260200160002060020154610b9a611f59565b61141c565b610bf4576040517f08c379a000000000000000000000000000000000000000000000000000000000815260040180806020018281038252602f81526020018061237a602f913960400191505060405180910390fd5b610bfe8282611f61565b5050565b610c0a611f59565b73ffffffffffffffffffffffffffffffffffffffff166000809054906101000a900473ffffffffffffffffffffffffffffffffffffffff1673ffffffffffffffffffffffffffffffffffffffff1614610ccb576040517f08c379a00000000000000000000000000000000000000000000000000000000081526004018080602001828103825260208152602001807f4f776e61626c653a2063616c6c6572206973206e6f7420746865206f776e657281525060200191505060405180910390fd5b600360009054906101000a900473ffffffffffffffffffffffffffffffffffffffff1673ffffffffffffffffffffffffffffffffffffffff166385dade61826040518263ffffffff1660e01b8152600401808273ffffffffffffffffffffffffffffffffffffffff1673ffffffffffffffffffffffffffffffffffffffff16815260200191505060206040518083038186803b158015610d6a57600080fd5b505afa158015610d7e573d6000803e3d6000fd5b505050506040513d6020811015610d9457600080fd5b8101908080519060200190929190505050610dfa576040517f08c379a00000000000000000000000000000000000000000000000000000000081526004018080602001828103825260298152602001806124886029913960400191505060405180910390fd5b610e3960405180807f524541445f53434f52455f524f4c450000000000000000000000000000000000815250600f019050604051809103902082610b78565b8073ffffffffffffffffffffffffffffffffffffffff16631b9dbc606040518163ffffffff1660e01b8152600401600060405180830381600087803b158015610e8157600080fd5b505af1158015610e95573d6000803e3d6000fd5b505050506004819080600181540180825580915050600190039060005260206000200160009091909190916101000a81548173ffffffffffffffffffffffffffffffffffffffff021916908373ffffffffffffffffffffffffffffffffffffffff16021790555050565b610f07611f59565b73ffffffffffffffffffffffffffffffffffffffff168173ffffffffffffffffffffffffffffffffffffffff1614610f8a576040517f08c379a000000000000000000000000000000000000000000000000000000000815260040180806020018281038252602f815260200180612459602f913960400191505060405180910390fd5b610f948282611ff5565b5050565b610fde60405180807f4d4f444946595f53434f52455f524f4c4500000000000000000000000000000081525060110190506040518091039020610fd9611f59565b61141c565b611033576040517f08c379a000000000000000000000000000000000000000000000000000000000815260040180806020018281038252602e8152602001806123a9602e913960400191505060405180910390fd5b80600560009054906101000a900460030b0360030b600560009054906101000a900460030b60030b136110ce576040517f08c379a000000000000000000000000000000000000000000000000000000000815260040180806020018281038252601c8152602001807f53747564656e743a2062616420677261646573206f766572666c6f770000000081525060200191505060405180910390fd5b80600560008282829054906101000a900460030b0392506101000a81548163ffffffff021916908360030b63ffffffff16021790555050565b600660009054906101000a900473ffffffffffffffffffffffffffffffffffffffff1681565b611135611f59565b73ffffffffffffffffffffffffffffffffffffffff166000809054906101000a900473ffffffffffffffffffffffffffffffffffffffff1673ffffffffffffffffffffffffffffffffffffffff16146111f6576040517f08c379a00000000000000000000000000000000000000000000000000000000081526004018080602001828103825260208152602001807f4f776e61626c653a2063616c6c6572206973206e6f7420746865206f776e657281525060200191505060405180910390fd5b600073ffffffffffffffffffffffffffffffffffffffff166000809054906101000a900473ffffffffffffffffffffffffffffffffffffffff1673ffffffffffffffffffffffffffffffffffffffff167f8be0079c531659141344cd1fd0a4f28419497f9722a3daafe3b4186f6b6457e060405160405180910390a360008060006101000a81548173ffffffffffffffffffffffffffffffffffffffff021916908373ffffffffffffffffffffffffffffffffffffffff160217905550565b60405180807f4d4f444946595f53434f52455f524f4c450000000000000000000000000000008152506011019050604051809103902081565b6112f6611f59565b73ffffffffffffffffffffffffffffffffffffffff166000809054906101000a900473ffffffffffffffffffffffffffffffffffffffff1673ffffffffffffffffffffffffffffffffffffffff16146113b7576040517f08c379a00000000000000000000000000000000000000000000000000000000081526004018080602001828103825260208152602001807f4f776e61626c653a2063616c6c6572206973206e6f7420746865206f776e657281525060200191505060405180910390fd5b8060028190555050565b60008060009054906101000a900473ffffffffffffffffffffffffffffffffffffffff16905090565b6000611414826001600086815260200190815260200160002060000161208990919063ffffffff16565b905092915050565b600061144682600160008681526020019081526020016000206000016120a390919063ffffffff16565b905092915050565b611456611f59565b73ffffffffffffffffffffffffffffffffffffffff166000809054906101000a900473ffffffffffffffffffffffffffffffffffffffff1673ffffffffffffffffffffffffffffffffffffffff1614611517576040517f08c379a00000000000000000000000000000000000000000000000000000000081526004018080602001828103825260208152602001807f4f776e61626c653a2063616c6c6572206973206e6f7420746865206f776e657281525060200191505060405180910390fd5b8273ffffffffffffffffffffffffffffffffffffffff16633db0bfd283836040518363ffffffff1660e01b8152600401808373ffffffffffffffffffffffffffffffffffffffff1673ffffffffffffffffffffffffffffffffffffffff16815260200182815260200192505050600060405180830381600087803b15801561159e57600080fd5b505af11580156115b2573d6000803e3d6000fd5b50505050505050565b6000801b81565b61160860405180807f4d4f444946595f53434f52455f524f4c4500000000000000000000000000000081525060110190506040518091039020611603611f59565b61141c565b61165d576040517f08c379a000000000000000000000000000000000000000000000000000000000815260040180806020018281038252602e8152602001806123a9602e913960400191505060405180910390fd5b80600560009054906101000a900460030b0160030b600560009054906101000a900460030b60030b126116f8576040517f08c379a000000000000000000000000000000000000000000000000000000000815260040180806020018281038252601d8152602001807f53747564656e743a20676f6f6420677261646573206f766572666c6f7700000081525060200191505060405180910390fd5b80600560008282829054906101000a900460030b0192506101000a81548163ffffffff021916908360030b63ffffffff16021790555050565b611739611f59565b73ffffffffffffffffffffffffffffffffffffffff166000809054906101000a900473ffffffffffffffffffffffffffffffffffffffff1673ffffffffffffffffffffffffffffffffffffffff16146117fa576040517f08c379a00000000000000000000000000000000000000000000000000000000081526004018080602001828103825260208152602001807f4f776e61626c653a2063616c6c6572206973206e6f7420746865206f776e657281525060200191505060405180910390fd5b6118858373ffffffffffffffffffffffffffffffffffffffff16636e8055a76040518163ffffffff1660e01b815260040160206040518083038186803b15801561184357600080fd5b505afa158015611857573d6000803e3d6000fd5b505050506040513d602081101561186d57600080fd5b8101908080519060200190929190505050838361144e565b505050565b600560049054906101000a900473ffffffffffffffffffffffffffffffffffffffff1681565b6118b8611f59565b73ffffffffffffffffffffffffffffffffffffffff166000809054906101000a900473ffffffffffffffffffffffffffffffffffffffff1673ffffffffffffffffffffffffffffffffffffffff1614611979576040517f08c379a00000000000000000000000000000000000000000000000000000000081526004018080602001828103825260208152602001807f4f776e61626c653a2063616c6c6572206973206e6f7420746865206f776e657281525060200191505060405180910390fd5b600360009054906101000a900473ffffffffffffffffffffffffffffffffffffffff1673ffffffffffffffffffffffffffffffffffffffff16636d36f22c888888888888886040518863ffffffff1660e01b8152600401808873ffffffffffffffffffffffffffffffffffffffff1673ffffffffffffffffffffffffffffffffffffffff1681526020018781526020018662ffffff1662ffffff1681526020018562ffffff1662ffffff1681526020018460030b60030b8152602001838152602001828152602001975050505050505050600060405180830381600087803b158015611a6457600080fd5b505af1158015611a78573d6000803e3d6000fd5b5050505050505050505050565b6000611aa5600160008481526020019081526020016000206000016120d3565b9050919050565b611ad36001600084815260200190815260200160002060020154611ace611f59565b61141c565b611b28576040517f08c379a00000000000000000000000000000000000000000000000000000000081526004018080602001828103825260308152602001806124296030913960400191505060405180910390fd5b611b328282611ff5565b5050565b611b3e611f59565b73ffffffffffffffffffffffffffffffffffffffff166000809054906101000a900473ffffffffffffffffffffffffffffffffffffffff1673ffffffffffffffffffffffffffffffffffffffff1614611bff576040517f08c379a00000000000000000000000000000000000000000000000000000000081526004018080602001828103825260208152602001807f4f776e61626c653a2063616c6c6572206973206e6f7420746865206f776e657281525060200191505060405180910390fd5b8173ffffffffffffffffffffffffffffffffffffffff166366995a46826040518263ffffffff1660e01b8152600401808273ffffffffffffffffffffffffffffffffffffffff1673ffffffffffffffffffffffffffffffffffffffff168152602001915050600060405180830381600087803b158015611c7e57600080fd5b505af1158015611c92573d6000803e3d6000fd5b505050505050565b6000611ce260405180807f524541445f53434f52455f524f4c450000000000000000000000000000000000815250600f0190506040518091039020611cdd611f59565b61141c565b611d37576040517f08c379a000000000000000000000000000000000000000000000000000000000815260040180806020018281038252602c8152602001806123fd602c913960400191505060405180910390fd5b600560009054906101000a900460030b905090565b611d54611f59565b73ffffffffffffffffffffffffffffffffffffffff166000809054906101000a900473ffffffffffffffffffffffffffffffffffffffff1673ffffffffffffffffffffffffffffffffffffffff1614611e15576040517f08c379a00000000000000000000000000000000000000000000000000000000081526004018080602001828103825260208152602001807f4f776e61626c653a2063616c6c6572206973206e6f7420746865206f776e657281525060200191505060405180910390fd5b600073ffffffffffffffffffffffffffffffffffffffff168173ffffffffffffffffffffffffffffffffffffffff161415611e9b576040517f08c379a00000000000000000000000000000000000000000000000000000000081526004018080602001828103825260268152602001806123d76026913960400191505060405180910390fd5b8073ffffffffffffffffffffffffffffffffffffffff166000809054906101000a900473ffffffffffffffffffffffffffffffffffffffff1673ffffffffffffffffffffffffffffffffffffffff167f8be0079c531659141344cd1fd0a4f28419497f9722a3daafe3b4186f6b6457e060405160405180910390a3806000806101000a81548173ffffffffffffffffffffffffffffffffffffffff021916908373ffffffffffffffffffffffffffffffffffffffff16021790555050565b600033905090565b611f8981600160008581526020019081526020016000206000016120e890919063ffffffff16565b15611ff157611f96611f59565b73ffffffffffffffffffffffffffffffffffffffff168173ffffffffffffffffffffffffffffffffffffffff16837f2f8788117e7eff1d82e926ec794901d17c78024a50270940304540a733656f0d60405160405180910390a45b5050565b61201d816001600085815260200190815260200160002060000161211890919063ffffffff16565b156120855761202a611f59565b73ffffffffffffffffffffffffffffffffffffffff168173ffffffffffffffffffffffffffffffffffffffff16837ff6391f5c32d9c69d2a47ea670b442974b53935d1edc7fd64eb21e047a839171b60405160405180910390a45b5050565b60006120988360000183612148565b60001c905092915050565b60006120cb836000018373ffffffffffffffffffffffffffffffffffffffff1660001b6121cb565b905092915050565b60006120e1826000016121ee565b9050919050565b6000612110836000018373ffffffffffffffffffffffffffffffffffffffff1660001b6121ff565b905092915050565b6000612140836000018373ffffffffffffffffffffffffffffffffffffffff1660001b61226f565b905092915050565b6000818360000180549050116121a9576040517f08c379a00000000000000000000000000000000000000000000000000000000081526004018080602001828103825260228152602001806123586022913960400191505060405180910390fd5b8260000182815481106121b857fe5b9060005260206000200154905092915050565b600080836001016000848152602001908152602001600020541415905092915050565b600081600001805490509050919050565b600061220b83836121cb565b612264578260000182908060018154018082558091505060019003906000526020600020016000909190919091505582600001805490508360010160008481526020019081526020016000208190555060019050612269565b600090505b92915050565b6000808360010160008481526020019081526020016000205490506000811461234b57600060018203905060006001866000018054905003905060008660000182815481106122ba57fe5b90600052602060002001549050808760000184815481106122d757fe5b906000526020600020018190555060018301876001016000838152602001908152602001600020819055508660000180548061230f57fe5b60019003818190600052602060002001600090559055866001016000878152602001908152602001600020600090556001945050505050612351565b60009150505b9291505056fe456e756d657261626c655365743a20696e646578206f7574206f6620626f756e6473416363657373436f6e74726f6c3a2073656e646572206d75737420626520616e2061646d696e20746f206772616e7453747564656e743a2063616c6c657220646f65736e27742068617665204d4f444946595f53434f52455f524f4c454f776e61626c653a206e6577206f776e657220697320746865207a65726f206164647265737353747564656e743a2063616c6c657220646f65736e2774206861766520524541445f53434f52455f524f4c45416363657373436f6e74726f6c3a2073656e646572206d75737420626520616e2061646d696e20746f207265766f6b65416363657373436f6e74726f6c3a2063616e206f6e6c792072656e6f756e636520726f6c657320666f722073656c6653747564656e743a2061646472657373206973206e6f7420612076616c696420636c617373726f6f6da2646970667358221220eb1571db704e7e21f5f473198f5d608ba01fcaef777a70c1fc06d1a0272cde9764736f6c63430006060033416363657373436f6e74726f6c3a2073656e646572206d75737420626520616e2061646d696e20746f206772616e74416363657373436f6e74726f6c3a2063616e206f6e6c792072656e6f756e636520726f6c657320666f722073656c66",
  "immutableReferences": {},
  "source": "pragma solidity 0.6.6;\r\n\r\nimport \"@openzeppelin/contracts/math/SafeMath.sol\";\r\nimport \"@openzeppelin/contracts/access/AccessControl.sol\";\r\nimport \"@openzeppelin/contracts/access/Ownable.sol\";\r\nimport \"@openzeppelin/contracts/token/ERC20/IERC20.sol\";\r\nimport \"@openzeppelin/contracts/utils/Address.sol\";\r\nimport \"./Classroom.sol\";\r\nimport \"./University.sol\";\r\nimport \"./StudentApplication.sol\";\r\n\r\ncontract Student is Ownable, AccessControl {\r\n    using SafeMath for uint256;\r\n\r\n    //READ_SCORE_ROLE can read student Score\r\n    bytes32 public constant READ_SCORE_ROLE = keccak256(\"READ_SCORE_ROLE\");\r\n    //MODIFY_SCORE_ROLE can read student Score\r\n    bytes32 public constant MODIFY_SCORE_ROLE = keccak256(\"MODIFY_SCORE_ROLE\");\r\n\r\n    bytes32 _name;\r\n    University _university;\r\n    address[] _classroomAddress;\r\n    int32 _score;\r\n\r\n    IERC20 public daiToken;\r\n    CERC20 public cToken;\r\n\r\n    constructor(bytes32 name, address universityAddress) public {\r\n        _name = name;\r\n        _score = 0;\r\n        _university = University(universityAddress);\r\n        _setupRole(DEFAULT_ADMIN_ROLE, _msgSender());\r\n        grantRole(READ_SCORE_ROLE, _msgSender());\r\n        grantRole(MODIFY_SCORE_ROLE, universityAddress);\r\n        if (_msgSender() != universityAddress) {\r\n            grantRole(READ_SCORE_ROLE, universityAddress);\r\n            grantRole(DEFAULT_ADMIN_ROLE, universityAddress);\r\n            renounceRole(DEFAULT_ADMIN_ROLE, _msgSender());\r\n        }\r\n    }\r\n\r\n    function name() public view returns (bytes32){\r\n        return _name;\r\n    }\r\n\r\n    function changeName(bytes32 val) public onlyOwner {\r\n        _name = val;\r\n    }\r\n\r\n    function score() public view returns(int32) {\r\n        require(hasRole(READ_SCORE_ROLE, _msgSender()), \"Student: caller doesn't have READ_SCORE_ROLE\");\r\n        return _score;\r\n    }\r\n\r\n    function addScore(int32 val) public  {\r\n        require(hasRole(MODIFY_SCORE_ROLE, _msgSender()), \"Student: caller doesn't have MODIFY_SCORE_ROLE\");\r\n        require(_score < _score + val, \"Student: good grades overflow\");\r\n        _score += val;\r\n    }\r\n\r\n    function subScore(int32 val) public  {\r\n        require(hasRole(MODIFY_SCORE_ROLE, _msgSender()), \"Student: caller doesn't have MODIFY_SCORE_ROLE\");\r\n        require(_score > _score - val, \"Student: bad grades overflow\");\r\n        _score -= val;\r\n    }\r\n\r\n    function applyToClassroom(address classroomAddress) public onlyOwner {\r\n        require(_university.isValidClassroom(classroomAddress), \"Student: address is not a valid classroom\");\r\n        grantRole(READ_SCORE_ROLE, classroomAddress);\r\n        Classroom(classroomAddress).studentApply();\r\n        _classroomAddress.push(classroomAddress);\r\n    }\r\n\r\n    // not a feature but it is something a teacher would sometimes want to do\r\n    function removeFromMyClassroom() public {\r\n        for (uint i = 0; i < _classroomAddress.length; i++) {\r\n            if (_classroomAddress[i] == _msgSender()) _classroomAddress[i] = address(0);\r\n        }\r\n    }\r\n\r\n    function withdrawAllResultsFromClassroom(address classroom, address to) public onlyOwner {\r\n        withdrawAllResultsFromApplication(Classroom(classroom).viewMyApplication(), to);\r\n    }\r\n\r\n    function withdrawResultsFromClassroom(address classroom, address to, uint val) public onlyOwner {\r\n        withdrawResultsFromApplication(Classroom(classroom).viewMyApplication(), to, val);\r\n    }\r\n\r\n    function withdrawAllResultsFromApplication(address application, address to) public onlyOwner {\r\n        StudentApplication(application).withdrawAllResults(to);\r\n    }\r\n\r\n    function withdrawResultsFromApplication(address application, address to, uint val) public onlyOwner {\r\n        StudentApplication(application).withdrawResults(to, val);\r\n    }\r\n\r\n    function requestClassroom(address applicationAddr,\r\n            bytes32 cName, uint24 cCut, uint24 cPCut, int32 minScore, uint entryPrice, uint duration) public onlyOwner {\r\n        _university.studentRequestClassroom(applicationAddr, cName, cCut, cPCut, minScore, entryPrice, duration);\r\n    }\r\n}",
  "sourcePath": "/mnt/e/Repositories/Uproot/contracts/Student.sol",
  "compiler": {
    "name": "solc",
    "version": "0.6.6+commit.6c089d02.Emscripten.clang"
  },
  "schemaVersion": "3.1.0",
  "updatedAt": "2020-05-02T19:27:24.753Z",
  "devdoc": {
    "methods": {
      "getRoleAdmin(bytes32)": {
        "details": "Returns the admin role that controls `role`. See {grantRole} and {revokeRole}.     * To change a role's admin, use {_setRoleAdmin}."
      },
      "getRoleMember(bytes32,uint256)": {
        "details": "Returns one of the accounts that have `role`. `index` must be a value between 0 and {getRoleMemberCount}, non-inclusive.     * Role bearers are not sorted in any particular way, and their ordering may change at any point.     * WARNING: When using {getRoleMember} and {getRoleMemberCount}, make sure you perform all queries on the same block. See the following https://forum.openzeppelin.com/t/iterating-over-elements-on-enumerableset-in-openzeppelin-contracts/2296[forum post] for more information."
      },
      "getRoleMemberCount(bytes32)": {
        "details": "Returns the number of accounts that have `role`. Can be used together with {getRoleMember} to enumerate all bearers of a role."
      },
      "grantRole(bytes32,address)": {
        "details": "Grants `role` to `account`.     * If `account` had not been already granted `role`, emits a {RoleGranted} event.     * Requirements:     * - the caller must have ``role``'s admin role."
      },
      "hasRole(bytes32,address)": {
        "details": "Returns `true` if `account` has been granted `role`."
      },
      "owner()": {
        "details": "Returns the address of the current owner."
      },
      "renounceOwnership()": {
        "details": "Leaves the contract without owner. It will not be possible to call `onlyOwner` functions anymore. Can only be called by the current owner.     * NOTE: Renouncing ownership will leave the contract without an owner, thereby removing any functionality that is only available to the owner."
      },
      "renounceRole(bytes32,address)": {
        "details": "Revokes `role` from the calling account.     * Roles are often managed via {grantRole} and {revokeRole}: this function's purpose is to provide a mechanism for accounts to lose their privileges if they are compromised (such as when a trusted device is misplaced).     * If the calling account had been granted `role`, emits a {RoleRevoked} event.     * Requirements:     * - the caller must be `account`."
      },
      "revokeRole(bytes32,address)": {
        "details": "Revokes `role` from `account`.     * If `account` had been granted `role`, emits a {RoleRevoked} event.     * Requirements:     * - the caller must have ``role``'s admin role."
      },
      "transferOwnership(address)": {
        "details": "Transfers ownership of the contract to a new account (`newOwner`). Can only be called by the current owner."
      }
    }
  },
  "userdoc": {
    "methods": {}
  }
}