{
  "contractName": "StudentApplication",
  "abi": [
    {
      "inputs": [
        {
          "internalType": "address",
          "name": "studentAddress",
          "type": "address"
        },
        {
          "internalType": "address",
          "name": "classroomAddress",
          "type": "address"
        },
        {
          "internalType": "address",
          "name": "daiAddress",
          "type": "address"
        },
        {
          "internalType": "address",
          "name": "challengeAddress",
          "type": "address"
        },
        {
          "internalType": "bytes32",
          "name": "seed",
          "type": "bytes32"
        }
      ],
      "stateMutability": "nonpayable",
      "type": "constructor"
    },
    {
      "anonymous": false,
      "inputs": [
        {
          "indexed": true,
          "internalType": "address",
          "name": "previousOwner",
          "type": "address"
        },
        {
          "indexed": true,
          "internalType": "address",
          "name": "newOwner",
          "type": "address"
        }
      ],
      "name": "OwnershipTransferred",
      "type": "event"
    },
    {
      "inputs": [],
      "name": "daiToken",
      "outputs": [
        {
          "internalType": "contract IERC20",
          "name": "",
          "type": "address"
        }
      ],
      "stateMutability": "view",
      "type": "function"
    },
    {
      "inputs": [],
      "name": "owner",
      "outputs": [
        {
          "internalType": "address",
          "name": "",
          "type": "address"
        }
      ],
      "stateMutability": "view",
      "type": "function"
    },
    {
      "inputs": [],
      "name": "renounceOwnership",
      "outputs": [],
      "stateMutability": "nonpayable",
      "type": "function"
    },
    {
      "inputs": [
        {
          "internalType": "address",
          "name": "newOwner",
          "type": "address"
        }
      ],
      "name": "transferOwnership",
      "outputs": [],
      "stateMutability": "nonpayable",
      "type": "function"
    },
    {
      "inputs": [],
      "name": "studentAddress",
      "outputs": [
        {
          "internalType": "address",
          "name": "",
          "type": "address"
        }
      ],
      "stateMutability": "view",
      "type": "function"
    },
    {
      "inputs": [],
      "name": "applicationState",
      "outputs": [
        {
          "internalType": "uint256",
          "name": "",
          "type": "uint256"
        }
      ],
      "stateMutability": "view",
      "type": "function"
    },
    {
      "inputs": [],
      "name": "challengeAddress",
      "outputs": [
        {
          "internalType": "address",
          "name": "",
          "type": "address"
        }
      ],
      "stateMutability": "view",
      "type": "function"
    },
    {
      "inputs": [],
      "name": "payEntryPrice",
      "outputs": [],
      "stateMutability": "nonpayable",
      "type": "function"
    },
    {
      "inputs": [],
      "name": "activate",
      "outputs": [],
      "stateMutability": "nonpayable",
      "type": "function"
    },
    {
      "inputs": [],
      "name": "expire",
      "outputs": [],
      "stateMutability": "nonpayable",
      "type": "function"
    },
    {
      "inputs": [],
      "name": "registerAnswer",
      "outputs": [],
      "stateMutability": "nonpayable",
      "type": "function"
    },
    {
      "inputs": [],
      "name": "viewChallengeMaterial",
      "outputs": [
        {
          "internalType": "string",
          "name": "",
          "type": "string"
        }
      ],
      "stateMutability": "view",
      "type": "function"
    },
    {
      "inputs": [
        {
          "internalType": "uint256",
          "name": "index",
          "type": "uint256"
        }
      ],
      "name": "getHint",
      "outputs": [
        {
          "internalType": "bytes32",
          "name": "",
          "type": "bytes32"
        }
      ],
      "stateMutability": "view",
      "type": "function"
    },
    {
      "inputs": [],
      "name": "verifyAnswer",
      "outputs": [
        {
          "internalType": "bool",
          "name": "",
          "type": "bool"
        }
      ],
      "stateMutability": "view",
      "type": "function"
    },
    {
      "inputs": [],
      "name": "registerFinalAnswer",
      "outputs": [],
      "stateMutability": "nonpayable",
      "type": "function"
    },
    {
      "inputs": [
        {
          "internalType": "uint256",
          "name": "principal",
          "type": "uint256"
        },
        {
          "internalType": "uint256",
          "name": "prize",
          "type": "uint256"
        }
      ],
      "name": "accountAllowance",
      "outputs": [],
      "stateMutability": "nonpayable",
      "type": "function"
    },
    {
      "inputs": [
        {
          "internalType": "address",
          "name": "to",
          "type": "address"
        }
      ],
      "name": "withdrawAllResults",
      "outputs": [],
      "stateMutability": "nonpayable",
      "type": "function"
    },
    {
      "inputs": [
        {
          "internalType": "address",
          "name": "to",
          "type": "address"
        },
        {
          "internalType": "uint256",
          "name": "val",
          "type": "uint256"
        }
      ],
      "name": "withdrawResults",
      "outputs": [],
      "stateMutability": "nonpayable",
      "type": "function"
    }
  ],
  "bytecode": "0x608060405234801561001057600080fd5b50604051611661380380611661833981810160405260a081101561003357600080fd5b5080516020820151604083015160608401516080909401519293919290919060006100656001600160e01b0361011f16565b600080546001600160a01b0319166001600160a01b0383169081178255604051929350917f8be0079c531659141344cd1fd0a4f28419497f9722a3daafe3b4186f6b6457e0908290a3506003805460ff60a01b19169055600480546001600160a01b03199081166001600160a01b0397881617909155600580548216958716959095179094556007805460ff1916905560018054851693861693909317909255600691909155600280549092169216919091179055610123565b3390565b61152f806101326000396000f3fe608060405234801561001057600080fd5b50600436106101365760003560e01c806366995a46116100b2578063872d7c7911610081578063b8f31a8111610066578063b8f31a81146102de578063be22f546146102e6578063f2fde38b146102ee57610136565b8063872d7c79146102ce5780638da5cb5b146102d657610136565b806366995a4614610275578063715018a61461029b57806379599f96146102a35780637db9abaf146102ab57610136565b806329d188791161010957806337edd7e7116100ee57806337edd7e7146101c45780633db0bfd2146102415780636587b61e1461026d57610136565b806329d18879146101985780632d24947b146101bc57610136565b80630bb8ebf61461013b5780630f15f4c0146101575780632344e4ec14610161578063289cf0d214610190575b600080fd5b610143610314565b604080519115158252519081900360200190f35b61015f6103ad565b005b61017e6004803603602081101561017757600080fd5b503561048a565b60408051918252519081900360200190f35b61015f61067f565b6101a0610754565b604080516001600160a01b039092168252519081900360200190f35b61015f6107ea565b6101cc6109c8565b6040805160208082528351818301528351919283929083019185019080838360005b838110156102065781810151838201526020016101ee565b50505050905090810190601f1680156102335780820380516001836020036101000a031916815260200191505b509250505060405180910390f35b61015f6004803603604081101561025757600080fd5b506001600160a01b038135169060200135610b8e565b61017e610cd7565b61015f6004803603602081101561028b57600080fd5b50356001600160a01b0316610d7a565b61015f610d8d565b61015f610e4e565b61015f600480360360408110156102c157600080fd5b5080359060200135610f28565b61015f610fe3565b6101a061114a565b6101a0611159565b6101a06111d5565b61015f6004803603602081101561030457600080fd5b50356001600160a01b03166111e4565b600354604080517f39e7357c00000000000000000000000000000000000000000000000000000000815290516000926001600160a01b0316916339e7357c916004808301926020929190829003018186803b15801561037257600080fd5b505afa92505050801561039757506040513d602081101561039257600080fd5b505160015b6103a3575060006103aa565b6006541490505b90565b6103b56112fb565b6000546001600160a01b03908116911614610417576040805162461bcd60e51b815260206004820181905260248201527f4f776e61626c653a2063616c6c6572206973206e6f7420746865206f776e6572604482015290519081900360640190fd5b6000600354600160a01b900460ff16600681111561043157fe5b1461046d5760405162461bcd60e51b815260040180806020018281038252602a81526020018061142a602a913960400191505060405180910390fd5b600380546002919060ff60a01b1916600160a01b835b0217905550565b60075460009060ff166104ce5760405162461bcd60e51b815260040180806020018281038252602981526020018061137b6029913960400191505060405180910390fd5b6003546001600160a01b03166104e26112fb565b6001600160a01b0316146105275760405162461bcd60e51b81526004018080602001828103825260258152602001806113566025913960400191505060405180910390fd5b600260009054906101000a90046001600160a01b03166001600160a01b0316630b435c546040518163ffffffff1660e01b815260040160206040518083038186803b15801561057557600080fd5b505afa158015610589573d6000803e3d6000fd5b505050506040513d602081101561059f57600080fd5b505182106105de5760405162461bcd60e51b81526004018080602001828103825260268152602001806114d46026913960400191505060405180910390fd5b600254600654604080517fcee0510f000000000000000000000000000000000000000000000000000000008152600481018690526024810192909252516001600160a01b039092169163cee0510f91604480820192602092909190829003018186803b15801561064d57600080fd5b505afa158015610661573d6000803e3d6000fd5b505050506040513d602081101561067757600080fd5b505192915050565b6106876112fb565b6000546001600160a01b039081169116146106e9576040805162461bcd60e51b815260206004820181905260248201527f4f776e61626c653a2063616c6c6572206973206e6f7420746865206f776e6572604482015290519081900360640190fd5b60075460ff1661071357600380546005919060ff60a01b1916600160a01b835b0217905550610752565b61071b610314565b156107385760038054819060ff60a01b1916600160a01b82610709565b600380546004919060ff60a01b1916600160a01b83610483565b565b6004546000906001600160a01b031661076b6112fb565b6001600160a01b0316148061079f575061078361114a565b6001600160a01b03166107946112fb565b6001600160a01b0316145b6107da5760405162461bcd60e51b815260040180806020018281038252602a8152602001806114aa602a913960400191505060405180910390fd5b506002546001600160a01b031690565b6000600354600160a01b900460ff16600681111561080457fe5b146108405760405162461bcd60e51b815260040180806020018281038252602a81526020018061142a602a913960400191505060405180910390fd5b600154600554604080517ff745adfc00000000000000000000000000000000000000000000000000000000815290516001600160a01b03938416936323b872dd933393911691829163f745adfc916004808301926020929190829003018186803b1580156108ad57600080fd5b505afa1580156108c1573d6000803e3d6000fd5b505050506040513d60208110156108d757600080fd5b5051604080517fffffffff0000000000000000000000000000000000000000000000000000000060e087901b1681526001600160a01b0394851660048201529290931660248301526044820152905160648083019260209291908290030181600087803b15801561094757600080fd5b505af115801561095b573d6000803e3d6000fd5b505050506040513d602081101561097157600080fd5b50516109ae5760405162461bcd60e51b815260040180806020018281038252602a815260200180611454602a913960400191505060405180910390fd5b600380546001919060ff60a01b1916600160a01b83610483565b6004546060906001600160a01b03166109df6112fb565b6001600160a01b03161480610a1357506109f761114a565b6001600160a01b0316610a086112fb565b6001600160a01b0316145b610a4e5760405162461bcd60e51b815260040180806020018281038252602a8152602001806114aa602a913960400191505060405180910390fd5b600260009054906101000a90046001600160a01b03166001600160a01b031663724465436040518163ffffffff1660e01b815260040160006040518083038186803b158015610a9c57600080fd5b505afa158015610ab0573d6000803e3d6000fd5b505050506040513d6000823e601f3d908101601f191682016040526020811015610ad957600080fd5b8101908080516040519392919084640100000000821115610af957600080fd5b908301906020820185811115610b0e57600080fd5b8251640100000000811182820188101715610b2857600080fd5b82525081516020918201929091019080838360005b83811015610b55578181015183820152602001610b3d565b50505050905090810190601f168015610b825780820380516001836020036101000a031916815260200191505b50604052505050905090565b6004546001600160a01b0316610ba26112fb565b6001600160a01b031614610be75760405162461bcd60e51b815260040180806020018281038252602d8152602001806113a4602d913960400191505060405180910390fd5b6002610bf1610cd7565b11610c2d5760405162461bcd60e51b815260040180806020018281038252602c81526020018061147e602c913960400191505060405180910390fd5b600154600554604080517f23b872dd0000000000000000000000000000000000000000000000000000000081526001600160a01b039283166004820152858316602482015260448101859052905191909216916323b872dd9160648083019260209291908290030181600087803b158015610ca757600080fd5b505af1158015610cbb573d6000803e3d6000fd5b505050506040513d6020811015610cd157600080fd5b50505050565b6004546000906001600160a01b0316610cee6112fb565b6001600160a01b03161480610d225750610d0661114a565b6001600160a01b0316610d176112fb565b6001600160a01b0316145b610d5d5760405162461bcd60e51b815260040180806020018281038252602a8152602001806114aa602a913960400191505060405180910390fd5b600354600160a01b900460ff166006811115610d7557fe5b905090565b610d8a8160095460085401610b8e565b50565b610d956112fb565b6000546001600160a01b03908116911614610df7576040805162461bcd60e51b815260206004820181905260248201527f4f776e61626c653a2063616c6c6572206973206e6f7420746865206f776e6572604482015290519081900360640190fd5b600080546040516001600160a01b03909116907f8be0079c531659141344cd1fd0a4f28419497f9722a3daafe3b4186f6b6457e0908390a36000805473ffffffffffffffffffffffffffffffffffffffff19169055565b610e566112fb565b6000546001600160a01b03908116911614610eb8576040805162461bcd60e51b815260206004820181905260248201527f4f776e61626c653a2063616c6c6572206973206e6f7420746865206f776e6572604482015290519081900360640190fd5b6000600354600160a01b900460ff166006811115610ed257fe5b14610f0e5760405162461bcd60e51b815260040180806020018281038252602a81526020018061142a602a913960400191505060405180910390fd5b600380546006919060ff60a01b1916600160a01b83610483565b610f306112fb565b6000546001600160a01b03908116911614610f92576040805162461bcd60e51b815260206004820181905260248201527f4f776e61626c653a2063616c6c6572206973206e6f7420746865206f776e6572604482015290519081900360640190fd5b6002610f9c610cd7565b11610fd85760405162461bcd60e51b81526004018080602001828103825260308152602001806113006030913960400191505060405180910390fd5b600891909155600955565b6002600354600160a01b900460ff166006811115610ffd57fe5b146110395760405162461bcd60e51b815260040180806020018281038252602d8152602001806113d1602d913960400191505060405180910390fd5b60006110436112fb565b9050600460009054906101000a90046001600160a01b03166001600160a01b0316816001600160a01b031663893d20e86040518163ffffffff1660e01b815260040160206040518083038186803b15801561109d57600080fd5b505afa1580156110b1573d6000803e3d6000fd5b505050506040513d60208110156110c757600080fd5b50516001600160a01b03161461110e5760405162461bcd60e51b815260040180806020018281038252602c8152602001806113fe602c913960400191505060405180910390fd5b6003805473ffffffffffffffffffffffffffffffffffffffff19166001600160a01b03929092169190911790556007805460ff19166001179055565b6000546001600160a01b031690565b60006111636112fb565b6000546001600160a01b039081169116146111c5576040805162461bcd60e51b815260206004820181905260248201527f4f776e61626c653a2063616c6c6572206973206e6f7420746865206f776e6572604482015290519081900360640190fd5b506004546001600160a01b031690565b6001546001600160a01b031681565b6111ec6112fb565b6000546001600160a01b0390811691161461124e576040805162461bcd60e51b815260206004820181905260248201527f4f776e61626c653a2063616c6c6572206973206e6f7420746865206f776e6572604482015290519081900360640190fd5b6001600160a01b0381166112935760405162461bcd60e51b81526004018080602001828103825260268152602001806113306026913960400191505060405180910390fd5b600080546040516001600160a01b03808516939216917f8be0079c531659141344cd1fd0a4f28419497f9722a3daafe3b4186f6b6457e091a36000805473ffffffffffffffffffffffffffffffffffffffff19166001600160a01b0392909216919091179055565b339056fe53747564656e744170706c69636174696f6e3a206170706c69636174696f6e206e6f742066696e6973686564207965744f776e61626c653a206e6577206f776e657220697320746865207a65726f206164647265737353747564656e744170706c69636174696f6e3a2061726520796f75206368656174696e673f53747564656e744170706c69636174696f6e3a20616e73776572206e6f74207265676973746572656453747564656e744170706c69636174696f6e3a206f6e6c792073747564656e742063616e20776974686472617753747564656e744170706c69636174696f6e3a206170706c69636174696f6e206973206e6f742061637469766553747564656e744170706c69636174696f6e3a206765744f776e657220726573756c742069732077726f6e6753747564656e744170706c69636174696f6e3a206170706c69636174696f6e206973206e6f74204e657753747564656e744170706c69636174696f6e3a20636f756c64206e6f74207472616e736665722044414953747564656e744170706c69636174696f6e3a206170706c69636174696f6e206e6f742066696e697368656453747564656e744170706c69636174696f6e3a2072656164207065726d697373696f6e2064656e69656453747564656e744170706c69636174696f6e3a2068696e74206e6f7420617661696c61626c65a2646970667358221220ffd404023d7322a2a7fe66290717c1846594157f97e03a9c4b4f223c5de5294064736f6c63430006060033",
  "immutableReferences": {},
  "source": "pragma solidity 0.6.6;\r\n\r\nimport \"@openzeppelin/contracts/math/SafeMath.sol\";\r\nimport \"@openzeppelin/contracts/access/AccessControl.sol\";\r\nimport \"@openzeppelin/contracts/access/Ownable.sol\";\r\nimport \"@openzeppelin/contracts/token/ERC20/IERC20.sol\";\r\nimport \"@openzeppelin/contracts/utils/Address.sol\";\r\nimport \"./University.sol\";\r\nimport \"./Student.sol\";\r\nimport \"./Classroom.sol\";\r\nimport \"./IStudentAnswer.sol\";\r\nimport \"./IClassroomChallenge.sol\";\r\n\r\n\r\ncontract StudentApplication is Ownable {\r\n    using SafeMath for uint256;\r\n\r\n    IERC20 public daiToken;\r\n    IClassroomChallenge _challenge;\r\n\r\n    enum ApplicationState {New, Ready, Active, Success, Failed, Empty, Expired}\r\n\r\n    IStudentAnswer _answer;\r\n    ApplicationState _applicationState;\r\n    address _studentAddress;\r\n    address _classroomAddress;\r\n    bytes32 _seed;\r\n    bool _hasAnswer;\r\n    uint256 _principalReturned;\r\n    uint256 _completionPrize;\r\n\r\n    constructor(\r\n        address studentAddress,\r\n        address classroomAddress,\r\n        address daiAddress,\r\n        address challengeAddress,\r\n        bytes32 seed\r\n    ) public {\r\n        _applicationState = ApplicationState.New;\r\n        _studentAddress = studentAddress;\r\n        _classroomAddress = classroomAddress;\r\n        _hasAnswer = false;\r\n        daiToken = IERC20(daiAddress);\r\n        _seed = seed;\r\n        _challenge = IClassroomChallenge(challengeAddress);\r\n    }\r\n\r\n    function studentAddress() public view onlyOwner returns (address) {\r\n        return _studentAddress;\r\n    }\r\n\r\n    function applicationState() public view returns (uint256) {\r\n        require(\r\n            _msgSender() == _studentAddress || _msgSender() == owner(),\r\n            \"StudentApplication: read permission denied\"\r\n        );\r\n        return uint256(_applicationState);\r\n    }\r\n\r\n    function challengeAddress() public view returns (address) {\r\n        require(\r\n            _msgSender() == _studentAddress || _msgSender() == owner(),\r\n            \"StudentApplication: read permission denied\"\r\n        );\r\n        return address(_challenge);\r\n    }\r\n\r\n    function payEntryPrice() external {\r\n        require(\r\n            _applicationState == ApplicationState.New,\r\n            \"StudentApplication: application is not New\"\r\n        );\r\n        require(\r\n            daiToken.transferFrom(\r\n                msg.sender,\r\n                _classroomAddress,\r\n                Classroom(_classroomAddress).entryPrice()\r\n            ),\r\n            \"StudentApplication: could not transfer DAI\"\r\n        );\r\n        _applicationState = ApplicationState.Ready;\r\n    }\r\n\r\n    function activate() public onlyOwner {\r\n        require(\r\n            _applicationState == ApplicationState.New,\r\n            \"StudentApplication: application is not New\"\r\n        );\r\n        _applicationState = ApplicationState.Active;\r\n    }\r\n\r\n    function expire() public onlyOwner {\r\n        require(\r\n            _applicationState == ApplicationState.New,\r\n            \"StudentApplication: application is not New\"\r\n        );\r\n        _applicationState = ApplicationState.Expired;\r\n    }\r\n\r\n    function registerAnswer() public {\r\n        require(\r\n            _applicationState == ApplicationState.Active,\r\n            \"StudentApplication: application is not active\"\r\n        );\r\n        IStudentAnswer answer = IStudentAnswer(_msgSender());\r\n        require(\r\n            answer.getOwner() == _studentAddress,\r\n            \"StudentApplication: getOwner result is wrong\"\r\n        );\r\n        _answer = answer;\r\n        _hasAnswer = true;\r\n    }\r\n\r\n    function viewChallengeMaterial() public view returns (string memory) {\r\n        require(\r\n            _msgSender() == _studentAddress || _msgSender() == owner(),\r\n            \"StudentApplication: read permission denied\"\r\n        );\r\n        return _challenge.viewMaterial();\r\n    }\r\n\r\n    function getHint(uint256 index) public view returns (bytes32) {\r\n        require(_hasAnswer, \"StudentApplication: answer not registered\");\r\n        require(\r\n            _msgSender() == address(_answer),\r\n            \"StudentApplication: are you cheating?\"\r\n        );\r\n        require(\r\n            index < _challenge.hintsCount(),\r\n            \"StudentApplication: hint not available\"\r\n        );\r\n        return _challenge.getHint(index, _seed);\r\n    }\r\n\r\n    function verifyAnswer() public view returns (bool) {\r\n        try _answer.getSeed() returns (bytes32 seed) {\r\n            return seed == _seed;\r\n        } catch {\r\n            return false;\r\n        }\r\n    }\r\n\r\n    function registerFinalAnswer() public onlyOwner {\r\n        if (!_hasAnswer) {\r\n            _applicationState = ApplicationState.Empty;\r\n        } else {\r\n            if (verifyAnswer()) _applicationState = ApplicationState.Success;\r\n            else _applicationState = ApplicationState.Failed;\r\n        }\r\n    }\r\n\r\n    function accountAllowance(uint256 principal, uint256 prize)\r\n        public\r\n        onlyOwner\r\n    {\r\n        require(\r\n            applicationState() > 2,\r\n            \"StudentApplication: application not finished yet\"\r\n        );\r\n        _principalReturned = principal;\r\n        _completionPrize = prize;\r\n    }\r\n\r\n    function withdrawAllResults(address to) public {\r\n        withdrawResults(to, _principalReturned + _completionPrize);\r\n    }\r\n\r\n    function withdrawResults(address to, uint256 val) public {\r\n        require(\r\n            _msgSender() == _studentAddress,\r\n            \"StudentApplication: only student can withdraw\"\r\n        );\r\n        require(\r\n            applicationState() > 2,\r\n            \"StudentApplication: application not finished\"\r\n        );\r\n        daiToken.transferFrom(_classroomAddress, to, val);\r\n    }\r\n}\r\n",
  "sourcePath": "/mnt/e/Repositories/Uproot/contracts/StudentApplication.sol",
  "compiler": {
    "name": "solc",
    "version": "0.6.6+commit.6c089d02.Emscripten.clang"
  },
  "schemaVersion": "3.1.0",
  "updatedAt": "2020-05-04T03:18:02.587Z",
  "devdoc": {
    "methods": {
      "owner()": {
        "details": "Returns the address of the current owner."
      },
      "renounceOwnership()": {
        "details": "Leaves the contract without owner. It will not be possible to call `onlyOwner` functions anymore. Can only be called by the current owner.     * NOTE: Renouncing ownership will leave the contract without an owner, thereby removing any functionality that is only available to the owner."
      },
      "transferOwnership(address)": {
        "details": "Transfers ownership of the contract to a new account (`newOwner`). Can only be called by the current owner."
      }
    }
  },
  "userdoc": {
    "methods": {}
  }
}