{
  "contractName": "Student",
  "abi": [
    {
      "inputs": [
        {
          "internalType": "bytes32",
          "name": "name",
          "type": "bytes32"
        },
        {
          "internalType": "address",
          "name": "universityAddress",
          "type": "address"
        }
      ],
      "stateMutability": "nonpayable",
      "type": "constructor"
    },
    {
      "anonymous": false,
      "inputs": [
        {
          "indexed": true,
          "internalType": "address",
          "name": "previousOwner",
          "type": "address"
        },
        {
          "indexed": true,
          "internalType": "address",
          "name": "newOwner",
          "type": "address"
        }
      ],
      "name": "OwnershipTransferred",
      "type": "event"
    },
    {
      "anonymous": false,
      "inputs": [
        {
          "indexed": true,
          "internalType": "bytes32",
          "name": "role",
          "type": "bytes32"
        },
        {
          "indexed": true,
          "internalType": "address",
          "name": "account",
          "type": "address"
        },
        {
          "indexed": true,
          "internalType": "address",
          "name": "sender",
          "type": "address"
        }
      ],
      "name": "RoleGranted",
      "type": "event"
    },
    {
      "anonymous": false,
      "inputs": [
        {
          "indexed": true,
          "internalType": "bytes32",
          "name": "role",
          "type": "bytes32"
        },
        {
          "indexed": true,
          "internalType": "address",
          "name": "account",
          "type": "address"
        },
        {
          "indexed": true,
          "internalType": "address",
          "name": "sender",
          "type": "address"
        }
      ],
      "name": "RoleRevoked",
      "type": "event"
    },
    {
      "inputs": [],
      "name": "DEFAULT_ADMIN_ROLE",
      "outputs": [
        {
          "internalType": "bytes32",
          "name": "",
          "type": "bytes32"
        }
      ],
      "stateMutability": "view",
      "type": "function"
    },
    {
      "inputs": [],
      "name": "MODIFY_SCORE_ROLE",
      "outputs": [
        {
          "internalType": "bytes32",
          "name": "",
          "type": "bytes32"
        }
      ],
      "stateMutability": "view",
      "type": "function"
    },
    {
      "inputs": [],
      "name": "READ_SCORE_ROLE",
      "outputs": [
        {
          "internalType": "bytes32",
          "name": "",
          "type": "bytes32"
        }
      ],
      "stateMutability": "view",
      "type": "function"
    },
    {
      "inputs": [],
      "name": "cToken",
      "outputs": [
        {
          "internalType": "contract CERC20",
          "name": "",
          "type": "address"
        }
      ],
      "stateMutability": "view",
      "type": "function"
    },
    {
      "inputs": [],
      "name": "daiToken",
      "outputs": [
        {
          "internalType": "contract IERC20",
          "name": "",
          "type": "address"
        }
      ],
      "stateMutability": "view",
      "type": "function"
    },
    {
      "inputs": [
        {
          "internalType": "bytes32",
          "name": "role",
          "type": "bytes32"
        }
      ],
      "name": "getRoleAdmin",
      "outputs": [
        {
          "internalType": "bytes32",
          "name": "",
          "type": "bytes32"
        }
      ],
      "stateMutability": "view",
      "type": "function"
    },
    {
      "inputs": [
        {
          "internalType": "bytes32",
          "name": "role",
          "type": "bytes32"
        },
        {
          "internalType": "uint256",
          "name": "index",
          "type": "uint256"
        }
      ],
      "name": "getRoleMember",
      "outputs": [
        {
          "internalType": "address",
          "name": "",
          "type": "address"
        }
      ],
      "stateMutability": "view",
      "type": "function"
    },
    {
      "inputs": [
        {
          "internalType": "bytes32",
          "name": "role",
          "type": "bytes32"
        }
      ],
      "name": "getRoleMemberCount",
      "outputs": [
        {
          "internalType": "uint256",
          "name": "",
          "type": "uint256"
        }
      ],
      "stateMutability": "view",
      "type": "function"
    },
    {
      "inputs": [
        {
          "internalType": "bytes32",
          "name": "role",
          "type": "bytes32"
        },
        {
          "internalType": "address",
          "name": "account",
          "type": "address"
        }
      ],
      "name": "grantRole",
      "outputs": [],
      "stateMutability": "nonpayable",
      "type": "function"
    },
    {
      "inputs": [
        {
          "internalType": "bytes32",
          "name": "role",
          "type": "bytes32"
        },
        {
          "internalType": "address",
          "name": "account",
          "type": "address"
        }
      ],
      "name": "hasRole",
      "outputs": [
        {
          "internalType": "bool",
          "name": "",
          "type": "bool"
        }
      ],
      "stateMutability": "view",
      "type": "function"
    },
    {
      "inputs": [],
      "name": "owner",
      "outputs": [
        {
          "internalType": "address",
          "name": "",
          "type": "address"
        }
      ],
      "stateMutability": "view",
      "type": "function"
    },
    {
      "inputs": [],
      "name": "renounceOwnership",
      "outputs": [],
      "stateMutability": "nonpayable",
      "type": "function"
    },
    {
      "inputs": [
        {
          "internalType": "bytes32",
          "name": "role",
          "type": "bytes32"
        },
        {
          "internalType": "address",
          "name": "account",
          "type": "address"
        }
      ],
      "name": "renounceRole",
      "outputs": [],
      "stateMutability": "nonpayable",
      "type": "function"
    },
    {
      "inputs": [
        {
          "internalType": "bytes32",
          "name": "role",
          "type": "bytes32"
        },
        {
          "internalType": "address",
          "name": "account",
          "type": "address"
        }
      ],
      "name": "revokeRole",
      "outputs": [],
      "stateMutability": "nonpayable",
      "type": "function"
    },
    {
      "inputs": [
        {
          "internalType": "address",
          "name": "newOwner",
          "type": "address"
        }
      ],
      "name": "transferOwnership",
      "outputs": [],
      "stateMutability": "nonpayable",
      "type": "function"
    },
    {
      "inputs": [],
      "name": "name",
      "outputs": [
        {
          "internalType": "bytes32",
          "name": "",
          "type": "bytes32"
        }
      ],
      "stateMutability": "view",
      "type": "function"
    },
    {
      "inputs": [
        {
          "internalType": "bytes32",
          "name": "val",
          "type": "bytes32"
        }
      ],
      "name": "changeName",
      "outputs": [],
      "stateMutability": "nonpayable",
      "type": "function"
    },
    {
      "inputs": [],
      "name": "score",
      "outputs": [
        {
          "internalType": "int32",
          "name": "",
          "type": "int32"
        }
      ],
      "stateMutability": "view",
      "type": "function"
    },
    {
      "inputs": [
        {
          "internalType": "int32",
          "name": "val",
          "type": "int32"
        }
      ],
      "name": "addScore",
      "outputs": [],
      "stateMutability": "nonpayable",
      "type": "function"
    },
    {
      "inputs": [
        {
          "internalType": "int32",
          "name": "val",
          "type": "int32"
        }
      ],
      "name": "subtractScore",
      "outputs": [],
      "stateMutability": "nonpayable",
      "type": "function"
    },
    {
      "inputs": [
        {
          "internalType": "address",
          "name": "classroomAddress",
          "type": "address"
        }
      ],
      "name": "applyToClassroom",
      "outputs": [],
      "stateMutability": "nonpayable",
      "type": "function"
    },
    {
      "inputs": [],
      "name": "removeFromMyClassroom",
      "outputs": [],
      "stateMutability": "nonpayable",
      "type": "function"
    }
  ],
  "bytecode": "0x60806040523480156200001157600080fd5b50604051620022a1380380620022a1833981810160405260408110156200003757600080fd5b8101908080519060200190929190805190602001909291905050506000620000646200035160201b60201c565b9050806000806101000a81548173ffffffffffffffffffffffffffffffffffffffff021916908373ffffffffffffffffffffffffffffffffffffffff1602179055508073ffffffffffffffffffffffffffffffffffffffff16600073ffffffffffffffffffffffffffffffffffffffff167f8be0079c531659141344cd1fd0a4f28419497f9722a3daafe3b4186f6b6457e060405160405180910390a350816002819055506000600560006101000a81548163ffffffff021916908360030b63ffffffff16021790555080600360006101000a81548173ffffffffffffffffffffffffffffffffffffffff021916908373ffffffffffffffffffffffffffffffffffffffff160217905550620001936000801b620001876200035160201b60201c565b6200035960201b60201c565b620001e960405180807f524541445f53434f52455f524f4c450000000000000000000000000000000000815250600f0190506040518091039020620001dd6200035160201b60201c565b6200036f60201b60201c565b6200023060405180807f4d4f444946595f53434f52455f524f4c4500000000000000000000000000000081525060110190506040518091039020826200036f60201b60201c565b8073ffffffffffffffffffffffffffffffffffffffff16620002576200035160201b60201c565b73ffffffffffffffffffffffffffffffffffffffff1614620002f457620002ba60405180807f524541445f53434f52455f524f4c450000000000000000000000000000000000815250600f0190506040518091039020826200036f60201b60201c565b620002cf6000801b826200036f60201b60201c565b620002f36000801b620002e76200035160201b60201c565b6200041360201b60201c565b5b734f96fe3b7a6cf9725f59d353f723c1bdb64ca6aa600560046101000a81548173ffffffffffffffffffffffffffffffffffffffff021916908373ffffffffffffffffffffffffffffffffffffffff160217905550505062000871565b600033905090565b6200036b8282620004be60201b60201c565b5050565b620003a660016000848152602001908152602001600020600201546200039a6200035160201b60201c565b6200056260201b60201c565b620003fd576040517f08c379a000000000000000000000000000000000000000000000000000000000815260040180806020018281038252602f81526020018062002243602f913960400191505060405180910390fd5b6200040f8282620004be60201b60201c565b5050565b620004236200035160201b60201c565b73ffffffffffffffffffffffffffffffffffffffff168173ffffffffffffffffffffffffffffffffffffffff1614620004a8576040517f08c379a000000000000000000000000000000000000000000000000000000000815260040180806020018281038252602f81526020018062002272602f913960400191505060405180910390fd5b620004ba82826200059b60201b60201c565b5050565b620004ed81600160008581526020019081526020016000206000016200063f60201b620015c41790919060201c565b156200055e57620005036200035160201b60201c565b73ffffffffffffffffffffffffffffffffffffffff168173ffffffffffffffffffffffffffffffffffffffff16837f2f8788117e7eff1d82e926ec794901d17c78024a50270940304540a733656f0d60405160405180910390a45b5050565b60006200059382600160008681526020019081526020016000206000016200067760201b6200157f1790919060201c565b905092915050565b620005ca8160016000858152602001908152602001600020600001620006af60201b620015f41790919060201c565b156200063b57620005e06200035160201b60201c565b73ffffffffffffffffffffffffffffffffffffffff168173ffffffffffffffffffffffffffffffffffffffff16837ff6391f5c32d9c69d2a47ea670b442974b53935d1edc7fd64eb21e047a839171b60405160405180910390a45b5050565b60006200066f836000018373ffffffffffffffffffffffffffffffffffffffff1660001b620006e760201b60201c565b905092915050565b6000620006a7836000018373ffffffffffffffffffffffffffffffffffffffff1660001b6200076160201b60201c565b905092915050565b6000620006df836000018373ffffffffffffffffffffffffffffffffffffffff1660001b6200078460201b60201c565b905092915050565b6000620006fb83836200076160201b60201c565b620007565782600001829080600181540180825580915050600190039060005260206000200160009091909190915055826000018054905083600101600084815260200190815260200160002081905550600190506200075b565b600090505b92915050565b600080836001016000848152602001908152602001600020541415905092915050565b60008083600101600084815260200190815260200160002054905060008114620008655760006001820390506000600186600001805490500390506000866000018281548110620007d157fe5b9060005260206000200154905080876000018481548110620007ef57fe5b90600052602060002001819055506001830187600101600083815260200190815260200160002081905550866000018054806200082857fe5b600190038181906000526020600020016000905590558660010160008781526020019081526020016000206000905560019450505050506200086b565b60009150505b92915050565b6119c280620008816000396000f3fe608060405234801561001057600080fd5b50600436106101425760003560e01c8063898855ed116100b8578063aa4f38c71161007c578063aa4f38c7146104c6578063be22f546146104f7578063ca15c87314610541578063d547741f14610583578063efedc669146105d1578063f2fde38b146105f557610142565b8063898855ed146103525780638da5cb5b146103805780639010d07c146103ca57806391d1485414610442578063a217fddf146104a857610142565b806331fb5fde1161010a57806331fb5fde1461021d57806336568abe1461026157806369e527da146102af578063715018a6146102f95780637206f3d6146103035780637b53f3ee1461032157610142565b806306fdde03146101475780631b99219f14610165578063222baa3a14610183578063248a9ca31461018d5780632f2ff15d146101cf575b600080fd5b61014f610639565b6040518082815260200191505060405180910390f35b61016d610643565b6040518082815260200191505060405180910390f35b61018b61067c565b005b6101b9600480360360208110156101a357600080fd5b8101908080359060200190929190505050610769565b6040518082815260200191505060405180910390f35b61021b600480360360408110156101e557600080fd5b8101908080359060200190929190803573ffffffffffffffffffffffffffffffffffffffff169060200190929190505050610789565b005b61025f6004803603602081101561023357600080fd5b81019080803573ffffffffffffffffffffffffffffffffffffffff169060200190929190505050610813565b005b6102ad6004803603604081101561027757600080fd5b8101908080359060200190929190803573ffffffffffffffffffffffffffffffffffffffff169060200190929190505050610b10565b005b6102b7610ba9565b604051808273ffffffffffffffffffffffffffffffffffffffff1673ffffffffffffffffffffffffffffffffffffffff16815260200191505060405180910390f35b610301610bcf565b005b61030b610d57565b6040518082815260200191505060405180910390f35b6103506004803603602081101561033757600080fd5b81019080803560030b9060200190929190505050610d90565b005b61037e6004803603602081101561036857600080fd5b8101908080359060200190929190505050610e64565b005b610388610f37565b604051808273ffffffffffffffffffffffffffffffffffffffff1673ffffffffffffffffffffffffffffffffffffffff16815260200191505060405180910390f35b610400600480360360408110156103e057600080fd5b810190808035906020019092919080359060200190929190505050610f60565b604051808273ffffffffffffffffffffffffffffffffffffffff1673ffffffffffffffffffffffffffffffffffffffff16815260200191505060405180910390f35b61048e6004803603604081101561045857600080fd5b8101908080359060200190929190803573ffffffffffffffffffffffffffffffffffffffff169060200190929190505050610f92565b604051808215151515815260200191505060405180910390f35b6104b0610fc4565b6040518082815260200191505060405180910390f35b6104f5600480360360208110156104dc57600080fd5b81019080803560030b9060200190929190505050610fcb565b005b6104ff61109f565b604051808273ffffffffffffffffffffffffffffffffffffffff1673ffffffffffffffffffffffffffffffffffffffff16815260200191505060405180910390f35b61056d6004803603602081101561055757600080fd5b81019080803590602001909291905050506110c5565b6040518082815260200191505060405180910390f35b6105cf6004803603604081101561059957600080fd5b8101908080359060200190929190803573ffffffffffffffffffffffffffffffffffffffff1690602001909291905050506110ec565b005b6105d9611176565b604051808260030b60030b815260200191505060405180910390f35b6106376004803603602081101561060b57600080fd5b81019080803573ffffffffffffffffffffffffffffffffffffffff169060200190929190505050611228565b005b6000600254905090565b60405180807f524541445f53434f52455f524f4c450000000000000000000000000000000000815250600f019050604051809103902081565b60008090505b60048054905081101561076657610697611435565b73ffffffffffffffffffffffffffffffffffffffff16600482815481106106ba57fe5b9060005260206000200160009054906101000a900473ffffffffffffffffffffffffffffffffffffffff1673ffffffffffffffffffffffffffffffffffffffff1614156107595760006004828154811061071057fe5b9060005260206000200160006101000a81548173ffffffffffffffffffffffffffffffffffffffff021916908373ffffffffffffffffffffffffffffffffffffffff1602179055505b8080600101915050610682565b50565b600060016000838152602001908152602001600020600201549050919050565b6107b060016000848152602001908152602001600020600201546107ab611435565b610f92565b610805576040517f08c379a000000000000000000000000000000000000000000000000000000000815260040180806020018281038252602f815260200180611856602f913960400191505060405180910390fd5b61080f828261143d565b5050565b61081b611435565b73ffffffffffffffffffffffffffffffffffffffff166000809054906101000a900473ffffffffffffffffffffffffffffffffffffffff1673ffffffffffffffffffffffffffffffffffffffff16146108dc576040517f08c379a00000000000000000000000000000000000000000000000000000000081526004018080602001828103825260208152602001807f4f776e61626c653a2063616c6c6572206973206e6f7420746865206f776e657281525060200191505060405180910390fd5b600360009054906101000a900473ffffffffffffffffffffffffffffffffffffffff1673ffffffffffffffffffffffffffffffffffffffff166385dade61826040518263ffffffff1660e01b8152600401808273ffffffffffffffffffffffffffffffffffffffff1673ffffffffffffffffffffffffffffffffffffffff16815260200191505060206040518083038186803b15801561097b57600080fd5b505afa15801561098f573d6000803e3d6000fd5b505050506040513d60208110156109a557600080fd5b8101908080519060200190929190505050610a0b576040517f08c379a00000000000000000000000000000000000000000000000000000000081526004018080602001828103825260298152602001806119646029913960400191505060405180910390fd5b610a4a60405180807f524541445f53434f52455f524f4c450000000000000000000000000000000000815250600f019050604051809103902082610789565b8073ffffffffffffffffffffffffffffffffffffffff16631b9dbc606040518163ffffffff1660e01b8152600401600060405180830381600087803b158015610a9257600080fd5b505af1158015610aa6573d6000803e3d6000fd5b505050506004819080600181540180825580915050600190039060005260206000200160009091909190916101000a81548173ffffffffffffffffffffffffffffffffffffffff021916908373ffffffffffffffffffffffffffffffffffffffff16021790555050565b610b18611435565b73ffffffffffffffffffffffffffffffffffffffff168173ffffffffffffffffffffffffffffffffffffffff1614610b9b576040517f08c379a000000000000000000000000000000000000000000000000000000000815260040180806020018281038252602f815260200180611935602f913960400191505060405180910390fd5b610ba582826114d1565b5050565b600660009054906101000a900473ffffffffffffffffffffffffffffffffffffffff1681565b610bd7611435565b73ffffffffffffffffffffffffffffffffffffffff166000809054906101000a900473ffffffffffffffffffffffffffffffffffffffff1673ffffffffffffffffffffffffffffffffffffffff1614610c98576040517f08c379a00000000000000000000000000000000000000000000000000000000081526004018080602001828103825260208152602001807f4f776e61626c653a2063616c6c6572206973206e6f7420746865206f776e657281525060200191505060405180910390fd5b600073ffffffffffffffffffffffffffffffffffffffff166000809054906101000a900473ffffffffffffffffffffffffffffffffffffffff1673ffffffffffffffffffffffffffffffffffffffff167f8be0079c531659141344cd1fd0a4f28419497f9722a3daafe3b4186f6b6457e060405160405180910390a360008060006101000a81548173ffffffffffffffffffffffffffffffffffffffff021916908373ffffffffffffffffffffffffffffffffffffffff160217905550565b60405180807f4d4f444946595f53434f52455f524f4c450000000000000000000000000000008152506011019050604051809103902081565b610dd660405180807f4d4f444946595f53434f52455f524f4c4500000000000000000000000000000081525060110190506040518091039020610dd1611435565b610f92565b610e2b576040517f08c379a000000000000000000000000000000000000000000000000000000000815260040180806020018281038252602e815260200180611885602e913960400191505060405180910390fd5b80600560008282829054906101000a900460030b0392506101000a81548163ffffffff021916908360030b63ffffffff16021790555050565b610e6c611435565b73ffffffffffffffffffffffffffffffffffffffff166000809054906101000a900473ffffffffffffffffffffffffffffffffffffffff1673ffffffffffffffffffffffffffffffffffffffff1614610f2d576040517f08c379a00000000000000000000000000000000000000000000000000000000081526004018080602001828103825260208152602001807f4f776e61626c653a2063616c6c6572206973206e6f7420746865206f776e657281525060200191505060405180910390fd5b8060028190555050565b60008060009054906101000a900473ffffffffffffffffffffffffffffffffffffffff16905090565b6000610f8a826001600086815260200190815260200160002060000161156590919063ffffffff16565b905092915050565b6000610fbc826001600086815260200190815260200160002060000161157f90919063ffffffff16565b905092915050565b6000801b81565b61101160405180807f4d4f444946595f53434f52455f524f4c450000000000000000000000000000008152506011019050604051809103902061100c611435565b610f92565b611066576040517f08c379a000000000000000000000000000000000000000000000000000000000815260040180806020018281038252602e815260200180611885602e913960400191505060405180910390fd5b80600560008282829054906101000a900460030b0192506101000a81548163ffffffff021916908360030b63ffffffff16021790555050565b600560049054906101000a900473ffffffffffffffffffffffffffffffffffffffff1681565b60006110e5600160008481526020019081526020016000206000016115af565b9050919050565b611113600160008481526020019081526020016000206002015461110e611435565b610f92565b611168576040517f08c379a00000000000000000000000000000000000000000000000000000000081526004018080602001828103825260308152602001806119056030913960400191505060405180910390fd5b61117282826114d1565b5050565b60006111be60405180807f524541445f53434f52455f524f4c450000000000000000000000000000000000815250600f01905060405180910390206111b9611435565b610f92565b611213576040517f08c379a000000000000000000000000000000000000000000000000000000000815260040180806020018281038252602c8152602001806118d9602c913960400191505060405180910390fd5b600560009054906101000a900460030b905090565b611230611435565b73ffffffffffffffffffffffffffffffffffffffff166000809054906101000a900473ffffffffffffffffffffffffffffffffffffffff1673ffffffffffffffffffffffffffffffffffffffff16146112f1576040517f08c379a00000000000000000000000000000000000000000000000000000000081526004018080602001828103825260208152602001807f4f776e61626c653a2063616c6c6572206973206e6f7420746865206f776e657281525060200191505060405180910390fd5b600073ffffffffffffffffffffffffffffffffffffffff168173ffffffffffffffffffffffffffffffffffffffff161415611377576040517f08c379a00000000000000000000000000000000000000000000000000000000081526004018080602001828103825260268152602001806118b36026913960400191505060405180910390fd5b8073ffffffffffffffffffffffffffffffffffffffff166000809054906101000a900473ffffffffffffffffffffffffffffffffffffffff1673ffffffffffffffffffffffffffffffffffffffff167f8be0079c531659141344cd1fd0a4f28419497f9722a3daafe3b4186f6b6457e060405160405180910390a3806000806101000a81548173ffffffffffffffffffffffffffffffffffffffff021916908373ffffffffffffffffffffffffffffffffffffffff16021790555050565b600033905090565b61146581600160008581526020019081526020016000206000016115c490919063ffffffff16565b156114cd57611472611435565b73ffffffffffffffffffffffffffffffffffffffff168173ffffffffffffffffffffffffffffffffffffffff16837f2f8788117e7eff1d82e926ec794901d17c78024a50270940304540a733656f0d60405160405180910390a45b5050565b6114f981600160008581526020019081526020016000206000016115f490919063ffffffff16565b1561156157611506611435565b73ffffffffffffffffffffffffffffffffffffffff168173ffffffffffffffffffffffffffffffffffffffff16837ff6391f5c32d9c69d2a47ea670b442974b53935d1edc7fd64eb21e047a839171b60405160405180910390a45b5050565b60006115748360000183611624565b60001c905092915050565b60006115a7836000018373ffffffffffffffffffffffffffffffffffffffff1660001b6116a7565b905092915050565b60006115bd826000016116ca565b9050919050565b60006115ec836000018373ffffffffffffffffffffffffffffffffffffffff1660001b6116db565b905092915050565b600061161c836000018373ffffffffffffffffffffffffffffffffffffffff1660001b61174b565b905092915050565b600081836000018054905011611685576040517f08c379a00000000000000000000000000000000000000000000000000000000081526004018080602001828103825260228152602001806118346022913960400191505060405180910390fd5b82600001828154811061169457fe5b9060005260206000200154905092915050565b600080836001016000848152602001908152602001600020541415905092915050565b600081600001805490509050919050565b60006116e783836116a7565b611740578260000182908060018154018082558091505060019003906000526020600020016000909190919091505582600001805490508360010160008481526020019081526020016000208190555060019050611745565b600090505b92915050565b60008083600101600084815260200190815260200160002054905060008114611827576000600182039050600060018660000180549050039050600086600001828154811061179657fe5b90600052602060002001549050808760000184815481106117b357fe5b90600052602060002001819055506001830187600101600083815260200190815260200160002081905550866000018054806117eb57fe5b6001900381819060005260206000200160009055905586600101600087815260200190815260200160002060009055600194505050505061182d565b60009150505b9291505056fe456e756d657261626c655365743a20696e646578206f7574206f6620626f756e6473416363657373436f6e74726f6c3a2073656e646572206d75737420626520616e2061646d696e20746f206772616e7453747564656e743a2063616c6c657220646f65736e27742068617665204d4f444946595f53434f52455f524f4c454f776e61626c653a206e6577206f776e657220697320746865207a65726f206164647265737353747564656e743a2063616c6c657220646f65736e2774206861766520524541445f53434f52455f524f4c45416363657373436f6e74726f6c3a2073656e646572206d75737420626520616e2061646d696e20746f207265766f6b65416363657373436f6e74726f6c3a2063616e206f6e6c792072656e6f756e636520726f6c657320666f722073656c6653747564656e743a2061646472657373206973206e6f7420612076616c696420636c617373726f6f6da26469706673582212206b2f87af9fc4bc08dd0d35560639e6c2cde47d160f52ec333c032b7dc59a23fe64736f6c63430006060033416363657373436f6e74726f6c3a2073656e646572206d75737420626520616e2061646d696e20746f206772616e74416363657373436f6e74726f6c3a2063616e206f6e6c792072656e6f756e636520726f6c657320666f722073656c66",
  "immutableReferences": {},
  "source": "pragma solidity 0.6.6;\r\n\r\nimport \"@openzeppelin/contracts/math/SafeMath.sol\";\r\nimport \"@openzeppelin/contracts/access/AccessControl.sol\";\r\nimport \"@openzeppelin/contracts/access/Ownable.sol\";\r\nimport \"@openzeppelin/contracts/token/ERC20/IERC20.sol\";\r\nimport \"@openzeppelin/contracts/token/ERC20/IERC20.sol\";\r\nimport \"@openzeppelin/contracts/utils/Address.sol\";\r\nimport \"./Classroom.sol\";\r\nimport \"./University.sol\";\r\nimport \"./StudentApplication.sol\";\r\n\r\ncontract Student is Ownable, AccessControl {\r\n    using SafeMath for uint256;\r\n\r\n    //READ_SCORE_ROLE can read student Score\r\n    bytes32 public constant READ_SCORE_ROLE = keccak256(\"READ_SCORE_ROLE\");\r\n    //MODIFY_SCORE_ROLE can read student Score\r\n    bytes32 public constant MODIFY_SCORE_ROLE = keccak256(\"MODIFY_SCORE_ROLE\");\r\n\r\n    bytes32 _name;\r\n    University _university;\r\n    address[] _classroomAddress;\r\n    int32 _score;\r\n\r\n    IERC20 public daiToken;\r\n    CERC20 public cToken;\r\n\r\n    constructor(bytes32 name, address universityAddress) public {\r\n        _name = name;\r\n        _score = 0;\r\n        _university = University(universityAddress);\r\n        _setupRole(DEFAULT_ADMIN_ROLE, _msgSender());\r\n        grantRole(READ_SCORE_ROLE, _msgSender());\r\n        grantRole(MODIFY_SCORE_ROLE, universityAddress);\r\n        if (_msgSender() != universityAddress) {\r\n            grantRole(READ_SCORE_ROLE, universityAddress);\r\n            grantRole(DEFAULT_ADMIN_ROLE, universityAddress);\r\n            renounceRole(DEFAULT_ADMIN_ROLE, _msgSender());\r\n        }\r\n        //Kovan address\r\n        daiToken = IERC20(0x4F96Fe3b7A6Cf9725f59d353F723c1bDb64CA6Aa);\r\n    }\r\n\r\n    function name() public view returns (bytes32){\r\n        return _name;\r\n    }\r\n\r\n    function changeName(bytes32 val) public onlyOwner {\r\n        _name = val;\r\n    }\r\n\r\n    function score() public view returns(int32) {\r\n        require(hasRole(READ_SCORE_ROLE, _msgSender()), \"Student: caller doesn't have READ_SCORE_ROLE\");\r\n        return _score;\r\n    }\r\n\r\n    function addScore(int32 val) public  {\r\n        require(hasRole(MODIFY_SCORE_ROLE, _msgSender()), \"Student: caller doesn't have MODIFY_SCORE_ROLE\");\r\n        _score += val;\r\n    }\r\n\r\n    function subtractScore(int32 val) public  {\r\n        require(hasRole(MODIFY_SCORE_ROLE, _msgSender()), \"Student: caller doesn't have MODIFY_SCORE_ROLE\");\r\n        _score -= val;\r\n    }\r\n\r\n    function applyToClassroom(address classroomAddress) public onlyOwner {\r\n        require(_university.isValidClassroom(classroomAddress), \"Student: address is not a valid classroom\");\r\n        grantRole(READ_SCORE_ROLE, classroomAddress);\r\n        Classroom(classroomAddress).studentApply();\r\n        _classroomAddress.push(classroomAddress);\r\n    }\r\n\r\n    // not a feature but it is something a teacher would sometimes want to do\r\n    function removeFromMyClassroom() public {\r\n        for (uint i = 0; i < _classroomAddress.length; i++) {\r\n            if (_classroomAddress[i] == _msgSender()) _classroomAddress[i] = address(0);\r\n        }\r\n    }\r\n\r\n}",
  "sourcePath": "/mnt/e/Repositories/Uproot/contracts/Student.sol",
  "compiler": {
    "name": "solc",
    "version": "0.6.6+commit.6c089d02.Emscripten.clang"
  },
  "schemaVersion": "3.1.0",
  "updatedAt": "2020-05-01T16:43:19.286Z",
  "devdoc": {
    "methods": {
      "getRoleAdmin(bytes32)": {
        "details": "Returns the admin role that controls `role`. See {grantRole} and {revokeRole}.     * To change a role's admin, use {_setRoleAdmin}."
      },
      "getRoleMember(bytes32,uint256)": {
        "details": "Returns one of the accounts that have `role`. `index` must be a value between 0 and {getRoleMemberCount}, non-inclusive.     * Role bearers are not sorted in any particular way, and their ordering may change at any point.     * WARNING: When using {getRoleMember} and {getRoleMemberCount}, make sure you perform all queries on the same block. See the following https://forum.openzeppelin.com/t/iterating-over-elements-on-enumerableset-in-openzeppelin-contracts/2296[forum post] for more information."
      },
      "getRoleMemberCount(bytes32)": {
        "details": "Returns the number of accounts that have `role`. Can be used together with {getRoleMember} to enumerate all bearers of a role."
      },
      "grantRole(bytes32,address)": {
        "details": "Grants `role` to `account`.     * If `account` had not been already granted `role`, emits a {RoleGranted} event.     * Requirements:     * - the caller must have ``role``'s admin role."
      },
      "hasRole(bytes32,address)": {
        "details": "Returns `true` if `account` has been granted `role`."
      },
      "owner()": {
        "details": "Returns the address of the current owner."
      },
      "renounceOwnership()": {
        "details": "Leaves the contract without owner. It will not be possible to call `onlyOwner` functions anymore. Can only be called by the current owner.     * NOTE: Renouncing ownership will leave the contract without an owner, thereby removing any functionality that is only available to the owner."
      },
      "renounceRole(bytes32,address)": {
        "details": "Revokes `role` from the calling account.     * Roles are often managed via {grantRole} and {revokeRole}: this function's purpose is to provide a mechanism for accounts to lose their privileges if they are compromised (such as when a trusted device is misplaced).     * If the calling account had been granted `role`, emits a {RoleRevoked} event.     * Requirements:     * - the caller must be `account`."
      },
      "revokeRole(bytes32,address)": {
        "details": "Revokes `role` from `account`.     * If `account` had been granted `role`, emits a {RoleRevoked} event.     * Requirements:     * - the caller must have ``role``'s admin role."
      },
      "transferOwnership(address)": {
        "details": "Transfers ownership of the contract to a new account (`newOwner`). Can only be called by the current owner."
      }
    }
  },
  "userdoc": {
    "methods": {}
  }
}