{
  "contractName": "Student",
  "abi": [
    {
      "inputs": [
        {
          "internalType": "bytes32",
          "name": "_name",
          "type": "bytes32"
        },
        {
          "internalType": "address",
          "name": "universityAddress",
          "type": "address"
        }
      ],
      "stateMutability": "nonpayable",
      "type": "constructor"
    },
    {
      "anonymous": false,
      "inputs": [
        {
          "indexed": false,
          "internalType": "bytes32",
          "name": "",
          "type": "bytes32"
        }
      ],
      "name": "LogChangeName",
      "type": "event"
    },
    {
      "anonymous": false,
      "inputs": [
        {
          "indexed": true,
          "internalType": "address",
          "name": "previousOwner",
          "type": "address"
        },
        {
          "indexed": true,
          "internalType": "address",
          "name": "newOwner",
          "type": "address"
        }
      ],
      "name": "OwnershipTransferred",
      "type": "event"
    },
    {
      "anonymous": false,
      "inputs": [
        {
          "indexed": true,
          "internalType": "bytes32",
          "name": "role",
          "type": "bytes32"
        },
        {
          "indexed": true,
          "internalType": "address",
          "name": "account",
          "type": "address"
        },
        {
          "indexed": true,
          "internalType": "address",
          "name": "sender",
          "type": "address"
        }
      ],
      "name": "RoleGranted",
      "type": "event"
    },
    {
      "anonymous": false,
      "inputs": [
        {
          "indexed": true,
          "internalType": "bytes32",
          "name": "role",
          "type": "bytes32"
        },
        {
          "indexed": true,
          "internalType": "address",
          "name": "account",
          "type": "address"
        },
        {
          "indexed": true,
          "internalType": "address",
          "name": "sender",
          "type": "address"
        }
      ],
      "name": "RoleRevoked",
      "type": "event"
    },
    {
      "inputs": [],
      "name": "DEFAULT_ADMIN_ROLE",
      "outputs": [
        {
          "internalType": "bytes32",
          "name": "",
          "type": "bytes32"
        }
      ],
      "stateMutability": "view",
      "type": "function"
    },
    {
      "inputs": [],
      "name": "MODIFY_SCORE_ROLE",
      "outputs": [
        {
          "internalType": "bytes32",
          "name": "",
          "type": "bytes32"
        }
      ],
      "stateMutability": "view",
      "type": "function"
    },
    {
      "inputs": [],
      "name": "READ_SCORE_ROLE",
      "outputs": [
        {
          "internalType": "bytes32",
          "name": "",
          "type": "bytes32"
        }
      ],
      "stateMutability": "view",
      "type": "function"
    },
    {
      "inputs": [],
      "name": "cToken",
      "outputs": [
        {
          "internalType": "contract CERC20",
          "name": "",
          "type": "address"
        }
      ],
      "stateMutability": "view",
      "type": "function"
    },
    {
      "inputs": [],
      "name": "daiToken",
      "outputs": [
        {
          "internalType": "contract IERC20",
          "name": "",
          "type": "address"
        }
      ],
      "stateMutability": "view",
      "type": "function"
    },
    {
      "inputs": [
        {
          "internalType": "bytes32",
          "name": "role",
          "type": "bytes32"
        }
      ],
      "name": "getRoleAdmin",
      "outputs": [
        {
          "internalType": "bytes32",
          "name": "",
          "type": "bytes32"
        }
      ],
      "stateMutability": "view",
      "type": "function"
    },
    {
      "inputs": [
        {
          "internalType": "bytes32",
          "name": "role",
          "type": "bytes32"
        },
        {
          "internalType": "uint256",
          "name": "index",
          "type": "uint256"
        }
      ],
      "name": "getRoleMember",
      "outputs": [
        {
          "internalType": "address",
          "name": "",
          "type": "address"
        }
      ],
      "stateMutability": "view",
      "type": "function"
    },
    {
      "inputs": [
        {
          "internalType": "bytes32",
          "name": "role",
          "type": "bytes32"
        }
      ],
      "name": "getRoleMemberCount",
      "outputs": [
        {
          "internalType": "uint256",
          "name": "",
          "type": "uint256"
        }
      ],
      "stateMutability": "view",
      "type": "function"
    },
    {
      "inputs": [
        {
          "internalType": "bytes32",
          "name": "role",
          "type": "bytes32"
        },
        {
          "internalType": "address",
          "name": "account",
          "type": "address"
        }
      ],
      "name": "grantRole",
      "outputs": [],
      "stateMutability": "nonpayable",
      "type": "function"
    },
    {
      "inputs": [
        {
          "internalType": "bytes32",
          "name": "role",
          "type": "bytes32"
        },
        {
          "internalType": "address",
          "name": "account",
          "type": "address"
        }
      ],
      "name": "hasRole",
      "outputs": [
        {
          "internalType": "bool",
          "name": "",
          "type": "bool"
        }
      ],
      "stateMutability": "view",
      "type": "function"
    },
    {
      "inputs": [],
      "name": "name",
      "outputs": [
        {
          "internalType": "bytes32",
          "name": "",
          "type": "bytes32"
        }
      ],
      "stateMutability": "view",
      "type": "function"
    },
    {
      "inputs": [],
      "name": "owner",
      "outputs": [
        {
          "internalType": "address",
          "name": "",
          "type": "address"
        }
      ],
      "stateMutability": "view",
      "type": "function"
    },
    {
      "inputs": [],
      "name": "renounceOwnership",
      "outputs": [],
      "stateMutability": "nonpayable",
      "type": "function"
    },
    {
      "inputs": [
        {
          "internalType": "bytes32",
          "name": "role",
          "type": "bytes32"
        },
        {
          "internalType": "address",
          "name": "account",
          "type": "address"
        }
      ],
      "name": "renounceRole",
      "outputs": [],
      "stateMutability": "nonpayable",
      "type": "function"
    },
    {
      "inputs": [
        {
          "internalType": "bytes32",
          "name": "role",
          "type": "bytes32"
        },
        {
          "internalType": "address",
          "name": "account",
          "type": "address"
        }
      ],
      "name": "revokeRole",
      "outputs": [],
      "stateMutability": "nonpayable",
      "type": "function"
    },
    {
      "inputs": [
        {
          "internalType": "address",
          "name": "newOwner",
          "type": "address"
        }
      ],
      "name": "transferOwnership",
      "outputs": [],
      "stateMutability": "nonpayable",
      "type": "function"
    },
    {
      "inputs": [
        {
          "internalType": "bytes32",
          "name": "val",
          "type": "bytes32"
        }
      ],
      "name": "changeName",
      "outputs": [],
      "stateMutability": "nonpayable",
      "type": "function"
    },
    {
      "inputs": [],
      "name": "score",
      "outputs": [
        {
          "internalType": "int32",
          "name": "",
          "type": "int32"
        }
      ],
      "stateMutability": "view",
      "type": "function"
    },
    {
      "inputs": [
        {
          "internalType": "int32",
          "name": "val",
          "type": "int32"
        }
      ],
      "name": "addScore",
      "outputs": [],
      "stateMutability": "nonpayable",
      "type": "function"
    },
    {
      "inputs": [
        {
          "internalType": "int32",
          "name": "val",
          "type": "int32"
        }
      ],
      "name": "subScore",
      "outputs": [],
      "stateMutability": "nonpayable",
      "type": "function"
    },
    {
      "inputs": [
        {
          "internalType": "address",
          "name": "classroomAddress",
          "type": "address"
        }
      ],
      "name": "applyToClassroom",
      "outputs": [],
      "stateMutability": "nonpayable",
      "type": "function"
    },
    {
      "inputs": [],
      "name": "removeFromMyClassroom",
      "outputs": [],
      "stateMutability": "nonpayable",
      "type": "function"
    },
    {
      "inputs": [
        {
          "internalType": "address",
          "name": "classroom",
          "type": "address"
        },
        {
          "internalType": "address",
          "name": "to",
          "type": "address"
        }
      ],
      "name": "withdrawAllResultsFromClassroom",
      "outputs": [],
      "stateMutability": "nonpayable",
      "type": "function"
    },
    {
      "inputs": [
        {
          "internalType": "address",
          "name": "classroom",
          "type": "address"
        },
        {
          "internalType": "address",
          "name": "to",
          "type": "address"
        },
        {
          "internalType": "uint256",
          "name": "val",
          "type": "uint256"
        }
      ],
      "name": "withdrawResultsFromClassroom",
      "outputs": [],
      "stateMutability": "nonpayable",
      "type": "function"
    },
    {
      "inputs": [
        {
          "internalType": "address",
          "name": "application",
          "type": "address"
        },
        {
          "internalType": "address",
          "name": "to",
          "type": "address"
        }
      ],
      "name": "withdrawAllResultsFromApplication",
      "outputs": [],
      "stateMutability": "nonpayable",
      "type": "function"
    },
    {
      "inputs": [
        {
          "internalType": "address",
          "name": "application",
          "type": "address"
        },
        {
          "internalType": "address",
          "name": "to",
          "type": "address"
        },
        {
          "internalType": "uint256",
          "name": "val",
          "type": "uint256"
        }
      ],
      "name": "withdrawResultsFromApplication",
      "outputs": [],
      "stateMutability": "nonpayable",
      "type": "function"
    },
    {
      "inputs": [
        {
          "internalType": "address",
          "name": "applicationAddr",
          "type": "address"
        },
        {
          "internalType": "bytes32",
          "name": "cName",
          "type": "bytes32"
        },
        {
          "internalType": "uint24",
          "name": "cCut",
          "type": "uint24"
        },
        {
          "internalType": "uint24",
          "name": "cPCut",
          "type": "uint24"
        },
        {
          "internalType": "int32",
          "name": "minScore",
          "type": "int32"
        },
        {
          "internalType": "uint256",
          "name": "entryPrice",
          "type": "uint256"
        },
        {
          "internalType": "uint256",
          "name": "duration",
          "type": "uint256"
        },
        {
          "internalType": "address",
          "name": "challenge",
          "type": "address"
        }
      ],
      "name": "requestClassroom",
      "outputs": [],
      "stateMutability": "nonpayable",
      "type": "function"
    }
  ],
  "bytecode": "0x60806040523480156200001157600080fd5b5060405162001e6038038062001e60833981810160405260408110156200003757600080fd5b5080516020909101516000620000556001600160e01b036200021c16565b600080546001600160a01b0319166001600160a01b0383169081178255604051929350917f8be0079c531659141344cd1fd0a4f28419497f9722a3daafe3b4186f6b6457e0908290a35060028290556005805463ffffffff19169055600380546001600160a01b0319166001600160a01b038316179055620000eb6000620000dc6200021c565b6001600160e01b036200022016565b604080516e524541445f53434f52455f524f4c4560881b8152905190819003600f0190206200013690620001276001600160e01b036200021c16565b6001600160e01b036200023916565b60408051704d4f444946595f53434f52455f524f4c4560781b815290519081900360110190206200017190826001600160e01b036200023916565b6001600160a01b0381166200018e6001600160e01b036200021c16565b6001600160a01b0316146200021457604080516e524541445f53434f52455f524f4c4560881b8152905190819003600f019020620001d690826001600160e01b036200023916565b620001ec6000826001600160e01b036200023916565b620002146000620002056001600160e01b036200021c16565b6001600160e01b03620002af16565b5050620005fb565b3390565b6200023582826001600160e01b036200032816565b5050565b6000828152600160205260409020600201546200027290620002636001600160e01b036200021c16565b6001600160e01b03620003ac16565b620002205760405162461bcd60e51b815260040180806020018281038252602f81526020018062001e02602f913960400191505060405180910390fd5b620002c26001600160e01b036200021c16565b6001600160a01b0316816001600160a01b031614620003135760405162461bcd60e51b815260040180806020018281038252602f81526020018062001e31602f913960400191505060405180910390fd5b6200023582826001600160e01b03620003db16565b60008281526001602090815260409091206200034f918390620014ae6200045f821b17901c565b156200023557620003686001600160e01b036200021c16565b6001600160a01b0316816001600160a01b0316837f2f8788117e7eff1d82e926ec794901d17c78024a50270940304540a733656f0d60405160405180910390a45050565b60008281526001602090815260408220620003d29184906200148e6200047f821b17901c565b90505b92915050565b600082815260016020908152604090912062000402918390620014c36200049f821b17901c565b1562000235576200041b6001600160e01b036200021c16565b6001600160a01b0316816001600160a01b0316837ff6391f5c32d9c69d2a47ea670b442974b53935d1edc7fd64eb21e047a839171b60405160405180910390a45050565b6000620003d2836001600160a01b0384166001600160e01b03620004bf16565b6000620003d2836001600160a01b0384166001600160e01b036200051716565b6000620003d2836001600160a01b0384166001600160e01b036200052f16565b6000620004d683836001600160e01b036200051716565b6200050e57508154600181810184556000848152602080822090930184905584548482528286019093526040902091909155620003d5565b506000620003d5565b60009081526001919091016020526040902054151590565b60008181526001830160205260408120548015620005f057835460001980830191908101906000908790839081106200056457fe5b90600052602060002001549050808760000184815481106200058257fe5b600091825260208083209091019290925582815260018981019092526040902090840190558654879080620005b357fe5b60019003818190600052602060002001600090559055866001016000878152602001908152602001600020600090556001945050505050620003d5565b6000915050620003d5565b6117f7806200060b6000396000f3fe608060405234801561001057600080fd5b50600436106101b95760003560e01c80638da5cb5b116100f9578063ba6019d311610097578063d547741f11610071578063d547741f146104a7578063db4d5e87146104d3578063efedc66914610501578063f2fde38b14610522576101b9565b8063ba6019d31461044c578063be22f54614610482578063ca15c8731461048a576101b9565b80639fcb17de116100d35780639fcb17de1461038f578063a217fddf146103c5578063a8809410146103cd578063aa4f38c71461042c576101b9565b80638da5cb5b146103245780639010d07c1461032c57806391d148541461034f576101b9565b806331fb5fde1161016657806369e527da1161014057806369e527da146102d3578063715018a6146102f75780637206f3d6146102ff578063898855ed14610307576101b9565b806331fb5fde1461026157806336568abe1461028757806368651350146102b3576101b9565b8063248a9ca311610197578063248a9ca3146101ea578063295869be146102075780632f2ff15d14610235576101b9565b806306fdde03146101be5780631b99219f146101d8578063222baa3a146101e0575b600080fd5b6101c6610548565b60408051918252519081900360200190f35b6101c661054e565b6101e8610575565b005b6101c66004803603602081101561020057600080fd5b5035610604565b6101e86004803603604081101561021d57600080fd5b506001600160a01b0381358116916020013516610619565b6101e86004803603604081101561024b57600080fd5b50803590602001356001600160a01b03166106f5565b6101e86004803603602081101561027757600080fd5b50356001600160a01b031661075d565b6101e86004803603604081101561029d57600080fd5b50803590602001356001600160a01b0316610975565b6101e8600480360360208110156102c957600080fd5b503560030b6109d6565b6102db610acb565b604080516001600160a01b039092168252519081900360200190f35b6101e8610ada565b6101c6610b9b565b6101e86004803603602081101561031d57600080fd5b5035610bc4565b6102db610c69565b6102db6004803603604081101561034257600080fd5b5080359060200135610c78565b61037b6004803603604081101561036557600080fd5b50803590602001356001600160a01b0316610c9f565b604080519115158252519081900360200190f35b6101e8600480360360608110156103a557600080fd5b506001600160a01b03813581169160208101359091169060400135610cbd565b6101c6610da4565b6101e860048036036101008110156103e457600080fd5b506001600160a01b03813581169160208101359162ffffff6040830135811692606081013590911691608082013560030b9160a08101359160c08201359160e0013516610da9565b6101e86004803603602081101561044257600080fd5b503560030b610eda565b6101e86004803603606081101561046257600080fd5b506001600160a01b03813581169160208101359091169060400135610fce565b6102db6110ac565b6101c6600480360360208110156104a057600080fd5b50356110c3565b6101e8600480360360408110156104bd57600080fd5b50803590602001356001600160a01b03166110da565b6101e8600480360360408110156104e957600080fd5b506001600160a01b0381358116916020013516611133565b610509611211565b60408051600392830b90920b8252519081900360200190f35b6101e86004803603602081101561053857600080fd5b50356001600160a01b0316611289565b60025481565b604080516e524541445f53434f52455f524f4c4560881b8152905190819003600f01902081565b60005b6004548110156106015761058a6113a0565b6001600160a01b0316600482815481106105a057fe5b6000918252602090912001546001600160a01b031614156105f9576000600482815481106105ca57fe5b9060005260206000200160006101000a8154816001600160a01b0302191690836001600160a01b031602179055505b600101610578565b50565b60009081526001602052604090206002015490565b6106216113a0565b6000546001600160a01b03908116911614610683576040805162461bcd60e51b815260206004820181905260248201527f4f776e61626c653a2063616c6c6572206973206e6f7420746865206f776e6572604482015290519081900360640190fd5b6106f1826001600160a01b0316636e8055a76040518163ffffffff1660e01b815260040160206040518083038186803b1580156106bf57600080fd5b505afa1580156106d3573d6000803e3d6000fd5b505050506040513d60208110156106e957600080fd5b505182611133565b5050565b600082815260016020526040902060020154610718906107136113a0565b610c9f565b6107535760405162461bcd60e51b815260040180806020018281038252602f81526020018061168b602f913960400191505060405180910390fd5b6106f182826113a4565b6107656113a0565b6000546001600160a01b039081169116146107c7576040805162461bcd60e51b815260206004820181905260248201527f4f776e61626c653a2063616c6c6572206973206e6f7420746865206f776e6572604482015290519081900360640190fd5b600354604080517f85dade610000000000000000000000000000000000000000000000000000000081526001600160a01b038481166004830152915191909216916385dade61916024808301926020929190829003018186803b15801561082d57600080fd5b505afa158015610841573d6000803e3d6000fd5b505050506040513d602081101561085757600080fd5b50516108945760405162461bcd60e51b81526004018080602001828103825260298152602001806117996029913960400191505060405180910390fd5b604080516e524541445f53434f52455f524f4c4560881b8152905190819003600f0190206108c290826106f5565b806001600160a01b0316631b9dbc606040518163ffffffff1660e01b8152600401600060405180830381600087803b1580156108fd57600080fd5b505af1158015610911573d6000803e3d6000fd5b5050600480546001810182556000919091527f8a35acfbc15ff81a39ae7d344fd709f28e8600b4aa8c65c6b64bfe7fe36bd19b01805473ffffffffffffffffffffffffffffffffffffffff19166001600160a01b0394909416939093179092555050565b61097d6113a0565b6001600160a01b0316816001600160a01b0316146109cc5760405162461bcd60e51b815260040180806020018281038252602f81526020018061176a602f913960400191505060405180910390fd5b6106f18282611413565b60408051704d4f444946595f53434f52455f524f4c4560781b81529051908190036011019020610a08906107136113a0565b610a435760405162461bcd60e51b815260040180806020018281038252602e8152602001806116ba602e913960400191505060405180910390fd5b600554600390810b828103820b910b13610aa4576040805162461bcd60e51b815260206004820152601c60248201527f53747564656e743a2062616420677261646573206f766572666c6f7700000000604482015290519081900360640190fd5b60058054600381810b9390930390920b63ffffffff1663ffffffff19909216919091179055565b6006546001600160a01b031681565b610ae26113a0565b6000546001600160a01b03908116911614610b44576040805162461bcd60e51b815260206004820181905260248201527f4f776e61626c653a2063616c6c6572206973206e6f7420746865206f776e6572604482015290519081900360640190fd5b600080546040516001600160a01b03909116907f8be0079c531659141344cd1fd0a4f28419497f9722a3daafe3b4186f6b6457e0908390a36000805473ffffffffffffffffffffffffffffffffffffffff19169055565b60408051704d4f444946595f53434f52455f524f4c4560781b8152905190819003601101902081565b610bcc6113a0565b6000546001600160a01b03908116911614610c2e576040805162461bcd60e51b815260206004820181905260248201527f4f776e61626c653a2063616c6c6572206973206e6f7420746865206f776e6572604482015290519081900360640190fd5b60028190556040805182815290517f9f8929be552430dd6434c446d106c34954b2040ca8c4dbf42a39323dd6cda3ca9181900360200190a150565b6000546001600160a01b031690565b6000828152600160205260408120610c96908363ffffffff61148216565b90505b92915050565b6000828152600160205260408120610c96908363ffffffff61148e16565b610cc56113a0565b6000546001600160a01b03908116911614610d27576040805162461bcd60e51b815260206004820181905260248201527f4f776e61626c653a2063616c6c6572206973206e6f7420746865206f776e6572604482015290519081900360640190fd5b826001600160a01b0316633db0bfd283836040518363ffffffff1660e01b815260040180836001600160a01b03166001600160a01b0316815260200182815260200192505050600060405180830381600087803b158015610d8757600080fd5b505af1158015610d9b573d6000803e3d6000fd5b50505050505050565b600081565b610db16113a0565b6000546001600160a01b03908116911614610e13576040805162461bcd60e51b815260206004820181905260248201527f4f776e61626c653a2063616c6c6572206973206e6f7420746865206f776e6572604482015290519081900360640190fd5b60038054604080517f7fd5c1080000000000000000000000000000000000000000000000000000000081526001600160a01b038c81166004830152602482018c905262ffffff808c1660448401528a16606483015288850b90940b608482015260a4810187905260c4810186905284841660e482015290519290911691637fd5c108916101048082019260009290919082900301818387803b158015610eb857600080fd5b505af1158015610ecc573d6000803e3d6000fd5b505050505050505050505050565b60408051704d4f444946595f53434f52455f524f4c4560781b81529051908190036011019020610f0c906107136113a0565b610f475760405162461bcd60e51b815260040180806020018281038252602e8152602001806116ba602e913960400191505060405180910390fd5b600554600390810b808301820b910b12610fa8576040805162461bcd60e51b815260206004820152601d60248201527f53747564656e743a20676f6f6420677261646573206f766572666c6f77000000604482015290519081900360640190fd5b60058054600381810b90930190920b63ffffffff1663ffffffff19909216919091179055565b610fd66113a0565b6000546001600160a01b03908116911614611038576040805162461bcd60e51b815260206004820181905260248201527f4f776e61626c653a2063616c6c6572206973206e6f7420746865206f776e6572604482015290519081900360640190fd5b6110a7836001600160a01b0316636e8055a76040518163ffffffff1660e01b815260040160206040518083038186803b15801561107457600080fd5b505afa158015611088573d6000803e3d6000fd5b505050506040513d602081101561109e57600080fd5b50518383610cbd565b505050565b60055464010000000090046001600160a01b031681565b6000818152600160205260408120610c99906114a3565b6000828152600160205260409020600201546110f8906107136113a0565b6109cc5760405162461bcd60e51b815260040180806020018281038252603081526020018061173a6030913960400191505060405180910390fd5b61113b6113a0565b6000546001600160a01b0390811691161461119d576040805162461bcd60e51b815260206004820181905260248201527f4f776e61626c653a2063616c6c6572206973206e6f7420746865206f776e6572604482015290519081900360640190fd5b816001600160a01b03166366995a46826040518263ffffffff1660e01b815260040180826001600160a01b03166001600160a01b03168152602001915050600060405180830381600087803b1580156111f557600080fd5b505af1158015611209573d6000803e3d6000fd5b505050505050565b604080516e524541445f53434f52455f524f4c4560881b8152905190819003600f019020600090611244906107136113a0565b61127f5760405162461bcd60e51b815260040180806020018281038252602c81526020018061170e602c913960400191505060405180910390fd5b5060055460030b90565b6112916113a0565b6000546001600160a01b039081169116146112f3576040805162461bcd60e51b815260206004820181905260248201527f4f776e61626c653a2063616c6c6572206973206e6f7420746865206f776e6572604482015290519081900360640190fd5b6001600160a01b0381166113385760405162461bcd60e51b81526004018080602001828103825260268152602001806116e86026913960400191505060405180910390fd5b600080546040516001600160a01b03808516939216917f8be0079c531659141344cd1fd0a4f28419497f9722a3daafe3b4186f6b6457e091a36000805473ffffffffffffffffffffffffffffffffffffffff19166001600160a01b0392909216919091179055565b3390565b60008281526001602052604090206113c2908263ffffffff6114ae16565b156106f1576113cf6113a0565b6001600160a01b0316816001600160a01b0316837f2f8788117e7eff1d82e926ec794901d17c78024a50270940304540a733656f0d60405160405180910390a45050565b6000828152600160205260409020611431908263ffffffff6114c316565b156106f15761143e6113a0565b6001600160a01b0316816001600160a01b0316837ff6391f5c32d9c69d2a47ea670b442974b53935d1edc7fd64eb21e047a839171b60405160405180910390a45050565b6000610c9683836114d8565b6000610c96836001600160a01b03841661153c565b6000610c9982611554565b6000610c96836001600160a01b038416611558565b6000610c96836001600160a01b0384166115a2565b8154600090821061151a5760405162461bcd60e51b81526004018080602001828103825260228152602001806116696022913960400191505060405180910390fd5b82600001828154811061152957fe5b9060005260206000200154905092915050565b60009081526001919091016020526040902054151590565b5490565b6000611564838361153c565b61159a57508154600181810184556000848152602080822090930184905584548482528286019093526040902091909155610c99565b506000610c99565b6000818152600183016020526040812054801561165e57835460001980830191908101906000908790839081106115d557fe5b90600052602060002001549050808760000184815481106115f257fe5b60009182526020808320909101929092558281526001898101909252604090209084019055865487908061162257fe5b60019003818190600052602060002001600090559055866001016000878152602001908152602001600020600090556001945050505050610c99565b6000915050610c9956fe456e756d657261626c655365743a20696e646578206f7574206f6620626f756e6473416363657373436f6e74726f6c3a2073656e646572206d75737420626520616e2061646d696e20746f206772616e7453747564656e743a2063616c6c657220646f65736e27742068617665204d4f444946595f53434f52455f524f4c454f776e61626c653a206e6577206f776e657220697320746865207a65726f206164647265737353747564656e743a2063616c6c657220646f65736e2774206861766520524541445f53434f52455f524f4c45416363657373436f6e74726f6c3a2073656e646572206d75737420626520616e2061646d696e20746f207265766f6b65416363657373436f6e74726f6c3a2063616e206f6e6c792072656e6f756e636520726f6c657320666f722073656c6653747564656e743a2061646472657373206973206e6f7420612076616c696420636c617373726f6f6da26469706673582212203a38267ce4e8418cbf9196555cb2e6bd301376030282a0e36fc3bf28ec40916d64736f6c63430006060033416363657373436f6e74726f6c3a2073656e646572206d75737420626520616e2061646d696e20746f206772616e74416363657373436f6e74726f6c3a2063616e206f6e6c792072656e6f756e636520726f6c657320666f722073656c66",
  "immutableReferences": {},
  "source": "pragma solidity 0.6.6;\r\n\r\nimport \"@openzeppelin/contracts/math/SafeMath.sol\";\r\nimport \"@openzeppelin/contracts/access/AccessControl.sol\";\r\nimport \"@openzeppelin/contracts/access/Ownable.sol\";\r\nimport \"@openzeppelin/contracts/token/ERC20/IERC20.sol\";\r\nimport \"@openzeppelin/contracts/utils/Address.sol\";\r\nimport \"./Classroom.sol\";\r\nimport \"./University.sol\";\r\nimport \"./StudentApplication.sol\";\r\n\r\n\r\ncontract Student is Ownable, AccessControl {\r\n    using SafeMath for uint256;\r\n\r\n    //READ_SCORE_ROLE can read student Score\r\n    bytes32 public constant READ_SCORE_ROLE = keccak256(\"READ_SCORE_ROLE\");\r\n    //MODIFY_SCORE_ROLE can read student Score\r\n    bytes32 public constant MODIFY_SCORE_ROLE = keccak256(\"MODIFY_SCORE_ROLE\");\r\n\r\n    bytes32 public name;\r\n    University _university;\r\n    address[] _classroomAddress;\r\n    int32 _score;\r\n\r\n    IERC20 public daiToken;\r\n    CERC20 public cToken;\r\n\r\n    constructor(bytes32 _name, address universityAddress) public {\r\n        name = _name;\r\n        _score = 0;\r\n        _university = University(universityAddress);\r\n        _setupRole(DEFAULT_ADMIN_ROLE, _msgSender());\r\n        grantRole(READ_SCORE_ROLE, _msgSender());\r\n        grantRole(MODIFY_SCORE_ROLE, universityAddress);\r\n        if (_msgSender() != universityAddress) {\r\n            grantRole(READ_SCORE_ROLE, universityAddress);\r\n            grantRole(DEFAULT_ADMIN_ROLE, universityAddress);\r\n            renounceRole(DEFAULT_ADMIN_ROLE, _msgSender());\r\n        }\r\n    }\r\n\r\n    event LogChangeName(bytes32);\r\n\r\n    function changeName(bytes32 val) public onlyOwner {\r\n        name = val;\r\n        emit LogChangeName(name);\r\n    }\r\n\r\n    function score() public view returns (int32) {\r\n        require(\r\n            hasRole(READ_SCORE_ROLE, _msgSender()),\r\n            \"Student: caller doesn't have READ_SCORE_ROLE\"\r\n        );\r\n        return _score;\r\n    }\r\n\r\n    function addScore(int32 val) public {\r\n        require(\r\n            hasRole(MODIFY_SCORE_ROLE, _msgSender()),\r\n            \"Student: caller doesn't have MODIFY_SCORE_ROLE\"\r\n        );\r\n        require(_score < _score + val, \"Student: good grades overflow\");\r\n        _score += val;\r\n    }\r\n\r\n    function subScore(int32 val) public {\r\n        require(\r\n            hasRole(MODIFY_SCORE_ROLE, _msgSender()),\r\n            \"Student: caller doesn't have MODIFY_SCORE_ROLE\"\r\n        );\r\n        require(_score > _score - val, \"Student: bad grades overflow\");\r\n        _score -= val;\r\n    }\r\n\r\n    function applyToClassroom(address classroomAddress) public onlyOwner {\r\n        require(\r\n            _university.isValidClassroom(classroomAddress),\r\n            \"Student: address is not a valid classroom\"\r\n        );\r\n        grantRole(READ_SCORE_ROLE, classroomAddress);\r\n        Classroom(classroomAddress).studentApply();\r\n        _classroomAddress.push(classroomAddress);\r\n    }\r\n\r\n    // not a feature but it is something a teacher would sometimes want to do\r\n    function removeFromMyClassroom() public {\r\n        for (uint256 i = 0; i < _classroomAddress.length; i++) {\r\n            if (_classroomAddress[i] == _msgSender())\r\n                _classroomAddress[i] = address(0);\r\n        }\r\n    }\r\n\r\n    function withdrawAllResultsFromClassroom(address classroom, address to)\r\n        public\r\n        onlyOwner\r\n    {\r\n        withdrawAllResultsFromApplication(\r\n            Classroom(classroom).viewMyApplication(),\r\n            to\r\n        );\r\n    }\r\n\r\n    function withdrawResultsFromClassroom(\r\n        address classroom,\r\n        address to,\r\n        uint256 val\r\n    ) public onlyOwner {\r\n        withdrawResultsFromApplication(\r\n            Classroom(classroom).viewMyApplication(),\r\n            to,\r\n            val\r\n        );\r\n    }\r\n\r\n    function withdrawAllResultsFromApplication(address application, address to)\r\n        public\r\n        onlyOwner\r\n    {\r\n        StudentApplication(application).withdrawAllResults(to);\r\n    }\r\n\r\n    function withdrawResultsFromApplication(\r\n        address application,\r\n        address to,\r\n        uint256 val\r\n    ) public onlyOwner {\r\n        StudentApplication(application).withdrawResults(to, val);\r\n    }\r\n\r\n    function requestClassroom(\r\n        address applicationAddr,\r\n        bytes32 cName,\r\n        uint24 cCut,\r\n        uint24 cPCut,\r\n        int32 minScore,\r\n        uint256 entryPrice,\r\n        uint256 duration,\r\n        address challenge\r\n    ) public onlyOwner {\r\n        _university.studentRequestClassroom(\r\n            applicationAddr,\r\n            cName,\r\n            cCut,\r\n            cPCut,\r\n            minScore,\r\n            entryPrice,\r\n            duration,\r\n            challenge\r\n        );\r\n    }\r\n}\r\n",
  "sourcePath": "/mnt/e/Repositories/Uproot/contracts/Student.sol",
  "compiler": {
    "name": "solc",
    "version": "0.6.6+commit.6c089d02.Emscripten.clang"
  },
  "schemaVersion": "3.1.0",
  "updatedAt": "2020-05-04T03:18:02.581Z",
  "devdoc": {
    "methods": {
      "getRoleAdmin(bytes32)": {
        "details": "Returns the admin role that controls `role`. See {grantRole} and {revokeRole}.     * To change a role's admin, use {_setRoleAdmin}."
      },
      "getRoleMember(bytes32,uint256)": {
        "details": "Returns one of the accounts that have `role`. `index` must be a value between 0 and {getRoleMemberCount}, non-inclusive.     * Role bearers are not sorted in any particular way, and their ordering may change at any point.     * WARNING: When using {getRoleMember} and {getRoleMemberCount}, make sure you perform all queries on the same block. See the following https://forum.openzeppelin.com/t/iterating-over-elements-on-enumerableset-in-openzeppelin-contracts/2296[forum post] for more information."
      },
      "getRoleMemberCount(bytes32)": {
        "details": "Returns the number of accounts that have `role`. Can be used together with {getRoleMember} to enumerate all bearers of a role."
      },
      "grantRole(bytes32,address)": {
        "details": "Grants `role` to `account`.     * If `account` had not been already granted `role`, emits a {RoleGranted} event.     * Requirements:     * - the caller must have ``role``'s admin role."
      },
      "hasRole(bytes32,address)": {
        "details": "Returns `true` if `account` has been granted `role`."
      },
      "owner()": {
        "details": "Returns the address of the current owner."
      },
      "renounceOwnership()": {
        "details": "Leaves the contract without owner. It will not be possible to call `onlyOwner` functions anymore. Can only be called by the current owner.     * NOTE: Renouncing ownership will leave the contract without an owner, thereby removing any functionality that is only available to the owner."
      },
      "renounceRole(bytes32,address)": {
        "details": "Revokes `role` from the calling account.     * Roles are often managed via {grantRole} and {revokeRole}: this function's purpose is to provide a mechanism for accounts to lose their privileges if they are compromised (such as when a trusted device is misplaced).     * If the calling account had been granted `role`, emits a {RoleRevoked} event.     * Requirements:     * - the caller must be `account`."
      },
      "revokeRole(bytes32,address)": {
        "details": "Revokes `role` from `account`.     * If `account` had been granted `role`, emits a {RoleRevoked} event.     * Requirements:     * - the caller must have ``role``'s admin role."
      },
      "transferOwnership(address)": {
        "details": "Transfers ownership of the contract to a new account (`newOwner`). Can only be called by the current owner."
      }
    }
  },
  "userdoc": {
    "methods": {}
  }
}