{
  "contractName": "Student",
  "abi": [
    {
      "inputs": [
        {
          "internalType": "bytes32",
          "name": "_name",
          "type": "bytes32"
        },
        {
          "internalType": "address payable",
          "name": "universityAddress",
          "type": "address"
        }
      ],
      "stateMutability": "nonpayable",
      "type": "constructor"
    },
    {
      "anonymous": false,
      "inputs": [
        {
          "indexed": false,
          "internalType": "bytes32",
          "name": "",
          "type": "bytes32"
        }
      ],
      "name": "LogChangeName",
      "type": "event"
    },
    {
      "anonymous": false,
      "inputs": [
        {
          "indexed": true,
          "internalType": "address",
          "name": "previousOwner",
          "type": "address"
        },
        {
          "indexed": true,
          "internalType": "address",
          "name": "newOwner",
          "type": "address"
        }
      ],
      "name": "OwnershipTransferred",
      "type": "event"
    },
    {
      "anonymous": false,
      "inputs": [
        {
          "indexed": true,
          "internalType": "bytes32",
          "name": "role",
          "type": "bytes32"
        },
        {
          "indexed": true,
          "internalType": "address",
          "name": "account",
          "type": "address"
        },
        {
          "indexed": true,
          "internalType": "address",
          "name": "sender",
          "type": "address"
        }
      ],
      "name": "RoleGranted",
      "type": "event"
    },
    {
      "anonymous": false,
      "inputs": [
        {
          "indexed": true,
          "internalType": "bytes32",
          "name": "role",
          "type": "bytes32"
        },
        {
          "indexed": true,
          "internalType": "address",
          "name": "account",
          "type": "address"
        },
        {
          "indexed": true,
          "internalType": "address",
          "name": "sender",
          "type": "address"
        }
      ],
      "name": "RoleRevoked",
      "type": "event"
    },
    {
      "inputs": [],
      "name": "DEFAULT_ADMIN_ROLE",
      "outputs": [
        {
          "internalType": "bytes32",
          "name": "",
          "type": "bytes32"
        }
      ],
      "stateMutability": "view",
      "type": "function"
    },
    {
      "inputs": [],
      "name": "MODIFY_SCORE_ROLE",
      "outputs": [
        {
          "internalType": "bytes32",
          "name": "",
          "type": "bytes32"
        }
      ],
      "stateMutability": "view",
      "type": "function"
    },
    {
      "inputs": [],
      "name": "READ_SCORE_ROLE",
      "outputs": [
        {
          "internalType": "bytes32",
          "name": "",
          "type": "bytes32"
        }
      ],
      "stateMutability": "view",
      "type": "function"
    },
    {
      "inputs": [],
      "name": "_msgSenderGSN",
      "outputs": [
        {
          "internalType": "address",
          "name": "",
          "type": "address"
        }
      ],
      "stateMutability": "view",
      "type": "function"
    },
    {
      "inputs": [],
      "name": "daiToken",
      "outputs": [
        {
          "internalType": "contract IERC20",
          "name": "",
          "type": "address"
        }
      ],
      "stateMutability": "view",
      "type": "function"
    },
    {
      "inputs": [
        {
          "internalType": "bytes32",
          "name": "role",
          "type": "bytes32"
        }
      ],
      "name": "getRoleAdmin",
      "outputs": [
        {
          "internalType": "bytes32",
          "name": "",
          "type": "bytes32"
        }
      ],
      "stateMutability": "view",
      "type": "function"
    },
    {
      "inputs": [
        {
          "internalType": "bytes32",
          "name": "role",
          "type": "bytes32"
        },
        {
          "internalType": "uint256",
          "name": "index",
          "type": "uint256"
        }
      ],
      "name": "getRoleMember",
      "outputs": [
        {
          "internalType": "address",
          "name": "",
          "type": "address"
        }
      ],
      "stateMutability": "view",
      "type": "function"
    },
    {
      "inputs": [
        {
          "internalType": "bytes32",
          "name": "role",
          "type": "bytes32"
        }
      ],
      "name": "getRoleMemberCount",
      "outputs": [
        {
          "internalType": "uint256",
          "name": "",
          "type": "uint256"
        }
      ],
      "stateMutability": "view",
      "type": "function"
    },
    {
      "inputs": [],
      "name": "getTrustedForwarder",
      "outputs": [
        {
          "internalType": "address",
          "name": "",
          "type": "address"
        }
      ],
      "stateMutability": "view",
      "type": "function"
    },
    {
      "inputs": [
        {
          "internalType": "bytes32",
          "name": "role",
          "type": "bytes32"
        },
        {
          "internalType": "address",
          "name": "account",
          "type": "address"
        }
      ],
      "name": "grantRole",
      "outputs": [],
      "stateMutability": "nonpayable",
      "type": "function"
    },
    {
      "inputs": [
        {
          "internalType": "bytes32",
          "name": "role",
          "type": "bytes32"
        },
        {
          "internalType": "address",
          "name": "account",
          "type": "address"
        }
      ],
      "name": "hasRole",
      "outputs": [
        {
          "internalType": "bool",
          "name": "",
          "type": "bool"
        }
      ],
      "stateMutability": "view",
      "type": "function"
    },
    {
      "inputs": [],
      "name": "name",
      "outputs": [
        {
          "internalType": "bytes32",
          "name": "",
          "type": "bytes32"
        }
      ],
      "stateMutability": "view",
      "type": "function"
    },
    {
      "inputs": [],
      "name": "owner",
      "outputs": [
        {
          "internalType": "address",
          "name": "",
          "type": "address"
        }
      ],
      "stateMutability": "view",
      "type": "function"
    },
    {
      "inputs": [],
      "name": "renounceOwnership",
      "outputs": [],
      "stateMutability": "nonpayable",
      "type": "function"
    },
    {
      "inputs": [
        {
          "internalType": "bytes32",
          "name": "role",
          "type": "bytes32"
        },
        {
          "internalType": "address",
          "name": "account",
          "type": "address"
        }
      ],
      "name": "renounceRole",
      "outputs": [],
      "stateMutability": "nonpayable",
      "type": "function"
    },
    {
      "inputs": [
        {
          "internalType": "bytes32",
          "name": "role",
          "type": "bytes32"
        },
        {
          "internalType": "address",
          "name": "account",
          "type": "address"
        }
      ],
      "name": "revokeRole",
      "outputs": [],
      "stateMutability": "nonpayable",
      "type": "function"
    },
    {
      "inputs": [
        {
          "internalType": "address",
          "name": "newOwner",
          "type": "address"
        }
      ],
      "name": "transferOwnership",
      "outputs": [],
      "stateMutability": "nonpayable",
      "type": "function"
    },
    {
      "inputs": [],
      "name": "ownerStudent",
      "outputs": [
        {
          "internalType": "address",
          "name": "",
          "type": "address"
        }
      ],
      "stateMutability": "view",
      "type": "function"
    },
    {
      "inputs": [
        {
          "internalType": "bytes32",
          "name": "val",
          "type": "bytes32"
        }
      ],
      "name": "changeName",
      "outputs": [],
      "stateMutability": "nonpayable",
      "type": "function"
    },
    {
      "inputs": [],
      "name": "score",
      "outputs": [
        {
          "internalType": "int32",
          "name": "",
          "type": "int32"
        }
      ],
      "stateMutability": "view",
      "type": "function"
    },
    {
      "inputs": [
        {
          "internalType": "int32",
          "name": "val",
          "type": "int32"
        }
      ],
      "name": "addScore",
      "outputs": [],
      "stateMutability": "nonpayable",
      "type": "function"
    },
    {
      "inputs": [
        {
          "internalType": "int32",
          "name": "val",
          "type": "int32"
        }
      ],
      "name": "subScore",
      "outputs": [],
      "stateMutability": "nonpayable",
      "type": "function"
    },
    {
      "inputs": [
        {
          "internalType": "address",
          "name": "classroomAddress",
          "type": "address"
        }
      ],
      "name": "applyToClassroom",
      "outputs": [],
      "stateMutability": "nonpayable",
      "type": "function"
    },
    {
      "inputs": [],
      "name": "removeFromMyClassroom",
      "outputs": [],
      "stateMutability": "nonpayable",
      "type": "function"
    },
    {
      "inputs": [
        {
          "internalType": "address",
          "name": "classroom",
          "type": "address"
        },
        {
          "internalType": "address",
          "name": "to",
          "type": "address"
        }
      ],
      "name": "withdrawAllResultsFromClassroom",
      "outputs": [],
      "stateMutability": "nonpayable",
      "type": "function"
    },
    {
      "inputs": [
        {
          "internalType": "address",
          "name": "classroom",
          "type": "address"
        },
        {
          "internalType": "address",
          "name": "to",
          "type": "address"
        },
        {
          "internalType": "uint256",
          "name": "val",
          "type": "uint256"
        }
      ],
      "name": "withdrawResultsFromClassroom",
      "outputs": [],
      "stateMutability": "nonpayable",
      "type": "function"
    },
    {
      "inputs": [
        {
          "internalType": "address",
          "name": "application",
          "type": "address"
        },
        {
          "internalType": "address",
          "name": "to",
          "type": "address"
        }
      ],
      "name": "withdrawAllResultsFromApplication",
      "outputs": [],
      "stateMutability": "nonpayable",
      "type": "function"
    },
    {
      "inputs": [
        {
          "internalType": "address",
          "name": "application",
          "type": "address"
        },
        {
          "internalType": "address",
          "name": "to",
          "type": "address"
        },
        {
          "internalType": "uint256",
          "name": "val",
          "type": "uint256"
        }
      ],
      "name": "withdrawResultsFromApplication",
      "outputs": [],
      "stateMutability": "nonpayable",
      "type": "function"
    },
    {
      "inputs": [
        {
          "internalType": "address",
          "name": "applicationAddr",
          "type": "address"
        },
        {
          "internalType": "bytes32",
          "name": "cName",
          "type": "bytes32"
        },
        {
          "internalType": "uint24",
          "name": "cCut",
          "type": "uint24"
        },
        {
          "internalType": "uint24",
          "name": "cPCut",
          "type": "uint24"
        },
        {
          "internalType": "int32",
          "name": "minScore",
          "type": "int32"
        },
        {
          "internalType": "uint256",
          "name": "entryPrice",
          "type": "uint256"
        },
        {
          "internalType": "uint256",
          "name": "duration",
          "type": "uint256"
        },
        {
          "internalType": "address",
          "name": "challenge",
          "type": "address"
        }
      ],
      "name": "requestClassroom",
      "outputs": [],
      "stateMutability": "nonpayable",
      "type": "function"
    },
    {
      "inputs": [
        {
          "internalType": "address",
          "name": "newOwner",
          "type": "address"
        }
      ],
      "name": "transferOwnershipStudent",
      "outputs": [],
      "stateMutability": "nonpayable",
      "type": "function"
    },
    {
      "inputs": [
        {
          "components": [
            {
              "internalType": "address",
              "name": "target",
              "type": "address"
            },
            {
              "internalType": "bytes",
              "name": "encodedFunction",
              "type": "bytes"
            },
            {
              "components": [
                {
                  "internalType": "uint256",
                  "name": "gasLimit",
                  "type": "uint256"
                },
                {
                  "internalType": "uint256",
                  "name": "gasPrice",
                  "type": "uint256"
                },
                {
                  "internalType": "uint256",
                  "name": "pctRelayFee",
                  "type": "uint256"
                },
                {
                  "internalType": "uint256",
                  "name": "baseRelayFee",
                  "type": "uint256"
                }
              ],
              "internalType": "struct GSNTypes.GasData",
              "name": "gasData",
              "type": "tuple"
            },
            {
              "components": [
                {
                  "internalType": "address",
                  "name": "senderAddress",
                  "type": "address"
                },
                {
                  "internalType": "uint256",
                  "name": "senderNonce",
                  "type": "uint256"
                },
                {
                  "internalType": "address",
                  "name": "relayWorker",
                  "type": "address"
                },
                {
                  "internalType": "address",
                  "name": "paymaster",
                  "type": "address"
                }
              ],
              "internalType": "struct GSNTypes.RelayData",
              "name": "relayData",
              "type": "tuple"
            }
          ],
          "internalType": "struct GSNTypes.RelayRequest",
          "name": "relayRequest",
          "type": "tuple"
        },
        {
          "internalType": "bytes",
          "name": "",
          "type": "bytes"
        },
        {
          "internalType": "uint256",
          "name": "",
          "type": "uint256"
        }
      ],
      "name": "acceptRelayedCall",
      "outputs": [
        {
          "internalType": "bytes",
          "name": "context",
          "type": "bytes"
        }
      ],
      "stateMutability": "view",
      "type": "function"
    },
    {
      "inputs": [
        {
          "internalType": "bytes",
          "name": "",
          "type": "bytes"
        }
      ],
      "name": "preRelayedCall",
      "outputs": [
        {
          "internalType": "bytes32",
          "name": "",
          "type": "bytes32"
        }
      ],
      "stateMutability": "nonpayable",
      "type": "function"
    },
    {
      "inputs": [
        {
          "internalType": "bytes",
          "name": "",
          "type": "bytes"
        },
        {
          "internalType": "bool",
          "name": "success",
          "type": "bool"
        },
        {
          "internalType": "bytes32",
          "name": "",
          "type": "bytes32"
        },
        {
          "internalType": "uint256",
          "name": "",
          "type": "uint256"
        },
        {
          "components": [
            {
              "internalType": "uint256",
              "name": "gasLimit",
              "type": "uint256"
            },
            {
              "internalType": "uint256",
              "name": "gasPrice",
              "type": "uint256"
            },
            {
              "internalType": "uint256",
              "name": "pctRelayFee",
              "type": "uint256"
            },
            {
              "internalType": "uint256",
              "name": "baseRelayFee",
              "type": "uint256"
            }
          ],
          "internalType": "struct GSNTypes.GasData",
          "name": "",
          "type": "tuple"
        }
      ],
      "name": "postRelayedCall",
      "outputs": [],
      "stateMutability": "nonpayable",
      "type": "function"
    }
  ],
  "bytecode": "0x60806040523480156200001157600080fd5b506040516200227338038062002273833981016040819052620000349162000577565b6000620000496001600160e01b03620001cb16565b600080546001600160a01b0319166001600160a01b0383169081178255604051929350917f8be0079c531659141344cd1fd0a4f28419497f9722a3daafe3b4186f6b6457e0908290a35060038290556006805463ffffffff19169055600480546001600160a01b0319166001600160a01b038316179055620000df6000620000d0620001cb565b6001600160e01b03620001cf16565b6200011c604051620000f190620005b4565b6040519081900390206200010d6001600160e01b03620001cb16565b6001600160e01b03620001e816565b620001476040516200012e90620005cf565b604051908190039020826001600160e01b03620001e816565b6001600160a01b038116620001646001600160e01b03620001cb16565b6001600160a01b031614620001c357620001856040516200012e90620005b4565b6200019b6000826001600160e01b03620001e816565b620001c36000620001b46001600160e01b03620001cb16565b6001600160e01b036200024916565b50506200068a565b3390565b620001e482826001600160e01b03620002a416565b5050565b6000828152600160205260409020600201546200022190620002126001600160e01b03620001cb16565b6001600160e01b036200032816565b620001cf5760405162461bcd60e51b81526004016200024090620005ec565b60405180910390fd5b6200025c6001600160e01b03620001cb16565b6001600160a01b0316816001600160a01b0316146200028f5760405162461bcd60e51b815260040162000240906200063b565b620001e482826001600160e01b036200035716565b6000828152600160209081526040909120620002cb91839062001125620003db821b17901c565b15620001e457620002e46001600160e01b03620001cb16565b6001600160a01b0316816001600160a01b0316837f2f8788117e7eff1d82e926ec794901d17c78024a50270940304540a733656f0d60405160405180910390a45050565b600082815260016020908152604082206200034e91849062001105620003fb821b17901c565b90505b92915050565b60008281526001602090815260409091206200037e9183906200113a6200041b821b17901c565b15620001e457620003976001600160e01b03620001cb16565b6001600160a01b0316816001600160a01b0316837ff6391f5c32d9c69d2a47ea670b442974b53935d1edc7fd64eb21e047a839171b60405160405180910390a45050565b60006200034e836001600160a01b0384166001600160e01b036200043b16565b60006200034e836001600160a01b0384166001600160e01b036200049316565b60006200034e836001600160a01b0384166001600160e01b03620004ab16565b60006200045283836001600160e01b036200049316565b6200048a5750815460018181018455600084815260208082209093018490558454848252828601909352604090209190915562000351565b50600062000351565b60009081526001919091016020526040902054151590565b600081815260018301602052604081205480156200056c5783546000198083019190810190600090879083908110620004e057fe5b9060005260206000200154905080876000018481548110620004fe57fe5b6000918252602080832090910192909255828152600189810190925260409020908401905586548790806200052f57fe5b6001900381819060005260206000200160009055905586600101600087815260200190815260200160002060009055600194505050505062000351565b600091505062000351565b600080604083850312156200058a578182fd5b825160208401519092506001600160a01b0381168114620005a9578182fd5b809150509250929050565b6e524541445f53434f52455f524f4c4560881b8152600f0190565b704d4f444946595f53434f52455f524f4c4560781b815260110190565b6020808252602f908201527f416363657373436f6e74726f6c3a2073656e646572206d75737420626520616e60408201526e0818591b5a5b881d1bc819dc985b9d608a1b606082015260800190565b6020808252602f908201527f416363657373436f6e74726f6c3a2063616e206f6e6c792072656e6f756e636560408201526e103937b632b9903337b91039b2b63360891b606082015260800190565b611bd9806200069a6000396000f3fe608060405234801561001057600080fd5b506004361061020b5760003560e01c80638da5cb5b1161012a578063ba6019d3116100bd578063d547741f1161008c578063efedc66911610071578063efedc66914610410578063f2fde38b14610425578063fbfbd0f2146104385761020b565b8063d547741f146103ea578063db4d5e87146103fd5761020b565b8063ba6019d3146103b4578063be22f546146103c7578063ca15c873146103cf578063ce1b815f146103e25761020b565b8063a217fddf116100f9578063a217fddf14610366578063a88094101461036e578063aa4f38c714610381578063b1ed031f146103945761020b565b80638da5cb5b146103185780639010d07c1461032057806391d14854146103335780639fcb17de146103535761020b565b806331fb5fde116101a25780637206f3d6116101715780637206f3d6146102e25780637a6c8b53146102ea57806380274db7146102f2578063898855ed146103055761020b565b806331fb5fde146102a157806336568abe146102b457806368651350146102c7578063715018a6146102da5761020b565b8063248a9ca3116101de578063248a9ca314610253578063289c5e5414610266578063295869be1461027b5780632f2ff15d1461028e5761020b565b806306fdde031461021057806318a9e9481461022e5780631b99219f14610243578063222baa3a1461024b575b600080fd5b61021861044b565b604051610225919061172e565b60405180910390f35b61024161023c36600461132c565b610451565b005b61021861045d565b610241610474565b610218610261366004611489565b610500565b61026e610515565b6040516102259190611689565b61024161028936600461136b565b610598565b61024161029c3660046114a1565b610654565b6102416102af36600461132c565b610698565b6102416102c23660046114a1565b610851565b6102416102d53660046115a8565b610893565b610241610921565b6102186109ad565b61026e6109b9565b6102186103003660046114e6565b6109c8565b610241610313366004611489565b6109d0565b61026e610a45565b61026e61032e3660046114c5565b610a54565b6103466103413660046114a1565b610a7b565b6040516102259190611723565b6102416103613660046113a3565b610a99565b610218610b4c565b61024161037c3660046113e3565b610b51565b61024161038f3660046115a8565b610c39565b6103a76103a23660046115c3565b610cb6565b6040516102259190611737565b6102416103c23660046113a3565b610d30565b61026e610de5565b6102186103dd366004611489565b610dfc565b61026e610e13565b6102416103f83660046114a1565b610e22565b61024161040b36600461136b565b610e5c565b610418610f0c565b604051610225919061178a565b61024161043336600461132c565b610f43565b610241610446366004611526565b610f04565b60035481565b61045a81610f43565b50565b60405161046990611637565b604051809103902081565b60005b60055481101561045a57610489611006565b6001600160a01b03166005828154811061049f57fe5b6000918252602090912001546001600160a01b031614156104f8576000600582815481106104c957fe5b9060005260206000200160006101000a8154816001600160a01b0302191690836001600160a01b031602179055505b600101610477565b60009081526001602052604090206002015490565b600060183610801590610540575061052b610e13565b6001600160a01b0316336001600160a01b0316145b156105925761058b6000368080601f016020809104026020016040519081016040528093929190818152602001838380828437600092019190915250506013193601915061100a9050565b9050610595565b50335b90565b6105a0611006565b6000546001600160a01b039081169116146105d65760405162461bcd60e51b81526004016105cd906119fd565b60405180910390fd5b610650826001600160a01b0316636e8055a76040518163ffffffff1660e01b815260040160206040518083038186803b15801561061257600080fd5b505afa158015610626573d6000803e3d6000fd5b505050506040513d601f19601f8201168201806040525081019061064a919061134f565b82610e5c565b5050565b60008281526001602052604090206002015461067290610341611006565b61068e5760405162461bcd60e51b81526004016105cd906117f5565b610650828261101b565b6106a0611006565b6000546001600160a01b039081169116146106cd5760405162461bcd60e51b81526004016105cd906119fd565b600480546040517f85dade610000000000000000000000000000000000000000000000000000000081526001600160a01b03909116916385dade619161071591859101611689565b60206040518083038186803b15801561072d57600080fd5b505afa158015610741573d6000803e3d6000fd5b505050506040513d601f19601f82011682018060405250810190610765919061146d565b6107815760405162461bcd60e51b81526004016105cd90611b23565b61079e60405161079090611637565b604051809103902082610654565b806001600160a01b0316631b9dbc606040518163ffffffff1660e01b8152600401600060405180830381600087803b1580156107d957600080fd5b505af11580156107ed573d6000803e3d6000fd5b5050600580546001810182556000919091527f036b6384b5eca791c62761152d0c79bb0604c104a5fb6f4eb0703f3154bb3db001805473ffffffffffffffffffffffffffffffffffffffff19166001600160a01b0394909416939093179092555050565b610859611006565b6001600160a01b0316816001600160a01b0316146108895760405162461bcd60e51b81526004016105cd90611ac6565b610650828261108a565b6108b26040516108a290611660565b6040518091039020610341611006565b6108ce5760405162461bcd60e51b81526004016105cd90611852565b600654600390810b828103820b910b136108fa5760405162461bcd60e51b81526004016105cd906119c6565b60068054600381810b9390930390920b63ffffffff1663ffffffff19909216919091179055565b610929611006565b6000546001600160a01b039081169116146109565760405162461bcd60e51b81526004016105cd906119fd565b600080546040516001600160a01b03909116907f8be0079c531659141344cd1fd0a4f28419497f9722a3daafe3b4186f6b6457e0908390a36000805473ffffffffffffffffffffffffffffffffffffffff19169055565b60405161046990611660565b60006109c3610a45565b905090565b600092915050565b6109d8611006565b6000546001600160a01b03908116911614610a055760405162461bcd60e51b81526004016105cd906119fd565b60038190556040517f9f8929be552430dd6434c446d106c34954b2040ca8c4dbf42a39323dd6cda3ca90610a3a90839061172e565b60405180910390a150565b6000546001600160a01b031690565b6000828152600160205260408120610a72908363ffffffff6110f916565b90505b92915050565b6000828152600160205260408120610a72908363ffffffff61110516565b610aa1611006565b6000546001600160a01b03908116911614610ace5760405162461bcd60e51b81526004016105cd906119fd565b6040517f3db0bfd20000000000000000000000000000000000000000000000000000000081526001600160a01b03841690633db0bfd290610b15908590859060040161170a565b600060405180830381600087803b158015610b2f57600080fd5b505af1158015610b43573d6000803e3d6000fd5b50505050505050565b600081565b610b59611006565b6000546001600160a01b03908116911614610b865760405162461bcd60e51b81526004016105cd906119fd565b600480546040517f7fd5c1080000000000000000000000000000000000000000000000000000000081526001600160a01b0390911691637fd5c10891610bdc918c918c918c918c918c918c918c918c910161169d565b602060405180830381600087803b158015610bf657600080fd5b505af1158015610c0a573d6000803e3d6000fd5b505050506040513d601f19601f82011682018060405250810190610c2e919061134f565b505050505050505050565b610c486040516108a290611660565b610c645760405162461bcd60e51b81526004016105cd90611852565b600654600390810b808301820b910b12610c905760405162461bcd60e51b81526004016105cd90611a8f565b60068054600381810b90930190920b63ffffffff1663ffffffff19909216919091179055565b6060610cc0610a45565b6001600160a01b0316610cd1610515565b6001600160a01b031614610cf75760405162461bcd60e51b81526004016105cd90611a32565b610d04602086018661132c565b6000604051602001610d179291906116ee565b6040516020818303038152906040529050949350505050565b610d38611006565b6000546001600160a01b03908116911614610d655760405162461bcd60e51b81526004016105cd906119fd565b610de0836001600160a01b0316636e8055a76040518163ffffffff1660e01b815260040160206040518083038186803b158015610da157600080fd5b505afa158015610db5573d6000803e3d6000fd5b505050506040513d601f19601f82011682018060405250810190610dd9919061134f565b8383610a99565b505050565b60065464010000000090046001600160a01b031681565b6000818152600160205260408120610a759061111a565b6002546001600160a01b031690565b600082815260016020526040902060020154610e4090610341611006565b6108895760405162461bcd60e51b81526004016105cd90611969565b610e64611006565b6000546001600160a01b03908116911614610e915760405162461bcd60e51b81526004016105cd906119fd565b6040517f66995a460000000000000000000000000000000000000000000000000000000081526001600160a01b038316906366995a4690610ed6908490600401611689565b600060405180830381600087803b158015610ef057600080fd5b505af1158015610f04573d6000803e3d6000fd5b505050505050565b6000610f1d6040516108a290611637565b610f395760405162461bcd60e51b81526004016105cd9061190c565b5060065460030b90565b610f4b611006565b6000546001600160a01b03908116911614610f785760405162461bcd60e51b81526004016105cd906119fd565b6001600160a01b038116610f9e5760405162461bcd60e51b81526004016105cd906118af565b600080546040516001600160a01b03808516939216917f8be0079c531659141344cd1fd0a4f28419497f9722a3daafe3b4186f6b6457e091a36000805473ffffffffffffffffffffffffffffffffffffffff19166001600160a01b0392909216919091179055565b3390565b01601401516001600160a01b031690565b6000828152600160205260409020611039908263ffffffff61112516565b1561065057611046611006565b6001600160a01b0316816001600160a01b0316837f2f8788117e7eff1d82e926ec794901d17c78024a50270940304540a733656f0d60405160405180910390a45050565b60008281526001602052604090206110a8908263ffffffff61113a16565b15610650576110b5611006565b6001600160a01b0316816001600160a01b0316837ff6391f5c32d9c69d2a47ea670b442974b53935d1edc7fd64eb21e047a839171b60405160405180910390a45050565b6000610a72838361114f565b6000610a72836001600160a01b038416611194565b6000610a75826111ac565b6000610a72836001600160a01b0384166111b0565b6000610a72836001600160a01b0384166111fa565b815460009082106111725760405162461bcd60e51b81526004016105cd90611798565b82600001828154811061118157fe5b9060005260206000200154905092915050565b60009081526001919091016020526040902054151590565b5490565b60006111bc8383611194565b6111f257508154600181810184556000848152602080822090930184905584548482528286019093526040902091909155610a75565b506000610a75565b600081815260018301602052604081205480156112b6578354600019808301919081019060009087908390811061122d57fe5b906000526020600020015490508087600001848154811061124a57fe5b60009182526020808320909101929092558281526001898101909252604090209084019055865487908061127a57fe5b60019003818190600052602060002001600090559055866001016000878152602001908152602001600020600090556001945050505050610a75565b6000915050610a75565b60008083601f8401126112d1578182fd5b50813567ffffffffffffffff8111156112e8578182fd5b60208301915083602082850101111561130057600080fd5b9250929050565b8035600381900b8114610a7557600080fd5b803562ffffff81168114610a7557600080fd5b60006020828403121561133d578081fd5b813561134881611b80565b9392505050565b600060208284031215611360578081fd5b815161134881611b80565b6000806040838503121561137d578081fd5b823561138881611b80565b9150602083013561139881611b80565b809150509250929050565b6000806000606084860312156113b7578081fd5b83356113c281611b80565b925060208401356113d281611b80565b929592945050506040919091013590565b600080600080600080600080610100898b0312156113ff578384fd5b883561140a81611b80565b9750602089013596506114208a60408b01611319565b955061142f8a60608b01611319565b945061143e8a60808b01611307565b935060a0890135925060c0890135915060e089013561145c81611b80565b809150509295985092959890939650565b60006020828403121561147e578081fd5b815161134881611b95565b60006020828403121561149a578081fd5b5035919050565b600080604083850312156114b3578182fd5b82359150602083013561139881611b80565b600080604083850312156114d7578182fd5b50508035926020909101359150565b600080602083850312156114f8578182fd5b823567ffffffffffffffff81111561150e578283fd5b61151a858286016112c0565b90969095509350505050565b600080600080600080868803610100811215611540578283fd5b873567ffffffffffffffff811115611556578384fd5b6115628a828b016112c0565b909850965050602088013561157681611b95565b945060408801359350606088013592506080607f1982011215611597578182fd5b506080870190509295509295509295565b6000602082840312156115b9578081fd5b610a728383611307565b600080600080606085870312156115d8578182fd5b843567ffffffffffffffff808211156115ef578384fd5b818701610140818a031215611602578485fd5b95506020870135915080821115611617578384fd5b50611624878288016112c0565b9598909750949560400135949350505050565b7f524541445f53434f52455f524f4c4500000000000000000000000000000000008152600f0190565b7f4d4f444946595f53434f52455f524f4c45000000000000000000000000000000815260110190565b6001600160a01b0391909116815260200190565b6001600160a01b039889168152602081019790975262ffffff958616604088015293909416606086015260039190910b608085015260a084015260c083019190915290911660e08201526101000190565b6001600160a01b0392909216825260ff16602082015260400190565b6001600160a01b03929092168252602082015260400190565b901515815260200190565b90815260200190565b6000602080835283518082850152825b8181101561176357858101830151858201604001528201611747565b818111156117745783604083870101525b50601f01601f1916929092016040019392505050565b60039190910b815260200190565b60208082526022908201527f456e756d657261626c655365743a20696e646578206f7574206f6620626f756e60408201527f6473000000000000000000000000000000000000000000000000000000000000606082015260800190565b6020808252602f908201527f416363657373436f6e74726f6c3a2073656e646572206d75737420626520616e60408201527f2061646d696e20746f206772616e740000000000000000000000000000000000606082015260800190565b6020808252602e908201527f53747564656e743a2063616c6c657220646f65736e27742068617665204d4f4460408201527f4946595f53434f52455f524f4c45000000000000000000000000000000000000606082015260800190565b60208082526026908201527f4f776e61626c653a206e6577206f776e657220697320746865207a65726f206160408201527f6464726573730000000000000000000000000000000000000000000000000000606082015260800190565b6020808252602c908201527f53747564656e743a2063616c6c657220646f65736e277420686176652052454160408201527f445f53434f52455f524f4c450000000000000000000000000000000000000000606082015260800190565b60208082526030908201527f416363657373436f6e74726f6c3a2073656e646572206d75737420626520616e60408201527f2061646d696e20746f207265766f6b6500000000000000000000000000000000606082015260800190565b6020808252601c908201527f53747564656e743a2062616420677261646573206f766572666c6f7700000000604082015260600190565b6020808252818101527f4f776e61626c653a2063616c6c6572206973206e6f7420746865206f776e6572604082015260600190565b60208082526029908201527f53747564656e743a2047534e20656e61626c6564206f6e6c7920666f7220746860408201527f652073747564656e740000000000000000000000000000000000000000000000606082015260800190565b6020808252601d908201527f53747564656e743a20676f6f6420677261646573206f766572666c6f77000000604082015260600190565b6020808252602f908201527f416363657373436f6e74726f6c3a2063616e206f6e6c792072656e6f756e636560408201527f20726f6c657320666f722073656c660000000000000000000000000000000000606082015260800190565b60208082526029908201527f53747564656e743a2061646472657373206973206e6f7420612076616c69642060408201527f636c617373726f6f6d0000000000000000000000000000000000000000000000606082015260800190565b6001600160a01b038116811461045a57600080fd5b801515811461045a57600080fdfea264697066735822122008fd661b8559e1d7eb5bc8cc870c3f73687a7b65a0f62e7ac39f9cb2dc2a80cb64736f6c63430006060033",
  "immutableReferences": {},
  "source": "pragma solidity 0.6.6;\r\npragma experimental ABIEncoderV2;\r\n\r\nimport \"@openzeppelin/contracts/math/SafeMath.sol\";\r\nimport \"@openzeppelin/contracts/access/AccessControl.sol\";\r\nimport \"@openzeppelin/contracts/access/Ownable.sol\";\r\nimport \"@openzeppelin/contracts/token/ERC20/IERC20.sol\";\r\nimport \"@openzeppelin/contracts/utils/Address.sol\";\r\nimport \"./gambi/BaseRelayRecipient.sol\";\r\nimport \"./gambi/GSNTypes.sol\";\r\nimport \"./interface/IClassroom.sol\";\r\nimport \"./interface/IUniversity.sol\";\r\nimport \"./interface/IStudentApplication.sol\";\r\nimport \"./interface/IGrantsManager.sol\";\r\n\r\n\r\ncontract Student is Ownable, AccessControl, BaseRelayRecipient, IStudent {\r\n    using SafeMath for uint256;\r\n\r\n    //READ_SCORE_ROLE can read student Score\r\n    bytes32 public constant READ_SCORE_ROLE = keccak256(\"READ_SCORE_ROLE\");\r\n    //MODIFY_SCORE_ROLE can read student Score\r\n    bytes32 public constant MODIFY_SCORE_ROLE = keccak256(\"MODIFY_SCORE_ROLE\");\r\n\r\n    bytes32 public name;\r\n    IUniversity _university;\r\n    address[] _classroomAddress;\r\n    int32 _score;\r\n\r\n    IERC20 public daiToken;\r\n\r\n    constructor(bytes32 _name, address payable universityAddress) public {\r\n        name = _name;\r\n        _score = 0;\r\n        _university = IUniversity(universityAddress);\r\n        _setupRole(DEFAULT_ADMIN_ROLE, _msgSender());\r\n        grantRole(READ_SCORE_ROLE, _msgSender());\r\n        grantRole(MODIFY_SCORE_ROLE, universityAddress);\r\n        if (_msgSender() != universityAddress) {\r\n            grantRole(READ_SCORE_ROLE, universityAddress);\r\n            grantRole(DEFAULT_ADMIN_ROLE, universityAddress);\r\n            renounceRole(DEFAULT_ADMIN_ROLE, _msgSender());\r\n        }\r\n    }\r\n\r\n    event LogChangeName(bytes32);\r\n\r\n    function ownerStudent() public view override returns (address) {\r\n        return owner();\r\n    }\r\n\r\n    function changeName(bytes32 val) public onlyOwner {\r\n        name = val;\r\n        emit LogChangeName(name);\r\n    }\r\n\r\n    function score() public view override returns (int32) {\r\n        require(\r\n            hasRole(READ_SCORE_ROLE, _msgSender()),\r\n            \"Student: caller doesn't have READ_SCORE_ROLE\"\r\n        );\r\n        return _score;\r\n    }\r\n\r\n    function addScore(int32 val) public override {\r\n        require(\r\n            hasRole(MODIFY_SCORE_ROLE, _msgSender()),\r\n            \"Student: caller doesn't have MODIFY_SCORE_ROLE\"\r\n        );\r\n        require(_score < _score + val, \"Student: good grades overflow\");\r\n        _score += val;\r\n    }\r\n\r\n    function subScore(int32 val) public override {\r\n        require(\r\n            hasRole(MODIFY_SCORE_ROLE, _msgSender()),\r\n            \"Student: caller doesn't have MODIFY_SCORE_ROLE\"\r\n        );\r\n        require(_score > _score - val, \"Student: bad grades overflow\");\r\n        _score -= val;\r\n    }\r\n\r\n    function applyToClassroom(address classroomAddress) public onlyOwner {\r\n        require(\r\n            _university.isValidClassroom(classroomAddress),\r\n            \"Student: address is not a valid classroom\"\r\n        );\r\n        grantRole(READ_SCORE_ROLE, classroomAddress);\r\n        IClassroom(classroomAddress).studentApply();\r\n        _classroomAddress.push(classroomAddress);\r\n    }\r\n\r\n    // not a feature but it is something a teacher would sometimes want to do\r\n    function removeFromMyClassroom() public {\r\n        for (uint256 i = 0; i < _classroomAddress.length; i++) {\r\n            if (_classroomAddress[i] == _msgSender())\r\n                _classroomAddress[i] = address(0);\r\n        }\r\n    }\r\n\r\n    function withdrawAllResultsFromClassroom(address classroom, address to)\r\n        public\r\n        onlyOwner\r\n    {\r\n        withdrawAllResultsFromApplication(\r\n            IClassroom(classroom).viewMyApplication(),\r\n            to\r\n        );\r\n    }\r\n\r\n    function withdrawResultsFromClassroom(\r\n        address classroom,\r\n        address to,\r\n        uint256 val\r\n    ) public onlyOwner {\r\n        withdrawResultsFromApplication(\r\n            IClassroom(classroom).viewMyApplication(),\r\n            to,\r\n            val\r\n        );\r\n    }\r\n\r\n    function withdrawAllResultsFromApplication(address application, address to)\r\n        public\r\n        onlyOwner\r\n    {\r\n        IStudentApplication(application).withdrawAllResults(to);\r\n    }\r\n\r\n    function withdrawResultsFromApplication(\r\n        address application,\r\n        address to,\r\n        uint256 val\r\n    ) public onlyOwner {\r\n        IStudentApplication(application).withdrawResults(to, val);\r\n    }\r\n\r\n    function requestClassroom(\r\n        address applicationAddr,\r\n        bytes32 cName,\r\n        uint24 cCut,\r\n        uint24 cPCut,\r\n        int32 minScore,\r\n        uint256 entryPrice,\r\n        uint256 duration,\r\n        address challenge\r\n    ) public onlyOwner {\r\n        _university.studentRequestClassroom(\r\n            applicationAddr,\r\n            cName,\r\n            cCut,\r\n            cPCut,\r\n            minScore,\r\n            entryPrice,\r\n            duration,\r\n            challenge\r\n        );\r\n    }\r\n\r\n    function transferOwnershipStudent(address newOwner) public override {\r\n        transferOwnership(newOwner);\r\n    }\r\n\r\n    function acceptRelayedCall(\r\n        GSNTypes.RelayRequest calldata relayRequest,\r\n        bytes calldata,\r\n        uint256\r\n    ) external view returns (bytes memory context) {\r\n        require(\r\n            _msgSenderGSN() == owner(),\r\n            \"Student: GSN enabled only for the student\"\r\n        );\r\n        return abi.encode(relayRequest.target, 0);\r\n    }\r\n\r\n    function preRelayedCall(bytes calldata) external returns (bytes32) {}\r\n\r\n    function postRelayedCall(\r\n        bytes calldata,\r\n        bool success,\r\n        bytes32,\r\n        uint256,\r\n        GSNTypes.GasData calldata\r\n    ) external {}\r\n}\r\n",
  "sourcePath": "/mnt/e/Repositories/Uproot/contracts/Student.sol",
  "compiler": {
    "name": "solc",
    "version": "0.6.6+commit.6c089d02.Emscripten.clang"
  },
  "schemaVersion": "3.1.0",
  "updatedAt": "2020-05-04T23:28:40.538Z",
  "devdoc": {
    "methods": {
      "getRoleAdmin(bytes32)": {
        "details": "Returns the admin role that controls `role`. See {grantRole} and {revokeRole}.     * To change a role's admin, use {_setRoleAdmin}."
      },
      "getRoleMember(bytes32,uint256)": {
        "details": "Returns one of the accounts that have `role`. `index` must be a value between 0 and {getRoleMemberCount}, non-inclusive.     * Role bearers are not sorted in any particular way, and their ordering may change at any point.     * WARNING: When using {getRoleMember} and {getRoleMemberCount}, make sure you perform all queries on the same block. See the following https://forum.openzeppelin.com/t/iterating-over-elements-on-enumerableset-in-openzeppelin-contracts/2296[forum post] for more information."
      },
      "getRoleMemberCount(bytes32)": {
        "details": "Returns the number of accounts that have `role`. Can be used together with {getRoleMember} to enumerate all bearers of a role."
      },
      "grantRole(bytes32,address)": {
        "details": "Grants `role` to `account`.     * If `account` had not been already granted `role`, emits a {RoleGranted} event.     * Requirements:     * - the caller must have ``role``'s admin role."
      },
      "hasRole(bytes32,address)": {
        "details": "Returns `true` if `account` has been granted `role`."
      },
      "owner()": {
        "details": "Returns the address of the current owner."
      },
      "renounceOwnership()": {
        "details": "Leaves the contract without owner. It will not be possible to call `onlyOwner` functions anymore. Can only be called by the current owner.     * NOTE: Renouncing ownership will leave the contract without an owner, thereby removing any functionality that is only available to the owner."
      },
      "renounceRole(bytes32,address)": {
        "details": "Revokes `role` from the calling account.     * Roles are often managed via {grantRole} and {revokeRole}: this function's purpose is to provide a mechanism for accounts to lose their privileges if they are compromised (such as when a trusted device is misplaced).     * If the calling account had been granted `role`, emits a {RoleRevoked} event.     * Requirements:     * - the caller must be `account`."
      },
      "revokeRole(bytes32,address)": {
        "details": "Revokes `role` from `account`.     * If `account` had been granted `role`, emits a {RoleRevoked} event.     * Requirements:     * - the caller must have ``role``'s admin role."
      },
      "transferOwnership(address)": {
        "details": "Transfers ownership of the contract to a new account (`newOwner`). Can only be called by the current owner."
      }
    }
  },
  "userdoc": {
    "methods": {
      "_msgSenderGSN()": {
        "notice": "return the sender of this call. if the call came through our trusted forwarder, return the original sender. otherwise, return `msg.sender`. should be used in the contract anywhere instead of msg.sender"
      }
    }
  }
}