{
  "contractName": "Student",
  "abi": [
    {
      "inputs": [
        {
          "internalType": "bytes32",
          "name": "_name",
          "type": "bytes32"
        },
        {
          "internalType": "address payable",
          "name": "universityAddress",
          "type": "address"
        }
      ],
      "stateMutability": "nonpayable",
      "type": "constructor"
    },
    {
      "anonymous": false,
      "inputs": [
        {
          "indexed": false,
          "internalType": "bytes32",
          "name": "",
          "type": "bytes32"
        }
      ],
      "name": "LogChangeName",
      "type": "event"
    },
    {
      "anonymous": false,
      "inputs": [
        {
          "indexed": true,
          "internalType": "address",
          "name": "previousOwner",
          "type": "address"
        },
        {
          "indexed": true,
          "internalType": "address",
          "name": "newOwner",
          "type": "address"
        }
      ],
      "name": "OwnershipTransferred",
      "type": "event"
    },
    {
      "anonymous": false,
      "inputs": [
        {
          "indexed": true,
          "internalType": "bytes32",
          "name": "role",
          "type": "bytes32"
        },
        {
          "indexed": true,
          "internalType": "address",
          "name": "account",
          "type": "address"
        },
        {
          "indexed": true,
          "internalType": "address",
          "name": "sender",
          "type": "address"
        }
      ],
      "name": "RoleGranted",
      "type": "event"
    },
    {
      "anonymous": false,
      "inputs": [
        {
          "indexed": true,
          "internalType": "bytes32",
          "name": "role",
          "type": "bytes32"
        },
        {
          "indexed": true,
          "internalType": "address",
          "name": "account",
          "type": "address"
        },
        {
          "indexed": true,
          "internalType": "address",
          "name": "sender",
          "type": "address"
        }
      ],
      "name": "RoleRevoked",
      "type": "event"
    },
    {
      "inputs": [],
      "name": "DEFAULT_ADMIN_ROLE",
      "outputs": [
        {
          "internalType": "bytes32",
          "name": "",
          "type": "bytes32"
        }
      ],
      "stateMutability": "view",
      "type": "function"
    },
    {
      "inputs": [],
      "name": "MODIFY_SCORE_ROLE",
      "outputs": [
        {
          "internalType": "bytes32",
          "name": "",
          "type": "bytes32"
        }
      ],
      "stateMutability": "view",
      "type": "function"
    },
    {
      "inputs": [],
      "name": "READ_SCORE_ROLE",
      "outputs": [
        {
          "internalType": "bytes32",
          "name": "",
          "type": "bytes32"
        }
      ],
      "stateMutability": "view",
      "type": "function"
    },
    {
      "inputs": [],
      "name": "_msgSenderGSN",
      "outputs": [
        {
          "internalType": "address",
          "name": "",
          "type": "address"
        }
      ],
      "stateMutability": "view",
      "type": "function"
    },
    {
      "inputs": [],
      "name": "cToken",
      "outputs": [
        {
          "internalType": "contract CERC20",
          "name": "",
          "type": "address"
        }
      ],
      "stateMutability": "view",
      "type": "function"
    },
    {
      "inputs": [],
      "name": "daiToken",
      "outputs": [
        {
          "internalType": "contract IERC20",
          "name": "",
          "type": "address"
        }
      ],
      "stateMutability": "view",
      "type": "function"
    },
    {
      "inputs": [
        {
          "internalType": "bytes32",
          "name": "role",
          "type": "bytes32"
        }
      ],
      "name": "getRoleAdmin",
      "outputs": [
        {
          "internalType": "bytes32",
          "name": "",
          "type": "bytes32"
        }
      ],
      "stateMutability": "view",
      "type": "function"
    },
    {
      "inputs": [
        {
          "internalType": "bytes32",
          "name": "role",
          "type": "bytes32"
        },
        {
          "internalType": "uint256",
          "name": "index",
          "type": "uint256"
        }
      ],
      "name": "getRoleMember",
      "outputs": [
        {
          "internalType": "address",
          "name": "",
          "type": "address"
        }
      ],
      "stateMutability": "view",
      "type": "function"
    },
    {
      "inputs": [
        {
          "internalType": "bytes32",
          "name": "role",
          "type": "bytes32"
        }
      ],
      "name": "getRoleMemberCount",
      "outputs": [
        {
          "internalType": "uint256",
          "name": "",
          "type": "uint256"
        }
      ],
      "stateMutability": "view",
      "type": "function"
    },
    {
      "inputs": [],
      "name": "getTrustedForwarder",
      "outputs": [
        {
          "internalType": "address",
          "name": "",
          "type": "address"
        }
      ],
      "stateMutability": "view",
      "type": "function"
    },
    {
      "inputs": [
        {
          "internalType": "bytes32",
          "name": "role",
          "type": "bytes32"
        },
        {
          "internalType": "address",
          "name": "account",
          "type": "address"
        }
      ],
      "name": "grantRole",
      "outputs": [],
      "stateMutability": "nonpayable",
      "type": "function"
    },
    {
      "inputs": [
        {
          "internalType": "bytes32",
          "name": "role",
          "type": "bytes32"
        },
        {
          "internalType": "address",
          "name": "account",
          "type": "address"
        }
      ],
      "name": "hasRole",
      "outputs": [
        {
          "internalType": "bool",
          "name": "",
          "type": "bool"
        }
      ],
      "stateMutability": "view",
      "type": "function"
    },
    {
      "inputs": [],
      "name": "name",
      "outputs": [
        {
          "internalType": "bytes32",
          "name": "",
          "type": "bytes32"
        }
      ],
      "stateMutability": "view",
      "type": "function"
    },
    {
      "inputs": [],
      "name": "owner",
      "outputs": [
        {
          "internalType": "address",
          "name": "",
          "type": "address"
        }
      ],
      "stateMutability": "view",
      "type": "function"
    },
    {
      "inputs": [],
      "name": "renounceOwnership",
      "outputs": [],
      "stateMutability": "nonpayable",
      "type": "function"
    },
    {
      "inputs": [
        {
          "internalType": "bytes32",
          "name": "role",
          "type": "bytes32"
        },
        {
          "internalType": "address",
          "name": "account",
          "type": "address"
        }
      ],
      "name": "renounceRole",
      "outputs": [],
      "stateMutability": "nonpayable",
      "type": "function"
    },
    {
      "inputs": [
        {
          "internalType": "bytes32",
          "name": "role",
          "type": "bytes32"
        },
        {
          "internalType": "address",
          "name": "account",
          "type": "address"
        }
      ],
      "name": "revokeRole",
      "outputs": [],
      "stateMutability": "nonpayable",
      "type": "function"
    },
    {
      "inputs": [
        {
          "internalType": "address",
          "name": "newOwner",
          "type": "address"
        }
      ],
      "name": "transferOwnership",
      "outputs": [],
      "stateMutability": "nonpayable",
      "type": "function"
    },
    {
      "inputs": [
        {
          "components": [
            {
              "internalType": "address",
              "name": "target",
              "type": "address"
            },
            {
              "internalType": "bytes",
              "name": "encodedFunction",
              "type": "bytes"
            },
            {
              "components": [
                {
                  "internalType": "uint256",
                  "name": "gasLimit",
                  "type": "uint256"
                },
                {
                  "internalType": "uint256",
                  "name": "gasPrice",
                  "type": "uint256"
                },
                {
                  "internalType": "uint256",
                  "name": "pctRelayFee",
                  "type": "uint256"
                },
                {
                  "internalType": "uint256",
                  "name": "baseRelayFee",
                  "type": "uint256"
                }
              ],
              "internalType": "struct GSNTypes.GasData",
              "name": "gasData",
              "type": "tuple"
            },
            {
              "components": [
                {
                  "internalType": "address",
                  "name": "senderAddress",
                  "type": "address"
                },
                {
                  "internalType": "uint256",
                  "name": "senderNonce",
                  "type": "uint256"
                },
                {
                  "internalType": "address",
                  "name": "relayWorker",
                  "type": "address"
                },
                {
                  "internalType": "address",
                  "name": "paymaster",
                  "type": "address"
                }
              ],
              "internalType": "struct GSNTypes.RelayData",
              "name": "relayData",
              "type": "tuple"
            }
          ],
          "internalType": "struct GSNTypes.RelayRequest",
          "name": "relayRequest",
          "type": "tuple"
        },
        {
          "internalType": "bytes",
          "name": "",
          "type": "bytes"
        },
        {
          "internalType": "uint256",
          "name": "",
          "type": "uint256"
        }
      ],
      "name": "acceptRelayedCall",
      "outputs": [
        {
          "internalType": "bytes",
          "name": "context",
          "type": "bytes"
        }
      ],
      "stateMutability": "view",
      "type": "function"
    },
    {
      "inputs": [
        {
          "internalType": "bytes",
          "name": "context",
          "type": "bytes"
        }
      ],
      "name": "preRelayedCall",
      "outputs": [
        {
          "internalType": "bytes32",
          "name": "",
          "type": "bytes32"
        }
      ],
      "stateMutability": "nonpayable",
      "type": "function"
    },
    {
      "inputs": [
        {
          "internalType": "bytes",
          "name": "context",
          "type": "bytes"
        },
        {
          "internalType": "bool",
          "name": "success",
          "type": "bool"
        },
        {
          "internalType": "bytes32",
          "name": "preRetVal",
          "type": "bytes32"
        },
        {
          "internalType": "uint256",
          "name": "gasUseWithoutPost",
          "type": "uint256"
        },
        {
          "components": [
            {
              "internalType": "uint256",
              "name": "gasLimit",
              "type": "uint256"
            },
            {
              "internalType": "uint256",
              "name": "gasPrice",
              "type": "uint256"
            },
            {
              "internalType": "uint256",
              "name": "pctRelayFee",
              "type": "uint256"
            },
            {
              "internalType": "uint256",
              "name": "baseRelayFee",
              "type": "uint256"
            }
          ],
          "internalType": "struct GSNTypes.GasData",
          "name": "gasData",
          "type": "tuple"
        }
      ],
      "name": "postRelayedCall",
      "outputs": [],
      "stateMutability": "nonpayable",
      "type": "function"
    },
    {
      "inputs": [
        {
          "internalType": "bytes32",
          "name": "val",
          "type": "bytes32"
        }
      ],
      "name": "changeName",
      "outputs": [],
      "stateMutability": "nonpayable",
      "type": "function"
    },
    {
      "inputs": [],
      "name": "score",
      "outputs": [
        {
          "internalType": "int32",
          "name": "",
          "type": "int32"
        }
      ],
      "stateMutability": "view",
      "type": "function"
    },
    {
      "inputs": [
        {
          "internalType": "int32",
          "name": "val",
          "type": "int32"
        }
      ],
      "name": "addScore",
      "outputs": [],
      "stateMutability": "nonpayable",
      "type": "function"
    },
    {
      "inputs": [
        {
          "internalType": "int32",
          "name": "val",
          "type": "int32"
        }
      ],
      "name": "subScore",
      "outputs": [],
      "stateMutability": "nonpayable",
      "type": "function"
    },
    {
      "inputs": [
        {
          "internalType": "address",
          "name": "classroomAddress",
          "type": "address"
        }
      ],
      "name": "applyToClassroom",
      "outputs": [],
      "stateMutability": "nonpayable",
      "type": "function"
    },
    {
      "inputs": [],
      "name": "removeFromMyClassroom",
      "outputs": [],
      "stateMutability": "nonpayable",
      "type": "function"
    },
    {
      "inputs": [
        {
          "internalType": "address",
          "name": "classroom",
          "type": "address"
        },
        {
          "internalType": "address",
          "name": "to",
          "type": "address"
        }
      ],
      "name": "withdrawAllResultsFromClassroom",
      "outputs": [],
      "stateMutability": "nonpayable",
      "type": "function"
    },
    {
      "inputs": [
        {
          "internalType": "address",
          "name": "classroom",
          "type": "address"
        },
        {
          "internalType": "address",
          "name": "to",
          "type": "address"
        },
        {
          "internalType": "uint256",
          "name": "val",
          "type": "uint256"
        }
      ],
      "name": "withdrawResultsFromClassroom",
      "outputs": [],
      "stateMutability": "nonpayable",
      "type": "function"
    },
    {
      "inputs": [
        {
          "internalType": "address",
          "name": "application",
          "type": "address"
        },
        {
          "internalType": "address",
          "name": "to",
          "type": "address"
        }
      ],
      "name": "withdrawAllResultsFromApplication",
      "outputs": [],
      "stateMutability": "nonpayable",
      "type": "function"
    },
    {
      "inputs": [
        {
          "internalType": "address",
          "name": "application",
          "type": "address"
        },
        {
          "internalType": "address",
          "name": "to",
          "type": "address"
        },
        {
          "internalType": "uint256",
          "name": "val",
          "type": "uint256"
        }
      ],
      "name": "withdrawResultsFromApplication",
      "outputs": [],
      "stateMutability": "nonpayable",
      "type": "function"
    },
    {
      "inputs": [
        {
          "internalType": "address",
          "name": "applicationAddr",
          "type": "address"
        },
        {
          "internalType": "bytes32",
          "name": "cName",
          "type": "bytes32"
        },
        {
          "internalType": "uint24",
          "name": "cCut",
          "type": "uint24"
        },
        {
          "internalType": "uint24",
          "name": "cPCut",
          "type": "uint24"
        },
        {
          "internalType": "int32",
          "name": "minScore",
          "type": "int32"
        },
        {
          "internalType": "uint256",
          "name": "entryPrice",
          "type": "uint256"
        },
        {
          "internalType": "uint256",
          "name": "duration",
          "type": "uint256"
        },
        {
          "internalType": "address",
          "name": "challenge",
          "type": "address"
        }
      ],
      "name": "requestClassroom",
      "outputs": [],
      "stateMutability": "nonpayable",
      "type": "function"
    }
  ],
  "bytecode": "0x60806040523480156200001157600080fd5b506040516200221b3803806200221b833981016040819052620000349162000577565b6000620000496001600160e01b03620001cb16565b600080546001600160a01b0319166001600160a01b0383169081178255604051929350917f8be0079c531659141344cd1fd0a4f28419497f9722a3daafe3b4186f6b6457e0908290a35060038290556006805463ffffffff19169055600480546001600160a01b0319166001600160a01b038316179055620000df6000620000d0620001cb565b6001600160e01b03620001cf16565b6200011c604051620000f190620005b4565b6040519081900390206200010d6001600160e01b03620001cb16565b6001600160e01b03620001e816565b620001476040516200012e90620005cf565b604051908190039020826001600160e01b03620001e816565b6001600160a01b038116620001646001600160e01b03620001cb16565b6001600160a01b031614620001c357620001856040516200012e90620005b4565b6200019b6000826001600160e01b03620001e816565b620001c36000620001b46001600160e01b03620001cb16565b6001600160e01b036200024916565b50506200068a565b3390565b620001e482826001600160e01b03620002a416565b5050565b6000828152600160205260409020600201546200022190620002126001600160e01b03620001cb16565b6001600160e01b036200032816565b620001cf5760405162461bcd60e51b81526004016200024090620005ec565b60405180910390fd5b6200025c6001600160e01b03620001cb16565b6001600160a01b0316816001600160a01b0316146200028f5760405162461bcd60e51b815260040162000240906200063b565b620001e482826001600160e01b036200035716565b6000828152600160209081526040909120620002cb918390620010cd620003db821b17901c565b15620001e457620002e46001600160e01b03620001cb16565b6001600160a01b0316816001600160a01b0316837f2f8788117e7eff1d82e926ec794901d17c78024a50270940304540a733656f0d60405160405180910390a45050565b600082815260016020908152604082206200034e918490620010ad620003fb821b17901c565b90505b92915050565b60008281526001602090815260409091206200037e918390620010e26200041b821b17901c565b15620001e457620003976001600160e01b03620001cb16565b6001600160a01b0316816001600160a01b0316837ff6391f5c32d9c69d2a47ea670b442974b53935d1edc7fd64eb21e047a839171b60405160405180910390a45050565b60006200034e836001600160a01b0384166001600160e01b036200043b16565b60006200034e836001600160a01b0384166001600160e01b036200049316565b60006200034e836001600160a01b0384166001600160e01b03620004ab16565b60006200045283836001600160e01b036200049316565b6200048a5750815460018181018455600084815260208082209093018490558454848252828601909352604090209190915562000351565b50600062000351565b60009081526001919091016020526040902054151590565b600081815260018301602052604081205480156200056c5783546000198083019190810190600090879083908110620004e057fe5b9060005260206000200154905080876000018481548110620004fe57fe5b6000918252602080832090910192909255828152600189810190925260409020908401905586548790806200052f57fe5b6001900381819060005260206000200160009055905586600101600087815260200190815260200160002060009055600194505050505062000351565b600091505062000351565b600080604083850312156200058a578182fd5b825160208401519092506001600160a01b0381168114620005a9578182fd5b809150509250929050565b6e524541445f53434f52455f524f4c4560881b8152600f0190565b704d4f444946595f53434f52455f524f4c4560781b815260110190565b6020808252602f908201527f416363657373436f6e74726f6c3a2073656e646572206d75737420626520616e60408201526e0818591b5a5b881d1bc819dc985b9d608a1b606082015260800190565b6020808252602f908201527f416363657373436f6e74726f6c3a2063616e206f6e6c792072656e6f756e636560408201526e103937b632b9903337b91039b2b63360891b606082015260800190565b611b81806200069a6000396000f3fe608060405234801561001057600080fd5b50600436106101f05760003560e01c80639010d07c1161010f578063be22f546116100a2578063db4d5e8711610071578063db4d5e87146103cf578063efedc669146103e2578063f2fde38b146103f7578063fbfbd0f21461040a576101f0565b8063be22f54614610399578063ca15c873146103a1578063ce1b815f146103b4578063d547741f146103bc576101f0565b8063a8809410116100de578063a880941014610340578063aa4f38c714610353578063b1ed031f14610366578063ba6019d314610386576101f0565b80639010d07c146102f257806391d14854146103055780639fcb17de14610325578063a217fddf14610338576101f0565b806336568abe116101875780637206f3d6116101565780637206f3d6146102bc57806380274db7146102c4578063898855ed146102d75780638da5cb5b146102ea576101f0565b806336568abe14610286578063686513501461029957806369e527da146102ac578063715018a6146102b4576101f0565b8063289c5e54116101c3578063289c5e5414610238578063295869be1461024d5780632f2ff15d1461026057806331fb5fde14610273576101f0565b806306fdde03146101f55780631b99219f14610213578063222baa3a1461021b578063248a9ca314610225575b600080fd5b6101fd61041d565b60405161020a91906116d6565b60405180910390f35b6101fd610423565b61022361043a565b005b6101fd610233366004611431565b6104c9565b6102406104de565b60405161020a9190611631565b61022361025b366004611313565b610561565b61022361026e366004611449565b61061d565b6102236102813660046112d4565b610661565b610223610294366004611449565b61081a565b6102236102a7366004611550565b61085c565b6102406108ea565b6102236108f9565b6101fd610985565b6101fd6102d236600461148e565b610991565b6102236102e5366004611431565b610999565b610240610a0e565b61024061030036600461146d565b610a1d565b610318610313366004611449565b610a44565b60405161020a91906116cb565b61022361033336600461134b565b610a62565b6101fd610b15565b61022361034e36600461138b565b610b1a565b610223610361366004611550565b610be1565b61037961037436600461156b565b610c5e565b60405161020a91906116df565b61022361039436600461134b565b610cd8565b610240610d8d565b6101fd6103af366004611431565b610da4565b610240610dbb565b6102236103ca366004611449565b610dca565b6102236103dd366004611313565b610e04565b6103ea610eb4565b60405161020a9190611732565b6102236104053660046112d4565b610eeb565b6102236104183660046114ce565b610eac565b60035481565b60405161042f906115df565b604051809103902081565b60005b6005548110156104c65761044f610fae565b6001600160a01b03166005828154811061046557fe5b6000918252602090912001546001600160a01b031614156104be5760006005828154811061048f57fe5b9060005260206000200160006101000a8154816001600160a01b0302191690836001600160a01b031602179055505b60010161043d565b50565b60009081526001602052604090206002015490565b60006018361080159061050957506104f4610dbb565b6001600160a01b0316336001600160a01b0316145b1561055b576105546000368080601f0160208091040260200160405190810160405280939291908181526020018383808284376000920191909152505060131936019150610fb29050565b905061055e565b50335b90565b610569610fae565b6000546001600160a01b0390811691161461059f5760405162461bcd60e51b8152600401610596906119a5565b60405180910390fd5b610619826001600160a01b0316636e8055a76040518163ffffffff1660e01b815260040160206040518083038186803b1580156105db57600080fd5b505afa1580156105ef573d6000803e3d6000fd5b505050506040513d601f19601f8201168201806040525081019061061391906112f7565b82610e04565b5050565b60008281526001602052604090206002015461063b90610313610fae565b6106575760405162461bcd60e51b81526004016105969061179d565b6106198282610fc3565b610669610fae565b6000546001600160a01b039081169116146106965760405162461bcd60e51b8152600401610596906119a5565b600480546040517f85dade610000000000000000000000000000000000000000000000000000000081526001600160a01b03909116916385dade61916106de91859101611631565b60206040518083038186803b1580156106f657600080fd5b505afa15801561070a573d6000803e3d6000fd5b505050506040513d601f19601f8201168201806040525081019061072e9190611415565b61074a5760405162461bcd60e51b815260040161059690611acb565b610767604051610759906115df565b60405180910390208261061d565b806001600160a01b0316631b9dbc606040518163ffffffff1660e01b8152600401600060405180830381600087803b1580156107a257600080fd5b505af11580156107b6573d6000803e3d6000fd5b5050600580546001810182556000919091527f036b6384b5eca791c62761152d0c79bb0604c104a5fb6f4eb0703f3154bb3db001805473ffffffffffffffffffffffffffffffffffffffff19166001600160a01b0394909416939093179092555050565b610822610fae565b6001600160a01b0316816001600160a01b0316146108525760405162461bcd60e51b815260040161059690611a6e565b6106198282611032565b61087b60405161086b90611608565b6040518091039020610313610fae565b6108975760405162461bcd60e51b8152600401610596906117fa565b600654600390810b828103820b910b136108c35760405162461bcd60e51b81526004016105969061196e565b60068054600381810b9390930390920b63ffffffff1663ffffffff19909216919091179055565b6007546001600160a01b031681565b610901610fae565b6000546001600160a01b0390811691161461092e5760405162461bcd60e51b8152600401610596906119a5565b600080546040516001600160a01b03909116907f8be0079c531659141344cd1fd0a4f28419497f9722a3daafe3b4186f6b6457e0908390a36000805473ffffffffffffffffffffffffffffffffffffffff19169055565b60405161042f90611608565b600092915050565b6109a1610fae565b6000546001600160a01b039081169116146109ce5760405162461bcd60e51b8152600401610596906119a5565b60038190556040517f9f8929be552430dd6434c446d106c34954b2040ca8c4dbf42a39323dd6cda3ca90610a039083906116d6565b60405180910390a150565b6000546001600160a01b031690565b6000828152600160205260408120610a3b908363ffffffff6110a116565b90505b92915050565b6000828152600160205260408120610a3b908363ffffffff6110ad16565b610a6a610fae565b6000546001600160a01b03908116911614610a975760405162461bcd60e51b8152600401610596906119a5565b6040517f3db0bfd20000000000000000000000000000000000000000000000000000000081526001600160a01b03841690633db0bfd290610ade90859085906004016116b2565b600060405180830381600087803b158015610af857600080fd5b505af1158015610b0c573d6000803e3d6000fd5b50505050505050565b600081565b610b22610fae565b6000546001600160a01b03908116911614610b4f5760405162461bcd60e51b8152600401610596906119a5565b600480546040517f7fd5c1080000000000000000000000000000000000000000000000000000000081526001600160a01b0390911691637fd5c10891610ba5918c918c918c918c918c918c918c918c9101611645565b600060405180830381600087803b158015610bbf57600080fd5b505af1158015610bd3573d6000803e3d6000fd5b505050505050505050505050565b610bf060405161086b90611608565b610c0c5760405162461bcd60e51b8152600401610596906117fa565b600654600390810b808301820b910b12610c385760405162461bcd60e51b815260040161059690611a37565b60068054600381810b90930190920b63ffffffff1663ffffffff19909216919091179055565b6060610c68610a0e565b6001600160a01b0316610c796104de565b6001600160a01b031614610c9f5760405162461bcd60e51b8152600401610596906119da565b610cac60208601866112d4565b6000604051602001610cbf929190611696565b6040516020818303038152906040529050949350505050565b610ce0610fae565b6000546001600160a01b03908116911614610d0d5760405162461bcd60e51b8152600401610596906119a5565b610d88836001600160a01b0316636e8055a76040518163ffffffff1660e01b815260040160206040518083038186803b158015610d4957600080fd5b505afa158015610d5d573d6000803e3d6000fd5b505050506040513d601f19601f82011682018060405250810190610d8191906112f7565b8383610a62565b505050565b60065464010000000090046001600160a01b031681565b6000818152600160205260408120610a3e906110c2565b6002546001600160a01b031690565b600082815260016020526040902060020154610de890610313610fae565b6108525760405162461bcd60e51b815260040161059690611911565b610e0c610fae565b6000546001600160a01b03908116911614610e395760405162461bcd60e51b8152600401610596906119a5565b6040517f66995a460000000000000000000000000000000000000000000000000000000081526001600160a01b038316906366995a4690610e7e908490600401611631565b600060405180830381600087803b158015610e9857600080fd5b505af1158015610eac573d6000803e3d6000fd5b505050505050565b6000610ec560405161086b906115df565b610ee15760405162461bcd60e51b8152600401610596906118b4565b5060065460030b90565b610ef3610fae565b6000546001600160a01b03908116911614610f205760405162461bcd60e51b8152600401610596906119a5565b6001600160a01b038116610f465760405162461bcd60e51b815260040161059690611857565b600080546040516001600160a01b03808516939216917f8be0079c531659141344cd1fd0a4f28419497f9722a3daafe3b4186f6b6457e091a36000805473ffffffffffffffffffffffffffffffffffffffff19166001600160a01b0392909216919091179055565b3390565b01601401516001600160a01b031690565b6000828152600160205260409020610fe1908263ffffffff6110cd16565b1561061957610fee610fae565b6001600160a01b0316816001600160a01b0316837f2f8788117e7eff1d82e926ec794901d17c78024a50270940304540a733656f0d60405160405180910390a45050565b6000828152600160205260409020611050908263ffffffff6110e216565b156106195761105d610fae565b6001600160a01b0316816001600160a01b0316837ff6391f5c32d9c69d2a47ea670b442974b53935d1edc7fd64eb21e047a839171b60405160405180910390a45050565b6000610a3b83836110f7565b6000610a3b836001600160a01b03841661113c565b6000610a3e82611154565b6000610a3b836001600160a01b038416611158565b6000610a3b836001600160a01b0384166111a2565b8154600090821061111a5760405162461bcd60e51b815260040161059690611740565b82600001828154811061112957fe5b9060005260206000200154905092915050565b60009081526001919091016020526040902054151590565b5490565b6000611164838361113c565b61119a57508154600181810184556000848152602080822090930184905584548482528286019093526040902091909155610a3e565b506000610a3e565b6000818152600183016020526040812054801561125e57835460001980830191908101906000908790839081106111d557fe5b90600052602060002001549050808760000184815481106111f257fe5b60009182526020808320909101929092558281526001898101909252604090209084019055865487908061122257fe5b60019003818190600052602060002001600090559055866001016000878152602001908152602001600020600090556001945050505050610a3e565b6000915050610a3e565b60008083601f840112611279578182fd5b50813567ffffffffffffffff811115611290578182fd5b6020830191508360208285010111156112a857600080fd5b9250929050565b8035600381900b8114610a3e57600080fd5b803562ffffff81168114610a3e57600080fd5b6000602082840312156112e5578081fd5b81356112f081611b28565b9392505050565b600060208284031215611308578081fd5b81516112f081611b28565b60008060408385031215611325578081fd5b823561133081611b28565b9150602083013561134081611b28565b809150509250929050565b60008060006060848603121561135f578081fd5b833561136a81611b28565b9250602084013561137a81611b28565b929592945050506040919091013590565b600080600080600080600080610100898b0312156113a7578384fd5b88356113b281611b28565b9750602089013596506113c88a60408b016112c1565b95506113d78a60608b016112c1565b94506113e68a60808b016112af565b935060a0890135925060c0890135915060e089013561140481611b28565b809150509295985092959890939650565b600060208284031215611426578081fd5b81516112f081611b3d565b600060208284031215611442578081fd5b5035919050565b6000806040838503121561145b578182fd5b82359150602083013561134081611b28565b6000806040838503121561147f578182fd5b50508035926020909101359150565b600080602083850312156114a0578182fd5b823567ffffffffffffffff8111156114b6578283fd5b6114c285828601611268565b90969095509350505050565b6000806000806000808688036101008112156114e8578283fd5b873567ffffffffffffffff8111156114fe578384fd5b61150a8a828b01611268565b909850965050602088013561151e81611b3d565b945060408801359350606088013592506080607f198201121561153f578182fd5b506080870190509295509295509295565b600060208284031215611561578081fd5b610a3b83836112af565b60008060008060608587031215611580578182fd5b843567ffffffffffffffff80821115611597578384fd5b818701610140818a0312156115aa578485fd5b955060208701359150808211156115bf578384fd5b506115cc87828801611268565b9598909750949560400135949350505050565b7f524541445f53434f52455f524f4c4500000000000000000000000000000000008152600f0190565b7f4d4f444946595f53434f52455f524f4c45000000000000000000000000000000815260110190565b6001600160a01b0391909116815260200190565b6001600160a01b039889168152602081019790975262ffffff958616604088015293909416606086015260039190910b608085015260a084015260c083019190915290911660e08201526101000190565b6001600160a01b0392909216825260ff16602082015260400190565b6001600160a01b03929092168252602082015260400190565b901515815260200190565b90815260200190565b6000602080835283518082850152825b8181101561170b578581018301518582016040015282016116ef565b8181111561171c5783604083870101525b50601f01601f1916929092016040019392505050565b60039190910b815260200190565b60208082526022908201527f456e756d657261626c655365743a20696e646578206f7574206f6620626f756e60408201527f6473000000000000000000000000000000000000000000000000000000000000606082015260800190565b6020808252602f908201527f416363657373436f6e74726f6c3a2073656e646572206d75737420626520616e60408201527f2061646d696e20746f206772616e740000000000000000000000000000000000606082015260800190565b6020808252602e908201527f53747564656e743a2063616c6c657220646f65736e27742068617665204d4f4460408201527f4946595f53434f52455f524f4c45000000000000000000000000000000000000606082015260800190565b60208082526026908201527f4f776e61626c653a206e6577206f776e657220697320746865207a65726f206160408201527f6464726573730000000000000000000000000000000000000000000000000000606082015260800190565b6020808252602c908201527f53747564656e743a2063616c6c657220646f65736e277420686176652052454160408201527f445f53434f52455f524f4c450000000000000000000000000000000000000000606082015260800190565b60208082526030908201527f416363657373436f6e74726f6c3a2073656e646572206d75737420626520616e60408201527f2061646d696e20746f207265766f6b6500000000000000000000000000000000606082015260800190565b6020808252601c908201527f53747564656e743a2062616420677261646573206f766572666c6f7700000000604082015260600190565b6020808252818101527f4f776e61626c653a2063616c6c6572206973206e6f7420746865206f776e6572604082015260600190565b60208082526029908201527f53747564656e743a2047534e20656e61626c6564206f6e6c7920666f7220746860408201527f652073747564656e740000000000000000000000000000000000000000000000606082015260800190565b6020808252601d908201527f53747564656e743a20676f6f6420677261646573206f766572666c6f77000000604082015260600190565b6020808252602f908201527f416363657373436f6e74726f6c3a2063616e206f6e6c792072656e6f756e636560408201527f20726f6c657320666f722073656c660000000000000000000000000000000000606082015260800190565b60208082526029908201527f53747564656e743a2061646472657373206973206e6f7420612076616c69642060408201527f636c617373726f6f6d0000000000000000000000000000000000000000000000606082015260800190565b6001600160a01b03811681146104c657600080fd5b80151581146104c657600080fdfea2646970667358221220a4b6511a49a3d001b8181dc485005501b533981503bbdfefd6f72b6e1b994bd064736f6c63430006060033",
  "immutableReferences": {},
  "source": "pragma solidity 0.6.6;\r\npragma experimental ABIEncoderV2;\r\n\r\nimport \"@openzeppelin/contracts/math/SafeMath.sol\";\r\nimport \"@openzeppelin/contracts/access/AccessControl.sol\";\r\nimport \"@openzeppelin/contracts/access/Ownable.sol\";\r\nimport \"@openzeppelin/contracts/token/ERC20/IERC20.sol\";\r\nimport \"@openzeppelin/contracts/utils/Address.sol\";\r\nimport \"./gambi/BaseRelayRecipient.sol\";\r\nimport \"./gambi/GSNTypes.sol\";\r\nimport \"./Classroom.sol\";\r\nimport \"./University.sol\";\r\nimport \"./StudentApplication.sol\";\r\n\r\n\r\ncontract Student is Ownable, AccessControl, BaseRelayRecipient {\r\n    using SafeMath for uint256;\r\n\r\n    //READ_SCORE_ROLE can read student Score\r\n    bytes32 public constant READ_SCORE_ROLE = keccak256(\"READ_SCORE_ROLE\");\r\n    //MODIFY_SCORE_ROLE can read student Score\r\n    bytes32 public constant MODIFY_SCORE_ROLE = keccak256(\"MODIFY_SCORE_ROLE\");\r\n\r\n    bytes32 public name;\r\n    University _university;\r\n    address[] _classroomAddress;\r\n    int32 _score;\r\n\r\n    IERC20 public daiToken;\r\n    CERC20 public cToken;\r\n\r\n    constructor(bytes32 _name, address payable universityAddress) public {\r\n        name = _name;\r\n        _score = 0;\r\n        _university = University(universityAddress);\r\n        _setupRole(DEFAULT_ADMIN_ROLE, _msgSender());\r\n        grantRole(READ_SCORE_ROLE, _msgSender());\r\n        grantRole(MODIFY_SCORE_ROLE, universityAddress);\r\n        if (_msgSender() != universityAddress) {\r\n            grantRole(READ_SCORE_ROLE, universityAddress);\r\n            grantRole(DEFAULT_ADMIN_ROLE, universityAddress);\r\n            renounceRole(DEFAULT_ADMIN_ROLE, _msgSender());\r\n        }\r\n    }\r\n\r\n    function acceptRelayedCall(\r\n        GSNTypes.RelayRequest calldata relayRequest,\r\n        bytes calldata,\r\n        uint256\r\n    )\r\n    external\r\n    view \r\n    returns (bytes memory context) {\r\n        require(_msgSenderGSN() == owner(), \"Student: GSN enabled only for the student\");\r\n        return abi.encode(relayRequest.target, 0);\r\n    }\r\n\r\n    function preRelayedCall(bytes calldata context) external returns (bytes32) {\r\n\r\n    }\r\n\r\n    function postRelayedCall(\r\n        bytes calldata context,\r\n        bool success,\r\n        bytes32 preRetVal,\r\n        uint256 gasUseWithoutPost,\r\n        GSNTypes.GasData calldata gasData\r\n    ) external {\r\n\r\n    }\r\n\r\n    event LogChangeName(bytes32);\r\n\r\n    function changeName(bytes32 val) public onlyOwner {\r\n        name = val;\r\n        emit LogChangeName(name);\r\n    }\r\n\r\n    function score() public view returns (int32) {\r\n        require(\r\n            hasRole(READ_SCORE_ROLE, _msgSender()),\r\n            \"Student: caller doesn't have READ_SCORE_ROLE\"\r\n        );\r\n        return _score;\r\n    }\r\n\r\n    function addScore(int32 val) public {\r\n        require(\r\n            hasRole(MODIFY_SCORE_ROLE, _msgSender()),\r\n            \"Student: caller doesn't have MODIFY_SCORE_ROLE\"\r\n        );\r\n        require(_score < _score + val, \"Student: good grades overflow\");\r\n        _score += val;\r\n    }\r\n\r\n    function subScore(int32 val) public {\r\n        require(\r\n            hasRole(MODIFY_SCORE_ROLE, _msgSender()),\r\n            \"Student: caller doesn't have MODIFY_SCORE_ROLE\"\r\n        );\r\n        require(_score > _score - val, \"Student: bad grades overflow\");\r\n        _score -= val;\r\n    }\r\n\r\n    function applyToClassroom(address classroomAddress) public onlyOwner {\r\n        require(\r\n            _university.isValidClassroom(classroomAddress),\r\n            \"Student: address is not a valid classroom\"\r\n        );\r\n        grantRole(READ_SCORE_ROLE, classroomAddress);\r\n        Classroom(classroomAddress).studentApply();\r\n        _classroomAddress.push(classroomAddress);\r\n    }\r\n\r\n    // not a feature but it is something a teacher would sometimes want to do\r\n    function removeFromMyClassroom() public {\r\n        for (uint256 i = 0; i < _classroomAddress.length; i++) {\r\n            if (_classroomAddress[i] == _msgSender())\r\n                _classroomAddress[i] = address(0);\r\n        }\r\n    }\r\n\r\n    function withdrawAllResultsFromClassroom(address classroom, address to)\r\n        public\r\n        onlyOwner\r\n    {\r\n        withdrawAllResultsFromApplication(\r\n            Classroom(classroom).viewMyApplication(),\r\n            to\r\n        );\r\n    }\r\n\r\n    function withdrawResultsFromClassroom(\r\n        address classroom,\r\n        address to,\r\n        uint256 val\r\n    ) public onlyOwner {\r\n        withdrawResultsFromApplication(\r\n            Classroom(classroom).viewMyApplication(),\r\n            to,\r\n            val\r\n        );\r\n    }\r\n\r\n    function withdrawAllResultsFromApplication(address application, address to)\r\n        public\r\n        onlyOwner\r\n    {\r\n        StudentApplication(application).withdrawAllResults(to);\r\n    }\r\n\r\n    function withdrawResultsFromApplication(\r\n        address application,\r\n        address to,\r\n        uint256 val\r\n    ) public onlyOwner {\r\n        StudentApplication(application).withdrawResults(to, val);\r\n    }\r\n\r\n    function requestClassroom(\r\n        address applicationAddr,\r\n        bytes32 cName,\r\n        uint24 cCut,\r\n        uint24 cPCut,\r\n        int32 minScore,\r\n        uint256 entryPrice,\r\n        uint256 duration,\r\n        address challenge\r\n    ) public onlyOwner {\r\n        _university.studentRequestClassroom(\r\n            applicationAddr,\r\n            cName,\r\n            cCut,\r\n            cPCut,\r\n            minScore,\r\n            entryPrice,\r\n            duration,\r\n            challenge\r\n        );\r\n    }\r\n}\r\n",
  "sourcePath": "/mnt/e/Repositories/Uproot/contracts/Student.sol",
  "compiler": {
    "name": "solc",
    "version": "0.6.6+commit.6c089d02.Emscripten.clang"
  },
  "schemaVersion": "3.1.0",
  "updatedAt": "2020-05-04T14:20:33.252Z",
  "devdoc": {
    "methods": {
      "getRoleAdmin(bytes32)": {
        "details": "Returns the admin role that controls `role`. See {grantRole} and {revokeRole}.     * To change a role's admin, use {_setRoleAdmin}."
      },
      "getRoleMember(bytes32,uint256)": {
        "details": "Returns one of the accounts that have `role`. `index` must be a value between 0 and {getRoleMemberCount}, non-inclusive.     * Role bearers are not sorted in any particular way, and their ordering may change at any point.     * WARNING: When using {getRoleMember} and {getRoleMemberCount}, make sure you perform all queries on the same block. See the following https://forum.openzeppelin.com/t/iterating-over-elements-on-enumerableset-in-openzeppelin-contracts/2296[forum post] for more information."
      },
      "getRoleMemberCount(bytes32)": {
        "details": "Returns the number of accounts that have `role`. Can be used together with {getRoleMember} to enumerate all bearers of a role."
      },
      "grantRole(bytes32,address)": {
        "details": "Grants `role` to `account`.     * If `account` had not been already granted `role`, emits a {RoleGranted} event.     * Requirements:     * - the caller must have ``role``'s admin role."
      },
      "hasRole(bytes32,address)": {
        "details": "Returns `true` if `account` has been granted `role`."
      },
      "owner()": {
        "details": "Returns the address of the current owner."
      },
      "renounceOwnership()": {
        "details": "Leaves the contract without owner. It will not be possible to call `onlyOwner` functions anymore. Can only be called by the current owner.     * NOTE: Renouncing ownership will leave the contract without an owner, thereby removing any functionality that is only available to the owner."
      },
      "renounceRole(bytes32,address)": {
        "details": "Revokes `role` from the calling account.     * Roles are often managed via {grantRole} and {revokeRole}: this function's purpose is to provide a mechanism for accounts to lose their privileges if they are compromised (such as when a trusted device is misplaced).     * If the calling account had been granted `role`, emits a {RoleRevoked} event.     * Requirements:     * - the caller must be `account`."
      },
      "revokeRole(bytes32,address)": {
        "details": "Revokes `role` from `account`.     * If `account` had been granted `role`, emits a {RoleRevoked} event.     * Requirements:     * - the caller must have ``role``'s admin role."
      },
      "transferOwnership(address)": {
        "details": "Transfers ownership of the contract to a new account (`newOwner`). Can only be called by the current owner."
      }
    }
  },
  "userdoc": {
    "methods": {
      "_msgSenderGSN()": {
        "notice": "return the sender of this call. if the call came through our trusted forwarder, return the original sender. otherwise, return `msg.sender`. should be used in the contract anywhere instead of msg.sender"
      }
    }
  }
}