{
  "contractName": "Student",
  "abi": [
    {
      "inputs": [
        {
          "internalType": "bytes32",
          "name": "_name",
          "type": "bytes32"
        },
        {
          "internalType": "address payable",
          "name": "universityAddress",
          "type": "address"
        }
      ],
      "stateMutability": "nonpayable",
      "type": "constructor"
    },
    {
      "anonymous": false,
      "inputs": [
        {
          "indexed": false,
          "internalType": "bytes32",
          "name": "",
          "type": "bytes32"
        }
      ],
      "name": "LogChangeName",
      "type": "event"
    },
    {
      "anonymous": false,
      "inputs": [
        {
          "indexed": true,
          "internalType": "address",
          "name": "previousOwner",
          "type": "address"
        },
        {
          "indexed": true,
          "internalType": "address",
          "name": "newOwner",
          "type": "address"
        }
      ],
      "name": "OwnershipTransferred",
      "type": "event"
    },
    {
      "anonymous": false,
      "inputs": [
        {
          "indexed": true,
          "internalType": "bytes32",
          "name": "role",
          "type": "bytes32"
        },
        {
          "indexed": true,
          "internalType": "address",
          "name": "account",
          "type": "address"
        },
        {
          "indexed": true,
          "internalType": "address",
          "name": "sender",
          "type": "address"
        }
      ],
      "name": "RoleGranted",
      "type": "event"
    },
    {
      "anonymous": false,
      "inputs": [
        {
          "indexed": true,
          "internalType": "bytes32",
          "name": "role",
          "type": "bytes32"
        },
        {
          "indexed": true,
          "internalType": "address",
          "name": "account",
          "type": "address"
        },
        {
          "indexed": true,
          "internalType": "address",
          "name": "sender",
          "type": "address"
        }
      ],
      "name": "RoleRevoked",
      "type": "event"
    },
    {
      "inputs": [],
      "name": "DEFAULT_ADMIN_ROLE",
      "outputs": [
        {
          "internalType": "bytes32",
          "name": "",
          "type": "bytes32"
        }
      ],
      "stateMutability": "view",
      "type": "function"
    },
    {
      "inputs": [],
      "name": "MODIFY_SCORE_ROLE",
      "outputs": [
        {
          "internalType": "bytes32",
          "name": "",
          "type": "bytes32"
        }
      ],
      "stateMutability": "view",
      "type": "function"
    },
    {
      "inputs": [],
      "name": "READ_SCORE_ROLE",
      "outputs": [
        {
          "internalType": "bytes32",
          "name": "",
          "type": "bytes32"
        }
      ],
      "stateMutability": "view",
      "type": "function"
    },
    {
      "inputs": [],
      "name": "_msgSenderGSN",
      "outputs": [
        {
          "internalType": "address",
          "name": "",
          "type": "address"
        }
      ],
      "stateMutability": "view",
      "type": "function"
    },
    {
      "inputs": [],
      "name": "daiToken",
      "outputs": [
        {
          "internalType": "contract IERC20",
          "name": "",
          "type": "address"
        }
      ],
      "stateMutability": "view",
      "type": "function"
    },
    {
      "inputs": [
        {
          "internalType": "bytes32",
          "name": "role",
          "type": "bytes32"
        }
      ],
      "name": "getRoleAdmin",
      "outputs": [
        {
          "internalType": "bytes32",
          "name": "",
          "type": "bytes32"
        }
      ],
      "stateMutability": "view",
      "type": "function"
    },
    {
      "inputs": [
        {
          "internalType": "bytes32",
          "name": "role",
          "type": "bytes32"
        },
        {
          "internalType": "uint256",
          "name": "index",
          "type": "uint256"
        }
      ],
      "name": "getRoleMember",
      "outputs": [
        {
          "internalType": "address",
          "name": "",
          "type": "address"
        }
      ],
      "stateMutability": "view",
      "type": "function"
    },
    {
      "inputs": [
        {
          "internalType": "bytes32",
          "name": "role",
          "type": "bytes32"
        }
      ],
      "name": "getRoleMemberCount",
      "outputs": [
        {
          "internalType": "uint256",
          "name": "",
          "type": "uint256"
        }
      ],
      "stateMutability": "view",
      "type": "function"
    },
    {
      "inputs": [],
      "name": "getTrustedForwarder",
      "outputs": [
        {
          "internalType": "address",
          "name": "",
          "type": "address"
        }
      ],
      "stateMutability": "view",
      "type": "function"
    },
    {
      "inputs": [
        {
          "internalType": "bytes32",
          "name": "role",
          "type": "bytes32"
        },
        {
          "internalType": "address",
          "name": "account",
          "type": "address"
        }
      ],
      "name": "grantRole",
      "outputs": [],
      "stateMutability": "nonpayable",
      "type": "function"
    },
    {
      "inputs": [
        {
          "internalType": "bytes32",
          "name": "role",
          "type": "bytes32"
        },
        {
          "internalType": "address",
          "name": "account",
          "type": "address"
        }
      ],
      "name": "hasRole",
      "outputs": [
        {
          "internalType": "bool",
          "name": "",
          "type": "bool"
        }
      ],
      "stateMutability": "view",
      "type": "function"
    },
    {
      "inputs": [],
      "name": "name",
      "outputs": [
        {
          "internalType": "bytes32",
          "name": "",
          "type": "bytes32"
        }
      ],
      "stateMutability": "view",
      "type": "function"
    },
    {
      "inputs": [],
      "name": "owner",
      "outputs": [
        {
          "internalType": "address",
          "name": "",
          "type": "address"
        }
      ],
      "stateMutability": "view",
      "type": "function"
    },
    {
      "inputs": [],
      "name": "renounceOwnership",
      "outputs": [],
      "stateMutability": "nonpayable",
      "type": "function"
    },
    {
      "inputs": [
        {
          "internalType": "bytes32",
          "name": "role",
          "type": "bytes32"
        },
        {
          "internalType": "address",
          "name": "account",
          "type": "address"
        }
      ],
      "name": "renounceRole",
      "outputs": [],
      "stateMutability": "nonpayable",
      "type": "function"
    },
    {
      "inputs": [
        {
          "internalType": "bytes32",
          "name": "role",
          "type": "bytes32"
        },
        {
          "internalType": "address",
          "name": "account",
          "type": "address"
        }
      ],
      "name": "revokeRole",
      "outputs": [],
      "stateMutability": "nonpayable",
      "type": "function"
    },
    {
      "inputs": [
        {
          "internalType": "address",
          "name": "newOwner",
          "type": "address"
        }
      ],
      "name": "transferOwnership",
      "outputs": [],
      "stateMutability": "nonpayable",
      "type": "function"
    },
    {
      "inputs": [],
      "name": "ownerStudent",
      "outputs": [
        {
          "internalType": "address",
          "name": "",
          "type": "address"
        }
      ],
      "stateMutability": "view",
      "type": "function"
    },
    {
      "inputs": [
        {
          "internalType": "bytes32",
          "name": "val",
          "type": "bytes32"
        }
      ],
      "name": "changeName",
      "outputs": [],
      "stateMutability": "nonpayable",
      "type": "function"
    },
    {
      "inputs": [],
      "name": "score",
      "outputs": [
        {
          "internalType": "int32",
          "name": "",
          "type": "int32"
        }
      ],
      "stateMutability": "view",
      "type": "function"
    },
    {
      "inputs": [
        {
          "internalType": "int32",
          "name": "val",
          "type": "int32"
        }
      ],
      "name": "addScore",
      "outputs": [],
      "stateMutability": "nonpayable",
      "type": "function"
    },
    {
      "inputs": [
        {
          "internalType": "int32",
          "name": "val",
          "type": "int32"
        }
      ],
      "name": "subScore",
      "outputs": [],
      "stateMutability": "nonpayable",
      "type": "function"
    },
    {
      "inputs": [
        {
          "internalType": "address",
          "name": "classroomAddress",
          "type": "address"
        }
      ],
      "name": "applyToClassroom",
      "outputs": [],
      "stateMutability": "nonpayable",
      "type": "function"
    },
    {
      "inputs": [],
      "name": "removeFromMyClassroom",
      "outputs": [],
      "stateMutability": "nonpayable",
      "type": "function"
    },
    {
      "inputs": [
        {
          "internalType": "address",
          "name": "classroom",
          "type": "address"
        },
        {
          "internalType": "address",
          "name": "to",
          "type": "address"
        }
      ],
      "name": "withdrawAllResultsFromClassroom",
      "outputs": [],
      "stateMutability": "nonpayable",
      "type": "function"
    },
    {
      "inputs": [
        {
          "internalType": "address",
          "name": "classroom",
          "type": "address"
        },
        {
          "internalType": "address",
          "name": "to",
          "type": "address"
        },
        {
          "internalType": "uint256",
          "name": "val",
          "type": "uint256"
        }
      ],
      "name": "withdrawResultsFromClassroom",
      "outputs": [],
      "stateMutability": "nonpayable",
      "type": "function"
    },
    {
      "inputs": [
        {
          "internalType": "address",
          "name": "application",
          "type": "address"
        },
        {
          "internalType": "address",
          "name": "to",
          "type": "address"
        }
      ],
      "name": "withdrawAllResultsFromApplication",
      "outputs": [],
      "stateMutability": "nonpayable",
      "type": "function"
    },
    {
      "inputs": [
        {
          "internalType": "address",
          "name": "application",
          "type": "address"
        },
        {
          "internalType": "address",
          "name": "to",
          "type": "address"
        },
        {
          "internalType": "uint256",
          "name": "val",
          "type": "uint256"
        }
      ],
      "name": "withdrawResultsFromApplication",
      "outputs": [],
      "stateMutability": "nonpayable",
      "type": "function"
    },
    {
      "inputs": [
        {
          "internalType": "address",
          "name": "applicationAddr",
          "type": "address"
        },
        {
          "internalType": "bytes32",
          "name": "cName",
          "type": "bytes32"
        },
        {
          "internalType": "uint24",
          "name": "cCut",
          "type": "uint24"
        },
        {
          "internalType": "uint24",
          "name": "cPCut",
          "type": "uint24"
        },
        {
          "internalType": "int32",
          "name": "minScore",
          "type": "int32"
        },
        {
          "internalType": "uint256",
          "name": "entryPrice",
          "type": "uint256"
        },
        {
          "internalType": "uint256",
          "name": "duration",
          "type": "uint256"
        },
        {
          "internalType": "address",
          "name": "challenge",
          "type": "address"
        }
      ],
      "name": "requestClassroom",
      "outputs": [],
      "stateMutability": "nonpayable",
      "type": "function"
    },
    {
      "inputs": [
        {
          "internalType": "address",
          "name": "grantsManager",
          "type": "address"
        },
        {
          "internalType": "address",
          "name": "studentApplication",
          "type": "address"
        }
      ],
      "name": "requestGrant",
      "outputs": [],
      "stateMutability": "nonpayable",
      "type": "function"
    },
    {
      "inputs": [
        {
          "internalType": "address",
          "name": "newOwner",
          "type": "address"
        }
      ],
      "name": "transferOwnershipStudent",
      "outputs": [],
      "stateMutability": "nonpayable",
      "type": "function"
    },
    {
      "inputs": [
        {
          "components": [
            {
              "internalType": "address",
              "name": "target",
              "type": "address"
            },
            {
              "internalType": "bytes",
              "name": "encodedFunction",
              "type": "bytes"
            },
            {
              "components": [
                {
                  "internalType": "uint256",
                  "name": "gasLimit",
                  "type": "uint256"
                },
                {
                  "internalType": "uint256",
                  "name": "gasPrice",
                  "type": "uint256"
                },
                {
                  "internalType": "uint256",
                  "name": "pctRelayFee",
                  "type": "uint256"
                },
                {
                  "internalType": "uint256",
                  "name": "baseRelayFee",
                  "type": "uint256"
                }
              ],
              "internalType": "struct GSNTypes.GasData",
              "name": "gasData",
              "type": "tuple"
            },
            {
              "components": [
                {
                  "internalType": "address",
                  "name": "senderAddress",
                  "type": "address"
                },
                {
                  "internalType": "uint256",
                  "name": "senderNonce",
                  "type": "uint256"
                },
                {
                  "internalType": "address",
                  "name": "relayWorker",
                  "type": "address"
                },
                {
                  "internalType": "address",
                  "name": "paymaster",
                  "type": "address"
                }
              ],
              "internalType": "struct GSNTypes.RelayData",
              "name": "relayData",
              "type": "tuple"
            }
          ],
          "internalType": "struct GSNTypes.RelayRequest",
          "name": "relayRequest",
          "type": "tuple"
        },
        {
          "internalType": "bytes",
          "name": "",
          "type": "bytes"
        },
        {
          "internalType": "uint256",
          "name": "",
          "type": "uint256"
        }
      ],
      "name": "acceptRelayedCall",
      "outputs": [
        {
          "internalType": "bytes",
          "name": "context",
          "type": "bytes"
        }
      ],
      "stateMutability": "view",
      "type": "function"
    },
    {
      "inputs": [
        {
          "internalType": "bytes",
          "name": "",
          "type": "bytes"
        }
      ],
      "name": "preRelayedCall",
      "outputs": [
        {
          "internalType": "bytes32",
          "name": "",
          "type": "bytes32"
        }
      ],
      "stateMutability": "nonpayable",
      "type": "function"
    },
    {
      "inputs": [
        {
          "internalType": "bytes",
          "name": "",
          "type": "bytes"
        },
        {
          "internalType": "bool",
          "name": "success",
          "type": "bool"
        },
        {
          "internalType": "bytes32",
          "name": "",
          "type": "bytes32"
        },
        {
          "internalType": "uint256",
          "name": "",
          "type": "uint256"
        },
        {
          "components": [
            {
              "internalType": "uint256",
              "name": "gasLimit",
              "type": "uint256"
            },
            {
              "internalType": "uint256",
              "name": "gasPrice",
              "type": "uint256"
            },
            {
              "internalType": "uint256",
              "name": "pctRelayFee",
              "type": "uint256"
            },
            {
              "internalType": "uint256",
              "name": "baseRelayFee",
              "type": "uint256"
            }
          ],
          "internalType": "struct GSNTypes.GasData",
          "name": "",
          "type": "tuple"
        }
      ],
      "name": "postRelayedCall",
      "outputs": [],
      "stateMutability": "nonpayable",
      "type": "function"
    }
  ],
  "bytecode": "0x60806040523480156200001157600080fd5b506040516200268138038062002681833981016040819052620000349162000577565b6000620000496001600160e01b03620001cb16565b600080546001600160a01b0319166001600160a01b0383169081178255604051929350917f8be0079c531659141344cd1fd0a4f28419497f9722a3daafe3b4186f6b6457e0908290a35060038290556006805463ffffffff19169055600480546001600160a01b0319166001600160a01b038316179055620000df6000620000d0620001cb565b6001600160e01b03620001cf16565b6200011c604051620000f190620005b4565b6040519081900390206200010d6001600160e01b03620001cb16565b6001600160e01b03620001e816565b620001476040516200012e90620005cf565b604051908190039020826001600160e01b03620001e816565b6001600160a01b038116620001646001600160e01b03620001cb16565b6001600160a01b031614620001c357620001856040516200012e90620005b4565b6200019b6000826001600160e01b03620001e816565b620001c36000620001b46001600160e01b03620001cb16565b6001600160e01b036200024916565b50506200068a565b3390565b620001e482826001600160e01b03620002a416565b5050565b6000828152600160205260409020600201546200022190620002126001600160e01b03620001cb16565b6001600160e01b036200032816565b620001cf5760405162461bcd60e51b81526004016200024090620005ec565b60405180910390fd5b6200025c6001600160e01b03620001cb16565b6001600160a01b0316816001600160a01b0316146200028f5760405162461bcd60e51b815260040162000240906200063b565b620001e482826001600160e01b036200035716565b6000828152600160209081526040909120620002cb918390620013ca620003db821b17901c565b15620001e457620002e46001600160e01b03620001cb16565b6001600160a01b0316816001600160a01b0316837f2f8788117e7eff1d82e926ec794901d17c78024a50270940304540a733656f0d60405160405180910390a45050565b600082815260016020908152604082206200034e91849062001354620003fb821b17901c565b90505b92915050565b60008281526001602090815260409091206200037e918390620013df6200041b821b17901c565b15620001e457620003976001600160e01b03620001cb16565b6001600160a01b0316816001600160a01b0316837ff6391f5c32d9c69d2a47ea670b442974b53935d1edc7fd64eb21e047a839171b60405160405180910390a45050565b60006200034e836001600160a01b0384166001600160e01b036200043b16565b60006200034e836001600160a01b0384166001600160e01b036200049316565b60006200034e836001600160a01b0384166001600160e01b03620004ab16565b60006200045283836001600160e01b036200049316565b6200048a5750815460018181018455600084815260208082209093018490558454848252828601909352604090209190915562000351565b50600062000351565b60009081526001919091016020526040902054151590565b600081815260018301602052604081205480156200056c5783546000198083019190810190600090879083908110620004e057fe5b9060005260206000200154905080876000018481548110620004fe57fe5b6000918252602080832090910192909255828152600189810190925260409020908401905586548790806200052f57fe5b6001900381819060005260206000200160009055905586600101600087815260200190815260200160002060009055600194505050505062000351565b600091505062000351565b600080604083850312156200058a578182fd5b825160208401519092506001600160a01b0381168114620005a9578182fd5b809150509250929050565b6e524541445f53434f52455f524f4c4560881b8152600f0190565b704d4f444946595f53434f52455f524f4c4560781b815260110190565b6020808252602f908201527f416363657373436f6e74726f6c3a2073656e646572206d75737420626520616e60408201526e0818591b5a5b881d1bc819dc985b9d608a1b606082015260800190565b6020808252602f908201527f416363657373436f6e74726f6c3a2063616e206f6e6c792072656e6f756e636560408201526e103937b632b9903337b91039b2b63360891b606082015260800190565b611fe7806200069a6000396000f3fe608060405234801561001057600080fd5b50600436106102265760003560e01c80639010d07c1161012a578063be22f546116100bd578063db4d5e871161008c578063efedc66911610071578063efedc6691461043e578063f2fde38b14610453578063fbfbd0f21461046657610226565b8063db4d5e8714610418578063dc0985dd1461042b57610226565b8063be22f546146103e2578063ca15c873146103ea578063ce1b815f146103fd578063d547741f1461040557610226565b8063a8809410116100f9578063a880941014610389578063aa4f38c71461039c578063b1ed031f146103af578063ba6019d3146103cf57610226565b80639010d07c1461033b57806391d148541461034e5780639fcb17de1461036e578063a217fddf1461038157610226565b806331fb5fde116101bd5780637206f3d61161018c57806380274db71161017157806380274db71461030d578063898855ed146103205780638da5cb5b1461033357610226565b80637206f3d6146102fd5780637a6c8b531461030557610226565b806331fb5fde146102bc57806336568abe146102cf57806368651350146102e2578063715018a6146102f557610226565b8063248a9ca3116101f9578063248a9ca31461026e578063289c5e5414610281578063295869be146102965780632f2ff15d146102a957610226565b806306fdde031461022b57806318a9e948146102495780631b99219f1461025e578063222baa3a14610266575b600080fd5b610233610479565b6040516102409190611aa1565b60405180910390f35b61025c6102573660046115dc565b61047f565b005b61023361048b565b61025c6104a2565b61023361027c3660046117e4565b61052e565b610289610543565b60405161024091906119fc565b61025c6102a436600461161b565b6105c6565b61025c6102b73660046117fc565b610682565b61025c6102ca3660046115dc565b6106c6565b61025c6102dd3660046117fc565b61087f565b61025c6102f0366004611903565b6108c1565b61025c61094f565b6102336109db565b6102896109e7565b61023361031b366004611841565b6109f6565b61025c61032e3660046117e4565b6109fe565b610289610a73565b610289610349366004611820565b610a82565b61036161035c3660046117fc565b610aa9565b6040516102409190611a96565b61025c61037c366004611653565b610ac7565b610233610b7a565b61025c610397366004611693565b610b7f565b61025c6103aa366004611903565b610c67565b6103c26103bd36600461191e565b610ce4565b6040516102409190611aaa565b61025c6103dd366004611653565b610d5e565b610289610e13565b6102336103f83660046117e4565b610e2a565b610289610e41565b61025c6104133660046117fc565b610e50565b61025c61042636600461161b565b610e8a565b61025c61043936600461161b565b610f3a565b61044661115b565b6040516102409190611afd565b61025c6104613660046115dc565b611192565b61025c610474366004611881565b610f32565b60035481565b61048881611192565b50565b604051610497906119aa565b604051809103902081565b60005b600554811015610488576104b7611255565b6001600160a01b0316600582815481106104cd57fe5b6000918252602090912001546001600160a01b03161415610526576000600582815481106104f757fe5b9060005260206000200160006101000a8154816001600160a01b0302191690836001600160a01b031602179055505b6001016104a5565b60009081526001602052604090206002015490565b60006018361080159061056e5750610559610e41565b6001600160a01b0316336001600160a01b0316145b156105c0576105b96000368080601f01602080910402602001604051908101604052809392919081815260200183838082843760009201919091525050601319360191506112599050565b90506105c3565b50335b90565b6105ce611255565b6000546001600160a01b039081169116146106045760405162461bcd60e51b81526004016105fb90611dcd565b60405180910390fd5b61067e826001600160a01b0316636e8055a76040518163ffffffff1660e01b815260040160206040518083038186803b15801561064057600080fd5b505afa158015610654573d6000803e3d6000fd5b505050506040513d601f19601f8201168201806040525081019061067891906115ff565b82610e8a565b5050565b6000828152600160205260409020600201546106a09061035c611255565b6106bc5760405162461bcd60e51b81526004016105fb90611b68565b61067e828261126a565b6106ce611255565b6000546001600160a01b039081169116146106fb5760405162461bcd60e51b81526004016105fb90611dcd565b600480546040517f85dade610000000000000000000000000000000000000000000000000000000081526001600160a01b03909116916385dade6191610743918591016119fc565b60206040518083038186803b15801561075b57600080fd5b505afa15801561076f573d6000803e3d6000fd5b505050506040513d601f19601f8201168201806040525081019061079391906117c8565b6107af5760405162461bcd60e51b81526004016105fb90611ef3565b6107cc6040516107be906119aa565b604051809103902082610682565b806001600160a01b0316631b9dbc606040518163ffffffff1660e01b8152600401600060405180830381600087803b15801561080757600080fd5b505af115801561081b573d6000803e3d6000fd5b5050600580546001810182556000919091527f036b6384b5eca791c62761152d0c79bb0604c104a5fb6f4eb0703f3154bb3db001805473ffffffffffffffffffffffffffffffffffffffff19166001600160a01b0394909416939093179092555050565b610887611255565b6001600160a01b0316816001600160a01b0316146108b75760405162461bcd60e51b81526004016105fb90611e96565b61067e82826112d9565b6108e06040516108d0906119d3565b604051809103902061035c611255565b6108fc5760405162461bcd60e51b81526004016105fb90611bc5565b600654600390810b828103820b910b136109285760405162461bcd60e51b81526004016105fb90611d96565b60068054600381810b9390930390920b63ffffffff1663ffffffff19909216919091179055565b610957611255565b6000546001600160a01b039081169116146109845760405162461bcd60e51b81526004016105fb90611dcd565b600080546040516001600160a01b03909116907f8be0079c531659141344cd1fd0a4f28419497f9722a3daafe3b4186f6b6457e0908390a36000805473ffffffffffffffffffffffffffffffffffffffff19169055565b604051610497906119d3565b60006109f1610a73565b905090565b600092915050565b610a06611255565b6000546001600160a01b03908116911614610a335760405162461bcd60e51b81526004016105fb90611dcd565b60038190556040517f9f8929be552430dd6434c446d106c34954b2040ca8c4dbf42a39323dd6cda3ca90610a68908390611aa1565b60405180910390a150565b6000546001600160a01b031690565b6000828152600160205260408120610aa0908363ffffffff61134816565b90505b92915050565b6000828152600160205260408120610aa0908363ffffffff61135416565b610acf611255565b6000546001600160a01b03908116911614610afc5760405162461bcd60e51b81526004016105fb90611dcd565b6040517f3db0bfd20000000000000000000000000000000000000000000000000000000081526001600160a01b03841690633db0bfd290610b439085908590600401611a7d565b600060405180830381600087803b158015610b5d57600080fd5b505af1158015610b71573d6000803e3d6000fd5b50505050505050565b600081565b610b87611255565b6000546001600160a01b03908116911614610bb45760405162461bcd60e51b81526004016105fb90611dcd565b600480546040517f7fd5c1080000000000000000000000000000000000000000000000000000000081526001600160a01b0390911691637fd5c10891610c0a918c918c918c918c918c918c918c918c9101611a10565b602060405180830381600087803b158015610c2457600080fd5b505af1158015610c38573d6000803e3d6000fd5b505050506040513d601f19601f82011682018060405250810190610c5c91906115ff565b505050505050505050565b610c766040516108d0906119d3565b610c925760405162461bcd60e51b81526004016105fb90611bc5565b600654600390810b808301820b910b12610cbe5760405162461bcd60e51b81526004016105fb90611e5f565b60068054600381810b90930190920b63ffffffff1663ffffffff19909216919091179055565b6060610cee610a73565b6001600160a01b0316610cff610543565b6001600160a01b031614610d255760405162461bcd60e51b81526004016105fb90611e02565b610d3260208601866115dc565b6000604051602001610d45929190611a61565b6040516020818303038152906040529050949350505050565b610d66611255565b6000546001600160a01b03908116911614610d935760405162461bcd60e51b81526004016105fb90611dcd565b610e0e836001600160a01b0316636e8055a76040518163ffffffff1660e01b815260040160206040518083038186803b158015610dcf57600080fd5b505afa158015610de3573d6000803e3d6000fd5b505050506040513d601f19601f82011682018060405250810190610e0791906115ff565b8383610ac7565b505050565b60065464010000000090046001600160a01b031681565b6000818152600160205260408120610aa390611369565b6002546001600160a01b031690565b600082815260016020526040902060020154610e6e9061035c611255565b6108b75760405162461bcd60e51b81526004016105fb90611d39565b610e92611255565b6000546001600160a01b03908116911614610ebf5760405162461bcd60e51b81526004016105fb90611dcd565b6040517f66995a460000000000000000000000000000000000000000000000000000000081526001600160a01b038316906366995a4690610f049084906004016119fc565b600060405180830381600087803b158015610f1e57600080fd5b505af1158015610f32573d6000803e3d6000fd5b505050505050565b610f42611255565b6000546001600160a01b03908116911614610f6f5760405162461bcd60e51b81526004016105fb90611dcd565b60048054604080517f6408a386000000000000000000000000000000000000000000000000000000008152905161100e9330936001600160a01b031692636408a3869281830192600092829003018186803b158015610fcd57600080fd5b505afa158015610fe1573d6000803e3d6000fd5b505050506040513d6000823e601f3d908101601f19168201604052611009919081019061171d565b611374565b61102a5760405162461bcd60e51b81526004016105fb90611c7f565b6000816001600160a01b031663f745adfc6040518163ffffffff1660e01b815260040160206040518083038186803b15801561106557600080fd5b505afa158015611079573d6000803e3d6000fd5b505050506040513d601f19601f8201168201806040525081019061109d9190611992565b90506110bc6040516110ae906119aa565b604051809103902084610682565b6040517fefe633a00000000000000000000000000000000000000000000000000000000081526001600160a01b0384169063efe633a0906111039084908690600401611f50565b602060405180830381600087803b15801561111d57600080fd5b505af1158015611131573d6000803e3d6000fd5b505050506040513d601f19601f8201168201806040525081019061115591906117c8565b50505050565b600061116c6040516108d0906119aa565b6111885760405162461bcd60e51b81526004016105fb90611cdc565b5060065460030b90565b61119a611255565b6000546001600160a01b039081169116146111c75760405162461bcd60e51b81526004016105fb90611dcd565b6001600160a01b0381166111ed5760405162461bcd60e51b81526004016105fb90611c22565b600080546040516001600160a01b03808516939216917f8be0079c531659141344cd1fd0a4f28419497f9722a3daafe3b4186f6b6457e091a36000805473ffffffffffffffffffffffffffffffffffffffff19166001600160a01b0392909216919091179055565b3390565b01601401516001600160a01b031690565b6000828152600160205260409020611288908263ffffffff6113ca16565b1561067e57611295611255565b6001600160a01b0316816001600160a01b0316837f2f8788117e7eff1d82e926ec794901d17c78024a50270940304540a733656f0d60405160405180910390a45050565b60008281526001602052604090206112f7908263ffffffff6113df16565b1561067e57611304611255565b6001600160a01b0316816001600160a01b0316837ff6391f5c32d9c69d2a47ea670b442974b53935d1edc7fd64eb21e047a839171b60405160405180910390a45050565b6000610aa083836113f4565b6000610aa0836001600160a01b038416611439565b6000610aa382611451565b6000805b82518110156113c057836001600160a01b031683828151811061139757fe5b60200260200101516001600160a01b031614156113b8576001915050610aa3565b600101611378565b5060009392505050565b6000610aa0836001600160a01b038416611455565b6000610aa0836001600160a01b03841661149f565b815460009082106114175760405162461bcd60e51b81526004016105fb90611b0b565b82600001828154811061142657fe5b9060005260206000200154905092915050565b60009081526001919091016020526040902054151590565b5490565b60006114618383611439565b61149757508154600181810184556000848152602080822090930184905584548482528286019093526040902091909155610aa3565b506000610aa3565b6000818152600183016020526040812054801561155b57835460001980830191908101906000908790839081106114d257fe5b90600052602060002001549050808760000184815481106114ef57fe5b60009182526020808320909101929092558281526001898101909252604090209084019055865487908061151f57fe5b60019003818190600052602060002001600090559055866001016000878152602001908152602001600020600090556001945050505050610aa3565b6000915050610aa3565b8051610aa381611f8e565b60008083601f840112611581578182fd5b50813567ffffffffffffffff811115611598578182fd5b6020830191508360208285010111156115b057600080fd5b9250929050565b8035600381900b8114610aa357600080fd5b803562ffffff81168114610aa357600080fd5b6000602082840312156115ed578081fd5b81356115f881611f8e565b9392505050565b600060208284031215611610578081fd5b81516115f881611f8e565b6000806040838503121561162d578081fd5b823561163881611f8e565b9150602083013561164881611f8e565b809150509250929050565b600080600060608486031215611667578081fd5b833561167281611f8e565b9250602084013561168281611f8e565b929592945050506040919091013590565b600080600080600080600080610100898b0312156116af578384fd5b88356116ba81611f8e565b9750602089013596506116d08a60408b016115c9565b95506116df8a60608b016115c9565b94506116ee8a60808b016115b7565b935060a0890135925060c0890135915060e089013561170c81611f8e565b809150509295985092959890939650565b6000602080838503121561172f578182fd5b825167ffffffffffffffff80821115611746578384fd5b81850186601f820112611757578485fd5b8051925081831115611767578485fd5b8383029150611777848301611f67565b8381528481019082860184840187018a1015611791578788fd5b8794505b858510156117bb576117a78a82611565565b835260019490940193918601918601611795565b5098975050505050505050565b6000602082840312156117d9578081fd5b81516115f881611fa3565b6000602082840312156117f5578081fd5b5035919050565b6000806040838503121561180e578182fd5b82359150602083013561164881611f8e565b60008060408385031215611832578182fd5b50508035926020909101359150565b60008060208385031215611853578182fd5b823567ffffffffffffffff811115611869578283fd5b61187585828601611570565b90969095509350505050565b60008060008060008086880361010081121561189b578283fd5b873567ffffffffffffffff8111156118b1578384fd5b6118bd8a828b01611570565b90985096505060208801356118d181611fa3565b945060408801359350606088013592506080607f19820112156118f2578182fd5b506080870190509295509295509295565b600060208284031215611914578081fd5b610aa083836115b7565b60008060008060608587031215611933578182fd5b843567ffffffffffffffff8082111561194a578384fd5b818701610140818a03121561195d578485fd5b95506020870135915080821115611972578384fd5b5061197f87828801611570565b9598909750949560400135949350505050565b6000602082840312156119a3578081fd5b5051919050565b7f524541445f53434f52455f524f4c4500000000000000000000000000000000008152600f0190565b7f4d4f444946595f53434f52455f524f4c45000000000000000000000000000000815260110190565b6001600160a01b0391909116815260200190565b6001600160a01b039889168152602081019790975262ffffff958616604088015293909416606086015260039190910b608085015260a084015260c083019190915290911660e08201526101000190565b6001600160a01b0392909216825260ff16602082015260400190565b6001600160a01b03929092168252602082015260400190565b901515815260200190565b90815260200190565b6000602080835283518082850152825b81811015611ad657858101830151858201604001528201611aba565b81811115611ae75783604083870101525b50601f01601f1916929092016040019392505050565b60039190910b815260200190565b60208082526022908201527f456e756d657261626c655365743a20696e646578206f7574206f6620626f756e60408201527f6473000000000000000000000000000000000000000000000000000000000000606082015260800190565b6020808252602f908201527f416363657373436f6e74726f6c3a2073656e646572206d75737420626520616e60408201527f2061646d696e20746f206772616e740000000000000000000000000000000000606082015260800190565b6020808252602e908201527f53747564656e743a2063616c6c657220646f65736e27742068617665204d4f4460408201527f4946595f53434f52455f524f4c45000000000000000000000000000000000000606082015260800190565b60208082526026908201527f4f776e61626c653a206e6577206f776e657220697320746865207a65726f206160408201527f6464726573730000000000000000000000000000000000000000000000000000606082015260800190565b60208082526022908201527f53747564656e743a2077726f6e67206170706c69636174696f6e20616464726560408201527f7373000000000000000000000000000000000000000000000000000000000000606082015260800190565b6020808252602c908201527f53747564656e743a2063616c6c657220646f65736e277420686176652052454160408201527f445f53434f52455f524f4c450000000000000000000000000000000000000000606082015260800190565b60208082526030908201527f416363657373436f6e74726f6c3a2073656e646572206d75737420626520616e60408201527f2061646d696e20746f207265766f6b6500000000000000000000000000000000606082015260800190565b6020808252601c908201527f53747564656e743a2062616420677261646573206f766572666c6f7700000000604082015260600190565b6020808252818101527f4f776e61626c653a2063616c6c6572206973206e6f7420746865206f776e6572604082015260600190565b60208082526029908201527f53747564656e743a2047534e20656e61626c6564206f6e6c7920666f7220746860408201527f652073747564656e740000000000000000000000000000000000000000000000606082015260800190565b6020808252601d908201527f53747564656e743a20676f6f6420677261646573206f766572666c6f77000000604082015260600190565b6020808252602f908201527f416363657373436f6e74726f6c3a2063616e206f6e6c792072656e6f756e636560408201527f20726f6c657320666f722073656c660000000000000000000000000000000000606082015260800190565b60208082526029908201527f53747564656e743a2061646472657373206973206e6f7420612076616c69642060408201527f636c617373726f6f6d0000000000000000000000000000000000000000000000606082015260800190565b9182526001600160a01b0316602082015260400190565b60405181810167ffffffffffffffff81118282101715611f8657600080fd5b604052919050565b6001600160a01b038116811461048857600080fd5b801515811461048857600080fdfea26469706673582212202772b78a6d0eb82100c5097b2402b10031a02cffd9d71380946fca0271e84c7964736f6c63430006060033",
  "immutableReferences": {},
  "source": "pragma solidity 0.6.6;\r\npragma experimental ABIEncoderV2;\r\n\r\nimport \"@openzeppelin/contracts/math/SafeMath.sol\";\r\nimport \"@openzeppelin/contracts/access/AccessControl.sol\";\r\nimport \"@openzeppelin/contracts/access/Ownable.sol\";\r\nimport \"@openzeppelin/contracts/token/ERC20/IERC20.sol\";\r\nimport \"@openzeppelin/contracts/utils/Address.sol\";\r\nimport \"./gambi/BaseRelayRecipient.sol\";\r\nimport \"./gambi/GSNTypes.sol\";\r\nimport \"./interface/IStudent.sol\";\r\nimport \"./interface/IClassroom.sol\";\r\nimport \"./interface/IUniversity.sol\";\r\nimport \"./interface/IStudentApplication.sol\";\r\nimport \"./interface/IGrantsManager.sol\";\r\nimport \"./MyUtils.sol\";\r\n\r\n\r\ncontract Student is Ownable, AccessControl, BaseRelayRecipient, IStudent {\r\n    using SafeMath for uint256;\r\n\r\n    //READ_SCORE_ROLE can read student Score\r\n    bytes32 public constant READ_SCORE_ROLE = keccak256(\"READ_SCORE_ROLE\");\r\n    //MODIFY_SCORE_ROLE can read student Score\r\n    bytes32 public constant MODIFY_SCORE_ROLE = keccak256(\"MODIFY_SCORE_ROLE\");\r\n\r\n    bytes32 public name;\r\n    IUniversity _university;\r\n    address[] _classroomAddress;\r\n    int32 _score;\r\n\r\n    IERC20 public daiToken;\r\n\r\n    constructor(bytes32 _name, address payable universityAddress) public {\r\n        name = _name;\r\n        _score = 0;\r\n        _university = IUniversity(universityAddress);\r\n        _setupRole(DEFAULT_ADMIN_ROLE, _msgSender());\r\n        grantRole(READ_SCORE_ROLE, _msgSender());\r\n        grantRole(MODIFY_SCORE_ROLE, universityAddress);\r\n        if (_msgSender() != universityAddress) {\r\n            grantRole(READ_SCORE_ROLE, universityAddress);\r\n            grantRole(DEFAULT_ADMIN_ROLE, universityAddress);\r\n            renounceRole(DEFAULT_ADMIN_ROLE, _msgSender());\r\n        }\r\n    }\r\n\r\n    event LogChangeName(bytes32);\r\n\r\n    function ownerStudent() public view override returns (address) {\r\n        return owner();\r\n    }\r\n\r\n    function changeName(bytes32 val) public onlyOwner {\r\n        name = val;\r\n        emit LogChangeName(name);\r\n    }\r\n\r\n    function score() public view override returns (int32) {\r\n        require(\r\n            hasRole(READ_SCORE_ROLE, _msgSender()),\r\n            \"Student: caller doesn't have READ_SCORE_ROLE\"\r\n        );\r\n        return _score;\r\n    }\r\n\r\n    function addScore(int32 val) public override {\r\n        require(\r\n            hasRole(MODIFY_SCORE_ROLE, _msgSender()),\r\n            \"Student: caller doesn't have MODIFY_SCORE_ROLE\"\r\n        );\r\n        require(_score < _score + val, \"Student: good grades overflow\");\r\n        _score += val;\r\n    }\r\n\r\n    function subScore(int32 val) public override {\r\n        require(\r\n            hasRole(MODIFY_SCORE_ROLE, _msgSender()),\r\n            \"Student: caller doesn't have MODIFY_SCORE_ROLE\"\r\n        );\r\n        require(_score > _score - val, \"Student: bad grades overflow\");\r\n        _score -= val;\r\n    }\r\n\r\n    function applyToClassroom(address classroomAddress) public onlyOwner {\r\n        require(\r\n            _university.isValidClassroom(classroomAddress),\r\n            \"Student: address is not a valid classroom\"\r\n        );\r\n        grantRole(READ_SCORE_ROLE, classroomAddress);\r\n        IClassroom(classroomAddress).studentApply();\r\n        _classroomAddress.push(classroomAddress);\r\n    }\r\n\r\n    // not a feature but it is something a teacher would sometimes want to do\r\n    function removeFromMyClassroom() public {\r\n        for (uint256 i = 0; i < _classroomAddress.length; i++) {\r\n            if (_classroomAddress[i] == _msgSender())\r\n                _classroomAddress[i] = address(0);\r\n        }\r\n    }\r\n\r\n    function withdrawAllResultsFromClassroom(address classroom, address to)\r\n        public\r\n        onlyOwner\r\n    {\r\n        withdrawAllResultsFromApplication(\r\n            IClassroom(classroom).viewMyApplication(),\r\n            to\r\n        );\r\n    }\r\n\r\n    function withdrawResultsFromClassroom(\r\n        address classroom,\r\n        address to,\r\n        uint256 val\r\n    ) public onlyOwner {\r\n        withdrawResultsFromApplication(\r\n            IClassroom(classroom).viewMyApplication(),\r\n            to,\r\n            val\r\n        );\r\n    }\r\n\r\n    function withdrawAllResultsFromApplication(address application, address to)\r\n        public\r\n        onlyOwner\r\n    {\r\n        IStudentApplication(application).withdrawAllResults(to);\r\n    }\r\n\r\n    function withdrawResultsFromApplication(\r\n        address application,\r\n        address to,\r\n        uint256 val\r\n    ) public onlyOwner {\r\n        IStudentApplication(application).withdrawResults(to, val);\r\n    }\r\n\r\n    function requestClassroom(\r\n        address applicationAddr,\r\n        bytes32 cName,\r\n        uint24 cCut,\r\n        uint24 cPCut,\r\n        int32 minScore,\r\n        uint256 entryPrice,\r\n        uint256 duration,\r\n        address challenge\r\n    ) public onlyOwner {\r\n        _university.studentRequestClassroom(\r\n            applicationAddr,\r\n            cName,\r\n            cCut,\r\n            cPCut,\r\n            minScore,\r\n            entryPrice,\r\n            duration,\r\n            challenge\r\n        );\r\n    }\r\n\r\n    function requestGrant(address grantsManager, address studentApplication) public onlyOwner {\r\n        require(MyUtils.searchInsideArray(address(this), _university.viewMyApplications()), \"Student: wrong application address\");\r\n        uint256 price = IStudentApplication(studentApplication).entryPrice();\r\n        grantRole(READ_SCORE_ROLE, grantsManager);\r\n        IGrantsManager(grantsManager).studentRequestGrant(price, studentApplication);\r\n    }\r\n\r\n    function transferOwnershipStudent(address newOwner) public override {\r\n        transferOwnership(newOwner);\r\n    }\r\n\r\n    function acceptRelayedCall(\r\n        GSNTypes.RelayRequest calldata relayRequest,\r\n        bytes calldata,\r\n        uint256\r\n    ) external view returns (bytes memory context) {\r\n        require(\r\n            _msgSenderGSN() == owner(),\r\n            \"Student: GSN enabled only for the student\"\r\n        );\r\n        return abi.encode(relayRequest.target, 0);\r\n    }\r\n\r\n    function preRelayedCall(bytes calldata) external returns (bytes32) {}\r\n\r\n    function postRelayedCall(\r\n        bytes calldata,\r\n        bool success,\r\n        bytes32,\r\n        uint256,\r\n        GSNTypes.GasData calldata\r\n    ) external {}\r\n}\r\n",
  "sourcePath": "/mnt/e/Repositories/Uproot/contracts/Student.sol",
  "compiler": {
    "name": "solc",
    "version": "0.6.6+commit.6c089d02.Emscripten.clang"
  },
  "schemaVersion": "3.1.0",
  "updatedAt": "2020-05-07T02:56:10.009Z",
  "devdoc": {
    "methods": {
      "getRoleAdmin(bytes32)": {
        "details": "Returns the admin role that controls `role`. See {grantRole} and {revokeRole}.     * To change a role's admin, use {_setRoleAdmin}."
      },
      "getRoleMember(bytes32,uint256)": {
        "details": "Returns one of the accounts that have `role`. `index` must be a value between 0 and {getRoleMemberCount}, non-inclusive.     * Role bearers are not sorted in any particular way, and their ordering may change at any point.     * WARNING: When using {getRoleMember} and {getRoleMemberCount}, make sure you perform all queries on the same block. See the following https://forum.openzeppelin.com/t/iterating-over-elements-on-enumerableset-in-openzeppelin-contracts/2296[forum post] for more information."
      },
      "getRoleMemberCount(bytes32)": {
        "details": "Returns the number of accounts that have `role`. Can be used together with {getRoleMember} to enumerate all bearers of a role."
      },
      "grantRole(bytes32,address)": {
        "details": "Grants `role` to `account`.     * If `account` had not been already granted `role`, emits a {RoleGranted} event.     * Requirements:     * - the caller must have ``role``'s admin role."
      },
      "hasRole(bytes32,address)": {
        "details": "Returns `true` if `account` has been granted `role`."
      },
      "owner()": {
        "details": "Returns the address of the current owner."
      },
      "renounceOwnership()": {
        "details": "Leaves the contract without owner. It will not be possible to call `onlyOwner` functions anymore. Can only be called by the current owner.     * NOTE: Renouncing ownership will leave the contract without an owner, thereby removing any functionality that is only available to the owner."
      },
      "renounceRole(bytes32,address)": {
        "details": "Revokes `role` from the calling account.     * Roles are often managed via {grantRole} and {revokeRole}: this function's purpose is to provide a mechanism for accounts to lose their privileges if they are compromised (such as when a trusted device is misplaced).     * If the calling account had been granted `role`, emits a {RoleRevoked} event.     * Requirements:     * - the caller must be `account`."
      },
      "revokeRole(bytes32,address)": {
        "details": "Revokes `role` from `account`.     * If `account` had been granted `role`, emits a {RoleRevoked} event.     * Requirements:     * - the caller must have ``role``'s admin role."
      },
      "transferOwnership(address)": {
        "details": "Transfers ownership of the contract to a new account (`newOwner`). Can only be called by the current owner."
      }
    }
  },
  "userdoc": {
    "methods": {
      "_msgSenderGSN()": {
        "notice": "return the sender of this call. if the call came through our trusted forwarder, return the original sender. otherwise, return `msg.sender`. should be used in the contract anywhere instead of msg.sender"
      }
    }
  }
}