{
  "contractName": "StudentApplication",
  "abi": [
    {
      "inputs": [
        {
          "internalType": "address",
          "name": "studentAddress",
          "type": "address"
        },
        {
          "internalType": "address",
          "name": "classroomAddress",
          "type": "address"
        },
        {
          "internalType": "address",
          "name": "daiAddress",
          "type": "address"
        },
        {
          "internalType": "address",
          "name": "challengeAddress",
          "type": "address"
        },
        {
          "internalType": "bytes32",
          "name": "seed",
          "type": "bytes32"
        }
      ],
      "stateMutability": "nonpayable",
      "type": "constructor"
    },
    {
      "anonymous": false,
      "inputs": [
        {
          "indexed": true,
          "internalType": "address",
          "name": "previousOwner",
          "type": "address"
        },
        {
          "indexed": true,
          "internalType": "address",
          "name": "newOwner",
          "type": "address"
        }
      ],
      "name": "OwnershipTransferred",
      "type": "event"
    },
    {
      "inputs": [],
      "name": "daiToken",
      "outputs": [
        {
          "internalType": "contract IERC20",
          "name": "",
          "type": "address"
        }
      ],
      "stateMutability": "view",
      "type": "function"
    },
    {
      "inputs": [],
      "name": "owner",
      "outputs": [
        {
          "internalType": "address",
          "name": "",
          "type": "address"
        }
      ],
      "stateMutability": "view",
      "type": "function"
    },
    {
      "inputs": [],
      "name": "renounceOwnership",
      "outputs": [],
      "stateMutability": "nonpayable",
      "type": "function"
    },
    {
      "inputs": [
        {
          "internalType": "address",
          "name": "newOwner",
          "type": "address"
        }
      ],
      "name": "transferOwnership",
      "outputs": [],
      "stateMutability": "nonpayable",
      "type": "function"
    },
    {
      "inputs": [],
      "name": "studentAddress",
      "outputs": [
        {
          "internalType": "address",
          "name": "",
          "type": "address"
        }
      ],
      "stateMutability": "view",
      "type": "function"
    },
    {
      "inputs": [],
      "name": "applicationState",
      "outputs": [
        {
          "internalType": "uint256",
          "name": "",
          "type": "uint256"
        }
      ],
      "stateMutability": "view",
      "type": "function"
    },
    {
      "inputs": [],
      "name": "entryPrice",
      "outputs": [
        {
          "internalType": "uint256",
          "name": "",
          "type": "uint256"
        }
      ],
      "stateMutability": "view",
      "type": "function"
    },
    {
      "inputs": [],
      "name": "challengeAddress",
      "outputs": [
        {
          "internalType": "address",
          "name": "",
          "type": "address"
        }
      ],
      "stateMutability": "view",
      "type": "function"
    },
    {
      "inputs": [],
      "name": "payEntryPrice",
      "outputs": [],
      "stateMutability": "nonpayable",
      "type": "function"
    },
    {
      "inputs": [],
      "name": "activate",
      "outputs": [],
      "stateMutability": "nonpayable",
      "type": "function"
    },
    {
      "inputs": [],
      "name": "expire",
      "outputs": [],
      "stateMutability": "nonpayable",
      "type": "function"
    },
    {
      "inputs": [],
      "name": "registerAnswer",
      "outputs": [],
      "stateMutability": "nonpayable",
      "type": "function"
    },
    {
      "inputs": [],
      "name": "viewChallengeMaterial",
      "outputs": [
        {
          "internalType": "string",
          "name": "",
          "type": "string"
        }
      ],
      "stateMutability": "view",
      "type": "function"
    },
    {
      "inputs": [
        {
          "internalType": "uint256",
          "name": "index",
          "type": "uint256"
        }
      ],
      "name": "getHint",
      "outputs": [
        {
          "internalType": "bytes32",
          "name": "",
          "type": "bytes32"
        }
      ],
      "stateMutability": "view",
      "type": "function"
    },
    {
      "inputs": [],
      "name": "verifyAnswer",
      "outputs": [
        {
          "internalType": "bool",
          "name": "",
          "type": "bool"
        }
      ],
      "stateMutability": "view",
      "type": "function"
    },
    {
      "inputs": [],
      "name": "registerFinalAnswer",
      "outputs": [],
      "stateMutability": "nonpayable",
      "type": "function"
    },
    {
      "inputs": [
        {
          "internalType": "uint256",
          "name": "principal",
          "type": "uint256"
        },
        {
          "internalType": "uint256",
          "name": "prize",
          "type": "uint256"
        }
      ],
      "name": "accountAllowance",
      "outputs": [],
      "stateMutability": "nonpayable",
      "type": "function"
    },
    {
      "inputs": [
        {
          "internalType": "address",
          "name": "to",
          "type": "address"
        }
      ],
      "name": "withdrawAllResults",
      "outputs": [],
      "stateMutability": "nonpayable",
      "type": "function"
    },
    {
      "inputs": [
        {
          "internalType": "address",
          "name": "to",
          "type": "address"
        },
        {
          "internalType": "uint256",
          "name": "val",
          "type": "uint256"
        }
      ],
      "name": "withdrawResults",
      "outputs": [],
      "stateMutability": "nonpayable",
      "type": "function"
    }
  ],
  "bytecode": "0x608060405234801561001057600080fd5b50604051611729380380611729833981810160405260a081101561003357600080fd5b5080516020820151604083015160608401516080909401519293919290919060006100656001600160e01b0361018516565b600080546001600160a01b0319166001600160a01b0383169081178255604051929350917f8be0079c531659141344cd1fd0a4f28419497f9722a3daafe3b4186f6b6457e0908290a3506003805460ff60a01b19169055600480546001600160a01b03199081166001600160a01b0388811691909117835560058054831688831617908190556007805460ff191690556001805484168884161790556006859055600280549093168683161790925560408051633dd16b7f60e21b81529051929091169263f745adfc928282019260209290829003018186803b15801561014b57600080fd5b505afa15801561015f573d6000803e3d6000fd5b505050506040513d602081101561017557600080fd5b5051600a55506101899350505050565b3390565b611591806101986000396000f3fe608060405234801561001057600080fd5b50600436106101515760003560e01c806366995a46116100cd5780638da5cb5b11610081578063be22f54611610066578063be22f54614610301578063f2fde38b14610309578063f745adfc1461032f57610151565b80638da5cb5b146102f1578063b8f31a81146102f957610151565b806379599f96116100b257806379599f96146102be5780637db9abaf146102c6578063872d7c79146102e957610151565b806366995a4614610290578063715018a6146102b657610151565b806329d188791161012457806337edd7e71161010957806337edd7e7146101df5780633db0bfd21461025c5780636587b61e1461028857610151565b806329d18879146101b35780632d24947b146101d757610151565b80630bb8ebf6146101565780630f15f4c0146101725780632344e4ec1461017c578063289cf0d2146101ab575b600080fd5b61015e610337565b604080519115158252519081900360200190f35b61017a6103d0565b005b6101996004803603602081101561019257600080fd5b50356104ad565b60408051918252519081900360200190f35b61017a6106a2565b6101bb610777565b604080516001600160a01b039092168252519081900360200190f35b61017a61080d565b6101e76108a0565b6040805160208082528351818301528351919283929083019185019080838360005b83811015610221578181015183820152602001610209565b50505050905090810190601f16801561024e5780820380516001836020036101000a031916815260200191505b509250505060405180910390f35b61017a6004803603604081101561027257600080fd5b506001600160a01b038135169060200135610a66565b610199610b27565b61017a600480360360208110156102a657600080fd5b50356001600160a01b0316610bca565b61017a610bdd565b61017a610c9e565b61017a600480360360408110156102dc57600080fd5b5080359060200135610d78565b61017a610e33565b6101bb610f9a565b6101bb610fa9565b6101bb611025565b61017a6004803603602081101561031f57600080fd5b50356001600160a01b0316611034565b61019961114b565b600354604080517f39e7357c00000000000000000000000000000000000000000000000000000000815290516000926001600160a01b0316916339e7357c916004808301926020929190829003018186803b15801561039557600080fd5b505afa9250505080156103ba57506040513d60208110156103b557600080fd5b505160015b6103c6575060006103cd565b6006541490505b90565b6103d86111d8565b6000546001600160a01b0390811691161461043a576040805162461bcd60e51b815260206004820181905260248201527f4f776e61626c653a2063616c6c6572206973206e6f7420746865206f776e6572604482015290519081900360640190fd5b6000600354600160a01b900460ff16600681111561045457fe5b146104905760405162461bcd60e51b815260040180806020018281038252602a815260200180611492602a913960400191505060405180910390fd5b600380546002919060ff60a01b1916600160a01b835b0217905550565b60075460009060ff166104f15760405162461bcd60e51b81526004018080602001828103825260298152602001806113e36029913960400191505060405180910390fd5b6003546001600160a01b03166105056111d8565b6001600160a01b03161461054a5760405162461bcd60e51b81526004018080602001828103825260258152602001806113be6025913960400191505060405180910390fd5b600260009054906101000a90046001600160a01b03166001600160a01b0316630b435c546040518163ffffffff1660e01b815260040160206040518083038186803b15801561059857600080fd5b505afa1580156105ac573d6000803e3d6000fd5b505050506040513d60208110156105c257600080fd5b505182106106015760405162461bcd60e51b81526004018080602001828103825260268152602001806115126026913960400191505060405180910390fd5b600254600654604080517fcee0510f000000000000000000000000000000000000000000000000000000008152600481018690526024810192909252516001600160a01b039092169163cee0510f91604480820192602092909190829003018186803b15801561067057600080fd5b505afa158015610684573d6000803e3d6000fd5b505050506040513d602081101561069a57600080fd5b505192915050565b6106aa6111d8565b6000546001600160a01b0390811691161461070c576040805162461bcd60e51b815260206004820181905260248201527f4f776e61626c653a2063616c6c6572206973206e6f7420746865206f776e6572604482015290519081900360640190fd5b60075460ff1661073657600380546005919060ff60a01b1916600160a01b835b0217905550610775565b61073e610337565b1561075b5760038054819060ff60a01b1916600160a01b8261072c565b600380546004919060ff60a01b1916600160a01b836104a6565b565b6004546000906001600160a01b031661078e6111d8565b6001600160a01b031614806107c257506107a6610f9a565b6001600160a01b03166107b76111d8565b6001600160a01b0316145b6107fd5760405162461bcd60e51b815260040180806020018281038252602a8152602001806114e8602a913960400191505060405180910390fd5b506002546001600160a01b031690565b6000600354600160a01b900460ff16600681111561082757fe5b146108635760405162461bcd60e51b815260040180806020018281038252602a815260200180611492602a913960400191505060405180910390fd5b600154600554600a54610886926001600160a01b039081169233929116906111dc565b600380546001919060ff60a01b1916600160a01b836104a6565b6004546060906001600160a01b03166108b76111d8565b6001600160a01b031614806108eb57506108cf610f9a565b6001600160a01b03166108e06111d8565b6001600160a01b0316145b6109265760405162461bcd60e51b815260040180806020018281038252602a8152602001806114e8602a913960400191505060405180910390fd5b600260009054906101000a90046001600160a01b03166001600160a01b031663724465436040518163ffffffff1660e01b815260040160006040518083038186803b15801561097457600080fd5b505afa158015610988573d6000803e3d6000fd5b505050506040513d6000823e601f3d908101601f1916820160405260208110156109b157600080fd5b81019080805160405193929190846401000000008211156109d157600080fd5b9083019060208201858111156109e657600080fd5b8251640100000000811182820188101715610a0057600080fd5b82525081516020918201929091019080838360005b83811015610a2d578181015183820152602001610a15565b50505050905090810190601f168015610a5a5780820380516001836020036101000a031916815260200191505b50604052505050905090565b6004546001600160a01b0316610a7a6111d8565b6001600160a01b031614610abf5760405162461bcd60e51b815260040180806020018281038252602d81526020018061140c602d913960400191505060405180910390fd5b6002610ac9610b27565b11610b055760405162461bcd60e51b815260040180806020018281038252602c8152602001806114bc602c913960400191505060405180910390fd5b600154600554610b23916001600160a01b03908116911684846111dc565b5050565b6004546000906001600160a01b0316610b3e6111d8565b6001600160a01b03161480610b725750610b56610f9a565b6001600160a01b0316610b676111d8565b6001600160a01b0316145b610bad5760405162461bcd60e51b815260040180806020018281038252602a8152602001806114e8602a913960400191505060405180910390fd5b600354600160a01b900460ff166006811115610bc557fe5b905090565b610bda8160095460085401610a66565b50565b610be56111d8565b6000546001600160a01b03908116911614610c47576040805162461bcd60e51b815260206004820181905260248201527f4f776e61626c653a2063616c6c6572206973206e6f7420746865206f776e6572604482015290519081900360640190fd5b600080546040516001600160a01b03909116907f8be0079c531659141344cd1fd0a4f28419497f9722a3daafe3b4186f6b6457e0908390a36000805473ffffffffffffffffffffffffffffffffffffffff19169055565b610ca66111d8565b6000546001600160a01b03908116911614610d08576040805162461bcd60e51b815260206004820181905260248201527f4f776e61626c653a2063616c6c6572206973206e6f7420746865206f776e6572604482015290519081900360640190fd5b6000600354600160a01b900460ff166006811115610d2257fe5b14610d5e5760405162461bcd60e51b815260040180806020018281038252602a815260200180611492602a913960400191505060405180910390fd5b600380546006919060ff60a01b1916600160a01b836104a6565b610d806111d8565b6000546001600160a01b03908116911614610de2576040805162461bcd60e51b815260206004820181905260248201527f4f776e61626c653a2063616c6c6572206973206e6f7420746865206f776e6572604482015290519081900360640190fd5b6002610dec610b27565b11610e285760405162461bcd60e51b81526004018080602001828103825260308152602001806113686030913960400191505060405180910390fd5b600891909155600955565b6002600354600160a01b900460ff166006811115610e4d57fe5b14610e895760405162461bcd60e51b815260040180806020018281038252602d815260200180611439602d913960400191505060405180910390fd5b6000610e936111d8565b9050600460009054906101000a90046001600160a01b03166001600160a01b0316816001600160a01b031663893d20e86040518163ffffffff1660e01b815260040160206040518083038186803b158015610eed57600080fd5b505afa158015610f01573d6000803e3d6000fd5b505050506040513d6020811015610f1757600080fd5b50516001600160a01b031614610f5e5760405162461bcd60e51b815260040180806020018281038252602c815260200180611466602c913960400191505060405180910390fd5b6003805473ffffffffffffffffffffffffffffffffffffffff19166001600160a01b03929092169190911790556007805460ff19166001179055565b6000546001600160a01b031690565b6000610fb36111d8565b6000546001600160a01b03908116911614611015576040805162461bcd60e51b815260206004820181905260248201527f4f776e61626c653a2063616c6c6572206973206e6f7420746865206f776e6572604482015290519081900360640190fd5b506004546001600160a01b031690565b6001546001600160a01b031681565b61103c6111d8565b6000546001600160a01b0390811691161461109e576040805162461bcd60e51b815260206004820181905260248201527f4f776e61626c653a2063616c6c6572206973206e6f7420746865206f776e6572604482015290519081900360640190fd5b6001600160a01b0381166110e35760405162461bcd60e51b81526004018080602001828103825260268152602001806113986026913960400191505060405180910390fd5b600080546040516001600160a01b03808516939216917f8be0079c531659141344cd1fd0a4f28419497f9722a3daafe3b4186f6b6457e091a36000805473ffffffffffffffffffffffffffffffffffffffff19166001600160a01b0392909216919091179055565b6004546000906001600160a01b03166111626111d8565b6001600160a01b03161480611196575061117a610f9a565b6001600160a01b031661118b6111d8565b6001600160a01b0316145b6111d15760405162461bcd60e51b815260040180806020018281038252602a8152602001806114e8602a913960400191505060405180910390fd5b50600a5490565b3390565b604080516001600160a01b0385811660248301528481166044830152606480830185905283518084039091018152608490920183526020820180517bffffffffffffffffffffffffffffffffffffffffffffffffffffffff167f23b872dd0000000000000000000000000000000000000000000000000000000017815292518251600094606094938a169392918291908083835b6020831061128f5780518252601f199092019160209182019101611270565b6001836020036101000a0380198251168184511680821785525050505050509050019150506000604051808303816000865af19150503d80600081146112f1576040519150601f19603f3d011682016040523d82523d6000602084013e6112f6565b606091505b5091509150818015611324575080511580611324575080806020019051602081101561132157600080fd5b50515b61135f5760405162461bcd60e51b81526004018080602001828103825260248152602001806115386024913960400191505060405180910390fd5b50505050505056fe53747564656e744170706c69636174696f6e3a206170706c69636174696f6e206e6f742066696e6973686564207965744f776e61626c653a206e6577206f776e657220697320746865207a65726f206164647265737353747564656e744170706c69636174696f6e3a2061726520796f75206368656174696e673f53747564656e744170706c69636174696f6e3a20616e73776572206e6f74207265676973746572656453747564656e744170706c69636174696f6e3a206f6e6c792073747564656e742063616e20776974686472617753747564656e744170706c69636174696f6e3a206170706c69636174696f6e206973206e6f742061637469766553747564656e744170706c69636174696f6e3a206765744f776e657220726573756c742069732077726f6e6753747564656e744170706c69636174696f6e3a206170706c69636174696f6e206973206e6f74204e657753747564656e744170706c69636174696f6e3a206170706c69636174696f6e206e6f742066696e697368656453747564656e744170706c69636174696f6e3a2072656164207065726d697373696f6e2064656e69656453747564656e744170706c69636174696f6e3a2068696e74206e6f7420617661696c61626c655472616e7366657248656c7065723a205452414e534645525f46524f4d5f4641494c4544a2646970667358221220d8db739533868b58de96a5a9eed0692a575471eb964b77f8fa0f1df3dda4ff0d64736f6c63430006060033",
  "immutableReferences": {},
  "source": "pragma solidity 0.6.6;\r\n\r\nimport \"@openzeppelin/contracts/math/SafeMath.sol\";\r\nimport \"@openzeppelin/contracts/access/AccessControl.sol\";\r\nimport \"@openzeppelin/contracts/access/Ownable.sol\";\r\nimport \"@openzeppelin/contracts/token/ERC20/IERC20.sol\";\r\nimport \"@openzeppelin/contracts/utils/Address.sol\";\r\nimport \"@uniswap/lib/contracts/libraries/TransferHelper.sol\";\r\nimport \"./interface/IUniversity.sol\";\r\nimport \"./interface/IStudent.sol\";\r\nimport \"./interface/IClassroom.sol\";\r\nimport \"./interface/IStudentApplication.sol\";\r\nimport \"./interface/IStudentAnswer.sol\";\r\nimport \"./interface/IClassroomChallenge.sol\";\r\n\r\n\r\ncontract StudentApplication is Ownable, IStudentApplication {\r\n    using SafeMath for uint256;\r\n\r\n    IERC20 public daiToken;\r\n    IClassroomChallenge _challenge;\r\n\r\n    enum ApplicationState {New, Ready, Active, Success, Failed, Empty, Expired}\r\n\r\n    IStudentAnswer _answer;\r\n    ApplicationState _applicationState;\r\n    address _studentAddress;\r\n    address _classroomAddress;\r\n    bytes32 _seed;\r\n    bool _hasAnswer;\r\n    uint256 _principalReturned;\r\n    uint256 _completionPrize;\r\n    uint256 _entryPrice;\r\n\r\n    constructor(\r\n        address studentAddress,\r\n        address classroomAddress,\r\n        address daiAddress,\r\n        address challengeAddress,\r\n        bytes32 seed\r\n    ) public {\r\n        _applicationState = ApplicationState.New;\r\n        _studentAddress = studentAddress;\r\n        _classroomAddress = classroomAddress;\r\n        _hasAnswer = false;\r\n        daiToken = IERC20(daiAddress);\r\n        _seed = seed;\r\n        _challenge = IClassroomChallenge(challengeAddress);\r\n        _entryPrice = IClassroom(_classroomAddress).entryPrice();\r\n    }\r\n\r\n    function studentAddress() public view override onlyOwner returns (address) {\r\n        return _studentAddress;\r\n    }\r\n\r\n    function applicationState() public view override returns (uint256) {\r\n        require(\r\n            _msgSender() == _studentAddress || _msgSender() == owner(),\r\n            \"StudentApplication: read permission denied\"\r\n        );\r\n        return uint256(_applicationState);\r\n    }\r\n\r\n    function entryPrice() public view override returns (uint256) {\r\n        require(\r\n            _msgSender() == _studentAddress || _msgSender() == owner(),\r\n            \"StudentApplication: read permission denied\"\r\n        );\r\n        return _entryPrice;\r\n    }\r\n\r\n    function challengeAddress() public view returns (address) {\r\n        require(\r\n            _msgSender() == _studentAddress || _msgSender() == owner(),\r\n            \"StudentApplication: read permission denied\"\r\n        );\r\n        return address(_challenge);\r\n    }\r\n\r\n    function payEntryPrice() external override {\r\n        require(\r\n            _applicationState == ApplicationState.New,\r\n            \"StudentApplication: application is not New\"\r\n        );\r\n        TransferHelper.safeTransferFrom(\r\n            address(daiToken),\r\n            msg.sender,\r\n            _classroomAddress,\r\n            _entryPrice\r\n        );\r\n        _applicationState = ApplicationState.Ready;\r\n    }\r\n\r\n    function activate() public override onlyOwner {\r\n        require(\r\n            _applicationState == ApplicationState.New,\r\n            \"StudentApplication: application is not New\"\r\n        );\r\n        _applicationState = ApplicationState.Active;\r\n    }\r\n\r\n    function expire() public override onlyOwner {\r\n        require(\r\n            _applicationState == ApplicationState.New,\r\n            \"StudentApplication: application is not New\"\r\n        );\r\n        _applicationState = ApplicationState.Expired;\r\n    }\r\n\r\n    function registerAnswer() public override {\r\n        require(\r\n            _applicationState == ApplicationState.Active,\r\n            \"StudentApplication: application is not active\"\r\n        );\r\n        IStudentAnswer answer = IStudentAnswer(_msgSender());\r\n        require(\r\n            answer.getOwner() == _studentAddress,\r\n            \"StudentApplication: getOwner result is wrong\"\r\n        );\r\n        _answer = answer;\r\n        _hasAnswer = true;\r\n    }\r\n\r\n    function viewChallengeMaterial() public view returns (string memory) {\r\n        require(\r\n            _msgSender() == _studentAddress || _msgSender() == owner(),\r\n            \"StudentApplication: read permission denied\"\r\n        );\r\n        return _challenge.viewMaterial();\r\n    }\r\n\r\n    function getHint(uint256 index) public view override returns (bytes32) {\r\n        require(_hasAnswer, \"StudentApplication: answer not registered\");\r\n        require(\r\n            _msgSender() == address(_answer),\r\n            \"StudentApplication: are you cheating?\"\r\n        );\r\n        require(\r\n            index < _challenge.hintsCount(),\r\n            \"StudentApplication: hint not available\"\r\n        );\r\n        return _challenge.getHint(index, _seed);\r\n    }\r\n\r\n    function verifyAnswer() public view returns (bool) {\r\n        try _answer.getSeed() returns (bytes32 seed) {\r\n            return seed == _seed;\r\n        } catch {\r\n            return false;\r\n        }\r\n    }\r\n\r\n    function registerFinalAnswer() public override onlyOwner {\r\n        if (!_hasAnswer) {\r\n            _applicationState = ApplicationState.Empty;\r\n        } else {\r\n            if (verifyAnswer()) _applicationState = ApplicationState.Success;\r\n            else _applicationState = ApplicationState.Failed;\r\n        }\r\n    }\r\n\r\n    function accountAllowance(uint256 principal, uint256 prize)\r\n        public\r\n        override\r\n        onlyOwner\r\n    {\r\n        require(\r\n            applicationState() > 2,\r\n            \"StudentApplication: application not finished yet\"\r\n        );\r\n        _principalReturned = principal;\r\n        _completionPrize = prize;\r\n    }\r\n\r\n    function withdrawAllResults(address to) public override {\r\n        withdrawResults(to, _principalReturned + _completionPrize);\r\n    }\r\n\r\n    function withdrawResults(address to, uint256 val) public override {\r\n        require(\r\n            _msgSender() == _studentAddress,\r\n            \"StudentApplication: only student can withdraw\"\r\n        );\r\n        require(\r\n            applicationState() > 2,\r\n            \"StudentApplication: application not finished\"\r\n        );\r\n        TransferHelper.safeTransferFrom(address(daiToken), _classroomAddress, to, val);\r\n    }\r\n}\r\n",
  "sourcePath": "/mnt/e/Repositories/Uproot/contracts/StudentApplication.sol",
  "compiler": {
    "name": "solc",
    "version": "0.6.6+commit.6c089d02.Emscripten.clang"
  },
  "schemaVersion": "3.1.0",
  "updatedAt": "2020-05-07T02:21:39.103Z",
  "devdoc": {
    "methods": {
      "owner()": {
        "details": "Returns the address of the current owner."
      },
      "renounceOwnership()": {
        "details": "Leaves the contract without owner. It will not be possible to call `onlyOwner` functions anymore. Can only be called by the current owner.     * NOTE: Renouncing ownership will leave the contract without an owner, thereby removing any functionality that is only available to the owner."
      },
      "transferOwnership(address)": {
        "details": "Transfers ownership of the contract to a new account (`newOwner`). Can only be called by the current owner."
      }
    }
  },
  "userdoc": {
    "methods": {}
  }
}