{
  "contractName": "University",
  "abi": [
    {
      "inputs": [
        {
          "internalType": "bytes32",
          "name": "name",
          "type": "bytes32"
        },
        {
          "internalType": "uint24",
          "name": "cut",
          "type": "uint24"
        },
        {
          "internalType": "address",
          "name": "daiAddress",
          "type": "address"
        },
        {
          "internalType": "address",
          "name": "compoundAddress",
          "type": "address"
        }
      ],
      "stateMutability": "nonpayable",
      "type": "constructor"
    },
    {
      "anonymous": false,
      "inputs": [
        {
          "indexed": true,
          "internalType": "bytes32",
          "name": "name",
          "type": "bytes32"
        },
        {
          "indexed": false,
          "internalType": "address",
          "name": "addr",
          "type": "address"
        }
      ],
      "name": "NewClassroom",
      "type": "event"
    },
    {
      "anonymous": false,
      "inputs": [
        {
          "indexed": true,
          "internalType": "address",
          "name": "previousOwner",
          "type": "address"
        },
        {
          "indexed": true,
          "internalType": "address",
          "name": "newOwner",
          "type": "address"
        }
      ],
      "name": "OwnershipTransferred",
      "type": "event"
    },
    {
      "anonymous": false,
      "inputs": [
        {
          "indexed": true,
          "internalType": "bytes32",
          "name": "role",
          "type": "bytes32"
        },
        {
          "indexed": true,
          "internalType": "address",
          "name": "account",
          "type": "address"
        },
        {
          "indexed": true,
          "internalType": "address",
          "name": "sender",
          "type": "address"
        }
      ],
      "name": "RoleGranted",
      "type": "event"
    },
    {
      "anonymous": false,
      "inputs": [
        {
          "indexed": true,
          "internalType": "bytes32",
          "name": "role",
          "type": "bytes32"
        },
        {
          "indexed": true,
          "internalType": "address",
          "name": "account",
          "type": "address"
        },
        {
          "indexed": true,
          "internalType": "address",
          "name": "sender",
          "type": "address"
        }
      ],
      "name": "RoleRevoked",
      "type": "event"
    },
    {
      "inputs": [],
      "name": "CLASSLIST_ADMIN_ROLE",
      "outputs": [
        {
          "internalType": "bytes32",
          "name": "",
          "type": "bytes32"
        }
      ],
      "stateMutability": "view",
      "type": "function"
    },
    {
      "inputs": [],
      "name": "CLASSROOM_ROLE",
      "outputs": [
        {
          "internalType": "bytes32",
          "name": "",
          "type": "bytes32"
        }
      ],
      "stateMutability": "view",
      "type": "function"
    },
    {
      "inputs": [],
      "name": "DEFAULT_ADMIN_ROLE",
      "outputs": [
        {
          "internalType": "bytes32",
          "name": "",
          "type": "bytes32"
        }
      ],
      "stateMutability": "view",
      "type": "function"
    },
    {
      "inputs": [],
      "name": "FUNDS_MANAGER_ROLE",
      "outputs": [
        {
          "internalType": "bytes32",
          "name": "",
          "type": "bytes32"
        }
      ],
      "stateMutability": "view",
      "type": "function"
    },
    {
      "inputs": [],
      "name": "GRANTS_MANAGER_ROLE",
      "outputs": [
        {
          "internalType": "bytes32",
          "name": "",
          "type": "bytes32"
        }
      ],
      "stateMutability": "view",
      "type": "function"
    },
    {
      "inputs": [],
      "name": "READ_STUDENT_LIST_ROLE",
      "outputs": [
        {
          "internalType": "bytes32",
          "name": "",
          "type": "bytes32"
        }
      ],
      "stateMutability": "view",
      "type": "function"
    },
    {
      "inputs": [],
      "name": "STUDENT_ROLE",
      "outputs": [
        {
          "internalType": "bytes32",
          "name": "",
          "type": "bytes32"
        }
      ],
      "stateMutability": "view",
      "type": "function"
    },
    {
      "inputs": [],
      "name": "cToken",
      "outputs": [
        {
          "internalType": "contract CERC20",
          "name": "",
          "type": "address"
        }
      ],
      "stateMutability": "view",
      "type": "function"
    },
    {
      "inputs": [],
      "name": "daiToken",
      "outputs": [
        {
          "internalType": "contract IERC20",
          "name": "",
          "type": "address"
        }
      ],
      "stateMutability": "view",
      "type": "function"
    },
    {
      "inputs": [
        {
          "internalType": "bytes32",
          "name": "role",
          "type": "bytes32"
        }
      ],
      "name": "getRoleAdmin",
      "outputs": [
        {
          "internalType": "bytes32",
          "name": "",
          "type": "bytes32"
        }
      ],
      "stateMutability": "view",
      "type": "function"
    },
    {
      "inputs": [
        {
          "internalType": "bytes32",
          "name": "role",
          "type": "bytes32"
        },
        {
          "internalType": "uint256",
          "name": "index",
          "type": "uint256"
        }
      ],
      "name": "getRoleMember",
      "outputs": [
        {
          "internalType": "address",
          "name": "",
          "type": "address"
        }
      ],
      "stateMutability": "view",
      "type": "function"
    },
    {
      "inputs": [
        {
          "internalType": "bytes32",
          "name": "role",
          "type": "bytes32"
        }
      ],
      "name": "getRoleMemberCount",
      "outputs": [
        {
          "internalType": "uint256",
          "name": "",
          "type": "uint256"
        }
      ],
      "stateMutability": "view",
      "type": "function"
    },
    {
      "inputs": [
        {
          "internalType": "bytes32",
          "name": "role",
          "type": "bytes32"
        },
        {
          "internalType": "address",
          "name": "account",
          "type": "address"
        }
      ],
      "name": "grantRole",
      "outputs": [],
      "stateMutability": "nonpayable",
      "type": "function"
    },
    {
      "inputs": [
        {
          "internalType": "bytes32",
          "name": "role",
          "type": "bytes32"
        },
        {
          "internalType": "address",
          "name": "account",
          "type": "address"
        }
      ],
      "name": "hasRole",
      "outputs": [
        {
          "internalType": "bool",
          "name": "",
          "type": "bool"
        }
      ],
      "stateMutability": "view",
      "type": "function"
    },
    {
      "inputs": [],
      "name": "owner",
      "outputs": [
        {
          "internalType": "address",
          "name": "",
          "type": "address"
        }
      ],
      "stateMutability": "view",
      "type": "function"
    },
    {
      "inputs": [],
      "name": "renounceOwnership",
      "outputs": [],
      "stateMutability": "nonpayable",
      "type": "function"
    },
    {
      "inputs": [
        {
          "internalType": "bytes32",
          "name": "role",
          "type": "bytes32"
        },
        {
          "internalType": "address",
          "name": "account",
          "type": "address"
        }
      ],
      "name": "renounceRole",
      "outputs": [],
      "stateMutability": "nonpayable",
      "type": "function"
    },
    {
      "inputs": [
        {
          "internalType": "bytes32",
          "name": "role",
          "type": "bytes32"
        },
        {
          "internalType": "address",
          "name": "account",
          "type": "address"
        }
      ],
      "name": "revokeRole",
      "outputs": [],
      "stateMutability": "nonpayable",
      "type": "function"
    },
    {
      "inputs": [
        {
          "internalType": "address",
          "name": "newOwner",
          "type": "address"
        }
      ],
      "name": "transferOwnership",
      "outputs": [],
      "stateMutability": "nonpayable",
      "type": "function"
    },
    {
      "inputs": [],
      "name": "name",
      "outputs": [
        {
          "internalType": "bytes32",
          "name": "",
          "type": "bytes32"
        }
      ],
      "stateMutability": "view",
      "type": "function"
    },
    {
      "inputs": [
        {
          "internalType": "bytes32",
          "name": "val",
          "type": "bytes32"
        }
      ],
      "name": "changeName",
      "outputs": [],
      "stateMutability": "nonpayable",
      "type": "function"
    },
    {
      "inputs": [],
      "name": "cut",
      "outputs": [
        {
          "internalType": "uint24",
          "name": "",
          "type": "uint24"
        }
      ],
      "stateMutability": "view",
      "type": "function"
    },
    {
      "inputs": [
        {
          "internalType": "uint24",
          "name": "val",
          "type": "uint24"
        }
      ],
      "name": "changeCut",
      "outputs": [],
      "stateMutability": "nonpayable",
      "type": "function"
    },
    {
      "inputs": [],
      "name": "viewClassList",
      "outputs": [
        {
          "internalType": "contract Classroom[]",
          "name": "",
          "type": "address[]"
        }
      ],
      "stateMutability": "view",
      "type": "function"
    },
    {
      "inputs": [
        {
          "internalType": "address",
          "name": "classroom",
          "type": "address"
        }
      ],
      "name": "isValidClassroom",
      "outputs": [
        {
          "internalType": "bool",
          "name": "",
          "type": "bool"
        }
      ],
      "stateMutability": "view",
      "type": "function"
    },
    {
      "inputs": [
        {
          "internalType": "bytes32",
          "name": "cName",
          "type": "bytes32"
        },
        {
          "internalType": "uint24",
          "name": "cCut",
          "type": "uint24"
        },
        {
          "internalType": "uint24",
          "name": "cPCut",
          "type": "uint24"
        },
        {
          "internalType": "int32",
          "name": "minScore",
          "type": "int32"
        },
        {
          "internalType": "uint256",
          "name": "entryPrice",
          "type": "uint256"
        },
        {
          "internalType": "uint256",
          "name": "duration",
          "type": "uint256"
        }
      ],
      "name": "newClassRoom",
      "outputs": [],
      "stateMutability": "nonpayable",
      "type": "function"
    },
    {
      "inputs": [
        {
          "internalType": "bytes32",
          "name": "cName",
          "type": "bytes32"
        }
      ],
      "name": "newClassRoom",
      "outputs": [],
      "stateMutability": "nonpayable",
      "type": "function"
    },
    {
      "inputs": [
        {
          "internalType": "bytes32",
          "name": "sName",
          "type": "bytes32"
        }
      ],
      "name": "studentSelfRegister",
      "outputs": [],
      "stateMutability": "nonpayable",
      "type": "function"
    },
    {
      "inputs": [
        {
          "internalType": "address",
          "name": "student",
          "type": "address"
        }
      ],
      "name": "studentIsRegistered",
      "outputs": [
        {
          "internalType": "bool",
          "name": "",
          "type": "bool"
        }
      ],
      "stateMutability": "view",
      "type": "function"
    },
    {
      "inputs": [
        {
          "internalType": "address",
          "name": "student",
          "type": "address"
        },
        {
          "internalType": "int32",
          "name": "val",
          "type": "int32"
        }
      ],
      "name": "addStudentScore",
      "outputs": [],
      "stateMutability": "nonpayable",
      "type": "function"
    },
    {
      "inputs": [
        {
          "internalType": "address",
          "name": "student",
          "type": "address"
        },
        {
          "internalType": "int32",
          "name": "val",
          "type": "int32"
        }
      ],
      "name": "subStudentScore",
      "outputs": [],
      "stateMutability": "nonpayable",
      "type": "function"
    },
    {
      "inputs": [
        {
          "internalType": "uint256",
          "name": "val",
          "type": "uint256"
        }
      ],
      "name": "applyFunds",
      "outputs": [],
      "stateMutability": "nonpayable",
      "type": "function"
    },
    {
      "inputs": [
        {
          "internalType": "address",
          "name": "to",
          "type": "address"
        },
        {
          "internalType": "uint256",
          "name": "val",
          "type": "uint256"
        }
      ],
      "name": "spendFunds",
      "outputs": [],
      "stateMutability": "nonpayable",
      "type": "function"
    },
    {
      "inputs": [
        {
          "internalType": "address",
          "name": "to",
          "type": "address"
        },
        {
          "internalType": "uint256",
          "name": "val",
          "type": "uint256"
        }
      ],
      "name": "allowFunds",
      "outputs": [],
      "stateMutability": "nonpayable",
      "type": "function"
    }
  ],
  "bytecode": "0x60806040523480156200001157600080fd5b506040516200cbba3803806200cbba833981810160405260808110156200003757600080fd5b81019080805190602001909291908051906020019092919080519060200190929190805190602001909291905050506000620000786200030660201b60201c565b9050806000806101000a81548173ffffffffffffffffffffffffffffffffffffffff021916908373ffffffffffffffffffffffffffffffffffffffff1602179055508073ffffffffffffffffffffffffffffffffffffffff16600073ffffffffffffffffffffffffffffffffffffffff167f8be0079c531659141344cd1fd0a4f28419497f9722a3daafe3b4186f6b6457e060405160405180910390a3508360028190555082600360006101000a81548162ffffff021916908362ffffff160217905550600067ffffffffffffffff811180156200015557600080fd5b50604051908082528060200260200182016040528015620001855781602001602082028036833780820191505090505b50600490805190602001906200019d929190620005b2565b50600067ffffffffffffffff81118015620001b757600080fd5b50604051908082528060200260200182016040528015620001e75781602001602082028036833780820191505090505b5060059080519060200190620001ff92919062000641565b50620002246000801b620002186200030660201b60201c565b6200030e60201b60201c565b6200027a60405180807f524541445f53545544454e545f4c4953545f524f4c4500000000000000000000815250601601905060405180910390206200026e6200030660201b60201c565b6200032460201b60201c565b81600860006101000a81548173ffffffffffffffffffffffffffffffffffffffff021916908373ffffffffffffffffffffffffffffffffffffffff16021790555080600760006101000a81548173ffffffffffffffffffffffffffffffffffffffff021916908373ffffffffffffffffffffffffffffffffffffffff160217905550505050506200075c565b600033905090565b620003208282620003c860201b60201c565b5050565b6200035b60016000848152602001908152602001600020600201546200034f6200030660201b60201c565b6200046c60201b60201c565b620003b2576040517f08c379a000000000000000000000000000000000000000000000000000000000815260040180806020018281038252602f8152602001806200cb8b602f913960400191505060405180910390fd5b620003c48282620003c860201b60201c565b5050565b620003f78160016000858152602001908152602001600020600001620004a560201b620023e71790919060201c565b1562000468576200040d6200030660201b60201c565b73ffffffffffffffffffffffffffffffffffffffff168173ffffffffffffffffffffffffffffffffffffffff16837f2f8788117e7eff1d82e926ec794901d17c78024a50270940304540a733656f0d60405160405180910390a45b5050565b60006200049d8260016000868152602001908152602001600020600001620004dd60201b6200204d1790919060201c565b905092915050565b6000620004d5836000018373ffffffffffffffffffffffffffffffffffffffff1660001b6200051560201b60201c565b905092915050565b60006200050d836000018373ffffffffffffffffffffffffffffffffffffffff1660001b6200058f60201b60201c565b905092915050565b60006200052983836200058f60201b60201c565b6200058457826000018290806001815401808255809150506001900390600052602060002001600090919091909150558260000180549050836001016000848152602001908152602001600020819055506001905062000589565b600090505b92915050565b600080836001016000848152602001908152602001600020541415905092915050565b8280548282559060005260206000209081019282156200062e579160200282015b828111156200062d5782518260006101000a81548173ffffffffffffffffffffffffffffffffffffffff021916908373ffffffffffffffffffffffffffffffffffffffff16021790555091602001919060010190620005d3565b5b5090506200063d9190620006d0565b5090565b828054828255906000526020600020908101928215620006bd579160200282015b82811115620006bc5782518260006101000a81548173ffffffffffffffffffffffffffffffffffffffff021916908373ffffffffffffffffffffffffffffffffffffffff1602179055509160200191906001019062000662565b5b509050620006cc919062000716565b5090565b6200071391905b808211156200070f57600081816101000a81549073ffffffffffffffffffffffffffffffffffffffff021916905550600101620006d7565b5090565b90565b6200075991905b808211156200075557600081816101000a81549073ffffffffffffffffffffffffffffffffffffffff0219169055506001016200071d565b5090565b90565b61c41f806200076c6000396000f3fe60806040523480156200001157600080fd5b5060043610620002385760003560e01c80639010d07c1162000135578063ca15c87311620000bd578063e770d7d41162000087578063e770d7d414620009b2578063f09b419a14620009e8578063f2fde38b1462000a19578063f7be43fb1462000a60578063ff5d8f631462000a805762000238565b8063ca15c8731462000882578063d547741f14620008c7578063d5b5ab0d1462000918578063e6fd604c14620009885762000238565b8063be22f54611620000ff578063be22f5461462000794578063c204a0e014620007e0578063c419f4321462000811578063c4707a8314620008625762000238565b80639010d07c146200067057806391d1485414620006eb5780639fd6cb7a1462000754578063a217fddf14620007745762000238565b806364d4773111620001c5578063820cd75c116200018f578063820cd75c146200052057806385dade61146200054057806387bfe188146200059f578063898855ed14620005f35780638da5cb5b14620006245762000238565b806364d47731146200044557806369e527da14620004655780636a77baa714620004b1578063715018a614620005145762000238565b806336568abe116200020757806336568abe14620003525780634cd77d4514620003a35780635070ad9514620003c35780635a7dd15014620004145762000238565b806306fdde03146200023d57806316ded1ce146200025d578063248a9ca314620002bc5780632f2ff15d1462000301575b600080fd5b6200024762000ad4565b6040518082815260200191505060405180910390f35b620002a2600480360360208110156200027557600080fd5b81019080803573ffffffffffffffffffffffffffffffffffffffff16906020019092919050505062000ade565b604051808215151515815260200191505060405180910390f35b620002eb60048036036020811015620002d457600080fd5b810190808035906020019092919050505062000bc9565b6040518082815260200191505060405180910390f35b62000350600480360360408110156200031957600080fd5b8101908080359060200190929190803573ffffffffffffffffffffffffffffffffffffffff16906020019092919050505062000be9565b005b620003a1600480360360408110156200036a57600080fd5b8101908080359060200190929190803573ffffffffffffffffffffffffffffffffffffffff16906020019092919050505062000c7b565b005b620003ad62000d1a565b6040518082815260200191505060405180910390f35b6200041260048036036040811015620003db57600080fd5b81019080803573ffffffffffffffffffffffffffffffffffffffff1690602001909291908035906020019092919050505062000d53565b005b62000443600480360360208110156200042c57600080fd5b810190808035906020019092919050505062000ee0565b005b6200044f62000eee565b6040518082815260200191505060405180910390f35b6200046f62000f27565b604051808273ffffffffffffffffffffffffffffffffffffffff1673ffffffffffffffffffffffffffffffffffffffff16815260200191505060405180910390f35b620004bb62000f4d565b6040518080602001828103825283818151815260200191508051906020019060200280838360005b8381101562000500578082015181840152602081019050620004e3565b505050509050019250505060405180910390f35b6200051e62000fdd565b005b6200052a62001168565b6040518082815260200191505060405180910390f35b62000585600480360360208110156200055857600080fd5b81019080803573ffffffffffffffffffffffffffffffffffffffff169060200190929190505050620011a1565b604051808215151515815260200191505060405180910390f35b620005f160048036036040811015620005b757600080fd5b81019080803573ffffffffffffffffffffffffffffffffffffffff169060200190929190803560030b9060200190929190505050620011eb565b005b62000622600480360360208110156200060b57600080fd5b810190808035906020019092919050505062001303565b005b6200062e620013d9565b604051808273ffffffffffffffffffffffffffffffffffffffff1673ffffffffffffffffffffffffffffffffffffffff16815260200191505060405180910390f35b620006a9600480360360408110156200068857600080fd5b81019080803590602001909291908035906020019092919050505062001402565b604051808273ffffffffffffffffffffffffffffffffffffffff1673ffffffffffffffffffffffffffffffffffffffff16815260200191505060405180910390f35b6200073a600480360360408110156200070357600080fd5b8101908080359060200190929190803573ffffffffffffffffffffffffffffffffffffffff16906020019092919050505062001436565b604051808215151515815260200191505060405180910390f35b6200075e6200146a565b6040518082815260200191505060405180910390f35b6200077e620014a3565b6040518082815260200191505060405180910390f35b6200079e620014aa565b604051808273ffffffffffffffffffffffffffffffffffffffff1673ffffffffffffffffffffffffffffffffffffffff16815260200191505060405180910390f35b6200080f60048036036020811015620007f857600080fd5b8101908080359060200190929190505050620014d0565b005b62000860600480360360408110156200082957600080fd5b81019080803573ffffffffffffffffffffffffffffffffffffffff1690602001909291908035906020019092919050505062001574565b005b6200086c62001701565b6040518082815260200191505060405180910390f35b620008b1600480360360208110156200089a57600080fd5b81019080803590602001909291905050506200173a565b6040518082815260200191505060405180910390f35b6200091660048036036040811015620008df57600080fd5b8101908080359060200190929190803573ffffffffffffffffffffffffffffffffffffffff16906020019092919050505062001763565b005b62000986600480360360c08110156200093057600080fd5b8101908080359060200190929190803562ffffff169060200190929190803562ffffff169060200190929190803560030b90602001909291908035906020019092919080359060200190929190505050620017f5565b005b62000992620018ae565b604051808262ffffff1662ffffff16815260200191505060405180910390f35b620009e660048036036020811015620009ca57600080fd5b81019080803562ffffff169060200190929190505050620018c7565b005b62000a176004803603602081101562000a0057600080fd5b8101908080359060200190929190505050620019b5565b005b62000a5e6004803603602081101562000a3157600080fd5b81019080803573ffffffffffffffffffffffffffffffffffffffff169060200190929190505050620019db565b005b62000a6a62001bed565b6040518082815260200191505060405180910390f35b62000ad26004803603604081101562000a9857600080fd5b81019080803573ffffffffffffffffffffffffffffffffffffffff169060200190929190803560030b906020019092919050505062001c26565b005b6000600254905090565b600062000b2a60405180807f524541445f53545544454e545f4c4953545f524f4c45000000000000000000008152506016019050604051809103902062000b2462001d3e565b62001436565b62000b81576040517f08c379a00000000000000000000000000000000000000000000000000000000081526004018080602001828103825260368152602001806200c29b6036913960400191505060405180910390fd5b62000bc260405180807f53545544454e545f524f4c450000000000000000000000000000000000000000815250600c01905060405180910390208362001436565b9050919050565b600060016000838152602001908152602001600020600201549050919050565b62000c14600160008481526020019081526020016000206002015462000c0e62001d3e565b62001436565b62000c6b576040517f08c379a000000000000000000000000000000000000000000000000000000000815260040180806020018281038252602f8152602001806200c26c602f913960400191505060405180910390fd5b62000c77828262001d46565b5050565b62000c8562001d3e565b73ffffffffffffffffffffffffffffffffffffffff168173ffffffffffffffffffffffffffffffffffffffff161462000d0a576040517f08c379a000000000000000000000000000000000000000000000000000000000815260040180806020018281038252602f8152602001806200c3bb602f913960400191505060405180910390fd5b62000d16828262001ddf565b5050565b60405180807f434c415353524f4f4d5f524f4c45000000000000000000000000000000000000815250600e019050604051809103902081565b62000d9d60405180807f46554e44535f4d414e414745525f524f4c4500000000000000000000000000008152506012019050604051809103902062000d9762001d3e565b62001436565b62000df4576040517f08c379a00000000000000000000000000000000000000000000000000000000081526004018080602001828103825260328152602001806200c2f76032913960400191505060405180910390fd5b600860009054906101000a900473ffffffffffffffffffffffffffffffffffffffff1673ffffffffffffffffffffffffffffffffffffffff1663a9059cbb83836040518363ffffffff1660e01b8152600401808373ffffffffffffffffffffffffffffffffffffffff1673ffffffffffffffffffffffffffffffffffffffff16815260200182815260200192505050602060405180830381600087803b15801562000e9e57600080fd5b505af115801562000eb3573d6000803e3d6000fd5b505050506040513d602081101562000eca57600080fd5b8101908080519060200190929190505050505050565b62000eeb8162001e78565b50565b60405180807f4752414e54535f4d414e414745525f524f4c45000000000000000000000000008152506013019050604051809103902081565b600760009054906101000a900473ffffffffffffffffffffffffffffffffffffffff1681565b6060600480548060200260200160405190810160405280929190818152602001828054801562000fd357602002820191906000526020600020905b8160009054906101000a900473ffffffffffffffffffffffffffffffffffffffff1673ffffffffffffffffffffffffffffffffffffffff168152602001906001019080831162000f88575b5050505050905090565b62000fe762001d3e565b73ffffffffffffffffffffffffffffffffffffffff166000809054906101000a900473ffffffffffffffffffffffffffffffffffffffff1673ffffffffffffffffffffffffffffffffffffffff1614620010a9576040517f08c379a00000000000000000000000000000000000000000000000000000000081526004018080602001828103825260208152602001807f4f776e61626c653a2063616c6c6572206973206e6f7420746865206f776e657281525060200191505060405180910390fd5b600073ffffffffffffffffffffffffffffffffffffffff166000809054906101000a900473ffffffffffffffffffffffffffffffffffffffff1673ffffffffffffffffffffffffffffffffffffffff167f8be0079c531659141344cd1fd0a4f28419497f9722a3daafe3b4186f6b6457e060405160405180910390a360008060006101000a81548173ffffffffffffffffffffffffffffffffffffffff021916908373ffffffffffffffffffffffffffffffffffffffff160217905550565b60405180807f434c4153534c4953545f41444d494e5f524f4c450000000000000000000000008152506014019050604051809103902081565b6000620011e460405180807f434c415353524f4f4d5f524f4c45000000000000000000000000000000000000815250600e01905060405180910390208362001436565b9050919050565b6200123560405180807f434c415353524f4f4d5f524f4c45000000000000000000000000000000000000815250600e01905060405180910390206200122f62001d3e565b62001436565b6200128c576040517f08c379a000000000000000000000000000000000000000000000000000000000815260040180806020018281038252602e8152602001806200c38d602e913960400191505060405180910390fd5b8173ffffffffffffffffffffffffffffffffffffffff1663aa4f38c7826040518263ffffffff1660e01b8152600401808260030b60030b8152602001915050600060405180830381600087803b158015620012e657600080fd5b505af1158015620012fb573d6000803e3d6000fd5b505050505050565b6200130d62001d3e565b73ffffffffffffffffffffffffffffffffffffffff166000809054906101000a900473ffffffffffffffffffffffffffffffffffffffff1673ffffffffffffffffffffffffffffffffffffffff1614620013cf576040517f08c379a00000000000000000000000000000000000000000000000000000000081526004018080602001828103825260208152602001807f4f776e61626c653a2063616c6c6572206973206e6f7420746865206f776e657281525060200191505060405180910390fd5b8060028190555050565b60008060009054906101000a900473ffffffffffffffffffffffffffffffffffffffff16905090565b60006200142e82600160008681526020019081526020016000206000016200203190919063ffffffff16565b905092915050565b60006200146282600160008681526020019081526020016000206000016200204d90919063ffffffff16565b905092915050565b60405180807f524541445f53545544454e545f4c4953545f524f4c45000000000000000000008152506016019050604051809103902081565b6000801b81565b600860009054906101000a900473ffffffffffffffffffffffffffffffffffffffff1681565b6200151a60405180807f46554e44535f4d414e414745525f524f4c450000000000000000000000000000815250601201905060405180910390206200151462001d3e565b62001436565b62001571576040517f08c379a00000000000000000000000000000000000000000000000000000000081526004018080602001828103825260328152602001806200c2f76032913960400191505060405180910390fd5b50565b620015be60405180807f46554e44535f4d414e414745525f524f4c45000000000000000000000000000081525060120190506040518091039020620015b862001d3e565b62001436565b62001615576040517f08c379a00000000000000000000000000000000000000000000000000000000081526004018080602001828103825260328152602001806200c2f76032913960400191505060405180910390fd5b600860009054906101000a900473ffffffffffffffffffffffffffffffffffffffff1673ffffffffffffffffffffffffffffffffffffffff1663095ea7b383836040518363ffffffff1660e01b8152600401808373ffffffffffffffffffffffffffffffffffffffff1673ffffffffffffffffffffffffffffffffffffffff16815260200182815260200192505050602060405180830381600087803b158015620016bf57600080fd5b505af1158015620016d4573d6000803e3d6000fd5b505050506040513d6020811015620016eb57600080fd5b8101908080519060200190929190505050505050565b60405180807f46554e44535f4d414e414745525f524f4c4500000000000000000000000000008152506012019050604051809103902081565b60006200175c600160008481526020019081526020016000206000016200207f565b9050919050565b6200178e60016000848152602001908152602001600020600201546200178862001d3e565b62001436565b620017e5576040517f08c379a00000000000000000000000000000000000000000000000000000000081526004018080602001828103825260308152602001806200c35d6030913960400191505060405180910390fd5b620017f1828262001ddf565b5050565b6200183f60405180807f434c4153534c4953545f41444d494e5f524f4c45000000000000000000000000815250601401905060405180910390206200183962001d3e565b62001436565b62001896576040517f08c379a00000000000000000000000000000000000000000000000000000000081526004018080602001828103825260348152602001806200c3296034913960400191505060405180910390fd5b620018a686868686868662002096565b505050505050565b6000600360009054906101000a900462ffffff16905090565b620018d162001d3e565b73ffffffffffffffffffffffffffffffffffffffff166000809054906101000a900473ffffffffffffffffffffffffffffffffffffffff1673ffffffffffffffffffffffffffffffffffffffff161462001993576040517f08c379a00000000000000000000000000000000000000000000000000000000081526004018080602001828103825260208152602001807f4f776e61626c653a2063616c6c6572206973206e6f7420746865206f776e657281525060200191505060405180910390fd5b80600360006101000a81548162ffffff021916908362ffffff16021790555050565b620019d88162030d406207a12060006802b5e3af16b188000062278d00620017f5565b50565b620019e562001d3e565b73ffffffffffffffffffffffffffffffffffffffff166000809054906101000a900473ffffffffffffffffffffffffffffffffffffffff1673ffffffffffffffffffffffffffffffffffffffff161462001aa7576040517f08c379a00000000000000000000000000000000000000000000000000000000081526004018080602001828103825260208152602001807f4f776e61626c653a2063616c6c6572206973206e6f7420746865206f776e657281525060200191505060405180910390fd5b600073ffffffffffffffffffffffffffffffffffffffff168173ffffffffffffffffffffffffffffffffffffffff16141562001b2f576040517f08c379a00000000000000000000000000000000000000000000000000000000081526004018080602001828103825260268152602001806200c2d16026913960400191505060405180910390fd5b8073ffffffffffffffffffffffffffffffffffffffff166000809054906101000a900473ffffffffffffffffffffffffffffffffffffffff1673ffffffffffffffffffffffffffffffffffffffff167f8be0079c531659141344cd1fd0a4f28419497f9722a3daafe3b4186f6b6457e060405160405180910390a3806000806101000a81548173ffffffffffffffffffffffffffffffffffffffff021916908373ffffffffffffffffffffffffffffffffffffffff16021790555050565b60405180807f53545544454e545f524f4c450000000000000000000000000000000000000000815250600c019050604051809103902081565b62001c7060405180807f434c415353524f4f4d5f524f4c45000000000000000000000000000000000000815250600e019050604051809103902062001c6a62001d3e565b62001436565b62001cc7576040517f08c379a000000000000000000000000000000000000000000000000000000000815260040180806020018281038252602e8152602001806200c38d602e913960400191505060405180910390fd5b8173ffffffffffffffffffffffffffffffffffffffff166368651350826040518263ffffffff1660e01b8152600401808260030b60030b8152602001915050600060405180830381600087803b15801562001d2157600080fd5b505af115801562001d36573d6000803e3d6000fd5b505050505050565b600033905090565b62001d708160016000858152602001908152602001600020600001620023e790919063ffffffff16565b1562001ddb5762001d8062001d3e565b73ffffffffffffffffffffffffffffffffffffffff168173ffffffffffffffffffffffffffffffffffffffff16837f2f8788117e7eff1d82e926ec794901d17c78024a50270940304540a733656f0d60405160405180910390a45b5050565b62001e0981600160008581526020019081526020016000206000016200241990919063ffffffff16565b1562001e745762001e1962001d3e565b73ffffffffffffffffffffffffffffffffffffffff168173ffffffffffffffffffffffffffffffffffffffff16837ff6391f5c32d9c69d2a47ea670b442974b53935d1edc7fd64eb21e047a839171b60405160405180910390a45b5050565b6000813060405162001e8a9062002666565b808381526020018273ffffffffffffffffffffffffffffffffffffffff1673ffffffffffffffffffffffffffffffffffffffff16815260200192505050604051809103906000f08015801562001ee4573d6000803e3d6000fd5b5090508073ffffffffffffffffffffffffffffffffffffffff1663f2fde38b62001f0d62001d3e565b6040518263ffffffff1660e01b8152600401808273ffffffffffffffffffffffffffffffffffffffff1673ffffffffffffffffffffffffffffffffffffffff168152602001915050600060405180830381600087803b15801562001f7057600080fd5b505af115801562001f85573d6000803e3d6000fd5b505050506005819080600181540180825580915050600190039060005260206000200160009091909190916101000a81548173ffffffffffffffffffffffffffffffffffffffff021916908373ffffffffffffffffffffffffffffffffffffffff1602179055506200202d60405180807f53545544454e545f524f4c450000000000000000000000000000000000000000815250600c01905060405180910390208262000be9565b5050565b60006200204283600001836200244b565b60001c905092915050565b600062002077836000018373ffffffffffffffffffffffffffffffffffffffff1660001b620024d1565b905092915050565b60006200208f82600001620024f4565b9050919050565b600086868686868630600860009054906101000a900473ffffffffffffffffffffffffffffffffffffffff16600760009054906101000a900473ffffffffffffffffffffffffffffffffffffffff16604051620020f39062002674565b808a81526020018962ffffff1662ffffff1681526020018862ffffff1662ffffff1681526020018760030b60030b81526020018681526020018581526020018473ffffffffffffffffffffffffffffffffffffffff1673ffffffffffffffffffffffffffffffffffffffff1681526020018373ffffffffffffffffffffffffffffffffffffffff1673ffffffffffffffffffffffffffffffffffffffff1681526020018273ffffffffffffffffffffffffffffffffffffffff1673ffffffffffffffffffffffffffffffffffffffff1681526020019950505050505050505050604051809103906000f080158015620021f0573d6000803e3d6000fd5b5090508073ffffffffffffffffffffffffffffffffffffffff1663f2fde38b6200221962001d3e565b6040518263ffffffff1660e01b8152600401808273ffffffffffffffffffffffffffffffffffffffff1673ffffffffffffffffffffffffffffffffffffffff168152602001915050600060405180830381600087803b1580156200227c57600080fd5b505af115801562002291573d6000803e3d6000fd5b505050506004819080600181540180825580915050600190039060005260206000200160009091909190916101000a81548173ffffffffffffffffffffffffffffffffffffffff021916908373ffffffffffffffffffffffffffffffffffffffff1602179055506200233960405180807f524541445f53545544454e545f4c4953545f524f4c4500000000000000000000815250601601905060405180910390208262000be9565b6200237a60405180807f434c415353524f4f4d5f524f4c45000000000000000000000000000000000000815250600e01905060405180910390208262000be9565b867f95e797cd40bf765fc0b9a9d62d83af0d354c4623daa5af289bc0be607a4712fa82604051808273ffffffffffffffffffffffffffffffffffffffff1673ffffffffffffffffffffffffffffffffffffffff16815260200191505060405180910390a250505050505050565b600062002411836000018373ffffffffffffffffffffffffffffffffffffffff1660001b62002505565b905092915050565b600062002443836000018373ffffffffffffffffffffffffffffffffffffffff1660001b62002579565b905092915050565b600081836000018054905011620024ae576040517f08c379a00000000000000000000000000000000000000000000000000000000081526004018080602001828103825260228152602001806200c24a6022913960400191505060405180910390fd5b826000018281548110620024be57fe5b9060005260206000200154905092915050565b600080836001016000848152602001908152602001600020541415905092915050565b600081600001805490509050919050565b6000620025138383620024d1565b6200256e57826000018290806001815401808255809150506001900390600052602060002001600090919091909150558260000180549050836001016000848152602001908152602001600020819055506001905062002573565b600090505b92915050565b600080836001016000848152602001908152602001600020549050600081146200265a5760006001820390506000600186600001805490500390506000866000018281548110620025c657fe5b9060005260206000200154905080876000018481548110620025e457fe5b90600052602060002001819055506001830187600101600083815260200190815260200160002081905550866000018054806200261d57fe5b6001900381819060005260206000200160009055905586600101600087815260200190815260200160002060009055600194505050505062002660565b60009150505b92915050565b612af3806200268383390190565b6170d480620051768339019056fe60806040523480156200001157600080fd5b5060405162002af338038062002af3833981810160405260408110156200003757600080fd5b810190808051906020019092919080519060200190929190505050600062000064620002fc60201b60201c565b9050806000806101000a81548173ffffffffffffffffffffffffffffffffffffffff021916908373ffffffffffffffffffffffffffffffffffffffff1602179055508073ffffffffffffffffffffffffffffffffffffffff16600073ffffffffffffffffffffffffffffffffffffffff167f8be0079c531659141344cd1fd0a4f28419497f9722a3daafe3b4186f6b6457e060405160405180910390a350816002819055506000600560006101000a81548163ffffffff021916908360030b63ffffffff16021790555080600360006101000a81548173ffffffffffffffffffffffffffffffffffffffff021916908373ffffffffffffffffffffffffffffffffffffffff160217905550620001936000801b62000187620002fc60201b60201c565b6200030460201b60201c565b620001e960405180807f524541445f53434f52455f524f4c450000000000000000000000000000000000815250600f0190506040518091039020620001dd620002fc60201b60201c565b6200031a60201b60201c565b6200023060405180807f4d4f444946595f53434f52455f524f4c4500000000000000000000000000000081525060110190506040518091039020826200031a60201b60201c565b8073ffffffffffffffffffffffffffffffffffffffff1662000257620002fc60201b60201c565b73ffffffffffffffffffffffffffffffffffffffff1614620002f457620002ba60405180807f524541445f53434f52455f524f4c450000000000000000000000000000000000815250600f0190506040518091039020826200031a60201b60201c565b620002cf6000801b826200031a60201b60201c565b620002f36000801b620002e7620002fc60201b60201c565b620003be60201b60201c565b5b50506200081c565b600033905090565b6200031682826200046960201b60201c565b5050565b62000351600160008481526020019081526020016000206002015462000345620002fc60201b60201c565b6200050d60201b60201c565b620003a8576040517f08c379a000000000000000000000000000000000000000000000000000000000815260040180806020018281038252602f81526020018062002a95602f913960400191505060405180910390fd5b620003ba82826200046960201b60201c565b5050565b620003ce620002fc60201b60201c565b73ffffffffffffffffffffffffffffffffffffffff168173ffffffffffffffffffffffffffffffffffffffff161462000453576040517f08c379a000000000000000000000000000000000000000000000000000000000815260040180806020018281038252602f81526020018062002ac4602f913960400191505060405180910390fd5b6200046582826200054660201b60201c565b5050565b620004988160016000858152602001908152602001600020600001620005ea60201b62001e6b1790919060201c565b156200050957620004ae620002fc60201b60201c565b73ffffffffffffffffffffffffffffffffffffffff168173ffffffffffffffffffffffffffffffffffffffff16837f2f8788117e7eff1d82e926ec794901d17c78024a50270940304540a733656f0d60405160405180910390a45b5050565b60006200053e82600160008681526020019081526020016000206000016200062260201b62001e261790919060201c565b905092915050565b6200057581600160008581526020019081526020016000206000016200065a60201b62001e9b1790919060201c565b15620005e6576200058b620002fc60201b60201c565b73ffffffffffffffffffffffffffffffffffffffff168173ffffffffffffffffffffffffffffffffffffffff16837ff6391f5c32d9c69d2a47ea670b442974b53935d1edc7fd64eb21e047a839171b60405160405180910390a45b5050565b60006200061a836000018373ffffffffffffffffffffffffffffffffffffffff1660001b6200069260201b60201c565b905092915050565b600062000652836000018373ffffffffffffffffffffffffffffffffffffffff1660001b6200070c60201b60201c565b905092915050565b60006200068a836000018373ffffffffffffffffffffffffffffffffffffffff1660001b6200072f60201b60201c565b905092915050565b6000620006a683836200070c60201b60201c565b6200070157826000018290806001815401808255809150506001900390600052602060002001600090919091909150558260000180549050836001016000848152602001908152602001600020819055506001905062000706565b600090505b92915050565b600080836001016000848152602001908152602001600020541415905092915050565b600080836001016000848152602001908152602001600020549050600081146200081057600060018203905060006001866000018054905003905060008660000182815481106200077c57fe5b90600052602060002001549050808760000184815481106200079a57fe5b9060005260206000200181905550600183018760010160008381526020019081526020016000208190555086600001805480620007d357fe5b6001900381819060005260206000200160009055905586600101600087815260200190815260200160002060009055600194505050505062000816565b60009150505b92915050565b612269806200082c6000396000f3fe608060405234801561001057600080fd5b506004361061018e5760003560e01c80638da5cb5b116100de578063ba6019d311610097578063d547741f11610071578063d547741f1461070f578063db4d5e871461075d578063efedc669146107c1578063f2fde38b146107e55761018e565b8063ba6019d314610615578063be22f54614610683578063ca15c873146106cd5761018e565b80638da5cb5b146104305780639010d07c1461047a57806391d14854146104f25780639fcb17de14610558578063a217fddf146105c6578063aa4f38c7146105e45761018e565b806331fb5fde1161014b57806369e527da1161012557806369e527da14610390578063715018a6146103da5780637206f3d6146103e4578063898855ed146104025761018e565b806331fb5fde146102cd57806336568abe14610311578063686513501461035f5761018e565b806306fdde03146101935780631b99219f146101b1578063222baa3a146101cf578063248a9ca3146101d9578063295869be1461021b5780632f2ff15d1461027f575b600080fd5b61019b610829565b6040518082815260200191505060405180910390f35b6101b9610833565b6040518082815260200191505060405180910390f35b6101d761086c565b005b610205600480360360208110156101ef57600080fd5b8101908080359060200190929190505050610959565b6040518082815260200191505060405180910390f35b61027d6004803603604081101561023157600080fd5b81019080803573ffffffffffffffffffffffffffffffffffffffff169060200190929190803573ffffffffffffffffffffffffffffffffffffffff169060200190929190505050610979565b005b6102cb6004803603604081101561029557600080fd5b8101908080359060200190929190803573ffffffffffffffffffffffffffffffffffffffff169060200190929190505050610ad0565b005b61030f600480360360208110156102e357600080fd5b81019080803573ffffffffffffffffffffffffffffffffffffffff169060200190929190505050610b5a565b005b61035d6004803603604081101561032757600080fd5b8101908080359060200190929190803573ffffffffffffffffffffffffffffffffffffffff169060200190929190505050610e57565b005b61038e6004803603602081101561037557600080fd5b81019080803560030b9060200190929190505050610ef0565b005b61039861105f565b604051808273ffffffffffffffffffffffffffffffffffffffff1673ffffffffffffffffffffffffffffffffffffffff16815260200191505060405180910390f35b6103e2611085565b005b6103ec61120d565b6040518082815260200191505060405180910390f35b61042e6004803603602081101561041857600080fd5b8101908080359060200190929190505050611246565b005b610438611319565b604051808273ffffffffffffffffffffffffffffffffffffffff1673ffffffffffffffffffffffffffffffffffffffff16815260200191505060405180910390f35b6104b06004803603604081101561049057600080fd5b810190808035906020019092919080359060200190929190505050611342565b604051808273ffffffffffffffffffffffffffffffffffffffff1673ffffffffffffffffffffffffffffffffffffffff16815260200191505060405180910390f35b61053e6004803603604081101561050857600080fd5b8101908080359060200190929190803573ffffffffffffffffffffffffffffffffffffffff169060200190929190505050611374565b604051808215151515815260200191505060405180910390f35b6105c46004803603606081101561056e57600080fd5b81019080803573ffffffffffffffffffffffffffffffffffffffff169060200190929190803573ffffffffffffffffffffffffffffffffffffffff169060200190929190803590602001909291905050506113a6565b005b6105ce611513565b6040518082815260200191505060405180910390f35b610613600480360360208110156105fa57600080fd5b81019080803560030b906020019092919050505061151a565b005b6106816004803603606081101561062b57600080fd5b81019080803573ffffffffffffffffffffffffffffffffffffffff169060200190929190803573ffffffffffffffffffffffffffffffffffffffff16906020019092919080359060200190929190505050611689565b005b61068b6117e2565b604051808273ffffffffffffffffffffffffffffffffffffffff1673ffffffffffffffffffffffffffffffffffffffff16815260200191505060405180910390f35b6106f9600480360360208110156106e357600080fd5b8101908080359060200190929190505050611808565b6040518082815260200191505060405180910390f35b61075b6004803603604081101561072557600080fd5b8101908080359060200190929190803573ffffffffffffffffffffffffffffffffffffffff16906020019092919050505061182f565b005b6107bf6004803603604081101561077357600080fd5b81019080803573ffffffffffffffffffffffffffffffffffffffff169060200190929190803573ffffffffffffffffffffffffffffffffffffffff1690602001909291905050506118b9565b005b6107c9611a1d565b604051808260030b60030b815260200191505060405180910390f35b610827600480360360208110156107fb57600080fd5b81019080803573ffffffffffffffffffffffffffffffffffffffff169060200190929190505050611acf565b005b6000600254905090565b60405180807f524541445f53434f52455f524f4c450000000000000000000000000000000000815250600f019050604051809103902081565b60008090505b60048054905081101561095657610887611cdc565b73ffffffffffffffffffffffffffffffffffffffff16600482815481106108aa57fe5b9060005260206000200160009054906101000a900473ffffffffffffffffffffffffffffffffffffffff1673ffffffffffffffffffffffffffffffffffffffff1614156109495760006004828154811061090057fe5b9060005260206000200160006101000a81548173ffffffffffffffffffffffffffffffffffffffff021916908373ffffffffffffffffffffffffffffffffffffffff1602179055505b8080600101915050610872565b50565b600060016000838152602001908152602001600020600201549050919050565b610981611cdc565b73ffffffffffffffffffffffffffffffffffffffff166000809054906101000a900473ffffffffffffffffffffffffffffffffffffffff1673ffffffffffffffffffffffffffffffffffffffff1614610a42576040517f08c379a00000000000000000000000000000000000000000000000000000000081526004018080602001828103825260208152602001807f4f776e61626c653a2063616c6c6572206973206e6f7420746865206f776e657281525060200191505060405180910390fd5b610acc8273ffffffffffffffffffffffffffffffffffffffff16636e8055a76040518163ffffffff1660e01b815260040160206040518083038186803b158015610a8b57600080fd5b505afa158015610a9f573d6000803e3d6000fd5b505050506040513d6020811015610ab557600080fd5b8101908080519060200190929190505050826118b9565b5050565b610af76001600084815260200190815260200160002060020154610af2611cdc565b611374565b610b4c576040517f08c379a000000000000000000000000000000000000000000000000000000000815260040180806020018281038252602f8152602001806120fd602f913960400191505060405180910390fd5b610b568282611ce4565b5050565b610b62611cdc565b73ffffffffffffffffffffffffffffffffffffffff166000809054906101000a900473ffffffffffffffffffffffffffffffffffffffff1673ffffffffffffffffffffffffffffffffffffffff1614610c23576040517f08c379a00000000000000000000000000000000000000000000000000000000081526004018080602001828103825260208152602001807f4f776e61626c653a2063616c6c6572206973206e6f7420746865206f776e657281525060200191505060405180910390fd5b600360009054906101000a900473ffffffffffffffffffffffffffffffffffffffff1673ffffffffffffffffffffffffffffffffffffffff166385dade61826040518263ffffffff1660e01b8152600401808273ffffffffffffffffffffffffffffffffffffffff1673ffffffffffffffffffffffffffffffffffffffff16815260200191505060206040518083038186803b158015610cc257600080fd5b505afa158015610cd6573d6000803e3d6000fd5b505050506040513d6020811015610cec57600080fd5b8101908080519060200190929190505050610d52576040517f08c379a000000000000000000000000000000000000000000000000000000000815260040180806020018281038252602981526020018061220b6029913960400191505060405180910390fd5b610d9160405180807f524541445f53434f52455f524f4c450000000000000000000000000000000000815250600f019050604051809103902082610ad0565b8073ffffffffffffffffffffffffffffffffffffffff16631b9dbc606040518163ffffffff1660e01b8152600401600060405180830381600087803b158015610dd957600080fd5b505af1158015610ded573d6000803e3d6000fd5b505050506004819080600181540180825580915050600190039060005260206000200160009091909190916101000a81548173ffffffffffffffffffffffffffffffffffffffff021916908373ffffffffffffffffffffffffffffffffffffffff16021790555050565b610e5f611cdc565b73ffffffffffffffffffffffffffffffffffffffff168173ffffffffffffffffffffffffffffffffffffffff1614610ee2576040517f08c379a000000000000000000000000000000000000000000000000000000000815260040180806020018281038252602f8152602001806121dc602f913960400191505060405180910390fd5b610eec8282611d78565b5050565b610f3660405180807f4d4f444946595f53434f52455f524f4c4500000000000000000000000000000081525060110190506040518091039020610f31611cdc565b611374565b610f8b576040517f08c379a000000000000000000000000000000000000000000000000000000000815260040180806020018281038252602e81526020018061212c602e913960400191505060405180910390fd5b80600560009054906101000a900460030b0360030b600560009054906101000a900460030b60030b13611026576040517f08c379a000000000000000000000000000000000000000000000000000000000815260040180806020018281038252601c8152602001807f53747564656e743a2062616420677261646573206f766572666c6f770000000081525060200191505060405180910390fd5b80600560008282829054906101000a900460030b0392506101000a81548163ffffffff021916908360030b63ffffffff16021790555050565b600660009054906101000a900473ffffffffffffffffffffffffffffffffffffffff1681565b61108d611cdc565b73ffffffffffffffffffffffffffffffffffffffff166000809054906101000a900473ffffffffffffffffffffffffffffffffffffffff1673ffffffffffffffffffffffffffffffffffffffff161461114e576040517f08c379a00000000000000000000000000000000000000000000000000000000081526004018080602001828103825260208152602001807f4f776e61626c653a2063616c6c6572206973206e6f7420746865206f776e657281525060200191505060405180910390fd5b600073ffffffffffffffffffffffffffffffffffffffff166000809054906101000a900473ffffffffffffffffffffffffffffffffffffffff1673ffffffffffffffffffffffffffffffffffffffff167f8be0079c531659141344cd1fd0a4f28419497f9722a3daafe3b4186f6b6457e060405160405180910390a360008060006101000a81548173ffffffffffffffffffffffffffffffffffffffff021916908373ffffffffffffffffffffffffffffffffffffffff160217905550565b60405180807f4d4f444946595f53434f52455f524f4c450000000000000000000000000000008152506011019050604051809103902081565b61124e611cdc565b73ffffffffffffffffffffffffffffffffffffffff166000809054906101000a900473ffffffffffffffffffffffffffffffffffffffff1673ffffffffffffffffffffffffffffffffffffffff161461130f576040517f08c379a00000000000000000000000000000000000000000000000000000000081526004018080602001828103825260208152602001807f4f776e61626c653a2063616c6c6572206973206e6f7420746865206f776e657281525060200191505060405180910390fd5b8060028190555050565b60008060009054906101000a900473ffffffffffffffffffffffffffffffffffffffff16905090565b600061136c8260016000868152602001908152602001600020600001611e0c90919063ffffffff16565b905092915050565b600061139e8260016000868152602001908152602001600020600001611e2690919063ffffffff16565b905092915050565b6113ae611cdc565b73ffffffffffffffffffffffffffffffffffffffff166000809054906101000a900473ffffffffffffffffffffffffffffffffffffffff1673ffffffffffffffffffffffffffffffffffffffff161461146f576040517f08c379a00000000000000000000000000000000000000000000000000000000081526004018080602001828103825260208152602001807f4f776e61626c653a2063616c6c6572206973206e6f7420746865206f776e657281525060200191505060405180910390fd5b8273ffffffffffffffffffffffffffffffffffffffff16633db0bfd283836040518363ffffffff1660e01b8152600401808373ffffffffffffffffffffffffffffffffffffffff1673ffffffffffffffffffffffffffffffffffffffff16815260200182815260200192505050600060405180830381600087803b1580156114f657600080fd5b505af115801561150a573d6000803e3d6000fd5b50505050505050565b6000801b81565b61156060405180807f4d4f444946595f53434f52455f524f4c450000000000000000000000000000008152506011019050604051809103902061155b611cdc565b611374565b6115b5576040517f08c379a000000000000000000000000000000000000000000000000000000000815260040180806020018281038252602e81526020018061212c602e913960400191505060405180910390fd5b80600560009054906101000a900460030b0160030b600560009054906101000a900460030b60030b12611650576040517f08c379a000000000000000000000000000000000000000000000000000000000815260040180806020018281038252601d8152602001807f53747564656e743a20676f6f6420677261646573206f766572666c6f7700000081525060200191505060405180910390fd5b80600560008282829054906101000a900460030b0192506101000a81548163ffffffff021916908360030b63ffffffff16021790555050565b611691611cdc565b73ffffffffffffffffffffffffffffffffffffffff166000809054906101000a900473ffffffffffffffffffffffffffffffffffffffff1673ffffffffffffffffffffffffffffffffffffffff1614611752576040517f08c379a00000000000000000000000000000000000000000000000000000000081526004018080602001828103825260208152602001807f4f776e61626c653a2063616c6c6572206973206e6f7420746865206f776e657281525060200191505060405180910390fd5b6117dd8373ffffffffffffffffffffffffffffffffffffffff16636e8055a76040518163ffffffff1660e01b815260040160206040518083038186803b15801561179b57600080fd5b505afa1580156117af573d6000803e3d6000fd5b505050506040513d60208110156117c557600080fd5b810190808051906020019092919050505083836113a6565b505050565b600560049054906101000a900473ffffffffffffffffffffffffffffffffffffffff1681565b600061182860016000848152602001908152602001600020600001611e56565b9050919050565b6118566001600084815260200190815260200160002060020154611851611cdc565b611374565b6118ab576040517f08c379a00000000000000000000000000000000000000000000000000000000081526004018080602001828103825260308152602001806121ac6030913960400191505060405180910390fd5b6118b58282611d78565b5050565b6118c1611cdc565b73ffffffffffffffffffffffffffffffffffffffff166000809054906101000a900473ffffffffffffffffffffffffffffffffffffffff1673ffffffffffffffffffffffffffffffffffffffff1614611982576040517f08c379a00000000000000000000000000000000000000000000000000000000081526004018080602001828103825260208152602001807f4f776e61626c653a2063616c6c6572206973206e6f7420746865206f776e657281525060200191505060405180910390fd5b8173ffffffffffffffffffffffffffffffffffffffff166366995a46826040518263ffffffff1660e01b8152600401808273ffffffffffffffffffffffffffffffffffffffff1673ffffffffffffffffffffffffffffffffffffffff168152602001915050600060405180830381600087803b158015611a0157600080fd5b505af1158015611a15573d6000803e3d6000fd5b505050505050565b6000611a6560405180807f524541445f53434f52455f524f4c450000000000000000000000000000000000815250600f0190506040518091039020611a60611cdc565b611374565b611aba576040517f08c379a000000000000000000000000000000000000000000000000000000000815260040180806020018281038252602c815260200180612180602c913960400191505060405180910390fd5b600560009054906101000a900460030b905090565b611ad7611cdc565b73ffffffffffffffffffffffffffffffffffffffff166000809054906101000a900473ffffffffffffffffffffffffffffffffffffffff1673ffffffffffffffffffffffffffffffffffffffff1614611b98576040517f08c379a00000000000000000000000000000000000000000000000000000000081526004018080602001828103825260208152602001807f4f776e61626c653a2063616c6c6572206973206e6f7420746865206f776e657281525060200191505060405180910390fd5b600073ffffffffffffffffffffffffffffffffffffffff168173ffffffffffffffffffffffffffffffffffffffff161415611c1e576040517f08c379a000000000000000000000000000000000000000000000000000000000815260040180806020018281038252602681526020018061215a6026913960400191505060405180910390fd5b8073ffffffffffffffffffffffffffffffffffffffff166000809054906101000a900473ffffffffffffffffffffffffffffffffffffffff1673ffffffffffffffffffffffffffffffffffffffff167f8be0079c531659141344cd1fd0a4f28419497f9722a3daafe3b4186f6b6457e060405160405180910390a3806000806101000a81548173ffffffffffffffffffffffffffffffffffffffff021916908373ffffffffffffffffffffffffffffffffffffffff16021790555050565b600033905090565b611d0c8160016000858152602001908152602001600020600001611e6b90919063ffffffff16565b15611d7457611d19611cdc565b73ffffffffffffffffffffffffffffffffffffffff168173ffffffffffffffffffffffffffffffffffffffff16837f2f8788117e7eff1d82e926ec794901d17c78024a50270940304540a733656f0d60405160405180910390a45b5050565b611da08160016000858152602001908152602001600020600001611e9b90919063ffffffff16565b15611e0857611dad611cdc565b73ffffffffffffffffffffffffffffffffffffffff168173ffffffffffffffffffffffffffffffffffffffff16837ff6391f5c32d9c69d2a47ea670b442974b53935d1edc7fd64eb21e047a839171b60405160405180910390a45b5050565b6000611e1b8360000183611ecb565b60001c905092915050565b6000611e4e836000018373ffffffffffffffffffffffffffffffffffffffff1660001b611f4e565b905092915050565b6000611e6482600001611f71565b9050919050565b6000611e93836000018373ffffffffffffffffffffffffffffffffffffffff1660001b611f82565b905092915050565b6000611ec3836000018373ffffffffffffffffffffffffffffffffffffffff1660001b611ff2565b905092915050565b600081836000018054905011611f2c576040517f08c379a00000000000000000000000000000000000000000000000000000000081526004018080602001828103825260228152602001806120db6022913960400191505060405180910390fd5b826000018281548110611f3b57fe5b9060005260206000200154905092915050565b600080836001016000848152602001908152602001600020541415905092915050565b600081600001805490509050919050565b6000611f8e8383611f4e565b611fe7578260000182908060018154018082558091505060019003906000526020600020016000909190919091505582600001805490508360010160008481526020019081526020016000208190555060019050611fec565b600090505b92915050565b600080836001016000848152602001908152602001600020549050600081146120ce576000600182039050600060018660000180549050039050600086600001828154811061203d57fe5b906000526020600020015490508087600001848154811061205a57fe5b906000526020600020018190555060018301876001016000838152602001908152602001600020819055508660000180548061209257fe5b600190038181906000526020600020016000905590558660010160008781526020019081526020016000206000905560019450505050506120d4565b60009150505b9291505056fe456e756d657261626c655365743a20696e646578206f7574206f6620626f756e6473416363657373436f6e74726f6c3a2073656e646572206d75737420626520616e2061646d696e20746f206772616e7453747564656e743a2063616c6c657220646f65736e27742068617665204d4f444946595f53434f52455f524f4c454f776e61626c653a206e6577206f776e657220697320746865207a65726f206164647265737353747564656e743a2063616c6c657220646f65736e2774206861766520524541445f53434f52455f524f4c45416363657373436f6e74726f6c3a2073656e646572206d75737420626520616e2061646d696e20746f207265766f6b65416363657373436f6e74726f6c3a2063616e206f6e6c792072656e6f756e636520726f6c657320666f722073656c6653747564656e743a2061646472657373206973206e6f7420612076616c696420636c617373726f6f6da2646970667358221220eb482cffcad4edcf7326803050faee3faacf9329ce094e2924c7f4878c27002364736f6c63430006060033416363657373436f6e74726f6c3a2073656e646572206d75737420626520616e2061646d696e20746f206772616e74416363657373436f6e74726f6c3a2063616e206f6e6c792072656e6f756e636520726f6c657320666f722073656c6660806040523480156200001157600080fd5b50604051620070d4380380620070d483398181016040526101208110156200003857600080fd5b810190808051906020019092919080519060200190929190805190602001909291908051906020019092919080519060200190929190805190602001909291908051906020019092919080519060200190929190805190602001909291905050506000620000ab620002de60201b60201c565b9050806000806101000a81548173ffffffffffffffffffffffffffffffffffffffff021916908373ffffffffffffffffffffffffffffffffffffffff1602179055508073ffffffffffffffffffffffffffffffffffffffff16600073ffffffffffffffffffffffffffffffffffffffff167f8be0079c531659141344cd1fd0a4f28419497f9722a3daafe3b4186f6b6457e060405160405180910390a3508860098190555082600160006101000a81548173ffffffffffffffffffffffffffffffffffffffff021916908373ffffffffffffffffffffffffffffffffffffffff1602179055506000600160146101000a81548160ff02191690831515021790555087600a60006101000a81548162ffffff021916908362ffffff16021790555086600a60036101000a81548162ffffff021916908362ffffff16021790555085600a60066101000a81548163ffffffff021916908360030b63ffffffff16021790555084600b8190555083600c819055506000600f60146101000a81548160ff02191690831515021790555081600e60006101000a81548173ffffffffffffffffffffffffffffffffffffffff021916908373ffffffffffffffffffffffffffffffffffffffff16021790555080600f60006101000a81548173ffffffffffffffffffffffffffffffffffffffff021916908373ffffffffffffffffffffffffffffffffffffffff160217905550620002c9620002e660201b60201c565b600d819055505050505050505050506200030e565b600033905090565b60007f52414e444f4d0000000000000000000000000000000000000000000000000000905090565b616db6806200031e6000396000f3fe60806040523480156200001157600080fd5b50600436106200022c5760003560e01c8063898855ed1162000135578063be22f54611620000bd578063e804f1641162000087578063e804f164146200070c578063f2fde38b1462000742578063f6be71d11462000789578063f745adfc14620007ba578063fc48258d14620007da576200022c565b8063be22f5461462000605578063db0735171462000651578063df55946a1462000675578063dfd78adc14620006a9576200022c565b8063aa055a4011620000ff578063aa055a4014620005bd578063ada02e1914620005c9578063adf45ef214620005d5578063bbe3b92614620005f9576200022c565b8063898855ed14620004eb5780638da5cb5b146200051c578063a46268a81462000568578063a6e77af1146200058c576200022c565b806369e527da11620001b957806376eada91116200018357806376eada9114620003f85780637c0260cb146200047f5780638155e977146200048b5780638646bcec14620004c1576200022c565b806369e527da14620002f157806369e7af43146200033d5780636e8055a714620003a0578063715018a614620003ec576200022c565b80633196002711620001fb5780633196002714620002a3578063431a16ef14620002af5780634c5e789314620002bb578063604d394314620002c7576200022c565b806306fdde0314620002315780630fb5a6b4146200025157806313c2bedc14620002715780631b9dbc601462000297575b600080fd5b6200023b620007fa565b6040518082815260200191505060405180910390f35b6200025b62000804565b6040518082815260200191505060405180910390f35b6200027b6200080e565b604051808260030b60030b815260200191505060405180910390f35b620002a162000825565b005b620002ad62000bf5565b005b620002b962000dd1565b005b620002c562000fa2565b005b620002d162001271565b604051808262ffffff1662ffffff16815260200191505060405180910390f35b620002fb6200128a565b604051808273ffffffffffffffffffffffffffffffffffffffff1673ffffffffffffffffffffffffffffffffffffffff16815260200191505060405180910390f35b62000347620012b0565b6040518080602001828103825283818151815260200191508051906020019060200280838360005b838110156200038c5780820151818401526020810190506200036f565b505050509050019250505060405180910390f35b620003aa6200140c565b604051808273ffffffffffffffffffffffffffffffffffffffff1673ffffffffffffffffffffffffffffffffffffffff16815260200191505060405180910390f35b620003f662001427565b005b6200043d600480360360208110156200041057600080fd5b81019080803573ffffffffffffffffffffffffffffffffffffffff169060200190929190505050620015b2565b604051808273ffffffffffffffffffffffffffffffffffffffff1673ffffffffffffffffffffffffffffffffffffffff16815260200191505060405180910390f35b62000489620016f3565b005b620004bf60048036036020811015620004a357600080fd5b81019080803562ffffff1690602001909291905050506200186f565b005b620004cb6200195d565b604051808262ffffff1662ffffff16815260200191505060405180910390f35b6200051a600480360360208110156200050357600080fd5b810190808035906020019092919050505062001976565b005b6200052662001a4c565b604051808273ffffffffffffffffffffffffffffffffffffffff1673ffffffffffffffffffffffffffffffffffffffff16815260200191505060405180910390f35b6200057262001a75565b604051808215151515815260200191505060405180910390f35b620005bb60048036036020811015620005a457600080fd5b810190808035906020019092919050505062001a88565b005b620005c762001b5e565b005b620005d362001e3b565b005b620005df620021ba565b604051808215151515815260200191505060405180910390f35b62000603620021c9565b005b6200060f62002556565b604051808273ffffffffffffffffffffffffffffffffffffffff1673ffffffffffffffffffffffffffffffffffffffff16815260200191505060405180910390f35b6200065b6200257c565b604051808215151515815260200191505060405180910390f35b620006a7600480360360208110156200068d57600080fd5b81019080803560030b906020019092919050505062002593565b005b620006b362002686565b6040518080602001828103825283818151815260200191508051906020019060200280838360005b83811015620006f8578082015181840152602081019050620006db565b505050509050019250505060405180910390f35b62000740600480360360208110156200072457600080fd5b81019080803562ffffff169060200190929190505050620027e2565b005b62000787600480360360208110156200075a57600080fd5b81019080803573ffffffffffffffffffffffffffffffffffffffff169060200190929190505050620028d0565b005b620007b860048036036020811015620007a157600080fd5b810190808035906020019092919050505062002ae2565b005b620007c462002bb8565b6040518082815260200191505060405180910390f35b620007e462002bc2565b6040518082815260200191505060405180910390f35b6000600954905090565b6000600c54905090565b6000600a60069054906101000a900460030b905090565b6200082f62001a4c565b73ffffffffffffffffffffffffffffffffffffffff166200084f62002c98565b73ffffffffffffffffffffffffffffffffffffffff161415620008be576040517f08c379a000000000000000000000000000000000000000000000000000000000815260040180806020018281038252602d81526020018062006c47602d913960400191505060405180910390fd5b600160009054906101000a900473ffffffffffffffffffffffffffffffffffffffff1673ffffffffffffffffffffffffffffffffffffffff166316ded1ce6200090662002c98565b6040518263ffffffff1660e01b8152600401808273ffffffffffffffffffffffffffffffffffffffff1673ffffffffffffffffffffffffffffffffffffffff16815260200191505060206040518083038186803b1580156200096757600080fd5b505afa1580156200097c573d6000803e3d6000fd5b505050506040513d60208110156200099357600080fd5b8101908080519060200190929190505050620009fb576040517f08c379a000000000000000000000000000000000000000000000000000000000815260040180806020018281038252602481526020018062006d336024913960400191505060405180910390fd5b600160149054906101000a900460ff1662000a7e576040517f08c379a000000000000000000000000000000000000000000000000000000000815260040180806020018281038252601e8152602001807f436c617373726f6f6d3a206170706c69636174696f6e7320636c6f736564000081525060200191505060405180910390fd5b600062000a8a62002c98565b9050600a60069054906101000a900460030b60030b8173ffffffffffffffffffffffffffffffffffffffff1663efedc6696040518163ffffffff1660e01b815260040160206040518083038186803b15801562000ae657600080fd5b505afa15801562000afb573d6000803e3d6000fd5b505050506040513d602081101562000b1257600080fd5b810190808051906020019092919050505060030b121562000b7f576040517f08c379a000000000000000000000000000000000000000000000000000000000815260040180806020018281038252602c81526020018062006bb4602c913960400191505060405180910390fd5b600062000b8c8262002ca0565b90506002819080600181540180825580915050600190039060005260206000200160009091909190916101000a81548173ffffffffffffffffffffffffffffffffffffffff021916908373ffffffffffffffffffffffffffffffffffffffff1602179055505050565b62000bff62002c98565b73ffffffffffffffffffffffffffffffffffffffff166000809054906101000a900473ffffffffffffffffffffffffffffffffffffffff1673ffffffffffffffffffffffffffffffffffffffff161462000cc1576040517f08c379a00000000000000000000000000000000000000000000000000000000081526004018080602001828103825260208152602001807f4f776e61626c653a2063616c6c6572206973206e6f7420746865206f776e657281525060200191505060405180910390fd5b600160149054906101000a900460ff161562000d29576040517f08c379a000000000000000000000000000000000000000000000000000000000815260040180806020018281038252602a81526020018062006d57602a913960400191505060405180910390fd5b60006002805490501462000d89576040517f08c379a000000000000000000000000000000000000000000000000000000000815260040180806020018281038252602281526020018062006c256022913960400191505060405180910390fd5b60018060146101000a81548160ff0219169083151502179055507fed7fc56e5f714753b4e32ad38ecdac1df8e9cf07b3ae93031020b5452df875db60405160405180910390a1565b62000ddb62002c98565b73ffffffffffffffffffffffffffffffffffffffff166000809054906101000a900473ffffffffffffffffffffffffffffffffffffffff1673ffffffffffffffffffffffffffffffffffffffff161462000e9d576040517f08c379a00000000000000000000000000000000000000000000000000000000081526004018080602001828103825260208152602001807f4f776e61626c653a2063616c6c6572206973206e6f7420746865206f776e657281525060200191505060405180910390fd5b42600754111562000efa576040517f08c379a000000000000000000000000000000000000000000000000000000000815260040180806020018281038252602481526020018062006c956024913960400191505060405180910390fd5b60006003805490501162000f76576040517f08c379a000000000000000000000000000000000000000000000000000000000815260040180806020018281038252601a8152602001807f436c617373726f6f6d3a206e6f206170706c69636174696f6e7300000000000081525060200191505060405180910390fd5b62000f8062002ee9565b60088190555060018060156101000a81548160ff021916908315150217905550565b62000fac62002c98565b73ffffffffffffffffffffffffffffffffffffffff166000809054906101000a900473ffffffffffffffffffffffffffffffffffffffff1673ffffffffffffffffffffffffffffffffffffffff16146200106e576040517f08c379a00000000000000000000000000000000000000000000000000000000081526004018080602001828103825260208152602001807f4f776e61626c653a2063616c6c6572206973206e6f7420746865206f776e657281525060200191505060405180910390fd5b600e60009054906101000a900473ffffffffffffffffffffffffffffffffffffffff1673ffffffffffffffffffffffffffffffffffffffff166323b872dd30620010b762001a4c565b600e60009054906101000a900473ffffffffffffffffffffffffffffffffffffffff1673ffffffffffffffffffffffffffffffffffffffff166370a08231306040518263ffffffff1660e01b8152600401808273ffffffffffffffffffffffffffffffffffffffff1673ffffffffffffffffffffffffffffffffffffffff16815260200191505060206040518083038186803b1580156200115757600080fd5b505afa1580156200116c573d6000803e3d6000fd5b505050506040513d60208110156200118357600080fd5b81019080805190602001909291905050506040518463ffffffff1660e01b8152600401808473ffffffffffffffffffffffffffffffffffffffff1673ffffffffffffffffffffffffffffffffffffffff1681526020018373ffffffffffffffffffffffffffffffffffffffff1673ffffffffffffffffffffffffffffffffffffffff1681526020018281526020019350505050602060405180830381600087803b1580156200123157600080fd5b505af115801562001246573d6000803e3d6000fd5b505050506040513d60208110156200125d57600080fd5b810190808051906020019092919050505050565b6000600a60039054906101000a900462ffffff16905090565b600f60009054906101000a900473ffffffffffffffffffffffffffffffffffffffff1681565b6060620012bc62002c98565b73ffffffffffffffffffffffffffffffffffffffff166000809054906101000a900473ffffffffffffffffffffffffffffffffffffffff1673ffffffffffffffffffffffffffffffffffffffff16146200137e576040517f08c379a00000000000000000000000000000000000000000000000000000000081526004018080602001828103825260208152602001807f4f776e61626c653a2063616c6c6572206973206e6f7420746865206f776e657281525060200191505060405180910390fd5b60058054806020026020016040519081016040528092919081815260200182805480156200140257602002820191906000526020600020905b8160009054906101000a900473ffffffffffffffffffffffffffffffffffffffff1673ffffffffffffffffffffffffffffffffffffffff1681526020019060010190808311620013b7575b5050505050905090565b6000620014226200141c62002c98565b620015b2565b905090565b6200143162002c98565b73ffffffffffffffffffffffffffffffffffffffff166000809054906101000a900473ffffffffffffffffffffffffffffffffffffffff1673ffffffffffffffffffffffffffffffffffffffff1614620014f3576040517f08c379a00000000000000000000000000000000000000000000000000000000081526004018080602001828103825260208152602001807f4f776e61626c653a2063616c6c6572206973206e6f7420746865206f776e657281525060200191505060405180910390fd5b600073ffffffffffffffffffffffffffffffffffffffff166000809054906101000a900473ffffffffffffffffffffffffffffffffffffffff1673ffffffffffffffffffffffffffffffffffffffff167f8be0079c531659141344cd1fd0a4f28419497f9722a3daafe3b4186f6b6457e060405160405180910390a360008060006101000a81548173ffffffffffffffffffffffffffffffffffffffff021916908373ffffffffffffffffffffffffffffffffffffffff160217905550565b6000620015be62002c98565b73ffffffffffffffffffffffffffffffffffffffff168273ffffffffffffffffffffffffffffffffffffffff161480620016355750620015fd62001a4c565b73ffffffffffffffffffffffffffffffffffffffff166200161d62002c98565b73ffffffffffffffffffffffffffffffffffffffff16145b6200168c576040517f08c379a000000000000000000000000000000000000000000000000000000000815260040180806020018281038252602181526020018062006c046021913960400191505060405180910390fd5b600460008373ffffffffffffffffffffffffffffffffffffffff1673ffffffffffffffffffffffffffffffffffffffff16815260200190815260200160002060009054906101000a900473ffffffffffffffffffffffffffffffffffffffff169050919050565b620016fd62002c98565b73ffffffffffffffffffffffffffffffffffffffff166000809054906101000a900473ffffffffffffffffffffffffffffffffffffffff1673ffffffffffffffffffffffffffffffffffffffff1614620017bf576040517f08c379a00000000000000000000000000000000000000000000000000000000081526004018080602001828103825260208152602001807f4f776e61626c653a2063616c6c6572206973206e6f7420746865206f776e657281525060200191505060405180910390fd5b600160149054906101000a900460ff1662001826576040517f08c379a000000000000000000000000000000000000000000000000000000000815260040180806020018281038252602a81526020018062006d09602a913960400191505060405180910390fd5b6000600160146101000a81548160ff0219169083151502179055507f67ccc69b776bd9c78655440e78d4efa80a5630c9ab0d7b487930d75be9b8d80b60405160405180910390a1565b6200187962002c98565b73ffffffffffffffffffffffffffffffffffffffff166000809054906101000a900473ffffffffffffffffffffffffffffffffffffffff1673ffffffffffffffffffffffffffffffffffffffff16146200193b576040517f08c379a00000000000000000000000000000000000000000000000000000000081526004018080602001828103825260208152602001807f4f776e61626c653a2063616c6c6572206973206e6f7420746865206f776e657281525060200191505060405180910390fd5b80600a60006101000a81548162ffffff021916908362ffffff16021790555050565b6000600a60009054906101000a900462ffffff16905090565b6200198062002c98565b73ffffffffffffffffffffffffffffffffffffffff166000809054906101000a900473ffffffffffffffffffffffffffffffffffffffff1673ffffffffffffffffffffffffffffffffffffffff161462001a42576040517f08c379a00000000000000000000000000000000000000000000000000000000081526004018080602001828103825260208152602001807f4f776e61626c653a2063616c6c6572206973206e6f7420746865206f776e657281525060200191505060405180910390fd5b8060098190555050565b60008060009054906101000a900473ffffffffffffffffffffffffffffffffffffffff16905090565b600f60149054906101000a900460ff1681565b62001a9262002c98565b73ffffffffffffffffffffffffffffffffffffffff166000809054906101000a900473ffffffffffffffffffffffffffffffffffffffff1673ffffffffffffffffffffffffffffffffffffffff161462001b54576040517f08c379a00000000000000000000000000000000000000000000000000000000081526004018080602001828103825260208152602001807f4f776e61626c653a2063616c6c6572206973206e6f7420746865206f776e657281525060200191505060405180910390fd5b80600b8190555050565b62001b6862002c98565b73ffffffffffffffffffffffffffffffffffffffff166000809054906101000a900473ffffffffffffffffffffffffffffffffffffffff1673ffffffffffffffffffffffffffffffffffffffff161462001c2a576040517f08c379a00000000000000000000000000000000000000000000000000000000081526004018080602001828103825260208152602001807f4f776e61626c653a2063616c6c6572206973206e6f7420746865206f776e657281525060200191505060405180910390fd5b600160159054906101000a900460ff1662001cad576040517f08c379a000000000000000000000000000000000000000000000000000000000815260040180806020018281038252601e8152602001807f436c617373726f6f6d3a20636f75727365206e6f742066696e6973686564000081525060200191505060405180910390fd5b600e60009054906101000a900473ffffffffffffffffffffffffffffffffffffffff1673ffffffffffffffffffffffffffffffffffffffff166370a08231306040518263ffffffff1660e01b8152600401808273ffffffffffffffffffffffffffffffffffffffff1673ffffffffffffffffffffffffffffffffffffffff16815260200191505060206040518083038186803b15801562001d4d57600080fd5b505afa15801562001d62573d6000803e3d6000fd5b505050506040513d602081101562001d7957600080fd5b8101908080519060200190929190505050600854111562001de6576040517f08c379a000000000000000000000000000000000000000000000000000000000815260040180806020018281038252602481526020018062006be06024913960400191505060405180910390fd5b60008062001df362003088565b915091506000606062001e078484620032f9565b9150915062001e168162003b85565b62001e218262003cfe565b62001e2b62003e0b565b62001e3562004507565b50505050565b62001e4562002c98565b73ffffffffffffffffffffffffffffffffffffffff166000809054906101000a900473ffffffffffffffffffffffffffffffffffffffff1673ffffffffffffffffffffffffffffffffffffffff161462001f07576040517f08c379a00000000000000000000000000000000000000000000000000000000081526004018080602001828103825260208152602001807f4f776e61626c653a2063616c6c6572206973206e6f7420746865206f776e657281525060200191505060405180910390fd5b6000600e60009054906101000a900473ffffffffffffffffffffffffffffffffffffffff1673ffffffffffffffffffffffffffffffffffffffff166370a08231306040518263ffffffff1660e01b8152600401808273ffffffffffffffffffffffffffffffffffffffff1673ffffffffffffffffffffffffffffffffffffffff16815260200191505060206040518083038186803b15801562001fa957600080fd5b505afa15801562001fbe573d6000803e3d6000fd5b505050506040513d602081101562001fd557600080fd5b810190808051906020019092919050505090506000811162001ff85750620021b8565b600e60009054906101000a900473ffffffffffffffffffffffffffffffffffffffff1673ffffffffffffffffffffffffffffffffffffffff1663095ea7b3600f60009054906101000a900473ffffffffffffffffffffffffffffffffffffffff16836040518363ffffffff1660e01b8152600401808373ffffffffffffffffffffffffffffffffffffffff1673ffffffffffffffffffffffffffffffffffffffff16815260200182815260200192505050602060405180830381600087803b158015620020c457600080fd5b505af1158015620020d9573d6000803e3d6000fd5b505050506040513d6020811015620020f057600080fd5b810190808051906020019092919050505050600f60009054906101000a900473ffffffffffffffffffffffffffffffffffffffff1673ffffffffffffffffffffffffffffffffffffffff1663a0712d68826040518263ffffffff1660e01b815260040180828152602001915050602060405180830381600087803b1580156200217857600080fd5b505af11580156200218d573d6000803e3d6000fd5b505050506040513d6020811015620021a457600080fd5b810190808051906020019092919050505050505b565b60008060038054905011905090565b620021d362002c98565b73ffffffffffffffffffffffffffffffffffffffff166000809054906101000a900473ffffffffffffffffffffffffffffffffffffffff1673ffffffffffffffffffffffffffffffffffffffff161462002295576040517f08c379a00000000000000000000000000000000000000000000000000000000081526004018080602001828103825260208152602001807f4f776e61626c653a2063616c6c6572206973206e6f7420746865206f776e657281525060200191505060405180910390fd5b600160149054906101000a900460ff1615620022fd576040517f08c379a000000000000000000000000000000000000000000000000000000000815260040180806020018281038252602681526020018062006cb96026913960400191505060405180910390fd5b6000600e60009054906101000a900473ffffffffffffffffffffffffffffffffffffffff1673ffffffffffffffffffffffffffffffffffffffff166370a08231306040518263ffffffff1660e01b8152600401808273ffffffffffffffffffffffffffffffffffffffff1673ffffffffffffffffffffffffffffffffffffffff16815260200191505060206040518083038186803b1580156200239f57600080fd5b505afa158015620023b4573d6000803e3d6000fd5b505050506040513d6020811015620023cb57600080fd5b81019080805190602001909291905050501462002434576040517f08c379a000000000000000000000000000000000000000000000000000000000815260040180806020018281038252602a81526020018062006cdf602a913960400191505060405180910390fd5b6200243e62004598565b600067ffffffffffffffff811180156200245757600080fd5b50604051908082528060200260200182016040528015620024875781602001602082028036833780820191505090505b50600290805190602001906200249f92919062004b93565b506000600380549050116200251c576040517f08c379a000000000000000000000000000000000000000000000000000000000815260040180806020018281038252601f8152602001807f436c617373726f6f6d3a206e6f207265616479206170706c69636174696f6e0081525060200191505060405180910390fd5b6001600f60146101000a81548160ff0219169083151502179055506200254e600c54426200485890919063ffffffff16565b600781905550565b600e60009054906101000a900473ffffffffffffffffffffffffffffffffffffffff1681565b6000600160149054906101000a900460ff16905090565b6200259d62002c98565b73ffffffffffffffffffffffffffffffffffffffff166000809054906101000a900473ffffffffffffffffffffffffffffffffffffffff1673ffffffffffffffffffffffffffffffffffffffff16146200265f576040517f08c379a00000000000000000000000000000000000000000000000000000000081526004018080602001828103825260208152602001807f4f776e61626c653a2063616c6c6572206973206e6f7420746865206f776e657281525060200191505060405180910390fd5b80600a60066101000a81548163ffffffff021916908360030b63ffffffff16021790555050565b60606200269262002c98565b73ffffffffffffffffffffffffffffffffffffffff166000809054906101000a900473ffffffffffffffffffffffffffffffffffffffff1673ffffffffffffffffffffffffffffffffffffffff161462002754576040517f08c379a00000000000000000000000000000000000000000000000000000000081526004018080602001828103825260208152602001807f4f776e61626c653a2063616c6c6572206973206e6f7420746865206f776e657281525060200191505060405180910390fd5b6006805480602002602001604051908101604052809291908181526020018280548015620027d857602002820191906000526020600020905b8160009054906101000a900473ffffffffffffffffffffffffffffffffffffffff1673ffffffffffffffffffffffffffffffffffffffff16815260200190600101908083116200278d575b5050505050905090565b620027ec62002c98565b73ffffffffffffffffffffffffffffffffffffffff166000809054906101000a900473ffffffffffffffffffffffffffffffffffffffff1673ffffffffffffffffffffffffffffffffffffffff1614620028ae576040517f08c379a00000000000000000000000000000000000000000000000000000000081526004018080602001828103825260208152602001807f4f776e61626c653a2063616c6c6572206973206e6f7420746865206f776e657281525060200191505060405180910390fd5b80600a60036101000a81548162ffffff021916908362ffffff16021790555050565b620028da62002c98565b73ffffffffffffffffffffffffffffffffffffffff166000809054906101000a900473ffffffffffffffffffffffffffffffffffffffff1673ffffffffffffffffffffffffffffffffffffffff16146200299c576040517f08c379a00000000000000000000000000000000000000000000000000000000081526004018080602001828103825260208152602001807f4f776e61626c653a2063616c6c6572206973206e6f7420746865206f776e657281525060200191505060405180910390fd5b600073ffffffffffffffffffffffffffffffffffffffff168173ffffffffffffffffffffffffffffffffffffffff16141562002a24576040517f08c379a000000000000000000000000000000000000000000000000000000000815260040180806020018281038252602681526020018062006b8e6026913960400191505060405180910390fd5b8073ffffffffffffffffffffffffffffffffffffffff166000809054906101000a900473ffffffffffffffffffffffffffffffffffffffff1673ffffffffffffffffffffffffffffffffffffffff167f8be0079c531659141344cd1fd0a4f28419497f9722a3daafe3b4186f6b6457e060405160405180910390a3806000806101000a81548173ffffffffffffffffffffffffffffffffffffffff021916908373ffffffffffffffffffffffffffffffffffffffff16021790555050565b62002aec62002c98565b73ffffffffffffffffffffffffffffffffffffffff166000809054906101000a900473ffffffffffffffffffffffffffffffffffffffff1673ffffffffffffffffffffffffffffffffffffffff161462002bae576040517f08c379a00000000000000000000000000000000000000000000000000000000081526004018080602001828103825260208152602001807f4f776e61626c653a2063616c6c6572206973206e6f7420746865206f776e657281525060200191505060405180910390fd5b80600c8190555050565b6000600b54905090565b600062002bce62002c98565b73ffffffffffffffffffffffffffffffffffffffff166000809054906101000a900473ffffffffffffffffffffffffffffffffffffffff1673ffffffffffffffffffffffffffffffffffffffff161462002c90576040517f08c379a00000000000000000000000000000000000000000000000000000000081526004018080602001828103825260208152602001807f4f776e61626c653a2063616c6c6572206973206e6f7420746865206f776e657281525060200191505060405180910390fd5b600d54905090565b600033905090565b6000808230600e60009054906101000a900473ffffffffffffffffffffffffffffffffffffffff16600d5460405162002cd99062004c22565b808573ffffffffffffffffffffffffffffffffffffffff1673ffffffffffffffffffffffffffffffffffffffff1681526020018473ffffffffffffffffffffffffffffffffffffffff1673ffffffffffffffffffffffffffffffffffffffff1681526020018373ffffffffffffffffffffffffffffffffffffffff1673ffffffffffffffffffffffffffffffffffffffff168152602001828152602001945050505050604051809103906000f08015801562002d99573d6000803e3d6000fd5b50905080600460008573ffffffffffffffffffffffffffffffffffffffff1673ffffffffffffffffffffffffffffffffffffffff16815260200190815260200160002060006101000a81548173ffffffffffffffffffffffffffffffffffffffff021916908373ffffffffffffffffffffffffffffffffffffffff1602179055506005839080600181540180825580915050600190039060005260206000200160009091909190916101000a81548173ffffffffffffffffffffffffffffffffffffffff021916908373ffffffffffffffffffffffffffffffffffffffff1602179055506006819080600181540180825580915050600190039060005260206000200160009091909190916101000a81548173ffffffffffffffffffffffffffffffffffffffff021916908373ffffffffffffffffffffffffffffffffffffffff16021790555080915050919050565b600080600f60009054906101000a900473ffffffffffffffffffffffffffffffffffffffff1673ffffffffffffffffffffffffffffffffffffffff16633af9e669306040518263ffffffff1660e01b8152600401808273ffffffffffffffffffffffffffffffffffffffff1673ffffffffffffffffffffffffffffffffffffffff168152602001915050602060405180830381600087803b15801562002f8e57600080fd5b505af115801562002fa3573d6000803e3d6000fd5b505050506040513d602081101562002fba57600080fd5b81019080805190602001909291905050509050600f60009054906101000a900473ffffffffffffffffffffffffffffffffffffffff1673ffffffffffffffffffffffffffffffffffffffff1663852a12e3826040518263ffffffff1660e01b815260040180828152602001915050602060405180830381600087803b1580156200304357600080fd5b505af115801562003058573d6000803e3d6000fd5b505050506040513d60208110156200306f57600080fd5b8101908080519060200190929190505050508091505090565b6000806000809050600080905060008090505b600380549050811015620032ec5760038181548110620030b757fe5b9060005260206000200160009054906101000a900473ffffffffffffffffffffffffffffffffffffffff1673ffffffffffffffffffffffffffffffffffffffff1663289cf0d26040518163ffffffff1660e01b8152600401600060405180830381600087803b1580156200312a57600080fd5b505af11580156200313f573d6000803e3d6000fd5b5050505060038082815481106200315257fe5b9060005260206000200160009054906101000a900473ffffffffffffffffffffffffffffffffffffffff1673ffffffffffffffffffffffffffffffffffffffff16636587b61e6040518163ffffffff1660e01b815260040160206040518083038186803b158015620031c357600080fd5b505afa158015620031d8573d6000803e3d6000fd5b505050506040513d6020811015620031ef57600080fd5b81019080805190602001909291905050501415620032105782806001019350505b6005600382815481106200322057fe5b9060005260206000200160009054906101000a900473ffffffffffffffffffffffffffffffffffffffff1673ffffffffffffffffffffffffffffffffffffffff16636587b61e6040518163ffffffff1660e01b815260040160206040518083038186803b1580156200329157600080fd5b505afa158015620032a6573d6000803e3d6000fd5b505050506040513d6020811015620032bd57600080fd5b81019080805190602001909291905050501415620032de5781806001019250505b80806001019150506200309b565b5081819350935050509091565b60006060600060038054905090506000620033366200332483600b54620048e190919063ffffffff16565b6008546200496c90919063ffffffff16565b905060006200337e620f42406200336f600a60009054906101000a900462ffffff1662ffffff16600b54620048e190919063ffffffff16565b620049b890919063ffffffff16565b905060006200339982600b546200496c90919063ffffffff16565b90506000620033c685620033b78b87620048e190919063ffffffff16565b620049b890919063ffffffff16565b905060006200340c620f4240620033fd600a60039054906101000a900462ffffff1662ffffff1685620048e190919063ffffffff16565b620049b890919063ffffffff16565b90506000620034398b6200342a84896200496c90919063ffffffff16565b620049b890919063ffffffff16565b905060608767ffffffffffffffff811180156200345557600080fd5b50604051908082528060200260200182016040528015620034855781602001602082028036833780820191505090505b50905060008090505b8881101562003947576003808281548110620034a657fe5b9060005260206000200160009054906101000a900473ffffffffffffffffffffffffffffffffffffffff1673ffffffffffffffffffffffffffffffffffffffff16636587b61e6040518163ffffffff1660e01b815260040160206040518083038186803b1580156200351757600080fd5b505afa1580156200352c573d6000803e3d6000fd5b505050506040513d60208110156200354357600080fd5b810190808051906020019092919050505014156200363757600381815481106200356957fe5b9060005260206000200160009054906101000a900473ffffffffffffffffffffffffffffffffffffffff1673ffffffffffffffffffffffffffffffffffffffff16637db9abaf87856040518363ffffffff1660e01b81526004018083815260200182815260200192505050600060405180830381600087803b158015620035ef57600080fd5b505af115801562003604573d6000803e3d6000fd5b505050506200361d83876200485890919063ffffffff16565b8282815181106200362a57fe5b6020026020010181815250505b6004600382815481106200364757fe5b9060005260206000200160009054906101000a900473ffffffffffffffffffffffffffffffffffffffff1673ffffffffffffffffffffffffffffffffffffffff16636587b61e6040518163ffffffff1660e01b815260040160206040518083038186803b158015620036b857600080fd5b505afa158015620036cd573d6000803e3d6000fd5b505050506040513d6020811015620036e457600080fd5b81019080805190602001909291905050501415620037c557600381815481106200370a57fe5b9060005260206000200160009054906101000a900473ffffffffffffffffffffffffffffffffffffffff1673ffffffffffffffffffffffffffffffffffffffff16637db9abaf8760006040518363ffffffff1660e01b81526004018083815260200182815260200192505050600060405180830381600087803b1580156200379157600080fd5b505af1158015620037a6573d6000803e3d6000fd5b5050505085828281518110620037b857fe5b6020026020010181815250505b600560038281548110620037d557fe5b9060005260206000200160009054906101000a900473ffffffffffffffffffffffffffffffffffffffff1673ffffffffffffffffffffffffffffffffffffffff16636587b61e6040518163ffffffff1660e01b815260040160206040518083038186803b1580156200384657600080fd5b505afa1580156200385b573d6000803e3d6000fd5b505050506040513d60208110156200387257600080fd5b810190808051906020019092919050505014156200393957600381815481106200389857fe5b9060005260206000200160009054906101000a900473ffffffffffffffffffffffffffffffffffffffff1673ffffffffffffffffffffffffffffffffffffffff16637db9abaf6000806040518363ffffffff1660e01b81526004018083815260200182815260200192505050600060405180830381600087803b1580156200391f57600080fd5b505af115801562003934573d6000803e3d6000fd5b505050505b80806001019150506200348e565b50600062003961600b548d620048e190919063ffffffff16565b9050600062003a3b620f424062003a2c600160009054906101000a900473ffffffffffffffffffffffffffffffffffffffff1673ffffffffffffffffffffffffffffffffffffffff1663e6fd604c6040518163ffffffff1660e01b815260040160206040518083038186803b158015620039da57600080fd5b505afa158015620039ef573d6000803e3d6000fd5b505050506040513d602081101562003a0657600080fd5b810190808051906020019092919050505062ffffff1688620048e190919063ffffffff16565b620049b890919063ffffffff16565b9050600062003a548e8c6200496c90919063ffffffff16565b9050600062003b42620f424062003b33600160009054906101000a900473ffffffffffffffffffffffffffffffffffffffff1673ffffffffffffffffffffffffffffffffffffffff1663e6fd604c6040518163ffffffff1660e01b815260040160206040518083038186803b15801562003acd57600080fd5b505afa15801562003ae2573d6000803e3d6000fd5b505050506040513d602081101562003af957600080fd5b810190808051906020019092919050505062ffffff1662003b24868f620048e190919063ffffffff16565b620048e190919063ffffffff16565b620049b890919063ffffffff16565b905062003b6d8162003b5e85876200485890919063ffffffff16565b6200485890919063ffffffff16565b859d509d505050505050505050505050509250929050565b60008090505b60038054905081101562003cfa57600082828151811062003ba857fe5b6020026020010151111562003cec57600e60009054906101000a900473ffffffffffffffffffffffffffffffffffffffff1673ffffffffffffffffffffffffffffffffffffffff1663095ea7b36003838154811062003c0357fe5b9060005260206000200160009054906101000a900473ffffffffffffffffffffffffffffffffffffffff1684848151811062003c3b57fe5b60200260200101516040518363ffffffff1660e01b8152600401808373ffffffffffffffffffffffffffffffffffffffff1673ffffffffffffffffffffffffffffffffffffffff16815260200182815260200192505050602060405180830381600087803b15801562003cad57600080fd5b505af115801562003cc2573d6000803e3d6000fd5b505050506040513d602081101562003cd957600080fd5b8101908080519060200190929190505050505b808060010191505062003b8b565b5050565b600e60009054906101000a900473ffffffffffffffffffffffffffffffffffffffff1673ffffffffffffffffffffffffffffffffffffffff1663a9059cbb600160009054906101000a900473ffffffffffffffffffffffffffffffffffffffff16836040518363ffffffff1660e01b8152600401808373ffffffffffffffffffffffffffffffffffffffff1673ffffffffffffffffffffffffffffffffffffffff16815260200182815260200192505050602060405180830381600087803b15801562003dca57600080fd5b505af115801562003ddf573d6000803e3d6000fd5b505050506040513d602081101562003df657600080fd5b81019080805190602001909291905050505050565b60008090505b6003805490508110156200450457600380828154811062003e2e57fe5b9060005260206000200160009054906101000a900473ffffffffffffffffffffffffffffffffffffffff1673ffffffffffffffffffffffffffffffffffffffff16636587b61e6040518163ffffffff1660e01b815260040160206040518083038186803b15801562003e9f57600080fd5b505afa15801562003eb4573d6000803e3d6000fd5b505050506040513d602081101562003ecb57600080fd5b810190808051906020019092919050505014156200406657600160009054906101000a900473ffffffffffffffffffffffffffffffffffffffff1673ffffffffffffffffffffffffffffffffffffffff166387bfe1886003838154811062003f2f57fe5b9060005260206000200160009054906101000a900473ffffffffffffffffffffffffffffffffffffffff1673ffffffffffffffffffffffffffffffffffffffff1663b8f31a816040518163ffffffff1660e01b815260040160206040518083038186803b15801562003fa057600080fd5b505afa15801562003fb5573d6000803e3d6000fd5b505050506040513d602081101562003fcc57600080fd5b810190808051906020019092919050505060016040518363ffffffff1660e01b8152600401808373ffffffffffffffffffffffffffffffffffffffff1673ffffffffffffffffffffffffffffffffffffffff1681526020018260030b815260200192505050600060405180830381600087803b1580156200404c57600080fd5b505af115801562004061573d6000803e3d6000fd5b505050505b6004600382815481106200407657fe5b9060005260206000200160009054906101000a900473ffffffffffffffffffffffffffffffffffffffff1673ffffffffffffffffffffffffffffffffffffffff16636587b61e6040518163ffffffff1660e01b815260040160206040518083038186803b158015620040e757600080fd5b505afa158015620040fc573d6000803e3d6000fd5b505050506040513d60208110156200411357600080fd5b81019080805190602001909291905050501415620042ae57600160009054906101000a900473ffffffffffffffffffffffffffffffffffffffff1673ffffffffffffffffffffffffffffffffffffffff1663ff5d8f63600383815481106200417757fe5b9060005260206000200160009054906101000a900473ffffffffffffffffffffffffffffffffffffffff1673ffffffffffffffffffffffffffffffffffffffff1663b8f31a816040518163ffffffff1660e01b815260040160206040518083038186803b158015620041e857600080fd5b505afa158015620041fd573d6000803e3d6000fd5b505050506040513d60208110156200421457600080fd5b810190808051906020019092919050505060016040518363ffffffff1660e01b8152600401808373ffffffffffffffffffffffffffffffffffffffff1673ffffffffffffffffffffffffffffffffffffffff1681526020018260030b815260200192505050600060405180830381600087803b1580156200429457600080fd5b505af1158015620042a9573d6000803e3d6000fd5b505050505b600560038281548110620042be57fe5b9060005260206000200160009054906101000a900473ffffffffffffffffffffffffffffffffffffffff1673ffffffffffffffffffffffffffffffffffffffff16636587b61e6040518163ffffffff1660e01b815260040160206040518083038186803b1580156200432f57600080fd5b505afa15801562004344573d6000803e3d6000fd5b505050506040513d60208110156200435b57600080fd5b81019080805190602001909291905050501415620044f657600160009054906101000a900473ffffffffffffffffffffffffffffffffffffffff1673ffffffffffffffffffffffffffffffffffffffff1663ff5d8f6360038381548110620043bf57fe5b9060005260206000200160009054906101000a900473ffffffffffffffffffffffffffffffffffffffff1673ffffffffffffffffffffffffffffffffffffffff1663b8f31a816040518163ffffffff1660e01b815260040160206040518083038186803b1580156200443057600080fd5b505afa15801562004445573d6000803e3d6000fd5b505050506040513d60208110156200445c57600080fd5b810190808051906020019092919050505060026040518363ffffffff1660e01b8152600401808373ffffffffffffffffffffffffffffffffffffffff1673ffffffffffffffffffffffffffffffffffffffff1681526020018260030b815260200192505050600060405180830381600087803b158015620044dc57600080fd5b505af1158015620044f1573d6000803e3d6000fd5b505050505b808060010191505062003e11565b50565b600067ffffffffffffffff811180156200452057600080fd5b50604051908082528060200260200182016040528015620045505781602001602082028036833780820191505090505b50600390805190602001906200456892919062004b93565b506200457362000fa2565b60006008819055506000600160156101000a81548160ff021916908315150217905550565b60008090505b6002805490508110156200485557600160028281548110620045bc57fe5b9060005260206000200160009054906101000a900473ffffffffffffffffffffffffffffffffffffffff1673ffffffffffffffffffffffffffffffffffffffff16636587b61e6040518163ffffffff1660e01b815260040160206040518083038186803b1580156200462d57600080fd5b505afa15801562004642573d6000803e3d6000fd5b505050506040513d60208110156200465957600080fd5b81019080805190602001909291905050501415620047ac57600281815481106200467f57fe5b9060005260206000200160009054906101000a900473ffffffffffffffffffffffffffffffffffffffff1673ffffffffffffffffffffffffffffffffffffffff16630f15f4c06040518163ffffffff1660e01b8152600401600060405180830381600087803b158015620046f257600080fd5b505af115801562004707573d6000803e3d6000fd5b505050506003600282815481106200471b57fe5b9060005260206000200160009054906101000a900473ffffffffffffffffffffffffffffffffffffffff169080600181540180825580915050600190039060005260206000200160009091909190916101000a81548173ffffffffffffffffffffffffffffffffffffffff021916908373ffffffffffffffffffffffffffffffffffffffff16021790555062004847565b60028181548110620047ba57fe5b9060005260206000200160009054906101000a900473ffffffffffffffffffffffffffffffffffffffff1673ffffffffffffffffffffffffffffffffffffffff166379599f966040518163ffffffff1660e01b8152600401600060405180830381600087803b1580156200482d57600080fd5b505af115801562004842573d6000803e3d6000fd5b505050505b80806001019150506200459e565b50565b600080828401905083811015620048d7576040517f08c379a000000000000000000000000000000000000000000000000000000000815260040180806020018281038252601b8152602001807f536166654d6174683a206164646974696f6e206f766572666c6f77000000000081525060200191505060405180910390fd5b8091505092915050565b600080831415620048f6576000905062004966565b60008284029050828482816200490857fe5b041462004961576040517f08c379a000000000000000000000000000000000000000000000000000000000815260040180806020018281038252602181526020018062006c746021913960400191505060405180910390fd5b809150505b92915050565b6000620049b083836040518060400160405280601e81526020017f536166654d6174683a207375627472616374696f6e206f766572666c6f77000081525062004a04565b905092915050565b6000620049fc83836040518060400160405280601a81526020017f536166654d6174683a206469766973696f6e206279207a65726f00000000000081525062004ac8565b905092915050565b600083831115829062004ab5576040517f08c379a00000000000000000000000000000000000000000000000000000000081526004018080602001828103825283818151815260200191508051906020019080838360005b8381101562004a7957808201518184015260208101905062004a5c565b50505050905090810190601f16801562004aa75780820380516001836020036101000a031916815260200191505b509250505060405180910390fd5b5060008385039050809150509392505050565b6000808311829062004b78576040517f08c379a00000000000000000000000000000000000000000000000000000000081526004018080602001828103825283818151815260200191508051906020019080838360005b8381101562004b3c57808201518184015260208101905062004b1f565b50505050905090810190601f16801562004b6a5780820380516001836020036101000a031916815260200191505b509250505060405180910390fd5b50600083858162004b8557fe5b049050809150509392505050565b82805482825590600052602060002090810192821562004c0f579160200282015b8281111562004c0e5782518260006101000a81548173ffffffffffffffffffffffffffffffffffffffff021916908373ffffffffffffffffffffffffffffffffffffffff1602179055509160200191906001019062004bb4565b5b50905062004c1e919062004c30565b5090565b611f178062004c7783390190565b62004c7391905b8082111562004c6f57600081816101000a81549073ffffffffffffffffffffffffffffffffffffffff02191690555060010162004c37565b5090565b9056fe608060405234801561001057600080fd5b5060405162001f1738038062001f178339818101604052608081101561003557600080fd5b8101908080519060200190929190805190602001909291908051906020019092919080519060200190929190505050600061007461023260201b60201c565b9050806000806101000a81548173ffffffffffffffffffffffffffffffffffffffff021916908373ffffffffffffffffffffffffffffffffffffffff1602179055508073ffffffffffffffffffffffffffffffffffffffff16600073ffffffffffffffffffffffffffffffffffffffff167f8be0079c531659141344cd1fd0a4f28419497f9722a3daafe3b4186f6b6457e060405160405180910390a3506000600260146101000a81548160ff0219169083600681111561013157fe5b021790555083600360006101000a81548173ffffffffffffffffffffffffffffffffffffffff021916908373ffffffffffffffffffffffffffffffffffffffff16021790555082600460006101000a81548173ffffffffffffffffffffffffffffffffffffffff021916908373ffffffffffffffffffffffffffffffffffffffff1602179055506000600660006101000a81548160ff02191690831515021790555081600160006101000a81548173ffffffffffffffffffffffffffffffffffffffff021916908373ffffffffffffffffffffffffffffffffffffffff1602179055506102238161023a60201b60201c565b60058190555050505050610266565b600033905090565b60007f52414e444f4d000000000000000000000000000000000000000000000000000082189050919050565b611ca180620002766000396000f3fe608060405234801561001057600080fd5b50600436106101165760003560e01c806379599f96116100a2578063b8f31a8111610071578063b8f31a81146102c9578063be22f54614610313578063c7a51bc31461035d578063f2fde38b1461037b578063fc48258d146103bf57610116565b806379599f96146102335780637db9abaf1461023d578063872d7c79146102755780638da5cb5b1461027f57610116565b80633db0bfd2116100e95780633db0bfd21461015b5780636587b61e146101a957806366995a46146101c757806370bc0d6f1461020b578063715018a61461022957610116565b80630bb8ebf61461011b5780630f15f4c01461013d578063289cf0d2146101475780632d24947b14610151575b600080fd5b6101236103dd565b604051808215151515815260200191505060405180910390f35b610145610494565b005b61014f610600565b005b610159610764565b005b6101a76004803603604081101561017157600080fd5b81019080803573ffffffffffffffffffffffffffffffffffffffff16906020019092919080359060200190929190505050610a39565b005b6101b1610c85565b6040518082815260200191505060405180910390f35b610209600480360360208110156101dd57600080fd5b81019080803573ffffffffffffffffffffffffffffffffffffffff169060200190929190505050610d98565b005b610213610dab565b6040518082815260200191505060405180910390f35b610231610eea565b005b61023b611072565b005b6102736004803603604081101561025357600080fd5b8101908080359060200190929190803590602001909291905050506111df565b005b61027d61131a565b005b610287611529565b604051808273ffffffffffffffffffffffffffffffffffffffff1673ffffffffffffffffffffffffffffffffffffffff16815260200191505060405180910390f35b6102d1611552565b604051808273ffffffffffffffffffffffffffffffffffffffff1673ffffffffffffffffffffffffffffffffffffffff16815260200191505060405180910390f35b61031b611645565b604051808273ffffffffffffffffffffffffffffffffffffffff1673ffffffffffffffffffffffffffffffffffffffff16815260200191505060405180910390f35b61036561166b565b6040518082815260200191505060405180910390f35b6103bd6004803603602081101561039157600080fd5b81019080803573ffffffffffffffffffffffffffffffffffffffff1690602001909291905050506117a9565b005b6103c76119b6565b6040518082815260200191505060405180910390f35b6000600260009054906101000a900473ffffffffffffffffffffffffffffffffffffffff1673ffffffffffffffffffffffffffffffffffffffff166339e7357c6040518163ffffffff1660e01b815260040160206040518083038186803b15801561044757600080fd5b505afa92505050801561047b57506040513d602081101561046757600080fd5b810190808051906020019092919050505060015b6104885760009050610491565b60055481149150505b90565b61049c611a89565b73ffffffffffffffffffffffffffffffffffffffff166000809054906101000a900473ffffffffffffffffffffffffffffffffffffffff1673ffffffffffffffffffffffffffffffffffffffff161461055d576040517f08c379a00000000000000000000000000000000000000000000000000000000081526004018080602001828103825260208152602001807f4f776e61626c653a2063616c6c6572206973206e6f7420746865206f776e657281525060200191505060405180910390fd5b6000600681111561056a57fe5b600260149054906101000a900460ff16600681111561058557fe5b146105db576040517f08c379a000000000000000000000000000000000000000000000000000000000815260040180806020018281038252602a815260200180611bc2602a913960400191505060405180910390fd5b60028060146101000a81548160ff021916908360068111156105f957fe5b0217905550565b610608611a89565b73ffffffffffffffffffffffffffffffffffffffff166000809054906101000a900473ffffffffffffffffffffffffffffffffffffffff1673ffffffffffffffffffffffffffffffffffffffff16146106c9576040517f08c379a00000000000000000000000000000000000000000000000000000000081526004018080602001828103825260208152602001807f4f776e61626c653a2063616c6c6572206973206e6f7420746865206f776e657281525060200191505060405180910390fd5b600660009054906101000a900460ff16610706576005600260146101000a81548160ff021916908360068111156106fc57fe5b0217905550610762565b61070e6103dd565b1561073c576003600260146101000a81548160ff0219169083600681111561073257fe5b0217905550610761565b6004600260146101000a81548160ff0219169083600681111561075b57fe5b02179055505b5b565b6000600681111561077157fe5b600260149054906101000a900460ff16600681111561078c57fe5b146107e2576040517f08c379a000000000000000000000000000000000000000000000000000000000815260040180806020018281038252602a815260200180611bc2602a913960400191505060405180910390fd5b600160009054906101000a900473ffffffffffffffffffffffffffffffffffffffff1673ffffffffffffffffffffffffffffffffffffffff166323b872dd33600460009054906101000a900473ffffffffffffffffffffffffffffffffffffffff16600460009054906101000a900473ffffffffffffffffffffffffffffffffffffffff1673ffffffffffffffffffffffffffffffffffffffff1663f745adfc6040518163ffffffff1660e01b815260040160206040518083038186803b1580156108ac57600080fd5b505afa1580156108c0573d6000803e3d6000fd5b505050506040513d60208110156108d657600080fd5b81019080805190602001909291905050506040518463ffffffff1660e01b8152600401808473ffffffffffffffffffffffffffffffffffffffff1673ffffffffffffffffffffffffffffffffffffffff1681526020018373ffffffffffffffffffffffffffffffffffffffff1673ffffffffffffffffffffffffffffffffffffffff1681526020018281526020019350505050602060405180830381600087803b15801561098357600080fd5b505af1158015610997573d6000803e3d6000fd5b505050506040513d60208110156109ad57600080fd5b8101908080519060200190929190505050610a13576040517f08c379a000000000000000000000000000000000000000000000000000000000815260040180806020018281038252602a815260200180611bec602a913960400191505060405180910390fd5b6001600260146101000a81548160ff02191690836006811115610a3257fe5b0217905550565b600360009054906101000a900473ffffffffffffffffffffffffffffffffffffffff1673ffffffffffffffffffffffffffffffffffffffff16610a7a611a89565b73ffffffffffffffffffffffffffffffffffffffff1614610ae6576040517f08c379a000000000000000000000000000000000000000000000000000000000815260040180806020018281038252602d815260200180611b36602d913960400191505060405180910390fd5b6002610af0610c85565b11610b46576040517f08c379a000000000000000000000000000000000000000000000000000000000815260040180806020018281038252602c815260200180611c16602c913960400191505060405180910390fd5b600160009054906101000a900473ffffffffffffffffffffffffffffffffffffffff1673ffffffffffffffffffffffffffffffffffffffff166323b872dd600460009054906101000a900473ffffffffffffffffffffffffffffffffffffffff1684846040518463ffffffff1660e01b8152600401808473ffffffffffffffffffffffffffffffffffffffff1673ffffffffffffffffffffffffffffffffffffffff1681526020018373ffffffffffffffffffffffffffffffffffffffff1673ffffffffffffffffffffffffffffffffffffffff1681526020018281526020019350505050602060405180830381600087803b158015610c4557600080fd5b505af1158015610c59573d6000803e3d6000fd5b505050506040513d6020811015610c6f57600080fd5b8101908080519060200190929190505050505050565b6000600360009054906101000a900473ffffffffffffffffffffffffffffffffffffffff1673ffffffffffffffffffffffffffffffffffffffff16610cc8611a89565b73ffffffffffffffffffffffffffffffffffffffff161480610d235750610ced611529565b73ffffffffffffffffffffffffffffffffffffffff16610d0b611a89565b73ffffffffffffffffffffffffffffffffffffffff16145b610d78576040517f08c379a000000000000000000000000000000000000000000000000000000000815260040180806020018281038252602a815260200180611c42602a913960400191505060405180910390fd5b600260149054906101000a900460ff166006811115610d9357fe5b905090565b610da88160085460075401610a39565b50565b6000600660009054906101000a900460ff16610e12576040517f08c379a0000000000000000000000000000000000000000000000000000000008152600401808060200182810382526029815260200180611b0d6029913960400191505060405180910390fd5b600260009054906101000a900473ffffffffffffffffffffffffffffffffffffffff1673ffffffffffffffffffffffffffffffffffffffff16610e53611a89565b73ffffffffffffffffffffffffffffffffffffffff1614610ebf576040517f08c379a0000000000000000000000000000000000000000000000000000000008152600401808060200182810382526025815260200180611ae86025913960400191505060405180910390fd5b6005547f4841434b4d4f4e455900000000000000000000000000000000000000000000001917905090565b610ef2611a89565b73ffffffffffffffffffffffffffffffffffffffff166000809054906101000a900473ffffffffffffffffffffffffffffffffffffffff1673ffffffffffffffffffffffffffffffffffffffff1614610fb3576040517f08c379a00000000000000000000000000000000000000000000000000000000081526004018080602001828103825260208152602001807f4f776e61626c653a2063616c6c6572206973206e6f7420746865206f776e657281525060200191505060405180910390fd5b600073ffffffffffffffffffffffffffffffffffffffff166000809054906101000a900473ffffffffffffffffffffffffffffffffffffffff1673ffffffffffffffffffffffffffffffffffffffff167f8be0079c531659141344cd1fd0a4f28419497f9722a3daafe3b4186f6b6457e060405160405180910390a360008060006101000a81548173ffffffffffffffffffffffffffffffffffffffff021916908373ffffffffffffffffffffffffffffffffffffffff160217905550565b61107a611a89565b73ffffffffffffffffffffffffffffffffffffffff166000809054906101000a900473ffffffffffffffffffffffffffffffffffffffff1673ffffffffffffffffffffffffffffffffffffffff161461113b576040517f08c379a00000000000000000000000000000000000000000000000000000000081526004018080602001828103825260208152602001807f4f776e61626c653a2063616c6c6572206973206e6f7420746865206f776e657281525060200191505060405180910390fd5b6000600681111561114857fe5b600260149054906101000a900460ff16600681111561116357fe5b146111b9576040517f08c379a000000000000000000000000000000000000000000000000000000000815260040180806020018281038252602a815260200180611bc2602a913960400191505060405180910390fd5b6006600260146101000a81548160ff021916908360068111156111d857fe5b0217905550565b6111e7611a89565b73ffffffffffffffffffffffffffffffffffffffff166000809054906101000a900473ffffffffffffffffffffffffffffffffffffffff1673ffffffffffffffffffffffffffffffffffffffff16146112a8576040517f08c379a00000000000000000000000000000000000000000000000000000000081526004018080602001828103825260208152602001807f4f776e61626c653a2063616c6c6572206973206e6f7420746865206f776e657281525060200191505060405180910390fd5b60026112b2610c85565b11611308576040517f08c379a0000000000000000000000000000000000000000000000000000000008152600401808060200182810382526030815260200180611a926030913960400191505060405180910390fd5b81600781905550806008819055505050565b6002600681111561132757fe5b600260149054906101000a900460ff16600681111561134257fe5b14611398576040517f08c379a000000000000000000000000000000000000000000000000000000000815260040180806020018281038252602d815260200180611b95602d913960400191505060405180910390fd5b60006113a2611a89565b9050600360009054906101000a900473ffffffffffffffffffffffffffffffffffffffff1673ffffffffffffffffffffffffffffffffffffffff168173ffffffffffffffffffffffffffffffffffffffff1663893d20e86040518163ffffffff1660e01b815260040160206040518083038186803b15801561142357600080fd5b505afa158015611437573d6000803e3d6000fd5b505050506040513d602081101561144d57600080fd5b810190808051906020019092919050505073ffffffffffffffffffffffffffffffffffffffff16146114ca576040517f08c379a0000000000000000000000000000000000000000000000000000000008152600401808060200182810382526032815260200180611b636032913960400191505060405180910390fd5b80600260006101000a81548173ffffffffffffffffffffffffffffffffffffffff021916908373ffffffffffffffffffffffffffffffffffffffff1602179055506001600660006101000a81548160ff02191690831515021790555050565b60008060009054906101000a900473ffffffffffffffffffffffffffffffffffffffff16905090565b600061155c611a89565b73ffffffffffffffffffffffffffffffffffffffff166000809054906101000a900473ffffffffffffffffffffffffffffffffffffffff1673ffffffffffffffffffffffffffffffffffffffff161461161d576040517f08c379a00000000000000000000000000000000000000000000000000000000081526004018080602001828103825260208152602001807f4f776e61626c653a2063616c6c6572206973206e6f7420746865206f776e657281525060200191505060405180910390fd5b600360009054906101000a900473ffffffffffffffffffffffffffffffffffffffff16905090565b600160009054906101000a900473ffffffffffffffffffffffffffffffffffffffff1681565b6000600660009054906101000a900460ff166116d2576040517f08c379a0000000000000000000000000000000000000000000000000000000008152600401808060200182810382526029815260200180611b0d6029913960400191505060405180910390fd5b600260009054906101000a900473ffffffffffffffffffffffffffffffffffffffff1673ffffffffffffffffffffffffffffffffffffffff16611713611a89565b73ffffffffffffffffffffffffffffffffffffffff161461177f576040517f08c379a0000000000000000000000000000000000000000000000000000000008152600401808060200182810382526025815260200180611ae86025913960400191505060405180910390fd5b6005547f4841434b4d4f4e4559000000000000000000000000000000000000000000000017905090565b6117b1611a89565b73ffffffffffffffffffffffffffffffffffffffff166000809054906101000a900473ffffffffffffffffffffffffffffffffffffffff1673ffffffffffffffffffffffffffffffffffffffff1614611872576040517f08c379a00000000000000000000000000000000000000000000000000000000081526004018080602001828103825260208152602001807f4f776e61626c653a2063616c6c6572206973206e6f7420746865206f776e657281525060200191505060405180910390fd5b600073ffffffffffffffffffffffffffffffffffffffff168173ffffffffffffffffffffffffffffffffffffffff1614156118f8576040517f08c379a0000000000000000000000000000000000000000000000000000000008152600401808060200182810382526026815260200180611ac26026913960400191505060405180910390fd5b8073ffffffffffffffffffffffffffffffffffffffff166000809054906101000a900473ffffffffffffffffffffffffffffffffffffffff1673ffffffffffffffffffffffffffffffffffffffff167f8be0079c531659141344cd1fd0a4f28419497f9722a3daafe3b4186f6b6457e060405160405180910390a3806000806101000a81548173ffffffffffffffffffffffffffffffffffffffff021916908373ffffffffffffffffffffffffffffffffffffffff16021790555050565b60006119c0611a89565b73ffffffffffffffffffffffffffffffffffffffff166000809054906101000a900473ffffffffffffffffffffffffffffffffffffffff1673ffffffffffffffffffffffffffffffffffffffff1614611a81576040517f08c379a00000000000000000000000000000000000000000000000000000000081526004018080602001828103825260208152602001807f4f776e61626c653a2063616c6c6572206973206e6f7420746865206f776e657281525060200191505060405180910390fd5b600554905090565b60003390509056fe53747564656e744170706c69636174696f6e3a206170706c69636174696f6e206e6f742066696e6973686564207965744f776e61626c653a206e6577206f776e657220697320746865207a65726f206164647265737353747564656e744170706c69636174696f6e3a2061726520796f75206368656174696e673f53747564656e744170706c69636174696f6e3a20616e73776572206e6f74207265676973746572656453747564656e744170706c69636174696f6e3a206f6e6c792073747564656e742063616e20776974686472617753747564656e744170706c69636174696f6e3a2073747564656e74206973206e6f74206f776e6572206f6620616e7377657253747564656e744170706c69636174696f6e3a206170706c69636174696f6e206973206e6f742061637469766553747564656e744170706c69636174696f6e3a206170706c69636174696f6e206973206e6f74204e657753747564656e744170706c69636174696f6e3a20636f756c64206e6f74207472616e736665722044414953747564656e744170706c69636174696f6e3a206170706c69636174696f6e206e6f742066696e697368656453747564656e744170706c69636174696f6e3a2072656164207065726d697373696f6e2064656e696564a26469706673582212208dbd261061e20c12f49c2cbd98f6bfa8dfac872d5073d06be07560d7c05274e264736f6c634300060600334f776e61626c653a206e6577206f776e657220697320746865207a65726f2061646472657373436c617373726f6f6d3a2073747564656e7420646f65736e2774206861766520656e6f7567682073636f7265436c617373726f6f6d3a206e6f7420656e6f7567682044414920746f2070726f63656564436c617373726f6f6d3a2072656164207065726d697373696f6e2064656e696564436c617373726f6f6d3a2073747564656e7473206c697374206e6f7420656d707479436c617373726f6f6d3a2070726f666573736f722063616e277420626520697473206f776e2073747564656e74536166654d6174683a206d756c7469706c69636174696f6e206f766572666c6f77436c617373726f6f6d3a20746f6f20736f6f6e20746f2066696e69736820636f75727365436c617373726f6f6d3a206170706c69636174696f6e7320617265207374696c6c206f70656e436c617373726f6f6d3a20696e7665737420616c6c2062616c616e6365206265666f726520626567696e436c617373726f6f6d3a206170706c69636174696f6e732061726520616c726561647920636c6f736564436c617373726f6f6d3a2073747564656e74206973206e6f742072656769737465726564436c617373726f6f6d3a206170706c69636174696f6e732061726520616c7265616479206f70656e6564a26469706673582212203c40e168d379ce6ee5a9864a38a378af40b056c30202cf25116f31406d1acbb864736f6c63430006060033456e756d657261626c655365743a20696e646578206f7574206f6620626f756e6473416363657373436f6e74726f6c3a2073656e646572206d75737420626520616e2061646d696e20746f206772616e74556e69766572736974793a2063616c6c657220646f65736e2774206861766520524541445f53545544454e545f4c4953545f524f4c454f776e61626c653a206e6577206f776e657220697320746865207a65726f2061646472657373556e69766572736974793a2063616c6c657220646f65736e277420686176652046554e44535f4d414e414745525f524f4c45556e69766572736974793a2063616c6c657220646f65736e2774206861766520434c4153534c4953545f41444d494e5f524f4c45416363657373436f6e74726f6c3a2073656e646572206d75737420626520616e2061646d696e20746f207265766f6b65556e69766572736974793a2063616c6c657220646f65736e2774206861766520434c415353524f4f4d5f524f4c45416363657373436f6e74726f6c3a2063616e206f6e6c792072656e6f756e636520726f6c657320666f722073656c66a2646970667358221220e5031f34f8b992db1bd7d91d2f79e993162e2ba204d103444ef185b97c4caa2464736f6c63430006060033416363657373436f6e74726f6c3a2073656e646572206d75737420626520616e2061646d696e20746f206772616e74",
  "immutableReferences": {},
  "source": "pragma solidity 0.6.6;\r\n\r\nimport \"@openzeppelin/contracts/math/SafeMath.sol\";\r\nimport \"@openzeppelin/contracts/access/AccessControl.sol\";\r\nimport \"@openzeppelin/contracts/access/Ownable.sol\";\r\nimport \"@openzeppelin/contracts/token/ERC20/IERC20.sol\";\r\nimport \"@openzeppelin/contracts/token/ERC20/IERC20.sol\";\r\nimport \"@openzeppelin/contracts/utils/Address.sol\";\r\nimport \"./Classroom.sol\";\r\nimport \"./Student.sol\";\r\n\r\ninterface CERC20 {\r\n    function mint(uint256) external returns (uint256);\r\n    function exchangeRateCurrent() external returns (uint256);\r\n    function supplyRatePerBlock() external returns (uint256);\r\n    function redeem(uint) external returns (uint);\r\n    function redeemUnderlying(uint) external returns (uint);\r\n    function getCash() external returns (uint);\r\n    function balanceOfUnderlying(address account) external returns (uint);\r\n}\r\n\r\ncontract University is Ownable, AccessControl {\r\n    using SafeMath for uint256;\r\n\r\n    //CLASSLIST_ADMIN_ROLE can add new manually created classes to the list\r\n    bytes32 public constant CLASSLIST_ADMIN_ROLE = keccak256(\"CLASSLIST_ADMIN_ROLE\");\r\n    // FUNDS_MANAGER_ROLE can withdraw funds from the contract\r\n    bytes32 public constant FUNDS_MANAGER_ROLE = keccak256(\"FUNDS_MANAGER_ROLE\");\r\n    // GRANTS_MANAGER_ROLE can approve/decline grant claims\r\n    bytes32 public constant GRANTS_MANAGER_ROLE = keccak256(\"GRANTS_MANAGER_ROLE\");\r\n    // CLASSROOM_ROLE can manage itself inside the University\r\n    bytes32 public constant CLASSROOM_ROLE = keccak256(\"CLASSROOM_ROLE\");\r\n    // READ_STUDENT_LIST_ROLE allow reading students list\r\n    bytes32 public constant READ_STUDENT_LIST_ROLE = keccak256(\"READ_STUDENT_LIST_ROLE\");\r\n    // STUDENT_ROLE allow asking for grants\r\n    bytes32 public constant STUDENT_ROLE = keccak256(\"STUDENT_ROLE\");\r\n\r\n    // Parameter: Name of this University\r\n    bytes32 _name;\r\n    // Parameter: University cut from professor (Parts per Million)\r\n    uint24 _cut;\r\n    // List of every registered classroom\r\n    Classroom[] _classList;\r\n    // List of every student\r\n    Student[] _students;\r\n    // Address list of every donor\r\n    address[] _donors;\r\n\r\n    CERC20 public cToken;\r\n    IERC20 public daiToken;\r\n\r\n    constructor(bytes32 name, uint24 cut, address daiAddress, address compoundAddress) public {\r\n        _name = name;\r\n        _cut = cut;\r\n        _classList = new Classroom[](0);\r\n        _students = new Student[](0);\r\n        _setupRole(DEFAULT_ADMIN_ROLE, _msgSender());\r\n        grantRole(READ_STUDENT_LIST_ROLE, _msgSender());\r\n        //Kovan address\r\n        daiToken = IERC20(daiAddress);\r\n        cToken = CERC20(compoundAddress);\r\n    }\r\n\r\n    event NewClassroom(bytes32 indexed name, address addr);\r\n\r\n    function name() public view returns (bytes32){\r\n        return _name;\r\n    }\r\n\r\n    function changeName(bytes32 val) public onlyOwner {\r\n        _name = val;\r\n    }\r\n\r\n    function cut() public view returns (uint24){\r\n        return _cut;\r\n    }\r\n\r\n    function changeCut(uint24 val) public onlyOwner {\r\n        _cut = val;\r\n    }\r\n\r\n    function viewClassList() public view returns (Classroom[] memory) {\r\n        return _classList;\r\n    }\r\n\r\n    function isValidClassroom(address classroom) public view returns (bool) {\r\n        return hasRole(CLASSROOM_ROLE, classroom);\r\n    }\r\n\r\n    function newClassRoom(bytes32 cName) public {\r\n         newClassRoom(cName, 0.2 * 10**6, 0.5 * 10**6, 0, 50 * (10 ** 18), 30 days);\r\n    }\r\n\r\n    function newClassRoom(bytes32 cName, uint24 cCut, uint24 cPCut, int32 minScore, uint entryPrice, uint duration) public {\r\n        require(hasRole(CLASSLIST_ADMIN_ROLE, _msgSender()), \"University: caller doesn't have CLASSLIST_ADMIN_ROLE\");\r\n        _newClassRoom(cName, cCut, cPCut, minScore, entryPrice, duration);\r\n    }\r\n\r\n    function _newClassRoom(bytes32 cName, uint24 cCut, uint24 cPCut, int32 minScore, uint entryPrice, uint duration) internal {\r\n        //TODO: fetch contract from external factory to reduce size\r\n        Classroom classroom = new Classroom(cName, cCut, cPCut, minScore, entryPrice, duration, address(this), address(daiToken), address(cToken));\r\n        classroom.transferOwnership(_msgSender());\r\n        _classList.push(classroom);\r\n        grantRole(READ_STUDENT_LIST_ROLE, address(classroom));\r\n        grantRole(CLASSROOM_ROLE, address(classroom));\r\n        emit NewClassroom(cName, address(classroom));\r\n    }\r\n\r\n    function studentSelfRegister(bytes32 sName) public {\r\n        _newStudent(sName);\r\n    }\r\n\r\n    function _newStudent(bytes32 sName) internal {\r\n        //TODO: fetch contract from external factory to reduce size\r\n        Student student = new Student(sName, address(this));\r\n        student.transferOwnership(_msgSender());\r\n        _students.push(student);\r\n        grantRole(STUDENT_ROLE, address(student));\r\n    }\r\n\r\n    function studentIsRegistered(address student) public view returns (bool){\r\n        require(hasRole(READ_STUDENT_LIST_ROLE, _msgSender()), \"University: caller doesn't have READ_STUDENT_LIST_ROLE\");\r\n        return hasRole(STUDENT_ROLE, student);\r\n    }\r\n\r\n    function addStudentScore(address student, int32 val) public  {\r\n        require(hasRole(CLASSROOM_ROLE, _msgSender()), \"University: caller doesn't have CLASSROOM_ROLE\");\r\n        Student(student).addScore(val);\r\n    }\r\n\r\n    function subStudentScore(address student,int32 val) public  {\r\n        require(hasRole(CLASSROOM_ROLE, _msgSender()), \"University: caller doesn't have CLASSROOM_ROLE\");\r\n        Student(student).subScore(val);\r\n    }\r\n\r\n    function applyFunds(uint val) public {\r\n        require(hasRole(FUNDS_MANAGER_ROLE, _msgSender()), \"University: caller doesn't have FUNDS_MANAGER_ROLE\");\r\n        //TODO:\r\n    }\r\n\r\n    function spendFunds(address to, uint val) public {\r\n        require(hasRole(FUNDS_MANAGER_ROLE, _msgSender()), \"University: caller doesn't have FUNDS_MANAGER_ROLE\");\r\n        daiToken.transfer(to, val);\r\n    }\r\n\r\n    function allowFunds(address to, uint val) public {\r\n        require(hasRole(FUNDS_MANAGER_ROLE, _msgSender()), \"University: caller doesn't have FUNDS_MANAGER_ROLE\");\r\n        daiToken.approve(to, val);\r\n    }\r\n}",
  "sourcePath": "/mnt/e/Repositories/Uproot/contracts/University.sol",
  "compiler": {
    "name": "solc",
    "version": "0.6.6+commit.6c089d02.Emscripten.clang"
  },
  "schemaVersion": "3.1.0",
  "updatedAt": "2020-05-02T13:57:24.162Z",
  "devdoc": {
    "methods": {
      "getRoleAdmin(bytes32)": {
        "details": "Returns the admin role that controls `role`. See {grantRole} and {revokeRole}.     * To change a role's admin, use {_setRoleAdmin}."
      },
      "getRoleMember(bytes32,uint256)": {
        "details": "Returns one of the accounts that have `role`. `index` must be a value between 0 and {getRoleMemberCount}, non-inclusive.     * Role bearers are not sorted in any particular way, and their ordering may change at any point.     * WARNING: When using {getRoleMember} and {getRoleMemberCount}, make sure you perform all queries on the same block. See the following https://forum.openzeppelin.com/t/iterating-over-elements-on-enumerableset-in-openzeppelin-contracts/2296[forum post] for more information."
      },
      "getRoleMemberCount(bytes32)": {
        "details": "Returns the number of accounts that have `role`. Can be used together with {getRoleMember} to enumerate all bearers of a role."
      },
      "grantRole(bytes32,address)": {
        "details": "Grants `role` to `account`.     * If `account` had not been already granted `role`, emits a {RoleGranted} event.     * Requirements:     * - the caller must have ``role``'s admin role."
      },
      "hasRole(bytes32,address)": {
        "details": "Returns `true` if `account` has been granted `role`."
      },
      "owner()": {
        "details": "Returns the address of the current owner."
      },
      "renounceOwnership()": {
        "details": "Leaves the contract without owner. It will not be possible to call `onlyOwner` functions anymore. Can only be called by the current owner.     * NOTE: Renouncing ownership will leave the contract without an owner, thereby removing any functionality that is only available to the owner."
      },
      "renounceRole(bytes32,address)": {
        "details": "Revokes `role` from the calling account.     * Roles are often managed via {grantRole} and {revokeRole}: this function's purpose is to provide a mechanism for accounts to lose their privileges if they are compromised (such as when a trusted device is misplaced).     * If the calling account had been granted `role`, emits a {RoleRevoked} event.     * Requirements:     * - the caller must be `account`."
      },
      "revokeRole(bytes32,address)": {
        "details": "Revokes `role` from `account`.     * If `account` had been granted `role`, emits a {RoleRevoked} event.     * Requirements:     * - the caller must have ``role``'s admin role."
      },
      "transferOwnership(address)": {
        "details": "Transfers ownership of the contract to a new account (`newOwner`). Can only be called by the current owner."
      }
    }
  },
  "userdoc": {
    "methods": {}
  }
}