{
  "contractName": "University",
  "abi": [
    {
      "inputs": [
        {
          "internalType": "bytes32",
          "name": "name",
          "type": "bytes32"
        },
        {
          "internalType": "uint24",
          "name": "cut",
          "type": "uint24"
        },
        {
          "internalType": "address",
          "name": "daiAddress",
          "type": "address"
        },
        {
          "internalType": "address",
          "name": "compoundAddress",
          "type": "address"
        }
      ],
      "stateMutability": "nonpayable",
      "type": "constructor"
    },
    {
      "anonymous": false,
      "inputs": [
        {
          "indexed": true,
          "internalType": "bytes32",
          "name": "name",
          "type": "bytes32"
        },
        {
          "indexed": false,
          "internalType": "address",
          "name": "addr",
          "type": "address"
        }
      ],
      "name": "NewClassroom",
      "type": "event"
    },
    {
      "anonymous": false,
      "inputs": [
        {
          "indexed": true,
          "internalType": "address",
          "name": "previousOwner",
          "type": "address"
        },
        {
          "indexed": true,
          "internalType": "address",
          "name": "newOwner",
          "type": "address"
        }
      ],
      "name": "OwnershipTransferred",
      "type": "event"
    },
    {
      "anonymous": false,
      "inputs": [
        {
          "indexed": true,
          "internalType": "bytes32",
          "name": "role",
          "type": "bytes32"
        },
        {
          "indexed": true,
          "internalType": "address",
          "name": "account",
          "type": "address"
        },
        {
          "indexed": true,
          "internalType": "address",
          "name": "sender",
          "type": "address"
        }
      ],
      "name": "RoleGranted",
      "type": "event"
    },
    {
      "anonymous": false,
      "inputs": [
        {
          "indexed": true,
          "internalType": "bytes32",
          "name": "role",
          "type": "bytes32"
        },
        {
          "indexed": true,
          "internalType": "address",
          "name": "account",
          "type": "address"
        },
        {
          "indexed": true,
          "internalType": "address",
          "name": "sender",
          "type": "address"
        }
      ],
      "name": "RoleRevoked",
      "type": "event"
    },
    {
      "inputs": [],
      "name": "CLASSLIST_ADMIN_ROLE",
      "outputs": [
        {
          "internalType": "bytes32",
          "name": "",
          "type": "bytes32"
        }
      ],
      "stateMutability": "view",
      "type": "function"
    },
    {
      "inputs": [],
      "name": "CLASSROOM_ROLE",
      "outputs": [
        {
          "internalType": "bytes32",
          "name": "",
          "type": "bytes32"
        }
      ],
      "stateMutability": "view",
      "type": "function"
    },
    {
      "inputs": [],
      "name": "DEFAULT_ADMIN_ROLE",
      "outputs": [
        {
          "internalType": "bytes32",
          "name": "",
          "type": "bytes32"
        }
      ],
      "stateMutability": "view",
      "type": "function"
    },
    {
      "inputs": [],
      "name": "FUNDS_MANAGER_ROLE",
      "outputs": [
        {
          "internalType": "bytes32",
          "name": "",
          "type": "bytes32"
        }
      ],
      "stateMutability": "view",
      "type": "function"
    },
    {
      "inputs": [],
      "name": "GRANTS_MANAGER_ROLE",
      "outputs": [
        {
          "internalType": "bytes32",
          "name": "",
          "type": "bytes32"
        }
      ],
      "stateMutability": "view",
      "type": "function"
    },
    {
      "inputs": [],
      "name": "READ_STUDENT_LIST_ROLE",
      "outputs": [
        {
          "internalType": "bytes32",
          "name": "",
          "type": "bytes32"
        }
      ],
      "stateMutability": "view",
      "type": "function"
    },
    {
      "inputs": [],
      "name": "STUDENT_ROLE",
      "outputs": [
        {
          "internalType": "bytes32",
          "name": "",
          "type": "bytes32"
        }
      ],
      "stateMutability": "view",
      "type": "function"
    },
    {
      "inputs": [],
      "name": "cToken",
      "outputs": [
        {
          "internalType": "contract CERC20",
          "name": "",
          "type": "address"
        }
      ],
      "stateMutability": "view",
      "type": "function"
    },
    {
      "inputs": [],
      "name": "daiToken",
      "outputs": [
        {
          "internalType": "contract IERC20",
          "name": "",
          "type": "address"
        }
      ],
      "stateMutability": "view",
      "type": "function"
    },
    {
      "inputs": [
        {
          "internalType": "bytes32",
          "name": "role",
          "type": "bytes32"
        }
      ],
      "name": "getRoleAdmin",
      "outputs": [
        {
          "internalType": "bytes32",
          "name": "",
          "type": "bytes32"
        }
      ],
      "stateMutability": "view",
      "type": "function"
    },
    {
      "inputs": [
        {
          "internalType": "bytes32",
          "name": "role",
          "type": "bytes32"
        },
        {
          "internalType": "uint256",
          "name": "index",
          "type": "uint256"
        }
      ],
      "name": "getRoleMember",
      "outputs": [
        {
          "internalType": "address",
          "name": "",
          "type": "address"
        }
      ],
      "stateMutability": "view",
      "type": "function"
    },
    {
      "inputs": [
        {
          "internalType": "bytes32",
          "name": "role",
          "type": "bytes32"
        }
      ],
      "name": "getRoleMemberCount",
      "outputs": [
        {
          "internalType": "uint256",
          "name": "",
          "type": "uint256"
        }
      ],
      "stateMutability": "view",
      "type": "function"
    },
    {
      "inputs": [
        {
          "internalType": "bytes32",
          "name": "role",
          "type": "bytes32"
        },
        {
          "internalType": "address",
          "name": "account",
          "type": "address"
        }
      ],
      "name": "grantRole",
      "outputs": [],
      "stateMutability": "nonpayable",
      "type": "function"
    },
    {
      "inputs": [
        {
          "internalType": "bytes32",
          "name": "role",
          "type": "bytes32"
        },
        {
          "internalType": "address",
          "name": "account",
          "type": "address"
        }
      ],
      "name": "hasRole",
      "outputs": [
        {
          "internalType": "bool",
          "name": "",
          "type": "bool"
        }
      ],
      "stateMutability": "view",
      "type": "function"
    },
    {
      "inputs": [],
      "name": "owner",
      "outputs": [
        {
          "internalType": "address",
          "name": "",
          "type": "address"
        }
      ],
      "stateMutability": "view",
      "type": "function"
    },
    {
      "inputs": [],
      "name": "renounceOwnership",
      "outputs": [],
      "stateMutability": "nonpayable",
      "type": "function"
    },
    {
      "inputs": [
        {
          "internalType": "bytes32",
          "name": "role",
          "type": "bytes32"
        },
        {
          "internalType": "address",
          "name": "account",
          "type": "address"
        }
      ],
      "name": "renounceRole",
      "outputs": [],
      "stateMutability": "nonpayable",
      "type": "function"
    },
    {
      "inputs": [
        {
          "internalType": "bytes32",
          "name": "role",
          "type": "bytes32"
        },
        {
          "internalType": "address",
          "name": "account",
          "type": "address"
        }
      ],
      "name": "revokeRole",
      "outputs": [],
      "stateMutability": "nonpayable",
      "type": "function"
    },
    {
      "inputs": [
        {
          "internalType": "address",
          "name": "newOwner",
          "type": "address"
        }
      ],
      "name": "transferOwnership",
      "outputs": [],
      "stateMutability": "nonpayable",
      "type": "function"
    },
    {
      "inputs": [],
      "name": "name",
      "outputs": [
        {
          "internalType": "bytes32",
          "name": "",
          "type": "bytes32"
        }
      ],
      "stateMutability": "view",
      "type": "function"
    },
    {
      "inputs": [
        {
          "internalType": "bytes32",
          "name": "val",
          "type": "bytes32"
        }
      ],
      "name": "changeName",
      "outputs": [],
      "stateMutability": "nonpayable",
      "type": "function"
    },
    {
      "inputs": [],
      "name": "cut",
      "outputs": [
        {
          "internalType": "uint24",
          "name": "",
          "type": "uint24"
        }
      ],
      "stateMutability": "view",
      "type": "function"
    },
    {
      "inputs": [
        {
          "internalType": "uint24",
          "name": "val",
          "type": "uint24"
        }
      ],
      "name": "changeCut",
      "outputs": [],
      "stateMutability": "nonpayable",
      "type": "function"
    },
    {
      "inputs": [],
      "name": "viewClassList",
      "outputs": [
        {
          "internalType": "contract Classroom[]",
          "name": "",
          "type": "address[]"
        }
      ],
      "stateMutability": "view",
      "type": "function"
    },
    {
      "inputs": [
        {
          "internalType": "address",
          "name": "classroom",
          "type": "address"
        }
      ],
      "name": "isValidClassroom",
      "outputs": [
        {
          "internalType": "bool",
          "name": "",
          "type": "bool"
        }
      ],
      "stateMutability": "view",
      "type": "function"
    },
    {
      "inputs": [
        {
          "internalType": "address",
          "name": "owner",
          "type": "address"
        },
        {
          "internalType": "bytes32",
          "name": "cName",
          "type": "bytes32"
        },
        {
          "internalType": "uint24",
          "name": "cCut",
          "type": "uint24"
        },
        {
          "internalType": "uint24",
          "name": "cPCut",
          "type": "uint24"
        },
        {
          "internalType": "int32",
          "name": "minScore",
          "type": "int32"
        },
        {
          "internalType": "uint256",
          "name": "entryPrice",
          "type": "uint256"
        },
        {
          "internalType": "uint256",
          "name": "duration",
          "type": "uint256"
        }
      ],
      "name": "newClassRoom",
      "outputs": [],
      "stateMutability": "nonpayable",
      "type": "function"
    },
    {
      "inputs": [
        {
          "internalType": "address",
          "name": "owner",
          "type": "address"
        },
        {
          "internalType": "bytes32",
          "name": "cName",
          "type": "bytes32"
        }
      ],
      "name": "newClassRoom",
      "outputs": [],
      "stateMutability": "nonpayable",
      "type": "function"
    },
    {
      "inputs": [
        {
          "internalType": "bytes32",
          "name": "sName",
          "type": "bytes32"
        }
      ],
      "name": "studentSelfRegister",
      "outputs": [],
      "stateMutability": "nonpayable",
      "type": "function"
    },
    {
      "inputs": [
        {
          "internalType": "address",
          "name": "student",
          "type": "address"
        }
      ],
      "name": "studentIsRegistered",
      "outputs": [
        {
          "internalType": "bool",
          "name": "",
          "type": "bool"
        }
      ],
      "stateMutability": "view",
      "type": "function"
    },
    {
      "inputs": [
        {
          "internalType": "address",
          "name": "student",
          "type": "address"
        },
        {
          "internalType": "address",
          "name": "application",
          "type": "address"
        }
      ],
      "name": "registerStudentApplication",
      "outputs": [],
      "stateMutability": "nonpayable",
      "type": "function"
    },
    {
      "inputs": [],
      "name": "viewMyApplications",
      "outputs": [
        {
          "internalType": "address[]",
          "name": "",
          "type": "address[]"
        }
      ],
      "stateMutability": "view",
      "type": "function"
    },
    {
      "inputs": [
        {
          "internalType": "address",
          "name": "addr",
          "type": "address"
        }
      ],
      "name": "viewStudentApplications",
      "outputs": [
        {
          "internalType": "address[]",
          "name": "",
          "type": "address[]"
        }
      ],
      "stateMutability": "view",
      "type": "function"
    },
    {
      "inputs": [
        {
          "internalType": "address",
          "name": "applicationAddr",
          "type": "address"
        },
        {
          "internalType": "bytes32",
          "name": "cName",
          "type": "bytes32"
        },
        {
          "internalType": "uint24",
          "name": "cCut",
          "type": "uint24"
        },
        {
          "internalType": "uint24",
          "name": "cPCut",
          "type": "uint24"
        },
        {
          "internalType": "int32",
          "name": "minScore",
          "type": "int32"
        },
        {
          "internalType": "uint256",
          "name": "entryPrice",
          "type": "uint256"
        },
        {
          "internalType": "uint256",
          "name": "duration",
          "type": "uint256"
        }
      ],
      "name": "studentRequestClassroom",
      "outputs": [],
      "stateMutability": "nonpayable",
      "type": "function"
    },
    {
      "inputs": [
        {
          "internalType": "address",
          "name": "student",
          "type": "address"
        },
        {
          "internalType": "int32",
          "name": "val",
          "type": "int32"
        }
      ],
      "name": "addStudentScore",
      "outputs": [],
      "stateMutability": "nonpayable",
      "type": "function"
    },
    {
      "inputs": [
        {
          "internalType": "address",
          "name": "student",
          "type": "address"
        },
        {
          "internalType": "int32",
          "name": "val",
          "type": "int32"
        }
      ],
      "name": "subStudentScore",
      "outputs": [],
      "stateMutability": "nonpayable",
      "type": "function"
    },
    {
      "inputs": [
        {
          "internalType": "uint256",
          "name": "val",
          "type": "uint256"
        }
      ],
      "name": "applyFunds",
      "outputs": [],
      "stateMutability": "nonpayable",
      "type": "function"
    },
    {
      "inputs": [
        {
          "internalType": "uint256",
          "name": "val",
          "type": "uint256"
        }
      ],
      "name": "recoverFunds",
      "outputs": [],
      "stateMutability": "nonpayable",
      "type": "function"
    },
    {
      "inputs": [
        {
          "internalType": "address",
          "name": "to",
          "type": "address"
        },
        {
          "internalType": "uint256",
          "name": "val",
          "type": "uint256"
        }
      ],
      "name": "spendFunds",
      "outputs": [],
      "stateMutability": "nonpayable",
      "type": "function"
    },
    {
      "inputs": [
        {
          "internalType": "address",
          "name": "to",
          "type": "address"
        },
        {
          "internalType": "uint256",
          "name": "val",
          "type": "uint256"
        }
      ],
      "name": "allowFunds",
      "outputs": [],
      "stateMutability": "nonpayable",
      "type": "function"
    }
  ],
  "bytecode": "0x60806040523480156200001157600080fd5b506040516200ddc73803806200ddc7833981810160405260808110156200003757600080fd5b81019080805190602001909291908051906020019092919080519060200190929190805190602001909291905050506000620000786200030660201b60201c565b9050806000806101000a81548173ffffffffffffffffffffffffffffffffffffffff021916908373ffffffffffffffffffffffffffffffffffffffff1602179055508073ffffffffffffffffffffffffffffffffffffffff16600073ffffffffffffffffffffffffffffffffffffffff167f8be0079c531659141344cd1fd0a4f28419497f9722a3daafe3b4186f6b6457e060405160405180910390a3508360028190555082600360006101000a81548162ffffff021916908362ffffff160217905550600067ffffffffffffffff811180156200015557600080fd5b50604051908082528060200260200182016040528015620001855781602001602082028036833780820191505090505b50600490805190602001906200019d929190620005b2565b50600067ffffffffffffffff81118015620001b757600080fd5b50604051908082528060200260200182016040528015620001e75781602001602082028036833780820191505090505b5060059080519060200190620001ff92919062000641565b50620002246000801b620002186200030660201b60201c565b6200030e60201b60201c565b6200027a60405180807f524541445f53545544454e545f4c4953545f524f4c4500000000000000000000815250601601905060405180910390206200026e6200030660201b60201c565b6200032460201b60201c565b81600960006101000a81548173ffffffffffffffffffffffffffffffffffffffff021916908373ffffffffffffffffffffffffffffffffffffffff16021790555080600860006101000a81548173ffffffffffffffffffffffffffffffffffffffff021916908373ffffffffffffffffffffffffffffffffffffffff160217905550505050506200075c565b600033905090565b620003208282620003c860201b60201c565b5050565b6200035b60016000848152602001908152602001600020600201546200034f6200030660201b60201c565b6200046c60201b60201c565b620003b2576040517f08c379a000000000000000000000000000000000000000000000000000000000815260040180806020018281038252602f8152602001806200dd98602f913960400191505060405180910390fd5b620003c48282620003c860201b60201c565b5050565b620003f78160016000858152602001908152602001600020600001620004a560201b620031b71790919060201c565b1562000468576200040d6200030660201b60201c565b73ffffffffffffffffffffffffffffffffffffffff168173ffffffffffffffffffffffffffffffffffffffff16837f2f8788117e7eff1d82e926ec794901d17c78024a50270940304540a733656f0d60405160405180910390a45b5050565b60006200049d8260016000868152602001908152602001600020600001620004dd60201b6200316e1790919060201c565b905092915050565b6000620004d5836000018373ffffffffffffffffffffffffffffffffffffffff1660001b6200051560201b60201c565b905092915050565b60006200050d836000018373ffffffffffffffffffffffffffffffffffffffff1660001b6200058f60201b60201c565b905092915050565b60006200052983836200058f60201b60201c565b6200058457826000018290806001815401808255809150506001900390600052602060002001600090919091909150558260000180549050836001016000848152602001908152602001600020819055506001905062000589565b600090505b92915050565b600080836001016000848152602001908152602001600020541415905092915050565b8280548282559060005260206000209081019282156200062e579160200282015b828111156200062d5782518260006101000a81548173ffffffffffffffffffffffffffffffffffffffff021916908373ffffffffffffffffffffffffffffffffffffffff16021790555091602001919060010190620005d3565b5b5090506200063d9190620006d0565b5090565b828054828255906000526020600020908101928215620006bd579160200282015b82811115620006bc5782518260006101000a81548173ffffffffffffffffffffffffffffffffffffffff021916908373ffffffffffffffffffffffffffffffffffffffff1602179055509160200191906001019062000662565b5b509050620006cc919062000716565b5090565b6200071391905b808211156200070f57600081816101000a81549073ffffffffffffffffffffffffffffffffffffffff021916905550600101620006d7565b5090565b90565b6200075991905b808211156200075557600081816101000a81549073ffffffffffffffffffffffffffffffffffffffff0219169055506001016200071d565b5090565b90565b61d62c806200076c6000396000f3fe60806040523480156200001157600080fd5b5060043610620002745760003560e01c8063898855ed1162000159578063c4707a8311620000c9578063e6fd604c1162000087578063e6fd604c1462000c5e578063e770d7d41462000c88578063f2fde38b1462000cbe578063f7be43fb1462000d05578063ff5d8f631462000d255762000274565b8063c4707a831462000ab9578063ca15c8731462000ad9578063d3c5704e1462000b1e578063d547741f1462000bbc578063de44c49f1462000c0d5762000274565b80639fd6cb7a11620001175780639fd6cb7a14620009ab578063a217fddf14620009cb578063be22f54614620009eb578063c204a0e01462000a37578063c419f4321462000a685762000274565b8063898855ed14620007ba5780638da5cb5b14620007eb5780639010d07c14620008375780639084e68514620008b257806391d1485414620009425762000274565b80635a7dd15011620001f55780636d36f22c11620001b35780636d36f22c146200064b578063715018a614620006db578063820cd75c14620006e757806385dade61146200070757806387bfe18814620007665762000274565b80635a7dd15014620004e85780636408a386146200051957806364d47731146200057c57806369e527da146200059c5780636a77baa714620005e85762000274565b80632f2ff15d11620002435780632f2ff15d14620003a457806336568abe14620003f55780634ab358c714620004465780634cd77d4514620004775780635070ad9514620004975762000274565b806306fdde03146200027957806316ded1ce1462000299578063183b260014620002f8578063248a9ca3146200035f575b600080fd5b6200028362000d79565b6040518082815260200191505060405180910390f35b620002de60048036036020811015620002b157600080fd5b81019080803573ffffffffffffffffffffffffffffffffffffffff16906020019092919050505062000d83565b604051808215151515815260200191505060405180910390f35b6200035d600480360360408110156200031057600080fd5b81019080803573ffffffffffffffffffffffffffffffffffffffff169060200190929190803573ffffffffffffffffffffffffffffffffffffffff16906020019092919050505062000e6e565b005b6200038e600480360360208110156200037757600080fd5b810190808035906020019092919050505062000fb3565b6040518082815260200191505060405180910390f35b620003f360048036036040811015620003bc57600080fd5b8101908080359060200190929190803573ffffffffffffffffffffffffffffffffffffffff16906020019092919050505062000fd3565b005b62000444600480360360408110156200040d57600080fd5b8101908080359060200190929190803573ffffffffffffffffffffffffffffffffffffffff16906020019092919050505062001065565b005b62000475600480360360208110156200045e57600080fd5b810190808035906020019092919050505062001104565b005b620004816200125c565b6040518082815260200191505060405180910390f35b620004e660048036036040811015620004af57600080fd5b81019080803573ffffffffffffffffffffffffffffffffffffffff1690602001909291908035906020019092919050505062001295565b005b62000517600480360360208110156200050057600080fd5b810190808035906020019092919050505062001422565b005b6200052362001430565b6040518080602001828103825283818151815260200191508051906020019060200280838360005b83811015620005685780820151818401526020810190506200054b565b505050509050019250505060405180910390f35b620005866200144b565b6040518082815260200191505060405180910390f35b620005a662001484565b604051808273ffffffffffffffffffffffffffffffffffffffff1673ffffffffffffffffffffffffffffffffffffffff16815260200191505060405180910390f35b620005f2620014aa565b6040518080602001828103825283818151815260200191508051906020019060200280838360005b83811015620006375780820151818401526020810190506200061a565b505050509050019250505060405180910390f35b620006d9600480360360e08110156200066357600080fd5b81019080803573ffffffffffffffffffffffffffffffffffffffff16906020019092919080359060200190929190803562ffffff169060200190929190803562ffffff169060200190929190803560030b906020019092919080359060200190929190803590602001909291905050506200153a565b005b620006e5620017d1565b005b620006f16200195c565b6040518082815260200191505060405180910390f35b6200074c600480360360208110156200071f57600080fd5b81019080803573ffffffffffffffffffffffffffffffffffffffff16906020019092919050505062001995565b604051808215151515815260200191505060405180910390f35b620007b8600480360360408110156200077e57600080fd5b81019080803573ffffffffffffffffffffffffffffffffffffffff169060200190929190803560030b9060200190929190505050620019df565b005b620007e960048036036020811015620007d257600080fd5b810190808035906020019092919050505062001af7565b005b620007f562001bcd565b604051808273ffffffffffffffffffffffffffffffffffffffff1673ffffffffffffffffffffffffffffffffffffffff16815260200191505060405180910390f35b62000870600480360360408110156200084f57600080fd5b81019080803590602001909291908035906020019092919050505062001bf6565b604051808273ffffffffffffffffffffffffffffffffffffffff1673ffffffffffffffffffffffffffffffffffffffff16815260200191505060405180910390f35b62000940600480360360e0811015620008ca57600080fd5b81019080803573ffffffffffffffffffffffffffffffffffffffff16906020019092919080359060200190929190803562ffffff169060200190929190803562ffffff169060200190929190803560030b9060200190929190803590602001909291908035906020019092919050505062001c2a565b005b62000991600480360360408110156200095a57600080fd5b8101908080359060200190929190803573ffffffffffffffffffffffffffffffffffffffff16906020019092919050505062001ce5565b604051808215151515815260200191505060405180910390f35b620009b562001d19565b6040518082815260200191505060405180910390f35b620009d562001d52565b6040518082815260200191505060405180910390f35b620009f562001d59565b604051808273ffffffffffffffffffffffffffffffffffffffff1673ffffffffffffffffffffffffffffffffffffffff16815260200191505060405180910390f35b62000a666004803603602081101562000a4f57600080fd5b810190808035906020019092919050505062001d7f565b005b62000ab76004803603604081101562000a8057600080fd5b81019080803573ffffffffffffffffffffffffffffffffffffffff1690602001909291908035906020019092919050505062001fe1565b005b62000ac36200216e565b6040518082815260200191505060405180910390f35b62000b086004803603602081101562000af157600080fd5b8101908080359060200190929190505050620021a7565b6040518082815260200191505060405180910390f35b62000b636004803603602081101562000b3657600080fd5b81019080803573ffffffffffffffffffffffffffffffffffffffff169060200190929190505050620021d0565b6040518080602001828103825283818151815260200191508051906020019060200280838360005b8381101562000ba857808201518184015260208101905062000b8b565b505050509050019250505060405180910390f35b62000c0b6004803603604081101562000bd457600080fd5b8101908080359060200190929190803573ffffffffffffffffffffffffffffffffffffffff16906020019092919050505062002380565b005b62000c5c6004803603604081101562000c2557600080fd5b81019080803573ffffffffffffffffffffffffffffffffffffffff1690602001909291908035906020019092919050505062002412565b005b62000c686200243a565b604051808262ffffff1662ffffff16815260200191505060405180910390f35b62000cbc6004803603602081101562000ca057600080fd5b81019080803562ffffff16906020019092919050505062002453565b005b62000d036004803603602081101562000cd657600080fd5b81019080803573ffffffffffffffffffffffffffffffffffffffff16906020019092919050505062002541565b005b62000d0f62002753565b6040518082815260200191505060405180910390f35b62000d776004803603604081101562000d3d57600080fd5b81019080803573ffffffffffffffffffffffffffffffffffffffff169060200190929190803560030b90602001909291905050506200278c565b005b6000600254905090565b600062000dcf60405180807f524541445f53545544454e545f4c4953545f524f4c45000000000000000000008152506016019050604051809103902062000dc9620028a4565b62001ce5565b62000e26576040517f08c379a00000000000000000000000000000000000000000000000000000000081526004018080602001828103825260368152602001806200d3d76036913960400191505060405180910390fd5b62000e6760405180807f53545544454e545f524f4c450000000000000000000000000000000000000000815250600c01905060405180910390208362001ce5565b9050919050565b62000eb860405180807f434c415353524f4f4d5f524f4c45000000000000000000000000000000000000815250600e019050604051809103902062000eb2620028a4565b62001ce5565b62000f0f576040517f08c379a000000000000000000000000000000000000000000000000000000000815260040180806020018281038252602e8152602001806200d59a602e913960400191505060405180910390fd5b600660008373ffffffffffffffffffffffffffffffffffffffff1673ffffffffffffffffffffffffffffffffffffffff168152602001908152602001600020819080600181540180825580915050600190039060005260206000200160009091909190916101000a81548173ffffffffffffffffffffffffffffffffffffffff021916908373ffffffffffffffffffffffffffffffffffffffff1602179055505050565b600060016000838152602001908152602001600020600201549050919050565b62000ffe600160008481526020019081526020016000206002015462000ff8620028a4565b62001ce5565b62001055576040517f08c379a000000000000000000000000000000000000000000000000000000000815260040180806020018281038252602f8152602001806200d3a8602f913960400191505060405180910390fd5b620010618282620028ac565b5050565b6200106f620028a4565b73ffffffffffffffffffffffffffffffffffffffff168173ffffffffffffffffffffffffffffffffffffffff1614620010f4576040517f08c379a000000000000000000000000000000000000000000000000000000000815260040180806020018281038252602f8152602001806200d5c8602f913960400191505060405180910390fd5b62001100828262002945565b5050565b6200114e60405180807f46554e44535f4d414e414745525f524f4c4500000000000000000000000000008152506012019050604051809103902062001148620028a4565b62001ce5565b620011a5576040517f08c379a00000000000000000000000000000000000000000000000000000000081526004018080602001828103825260328152602001806200d4336032913960400191505060405180910390fd5b600860009054906101000a900473ffffffffffffffffffffffffffffffffffffffff1673ffffffffffffffffffffffffffffffffffffffff1663852a12e3826040518263ffffffff1660e01b815260040180828152602001915050602060405180830381600087803b1580156200121b57600080fd5b505af115801562001230573d6000803e3d6000fd5b505050506040513d60208110156200124757600080fd5b81019080805190602001909291905050505050565b60405180807f434c415353524f4f4d5f524f4c45000000000000000000000000000000000000815250600e019050604051809103902081565b620012df60405180807f46554e44535f4d414e414745525f524f4c45000000000000000000000000000081525060120190506040518091039020620012d9620028a4565b62001ce5565b62001336576040517f08c379a00000000000000000000000000000000000000000000000000000000081526004018080602001828103825260328152602001806200d4336032913960400191505060405180910390fd5b600960009054906101000a900473ffffffffffffffffffffffffffffffffffffffff1673ffffffffffffffffffffffffffffffffffffffff1663a9059cbb83836040518363ffffffff1660e01b8152600401808373ffffffffffffffffffffffffffffffffffffffff1673ffffffffffffffffffffffffffffffffffffffff16815260200182815260200192505050602060405180830381600087803b158015620013e057600080fd5b505af1158015620013f5573d6000803e3d6000fd5b505050506040513d60208110156200140c57600080fd5b8101908080519060200190929190505050505050565b6200142d81620029de565b50565b60606200144662001440620028a4565b620021d0565b905090565b60405180807f4752414e54535f4d414e414745525f524f4c45000000000000000000000000008152506013019050604051809103902081565b600860009054906101000a900473ffffffffffffffffffffffffffffffffffffffff1681565b606060048054806020026020016040519081016040528092919081815260200182805480156200153057602002820191906000526020600020905b8160009054906101000a900473ffffffffffffffffffffffffffffffffffffffff1673ffffffffffffffffffffffffffffffffffffffff1681526020019060010190808311620014e5575b5050505050905090565b6200158460405180807f53545544454e545f524f4c450000000000000000000000000000000000000000815250600c01905060405180910390206200157e620028a4565b62001ce5565b620015db576040517f08c379a000000000000000000000000000000000000000000000000000000000815260040180806020018281038252602c8152602001806200d545602c913960400191505060405180910390fd5b6000879050620015f5620015ee620028a4565b8962002ce7565b6200164c576040517f08c379a00000000000000000000000000000000000000000000000000000000081526004018080602001828103825260358152602001806200d48b6035913960400191505060405180910390fd5b60038173ffffffffffffffffffffffffffffffffffffffff16636587b61e6040518163ffffffff1660e01b815260040160206040518083038186803b1580156200169557600080fd5b505afa158015620016aa573d6000803e3d6000fd5b505050506040513d6020811015620016c157600080fd5b8101908080519060200190929190505050146200172a576040517f08c379a00000000000000000000000000000000000000000000000000000000081526004018080602001828103825260298152602001806200d5716029913960400191505060405180910390fd5b620017c762001738620028a4565b73ffffffffffffffffffffffffffffffffffffffff16638da5cb5b6040518163ffffffff1660e01b815260040160206040518083038186803b1580156200177e57600080fd5b505afa15801562001793573d6000803e3d6000fd5b505050506040513d6020811015620017aa57600080fd5b810190808051906020019092919050505088888888888862002e09565b5050505050505050565b620017db620028a4565b73ffffffffffffffffffffffffffffffffffffffff166000809054906101000a900473ffffffffffffffffffffffffffffffffffffffff1673ffffffffffffffffffffffffffffffffffffffff16146200189d576040517f08c379a00000000000000000000000000000000000000000000000000000000081526004018080602001828103825260208152602001807f4f776e61626c653a2063616c6c6572206973206e6f7420746865206f776e657281525060200191505060405180910390fd5b600073ffffffffffffffffffffffffffffffffffffffff166000809054906101000a900473ffffffffffffffffffffffffffffffffffffffff1673ffffffffffffffffffffffffffffffffffffffff167f8be0079c531659141344cd1fd0a4f28419497f9722a3daafe3b4186f6b6457e060405160405180910390a360008060006101000a81548173ffffffffffffffffffffffffffffffffffffffff021916908373ffffffffffffffffffffffffffffffffffffffff160217905550565b60405180807f434c4153534c4953545f41444d494e5f524f4c450000000000000000000000008152506014019050604051809103902081565b6000620019d860405180807f434c415353524f4f4d5f524f4c45000000000000000000000000000000000000815250600e01905060405180910390208362001ce5565b9050919050565b62001a2960405180807f434c415353524f4f4d5f524f4c45000000000000000000000000000000000000815250600e019050604051809103902062001a23620028a4565b62001ce5565b62001a80576040517f08c379a000000000000000000000000000000000000000000000000000000000815260040180806020018281038252602e8152602001806200d59a602e913960400191505060405180910390fd5b8173ffffffffffffffffffffffffffffffffffffffff1663aa4f38c7826040518263ffffffff1660e01b8152600401808260030b60030b8152602001915050600060405180830381600087803b15801562001ada57600080fd5b505af115801562001aef573d6000803e3d6000fd5b505050505050565b62001b01620028a4565b73ffffffffffffffffffffffffffffffffffffffff166000809054906101000a900473ffffffffffffffffffffffffffffffffffffffff1673ffffffffffffffffffffffffffffffffffffffff161462001bc3576040517f08c379a00000000000000000000000000000000000000000000000000000000081526004018080602001828103825260208152602001807f4f776e61626c653a2063616c6c6572206973206e6f7420746865206f776e657281525060200191505060405180910390fd5b8060028190555050565b60008060009054906101000a900473ffffffffffffffffffffffffffffffffffffffff16905090565b600062001c2282600160008681526020019081526020016000206000016200315290919063ffffffff16565b905092915050565b62001c7460405180807f434c4153534c4953545f41444d494e5f524f4c450000000000000000000000008152506014019050604051809103902062001c6e620028a4565b62001ce5565b62001ccb576040517f08c379a00000000000000000000000000000000000000000000000000000000081526004018080602001828103825260348152602001806200d4c06034913960400191505060405180910390fd5b62001cdc8787878787878762002e09565b50505050505050565b600062001d1182600160008681526020019081526020016000206000016200316e90919063ffffffff16565b905092915050565b60405180807f524541445f53545544454e545f4c4953545f524f4c45000000000000000000008152506016019050604051809103902081565b6000801b81565b600960009054906101000a900473ffffffffffffffffffffffffffffffffffffffff1681565b62001dc960405180807f46554e44535f4d414e414745525f524f4c4500000000000000000000000000008152506012019050604051809103902062001dc3620028a4565b62001ce5565b62001e20576040517f08c379a00000000000000000000000000000000000000000000000000000000081526004018080602001828103825260328152602001806200d4336032913960400191505060405180910390fd5b600960009054906101000a900473ffffffffffffffffffffffffffffffffffffffff1673ffffffffffffffffffffffffffffffffffffffff1663095ea7b3600860009054906101000a900473ffffffffffffffffffffffffffffffffffffffff16836040518363ffffffff1660e01b8152600401808373ffffffffffffffffffffffffffffffffffffffff1673ffffffffffffffffffffffffffffffffffffffff16815260200182815260200192505050602060405180830381600087803b15801562001eec57600080fd5b505af115801562001f01573d6000803e3d6000fd5b505050506040513d602081101562001f1857600080fd5b810190808051906020019092919050505050600860009054906101000a900473ffffffffffffffffffffffffffffffffffffffff1673ffffffffffffffffffffffffffffffffffffffff1663a0712d68826040518263ffffffff1660e01b815260040180828152602001915050602060405180830381600087803b15801562001fa057600080fd5b505af115801562001fb5573d6000803e3d6000fd5b505050506040513d602081101562001fcc57600080fd5b81019080805190602001909291905050505050565b6200202b60405180807f46554e44535f4d414e414745525f524f4c4500000000000000000000000000008152506012019050604051809103902062002025620028a4565b62001ce5565b62002082576040517f08c379a00000000000000000000000000000000000000000000000000000000081526004018080602001828103825260328152602001806200d4336032913960400191505060405180910390fd5b600960009054906101000a900473ffffffffffffffffffffffffffffffffffffffff1673ffffffffffffffffffffffffffffffffffffffff1663095ea7b383836040518363ffffffff1660e01b8152600401808373ffffffffffffffffffffffffffffffffffffffff1673ffffffffffffffffffffffffffffffffffffffff16815260200182815260200192505050602060405180830381600087803b1580156200212c57600080fd5b505af115801562002141573d6000803e3d6000fd5b505050506040513d60208110156200215857600080fd5b8101908080519060200190929190505050505050565b60405180807f46554e44535f4d414e414745525f524f4c4500000000000000000000000000008152506012019050604051809103902081565b6000620021c960016000848152602001908152602001600020600001620031a0565b9050919050565b6060620021dc620028a4565b73ffffffffffffffffffffffffffffffffffffffff168273ffffffffffffffffffffffffffffffffffffffff1614806200225c57506200225b60405180807f4752414e54535f4d414e414745525f524f4c45000000000000000000000000008152506013019050604051809103902062002255620028a4565b62001ce5565b5b620022b3576040517f08c379a00000000000000000000000000000000000000000000000000000000081526004018080602001828103825260218152602001806200d4f46021913960400191505060405180910390fd5b600660008373ffffffffffffffffffffffffffffffffffffffff1673ffffffffffffffffffffffffffffffffffffffff1681526020019081526020016000208054806020026020016040519081016040528092919081815260200182805480156200237457602002820191906000526020600020905b8160009054906101000a900473ffffffffffffffffffffffffffffffffffffffff1673ffffffffffffffffffffffffffffffffffffffff168152602001906001019080831162002329575b50505050509050919050565b620023ab6001600084815260200190815260200160002060020154620023a5620028a4565b62001ce5565b62002402576040517f08c379a00000000000000000000000000000000000000000000000000000000081526004018080602001828103825260308152602001806200d5156030913960400191505060405180910390fd5b6200240e828262002945565b5050565b62002436828262030d406207a12060006802b5e3af16b188000062278d0062001c2a565b5050565b6000600360009054906101000a900462ffffff16905090565b6200245d620028a4565b73ffffffffffffffffffffffffffffffffffffffff166000809054906101000a900473ffffffffffffffffffffffffffffffffffffffff1673ffffffffffffffffffffffffffffffffffffffff16146200251f576040517f08c379a00000000000000000000000000000000000000000000000000000000081526004018080602001828103825260208152602001807f4f776e61626c653a2063616c6c6572206973206e6f7420746865206f776e657281525060200191505060405180910390fd5b80600360006101000a81548162ffffff021916908362ffffff16021790555050565b6200254b620028a4565b73ffffffffffffffffffffffffffffffffffffffff166000809054906101000a900473ffffffffffffffffffffffffffffffffffffffff1673ffffffffffffffffffffffffffffffffffffffff16146200260d576040517f08c379a00000000000000000000000000000000000000000000000000000000081526004018080602001828103825260208152602001807f4f776e61626c653a2063616c6c6572206973206e6f7420746865206f776e657281525060200191505060405180910390fd5b600073ffffffffffffffffffffffffffffffffffffffff168173ffffffffffffffffffffffffffffffffffffffff16141562002695576040517f08c379a00000000000000000000000000000000000000000000000000000000081526004018080602001828103825260268152602001806200d40d6026913960400191505060405180910390fd5b8073ffffffffffffffffffffffffffffffffffffffff166000809054906101000a900473ffffffffffffffffffffffffffffffffffffffff1673ffffffffffffffffffffffffffffffffffffffff167f8be0079c531659141344cd1fd0a4f28419497f9722a3daafe3b4186f6b6457e060405160405180910390a3806000806101000a81548173ffffffffffffffffffffffffffffffffffffffff021916908373ffffffffffffffffffffffffffffffffffffffff16021790555050565b60405180807f53545544454e545f524f4c450000000000000000000000000000000000000000815250600c019050604051809103902081565b620027d660405180807f434c415353524f4f4d5f524f4c45000000000000000000000000000000000000815250600e0190506040518091039020620027d0620028a4565b62001ce5565b6200282d576040517f08c379a000000000000000000000000000000000000000000000000000000000815260040180806020018281038252602e8152602001806200d59a602e913960400191505060405180910390fd5b8173ffffffffffffffffffffffffffffffffffffffff166368651350826040518263ffffffff1660e01b8152600401808260030b60030b8152602001915050600060405180830381600087803b1580156200288757600080fd5b505af11580156200289c573d6000803e3d6000fd5b505050505050565b600033905090565b620028d68160016000858152602001908152602001600020600001620031b790919063ffffffff16565b156200294157620028e6620028a4565b73ffffffffffffffffffffffffffffffffffffffff168173ffffffffffffffffffffffffffffffffffffffff16837f2f8788117e7eff1d82e926ec794901d17c78024a50270940304540a733656f0d60405160405180910390a45b5050565b6200296f8160016000858152602001908152602001600020600001620031e990919063ffffffff16565b15620029da576200297f620028a4565b73ffffffffffffffffffffffffffffffffffffffff168173ffffffffffffffffffffffffffffffffffffffff16837ff6391f5c32d9c69d2a47ea670b442974b53935d1edc7fd64eb21e047a839171b60405160405180910390a45b5050565b600060066000620029ee620028a4565b73ffffffffffffffffffffffffffffffffffffffff1673ffffffffffffffffffffffffffffffffffffffff168152602001908152602001600020805490501462002a84576040517f08c379a00000000000000000000000000000000000000000000000000000000081526004018080602001828103825260268152602001806200d4656026913960400191505060405180910390fd5b6006600062002a92620028a4565b73ffffffffffffffffffffffffffffffffffffffff1673ffffffffffffffffffffffffffffffffffffffff16815260200190815260200160002060009080600181540180825580915050600190039060005260206000200160009091909190916101000a81548173ffffffffffffffffffffffffffffffffffffffff021916908373ffffffffffffffffffffffffffffffffffffffff1602179055506000813060405162002b409062003436565b808381526020018273ffffffffffffffffffffffffffffffffffffffff1673ffffffffffffffffffffffffffffffffffffffff16815260200192505050604051809103906000f08015801562002b9a573d6000803e3d6000fd5b5090508073ffffffffffffffffffffffffffffffffffffffff1663f2fde38b62002bc3620028a4565b6040518263ffffffff1660e01b8152600401808273ffffffffffffffffffffffffffffffffffffffff1673ffffffffffffffffffffffffffffffffffffffff168152602001915050600060405180830381600087803b15801562002c2657600080fd5b505af115801562002c3b573d6000803e3d6000fd5b505050506005819080600181540180825580915050600190039060005260206000200160009091909190916101000a81548173ffffffffffffffffffffffffffffffffffffffff021916908373ffffffffffffffffffffffffffffffffffffffff16021790555062002ce360405180807f53545544454e545f524f4c450000000000000000000000000000000000000000815250600c01905060405180910390208262000fd3565b5050565b600080600090505b600660008573ffffffffffffffffffffffffffffffffffffffff1673ffffffffffffffffffffffffffffffffffffffff1681526020019081526020016000208054905081101562002dfd578273ffffffffffffffffffffffffffffffffffffffff16600660008673ffffffffffffffffffffffffffffffffffffffff1673ffffffffffffffffffffffffffffffffffffffff168152602001908152602001600020828154811062002d9c57fe5b9060005260206000200160009054906101000a900473ffffffffffffffffffffffffffffffffffffffff1673ffffffffffffffffffffffffffffffffffffffff16141562002def57600191505062002e03565b808060010191505062002cef565b50600090505b92915050565b600086868686868630600960009054906101000a900473ffffffffffffffffffffffffffffffffffffffff16600860009054906101000a900473ffffffffffffffffffffffffffffffffffffffff1660405162002e669062003444565b808a81526020018962ffffff1662ffffff1681526020018862ffffff1662ffffff1681526020018760030b60030b81526020018681526020018581526020018473ffffffffffffffffffffffffffffffffffffffff1673ffffffffffffffffffffffffffffffffffffffff1681526020018373ffffffffffffffffffffffffffffffffffffffff1673ffffffffffffffffffffffffffffffffffffffff1681526020018273ffffffffffffffffffffffffffffffffffffffff1673ffffffffffffffffffffffffffffffffffffffff1681526020019950505050505050505050604051809103906000f08015801562002f63573d6000803e3d6000fd5b5090508073ffffffffffffffffffffffffffffffffffffffff1663f2fde38b896040518263ffffffff1660e01b8152600401808273ffffffffffffffffffffffffffffffffffffffff1673ffffffffffffffffffffffffffffffffffffffff168152602001915050600060405180830381600087803b15801562002fe657600080fd5b505af115801562002ffb573d6000803e3d6000fd5b505050506004819080600181540180825580915050600190039060005260206000200160009091909190916101000a81548173ffffffffffffffffffffffffffffffffffffffff021916908373ffffffffffffffffffffffffffffffffffffffff160217905550620030a360405180807f524541445f53545544454e545f4c4953545f524f4c4500000000000000000000815250601601905060405180910390208262000fd3565b620030e460405180807f434c415353524f4f4d5f524f4c45000000000000000000000000000000000000815250600e01905060405180910390208262000fd3565b867f95e797cd40bf765fc0b9a9d62d83af0d354c4623daa5af289bc0be607a4712fa82604051808273ffffffffffffffffffffffffffffffffffffffff1673ffffffffffffffffffffffffffffffffffffffff16815260200191505060405180910390a25050505050505050565b60006200316383600001836200321b565b60001c905092915050565b600062003198836000018373ffffffffffffffffffffffffffffffffffffffff1660001b620032a1565b905092915050565b6000620031b082600001620032c4565b9050919050565b6000620031e1836000018373ffffffffffffffffffffffffffffffffffffffff1660001b620032d5565b905092915050565b600062003213836000018373ffffffffffffffffffffffffffffffffffffffff1660001b62003349565b905092915050565b6000818360000180549050116200327e576040517f08c379a00000000000000000000000000000000000000000000000000000000081526004018080602001828103825260228152602001806200d3866022913960400191505060405180910390fd5b8260000182815481106200328e57fe5b9060005260206000200154905092915050565b600080836001016000848152602001908152602001600020541415905092915050565b600081600001805490509050919050565b6000620032e38383620032a1565b6200333e57826000018290806001815401808255809150506001900390600052602060002001600090919091909150558260000180549050836001016000848152602001908152602001600020819055506001905062003343565b600090505b92915050565b600080836001016000848152602001908152602001600020549050600081146200342a57600060018203905060006001866000018054905003905060008660000182815481106200339657fe5b9060005260206000200154905080876000018481548110620033b457fe5b9060005260206000200181905550600183018760010160008381526020019081526020016000208190555086600001805480620033ed57fe5b6001900381819060005260206000200160009055905586600101600087815260200190815260200160002060009055600194505050505062003430565b60009150505b92915050565b612d70806200345383390190565b6171c380620061c38339019056fe60806040523480156200001157600080fd5b5060405162002d7038038062002d70833981810160405260408110156200003757600080fd5b810190808051906020019092919080519060200190929190505050600062000064620002fc60201b60201c565b9050806000806101000a81548173ffffffffffffffffffffffffffffffffffffffff021916908373ffffffffffffffffffffffffffffffffffffffff1602179055508073ffffffffffffffffffffffffffffffffffffffff16600073ffffffffffffffffffffffffffffffffffffffff167f8be0079c531659141344cd1fd0a4f28419497f9722a3daafe3b4186f6b6457e060405160405180910390a350816002819055506000600560006101000a81548163ffffffff021916908360030b63ffffffff16021790555080600360006101000a81548173ffffffffffffffffffffffffffffffffffffffff021916908373ffffffffffffffffffffffffffffffffffffffff160217905550620001936000801b62000187620002fc60201b60201c565b6200030460201b60201c565b620001e960405180807f524541445f53434f52455f524f4c450000000000000000000000000000000000815250600f0190506040518091039020620001dd620002fc60201b60201c565b6200031a60201b60201c565b6200023060405180807f4d4f444946595f53434f52455f524f4c4500000000000000000000000000000081525060110190506040518091039020826200031a60201b60201c565b8073ffffffffffffffffffffffffffffffffffffffff1662000257620002fc60201b60201c565b73ffffffffffffffffffffffffffffffffffffffff1614620002f457620002ba60405180807f524541445f53434f52455f524f4c450000000000000000000000000000000000815250600f0190506040518091039020826200031a60201b60201c565b620002cf6000801b826200031a60201b60201c565b620002f36000801b620002e7620002fc60201b60201c565b620003be60201b60201c565b5b50506200081c565b600033905090565b6200031682826200046960201b60201c565b5050565b62000351600160008481526020019081526020016000206002015462000345620002fc60201b60201c565b6200050d60201b60201c565b620003a8576040517f08c379a000000000000000000000000000000000000000000000000000000000815260040180806020018281038252602f81526020018062002d12602f913960400191505060405180910390fd5b620003ba82826200046960201b60201c565b5050565b620003ce620002fc60201b60201c565b73ffffffffffffffffffffffffffffffffffffffff168173ffffffffffffffffffffffffffffffffffffffff161462000453576040517f08c379a000000000000000000000000000000000000000000000000000000000815260040180806020018281038252602f81526020018062002d41602f913960400191505060405180910390fd5b6200046582826200054660201b60201c565b5050565b620004988160016000858152602001908152602001600020600001620005ea60201b620020e81790919060201c565b156200050957620004ae620002fc60201b60201c565b73ffffffffffffffffffffffffffffffffffffffff168173ffffffffffffffffffffffffffffffffffffffff16837f2f8788117e7eff1d82e926ec794901d17c78024a50270940304540a733656f0d60405160405180910390a45b5050565b60006200053e82600160008681526020019081526020016000206000016200062260201b620020a31790919060201c565b905092915050565b6200057581600160008581526020019081526020016000206000016200065a60201b620021181790919060201c565b15620005e6576200058b620002fc60201b60201c565b73ffffffffffffffffffffffffffffffffffffffff168173ffffffffffffffffffffffffffffffffffffffff16837ff6391f5c32d9c69d2a47ea670b442974b53935d1edc7fd64eb21e047a839171b60405160405180910390a45b5050565b60006200061a836000018373ffffffffffffffffffffffffffffffffffffffff1660001b6200069260201b60201c565b905092915050565b600062000652836000018373ffffffffffffffffffffffffffffffffffffffff1660001b6200070c60201b60201c565b905092915050565b60006200068a836000018373ffffffffffffffffffffffffffffffffffffffff1660001b6200072f60201b60201c565b905092915050565b6000620006a683836200070c60201b60201c565b6200070157826000018290806001815401808255809150506001900390600052602060002001600090919091909150558260000180549050836001016000848152602001908152602001600020819055506001905062000706565b600090505b92915050565b600080836001016000848152602001908152602001600020541415905092915050565b600080836001016000848152602001908152602001600020549050600081146200081057600060018203905060006001866000018054905003905060008660000182815481106200077c57fe5b90600052602060002001549050808760000184815481106200079a57fe5b9060005260206000200181905550600183018760010160008381526020019081526020016000208190555086600001805480620007d357fe5b6001900381819060005260206000200160009055905586600101600087815260200190815260200160002060009055600194505050505062000816565b60009150505b92915050565b6124e6806200082c6000396000f3fe608060405234801561001057600080fd5b50600436106101a95760003560e01c80638da5cb5b116100f9578063be22f54611610097578063d547741f11610071578063d547741f146107b7578063db4d5e8714610805578063efedc66914610869578063f2fde38b1461088d576101a9565b8063be22f5461461069e578063be812489146106e8578063ca15c87314610775576101a9565b80639fcb17de116100d35780639fcb17de14610573578063a217fddf146105e1578063aa4f38c7146105ff578063ba6019d314610630576101a9565b80638da5cb5b1461044b5780639010d07c1461049557806391d148541461050d576101a9565b806331fb5fde1161016657806369e527da1161014057806369e527da146103ab578063715018a6146103f55780637206f3d6146103ff578063898855ed1461041d576101a9565b806331fb5fde146102e857806336568abe1461032c578063686513501461037a576101a9565b806306fdde03146101ae5780631b99219f146101cc578063222baa3a146101ea578063248a9ca3146101f4578063295869be146102365780632f2ff15d1461029a575b600080fd5b6101b66108d1565b6040518082815260200191505060405180910390f35b6101d46108db565b6040518082815260200191505060405180910390f35b6101f2610914565b005b6102206004803603602081101561020a57600080fd5b8101908080359060200190929190505050610a01565b6040518082815260200191505060405180910390f35b6102986004803603604081101561024c57600080fd5b81019080803573ffffffffffffffffffffffffffffffffffffffff169060200190929190803573ffffffffffffffffffffffffffffffffffffffff169060200190929190505050610a21565b005b6102e6600480360360408110156102b057600080fd5b8101908080359060200190929190803573ffffffffffffffffffffffffffffffffffffffff169060200190929190505050610b78565b005b61032a600480360360208110156102fe57600080fd5b81019080803573ffffffffffffffffffffffffffffffffffffffff169060200190929190505050610c02565b005b6103786004803603604081101561034257600080fd5b8101908080359060200190929190803573ffffffffffffffffffffffffffffffffffffffff169060200190929190505050610eff565b005b6103a96004803603602081101561039057600080fd5b81019080803560030b9060200190929190505050610f98565b005b6103b3611107565b604051808273ffffffffffffffffffffffffffffffffffffffff1673ffffffffffffffffffffffffffffffffffffffff16815260200191505060405180910390f35b6103fd61112d565b005b6104076112b5565b6040518082815260200191505060405180910390f35b6104496004803603602081101561043357600080fd5b81019080803590602001909291905050506112ee565b005b6104536113c1565b604051808273ffffffffffffffffffffffffffffffffffffffff1673ffffffffffffffffffffffffffffffffffffffff16815260200191505060405180910390f35b6104cb600480360360408110156104ab57600080fd5b8101908080359060200190929190803590602001909291905050506113ea565b604051808273ffffffffffffffffffffffffffffffffffffffff1673ffffffffffffffffffffffffffffffffffffffff16815260200191505060405180910390f35b6105596004803603604081101561052357600080fd5b8101908080359060200190929190803573ffffffffffffffffffffffffffffffffffffffff16906020019092919050505061141c565b604051808215151515815260200191505060405180910390f35b6105df6004803603606081101561058957600080fd5b81019080803573ffffffffffffffffffffffffffffffffffffffff169060200190929190803573ffffffffffffffffffffffffffffffffffffffff1690602001909291908035906020019092919050505061144e565b005b6105e96115bb565b6040518082815260200191505060405180910390f35b61062e6004803603602081101561061557600080fd5b81019080803560030b90602001909291905050506115c2565b005b61069c6004803603606081101561064657600080fd5b81019080803573ffffffffffffffffffffffffffffffffffffffff169060200190929190803573ffffffffffffffffffffffffffffffffffffffff16906020019092919080359060200190929190505050611731565b005b6106a661188a565b604051808273ffffffffffffffffffffffffffffffffffffffff1673ffffffffffffffffffffffffffffffffffffffff16815260200191505060405180910390f35b610773600480360360e08110156106fe57600080fd5b81019080803573ffffffffffffffffffffffffffffffffffffffff16906020019092919080359060200190929190803562ffffff169060200190929190803562ffffff169060200190929190803560030b906020019092919080359060200190929190803590602001909291905050506118b0565b005b6107a16004803603602081101561078b57600080fd5b8101908080359060200190929190505050611a85565b6040518082815260200191505060405180910390f35b610803600480360360408110156107cd57600080fd5b8101908080359060200190929190803573ffffffffffffffffffffffffffffffffffffffff169060200190929190505050611aac565b005b6108676004803603604081101561081b57600080fd5b81019080803573ffffffffffffffffffffffffffffffffffffffff169060200190929190803573ffffffffffffffffffffffffffffffffffffffff169060200190929190505050611b36565b005b610871611c9a565b604051808260030b60030b815260200191505060405180910390f35b6108cf600480360360208110156108a357600080fd5b81019080803573ffffffffffffffffffffffffffffffffffffffff169060200190929190505050611d4c565b005b6000600254905090565b60405180807f524541445f53434f52455f524f4c450000000000000000000000000000000000815250600f019050604051809103902081565b60008090505b6004805490508110156109fe5761092f611f59565b73ffffffffffffffffffffffffffffffffffffffff166004828154811061095257fe5b9060005260206000200160009054906101000a900473ffffffffffffffffffffffffffffffffffffffff1673ffffffffffffffffffffffffffffffffffffffff1614156109f1576000600482815481106109a857fe5b9060005260206000200160006101000a81548173ffffffffffffffffffffffffffffffffffffffff021916908373ffffffffffffffffffffffffffffffffffffffff1602179055505b808060010191505061091a565b50565b600060016000838152602001908152602001600020600201549050919050565b610a29611f59565b73ffffffffffffffffffffffffffffffffffffffff166000809054906101000a900473ffffffffffffffffffffffffffffffffffffffff1673ffffffffffffffffffffffffffffffffffffffff1614610aea576040517f08c379a00000000000000000000000000000000000000000000000000000000081526004018080602001828103825260208152602001807f4f776e61626c653a2063616c6c6572206973206e6f7420746865206f776e657281525060200191505060405180910390fd5b610b748273ffffffffffffffffffffffffffffffffffffffff16636e8055a76040518163ffffffff1660e01b815260040160206040518083038186803b158015610b3357600080fd5b505afa158015610b47573d6000803e3d6000fd5b505050506040513d6020811015610b5d57600080fd5b810190808051906020019092919050505082611b36565b5050565b610b9f6001600084815260200190815260200160002060020154610b9a611f59565b61141c565b610bf4576040517f08c379a000000000000000000000000000000000000000000000000000000000815260040180806020018281038252602f81526020018061237a602f913960400191505060405180910390fd5b610bfe8282611f61565b5050565b610c0a611f59565b73ffffffffffffffffffffffffffffffffffffffff166000809054906101000a900473ffffffffffffffffffffffffffffffffffffffff1673ffffffffffffffffffffffffffffffffffffffff1614610ccb576040517f08c379a00000000000000000000000000000000000000000000000000000000081526004018080602001828103825260208152602001807f4f776e61626c653a2063616c6c6572206973206e6f7420746865206f776e657281525060200191505060405180910390fd5b600360009054906101000a900473ffffffffffffffffffffffffffffffffffffffff1673ffffffffffffffffffffffffffffffffffffffff166385dade61826040518263ffffffff1660e01b8152600401808273ffffffffffffffffffffffffffffffffffffffff1673ffffffffffffffffffffffffffffffffffffffff16815260200191505060206040518083038186803b158015610d6a57600080fd5b505afa158015610d7e573d6000803e3d6000fd5b505050506040513d6020811015610d9457600080fd5b8101908080519060200190929190505050610dfa576040517f08c379a00000000000000000000000000000000000000000000000000000000081526004018080602001828103825260298152602001806124886029913960400191505060405180910390fd5b610e3960405180807f524541445f53434f52455f524f4c450000000000000000000000000000000000815250600f019050604051809103902082610b78565b8073ffffffffffffffffffffffffffffffffffffffff16631b9dbc606040518163ffffffff1660e01b8152600401600060405180830381600087803b158015610e8157600080fd5b505af1158015610e95573d6000803e3d6000fd5b505050506004819080600181540180825580915050600190039060005260206000200160009091909190916101000a81548173ffffffffffffffffffffffffffffffffffffffff021916908373ffffffffffffffffffffffffffffffffffffffff16021790555050565b610f07611f59565b73ffffffffffffffffffffffffffffffffffffffff168173ffffffffffffffffffffffffffffffffffffffff1614610f8a576040517f08c379a000000000000000000000000000000000000000000000000000000000815260040180806020018281038252602f815260200180612459602f913960400191505060405180910390fd5b610f948282611ff5565b5050565b610fde60405180807f4d4f444946595f53434f52455f524f4c4500000000000000000000000000000081525060110190506040518091039020610fd9611f59565b61141c565b611033576040517f08c379a000000000000000000000000000000000000000000000000000000000815260040180806020018281038252602e8152602001806123a9602e913960400191505060405180910390fd5b80600560009054906101000a900460030b0360030b600560009054906101000a900460030b60030b136110ce576040517f08c379a000000000000000000000000000000000000000000000000000000000815260040180806020018281038252601c8152602001807f53747564656e743a2062616420677261646573206f766572666c6f770000000081525060200191505060405180910390fd5b80600560008282829054906101000a900460030b0392506101000a81548163ffffffff021916908360030b63ffffffff16021790555050565b600660009054906101000a900473ffffffffffffffffffffffffffffffffffffffff1681565b611135611f59565b73ffffffffffffffffffffffffffffffffffffffff166000809054906101000a900473ffffffffffffffffffffffffffffffffffffffff1673ffffffffffffffffffffffffffffffffffffffff16146111f6576040517f08c379a00000000000000000000000000000000000000000000000000000000081526004018080602001828103825260208152602001807f4f776e61626c653a2063616c6c6572206973206e6f7420746865206f776e657281525060200191505060405180910390fd5b600073ffffffffffffffffffffffffffffffffffffffff166000809054906101000a900473ffffffffffffffffffffffffffffffffffffffff1673ffffffffffffffffffffffffffffffffffffffff167f8be0079c531659141344cd1fd0a4f28419497f9722a3daafe3b4186f6b6457e060405160405180910390a360008060006101000a81548173ffffffffffffffffffffffffffffffffffffffff021916908373ffffffffffffffffffffffffffffffffffffffff160217905550565b60405180807f4d4f444946595f53434f52455f524f4c450000000000000000000000000000008152506011019050604051809103902081565b6112f6611f59565b73ffffffffffffffffffffffffffffffffffffffff166000809054906101000a900473ffffffffffffffffffffffffffffffffffffffff1673ffffffffffffffffffffffffffffffffffffffff16146113b7576040517f08c379a00000000000000000000000000000000000000000000000000000000081526004018080602001828103825260208152602001807f4f776e61626c653a2063616c6c6572206973206e6f7420746865206f776e657281525060200191505060405180910390fd5b8060028190555050565b60008060009054906101000a900473ffffffffffffffffffffffffffffffffffffffff16905090565b6000611414826001600086815260200190815260200160002060000161208990919063ffffffff16565b905092915050565b600061144682600160008681526020019081526020016000206000016120a390919063ffffffff16565b905092915050565b611456611f59565b73ffffffffffffffffffffffffffffffffffffffff166000809054906101000a900473ffffffffffffffffffffffffffffffffffffffff1673ffffffffffffffffffffffffffffffffffffffff1614611517576040517f08c379a00000000000000000000000000000000000000000000000000000000081526004018080602001828103825260208152602001807f4f776e61626c653a2063616c6c6572206973206e6f7420746865206f776e657281525060200191505060405180910390fd5b8273ffffffffffffffffffffffffffffffffffffffff16633db0bfd283836040518363ffffffff1660e01b8152600401808373ffffffffffffffffffffffffffffffffffffffff1673ffffffffffffffffffffffffffffffffffffffff16815260200182815260200192505050600060405180830381600087803b15801561159e57600080fd5b505af11580156115b2573d6000803e3d6000fd5b50505050505050565b6000801b81565b61160860405180807f4d4f444946595f53434f52455f524f4c4500000000000000000000000000000081525060110190506040518091039020611603611f59565b61141c565b61165d576040517f08c379a000000000000000000000000000000000000000000000000000000000815260040180806020018281038252602e8152602001806123a9602e913960400191505060405180910390fd5b80600560009054906101000a900460030b0160030b600560009054906101000a900460030b60030b126116f8576040517f08c379a000000000000000000000000000000000000000000000000000000000815260040180806020018281038252601d8152602001807f53747564656e743a20676f6f6420677261646573206f766572666c6f7700000081525060200191505060405180910390fd5b80600560008282829054906101000a900460030b0192506101000a81548163ffffffff021916908360030b63ffffffff16021790555050565b611739611f59565b73ffffffffffffffffffffffffffffffffffffffff166000809054906101000a900473ffffffffffffffffffffffffffffffffffffffff1673ffffffffffffffffffffffffffffffffffffffff16146117fa576040517f08c379a00000000000000000000000000000000000000000000000000000000081526004018080602001828103825260208152602001807f4f776e61626c653a2063616c6c6572206973206e6f7420746865206f776e657281525060200191505060405180910390fd5b6118858373ffffffffffffffffffffffffffffffffffffffff16636e8055a76040518163ffffffff1660e01b815260040160206040518083038186803b15801561184357600080fd5b505afa158015611857573d6000803e3d6000fd5b505050506040513d602081101561186d57600080fd5b8101908080519060200190929190505050838361144e565b505050565b600560049054906101000a900473ffffffffffffffffffffffffffffffffffffffff1681565b6118b8611f59565b73ffffffffffffffffffffffffffffffffffffffff166000809054906101000a900473ffffffffffffffffffffffffffffffffffffffff1673ffffffffffffffffffffffffffffffffffffffff1614611979576040517f08c379a00000000000000000000000000000000000000000000000000000000081526004018080602001828103825260208152602001807f4f776e61626c653a2063616c6c6572206973206e6f7420746865206f776e657281525060200191505060405180910390fd5b600360009054906101000a900473ffffffffffffffffffffffffffffffffffffffff1673ffffffffffffffffffffffffffffffffffffffff16636d36f22c888888888888886040518863ffffffff1660e01b8152600401808873ffffffffffffffffffffffffffffffffffffffff1673ffffffffffffffffffffffffffffffffffffffff1681526020018781526020018662ffffff1662ffffff1681526020018562ffffff1662ffffff1681526020018460030b60030b8152602001838152602001828152602001975050505050505050600060405180830381600087803b158015611a6457600080fd5b505af1158015611a78573d6000803e3d6000fd5b5050505050505050505050565b6000611aa5600160008481526020019081526020016000206000016120d3565b9050919050565b611ad36001600084815260200190815260200160002060020154611ace611f59565b61141c565b611b28576040517f08c379a00000000000000000000000000000000000000000000000000000000081526004018080602001828103825260308152602001806124296030913960400191505060405180910390fd5b611b328282611ff5565b5050565b611b3e611f59565b73ffffffffffffffffffffffffffffffffffffffff166000809054906101000a900473ffffffffffffffffffffffffffffffffffffffff1673ffffffffffffffffffffffffffffffffffffffff1614611bff576040517f08c379a00000000000000000000000000000000000000000000000000000000081526004018080602001828103825260208152602001807f4f776e61626c653a2063616c6c6572206973206e6f7420746865206f776e657281525060200191505060405180910390fd5b8173ffffffffffffffffffffffffffffffffffffffff166366995a46826040518263ffffffff1660e01b8152600401808273ffffffffffffffffffffffffffffffffffffffff1673ffffffffffffffffffffffffffffffffffffffff168152602001915050600060405180830381600087803b158015611c7e57600080fd5b505af1158015611c92573d6000803e3d6000fd5b505050505050565b6000611ce260405180807f524541445f53434f52455f524f4c450000000000000000000000000000000000815250600f0190506040518091039020611cdd611f59565b61141c565b611d37576040517f08c379a000000000000000000000000000000000000000000000000000000000815260040180806020018281038252602c8152602001806123fd602c913960400191505060405180910390fd5b600560009054906101000a900460030b905090565b611d54611f59565b73ffffffffffffffffffffffffffffffffffffffff166000809054906101000a900473ffffffffffffffffffffffffffffffffffffffff1673ffffffffffffffffffffffffffffffffffffffff1614611e15576040517f08c379a00000000000000000000000000000000000000000000000000000000081526004018080602001828103825260208152602001807f4f776e61626c653a2063616c6c6572206973206e6f7420746865206f776e657281525060200191505060405180910390fd5b600073ffffffffffffffffffffffffffffffffffffffff168173ffffffffffffffffffffffffffffffffffffffff161415611e9b576040517f08c379a00000000000000000000000000000000000000000000000000000000081526004018080602001828103825260268152602001806123d76026913960400191505060405180910390fd5b8073ffffffffffffffffffffffffffffffffffffffff166000809054906101000a900473ffffffffffffffffffffffffffffffffffffffff1673ffffffffffffffffffffffffffffffffffffffff167f8be0079c531659141344cd1fd0a4f28419497f9722a3daafe3b4186f6b6457e060405160405180910390a3806000806101000a81548173ffffffffffffffffffffffffffffffffffffffff021916908373ffffffffffffffffffffffffffffffffffffffff16021790555050565b600033905090565b611f8981600160008581526020019081526020016000206000016120e890919063ffffffff16565b15611ff157611f96611f59565b73ffffffffffffffffffffffffffffffffffffffff168173ffffffffffffffffffffffffffffffffffffffff16837f2f8788117e7eff1d82e926ec794901d17c78024a50270940304540a733656f0d60405160405180910390a45b5050565b61201d816001600085815260200190815260200160002060000161211890919063ffffffff16565b156120855761202a611f59565b73ffffffffffffffffffffffffffffffffffffffff168173ffffffffffffffffffffffffffffffffffffffff16837ff6391f5c32d9c69d2a47ea670b442974b53935d1edc7fd64eb21e047a839171b60405160405180910390a45b5050565b60006120988360000183612148565b60001c905092915050565b60006120cb836000018373ffffffffffffffffffffffffffffffffffffffff1660001b6121cb565b905092915050565b60006120e1826000016121ee565b9050919050565b6000612110836000018373ffffffffffffffffffffffffffffffffffffffff1660001b6121ff565b905092915050565b6000612140836000018373ffffffffffffffffffffffffffffffffffffffff1660001b61226f565b905092915050565b6000818360000180549050116121a9576040517f08c379a00000000000000000000000000000000000000000000000000000000081526004018080602001828103825260228152602001806123586022913960400191505060405180910390fd5b8260000182815481106121b857fe5b9060005260206000200154905092915050565b600080836001016000848152602001908152602001600020541415905092915050565b600081600001805490509050919050565b600061220b83836121cb565b612264578260000182908060018154018082558091505060019003906000526020600020016000909190919091505582600001805490508360010160008481526020019081526020016000208190555060019050612269565b600090505b92915050565b6000808360010160008481526020019081526020016000205490506000811461234b57600060018203905060006001866000018054905003905060008660000182815481106122ba57fe5b90600052602060002001549050808760000184815481106122d757fe5b906000526020600020018190555060018301876001016000838152602001908152602001600020819055508660000180548061230f57fe5b60019003818190600052602060002001600090559055866001016000878152602001908152602001600020600090556001945050505050612351565b60009150505b9291505056fe456e756d657261626c655365743a20696e646578206f7574206f6620626f756e6473416363657373436f6e74726f6c3a2073656e646572206d75737420626520616e2061646d696e20746f206772616e7453747564656e743a2063616c6c657220646f65736e27742068617665204d4f444946595f53434f52455f524f4c454f776e61626c653a206e6577206f776e657220697320746865207a65726f206164647265737353747564656e743a2063616c6c657220646f65736e2774206861766520524541445f53434f52455f524f4c45416363657373436f6e74726f6c3a2073656e646572206d75737420626520616e2061646d696e20746f207265766f6b65416363657373436f6e74726f6c3a2063616e206f6e6c792072656e6f756e636520726f6c657320666f722073656c6653747564656e743a2061646472657373206973206e6f7420612076616c696420636c617373726f6f6da2646970667358221220eb1571db704e7e21f5f473198f5d608ba01fcaef777a70c1fc06d1a0272cde9764736f6c63430006060033416363657373436f6e74726f6c3a2073656e646572206d75737420626520616e2061646d696e20746f206772616e74416363657373436f6e74726f6c3a2063616e206f6e6c792072656e6f756e636520726f6c657320666f722073656c6660806040523480156200001157600080fd5b50604051620071c3380380620071c383398181016040526101208110156200003857600080fd5b810190808051906020019092919080519060200190929190805190602001909291908051906020019092919080519060200190929190805190602001909291908051906020019092919080519060200190929190805190602001909291905050506000620000ab620002de60201b60201c565b9050806000806101000a81548173ffffffffffffffffffffffffffffffffffffffff021916908373ffffffffffffffffffffffffffffffffffffffff1602179055508073ffffffffffffffffffffffffffffffffffffffff16600073ffffffffffffffffffffffffffffffffffffffff167f8be0079c531659141344cd1fd0a4f28419497f9722a3daafe3b4186f6b6457e060405160405180910390a3508860098190555082600160006101000a81548173ffffffffffffffffffffffffffffffffffffffff021916908373ffffffffffffffffffffffffffffffffffffffff1602179055506000600160146101000a81548160ff02191690831515021790555087600a60006101000a81548162ffffff021916908362ffffff16021790555086600a60036101000a81548162ffffff021916908362ffffff16021790555085600a60066101000a81548163ffffffff021916908360030b63ffffffff16021790555084600b8190555083600c819055506000600f60146101000a81548160ff02191690831515021790555081600e60006101000a81548173ffffffffffffffffffffffffffffffffffffffff021916908373ffffffffffffffffffffffffffffffffffffffff16021790555080600f60006101000a81548173ffffffffffffffffffffffffffffffffffffffff021916908373ffffffffffffffffffffffffffffffffffffffff160217905550620002c9620002e660201b60201c565b600d819055505050505050505050506200030e565b600033905090565b60007f52414e444f4d0000000000000000000000000000000000000000000000000000905090565b616ea5806200031e6000396000f3fe60806040523480156200001157600080fd5b50600436106200022c5760003560e01c8063898855ed1162000135578063be22f54611620000bd578063e804f1641162000087578063e804f164146200070c578063f2fde38b1462000742578063f6be71d11462000789578063f745adfc14620007ba578063fc48258d14620007da576200022c565b8063be22f5461462000605578063db0735171462000651578063df55946a1462000675578063dfd78adc14620006a9576200022c565b8063aa055a4011620000ff578063aa055a4014620005bd578063ada02e1914620005c9578063adf45ef214620005d5578063bbe3b92614620005f9576200022c565b8063898855ed14620004eb5780638da5cb5b146200051c578063a46268a81462000568578063a6e77af1146200058c576200022c565b806369e527da11620001b957806376eada91116200018357806376eada9114620003f85780637c0260cb146200047f5780638155e977146200048b5780638646bcec14620004c1576200022c565b806369e527da14620002f157806369e7af43146200033d5780636e8055a714620003a0578063715018a614620003ec576200022c565b80633196002711620001fb5780633196002714620002a3578063431a16ef14620002af5780634c5e789314620002bb578063604d394314620002c7576200022c565b806306fdde0314620002315780630fb5a6b4146200025157806313c2bedc14620002715780631b9dbc601462000297575b600080fd5b6200023b620007fa565b6040518082815260200191505060405180910390f35b6200025b62000804565b6040518082815260200191505060405180910390f35b6200027b6200080e565b604051808260030b60030b815260200191505060405180910390f35b620002a162000825565b005b620002ad62000bf5565b005b620002b962000dd1565b005b620002c562000fa2565b005b620002d162001271565b604051808262ffffff1662ffffff16815260200191505060405180910390f35b620002fb6200128a565b604051808273ffffffffffffffffffffffffffffffffffffffff1673ffffffffffffffffffffffffffffffffffffffff16815260200191505060405180910390f35b62000347620012b0565b6040518080602001828103825283818151815260200191508051906020019060200280838360005b838110156200038c5780820151818401526020810190506200036f565b505050509050019250505060405180910390f35b620003aa6200140c565b604051808273ffffffffffffffffffffffffffffffffffffffff1673ffffffffffffffffffffffffffffffffffffffff16815260200191505060405180910390f35b620003f662001427565b005b6200043d600480360360208110156200041057600080fd5b81019080803573ffffffffffffffffffffffffffffffffffffffff169060200190929190505050620015b2565b604051808273ffffffffffffffffffffffffffffffffffffffff1673ffffffffffffffffffffffffffffffffffffffff16815260200191505060405180910390f35b62000489620016f3565b005b620004bf60048036036020811015620004a357600080fd5b81019080803562ffffff1690602001909291905050506200186f565b005b620004cb6200195d565b604051808262ffffff1662ffffff16815260200191505060405180910390f35b6200051a600480360360208110156200050357600080fd5b810190808035906020019092919050505062001976565b005b6200052662001a4c565b604051808273ffffffffffffffffffffffffffffffffffffffff1673ffffffffffffffffffffffffffffffffffffffff16815260200191505060405180910390f35b6200057262001a75565b604051808215151515815260200191505060405180910390f35b620005bb60048036036020811015620005a457600080fd5b810190808035906020019092919050505062001a88565b005b620005c762001b5e565b005b620005d362001e3b565b005b620005df620021ba565b604051808215151515815260200191505060405180910390f35b62000603620021c9565b005b6200060f62002556565b604051808273ffffffffffffffffffffffffffffffffffffffff1673ffffffffffffffffffffffffffffffffffffffff16815260200191505060405180910390f35b6200065b6200257c565b604051808215151515815260200191505060405180910390f35b620006a7600480360360208110156200068d57600080fd5b81019080803560030b906020019092919050505062002593565b005b620006b362002686565b6040518080602001828103825283818151815260200191508051906020019060200280838360005b83811015620006f8578082015181840152602081019050620006db565b505050509050019250505060405180910390f35b62000740600480360360208110156200072457600080fd5b81019080803562ffffff169060200190929190505050620027e2565b005b62000787600480360360208110156200075a57600080fd5b81019080803573ffffffffffffffffffffffffffffffffffffffff169060200190929190505050620028d0565b005b620007b860048036036020811015620007a157600080fd5b810190808035906020019092919050505062002ae2565b005b620007c462002bb8565b6040518082815260200191505060405180910390f35b620007e462002bc2565b6040518082815260200191505060405180910390f35b6000600954905090565b6000600c54905090565b6000600a60069054906101000a900460030b905090565b6200082f62001a4c565b73ffffffffffffffffffffffffffffffffffffffff166200084f62002c98565b73ffffffffffffffffffffffffffffffffffffffff161415620008be576040517f08c379a000000000000000000000000000000000000000000000000000000000815260040180806020018281038252602d81526020018062006d36602d913960400191505060405180910390fd5b600160009054906101000a900473ffffffffffffffffffffffffffffffffffffffff1673ffffffffffffffffffffffffffffffffffffffff166316ded1ce6200090662002c98565b6040518263ffffffff1660e01b8152600401808273ffffffffffffffffffffffffffffffffffffffff1673ffffffffffffffffffffffffffffffffffffffff16815260200191505060206040518083038186803b1580156200096757600080fd5b505afa1580156200097c573d6000803e3d6000fd5b505050506040513d60208110156200099357600080fd5b8101908080519060200190929190505050620009fb576040517f08c379a000000000000000000000000000000000000000000000000000000000815260040180806020018281038252602481526020018062006e226024913960400191505060405180910390fd5b600160149054906101000a900460ff1662000a7e576040517f08c379a000000000000000000000000000000000000000000000000000000000815260040180806020018281038252601e8152602001807f436c617373726f6f6d3a206170706c69636174696f6e7320636c6f736564000081525060200191505060405180910390fd5b600062000a8a62002c98565b9050600a60069054906101000a900460030b60030b8173ffffffffffffffffffffffffffffffffffffffff1663efedc6696040518163ffffffff1660e01b815260040160206040518083038186803b15801562000ae657600080fd5b505afa15801562000afb573d6000803e3d6000fd5b505050506040513d602081101562000b1257600080fd5b810190808051906020019092919050505060030b121562000b7f576040517f08c379a000000000000000000000000000000000000000000000000000000000815260040180806020018281038252602c81526020018062006ca3602c913960400191505060405180910390fd5b600062000b8c8262002ca0565b90506002819080600181540180825580915050600190039060005260206000200160009091909190916101000a81548173ffffffffffffffffffffffffffffffffffffffff021916908373ffffffffffffffffffffffffffffffffffffffff1602179055505050565b62000bff62002c98565b73ffffffffffffffffffffffffffffffffffffffff166000809054906101000a900473ffffffffffffffffffffffffffffffffffffffff1673ffffffffffffffffffffffffffffffffffffffff161462000cc1576040517f08c379a00000000000000000000000000000000000000000000000000000000081526004018080602001828103825260208152602001807f4f776e61626c653a2063616c6c6572206973206e6f7420746865206f776e657281525060200191505060405180910390fd5b600160149054906101000a900460ff161562000d29576040517f08c379a000000000000000000000000000000000000000000000000000000000815260040180806020018281038252602a81526020018062006e46602a913960400191505060405180910390fd5b60006002805490501462000d89576040517f08c379a000000000000000000000000000000000000000000000000000000000815260040180806020018281038252602281526020018062006d146022913960400191505060405180910390fd5b60018060146101000a81548160ff0219169083151502179055507fed7fc56e5f714753b4e32ad38ecdac1df8e9cf07b3ae93031020b5452df875db60405160405180910390a1565b62000ddb62002c98565b73ffffffffffffffffffffffffffffffffffffffff166000809054906101000a900473ffffffffffffffffffffffffffffffffffffffff1673ffffffffffffffffffffffffffffffffffffffff161462000e9d576040517f08c379a00000000000000000000000000000000000000000000000000000000081526004018080602001828103825260208152602001807f4f776e61626c653a2063616c6c6572206973206e6f7420746865206f776e657281525060200191505060405180910390fd5b42600754111562000efa576040517f08c379a000000000000000000000000000000000000000000000000000000000815260040180806020018281038252602481526020018062006d846024913960400191505060405180910390fd5b60006003805490501162000f76576040517f08c379a000000000000000000000000000000000000000000000000000000000815260040180806020018281038252601a8152602001807f436c617373726f6f6d3a206e6f206170706c69636174696f6e7300000000000081525060200191505060405180910390fd5b62000f8062002fd8565b60088190555060018060156101000a81548160ff021916908315150217905550565b62000fac62002c98565b73ffffffffffffffffffffffffffffffffffffffff166000809054906101000a900473ffffffffffffffffffffffffffffffffffffffff1673ffffffffffffffffffffffffffffffffffffffff16146200106e576040517f08c379a00000000000000000000000000000000000000000000000000000000081526004018080602001828103825260208152602001807f4f776e61626c653a2063616c6c6572206973206e6f7420746865206f776e657281525060200191505060405180910390fd5b600e60009054906101000a900473ffffffffffffffffffffffffffffffffffffffff1673ffffffffffffffffffffffffffffffffffffffff166323b872dd30620010b762001a4c565b600e60009054906101000a900473ffffffffffffffffffffffffffffffffffffffff1673ffffffffffffffffffffffffffffffffffffffff166370a08231306040518263ffffffff1660e01b8152600401808273ffffffffffffffffffffffffffffffffffffffff1673ffffffffffffffffffffffffffffffffffffffff16815260200191505060206040518083038186803b1580156200115757600080fd5b505afa1580156200116c573d6000803e3d6000fd5b505050506040513d60208110156200118357600080fd5b81019080805190602001909291905050506040518463ffffffff1660e01b8152600401808473ffffffffffffffffffffffffffffffffffffffff1673ffffffffffffffffffffffffffffffffffffffff1681526020018373ffffffffffffffffffffffffffffffffffffffff1673ffffffffffffffffffffffffffffffffffffffff1681526020018281526020019350505050602060405180830381600087803b1580156200123157600080fd5b505af115801562001246573d6000803e3d6000fd5b505050506040513d60208110156200125d57600080fd5b810190808051906020019092919050505050565b6000600a60039054906101000a900462ffffff16905090565b600f60009054906101000a900473ffffffffffffffffffffffffffffffffffffffff1681565b6060620012bc62002c98565b73ffffffffffffffffffffffffffffffffffffffff166000809054906101000a900473ffffffffffffffffffffffffffffffffffffffff1673ffffffffffffffffffffffffffffffffffffffff16146200137e576040517f08c379a00000000000000000000000000000000000000000000000000000000081526004018080602001828103825260208152602001807f4f776e61626c653a2063616c6c6572206973206e6f7420746865206f776e657281525060200191505060405180910390fd5b60058054806020026020016040519081016040528092919081815260200182805480156200140257602002820191906000526020600020905b8160009054906101000a900473ffffffffffffffffffffffffffffffffffffffff1673ffffffffffffffffffffffffffffffffffffffff1681526020019060010190808311620013b7575b5050505050905090565b6000620014226200141c62002c98565b620015b2565b905090565b6200143162002c98565b73ffffffffffffffffffffffffffffffffffffffff166000809054906101000a900473ffffffffffffffffffffffffffffffffffffffff1673ffffffffffffffffffffffffffffffffffffffff1614620014f3576040517f08c379a00000000000000000000000000000000000000000000000000000000081526004018080602001828103825260208152602001807f4f776e61626c653a2063616c6c6572206973206e6f7420746865206f776e657281525060200191505060405180910390fd5b600073ffffffffffffffffffffffffffffffffffffffff166000809054906101000a900473ffffffffffffffffffffffffffffffffffffffff1673ffffffffffffffffffffffffffffffffffffffff167f8be0079c531659141344cd1fd0a4f28419497f9722a3daafe3b4186f6b6457e060405160405180910390a360008060006101000a81548173ffffffffffffffffffffffffffffffffffffffff021916908373ffffffffffffffffffffffffffffffffffffffff160217905550565b6000620015be62002c98565b73ffffffffffffffffffffffffffffffffffffffff168273ffffffffffffffffffffffffffffffffffffffff161480620016355750620015fd62001a4c565b73ffffffffffffffffffffffffffffffffffffffff166200161d62002c98565b73ffffffffffffffffffffffffffffffffffffffff16145b6200168c576040517f08c379a000000000000000000000000000000000000000000000000000000000815260040180806020018281038252602181526020018062006cf36021913960400191505060405180910390fd5b600460008373ffffffffffffffffffffffffffffffffffffffff1673ffffffffffffffffffffffffffffffffffffffff16815260200190815260200160002060009054906101000a900473ffffffffffffffffffffffffffffffffffffffff169050919050565b620016fd62002c98565b73ffffffffffffffffffffffffffffffffffffffff166000809054906101000a900473ffffffffffffffffffffffffffffffffffffffff1673ffffffffffffffffffffffffffffffffffffffff1614620017bf576040517f08c379a00000000000000000000000000000000000000000000000000000000081526004018080602001828103825260208152602001807f4f776e61626c653a2063616c6c6572206973206e6f7420746865206f776e657281525060200191505060405180910390fd5b600160149054906101000a900460ff1662001826576040517f08c379a000000000000000000000000000000000000000000000000000000000815260040180806020018281038252602a81526020018062006df8602a913960400191505060405180910390fd5b6000600160146101000a81548160ff0219169083151502179055507f67ccc69b776bd9c78655440e78d4efa80a5630c9ab0d7b487930d75be9b8d80b60405160405180910390a1565b6200187962002c98565b73ffffffffffffffffffffffffffffffffffffffff166000809054906101000a900473ffffffffffffffffffffffffffffffffffffffff1673ffffffffffffffffffffffffffffffffffffffff16146200193b576040517f08c379a00000000000000000000000000000000000000000000000000000000081526004018080602001828103825260208152602001807f4f776e61626c653a2063616c6c6572206973206e6f7420746865206f776e657281525060200191505060405180910390fd5b80600a60006101000a81548162ffffff021916908362ffffff16021790555050565b6000600a60009054906101000a900462ffffff16905090565b6200198062002c98565b73ffffffffffffffffffffffffffffffffffffffff166000809054906101000a900473ffffffffffffffffffffffffffffffffffffffff1673ffffffffffffffffffffffffffffffffffffffff161462001a42576040517f08c379a00000000000000000000000000000000000000000000000000000000081526004018080602001828103825260208152602001807f4f776e61626c653a2063616c6c6572206973206e6f7420746865206f776e657281525060200191505060405180910390fd5b8060098190555050565b60008060009054906101000a900473ffffffffffffffffffffffffffffffffffffffff16905090565b600f60149054906101000a900460ff1681565b62001a9262002c98565b73ffffffffffffffffffffffffffffffffffffffff166000809054906101000a900473ffffffffffffffffffffffffffffffffffffffff1673ffffffffffffffffffffffffffffffffffffffff161462001b54576040517f08c379a00000000000000000000000000000000000000000000000000000000081526004018080602001828103825260208152602001807f4f776e61626c653a2063616c6c6572206973206e6f7420746865206f776e657281525060200191505060405180910390fd5b80600b8190555050565b62001b6862002c98565b73ffffffffffffffffffffffffffffffffffffffff166000809054906101000a900473ffffffffffffffffffffffffffffffffffffffff1673ffffffffffffffffffffffffffffffffffffffff161462001c2a576040517f08c379a00000000000000000000000000000000000000000000000000000000081526004018080602001828103825260208152602001807f4f776e61626c653a2063616c6c6572206973206e6f7420746865206f776e657281525060200191505060405180910390fd5b600160159054906101000a900460ff1662001cad576040517f08c379a000000000000000000000000000000000000000000000000000000000815260040180806020018281038252601e8152602001807f436c617373726f6f6d3a20636f75727365206e6f742066696e6973686564000081525060200191505060405180910390fd5b600e60009054906101000a900473ffffffffffffffffffffffffffffffffffffffff1673ffffffffffffffffffffffffffffffffffffffff166370a08231306040518263ffffffff1660e01b8152600401808273ffffffffffffffffffffffffffffffffffffffff1673ffffffffffffffffffffffffffffffffffffffff16815260200191505060206040518083038186803b15801562001d4d57600080fd5b505afa15801562001d62573d6000803e3d6000fd5b505050506040513d602081101562001d7957600080fd5b8101908080519060200190929190505050600854111562001de6576040517f08c379a000000000000000000000000000000000000000000000000000000000815260040180806020018281038252602481526020018062006ccf6024913960400191505060405180910390fd5b60008062001df362003177565b915091506000606062001e078484620033e8565b9150915062001e168162003c74565b62001e218262003ded565b62001e2b62003efa565b62001e35620045f6565b50505050565b62001e4562002c98565b73ffffffffffffffffffffffffffffffffffffffff166000809054906101000a900473ffffffffffffffffffffffffffffffffffffffff1673ffffffffffffffffffffffffffffffffffffffff161462001f07576040517f08c379a00000000000000000000000000000000000000000000000000000000081526004018080602001828103825260208152602001807f4f776e61626c653a2063616c6c6572206973206e6f7420746865206f776e657281525060200191505060405180910390fd5b6000600e60009054906101000a900473ffffffffffffffffffffffffffffffffffffffff1673ffffffffffffffffffffffffffffffffffffffff166370a08231306040518263ffffffff1660e01b8152600401808273ffffffffffffffffffffffffffffffffffffffff1673ffffffffffffffffffffffffffffffffffffffff16815260200191505060206040518083038186803b15801562001fa957600080fd5b505afa15801562001fbe573d6000803e3d6000fd5b505050506040513d602081101562001fd557600080fd5b810190808051906020019092919050505090506000811162001ff85750620021b8565b600e60009054906101000a900473ffffffffffffffffffffffffffffffffffffffff1673ffffffffffffffffffffffffffffffffffffffff1663095ea7b3600f60009054906101000a900473ffffffffffffffffffffffffffffffffffffffff16836040518363ffffffff1660e01b8152600401808373ffffffffffffffffffffffffffffffffffffffff1673ffffffffffffffffffffffffffffffffffffffff16815260200182815260200192505050602060405180830381600087803b158015620020c457600080fd5b505af1158015620020d9573d6000803e3d6000fd5b505050506040513d6020811015620020f057600080fd5b810190808051906020019092919050505050600f60009054906101000a900473ffffffffffffffffffffffffffffffffffffffff1673ffffffffffffffffffffffffffffffffffffffff1663a0712d68826040518263ffffffff1660e01b815260040180828152602001915050602060405180830381600087803b1580156200217857600080fd5b505af11580156200218d573d6000803e3d6000fd5b505050506040513d6020811015620021a457600080fd5b810190808051906020019092919050505050505b565b60008060038054905011905090565b620021d362002c98565b73ffffffffffffffffffffffffffffffffffffffff166000809054906101000a900473ffffffffffffffffffffffffffffffffffffffff1673ffffffffffffffffffffffffffffffffffffffff161462002295576040517f08c379a00000000000000000000000000000000000000000000000000000000081526004018080602001828103825260208152602001807f4f776e61626c653a2063616c6c6572206973206e6f7420746865206f776e657281525060200191505060405180910390fd5b600160149054906101000a900460ff1615620022fd576040517f08c379a000000000000000000000000000000000000000000000000000000000815260040180806020018281038252602681526020018062006da86026913960400191505060405180910390fd5b6000600e60009054906101000a900473ffffffffffffffffffffffffffffffffffffffff1673ffffffffffffffffffffffffffffffffffffffff166370a08231306040518263ffffffff1660e01b8152600401808273ffffffffffffffffffffffffffffffffffffffff1673ffffffffffffffffffffffffffffffffffffffff16815260200191505060206040518083038186803b1580156200239f57600080fd5b505afa158015620023b4573d6000803e3d6000fd5b505050506040513d6020811015620023cb57600080fd5b81019080805190602001909291905050501462002434576040517f08c379a000000000000000000000000000000000000000000000000000000000815260040180806020018281038252602a81526020018062006dce602a913960400191505060405180910390fd5b6200243e62004687565b600067ffffffffffffffff811180156200245757600080fd5b50604051908082528060200260200182016040528015620024875781602001602082028036833780820191505090505b50600290805190602001906200249f92919062004c82565b506000600380549050116200251c576040517f08c379a000000000000000000000000000000000000000000000000000000000815260040180806020018281038252601f8152602001807f436c617373726f6f6d3a206e6f207265616479206170706c69636174696f6e0081525060200191505060405180910390fd5b6001600f60146101000a81548160ff0219169083151502179055506200254e600c54426200494790919063ffffffff16565b600781905550565b600e60009054906101000a900473ffffffffffffffffffffffffffffffffffffffff1681565b6000600160149054906101000a900460ff16905090565b6200259d62002c98565b73ffffffffffffffffffffffffffffffffffffffff166000809054906101000a900473ffffffffffffffffffffffffffffffffffffffff1673ffffffffffffffffffffffffffffffffffffffff16146200265f576040517f08c379a00000000000000000000000000000000000000000000000000000000081526004018080602001828103825260208152602001807f4f776e61626c653a2063616c6c6572206973206e6f7420746865206f776e657281525060200191505060405180910390fd5b80600a60066101000a81548163ffffffff021916908360030b63ffffffff16021790555050565b60606200269262002c98565b73ffffffffffffffffffffffffffffffffffffffff166000809054906101000a900473ffffffffffffffffffffffffffffffffffffffff1673ffffffffffffffffffffffffffffffffffffffff161462002754576040517f08c379a00000000000000000000000000000000000000000000000000000000081526004018080602001828103825260208152602001807f4f776e61626c653a2063616c6c6572206973206e6f7420746865206f776e657281525060200191505060405180910390fd5b6006805480602002602001604051908101604052809291908181526020018280548015620027d857602002820191906000526020600020905b8160009054906101000a900473ffffffffffffffffffffffffffffffffffffffff1673ffffffffffffffffffffffffffffffffffffffff16815260200190600101908083116200278d575b5050505050905090565b620027ec62002c98565b73ffffffffffffffffffffffffffffffffffffffff166000809054906101000a900473ffffffffffffffffffffffffffffffffffffffff1673ffffffffffffffffffffffffffffffffffffffff1614620028ae576040517f08c379a00000000000000000000000000000000000000000000000000000000081526004018080602001828103825260208152602001807f4f776e61626c653a2063616c6c6572206973206e6f7420746865206f776e657281525060200191505060405180910390fd5b80600a60036101000a81548162ffffff021916908362ffffff16021790555050565b620028da62002c98565b73ffffffffffffffffffffffffffffffffffffffff166000809054906101000a900473ffffffffffffffffffffffffffffffffffffffff1673ffffffffffffffffffffffffffffffffffffffff16146200299c576040517f08c379a00000000000000000000000000000000000000000000000000000000081526004018080602001828103825260208152602001807f4f776e61626c653a2063616c6c6572206973206e6f7420746865206f776e657281525060200191505060405180910390fd5b600073ffffffffffffffffffffffffffffffffffffffff168173ffffffffffffffffffffffffffffffffffffffff16141562002a24576040517f08c379a000000000000000000000000000000000000000000000000000000000815260040180806020018281038252602681526020018062006c7d6026913960400191505060405180910390fd5b8073ffffffffffffffffffffffffffffffffffffffff166000809054906101000a900473ffffffffffffffffffffffffffffffffffffffff1673ffffffffffffffffffffffffffffffffffffffff167f8be0079c531659141344cd1fd0a4f28419497f9722a3daafe3b4186f6b6457e060405160405180910390a3806000806101000a81548173ffffffffffffffffffffffffffffffffffffffff021916908373ffffffffffffffffffffffffffffffffffffffff16021790555050565b62002aec62002c98565b73ffffffffffffffffffffffffffffffffffffffff166000809054906101000a900473ffffffffffffffffffffffffffffffffffffffff1673ffffffffffffffffffffffffffffffffffffffff161462002bae576040517f08c379a00000000000000000000000000000000000000000000000000000000081526004018080602001828103825260208152602001807f4f776e61626c653a2063616c6c6572206973206e6f7420746865206f776e657281525060200191505060405180910390fd5b80600c8190555050565b6000600b54905090565b600062002bce62002c98565b73ffffffffffffffffffffffffffffffffffffffff166000809054906101000a900473ffffffffffffffffffffffffffffffffffffffff1673ffffffffffffffffffffffffffffffffffffffff161462002c90576040517f08c379a00000000000000000000000000000000000000000000000000000000081526004018080602001828103825260208152602001807f4f776e61626c653a2063616c6c6572206973206e6f7420746865206f776e657281525060200191505060405180910390fd5b600d54905090565b600033905090565b6000808230600e60009054906101000a900473ffffffffffffffffffffffffffffffffffffffff16600d5460405162002cd99062004d11565b808573ffffffffffffffffffffffffffffffffffffffff1673ffffffffffffffffffffffffffffffffffffffff1681526020018473ffffffffffffffffffffffffffffffffffffffff1673ffffffffffffffffffffffffffffffffffffffff1681526020018373ffffffffffffffffffffffffffffffffffffffff1673ffffffffffffffffffffffffffffffffffffffff168152602001828152602001945050505050604051809103906000f08015801562002d99573d6000803e3d6000fd5b50905080600460008573ffffffffffffffffffffffffffffffffffffffff1673ffffffffffffffffffffffffffffffffffffffff16815260200190815260200160002060006101000a81548173ffffffffffffffffffffffffffffffffffffffff021916908373ffffffffffffffffffffffffffffffffffffffff160217905550600160009054906101000a900473ffffffffffffffffffffffffffffffffffffffff1673ffffffffffffffffffffffffffffffffffffffff1663183b260084836040518363ffffffff1660e01b8152600401808373ffffffffffffffffffffffffffffffffffffffff1673ffffffffffffffffffffffffffffffffffffffff1681526020018273ffffffffffffffffffffffffffffffffffffffff1673ffffffffffffffffffffffffffffffffffffffff16815260200192505050600060405180830381600087803b15801562002ef057600080fd5b505af115801562002f05573d6000803e3d6000fd5b505050506005839080600181540180825580915050600190039060005260206000200160009091909190916101000a81548173ffffffffffffffffffffffffffffffffffffffff021916908373ffffffffffffffffffffffffffffffffffffffff1602179055506006819080600181540180825580915050600190039060005260206000200160009091909190916101000a81548173ffffffffffffffffffffffffffffffffffffffff021916908373ffffffffffffffffffffffffffffffffffffffff16021790555080915050919050565b600080600f60009054906101000a900473ffffffffffffffffffffffffffffffffffffffff1673ffffffffffffffffffffffffffffffffffffffff16633af9e669306040518263ffffffff1660e01b8152600401808273ffffffffffffffffffffffffffffffffffffffff1673ffffffffffffffffffffffffffffffffffffffff168152602001915050602060405180830381600087803b1580156200307d57600080fd5b505af115801562003092573d6000803e3d6000fd5b505050506040513d6020811015620030a957600080fd5b81019080805190602001909291905050509050600f60009054906101000a900473ffffffffffffffffffffffffffffffffffffffff1673ffffffffffffffffffffffffffffffffffffffff1663852a12e3826040518263ffffffff1660e01b815260040180828152602001915050602060405180830381600087803b1580156200313257600080fd5b505af115801562003147573d6000803e3d6000fd5b505050506040513d60208110156200315e57600080fd5b8101908080519060200190929190505050508091505090565b6000806000809050600080905060008090505b600380549050811015620033db5760038181548110620031a657fe5b9060005260206000200160009054906101000a900473ffffffffffffffffffffffffffffffffffffffff1673ffffffffffffffffffffffffffffffffffffffff1663289cf0d26040518163ffffffff1660e01b8152600401600060405180830381600087803b1580156200321957600080fd5b505af11580156200322e573d6000803e3d6000fd5b5050505060038082815481106200324157fe5b9060005260206000200160009054906101000a900473ffffffffffffffffffffffffffffffffffffffff1673ffffffffffffffffffffffffffffffffffffffff16636587b61e6040518163ffffffff1660e01b815260040160206040518083038186803b158015620032b257600080fd5b505afa158015620032c7573d6000803e3d6000fd5b505050506040513d6020811015620032de57600080fd5b81019080805190602001909291905050501415620032ff5782806001019350505b6005600382815481106200330f57fe5b9060005260206000200160009054906101000a900473ffffffffffffffffffffffffffffffffffffffff1673ffffffffffffffffffffffffffffffffffffffff16636587b61e6040518163ffffffff1660e01b815260040160206040518083038186803b1580156200338057600080fd5b505afa15801562003395573d6000803e3d6000fd5b505050506040513d6020811015620033ac57600080fd5b81019080805190602001909291905050501415620033cd5781806001019250505b80806001019150506200318a565b5081819350935050509091565b60006060600060038054905090506000620034256200341383600b54620049d090919063ffffffff16565b60085462004a5b90919063ffffffff16565b905060006200346d620f42406200345e600a60009054906101000a900462ffffff1662ffffff16600b54620049d090919063ffffffff16565b62004aa790919063ffffffff16565b905060006200348882600b5462004a5b90919063ffffffff16565b90506000620034b585620034a68b87620049d090919063ffffffff16565b62004aa790919063ffffffff16565b90506000620034fb620f4240620034ec600a60039054906101000a900462ffffff1662ffffff1685620049d090919063ffffffff16565b62004aa790919063ffffffff16565b90506000620035288b62003519848962004a5b90919063ffffffff16565b62004aa790919063ffffffff16565b905060608767ffffffffffffffff811180156200354457600080fd5b50604051908082528060200260200182016040528015620035745781602001602082028036833780820191505090505b50905060008090505b8881101562003a365760038082815481106200359557fe5b9060005260206000200160009054906101000a900473ffffffffffffffffffffffffffffffffffffffff1673ffffffffffffffffffffffffffffffffffffffff16636587b61e6040518163ffffffff1660e01b815260040160206040518083038186803b1580156200360657600080fd5b505afa1580156200361b573d6000803e3d6000fd5b505050506040513d60208110156200363257600080fd5b810190808051906020019092919050505014156200372657600381815481106200365857fe5b9060005260206000200160009054906101000a900473ffffffffffffffffffffffffffffffffffffffff1673ffffffffffffffffffffffffffffffffffffffff16637db9abaf87856040518363ffffffff1660e01b81526004018083815260200182815260200192505050600060405180830381600087803b158015620036de57600080fd5b505af1158015620036f3573d6000803e3d6000fd5b505050506200370c83876200494790919063ffffffff16565b8282815181106200371957fe5b6020026020010181815250505b6004600382815481106200373657fe5b9060005260206000200160009054906101000a900473ffffffffffffffffffffffffffffffffffffffff1673ffffffffffffffffffffffffffffffffffffffff16636587b61e6040518163ffffffff1660e01b815260040160206040518083038186803b158015620037a757600080fd5b505afa158015620037bc573d6000803e3d6000fd5b505050506040513d6020811015620037d357600080fd5b81019080805190602001909291905050501415620038b45760038181548110620037f957fe5b9060005260206000200160009054906101000a900473ffffffffffffffffffffffffffffffffffffffff1673ffffffffffffffffffffffffffffffffffffffff16637db9abaf8760006040518363ffffffff1660e01b81526004018083815260200182815260200192505050600060405180830381600087803b1580156200388057600080fd5b505af115801562003895573d6000803e3d6000fd5b5050505085828281518110620038a757fe5b6020026020010181815250505b600560038281548110620038c457fe5b9060005260206000200160009054906101000a900473ffffffffffffffffffffffffffffffffffffffff1673ffffffffffffffffffffffffffffffffffffffff16636587b61e6040518163ffffffff1660e01b815260040160206040518083038186803b1580156200393557600080fd5b505afa1580156200394a573d6000803e3d6000fd5b505050506040513d60208110156200396157600080fd5b8101908080519060200190929190505050141562003a2857600381815481106200398757fe5b9060005260206000200160009054906101000a900473ffffffffffffffffffffffffffffffffffffffff1673ffffffffffffffffffffffffffffffffffffffff16637db9abaf6000806040518363ffffffff1660e01b81526004018083815260200182815260200192505050600060405180830381600087803b15801562003a0e57600080fd5b505af115801562003a23573d6000803e3d6000fd5b505050505b80806001019150506200357d565b50600062003a50600b548d620049d090919063ffffffff16565b9050600062003b2a620f424062003b1b600160009054906101000a900473ffffffffffffffffffffffffffffffffffffffff1673ffffffffffffffffffffffffffffffffffffffff1663e6fd604c6040518163ffffffff1660e01b815260040160206040518083038186803b15801562003ac957600080fd5b505afa15801562003ade573d6000803e3d6000fd5b505050506040513d602081101562003af557600080fd5b810190808051906020019092919050505062ffffff1688620049d090919063ffffffff16565b62004aa790919063ffffffff16565b9050600062003b438e8c62004a5b90919063ffffffff16565b9050600062003c31620f424062003c22600160009054906101000a900473ffffffffffffffffffffffffffffffffffffffff1673ffffffffffffffffffffffffffffffffffffffff1663e6fd604c6040518163ffffffff1660e01b815260040160206040518083038186803b15801562003bbc57600080fd5b505afa15801562003bd1573d6000803e3d6000fd5b505050506040513d602081101562003be857600080fd5b810190808051906020019092919050505062ffffff1662003c13868f620049d090919063ffffffff16565b620049d090919063ffffffff16565b62004aa790919063ffffffff16565b905062003c5c8162003c4d85876200494790919063ffffffff16565b6200494790919063ffffffff16565b859d509d505050505050505050505050509250929050565b60008090505b60038054905081101562003de957600082828151811062003c9757fe5b6020026020010151111562003ddb57600e60009054906101000a900473ffffffffffffffffffffffffffffffffffffffff1673ffffffffffffffffffffffffffffffffffffffff1663095ea7b36003838154811062003cf257fe5b9060005260206000200160009054906101000a900473ffffffffffffffffffffffffffffffffffffffff1684848151811062003d2a57fe5b60200260200101516040518363ffffffff1660e01b8152600401808373ffffffffffffffffffffffffffffffffffffffff1673ffffffffffffffffffffffffffffffffffffffff16815260200182815260200192505050602060405180830381600087803b15801562003d9c57600080fd5b505af115801562003db1573d6000803e3d6000fd5b505050506040513d602081101562003dc857600080fd5b8101908080519060200190929190505050505b808060010191505062003c7a565b5050565b600e60009054906101000a900473ffffffffffffffffffffffffffffffffffffffff1673ffffffffffffffffffffffffffffffffffffffff1663a9059cbb600160009054906101000a900473ffffffffffffffffffffffffffffffffffffffff16836040518363ffffffff1660e01b8152600401808373ffffffffffffffffffffffffffffffffffffffff1673ffffffffffffffffffffffffffffffffffffffff16815260200182815260200192505050602060405180830381600087803b15801562003eb957600080fd5b505af115801562003ece573d6000803e3d6000fd5b505050506040513d602081101562003ee557600080fd5b81019080805190602001909291905050505050565b60008090505b600380549050811015620045f357600380828154811062003f1d57fe5b9060005260206000200160009054906101000a900473ffffffffffffffffffffffffffffffffffffffff1673ffffffffffffffffffffffffffffffffffffffff16636587b61e6040518163ffffffff1660e01b815260040160206040518083038186803b15801562003f8e57600080fd5b505afa15801562003fa3573d6000803e3d6000fd5b505050506040513d602081101562003fba57600080fd5b810190808051906020019092919050505014156200415557600160009054906101000a900473ffffffffffffffffffffffffffffffffffffffff1673ffffffffffffffffffffffffffffffffffffffff166387bfe188600383815481106200401e57fe5b9060005260206000200160009054906101000a900473ffffffffffffffffffffffffffffffffffffffff1673ffffffffffffffffffffffffffffffffffffffff1663b8f31a816040518163ffffffff1660e01b815260040160206040518083038186803b1580156200408f57600080fd5b505afa158015620040a4573d6000803e3d6000fd5b505050506040513d6020811015620040bb57600080fd5b810190808051906020019092919050505060016040518363ffffffff1660e01b8152600401808373ffffffffffffffffffffffffffffffffffffffff1673ffffffffffffffffffffffffffffffffffffffff1681526020018260030b815260200192505050600060405180830381600087803b1580156200413b57600080fd5b505af115801562004150573d6000803e3d6000fd5b505050505b6004600382815481106200416557fe5b9060005260206000200160009054906101000a900473ffffffffffffffffffffffffffffffffffffffff1673ffffffffffffffffffffffffffffffffffffffff16636587b61e6040518163ffffffff1660e01b815260040160206040518083038186803b158015620041d657600080fd5b505afa158015620041eb573d6000803e3d6000fd5b505050506040513d60208110156200420257600080fd5b810190808051906020019092919050505014156200439d57600160009054906101000a900473ffffffffffffffffffffffffffffffffffffffff1673ffffffffffffffffffffffffffffffffffffffff1663ff5d8f63600383815481106200426657fe5b9060005260206000200160009054906101000a900473ffffffffffffffffffffffffffffffffffffffff1673ffffffffffffffffffffffffffffffffffffffff1663b8f31a816040518163ffffffff1660e01b815260040160206040518083038186803b158015620042d757600080fd5b505afa158015620042ec573d6000803e3d6000fd5b505050506040513d60208110156200430357600080fd5b810190808051906020019092919050505060016040518363ffffffff1660e01b8152600401808373ffffffffffffffffffffffffffffffffffffffff1673ffffffffffffffffffffffffffffffffffffffff1681526020018260030b815260200192505050600060405180830381600087803b1580156200438357600080fd5b505af115801562004398573d6000803e3d6000fd5b505050505b600560038281548110620043ad57fe5b9060005260206000200160009054906101000a900473ffffffffffffffffffffffffffffffffffffffff1673ffffffffffffffffffffffffffffffffffffffff16636587b61e6040518163ffffffff1660e01b815260040160206040518083038186803b1580156200441e57600080fd5b505afa15801562004433573d6000803e3d6000fd5b505050506040513d60208110156200444a57600080fd5b81019080805190602001909291905050501415620045e557600160009054906101000a900473ffffffffffffffffffffffffffffffffffffffff1673ffffffffffffffffffffffffffffffffffffffff1663ff5d8f6360038381548110620044ae57fe5b9060005260206000200160009054906101000a900473ffffffffffffffffffffffffffffffffffffffff1673ffffffffffffffffffffffffffffffffffffffff1663b8f31a816040518163ffffffff1660e01b815260040160206040518083038186803b1580156200451f57600080fd5b505afa15801562004534573d6000803e3d6000fd5b505050506040513d60208110156200454b57600080fd5b810190808051906020019092919050505060026040518363ffffffff1660e01b8152600401808373ffffffffffffffffffffffffffffffffffffffff1673ffffffffffffffffffffffffffffffffffffffff1681526020018260030b815260200192505050600060405180830381600087803b158015620045cb57600080fd5b505af1158015620045e0573d6000803e3d6000fd5b505050505b808060010191505062003f00565b50565b600067ffffffffffffffff811180156200460f57600080fd5b506040519080825280602002602001820160405280156200463f5781602001602082028036833780820191505090505b50600390805190602001906200465792919062004c82565b506200466262000fa2565b60006008819055506000600160156101000a81548160ff021916908315150217905550565b60008090505b6002805490508110156200494457600160028281548110620046ab57fe5b9060005260206000200160009054906101000a900473ffffffffffffffffffffffffffffffffffffffff1673ffffffffffffffffffffffffffffffffffffffff16636587b61e6040518163ffffffff1660e01b815260040160206040518083038186803b1580156200471c57600080fd5b505afa15801562004731573d6000803e3d6000fd5b505050506040513d60208110156200474857600080fd5b810190808051906020019092919050505014156200489b57600281815481106200476e57fe5b9060005260206000200160009054906101000a900473ffffffffffffffffffffffffffffffffffffffff1673ffffffffffffffffffffffffffffffffffffffff16630f15f4c06040518163ffffffff1660e01b8152600401600060405180830381600087803b158015620047e157600080fd5b505af1158015620047f6573d6000803e3d6000fd5b505050506003600282815481106200480a57fe5b9060005260206000200160009054906101000a900473ffffffffffffffffffffffffffffffffffffffff169080600181540180825580915050600190039060005260206000200160009091909190916101000a81548173ffffffffffffffffffffffffffffffffffffffff021916908373ffffffffffffffffffffffffffffffffffffffff16021790555062004936565b60028181548110620048a957fe5b9060005260206000200160009054906101000a900473ffffffffffffffffffffffffffffffffffffffff1673ffffffffffffffffffffffffffffffffffffffff166379599f966040518163ffffffff1660e01b8152600401600060405180830381600087803b1580156200491c57600080fd5b505af115801562004931573d6000803e3d6000fd5b505050505b80806001019150506200468d565b50565b600080828401905083811015620049c6576040517f08c379a000000000000000000000000000000000000000000000000000000000815260040180806020018281038252601b8152602001807f536166654d6174683a206164646974696f6e206f766572666c6f77000000000081525060200191505060405180910390fd5b8091505092915050565b600080831415620049e5576000905062004a55565b6000828402905082848281620049f757fe5b041462004a50576040517f08c379a000000000000000000000000000000000000000000000000000000000815260040180806020018281038252602181526020018062006d636021913960400191505060405180910390fd5b809150505b92915050565b600062004a9f83836040518060400160405280601e81526020017f536166654d6174683a207375627472616374696f6e206f766572666c6f77000081525062004af3565b905092915050565b600062004aeb83836040518060400160405280601a81526020017f536166654d6174683a206469766973696f6e206279207a65726f00000000000081525062004bb7565b905092915050565b600083831115829062004ba4576040517f08c379a00000000000000000000000000000000000000000000000000000000081526004018080602001828103825283818151815260200191508051906020019080838360005b8381101562004b6857808201518184015260208101905062004b4b565b50505050905090810190601f16801562004b965780820380516001836020036101000a031916815260200191505b509250505060405180910390fd5b5060008385039050809150509392505050565b6000808311829062004c67576040517f08c379a00000000000000000000000000000000000000000000000000000000081526004018080602001828103825283818151815260200191508051906020019080838360005b8381101562004c2b57808201518184015260208101905062004c0e565b50505050905090810190601f16801562004c595780820380516001836020036101000a031916815260200191505b509250505060405180910390fd5b50600083858162004c7457fe5b049050809150509392505050565b82805482825590600052602060002090810192821562004cfe579160200282015b8281111562004cfd5782518260006101000a81548173ffffffffffffffffffffffffffffffffffffffff021916908373ffffffffffffffffffffffffffffffffffffffff1602179055509160200191906001019062004ca3565b5b50905062004d0d919062004d1f565b5090565b611f178062004d6683390190565b62004d6291905b8082111562004d5e57600081816101000a81549073ffffffffffffffffffffffffffffffffffffffff02191690555060010162004d26565b5090565b9056fe608060405234801561001057600080fd5b5060405162001f1738038062001f178339818101604052608081101561003557600080fd5b8101908080519060200190929190805190602001909291908051906020019092919080519060200190929190505050600061007461023260201b60201c565b9050806000806101000a81548173ffffffffffffffffffffffffffffffffffffffff021916908373ffffffffffffffffffffffffffffffffffffffff1602179055508073ffffffffffffffffffffffffffffffffffffffff16600073ffffffffffffffffffffffffffffffffffffffff167f8be0079c531659141344cd1fd0a4f28419497f9722a3daafe3b4186f6b6457e060405160405180910390a3506000600260146101000a81548160ff0219169083600681111561013157fe5b021790555083600360006101000a81548173ffffffffffffffffffffffffffffffffffffffff021916908373ffffffffffffffffffffffffffffffffffffffff16021790555082600460006101000a81548173ffffffffffffffffffffffffffffffffffffffff021916908373ffffffffffffffffffffffffffffffffffffffff1602179055506000600660006101000a81548160ff02191690831515021790555081600160006101000a81548173ffffffffffffffffffffffffffffffffffffffff021916908373ffffffffffffffffffffffffffffffffffffffff1602179055506102238161023a60201b60201c565b60058190555050505050610266565b600033905090565b60007f52414e444f4d000000000000000000000000000000000000000000000000000082189050919050565b611ca180620002766000396000f3fe608060405234801561001057600080fd5b50600436106101165760003560e01c806379599f96116100a2578063b8f31a8111610071578063b8f31a81146102c9578063be22f54614610313578063c7a51bc31461035d578063f2fde38b1461037b578063fc48258d146103bf57610116565b806379599f96146102335780637db9abaf1461023d578063872d7c79146102755780638da5cb5b1461027f57610116565b80633db0bfd2116100e95780633db0bfd21461015b5780636587b61e146101a957806366995a46146101c757806370bc0d6f1461020b578063715018a61461022957610116565b80630bb8ebf61461011b5780630f15f4c01461013d578063289cf0d2146101475780632d24947b14610151575b600080fd5b6101236103dd565b604051808215151515815260200191505060405180910390f35b610145610494565b005b61014f610600565b005b610159610764565b005b6101a76004803603604081101561017157600080fd5b81019080803573ffffffffffffffffffffffffffffffffffffffff16906020019092919080359060200190929190505050610a39565b005b6101b1610c85565b6040518082815260200191505060405180910390f35b610209600480360360208110156101dd57600080fd5b81019080803573ffffffffffffffffffffffffffffffffffffffff169060200190929190505050610d98565b005b610213610dab565b6040518082815260200191505060405180910390f35b610231610eea565b005b61023b611072565b005b6102736004803603604081101561025357600080fd5b8101908080359060200190929190803590602001909291905050506111df565b005b61027d61131a565b005b610287611529565b604051808273ffffffffffffffffffffffffffffffffffffffff1673ffffffffffffffffffffffffffffffffffffffff16815260200191505060405180910390f35b6102d1611552565b604051808273ffffffffffffffffffffffffffffffffffffffff1673ffffffffffffffffffffffffffffffffffffffff16815260200191505060405180910390f35b61031b611645565b604051808273ffffffffffffffffffffffffffffffffffffffff1673ffffffffffffffffffffffffffffffffffffffff16815260200191505060405180910390f35b61036561166b565b6040518082815260200191505060405180910390f35b6103bd6004803603602081101561039157600080fd5b81019080803573ffffffffffffffffffffffffffffffffffffffff1690602001909291905050506117a9565b005b6103c76119b6565b6040518082815260200191505060405180910390f35b6000600260009054906101000a900473ffffffffffffffffffffffffffffffffffffffff1673ffffffffffffffffffffffffffffffffffffffff166339e7357c6040518163ffffffff1660e01b815260040160206040518083038186803b15801561044757600080fd5b505afa92505050801561047b57506040513d602081101561046757600080fd5b810190808051906020019092919050505060015b6104885760009050610491565b60055481149150505b90565b61049c611a89565b73ffffffffffffffffffffffffffffffffffffffff166000809054906101000a900473ffffffffffffffffffffffffffffffffffffffff1673ffffffffffffffffffffffffffffffffffffffff161461055d576040517f08c379a00000000000000000000000000000000000000000000000000000000081526004018080602001828103825260208152602001807f4f776e61626c653a2063616c6c6572206973206e6f7420746865206f776e657281525060200191505060405180910390fd5b6000600681111561056a57fe5b600260149054906101000a900460ff16600681111561058557fe5b146105db576040517f08c379a000000000000000000000000000000000000000000000000000000000815260040180806020018281038252602a815260200180611bc2602a913960400191505060405180910390fd5b60028060146101000a81548160ff021916908360068111156105f957fe5b0217905550565b610608611a89565b73ffffffffffffffffffffffffffffffffffffffff166000809054906101000a900473ffffffffffffffffffffffffffffffffffffffff1673ffffffffffffffffffffffffffffffffffffffff16146106c9576040517f08c379a00000000000000000000000000000000000000000000000000000000081526004018080602001828103825260208152602001807f4f776e61626c653a2063616c6c6572206973206e6f7420746865206f776e657281525060200191505060405180910390fd5b600660009054906101000a900460ff16610706576005600260146101000a81548160ff021916908360068111156106fc57fe5b0217905550610762565b61070e6103dd565b1561073c576003600260146101000a81548160ff0219169083600681111561073257fe5b0217905550610761565b6004600260146101000a81548160ff0219169083600681111561075b57fe5b02179055505b5b565b6000600681111561077157fe5b600260149054906101000a900460ff16600681111561078c57fe5b146107e2576040517f08c379a000000000000000000000000000000000000000000000000000000000815260040180806020018281038252602a815260200180611bc2602a913960400191505060405180910390fd5b600160009054906101000a900473ffffffffffffffffffffffffffffffffffffffff1673ffffffffffffffffffffffffffffffffffffffff166323b872dd33600460009054906101000a900473ffffffffffffffffffffffffffffffffffffffff16600460009054906101000a900473ffffffffffffffffffffffffffffffffffffffff1673ffffffffffffffffffffffffffffffffffffffff1663f745adfc6040518163ffffffff1660e01b815260040160206040518083038186803b1580156108ac57600080fd5b505afa1580156108c0573d6000803e3d6000fd5b505050506040513d60208110156108d657600080fd5b81019080805190602001909291905050506040518463ffffffff1660e01b8152600401808473ffffffffffffffffffffffffffffffffffffffff1673ffffffffffffffffffffffffffffffffffffffff1681526020018373ffffffffffffffffffffffffffffffffffffffff1673ffffffffffffffffffffffffffffffffffffffff1681526020018281526020019350505050602060405180830381600087803b15801561098357600080fd5b505af1158015610997573d6000803e3d6000fd5b505050506040513d60208110156109ad57600080fd5b8101908080519060200190929190505050610a13576040517f08c379a000000000000000000000000000000000000000000000000000000000815260040180806020018281038252602a815260200180611bec602a913960400191505060405180910390fd5b6001600260146101000a81548160ff02191690836006811115610a3257fe5b0217905550565b600360009054906101000a900473ffffffffffffffffffffffffffffffffffffffff1673ffffffffffffffffffffffffffffffffffffffff16610a7a611a89565b73ffffffffffffffffffffffffffffffffffffffff1614610ae6576040517f08c379a000000000000000000000000000000000000000000000000000000000815260040180806020018281038252602d815260200180611b36602d913960400191505060405180910390fd5b6002610af0610c85565b11610b46576040517f08c379a000000000000000000000000000000000000000000000000000000000815260040180806020018281038252602c815260200180611c16602c913960400191505060405180910390fd5b600160009054906101000a900473ffffffffffffffffffffffffffffffffffffffff1673ffffffffffffffffffffffffffffffffffffffff166323b872dd600460009054906101000a900473ffffffffffffffffffffffffffffffffffffffff1684846040518463ffffffff1660e01b8152600401808473ffffffffffffffffffffffffffffffffffffffff1673ffffffffffffffffffffffffffffffffffffffff1681526020018373ffffffffffffffffffffffffffffffffffffffff1673ffffffffffffffffffffffffffffffffffffffff1681526020018281526020019350505050602060405180830381600087803b158015610c4557600080fd5b505af1158015610c59573d6000803e3d6000fd5b505050506040513d6020811015610c6f57600080fd5b8101908080519060200190929190505050505050565b6000600360009054906101000a900473ffffffffffffffffffffffffffffffffffffffff1673ffffffffffffffffffffffffffffffffffffffff16610cc8611a89565b73ffffffffffffffffffffffffffffffffffffffff161480610d235750610ced611529565b73ffffffffffffffffffffffffffffffffffffffff16610d0b611a89565b73ffffffffffffffffffffffffffffffffffffffff16145b610d78576040517f08c379a000000000000000000000000000000000000000000000000000000000815260040180806020018281038252602a815260200180611c42602a913960400191505060405180910390fd5b600260149054906101000a900460ff166006811115610d9357fe5b905090565b610da88160085460075401610a39565b50565b6000600660009054906101000a900460ff16610e12576040517f08c379a0000000000000000000000000000000000000000000000000000000008152600401808060200182810382526029815260200180611b0d6029913960400191505060405180910390fd5b600260009054906101000a900473ffffffffffffffffffffffffffffffffffffffff1673ffffffffffffffffffffffffffffffffffffffff16610e53611a89565b73ffffffffffffffffffffffffffffffffffffffff1614610ebf576040517f08c379a0000000000000000000000000000000000000000000000000000000008152600401808060200182810382526025815260200180611ae86025913960400191505060405180910390fd5b6005547f4841434b4d4f4e455900000000000000000000000000000000000000000000001917905090565b610ef2611a89565b73ffffffffffffffffffffffffffffffffffffffff166000809054906101000a900473ffffffffffffffffffffffffffffffffffffffff1673ffffffffffffffffffffffffffffffffffffffff1614610fb3576040517f08c379a00000000000000000000000000000000000000000000000000000000081526004018080602001828103825260208152602001807f4f776e61626c653a2063616c6c6572206973206e6f7420746865206f776e657281525060200191505060405180910390fd5b600073ffffffffffffffffffffffffffffffffffffffff166000809054906101000a900473ffffffffffffffffffffffffffffffffffffffff1673ffffffffffffffffffffffffffffffffffffffff167f8be0079c531659141344cd1fd0a4f28419497f9722a3daafe3b4186f6b6457e060405160405180910390a360008060006101000a81548173ffffffffffffffffffffffffffffffffffffffff021916908373ffffffffffffffffffffffffffffffffffffffff160217905550565b61107a611a89565b73ffffffffffffffffffffffffffffffffffffffff166000809054906101000a900473ffffffffffffffffffffffffffffffffffffffff1673ffffffffffffffffffffffffffffffffffffffff161461113b576040517f08c379a00000000000000000000000000000000000000000000000000000000081526004018080602001828103825260208152602001807f4f776e61626c653a2063616c6c6572206973206e6f7420746865206f776e657281525060200191505060405180910390fd5b6000600681111561114857fe5b600260149054906101000a900460ff16600681111561116357fe5b146111b9576040517f08c379a000000000000000000000000000000000000000000000000000000000815260040180806020018281038252602a815260200180611bc2602a913960400191505060405180910390fd5b6006600260146101000a81548160ff021916908360068111156111d857fe5b0217905550565b6111e7611a89565b73ffffffffffffffffffffffffffffffffffffffff166000809054906101000a900473ffffffffffffffffffffffffffffffffffffffff1673ffffffffffffffffffffffffffffffffffffffff16146112a8576040517f08c379a00000000000000000000000000000000000000000000000000000000081526004018080602001828103825260208152602001807f4f776e61626c653a2063616c6c6572206973206e6f7420746865206f776e657281525060200191505060405180910390fd5b60026112b2610c85565b11611308576040517f08c379a0000000000000000000000000000000000000000000000000000000008152600401808060200182810382526030815260200180611a926030913960400191505060405180910390fd5b81600781905550806008819055505050565b6002600681111561132757fe5b600260149054906101000a900460ff16600681111561134257fe5b14611398576040517f08c379a000000000000000000000000000000000000000000000000000000000815260040180806020018281038252602d815260200180611b95602d913960400191505060405180910390fd5b60006113a2611a89565b9050600360009054906101000a900473ffffffffffffffffffffffffffffffffffffffff1673ffffffffffffffffffffffffffffffffffffffff168173ffffffffffffffffffffffffffffffffffffffff1663893d20e86040518163ffffffff1660e01b815260040160206040518083038186803b15801561142357600080fd5b505afa158015611437573d6000803e3d6000fd5b505050506040513d602081101561144d57600080fd5b810190808051906020019092919050505073ffffffffffffffffffffffffffffffffffffffff16146114ca576040517f08c379a0000000000000000000000000000000000000000000000000000000008152600401808060200182810382526032815260200180611b636032913960400191505060405180910390fd5b80600260006101000a81548173ffffffffffffffffffffffffffffffffffffffff021916908373ffffffffffffffffffffffffffffffffffffffff1602179055506001600660006101000a81548160ff02191690831515021790555050565b60008060009054906101000a900473ffffffffffffffffffffffffffffffffffffffff16905090565b600061155c611a89565b73ffffffffffffffffffffffffffffffffffffffff166000809054906101000a900473ffffffffffffffffffffffffffffffffffffffff1673ffffffffffffffffffffffffffffffffffffffff161461161d576040517f08c379a00000000000000000000000000000000000000000000000000000000081526004018080602001828103825260208152602001807f4f776e61626c653a2063616c6c6572206973206e6f7420746865206f776e657281525060200191505060405180910390fd5b600360009054906101000a900473ffffffffffffffffffffffffffffffffffffffff16905090565b600160009054906101000a900473ffffffffffffffffffffffffffffffffffffffff1681565b6000600660009054906101000a900460ff166116d2576040517f08c379a0000000000000000000000000000000000000000000000000000000008152600401808060200182810382526029815260200180611b0d6029913960400191505060405180910390fd5b600260009054906101000a900473ffffffffffffffffffffffffffffffffffffffff1673ffffffffffffffffffffffffffffffffffffffff16611713611a89565b73ffffffffffffffffffffffffffffffffffffffff161461177f576040517f08c379a0000000000000000000000000000000000000000000000000000000008152600401808060200182810382526025815260200180611ae86025913960400191505060405180910390fd5b6005547f4841434b4d4f4e4559000000000000000000000000000000000000000000000017905090565b6117b1611a89565b73ffffffffffffffffffffffffffffffffffffffff166000809054906101000a900473ffffffffffffffffffffffffffffffffffffffff1673ffffffffffffffffffffffffffffffffffffffff1614611872576040517f08c379a00000000000000000000000000000000000000000000000000000000081526004018080602001828103825260208152602001807f4f776e61626c653a2063616c6c6572206973206e6f7420746865206f776e657281525060200191505060405180910390fd5b600073ffffffffffffffffffffffffffffffffffffffff168173ffffffffffffffffffffffffffffffffffffffff1614156118f8576040517f08c379a0000000000000000000000000000000000000000000000000000000008152600401808060200182810382526026815260200180611ac26026913960400191505060405180910390fd5b8073ffffffffffffffffffffffffffffffffffffffff166000809054906101000a900473ffffffffffffffffffffffffffffffffffffffff1673ffffffffffffffffffffffffffffffffffffffff167f8be0079c531659141344cd1fd0a4f28419497f9722a3daafe3b4186f6b6457e060405160405180910390a3806000806101000a81548173ffffffffffffffffffffffffffffffffffffffff021916908373ffffffffffffffffffffffffffffffffffffffff16021790555050565b60006119c0611a89565b73ffffffffffffffffffffffffffffffffffffffff166000809054906101000a900473ffffffffffffffffffffffffffffffffffffffff1673ffffffffffffffffffffffffffffffffffffffff1614611a81576040517f08c379a00000000000000000000000000000000000000000000000000000000081526004018080602001828103825260208152602001807f4f776e61626c653a2063616c6c6572206973206e6f7420746865206f776e657281525060200191505060405180910390fd5b600554905090565b60003390509056fe53747564656e744170706c69636174696f6e3a206170706c69636174696f6e206e6f742066696e6973686564207965744f776e61626c653a206e6577206f776e657220697320746865207a65726f206164647265737353747564656e744170706c69636174696f6e3a2061726520796f75206368656174696e673f53747564656e744170706c69636174696f6e3a20616e73776572206e6f74207265676973746572656453747564656e744170706c69636174696f6e3a206f6e6c792073747564656e742063616e20776974686472617753747564656e744170706c69636174696f6e3a2073747564656e74206973206e6f74206f776e6572206f6620616e7377657253747564656e744170706c69636174696f6e3a206170706c69636174696f6e206973206e6f742061637469766553747564656e744170706c69636174696f6e3a206170706c69636174696f6e206973206e6f74204e657753747564656e744170706c69636174696f6e3a20636f756c64206e6f74207472616e736665722044414953747564656e744170706c69636174696f6e3a206170706c69636174696f6e206e6f742066696e697368656453747564656e744170706c69636174696f6e3a2072656164207065726d697373696f6e2064656e696564a26469706673582212203981c61472221d734032bee9f0437318a00546ae5aac7ea5758425b72d628b9064736f6c634300060600334f776e61626c653a206e6577206f776e657220697320746865207a65726f2061646472657373436c617373726f6f6d3a2073747564656e7420646f65736e2774206861766520656e6f7567682073636f7265436c617373726f6f6d3a206e6f7420656e6f7567682044414920746f2070726f63656564436c617373726f6f6d3a2072656164207065726d697373696f6e2064656e696564436c617373726f6f6d3a2073747564656e7473206c697374206e6f7420656d707479436c617373726f6f6d3a2070726f666573736f722063616e277420626520697473206f776e2073747564656e74536166654d6174683a206d756c7469706c69636174696f6e206f766572666c6f77436c617373726f6f6d3a20746f6f20736f6f6e20746f2066696e69736820636f75727365436c617373726f6f6d3a206170706c69636174696f6e7320617265207374696c6c206f70656e436c617373726f6f6d3a20696e7665737420616c6c2062616c616e6365206265666f726520626567696e436c617373726f6f6d3a206170706c69636174696f6e732061726520616c726561647920636c6f736564436c617373726f6f6d3a2073747564656e74206973206e6f742072656769737465726564436c617373726f6f6d3a206170706c69636174696f6e732061726520616c7265616479206f70656e6564a2646970667358221220b0b8eb8de156008cae9ba49d61c483ce4a8537ef779e0f1fb02540da97b1684564736f6c63430006060033456e756d657261626c655365743a20696e646578206f7574206f6620626f756e6473416363657373436f6e74726f6c3a2073656e646572206d75737420626520616e2061646d696e20746f206772616e74556e69766572736974793a2063616c6c657220646f65736e2774206861766520524541445f53545544454e545f4c4953545f524f4c454f776e61626c653a206e6577206f776e657220697320746865207a65726f2061646472657373556e69766572736974793a2063616c6c657220646f65736e277420686176652046554e44535f4d414e414745525f524f4c45556e69766572736974793a2073747564656e7420616c72656164792072656769737465726564556e69766572736974793a2063616c6c6572206973206e6f742073747564656e74206f662074686973206170706c69636174696f6e556e69766572736974793a2063616c6c657220646f65736e2774206861766520434c4153534c4953545f41444d494e5f524f4c45436c617373726f6f6d3a2072656164207065726d697373696f6e2064656e696564416363657373436f6e74726f6c3a2073656e646572206d75737420626520616e2061646d696e20746f207265766f6b65556e69766572736974793a2063616c6c657220646f65736e277420686176652053545544454e545f524f4c45556e69766572736974793a206170706c69636174696f6e206973206e6f74207375636365737366756c556e69766572736974793a2063616c6c657220646f65736e2774206861766520434c415353524f4f4d5f524f4c45416363657373436f6e74726f6c3a2063616e206f6e6c792072656e6f756e636520726f6c657320666f722073656c66a2646970667358221220b74b4ef6bc9ee41024609734f32055bfd8111609e83874eb9b585ccc4fceacf964736f6c63430006060033416363657373436f6e74726f6c3a2073656e646572206d75737420626520616e2061646d696e20746f206772616e74",
  "immutableReferences": {},
  "source": "pragma solidity 0.6.6;\r\n\r\nimport \"@openzeppelin/contracts/math/SafeMath.sol\";\r\nimport \"@openzeppelin/contracts/access/AccessControl.sol\";\r\nimport \"@openzeppelin/contracts/access/Ownable.sol\";\r\nimport \"@openzeppelin/contracts/token/ERC20/IERC20.sol\";\r\nimport \"@openzeppelin/contracts/utils/Address.sol\";\r\nimport \"./Classroom.sol\";\r\nimport \"./Student.sol\";\r\nimport \"./StudentApplication.sol\";\r\n\r\ninterface CERC20 {\r\n    function mint(uint256) external returns (uint256);\r\n    function exchangeRateCurrent() external returns (uint256);\r\n    function supplyRatePerBlock() external returns (uint256);\r\n    function redeem(uint) external returns (uint);\r\n    function redeemUnderlying(uint) external returns (uint);\r\n    function getCash() external returns (uint);\r\n    function balanceOfUnderlying(address account) external returns (uint);\r\n}\r\n\r\ncontract University is Ownable, AccessControl {\r\n    using SafeMath for uint256;\r\n\r\n    //CLASSLIST_ADMIN_ROLE can add new manually created classes to the list\r\n    bytes32 public constant CLASSLIST_ADMIN_ROLE = keccak256(\"CLASSLIST_ADMIN_ROLE\");\r\n    // FUNDS_MANAGER_ROLE can withdraw funds from the contract\r\n    bytes32 public constant FUNDS_MANAGER_ROLE = keccak256(\"FUNDS_MANAGER_ROLE\");\r\n    // GRANTS_MANAGER_ROLE can approve/decline grant claims\r\n    bytes32 public constant GRANTS_MANAGER_ROLE = keccak256(\"GRANTS_MANAGER_ROLE\");\r\n    // CLASSROOM_ROLE can manage itself inside the University and registering student applications\r\n    bytes32 public constant CLASSROOM_ROLE = keccak256(\"CLASSROOM_ROLE\");\r\n    // READ_STUDENT_LIST_ROLE allow reading students list\r\n    bytes32 public constant READ_STUDENT_LIST_ROLE = keccak256(\"READ_STUDENT_LIST_ROLE\");\r\n    // STUDENT_ROLE allow asking for grants and requesting a classroom from a successful application\r\n    bytes32 public constant STUDENT_ROLE = keccak256(\"STUDENT_ROLE\");\r\n\r\n    // Parameter: Name of this University\r\n    bytes32 _name;\r\n    // Parameter: University cut from professor (Parts per Million)\r\n    uint24 _cut;\r\n    // List of every registered classroom\r\n    Classroom[] _classList;\r\n    // List of every student\r\n    Student[] _students;\r\n    // Mapping of each student's applications\r\n    mapping(address => address[]) _studentApplicationsMapping;\r\n    // Address list of every donor\r\n    address[] _donors;\r\n\r\n    CERC20 public cToken;\r\n    IERC20 public daiToken;\r\n\r\n    constructor(bytes32 name, uint24 cut, address daiAddress, address compoundAddress) public {\r\n        _name = name;\r\n        _cut = cut;\r\n        _classList = new Classroom[](0);\r\n        _students = new Student[](0);\r\n        _setupRole(DEFAULT_ADMIN_ROLE, _msgSender());\r\n        grantRole(READ_STUDENT_LIST_ROLE, _msgSender());\r\n        //Kovan address\r\n        daiToken = IERC20(daiAddress);\r\n        cToken = CERC20(compoundAddress);\r\n    }\r\n\r\n    event NewClassroom(bytes32 indexed name, address addr);\r\n\r\n    function name() public view returns (bytes32){\r\n        return _name;\r\n    }\r\n\r\n    function changeName(bytes32 val) public onlyOwner {\r\n        _name = val;\r\n    }\r\n\r\n    function cut() public view returns (uint24){\r\n        return _cut;\r\n    }\r\n\r\n    function changeCut(uint24 val) public onlyOwner {\r\n        _cut = val;\r\n    }\r\n\r\n    function viewClassList() public view returns (Classroom[] memory) {\r\n        return _classList;\r\n    }\r\n\r\n    function isValidClassroom(address classroom) public view returns (bool) {\r\n        return hasRole(CLASSROOM_ROLE, classroom);\r\n    }\r\n\r\n    function newClassRoom(address owner, bytes32 cName) public {\r\n         newClassRoom(owner, cName, 0.2 * 10**6, 0.5 * 10**6, 0, 50 * (10 ** 18), 30 days);\r\n    }\r\n\r\n    function newClassRoom(address owner, bytes32 cName, uint24 cCut, uint24 cPCut, int32 minScore, uint entryPrice, uint duration) public {\r\n        require(hasRole(CLASSLIST_ADMIN_ROLE, _msgSender()), \"University: caller doesn't have CLASSLIST_ADMIN_ROLE\");\r\n        _newClassRoom(owner, cName, cCut, cPCut, minScore, entryPrice, duration);\r\n    }\r\n\r\n    function _newClassRoom(address owner, bytes32 cName, uint24 cCut, uint24 cPCut, int32 minScore, uint entryPrice, uint duration) internal {\r\n        //TODO: fetch contract from external factory to reduce size\r\n        Classroom classroom = new Classroom(cName, cCut, cPCut, minScore, entryPrice, duration,\r\n            address(this), address(daiToken), address(cToken));\r\n        classroom.transferOwnership(owner);\r\n        _classList.push(classroom);\r\n        grantRole(READ_STUDENT_LIST_ROLE, address(classroom));\r\n        grantRole(CLASSROOM_ROLE, address(classroom));\r\n        emit NewClassroom(cName, address(classroom));\r\n    }\r\n\r\n    function studentSelfRegister(bytes32 sName) public {\r\n        _newStudent(sName);\r\n    }\r\n\r\n    function _newStudent(bytes32 sName) internal {\r\n        require(_studentApplicationsMapping[_msgSender()].length == 0, \"University: student already registered\");\r\n        //Gambiarra: Push address(0) in the mapping to mark that student as registered in the university\r\n        _studentApplicationsMapping[_msgSender()].push(address(0));\r\n        //TODO: fetch contract from external factory to reduce size\r\n        Student student = new Student(sName, address(this));\r\n        student.transferOwnership(_msgSender());\r\n        _students.push(student);\r\n        grantRole(STUDENT_ROLE, address(student));\r\n    }\r\n\r\n    function studentIsRegistered(address student) public view returns (bool){\r\n        require(hasRole(READ_STUDENT_LIST_ROLE, _msgSender()), \"University: caller doesn't have READ_STUDENT_LIST_ROLE\");\r\n        return hasRole(STUDENT_ROLE, student);\r\n    }\r\n\r\n    function registerStudentApplication(address student, address application) public {\r\n        require(hasRole(CLASSROOM_ROLE, _msgSender()), \"University: caller doesn't have CLASSROOM_ROLE\");\r\n        _studentApplicationsMapping[student].push(application);\r\n    }\r\n\r\n    function viewMyApplications() public view returns (address[] memory) {\r\n        return viewStudentApplications(_msgSender());\r\n    }\r\n\r\n    function viewStudentApplications(address addr) public view returns (address[] memory) {\r\n        require(addr == _msgSender() || hasRole(GRANTS_MANAGER_ROLE, _msgSender()), \"Classroom: read permission denied\");\r\n        return _studentApplicationsMapping[addr];\r\n    }\r\n\r\n    function studentRequestClassroom(address applicationAddr,\r\n            bytes32 cName, uint24 cCut, uint24 cPCut, int32 minScore, uint entryPrice, uint duration) public {\r\n        require(hasRole(STUDENT_ROLE, _msgSender()), \"University: caller doesn't have STUDENT_ROLE\");\r\n        StudentApplication application = StudentApplication(applicationAddr);\r\n        require(checkForStudentApplication(_msgSender(), applicationAddr), \"University: caller is not student of this application\");\r\n        require(application.applicationState() == 3, \"University: application is not successful\");\r\n        _newClassRoom(Student(_msgSender()).owner(), cName, cCut, cPCut, minScore, entryPrice, duration);\r\n    }\r\n\r\n    function checkForStudentApplication(address studentAddress, address applicationAddress) internal view returns (bool) {\r\n        for (uint i = 0; i < _studentApplicationsMapping[studentAddress].length ; i++) {\r\n            if (_studentApplicationsMapping[studentAddress][i] == applicationAddress) return true;\r\n        }\r\n        return false;\r\n    }\r\n\r\n    function addStudentScore(address student, int32 val) public  {\r\n        require(hasRole(CLASSROOM_ROLE, _msgSender()), \"University: caller doesn't have CLASSROOM_ROLE\");\r\n        Student(student).addScore(val);\r\n    }\r\n\r\n    function subStudentScore(address student,int32 val) public  {\r\n        require(hasRole(CLASSROOM_ROLE, _msgSender()), \"University: caller doesn't have CLASSROOM_ROLE\");\r\n        Student(student).subScore(val);\r\n    }\r\n\r\n    function applyFunds(uint val) public {\r\n        require(hasRole(FUNDS_MANAGER_ROLE, _msgSender()), \"University: caller doesn't have FUNDS_MANAGER_ROLE\");\r\n        daiToken.approve(address(cToken), val);\r\n        cToken.mint(val);\r\n    }\r\n\r\n    function recoverFunds(uint val) public {\r\n        require(hasRole(FUNDS_MANAGER_ROLE, _msgSender()), \"University: caller doesn't have FUNDS_MANAGER_ROLE\");\r\n        cToken.redeemUnderlying(val);\r\n    }\r\n\r\n    function spendFunds(address to, uint val) public {\r\n        require(hasRole(FUNDS_MANAGER_ROLE, _msgSender()), \"University: caller doesn't have FUNDS_MANAGER_ROLE\");\r\n        daiToken.transfer(to, val);\r\n    }\r\n\r\n    function allowFunds(address to, uint val) public {\r\n        require(hasRole(FUNDS_MANAGER_ROLE, _msgSender()), \"University: caller doesn't have FUNDS_MANAGER_ROLE\");\r\n        daiToken.approve(to, val);\r\n    }\r\n}",
  "sourcePath": "/mnt/e/Repositories/Uproot/contracts/University.sol",
  "compiler": {
    "name": "solc",
    "version": "0.6.6+commit.6c089d02.Emscripten.clang"
  },
  "schemaVersion": "3.1.0",
  "updatedAt": "2020-05-02T19:27:24.786Z",
  "devdoc": {
    "methods": {
      "getRoleAdmin(bytes32)": {
        "details": "Returns the admin role that controls `role`. See {grantRole} and {revokeRole}.     * To change a role's admin, use {_setRoleAdmin}."
      },
      "getRoleMember(bytes32,uint256)": {
        "details": "Returns one of the accounts that have `role`. `index` must be a value between 0 and {getRoleMemberCount}, non-inclusive.     * Role bearers are not sorted in any particular way, and their ordering may change at any point.     * WARNING: When using {getRoleMember} and {getRoleMemberCount}, make sure you perform all queries on the same block. See the following https://forum.openzeppelin.com/t/iterating-over-elements-on-enumerableset-in-openzeppelin-contracts/2296[forum post] for more information."
      },
      "getRoleMemberCount(bytes32)": {
        "details": "Returns the number of accounts that have `role`. Can be used together with {getRoleMember} to enumerate all bearers of a role."
      },
      "grantRole(bytes32,address)": {
        "details": "Grants `role` to `account`.     * If `account` had not been already granted `role`, emits a {RoleGranted} event.     * Requirements:     * - the caller must have ``role``'s admin role."
      },
      "hasRole(bytes32,address)": {
        "details": "Returns `true` if `account` has been granted `role`."
      },
      "owner()": {
        "details": "Returns the address of the current owner."
      },
      "renounceOwnership()": {
        "details": "Leaves the contract without owner. It will not be possible to call `onlyOwner` functions anymore. Can only be called by the current owner.     * NOTE: Renouncing ownership will leave the contract without an owner, thereby removing any functionality that is only available to the owner."
      },
      "renounceRole(bytes32,address)": {
        "details": "Revokes `role` from the calling account.     * Roles are often managed via {grantRole} and {revokeRole}: this function's purpose is to provide a mechanism for accounts to lose their privileges if they are compromised (such as when a trusted device is misplaced).     * If the calling account had been granted `role`, emits a {RoleRevoked} event.     * Requirements:     * - the caller must be `account`."
      },
      "revokeRole(bytes32,address)": {
        "details": "Revokes `role` from `account`.     * If `account` had been granted `role`, emits a {RoleRevoked} event.     * Requirements:     * - the caller must have ``role``'s admin role."
      },
      "transferOwnership(address)": {
        "details": "Transfers ownership of the contract to a new account (`newOwner`). Can only be called by the current owner."
      }
    }
  },
  "userdoc": {
    "methods": {}
  }
}