{
  "contractName": "University",
  "abi": [
    {
      "inputs": [
        {
          "internalType": "bytes32",
          "name": "_name",
          "type": "bytes32"
        },
        {
          "internalType": "uint24",
          "name": "_cut",
          "type": "uint24"
        },
        {
          "internalType": "uint256",
          "name": "studentGSNDeposit",
          "type": "uint256"
        },
        {
          "internalType": "address",
          "name": "daiAddress",
          "type": "address"
        },
        {
          "internalType": "address",
          "name": "relayHubAddress",
          "type": "address"
        },
        {
          "internalType": "address",
          "name": "classroomFactoryAddress",
          "type": "address"
        },
        {
          "internalType": "address",
          "name": "studentFactoryAddress",
          "type": "address"
        },
        {
          "internalType": "address",
          "name": "studentApplicationFactoryAddress",
          "type": "address"
        }
      ],
      "stateMutability": "nonpayable",
      "type": "constructor"
    },
    {
      "anonymous": false,
      "inputs": [
        {
          "indexed": false,
          "internalType": "uint24",
          "name": "",
          "type": "uint24"
        }
      ],
      "name": "LogChangeCut",
      "type": "event"
    },
    {
      "anonymous": false,
      "inputs": [
        {
          "indexed": false,
          "internalType": "bytes32",
          "name": "",
          "type": "bytes32"
        }
      ],
      "name": "LogChangeName",
      "type": "event"
    },
    {
      "anonymous": false,
      "inputs": [
        {
          "indexed": false,
          "internalType": "bytes32",
          "name": "",
          "type": "bytes32"
        },
        {
          "indexed": false,
          "internalType": "address",
          "name": "",
          "type": "address"
        }
      ],
      "name": "LogNewClassroom",
      "type": "event"
    },
    {
      "anonymous": false,
      "inputs": [
        {
          "indexed": false,
          "internalType": "address",
          "name": "",
          "type": "address"
        },
        {
          "indexed": false,
          "internalType": "uint256",
          "name": "",
          "type": "uint256"
        }
      ],
      "name": "LogReceived",
      "type": "event"
    },
    {
      "anonymous": false,
      "inputs": [
        {
          "indexed": true,
          "internalType": "address",
          "name": "previousOwner",
          "type": "address"
        },
        {
          "indexed": true,
          "internalType": "address",
          "name": "newOwner",
          "type": "address"
        }
      ],
      "name": "OwnershipTransferred",
      "type": "event"
    },
    {
      "anonymous": false,
      "inputs": [
        {
          "indexed": true,
          "internalType": "bytes32",
          "name": "role",
          "type": "bytes32"
        },
        {
          "indexed": true,
          "internalType": "address",
          "name": "account",
          "type": "address"
        },
        {
          "indexed": true,
          "internalType": "address",
          "name": "sender",
          "type": "address"
        }
      ],
      "name": "RoleGranted",
      "type": "event"
    },
    {
      "anonymous": false,
      "inputs": [
        {
          "indexed": true,
          "internalType": "bytes32",
          "name": "role",
          "type": "bytes32"
        },
        {
          "indexed": true,
          "internalType": "address",
          "name": "account",
          "type": "address"
        },
        {
          "indexed": true,
          "internalType": "address",
          "name": "sender",
          "type": "address"
        }
      ],
      "name": "RoleRevoked",
      "type": "event"
    },
    {
      "inputs": [],
      "name": "CLASSLIST_ADMIN_ROLE",
      "outputs": [
        {
          "internalType": "bytes32",
          "name": "",
          "type": "bytes32"
        }
      ],
      "stateMutability": "view",
      "type": "function"
    },
    {
      "inputs": [],
      "name": "CLASSROOM_PROFESSOR_ROLE",
      "outputs": [
        {
          "internalType": "bytes32",
          "name": "",
          "type": "bytes32"
        }
      ],
      "stateMutability": "view",
      "type": "function"
    },
    {
      "inputs": [],
      "name": "DEFAULT_ADMIN_ROLE",
      "outputs": [
        {
          "internalType": "bytes32",
          "name": "",
          "type": "bytes32"
        }
      ],
      "stateMutability": "view",
      "type": "function"
    },
    {
      "inputs": [],
      "name": "FUNDS_MANAGER_ROLE",
      "outputs": [
        {
          "internalType": "bytes32",
          "name": "",
          "type": "bytes32"
        }
      ],
      "stateMutability": "view",
      "type": "function"
    },
    {
      "inputs": [],
      "name": "GRANTS_MANAGER_ROLE",
      "outputs": [
        {
          "internalType": "bytes32",
          "name": "",
          "type": "bytes32"
        }
      ],
      "stateMutability": "view",
      "type": "function"
    },
    {
      "inputs": [],
      "name": "READ_STUDENT_LIST_ROLE",
      "outputs": [
        {
          "internalType": "bytes32",
          "name": "",
          "type": "bytes32"
        }
      ],
      "stateMutability": "view",
      "type": "function"
    },
    {
      "inputs": [],
      "name": "REGISTERED_SUPPLIER_ROLE",
      "outputs": [
        {
          "internalType": "bytes32",
          "name": "",
          "type": "bytes32"
        }
      ],
      "stateMutability": "view",
      "type": "function"
    },
    {
      "inputs": [],
      "name": "STUDENT_IDENTITY_ROLE",
      "outputs": [
        {
          "internalType": "bytes32",
          "name": "",
          "type": "bytes32"
        }
      ],
      "stateMutability": "view",
      "type": "function"
    },
    {
      "inputs": [],
      "name": "UNIVERSITY_OVERSEER_ROLE",
      "outputs": [
        {
          "internalType": "bytes32",
          "name": "",
          "type": "bytes32"
        }
      ],
      "stateMutability": "view",
      "type": "function"
    },
    {
      "inputs": [
        {
          "internalType": "uint256",
          "name": "",
          "type": "uint256"
        }
      ],
      "name": "_classList",
      "outputs": [
        {
          "internalType": "address",
          "name": "",
          "type": "address"
        }
      ],
      "stateMutability": "view",
      "type": "function"
    },
    {
      "inputs": [],
      "name": "_msgSenderGSN",
      "outputs": [
        {
          "internalType": "address",
          "name": "",
          "type": "address"
        }
      ],
      "stateMutability": "view",
      "type": "function"
    },
    {
      "inputs": [],
      "name": "_uniswapRouter",
      "outputs": [
        {
          "internalType": "contract IUniswapV2Router01",
          "name": "",
          "type": "address"
        }
      ],
      "stateMutability": "view",
      "type": "function"
    },
    {
      "inputs": [],
      "name": "cDAI",
      "outputs": [
        {
          "internalType": "contract CERC20",
          "name": "",
          "type": "address"
        }
      ],
      "stateMutability": "view",
      "type": "function"
    },
    {
      "inputs": [],
      "name": "comptroller",
      "outputs": [
        {
          "internalType": "contract IComptroller",
          "name": "",
          "type": "address"
        }
      ],
      "stateMutability": "view",
      "type": "function"
    },
    {
      "inputs": [],
      "name": "cut",
      "outputs": [
        {
          "internalType": "uint24",
          "name": "",
          "type": "uint24"
        }
      ],
      "stateMutability": "view",
      "type": "function"
    },
    {
      "inputs": [],
      "name": "daiToken",
      "outputs": [
        {
          "internalType": "contract IERC20",
          "name": "",
          "type": "address"
        }
      ],
      "stateMutability": "view",
      "type": "function"
    },
    {
      "inputs": [],
      "name": "donationsReceived",
      "outputs": [
        {
          "internalType": "uint256",
          "name": "",
          "type": "uint256"
        }
      ],
      "stateMutability": "view",
      "type": "function"
    },
    {
      "inputs": [
        {
          "internalType": "address",
          "name": "",
          "type": "address"
        }
      ],
      "name": "donators",
      "outputs": [
        {
          "internalType": "uint256",
          "name": "",
          "type": "uint256"
        }
      ],
      "stateMutability": "view",
      "type": "function"
    },
    {
      "inputs": [],
      "name": "endowmentLocked",
      "outputs": [
        {
          "internalType": "uint256",
          "name": "",
          "type": "uint256"
        }
      ],
      "stateMutability": "view",
      "type": "function"
    },
    {
      "inputs": [
        {
          "internalType": "bytes32",
          "name": "role",
          "type": "bytes32"
        }
      ],
      "name": "getRoleAdmin",
      "outputs": [
        {
          "internalType": "bytes32",
          "name": "",
          "type": "bytes32"
        }
      ],
      "stateMutability": "view",
      "type": "function"
    },
    {
      "inputs": [
        {
          "internalType": "bytes32",
          "name": "role",
          "type": "bytes32"
        },
        {
          "internalType": "uint256",
          "name": "index",
          "type": "uint256"
        }
      ],
      "name": "getRoleMember",
      "outputs": [
        {
          "internalType": "address",
          "name": "",
          "type": "address"
        }
      ],
      "stateMutability": "view",
      "type": "function"
    },
    {
      "inputs": [
        {
          "internalType": "bytes32",
          "name": "role",
          "type": "bytes32"
        }
      ],
      "name": "getRoleMemberCount",
      "outputs": [
        {
          "internalType": "uint256",
          "name": "",
          "type": "uint256"
        }
      ],
      "stateMutability": "view",
      "type": "function"
    },
    {
      "inputs": [],
      "name": "getTrustedForwarder",
      "outputs": [
        {
          "internalType": "address",
          "name": "",
          "type": "address"
        }
      ],
      "stateMutability": "view",
      "type": "function"
    },
    {
      "inputs": [
        {
          "internalType": "bytes32",
          "name": "role",
          "type": "bytes32"
        },
        {
          "internalType": "address",
          "name": "account",
          "type": "address"
        }
      ],
      "name": "grantRole",
      "outputs": [],
      "stateMutability": "nonpayable",
      "type": "function"
    },
    {
      "inputs": [
        {
          "internalType": "bytes32",
          "name": "role",
          "type": "bytes32"
        },
        {
          "internalType": "address",
          "name": "account",
          "type": "address"
        }
      ],
      "name": "hasRole",
      "outputs": [
        {
          "internalType": "bool",
          "name": "",
          "type": "bool"
        }
      ],
      "stateMutability": "view",
      "type": "function"
    },
    {
      "inputs": [],
      "name": "name",
      "outputs": [
        {
          "internalType": "bytes32",
          "name": "",
          "type": "bytes32"
        }
      ],
      "stateMutability": "view",
      "type": "function"
    },
    {
      "inputs": [],
      "name": "operationalBudget",
      "outputs": [
        {
          "internalType": "uint256",
          "name": "",
          "type": "uint256"
        }
      ],
      "stateMutability": "view",
      "type": "function"
    },
    {
      "inputs": [],
      "name": "owner",
      "outputs": [
        {
          "internalType": "address",
          "name": "",
          "type": "address"
        }
      ],
      "stateMutability": "view",
      "type": "function"
    },
    {
      "inputs": [],
      "name": "priceOracle",
      "outputs": [
        {
          "internalType": "contract IPriceOracle",
          "name": "",
          "type": "address"
        }
      ],
      "stateMutability": "view",
      "type": "function"
    },
    {
      "inputs": [],
      "name": "relayHub",
      "outputs": [
        {
          "internalType": "contract IRelayHub",
          "name": "",
          "type": "address"
        }
      ],
      "stateMutability": "view",
      "type": "function"
    },
    {
      "inputs": [],
      "name": "renounceOwnership",
      "outputs": [],
      "stateMutability": "nonpayable",
      "type": "function"
    },
    {
      "inputs": [
        {
          "internalType": "bytes32",
          "name": "role",
          "type": "bytes32"
        },
        {
          "internalType": "address",
          "name": "account",
          "type": "address"
        }
      ],
      "name": "renounceRole",
      "outputs": [],
      "stateMutability": "nonpayable",
      "type": "function"
    },
    {
      "inputs": [],
      "name": "returnsReceived",
      "outputs": [
        {
          "internalType": "uint256",
          "name": "",
          "type": "uint256"
        }
      ],
      "stateMutability": "view",
      "type": "function"
    },
    {
      "inputs": [],
      "name": "revenueReceived",
      "outputs": [
        {
          "internalType": "uint256",
          "name": "",
          "type": "uint256"
        }
      ],
      "stateMutability": "view",
      "type": "function"
    },
    {
      "inputs": [
        {
          "internalType": "bytes32",
          "name": "role",
          "type": "bytes32"
        },
        {
          "internalType": "address",
          "name": "account",
          "type": "address"
        }
      ],
      "name": "revokeRole",
      "outputs": [],
      "stateMutability": "nonpayable",
      "type": "function"
    },
    {
      "inputs": [
        {
          "internalType": "address",
          "name": "newOwner",
          "type": "address"
        }
      ],
      "name": "transferOwnership",
      "outputs": [],
      "stateMutability": "nonpayable",
      "type": "function"
    },
    {
      "stateMutability": "payable",
      "type": "receive"
    },
    {
      "inputs": [
        {
          "internalType": "address",
          "name": "compoundDAIAddress",
          "type": "address"
        },
        {
          "internalType": "address",
          "name": "comptrollerAddress",
          "type": "address"
        },
        {
          "internalType": "address",
          "name": "priceOracleAddress",
          "type": "address"
        }
      ],
      "name": "configureCompound",
      "outputs": [],
      "stateMutability": "nonpayable",
      "type": "function"
    },
    {
      "inputs": [
        {
          "internalType": "address",
          "name": "uniswapWETH",
          "type": "address"
        },
        {
          "internalType": "address",
          "name": "uniswapDAI",
          "type": "address"
        },
        {
          "internalType": "address",
          "name": "uniswapRouter",
          "type": "address"
        }
      ],
      "name": "configureUniswap",
      "outputs": [],
      "stateMutability": "nonpayable",
      "type": "function"
    },
    {
      "inputs": [
        {
          "internalType": "address",
          "name": "lendingPoolAddressesProvider",
          "type": "address"
        }
      ],
      "name": "configureAave",
      "outputs": [],
      "stateMutability": "nonpayable",
      "type": "function"
    },
    {
      "inputs": [
        {
          "internalType": "bytes32",
          "name": "val",
          "type": "bytes32"
        }
      ],
      "name": "changeName",
      "outputs": [],
      "stateMutability": "nonpayable",
      "type": "function"
    },
    {
      "inputs": [
        {
          "internalType": "uint24",
          "name": "val",
          "type": "uint24"
        }
      ],
      "name": "changeCut",
      "outputs": [],
      "stateMutability": "nonpayable",
      "type": "function"
    },
    {
      "inputs": [
        {
          "internalType": "uint256",
          "name": "val",
          "type": "uint256"
        }
      ],
      "name": "changeStudentGSNDeposit",
      "outputs": [],
      "stateMutability": "nonpayable",
      "type": "function"
    },
    {
      "inputs": [],
      "name": "availableFunds",
      "outputs": [
        {
          "internalType": "uint256",
          "name": "",
          "type": "uint256"
        }
      ],
      "stateMutability": "view",
      "type": "function"
    },
    {
      "inputs": [
        {
          "internalType": "address",
          "name": "classroom",
          "type": "address"
        }
      ],
      "name": "isValidClassroom",
      "outputs": [
        {
          "internalType": "bool",
          "name": "",
          "type": "bool"
        }
      ],
      "stateMutability": "view",
      "type": "function"
    },
    {
      "inputs": [
        {
          "internalType": "address",
          "name": "student",
          "type": "address"
        }
      ],
      "name": "studentIsRegistered",
      "outputs": [
        {
          "internalType": "bool",
          "name": "",
          "type": "bool"
        }
      ],
      "stateMutability": "view",
      "type": "function"
    },
    {
      "inputs": [],
      "name": "viewMyApplications",
      "outputs": [
        {
          "internalType": "address[]",
          "name": "",
          "type": "address[]"
        }
      ],
      "stateMutability": "view",
      "type": "function"
    },
    {
      "inputs": [
        {
          "internalType": "address",
          "name": "addr",
          "type": "address"
        }
      ],
      "name": "viewStudentApplications",
      "outputs": [
        {
          "internalType": "address[]",
          "name": "",
          "type": "address[]"
        }
      ],
      "stateMutability": "view",
      "type": "function"
    },
    {
      "inputs": [
        {
          "internalType": "bytes32",
          "name": "sName",
          "type": "bytes32"
        }
      ],
      "name": "studentSelfRegisterGSN",
      "outputs": [
        {
          "internalType": "address",
          "name": "",
          "type": "address"
        }
      ],
      "stateMutability": "nonpayable",
      "type": "function"
    },
    {
      "inputs": [
        {
          "internalType": "bytes32",
          "name": "sName",
          "type": "bytes32"
        }
      ],
      "name": "studentSelfRegister",
      "outputs": [
        {
          "internalType": "address",
          "name": "",
          "type": "address"
        }
      ],
      "stateMutability": "nonpayable",
      "type": "function"
    },
    {
      "inputs": [
        {
          "internalType": "address",
          "name": "owner",
          "type": "address"
        },
        {
          "internalType": "bytes32",
          "name": "cName",
          "type": "bytes32"
        },
        {
          "internalType": "uint24",
          "name": "cCut",
          "type": "uint24"
        },
        {
          "internalType": "uint24",
          "name": "cPCut",
          "type": "uint24"
        },
        {
          "internalType": "int32",
          "name": "minScore",
          "type": "int32"
        },
        {
          "internalType": "uint256",
          "name": "entryPrice",
          "type": "uint256"
        },
        {
          "internalType": "uint256",
          "name": "duration",
          "type": "uint256"
        },
        {
          "internalType": "address",
          "name": "challengeAddress",
          "type": "address"
        }
      ],
      "name": "newClassRoom",
      "outputs": [
        {
          "internalType": "address",
          "name": "",
          "type": "address"
        }
      ],
      "stateMutability": "nonpayable",
      "type": "function"
    },
    {
      "inputs": [
        {
          "internalType": "address",
          "name": "applicationAddr",
          "type": "address"
        },
        {
          "internalType": "bytes32",
          "name": "cName",
          "type": "bytes32"
        },
        {
          "internalType": "uint24",
          "name": "cCut",
          "type": "uint24"
        },
        {
          "internalType": "uint24",
          "name": "cPCut",
          "type": "uint24"
        },
        {
          "internalType": "int32",
          "name": "minScore",
          "type": "int32"
        },
        {
          "internalType": "uint256",
          "name": "entryPrice",
          "type": "uint256"
        },
        {
          "internalType": "uint256",
          "name": "duration",
          "type": "uint256"
        },
        {
          "internalType": "address",
          "name": "challenge",
          "type": "address"
        }
      ],
      "name": "studentRequestClassroom",
      "outputs": [
        {
          "internalType": "address",
          "name": "",
          "type": "address"
        }
      ],
      "stateMutability": "nonpayable",
      "type": "function"
    },
    {
      "inputs": [
        {
          "internalType": "address",
          "name": "student",
          "type": "address"
        },
        {
          "internalType": "address",
          "name": "application",
          "type": "address"
        }
      ],
      "name": "registerStudentApplication",
      "outputs": [],
      "stateMutability": "nonpayable",
      "type": "function"
    },
    {
      "inputs": [
        {
          "internalType": "address",
          "name": "student",
          "type": "address"
        },
        {
          "internalType": "int32",
          "name": "val",
          "type": "int32"
        }
      ],
      "name": "addStudentScore",
      "outputs": [],
      "stateMutability": "nonpayable",
      "type": "function"
    },
    {
      "inputs": [
        {
          "internalType": "address",
          "name": "student",
          "type": "address"
        },
        {
          "internalType": "int32",
          "name": "val",
          "type": "int32"
        }
      ],
      "name": "subStudentScore",
      "outputs": [],
      "stateMutability": "nonpayable",
      "type": "function"
    },
    {
      "inputs": [
        {
          "internalType": "uint256",
          "name": "val",
          "type": "uint256"
        }
      ],
      "name": "applyFundsCompound",
      "outputs": [],
      "stateMutability": "nonpayable",
      "type": "function"
    },
    {
      "inputs": [
        {
          "internalType": "uint256",
          "name": "val",
          "type": "uint256"
        }
      ],
      "name": "recoverFundsCompound",
      "outputs": [],
      "stateMutability": "nonpayable",
      "type": "function"
    },
    {
      "inputs": [
        {
          "internalType": "uint256",
          "name": "val",
          "type": "uint256"
        }
      ],
      "name": "applyFundsAave",
      "outputs": [],
      "stateMutability": "nonpayable",
      "type": "function"
    },
    {
      "inputs": [
        {
          "internalType": "uint256",
          "name": "val",
          "type": "uint256"
        }
      ],
      "name": "recoverFundsAave",
      "outputs": [],
      "stateMutability": "nonpayable",
      "type": "function"
    },
    {
      "inputs": [],
      "name": "enterCompoundDAIMarket",
      "outputs": [],
      "stateMutability": "nonpayable",
      "type": "function"
    },
    {
      "inputs": [],
      "name": "exitCompoundDAIMarket",
      "outputs": [],
      "stateMutability": "nonpayable",
      "type": "function"
    },
    {
      "inputs": [],
      "name": "getCompoundLiquidityAndShortfall",
      "outputs": [
        {
          "internalType": "uint256",
          "name": "",
          "type": "uint256"
        },
        {
          "internalType": "uint256",
          "name": "",
          "type": "uint256"
        }
      ],
      "stateMutability": "view",
      "type": "function"
    },
    {
      "inputs": [
        {
          "internalType": "address",
          "name": "cToken",
          "type": "address"
        }
      ],
      "name": "getCompoundPriceInWEI",
      "outputs": [
        {
          "internalType": "uint256",
          "name": "",
          "type": "uint256"
        }
      ],
      "stateMutability": "view",
      "type": "function"
    },
    {
      "inputs": [
        {
          "internalType": "address",
          "name": "cToken",
          "type": "address"
        }
      ],
      "name": "getCompoundMaxBorrowInWEI",
      "outputs": [
        {
          "internalType": "uint256",
          "name": "",
          "type": "uint256"
        }
      ],
      "stateMutability": "view",
      "type": "function"
    },
    {
      "inputs": [
        {
          "internalType": "address",
          "name": "cToken",
          "type": "address"
        },
        {
          "internalType": "uint256",
          "name": "val",
          "type": "uint256"
        }
      ],
      "name": "compoundBorrow",
      "outputs": [],
      "stateMutability": "nonpayable",
      "type": "function"
    },
    {
      "inputs": [
        {
          "internalType": "address",
          "name": "cToken",
          "type": "address"
        }
      ],
      "name": "compoundGetBorrow",
      "outputs": [
        {
          "internalType": "uint256",
          "name": "",
          "type": "uint256"
        }
      ],
      "stateMutability": "view",
      "type": "function"
    },
    {
      "inputs": [
        {
          "internalType": "address",
          "name": "token",
          "type": "address"
        },
        {
          "internalType": "address",
          "name": "cToken",
          "type": "address"
        },
        {
          "internalType": "uint256",
          "name": "val",
          "type": "uint256"
        }
      ],
      "name": "compoundRepayBorrow",
      "outputs": [],
      "stateMutability": "nonpayable",
      "type": "function"
    },
    {
      "inputs": [
        {
          "internalType": "uint256",
          "name": "val",
          "type": "uint256"
        }
      ],
      "name": "increaseOperationalBudget",
      "outputs": [],
      "stateMutability": "nonpayable",
      "type": "function"
    },
    {
      "inputs": [
        {
          "internalType": "address",
          "name": "to",
          "type": "address"
        },
        {
          "internalType": "uint256",
          "name": "val",
          "type": "uint256"
        }
      ],
      "name": "spendBudget",
      "outputs": [],
      "stateMutability": "nonpayable",
      "type": "function"
    },
    {
      "inputs": [
        {
          "internalType": "address",
          "name": "studentApplication",
          "type": "address"
        },
        {
          "internalType": "uint256",
          "name": "price",
          "type": "uint256"
        }
      ],
      "name": "giveGrant",
      "outputs": [],
      "stateMutability": "nonpayable",
      "type": "function"
    },
    {
      "inputs": [
        {
          "internalType": "uint256",
          "name": "val",
          "type": "uint256"
        }
      ],
      "name": "reinvestReturns",
      "outputs": [],
      "stateMutability": "nonpayable",
      "type": "function"
    },
    {
      "inputs": [
        {
          "internalType": "address",
          "name": "grantsManager",
          "type": "address"
        }
      ],
      "name": "viewAllStudentsFromGrantManager",
      "outputs": [
        {
          "internalType": "address[]",
          "name": "",
          "type": "address[]"
        }
      ],
      "stateMutability": "nonpayable",
      "type": "function"
    },
    {
      "inputs": [
        {
          "internalType": "address",
          "name": "student",
          "type": "address"
        },
        {
          "internalType": "address",
          "name": "grantsManager",
          "type": "address"
        }
      ],
      "name": "viewAllStudentGrantsFromGrantManager",
      "outputs": [
        {
          "internalType": "uint256[]",
          "name": "",
          "type": "uint256[]"
        }
      ],
      "stateMutability": "nonpayable",
      "type": "function"
    },
    {
      "inputs": [
        {
          "components": [
            {
              "internalType": "address",
              "name": "target",
              "type": "address"
            },
            {
              "internalType": "bytes",
              "name": "encodedFunction",
              "type": "bytes"
            },
            {
              "components": [
                {
                  "internalType": "uint256",
                  "name": "gasLimit",
                  "type": "uint256"
                },
                {
                  "internalType": "uint256",
                  "name": "gasPrice",
                  "type": "uint256"
                },
                {
                  "internalType": "uint256",
                  "name": "pctRelayFee",
                  "type": "uint256"
                },
                {
                  "internalType": "uint256",
                  "name": "baseRelayFee",
                  "type": "uint256"
                }
              ],
              "internalType": "struct GSNTypes.GasData",
              "name": "gasData",
              "type": "tuple"
            },
            {
              "components": [
                {
                  "internalType": "address",
                  "name": "senderAddress",
                  "type": "address"
                },
                {
                  "internalType": "uint256",
                  "name": "senderNonce",
                  "type": "uint256"
                },
                {
                  "internalType": "address",
                  "name": "relayWorker",
                  "type": "address"
                },
                {
                  "internalType": "address",
                  "name": "paymaster",
                  "type": "address"
                }
              ],
              "internalType": "struct GSNTypes.RelayData",
              "name": "relayData",
              "type": "tuple"
            }
          ],
          "internalType": "struct GSNTypes.RelayRequest",
          "name": "relayRequest",
          "type": "tuple"
        },
        {
          "internalType": "bytes",
          "name": "",
          "type": "bytes"
        },
        {
          "internalType": "uint256",
          "name": "",
          "type": "uint256"
        }
      ],
      "name": "acceptRelayedCall",
      "outputs": [
        {
          "internalType": "bytes",
          "name": "context",
          "type": "bytes"
        }
      ],
      "stateMutability": "pure",
      "type": "function"
    },
    {
      "inputs": [
        {
          "internalType": "uint256",
          "name": "val",
          "type": "uint256"
        }
      ],
      "name": "refillUniversityRelayer",
      "outputs": [],
      "stateMutability": "nonpayable",
      "type": "function"
    },
    {
      "inputs": [
        {
          "internalType": "uint256",
          "name": "amount",
          "type": "uint256"
        },
        {
          "internalType": "uint256",
          "name": "deadline",
          "type": "uint256"
        }
      ],
      "name": "swapDAI_ETH",
      "outputs": [
        {
          "internalType": "uint256[]",
          "name": "amounts",
          "type": "uint256[]"
        }
      ],
      "stateMutability": "nonpayable",
      "type": "function"
    },
    {
      "inputs": [
        {
          "internalType": "uint256",
          "name": "amount",
          "type": "uint256"
        },
        {
          "internalType": "uint256",
          "name": "deadline",
          "type": "uint256"
        }
      ],
      "name": "swapETH_DAI",
      "outputs": [
        {
          "internalType": "uint256[]",
          "name": "amounts",
          "type": "uint256[]"
        }
      ],
      "stateMutability": "nonpayable",
      "type": "function"
    },
    {
      "inputs": [
        {
          "internalType": "uint256",
          "name": "donation",
          "type": "uint256"
        }
      ],
      "name": "donateETH",
      "outputs": [],
      "stateMutability": "payable",
      "type": "function"
    },
    {
      "inputs": [
        {
          "internalType": "uint256",
          "name": "donation",
          "type": "uint256"
        }
      ],
      "name": "donateDAI",
      "outputs": [],
      "stateMutability": "nonpayable",
      "type": "function"
    },
    {
      "inputs": [
        {
          "internalType": "uint256",
          "name": "revenue",
          "type": "uint256"
        }
      ],
      "name": "accountRevenue",
      "outputs": [],
      "stateMutability": "nonpayable",
      "type": "function"
    }
  ],
  "bytecode": "0x60806040523480156200001157600080fd5b50604051620054923803806200549283398101604081905262000034916200036c565b6000620000496001600160e01b036200017316565b600080546001600160a01b0319166001600160a01b0383169081178255604051929350917f8be0079c531659141344cd1fd0a4f28419497f9722a3daafe3b4186f6b6457e0908290a35060038890556004805462ffffff191662ffffff89161790556005869055620000cf6000620000c062000173565b6001600160e01b036200017716565b6200010c604051620000e1906200040f565b604051908190039020620000fd6001600160e01b036200017316565b6001600160e01b036200019016565b601980546001600160a01b03199081166001600160a01b0397881617909155601a8054821695871695909517909455601b8054851693861693909317909255601c80548416918516919091179055601d805490921692169190911790555062000487915050565b3390565b6200018c82826001600160e01b03620001f116565b5050565b600082815260016020526040902060020154620001c990620001ba6001600160e01b036200017316565b6001600160e01b036200027516565b620001775760405162461bcd60e51b8152600401620001e89062000438565b60405180910390fd5b600082815260016020908152604090912062000218918390620039fe620002a4821b17901c565b156200018c57620002316001600160e01b036200017316565b6001600160a01b0316816001600160a01b0316837f2f8788117e7eff1d82e926ec794901d17c78024a50270940304540a733656f0d60405160405180910390a45050565b600082815260016020908152604082206200029b91849062003730620002c4821b17901c565b90505b92915050565b60006200029b836001600160a01b0384166001600160e01b03620002e416565b60006200029b836001600160a01b0384166001600160e01b036200033c16565b6000620002fb83836001600160e01b036200033c16565b62000333575081546001818101845560008481526020808220909301849055845484825282860190935260409020919091556200029e565b5060006200029e565b60009081526001919091016020526040902054151590565b80516001600160a01b03811681146200029e57600080fd5b600080600080600080600080610100898b03121562000389578384fd5b88519750602089015162ffffff81168114620003a3578485fd5b60408a01519097509550620003bc8a60608b0162000354565b9450620003cd8a60808b0162000354565b9350620003de8a60a08b0162000354565b9250620003ef8a60c08b0162000354565b9150620004008a60e08b0162000354565b90509295985092959890939650565b7f524541445f53545544454e545f4c4953545f524f4c4500000000000000000000815260160190565b6020808252602f908201527f416363657373436f6e74726f6c3a2073656e646572206d75737420626520616e60408201526e0818591b5a5b881d1bc819dc985b9d608a1b606082015260800190565b614ffb80620004976000396000f3fe60806040526004361061055c5760003560e01c806385dade61116102ca578063c45e108a11610179578063e1ba8597116100d6578063f2fde38b1161008a578063f686484a1161006f578063f686484a14610e33578063fa8e506014610e53578063ff5d8f6314610e735761059c565b8063f2fde38b14610dfe578063f676f43d14610e1e5761059c565b8063e6fd604c116100bb578063e6fd604c14610d9c578063e770d7d414610dbe578063ef5450ba14610dde5761059c565b8063e1ba859714610d5c578063e37dd98014610d7c5761059c565b8063cb4e56011161012d578063d24f8cdd11610112578063d24f8cdd14610cfc578063d3c5704e14610d1c578063d547741f14610d3c5761059c565b8063cb4e560114610cc7578063ce1b815f14610ce75761059c565b8063c799f5e21161015e578063c799f5e214610c67578063ca15c87314610c87578063cb0ce41714610ca75761059c565b8063c45e108a14610c32578063c4707a8314610c525761059c565b80639e93d0e411610227578063adcceca4116101db578063be22f546116101c0578063be22f54614610be8578063be61437914610bfd578063c2b94cd814610c125761059c565b8063adcceca414610b9b578063b1ed031f14610bbb5761059c565b8063a217fddf1161020c578063a217fddf14610b53578063a544594e14610b68578063ab83f98a14610b885761059c565b80639e93d0e414610b1e5780639fd6cb7a14610b3e5761059c565b80638ff2f7621161027e57806391d148541161026357806391d1485414610ac95780639b5dbe7814610ae95780639e1fcfde14610b095761059c565b80638ff2f76214610a895780639010d07c14610aa95761059c565b8063898855ed116102af578063898855ed14610a3f5780638a9f5b7f14610a5f5780638da5cb5b14610a745761059c565b806385dade61146109ff57806387bfe18814610a1f5761059c565b806346fcff4c116104265780636408a38611610383578063715018a61161033757806380359c841161031c57806380359c84146109aa57806380380906146109ca578063820cd75c146109ea5761059c565b8063715018a6146109755780637fd5c1081461098a5761059c565b806365b61b771161036857806365b61b77146109365780636beb0c031461094b5780636f6941b9146109605761059c565b80636408a3861461090c57806364d47731146109215761059c565b80635a7dd150116103da5780635caa8e2d116103bf5780635caa8e2d146108cd5780635fe3b567146108e2578063629bca67146108f75761059c565b80635a7dd1501461088d5780635b8f96de146108ad5761059c565b80634884da051161040b5780634884da051461082b5780634ea962c11461085857806351275dba146108785761059c565b806346fcff4c146107f6578063478ecefb1461080b5761059c565b8063248a9ca3116104d457806332636ac91161048857806336568abe1161046d57806336568abe14610796578063377ef77f146107b65780633dc3214b146107d65761059c565b806332636ac9146107615780633593aad6146107765761059c565b806328475518116104b95780632847551814610717578063289c5e541461072c5780632f2ff15d146107415761059c565b8063248a9ca3146106d55780632630c12f146106f55761059c565b806317b1a4cf1161052b5780631ec1f9f3116105105780631ec1f9f31461067357806321ae321114610688578063238aaf2f146106a85761059c565b806317b1a4cf1461063c578063183b2600146106515761059c565b806306fdde03146105a157806308186df9146105cc57806316ded1ce146105ef5780631749201c1461061c5761059c565b3661059c577f60e4c1ac84c9e2c4c0aa82b86b3b1ddf0b1b73fbbeb74c8bc8f8f06041ccfdf63334604051610592929190614251565b60405180910390a1005b600080fd5b3480156105ad57600080fd5b506105b6610e93565b6040516105c39190614331565b60405180910390f35b3480156105d857600080fd5b506105e1610e99565b6040516105c3929190614ee1565b3480156105fb57600080fd5b5061060f61060a366004613bd8565b610fae565b6040516105c39190614326565b34801561062857600080fd5b506105b6610637366004613bd8565b610ffe565b34801561064857600080fd5b506105b66110a5565b34801561065d57600080fd5b5061067161066c366004613c10565b6110ab565b005b34801561067f57600080fd5b506105b6611114565b34801561069457600080fd5b506106716106a3366004613d95565b61111a565b3480156106b457600080fd5b506106c86106c3366004613c10565b6111e1565b6040516105c391906142e2565b3480156106e157600080fd5b506105b66106f0366004613f08565b6112a9565b34801561070157600080fd5b5061070a6112be565b6040516105c3919061423d565b34801561072357600080fd5b5061070a6112cd565b34801561073857600080fd5b5061070a6112dc565b34801561074d57600080fd5b5061067161075c366004613f20565b61135f565b34801561076d57600080fd5b506105b66113a7565b34801561078257600080fd5b50610671610791366004613f08565b6113be565b3480156107a257600080fd5b506106716107b1366004613f20565b611444565b3480156107c257600080fd5b506106716107d1366004613f08565b611486565b3480156107e257600080fd5b506106c86107f1366004613f44565b61154c565b34801561080257600080fd5b506105b66115bf565b34801561081757600080fd5b50610671610826366004613f08565b61169b565b34801561083757600080fd5b5061084b610846366004613bd8565b611757565b6040516105c391906142cf565b34801561086457600080fd5b5061070a610873366004613cd2565b6117fb565b34801561088457600080fd5b506105b6611845565b34801561089957600080fd5b5061070a6108a8366004613f08565b61184b565b3480156108b957600080fd5b506106716108c8366004613c48565b61185e565b3480156108d957600080fd5b506106716118d2565b3480156108ee57600080fd5b5061070a611a20565b34801561090357600080fd5b506105b6611a2f565b34801561091857600080fd5b5061084b611a3b565b34801561092d57600080fd5b506105b6611a4d565b34801561094257600080fd5b5061070a611a59565b34801561095757600080fd5b506105b6611a68565b34801561096c57600080fd5b5061070a611a6e565b34801561098157600080fd5b50610671611a7d565b34801561099657600080fd5b5061070a6109a5366004613cd2565b611afc565b3480156109b657600080fd5b506106716109c5366004613c92565b611c80565b3480156109d657600080fd5b506106716109e5366004613f08565b611def565b3480156109f657600080fd5b506105b6611e80565b348015610a0b57600080fd5b5061060f610a1a366004613bd8565b611e8c565b348015610a2b57600080fd5b50610671610a3a366004613d62565b611e9d565b348015610a4b57600080fd5b50610671610a5a366004613f08565b611f27565b348015610a6b57600080fd5b506105b6611f9c565b348015610a8057600080fd5b5061070a611fa8565b348015610a9557600080fd5b5061070a610aa4366004613f08565b611fb7565b348015610ab557600080fd5b5061070a610ac4366004613f44565b612036565b348015610ad557600080fd5b5061060f610ae4366004613f20565b612054565b348015610af557600080fd5b50610671610b04366004613f08565b612072565b348015610b1557600080fd5b50610671612141565b348015610b2a57600080fd5b50610671610b39366004613f08565b612232565b348015610b4a57600080fd5b506105b661228d565b348015610b5f57600080fd5b506105b6612299565b348015610b7457600080fd5b50610671610b83366004613f08565b61229e565b610671610b96366004613f08565b612322565b348015610ba757600080fd5b506105b6610bb6366004613bd8565b6123a3565b348015610bc757600080fd5b50610bdb610bd6366004613f65565b612465565b6040516105c391906143bc565b348015610bf457600080fd5b5061070a61254a565b348015610c0957600080fd5b506105b6612559565b348015610c1e57600080fd5b50610671610c2d366004613d95565b612565565b348015610c3e57600080fd5b50610671610c4d366004613c48565b6125f2565b348015610c5e57600080fd5b506105b6612666565b348015610c7357600080fd5b50610671610c82366004613bd8565b612672565b348015610c9357600080fd5b506105b6610ca2366004613f08565b6128d2565b348015610cb357600080fd5b506106c8610cc2366004613f44565b6128e9565b348015610cd357600080fd5b50610671610ce2366004613d95565b61295c565b348015610cf357600080fd5b5061070a612aa3565b348015610d0857600080fd5b506105b6610d17366004613bd8565b612ab2565b348015610d2857600080fd5b5061084b610d37366004613bd8565b612ac4565b348015610d4857600080fd5b50610671610d57366004613f20565b612b87565b348015610d6857600080fd5b506105b6610d77366004613bd8565b612bc1565b348015610d8857600080fd5b5061070a610d97366004613f08565b612bf2565b348015610da857600080fd5b50610db1612c19565b6040516105c39190614e95565b348015610dca57600080fd5b50610671610dd9366004614002565b612c24565b348015610dea57600080fd5b50610671610df9366004613f08565b612ca2565b348015610e0a57600080fd5b50610671610e19366004613bd8565b612cdc565b348015610e2a57600080fd5b506105b6612d92565b348015610e3f57600080fd5b50610671610e4e366004613f08565b612d98565b348015610e5f57600080fd5b50610671610e6e366004613f08565b612e0c565b348015610e7f57600080fd5b50610671610e8e366004613d62565b612e60565b60035481565b600080610ebb604051610eab90614199565b6040518091039020610ae4612ed0565b610ee05760405162461bcd60e51b8152600401610ed7906145e5565b60405180910390fd5b6013546040517f5ec88c79000000000000000000000000000000000000000000000000000000008152600091829182916001600160a01b031690635ec88c7990610f2e90309060040161423d565b60606040518083038186803b158015610f4657600080fd5b505afa158015610f5a573d6000803e3d6000fd5b505050506040513d601f19601f82011682018060405250810190610f7e919061403d565b92509250925082600014610fa45760405162461bcd60e51b8152600401610ed790614768565b9093509150509091565b6000610fbf604051610eab906140f5565b610fdb5760405162461bcd60e51b8152600401610ed79061452b565b610ff8604051610fea9061411e565b604051809103902083612054565b92915050565b600080611009610e99565b5060145460405163fc57d4df60e01b815291925061109e916001600160a01b039091169063fc57d4df9061104190879060040161423d565b60206040518083038186803b15801561105957600080fd5b505afa15801561106d573d6000803e3d6000fd5b505050506040513d601f19601f820116820180604052508101906110919190614025565b829063ffffffff612ed416565b9392505050565b600e5481565b6110ba604051610eab90614147565b6110d65760405162461bcd60e51b8152600401610ed7906149cd565b6001600160a01b0391821660009081526008602090815260408220805460018101825590835291200180546001600160a01b03191691909216179055565b600d5481565b611129604051610eab90614199565b6111455760405162461bcd60e51b8152600401610ed7906145e5565b6040517fc5ebeaec0000000000000000000000000000000000000000000000000000000081526001600160a01b0383169063c5ebeaec9061118a908490600401614331565b602060405180830381600087803b1580156111a457600080fd5b505af11580156111b8573d6000803e3d6000fd5b505050506040513d601f19601f820116820180604052508101906111dc9190614025565b505050565b60606111f2604051610eab90614214565b61120e5760405162461bcd60e51b8152600401610ed790614bd3565b6040517fe60d0f4a0000000000000000000000000000000000000000000000000000000081526001600160a01b0383169063e60d0f4a9061125390869060040161423d565b600060405180830381600087803b15801561126d57600080fd5b505af1158015611281573d6000803e3d6000fd5b505050506040513d6000823e601f3d908101601f1916820160405261109e9190810190613e61565b60009081526001602052604090206002015490565b6014546001600160a01b031681565b601a546001600160a01b031681565b60006018361080159061130757506112f2612aa3565b6001600160a01b0316336001600160a01b0316145b15611359576113526000368080601f0160208091040260200160405190810160405280939291908181526020018383808284376000920191909152505060131936019150612f169050565b905061135c565b50335b90565b60008281526001602052604090206002015461137d90610ae4612ed0565b6113995760405162461bcd60e51b8152600401610ed790614471565b6113a38282612f27565b5050565b6040516113b39061411e565b604051809103902081565b6113c6612ed0565b6000546001600160a01b039081169116146113f35760405162461bcd60e51b8152600401610ed790614ae4565b80600d5410156114155760405162461bcd60e51b8152600401610ed790614642565b600e54611428908263ffffffff612f9616565b600e55600d5461143e908263ffffffff612fbb16565b600d5550565b61144c612ed0565b6001600160a01b0316816001600160a01b03161461147c5760405162461bcd60e51b8152600401610ed790614e38565b6113a38282612ffd565b611495604051610eab90614199565b6114b15760405162461bcd60e51b8152600401610ed7906145e5565b6012546040517f852a12e30000000000000000000000000000000000000000000000000000000081526001600160a01b039091169063852a12e3906114fa908490600401614331565b602060405180830381600087803b15801561151457600080fd5b505af1158015611528573d6000803e3d6000fd5b505050506040513d601f19601f820116820180604052508101906113a39190614025565b606061155d604051610eab90614199565b6115795760405162461bcd60e51b8152600401610ed7906145e5565b600f546001600160a01b03166115a15760405162461bcd60e51b8152600401610ed790614da4565b600f5460105461109e916001600160a01b039081169116858561306c565b6019546040516370a0823160e01b815260009182916001600160a01b03909116906370a08231906115f490309060040161423d565b60206040518083038186803b15801561160c57600080fd5b505afa158015611620573d6000803e3d6000fd5b505050506040513d601f19601f820116820180604052508101906116449190614025565b905061165d600e54600d54612f9690919063ffffffff16565b81101561166e57600091505061135c565b611695600e54611689600d5484612fbb90919063ffffffff16565b9063ffffffff612fbb16565b91505090565b6116aa604051610eab90614199565b806116d457506116b8611fa8565b6001600160a01b03166116c9612ed0565b6001600160a01b0316145b6116f05760405162461bcd60e51b8152600401610ed7906145e5565b601a5460405163aa67c91960e01b81526001600160a01b039091169063aa67c91990839061172290309060040161423d565b6000604051808303818588803b15801561173b57600080fd5b505af115801561174f573d6000803e3d6000fd5b505050505050565b6060611768604051610eab90614214565b6117845760405162461bcd60e51b8152600401610ed790614bd3565b816001600160a01b03166369e7af436040518163ffffffff1660e01b8152600401600060405180830381600087803b1580156117bf57600080fd5b505af11580156117d3573d6000803e3d6000fd5b505050506040513d6000823e601f3d908101601f19168201604052610ff89190810190613dc0565b600061180c604051610eab90614170565b6118285760405162461bcd60e51b8152600401610ed790614859565b61183889898989898989896131a2565b9998505050505050505050565b600c5481565b6000610ff882611859612ed0565b6133c6565b611866612ed0565b6000546001600160a01b039081169116146118935760405162461bcd60e51b8152600401610ed790614ae4565b600f80546001600160a01b039485166001600160a01b031991821617909155601080549385169382169390931790925560118054919093169116179055565b6118e1604051610eab90614199565b6118fd5760405162461bcd60e51b8152600401610ed7906145e5565b60408051600180825281830190925260609160208083019080368337505060125482519293506001600160a01b03169183915060009061193957fe5b6001600160a01b0392831660209182029290920101526013546040517fc2998238000000000000000000000000000000000000000000000000000000008152606092919091169063c2998238906119949085906004016142cf565b600060405180830381600087803b1580156119ae57600080fd5b505af11580156119c2573d6000803e3d6000fd5b505050506040513d6000823e601f3d908101601f191682016040526119ea9190810190613e61565b9050806000815181106119f957fe5b60200260200101516000146113a35760405162461bcd60e51b8152600401610ed790614c30565b6013546001600160a01b031681565b6040516113b3906141c2565b6060611a48610d37612ed0565b905090565b6040516113b3906141eb565b6011546001600160a01b031681565b600b5481565b6012546001600160a01b031681565b611a85612ed0565b6000546001600160a01b03908116911614611ab25760405162461bcd60e51b8152600401610ed790614ae4565b600080546040516001600160a01b03909116907f8be0079c531659141344cd1fd0a4f28419497f9722a3daafe3b4186f6b6457e0908390a3600080546001600160a01b0319169055565b6000611b0d604051610eab9061411e565b611b295760405162461bcd60e51b8152600401610ed790614913565b611b3a611b34612ed0565b8a6135b9565b611b565760405162461bcd60e51b8152600401610ed7906147c5565b6000899050806001600160a01b0316636587b61e6040518163ffffffff1660e01b815260040160206040518083038186803b158015611b9457600080fd5b505afa158015611ba8573d6000803e3d6000fd5b505050506040513d601f19601f82011682018060405250810190611bcc9190614025565b600314611beb5760405162461bcd60e51b8152600401610ed790614cea565b611c72611bf6612ed0565b6001600160a01b0316637a6c8b536040518163ffffffff1660e01b815260040160206040518083038186803b158015611c2e57600080fd5b505afa158015611c42573d6000803e3d6000fd5b505050506040513d601f19601f82011682018060405250810190611c669190613bf4565b8a8a8a8a8a8a8a6131a2565b9a9950505050505050505050565b611c8f604051610eab90614199565b611cab5760405162461bcd60e51b8152600401610ed7906145e5565b6040516370a0823160e01b815281906001600160a01b038516906370a0823190611cd990309060040161423d565b60206040518083038186803b158015611cf157600080fd5b505afa158015611d05573d6000803e3d6000fd5b505050506040513d601f19601f82011682018060405250810190611d299190614025565b1015611d475760405162461bcd60e51b8152600401610ed7906148b6565b611d5283838361363d565b6040517f0e7527020000000000000000000000000000000000000000000000000000000081526001600160a01b03831690630e75270290611d97908490600401614331565b602060405180830381600087803b158015611db157600080fd5b505af1158015611dc5573d6000803e3d6000fd5b505050506040513d601f19601f82011682018060405250810190611de99190614025565b50505050565b611dfe604051610eab90614199565b611e1a5760405162461bcd60e51b8152600401610ed7906145e5565b601954601254611e37916001600160a01b0390811691168361363d565b6012546040517fa0712d680000000000000000000000000000000000000000000000000000000081526001600160a01b039091169063a0712d68906114fa908490600401614331565b6040516113b390614170565b6000610ff8604051610fea90614147565b611eac604051610eab90614147565b611ec85760405162461bcd60e51b8152600401610ed7906149cd565b6040517faa4f38c70000000000000000000000000000000000000000000000000000000081526001600160a01b0383169063aa4f38c790611f0d9084906004016143cf565b600060405180830381600087803b15801561173b57600080fd5b611f2f612ed0565b6000546001600160a01b03908116911614611f5c5760405162461bcd60e51b8152600401610ed790614ae4565b60038190556040517f9f8929be552430dd6434c446d106c34954b2040ca8c4dbf42a39323dd6cda3ca90611f91908390614331565b60405180910390a150565b6040516113b390614147565b6000546001600160a01b031690565b600080611fc6836118596112dc565b601a5460055460405163aa67c91960e01b81529293506001600160a01b039091169163aa67c9199190611ffd90859060040161423d565b6000604051808303818588803b15801561201657600080fd5b505af115801561202a573d6000803e3d6000fd5b50939695505050505050565b600082815260016020526040812061109e908363ffffffff61372416565b600082815260016020526040812061109e908363ffffffff61373016565b612081604051610eab90614199565b61209d5760405162461bcd60e51b8152600401610ed7906145e5565b6019546017546120ba916001600160a01b0390811691168361363d565b6016546019546040517fd2d0e0660000000000000000000000000000000000000000000000000000000081526001600160a01b039283169263d2d0e0669261210c9291169085906000906004016142aa565b600060405180830381600087803b15801561212657600080fd5b505af115801561213a573d6000803e3d6000fd5b5050505050565b612150604051610eab90614199565b61216c5760405162461bcd60e51b8152600401610ed7906145e5565b6013546012546040517fede4edd00000000000000000000000000000000000000000000000000000000081526000926001600160a01b039081169263ede4edd0926121bd929091169060040161423d565b602060405180830381600087803b1580156121d757600080fd5b505af11580156121eb573d6000803e3d6000fd5b505050506040513d601f19601f8201168201806040525081019061220f9190614025565b9050801561222f5760405162461bcd60e51b8152600401610ed790614a2a565b50565b612241604051610eab90614199565b61225d5760405162461bcd60e51b8152600401610ed7906145e5565b806122666115bf565b10156122845760405162461bcd60e51b8152600401610ed7906146d4565b61222f81613745565b6040516113b3906140f5565b600081565b6019546122bd906001600160a01b03166122b6612ed0565b3084613799565b6122f381600960006122cd612ed0565b6001600160a01b031681526020810191909152604001600020549063ffffffff612f9616565b600960006122ff612ed0565b6001600160a01b0316815260208101919091526040016000205561222f81613882565b60606123308261a8c061154c565b90506123568160018151811061234257fe5b6020026020010151600960006122cd612ed0565b60096000612362612ed0565b6001600160a01b03166001600160a01b03168152602001908152602001600020819055506113a38160018151811061239657fe5b6020026020010151613882565b60006123b4604051610eab90614199565b6123d05760405162461bcd60e51b8152600401610ed7906145e5565b6040517f17bfdfbc0000000000000000000000000000000000000000000000000000000081526001600160a01b038316906317bfdfbc9061241590309060040161423d565b60206040518083038186803b15801561242d57600080fd5b505afa158015612441573d6000803e3d6000fd5b505050506040513d601f19601f82011682018060405250810190610ff89190614025565b60607f8ff2f762000000000000000000000000000000000000000000000000000000006124d26124986020880188614eef565b8080601f016020809104026020016040519081016040528093929190818152602001838380828437600092018290525092506138ab915050565b7fffffffff0000000000000000000000000000000000000000000000000000000016146125115760405162461bcd60e51b8152600401610ed790614c8d565b61251e6020860186613bd8565b600060405160200161253192919061428e565b6040516020818303038152906040529050949350505050565b6019546001600160a01b031681565b6040516113b390614214565b612574604051610eab906141eb565b6125905760405162461bcd60e51b8152600401610ed790614b76565b806125996115bf565b10156125b75760405162461bcd60e51b8152600401610ed7906146d4565b816001600160a01b0316632d24947b6040518163ffffffff1660e01b8152600401600060405180830381600087803b15801561173b57600080fd5b6125fa612ed0565b6000546001600160a01b039081169116146126275760405162461bcd60e51b8152600401610ed790614ae4565b601280546001600160a01b039485166001600160a01b031991821617909155601380549385169382169390931790925560148054919093169116179055565b6040516113b390614199565b61267a612ed0565b6000546001600160a01b039081169116146126a75760405162461bcd60e51b8152600401610ed790614ae4565b601580546001600160a01b0319166001600160a01b038381169190911791829055604080517f0261bf8b00000000000000000000000000000000000000000000000000000000815290519290911691630261bf8b91600480820192602092909190829003018186803b15801561271c57600080fd5b505afa158015612730573d6000803e3d6000fd5b505050506040513d601f19601f820116820180604052508101906127549190613bf4565b601680546001600160a01b0319166001600160a01b03928316179055601554604080517fed6ff7600000000000000000000000000000000000000000000000000000000081529051919092169163ed6ff760916004808301926020929190829003018186803b1580156127c657600080fd5b505afa1580156127da573d6000803e3d6000fd5b505050506040513d601f19601f820116820180604052508101906127fe9190613bf4565b601780546001600160a01b0319166001600160a01b0392831617908190556019546040517f34b3beee000000000000000000000000000000000000000000000000000000008152918316926334b3beee9261285f929091169060040161423d565b60206040518083038186803b15801561287757600080fd5b505afa15801561288b573d6000803e3d6000fd5b505050506040513d601f19601f820116820180604052508101906128af9190613bf4565b601880546001600160a01b0319166001600160a01b039290921691909117905550565b6000818152600160205260408120610ff8906138d5565b60606128fa604051610eab90614199565b6129165760405162461bcd60e51b8152600401610ed7906145e5565b600f546001600160a01b031661293e5760405162461bcd60e51b8152600401610ed790614da4565b601054600f5461109e916001600160a01b039081169116858561306c565b61296b604051610eab90614199565b6129875760405162461bcd60e51b8152600401610ed7906145e5565b612996604051610fea906141c2565b6129b25760405162461bcd60e51b8152600401610ed790614d47565b80600e5410156129d45760405162461bcd60e51b8152600401610ed790614b19565b6019546040516370a0823160e01b815282916001600160a01b0316906370a0823190612a0490309060040161423d565b60206040518083038186803b158015612a1c57600080fd5b505afa158015612a30573d6000803e3d6000fd5b505050506040513d601f19601f82011682018060405250810190612a549190614025565b1015612a725760405162461bcd60e51b8152600401610ed7906144ce565b601954612a89906001600160a01b031683836138e0565b600e54612a9c908263ffffffff612fbb16565b600e555050565b6002546001600160a01b031690565b60096020526000908152604090205481565b6060612ace612ed0565b6001600160a01b0316826001600160a01b03161480612af75750612af7604051610eab906141eb565b612b135760405162461bcd60e51b8152600401610ed790614970565b6001600160a01b03821660009081526008602090815260409182902080548351818402810184019094528084529091830182828015612b7b57602002820191906000526020600020905b81546001600160a01b03168152600190910190602001808311612b5d575b50505050509050919050565b600082815260016020526040902060020154612ba590610ae4612ed0565b61147c5760405162461bcd60e51b8152600401610ed790614a87565b60145460405163fc57d4df60e01b81526000916001600160a01b03169063fc57d4df9061241590859060040161423d565b60068181548110612bff57fe5b6000918252602090912001546001600160a01b0316905081565b60045462ffffff1681565b612c2c612ed0565b6000546001600160a01b03908116911614612c595760405162461bcd60e51b8152600401610ed790614ae4565b6004805462ffffff191662ffffff83811691909117918290556040517f1add5f7de244142e10bca375bb84823e3c24ddac2c2ec678f35c007d8f02084d92611f91921690614e95565b612caa612ed0565b6000546001600160a01b03908116911614612cd75760405162461bcd60e51b8152600401610ed790614ae4565b600555565b612ce4612ed0565b6000546001600160a01b03908116911614612d115760405162461bcd60e51b8152600401610ed790614ae4565b6001600160a01b038116612d375760405162461bcd60e51b8152600401610ed790614588565b600080546040516001600160a01b03808516939216917f8be0079c531659141344cd1fd0a4f28419497f9722a3daafe3b4186f6b6457e091a3600080546001600160a01b0319166001600160a01b0392909216919091179055565b600a5481565b612da7604051610eab90614199565b612dc35760405162461bcd60e51b8152600401610ed7906145e5565b6018546040517fdb006a750000000000000000000000000000000000000000000000000000000081526001600160a01b039091169063db006a759061210c908490600401614331565b612e1b604051610eab90614147565b612e375760405162461bcd60e51b8152600401610ed7906149cd565b600b54612e4a908263ffffffff612f9616565b600b55600d5461143e908263ffffffff612f9616565b612e6f604051610eab90614147565b612e8b5760405162461bcd60e51b8152600401610ed7906149cd565b6040517f686513500000000000000000000000000000000000000000000000000000000081526001600160a01b03831690636865135090611f0d9084906004016143cf565b3390565b600061109e83836040518060400160405280601a81526020017f536166654d6174683a206469766973696f6e206279207a65726f0000000000008152506139c7565b01601401516001600160a01b031690565b6000828152600160205260409020612f45908263ffffffff6139fe16565b156113a357612f52612ed0565b6001600160a01b0316816001600160a01b0316837f2f8788117e7eff1d82e926ec794901d17c78024a50270940304540a733656f0d60405160405180910390a45050565b60008282018381101561109e5760405162461bcd60e51b8152600401610ed790614731565b600061109e83836040518060400160405280601e81526020017f536166654d6174683a207375627472616374696f6e206f766572666c6f770000815250613a13565b600082815260016020526040902061301b908263ffffffff613a3f16565b156113a357613028612ed0565b6001600160a01b0316816001600160a01b0316837ff6391f5c32d9c69d2a47ea670b442974b53935d1edc7fd64eb21e047a839171b60405160405180910390a45050565b6011546060906130879086906001600160a01b03168561363d565b604080516002808252606080830184529260208301908036833701905050905085816000815181106130b557fe5b60200260200101906001600160a01b031690816001600160a01b03168152505084816001815181106130e357fe5b6001600160a01b0392831660209182029290920101526011546040517f38ed17390000000000000000000000000000000000000000000000000000000081529116906338ed173990613142908790600090869030908a90600401614ea5565b600060405180830381600087803b15801561315c57600080fd5b505af1158015613170573d6000803e3d6000fd5b505050506040513d6000823e601f3d908101601f191682016040526131989190810190613e61565b9695505050505050565b600080601b60009054906101000a90046001600160a01b03166001600160a01b031663f9a84f968a8a8a8a8a8a308b601960009054906101000a90046001600160a01b0316601260009054906101000a90046001600160a01b0316601d60009054906101000a90046001600160a01b03166040518c63ffffffff1660e01b81526004016132399b9a99989796959493929190614351565b602060405180830381600087803b15801561325357600080fd5b505af1158015613267573d6000803e3d6000fd5b505050506040513d601f19601f8201168201806040525081019061328b9190613bf4565b6040517f18b9533b0000000000000000000000000000000000000000000000000000000081529091506001600160a01b038216906318b9533b906132d3908d9060040161423d565b600060405180830381600087803b1580156132ed57600080fd5b505af1158015613301573d6000803e3d6000fd5b5050600680546001810182556000919091527ff652222313e28459528d920b65115c16c04f3efc82aaedc97be59f3f377c0d3f0180546001600160a01b0319166001600160a01b0385161790555050604051819061337090613362906140f5565b60405180910390208261135f565b61337f60405161336290614147565b7f0e2441b756c0237af490768eeb52214bde66464d79756f8ac3c03b10c9528b3c8a826040516133b092919061433a565b60405180910390a19a9950505050505050505050565b6000600860006133d46112dc565b6001600160a01b031681526020810191909152604001600020541561340b5760405162461bcd60e51b8152600401610ed790614677565b6001600160a01b038083166000908152600860209081526040808320805460018101825590845291832090910180546001600160a01b0319169055601c5490517f8ebf1d2700000000000000000000000000000000000000000000000000000000815291921690638ebf1d2790613488908790309060040161433a565b602060405180830381600087803b1580156134a257600080fd5b505af11580156134b6573d6000803e3d6000fd5b505050506040513d601f19601f820116820180604052508101906134da9190613bf4565b6040517f18a9e9480000000000000000000000000000000000000000000000000000000081529091506001600160a01b038216906318a9e9489061352290869060040161423d565b600060405180830381600087803b15801561353c57600080fd5b505af1158015613550573d6000803e3d6000fd5b5050600780546001810182556000919091527fa66cc928b5edb82af9bd49922954155ab7b0942694bea4ce44661d9a8736c6880180546001600160a01b0319166001600160a01b038516179055505060405181906135b1906133629061411e565b949350505050565b6000805b6001600160a01b038416600090815260086020526040902054811015613633576001600160a01b0384811660009081526008602052604090208054918516918390811061360657fe5b6000918252602090912001546001600160a01b0316141561362b576001915050610ff8565b6001016135bd565b5060009392505050565b60006060846001600160a01b031663095ea7b38585604051602401613663929190614251565b6040516020818303038152906040529060e01b6020820180516001600160e01b03838183161783525050505060405161369c91906140d9565b6000604051808303816000865af19150503d80600081146136d9576040519150601f19603f3d011682016040523d82523d6000602084013e6136de565b606091505b50915091508180156137085750805115806137085750808060200190518101906137089190613ee8565b61213a5760405162461bcd60e51b8152600401610ed790614822565b600061109e8383613a54565b600061109e836001600160a01b038416613a99565b613754604051610eab90614147565b6137705760405162461bcd60e51b8152600401610ed7906149cd565b600b54613783908263ffffffff612f9616565b600c55600d5461143e908263ffffffff612f9616565b60006060856001600160a01b03166323b872dd8686866040516024016137c19392919061426a565b6040516020818303038152906040529060e01b6020820180516001600160e01b0383818316178352505050506040516137fa91906140d9565b6000604051808303816000865af19150503d8060008114613837576040519150601f19603f3d011682016040523d82523d6000602084013e61383c565b606091505b50915091508180156138665750805115806138665750808060200190518101906138669190613ee8565b61174f5760405162461bcd60e51b8152600401610ed790614ddb565b600a54613895908263ffffffff612f9616565b600a55600d5461143e908263ffffffff612f9616565b01602001517fffffffff000000000000000000000000000000000000000000000000000000001690565b6000610ff882613ab1565b60006060846001600160a01b031663a9059cbb8585604051602401613906929190614251565b6040516020818303038152906040529060e01b6020820180516001600160e01b03838183161783525050505060405161393f91906140d9565b6000604051808303816000865af19150503d806000811461397c576040519150601f19603f3d011682016040523d82523d6000602084013e613981565b606091505b50915091508180156139ab5750805115806139ab5750808060200190518101906139ab9190613ee8565b61213a5760405162461bcd60e51b8152600401610ed79061443a565b600081836139e85760405162461bcd60e51b8152600401610ed791906143bc565b5060008385816139f457fe5b0495945050505050565b600061109e836001600160a01b038416613ab5565b60008184841115613a375760405162461bcd60e51b8152600401610ed791906143bc565b505050900390565b600061109e836001600160a01b038416613aff565b81546000908210613a775760405162461bcd60e51b8152600401610ed7906143dd565b826000018281548110613a8657fe5b9060005260206000200154905092915050565b60009081526001919091016020526040902054151590565b5490565b6000613ac18383613a99565b613af757508154600181810184556000848152602080822090930184905584548482528286019093526040902091909155610ff8565b506000610ff8565b60008181526001830160205260408120548015613bbb5783546000198083019190810190600090879083908110613b3257fe5b9060005260206000200154905080876000018481548110613b4f57fe5b600091825260208083209091019290925582815260018981019092526040902090840190558654879080613b7f57fe5b60019003818190600052602060002001600090559055866001016000878152602001908152602001600020600090556001945050505050610ff8565b6000915050610ff8565b803562ffffff81168114610ff857600080fd5b600060208284031215613be9578081fd5b813561109e81614fb0565b600060208284031215613c05578081fd5b815161109e81614fb0565b60008060408385031215613c22578081fd5b8235613c2d81614fb0565b91506020830135613c3d81614fb0565b809150509250929050565b600080600060608486031215613c5c578081fd5b8335613c6781614fb0565b92506020840135613c7781614fb0565b91506040840135613c8781614fb0565b809150509250925092565b600080600060608486031215613ca6578283fd5b8335613cb181614fb0565b92506020840135613cc181614fb0565b929592945050506040919091013590565b600080600080600080600080610100898b031215613cee578384fd5b8835613cf981614fb0565b975060208901359650613d0f8a60408b01613bc5565b9550613d1e8a60608b01613bc5565b945060808901358060030b8114613d33578485fd5b935060a0890135925060c0890135915060e0890135613d5181614fb0565b809150509295985092959890939650565b60008060408385031215613d74578182fd5b8235613d7f81614fb0565b91506020830135600381900b8114613c3d578182fd5b60008060408385031215613da7578182fd5b8235613db281614fb0565b946020939093013593505050565b60006020808385031215613dd2578182fd5b825167ffffffffffffffff811115613de8578283fd5b80840185601f820112613df9578384fd5b80519150613e0e613e0983614f64565b614f3d565b8281528381019082850185850284018601891015613e2a578687fd5b8693505b84841015613e55578051613e4181614fb0565b835260019390930192918501918501613e2e565b50979650505050505050565b60006020808385031215613e73578182fd5b825167ffffffffffffffff811115613e89578283fd5b80840185601f820112613e9a578384fd5b80519150613eaa613e0983614f64565b8281528381019082850185850284018601891015613ec6578687fd5b8693505b84841015613e55578051835260019390930192918501918501613eca565b600060208284031215613ef9578081fd5b8151801515811461109e578182fd5b600060208284031215613f19578081fd5b5035919050565b60008060408385031215613f32578182fd5b823591506020830135613c3d81614fb0565b60008060408385031215613f56578182fd5b50508035926020909101359150565b60008060008060608587031215613f7a578182fd5b843567ffffffffffffffff80821115613f91578384fd5b818701610140818a031215613fa4578485fd5b95506020870135915080821115613fb9578384fd5b81870188601f820112613fca578485fd5b8035925081831115613fda578485fd5b886020848301011115613feb578485fd5b959860209096019750909560400135949350505050565b600060208284031215614013578081fd5b813562ffffff8116811461109e578182fd5b600060208284031215614036578081fd5b5051919050565b600080600060608486031215614051578081fd5b8351925060208401519150604084015190509250925092565b6000815180845260208085019450808401835b838110156140a25781516001600160a01b03168752958201959082019060010161407d565b509495945050505050565b600081518084526140c5816020860160208601614f84565b601f01601f19169290920160200192915050565b600082516140eb818460208701614f84565b9190910192915050565b7f524541445f53545544454e545f4c4953545f524f4c4500000000000000000000815260160190565b7f53545544454e545f4944454e544954595f524f4c450000000000000000000000815260150190565b7f434c415353524f4f4d5f50524f464553534f525f524f4c450000000000000000815260180190565b7f434c4153534c4953545f41444d494e5f524f4c45000000000000000000000000815260140190565b7f46554e44535f4d414e414745525f524f4c450000000000000000000000000000815260120190565b7f524547495354455245445f535550504c4945525f524f4c450000000000000000815260180190565b7f4752414e54535f4d414e414745525f524f4c4500000000000000000000000000815260130190565b7f554e49564552534954595f4f564552534545525f524f4c450000000000000000815260180190565b6001600160a01b0391909116815260200190565b6001600160a01b03929092168252602082015260400190565b6001600160a01b039384168152919092166020820152604081019190915260600190565b6001600160a01b0392909216825260ff16602082015260400190565b6001600160a01b03939093168352602083019190915261ffff16604082015260600190565b60006020825261109e602083018461406a565b6020808252825182820181905260009190848201906040850190845b8181101561431a578351835292840192918401916001016142fe565b50909695505050505050565b901515815260200190565b90815260200190565b9182526001600160a01b0316602082015260400190565b9a8b5262ffffff998a1660208c01529790981660408a015260039590950b6060890152608088019390935260a08701919091526001600160a01b0390811660c087015290811660e0860152908116610100850152918216610120840152166101408201526101600190565b60006020825261109e60208301846140ad565b60039190910b815260200190565b60208082526022908201527f456e756d657261626c655365743a20696e646578206f7574206f6620626f756e60408201527f6473000000000000000000000000000000000000000000000000000000000000606082015260800190565b6020808252601f908201527f5472616e7366657248656c7065723a205452414e534645525f4641494c454400604082015260600190565b6020808252602f908201527f416363657373436f6e74726f6c3a2073656e646572206d75737420626520616e60408201527f2061646d696e20746f206772616e740000000000000000000000000000000000606082015260800190565b6020808252602a908201527f556e69766572736974793a206c697175696461746520736f6d6520706f73697460408201527f696f6e7320666972737400000000000000000000000000000000000000000000606082015260800190565b60208082526036908201527f556e69766572736974793a2063616c6c657220646f65736e277420686176652060408201527f524541445f53545544454e545f4c4953545f524f4c4500000000000000000000606082015260800190565b60208082526026908201527f4f776e61626c653a206e6577206f776e657220697320746865207a65726f206160408201527f6464726573730000000000000000000000000000000000000000000000000000606082015260800190565b60208082526032908201527f556e69766572736974793a2063616c6c657220646f65736e277420686176652060408201527f46554e44535f4d414e414745525f524f4c450000000000000000000000000000606082015260800190565b6020808252818101527f556e69766572736974793a206e6f7420656e6f75676820656e646f776d656e74604082015260600190565b60208082526026908201527f556e69766572736974793a2073747564656e7420616c7265616479207265676960408201527f7374657265640000000000000000000000000000000000000000000000000000606082015260800190565b60208082526026908201527f556e69766572736974793a206e6f7420656e6f75676820617661696c61626c6560408201527f2066756e64730000000000000000000000000000000000000000000000000000606082015260800190565b6020808252601b908201527f536166654d6174683a206164646974696f6e206f766572666c6f770000000000604082015260600190565b60208082526033908201527f556e69766572736974793a20436f6d7074726f6c6c65722e6765744163636f7560408201527f6e744c6971756964697479206661696c65642e00000000000000000000000000606082015260800190565b60208082526035908201527f556e69766572736974793a2063616c6c6572206973206e6f742073747564656e60408201527f74206f662074686973206170706c69636174696f6e0000000000000000000000606082015260800190565b6020808252601e908201527f5472616e7366657248656c7065723a20415050524f56455f4641494c45440000604082015260600190565b60208082526034908201527f556e69766572736974793a2063616c6c657220646f65736e277420686176652060408201527f434c4153534c4953545f41444d494e5f524f4c45000000000000000000000000606082015260800190565b6020808252602b908201527f556e69766572736974793a206e6f7420656e6f756768206f662074686973207460408201527f6f6b656e2073746f726564000000000000000000000000000000000000000000606082015260800190565b60208082526035908201527f556e69766572736974793a2063616c6c657220646f65736e277420686176652060408201527f53545544454e545f4944454e544954595f524f4c450000000000000000000000606082015260800190565b60208082526021908201527f436c617373726f6f6d3a2072656164207065726d697373696f6e2064656e696560408201527f6400000000000000000000000000000000000000000000000000000000000000606082015260800190565b60208082526038908201527f556e69766572736974793a2063616c6c657220646f65736e277420686176652060408201527f434c415353524f4f4d5f50524f464553534f525f524f4c450000000000000000606082015260800190565b6020808252602a908201527f556e69766572736974793a20436f6d7074726f6c6c65722e657869744d61726b60408201527f6574206661696c65642e00000000000000000000000000000000000000000000606082015260800190565b60208082526030908201527f416363657373436f6e74726f6c3a2073656e646572206d75737420626520616e60408201527f2061646d696e20746f207265766f6b6500000000000000000000000000000000606082015260800190565b6020808252818101527f4f776e61626c653a2063616c6c6572206973206e6f7420746865206f776e6572604082015260600190565b60208082526029908201527f556e69766572736974793a206e6f7420656e6f756768206f7065726174696f6e60408201527f616c206275646765740000000000000000000000000000000000000000000000606082015260800190565b60208082526033908201527f556e69766572736974793a2063616c6c657220646f65736e277420686176652060408201527f4752414e54535f4d414e414745525f524f4c4500000000000000000000000000606082015260800190565b60208082526038908201527f556e69766572736974793a2063616c6c657220646f65736e277420686176652060408201527f554e49564552534954595f4f564552534545525f524f4c450000000000000000606082015260800190565b6020808252602c908201527f556e69766572736974793a20436f6d7074726f6c6c65722e656e7465724d617260408201527f6b657473206661696c65642e0000000000000000000000000000000000000000606082015260800190565b6020808252602d908201527f556e69766572736974793a2047534e206e6f7420656e61626c656420666f722060408201527f746869732066756e6374696f6e00000000000000000000000000000000000000606082015260800190565b60208082526029908201527f556e69766572736974793a206170706c69636174696f6e206973206e6f74207360408201527f75636365737366756c0000000000000000000000000000000000000000000000606082015260800190565b6020808252603a908201527f556e69766572736974793a20726563656976657220646f65736e27742068617660408201527f6520524547495354455245445f535550504c4945525f524f4c45000000000000606082015260800190565b6020808252601f908201527f556e69766572736974793a20736574757020756e697377617020666972737400604082015260600190565b60208082526024908201527f5472616e7366657248656c7065723a205452414e534645525f46524f4d5f464160408201527f494c454400000000000000000000000000000000000000000000000000000000606082015260800190565b6020808252602f908201527f416363657373436f6e74726f6c3a2063616e206f6e6c792072656e6f756e636560408201527f20726f6c657320666f722073656c660000000000000000000000000000000000606082015260800190565b62ffffff91909116815260200190565b600086825285602083015260a06040830152614ec460a083018661406a565b6001600160a01b0394909416606083015250608001529392505050565b918252602082015260400190565b6000808335601e19843603018112614f05578283fd5b8084018035925067ffffffffffffffff831115614f20578384fd5b60200192505036819003821315614f3657600080fd5b9250929050565b60405181810167ffffffffffffffff81118282101715614f5c57600080fd5b604052919050565b600067ffffffffffffffff821115614f7a578081fd5b5060209081020190565b60005b83811015614f9f578181015183820152602001614f87565b83811115611de95750506000910152565b6001600160a01b038116811461222f57600080fdfea26469706673582212201f6c9aff5e5c8c30e736bcc6c5c41aa135b3100b74fcec963e9469e7b8003f1264736f6c63430006060033",
  "immutableReferences": {},
  "source": "pragma solidity 0.6.6;\r\npragma experimental ABIEncoderV2;\r\n\r\nimport \"@openzeppelin/contracts/math/SafeMath.sol\";\r\nimport \"@openzeppelin/contracts/access/AccessControl.sol\";\r\nimport \"@openzeppelin/contracts/access/Ownable.sol\";\r\nimport \"@openzeppelin/contracts/token/ERC20/IERC20.sol\";\r\nimport \"@openzeppelin/contracts/utils/Address.sol\";\r\nimport \"@uniswap/v2-periphery/contracts/interfaces/IUniswapV2Router01.sol\";\r\nimport \"@uniswap/lib/contracts/libraries/TransferHelper.sol\";\r\nimport \"./interface/Aave/aToken.sol\";\r\nimport \"./interface/Aave/ILendingPool.sol\";\r\nimport \"./interface/Aave/ILendingPoolAddressesProvider.sol\";\r\nimport \"./gambi/BaseRelayRecipient.sol\";\r\nimport \"./gambi/GSNTypes.sol\";\r\nimport \"./gambi/IRelayHub.sol\";\r\nimport \"./interface/IClassroom.sol\";\r\nimport \"./interface/IStudent.sol\";\r\nimport \"./interface/IStudentApplication.sol\";\r\nimport \"./interface/IClassroomFactory.sol\";\r\nimport \"./interface/IStudentFactory.sol\";\r\nimport \"./interface/IStudentApplicationFactory.sol\";\r\nimport \"./interface/IUniversity.sol\";\r\nimport \"./interface/IGrantsManager.sol\";\r\nimport \"./MyUtils.sol\";\r\n\r\n//TODO: Natspec Document ENVERYTHING\r\n//TODO: Sort function order from all contracts\r\n//TODO: Divide University in smaller contracts\r\n\r\ncontract University is Ownable, AccessControl, BaseRelayRecipient, IUniversity {\r\n    using SafeMath for uint256;\r\n\r\n    //CLASSLIST_ADMIN_ROLE can add new manually created classes to the list\r\n    bytes32 public constant CLASSLIST_ADMIN_ROLE = keccak256(\r\n        \"CLASSLIST_ADMIN_ROLE\"\r\n    );\r\n    // FUNDS_MANAGER_ROLE can withdraw funds from the contract\r\n    bytes32 public constant FUNDS_MANAGER_ROLE = keccak256(\r\n        \"FUNDS_MANAGER_ROLE\"\r\n    );\r\n    // GRANTS_MANAGER_ROLE can approve/decline grant claims\r\n    bytes32 public constant GRANTS_MANAGER_ROLE = keccak256(\r\n        \"GRANTS_MANAGER_ROLE\"\r\n    );\r\n    // READ_STUDENT_LIST_ROLE allow reading students list\r\n    bytes32 public constant READ_STUDENT_LIST_ROLE = keccak256(\r\n        \"READ_STUDENT_LIST_ROLE\"\r\n    );\r\n    /// STUDENT_IDENTITY_ROLE allow asking for grants and requesting a classroom from a successful application\r\n    bytes32 public constant STUDENT_IDENTITY_ROLE = keccak256(\r\n        \"STUDENT_IDENTITY_ROLE\"\r\n    );\r\n    /// CLASSROOM_PROFESSOR_ROLE can manage itself inside the University and registering student applications\r\n    bytes32 public constant CLASSROOM_PROFESSOR_ROLE = keccak256(\r\n        \"CLASSROOM_PROFESSOR_ROLE\"\r\n    );\r\n    /// UNIVERSITY_OVERSEER_ROLE can inspect Grant Managers and Fund Managers, and present cases for funders to vote upon\r\n    bytes32 public constant UNIVERSITY_OVERSEER_ROLE = keccak256(\r\n        \"UNIVERSITY_OVERSEER_ROLE\"\r\n    );/// REGISTERED_SUPPLIER_ROLE can receive transactions to consume the operational budget\r\n    bytes32 public constant REGISTERED_SUPPLIER_ROLE = keccak256(\r\n        \"REGISTERED_SUPPLIER_ROLE\"\r\n    );\r\n\r\n    // Parameter: Name of this University\r\n    bytes32 public override name;\r\n    // Parameter: University cut from professor (Parts per Million)\r\n    uint24 public override cut;\r\n    // Parameter: GSN funds to give students\r\n    uint256 _studentGSNDeposit;\r\n    // List of every registered classroom\r\n    address[] public _classList;\r\n    // List of every student\r\n    address[] _students;\r\n    // Mapping of each student's applications\r\n    mapping(address => address[]) _studentApplicationsMapping;\r\n    // Mapping of every donor and donations\r\n    mapping(address => uint256) public donators;\r\n    // Total amount of donations received so far\r\n    uint256 public donationsReceived;\r\n    // Total amount of operational revenue received so far\r\n    uint256 public revenueReceived;\r\n    // Total amount of financial returns received so far\r\n    uint256 public returnsReceived;\r\n    // Total amount of endowment locked in the fund\r\n    uint256 public endowmentLocked;\r\n    // Total amount of funds allowed for expenses\r\n    uint256 public operationalBudget;\r\n\r\n    //TODO: resolve students and classrooms addresses using ENS\r\n\r\n    //Uniswap Config\r\n    address _uniswapWETH;\r\n    address _uniswapDAI;\r\n    IUniswapV2Router01 public _uniswapRouter;\r\n\r\n    //Compound Config\r\n    CERC20 public cDAI;\r\n    IComptroller public comptroller;\r\n    IPriceOracle public priceOracle;\r\n\r\n    //Aave Config\r\n    ILendingPoolAddressesProvider _aaveProvider;\r\n    ILendingPool _aaveLendingPool;\r\n    address _aaveLendingPoolCore;\r\n    address _aTokenDAI;\r\n\r\n    //Tokens\r\n    IERC20 public daiToken;\r\n\r\n    //GSN\r\n    IRelayHub public relayHub;\r\n\r\n    //Factory\r\n    IClassroomFactory _classroomFactory;\r\n    IStudentFactory _studentFactory;\r\n    address _studentApplicationFactoryAddress;\r\n\r\n    constructor(\r\n        bytes32 _name,\r\n        uint24 _cut,\r\n        uint256 studentGSNDeposit,\r\n        address daiAddress,\r\n        address relayHubAddress,\r\n        address classroomFactoryAddress,\r\n        address studentFactoryAddress,\r\n        address studentApplicationFactoryAddress\r\n    ) public {\r\n        name = _name;\r\n        cut = _cut;\r\n        _studentGSNDeposit = studentGSNDeposit;\r\n        _setupRole(DEFAULT_ADMIN_ROLE, _msgSender());\r\n        grantRole(READ_STUDENT_LIST_ROLE, _msgSender());\r\n        daiToken = IERC20(daiAddress);\r\n        relayHub = IRelayHub(relayHubAddress);\r\n        _classroomFactory = IClassroomFactory(classroomFactoryAddress);\r\n        _studentFactory = IStudentFactory(studentFactoryAddress);\r\n        _studentApplicationFactoryAddress = studentApplicationFactoryAddress;\r\n    }\r\n\r\n    receive() external payable {\r\n        emit LogReceived(msg.sender, msg.value);\r\n    }\r\n\r\n    event LogNewClassroom(bytes32, address);\r\n    event LogChangeName(bytes32);\r\n    event LogChangeCut(uint24);\r\n    event LogReceived(address, uint256);\r\n\r\n    function configureCompound(\r\n        address compoundDAIAddress,\r\n        address comptrollerAddress,\r\n        address priceOracleAddress\r\n    ) public onlyOwner {\r\n        cDAI = CERC20(compoundDAIAddress);\r\n        comptroller = IComptroller(comptrollerAddress);\r\n        priceOracle = IPriceOracle(priceOracleAddress);\r\n    }\r\n\r\n    function configureUniswap(\r\n        address uniswapWETH,\r\n        address uniswapDAI,\r\n        address uniswapRouter\r\n    ) public onlyOwner {\r\n        _uniswapWETH = uniswapWETH;\r\n        _uniswapDAI = uniswapDAI;\r\n        _uniswapRouter = IUniswapV2Router01(uniswapRouter);\r\n    }\r\n\r\n    function configureAave(\r\n        address lendingPoolAddressesProvider\r\n    ) public onlyOwner {\r\n        _aaveProvider = ILendingPoolAddressesProvider(lendingPoolAddressesProvider);\r\n        _aaveLendingPool = ILendingPool(_aaveProvider.getLendingPool());\r\n        _aaveLendingPoolCore = _aaveProvider.getLendingPoolCore();\r\n        _aTokenDAI = ILendingPoolCore(_aaveLendingPoolCore)\r\n            .getReserveATokenAddress(address(daiToken));\r\n    }\r\n\r\n    function changeName(bytes32 val) public onlyOwner {\r\n        name = val;\r\n        emit LogChangeName(name);\r\n    }\r\n\r\n    function changeCut(uint24 val) public onlyOwner {\r\n        cut = val;\r\n        emit LogChangeCut(cut);\r\n    }\r\n\r\n    function changeStudentGSNDeposit(uint256 val) public onlyOwner {\r\n        _studentGSNDeposit = val;\r\n    }\r\n\r\n    function availableFunds() public view override returns (uint256) {\r\n        uint256 funds = daiToken.balanceOf(address(this));\r\n        if (funds < endowmentLocked.add(operationalBudget)) return 0;\r\n        return funds.sub(endowmentLocked).sub(operationalBudget);\r\n    }\r\n\r\n    function isValidClassroom(address classroom) public view override returns (bool) {\r\n        return hasRole(CLASSROOM_PROFESSOR_ROLE, classroom);\r\n    }\r\n\r\n    function studentIsRegistered(address student) public view override returns (bool) {\r\n        require(\r\n            hasRole(READ_STUDENT_LIST_ROLE, _msgSender()),\r\n            \"University: caller doesn't have READ_STUDENT_LIST_ROLE\"\r\n        );\r\n        return hasRole(STUDENT_IDENTITY_ROLE, student);\r\n    }\r\n\r\n    function viewMyApplications() public view override returns (address[] memory) {\r\n        return viewStudentApplications(_msgSender());\r\n    }\r\n\r\n    function viewStudentApplications(address addr)\r\n        public\r\n        view\r\n        override\r\n        returns (address[] memory)\r\n    {\r\n        require(\r\n            addr == _msgSender() || hasRole(GRANTS_MANAGER_ROLE, _msgSender()),\r\n            \"Classroom: read permission denied\"\r\n        );\r\n        return _studentApplicationsMapping[addr];\r\n    }\r\n\r\n    function studentSelfRegisterGSN(bytes32 sName) public returns (address) {\r\n        address student = _newStudent(sName, _msgSenderGSN());\r\n        relayHub.depositFor.value(_studentGSNDeposit)(student);\r\n        return student;\r\n    }\r\n\r\n    function studentSelfRegister(bytes32 sName) public returns (address) {\r\n        return _newStudent(sName, _msgSender());\r\n    }\r\n\r\n    function _newStudent(bytes32 sName, address caller)\r\n        internal\r\n        returns (address)\r\n    {\r\n        require(\r\n            _studentApplicationsMapping[_msgSenderGSN()].length == 0,\r\n            \"University: student already registered\"\r\n        );\r\n        //Gambiarra: Push address(0) in the mapping to mark that student as registered in the university\r\n        _studentApplicationsMapping[caller].push(address(0));\r\n        address student = _studentFactory.newStudent(sName, address(this));\r\n        IStudent(student).transferOwnershipStudent(caller);\r\n        address studentAddr = address(student);\r\n        _students.push(studentAddr);\r\n        grantRole(STUDENT_IDENTITY_ROLE, studentAddr);\r\n        return address(studentAddr);\r\n    }\r\n\r\n    function newClassRoom(\r\n        address owner,\r\n        bytes32 cName,\r\n        uint24 cCut,\r\n        uint24 cPCut,\r\n        int32 minScore,\r\n        uint256 entryPrice,\r\n        uint256 duration,\r\n        address challengeAddress\r\n    ) public returns (address) {\r\n        require(\r\n            hasRole(CLASSLIST_ADMIN_ROLE, _msgSender()),\r\n            \"University: caller doesn't have CLASSLIST_ADMIN_ROLE\"\r\n        );\r\n        return\r\n            _newClassRoom(\r\n                owner,\r\n                cName,\r\n                cCut,\r\n                cPCut,\r\n                minScore,\r\n                entryPrice,\r\n                duration,\r\n                challengeAddress\r\n            );\r\n    }\r\n\r\n    function _newClassRoom(\r\n        address owner,\r\n        bytes32 cName,\r\n        uint24 cCut,\r\n        uint24 cPCut,\r\n        int32 minScore,\r\n        uint256 entryPrice,\r\n        uint256 duration,\r\n        address challengeAddress\r\n    ) internal returns (address) {\r\n        address classroom = _classroomFactory.newClassroom(\r\n            cName,\r\n            cCut,\r\n            cPCut,\r\n            minScore,\r\n            entryPrice,\r\n            duration,\r\n            payable (address(this)),\r\n            challengeAddress,\r\n            address(daiToken),\r\n            address(cDAI),\r\n            _studentApplicationFactoryAddress\r\n        );\r\n        IClassroom(classroom).transferOwnershipClassroom(owner);\r\n        address classroomAddr = address(classroom);\r\n        _classList.push(classroomAddr);\r\n        grantRole(READ_STUDENT_LIST_ROLE, classroomAddr);\r\n        grantRole(CLASSROOM_PROFESSOR_ROLE, classroomAddr);\r\n        emit LogNewClassroom(cName, classroomAddr);\r\n        return classroomAddr;\r\n    }\r\n\r\n    function studentRequestClassroom(\r\n        address applicationAddr,\r\n        bytes32 cName,\r\n        uint24 cCut,\r\n        uint24 cPCut,\r\n        int32 minScore,\r\n        uint256 entryPrice,\r\n        uint256 duration,\r\n        address challenge\r\n    ) public override returns (address) {\r\n        require(\r\n            hasRole(STUDENT_IDENTITY_ROLE, _msgSender()),\r\n            \"University: caller doesn't have STUDENT_IDENTITY_ROLE\"\r\n        );\r\n        require(\r\n            checkForStudentApplication(_msgSender(), applicationAddr),\r\n            \"University: caller is not student of this application\"\r\n        );\r\n        IStudentApplication application = IStudentApplication(applicationAddr);\r\n        require(\r\n            application.applicationState() == 3,\r\n            \"University: application is not successful\"\r\n        );\r\n        return\r\n            _newClassRoom(\r\n                IStudent(_msgSender()).ownerStudent(),\r\n                cName,\r\n                cCut,\r\n                cPCut,\r\n                minScore,\r\n                entryPrice,\r\n                duration,\r\n                challenge\r\n            );\r\n    }\r\n\r\n    function registerStudentApplication(\r\n        address student,\r\n        address application\r\n    ) public override\r\n    {\r\n        require(\r\n            hasRole(CLASSROOM_PROFESSOR_ROLE, _msgSender()),\r\n            \"University: caller doesn't have CLASSROOM_PROFESSOR_ROLE\"\r\n        );\r\n        _studentApplicationsMapping[student].push(application);\r\n    }\r\n\r\n    function checkForStudentApplication(\r\n        address studentAddress,\r\n        address applicationAddress\r\n    ) internal view returns (bool) {\r\n        for (\r\n            uint256 i = 0;\r\n            i < _studentApplicationsMapping[studentAddress].length;\r\n            i++\r\n        ) {\r\n            if (\r\n                _studentApplicationsMapping[studentAddress][i] ==\r\n                applicationAddress\r\n            ) return true;\r\n        }\r\n        return false;\r\n    }\r\n\r\n    function addStudentScore(address student, int32 val) public override {\r\n        require(\r\n            hasRole(CLASSROOM_PROFESSOR_ROLE, _msgSender()),\r\n            \"University: caller doesn't have CLASSROOM_PROFESSOR_ROLE\"\r\n        );\r\n        IStudent(student).addScore(val);\r\n    }\r\n\r\n    function subStudentScore(address student, int32 val) public override {\r\n        require(\r\n            hasRole(CLASSROOM_PROFESSOR_ROLE, _msgSender()),\r\n            \"University: caller doesn't have CLASSROOM_PROFESSOR_ROLE\"\r\n        );\r\n        IStudent(student).subScore(val);\r\n    }\r\n\r\n    function applyFundsCompound(uint256 val) public override {\r\n        require(\r\n            hasRole(FUNDS_MANAGER_ROLE, _msgSender()),\r\n            \"University: caller doesn't have FUNDS_MANAGER_ROLE\"\r\n        );\r\n        TransferHelper.safeApprove(address(daiToken), address(cDAI), val);\r\n        cDAI.mint(val);\r\n    }\r\n\r\n    function recoverFundsCompound(uint256 val) public override {\r\n        require(\r\n            hasRole(FUNDS_MANAGER_ROLE, _msgSender()),\r\n            \"University: caller doesn't have FUNDS_MANAGER_ROLE\"\r\n        );\r\n        cDAI.redeemUnderlying(val);\r\n    }\r\n\r\n    function applyFundsAave(uint256 val) public override {\r\n        require(\r\n            hasRole(FUNDS_MANAGER_ROLE, _msgSender()),\r\n            \"University: caller doesn't have FUNDS_MANAGER_ROLE\"\r\n        );\r\n        TransferHelper.safeApprove(address(daiToken), _aaveLendingPoolCore, val);\r\n        _aaveLendingPool.deposit(address(daiToken), val, 0);\r\n    }\r\n\r\n    function recoverFundsAave(uint256 val) public override {\r\n        require(\r\n            hasRole(FUNDS_MANAGER_ROLE, _msgSender()),\r\n            \"University: caller doesn't have FUNDS_MANAGER_ROLE\"\r\n        );\r\n        aToken(_aTokenDAI).redeem(val);\r\n    }\r\n\r\n    function enterCompoundDAIMarket() public override {\r\n        require(\r\n            hasRole(FUNDS_MANAGER_ROLE, _msgSender()),\r\n            \"University: caller doesn't have FUNDS_MANAGER_ROLE\"\r\n        );\r\n        address[] memory cTokens = new address[](1);\r\n        cTokens[0] = address(cDAI);\r\n        uint256[] memory errors = comptroller.enterMarkets(cTokens);\r\n        if (errors[0] != 0) {\r\n            revert(\"University: Comptroller.enterMarkets failed.\");\r\n        }\r\n    }\r\n\r\n    function exitCompoundDAIMarket() public override {\r\n        require(\r\n            hasRole(FUNDS_MANAGER_ROLE, _msgSender()),\r\n            \"University: caller doesn't have FUNDS_MANAGER_ROLE\"\r\n        );\r\n        uint256 error = comptroller.exitMarket(address(cDAI));\r\n        if (error != 0) {\r\n            revert(\"University: Comptroller.exitMarket failed.\");\r\n        }\r\n    }\r\n\r\n    function getCompoundLiquidityAndShortfall() \r\n        public \r\n        view \r\n        override\r\n        returns (uint256, uint256) {\r\n        require(\r\n            hasRole(FUNDS_MANAGER_ROLE, _msgSender()),\r\n            \"University: caller doesn't have FUNDS_MANAGER_ROLE\"\r\n        );\r\n        (uint256 error, uint256 liquidity, uint256 shortfall) = \r\n            comptroller\r\n            .getAccountLiquidity(address(this));\r\n        if (error != 0) {\r\n            revert(\"University: Comptroller.getAccountLiquidity failed.\");\r\n        }\r\n        return (liquidity, shortfall);\r\n    }\r\n\r\n    function getCompoundPriceInWEI(address cToken) \r\n        public \r\n        view \r\n        override\r\n        returns (uint256) {\r\n        return priceOracle.getUnderlyingPrice(cToken);\r\n    }\r\n\r\n    function getCompoundMaxBorrowInWEI(address cToken) \r\n        public \r\n        view \r\n        override\r\n        returns (uint256) {\r\n        (uint256 liquidity, ) = getCompoundLiquidityAndShortfall();\r\n        return liquidity.div(priceOracle.getUnderlyingPrice(cToken));\r\n    }\r\n\r\n    function compoundBorrow(address cToken, uint256 val) \r\n        public \r\n        override {\r\n        require(\r\n            hasRole(FUNDS_MANAGER_ROLE, _msgSender()),\r\n            \"University: caller doesn't have FUNDS_MANAGER_ROLE\"\r\n        );\r\n        CERC20(cToken).borrow(val);\r\n    }\r\n\r\n    function compoundGetBorrow(address cToken) \r\n        public \r\n        view \r\n        override\r\n        returns (uint256) {\r\n        require(\r\n            hasRole(FUNDS_MANAGER_ROLE, _msgSender()),\r\n            \"University: caller doesn't have FUNDS_MANAGER_ROLE\"\r\n        );\r\n        return CERC20(cToken).borrowBalanceCurrent(address(this));\r\n    }\r\n\r\n    function compoundRepayBorrow(address token, address cToken, uint256 val)\r\n        public \r\n        override {\r\n        require(\r\n            hasRole(FUNDS_MANAGER_ROLE, _msgSender()),\r\n            \"University: caller doesn't have FUNDS_MANAGER_ROLE\"\r\n        );\r\n        require(\r\n            IERC20(token).balanceOf(address(this)) >= val,\r\n            \"University: not enough of this token stored\"\r\n        );\r\n        TransferHelper.safeApprove(token, cToken, val);\r\n        CERC20(cToken).repayBorrow(val);\r\n    }\r\n\r\n    function increaseOperationalBudget(uint256 val) public onlyOwner {\r\n        require(\r\n            endowmentLocked >= val,\r\n            \"University: not enough endowment\"\r\n        );\r\n        operationalBudget = operationalBudget.add(val);\r\n        endowmentLocked = endowmentLocked.sub(val);\r\n    }\r\n\r\n    function spendBudget(address to, uint256 val) public override {\r\n        require(\r\n            hasRole(FUNDS_MANAGER_ROLE, _msgSender()),\r\n            \"University: caller doesn't have FUNDS_MANAGER_ROLE\"\r\n        );\r\n        require(\r\n            hasRole(REGISTERED_SUPPLIER_ROLE, to),\r\n            \"University: receiver doesn't have REGISTERED_SUPPLIER_ROLE\"\r\n        );\r\n        require(\r\n            operationalBudget >= val,\r\n            \"University: not enough operational budget\"\r\n        );\r\n        require(\r\n            daiToken.balanceOf(address(this)) >= val,\r\n            \"University: liquidate some positions first\"\r\n        );\r\n        TransferHelper.safeTransfer(address(daiToken), to, val);\r\n        operationalBudget = operationalBudget.sub(val);\r\n    }\r\n\r\n    function giveGrant(address studentApplication, uint256 price) public override {\r\n        require(\r\n            hasRole(GRANTS_MANAGER_ROLE, _msgSender()),\r\n            \"University: caller doesn't have GRANTS_MANAGER_ROLE\"\r\n        );\r\n        require(\r\n            availableFunds() >= price,\r\n            \"University: not enough available funds\"\r\n        );\r\n        IStudentApplication(studentApplication).payEntryPrice();\r\n    }\r\n\r\n    function reinvestReturns(uint256 val) public override {\r\n        require(\r\n            hasRole(FUNDS_MANAGER_ROLE, _msgSender()),\r\n            \"University: caller doesn't have FUNDS_MANAGER_ROLE\"\r\n        );\r\n        require(\r\n            availableFunds() >= val,\r\n            \"University: not enough available funds\"\r\n        );\r\n        accountReturns(val);\r\n    }\r\n\r\n    function viewAllStudentsFromGrantManager(\r\n            address grantsManager\r\n        ) public returns (address[] memory) {\r\n        require(\r\n            hasRole(UNIVERSITY_OVERSEER_ROLE, _msgSender()),\r\n            \"University: caller doesn't have UNIVERSITY_OVERSEER_ROLE\"\r\n        );\r\n        return IGrantsManager(grantsManager).viewAllStudents();\r\n    }\r\n\r\n    function viewAllStudentGrantsFromGrantManager(\r\n            address student, \r\n            address grantsManager\r\n        ) public returns (uint256[] memory) {\r\n        require(\r\n            hasRole(UNIVERSITY_OVERSEER_ROLE, _msgSender()),\r\n            \"University: caller doesn't have UNIVERSITY_OVERSEER_ROLE\"\r\n        );\r\n        return IGrantsManager(grantsManager).viewAllGrantsForStudent(student);\r\n    }\r\n\r\n    function acceptRelayedCall(\r\n        GSNTypes.RelayRequest calldata relayRequest,\r\n        bytes calldata,\r\n        uint256\r\n    ) external pure returns (bytes memory context) {\r\n        require(\r\n            MyUtils.readBytes4(relayRequest.encodedFunction, 0) ==\r\n                this.studentSelfRegisterGSN.selector,\r\n            \"University: GSN not enabled for this function\"\r\n        );\r\n        return abi.encode(relayRequest.target, 0);\r\n    }\r\n\r\n    function refillUniversityRelayer(uint256 val) public {\r\n        require(\r\n            hasRole(FUNDS_MANAGER_ROLE, _msgSender()) || _msgSender() == owner(),\r\n            \"University: caller doesn't have FUNDS_MANAGER_ROLE\"\r\n        );\r\n        relayHub.depositFor.value(val)(address(this));\r\n    }\r\n\r\n    function swapDAI_ETH(\r\n        uint256 amount,\r\n        uint256 deadline\r\n    ) public override returns (uint[] memory amounts) {\r\n        require(\r\n            hasRole(FUNDS_MANAGER_ROLE, _msgSender()),\r\n            \"University: caller doesn't have FUNDS_MANAGER_ROLE\"\r\n        );\r\n        require(\r\n            _uniswapWETH != address(0),\r\n            \"University: setup uniswap first\"\r\n        );\r\n        amounts = swapBlind(_uniswapDAI, _uniswapWETH, amount, deadline);\r\n    }\r\n\r\n    function swapETH_DAI(\r\n        uint256 amount,\r\n        uint256 deadline\r\n    ) public override returns (uint[] memory amounts) {\r\n        require(\r\n            hasRole(FUNDS_MANAGER_ROLE, _msgSender()),\r\n            \"University: caller doesn't have FUNDS_MANAGER_ROLE\"\r\n        );\r\n        require(\r\n            _uniswapWETH != address(0),\r\n            \"University: setup uniswap first\"\r\n        );\r\n        amounts = swapBlind(_uniswapWETH, _uniswapDAI, amount, deadline);\r\n    }\r\n\r\n    function swapBlind(\r\n        address tokenA,\r\n        address tokenB,\r\n        uint256 amount,\r\n        uint256 deadline\r\n    ) internal returns (uint[] memory amounts) {\r\n        TransferHelper.safeApprove(tokenA, address(_uniswapRouter), amount);\r\n        address[] memory path = new address[](2);\r\n        path[0] = tokenA;\r\n        path[1] = tokenB;\r\n        amounts = _uniswapRouter.swapExactTokensForTokens(\r\n            amount,\r\n            0,\r\n            path,\r\n            address(this),\r\n            deadline\r\n        );\r\n    }\r\n\r\n    \r\n    function donateETH(uint256 donation) public payable override {\r\n        // This function is vulnerable to sandwich attacks. Since the very nature of this function is for a donor to donate money, it is not needed to prevent the donor from manipulating its own donation\r\n        uint256[] memory amounts = swapETH_DAI(donation, 12 hours);\r\n        donators[_msgSender()] = donators[_msgSender()].add(amounts[1]);\r\n        accountDonation(amounts[1]);\r\n    }\r\n\r\n    function donateDAI(uint256 donation) public override {\r\n        TransferHelper.safeTransferFrom(\r\n            address(daiToken),\r\n            _msgSender(),\r\n            address(this),\r\n            donation\r\n        );\r\n        donators[_msgSender()] = donators[_msgSender()].add(donation);\r\n        accountDonation(donation);\r\n    }\r\n\r\n    function accountDonation(uint256 donation) internal {\r\n        donationsReceived = donationsReceived.add(donation);\r\n        endowmentLocked = endowmentLocked.add(donation);\r\n    }\r\n\r\n    function accountRevenue(uint256 revenue) public override {\r\n        require(\r\n            hasRole(CLASSROOM_PROFESSOR_ROLE, _msgSender()),\r\n            \"University: caller doesn't have CLASSROOM_PROFESSOR_ROLE\"\r\n        );\r\n        revenueReceived = revenueReceived.add(revenue);\r\n        endowmentLocked = endowmentLocked.add(revenue);\r\n    }\r\n\r\n    function accountReturns(uint256 financialReturns) internal {\r\n        require(\r\n            hasRole(CLASSROOM_PROFESSOR_ROLE, _msgSender()),\r\n            \"University: caller doesn't have CLASSROOM_PROFESSOR_ROLE\"\r\n        );\r\n        returnsReceived = revenueReceived.add(financialReturns);\r\n        endowmentLocked = endowmentLocked.add(financialReturns);\r\n    }\r\n\r\n\r\n    //TODO: implement funds manager\r\n}\r\n",
  "sourcePath": "/mnt/e/Repositories/Uproot/contracts/University.sol",
  "compiler": {
    "name": "solc",
    "version": "0.6.6+commit.6c089d02.Emscripten.clang"
  },
  "schemaVersion": "3.1.0",
  "updatedAt": "2020-05-07T01:16:46.302Z",
  "devdoc": {
    "methods": {
      "getRoleAdmin(bytes32)": {
        "details": "Returns the admin role that controls `role`. See {grantRole} and {revokeRole}.     * To change a role's admin, use {_setRoleAdmin}."
      },
      "getRoleMember(bytes32,uint256)": {
        "details": "Returns one of the accounts that have `role`. `index` must be a value between 0 and {getRoleMemberCount}, non-inclusive.     * Role bearers are not sorted in any particular way, and their ordering may change at any point.     * WARNING: When using {getRoleMember} and {getRoleMemberCount}, make sure you perform all queries on the same block. See the following https://forum.openzeppelin.com/t/iterating-over-elements-on-enumerableset-in-openzeppelin-contracts/2296[forum post] for more information."
      },
      "getRoleMemberCount(bytes32)": {
        "details": "Returns the number of accounts that have `role`. Can be used together with {getRoleMember} to enumerate all bearers of a role."
      },
      "grantRole(bytes32,address)": {
        "details": "Grants `role` to `account`.     * If `account` had not been already granted `role`, emits a {RoleGranted} event.     * Requirements:     * - the caller must have ``role``'s admin role."
      },
      "hasRole(bytes32,address)": {
        "details": "Returns `true` if `account` has been granted `role`."
      },
      "owner()": {
        "details": "Returns the address of the current owner."
      },
      "renounceOwnership()": {
        "details": "Leaves the contract without owner. It will not be possible to call `onlyOwner` functions anymore. Can only be called by the current owner.     * NOTE: Renouncing ownership will leave the contract without an owner, thereby removing any functionality that is only available to the owner."
      },
      "renounceRole(bytes32,address)": {
        "details": "Revokes `role` from the calling account.     * Roles are often managed via {grantRole} and {revokeRole}: this function's purpose is to provide a mechanism for accounts to lose their privileges if they are compromised (such as when a trusted device is misplaced).     * If the calling account had been granted `role`, emits a {RoleRevoked} event.     * Requirements:     * - the caller must be `account`."
      },
      "revokeRole(bytes32,address)": {
        "details": "Revokes `role` from `account`.     * If `account` had been granted `role`, emits a {RoleRevoked} event.     * Requirements:     * - the caller must have ``role``'s admin role."
      },
      "transferOwnership(address)": {
        "details": "Transfers ownership of the contract to a new account (`newOwner`). Can only be called by the current owner."
      }
    }
  },
  "userdoc": {
    "methods": {
      "_msgSenderGSN()": {
        "notice": "return the sender of this call. if the call came through our trusted forwarder, return the original sender. otherwise, return `msg.sender`. should be used in the contract anywhere instead of msg.sender"
      }
    }
  }
}