{
  "contractName": "University",
  "abi": [
    {
      "inputs": [
        {
          "internalType": "bytes32",
          "name": "name",
          "type": "bytes32"
        },
        {
          "internalType": "uint24",
          "name": "cut",
          "type": "uint24"
        },
        {
          "internalType": "address",
          "name": "daiAddress",
          "type": "address"
        }
      ],
      "stateMutability": "nonpayable",
      "type": "constructor"
    },
    {
      "anonymous": false,
      "inputs": [
        {
          "indexed": true,
          "internalType": "bytes32",
          "name": "name",
          "type": "bytes32"
        },
        {
          "indexed": false,
          "internalType": "address",
          "name": "addr",
          "type": "address"
        }
      ],
      "name": "NewClassroom",
      "type": "event"
    },
    {
      "anonymous": false,
      "inputs": [
        {
          "indexed": true,
          "internalType": "address",
          "name": "previousOwner",
          "type": "address"
        },
        {
          "indexed": true,
          "internalType": "address",
          "name": "newOwner",
          "type": "address"
        }
      ],
      "name": "OwnershipTransferred",
      "type": "event"
    },
    {
      "anonymous": false,
      "inputs": [
        {
          "indexed": true,
          "internalType": "bytes32",
          "name": "role",
          "type": "bytes32"
        },
        {
          "indexed": true,
          "internalType": "address",
          "name": "account",
          "type": "address"
        },
        {
          "indexed": true,
          "internalType": "address",
          "name": "sender",
          "type": "address"
        }
      ],
      "name": "RoleGranted",
      "type": "event"
    },
    {
      "anonymous": false,
      "inputs": [
        {
          "indexed": true,
          "internalType": "bytes32",
          "name": "role",
          "type": "bytes32"
        },
        {
          "indexed": true,
          "internalType": "address",
          "name": "account",
          "type": "address"
        },
        {
          "indexed": true,
          "internalType": "address",
          "name": "sender",
          "type": "address"
        }
      ],
      "name": "RoleRevoked",
      "type": "event"
    },
    {
      "inputs": [],
      "name": "CLASSLIST_ADMIN_ROLE",
      "outputs": [
        {
          "internalType": "bytes32",
          "name": "",
          "type": "bytes32"
        }
      ],
      "stateMutability": "view",
      "type": "function"
    },
    {
      "inputs": [],
      "name": "CLASSROOM_ROLE",
      "outputs": [
        {
          "internalType": "bytes32",
          "name": "",
          "type": "bytes32"
        }
      ],
      "stateMutability": "view",
      "type": "function"
    },
    {
      "inputs": [],
      "name": "DEFAULT_ADMIN_ROLE",
      "outputs": [
        {
          "internalType": "bytes32",
          "name": "",
          "type": "bytes32"
        }
      ],
      "stateMutability": "view",
      "type": "function"
    },
    {
      "inputs": [],
      "name": "FUNDS_MANAGER_ROLE",
      "outputs": [
        {
          "internalType": "bytes32",
          "name": "",
          "type": "bytes32"
        }
      ],
      "stateMutability": "view",
      "type": "function"
    },
    {
      "inputs": [],
      "name": "GRANTS_MANAGER_ROLE",
      "outputs": [
        {
          "internalType": "bytes32",
          "name": "",
          "type": "bytes32"
        }
      ],
      "stateMutability": "view",
      "type": "function"
    },
    {
      "inputs": [],
      "name": "READ_STUDENT_LIST_ROLE",
      "outputs": [
        {
          "internalType": "bytes32",
          "name": "",
          "type": "bytes32"
        }
      ],
      "stateMutability": "view",
      "type": "function"
    },
    {
      "inputs": [],
      "name": "STUDENT_ROLE",
      "outputs": [
        {
          "internalType": "bytes32",
          "name": "",
          "type": "bytes32"
        }
      ],
      "stateMutability": "view",
      "type": "function"
    },
    {
      "inputs": [],
      "name": "cToken",
      "outputs": [
        {
          "internalType": "contract CERC20",
          "name": "",
          "type": "address"
        }
      ],
      "stateMutability": "view",
      "type": "function"
    },
    {
      "inputs": [],
      "name": "daiToken",
      "outputs": [
        {
          "internalType": "contract IERC20",
          "name": "",
          "type": "address"
        }
      ],
      "stateMutability": "view",
      "type": "function"
    },
    {
      "inputs": [
        {
          "internalType": "bytes32",
          "name": "role",
          "type": "bytes32"
        }
      ],
      "name": "getRoleAdmin",
      "outputs": [
        {
          "internalType": "bytes32",
          "name": "",
          "type": "bytes32"
        }
      ],
      "stateMutability": "view",
      "type": "function"
    },
    {
      "inputs": [
        {
          "internalType": "bytes32",
          "name": "role",
          "type": "bytes32"
        },
        {
          "internalType": "uint256",
          "name": "index",
          "type": "uint256"
        }
      ],
      "name": "getRoleMember",
      "outputs": [
        {
          "internalType": "address",
          "name": "",
          "type": "address"
        }
      ],
      "stateMutability": "view",
      "type": "function"
    },
    {
      "inputs": [
        {
          "internalType": "bytes32",
          "name": "role",
          "type": "bytes32"
        }
      ],
      "name": "getRoleMemberCount",
      "outputs": [
        {
          "internalType": "uint256",
          "name": "",
          "type": "uint256"
        }
      ],
      "stateMutability": "view",
      "type": "function"
    },
    {
      "inputs": [
        {
          "internalType": "bytes32",
          "name": "role",
          "type": "bytes32"
        },
        {
          "internalType": "address",
          "name": "account",
          "type": "address"
        }
      ],
      "name": "grantRole",
      "outputs": [],
      "stateMutability": "nonpayable",
      "type": "function"
    },
    {
      "inputs": [
        {
          "internalType": "bytes32",
          "name": "role",
          "type": "bytes32"
        },
        {
          "internalType": "address",
          "name": "account",
          "type": "address"
        }
      ],
      "name": "hasRole",
      "outputs": [
        {
          "internalType": "bool",
          "name": "",
          "type": "bool"
        }
      ],
      "stateMutability": "view",
      "type": "function"
    },
    {
      "inputs": [],
      "name": "owner",
      "outputs": [
        {
          "internalType": "address",
          "name": "",
          "type": "address"
        }
      ],
      "stateMutability": "view",
      "type": "function"
    },
    {
      "inputs": [],
      "name": "renounceOwnership",
      "outputs": [],
      "stateMutability": "nonpayable",
      "type": "function"
    },
    {
      "inputs": [
        {
          "internalType": "bytes32",
          "name": "role",
          "type": "bytes32"
        },
        {
          "internalType": "address",
          "name": "account",
          "type": "address"
        }
      ],
      "name": "renounceRole",
      "outputs": [],
      "stateMutability": "nonpayable",
      "type": "function"
    },
    {
      "inputs": [
        {
          "internalType": "bytes32",
          "name": "role",
          "type": "bytes32"
        },
        {
          "internalType": "address",
          "name": "account",
          "type": "address"
        }
      ],
      "name": "revokeRole",
      "outputs": [],
      "stateMutability": "nonpayable",
      "type": "function"
    },
    {
      "inputs": [
        {
          "internalType": "address",
          "name": "newOwner",
          "type": "address"
        }
      ],
      "name": "transferOwnership",
      "outputs": [],
      "stateMutability": "nonpayable",
      "type": "function"
    },
    {
      "inputs": [],
      "name": "name",
      "outputs": [
        {
          "internalType": "bytes32",
          "name": "",
          "type": "bytes32"
        }
      ],
      "stateMutability": "view",
      "type": "function"
    },
    {
      "inputs": [
        {
          "internalType": "bytes32",
          "name": "val",
          "type": "bytes32"
        }
      ],
      "name": "changeName",
      "outputs": [],
      "stateMutability": "nonpayable",
      "type": "function"
    },
    {
      "inputs": [],
      "name": "cut",
      "outputs": [
        {
          "internalType": "uint24",
          "name": "",
          "type": "uint24"
        }
      ],
      "stateMutability": "view",
      "type": "function"
    },
    {
      "inputs": [
        {
          "internalType": "uint24",
          "name": "val",
          "type": "uint24"
        }
      ],
      "name": "changeCut",
      "outputs": [],
      "stateMutability": "nonpayable",
      "type": "function"
    },
    {
      "inputs": [],
      "name": "viewClassList",
      "outputs": [
        {
          "internalType": "contract Classroom[]",
          "name": "",
          "type": "address[]"
        }
      ],
      "stateMutability": "view",
      "type": "function"
    },
    {
      "inputs": [
        {
          "internalType": "address",
          "name": "classroom",
          "type": "address"
        }
      ],
      "name": "isValidClassroom",
      "outputs": [
        {
          "internalType": "bool",
          "name": "",
          "type": "bool"
        }
      ],
      "stateMutability": "view",
      "type": "function"
    },
    {
      "inputs": [
        {
          "internalType": "bytes32",
          "name": "cName",
          "type": "bytes32"
        },
        {
          "internalType": "uint24",
          "name": "cCut",
          "type": "uint24"
        },
        {
          "internalType": "uint24",
          "name": "cPCut",
          "type": "uint24"
        },
        {
          "internalType": "int32",
          "name": "minScore",
          "type": "int32"
        },
        {
          "internalType": "uint256",
          "name": "entryPrice",
          "type": "uint256"
        },
        {
          "internalType": "uint256",
          "name": "duration",
          "type": "uint256"
        }
      ],
      "name": "newClassRoom",
      "outputs": [],
      "stateMutability": "nonpayable",
      "type": "function"
    },
    {
      "inputs": [
        {
          "internalType": "bytes32",
          "name": "cName",
          "type": "bytes32"
        }
      ],
      "name": "newClassRoom",
      "outputs": [],
      "stateMutability": "nonpayable",
      "type": "function"
    },
    {
      "inputs": [
        {
          "internalType": "bytes32",
          "name": "sName",
          "type": "bytes32"
        }
      ],
      "name": "studentSelfRegister",
      "outputs": [],
      "stateMutability": "nonpayable",
      "type": "function"
    },
    {
      "inputs": [
        {
          "internalType": "address",
          "name": "student",
          "type": "address"
        }
      ],
      "name": "studentIsRegistered",
      "outputs": [
        {
          "internalType": "bool",
          "name": "",
          "type": "bool"
        }
      ],
      "stateMutability": "view",
      "type": "function"
    }
  ],
  "bytecode": "0x60806040523480156200001157600080fd5b506040516200b0893803806200b089833981810160405260608110156200003757600080fd5b8101908080519060200190929190805190602001909291908051906020019092919050505060006200006e620002ba60201b60201c565b9050806000806101000a81548173ffffffffffffffffffffffffffffffffffffffff021916908373ffffffffffffffffffffffffffffffffffffffff1602179055508073ffffffffffffffffffffffffffffffffffffffff16600073ffffffffffffffffffffffffffffffffffffffff167f8be0079c531659141344cd1fd0a4f28419497f9722a3daafe3b4186f6b6457e060405160405180910390a3508260028190555081600360006101000a81548162ffffff021916908362ffffff160217905550600067ffffffffffffffff811180156200014b57600080fd5b506040519080825280602002602001820160405280156200017b5781602001602082028036833780820191505090505b50600490805190602001906200019392919062000566565b50600067ffffffffffffffff81118015620001ad57600080fd5b50604051908082528060200260200182016040528015620001dd5781602001602082028036833780820191505090505b5060059080519060200190620001f5929190620005f5565b506200021a6000801b6200020e620002ba60201b60201c565b620002c260201b60201c565b6200027060405180807f524541445f53545544454e545f4c4953545f524f4c45000000000000000000008152506016019050604051809103902062000264620002ba60201b60201c565b620002d860201b60201c565b80600860006101000a81548173ffffffffffffffffffffffffffffffffffffffff021916908373ffffffffffffffffffffffffffffffffffffffff16021790555050505062000710565b600033905090565b620002d482826200037c60201b60201c565b5050565b6200030f600160008481526020019081526020016000206002015462000303620002ba60201b60201c565b6200042060201b60201c565b62000366576040517f08c379a000000000000000000000000000000000000000000000000000000000815260040180806020018281038252602f8152602001806200b05a602f913960400191505060405180910390fd5b6200037882826200037c60201b60201c565b5050565b620003ab81600160008581526020019081526020016000206000016200045960201b62001bec1790919060201c565b156200041c57620003c1620002ba60201b60201c565b73ffffffffffffffffffffffffffffffffffffffff168173ffffffffffffffffffffffffffffffffffffffff16837f2f8788117e7eff1d82e926ec794901d17c78024a50270940304540a733656f0d60405160405180910390a45b5050565b60006200045182600160008681526020019081526020016000206000016200049160201b620018a81790919060201c565b905092915050565b600062000489836000018373ffffffffffffffffffffffffffffffffffffffff1660001b620004c960201b60201c565b905092915050565b6000620004c1836000018373ffffffffffffffffffffffffffffffffffffffff1660001b6200054360201b60201c565b905092915050565b6000620004dd83836200054360201b60201c565b620005385782600001829080600181540180825580915050600190039060005260206000200160009091909190915055826000018054905083600101600084815260200190815260200160002081905550600190506200053d565b600090505b92915050565b600080836001016000848152602001908152602001600020541415905092915050565b828054828255906000526020600020908101928215620005e2579160200282015b82811115620005e15782518260006101000a81548173ffffffffffffffffffffffffffffffffffffffff021916908373ffffffffffffffffffffffffffffffffffffffff1602179055509160200191906001019062000587565b5b509050620005f1919062000684565b5090565b82805482825590600052602060002090810192821562000671579160200282015b82811115620006705782518260006101000a81548173ffffffffffffffffffffffffffffffffffffffff021916908373ffffffffffffffffffffffffffffffffffffffff1602179055509160200191906001019062000616565b5b509050620006809190620006ca565b5090565b620006c791905b80821115620006c357600081816101000a81549073ffffffffffffffffffffffffffffffffffffffff0219169055506001016200068b565b5090565b90565b6200070d91905b808211156200070957600081816101000a81549073ffffffffffffffffffffffffffffffffffffffff021916905550600101620006d1565b5090565b90565b61a93a80620007206000396000f3fe60806040523480156200001157600080fd5b5060043610620001fc5760003560e01c80638da5cb5b116200011d578063ca15c87311620000b1578063e770d7d4116200007b578063e770d7d4146200084f578063f09b419a1462000885578063f2fde38b14620008b6578063f7be43fb14620008fd57620001fc565b8063ca15c873146200071f578063d547741f1462000764578063d5b5ab0d14620007b5578063e6fd604c146200082557620001fc565b80639fd6cb7a11620000f35780639fd6cb7a1462000673578063a217fddf1462000693578063be22f54614620006b3578063c4707a8314620006ff57620001fc565b80638da5cb5b14620005435780639010d07c146200058f57806391d14854146200060a57620001fc565b806364d477311162000195578063715018a6116200016b578063715018a61462000487578063820cd75c146200049357806385dade6114620004b3578063898855ed146200051257620001fc565b806364d4773114620003b857806369e527da14620003d85780636a77baa7146200042457620001fc565b80632f2ff15d11620001d75780632f2ff15d14620002c557806336568abe14620003165780634cd77d4514620003675780635a7dd150146200038757620001fc565b806306fdde03146200020157806316ded1ce1462000221578063248a9ca31462000280575b600080fd5b6200020b6200091d565b6040518082815260200191505060405180910390f35b62000266600480360360208110156200023957600080fd5b81019080803573ffffffffffffffffffffffffffffffffffffffff16906020019092919050505062000927565b604051808215151515815260200191505060405180910390f35b620002af600480360360208110156200029857600080fd5b810190808035906020019092919050505062000a12565b6040518082815260200191505060405180910390f35b6200031460048036036040811015620002dd57600080fd5b8101908080359060200190929190803573ffffffffffffffffffffffffffffffffffffffff16906020019092919050505062000a32565b005b62000365600480360360408110156200032e57600080fd5b8101908080359060200190929190803573ffffffffffffffffffffffffffffffffffffffff16906020019092919050505062000ac4565b005b6200037162000b63565b6040518082815260200191505060405180910390f35b620003b6600480360360208110156200039f57600080fd5b810190808035906020019092919050505062000b9c565b005b620003c262000baa565b6040518082815260200191505060405180910390f35b620003e262000be3565b604051808273ffffffffffffffffffffffffffffffffffffffff1673ffffffffffffffffffffffffffffffffffffffff16815260200191505060405180910390f35b6200042e62000c09565b6040518080602001828103825283818151815260200191508051906020019060200280838360005b838110156200047357808201518184015260208101905062000456565b505050509050019250505060405180910390f35b6200049162000c99565b005b6200049d62000e24565b6040518082815260200191505060405180910390f35b620004f860048036036020811015620004cb57600080fd5b81019080803573ffffffffffffffffffffffffffffffffffffffff16906020019092919050505062000e5d565b604051808215151515815260200191505060405180910390f35b62000541600480360360208110156200052a57600080fd5b810190808035906020019092919050505062000ea7565b005b6200054d62000f7d565b604051808273ffffffffffffffffffffffffffffffffffffffff1673ffffffffffffffffffffffffffffffffffffffff16815260200191505060405180910390f35b620005c860048036036040811015620005a757600080fd5b81019080803590602001909291908035906020019092919050505062000fa6565b604051808273ffffffffffffffffffffffffffffffffffffffff1673ffffffffffffffffffffffffffffffffffffffff16815260200191505060405180910390f35b62000659600480360360408110156200062257600080fd5b8101908080359060200190929190803573ffffffffffffffffffffffffffffffffffffffff16906020019092919050505062000fda565b604051808215151515815260200191505060405180910390f35b6200067d6200100e565b6040518082815260200191505060405180910390f35b6200069d62001047565b6040518082815260200191505060405180910390f35b620006bd6200104e565b604051808273ffffffffffffffffffffffffffffffffffffffff1673ffffffffffffffffffffffffffffffffffffffff16815260200191505060405180910390f35b6200070962001074565b6040518082815260200191505060405180910390f35b6200074e600480360360208110156200073757600080fd5b8101908080359060200190929190505050620010ad565b6040518082815260200191505060405180910390f35b620007b3600480360360408110156200077c57600080fd5b8101908080359060200190929190803573ffffffffffffffffffffffffffffffffffffffff169060200190929190505050620010d6565b005b62000823600480360360c0811015620007cd57600080fd5b8101908080359060200190929190803562ffffff169060200190929190803562ffffff169060200190929190803560030b9060200190929190803590602001909291908035906020019092919050505062001168565b005b6200082f62001221565b604051808262ffffff1662ffffff16815260200191505060405180910390f35b62000883600480360360208110156200086757600080fd5b81019080803562ffffff1690602001909291905050506200123a565b005b620008b4600480360360208110156200089d57600080fd5b810190808035906020019092919050505062001328565b005b620008fb60048036036020811015620008ce57600080fd5b81019080803573ffffffffffffffffffffffffffffffffffffffff1690602001909291905050506200134e565b005b6200090762001560565b6040518082815260200191505060405180910390f35b6000600254905090565b60006200097360405180807f524541445f53545544454e545f4c4953545f524f4c4500000000000000000000815250601601905060405180910390206200096d62001599565b62000fda565b620009ca576040517f08c379a00000000000000000000000000000000000000000000000000000000081526004018080602001828103825260368152602001806200a8166036913960400191505060405180910390fd5b62000a0b60405180807f53545544454e545f524f4c450000000000000000000000000000000000000000815250600c01905060405180910390208362000fda565b9050919050565b600060016000838152602001908152602001600020600201549050919050565b62000a5d600160008481526020019081526020016000206002015462000a5762001599565b62000fda565b62000ab4576040517f08c379a000000000000000000000000000000000000000000000000000000000815260040180806020018281038252602f8152602001806200a7e7602f913960400191505060405180910390fd5b62000ac08282620015a1565b5050565b62000ace62001599565b73ffffffffffffffffffffffffffffffffffffffff168173ffffffffffffffffffffffffffffffffffffffff161462000b53576040517f08c379a000000000000000000000000000000000000000000000000000000000815260040180806020018281038252602f8152602001806200a8d6602f913960400191505060405180910390fd5b62000b5f82826200163a565b5050565b60405180807f434c415353524f4f4d5f524f4c45000000000000000000000000000000000000815250600e019050604051809103902081565b62000ba781620016d3565b50565b60405180807f4752414e54535f4d414e414745525f524f4c45000000000000000000000000008152506013019050604051809103902081565b600760009054906101000a900473ffffffffffffffffffffffffffffffffffffffff1681565b6060600480548060200260200160405190810160405280929190818152602001828054801562000c8f57602002820191906000526020600020905b8160009054906101000a900473ffffffffffffffffffffffffffffffffffffffff1673ffffffffffffffffffffffffffffffffffffffff168152602001906001019080831162000c44575b5050505050905090565b62000ca362001599565b73ffffffffffffffffffffffffffffffffffffffff166000809054906101000a900473ffffffffffffffffffffffffffffffffffffffff1673ffffffffffffffffffffffffffffffffffffffff161462000d65576040517f08c379a00000000000000000000000000000000000000000000000000000000081526004018080602001828103825260208152602001807f4f776e61626c653a2063616c6c6572206973206e6f7420746865206f776e657281525060200191505060405180910390fd5b600073ffffffffffffffffffffffffffffffffffffffff166000809054906101000a900473ffffffffffffffffffffffffffffffffffffffff1673ffffffffffffffffffffffffffffffffffffffff167f8be0079c531659141344cd1fd0a4f28419497f9722a3daafe3b4186f6b6457e060405160405180910390a360008060006101000a81548173ffffffffffffffffffffffffffffffffffffffff021916908373ffffffffffffffffffffffffffffffffffffffff160217905550565b60405180807f434c4153534c4953545f41444d494e5f524f4c450000000000000000000000008152506014019050604051809103902081565b600062000ea060405180807f434c415353524f4f4d5f524f4c45000000000000000000000000000000000000815250600e01905060405180910390208362000fda565b9050919050565b62000eb162001599565b73ffffffffffffffffffffffffffffffffffffffff166000809054906101000a900473ffffffffffffffffffffffffffffffffffffffff1673ffffffffffffffffffffffffffffffffffffffff161462000f73576040517f08c379a00000000000000000000000000000000000000000000000000000000081526004018080602001828103825260208152602001807f4f776e61626c653a2063616c6c6572206973206e6f7420746865206f776e657281525060200191505060405180910390fd5b8060028190555050565b60008060009054906101000a900473ffffffffffffffffffffffffffffffffffffffff16905090565b600062000fd282600160008681526020019081526020016000206000016200188c90919063ffffffff16565b905092915050565b6000620010068260016000868152602001908152602001600020600001620018a890919063ffffffff16565b905092915050565b60405180807f524541445f53545544454e545f4c4953545f524f4c45000000000000000000008152506016019050604051809103902081565b6000801b81565b600860009054906101000a900473ffffffffffffffffffffffffffffffffffffffff1681565b60405180807f46554e44535f4d414e414745525f524f4c4500000000000000000000000000008152506012019050604051809103902081565b6000620010cf60016000848152602001908152602001600020600001620018da565b9050919050565b620011016001600084815260200190815260200160002060020154620010fb62001599565b62000fda565b62001158576040517f08c379a00000000000000000000000000000000000000000000000000000000081526004018080602001828103825260308152602001806200a8a66030913960400191505060405180910390fd5b6200116482826200163a565b5050565b620011b260405180807f434c4153534c4953545f41444d494e5f524f4c4500000000000000000000000081525060140190506040518091039020620011ac62001599565b62000fda565b62001209576040517f08c379a00000000000000000000000000000000000000000000000000000000081526004018080602001828103825260348152602001806200a8726034913960400191505060405180910390fd5b62001219868686868686620018f1565b505050505050565b6000600360009054906101000a900462ffffff16905090565b6200124462001599565b73ffffffffffffffffffffffffffffffffffffffff166000809054906101000a900473ffffffffffffffffffffffffffffffffffffffff1673ffffffffffffffffffffffffffffffffffffffff161462001306576040517f08c379a00000000000000000000000000000000000000000000000000000000081526004018080602001828103825260208152602001807f4f776e61626c653a2063616c6c6572206973206e6f7420746865206f776e657281525060200191505060405180910390fd5b80600360006101000a81548162ffffff021916908362ffffff16021790555050565b6200134b8162030d406207a12060006802b5e3af16b188000062278d0062001168565b50565b6200135862001599565b73ffffffffffffffffffffffffffffffffffffffff166000809054906101000a900473ffffffffffffffffffffffffffffffffffffffff1673ffffffffffffffffffffffffffffffffffffffff16146200141a576040517f08c379a00000000000000000000000000000000000000000000000000000000081526004018080602001828103825260208152602001807f4f776e61626c653a2063616c6c6572206973206e6f7420746865206f776e657281525060200191505060405180910390fd5b600073ffffffffffffffffffffffffffffffffffffffff168173ffffffffffffffffffffffffffffffffffffffff161415620014a2576040517f08c379a00000000000000000000000000000000000000000000000000000000081526004018080602001828103825260268152602001806200a84c6026913960400191505060405180910390fd5b8073ffffffffffffffffffffffffffffffffffffffff166000809054906101000a900473ffffffffffffffffffffffffffffffffffffffff1673ffffffffffffffffffffffffffffffffffffffff167f8be0079c531659141344cd1fd0a4f28419497f9722a3daafe3b4186f6b6457e060405160405180910390a3806000806101000a81548173ffffffffffffffffffffffffffffffffffffffff021916908373ffffffffffffffffffffffffffffffffffffffff16021790555050565b60405180807f53545544454e545f524f4c450000000000000000000000000000000000000000815250600c019050604051809103902081565b600033905090565b620015cb816001600085815260200190815260200160002060000162001bec90919063ffffffff16565b156200163657620015db62001599565b73ffffffffffffffffffffffffffffffffffffffff168173ffffffffffffffffffffffffffffffffffffffff16837f2f8788117e7eff1d82e926ec794901d17c78024a50270940304540a733656f0d60405160405180910390a45b5050565b62001664816001600085815260200190815260200160002060000162001c1e90919063ffffffff16565b15620016cf576200167462001599565b73ffffffffffffffffffffffffffffffffffffffff168173ffffffffffffffffffffffffffffffffffffffff16837ff6391f5c32d9c69d2a47ea670b442974b53935d1edc7fd64eb21e047a839171b60405160405180910390a45b5050565b60008130604051620016e59062001e6b565b808381526020018273ffffffffffffffffffffffffffffffffffffffff1673ffffffffffffffffffffffffffffffffffffffff16815260200192505050604051809103906000f0801580156200173f573d6000803e3d6000fd5b5090508073ffffffffffffffffffffffffffffffffffffffff1663f2fde38b6200176862001599565b6040518263ffffffff1660e01b8152600401808273ffffffffffffffffffffffffffffffffffffffff1673ffffffffffffffffffffffffffffffffffffffff168152602001915050600060405180830381600087803b158015620017cb57600080fd5b505af1158015620017e0573d6000803e3d6000fd5b505050506005819080600181540180825580915050600190039060005260206000200160009091909190916101000a81548173ffffffffffffffffffffffffffffffffffffffff021916908373ffffffffffffffffffffffffffffffffffffffff1602179055506200188860405180807f53545544454e545f524f4c450000000000000000000000000000000000000000815250600c01905060405180910390208262000a32565b5050565b60006200189d836000018362001c50565b60001c905092915050565b6000620018d2836000018373ffffffffffffffffffffffffffffffffffffffff1660001b62001cd6565b905092915050565b6000620018ea8260000162001cf9565b9050919050565b600086868686868630600860009054906101000a900473ffffffffffffffffffffffffffffffffffffffff166040516200192b9062001e79565b808981526020018862ffffff1662ffffff1681526020018762ffffff1662ffffff1681526020018660030b60030b81526020018581526020018481526020018373ffffffffffffffffffffffffffffffffffffffff1673ffffffffffffffffffffffffffffffffffffffff1681526020018273ffffffffffffffffffffffffffffffffffffffff1673ffffffffffffffffffffffffffffffffffffffff16815260200198505050505050505050604051809103906000f080158015620019f5573d6000803e3d6000fd5b5090508073ffffffffffffffffffffffffffffffffffffffff1663f2fde38b62001a1e62001599565b6040518263ffffffff1660e01b8152600401808273ffffffffffffffffffffffffffffffffffffffff1673ffffffffffffffffffffffffffffffffffffffff168152602001915050600060405180830381600087803b15801562001a8157600080fd5b505af115801562001a96573d6000803e3d6000fd5b505050506004819080600181540180825580915050600190039060005260206000200160009091909190916101000a81548173ffffffffffffffffffffffffffffffffffffffff021916908373ffffffffffffffffffffffffffffffffffffffff16021790555062001b3e60405180807f524541445f53545544454e545f4c4953545f524f4c4500000000000000000000815250601601905060405180910390208262000a32565b62001b7f60405180807f434c415353524f4f4d5f524f4c45000000000000000000000000000000000000815250600e01905060405180910390208262000a32565b867f95e797cd40bf765fc0b9a9d62d83af0d354c4623daa5af289bc0be607a4712fa82604051808273ffffffffffffffffffffffffffffffffffffffff1673ffffffffffffffffffffffffffffffffffffffff16815260200191505060405180910390a250505050505050565b600062001c16836000018373ffffffffffffffffffffffffffffffffffffffff1660001b62001d0a565b905092915050565b600062001c48836000018373ffffffffffffffffffffffffffffffffffffffff1660001b62001d7e565b905092915050565b60008183600001805490501162001cb3576040517f08c379a00000000000000000000000000000000000000000000000000000000081526004018080602001828103825260228152602001806200a7c56022913960400191505060405180910390fd5b82600001828154811062001cc357fe5b9060005260206000200154905092915050565b600080836001016000848152602001908152602001600020541415905092915050565b600081600001805490509050919050565b600062001d18838362001cd6565b62001d7357826000018290806001815401808255809150506001900390600052602060002001600090919091909150558260000180549050836001016000848152602001908152602001600020819055506001905062001d78565b600090505b92915050565b6000808360010160008481526020019081526020016000205490506000811462001e5f576000600182039050600060018660000180549050039050600086600001828154811062001dcb57fe5b906000526020600020015490508087600001848154811062001de957fe5b906000526020600020018190555060018301876001016000838152602001908152602001600020819055508660000180548062001e2257fe5b6001900381819060005260206000200160009055905586600101600087815260200190815260200160002060009055600194505050505062001e65565b60009150505b92915050565b612af38062001e8883390190565b615e4a806200497b8339019056fe60806040523480156200001157600080fd5b5060405162002af338038062002af3833981810160405260408110156200003757600080fd5b810190808051906020019092919080519060200190929190505050600062000064620002fc60201b60201c565b9050806000806101000a81548173ffffffffffffffffffffffffffffffffffffffff021916908373ffffffffffffffffffffffffffffffffffffffff1602179055508073ffffffffffffffffffffffffffffffffffffffff16600073ffffffffffffffffffffffffffffffffffffffff167f8be0079c531659141344cd1fd0a4f28419497f9722a3daafe3b4186f6b6457e060405160405180910390a350816002819055506000600560006101000a81548163ffffffff021916908360030b63ffffffff16021790555080600360006101000a81548173ffffffffffffffffffffffffffffffffffffffff021916908373ffffffffffffffffffffffffffffffffffffffff160217905550620001936000801b62000187620002fc60201b60201c565b6200030460201b60201c565b620001e960405180807f524541445f53434f52455f524f4c450000000000000000000000000000000000815250600f0190506040518091039020620001dd620002fc60201b60201c565b6200031a60201b60201c565b6200023060405180807f4d4f444946595f53434f52455f524f4c4500000000000000000000000000000081525060110190506040518091039020826200031a60201b60201c565b8073ffffffffffffffffffffffffffffffffffffffff1662000257620002fc60201b60201c565b73ffffffffffffffffffffffffffffffffffffffff1614620002f457620002ba60405180807f524541445f53434f52455f524f4c450000000000000000000000000000000000815250600f0190506040518091039020826200031a60201b60201c565b620002cf6000801b826200031a60201b60201c565b620002f36000801b620002e7620002fc60201b60201c565b620003be60201b60201c565b5b50506200081c565b600033905090565b6200031682826200046960201b60201c565b5050565b62000351600160008481526020019081526020016000206002015462000345620002fc60201b60201c565b6200050d60201b60201c565b620003a8576040517f08c379a000000000000000000000000000000000000000000000000000000000815260040180806020018281038252602f81526020018062002a95602f913960400191505060405180910390fd5b620003ba82826200046960201b60201c565b5050565b620003ce620002fc60201b60201c565b73ffffffffffffffffffffffffffffffffffffffff168173ffffffffffffffffffffffffffffffffffffffff161462000453576040517f08c379a000000000000000000000000000000000000000000000000000000000815260040180806020018281038252602f81526020018062002ac4602f913960400191505060405180910390fd5b6200046582826200054660201b60201c565b5050565b620004988160016000858152602001908152602001600020600001620005ea60201b62001e6b1790919060201c565b156200050957620004ae620002fc60201b60201c565b73ffffffffffffffffffffffffffffffffffffffff168173ffffffffffffffffffffffffffffffffffffffff16837f2f8788117e7eff1d82e926ec794901d17c78024a50270940304540a733656f0d60405160405180910390a45b5050565b60006200053e82600160008681526020019081526020016000206000016200062260201b62001e261790919060201c565b905092915050565b6200057581600160008581526020019081526020016000206000016200065a60201b62001e9b1790919060201c565b15620005e6576200058b620002fc60201b60201c565b73ffffffffffffffffffffffffffffffffffffffff168173ffffffffffffffffffffffffffffffffffffffff16837ff6391f5c32d9c69d2a47ea670b442974b53935d1edc7fd64eb21e047a839171b60405160405180910390a45b5050565b60006200061a836000018373ffffffffffffffffffffffffffffffffffffffff1660001b6200069260201b60201c565b905092915050565b600062000652836000018373ffffffffffffffffffffffffffffffffffffffff1660001b6200070c60201b60201c565b905092915050565b60006200068a836000018373ffffffffffffffffffffffffffffffffffffffff1660001b6200072f60201b60201c565b905092915050565b6000620006a683836200070c60201b60201c565b6200070157826000018290806001815401808255809150506001900390600052602060002001600090919091909150558260000180549050836001016000848152602001908152602001600020819055506001905062000706565b600090505b92915050565b600080836001016000848152602001908152602001600020541415905092915050565b600080836001016000848152602001908152602001600020549050600081146200081057600060018203905060006001866000018054905003905060008660000182815481106200077c57fe5b90600052602060002001549050808760000184815481106200079a57fe5b9060005260206000200181905550600183018760010160008381526020019081526020016000208190555086600001805480620007d357fe5b6001900381819060005260206000200160009055905586600101600087815260200190815260200160002060009055600194505050505062000816565b60009150505b92915050565b612269806200082c6000396000f3fe608060405234801561001057600080fd5b506004361061018e5760003560e01c80638da5cb5b116100de578063ba6019d311610097578063d547741f11610071578063d547741f1461070f578063db4d5e871461075d578063efedc669146107c1578063f2fde38b146107e55761018e565b8063ba6019d314610615578063be22f54614610683578063ca15c873146106cd5761018e565b80638da5cb5b146104305780639010d07c1461047a57806391d14854146104f25780639fcb17de14610558578063a217fddf146105c6578063aa4f38c7146105e45761018e565b806331fb5fde1161014b57806369e527da1161012557806369e527da14610390578063715018a6146103da5780637206f3d6146103e4578063898855ed146104025761018e565b806331fb5fde146102cd57806336568abe14610311578063686513501461035f5761018e565b806306fdde03146101935780631b99219f146101b1578063222baa3a146101cf578063248a9ca3146101d9578063295869be1461021b5780632f2ff15d1461027f575b600080fd5b61019b610829565b6040518082815260200191505060405180910390f35b6101b9610833565b6040518082815260200191505060405180910390f35b6101d761086c565b005b610205600480360360208110156101ef57600080fd5b8101908080359060200190929190505050610959565b6040518082815260200191505060405180910390f35b61027d6004803603604081101561023157600080fd5b81019080803573ffffffffffffffffffffffffffffffffffffffff169060200190929190803573ffffffffffffffffffffffffffffffffffffffff169060200190929190505050610979565b005b6102cb6004803603604081101561029557600080fd5b8101908080359060200190929190803573ffffffffffffffffffffffffffffffffffffffff169060200190929190505050610ad0565b005b61030f600480360360208110156102e357600080fd5b81019080803573ffffffffffffffffffffffffffffffffffffffff169060200190929190505050610b5a565b005b61035d6004803603604081101561032757600080fd5b8101908080359060200190929190803573ffffffffffffffffffffffffffffffffffffffff169060200190929190505050610e57565b005b61038e6004803603602081101561037557600080fd5b81019080803560030b9060200190929190505050610ef0565b005b61039861105f565b604051808273ffffffffffffffffffffffffffffffffffffffff1673ffffffffffffffffffffffffffffffffffffffff16815260200191505060405180910390f35b6103e2611085565b005b6103ec61120d565b6040518082815260200191505060405180910390f35b61042e6004803603602081101561041857600080fd5b8101908080359060200190929190505050611246565b005b610438611319565b604051808273ffffffffffffffffffffffffffffffffffffffff1673ffffffffffffffffffffffffffffffffffffffff16815260200191505060405180910390f35b6104b06004803603604081101561049057600080fd5b810190808035906020019092919080359060200190929190505050611342565b604051808273ffffffffffffffffffffffffffffffffffffffff1673ffffffffffffffffffffffffffffffffffffffff16815260200191505060405180910390f35b61053e6004803603604081101561050857600080fd5b8101908080359060200190929190803573ffffffffffffffffffffffffffffffffffffffff169060200190929190505050611374565b604051808215151515815260200191505060405180910390f35b6105c46004803603606081101561056e57600080fd5b81019080803573ffffffffffffffffffffffffffffffffffffffff169060200190929190803573ffffffffffffffffffffffffffffffffffffffff169060200190929190803590602001909291905050506113a6565b005b6105ce611513565b6040518082815260200191505060405180910390f35b610613600480360360208110156105fa57600080fd5b81019080803560030b906020019092919050505061151a565b005b6106816004803603606081101561062b57600080fd5b81019080803573ffffffffffffffffffffffffffffffffffffffff169060200190929190803573ffffffffffffffffffffffffffffffffffffffff16906020019092919080359060200190929190505050611689565b005b61068b6117e2565b604051808273ffffffffffffffffffffffffffffffffffffffff1673ffffffffffffffffffffffffffffffffffffffff16815260200191505060405180910390f35b6106f9600480360360208110156106e357600080fd5b8101908080359060200190929190505050611808565b6040518082815260200191505060405180910390f35b61075b6004803603604081101561072557600080fd5b8101908080359060200190929190803573ffffffffffffffffffffffffffffffffffffffff16906020019092919050505061182f565b005b6107bf6004803603604081101561077357600080fd5b81019080803573ffffffffffffffffffffffffffffffffffffffff169060200190929190803573ffffffffffffffffffffffffffffffffffffffff1690602001909291905050506118b9565b005b6107c9611a1d565b604051808260030b60030b815260200191505060405180910390f35b610827600480360360208110156107fb57600080fd5b81019080803573ffffffffffffffffffffffffffffffffffffffff169060200190929190505050611acf565b005b6000600254905090565b60405180807f524541445f53434f52455f524f4c450000000000000000000000000000000000815250600f019050604051809103902081565b60008090505b60048054905081101561095657610887611cdc565b73ffffffffffffffffffffffffffffffffffffffff16600482815481106108aa57fe5b9060005260206000200160009054906101000a900473ffffffffffffffffffffffffffffffffffffffff1673ffffffffffffffffffffffffffffffffffffffff1614156109495760006004828154811061090057fe5b9060005260206000200160006101000a81548173ffffffffffffffffffffffffffffffffffffffff021916908373ffffffffffffffffffffffffffffffffffffffff1602179055505b8080600101915050610872565b50565b600060016000838152602001908152602001600020600201549050919050565b610981611cdc565b73ffffffffffffffffffffffffffffffffffffffff166000809054906101000a900473ffffffffffffffffffffffffffffffffffffffff1673ffffffffffffffffffffffffffffffffffffffff1614610a42576040517f08c379a00000000000000000000000000000000000000000000000000000000081526004018080602001828103825260208152602001807f4f776e61626c653a2063616c6c6572206973206e6f7420746865206f776e657281525060200191505060405180910390fd5b610acc8273ffffffffffffffffffffffffffffffffffffffff16636e8055a76040518163ffffffff1660e01b815260040160206040518083038186803b158015610a8b57600080fd5b505afa158015610a9f573d6000803e3d6000fd5b505050506040513d6020811015610ab557600080fd5b8101908080519060200190929190505050826118b9565b5050565b610af76001600084815260200190815260200160002060020154610af2611cdc565b611374565b610b4c576040517f08c379a000000000000000000000000000000000000000000000000000000000815260040180806020018281038252602f8152602001806120fd602f913960400191505060405180910390fd5b610b568282611ce4565b5050565b610b62611cdc565b73ffffffffffffffffffffffffffffffffffffffff166000809054906101000a900473ffffffffffffffffffffffffffffffffffffffff1673ffffffffffffffffffffffffffffffffffffffff1614610c23576040517f08c379a00000000000000000000000000000000000000000000000000000000081526004018080602001828103825260208152602001807f4f776e61626c653a2063616c6c6572206973206e6f7420746865206f776e657281525060200191505060405180910390fd5b600360009054906101000a900473ffffffffffffffffffffffffffffffffffffffff1673ffffffffffffffffffffffffffffffffffffffff166385dade61826040518263ffffffff1660e01b8152600401808273ffffffffffffffffffffffffffffffffffffffff1673ffffffffffffffffffffffffffffffffffffffff16815260200191505060206040518083038186803b158015610cc257600080fd5b505afa158015610cd6573d6000803e3d6000fd5b505050506040513d6020811015610cec57600080fd5b8101908080519060200190929190505050610d52576040517f08c379a000000000000000000000000000000000000000000000000000000000815260040180806020018281038252602981526020018061220b6029913960400191505060405180910390fd5b610d9160405180807f524541445f53434f52455f524f4c450000000000000000000000000000000000815250600f019050604051809103902082610ad0565b8073ffffffffffffffffffffffffffffffffffffffff16631b9dbc606040518163ffffffff1660e01b8152600401600060405180830381600087803b158015610dd957600080fd5b505af1158015610ded573d6000803e3d6000fd5b505050506004819080600181540180825580915050600190039060005260206000200160009091909190916101000a81548173ffffffffffffffffffffffffffffffffffffffff021916908373ffffffffffffffffffffffffffffffffffffffff16021790555050565b610e5f611cdc565b73ffffffffffffffffffffffffffffffffffffffff168173ffffffffffffffffffffffffffffffffffffffff1614610ee2576040517f08c379a000000000000000000000000000000000000000000000000000000000815260040180806020018281038252602f8152602001806121dc602f913960400191505060405180910390fd5b610eec8282611d78565b5050565b610f3660405180807f4d4f444946595f53434f52455f524f4c4500000000000000000000000000000081525060110190506040518091039020610f31611cdc565b611374565b610f8b576040517f08c379a000000000000000000000000000000000000000000000000000000000815260040180806020018281038252602e81526020018061212c602e913960400191505060405180910390fd5b80600560009054906101000a900460030b0360030b600560009054906101000a900460030b60030b13611026576040517f08c379a000000000000000000000000000000000000000000000000000000000815260040180806020018281038252601c8152602001807f53747564656e743a2062616420677261646573206f766572666c6f770000000081525060200191505060405180910390fd5b80600560008282829054906101000a900460030b0392506101000a81548163ffffffff021916908360030b63ffffffff16021790555050565b600660009054906101000a900473ffffffffffffffffffffffffffffffffffffffff1681565b61108d611cdc565b73ffffffffffffffffffffffffffffffffffffffff166000809054906101000a900473ffffffffffffffffffffffffffffffffffffffff1673ffffffffffffffffffffffffffffffffffffffff161461114e576040517f08c379a00000000000000000000000000000000000000000000000000000000081526004018080602001828103825260208152602001807f4f776e61626c653a2063616c6c6572206973206e6f7420746865206f776e657281525060200191505060405180910390fd5b600073ffffffffffffffffffffffffffffffffffffffff166000809054906101000a900473ffffffffffffffffffffffffffffffffffffffff1673ffffffffffffffffffffffffffffffffffffffff167f8be0079c531659141344cd1fd0a4f28419497f9722a3daafe3b4186f6b6457e060405160405180910390a360008060006101000a81548173ffffffffffffffffffffffffffffffffffffffff021916908373ffffffffffffffffffffffffffffffffffffffff160217905550565b60405180807f4d4f444946595f53434f52455f524f4c450000000000000000000000000000008152506011019050604051809103902081565b61124e611cdc565b73ffffffffffffffffffffffffffffffffffffffff166000809054906101000a900473ffffffffffffffffffffffffffffffffffffffff1673ffffffffffffffffffffffffffffffffffffffff161461130f576040517f08c379a00000000000000000000000000000000000000000000000000000000081526004018080602001828103825260208152602001807f4f776e61626c653a2063616c6c6572206973206e6f7420746865206f776e657281525060200191505060405180910390fd5b8060028190555050565b60008060009054906101000a900473ffffffffffffffffffffffffffffffffffffffff16905090565b600061136c8260016000868152602001908152602001600020600001611e0c90919063ffffffff16565b905092915050565b600061139e8260016000868152602001908152602001600020600001611e2690919063ffffffff16565b905092915050565b6113ae611cdc565b73ffffffffffffffffffffffffffffffffffffffff166000809054906101000a900473ffffffffffffffffffffffffffffffffffffffff1673ffffffffffffffffffffffffffffffffffffffff161461146f576040517f08c379a00000000000000000000000000000000000000000000000000000000081526004018080602001828103825260208152602001807f4f776e61626c653a2063616c6c6572206973206e6f7420746865206f776e657281525060200191505060405180910390fd5b8273ffffffffffffffffffffffffffffffffffffffff16633db0bfd283836040518363ffffffff1660e01b8152600401808373ffffffffffffffffffffffffffffffffffffffff1673ffffffffffffffffffffffffffffffffffffffff16815260200182815260200192505050600060405180830381600087803b1580156114f657600080fd5b505af115801561150a573d6000803e3d6000fd5b50505050505050565b6000801b81565b61156060405180807f4d4f444946595f53434f52455f524f4c450000000000000000000000000000008152506011019050604051809103902061155b611cdc565b611374565b6115b5576040517f08c379a000000000000000000000000000000000000000000000000000000000815260040180806020018281038252602e81526020018061212c602e913960400191505060405180910390fd5b80600560009054906101000a900460030b0160030b600560009054906101000a900460030b60030b12611650576040517f08c379a000000000000000000000000000000000000000000000000000000000815260040180806020018281038252601d8152602001807f53747564656e743a20676f6f6420677261646573206f766572666c6f7700000081525060200191505060405180910390fd5b80600560008282829054906101000a900460030b0192506101000a81548163ffffffff021916908360030b63ffffffff16021790555050565b611691611cdc565b73ffffffffffffffffffffffffffffffffffffffff166000809054906101000a900473ffffffffffffffffffffffffffffffffffffffff1673ffffffffffffffffffffffffffffffffffffffff1614611752576040517f08c379a00000000000000000000000000000000000000000000000000000000081526004018080602001828103825260208152602001807f4f776e61626c653a2063616c6c6572206973206e6f7420746865206f776e657281525060200191505060405180910390fd5b6117dd8373ffffffffffffffffffffffffffffffffffffffff16636e8055a76040518163ffffffff1660e01b815260040160206040518083038186803b15801561179b57600080fd5b505afa1580156117af573d6000803e3d6000fd5b505050506040513d60208110156117c557600080fd5b810190808051906020019092919050505083836113a6565b505050565b600560049054906101000a900473ffffffffffffffffffffffffffffffffffffffff1681565b600061182860016000848152602001908152602001600020600001611e56565b9050919050565b6118566001600084815260200190815260200160002060020154611851611cdc565b611374565b6118ab576040517f08c379a00000000000000000000000000000000000000000000000000000000081526004018080602001828103825260308152602001806121ac6030913960400191505060405180910390fd5b6118b58282611d78565b5050565b6118c1611cdc565b73ffffffffffffffffffffffffffffffffffffffff166000809054906101000a900473ffffffffffffffffffffffffffffffffffffffff1673ffffffffffffffffffffffffffffffffffffffff1614611982576040517f08c379a00000000000000000000000000000000000000000000000000000000081526004018080602001828103825260208152602001807f4f776e61626c653a2063616c6c6572206973206e6f7420746865206f776e657281525060200191505060405180910390fd5b8173ffffffffffffffffffffffffffffffffffffffff166366995a46826040518263ffffffff1660e01b8152600401808273ffffffffffffffffffffffffffffffffffffffff1673ffffffffffffffffffffffffffffffffffffffff168152602001915050600060405180830381600087803b158015611a0157600080fd5b505af1158015611a15573d6000803e3d6000fd5b505050505050565b6000611a6560405180807f524541445f53434f52455f524f4c450000000000000000000000000000000000815250600f0190506040518091039020611a60611cdc565b611374565b611aba576040517f08c379a000000000000000000000000000000000000000000000000000000000815260040180806020018281038252602c815260200180612180602c913960400191505060405180910390fd5b600560009054906101000a900460030b905090565b611ad7611cdc565b73ffffffffffffffffffffffffffffffffffffffff166000809054906101000a900473ffffffffffffffffffffffffffffffffffffffff1673ffffffffffffffffffffffffffffffffffffffff1614611b98576040517f08c379a00000000000000000000000000000000000000000000000000000000081526004018080602001828103825260208152602001807f4f776e61626c653a2063616c6c6572206973206e6f7420746865206f776e657281525060200191505060405180910390fd5b600073ffffffffffffffffffffffffffffffffffffffff168173ffffffffffffffffffffffffffffffffffffffff161415611c1e576040517f08c379a000000000000000000000000000000000000000000000000000000000815260040180806020018281038252602681526020018061215a6026913960400191505060405180910390fd5b8073ffffffffffffffffffffffffffffffffffffffff166000809054906101000a900473ffffffffffffffffffffffffffffffffffffffff1673ffffffffffffffffffffffffffffffffffffffff167f8be0079c531659141344cd1fd0a4f28419497f9722a3daafe3b4186f6b6457e060405160405180910390a3806000806101000a81548173ffffffffffffffffffffffffffffffffffffffff021916908373ffffffffffffffffffffffffffffffffffffffff16021790555050565b600033905090565b611d0c8160016000858152602001908152602001600020600001611e6b90919063ffffffff16565b15611d7457611d19611cdc565b73ffffffffffffffffffffffffffffffffffffffff168173ffffffffffffffffffffffffffffffffffffffff16837f2f8788117e7eff1d82e926ec794901d17c78024a50270940304540a733656f0d60405160405180910390a45b5050565b611da08160016000858152602001908152602001600020600001611e9b90919063ffffffff16565b15611e0857611dad611cdc565b73ffffffffffffffffffffffffffffffffffffffff168173ffffffffffffffffffffffffffffffffffffffff16837ff6391f5c32d9c69d2a47ea670b442974b53935d1edc7fd64eb21e047a839171b60405160405180910390a45b5050565b6000611e1b8360000183611ecb565b60001c905092915050565b6000611e4e836000018373ffffffffffffffffffffffffffffffffffffffff1660001b611f4e565b905092915050565b6000611e6482600001611f71565b9050919050565b6000611e93836000018373ffffffffffffffffffffffffffffffffffffffff1660001b611f82565b905092915050565b6000611ec3836000018373ffffffffffffffffffffffffffffffffffffffff1660001b611ff2565b905092915050565b600081836000018054905011611f2c576040517f08c379a00000000000000000000000000000000000000000000000000000000081526004018080602001828103825260228152602001806120db6022913960400191505060405180910390fd5b826000018281548110611f3b57fe5b9060005260206000200154905092915050565b600080836001016000848152602001908152602001600020541415905092915050565b600081600001805490509050919050565b6000611f8e8383611f4e565b611fe7578260000182908060018154018082558091505060019003906000526020600020016000909190919091505582600001805490508360010160008481526020019081526020016000208190555060019050611fec565b600090505b92915050565b600080836001016000848152602001908152602001600020549050600081146120ce576000600182039050600060018660000180549050039050600086600001828154811061203d57fe5b906000526020600020015490508087600001848154811061205a57fe5b906000526020600020018190555060018301876001016000838152602001908152602001600020819055508660000180548061209257fe5b600190038181906000526020600020016000905590558660010160008781526020019081526020016000206000905560019450505050506120d4565b60009150505b9291505056fe456e756d657261626c655365743a20696e646578206f7574206f6620626f756e6473416363657373436f6e74726f6c3a2073656e646572206d75737420626520616e2061646d696e20746f206772616e7453747564656e743a2063616c6c657220646f65736e27742068617665204d4f444946595f53434f52455f524f4c454f776e61626c653a206e6577206f776e657220697320746865207a65726f206164647265737353747564656e743a2063616c6c657220646f65736e2774206861766520524541445f53434f52455f524f4c45416363657373436f6e74726f6c3a2073656e646572206d75737420626520616e2061646d696e20746f207265766f6b65416363657373436f6e74726f6c3a2063616e206f6e6c792072656e6f756e636520726f6c657320666f722073656c6653747564656e743a2061646472657373206973206e6f7420612076616c696420636c617373726f6f6da2646970667358221220caad53219f10ce54c2eecb613fd6c260a60719da133e6f784c03871fbfae8fff64736f6c63430006060033416363657373436f6e74726f6c3a2073656e646572206d75737420626520616e2061646d696e20746f206772616e74416363657373436f6e74726f6c3a2063616e206f6e6c792072656e6f756e636520726f6c657320666f722073656c6660806040523480156200001157600080fd5b5060405162005e4a38038062005e4a83398181016040526101008110156200003857600080fd5b8101908080519060200190929190805190602001909291908051906020019092919080519060200190929190805190602001909291908051906020019092919080519060200190929190805190602001909291905050506000620000a16200029260201b60201c565b9050806000806101000a81548173ffffffffffffffffffffffffffffffffffffffff021916908373ffffffffffffffffffffffffffffffffffffffff1602179055508073ffffffffffffffffffffffffffffffffffffffff16600073ffffffffffffffffffffffffffffffffffffffff167f8be0079c531659141344cd1fd0a4f28419497f9722a3daafe3b4186f6b6457e060405160405180910390a3508760088190555081600160006101000a81548173ffffffffffffffffffffffffffffffffffffffff021916908373ffffffffffffffffffffffffffffffffffffffff1602179055506000600160146101000a81548160ff02191690831515021790555086600960006101000a81548162ffffff021916908362ffffff16021790555085600960036101000a81548162ffffff021916908362ffffff16021790555084600960066101000a81548163ffffffff021916908360030b63ffffffff16021790555083600a8190555082600b819055506000600e60146101000a81548160ff02191690831515021790555080600d60006101000a81548173ffffffffffffffffffffffffffffffffffffffff021916908373ffffffffffffffffffffffffffffffffffffffff1602179055506200027e6200029a60201b60201c565b600c819055505050505050505050620002c2565b600033905090565b60007f52414e444f4d0000000000000000000000000000000000000000000000000000905090565b615b7880620002d26000396000f3fe60806040523480156200001157600080fd5b5060043610620002085760003560e01c8063898855ed116200011d578063db07351711620000b1578063f2fde38b116200007b578063f2fde38b14620006e2578063f6be71d11462000729578063f745adfc146200075a578063fc48258d146200077a5762000208565b8063db07351714620005f1578063df55946a1462000615578063dfd78adc1462000649578063e804f16414620006ac5762000208565b8063a6e77af111620000f3578063a6e77af1146200055c578063ada02e19146200058d578063bbe3b9261462000599578063be22f54614620005a55762000208565b8063898855ed14620004bb5780638da5cb5b14620004ec578063a46268a814620005385762000208565b806369e527da11620001a157806376eada91116200016b57806376eada9114620003c85780637c0260cb146200044f5780638155e977146200045b5780638646bcec14620004915762000208565b806369e527da14620002c157806369e7af43146200030d5780636e8055a71462000370578063715018a614620003bc5762000208565b80631b9dbc6011620001e35780631b9dbc60146200027357806331960027146200027f578063431a16ef146200028b578063604d394314620002975762000208565b806306fdde03146200020d5780630fb5a6b4146200022d57806313c2bedc146200024d575b600080fd5b620002176200079a565b6040518082815260200191505060405180910390f35b62000237620007a4565b6040518082815260200191505060405180910390f35b62000257620007ae565b604051808260030b60030b815260200191505060405180910390f35b6200027d620007c5565b005b6200028962000b95565b005b6200029562000d71565b005b620002a162000f7b565b604051808262ffffff1662ffffff16815260200191505060405180910390f35b620002cb62000f94565b604051808273ffffffffffffffffffffffffffffffffffffffff1673ffffffffffffffffffffffffffffffffffffffff16815260200191505060405180910390f35b6200031762000fba565b6040518080602001828103825283818151815260200191508051906020019060200280838360005b838110156200035c5780820151818401526020810190506200033f565b505050509050019250505060405180910390f35b6200037a62001116565b604051808273ffffffffffffffffffffffffffffffffffffffff1673ffffffffffffffffffffffffffffffffffffffff16815260200191505060405180910390f35b620003c662001131565b005b6200040d60048036036020811015620003e057600080fd5b81019080803573ffffffffffffffffffffffffffffffffffffffff169060200190929190505050620012bc565b604051808273ffffffffffffffffffffffffffffffffffffffff1673ffffffffffffffffffffffffffffffffffffffff16815260200191505060405180910390f35b62000459620013fd565b005b6200048f600480360360208110156200047357600080fd5b81019080803562ffffff16906020019092919050505062001583565b005b6200049b62001671565b604051808262ffffff1662ffffff16815260200191505060405180910390f35b620004ea60048036036020811015620004d357600080fd5b81019080803590602001909291905050506200168a565b005b620004f662001760565b604051808273ffffffffffffffffffffffffffffffffffffffff1673ffffffffffffffffffffffffffffffffffffffff16815260200191505060405180910390f35b6200054262001789565b604051808215151515815260200191505060405180910390f35b6200058b600480360360208110156200057457600080fd5b81019080803590602001909291905050506200179c565b005b6200059762001872565b005b620005a362001ac0565b005b620005af62001d16565b604051808273ffffffffffffffffffffffffffffffffffffffff1673ffffffffffffffffffffffffffffffffffffffff16815260200191505060405180910390f35b620005fb62001d3c565b604051808215151515815260200191505060405180910390f35b62000647600480360360208110156200062d57600080fd5b81019080803560030b906020019092919050505062001d53565b005b6200065362001e46565b6040518080602001828103825283818151815260200191508051906020019060200280838360005b83811015620006985780820151818401526020810190506200067b565b505050509050019250505060405180910390f35b620006e060048036036020811015620006c457600080fd5b81019080803562ffffff16906020019092919050505062001fa2565b005b6200072760048036036020811015620006fa57600080fd5b81019080803573ffffffffffffffffffffffffffffffffffffffff16906020019092919050505062002090565b005b62000758600480360360208110156200074157600080fd5b8101908080359060200190929190505050620022a2565b005b6200076462002378565b6040518082815260200191505060405180910390f35b6200078462002382565b6040518082815260200191505060405180910390f35b6000600854905090565b6000600b54905090565b6000600960069054906101000a900460030b905090565b620007cf62001760565b73ffffffffffffffffffffffffffffffffffffffff16620007ef62002458565b73ffffffffffffffffffffffffffffffffffffffff1614156200085e576040517f08c379a000000000000000000000000000000000000000000000000000000000815260040180806020018281038252602d81526020018062005a33602d913960400191505060405180910390fd5b600160009054906101000a900473ffffffffffffffffffffffffffffffffffffffff1673ffffffffffffffffffffffffffffffffffffffff166316ded1ce620008a662002458565b6040518263ffffffff1660e01b8152600401808273ffffffffffffffffffffffffffffffffffffffff1673ffffffffffffffffffffffffffffffffffffffff16815260200191505060206040518083038186803b1580156200090757600080fd5b505afa1580156200091c573d6000803e3d6000fd5b505050506040513d60208110156200093357600080fd5b81019080805190602001909291905050506200099b576040517f08c379a000000000000000000000000000000000000000000000000000000000815260040180806020018281038252602481526020018062005af56024913960400191505060405180910390fd5b600160149054906101000a900460ff1662000a1e576040517f08c379a000000000000000000000000000000000000000000000000000000000815260040180806020018281038252601e8152602001807f436c617373726f6f6d3a206170706c69636174696f6e7320636c6f736564000081525060200191505060405180910390fd5b600062000a2a62002458565b9050600960069054906101000a900460030b60030b8173ffffffffffffffffffffffffffffffffffffffff1663efedc6696040518163ffffffff1660e01b815260040160206040518083038186803b15801562000a8657600080fd5b505afa15801562000a9b573d6000803e3d6000fd5b505050506040513d602081101562000ab257600080fd5b810190808051906020019092919050505060030b121562000b1f576040517f08c379a000000000000000000000000000000000000000000000000000000000815260040180806020018281038252602c815260200180620059c4602c913960400191505060405180910390fd5b600062000b2c8262002460565b90506002819080600181540180825580915050600190039060005260206000200160009091909190916101000a81548173ffffffffffffffffffffffffffffffffffffffff021916908373ffffffffffffffffffffffffffffffffffffffff1602179055505050565b62000b9f62002458565b73ffffffffffffffffffffffffffffffffffffffff166000809054906101000a900473ffffffffffffffffffffffffffffffffffffffff1673ffffffffffffffffffffffffffffffffffffffff161462000c61576040517f08c379a00000000000000000000000000000000000000000000000000000000081526004018080602001828103825260208152602001807f4f776e61626c653a2063616c6c6572206973206e6f7420746865206f776e657281525060200191505060405180910390fd5b600160149054906101000a900460ff161562000cc9576040517f08c379a000000000000000000000000000000000000000000000000000000000815260040180806020018281038252602a81526020018062005b19602a913960400191505060405180910390fd5b60006002805490501462000d29576040517f08c379a000000000000000000000000000000000000000000000000000000000815260040180806020018281038252602281526020018062005a116022913960400191505060405180910390fd5b60018060146101000a81548160ff0219169083151502179055507fed7fc56e5f714753b4e32ad38ecdac1df8e9cf07b3ae93031020b5452df875db60405160405180910390a1565b62000d7b62002458565b73ffffffffffffffffffffffffffffffffffffffff166000809054906101000a900473ffffffffffffffffffffffffffffffffffffffff1673ffffffffffffffffffffffffffffffffffffffff161462000e3d576040517f08c379a00000000000000000000000000000000000000000000000000000000081526004018080602001828103825260208152602001807f4f776e61626c653a2063616c6c6572206973206e6f7420746865206f776e657281525060200191505060405180910390fd5b42600754111562000e9a576040517f08c379a000000000000000000000000000000000000000000000000000000000815260040180806020018281038252602481526020018062005a816024913960400191505060405180910390fd5b60006003805490501162000f16576040517f08c379a000000000000000000000000000000000000000000000000000000000815260040180806020018281038252601a8152602001807f436c617373726f6f6d3a206e6f206170706c69636174696f6e7300000000000081525060200191505060405180910390fd5b60008062000f23620026a9565b91509150600062000f336200291a565b90506000606062000f46838686620029fe565b9150915062000f558162003289565b62000f608262003402565b62000f6a62003405565b62000f746200342a565b5050505050565b6000600960039054906101000a900462ffffff16905090565b600e60009054906101000a900473ffffffffffffffffffffffffffffffffffffffff1681565b606062000fc662002458565b73ffffffffffffffffffffffffffffffffffffffff166000809054906101000a900473ffffffffffffffffffffffffffffffffffffffff1673ffffffffffffffffffffffffffffffffffffffff161462001088576040517f08c379a00000000000000000000000000000000000000000000000000000000081526004018080602001828103825260208152602001807f4f776e61626c653a2063616c6c6572206973206e6f7420746865206f776e657281525060200191505060405180910390fd5b60058054806020026020016040519081016040528092919081815260200182805480156200110c57602002820191906000526020600020905b8160009054906101000a900473ffffffffffffffffffffffffffffffffffffffff1673ffffffffffffffffffffffffffffffffffffffff1681526020019060010190808311620010c1575b5050505050905090565b60006200112c6200112662002458565b620012bc565b905090565b6200113b62002458565b73ffffffffffffffffffffffffffffffffffffffff166000809054906101000a900473ffffffffffffffffffffffffffffffffffffffff1673ffffffffffffffffffffffffffffffffffffffff1614620011fd576040517f08c379a00000000000000000000000000000000000000000000000000000000081526004018080602001828103825260208152602001807f4f776e61626c653a2063616c6c6572206973206e6f7420746865206f776e657281525060200191505060405180910390fd5b600073ffffffffffffffffffffffffffffffffffffffff166000809054906101000a900473ffffffffffffffffffffffffffffffffffffffff1673ffffffffffffffffffffffffffffffffffffffff167f8be0079c531659141344cd1fd0a4f28419497f9722a3daafe3b4186f6b6457e060405160405180910390a360008060006101000a81548173ffffffffffffffffffffffffffffffffffffffff021916908373ffffffffffffffffffffffffffffffffffffffff160217905550565b6000620012c862002458565b73ffffffffffffffffffffffffffffffffffffffff168273ffffffffffffffffffffffffffffffffffffffff1614806200133f57506200130762001760565b73ffffffffffffffffffffffffffffffffffffffff166200132762002458565b73ffffffffffffffffffffffffffffffffffffffff16145b62001396576040517f08c379a0000000000000000000000000000000000000000000000000000000008152600401808060200182810382526021815260200180620059f06021913960400191505060405180910390fd5b600460008373ffffffffffffffffffffffffffffffffffffffff1673ffffffffffffffffffffffffffffffffffffffff16815260200190815260200160002060009054906101000a900473ffffffffffffffffffffffffffffffffffffffff169050919050565b6200140762002458565b73ffffffffffffffffffffffffffffffffffffffff166000809054906101000a900473ffffffffffffffffffffffffffffffffffffffff1673ffffffffffffffffffffffffffffffffffffffff1614620014c9576040517f08c379a00000000000000000000000000000000000000000000000000000000081526004018080602001828103825260208152602001807f4f776e61626c653a2063616c6c6572206973206e6f7420746865206f776e657281525060200191505060405180910390fd5b600160149054906101000a900460ff1662001530576040517f08c379a000000000000000000000000000000000000000000000000000000000815260040180806020018281038252602a81526020018062005acb602a913960400191505060405180910390fd5b6000600160146101000a81548160ff0219169083151502179055506200155562001872565b7f67ccc69b776bd9c78655440e78d4efa80a5630c9ab0d7b487930d75be9b8d80b60405160405180910390a1565b6200158d62002458565b73ffffffffffffffffffffffffffffffffffffffff166000809054906101000a900473ffffffffffffffffffffffffffffffffffffffff1673ffffffffffffffffffffffffffffffffffffffff16146200164f576040517f08c379a00000000000000000000000000000000000000000000000000000000081526004018080602001828103825260208152602001807f4f776e61626c653a2063616c6c6572206973206e6f7420746865206f776e657281525060200191505060405180910390fd5b80600960006101000a81548162ffffff021916908362ffffff16021790555050565b6000600960009054906101000a900462ffffff16905090565b6200169462002458565b73ffffffffffffffffffffffffffffffffffffffff166000809054906101000a900473ffffffffffffffffffffffffffffffffffffffff1673ffffffffffffffffffffffffffffffffffffffff161462001756576040517f08c379a00000000000000000000000000000000000000000000000000000000081526004018080602001828103825260208152602001807f4f776e61626c653a2063616c6c6572206973206e6f7420746865206f776e657281525060200191505060405180910390fd5b8060088190555050565b60008060009054906101000a900473ffffffffffffffffffffffffffffffffffffffff16905090565b600e60149054906101000a900460ff1681565b620017a662002458565b73ffffffffffffffffffffffffffffffffffffffff166000809054906101000a900473ffffffffffffffffffffffffffffffffffffffff1673ffffffffffffffffffffffffffffffffffffffff161462001868576040517f08c379a00000000000000000000000000000000000000000000000000000000081526004018080602001828103825260208152602001807f4f776e61626c653a2063616c6c6572206973206e6f7420746865206f776e657281525060200191505060405180910390fd5b80600a8190555050565b6200187c62002458565b73ffffffffffffffffffffffffffffffffffffffff166000809054906101000a900473ffffffffffffffffffffffffffffffffffffffff1673ffffffffffffffffffffffffffffffffffffffff16146200193e576040517f08c379a00000000000000000000000000000000000000000000000000000000081526004018080602001828103825260208152602001807f4f776e61626c653a2063616c6c6572206973206e6f7420746865206f776e657281525060200191505060405180910390fd5b6000600d60009054906101000a900473ffffffffffffffffffffffffffffffffffffffff1673ffffffffffffffffffffffffffffffffffffffff166370a08231306040518263ffffffff1660e01b8152600401808273ffffffffffffffffffffffffffffffffffffffff1673ffffffffffffffffffffffffffffffffffffffff16815260200191505060206040518083038186803b158015620019e057600080fd5b505afa158015620019f5573d6000803e3d6000fd5b505050506040513d602081101562001a0c57600080fd5b810190808051906020019092919050505090506000811162001a96576040517f08c379a000000000000000000000000000000000000000000000000000000000815260040180806020018281038252601c8152602001807f436c617373726f6f6d3a206e6f2066756e647320746f206170706c790000000081525060200191505060405180910390fd5b7f504c414345484f4c44455200000000000000000000000000000000000000000060088190555050565b62001aca62002458565b73ffffffffffffffffffffffffffffffffffffffff166000809054906101000a900473ffffffffffffffffffffffffffffffffffffffff1673ffffffffffffffffffffffffffffffffffffffff161462001b8c576040517f08c379a00000000000000000000000000000000000000000000000000000000081526004018080602001828103825260208152602001807f4f776e61626c653a2063616c6c6572206973206e6f7420746865206f776e657281525060200191505060405180910390fd5b600160149054906101000a900460ff161562001bf4576040517f08c379a000000000000000000000000000000000000000000000000000000000815260040180806020018281038252602681526020018062005aa56026913960400191505060405180910390fd5b62001bfe6200348e565b600067ffffffffffffffff8111801562001c1757600080fd5b5060405190808252806020026020018201604052801562001c475781602001602082028036833780820191505090505b506002908051906020019062001c5f92919062003aeb565b5060006003805490501162001cdc576040517f08c379a000000000000000000000000000000000000000000000000000000000815260040180806020018281038252601f8152602001807f436c617373726f6f6d3a206e6f207265616479206170706c69636174696f6e0081525060200191505060405180910390fd5b6001600e60146101000a81548160ff02191690831515021790555062001d0e600b5442620037b090919063ffffffff16565b600781905550565b600d60009054906101000a900473ffffffffffffffffffffffffffffffffffffffff1681565b6000600160149054906101000a900460ff16905090565b62001d5d62002458565b73ffffffffffffffffffffffffffffffffffffffff166000809054906101000a900473ffffffffffffffffffffffffffffffffffffffff1673ffffffffffffffffffffffffffffffffffffffff161462001e1f576040517f08c379a00000000000000000000000000000000000000000000000000000000081526004018080602001828103825260208152602001807f4f776e61626c653a2063616c6c6572206973206e6f7420746865206f776e657281525060200191505060405180910390fd5b80600960066101000a81548163ffffffff021916908360030b63ffffffff16021790555050565b606062001e5262002458565b73ffffffffffffffffffffffffffffffffffffffff166000809054906101000a900473ffffffffffffffffffffffffffffffffffffffff1673ffffffffffffffffffffffffffffffffffffffff161462001f14576040517f08c379a00000000000000000000000000000000000000000000000000000000081526004018080602001828103825260208152602001807f4f776e61626c653a2063616c6c6572206973206e6f7420746865206f776e657281525060200191505060405180910390fd5b600680548060200260200160405190810160405280929190818152602001828054801562001f9857602002820191906000526020600020905b8160009054906101000a900473ffffffffffffffffffffffffffffffffffffffff1673ffffffffffffffffffffffffffffffffffffffff168152602001906001019080831162001f4d575b5050505050905090565b62001fac62002458565b73ffffffffffffffffffffffffffffffffffffffff166000809054906101000a900473ffffffffffffffffffffffffffffffffffffffff1673ffffffffffffffffffffffffffffffffffffffff16146200206e576040517f08c379a00000000000000000000000000000000000000000000000000000000081526004018080602001828103825260208152602001807f4f776e61626c653a2063616c6c6572206973206e6f7420746865206f776e657281525060200191505060405180910390fd5b80600960036101000a81548162ffffff021916908362ffffff16021790555050565b6200209a62002458565b73ffffffffffffffffffffffffffffffffffffffff166000809054906101000a900473ffffffffffffffffffffffffffffffffffffffff1673ffffffffffffffffffffffffffffffffffffffff16146200215c576040517f08c379a00000000000000000000000000000000000000000000000000000000081526004018080602001828103825260208152602001807f4f776e61626c653a2063616c6c6572206973206e6f7420746865206f776e657281525060200191505060405180910390fd5b600073ffffffffffffffffffffffffffffffffffffffff168173ffffffffffffffffffffffffffffffffffffffff161415620021e4576040517f08c379a00000000000000000000000000000000000000000000000000000000081526004018080602001828103825260268152602001806200599e6026913960400191505060405180910390fd5b8073ffffffffffffffffffffffffffffffffffffffff166000809054906101000a900473ffffffffffffffffffffffffffffffffffffffff1673ffffffffffffffffffffffffffffffffffffffff167f8be0079c531659141344cd1fd0a4f28419497f9722a3daafe3b4186f6b6457e060405160405180910390a3806000806101000a81548173ffffffffffffffffffffffffffffffffffffffff021916908373ffffffffffffffffffffffffffffffffffffffff16021790555050565b620022ac62002458565b73ffffffffffffffffffffffffffffffffffffffff166000809054906101000a900473ffffffffffffffffffffffffffffffffffffffff1673ffffffffffffffffffffffffffffffffffffffff16146200236e576040517f08c379a00000000000000000000000000000000000000000000000000000000081526004018080602001828103825260208152602001807f4f776e61626c653a2063616c6c6572206973206e6f7420746865206f776e657281525060200191505060405180910390fd5b80600b8190555050565b6000600a54905090565b60006200238e62002458565b73ffffffffffffffffffffffffffffffffffffffff166000809054906101000a900473ffffffffffffffffffffffffffffffffffffffff1673ffffffffffffffffffffffffffffffffffffffff161462002450576040517f08c379a00000000000000000000000000000000000000000000000000000000081526004018080602001828103825260208152602001807f4f776e61626c653a2063616c6c6572206973206e6f7420746865206f776e657281525060200191505060405180910390fd5b600c54905090565b600033905090565b6000808230600d60009054906101000a900473ffffffffffffffffffffffffffffffffffffffff16600c54604051620024999062003b7a565b808573ffffffffffffffffffffffffffffffffffffffff1673ffffffffffffffffffffffffffffffffffffffff1681526020018473ffffffffffffffffffffffffffffffffffffffff1673ffffffffffffffffffffffffffffffffffffffff1681526020018373ffffffffffffffffffffffffffffffffffffffff1673ffffffffffffffffffffffffffffffffffffffff168152602001828152602001945050505050604051809103906000f08015801562002559573d6000803e3d6000fd5b50905080600460008573ffffffffffffffffffffffffffffffffffffffff1673ffffffffffffffffffffffffffffffffffffffff16815260200190815260200160002060006101000a81548173ffffffffffffffffffffffffffffffffffffffff021916908373ffffffffffffffffffffffffffffffffffffffff1602179055506005839080600181540180825580915050600190039060005260206000200160009091909190916101000a81548173ffffffffffffffffffffffffffffffffffffffff021916908373ffffffffffffffffffffffffffffffffffffffff1602179055506006819080600181540180825580915050600190039060005260206000200160009091909190916101000a81548173ffffffffffffffffffffffffffffffffffffffff021916908373ffffffffffffffffffffffffffffffffffffffff16021790555080915050919050565b6000806000809050600080905060008090505b6003805490508110156200290d5760038181548110620026d857fe5b9060005260206000200160009054906101000a900473ffffffffffffffffffffffffffffffffffffffff1673ffffffffffffffffffffffffffffffffffffffff1663289cf0d26040518163ffffffff1660e01b8152600401600060405180830381600087803b1580156200274b57600080fd5b505af115801562002760573d6000803e3d6000fd5b5050505060038082815481106200277357fe5b9060005260206000200160009054906101000a900473ffffffffffffffffffffffffffffffffffffffff1673ffffffffffffffffffffffffffffffffffffffff16636587b61e6040518163ffffffff1660e01b815260040160206040518083038186803b158015620027e457600080fd5b505afa158015620027f9573d6000803e3d6000fd5b505050506040513d60208110156200281057600080fd5b81019080805190602001909291905050501415620028315782806001019350505b6005600382815481106200284157fe5b9060005260206000200160009054906101000a900473ffffffffffffffffffffffffffffffffffffffff1673ffffffffffffffffffffffffffffffffffffffff16636587b61e6040518163ffffffff1660e01b815260040160206040518083038186803b158015620028b257600080fd5b505afa158015620028c7573d6000803e3d6000fd5b505050506040513d6020811015620028de57600080fd5b81019080805190602001909291905050501415620028ff5781806001019250505b8080600101915050620026bc565b5081819350935050509091565b6000600d60009054906101000a900473ffffffffffffffffffffffffffffffffffffffff1673ffffffffffffffffffffffffffffffffffffffff166370a08231306040518263ffffffff1660e01b8152600401808273ffffffffffffffffffffffffffffffffffffffff1673ffffffffffffffffffffffffffffffffffffffff16815260200191505060206040518083038186803b158015620029bc57600080fd5b505afa158015620029d1573d6000803e3d6000fd5b505050506040513d6020811015620029e857600080fd5b8101908080519060200190929190505050905090565b6000606060006003805490509050600062002a3962002a2983600a546200383990919063ffffffff16565b88620038c490919063ffffffff16565b9050600062002a81620f424062002a72600960009054906101000a900462ffffff1662ffffff16600a546200383990919063ffffffff16565b6200391090919063ffffffff16565b9050600062002a9c82600a54620038c490919063ffffffff16565b9050600062002ac98562002aba8b876200383990919063ffffffff16565b6200391090919063ffffffff16565b9050600062002b0f620f424062002b00600960039054906101000a900462ffffff1662ffffff16856200383990919063ffffffff16565b6200391090919063ffffffff16565b9050600062002b3c8b62002b2d8489620038c490919063ffffffff16565b6200391090919063ffffffff16565b905060608767ffffffffffffffff8111801562002b5857600080fd5b5060405190808252806020026020018201604052801562002b885781602001602082028036833780820191505090505b50905060008090505b888110156200304a57600380828154811062002ba957fe5b9060005260206000200160009054906101000a900473ffffffffffffffffffffffffffffffffffffffff1673ffffffffffffffffffffffffffffffffffffffff16636587b61e6040518163ffffffff1660e01b815260040160206040518083038186803b15801562002c1a57600080fd5b505afa15801562002c2f573d6000803e3d6000fd5b505050506040513d602081101562002c4657600080fd5b8101908080519060200190929190505050141562002d3a576003818154811062002c6c57fe5b9060005260206000200160009054906101000a900473ffffffffffffffffffffffffffffffffffffffff1673ffffffffffffffffffffffffffffffffffffffff16637db9abaf87856040518363ffffffff1660e01b81526004018083815260200182815260200192505050600060405180830381600087803b15801562002cf257600080fd5b505af115801562002d07573d6000803e3d6000fd5b5050505062002d208387620037b090919063ffffffff16565b82828151811062002d2d57fe5b6020026020010181815250505b60046003828154811062002d4a57fe5b9060005260206000200160009054906101000a900473ffffffffffffffffffffffffffffffffffffffff1673ffffffffffffffffffffffffffffffffffffffff16636587b61e6040518163ffffffff1660e01b815260040160206040518083038186803b15801562002dbb57600080fd5b505afa15801562002dd0573d6000803e3d6000fd5b505050506040513d602081101562002de757600080fd5b8101908080519060200190929190505050141562002ec8576003818154811062002e0d57fe5b9060005260206000200160009054906101000a900473ffffffffffffffffffffffffffffffffffffffff1673ffffffffffffffffffffffffffffffffffffffff16637db9abaf8760006040518363ffffffff1660e01b81526004018083815260200182815260200192505050600060405180830381600087803b15801562002e9457600080fd5b505af115801562002ea9573d6000803e3d6000fd5b505050508582828151811062002ebb57fe5b6020026020010181815250505b60056003828154811062002ed857fe5b9060005260206000200160009054906101000a900473ffffffffffffffffffffffffffffffffffffffff1673ffffffffffffffffffffffffffffffffffffffff16636587b61e6040518163ffffffff1660e01b815260040160206040518083038186803b15801562002f4957600080fd5b505afa15801562002f5e573d6000803e3d6000fd5b505050506040513d602081101562002f7557600080fd5b810190808051906020019092919050505014156200303c576003818154811062002f9b57fe5b9060005260206000200160009054906101000a900473ffffffffffffffffffffffffffffffffffffffff1673ffffffffffffffffffffffffffffffffffffffff16637db9abaf6000806040518363ffffffff1660e01b81526004018083815260200182815260200192505050600060405180830381600087803b1580156200302257600080fd5b505af115801562003037573d6000803e3d6000fd5b505050505b808060010191505062002b91565b50600062003064600a548d6200383990919063ffffffff16565b905060006200313e620f42406200312f600160009054906101000a900473ffffffffffffffffffffffffffffffffffffffff1673ffffffffffffffffffffffffffffffffffffffff1663e6fd604c6040518163ffffffff1660e01b815260040160206040518083038186803b158015620030dd57600080fd5b505afa158015620030f2573d6000803e3d6000fd5b505050506040513d60208110156200310957600080fd5b810190808051906020019092919050505062ffffff16886200383990919063ffffffff16565b6200391090919063ffffffff16565b90506000620031578e8c620038c490919063ffffffff16565b9050600062003245620f424062003236600160009054906101000a900473ffffffffffffffffffffffffffffffffffffffff1673ffffffffffffffffffffffffffffffffffffffff1663e6fd604c6040518163ffffffff1660e01b815260040160206040518083038186803b158015620031d057600080fd5b505afa158015620031e5573d6000803e3d6000fd5b505050506040513d6020811015620031fc57600080fd5b810190808051906020019092919050505062ffffff1662003227868f6200383990919063ffffffff16565b6200383990919063ffffffff16565b6200391090919063ffffffff16565b90506200327081620032618587620037b090919063ffffffff16565b620037b090919063ffffffff16565b859d509d50505050505050505050505050935093915050565b60008090505b600380549050811015620033fe576000828281518110620032ac57fe5b60200260200101511115620033f057600d60009054906101000a900473ffffffffffffffffffffffffffffffffffffffff1673ffffffffffffffffffffffffffffffffffffffff1663095ea7b3600383815481106200330757fe5b9060005260206000200160009054906101000a900473ffffffffffffffffffffffffffffffffffffffff168484815181106200333f57fe5b60200260200101516040518363ffffffff1660e01b8152600401808373ffffffffffffffffffffffffffffffffffffffff1673ffffffffffffffffffffffffffffffffffffffff16815260200182815260200192505050602060405180830381600087803b158015620033b157600080fd5b505af1158015620033c6573d6000803e3d6000fd5b505050506040513d6020811015620033dd57600080fd5b8101908080519060200190929190505050505b80806001019150506200328f565b5050565b50565b60008090505b600380549050811015620034275780806001019150506200340b565b50565b600067ffffffffffffffff811180156200344357600080fd5b50604051908082528060200260200182016040528015620034735781602001602082028036833780820191505090505b50600390805190602001906200348b92919062003aeb565b50565b60008090505b6002805490508110156200374b57600160028281548110620034b257fe5b9060005260206000200160009054906101000a900473ffffffffffffffffffffffffffffffffffffffff1673ffffffffffffffffffffffffffffffffffffffff16636587b61e6040518163ffffffff1660e01b815260040160206040518083038186803b1580156200352357600080fd5b505afa15801562003538573d6000803e3d6000fd5b505050506040513d60208110156200354f57600080fd5b81019080805190602001909291905050501415620036a257600281815481106200357557fe5b9060005260206000200160009054906101000a900473ffffffffffffffffffffffffffffffffffffffff1673ffffffffffffffffffffffffffffffffffffffff16630f15f4c06040518163ffffffff1660e01b8152600401600060405180830381600087803b158015620035e857600080fd5b505af1158015620035fd573d6000803e3d6000fd5b505050506003600282815481106200361157fe5b9060005260206000200160009054906101000a900473ffffffffffffffffffffffffffffffffffffffff169080600181540180825580915050600190039060005260206000200160009091909190916101000a81548173ffffffffffffffffffffffffffffffffffffffff021916908373ffffffffffffffffffffffffffffffffffffffff1602179055506200373d565b60028181548110620036b057fe5b9060005260206000200160009054906101000a900473ffffffffffffffffffffffffffffffffffffffff1673ffffffffffffffffffffffffffffffffffffffff166379599f966040518163ffffffff1660e01b8152600401600060405180830381600087803b1580156200372357600080fd5b505af115801562003738573d6000803e3d6000fd5b505050505b808060010191505062003494565b50600067ffffffffffffffff811180156200376557600080fd5b50604051908082528060200260200182016040528015620037955781602001602082028036833780820191505090505b5060029080519060200190620037ad92919062003aeb565b50565b6000808284019050838110156200382f576040517f08c379a000000000000000000000000000000000000000000000000000000000815260040180806020018281038252601b8152602001807f536166654d6174683a206164646974696f6e206f766572666c6f77000000000081525060200191505060405180910390fd5b8091505092915050565b6000808314156200384e5760009050620038be565b60008284029050828482816200386057fe5b0414620038b9576040517f08c379a000000000000000000000000000000000000000000000000000000000815260040180806020018281038252602181526020018062005a606021913960400191505060405180910390fd5b809150505b92915050565b60006200390883836040518060400160405280601e81526020017f536166654d6174683a207375627472616374696f6e206f766572666c6f7700008152506200395c565b905092915050565b60006200395483836040518060400160405280601a81526020017f536166654d6174683a206469766973696f6e206279207a65726f00000000000081525062003a20565b905092915050565b600083831115829062003a0d576040517f08c379a00000000000000000000000000000000000000000000000000000000081526004018080602001828103825283818151815260200191508051906020019080838360005b83811015620039d1578082015181840152602081019050620039b4565b50505050905090810190601f168015620039ff5780820380516001836020036101000a031916815260200191505b509250505060405180910390fd5b5060008385039050809150509392505050565b6000808311829062003ad0576040517f08c379a00000000000000000000000000000000000000000000000000000000081526004018080602001828103825283818151815260200191508051906020019080838360005b8381101562003a9457808201518184015260208101905062003a77565b50505050905090810190601f16801562003ac25780820380516001836020036101000a031916815260200191505b509250505060405180910390fd5b50600083858162003add57fe5b049050809150509392505050565b82805482825590600052602060002090810192821562003b67579160200282015b8281111562003b665782518260006101000a81548173ffffffffffffffffffffffffffffffffffffffff021916908373ffffffffffffffffffffffffffffffffffffffff1602179055509160200191906001019062003b0c565b5b50905062003b76919062003b88565b5090565b611dcf8062003bcf83390190565b62003bcb91905b8082111562003bc757600081816101000a81549073ffffffffffffffffffffffffffffffffffffffff02191690555060010162003b8f565b5090565b9056fe608060405234801561001057600080fd5b5060405162001dcf38038062001dcf8339818101604052608081101561003557600080fd5b8101908080519060200190929190805190602001909291908051906020019092919080519060200190929190505050600061007461023260201b60201c565b9050806000806101000a81548173ffffffffffffffffffffffffffffffffffffffff021916908373ffffffffffffffffffffffffffffffffffffffff1602179055508073ffffffffffffffffffffffffffffffffffffffff16600073ffffffffffffffffffffffffffffffffffffffff167f8be0079c531659141344cd1fd0a4f28419497f9722a3daafe3b4186f6b6457e060405160405180910390a3506000600260146101000a81548160ff0219169083600681111561013157fe5b021790555083600360006101000a81548173ffffffffffffffffffffffffffffffffffffffff021916908373ffffffffffffffffffffffffffffffffffffffff16021790555082600460006101000a81548173ffffffffffffffffffffffffffffffffffffffff021916908373ffffffffffffffffffffffffffffffffffffffff1602179055506000600660006101000a81548160ff02191690831515021790555081600160006101000a81548173ffffffffffffffffffffffffffffffffffffffff021916908373ffffffffffffffffffffffffffffffffffffffff1602179055506102238161023a60201b60201c565b60058190555050505050610266565b600033905090565b60007f52414e444f4d000000000000000000000000000000000000000000000000000082189050919050565b611b5980620002766000396000f3fe608060405234801561001057600080fd5b506004361061010b5760003560e01c8063715018a6116100a25780638da5cb5b116100715780638da5cb5b14610274578063be22f546146102be578063c7a51bc314610308578063f2fde38b14610326578063fc48258d1461036a5761010b565b8063715018a61461021e57806379599f96146102285780637db9abaf14610232578063872d7c791461026a5761010b565b80633db0bfd2116100de5780633db0bfd2146101505780636587b61e1461019e57806366995a46146101bc57806370bc0d6f146102005761010b565b80630bb8ebf6146101105780630f15f4c014610132578063289cf0d21461013c5780632d24947b14610146575b600080fd5b610118610388565b604051808215151515815260200191505060405180910390f35b61013a61043f565b005b6101446105ab565b005b61014e61070f565b005b61019c6004803603604081101561016657600080fd5b81019080803573ffffffffffffffffffffffffffffffffffffffff169060200190929190803590602001909291905050506109e4565b005b6101a6610c30565b6040518082815260200191505060405180910390f35b6101fe600480360360208110156101d257600080fd5b81019080803573ffffffffffffffffffffffffffffffffffffffff169060200190929190505050610d43565b005b610208610d56565b6040518082815260200191505060405180910390f35b610226610e95565b005b61023061101d565b005b6102686004803603604081101561024857600080fd5b81019080803590602001909291908035906020019092919050505061118a565b005b6102726112c5565b005b61027c6114d4565b604051808273ffffffffffffffffffffffffffffffffffffffff1673ffffffffffffffffffffffffffffffffffffffff16815260200191505060405180910390f35b6102c66114fd565b604051808273ffffffffffffffffffffffffffffffffffffffff1673ffffffffffffffffffffffffffffffffffffffff16815260200191505060405180910390f35b610310611523565b6040518082815260200191505060405180910390f35b6103686004803603602081101561033c57600080fd5b81019080803573ffffffffffffffffffffffffffffffffffffffff169060200190929190505050611661565b005b61037261186e565b6040518082815260200191505060405180910390f35b6000600260009054906101000a900473ffffffffffffffffffffffffffffffffffffffff1673ffffffffffffffffffffffffffffffffffffffff166339e7357c6040518163ffffffff1660e01b815260040160206040518083038186803b1580156103f257600080fd5b505afa92505050801561042657506040513d602081101561041257600080fd5b810190808051906020019092919050505060015b610433576000905061043c565b60055481149150505b90565b610447611941565b73ffffffffffffffffffffffffffffffffffffffff166000809054906101000a900473ffffffffffffffffffffffffffffffffffffffff1673ffffffffffffffffffffffffffffffffffffffff1614610508576040517f08c379a00000000000000000000000000000000000000000000000000000000081526004018080602001828103825260208152602001807f4f776e61626c653a2063616c6c6572206973206e6f7420746865206f776e657281525060200191505060405180910390fd5b6000600681111561051557fe5b600260149054906101000a900460ff16600681111561053057fe5b14610586576040517f08c379a000000000000000000000000000000000000000000000000000000000815260040180806020018281038252602a815260200180611a7a602a913960400191505060405180910390fd5b60028060146101000a81548160ff021916908360068111156105a457fe5b0217905550565b6105b3611941565b73ffffffffffffffffffffffffffffffffffffffff166000809054906101000a900473ffffffffffffffffffffffffffffffffffffffff1673ffffffffffffffffffffffffffffffffffffffff1614610674576040517f08c379a00000000000000000000000000000000000000000000000000000000081526004018080602001828103825260208152602001807f4f776e61626c653a2063616c6c6572206973206e6f7420746865206f776e657281525060200191505060405180910390fd5b600660009054906101000a900460ff166106b1576005600260146101000a81548160ff021916908360068111156106a757fe5b021790555061070d565b6106b9610388565b156106e7576003600260146101000a81548160ff021916908360068111156106dd57fe5b021790555061070c565b6004600260146101000a81548160ff0219169083600681111561070657fe5b02179055505b5b565b6000600681111561071c57fe5b600260149054906101000a900460ff16600681111561073757fe5b1461078d576040517f08c379a000000000000000000000000000000000000000000000000000000000815260040180806020018281038252602a815260200180611a7a602a913960400191505060405180910390fd5b600160009054906101000a900473ffffffffffffffffffffffffffffffffffffffff1673ffffffffffffffffffffffffffffffffffffffff166323b872dd33600460009054906101000a900473ffffffffffffffffffffffffffffffffffffffff16600460009054906101000a900473ffffffffffffffffffffffffffffffffffffffff1673ffffffffffffffffffffffffffffffffffffffff1663f745adfc6040518163ffffffff1660e01b815260040160206040518083038186803b15801561085757600080fd5b505afa15801561086b573d6000803e3d6000fd5b505050506040513d602081101561088157600080fd5b81019080805190602001909291905050506040518463ffffffff1660e01b8152600401808473ffffffffffffffffffffffffffffffffffffffff1673ffffffffffffffffffffffffffffffffffffffff1681526020018373ffffffffffffffffffffffffffffffffffffffff1673ffffffffffffffffffffffffffffffffffffffff1681526020018281526020019350505050602060405180830381600087803b15801561092e57600080fd5b505af1158015610942573d6000803e3d6000fd5b505050506040513d602081101561095857600080fd5b81019080805190602001909291905050506109be576040517f08c379a000000000000000000000000000000000000000000000000000000000815260040180806020018281038252602a815260200180611aa4602a913960400191505060405180910390fd5b6001600260146101000a81548160ff021916908360068111156109dd57fe5b0217905550565b600360009054906101000a900473ffffffffffffffffffffffffffffffffffffffff1673ffffffffffffffffffffffffffffffffffffffff16610a25611941565b73ffffffffffffffffffffffffffffffffffffffff1614610a91576040517f08c379a000000000000000000000000000000000000000000000000000000000815260040180806020018281038252602d8152602001806119ee602d913960400191505060405180910390fd5b6002610a9b610c30565b11610af1576040517f08c379a000000000000000000000000000000000000000000000000000000000815260040180806020018281038252602c815260200180611ace602c913960400191505060405180910390fd5b600160009054906101000a900473ffffffffffffffffffffffffffffffffffffffff1673ffffffffffffffffffffffffffffffffffffffff166323b872dd600460009054906101000a900473ffffffffffffffffffffffffffffffffffffffff1684846040518463ffffffff1660e01b8152600401808473ffffffffffffffffffffffffffffffffffffffff1673ffffffffffffffffffffffffffffffffffffffff1681526020018373ffffffffffffffffffffffffffffffffffffffff1673ffffffffffffffffffffffffffffffffffffffff1681526020018281526020019350505050602060405180830381600087803b158015610bf057600080fd5b505af1158015610c04573d6000803e3d6000fd5b505050506040513d6020811015610c1a57600080fd5b8101908080519060200190929190505050505050565b6000600360009054906101000a900473ffffffffffffffffffffffffffffffffffffffff1673ffffffffffffffffffffffffffffffffffffffff16610c73611941565b73ffffffffffffffffffffffffffffffffffffffff161480610cce5750610c986114d4565b73ffffffffffffffffffffffffffffffffffffffff16610cb6611941565b73ffffffffffffffffffffffffffffffffffffffff16145b610d23576040517f08c379a000000000000000000000000000000000000000000000000000000000815260040180806020018281038252602a815260200180611afa602a913960400191505060405180910390fd5b600260149054906101000a900460ff166006811115610d3e57fe5b905090565b610d5381600854600754016109e4565b50565b6000600660009054906101000a900460ff16610dbd576040517f08c379a00000000000000000000000000000000000000000000000000000000081526004018080602001828103825260298152602001806119c56029913960400191505060405180910390fd5b600260009054906101000a900473ffffffffffffffffffffffffffffffffffffffff1673ffffffffffffffffffffffffffffffffffffffff16610dfe611941565b73ffffffffffffffffffffffffffffffffffffffff1614610e6a576040517f08c379a00000000000000000000000000000000000000000000000000000000081526004018080602001828103825260258152602001806119a06025913960400191505060405180910390fd5b6005547f4841434b4d4f4e455900000000000000000000000000000000000000000000001917905090565b610e9d611941565b73ffffffffffffffffffffffffffffffffffffffff166000809054906101000a900473ffffffffffffffffffffffffffffffffffffffff1673ffffffffffffffffffffffffffffffffffffffff1614610f5e576040517f08c379a00000000000000000000000000000000000000000000000000000000081526004018080602001828103825260208152602001807f4f776e61626c653a2063616c6c6572206973206e6f7420746865206f776e657281525060200191505060405180910390fd5b600073ffffffffffffffffffffffffffffffffffffffff166000809054906101000a900473ffffffffffffffffffffffffffffffffffffffff1673ffffffffffffffffffffffffffffffffffffffff167f8be0079c531659141344cd1fd0a4f28419497f9722a3daafe3b4186f6b6457e060405160405180910390a360008060006101000a81548173ffffffffffffffffffffffffffffffffffffffff021916908373ffffffffffffffffffffffffffffffffffffffff160217905550565b611025611941565b73ffffffffffffffffffffffffffffffffffffffff166000809054906101000a900473ffffffffffffffffffffffffffffffffffffffff1673ffffffffffffffffffffffffffffffffffffffff16146110e6576040517f08c379a00000000000000000000000000000000000000000000000000000000081526004018080602001828103825260208152602001807f4f776e61626c653a2063616c6c6572206973206e6f7420746865206f776e657281525060200191505060405180910390fd5b600060068111156110f357fe5b600260149054906101000a900460ff16600681111561110e57fe5b14611164576040517f08c379a000000000000000000000000000000000000000000000000000000000815260040180806020018281038252602a815260200180611a7a602a913960400191505060405180910390fd5b6006600260146101000a81548160ff0219169083600681111561118357fe5b0217905550565b611192611941565b73ffffffffffffffffffffffffffffffffffffffff166000809054906101000a900473ffffffffffffffffffffffffffffffffffffffff1673ffffffffffffffffffffffffffffffffffffffff1614611253576040517f08c379a00000000000000000000000000000000000000000000000000000000081526004018080602001828103825260208152602001807f4f776e61626c653a2063616c6c6572206973206e6f7420746865206f776e657281525060200191505060405180910390fd5b600261125d610c30565b116112b3576040517f08c379a000000000000000000000000000000000000000000000000000000000815260040180806020018281038252603081526020018061194a6030913960400191505060405180910390fd5b81600781905550806008819055505050565b600260068111156112d257fe5b600260149054906101000a900460ff1660068111156112ed57fe5b14611343576040517f08c379a000000000000000000000000000000000000000000000000000000000815260040180806020018281038252602d815260200180611a4d602d913960400191505060405180910390fd5b600061134d611941565b9050600360009054906101000a900473ffffffffffffffffffffffffffffffffffffffff1673ffffffffffffffffffffffffffffffffffffffff168173ffffffffffffffffffffffffffffffffffffffff1663893d20e86040518163ffffffff1660e01b815260040160206040518083038186803b1580156113ce57600080fd5b505afa1580156113e2573d6000803e3d6000fd5b505050506040513d60208110156113f857600080fd5b810190808051906020019092919050505073ffffffffffffffffffffffffffffffffffffffff1614611475576040517f08c379a0000000000000000000000000000000000000000000000000000000008152600401808060200182810382526032815260200180611a1b6032913960400191505060405180910390fd5b80600260006101000a81548173ffffffffffffffffffffffffffffffffffffffff021916908373ffffffffffffffffffffffffffffffffffffffff1602179055506001600660006101000a81548160ff02191690831515021790555050565b60008060009054906101000a900473ffffffffffffffffffffffffffffffffffffffff16905090565b600160009054906101000a900473ffffffffffffffffffffffffffffffffffffffff1681565b6000600660009054906101000a900460ff1661158a576040517f08c379a00000000000000000000000000000000000000000000000000000000081526004018080602001828103825260298152602001806119c56029913960400191505060405180910390fd5b600260009054906101000a900473ffffffffffffffffffffffffffffffffffffffff1673ffffffffffffffffffffffffffffffffffffffff166115cb611941565b73ffffffffffffffffffffffffffffffffffffffff1614611637576040517f08c379a00000000000000000000000000000000000000000000000000000000081526004018080602001828103825260258152602001806119a06025913960400191505060405180910390fd5b6005547f4841434b4d4f4e4559000000000000000000000000000000000000000000000017905090565b611669611941565b73ffffffffffffffffffffffffffffffffffffffff166000809054906101000a900473ffffffffffffffffffffffffffffffffffffffff1673ffffffffffffffffffffffffffffffffffffffff161461172a576040517f08c379a00000000000000000000000000000000000000000000000000000000081526004018080602001828103825260208152602001807f4f776e61626c653a2063616c6c6572206973206e6f7420746865206f776e657281525060200191505060405180910390fd5b600073ffffffffffffffffffffffffffffffffffffffff168173ffffffffffffffffffffffffffffffffffffffff1614156117b0576040517f08c379a000000000000000000000000000000000000000000000000000000000815260040180806020018281038252602681526020018061197a6026913960400191505060405180910390fd5b8073ffffffffffffffffffffffffffffffffffffffff166000809054906101000a900473ffffffffffffffffffffffffffffffffffffffff1673ffffffffffffffffffffffffffffffffffffffff167f8be0079c531659141344cd1fd0a4f28419497f9722a3daafe3b4186f6b6457e060405160405180910390a3806000806101000a81548173ffffffffffffffffffffffffffffffffffffffff021916908373ffffffffffffffffffffffffffffffffffffffff16021790555050565b6000611878611941565b73ffffffffffffffffffffffffffffffffffffffff166000809054906101000a900473ffffffffffffffffffffffffffffffffffffffff1673ffffffffffffffffffffffffffffffffffffffff1614611939576040517f08c379a00000000000000000000000000000000000000000000000000000000081526004018080602001828103825260208152602001807f4f776e61626c653a2063616c6c6572206973206e6f7420746865206f776e657281525060200191505060405180910390fd5b600554905090565b60003390509056fe53747564656e744170706c69636174696f6e3a206170706c69636174696f6e206e6f742066696e6973686564207965744f776e61626c653a206e6577206f776e657220697320746865207a65726f206164647265737353747564656e744170706c69636174696f6e3a2061726520796f75206368656174696e673f53747564656e744170706c69636174696f6e3a20616e73776572206e6f74207265676973746572656453747564656e744170706c69636174696f6e3a206f6e6c792073747564656e742063616e20776974686472617753747564656e744170706c69636174696f6e3a2073747564656e74206973206e6f74206f776e6572206f6620616e7377657253747564656e744170706c69636174696f6e3a206170706c69636174696f6e206973206e6f742061637469766553747564656e744170706c69636174696f6e3a206170706c69636174696f6e206973206e6f74204e657753747564656e744170706c69636174696f6e3a20636f756c64206e6f74207472616e736665722044414953747564656e744170706c69636174696f6e3a206170706c69636174696f6e206e6f742066696e697368656453747564656e744170706c69636174696f6e3a2072656164207065726d697373696f6e2064656e696564a26469706673582212205a9b8923eb655ff150886617e1f56033bc8c274cbe03458fc1f95ba31d9e58cc64736f6c634300060600334f776e61626c653a206e6577206f776e657220697320746865207a65726f2061646472657373436c617373726f6f6d3a2073747564656e7420646f65736e2774206861766520656e6f7567682073636f7265436c617373726f6f6d3a2072656164207065726d697373696f6e2064656e696564436c617373726f6f6d3a2073747564656e7473206c697374206e6f7420656d707479436c617373726f6f6d3a2070726f666573736f722063616e277420626520697473206f776e2073747564656e74536166654d6174683a206d756c7469706c69636174696f6e206f766572666c6f77436c617373726f6f6d3a20746f6f20736f6f6e20746f2066696e69736820636f75727365436c617373726f6f6d3a206170706c69636174696f6e7320617265207374696c6c206f70656e436c617373726f6f6d3a206170706c69636174696f6e732061726520616c726561647920636c6f736564436c617373726f6f6d3a2073747564656e74206973206e6f742072656769737465726564436c617373726f6f6d3a206170706c69636174696f6e732061726520616c7265616479206f70656e6564a2646970667358221220dcc98617bd2864ca9eac9ca0c37f1b6f4792f52676bf9d6868fcefb2039221c364736f6c63430006060033456e756d657261626c655365743a20696e646578206f7574206f6620626f756e6473416363657373436f6e74726f6c3a2073656e646572206d75737420626520616e2061646d696e20746f206772616e74556e69766572736974793a2063616c6c657220646f65736e2774206861766520524541445f53545544454e545f4c4953545f524f4c454f776e61626c653a206e6577206f776e657220697320746865207a65726f2061646472657373556e69766572736974793a2063616c6c657220646f65736e2774206861766520434c4153534c4953545f41444d494e5f524f4c45416363657373436f6e74726f6c3a2073656e646572206d75737420626520616e2061646d696e20746f207265766f6b65416363657373436f6e74726f6c3a2063616e206f6e6c792072656e6f756e636520726f6c657320666f722073656c66a2646970667358221220d917c4082121dc94cc95ac813613c4d14751560de85a15eb92913bfeea155e0164736f6c63430006060033416363657373436f6e74726f6c3a2073656e646572206d75737420626520616e2061646d696e20746f206772616e74",
  "immutableReferences": {},
  "source": "pragma solidity 0.6.6;\r\n\r\nimport \"@openzeppelin/contracts/math/SafeMath.sol\";\r\nimport \"@openzeppelin/contracts/access/AccessControl.sol\";\r\nimport \"@openzeppelin/contracts/access/Ownable.sol\";\r\nimport \"@openzeppelin/contracts/token/ERC20/IERC20.sol\";\r\nimport \"@openzeppelin/contracts/token/ERC20/IERC20.sol\";\r\nimport \"@openzeppelin/contracts/utils/Address.sol\";\r\nimport \"./Classroom.sol\";\r\nimport \"./Student.sol\";\r\n\r\ninterface CERC20 {\r\n    function mint(uint256) external returns (uint256);\r\n    function exchangeRateCurrent() external returns (uint256);\r\n    function supplyRatePerBlock() external returns (uint256);\r\n    function redeem(uint) external returns (uint);\r\n    function redeemUnderlying(uint) external returns (uint);\r\n}\r\n\r\ncontract University is Ownable, AccessControl {\r\n    using SafeMath for uint256;\r\n\r\n    //CLASSLIST_ADMIN_ROLE can add new manually created classes to the list\r\n    bytes32 public constant CLASSLIST_ADMIN_ROLE = keccak256(\"CLASSLIST_ADMIN_ROLE\");\r\n    // FUNDS_MANAGER_ROLE can withdraw funds from the contract\r\n    bytes32 public constant FUNDS_MANAGER_ROLE = keccak256(\"FUNDS_MANAGER_ROLE\");\r\n    // GRANTS_MANAGER_ROLE can approve/decline grant claims\r\n    bytes32 public constant GRANTS_MANAGER_ROLE = keccak256(\"GRANTS_MANAGER_ROLE\");\r\n    // CLASSROOM_ROLE can manage itself inside the University\r\n    bytes32 public constant CLASSROOM_ROLE = keccak256(\"CLASSROOM_ROLE\");\r\n    // READ_STUDENT_LIST_ROLE allow reading students list\r\n    bytes32 public constant READ_STUDENT_LIST_ROLE = keccak256(\"READ_STUDENT_LIST_ROLE\");\r\n    // STUDENT_ROLE allow asking for grants\r\n    bytes32 public constant STUDENT_ROLE = keccak256(\"STUDENT_ROLE\");\r\n\r\n    // Parameter: Name of this University\r\n    bytes32 _name;\r\n    // Parameter: University cut from professor (Parts per Million)\r\n    uint24 _cut;\r\n    // List of every registered classroom\r\n    Classroom[] _classList;\r\n    // List of every student\r\n    Student[] _students;\r\n    // Address list of every donor\r\n    address[] _donors;\r\n\r\n    CERC20 public cToken;\r\n    IERC20 public daiToken;\r\n\r\n    constructor(bytes32 name, uint24 cut, address daiAddress) public {\r\n        _name = name;\r\n        _cut = cut;\r\n        _classList = new Classroom[](0);\r\n        _students = new Student[](0);\r\n        _setupRole(DEFAULT_ADMIN_ROLE, _msgSender());\r\n        grantRole(READ_STUDENT_LIST_ROLE, _msgSender());\r\n        //Kovan address\r\n        daiToken = IERC20(daiAddress);\r\n    }\r\n\r\n    event NewClassroom(bytes32 indexed name, address addr);\r\n\r\n    function name() public view returns (bytes32){\r\n        return _name;\r\n    }\r\n\r\n    function changeName(bytes32 val) public onlyOwner {\r\n        _name = val;\r\n    }\r\n\r\n    function cut() public view returns (uint24){\r\n        return _cut;\r\n    }\r\n\r\n    function changeCut(uint24 val) public onlyOwner {\r\n        _cut = val;\r\n    }\r\n\r\n    function viewClassList() public view returns (Classroom[] memory) {\r\n        return _classList;\r\n    }\r\n\r\n    function isValidClassroom(address classroom) public view returns (bool) {\r\n        return hasRole(CLASSROOM_ROLE, classroom);\r\n    }\r\n\r\n    function newClassRoom(bytes32 cName) public {\r\n         newClassRoom(cName, 0.2 * 10**6, 0.5 * 10**6, 0, 50 * (10 ** 18), 30 days);\r\n    }\r\n\r\n    function newClassRoom(bytes32 cName, uint24 cCut, uint24 cPCut, int32 minScore, uint entryPrice, uint duration) public {\r\n        require(hasRole(CLASSLIST_ADMIN_ROLE, _msgSender()), \"University: caller doesn't have CLASSLIST_ADMIN_ROLE\");\r\n        _newClassRoom(cName, cCut, cPCut, minScore, entryPrice, duration);\r\n    }\r\n\r\n    function _newClassRoom(bytes32 cName, uint24 cCut, uint24 cPCut, int32 minScore, uint entryPrice, uint duration) internal {\r\n        //TODO: fetch contract from external factory to reduce size\r\n        Classroom classroom = new Classroom(cName, cCut, cPCut, minScore, entryPrice, duration, address(this), address(daiToken));\r\n        classroom.transferOwnership(_msgSender());\r\n        _classList.push(classroom);\r\n        grantRole(READ_STUDENT_LIST_ROLE, address(classroom));\r\n        grantRole(CLASSROOM_ROLE, address(classroom));\r\n        emit NewClassroom(cName, address(classroom));\r\n    }\r\n\r\n    function studentSelfRegister(bytes32 sName) public {\r\n        _newStudent(sName);\r\n    }\r\n\r\n    function _newStudent(bytes32 sName) internal {\r\n        //TODO: fetch contract from external factory to reduce size\r\n        Student student = new Student(sName, address(this));\r\n        student.transferOwnership(_msgSender());\r\n        _students.push(student);\r\n        grantRole(STUDENT_ROLE, address(student));\r\n    }\r\n\r\n    function studentIsRegistered(address student) public view returns (bool){\r\n        require(hasRole(READ_STUDENT_LIST_ROLE, _msgSender()), \"University: caller doesn't have READ_STUDENT_LIST_ROLE\");\r\n        return hasRole(STUDENT_ROLE, student);\r\n    }\r\n\r\n}",
  "sourcePath": "/mnt/e/Repositories/Uproot/contracts/University.sol",
  "compiler": {
    "name": "solc",
    "version": "0.6.6+commit.6c089d02.Emscripten.clang"
  },
  "schemaVersion": "3.1.0",
  "updatedAt": "2020-05-02T02:28:42.749Z",
  "devdoc": {
    "methods": {
      "getRoleAdmin(bytes32)": {
        "details": "Returns the admin role that controls `role`. See {grantRole} and {revokeRole}.     * To change a role's admin, use {_setRoleAdmin}."
      },
      "getRoleMember(bytes32,uint256)": {
        "details": "Returns one of the accounts that have `role`. `index` must be a value between 0 and {getRoleMemberCount}, non-inclusive.     * Role bearers are not sorted in any particular way, and their ordering may change at any point.     * WARNING: When using {getRoleMember} and {getRoleMemberCount}, make sure you perform all queries on the same block. See the following https://forum.openzeppelin.com/t/iterating-over-elements-on-enumerableset-in-openzeppelin-contracts/2296[forum post] for more information."
      },
      "getRoleMemberCount(bytes32)": {
        "details": "Returns the number of accounts that have `role`. Can be used together with {getRoleMember} to enumerate all bearers of a role."
      },
      "grantRole(bytes32,address)": {
        "details": "Grants `role` to `account`.     * If `account` had not been already granted `role`, emits a {RoleGranted} event.     * Requirements:     * - the caller must have ``role``'s admin role."
      },
      "hasRole(bytes32,address)": {
        "details": "Returns `true` if `account` has been granted `role`."
      },
      "owner()": {
        "details": "Returns the address of the current owner."
      },
      "renounceOwnership()": {
        "details": "Leaves the contract without owner. It will not be possible to call `onlyOwner` functions anymore. Can only be called by the current owner.     * NOTE: Renouncing ownership will leave the contract without an owner, thereby removing any functionality that is only available to the owner."
      },
      "renounceRole(bytes32,address)": {
        "details": "Revokes `role` from the calling account.     * Roles are often managed via {grantRole} and {revokeRole}: this function's purpose is to provide a mechanism for accounts to lose their privileges if they are compromised (such as when a trusted device is misplaced).     * If the calling account had been granted `role`, emits a {RoleRevoked} event.     * Requirements:     * - the caller must be `account`."
      },
      "revokeRole(bytes32,address)": {
        "details": "Revokes `role` from `account`.     * If `account` had been granted `role`, emits a {RoleRevoked} event.     * Requirements:     * - the caller must have ``role``'s admin role."
      },
      "transferOwnership(address)": {
        "details": "Transfers ownership of the contract to a new account (`newOwner`). Can only be called by the current owner."
      }
    }
  },
  "userdoc": {
    "methods": {}
  }
}