{
  "contractName": "University",
  "abi": [
    {
      "inputs": [
        {
          "internalType": "bytes32",
          "name": "_name",
          "type": "bytes32"
        },
        {
          "internalType": "uint24",
          "name": "_cut",
          "type": "uint24"
        },
        {
          "internalType": "uint256",
          "name": "studentGSNDeposit",
          "type": "uint256"
        },
        {
          "internalType": "address",
          "name": "daiAddress",
          "type": "address"
        },
        {
          "internalType": "address",
          "name": "relayHubAddress",
          "type": "address"
        },
        {
          "internalType": "address",
          "name": "classroomFactoryAddress",
          "type": "address"
        },
        {
          "internalType": "address",
          "name": "studentFactoryAddress",
          "type": "address"
        },
        {
          "internalType": "address",
          "name": "studentApplicationFactoryAddress",
          "type": "address"
        }
      ],
      "stateMutability": "nonpayable",
      "type": "constructor"
    },
    {
      "anonymous": false,
      "inputs": [
        {
          "indexed": false,
          "internalType": "uint24",
          "name": "",
          "type": "uint24"
        }
      ],
      "name": "LogChangeCut",
      "type": "event"
    },
    {
      "anonymous": false,
      "inputs": [
        {
          "indexed": false,
          "internalType": "bytes32",
          "name": "",
          "type": "bytes32"
        }
      ],
      "name": "LogChangeName",
      "type": "event"
    },
    {
      "anonymous": false,
      "inputs": [
        {
          "indexed": false,
          "internalType": "bytes32",
          "name": "",
          "type": "bytes32"
        },
        {
          "indexed": false,
          "internalType": "address",
          "name": "",
          "type": "address"
        }
      ],
      "name": "LogNewClassroom",
      "type": "event"
    },
    {
      "anonymous": false,
      "inputs": [
        {
          "indexed": false,
          "internalType": "address",
          "name": "",
          "type": "address"
        },
        {
          "indexed": false,
          "internalType": "uint256",
          "name": "",
          "type": "uint256"
        }
      ],
      "name": "LogReceived",
      "type": "event"
    },
    {
      "anonymous": false,
      "inputs": [
        {
          "indexed": true,
          "internalType": "address",
          "name": "previousOwner",
          "type": "address"
        },
        {
          "indexed": true,
          "internalType": "address",
          "name": "newOwner",
          "type": "address"
        }
      ],
      "name": "OwnershipTransferred",
      "type": "event"
    },
    {
      "anonymous": false,
      "inputs": [
        {
          "indexed": true,
          "internalType": "bytes32",
          "name": "role",
          "type": "bytes32"
        },
        {
          "indexed": true,
          "internalType": "address",
          "name": "account",
          "type": "address"
        },
        {
          "indexed": true,
          "internalType": "address",
          "name": "sender",
          "type": "address"
        }
      ],
      "name": "RoleGranted",
      "type": "event"
    },
    {
      "anonymous": false,
      "inputs": [
        {
          "indexed": true,
          "internalType": "bytes32",
          "name": "role",
          "type": "bytes32"
        },
        {
          "indexed": true,
          "internalType": "address",
          "name": "account",
          "type": "address"
        },
        {
          "indexed": true,
          "internalType": "address",
          "name": "sender",
          "type": "address"
        }
      ],
      "name": "RoleRevoked",
      "type": "event"
    },
    {
      "inputs": [],
      "name": "CLASSLIST_ADMIN_ROLE",
      "outputs": [
        {
          "internalType": "bytes32",
          "name": "",
          "type": "bytes32"
        }
      ],
      "stateMutability": "view",
      "type": "function"
    },
    {
      "inputs": [],
      "name": "CLASSROOM_PROFESSOR_ROLE",
      "outputs": [
        {
          "internalType": "bytes32",
          "name": "",
          "type": "bytes32"
        }
      ],
      "stateMutability": "view",
      "type": "function"
    },
    {
      "inputs": [],
      "name": "DEFAULT_ADMIN_ROLE",
      "outputs": [
        {
          "internalType": "bytes32",
          "name": "",
          "type": "bytes32"
        }
      ],
      "stateMutability": "view",
      "type": "function"
    },
    {
      "inputs": [],
      "name": "FUNDS_MANAGER_ROLE",
      "outputs": [
        {
          "internalType": "bytes32",
          "name": "",
          "type": "bytes32"
        }
      ],
      "stateMutability": "view",
      "type": "function"
    },
    {
      "inputs": [],
      "name": "GRANTS_MANAGER_ROLE",
      "outputs": [
        {
          "internalType": "bytes32",
          "name": "",
          "type": "bytes32"
        }
      ],
      "stateMutability": "view",
      "type": "function"
    },
    {
      "inputs": [],
      "name": "READ_STUDENT_LIST_ROLE",
      "outputs": [
        {
          "internalType": "bytes32",
          "name": "",
          "type": "bytes32"
        }
      ],
      "stateMutability": "view",
      "type": "function"
    },
    {
      "inputs": [],
      "name": "REGISTERED_SUPPLIER_ROLE",
      "outputs": [
        {
          "internalType": "bytes32",
          "name": "",
          "type": "bytes32"
        }
      ],
      "stateMutability": "view",
      "type": "function"
    },
    {
      "inputs": [],
      "name": "STUDENT_IDENTITY_ROLE",
      "outputs": [
        {
          "internalType": "bytes32",
          "name": "",
          "type": "bytes32"
        }
      ],
      "stateMutability": "view",
      "type": "function"
    },
    {
      "inputs": [],
      "name": "UNIVERSITY_OVERSEER_ROLE",
      "outputs": [
        {
          "internalType": "bytes32",
          "name": "",
          "type": "bytes32"
        }
      ],
      "stateMutability": "view",
      "type": "function"
    },
    {
      "inputs": [
        {
          "internalType": "uint256",
          "name": "",
          "type": "uint256"
        }
      ],
      "name": "_classList",
      "outputs": [
        {
          "internalType": "address",
          "name": "",
          "type": "address"
        }
      ],
      "stateMutability": "view",
      "type": "function"
    },
    {
      "inputs": [],
      "name": "_msgSenderGSN",
      "outputs": [
        {
          "internalType": "address",
          "name": "",
          "type": "address"
        }
      ],
      "stateMutability": "view",
      "type": "function"
    },
    {
      "inputs": [],
      "name": "_uniswapRouter",
      "outputs": [
        {
          "internalType": "contract IUniswapV2Router01",
          "name": "",
          "type": "address"
        }
      ],
      "stateMutability": "view",
      "type": "function"
    },
    {
      "inputs": [],
      "name": "cDAI",
      "outputs": [
        {
          "internalType": "contract CERC20",
          "name": "",
          "type": "address"
        }
      ],
      "stateMutability": "view",
      "type": "function"
    },
    {
      "inputs": [],
      "name": "comptroller",
      "outputs": [
        {
          "internalType": "contract IComptroller",
          "name": "",
          "type": "address"
        }
      ],
      "stateMutability": "view",
      "type": "function"
    },
    {
      "inputs": [],
      "name": "cut",
      "outputs": [
        {
          "internalType": "uint24",
          "name": "",
          "type": "uint24"
        }
      ],
      "stateMutability": "view",
      "type": "function"
    },
    {
      "inputs": [],
      "name": "daiToken",
      "outputs": [
        {
          "internalType": "contract IERC20",
          "name": "",
          "type": "address"
        }
      ],
      "stateMutability": "view",
      "type": "function"
    },
    {
      "inputs": [],
      "name": "donationsReceived",
      "outputs": [
        {
          "internalType": "uint256",
          "name": "",
          "type": "uint256"
        }
      ],
      "stateMutability": "view",
      "type": "function"
    },
    {
      "inputs": [
        {
          "internalType": "address",
          "name": "",
          "type": "address"
        }
      ],
      "name": "donators",
      "outputs": [
        {
          "internalType": "uint256",
          "name": "",
          "type": "uint256"
        }
      ],
      "stateMutability": "view",
      "type": "function"
    },
    {
      "inputs": [],
      "name": "endowmentLocked",
      "outputs": [
        {
          "internalType": "uint256",
          "name": "",
          "type": "uint256"
        }
      ],
      "stateMutability": "view",
      "type": "function"
    },
    {
      "inputs": [
        {
          "internalType": "bytes32",
          "name": "role",
          "type": "bytes32"
        }
      ],
      "name": "getRoleAdmin",
      "outputs": [
        {
          "internalType": "bytes32",
          "name": "",
          "type": "bytes32"
        }
      ],
      "stateMutability": "view",
      "type": "function"
    },
    {
      "inputs": [
        {
          "internalType": "bytes32",
          "name": "role",
          "type": "bytes32"
        },
        {
          "internalType": "uint256",
          "name": "index",
          "type": "uint256"
        }
      ],
      "name": "getRoleMember",
      "outputs": [
        {
          "internalType": "address",
          "name": "",
          "type": "address"
        }
      ],
      "stateMutability": "view",
      "type": "function"
    },
    {
      "inputs": [
        {
          "internalType": "bytes32",
          "name": "role",
          "type": "bytes32"
        }
      ],
      "name": "getRoleMemberCount",
      "outputs": [
        {
          "internalType": "uint256",
          "name": "",
          "type": "uint256"
        }
      ],
      "stateMutability": "view",
      "type": "function"
    },
    {
      "inputs": [],
      "name": "getTrustedForwarder",
      "outputs": [
        {
          "internalType": "address",
          "name": "",
          "type": "address"
        }
      ],
      "stateMutability": "view",
      "type": "function"
    },
    {
      "inputs": [
        {
          "internalType": "bytes32",
          "name": "role",
          "type": "bytes32"
        },
        {
          "internalType": "address",
          "name": "account",
          "type": "address"
        }
      ],
      "name": "grantRole",
      "outputs": [],
      "stateMutability": "nonpayable",
      "type": "function"
    },
    {
      "inputs": [
        {
          "internalType": "bytes32",
          "name": "role",
          "type": "bytes32"
        },
        {
          "internalType": "address",
          "name": "account",
          "type": "address"
        }
      ],
      "name": "hasRole",
      "outputs": [
        {
          "internalType": "bool",
          "name": "",
          "type": "bool"
        }
      ],
      "stateMutability": "view",
      "type": "function"
    },
    {
      "inputs": [],
      "name": "name",
      "outputs": [
        {
          "internalType": "bytes32",
          "name": "",
          "type": "bytes32"
        }
      ],
      "stateMutability": "view",
      "type": "function"
    },
    {
      "inputs": [],
      "name": "operationalBudget",
      "outputs": [
        {
          "internalType": "uint256",
          "name": "",
          "type": "uint256"
        }
      ],
      "stateMutability": "view",
      "type": "function"
    },
    {
      "inputs": [],
      "name": "owner",
      "outputs": [
        {
          "internalType": "address",
          "name": "",
          "type": "address"
        }
      ],
      "stateMutability": "view",
      "type": "function"
    },
    {
      "inputs": [],
      "name": "priceOracle",
      "outputs": [
        {
          "internalType": "contract IPriceOracle",
          "name": "",
          "type": "address"
        }
      ],
      "stateMutability": "view",
      "type": "function"
    },
    {
      "inputs": [],
      "name": "relayHub",
      "outputs": [
        {
          "internalType": "contract IRelayHub",
          "name": "",
          "type": "address"
        }
      ],
      "stateMutability": "view",
      "type": "function"
    },
    {
      "inputs": [],
      "name": "renounceOwnership",
      "outputs": [],
      "stateMutability": "nonpayable",
      "type": "function"
    },
    {
      "inputs": [
        {
          "internalType": "bytes32",
          "name": "role",
          "type": "bytes32"
        },
        {
          "internalType": "address",
          "name": "account",
          "type": "address"
        }
      ],
      "name": "renounceRole",
      "outputs": [],
      "stateMutability": "nonpayable",
      "type": "function"
    },
    {
      "inputs": [],
      "name": "returnsReceived",
      "outputs": [
        {
          "internalType": "uint256",
          "name": "",
          "type": "uint256"
        }
      ],
      "stateMutability": "view",
      "type": "function"
    },
    {
      "inputs": [],
      "name": "revenueReceived",
      "outputs": [
        {
          "internalType": "uint256",
          "name": "",
          "type": "uint256"
        }
      ],
      "stateMutability": "view",
      "type": "function"
    },
    {
      "inputs": [
        {
          "internalType": "bytes32",
          "name": "role",
          "type": "bytes32"
        },
        {
          "internalType": "address",
          "name": "account",
          "type": "address"
        }
      ],
      "name": "revokeRole",
      "outputs": [],
      "stateMutability": "nonpayable",
      "type": "function"
    },
    {
      "inputs": [
        {
          "internalType": "address",
          "name": "newOwner",
          "type": "address"
        }
      ],
      "name": "transferOwnership",
      "outputs": [],
      "stateMutability": "nonpayable",
      "type": "function"
    },
    {
      "stateMutability": "payable",
      "type": "receive"
    },
    {
      "inputs": [
        {
          "internalType": "address",
          "name": "compoundDAIAddress",
          "type": "address"
        },
        {
          "internalType": "address",
          "name": "comptrollerAddress",
          "type": "address"
        },
        {
          "internalType": "address",
          "name": "priceOracleAddress",
          "type": "address"
        }
      ],
      "name": "configureCompound",
      "outputs": [],
      "stateMutability": "nonpayable",
      "type": "function"
    },
    {
      "inputs": [
        {
          "internalType": "address",
          "name": "uniswapWETH",
          "type": "address"
        },
        {
          "internalType": "address",
          "name": "uniswapDAI",
          "type": "address"
        },
        {
          "internalType": "address",
          "name": "uniswapRouter",
          "type": "address"
        }
      ],
      "name": "configureUniswap",
      "outputs": [],
      "stateMutability": "nonpayable",
      "type": "function"
    },
    {
      "inputs": [
        {
          "internalType": "address",
          "name": "lendingPoolAddressesProvider",
          "type": "address"
        }
      ],
      "name": "configureAave",
      "outputs": [],
      "stateMutability": "nonpayable",
      "type": "function"
    },
    {
      "inputs": [
        {
          "internalType": "bytes32",
          "name": "val",
          "type": "bytes32"
        }
      ],
      "name": "changeName",
      "outputs": [],
      "stateMutability": "nonpayable",
      "type": "function"
    },
    {
      "inputs": [
        {
          "internalType": "uint24",
          "name": "val",
          "type": "uint24"
        }
      ],
      "name": "changeCut",
      "outputs": [],
      "stateMutability": "nonpayable",
      "type": "function"
    },
    {
      "inputs": [
        {
          "internalType": "uint256",
          "name": "val",
          "type": "uint256"
        }
      ],
      "name": "changeStudentGSNDeposit",
      "outputs": [],
      "stateMutability": "nonpayable",
      "type": "function"
    },
    {
      "inputs": [],
      "name": "availableFunds",
      "outputs": [
        {
          "internalType": "uint256",
          "name": "",
          "type": "uint256"
        }
      ],
      "stateMutability": "view",
      "type": "function"
    },
    {
      "inputs": [
        {
          "internalType": "address",
          "name": "classroom",
          "type": "address"
        }
      ],
      "name": "isValidClassroom",
      "outputs": [
        {
          "internalType": "bool",
          "name": "",
          "type": "bool"
        }
      ],
      "stateMutability": "view",
      "type": "function"
    },
    {
      "inputs": [
        {
          "internalType": "address",
          "name": "student",
          "type": "address"
        }
      ],
      "name": "studentIsRegistered",
      "outputs": [
        {
          "internalType": "bool",
          "name": "",
          "type": "bool"
        }
      ],
      "stateMutability": "view",
      "type": "function"
    },
    {
      "inputs": [],
      "name": "viewMyApplications",
      "outputs": [
        {
          "internalType": "address[]",
          "name": "",
          "type": "address[]"
        }
      ],
      "stateMutability": "view",
      "type": "function"
    },
    {
      "inputs": [
        {
          "internalType": "address",
          "name": "addr",
          "type": "address"
        }
      ],
      "name": "viewStudentApplications",
      "outputs": [
        {
          "internalType": "address[]",
          "name": "",
          "type": "address[]"
        }
      ],
      "stateMutability": "view",
      "type": "function"
    },
    {
      "inputs": [
        {
          "internalType": "bytes32",
          "name": "sName",
          "type": "bytes32"
        }
      ],
      "name": "studentSelfRegisterGSN",
      "outputs": [
        {
          "internalType": "address",
          "name": "",
          "type": "address"
        }
      ],
      "stateMutability": "nonpayable",
      "type": "function"
    },
    {
      "inputs": [
        {
          "internalType": "bytes32",
          "name": "sName",
          "type": "bytes32"
        }
      ],
      "name": "studentSelfRegister",
      "outputs": [
        {
          "internalType": "address",
          "name": "",
          "type": "address"
        }
      ],
      "stateMutability": "nonpayable",
      "type": "function"
    },
    {
      "inputs": [
        {
          "internalType": "address",
          "name": "owner",
          "type": "address"
        },
        {
          "internalType": "bytes32",
          "name": "cName",
          "type": "bytes32"
        },
        {
          "internalType": "uint24",
          "name": "cCut",
          "type": "uint24"
        },
        {
          "internalType": "uint24",
          "name": "cPCut",
          "type": "uint24"
        },
        {
          "internalType": "int32",
          "name": "minScore",
          "type": "int32"
        },
        {
          "internalType": "uint256",
          "name": "entryPrice",
          "type": "uint256"
        },
        {
          "internalType": "uint256",
          "name": "duration",
          "type": "uint256"
        },
        {
          "internalType": "address",
          "name": "challengeAddress",
          "type": "address"
        }
      ],
      "name": "newClassRoom",
      "outputs": [
        {
          "internalType": "address",
          "name": "",
          "type": "address"
        }
      ],
      "stateMutability": "nonpayable",
      "type": "function"
    },
    {
      "inputs": [
        {
          "internalType": "address",
          "name": "applicationAddr",
          "type": "address"
        },
        {
          "internalType": "bytes32",
          "name": "cName",
          "type": "bytes32"
        },
        {
          "internalType": "uint24",
          "name": "cCut",
          "type": "uint24"
        },
        {
          "internalType": "uint24",
          "name": "cPCut",
          "type": "uint24"
        },
        {
          "internalType": "int32",
          "name": "minScore",
          "type": "int32"
        },
        {
          "internalType": "uint256",
          "name": "entryPrice",
          "type": "uint256"
        },
        {
          "internalType": "uint256",
          "name": "duration",
          "type": "uint256"
        },
        {
          "internalType": "address",
          "name": "challenge",
          "type": "address"
        }
      ],
      "name": "studentRequestClassroom",
      "outputs": [
        {
          "internalType": "address",
          "name": "",
          "type": "address"
        }
      ],
      "stateMutability": "nonpayable",
      "type": "function"
    },
    {
      "inputs": [
        {
          "internalType": "address",
          "name": "student",
          "type": "address"
        },
        {
          "internalType": "address",
          "name": "application",
          "type": "address"
        }
      ],
      "name": "registerStudentApplication",
      "outputs": [],
      "stateMutability": "nonpayable",
      "type": "function"
    },
    {
      "inputs": [
        {
          "internalType": "address",
          "name": "student",
          "type": "address"
        },
        {
          "internalType": "int32",
          "name": "val",
          "type": "int32"
        }
      ],
      "name": "addStudentScore",
      "outputs": [],
      "stateMutability": "nonpayable",
      "type": "function"
    },
    {
      "inputs": [
        {
          "internalType": "address",
          "name": "student",
          "type": "address"
        },
        {
          "internalType": "int32",
          "name": "val",
          "type": "int32"
        }
      ],
      "name": "subStudentScore",
      "outputs": [],
      "stateMutability": "nonpayable",
      "type": "function"
    },
    {
      "inputs": [
        {
          "internalType": "uint256",
          "name": "val",
          "type": "uint256"
        }
      ],
      "name": "applyFundsCompound",
      "outputs": [],
      "stateMutability": "nonpayable",
      "type": "function"
    },
    {
      "inputs": [
        {
          "internalType": "uint256",
          "name": "val",
          "type": "uint256"
        }
      ],
      "name": "recoverFundsCompound",
      "outputs": [],
      "stateMutability": "nonpayable",
      "type": "function"
    },
    {
      "inputs": [
        {
          "internalType": "uint256",
          "name": "val",
          "type": "uint256"
        }
      ],
      "name": "applyFundsAave",
      "outputs": [],
      "stateMutability": "nonpayable",
      "type": "function"
    },
    {
      "inputs": [
        {
          "internalType": "uint256",
          "name": "val",
          "type": "uint256"
        }
      ],
      "name": "recoverFundsAave",
      "outputs": [],
      "stateMutability": "nonpayable",
      "type": "function"
    },
    {
      "inputs": [
        {
          "internalType": "bool",
          "name": "state",
          "type": "bool"
        }
      ],
      "name": "setAaveMarketCollateralForDAI",
      "outputs": [],
      "stateMutability": "nonpayable",
      "type": "function"
    },
    {
      "inputs": [
        {
          "internalType": "address",
          "name": "token",
          "type": "address"
        },
        {
          "internalType": "bool",
          "name": "state",
          "type": "bool"
        }
      ],
      "name": "setAaveMarketCollateral",
      "outputs": [],
      "stateMutability": "nonpayable",
      "type": "function"
    },
    {
      "inputs": [],
      "name": "enterCompoundDAIMarket",
      "outputs": [],
      "stateMutability": "nonpayable",
      "type": "function"
    },
    {
      "inputs": [
        {
          "internalType": "address",
          "name": "token",
          "type": "address"
        }
      ],
      "name": "enterCompoundMarket",
      "outputs": [],
      "stateMutability": "nonpayable",
      "type": "function"
    },
    {
      "inputs": [],
      "name": "exitCompoundDAIMarket",
      "outputs": [],
      "stateMutability": "nonpayable",
      "type": "function"
    },
    {
      "inputs": [
        {
          "internalType": "address",
          "name": "token",
          "type": "address"
        }
      ],
      "name": "exitCompoundMarket",
      "outputs": [],
      "stateMutability": "nonpayable",
      "type": "function"
    },
    {
      "inputs": [],
      "name": "getCompoundLiquidityAndShortfall",
      "outputs": [
        {
          "internalType": "uint256",
          "name": "",
          "type": "uint256"
        },
        {
          "internalType": "uint256",
          "name": "",
          "type": "uint256"
        }
      ],
      "stateMutability": "view",
      "type": "function"
    },
    {
      "inputs": [
        {
          "internalType": "address",
          "name": "cToken",
          "type": "address"
        }
      ],
      "name": "getCompoundPriceInWEI",
      "outputs": [
        {
          "internalType": "uint256",
          "name": "",
          "type": "uint256"
        }
      ],
      "stateMutability": "view",
      "type": "function"
    },
    {
      "inputs": [
        {
          "internalType": "address",
          "name": "cToken",
          "type": "address"
        }
      ],
      "name": "getCompoundMaxBorrowInWEI",
      "outputs": [
        {
          "internalType": "uint256",
          "name": "",
          "type": "uint256"
        }
      ],
      "stateMutability": "view",
      "type": "function"
    },
    {
      "inputs": [
        {
          "internalType": "address",
          "name": "cToken",
          "type": "address"
        },
        {
          "internalType": "uint256",
          "name": "val",
          "type": "uint256"
        }
      ],
      "name": "compoundBorrow",
      "outputs": [],
      "stateMutability": "nonpayable",
      "type": "function"
    },
    {
      "inputs": [
        {
          "internalType": "address",
          "name": "cToken",
          "type": "address"
        }
      ],
      "name": "compoundGetBorrow",
      "outputs": [
        {
          "internalType": "uint256",
          "name": "",
          "type": "uint256"
        }
      ],
      "stateMutability": "view",
      "type": "function"
    },
    {
      "inputs": [
        {
          "internalType": "address",
          "name": "token",
          "type": "address"
        },
        {
          "internalType": "address",
          "name": "cToken",
          "type": "address"
        },
        {
          "internalType": "uint256",
          "name": "val",
          "type": "uint256"
        }
      ],
      "name": "compoundRepayBorrow",
      "outputs": [],
      "stateMutability": "nonpayable",
      "type": "function"
    },
    {
      "inputs": [
        {
          "internalType": "address",
          "name": "token",
          "type": "address"
        },
        {
          "internalType": "uint256",
          "name": "val",
          "type": "uint256"
        },
        {
          "internalType": "bool",
          "name": "variableRate",
          "type": "bool"
        }
      ],
      "name": "aaveGetBorrow",
      "outputs": [],
      "stateMutability": "nonpayable",
      "type": "function"
    },
    {
      "inputs": [
        {
          "internalType": "address",
          "name": "token",
          "type": "address"
        },
        {
          "internalType": "uint256",
          "name": "val",
          "type": "uint256"
        }
      ],
      "name": "aaveRepayBorrow",
      "outputs": [],
      "stateMutability": "nonpayable",
      "type": "function"
    },
    {
      "inputs": [
        {
          "internalType": "address",
          "name": "token",
          "type": "address"
        }
      ],
      "name": "aaveSwapBorrowRateMode",
      "outputs": [],
      "stateMutability": "nonpayable",
      "type": "function"
    },
    {
      "inputs": [
        {
          "internalType": "uint256",
          "name": "val",
          "type": "uint256"
        }
      ],
      "name": "increaseOperationalBudget",
      "outputs": [],
      "stateMutability": "nonpayable",
      "type": "function"
    },
    {
      "inputs": [
        {
          "internalType": "address",
          "name": "to",
          "type": "address"
        },
        {
          "internalType": "uint256",
          "name": "val",
          "type": "uint256"
        }
      ],
      "name": "spendBudget",
      "outputs": [],
      "stateMutability": "nonpayable",
      "type": "function"
    },
    {
      "inputs": [
        {
          "internalType": "address",
          "name": "studentApplication",
          "type": "address"
        },
        {
          "internalType": "uint256",
          "name": "price",
          "type": "uint256"
        }
      ],
      "name": "giveGrant",
      "outputs": [],
      "stateMutability": "nonpayable",
      "type": "function"
    },
    {
      "inputs": [
        {
          "internalType": "uint256",
          "name": "val",
          "type": "uint256"
        }
      ],
      "name": "reinvestReturns",
      "outputs": [],
      "stateMutability": "nonpayable",
      "type": "function"
    },
    {
      "inputs": [
        {
          "internalType": "address",
          "name": "grantsManager",
          "type": "address"
        }
      ],
      "name": "viewAllStudentsFromGrantManager",
      "outputs": [
        {
          "internalType": "address[]",
          "name": "",
          "type": "address[]"
        }
      ],
      "stateMutability": "nonpayable",
      "type": "function"
    },
    {
      "inputs": [
        {
          "internalType": "address",
          "name": "student",
          "type": "address"
        },
        {
          "internalType": "address",
          "name": "grantsManager",
          "type": "address"
        }
      ],
      "name": "viewAllStudentGrantsFromGrantManager",
      "outputs": [
        {
          "internalType": "uint256[]",
          "name": "",
          "type": "uint256[]"
        }
      ],
      "stateMutability": "nonpayable",
      "type": "function"
    },
    {
      "inputs": [
        {
          "components": [
            {
              "internalType": "address",
              "name": "target",
              "type": "address"
            },
            {
              "internalType": "bytes",
              "name": "encodedFunction",
              "type": "bytes"
            },
            {
              "components": [
                {
                  "internalType": "uint256",
                  "name": "gasLimit",
                  "type": "uint256"
                },
                {
                  "internalType": "uint256",
                  "name": "gasPrice",
                  "type": "uint256"
                },
                {
                  "internalType": "uint256",
                  "name": "pctRelayFee",
                  "type": "uint256"
                },
                {
                  "internalType": "uint256",
                  "name": "baseRelayFee",
                  "type": "uint256"
                }
              ],
              "internalType": "struct GSNTypes.GasData",
              "name": "gasData",
              "type": "tuple"
            },
            {
              "components": [
                {
                  "internalType": "address",
                  "name": "senderAddress",
                  "type": "address"
                },
                {
                  "internalType": "uint256",
                  "name": "senderNonce",
                  "type": "uint256"
                },
                {
                  "internalType": "address",
                  "name": "relayWorker",
                  "type": "address"
                },
                {
                  "internalType": "address",
                  "name": "paymaster",
                  "type": "address"
                }
              ],
              "internalType": "struct GSNTypes.RelayData",
              "name": "relayData",
              "type": "tuple"
            }
          ],
          "internalType": "struct GSNTypes.RelayRequest",
          "name": "relayRequest",
          "type": "tuple"
        },
        {
          "internalType": "bytes",
          "name": "",
          "type": "bytes"
        },
        {
          "internalType": "uint256",
          "name": "",
          "type": "uint256"
        }
      ],
      "name": "acceptRelayedCall",
      "outputs": [
        {
          "internalType": "bytes",
          "name": "context",
          "type": "bytes"
        }
      ],
      "stateMutability": "pure",
      "type": "function"
    },
    {
      "inputs": [
        {
          "internalType": "uint256",
          "name": "val",
          "type": "uint256"
        }
      ],
      "name": "refillUniversityRelayer",
      "outputs": [],
      "stateMutability": "nonpayable",
      "type": "function"
    },
    {
      "inputs": [
        {
          "internalType": "uint256",
          "name": "amount",
          "type": "uint256"
        },
        {
          "internalType": "uint256",
          "name": "deadline",
          "type": "uint256"
        }
      ],
      "name": "swapDAI_ETH",
      "outputs": [
        {
          "internalType": "uint256[]",
          "name": "amounts",
          "type": "uint256[]"
        }
      ],
      "stateMutability": "nonpayable",
      "type": "function"
    },
    {
      "inputs": [
        {
          "internalType": "uint256",
          "name": "amount",
          "type": "uint256"
        },
        {
          "internalType": "uint256",
          "name": "deadline",
          "type": "uint256"
        }
      ],
      "name": "swapETH_DAI",
      "outputs": [
        {
          "internalType": "uint256[]",
          "name": "amounts",
          "type": "uint256[]"
        }
      ],
      "stateMutability": "nonpayable",
      "type": "function"
    },
    {
      "inputs": [
        {
          "internalType": "uint256",
          "name": "donation",
          "type": "uint256"
        }
      ],
      "name": "donateETH",
      "outputs": [],
      "stateMutability": "payable",
      "type": "function"
    },
    {
      "inputs": [
        {
          "internalType": "uint256",
          "name": "donation",
          "type": "uint256"
        }
      ],
      "name": "donateDAI",
      "outputs": [],
      "stateMutability": "nonpayable",
      "type": "function"
    },
    {
      "inputs": [
        {
          "internalType": "uint256",
          "name": "revenue",
          "type": "uint256"
        }
      ],
      "name": "accountRevenue",
      "outputs": [],
      "stateMutability": "nonpayable",
      "type": "function"
    }
  ],
  "bytecode": "0x60806040523480156200001157600080fd5b5060405162005a4538038062005a4583398101604081905262000034916200036c565b6000620000496001600160e01b036200017316565b600080546001600160a01b0319166001600160a01b0383169081178255604051929350917f8be0079c531659141344cd1fd0a4f28419497f9722a3daafe3b4186f6b6457e0908290a35060038890556004805462ffffff191662ffffff89161790556005869055620000cf6000620000c062000173565b6001600160e01b036200017716565b6200010c604051620000e1906200040f565b604051908190039020620000fd6001600160e01b036200017316565b6001600160e01b036200019016565b601980546001600160a01b03199081166001600160a01b0397881617909155601a8054821695871695909517909455601b8054851693861693909317909255601c80548416918516919091179055601d805490921692169190911790555062000487915050565b3390565b6200018c82826001600160e01b03620001f116565b5050565b600082815260016020526040902060020154620001c990620001ba6001600160e01b036200017316565b6001600160e01b036200027516565b620001775760405162461bcd60e51b8152600401620001e89062000438565b60405180910390fd5b60008281526001602090815260409091206200021891839062003ebd620002a4821b17901c565b156200018c57620002316001600160e01b036200017316565b6001600160a01b0316816001600160a01b0316837f2f8788117e7eff1d82e926ec794901d17c78024a50270940304540a733656f0d60405160405180910390a45050565b600082815260016020908152604082206200029b91849062003bef620002c4821b17901c565b90505b92915050565b60006200029b836001600160a01b0384166001600160e01b03620002e416565b60006200029b836001600160a01b0384166001600160e01b036200033c16565b6000620002fb83836001600160e01b036200033c16565b62000333575081546001818101845560008481526020808220909301849055845484825282860190935260409020919091556200029e565b5060006200029e565b60009081526001919091016020526040902054151590565b80516001600160a01b03811681146200029e57600080fd5b600080600080600080600080610100898b03121562000389578384fd5b88519750602089015162ffffff81168114620003a3578485fd5b60408a01519097509550620003bc8a60608b0162000354565b9450620003cd8a60808b0162000354565b9350620003de8a60a08b0162000354565b9250620003ef8a60c08b0162000354565b9150620004008a60e08b0162000354565b90509295985092959890939650565b7f524541445f53545544454e545f4c4953545f524f4c4500000000000000000000815260160190565b6020808252602f908201527f416363657373436f6e74726f6c3a2073656e646572206d75737420626520616e60408201526e0818591b5a5b881d1bc819dc985b9d608a1b606082015260800190565b6155ae80620004976000396000f3fe6080604052600436106105b95760003560e01c806385dade61116102eb578063c2b94cd81161018f578063db85d2a4116100e1578063ef5450ba11610095578063f686484a1161006f578063f686484a14610f70578063fa8e506014610f90578063ff5d8f6314610fb0576105f9565b8063ef5450ba14610f1b578063f2fde38b14610f3b578063f676f43d14610f5b576105f9565b8063e37dd980116100c6578063e37dd98014610eb9578063e6fd604c14610ed9578063e770d7d414610efb576105f9565b8063db85d2a414610e79578063e1ba859714610e99576105f9565b8063cb0ce41711610143578063d24f8cdd1161011d578063d24f8cdd14610e19578063d3c5704e14610e39578063d547741f14610e59576105f9565b8063cb0ce41714610dc4578063cb4e560114610de4578063ce1b815f14610e04576105f9565b8063c4707a8311610174578063c4707a8314610d6f578063c799f5e214610d84578063ca15c87314610da4576105f9565b8063c2b94cd814610d2f578063c45e108a14610d4f576105f9565b80639e93d0e411610248578063ab83f98a116101fc578063bb9f7b5c116101d6578063bb9f7b5c14610ce5578063be22f54614610d05578063be61437914610d1a576105f9565b8063ab83f98a14610c85578063adcceca414610c98578063b1ed031f14610cb8576105f9565b8063a217fddf1161022d578063a217fddf14610c30578063a544594e14610c45578063a9edd44514610c65576105f9565b80639e93d0e414610bfb5780639fd6cb7a14610c1b576105f9565b80638ff2f7621161029f57806391d148541161028457806391d1485414610ba65780639b5dbe7814610bc65780639e1fcfde14610be6576105f9565b80638ff2f76214610b665780639010d07c14610b86576105f9565b8063898855ed116102d0578063898855ed14610b1c5780638a9f5b7f14610b3c5780638da5cb5b14610b51576105f9565b806385dade6114610adc57806387bfe18814610afc576105f9565b80633dc3214b1161045d5780636408a386116103af578063715018a61161036357806380359c841161033d57806380359c8414610a875780638038090614610aa7578063820cd75c14610ac7576105f9565b8063715018a614610a3257806379b4acff14610a475780637fd5c10814610a67576105f9565b806365b61b771161039457806365b61b77146109f35780636beb0c0314610a085780636f6941b914610a1d576105f9565b80636408a386146109c957806364d47731146109de576105f9565b806351275dba116104115780635caa8e2d116103eb5780635caa8e2d1461098a5780635fe3b5671461099f578063629bca67146109b4576105f9565b806351275dba146109355780635a7dd1501461094a5780635b8f96de1461096a576105f9565b8063478ecefb11610442578063478ecefb146108c85780634884da05146108e85780634ea962c114610915576105f9565b80633dc3214b1461089357806346fcff4c146108b3576105f9565b8063238aaf2f116105165780632f2ff15d116104ca5780633593aad6116104a45780633593aad61461083357806336568abe14610853578063377ef77f14610873576105f9565b80632f2ff15d146107de57806331eeae25146107fe57806332636ac91461081e576105f9565b80632630c12f116104fb5780632630c12f1461079257806328475518146107b4578063289c5e54146107c9576105f9565b8063238aaf2f14610745578063248a9ca314610772576105f9565b80631749201c1161056d578063183b260011610552578063183b2600146106f05780631ec1f9f31461071057806321ae321114610725576105f9565b80631749201c146106bb57806317b1a4cf146106db576105f9565b8063139de7311161059e578063139de7311461064c57806314a2a3071461066e57806316ded1ce1461068e576105f9565b806306fdde03146105fe57806308186df914610629576105f9565b366105f9577f60e4c1ac84c9e2c4c0aa82b86b3b1ddf0b1b73fbbeb74c8bc8f8f06041ccfdf633346040516105ef92919061478b565b60405180910390a1005b600080fd5b34801561060a57600080fd5b50610613610fd0565b60405161062091906148d6565b60405180910390f35b34801561063557600080fd5b5061063e610fd6565b604051610620929190615486565b34801561065857600080fd5b5061066c610667366004614191565b6110eb565b005b34801561067a57600080fd5b5061066c610689366004614097565b611197565b34801561069a57600080fd5b506106ae6106a9366004614097565b611240565b60405161062091906148cb565b3480156106c757600080fd5b506106136106d6366004614097565b611290565b3480156106e757600080fd5b50610613611337565b3480156106fc57600080fd5b5061066c61070b3660046140cf565b61133d565b34801561071c57600080fd5b506106136113a6565b34801561073157600080fd5b5061066c610740366004614281565b6113ac565b34801561075157600080fd5b506107656107603660046140cf565b611473565b6040516106209190614887565b34801561077e57600080fd5b5061061361078d366004614442565b61153b565b34801561079e57600080fd5b506107a7611550565b6040516106209190614777565b3480156107c057600080fd5b506107a761155f565b3480156107d557600080fd5b506107a761156e565b3480156107ea57600080fd5b5061066c6107f936600461445a565b6115f1565b34801561080a57600080fd5b5061066c610819366004614097565b611639565b34801561082a57600080fd5b50610613611720565b34801561083f57600080fd5b5061066c61084e366004614442565b611737565b34801561085f57600080fd5b5061066c61086e36600461445a565b6117bd565b34801561087f57600080fd5b5061066c61088e366004614442565b6117ff565b34801561089f57600080fd5b506107656108ae36600461447e565b6118c5565b3480156108bf57600080fd5b50610613611938565b3480156108d457600080fd5b5061066c6108e3366004614442565b611a14565b3480156108f457600080fd5b50610908610903366004614097565b611ab4565b6040516106209190614874565b34801561092157600080fd5b506107a76109303660046141be565b611b58565b34801561094157600080fd5b50610613611ba2565b34801561095657600080fd5b506107a7610965366004614442565b611ba8565b34801561097657600080fd5b5061066c610985366004614107565b611bbb565b34801561099657600080fd5b5061066c611c2f565b3480156109ab57600080fd5b506107a7611c46565b3480156109c057600080fd5b50610613611c55565b3480156109d557600080fd5b50610908611c61565b3480156109ea57600080fd5b50610613611c73565b3480156109ff57600080fd5b506107a7611c7f565b348015610a1457600080fd5b50610613611c8e565b348015610a2957600080fd5b506107a7611c94565b348015610a3e57600080fd5b5061066c611ca3565b348015610a5357600080fd5b5061066c610a6236600461440a565b611d22565b348015610a7357600080fd5b506107a7610a823660046141be565b611d3b565b348015610a9357600080fd5b5061066c610aa2366004614151565b611ebf565b348015610ab357600080fd5b5061066c610ac2366004614442565b61202e565b348015610ad357600080fd5b506106136120bf565b348015610ae857600080fd5b506106ae610af7366004614097565b6120cb565b348015610b0857600080fd5b5061066c610b1736600461424e565b6120dc565b348015610b2857600080fd5b5061066c610b37366004614442565b61214c565b348015610b4857600080fd5b506106136121c1565b348015610b5d57600080fd5b506107a76121cd565b348015610b7257600080fd5b506107a7610b81366004614442565b6121dc565b348015610b9257600080fd5b506107a7610ba136600461447e565b61225b565b348015610bb257600080fd5b506106ae610bc136600461445a565b612279565b348015610bd257600080fd5b5061066c610be1366004614442565b612297565b348015610bf257600080fd5b5061066c612331565b348015610c0757600080fd5b5061066c610c16366004614442565b612346565b348015610c2757600080fd5b506106136123a1565b348015610c3c57600080fd5b506106136123ad565b348015610c5157600080fd5b5061066c610c60366004614442565b6123b2565b348015610c7157600080fd5b5061066c610c80366004614097565b612436565b61066c610c93366004614442565b612578565b348015610ca457600080fd5b50610613610cb3366004614097565b6125f9565b348015610cc457600080fd5b50610cd8610cd336600461449f565b6126bb565b6040516106209190614961565b348015610cf157600080fd5b5061066c610d00366004614281565b6127a0565b348015610d1157600080fd5b506107a7612944565b348015610d2657600080fd5b50610613612953565b348015610d3b57600080fd5b5061066c610d4a366004614281565b61295f565b348015610d5b57600080fd5b5061066c610d6a366004614107565b6129ec565b348015610d7b57600080fd5b50610613612a60565b348015610d9057600080fd5b5061066c610d9f366004614097565b612a6c565b348015610db057600080fd5b50610613610dbf366004614442565b612ccc565b348015610dd057600080fd5b50610765610ddf36600461447e565b612ce3565b348015610df057600080fd5b5061066c610dff366004614281565b612d56565b348015610e1057600080fd5b506107a7612e9d565b348015610e2557600080fd5b50610613610e34366004614097565b612eac565b348015610e4557600080fd5b50610908610e54366004614097565b612ebe565b348015610e6557600080fd5b5061066c610e7436600461445a565b612f81565b348015610e8557600080fd5b5061066c610e943660046142ac565b612fbb565b348015610ea557600080fd5b50610613610eb4366004614097565b613080565b348015610ec557600080fd5b506107a7610ed4366004614442565b6130b1565b348015610ee557600080fd5b50610eee6130d8565b604051610620919061543a565b348015610f0757600080fd5b5061066c610f1636600461453c565b6130e3565b348015610f2757600080fd5b5061066c610f36366004614442565b613161565b348015610f4757600080fd5b5061066c610f56366004614097565b61319b565b348015610f6757600080fd5b50610613613251565b348015610f7c57600080fd5b5061066c610f8b366004614442565b613257565b348015610f9c57600080fd5b5061066c610fab366004614442565b6132cb565b348015610fbc57600080fd5b5061066c610fcb36600461424e565b61331f565b60035481565b600080610ff8604051610fe8906146d3565b6040518091039020610bc161338f565b61101d5760405162461bcd60e51b815260040161101490614b8a565b60405180910390fd5b6013546040517f5ec88c79000000000000000000000000000000000000000000000000000000008152600091829182916001600160a01b031690635ec88c799061106b903090600401614777565b60606040518083038186803b15801561108357600080fd5b505afa158015611097573d6000803e3d6000fd5b505050506040513d601f19601f820116820180604052508101906110bb9190614577565b925092509250826000146110e15760405162461bcd60e51b815260040161101490614d0d565b9093509150509091565b6110fa604051610fe8906146d3565b6111165760405162461bcd60e51b815260040161101490614b8a565b6016546040517f5a3b74b90000000000000000000000000000000000000000000000000000000081526001600160a01b0390911690635a3b74b99061116190859085906004016147c8565b600060405180830381600087803b15801561117b57600080fd5b505af115801561118f573d6000803e3d6000fd5b505050505050565b6111a6604051610fe8906146d3565b6111c25760405162461bcd60e51b815260040161101490614b8a565b6016546040517f48ca13000000000000000000000000000000000000000000000000000000000081526001600160a01b03909116906348ca13009061120b908490600401614777565b600060405180830381600087803b15801561122557600080fd5b505af1158015611239573d6000803e3d6000fd5b5050505050565b6000611251604051610fe89061462f565b61126d5760405162461bcd60e51b815260040161101490614ad0565b61128a60405161127c90614658565b604051809103902083612279565b92915050565b60008061129b610fd6565b5060145460405163fc57d4df60e01b8152919250611330916001600160a01b039091169063fc57d4df906112d3908790600401614777565b60206040518083038186803b1580156112eb57600080fd5b505afa1580156112ff573d6000803e3d6000fd5b505050506040513d601f19601f82011682018060405250810190611323919061455f565b829063ffffffff61339316565b9392505050565b600e5481565b61134c604051610fe890614681565b6113685760405162461bcd60e51b815260040161101490614f72565b6001600160a01b0391821660009081526008602090815260408220805460018101825590835291200180546001600160a01b03191691909216179055565b600d5481565b6113bb604051610fe8906146d3565b6113d75760405162461bcd60e51b815260040161101490614b8a565b6040517fc5ebeaec0000000000000000000000000000000000000000000000000000000081526001600160a01b0383169063c5ebeaec9061141c9084906004016148d6565b602060405180830381600087803b15801561143657600080fd5b505af115801561144a573d6000803e3d6000fd5b505050506040513d601f19601f8201168201806040525081019061146e919061455f565b505050565b6060611484604051610fe89061474e565b6114a05760405162461bcd60e51b815260040161101490615178565b6040517fe60d0f4a0000000000000000000000000000000000000000000000000000000081526001600160a01b0383169063e60d0f4a906114e5908690600401614777565b600060405180830381600087803b1580156114ff57600080fd5b505af1158015611513573d6000803e3d6000fd5b505050506040513d6000823e601f3d908101601f191682016040526113309190810190614383565b60009081526001602052604090206002015490565b6014546001600160a01b031681565b601a546001600160a01b031681565b6000601836108015906115995750611584612e9d565b6001600160a01b0316336001600160a01b0316145b156115eb576115e46000368080601f01602080910402602001604051908101604052809392919081815260200183838082843760009201919091525050601319360191506133d59050565b90506115ee565b50335b90565b60008281526001602052604090206002015461160f90610bc161338f565b61162b5760405162461bcd60e51b815260040161101490614a16565b61163582826133e6565b5050565b611648604051610fe8906146d3565b6116645760405162461bcd60e51b815260040161101490614b8a565b6013546040517fede4edd00000000000000000000000000000000000000000000000000000000081526000916001600160a01b03169063ede4edd0906116ae908590600401614777565b602060405180830381600087803b1580156116c857600080fd5b505af11580156116dc573d6000803e3d6000fd5b505050506040513d601f19601f82011682018060405250810190611700919061455f565b905080156116355760405162461bcd60e51b815260040161101490614fcf565b60405161172c90614658565b604051809103902081565b61173f61338f565b6000546001600160a01b0390811691161461176c5760405162461bcd60e51b815260040161101490615089565b80600d54101561178e5760405162461bcd60e51b815260040161101490614be7565b600e546117a1908263ffffffff61345516565b600e55600d546117b7908263ffffffff61347a16565b600d5550565b6117c561338f565b6001600160a01b0316816001600160a01b0316146117f55760405162461bcd60e51b8152600401611014906153dd565b61163582826134bc565b61180e604051610fe8906146d3565b61182a5760405162461bcd60e51b815260040161101490614b8a565b6012546040517f852a12e30000000000000000000000000000000000000000000000000000000081526001600160a01b039091169063852a12e3906118739084906004016148d6565b602060405180830381600087803b15801561188d57600080fd5b505af11580156118a1573d6000803e3d6000fd5b505050506040513d601f19601f82011682018060405250810190611635919061455f565b60606118d6604051610fe8906146d3565b6118f25760405162461bcd60e51b815260040161101490614b8a565b600f546001600160a01b031661191a5760405162461bcd60e51b815260040161101490615349565b600f54601054611330916001600160a01b039081169116858561352b565b6019546040516370a0823160e01b815260009182916001600160a01b03909116906370a082319061196d903090600401614777565b60206040518083038186803b15801561198557600080fd5b505afa158015611999573d6000803e3d6000fd5b505050506040513d601f19601f820116820180604052508101906119bd919061455f565b90506119d6600e54600d5461345590919063ffffffff16565b8110156119e75760009150506115ee565b611a0e600e54611a02600d548461347a90919063ffffffff16565b9063ffffffff61347a16565b91505090565b611a23604051610fe8906146d3565b80611a4d5750611a316121cd565b6001600160a01b0316611a4261338f565b6001600160a01b0316145b611a695760405162461bcd60e51b815260040161101490614b8a565b601a5460405163aa67c91960e01b81526001600160a01b039091169063aa67c919908390611a9b903090600401614777565b6000604051808303818588803b15801561117b57600080fd5b6060611ac5604051610fe89061474e565b611ae15760405162461bcd60e51b815260040161101490615178565b816001600160a01b03166369e7af436040518163ffffffff1660e01b8152600401600060405180830381600087803b158015611b1c57600080fd5b505af1158015611b30573d6000803e3d6000fd5b505050506040513d6000823e601f3d908101601f1916820160405261128a91908101906142e2565b6000611b69604051610fe8906146aa565b611b855760405162461bcd60e51b815260040161101490614dfe565b611b958989898989898989613661565b9998505050505050505050565b600c5481565b600061128a82611bb661338f565b613885565b611bc361338f565b6000546001600160a01b03908116911614611bf05760405162461bcd60e51b815260040161101490615089565b600f80546001600160a01b039485166001600160a01b031991821617909155601080549385169382169390931790925560118054919093169116179055565b601254611c44906001600160a01b0316612436565b565b6013546001600160a01b031681565b60405161172c906146fc565b6060611c6e610e5461338f565b905090565b60405161172c90614725565b6011546001600160a01b031681565b600b5481565b6012546001600160a01b031681565b611cab61338f565b6000546001600160a01b03908116911614611cd85760405162461bcd60e51b815260040161101490615089565b600080546040516001600160a01b03909116907f8be0079c531659141344cd1fd0a4f28419497f9722a3daafe3b4186f6b6457e0908390a3600080546001600160a01b0319169055565b601954611d38906001600160a01b0316826110eb565b50565b6000611d4c604051610fe890614658565b611d685760405162461bcd60e51b815260040161101490614eb8565b611d79611d7361338f565b8a613a78565b611d955760405162461bcd60e51b815260040161101490614d6a565b6000899050806001600160a01b0316636587b61e6040518163ffffffff1660e01b815260040160206040518083038186803b158015611dd357600080fd5b505afa158015611de7573d6000803e3d6000fd5b505050506040513d601f19601f82011682018060405250810190611e0b919061455f565b600314611e2a5760405162461bcd60e51b81526004016110149061528f565b611eb1611e3561338f565b6001600160a01b0316637a6c8b536040518163ffffffff1660e01b815260040160206040518083038186803b158015611e6d57600080fd5b505afa158015611e81573d6000803e3d6000fd5b505050506040513d601f19601f82011682018060405250810190611ea591906140b3565b8a8a8a8a8a8a8a613661565b9a9950505050505050505050565b611ece604051610fe8906146d3565b611eea5760405162461bcd60e51b815260040161101490614b8a565b6040516370a0823160e01b815281906001600160a01b038516906370a0823190611f18903090600401614777565b60206040518083038186803b158015611f3057600080fd5b505afa158015611f44573d6000803e3d6000fd5b505050506040513d601f19601f82011682018060405250810190611f68919061455f565b1015611f865760405162461bcd60e51b815260040161101490614e5b565b611f91838383613afc565b6040517f0e7527020000000000000000000000000000000000000000000000000000000081526001600160a01b03831690630e75270290611fd69084906004016148d6565b602060405180830381600087803b158015611ff057600080fd5b505af1158015612004573d6000803e3d6000fd5b505050506040513d601f19601f82011682018060405250810190612028919061455f565b50505050565b61203d604051610fe8906146d3565b6120595760405162461bcd60e51b815260040161101490614b8a565b601954601254612076916001600160a01b03908116911683613afc565b6012546040517fa0712d680000000000000000000000000000000000000000000000000000000081526001600160a01b039091169063a0712d68906118739084906004016148d6565b60405161172c906146aa565b600061128a60405161127c90614681565b6120eb604051610fe890614681565b6121075760405162461bcd60e51b815260040161101490614f72565b6040517faa4f38c70000000000000000000000000000000000000000000000000000000081526001600160a01b0383169063aa4f38c790611161908490600401614974565b61215461338f565b6000546001600160a01b039081169116146121815760405162461bcd60e51b815260040161101490615089565b60038190556040517f9f8929be552430dd6434c446d106c34954b2040ca8c4dbf42a39323dd6cda3ca906121b69083906148d6565b60405180910390a150565b60405161172c90614681565b6000546001600160a01b031690565b6000806121eb83611bb661156e565b601a5460055460405163aa67c91960e01b81529293506001600160a01b039091169163aa67c9199190612222908590600401614777565b6000604051808303818588803b15801561223b57600080fd5b505af115801561224f573d6000803e3d6000fd5b50939695505050505050565b6000828152600160205260408120611330908363ffffffff613be316565b6000828152600160205260408120611330908363ffffffff613bef16565b6122a6604051610fe8906146d3565b6122c25760405162461bcd60e51b815260040161101490614b8a565b6019546017546122df916001600160a01b03908116911683613afc565b6016546019546040517fd2d0e0660000000000000000000000000000000000000000000000000000000081526001600160a01b039283169263d2d0e0669261120b929116908590600090600401614822565b601254611c44906001600160a01b0316611639565b612355604051610fe8906146d3565b6123715760405162461bcd60e51b815260040161101490614b8a565b8061237a611938565b10156123985760405162461bcd60e51b815260040161101490614c79565b611d3881613c04565b60405161172c9061462f565b600081565b6019546123d1906001600160a01b03166123ca61338f565b3084613c58565b61240781600960006123e161338f565b6001600160a01b031681526020810191909152604001600020549063ffffffff61345516565b6009600061241361338f565b6001600160a01b03168152602081019190915260400160002055611d3881613d41565b612445604051610fe8906146d3565b6124615760405162461bcd60e51b815260040161101490614b8a565b60408051600180825281830190925260609160208083019080368337019050509050818160008151811061249157fe5b6001600160a01b0392831660209182029290920101526013546040517fc2998238000000000000000000000000000000000000000000000000000000008152606092919091169063c2998238906124ec908590600401614874565b600060405180830381600087803b15801561250657600080fd5b505af115801561251a573d6000803e3d6000fd5b505050506040513d6000823e601f3d908101601f191682016040526125429190810190614383565b90508060008151811061255157fe5b602002602001015160001461146e5760405162461bcd60e51b8152600401611014906151d5565b60606125868261a8c06118c5565b90506125ac8160018151811061259857fe5b6020026020010151600960006123e161338f565b600960006125b861338f565b6001600160a01b03166001600160a01b0316815260200190815260200160002081905550611635816001815181106125ec57fe5b6020026020010151613d41565b600061260a604051610fe8906146d3565b6126265760405162461bcd60e51b815260040161101490614b8a565b6040517f17bfdfbc0000000000000000000000000000000000000000000000000000000081526001600160a01b038316906317bfdfbc9061266b903090600401614777565b60206040518083038186803b15801561268357600080fd5b505afa158015612697573d6000803e3d6000fd5b505050506040513d601f19601f8201168201806040525081019061128a919061455f565b60607f8ff2f762000000000000000000000000000000000000000000000000000000006127286126ee6020880188615494565b8080601f01602080910402602001604051908101604052809392919081815260200183838082843760009201829052509250613d6a915050565b7fffffffff0000000000000000000000000000000000000000000000000000000016146127675760405162461bcd60e51b815260040161101490615232565b6127746020860186614097565b60006040516020016127879291906147e3565b6040516020818303038152906040529050949350505050565b6127af604051610fe8906146d3565b6127cb5760405162461bcd60e51b815260040161101490614b8a565b6040516370a0823160e01b815281906001600160a01b038416906370a08231906127f9903090600401614777565b60206040518083038186803b15801561281157600080fd5b505afa158015612825573d6000803e3d6000fd5b505050506040513d601f19601f82011682018060405250810190612849919061455f565b10156128675760405162461bcd60e51b815260040161101490614e5b565b6128f782601560009054906101000a90046001600160a01b03166001600160a01b031663ed6ff7606040518163ffffffff1660e01b815260040160206040518083038186803b1580156128b957600080fd5b505afa1580156128cd573d6000803e3d6000fd5b505050506040513d601f19601f820116820180604052508101906128f191906140b3565b83613afc565b6016546040517f5ceae9c40000000000000000000000000000000000000000000000000000000081526001600160a01b0390911690635ceae9c490611161908590859030906004016147ff565b6019546001600160a01b031681565b60405161172c9061474e565b61296e604051610fe890614725565b61298a5760405162461bcd60e51b81526004016110149061511b565b80612993611938565b10156129b15760405162461bcd60e51b815260040161101490614c79565b816001600160a01b0316632d24947b6040518163ffffffff1660e01b8152600401600060405180830381600087803b15801561117b57600080fd5b6129f461338f565b6000546001600160a01b03908116911614612a215760405162461bcd60e51b815260040161101490615089565b601280546001600160a01b039485166001600160a01b031991821617909155601380549385169382169390931790925560148054919093169116179055565b60405161172c906146d3565b612a7461338f565b6000546001600160a01b03908116911614612aa15760405162461bcd60e51b815260040161101490615089565b601580546001600160a01b0319166001600160a01b038381169190911791829055604080517f0261bf8b00000000000000000000000000000000000000000000000000000000815290519290911691630261bf8b91600480820192602092909190829003018186803b158015612b1657600080fd5b505afa158015612b2a573d6000803e3d6000fd5b505050506040513d601f19601f82011682018060405250810190612b4e91906140b3565b601680546001600160a01b0319166001600160a01b03928316179055601554604080517fed6ff7600000000000000000000000000000000000000000000000000000000081529051919092169163ed6ff760916004808301926020929190829003018186803b158015612bc057600080fd5b505afa158015612bd4573d6000803e3d6000fd5b505050506040513d601f19601f82011682018060405250810190612bf891906140b3565b601780546001600160a01b0319166001600160a01b0392831617908190556019546040517f34b3beee000000000000000000000000000000000000000000000000000000008152918316926334b3beee92612c599290911690600401614777565b60206040518083038186803b158015612c7157600080fd5b505afa158015612c85573d6000803e3d6000fd5b505050506040513d601f19601f82011682018060405250810190612ca991906140b3565b601880546001600160a01b0319166001600160a01b039290921691909117905550565b600081815260016020526040812061128a90613d94565b6060612cf4604051610fe8906146d3565b612d105760405162461bcd60e51b815260040161101490614b8a565b600f546001600160a01b0316612d385760405162461bcd60e51b815260040161101490615349565b601054600f54611330916001600160a01b039081169116858561352b565b612d65604051610fe8906146d3565b612d815760405162461bcd60e51b815260040161101490614b8a565b612d9060405161127c906146fc565b612dac5760405162461bcd60e51b8152600401611014906152ec565b80600e541015612dce5760405162461bcd60e51b8152600401611014906150be565b6019546040516370a0823160e01b815282916001600160a01b0316906370a0823190612dfe903090600401614777565b60206040518083038186803b158015612e1657600080fd5b505afa158015612e2a573d6000803e3d6000fd5b505050506040513d601f19601f82011682018060405250810190612e4e919061455f565b1015612e6c5760405162461bcd60e51b815260040161101490614a73565b601954612e83906001600160a01b03168383613d9f565b600e54612e96908263ffffffff61347a16565b600e555050565b6002546001600160a01b031690565b60096020526000908152604090205481565b6060612ec861338f565b6001600160a01b0316826001600160a01b03161480612ef15750612ef1604051610fe890614725565b612f0d5760405162461bcd60e51b815260040161101490614f15565b6001600160a01b03821660009081526008602090815260409182902080548351818402810184019094528084529091830182828015612f7557602002820191906000526020600020905b81546001600160a01b03168152600190910190602001808311612f57575b50505050509050919050565b600082815260016020526040902060020154612f9f90610bc161338f565b6117f55760405162461bcd60e51b81526004016110149061502c565b612fca604051610fe8906146d3565b612fe65760405162461bcd60e51b815260040161101490614b8a565b600081612ff4576001612ff7565b60025b6016546040517fc858f5f90000000000000000000000000000000000000000000000000000000081529192506001600160a01b03169063c858f5f99061304890879087908690600090600401614847565b600060405180830381600087803b15801561306257600080fd5b505af1158015613076573d6000803e3d6000fd5b5050505050505050565b60145460405163fc57d4df60e01b81526000916001600160a01b03169063fc57d4df9061266b908590600401614777565b600681815481106130be57fe5b6000918252602090912001546001600160a01b0316905081565b60045462ffffff1681565b6130eb61338f565b6000546001600160a01b039081169116146131185760405162461bcd60e51b815260040161101490615089565b6004805462ffffff191662ffffff83811691909117918290556040517f1add5f7de244142e10bca375bb84823e3c24ddac2c2ec678f35c007d8f02084d926121b692169061543a565b61316961338f565b6000546001600160a01b039081169116146131965760405162461bcd60e51b815260040161101490615089565b600555565b6131a361338f565b6000546001600160a01b039081169116146131d05760405162461bcd60e51b815260040161101490615089565b6001600160a01b0381166131f65760405162461bcd60e51b815260040161101490614b2d565b600080546040516001600160a01b03808516939216917f8be0079c531659141344cd1fd0a4f28419497f9722a3daafe3b4186f6b6457e091a3600080546001600160a01b0319166001600160a01b0392909216919091179055565b600a5481565b613266604051610fe8906146d3565b6132825760405162461bcd60e51b815260040161101490614b8a565b6018546040517fdb006a750000000000000000000000000000000000000000000000000000000081526001600160a01b039091169063db006a759061120b9084906004016148d6565b6132da604051610fe890614681565b6132f65760405162461bcd60e51b815260040161101490614f72565b600b54613309908263ffffffff61345516565b600b55600d546117b7908263ffffffff61345516565b61332e604051610fe890614681565b61334a5760405162461bcd60e51b815260040161101490614f72565b6040517f686513500000000000000000000000000000000000000000000000000000000081526001600160a01b03831690636865135090611161908490600401614974565b3390565b600061133083836040518060400160405280601a81526020017f536166654d6174683a206469766973696f6e206279207a65726f000000000000815250613e86565b01601401516001600160a01b031690565b6000828152600160205260409020613404908263ffffffff613ebd16565b156116355761341161338f565b6001600160a01b0316816001600160a01b0316837f2f8788117e7eff1d82e926ec794901d17c78024a50270940304540a733656f0d60405160405180910390a45050565b6000828201838110156113305760405162461bcd60e51b815260040161101490614cd6565b600061133083836040518060400160405280601e81526020017f536166654d6174683a207375627472616374696f6e206f766572666c6f770000815250613ed2565b60008281526001602052604090206134da908263ffffffff613efe16565b15611635576134e761338f565b6001600160a01b0316816001600160a01b0316837ff6391f5c32d9c69d2a47ea670b442974b53935d1edc7fd64eb21e047a839171b60405160405180910390a45050565b6011546060906135469086906001600160a01b031685613afc565b6040805160028082526060808301845292602083019080368337019050509050858160008151811061357457fe5b60200260200101906001600160a01b031690816001600160a01b03168152505084816001815181106135a257fe5b6001600160a01b0392831660209182029290920101526011546040517f38ed17390000000000000000000000000000000000000000000000000000000081529116906338ed173990613601908790600090869030908a9060040161544a565b600060405180830381600087803b15801561361b57600080fd5b505af115801561362f573d6000803e3d6000fd5b505050506040513d6000823e601f3d908101601f191682016040526136579190810190614383565b9695505050505050565b600080601b60009054906101000a90046001600160a01b03166001600160a01b031663f9a84f968a8a8a8a8a8a308b601960009054906101000a90046001600160a01b0316601260009054906101000a90046001600160a01b0316601d60009054906101000a90046001600160a01b03166040518c63ffffffff1660e01b81526004016136f89b9a999897969594939291906148f6565b602060405180830381600087803b15801561371257600080fd5b505af1158015613726573d6000803e3d6000fd5b505050506040513d601f19601f8201168201806040525081019061374a91906140b3565b6040517f18b9533b0000000000000000000000000000000000000000000000000000000081529091506001600160a01b038216906318b9533b90613792908d90600401614777565b600060405180830381600087803b1580156137ac57600080fd5b505af11580156137c0573d6000803e3d6000fd5b5050600680546001810182556000919091527ff652222313e28459528d920b65115c16c04f3efc82aaedc97be59f3f377c0d3f0180546001600160a01b0319166001600160a01b0385161790555050604051819061382f906138219061462f565b6040518091039020826115f1565b61383e60405161382190614681565b7f0e2441b756c0237af490768eeb52214bde66464d79756f8ac3c03b10c9528b3c8a8260405161386f9291906148df565b60405180910390a19a9950505050505050505050565b60006008600061389361156e565b6001600160a01b03168152602081019190915260400160002054156138ca5760405162461bcd60e51b815260040161101490614c1c565b6001600160a01b038083166000908152600860209081526040808320805460018101825590845291832090910180546001600160a01b0319169055601c5490517f8ebf1d2700000000000000000000000000000000000000000000000000000000815291921690638ebf1d279061394790879030906004016148df565b602060405180830381600087803b15801561396157600080fd5b505af1158015613975573d6000803e3d6000fd5b505050506040513d601f19601f8201168201806040525081019061399991906140b3565b6040517f18a9e9480000000000000000000000000000000000000000000000000000000081529091506001600160a01b038216906318a9e948906139e1908690600401614777565b600060405180830381600087803b1580156139fb57600080fd5b505af1158015613a0f573d6000803e3d6000fd5b5050600780546001810182556000919091527fa66cc928b5edb82af9bd49922954155ab7b0942694bea4ce44661d9a8736c6880180546001600160a01b0319166001600160a01b03851617905550506040518190613a709061382190614658565b949350505050565b6000805b6001600160a01b038416600090815260086020526040902054811015613af2576001600160a01b03848116600090815260086020526040902080549185169183908110613ac557fe5b6000918252602090912001546001600160a01b03161415613aea57600191505061128a565b600101613a7c565b5060009392505050565b60006060846001600160a01b031663095ea7b38585604051602401613b2292919061478b565b6040516020818303038152906040529060e01b6020820180516001600160e01b038381831617835250505050604051613b5b9190614613565b6000604051808303816000865af19150503d8060008114613b98576040519150601f19603f3d011682016040523d82523d6000602084013e613b9d565b606091505b5091509150818015613bc7575080511580613bc7575080806020019051810190613bc79190614426565b6112395760405162461bcd60e51b815260040161101490614dc7565b60006113308383613f13565b6000611330836001600160a01b038416613f58565b613c13604051610fe890614681565b613c2f5760405162461bcd60e51b815260040161101490614f72565b600b54613c42908263ffffffff61345516565b600c55600d546117b7908263ffffffff61345516565b60006060856001600160a01b03166323b872dd868686604051602401613c80939291906147a4565b6040516020818303038152906040529060e01b6020820180516001600160e01b038381831617835250505050604051613cb99190614613565b6000604051808303816000865af19150503d8060008114613cf6576040519150601f19603f3d011682016040523d82523d6000602084013e613cfb565b606091505b5091509150818015613d25575080511580613d25575080806020019051810190613d259190614426565b61118f5760405162461bcd60e51b815260040161101490615380565b600a54613d54908263ffffffff61345516565b600a55600d546117b7908263ffffffff61345516565b01602001517fffffffff000000000000000000000000000000000000000000000000000000001690565b600061128a82613f70565b60006060846001600160a01b031663a9059cbb8585604051602401613dc592919061478b565b6040516020818303038152906040529060e01b6020820180516001600160e01b038381831617835250505050604051613dfe9190614613565b6000604051808303816000865af19150503d8060008114613e3b576040519150601f19603f3d011682016040523d82523d6000602084013e613e40565b606091505b5091509150818015613e6a575080511580613e6a575080806020019051810190613e6a9190614426565b6112395760405162461bcd60e51b8152600401611014906149df565b60008183613ea75760405162461bcd60e51b81526004016110149190614961565b506000838581613eb357fe5b0495945050505050565b6000611330836001600160a01b038416613f74565b60008184841115613ef65760405162461bcd60e51b81526004016110149190614961565b505050900390565b6000611330836001600160a01b038416613fbe565b81546000908210613f365760405162461bcd60e51b815260040161101490614982565b826000018281548110613f4557fe5b9060005260206000200154905092915050565b60009081526001919091016020526040902054151590565b5490565b6000613f808383613f58565b613fb65750815460018181018455600084815260208082209093018490558454848252828601909352604090209190915561128a565b50600061128a565b6000818152600183016020526040812054801561407a5783546000198083019190810190600090879083908110613ff157fe5b906000526020600020015490508087600001848154811061400e57fe5b60009182526020808320909101929092558281526001898101909252604090209084019055865487908061403e57fe5b6001900381819060005260206000200160009055905586600101600087815260200190815260200160002060009055600194505050505061128a565b600091505061128a565b803562ffffff8116811461128a57600080fd5b6000602082840312156140a8578081fd5b813561133081615555565b6000602082840312156140c4578081fd5b815161133081615555565b600080604083850312156140e1578081fd5b82356140ec81615555565b915060208301356140fc81615555565b809150509250929050565b60008060006060848603121561411b578081fd5b833561412681615555565b9250602084013561413681615555565b9150604084013561414681615555565b809150509250925092565b600080600060608486031215614165578283fd5b833561417081615555565b9250602084013561418081615555565b929592945050506040919091013590565b600080604083850312156141a3578182fd5b82356141ae81615555565b915060208301356140fc8161556a565b600080600080600080600080610100898b0312156141da578384fd5b88356141e581615555565b9750602089013596506141fb8a60408b01614084565b955061420a8a60608b01614084565b945060808901358060030b811461421f578485fd5b935060a0890135925060c0890135915060e089013561423d81615555565b809150509295985092959890939650565b60008060408385031215614260578182fd5b823561426b81615555565b91506020830135600381900b81146140fc578182fd5b60008060408385031215614293578182fd5b823561429e81615555565b946020939093013593505050565b6000806000606084860312156142c0578081fd5b83356142cb81615555565b92506020840135915060408401356141468161556a565b600060208083850312156142f4578182fd5b825167ffffffffffffffff81111561430a578283fd5b80840185601f82011261431b578384fd5b8051915061433061432b83615509565b6154e2565b828152838101908285018585028401860189101561434c578687fd5b8693505b8484101561437757805161436381615555565b835260019390930192918501918501614350565b50979650505050505050565b60006020808385031215614395578182fd5b825167ffffffffffffffff8111156143ab578283fd5b80840185601f8201126143bc578384fd5b805191506143cc61432b83615509565b82815283810190828501858502840186018910156143e8578687fd5b8693505b848410156143775780518352600193909301929185019185016143ec565b60006020828403121561441b578081fd5b81356113308161556a565b600060208284031215614437578081fd5b81516113308161556a565b600060208284031215614453578081fd5b5035919050565b6000806040838503121561446c578182fd5b8235915060208301356140fc81615555565b60008060408385031215614490578182fd5b50508035926020909101359150565b600080600080606085870312156144b4578182fd5b843567ffffffffffffffff808211156144cb578384fd5b818701610140818a0312156144de578485fd5b955060208701359150808211156144f3578384fd5b81870188601f820112614504578485fd5b8035925081831115614514578485fd5b886020848301011115614525578485fd5b959860209096019750909560400135949350505050565b60006020828403121561454d578081fd5b813562ffffff81168114611330578182fd5b600060208284031215614570578081fd5b5051919050565b60008060006060848603121561458b578081fd5b8351925060208401519150604084015190509250925092565b6000815180845260208085019450808401835b838110156145dc5781516001600160a01b0316875295820195908201906001016145b7565b509495945050505050565b600081518084526145ff816020860160208601615529565b601f01601f19169290920160200192915050565b60008251614625818460208701615529565b9190910192915050565b7f524541445f53545544454e545f4c4953545f524f4c4500000000000000000000815260160190565b7f53545544454e545f4944454e544954595f524f4c450000000000000000000000815260150190565b7f434c415353524f4f4d5f50524f464553534f525f524f4c450000000000000000815260180190565b7f434c4153534c4953545f41444d494e5f524f4c45000000000000000000000000815260140190565b7f46554e44535f4d414e414745525f524f4c450000000000000000000000000000815260120190565b7f524547495354455245445f535550504c4945525f524f4c450000000000000000815260180190565b7f4752414e54535f4d414e414745525f524f4c4500000000000000000000000000815260130190565b7f554e49564552534954595f4f564552534545525f524f4c450000000000000000815260180190565b6001600160a01b0391909116815260200190565b6001600160a01b03929092168252602082015260400190565b6001600160a01b039384168152919092166020820152604081019190915260600190565b6001600160a01b039290921682521515602082015260400190565b6001600160a01b0392909216825260ff16602082015260400190565b6001600160a01b0393841681526020810192909252909116604082015260600190565b6001600160a01b03939093168352602083019190915261ffff16604082015260600190565b6001600160a01b03949094168452602084019290925260ff16604083015261ffff16606082015260800190565b60006020825261133060208301846145a4565b6020808252825182820181905260009190848201906040850190845b818110156148bf578351835292840192918401916001016148a3565b50909695505050505050565b901515815260200190565b90815260200190565b9182526001600160a01b0316602082015260400190565b9a8b5262ffffff998a1660208c01529790981660408a015260039590950b6060890152608088019390935260a08701919091526001600160a01b0390811660c087015290811660e0860152908116610100850152918216610120840152166101408201526101600190565b60006020825261133060208301846145e7565b60039190910b815260200190565b60208082526022908201527f456e756d657261626c655365743a20696e646578206f7574206f6620626f756e60408201527f6473000000000000000000000000000000000000000000000000000000000000606082015260800190565b6020808252601f908201527f5472616e7366657248656c7065723a205452414e534645525f4641494c454400604082015260600190565b6020808252602f908201527f416363657373436f6e74726f6c3a2073656e646572206d75737420626520616e60408201527f2061646d696e20746f206772616e740000000000000000000000000000000000606082015260800190565b6020808252602a908201527f556e69766572736974793a206c697175696461746520736f6d6520706f73697460408201527f696f6e7320666972737400000000000000000000000000000000000000000000606082015260800190565b60208082526036908201527f556e69766572736974793a2063616c6c657220646f65736e277420686176652060408201527f524541445f53545544454e545f4c4953545f524f4c4500000000000000000000606082015260800190565b60208082526026908201527f4f776e61626c653a206e6577206f776e657220697320746865207a65726f206160408201527f6464726573730000000000000000000000000000000000000000000000000000606082015260800190565b60208082526032908201527f556e69766572736974793a2063616c6c657220646f65736e277420686176652060408201527f46554e44535f4d414e414745525f524f4c450000000000000000000000000000606082015260800190565b6020808252818101527f556e69766572736974793a206e6f7420656e6f75676820656e646f776d656e74604082015260600190565b60208082526026908201527f556e69766572736974793a2073747564656e7420616c7265616479207265676960408201527f7374657265640000000000000000000000000000000000000000000000000000606082015260800190565b60208082526026908201527f556e69766572736974793a206e6f7420656e6f75676820617661696c61626c6560408201527f2066756e64730000000000000000000000000000000000000000000000000000606082015260800190565b6020808252601b908201527f536166654d6174683a206164646974696f6e206f766572666c6f770000000000604082015260600190565b60208082526033908201527f556e69766572736974793a20436f6d7074726f6c6c65722e6765744163636f7560408201527f6e744c6971756964697479206661696c65642e00000000000000000000000000606082015260800190565b60208082526035908201527f556e69766572736974793a2063616c6c6572206973206e6f742073747564656e60408201527f74206f662074686973206170706c69636174696f6e0000000000000000000000606082015260800190565b6020808252601e908201527f5472616e7366657248656c7065723a20415050524f56455f4641494c45440000604082015260600190565b60208082526034908201527f556e69766572736974793a2063616c6c657220646f65736e277420686176652060408201527f434c4153534c4953545f41444d494e5f524f4c45000000000000000000000000606082015260800190565b6020808252602b908201527f556e69766572736974793a206e6f7420656e6f756768206f662074686973207460408201527f6f6b656e2073746f726564000000000000000000000000000000000000000000606082015260800190565b60208082526035908201527f556e69766572736974793a2063616c6c657220646f65736e277420686176652060408201527f53545544454e545f4944454e544954595f524f4c450000000000000000000000606082015260800190565b60208082526021908201527f436c617373726f6f6d3a2072656164207065726d697373696f6e2064656e696560408201527f6400000000000000000000000000000000000000000000000000000000000000606082015260800190565b60208082526038908201527f556e69766572736974793a2063616c6c657220646f65736e277420686176652060408201527f434c415353524f4f4d5f50524f464553534f525f524f4c450000000000000000606082015260800190565b6020808252602a908201527f556e69766572736974793a20436f6d7074726f6c6c65722e657869744d61726b60408201527f6574206661696c65642e00000000000000000000000000000000000000000000606082015260800190565b60208082526030908201527f416363657373436f6e74726f6c3a2073656e646572206d75737420626520616e60408201527f2061646d696e20746f207265766f6b6500000000000000000000000000000000606082015260800190565b6020808252818101527f4f776e61626c653a2063616c6c6572206973206e6f7420746865206f776e6572604082015260600190565b60208082526029908201527f556e69766572736974793a206e6f7420656e6f756768206f7065726174696f6e60408201527f616c206275646765740000000000000000000000000000000000000000000000606082015260800190565b60208082526033908201527f556e69766572736974793a2063616c6c657220646f65736e277420686176652060408201527f4752414e54535f4d414e414745525f524f4c4500000000000000000000000000606082015260800190565b60208082526038908201527f556e69766572736974793a2063616c6c657220646f65736e277420686176652060408201527f554e49564552534954595f4f564552534545525f524f4c450000000000000000606082015260800190565b6020808252602c908201527f556e69766572736974793a20436f6d7074726f6c6c65722e656e7465724d617260408201527f6b657473206661696c65642e0000000000000000000000000000000000000000606082015260800190565b6020808252602d908201527f556e69766572736974793a2047534e206e6f7420656e61626c656420666f722060408201527f746869732066756e6374696f6e00000000000000000000000000000000000000606082015260800190565b60208082526029908201527f556e69766572736974793a206170706c69636174696f6e206973206e6f74207360408201527f75636365737366756c0000000000000000000000000000000000000000000000606082015260800190565b6020808252603a908201527f556e69766572736974793a20726563656976657220646f65736e27742068617660408201527f6520524547495354455245445f535550504c4945525f524f4c45000000000000606082015260800190565b6020808252601f908201527f556e69766572736974793a20736574757020756e697377617020666972737400604082015260600190565b60208082526024908201527f5472616e7366657248656c7065723a205452414e534645525f46524f4d5f464160408201527f494c454400000000000000000000000000000000000000000000000000000000606082015260800190565b6020808252602f908201527f416363657373436f6e74726f6c3a2063616e206f6e6c792072656e6f756e636560408201527f20726f6c657320666f722073656c660000000000000000000000000000000000606082015260800190565b62ffffff91909116815260200190565b600086825285602083015260a0604083015261546960a08301866145a4565b6001600160a01b0394909416606083015250608001529392505050565b918252602082015260400190565b6000808335601e198436030181126154aa578283fd5b8084018035925067ffffffffffffffff8311156154c5578384fd5b602001925050368190038213156154db57600080fd5b9250929050565b60405181810167ffffffffffffffff8111828210171561550157600080fd5b604052919050565b600067ffffffffffffffff82111561551f578081fd5b5060209081020190565b60005b8381101561554457818101518382015260200161552c565b838111156120285750506000910152565b6001600160a01b0381168114611d3857600080fd5b8015158114611d3857600080fdfea2646970667358221220cd1412da7459c5f7fecd23e1448ae11422f14bae3916eec8c7b727e21c601be764736f6c63430006060033",
  "immutableReferences": {},
  "source": "pragma solidity 0.6.6;\r\npragma experimental ABIEncoderV2;\r\n\r\nimport \"@openzeppelin/contracts/math/SafeMath.sol\";\r\nimport \"@openzeppelin/contracts/access/AccessControl.sol\";\r\nimport \"@openzeppelin/contracts/access/Ownable.sol\";\r\nimport \"@openzeppelin/contracts/token/ERC20/IERC20.sol\";\r\nimport \"@openzeppelin/contracts/utils/Address.sol\";\r\nimport \"@uniswap/v2-periphery/contracts/interfaces/IUniswapV2Router01.sol\";\r\nimport \"@uniswap/lib/contracts/libraries/TransferHelper.sol\";\r\nimport \"./interface/Aave/aToken.sol\";\r\nimport \"./interface/Aave/ILendingPool.sol\";\r\nimport \"./interface/Aave/ILendingPoolAddressesProvider.sol\";\r\nimport \"./gambi/BaseRelayRecipient.sol\";\r\nimport \"./gambi/GSNTypes.sol\";\r\nimport \"./gambi/IRelayHub.sol\";\r\nimport \"./interface/IClassroom.sol\";\r\nimport \"./interface/IStudent.sol\";\r\nimport \"./interface/IStudentApplication.sol\";\r\nimport \"./interface/IClassroomFactory.sol\";\r\nimport \"./interface/IStudentFactory.sol\";\r\nimport \"./interface/IStudentApplicationFactory.sol\";\r\nimport \"./interface/IUniversity.sol\";\r\nimport \"./interface/IGrantsManager.sol\";\r\nimport \"./MyUtils.sol\";\r\n\r\n//TODO: Natspec Document ENVERYTHING\r\n//TODO: Sort function order from all contracts\r\n//TODO: Divide University in smaller contracts\r\n\r\ncontract University is Ownable, AccessControl, BaseRelayRecipient, IUniversity {\r\n    using SafeMath for uint256;\r\n\r\n    //CLASSLIST_ADMIN_ROLE can add new manually created classes to the list\r\n    bytes32 public constant CLASSLIST_ADMIN_ROLE = keccak256(\r\n        \"CLASSLIST_ADMIN_ROLE\"\r\n    );\r\n    // FUNDS_MANAGER_ROLE can withdraw funds from the contract\r\n    bytes32 public constant FUNDS_MANAGER_ROLE = keccak256(\r\n        \"FUNDS_MANAGER_ROLE\"\r\n    );\r\n    // GRANTS_MANAGER_ROLE can approve/decline grant claims\r\n    bytes32 public constant GRANTS_MANAGER_ROLE = keccak256(\r\n        \"GRANTS_MANAGER_ROLE\"\r\n    );\r\n    // READ_STUDENT_LIST_ROLE allow reading students list\r\n    bytes32 public constant READ_STUDENT_LIST_ROLE = keccak256(\r\n        \"READ_STUDENT_LIST_ROLE\"\r\n    );\r\n    /// STUDENT_IDENTITY_ROLE allow asking for grants and requesting a classroom from a successful application\r\n    bytes32 public constant STUDENT_IDENTITY_ROLE = keccak256(\r\n        \"STUDENT_IDENTITY_ROLE\"\r\n    );\r\n    /// CLASSROOM_PROFESSOR_ROLE can manage itself inside the University and registering student applications\r\n    bytes32 public constant CLASSROOM_PROFESSOR_ROLE = keccak256(\r\n        \"CLASSROOM_PROFESSOR_ROLE\"\r\n    );\r\n    /// UNIVERSITY_OVERSEER_ROLE can inspect Grant Managers and Fund Managers, and present cases for funders to vote upon\r\n    bytes32 public constant UNIVERSITY_OVERSEER_ROLE = keccak256(\r\n        \"UNIVERSITY_OVERSEER_ROLE\"\r\n    );/// REGISTERED_SUPPLIER_ROLE can receive transactions to consume the operational budget\r\n    bytes32 public constant REGISTERED_SUPPLIER_ROLE = keccak256(\r\n        \"REGISTERED_SUPPLIER_ROLE\"\r\n    );\r\n\r\n    // Parameter: Name of this University\r\n    bytes32 public override name;\r\n    // Parameter: University cut from professor (Parts per Million)\r\n    uint24 public override cut;\r\n    // Parameter: GSN funds to give students\r\n    uint256 _studentGSNDeposit;\r\n    // List of every registered classroom\r\n    address[] public _classList;\r\n    // List of every student\r\n    address[] _students;\r\n    // Mapping of each student's applications\r\n    mapping(address => address[]) _studentApplicationsMapping;\r\n    // Mapping of every donor and donations\r\n    mapping(address => uint256) public donators;\r\n    // Total amount of donations received so far\r\n    uint256 public donationsReceived;\r\n    // Total amount of operational revenue received so far\r\n    uint256 public revenueReceived;\r\n    // Total amount of financial returns received so far\r\n    uint256 public returnsReceived;\r\n    // Total amount of endowment locked in the fund\r\n    uint256 public endowmentLocked;\r\n    // Total amount of funds allowed for expenses\r\n    uint256 public operationalBudget;\r\n\r\n    //TODO: resolve students and classrooms addresses using ENS\r\n\r\n    //Uniswap Config\r\n    address _uniswapWETH;\r\n    address _uniswapDAI;\r\n    IUniswapV2Router01 public _uniswapRouter;\r\n\r\n    //Compound Config\r\n    CERC20 public cDAI;\r\n    IComptroller public comptroller;\r\n    IPriceOracle public priceOracle;\r\n\r\n    //Aave Config\r\n    ILendingPoolAddressesProvider _aaveProvider;\r\n    ILendingPool _aaveLendingPool;\r\n    address _aaveLendingPoolCore;\r\n    address _aTokenDAI;\r\n\r\n    //Tokens\r\n    IERC20 public daiToken;\r\n\r\n    //GSN\r\n    IRelayHub public relayHub;\r\n\r\n    //Factory\r\n    IClassroomFactory _classroomFactory;\r\n    IStudentFactory _studentFactory;\r\n    address _studentApplicationFactoryAddress;\r\n\r\n    constructor(\r\n        bytes32 _name,\r\n        uint24 _cut,\r\n        uint256 studentGSNDeposit,\r\n        address daiAddress,\r\n        address relayHubAddress,\r\n        address classroomFactoryAddress,\r\n        address studentFactoryAddress,\r\n        address studentApplicationFactoryAddress\r\n    ) public {\r\n        name = _name;\r\n        cut = _cut;\r\n        _studentGSNDeposit = studentGSNDeposit;\r\n        _setupRole(DEFAULT_ADMIN_ROLE, _msgSender());\r\n        grantRole(READ_STUDENT_LIST_ROLE, _msgSender());\r\n        daiToken = IERC20(daiAddress);\r\n        relayHub = IRelayHub(relayHubAddress);\r\n        _classroomFactory = IClassroomFactory(classroomFactoryAddress);\r\n        _studentFactory = IStudentFactory(studentFactoryAddress);\r\n        _studentApplicationFactoryAddress = studentApplicationFactoryAddress;\r\n    }\r\n\r\n    receive() external payable {\r\n        emit LogReceived(msg.sender, msg.value);\r\n    }\r\n\r\n    event LogNewClassroom(bytes32, address);\r\n    event LogChangeName(bytes32);\r\n    event LogChangeCut(uint24);\r\n    event LogReceived(address, uint256);\r\n\r\n    function configureCompound(\r\n        address compoundDAIAddress,\r\n        address comptrollerAddress,\r\n        address priceOracleAddress\r\n    ) public onlyOwner {\r\n        cDAI = CERC20(compoundDAIAddress);\r\n        comptroller = IComptroller(comptrollerAddress);\r\n        priceOracle = IPriceOracle(priceOracleAddress);\r\n    }\r\n\r\n    function configureUniswap(\r\n        address uniswapWETH,\r\n        address uniswapDAI,\r\n        address uniswapRouter\r\n    ) public onlyOwner {\r\n        _uniswapWETH = uniswapWETH;\r\n        _uniswapDAI = uniswapDAI;\r\n        _uniswapRouter = IUniswapV2Router01(uniswapRouter);\r\n    }\r\n\r\n    function configureAave(\r\n        address lendingPoolAddressesProvider\r\n    ) public onlyOwner {\r\n        _aaveProvider = ILendingPoolAddressesProvider(lendingPoolAddressesProvider);\r\n        _aaveLendingPool = ILendingPool(_aaveProvider.getLendingPool());\r\n        _aaveLendingPoolCore = _aaveProvider.getLendingPoolCore();\r\n        _aTokenDAI = ILendingPoolCore(_aaveLendingPoolCore)\r\n            .getReserveATokenAddress(address(daiToken));\r\n    }\r\n\r\n    function changeName(bytes32 val) public onlyOwner {\r\n        name = val;\r\n        emit LogChangeName(name);\r\n    }\r\n\r\n    function changeCut(uint24 val) public onlyOwner {\r\n        cut = val;\r\n        emit LogChangeCut(cut);\r\n    }\r\n\r\n    function changeStudentGSNDeposit(uint256 val) public onlyOwner {\r\n        _studentGSNDeposit = val;\r\n    }\r\n\r\n    function availableFunds() public view override returns (uint256) {\r\n        uint256 funds = daiToken.balanceOf(address(this));\r\n        if (funds < endowmentLocked.add(operationalBudget)) return 0;\r\n        return funds.sub(endowmentLocked).sub(operationalBudget);\r\n    }\r\n\r\n    function isValidClassroom(address classroom) public view override returns (bool) {\r\n        return hasRole(CLASSROOM_PROFESSOR_ROLE, classroom);\r\n    }\r\n\r\n    function studentIsRegistered(address student) public view override returns (bool) {\r\n        require(\r\n            hasRole(READ_STUDENT_LIST_ROLE, _msgSender()),\r\n            \"University: caller doesn't have READ_STUDENT_LIST_ROLE\"\r\n        );\r\n        return hasRole(STUDENT_IDENTITY_ROLE, student);\r\n    }\r\n\r\n    function viewMyApplications() public view override returns (address[] memory) {\r\n        return viewStudentApplications(_msgSender());\r\n    }\r\n\r\n    function viewStudentApplications(address addr)\r\n        public\r\n        view\r\n        override\r\n        returns (address[] memory)\r\n    {\r\n        require(\r\n            addr == _msgSender() || hasRole(GRANTS_MANAGER_ROLE, _msgSender()),\r\n            \"Classroom: read permission denied\"\r\n        );\r\n        return _studentApplicationsMapping[addr];\r\n    }\r\n\r\n    function studentSelfRegisterGSN(bytes32 sName) public returns (address) {\r\n        address student = _newStudent(sName, _msgSenderGSN());\r\n        relayHub.depositFor.value(_studentGSNDeposit)(student);\r\n        return student;\r\n    }\r\n\r\n    function studentSelfRegister(bytes32 sName) public returns (address) {\r\n        return _newStudent(sName, _msgSender());\r\n    }\r\n\r\n    function _newStudent(bytes32 sName, address caller)\r\n        internal\r\n        returns (address)\r\n    {\r\n        require(\r\n            _studentApplicationsMapping[_msgSenderGSN()].length == 0,\r\n            \"University: student already registered\"\r\n        );\r\n        //Gambiarra: Push address(0) in the mapping to mark that student as registered in the university\r\n        _studentApplicationsMapping[caller].push(address(0));\r\n        address student = _studentFactory.newStudent(sName, address(this));\r\n        IStudent(student).transferOwnershipStudent(caller);\r\n        address studentAddr = address(student);\r\n        _students.push(studentAddr);\r\n        grantRole(STUDENT_IDENTITY_ROLE, studentAddr);\r\n        return address(studentAddr);\r\n    }\r\n\r\n    function newClassRoom(\r\n        address owner,\r\n        bytes32 cName,\r\n        uint24 cCut,\r\n        uint24 cPCut,\r\n        int32 minScore,\r\n        uint256 entryPrice,\r\n        uint256 duration,\r\n        address challengeAddress\r\n    ) public returns (address) {\r\n        require(\r\n            hasRole(CLASSLIST_ADMIN_ROLE, _msgSender()),\r\n            \"University: caller doesn't have CLASSLIST_ADMIN_ROLE\"\r\n        );\r\n        return\r\n            _newClassRoom(\r\n                owner,\r\n                cName,\r\n                cCut,\r\n                cPCut,\r\n                minScore,\r\n                entryPrice,\r\n                duration,\r\n                challengeAddress\r\n            );\r\n    }\r\n\r\n    function _newClassRoom(\r\n        address owner,\r\n        bytes32 cName,\r\n        uint24 cCut,\r\n        uint24 cPCut,\r\n        int32 minScore,\r\n        uint256 entryPrice,\r\n        uint256 duration,\r\n        address challengeAddress\r\n    ) internal returns (address) {\r\n        address classroom = _classroomFactory.newClassroom(\r\n            cName,\r\n            cCut,\r\n            cPCut,\r\n            minScore,\r\n            entryPrice,\r\n            duration,\r\n            payable (address(this)),\r\n            challengeAddress,\r\n            address(daiToken),\r\n            address(cDAI),\r\n            _studentApplicationFactoryAddress\r\n        );\r\n        IClassroom(classroom).transferOwnershipClassroom(owner);\r\n        address classroomAddr = address(classroom);\r\n        _classList.push(classroomAddr);\r\n        grantRole(READ_STUDENT_LIST_ROLE, classroomAddr);\r\n        grantRole(CLASSROOM_PROFESSOR_ROLE, classroomAddr);\r\n        emit LogNewClassroom(cName, classroomAddr);\r\n        return classroomAddr;\r\n    }\r\n\r\n    function studentRequestClassroom(\r\n        address applicationAddr,\r\n        bytes32 cName,\r\n        uint24 cCut,\r\n        uint24 cPCut,\r\n        int32 minScore,\r\n        uint256 entryPrice,\r\n        uint256 duration,\r\n        address challenge\r\n    ) public override returns (address) {\r\n        require(\r\n            hasRole(STUDENT_IDENTITY_ROLE, _msgSender()),\r\n            \"University: caller doesn't have STUDENT_IDENTITY_ROLE\"\r\n        );\r\n        require(\r\n            checkForStudentApplication(_msgSender(), applicationAddr),\r\n            \"University: caller is not student of this application\"\r\n        );\r\n        IStudentApplication application = IStudentApplication(applicationAddr);\r\n        require(\r\n            application.applicationState() == 3,\r\n            \"University: application is not successful\"\r\n        );\r\n        return\r\n            _newClassRoom(\r\n                IStudent(_msgSender()).ownerStudent(),\r\n                cName,\r\n                cCut,\r\n                cPCut,\r\n                minScore,\r\n                entryPrice,\r\n                duration,\r\n                challenge\r\n            );\r\n    }\r\n\r\n    function registerStudentApplication(\r\n        address student,\r\n        address application\r\n    ) public override\r\n    {\r\n        require(\r\n            hasRole(CLASSROOM_PROFESSOR_ROLE, _msgSender()),\r\n            \"University: caller doesn't have CLASSROOM_PROFESSOR_ROLE\"\r\n        );\r\n        _studentApplicationsMapping[student].push(application);\r\n    }\r\n\r\n    function checkForStudentApplication(\r\n        address studentAddress,\r\n        address applicationAddress\r\n    ) internal view returns (bool) {\r\n        for (\r\n            uint256 i = 0;\r\n            i < _studentApplicationsMapping[studentAddress].length;\r\n            i++\r\n        ) {\r\n            if (\r\n                _studentApplicationsMapping[studentAddress][i] ==\r\n                applicationAddress\r\n            ) return true;\r\n        }\r\n        return false;\r\n    }\r\n\r\n    function addStudentScore(address student, int32 val) public override {\r\n        require(\r\n            hasRole(CLASSROOM_PROFESSOR_ROLE, _msgSender()),\r\n            \"University: caller doesn't have CLASSROOM_PROFESSOR_ROLE\"\r\n        );\r\n        IStudent(student).addScore(val);\r\n    }\r\n\r\n    function subStudentScore(address student, int32 val) public override {\r\n        require(\r\n            hasRole(CLASSROOM_PROFESSOR_ROLE, _msgSender()),\r\n            \"University: caller doesn't have CLASSROOM_PROFESSOR_ROLE\"\r\n        );\r\n        IStudent(student).subScore(val);\r\n    }\r\n\r\n    function applyFundsCompound(uint256 val) public override {\r\n        require(\r\n            hasRole(FUNDS_MANAGER_ROLE, _msgSender()),\r\n            \"University: caller doesn't have FUNDS_MANAGER_ROLE\"\r\n        );\r\n        TransferHelper.safeApprove(address(daiToken), address(cDAI), val);\r\n        cDAI.mint(val);\r\n    }\r\n\r\n    function recoverFundsCompound(uint256 val) public override {\r\n        require(\r\n            hasRole(FUNDS_MANAGER_ROLE, _msgSender()),\r\n            \"University: caller doesn't have FUNDS_MANAGER_ROLE\"\r\n        );\r\n        cDAI.redeemUnderlying(val);\r\n    }\r\n\r\n    function applyFundsAave(uint256 val) public override {\r\n        require(\r\n            hasRole(FUNDS_MANAGER_ROLE, _msgSender()),\r\n            \"University: caller doesn't have FUNDS_MANAGER_ROLE\"\r\n        );\r\n        TransferHelper.safeApprove(address(daiToken), _aaveLendingPoolCore, val);\r\n        _aaveLendingPool.deposit(address(daiToken), val, 0);\r\n    }\r\n\r\n    function recoverFundsAave(uint256 val) public override {\r\n        require(\r\n            hasRole(FUNDS_MANAGER_ROLE, _msgSender()),\r\n            \"University: caller doesn't have FUNDS_MANAGER_ROLE\"\r\n        );\r\n        aToken(_aTokenDAI).redeem(val);\r\n    }\r\n\r\n    function setAaveMarketCollateralForDAI(bool state) public override {\r\n        setAaveMarketCollateral(address(daiToken), state);\r\n    }\r\n\r\n    function setAaveMarketCollateral(address token, bool state) public override {\r\n        require(\r\n            hasRole(FUNDS_MANAGER_ROLE, _msgSender()),\r\n            \"University: caller doesn't have FUNDS_MANAGER_ROLE\"\r\n        );\r\n        _aaveLendingPool.setUserUseReserveAsCollateral(token, state);\r\n    }\r\n\r\n    function enterCompoundDAIMarket() public override {\r\n        enterCompoundMarket(address(cDAI));\r\n    }\r\n\r\n    function enterCompoundMarket(address token) public override {\r\n        require(\r\n            hasRole(FUNDS_MANAGER_ROLE, _msgSender()),\r\n            \"University: caller doesn't have FUNDS_MANAGER_ROLE\"\r\n        );\r\n        address[] memory cTokens = new address[](1);\r\n        cTokens[0] = token;\r\n        uint256[] memory errors = comptroller.enterMarkets(cTokens);\r\n        if (errors[0] != 0) {\r\n            revert(\"University: Comptroller.enterMarkets failed.\");\r\n        }\r\n    }\r\n\r\n    function exitCompoundDAIMarket() public override {\r\n        exitCompoundMarket(address(cDAI));\r\n    }\r\n\r\n    function exitCompoundMarket(address token) public override {\r\n        require(\r\n            hasRole(FUNDS_MANAGER_ROLE, _msgSender()),\r\n            \"University: caller doesn't have FUNDS_MANAGER_ROLE\"\r\n        );\r\n        uint256 error = comptroller.exitMarket(token);\r\n        if (error != 0) {\r\n            revert(\"University: Comptroller.exitMarket failed.\");\r\n        }\r\n    }\r\n\r\n    function getCompoundLiquidityAndShortfall() \r\n        public \r\n        view \r\n        override\r\n        returns (uint256, uint256) {\r\n        require(\r\n            hasRole(FUNDS_MANAGER_ROLE, _msgSender()),\r\n            \"University: caller doesn't have FUNDS_MANAGER_ROLE\"\r\n        );\r\n        (uint256 error, uint256 liquidity, uint256 shortfall) = \r\n            comptroller\r\n            .getAccountLiquidity(address(this));\r\n        if (error != 0) {\r\n            revert(\"University: Comptroller.getAccountLiquidity failed.\");\r\n        }\r\n        return (liquidity, shortfall);\r\n    }\r\n\r\n    function getCompoundPriceInWEI(address cToken) \r\n        public \r\n        view \r\n        override\r\n        returns (uint256) {\r\n        return priceOracle.getUnderlyingPrice(cToken);\r\n    }\r\n\r\n    function getCompoundMaxBorrowInWEI(address cToken) \r\n        public \r\n        view \r\n        override\r\n        returns (uint256) {\r\n        (uint256 liquidity, ) = getCompoundLiquidityAndShortfall();\r\n        return liquidity.div(priceOracle.getUnderlyingPrice(cToken));\r\n    }\r\n\r\n    function compoundBorrow(address cToken, uint256 val) \r\n        public \r\n        override {\r\n        require(\r\n            hasRole(FUNDS_MANAGER_ROLE, _msgSender()),\r\n            \"University: caller doesn't have FUNDS_MANAGER_ROLE\"\r\n        );\r\n        CERC20(cToken).borrow(val);\r\n    }\r\n\r\n    function compoundGetBorrow(address cToken) \r\n        public \r\n        view \r\n        override\r\n        returns (uint256) {\r\n        require(\r\n            hasRole(FUNDS_MANAGER_ROLE, _msgSender()),\r\n            \"University: caller doesn't have FUNDS_MANAGER_ROLE\"\r\n        );\r\n        return CERC20(cToken).borrowBalanceCurrent(address(this));\r\n    }\r\n\r\n    function compoundRepayBorrow(address token, address cToken, uint256 val)\r\n        public \r\n        override {\r\n        require(\r\n            hasRole(FUNDS_MANAGER_ROLE, _msgSender()),\r\n            \"University: caller doesn't have FUNDS_MANAGER_ROLE\"\r\n        );\r\n        require(\r\n            IERC20(token).balanceOf(address(this)) >= val,\r\n            \"University: not enough of this token stored\"\r\n        );\r\n        TransferHelper.safeApprove(token, cToken, val);\r\n        CERC20(cToken).repayBorrow(val);\r\n    }\r\n\r\n    function aaveGetBorrow(address token, uint256 val, bool variableRate) public override {\r\n        require(\r\n            hasRole(FUNDS_MANAGER_ROLE, _msgSender()),\r\n            \"University: caller doesn't have FUNDS_MANAGER_ROLE\"\r\n        );\r\n        uint8 vRate = variableRate ? 2 : 1;\r\n        _aaveLendingPool.borrow(token, val, vRate, 0);\r\n    }\r\n\r\n    function aaveRepayBorrow(address token, uint256 val)\r\n        public \r\n        override {\r\n        require(\r\n            hasRole(FUNDS_MANAGER_ROLE, _msgSender()),\r\n            \"University: caller doesn't have FUNDS_MANAGER_ROLE\"\r\n        );\r\n        require(\r\n            IERC20(token).balanceOf(address(this)) >= val,\r\n            \"University: not enough of this token stored\"\r\n        );\r\n        TransferHelper.safeApprove(token, _aaveProvider.getLendingPoolCore(), val);\r\n        _aaveLendingPool.repay(token, val, address(this));\r\n    }\r\n\r\n    function aaveSwapBorrowRateMode(address token) public override {\r\n        require(\r\n            hasRole(FUNDS_MANAGER_ROLE, _msgSender()),\r\n            \"University: caller doesn't have FUNDS_MANAGER_ROLE\"\r\n        );\r\n        _aaveLendingPool.swapBorrowRateMode(token);\r\n    }\r\n\r\n    function increaseOperationalBudget(uint256 val) public onlyOwner {\r\n        require(\r\n            endowmentLocked >= val,\r\n            \"University: not enough endowment\"\r\n        );\r\n        operationalBudget = operationalBudget.add(val);\r\n        endowmentLocked = endowmentLocked.sub(val);\r\n    }\r\n\r\n    function spendBudget(address to, uint256 val) public override {\r\n        require(\r\n            hasRole(FUNDS_MANAGER_ROLE, _msgSender()),\r\n            \"University: caller doesn't have FUNDS_MANAGER_ROLE\"\r\n        );\r\n        require(\r\n            hasRole(REGISTERED_SUPPLIER_ROLE, to),\r\n            \"University: receiver doesn't have REGISTERED_SUPPLIER_ROLE\"\r\n        );\r\n        require(\r\n            operationalBudget >= val,\r\n            \"University: not enough operational budget\"\r\n        );\r\n        require(\r\n            daiToken.balanceOf(address(this)) >= val,\r\n            \"University: liquidate some positions first\"\r\n        );\r\n        TransferHelper.safeTransfer(address(daiToken), to, val);\r\n        operationalBudget = operationalBudget.sub(val);\r\n    }\r\n\r\n    function giveGrant(address studentApplication, uint256 price) public override {\r\n        require(\r\n            hasRole(GRANTS_MANAGER_ROLE, _msgSender()),\r\n            \"University: caller doesn't have GRANTS_MANAGER_ROLE\"\r\n        );\r\n        require(\r\n            availableFunds() >= price,\r\n            \"University: not enough available funds\"\r\n        );\r\n        IStudentApplication(studentApplication).payEntryPrice();\r\n    }\r\n\r\n    function reinvestReturns(uint256 val) public override {\r\n        require(\r\n            hasRole(FUNDS_MANAGER_ROLE, _msgSender()),\r\n            \"University: caller doesn't have FUNDS_MANAGER_ROLE\"\r\n        );\r\n        require(\r\n            availableFunds() >= val,\r\n            \"University: not enough available funds\"\r\n        );\r\n        accountReturns(val);\r\n    }\r\n\r\n    function viewAllStudentsFromGrantManager(\r\n            address grantsManager\r\n        ) public returns (address[] memory) {\r\n        require(\r\n            hasRole(UNIVERSITY_OVERSEER_ROLE, _msgSender()),\r\n            \"University: caller doesn't have UNIVERSITY_OVERSEER_ROLE\"\r\n        );\r\n        return IGrantsManager(grantsManager).viewAllStudents();\r\n    }\r\n\r\n    function viewAllStudentGrantsFromGrantManager(\r\n            address student, \r\n            address grantsManager\r\n        ) public returns (uint256[] memory) {\r\n        require(\r\n            hasRole(UNIVERSITY_OVERSEER_ROLE, _msgSender()),\r\n            \"University: caller doesn't have UNIVERSITY_OVERSEER_ROLE\"\r\n        );\r\n        return IGrantsManager(grantsManager).viewAllGrantsForStudent(student);\r\n    }\r\n\r\n    function acceptRelayedCall(\r\n        GSNTypes.RelayRequest calldata relayRequest,\r\n        bytes calldata,\r\n        uint256\r\n    ) external pure returns (bytes memory context) {\r\n        require(\r\n            MyUtils.readBytes4(relayRequest.encodedFunction, 0) ==\r\n                this.studentSelfRegisterGSN.selector,\r\n            \"University: GSN not enabled for this function\"\r\n        );\r\n        return abi.encode(relayRequest.target, 0);\r\n    }\r\n\r\n    function refillUniversityRelayer(uint256 val) public {\r\n        require(\r\n            hasRole(FUNDS_MANAGER_ROLE, _msgSender()) || _msgSender() == owner(),\r\n            \"University: caller doesn't have FUNDS_MANAGER_ROLE\"\r\n        );\r\n        relayHub.depositFor.value(val)(address(this));\r\n    }\r\n\r\n    function swapDAI_ETH(\r\n        uint256 amount,\r\n        uint256 deadline\r\n    ) public override returns (uint[] memory amounts) {\r\n        require(\r\n            hasRole(FUNDS_MANAGER_ROLE, _msgSender()),\r\n            \"University: caller doesn't have FUNDS_MANAGER_ROLE\"\r\n        );\r\n        require(\r\n            _uniswapWETH != address(0),\r\n            \"University: setup uniswap first\"\r\n        );\r\n        amounts = swapBlind(_uniswapDAI, _uniswapWETH, amount, deadline);\r\n    }\r\n\r\n    function swapETH_DAI(\r\n        uint256 amount,\r\n        uint256 deadline\r\n    ) public override returns (uint[] memory amounts) {\r\n        require(\r\n            hasRole(FUNDS_MANAGER_ROLE, _msgSender()),\r\n            \"University: caller doesn't have FUNDS_MANAGER_ROLE\"\r\n        );\r\n        require(\r\n            _uniswapWETH != address(0),\r\n            \"University: setup uniswap first\"\r\n        );\r\n        amounts = swapBlind(_uniswapWETH, _uniswapDAI, amount, deadline);\r\n    }\r\n\r\n    function swapBlind(\r\n        address tokenA,\r\n        address tokenB,\r\n        uint256 amount,\r\n        uint256 deadline\r\n    ) internal returns (uint[] memory amounts) {\r\n        TransferHelper.safeApprove(tokenA, address(_uniswapRouter), amount);\r\n        address[] memory path = new address[](2);\r\n        path[0] = tokenA;\r\n        path[1] = tokenB;\r\n        amounts = _uniswapRouter.swapExactTokensForTokens(\r\n            amount,\r\n            0,\r\n            path,\r\n            address(this),\r\n            deadline\r\n        );\r\n    }\r\n\r\n    \r\n    function donateETH(uint256 donation) public payable override {\r\n        // This function is vulnerable to sandwich attacks. Since the very nature of this function is for a donor to donate money, it is not needed to prevent the donor from manipulating its own donation\r\n        uint256[] memory amounts = swapETH_DAI(donation, 12 hours);\r\n        donators[_msgSender()] = donators[_msgSender()].add(amounts[1]);\r\n        accountDonation(amounts[1]);\r\n    }\r\n\r\n    function donateDAI(uint256 donation) public override {\r\n        TransferHelper.safeTransferFrom(\r\n            address(daiToken),\r\n            _msgSender(),\r\n            address(this),\r\n            donation\r\n        );\r\n        donators[_msgSender()] = donators[_msgSender()].add(donation);\r\n        accountDonation(donation);\r\n    }\r\n\r\n    function accountDonation(uint256 donation) internal {\r\n        donationsReceived = donationsReceived.add(donation);\r\n        endowmentLocked = endowmentLocked.add(donation);\r\n    }\r\n\r\n    function accountRevenue(uint256 revenue) public override {\r\n        require(\r\n            hasRole(CLASSROOM_PROFESSOR_ROLE, _msgSender()),\r\n            \"University: caller doesn't have CLASSROOM_PROFESSOR_ROLE\"\r\n        );\r\n        revenueReceived = revenueReceived.add(revenue);\r\n        endowmentLocked = endowmentLocked.add(revenue);\r\n    }\r\n\r\n    function accountReturns(uint256 financialReturns) internal {\r\n        require(\r\n            hasRole(CLASSROOM_PROFESSOR_ROLE, _msgSender()),\r\n            \"University: caller doesn't have CLASSROOM_PROFESSOR_ROLE\"\r\n        );\r\n        returnsReceived = revenueReceived.add(financialReturns);\r\n        endowmentLocked = endowmentLocked.add(financialReturns);\r\n    }\r\n\r\n\r\n    //TODO: implement funds manager\r\n}\r\n",
  "sourcePath": "/mnt/e/Repositories/Uproot/contracts/University.sol",
  "compiler": {
    "name": "solc",
    "version": "0.6.6+commit.6c089d02.Emscripten.clang"
  },
  "schemaVersion": "3.1.0",
  "updatedAt": "2020-05-07T02:21:39.125Z",
  "devdoc": {
    "methods": {
      "getRoleAdmin(bytes32)": {
        "details": "Returns the admin role that controls `role`. See {grantRole} and {revokeRole}.     * To change a role's admin, use {_setRoleAdmin}."
      },
      "getRoleMember(bytes32,uint256)": {
        "details": "Returns one of the accounts that have `role`. `index` must be a value between 0 and {getRoleMemberCount}, non-inclusive.     * Role bearers are not sorted in any particular way, and their ordering may change at any point.     * WARNING: When using {getRoleMember} and {getRoleMemberCount}, make sure you perform all queries on the same block. See the following https://forum.openzeppelin.com/t/iterating-over-elements-on-enumerableset-in-openzeppelin-contracts/2296[forum post] for more information."
      },
      "getRoleMemberCount(bytes32)": {
        "details": "Returns the number of accounts that have `role`. Can be used together with {getRoleMember} to enumerate all bearers of a role."
      },
      "grantRole(bytes32,address)": {
        "details": "Grants `role` to `account`.     * If `account` had not been already granted `role`, emits a {RoleGranted} event.     * Requirements:     * - the caller must have ``role``'s admin role."
      },
      "hasRole(bytes32,address)": {
        "details": "Returns `true` if `account` has been granted `role`."
      },
      "owner()": {
        "details": "Returns the address of the current owner."
      },
      "renounceOwnership()": {
        "details": "Leaves the contract without owner. It will not be possible to call `onlyOwner` functions anymore. Can only be called by the current owner.     * NOTE: Renouncing ownership will leave the contract without an owner, thereby removing any functionality that is only available to the owner."
      },
      "renounceRole(bytes32,address)": {
        "details": "Revokes `role` from the calling account.     * Roles are often managed via {grantRole} and {revokeRole}: this function's purpose is to provide a mechanism for accounts to lose their privileges if they are compromised (such as when a trusted device is misplaced).     * If the calling account had been granted `role`, emits a {RoleRevoked} event.     * Requirements:     * - the caller must be `account`."
      },
      "revokeRole(bytes32,address)": {
        "details": "Revokes `role` from `account`.     * If `account` had been granted `role`, emits a {RoleRevoked} event.     * Requirements:     * - the caller must have ``role``'s admin role."
      },
      "transferOwnership(address)": {
        "details": "Transfers ownership of the contract to a new account (`newOwner`). Can only be called by the current owner."
      }
    }
  },
  "userdoc": {
    "methods": {
      "_msgSenderGSN()": {
        "notice": "return the sender of this call. if the call came through our trusted forwarder, return the original sender. otherwise, return `msg.sender`. should be used in the contract anywhere instead of msg.sender"
      }
    }
  }
}