{
  "contractName": "University",
  "abi": [
    {
      "inputs": [
        {
          "internalType": "bytes32",
          "name": "_name",
          "type": "bytes32"
        },
        {
          "internalType": "uint24",
          "name": "_cut",
          "type": "uint24"
        },
        {
          "internalType": "address",
          "name": "daiAddress",
          "type": "address"
        },
        {
          "internalType": "address",
          "name": "compoundAddress",
          "type": "address"
        }
      ],
      "stateMutability": "nonpayable",
      "type": "constructor"
    },
    {
      "anonymous": false,
      "inputs": [
        {
          "indexed": false,
          "internalType": "uint24",
          "name": "",
          "type": "uint24"
        }
      ],
      "name": "LogChangeCut",
      "type": "event"
    },
    {
      "anonymous": false,
      "inputs": [
        {
          "indexed": false,
          "internalType": "bytes32",
          "name": "",
          "type": "bytes32"
        }
      ],
      "name": "LogChangeName",
      "type": "event"
    },
    {
      "anonymous": false,
      "inputs": [
        {
          "indexed": false,
          "internalType": "bytes32",
          "name": "",
          "type": "bytes32"
        },
        {
          "indexed": false,
          "internalType": "address",
          "name": "",
          "type": "address"
        }
      ],
      "name": "LogNewClassroom",
      "type": "event"
    },
    {
      "anonymous": false,
      "inputs": [
        {
          "indexed": true,
          "internalType": "address",
          "name": "previousOwner",
          "type": "address"
        },
        {
          "indexed": true,
          "internalType": "address",
          "name": "newOwner",
          "type": "address"
        }
      ],
      "name": "OwnershipTransferred",
      "type": "event"
    },
    {
      "anonymous": false,
      "inputs": [
        {
          "indexed": true,
          "internalType": "bytes32",
          "name": "role",
          "type": "bytes32"
        },
        {
          "indexed": true,
          "internalType": "address",
          "name": "account",
          "type": "address"
        },
        {
          "indexed": true,
          "internalType": "address",
          "name": "sender",
          "type": "address"
        }
      ],
      "name": "RoleGranted",
      "type": "event"
    },
    {
      "anonymous": false,
      "inputs": [
        {
          "indexed": true,
          "internalType": "bytes32",
          "name": "role",
          "type": "bytes32"
        },
        {
          "indexed": true,
          "internalType": "address",
          "name": "account",
          "type": "address"
        },
        {
          "indexed": true,
          "internalType": "address",
          "name": "sender",
          "type": "address"
        }
      ],
      "name": "RoleRevoked",
      "type": "event"
    },
    {
      "inputs": [],
      "name": "CLASSLIST_ADMIN_ROLE",
      "outputs": [
        {
          "internalType": "bytes32",
          "name": "",
          "type": "bytes32"
        }
      ],
      "stateMutability": "view",
      "type": "function"
    },
    {
      "inputs": [],
      "name": "CLASSROOM_PROFESSOR_ROLE",
      "outputs": [
        {
          "internalType": "bytes32",
          "name": "",
          "type": "bytes32"
        }
      ],
      "stateMutability": "view",
      "type": "function"
    },
    {
      "inputs": [],
      "name": "DEFAULT_ADMIN_ROLE",
      "outputs": [
        {
          "internalType": "bytes32",
          "name": "",
          "type": "bytes32"
        }
      ],
      "stateMutability": "view",
      "type": "function"
    },
    {
      "inputs": [],
      "name": "FUNDS_MANAGER_ROLE",
      "outputs": [
        {
          "internalType": "bytes32",
          "name": "",
          "type": "bytes32"
        }
      ],
      "stateMutability": "view",
      "type": "function"
    },
    {
      "inputs": [],
      "name": "GRANTS_MANAGER_ROLE",
      "outputs": [
        {
          "internalType": "bytes32",
          "name": "",
          "type": "bytes32"
        }
      ],
      "stateMutability": "view",
      "type": "function"
    },
    {
      "inputs": [],
      "name": "READ_STUDENT_LIST_ROLE",
      "outputs": [
        {
          "internalType": "bytes32",
          "name": "",
          "type": "bytes32"
        }
      ],
      "stateMutability": "view",
      "type": "function"
    },
    {
      "inputs": [],
      "name": "STUDENT_IDENTITY_ROLE",
      "outputs": [
        {
          "internalType": "bytes32",
          "name": "",
          "type": "bytes32"
        }
      ],
      "stateMutability": "view",
      "type": "function"
    },
    {
      "inputs": [
        {
          "internalType": "uint256",
          "name": "",
          "type": "uint256"
        }
      ],
      "name": "_classList",
      "outputs": [
        {
          "internalType": "contract Classroom",
          "name": "",
          "type": "address"
        }
      ],
      "stateMutability": "view",
      "type": "function"
    },
    {
      "inputs": [],
      "name": "cToken",
      "outputs": [
        {
          "internalType": "contract CERC20",
          "name": "",
          "type": "address"
        }
      ],
      "stateMutability": "view",
      "type": "function"
    },
    {
      "inputs": [],
      "name": "cut",
      "outputs": [
        {
          "internalType": "uint24",
          "name": "",
          "type": "uint24"
        }
      ],
      "stateMutability": "view",
      "type": "function"
    },
    {
      "inputs": [],
      "name": "daiToken",
      "outputs": [
        {
          "internalType": "contract IERC20",
          "name": "",
          "type": "address"
        }
      ],
      "stateMutability": "view",
      "type": "function"
    },
    {
      "inputs": [
        {
          "internalType": "bytes32",
          "name": "role",
          "type": "bytes32"
        }
      ],
      "name": "getRoleAdmin",
      "outputs": [
        {
          "internalType": "bytes32",
          "name": "",
          "type": "bytes32"
        }
      ],
      "stateMutability": "view",
      "type": "function"
    },
    {
      "inputs": [
        {
          "internalType": "bytes32",
          "name": "role",
          "type": "bytes32"
        },
        {
          "internalType": "uint256",
          "name": "index",
          "type": "uint256"
        }
      ],
      "name": "getRoleMember",
      "outputs": [
        {
          "internalType": "address",
          "name": "",
          "type": "address"
        }
      ],
      "stateMutability": "view",
      "type": "function"
    },
    {
      "inputs": [
        {
          "internalType": "bytes32",
          "name": "role",
          "type": "bytes32"
        }
      ],
      "name": "getRoleMemberCount",
      "outputs": [
        {
          "internalType": "uint256",
          "name": "",
          "type": "uint256"
        }
      ],
      "stateMutability": "view",
      "type": "function"
    },
    {
      "inputs": [
        {
          "internalType": "bytes32",
          "name": "role",
          "type": "bytes32"
        },
        {
          "internalType": "address",
          "name": "account",
          "type": "address"
        }
      ],
      "name": "grantRole",
      "outputs": [],
      "stateMutability": "nonpayable",
      "type": "function"
    },
    {
      "inputs": [
        {
          "internalType": "bytes32",
          "name": "role",
          "type": "bytes32"
        },
        {
          "internalType": "address",
          "name": "account",
          "type": "address"
        }
      ],
      "name": "hasRole",
      "outputs": [
        {
          "internalType": "bool",
          "name": "",
          "type": "bool"
        }
      ],
      "stateMutability": "view",
      "type": "function"
    },
    {
      "inputs": [],
      "name": "name",
      "outputs": [
        {
          "internalType": "bytes32",
          "name": "",
          "type": "bytes32"
        }
      ],
      "stateMutability": "view",
      "type": "function"
    },
    {
      "inputs": [],
      "name": "owner",
      "outputs": [
        {
          "internalType": "address",
          "name": "",
          "type": "address"
        }
      ],
      "stateMutability": "view",
      "type": "function"
    },
    {
      "inputs": [],
      "name": "renounceOwnership",
      "outputs": [],
      "stateMutability": "nonpayable",
      "type": "function"
    },
    {
      "inputs": [
        {
          "internalType": "bytes32",
          "name": "role",
          "type": "bytes32"
        },
        {
          "internalType": "address",
          "name": "account",
          "type": "address"
        }
      ],
      "name": "renounceRole",
      "outputs": [],
      "stateMutability": "nonpayable",
      "type": "function"
    },
    {
      "inputs": [
        {
          "internalType": "bytes32",
          "name": "role",
          "type": "bytes32"
        },
        {
          "internalType": "address",
          "name": "account",
          "type": "address"
        }
      ],
      "name": "revokeRole",
      "outputs": [],
      "stateMutability": "nonpayable",
      "type": "function"
    },
    {
      "inputs": [
        {
          "internalType": "address",
          "name": "newOwner",
          "type": "address"
        }
      ],
      "name": "transferOwnership",
      "outputs": [],
      "stateMutability": "nonpayable",
      "type": "function"
    },
    {
      "inputs": [
        {
          "internalType": "bytes32",
          "name": "val",
          "type": "bytes32"
        }
      ],
      "name": "changeName",
      "outputs": [],
      "stateMutability": "nonpayable",
      "type": "function"
    },
    {
      "inputs": [
        {
          "internalType": "uint24",
          "name": "val",
          "type": "uint24"
        }
      ],
      "name": "changeCut",
      "outputs": [],
      "stateMutability": "nonpayable",
      "type": "function"
    },
    {
      "inputs": [
        {
          "internalType": "address",
          "name": "classroom",
          "type": "address"
        }
      ],
      "name": "isValidClassroom",
      "outputs": [
        {
          "internalType": "bool",
          "name": "",
          "type": "bool"
        }
      ],
      "stateMutability": "view",
      "type": "function"
    },
    {
      "inputs": [
        {
          "internalType": "address",
          "name": "student",
          "type": "address"
        }
      ],
      "name": "studentIsRegistered",
      "outputs": [
        {
          "internalType": "bool",
          "name": "",
          "type": "bool"
        }
      ],
      "stateMutability": "view",
      "type": "function"
    },
    {
      "inputs": [
        {
          "internalType": "address",
          "name": "owner",
          "type": "address"
        },
        {
          "internalType": "bytes32",
          "name": "cName",
          "type": "bytes32"
        },
        {
          "internalType": "uint24",
          "name": "cCut",
          "type": "uint24"
        },
        {
          "internalType": "uint24",
          "name": "cPCut",
          "type": "uint24"
        },
        {
          "internalType": "int32",
          "name": "minScore",
          "type": "int32"
        },
        {
          "internalType": "uint256",
          "name": "entryPrice",
          "type": "uint256"
        },
        {
          "internalType": "uint256",
          "name": "duration",
          "type": "uint256"
        },
        {
          "internalType": "address",
          "name": "challengeAddress",
          "type": "address"
        }
      ],
      "name": "newClassRoom",
      "outputs": [],
      "stateMutability": "nonpayable",
      "type": "function"
    },
    {
      "inputs": [
        {
          "internalType": "bytes32",
          "name": "sName",
          "type": "bytes32"
        }
      ],
      "name": "studentSelfRegister",
      "outputs": [],
      "stateMutability": "nonpayable",
      "type": "function"
    },
    {
      "inputs": [
        {
          "internalType": "address",
          "name": "student",
          "type": "address"
        },
        {
          "internalType": "address",
          "name": "application",
          "type": "address"
        }
      ],
      "name": "registerStudentApplication",
      "outputs": [],
      "stateMutability": "nonpayable",
      "type": "function"
    },
    {
      "inputs": [],
      "name": "viewMyApplications",
      "outputs": [
        {
          "internalType": "address[]",
          "name": "",
          "type": "address[]"
        }
      ],
      "stateMutability": "view",
      "type": "function"
    },
    {
      "inputs": [
        {
          "internalType": "address",
          "name": "addr",
          "type": "address"
        }
      ],
      "name": "viewStudentApplications",
      "outputs": [
        {
          "internalType": "address[]",
          "name": "",
          "type": "address[]"
        }
      ],
      "stateMutability": "view",
      "type": "function"
    },
    {
      "inputs": [
        {
          "internalType": "address",
          "name": "applicationAddr",
          "type": "address"
        },
        {
          "internalType": "bytes32",
          "name": "cName",
          "type": "bytes32"
        },
        {
          "internalType": "uint24",
          "name": "cCut",
          "type": "uint24"
        },
        {
          "internalType": "uint24",
          "name": "cPCut",
          "type": "uint24"
        },
        {
          "internalType": "int32",
          "name": "minScore",
          "type": "int32"
        },
        {
          "internalType": "uint256",
          "name": "entryPrice",
          "type": "uint256"
        },
        {
          "internalType": "uint256",
          "name": "duration",
          "type": "uint256"
        },
        {
          "internalType": "address",
          "name": "challenge",
          "type": "address"
        }
      ],
      "name": "studentRequestClassroom",
      "outputs": [],
      "stateMutability": "nonpayable",
      "type": "function"
    },
    {
      "inputs": [
        {
          "internalType": "address",
          "name": "student",
          "type": "address"
        },
        {
          "internalType": "int32",
          "name": "val",
          "type": "int32"
        }
      ],
      "name": "addStudentScore",
      "outputs": [],
      "stateMutability": "nonpayable",
      "type": "function"
    },
    {
      "inputs": [
        {
          "internalType": "address",
          "name": "student",
          "type": "address"
        },
        {
          "internalType": "int32",
          "name": "val",
          "type": "int32"
        }
      ],
      "name": "subStudentScore",
      "outputs": [],
      "stateMutability": "nonpayable",
      "type": "function"
    },
    {
      "inputs": [
        {
          "internalType": "uint256",
          "name": "val",
          "type": "uint256"
        }
      ],
      "name": "applyFunds",
      "outputs": [],
      "stateMutability": "nonpayable",
      "type": "function"
    },
    {
      "inputs": [
        {
          "internalType": "uint256",
          "name": "val",
          "type": "uint256"
        }
      ],
      "name": "recoverFunds",
      "outputs": [],
      "stateMutability": "nonpayable",
      "type": "function"
    },
    {
      "inputs": [
        {
          "internalType": "address",
          "name": "to",
          "type": "address"
        },
        {
          "internalType": "uint256",
          "name": "val",
          "type": "uint256"
        }
      ],
      "name": "spendFunds",
      "outputs": [],
      "stateMutability": "nonpayable",
      "type": "function"
    },
    {
      "inputs": [
        {
          "internalType": "address",
          "name": "to",
          "type": "address"
        },
        {
          "internalType": "uint256",
          "name": "val",
          "type": "uint256"
        }
      ],
      "name": "allowFunds",
      "outputs": [],
      "stateMutability": "nonpayable",
      "type": "function"
    }
  ],
  "bytecode": "0x60806040523480156200001157600080fd5b506040516200a80f3803806200a80f833981810160405260808110156200003757600080fd5b50805160208201516040830151606090930151919290916000620000636001600160e01b03620001bb16565b600080546001600160a01b0319166001600160a01b0383169081178255604051929350917f8be0079c531659141344cd1fd0a4f28419497f9722a3daafe3b4186f6b6457e0908290a35060028490556003805462ffffff191662ffffff85161790556040805160008152602081019182905251620000e491600491620003b2565b5060408051600081526020810191829052516200010491600591620003b2565b506200012d60006200011e6001600160e01b03620001bb16565b6001600160e01b03620001c016565b604080517f524541445f53545544454e545f4c4953545f524f4c4500000000000000000000815290519081900360160190206200018690620001776001600160e01b03620001bb16565b6001600160e01b03620001d916565b600980546001600160a01b039384166001600160a01b0319918216179091556008805492909316911617905550620004439050565b335b90565b620001d582826001600160e01b036200024f16565b5050565b6000828152600160205260409020600201546200021290620002036001600160e01b03620001bb16565b6001600160e01b03620002d316565b620001c05760405162461bcd60e51b815260040180806020018281038252602f8152602001806200a7e0602f913960400191505060405180910390fd5b600082815260016020908152604090912062000276918390620020ab62000302821b17901c565b15620001d5576200028f6001600160e01b03620001bb16565b6001600160a01b0316816001600160a01b0316837f2f8788117e7eff1d82e926ec794901d17c78024a50270940304540a733656f0d60405160405180910390a45050565b60008281526001602090815260408220620002f99184906200208762000322821b17901c565b90505b92915050565b6000620002f9836001600160a01b0384166001600160e01b036200034216565b6000620002f9836001600160a01b0384166001600160e01b036200039a16565b60006200035983836001600160e01b036200039a16565b6200039157508154600181810184556000848152602080822090930184905584548482528286019093526040902091909155620002fc565b506000620002fc565b60009081526001919091016020526040902054151590565b8280548282559060005260206000209081019282156200040a579160200282015b828111156200040a57825182546001600160a01b0319166001600160a01b03909116178255602090920191600190910190620003d3565b50620004189291506200041c565b5090565b620001bd91905b80821115620004185780546001600160a01b031916815560010162000423565b61a38d80620004536000396000f3fe60806040523480156200001157600080fd5b5060043610620002d45760003560e01c8063898855ed1162000183578063c419f43211620000ed578063e37dd9801162000099578063e770d7d4116200007b578063e770d7d414620007d5578063f2fde38b14620007fa578063ff5d8f63146200082357620002d4565b8063e37dd9801462000793578063e6fd604c14620007b357620002d4565b8063ca15c87311620000cf578063ca15c873146200071b578063d3c5704e146200073b578063d547741f146200076457620002d4565b8063c419f43214620006e2578063c4707a83146200071157620002d4565b806391d14854116200014d578063a217fddf116200012f578063a217fddf14620006ae578063be22f54614620006b8578063c204a0e014620006c257620002d4565b806391d1485414620006755780639fd6cb7a14620006a457620002d4565b8063898855ed146200061b5780638a9f5b7f146200063b5780638da5cb5b14620006455780639010d07c146200064f57620002d4565b80635070ad951162000243578063715018a611620001ef578063820cd75c11620001d1578063820cd75c14620005b657806385dade6114620005c057806387bfe18814620005e957620002d4565b8063715018a6146200054a5780637fd5c108146200055457620002d4565b80636408a38611620002255780636408a38614620004be57806364d47731146200051a57806369e527da146200052457620002d4565b80635070ad95146200046f5780635a7dd150146200049e57620002d4565b80632f2ff15d11620002a357806336568abe116200028557806336568abe14620003be5780634ab358c714620003ed5780634ea962c1146200040d57620002d4565b80632f2ff15d146200038557806332636ac914620003b457620002d4565b806306fdde0314620002d957806316ded1ce14620002f5578063183b26001462000332578063248a9ca31462000365575b600080fd5b620002e362000855565b60408051918252519081900360200190f35b6200031e600480360360208110156200030d57600080fd5b50356001600160a01b03166200085b565b604080519115158252519081900360200190f35b62000363600480360360408110156200034a57600080fd5b506001600160a01b038135811691602001351662000926565b005b620002e3600480360360208110156200037d57600080fd5b5035620009ef565b62000363600480360360408110156200039d57600080fd5b50803590602001356001600160a01b031662000a04565b620002e362000a72565b6200036360048036036040811015620003d657600080fd5b50803590602001356001600160a01b031662000aa7565b62000363600480360360208110156200040557600080fd5b503562000b0e565b6200036360048036036101008110156200042657600080fd5b506001600160a01b03813581169160208101359162ffffff6040830135811692606081013590911691608082013560030b9160a08101359160c08201359160e001351662000c1a565b62000363600480360360408110156200048757600080fd5b506001600160a01b03813516906020013562000cb4565b6200036360048036036020811015620004b657600080fd5b503562000dc9565b620004c862000e47565b60408051602080825283518183015283519192839290830191858101910280838360005b8381101562000506578181015183820152602001620004ec565b505050509050019250505060405180910390f35b620002e362000e62565b6200052e62000e97565b604080516001600160a01b039092168252519081900360200190f35b6200036362000ea6565b6200036360048036036101008110156200056d57600080fd5b506001600160a01b03813581169160208101359162ffffff6040830135811692606081013590911691608082013560030b9160a08101359160c08201359160e001351662000f6a565b620002e362001174565b6200031e60048036036020811015620005d857600080fd5b50356001600160a01b0316620011a9565b62000363600480360360408110156200060157600080fd5b506001600160a01b03813516906020013560030b620011ea565b62000363600480360360208110156200063357600080fd5b5035620012d2565b620002e36200137a565b6200052e620013af565b6200052e600480360360408110156200066757600080fd5b5080359060200135620013be565b6200031e600480360360408110156200068d57600080fd5b50803590602001356001600160a01b0316620013e5565b620002e362001405565b620002e36200143a565b6200052e6200143f565b6200036360048036036020811015620006da57600080fd5b50356200144e565b6200036360048036036040811015620006fa57600080fd5b506001600160a01b038135169060200135620015b1565b620002e36200167b565b620002e3600480360360208110156200073357600080fd5b5035620016a5565b620004c8600480360360208110156200075357600080fd5b50356001600160a01b0316620016be565b62000363600480360360408110156200077c57600080fd5b50803590602001356001600160a01b0316620017d9565b6200052e60048036036020811015620007ab57600080fd5b503562001837565b620007bd6200185f565b6040805162ffffff9092168252519081900360200190f35b6200036360048036036020811015620007ed57600080fd5b503562ffffff166200186a565b62000363600480360360208110156200081257600080fd5b50356001600160a01b031662001929565b62000363600480360360408110156200083b57600080fd5b506001600160a01b03813516906020013560030b62001a45565b60025481565b604080517f524541445f53545544454e545f4c4953545f524f4c450000000000000000000081529051908190036016019020600090620008a5906200089f62001b10565b620013e5565b620008e25760405162461bcd60e51b81526004018080602001828103825260368152602001806200a1256036913960400191505060405180910390fd5b604080517f53545544454e545f4944454e544954595f524f4c45000000000000000000000081529051908190036015019020620009209083620013e5565b92915050565b604080517f434c415353524f4f4d5f50524f464553534f525f524f4c4500000000000000008152905190819003601801902062000967906200089f62001b10565b620009a45760405162461bcd60e51b81526004018080602001828103825260388152602001806200a2986038913960400191505060405180910390fd5b6001600160a01b03918216600090815260066020908152604082208054600181018255908352912001805473ffffffffffffffffffffffffffffffffffffffff191691909216179055565b60009081526001602052604090206002015490565b60008281526001602052604090206002015462000a25906200089f62001b10565b62000a625760405162461bcd60e51b815260040180806020018281038252602f8152602001806200a0f6602f913960400191505060405180910390fd5b62000a6e828262001b14565b5050565b604080517f53545544454e545f4944454e544954595f524f4c4500000000000000000000008152905190819003601501902081565b62000ab162001b10565b6001600160a01b0316816001600160a01b03161462000b025760405162461bcd60e51b815260040180806020018281038252602f8152602001806200a329602f913960400191505060405180910390fd5b62000a6e828262001b88565b604080517146554e44535f4d414e414745525f524f4c4560701b8152905190819003601201902062000b44906200089f62001b10565b62000b815760405162461bcd60e51b81526004018080602001828103825260328152602001806200a1816032913960400191505060405180910390fd5b600854604080517f852a12e30000000000000000000000000000000000000000000000000000000081526004810184905290516001600160a01b039092169163852a12e3916024808201926020929091908290030181600087803b15801562000be957600080fd5b505af115801562000bfe573d6000803e3d6000fd5b505050506040513d602081101562000c1557600080fd5b505050565b604080517f434c4153534c4953545f41444d494e5f524f4c450000000000000000000000008152905190819003601401902062000c5b906200089f62001b10565b62000c985760405162461bcd60e51b81526004018080602001828103825260348152602001806200a20e6034913960400191505060405180910390fd5b62000caa888888888888888862001bfc565b5050505050505050565b604080517146554e44535f4d414e414745525f524f4c4560701b8152905190819003601201902062000cea906200089f62001b10565b62000d275760405162461bcd60e51b81526004018080602001828103825260328152602001806200a1816032913960400191505060405180910390fd5b600954604080517fa9059cbb0000000000000000000000000000000000000000000000000000000081526001600160a01b038581166004830152602482018590529151919092169163a9059cbb9160448083019260209291908290030181600087803b15801562000d9757600080fd5b505af115801562000dac573d6000803e3d6000fd5b505050506040513d602081101562000dc357600080fd5b50505050565b6006600062000dd762001b10565b6001600160a01b031681526020810191909152604001600020541562000e2f5760405162461bcd60e51b81526004018080602001828103825260268152602001806200a1b36026913960400191505060405180910390fd5b62000e448162000e3e62001b10565b62001e5b565b50565b606062000e5d62000e5762001b10565b620016be565b905090565b604080517f4752414e54535f4d414e414745525f524f4c45000000000000000000000000008152905190819003601301902081565b6008546001600160a01b031681565b62000eb062001b10565b6000546001600160a01b0390811691161462000f13576040805162461bcd60e51b815260206004820181905260248201527f4f776e61626c653a2063616c6c6572206973206e6f7420746865206f776e6572604482015290519081900360640190fd5b600080546040516001600160a01b03909116907f8be0079c531659141344cd1fd0a4f28419497f9722a3daafe3b4186f6b6457e0908390a36000805473ffffffffffffffffffffffffffffffffffffffff19169055565b604080517f53545544454e545f4944454e544954595f524f4c4500000000000000000000008152905190819003601501902062000fab906200089f62001b10565b62000fe85760405162461bcd60e51b81526004018080602001828103825260358152602001806200a2426035913960400191505060405180910390fd5b62000ffd62000ff662001b10565b8962001ff0565b6200103a5760405162461bcd60e51b81526004018080602001828103825260358152602001806200a1d96035913960400191505060405180910390fd5b6000889050806001600160a01b0316636587b61e6040518163ffffffff1660e01b815260040160206040518083038186803b1580156200107957600080fd5b505afa1580156200108e573d6000803e3d6000fd5b505050506040513d6020811015620010a557600080fd5b5051600314620010e75760405162461bcd60e51b81526004018080602001828103825260298152602001806200a3006029913960400191505060405180910390fd5b62001169620010f562001b10565b6001600160a01b0316638da5cb5b6040518163ffffffff1660e01b815260040160206040518083038186803b1580156200112e57600080fd5b505afa15801562001143573d6000803e3d6000fd5b505050506040513d60208110156200115a57600080fd5b50518989898989898962001bfc565b505050505050505050565b604080517f434c4153534c4953545f41444d494e5f524f4c450000000000000000000000008152905190819003601401902081565b604080517f434c415353524f4f4d5f50524f464553534f525f524f4c45000000000000000081529051908190036018019020600090620009209083620013e5565b604080517f434c415353524f4f4d5f50524f464553534f525f524f4c450000000000000000815290519081900360180190206200122b906200089f62001b10565b620012685760405162461bcd60e51b81526004018080602001828103825260388152602001806200a2986038913960400191505060405180910390fd5b816001600160a01b031663aa4f38c7826040518263ffffffff1660e01b8152600401808260030b60030b8152602001915050600060405180830381600087803b158015620012b557600080fd5b505af1158015620012ca573d6000803e3d6000fd5b505050505050565b620012dc62001b10565b6000546001600160a01b039081169116146200133f576040805162461bcd60e51b815260206004820181905260248201527f4f776e61626c653a2063616c6c6572206973206e6f7420746865206f776e6572604482015290519081900360640190fd5b60028190556040805182815290517f9f8929be552430dd6434c446d106c34954b2040ca8c4dbf42a39323dd6cda3ca9181900360200190a150565b604080517f434c415353524f4f4d5f50524f464553534f525f524f4c4500000000000000008152905190819003601801902081565b6000546001600160a01b031690565b6000828152600160205260408120620013de908363ffffffff6200207916565b9392505050565b6000828152600160205260408120620013de908363ffffffff6200208716565b604080517f524541445f53545544454e545f4c4953545f524f4c45000000000000000000008152905190819003601601902081565b600081565b6009546001600160a01b031681565b604080517146554e44535f4d414e414745525f524f4c4560701b8152905190819003601201902062001484906200089f62001b10565b620014c15760405162461bcd60e51b81526004018080602001828103825260328152602001806200a1816032913960400191505060405180910390fd5b6009546008546040805163095ea7b360e01b81526001600160a01b039283166004820152602481018590529051919092169163095ea7b39160448083019260209291908290030181600087803b1580156200151b57600080fd5b505af115801562001530573d6000803e3d6000fd5b505050506040513d60208110156200154757600080fd5b5050600854604080517fa0712d680000000000000000000000000000000000000000000000000000000081526004810184905290516001600160a01b039092169163a0712d68916024808201926020929091908290030181600087803b15801562000be957600080fd5b604080517146554e44535f4d414e414745525f524f4c4560701b81529051908190036012019020620015e7906200089f62001b10565b620016245760405162461bcd60e51b81526004018080602001828103825260328152602001806200a1816032913960400191505060405180910390fd5b6009546040805163095ea7b360e01b81526001600160a01b038581166004830152602482018590529151919092169163095ea7b39160448083019260209291908290030181600087803b15801562000d9757600080fd5b604080517146554e44535f4d414e414745525f524f4c4560701b8152905190819003601201902081565b600081815260016020526040812062000920906200209e565b6060620016ca62001b10565b6001600160a01b0316826001600160a01b03161480620017265750604080517f4752414e54535f4d414e414745525f524f4c45000000000000000000000000008152905190819003601301902062001726906200089f62001b10565b620017635760405162461bcd60e51b81526004018080602001828103825260218152602001806200a2776021913960400191505060405180910390fd5b6001600160a01b03821660009081526006602090815260409182902080548351818402810184019094528084529091830182828015620017cd57602002820191906000526020600020905b81546001600160a01b03168152600190910190602001808311620017ae575b50505050509050919050565b600082815260016020526040902060020154620017fa906200089f62001b10565b62000b025760405162461bcd60e51b81526004018080602001828103825260308152602001806200a2d06030913960400191505060405180910390fd5b600481815481106200184557fe5b6000918252602090912001546001600160a01b0316905081565b60035462ffffff1681565b6200187462001b10565b6000546001600160a01b03908116911614620018d7576040805162461bcd60e51b815260206004820181905260248201527f4f776e61626c653a2063616c6c6572206973206e6f7420746865206f776e6572604482015290519081900360640190fd5b6003805462ffffff191662ffffff838116919091179182905560408051929091168252517f1add5f7de244142e10bca375bb84823e3c24ddac2c2ec678f35c007d8f02084d916020908290030190a150565b6200193362001b10565b6000546001600160a01b0390811691161462001996576040805162461bcd60e51b815260206004820181905260248201527f4f776e61626c653a2063616c6c6572206973206e6f7420746865206f776e6572604482015290519081900360640190fd5b6001600160a01b038116620019dd5760405162461bcd60e51b81526004018080602001828103825260268152602001806200a15b6026913960400191505060405180910390fd5b600080546040516001600160a01b03808516939216917f8be0079c531659141344cd1fd0a4f28419497f9722a3daafe3b4186f6b6457e091a36000805473ffffffffffffffffffffffffffffffffffffffff19166001600160a01b0392909216919091179055565b604080517f434c415353524f4f4d5f50524f464553534f525f524f4c4500000000000000008152905190819003601801902062001a86906200089f62001b10565b62001ac35760405162461bcd60e51b81526004018080602001828103825260388152602001806200a2986038913960400191505060405180910390fd5b816001600160a01b03166368651350826040518263ffffffff1660e01b8152600401808260030b60030b8152602001915050600060405180830381600087803b158015620012b557600080fd5b3390565b600082815260016020526040902062001b34908263ffffffff620020ab16565b1562000a6e5762001b4462001b10565b6001600160a01b0316816001600160a01b0316837f2f8788117e7eff1d82e926ec794901d17c78024a50270940304540a733656f0d60405160405180910390a45050565b600082815260016020526040902062001ba8908263ffffffff620020c216565b1562000a6e5762001bb862001b10565b6001600160a01b0316816001600160a01b0316837ff6391f5c32d9c69d2a47ea670b442974b53935d1edc7fd64eb21e047a839171b60405160405180910390a45050565b60008787878787873088600960009054906101000a90046001600160a01b0316600860009054906101000a90046001600160a01b031660405162001c409062002277565b998a5262ffffff98891660208b0152969097166040808a0191909152600395860b90950b6060890152608088019390935260a08701919091526001600160a01b0390811660c087015290811660e08601529283166101008501529116610120830152519081900361014001906000f08015801562001cc2573d6000803e3d6000fd5b509050806001600160a01b031663f2fde38b8a6040518263ffffffff1660e01b815260040180826001600160a01b03166001600160a01b03168152602001915050600060405180830381600087803b15801562001d1e57600080fd5b505af115801562001d33573d6000803e3d6000fd5b5050600480546001810182556000919091527f8a35acfbc15ff81a39ae7d344fd709f28e8600b4aa8c65c6b64bfe7fe36bd19b0180546001600160a01b03851673ffffffffffffffffffffffffffffffffffffffff199091161790555050604080517f524541445f53545544454e545f4c4953545f524f4c45000000000000000000008152905190819003601601902062001dcf908262000a04565b604080517f434c415353524f4f4d5f50524f464553534f525f524f4c4500000000000000008152905190819003601801902062001e0d908262000a04565b604080518981526001600160a01b038316602082015281517f0e2441b756c0237af490768eeb52214bde66464d79756f8ac3c03b10c9528b3c929181900390910190a1505050505050505050565b6001600160a01b03811660009081526006602090815260408083208054600181018255908452918320909101805473ffffffffffffffffffffffffffffffffffffffff19169055518390309062001eb29062002285565b9182526001600160a01b03166020820152604080519182900301906000f08015801562001ee3573d6000803e3d6000fd5b509050806001600160a01b031663f2fde38b836040518263ffffffff1660e01b815260040180826001600160a01b03166001600160a01b03168152602001915050600060405180830381600087803b15801562001f3f57600080fd5b505af115801562001f54573d6000803e3d6000fd5b5050600580546001810182556000919091527f036b6384b5eca791c62761152d0c79bb0604c104a5fb6f4eb0703f3154bb3db00180546001600160a01b03851673ffffffffffffffffffffffffffffffffffffffff199091161790555050604080517f53545544454e545f4944454e544954595f524f4c4500000000000000000000008152905190819003601501902062000c15908262000a04565b6000805b6001600160a01b0384166000908152600660205260409020548110156200206f576001600160a01b038481166000908152600660205260409020805491851691839081106200203f57fe5b6000918252602090912001546001600160a01b031614156200206657600191505062000920565b60010162001ff4565b5060009392505050565b6000620013de8383620020d9565b6000620013de836001600160a01b03841662002140565b6000620009208262002158565b6000620013de836001600160a01b0384166200215c565b6000620013de836001600160a01b038416620021ab565b815460009082106200211d5760405162461bcd60e51b81526004018080602001828103825260228152602001806200a0d46022913960400191505060405180910390fd5b8260000182815481106200212d57fe5b9060005260206000200154905092915050565b60009081526001919091016020526040902054151590565b5490565b60006200216a838362002140565b620021a25750815460018181018455600084815260208082209093018490558454848252828601909352604090209190915562000920565b50600062000920565b600081815260018301602052604081205480156200226c5783546000198083019190810190600090879083908110620021e057fe5b9060005260206000200154905080876000018481548110620021fe57fe5b6000918252602080832090910192909255828152600189810190925260409020908401905586548790806200222f57fe5b6001900381819060005260206000200160009055905586600101600087815260200190815260200160002060009055600194505050505062000920565b600091505062000920565b615f92806200229483390190565b611eae80620082268339019056fe608060405260016005553480156200001657600080fd5b5060405162005f9238038062005f9283398181016040526101408110156200003d57600080fd5b508051602082015160408301516060840151608085015160a086015160c087015160e088015161010089015161012090990151979896979596949593949293919290916000620000956001600160e01b03620001a916565b600080546001600160a01b0319166001600160a01b0383169081178255604051929350917f8be0079c531659141344cd1fd0a4f28419497f9722a3daafe3b4186f6b6457e0908290a35060108a90556011805462ffffff191662ffffff8b81169190911765ffffff00000019166301000000918b16919091021763ffffffff60301b1916660100000000000063ffffffff60038b900b16021790556012869055601385905560078054601680546001600160a01b03199081166001600160a01b03888116919091179092559182168782161762ff00ff60a01b19169092556014805482168584161790556015805490911691831691909117905562000199620001ad565b5050505050505050505062000648565b3390565b620001b7620005f7565b601854620001d7903063100b510360e11b6001600160e01b036200020616565b60175460195491925062000202916001600160a01b039091169083906001600160e01b036200024116565b5050565b62000210620005f7565b6200021a620005f7565b62000238858585846200042b60201b620039bd17909392919060201c565b95945050505050565b6005546040805130606090811b60208084019190915260348084018690528451808503909101815260549093018452825192810192909220908601939093526000838152600690915281812080546001600160a01b0319166001600160a01b038816179055905182917fb5e6e01e79f91267dc17b4e6314d5d4d03593d2ceee0fbb452b750bd70ea5af991a26003546001600160a01b0316634000aea08584620002f4876001600160e01b036200047716565b6040518463ffffffff1660e01b815260040180846001600160a01b03166001600160a01b0316815260200183815260200180602001828103825283818151815260200191508051906020019080838360005b838110156200036057818101518382015260200162000346565b50505050905090810190601f1680156200038e5780820380516001836020036101000a031916815260200191505b50945050505050602060405180830381600087803b158015620003b057600080fd5b505af1158015620003c5573d6000803e3d6000fd5b505050506040513d6020811015620003dc57600080fd5b50516200041b5760405162461bcd60e51b815260040180806020018281038252602381526020018062005f6f6023913960400191505060405180910390fd5b6005805460010190559392505050565b62000435620005f7565b620004528560800151610100620005ba60201b62003baf1760201c565b50509183526001600160a01b031660208301526001600160e01b031916604082015290565b6060634042994660e01b6000808460000151856020015186604001518760600151600189608001516000015160405160240180896001600160a01b03166001600160a01b03168152602001888152602001878152602001866001600160a01b03166001600160a01b03168152602001856001600160e01b0319166001600160e01b031916815260200184815260200183815260200180602001828103825283818151815260200191508051906020019080838360005b83811015620005475781810151838201526020016200052d565b50505050905090810190601f168015620005755780820380516001836020036101000a031916815260200191505b5060408051601f198184030181529190526020810180516001600160e01b03166001600160e01b0319909d169c909c17909b5250989950505050505050505050919050565b620005c46200062e565b6020820615620005da5760208206602003820191505b506020828101829052604080518085526000815290920101905290565b6040805160a081018252600080825260208201819052918101829052606081019190915260808101620006296200062e565b905290565b604051806040016040528060608152602001600081525090565b61591780620006586000396000f3fe60806040523480156200001157600080fd5b5060043610620003105760003560e01c80637c0260cb11620001a1578063ae12894e11620000ed578063e804f1641162000099578063f745adfc116200007b578063f745adfc1462000658578063f87c5cb11462000662578063fe7da9e914620006ad5762000310565b8063e804f164146200060a578063f2fde38b146200062f5762000310565b8063bbe3b92611620000cf578063bbe3b92614620005ec578063be22f54614620005f6578063dfd78adc14620006005762000310565b8063ae12894e14620005c2578063b594f08614620005cc5762000310565b8063a3f73c2d116200014d578063aa055a40116200012f578063aa055a4014620005a4578063ada02e1914620005ae578063adf45ef214620005b85762000310565b8063a3f73c2d1462000571578063a46268a8146200059a5762000310565b80638646bcec11620001835780638646bcec146200053d578063898855ed14620005475780638da5cb5b14620005675762000310565b80637c0260cb146200050e5780638155e97714620005185762000310565b8063431a16ef116200026157806369e527da116200020d5780636e8055a711620001ef5780636e8055a714620004d1578063715018a614620004db57806376eada9114620004e55762000310565b806369e527da146200046b57806369e7af4314620004755762000310565b80634ffb660c11620002435780634ffb660c146200041c5780635aa33a2d146200043f578063604d394314620004495762000310565b8063431a16ef14620004085780634c5e789314620004125762000310565b806313c2bedc11620002c15780632016a20611620002a35780632016a20614620003ce5780633196002714620003f45780633bcd97d414620003fe5762000310565b806313c2bedc14620003a15780631b9dbc6014620003c45762000310565b80630aab456911620002f75780630aab456914620003575780630b78cb0e14620003795780630fb5a6b414620003975762000310565b806306fdde03146200031557806309ea165d1462000331575b600080fd5b6200031f620006cd565b60408051918252519081900360200190f35b6200033b620006d3565b604080516001600160a01b039092168252519081900360200190f35b62000377600480360360208110156200036f57600080fd5b5035620006e2565b005b62000383620007c4565b604080519115158252519081900360200190f35b6200031f620007d4565b620003ab620007da565b60408051600392830b90920b8252519081900360200190f35b62000377620007ed565b6200037760048036036040811015620003e657600080fd5b508035906020013562000aaa565b6200037762000b61565b6200038362000ca2565b6200037762000cc4565b6200037762000e39565b62000377600480360360208110156200043457600080fd5b503560030b62000fb2565b6200038362001093565b62000453620010a3565b6040805162ffffff9092168252519081900360200190f35b6200033b620010b5565b6200047f620010c4565b60408051602080825283518183015283519192839290830191858101910280838360005b83811015620004bd578181015183820152602001620004a3565b505050509050019250505060405180910390f35b6200033b62001184565b620003776200119f565b6200033b60048036036020811015620004fd57600080fd5b50356001600160a01b031662001245565b62000377620012f0565b62000377600480360360208110156200053057600080fd5b503562ffffff16620013e9565b6200045362001497565b62000377600480360360208110156200055f57600080fd5b5035620014a2565b6200033b62001539565b62000377600480360360208110156200058957600080fd5b50356001600160a01b031662001548565b6200038362001645565b6200037762001668565b6200037762001834565b6200038362001a54565b6200033b62001a5c565b6200037760048036036020811015620005e457600080fd5b503562001a6b565b6200037762001b02565b6200033b62001d2b565b6200047f62001d3a565b62000377600480360360208110156200062257600080fd5b503562ffffff1662001df8565b62000377600480360360208110156200064757600080fd5b50356001600160a01b031662001eb4565b6200031f62001fb2565b62000377600480360360c08110156200067a57600080fd5b506001600160a01b03813581169160208101359160408201359160608101359091169060808101359060a0013562001fb8565b6200037760048036036020811015620006c557600080fd5b503562002057565b60105481565b6016546001600160a01b031681565b60008181526006602052604090205481906001600160a01b031633146200073b5760405162461bcd60e51b8152600401808060200182810382526028815260200180620058ba6028913960400191505060405180910390fd5b60008181526006602052604080822080546001600160a01b03191690555182917f7cc135e0cebb02c3480ae5d74d377283180a2601f8f644edf7987b009316c63a91a25050600780547fffffffffffffffff00ffffffffffffffffffffffffffffffffffffffffffffff1677010000000000000000000000000000000000000000000000179055565b600754600160a01b900460ff1681565b60135481565b6011546601000000000000900460030b81565b620007f762001539565b6001600160a01b03166200080a620020ee565b6001600160a01b03161415620008525760405162461bcd60e51b815260040180806020018281038252602d81526020018062005760602d913960400191505060405180910390fd5b6007546001600160a01b03166316ded1ce6200086d620020ee565b6040518263ffffffff1660e01b815260040180826001600160a01b03166001600160a01b0316815260200191505060206040518083038186803b158015620008b457600080fd5b505afa158015620008c9573d6000803e3d6000fd5b505050506040513d6020811015620008e057600080fd5b50516200091f5760405162461bcd60e51b81526004018080602001828103825260248152602001806200586c6024913960400191505060405180910390fd5b600754600160a01b900460ff166200097e576040805162461bcd60e51b815260206004820152601e60248201527f436c617373726f6f6d3a206170706c69636174696f6e7320636c6f7365640000604482015290519081900360640190fd5b60006200098a620020ee565b9050601160069054906101000a900460030b60030b816001600160a01b031663efedc6696040518163ffffffff1660e01b815260040160206040518083038186803b158015620009d957600080fd5b505afa158015620009ee573d6000803e3d6000fd5b505050506040513d602081101562000a0557600080fd5b505160030b121562000a495760405162461bcd60e51b815260040180806020018281038252602c81526020018062005685602c913960400191505060405180910390fd5b600062000a5682620020f2565b600880546001810182556000919091527ff3f7a9fe364faab93b216da50a3214154f22a0a2b415b23a84c8169e8b636ee30180546001600160a01b0319166001600160a01b03929092169190911790555050565b60008281526006602052604090205482906001600160a01b0316331462000b035760405162461bcd60e51b8152600401808060200182810382526028815260200180620058ba6028913960400191505060405180910390fd5b60008181526006602052604080822080546001600160a01b03191690555182917f7cc135e0cebb02c3480ae5d74d377283180a2601f8f644edf7987b009316c63a91a262000b5182620022b1565b8051602090910120600f55505050565b62000b6b620020ee565b6000546001600160a01b0390811691161462000bbd576040805162461bcd60e51b81526020600482018190526024820152600080516020620057f8833981519152604482015290519081900360640190fd5b600754600160a01b900460ff161562000c085760405162461bcd60e51b815260040180806020018281038252602a81526020018062005890602a913960400191505060405180910390fd5b6008541562000c495760405162461bcd60e51b81526004018080602001828103825260228152602001806200573e6022913960400191505060405180910390fd5b600780547fffffffffffffffffffffff00ffffffffffffffffffffffffffffffffffffffff16600160a01b1790556040517fa5d188159e8a15dc503f9fde55e9da14c8b2ca589603e2567481c0ef90b7972090600090a1565b60095460085460009162000cbd919063ffffffff620022db16565b1590505b90565b62000cce620020ee565b6000546001600160a01b0390811691161462000d20576040805162461bcd60e51b81526020600482018190526024820152600080516020620057f8833981519152604482015290519081900360640190fd5b60075477010000000000000000000000000000000000000000000000900460ff1662000d7e5760405162461bcd60e51b8152600401808060200182810382526024815260200180620057ae6024913960400191505060405180910390fd5b60095462000dd3576040805162461bcd60e51b815260206004820152601a60248201527f436c617373726f6f6d3a206e6f206170706c69636174696f6e73000000000000604482015290519081900360640190fd5b62000ddd6200233f565b600e55600780547fffffffffffffffffffff00ffffffffffffffffffffffffffffffffffffffffff16600160a81b1790556040517fadfcc9bbc47b33710f82544eeff8bd0f98c6f78f190e915bd81f4a9dacfdc77790600090a1565b62000e43620020ee565b6000546001600160a01b0390811691161462000e95576040805162461bcd60e51b81526020600482018190526024820152600080516020620057f8833981519152604482015290519081900360640190fd5b6014546001600160a01b03166323b872dd3062000eb162001539565b601454604080516370a0823160e01b815230600482015290516001600160a01b03909216916370a0823191602480820192602092909190829003018186803b15801562000efd57600080fd5b505afa15801562000f12573d6000803e3d6000fd5b505050506040513d602081101562000f2957600080fd5b5051604080516001600160e01b031960e087901b1681526001600160a01b0394851660048201529290931660248301526044820152905160648083019260209291908290030181600087803b15801562000f8257600080fd5b505af115801562000f97573d6000803e3d6000fd5b505050506040513d602081101562000fae57600080fd5b5050565b62000fbc620020ee565b6000546001600160a01b039081169116146200100e576040805162461bcd60e51b81526020600482018190526024820152600080516020620057f8833981519152604482015290519081900360640190fd5b60118054600383810b63ffffffff1666010000000000009081027fffffffffffffffffffffffffffffffffffffffffffff00000000ffffffffffff90931692909217928390556040805192909304810b810b900b815290517f258981eaba02423980e2973ff2ae3bbbba3cc807a5b73faf8f0b068dd7b2af649181900360200190a150565b600754600160a81b900460ff1681565b6011546301000000900462ffffff1681565b6015546001600160a01b031681565b6060620010d0620020ee565b6000546001600160a01b0390811691161462001122576040805162461bcd60e51b81526020600482018190526024820152600080516020620057f8833981519152604482015290519081900360640190fd5b600b8054806020026020016040519081016040528092919081815260200182805480156200117a57602002820191906000526020600020905b81546001600160a01b031681526001909101906020018083116200115b575b5050505050905090565b60006200119a62001194620020ee565b62001245565b905090565b620011a9620020ee565b6000546001600160a01b03908116911614620011fb576040805162461bcd60e51b81526020600482018190526024820152600080516020620057f8833981519152604482015290519081900360640190fd5b600080546040516001600160a01b03909116907f8be0079c531659141344cd1fd0a4f28419497f9722a3daafe3b4186f6b6457e0908390a3600080546001600160a01b0319169055565b600062001251620020ee565b6001600160a01b0316826001600160a01b031614806200129457506200127662001539565b6001600160a01b031662001289620020ee565b6001600160a01b0316145b620012d15760405162461bcd60e51b81526004018080602001828103825260218152602001806200571d6021913960400191505060405180910390fd5b506001600160a01b039081166000908152600a60205260409020541690565b620012fa620020ee565b6000546001600160a01b039081169116146200134c576040805162461bcd60e51b81526020600482018190526024820152600080516020620057f8833981519152604482015290519081900360640190fd5b600754600160a01b900460ff16620013965760405162461bcd60e51b815260040180806020018281038252602a81526020018062005842602a913960400191505060405180910390fd5b600780547fffffffffffffffffffffff00ffffffffffffffffffffffffffffffffffffffff1690556040517f747a4734f50e3ae237b3afeeac30a2d2c7cb965cc122fb9680050fd533b7c0f590600090a1565b620013f3620020ee565b6000546001600160a01b0390811691161462001445576040805162461bcd60e51b81526020600482018190526024820152600080516020620057f8833981519152604482015290519081900360640190fd5b6011805462ffffff191662ffffff838116919091179182905560408051929091168252517fa24cdd22388a51f932026d20d3229c1d693385bb9ac176742e0e40b4586c2447916020908290030190a150565b60115462ffffff1681565b620014ac620020ee565b6000546001600160a01b03908116911614620014fe576040805162461bcd60e51b81526020600482018190526024820152600080516020620057f8833981519152604482015290519081900360640190fd5b60108190556040805182815290517f9f8929be552430dd6434c446d106c34954b2040ca8c4dbf42a39323dd6cda3ca9181900360200190a150565b6000546001600160a01b031690565b62001552620020ee565b6000546001600160a01b03908116911614620015a4576040805162461bcd60e51b81526020600482018190526024820152600080516020620057f8833981519152604482015290519081900360640190fd5b620015ae62000ca2565b620015eb5760405162461bcd60e51b8152600401808060200182810382526025815260200180620056b16025913960400191505060405180910390fd5b601680546001600160a01b0319166001600160a01b03838116919091179182905560408051929091168252517fdc58b28697ffd1bd5879b16631587874caec982b482d7ed05df69a5302f6e018916020908290030190a150565b600754760100000000000000000000000000000000000000000000900460ff1681565b62001672620020ee565b6000546001600160a01b03908116911614620016c4576040805162461bcd60e51b81526020600482018190526024820152600080516020620057f8833981519152604482015290519081900360640190fd5b600754600160a81b900460ff1662001723576040805162461bcd60e51b815260206004820152601e60248201527f436c617373726f6f6d3a20636f75727365206e6f742066696e69736865640000604482015290519081900360640190fd5b601454604080516370a0823160e01b815230600482015290516001600160a01b03909216916370a0823191602480820192602092909190829003018186803b1580156200176f57600080fd5b505afa15801562001784573d6000803e3d6000fd5b505050506040513d60208110156200179b57600080fd5b5051600e541115620017df5760405162461bcd60e51b8152600401808060200182810382526024815260200180620056f96024913960400191505060405180910390fd5b600080620017ec62002477565b915091506000606062001800848462002651565b915091506200180f8162002ccb565b6200181a8262002dd7565b6200182462002e4a565b6200182e62003320565b50505050565b6200183e620020ee565b6000546001600160a01b0390811691161462001890576040805162461bcd60e51b81526020600482018190526024820152600080516020620057f8833981519152604482015290519081900360640190fd5b601454604080516370a0823160e01b815230600482015290516000926001600160a01b0316916370a08231916024808301926020929190829003018186803b158015620018dc57600080fd5b505afa158015620018f1573d6000803e3d6000fd5b505050506040513d60208110156200190857600080fd5b505190508062001919575062001a52565b601454601554604080517f095ea7b30000000000000000000000000000000000000000000000000000000081526001600160a01b039283166004820152602481018590529051919092169163095ea7b39160448083019260209291908290030181600087803b1580156200198c57600080fd5b505af1158015620019a1573d6000803e3d6000fd5b505050506040513d6020811015620019b857600080fd5b5050601554604080517fa0712d680000000000000000000000000000000000000000000000000000000081526004810184905290516001600160a01b039092169163a0712d68916024808201926020929091908290030181600087803b15801562001a2257600080fd5b505af115801562001a37573d6000803e3d6000fd5b505050506040513d602081101562001a4e57600080fd5b5050505b565b600954151590565b6007546001600160a01b031681565b62001a75620020ee565b6000546001600160a01b0390811691161462001ac7576040805162461bcd60e51b81526020600482018190526024820152600080516020620057f8833981519152604482015290519081900360640190fd5b60138190556040805182815290517fa67f34afb53d068e81607cde52dc74c58cbf6a05eac699e5543b97d25e3ca5cb9181900360200190a150565b62001b0c620020ee565b6000546001600160a01b0390811691161462001b5e576040805162461bcd60e51b81526020600482018190526024820152600080516020620057f8833981519152604482015290519081900360640190fd5b600754600160a01b900460ff161562001ba95760405162461bcd60e51b8152600401808060200182810382526026815260200180620057d26026913960400191505060405180910390fd5b601454604080516370a0823160e01b815230600482015290516001600160a01b03909216916370a0823191602480820192602092909190829003018186803b15801562001bf557600080fd5b505afa15801562001c0a573d6000803e3d6000fd5b505050506040513d602081101562001c2157600080fd5b50511562001c615760405162461bcd60e51b815260040180806020018281038252602a81526020018062005818602a913960400191505060405180910390fd5b62001c6b62003381565b604080516000815260208101918290525162001c8a9160089162003f0d565b5060095462001ce0576040805162461bcd60e51b815260206004820152601f60248201527f436c617373726f6f6d3a206e6f207265616479206170706c69636174696f6e00604482015290519081900360640190fd5b600780547fffffffffffffffffff00ffffffffffffffffffffffffffffffffffffffffffff1676010000000000000000000000000000000000000000000017905562001a526200358b565b6014546001600160a01b031681565b606062001d46620020ee565b6000546001600160a01b0390811691161462001d98576040805162461bcd60e51b81526020600482018190526024820152600080516020620057f8833981519152604482015290519081900360640190fd5b600c8054806020026020016040519081016040528092919081815260200182805480156200117a576020028201919060005260206000209081546001600160a01b031681526001909101906020018083116200115b575050505050905090565b62001e02620020ee565b6000546001600160a01b0390811691161462001e54576040805162461bcd60e51b81526020600482018190526024820152600080516020620057f8833981519152604482015290519081900360640190fd5b6011805462ffffff808416630100000090810265ffffff000000199093169290921792839055604080519290930416815290517f9d9f9ef51b12eb719684b7a2e09fc2f7e916cb0e229aecf5658ce6326dfeb1c59181900360200190a150565b62001ebe620020ee565b6000546001600160a01b0390811691161462001f10576040805162461bcd60e51b81526020600482018190526024820152600080516020620057f8833981519152604482015290519081900360640190fd5b6001600160a01b03811662001f575760405162461bcd60e51b81526004018080602001828103825260268152602001806200565f6026913960400191505060405180910390fd5b600080546040516001600160a01b03808516939216917f8be0079c531659141344cd1fd0a4f28419497f9722a3daafe3b4186f6b6457e091a3600080546001600160a01b0319166001600160a01b0392909216919091179055565b60125481565b62001fc2620020ee565b6000546001600160a01b0390811691161462002014576040805162461bcd60e51b81526020600482018190526024820152600080516020620057f8833981519152604482015290519081900360640190fd5b601780546001600160a01b039788166001600160a01b031991821617909155601895909555601993909355601a8054929095169190931617909255601b55601c55565b62002061620020ee565b6000546001600160a01b03908116911614620020b3576040805162461bcd60e51b81526020600482018190526024820152600080516020620057f8833981519152604482015290519081900360640190fd5b60128190556040805182815290517f84e881bf3fcef92f709a2a62150da178a998fbff128c017f3e846787a2f7f5f59181900360200190a150565b3390565b6014546016546000918291849130916001600160a01b0391821691166200211862003634565b604051620021269062003f77565b6001600160a01b039586168152938516602085015291841660408085019190915293166060830152608082015290519081900360a001906000f08015801562002173573d6000803e3d6000fd5b506001600160a01b038481166000818152600a602052604080822080546001600160a01b03191686861690811790915560075482517f183b26000000000000000000000000000000000000000000000000000000000081526004810195909552602485019190915290519495509092169263183b26009260448084019391929182900301818387803b1580156200220957600080fd5b505af11580156200221e573d6000803e3d6000fd5b5050600b805460018181019092557f0175b7a638427703f0dbe7bb9bbf987a2551717b34e79f33b5b1008d1fa01db90180546001600160a01b038089166001600160a01b031992831617909255600c805493840181556000527fdf6966c971051c3d54ec59162606531493a51404a002842f56009d7e5cf4a8c79092018054918616919092161790555090915050919050565b60408051602080825281830190925260609160208201818036833750505060208101929092525090565b60008282018381101562002336576040805162461bcd60e51b815260206004820152601b60248201527f536166654d6174683a206164646974696f6e206f766572666c6f770000000000604482015290519081900360640190fd5b90505b92915050565b601554604080517f3af9e669000000000000000000000000000000000000000000000000000000008152306004820152905160009283926001600160a01b0390911691633af9e6699160248082019260209290919082900301818787803b158015620023aa57600080fd5b505af1158015620023bf573d6000803e3d6000fd5b505050506040513d6020811015620023d657600080fd5b5051601554604080517f852a12e30000000000000000000000000000000000000000000000000000000081526004810184905290519293506001600160a01b039091169163852a12e3916024808201926020929091908290030181600087803b1580156200244357600080fd5b505af115801562002458573d6000803e3d6000fd5b505050506040513d60208110156200246f57600080fd5b509091505090565b6000808080805b6009548110156200264757600981815481106200249757fe5b6000918252602082200154604080517f289cf0d200000000000000000000000000000000000000000000000000000000815290516001600160a01b039092169263289cf0d29260048084019382900301818387803b158015620024f957600080fd5b505af11580156200250e573d6000803e3d6000fd5b50505050600981815481106200252057fe5b60009182526020918290200154604080516332c3db0f60e11b815290516001600160a01b0390921692636587b61e92600480840193829003018186803b1580156200256a57600080fd5b505afa1580156200257f573d6000803e3d6000fd5b505050506040513d60208110156200259657600080fd5b505160031415620025a8576001909201915b60098181548110620025b657fe5b60009182526020918290200154604080516332c3db0f60e11b815290516001600160a01b0390921692636587b61e92600480840193829003018186803b1580156200260057600080fd5b505afa15801562002615573d6000803e3d6000fd5b505050506040513d60208110156200262c57600080fd5b5051600514156200263e576001909101905b6001016200247e565b5090925090509091565b6009546012546000916060918390620026869062002676908463ffffffff6200363e16565b600e549063ffffffff6200369c16565b601154601254919250600091620026bf91620f424091620026b29162ffffff1663ffffffff6200363e16565b9063ffffffff620036fa16565b90506000620026da826012546200369c90919063ffffffff16565b90506000620026f585620026b2868c63ffffffff6200363e16565b6011549091506000906200272190620f424090620026b29085906301000000900462ffffff166200363e565b905060006200273c8b620026b2888563ffffffff6200369c16565b905060608767ffffffffffffffff811180156200275857600080fd5b5060405190808252806020026020018201604052801562002783578160200160208202803683370190505b50905060005b8881101562002b0d5760098181548110620027a057fe5b60009182526020918290200154604080516332c3db0f60e11b815290516001600160a01b0390921692636587b61e92600480840193829003018186803b158015620027ea57600080fd5b505afa158015620027ff573d6000803e3d6000fd5b505050506040513d60208110156200281657600080fd5b505160031415620028ce57600981815481106200282f57fe5b600091825260208220015460408051637db9abaf60e01b8152600481018a90526024810187905290516001600160a01b0390921692637db9abaf9260448084019382900301818387803b1580156200288657600080fd5b505af11580156200289b573d6000803e3d6000fd5b50505050620028b48387620022db90919063ffffffff16565b828281518110620028c157fe5b6020026020010181815250505b60098181548110620028dc57fe5b60009182526020918290200154604080516332c3db0f60e11b815290516001600160a01b0390921692636587b61e92600480840193829003018186803b1580156200292657600080fd5b505afa1580156200293b573d6000803e3d6000fd5b505050506040513d60208110156200295257600080fd5b505160041415620029f657600981815481106200296b57fe5b600091825260208220015460408051637db9abaf60e01b8152600481018a90526024810184905290516001600160a01b0390921692637db9abaf9260448084019382900301818387803b158015620029c257600080fd5b505af1158015620029d7573d6000803e3d6000fd5b5050505085828281518110620029e957fe5b6020026020010181815250505b6009818154811062002a0457fe5b60009182526020918290200154604080516332c3db0f60e11b815290516001600160a01b0390921692636587b61e92600480840193829003018186803b15801562002a4e57600080fd5b505afa15801562002a63573d6000803e3d6000fd5b505050506040513d602081101562002a7a57600080fd5b50516005141562002b04576009818154811062002a9357fe5b600091825260208220015460408051637db9abaf60e01b8152600481018490526024810184905290516001600160a01b0390921692637db9abaf9260448084019382900301818387803b15801562002aea57600080fd5b505af115801562002aff573d6000803e3d6000fd5b505050505b60010162002789565b50600062002b276012548d6200363e90919063ffffffff16565b9050600062002bc7620f4240620026b2600760009054906101000a90046001600160a01b03166001600160a01b031663e6fd604c6040518163ffffffff1660e01b815260040160206040518083038186803b15801562002b8657600080fd5b505afa15801562002b9b573d6000803e3d6000fd5b505050506040513d602081101562002bb257600080fd5b5051889062ffffff1663ffffffff6200363e16565b9050600062002bdd8b8f63ffffffff6200369c16565b9050600062002c8e620f4240620026b2600760009054906101000a90046001600160a01b03166001600160a01b031663e6fd604c6040518163ffffffff1660e01b815260040160206040518083038186803b15801562002c3c57600080fd5b505afa15801562002c51573d6000803e3d6000fd5b505050506040513d602081101562002c6857600080fd5b505162ffffff1662002c818e8763ffffffff6200363e16565b9063ffffffff6200363e16565b905062002cb48162002ca7868663ffffffff620022db16565b9063ffffffff620022db16565b9d50939b5050505050505050505050509250929050565b60005b60095481101562000fae57600082828151811062002ce857fe5b6020026020010151111562002dce57601454600980546001600160a01b039092169163095ea7b391908490811062002d1c57fe5b9060005260206000200160009054906101000a90046001600160a01b031684848151811062002d4757fe5b60200260200101516040518363ffffffff1660e01b815260040180836001600160a01b03166001600160a01b0316815260200182815260200192505050602060405180830381600087803b15801562002d9f57600080fd5b505af115801562002db4573d6000803e3d6000fd5b505050506040513d602081101562002dcb57600080fd5b50505b60010162002cce565b601454600754604080517fa9059cbb0000000000000000000000000000000000000000000000000000000081526001600160a01b039283166004820152602481018590529051919092169163a9059cbb9160448083019260209291908290030181600087803b15801562001a2257600080fd5b60005b6009548110156200331d576009818154811062002e6657fe5b60009182526020918290200154604080516332c3db0f60e11b815290516001600160a01b0390921692636587b61e92600480840193829003018186803b15801562002eb057600080fd5b505afa15801562002ec5573d6000803e3d6000fd5b505050506040513d602081101562002edc57600080fd5b50516003141562002fec57600754600980546001600160a01b03909216916387bfe18891908490811062002f0c57fe5b600091825260209182902001546040805163b8f31a8160e01b815290516001600160a01b039092169263b8f31a8192600480840193829003018186803b15801562002f5657600080fd5b505afa15801562002f6b573d6000803e3d6000fd5b505050506040513d602081101562002f8257600080fd5b5051604080516001600160e01b031960e085901b1681526001600160a01b0390921660048301526001602483015251604480830192600092919082900301818387803b15801562002fd257600080fd5b505af115801562002fe7573d6000803e3d6000fd5b505050505b6009818154811062002ffa57fe5b60009182526020918290200154604080516332c3db0f60e11b815290516001600160a01b0390921692636587b61e92600480840193829003018186803b1580156200304457600080fd5b505afa15801562003059573d6000803e3d6000fd5b505050506040513d60208110156200307057600080fd5b5051600414156200318057600754600980546001600160a01b039092169163ff5d8f63919084908110620030a057fe5b600091825260209182902001546040805163b8f31a8160e01b815290516001600160a01b039092169263b8f31a8192600480840193829003018186803b158015620030ea57600080fd5b505afa158015620030ff573d6000803e3d6000fd5b505050506040513d60208110156200311657600080fd5b5051604080516001600160e01b031960e085901b1681526001600160a01b0390921660048301526001602483015251604480830192600092919082900301818387803b1580156200316657600080fd5b505af11580156200317b573d6000803e3d6000fd5b505050505b600981815481106200318e57fe5b60009182526020918290200154604080516332c3db0f60e11b815290516001600160a01b0390921692636587b61e92600480840193829003018186803b158015620031d857600080fd5b505afa158015620031ed573d6000803e3d6000fd5b505050506040513d60208110156200320457600080fd5b5051600514156200331457600754600980546001600160a01b039092169163ff5d8f639190849081106200323457fe5b600091825260209182902001546040805163b8f31a8160e01b815290516001600160a01b039092169263b8f31a8192600480840193829003018186803b1580156200327e57600080fd5b505afa15801562003293573d6000803e3d6000fd5b505050506040513d6020811015620032aa57600080fd5b5051604080516001600160e01b031960e085901b1681526001600160a01b0390921660048301526002602483015251604480830192600092919082900301818387803b158015620032fa57600080fd5b505af11580156200330f573d6000803e3d6000fd5b505050505b60010162002e4d565b50565b60408051600081526020810191829052516200333f9160099162003f0d565b506200334a62000e39565b6000600e55600780547fffffffffffffffff00ff00ffffffffffffffffffffffffffffffffffffffffff16905562001a5262003766565b60005b6008548110156200331d57600881815481106200339d57fe5b60009182526020918290200154604080516332c3db0f60e11b815290516001600160a01b0390921692636587b61e92600480840193829003018186803b158015620033e757600080fd5b505afa158015620033fc573d6000803e3d6000fd5b505050506040513d60208110156200341357600080fd5b505160011415620034f857600881815481106200342c57fe5b6000918252602082200154604080517f0f15f4c000000000000000000000000000000000000000000000000000000000815290516001600160a01b0390921692630f15f4c09260048084019382900301818387803b1580156200348e57600080fd5b505af1158015620034a3573d6000803e3d6000fd5b50505050600960088281548110620034b757fe5b60009182526020808320909101548354600181018555938352912090910180546001600160a01b0319166001600160a01b0390921691909117905562003582565b600881815481106200350657fe5b6000918252602082200154604080517f79599f9600000000000000000000000000000000000000000000000000000000815290516001600160a01b03909216926379599f969260048084019382900301818387803b1580156200356857600080fd5b505af11580156200357d573d6000803e3d6000fd5b505050505b60010162003384565b6200359562003f85565b601b54620035c590307f0aab4569000000000000000000000000000000000000000000000000000000006200377d565b9050620036176040518060400160405280600581526020017f756e74696c000000000000000000000000000000000000000000000000000000815250601354420183620037ae9092919063ffffffff16565b601a54601c5462000fae916001600160a01b0316908390620037dc565b600f546000401890565b6000826200364f5750600062002339565b828202828482816200365d57fe5b0414620023365760405162461bcd60e51b81526004018080602001828103825260218152602001806200578d6021913960400191505060405180910390fd5b600082821115620036f4576040805162461bcd60e51b815260206004820152601e60248201527f536166654d6174683a207375627472616374696f6e206f766572666c6f770000604482015290519081900360640190fd5b50900390565b600080821162003751576040805162461bcd60e51b815260206004820152601a60248201527f536166654d6174683a206469766973696f6e206279207a65726f000000000000604482015290519081900360640190fd5b60008284816200375d57fe5b04949350505050565b600140600f5416600040600f541617600f81905550565b6200378762003f85565b6200379162003f85565b620037a58186868663ffffffff620039bd16565b95945050505050565b6080830151620037c5908363ffffffff620039fe16565b608083015162001a4e908263ffffffff62003a1f16565b6005546040805130606090811b60208084019190915260348084018690528451808503909101815260549093018452825192810192909220908601939093526000838152600690915281812080546001600160a01b0319166001600160a01b038816179055905182917fb5e6e01e79f91267dc17b4e6314d5d4d03593d2ceee0fbb452b750bd70ea5af991a26003546001600160a01b0316634000aea08584620038868762003a2d565b6040518463ffffffff1660e01b815260040180846001600160a01b03166001600160a01b0316815260200183815260200180602001828103825283818151815260200191508051906020019080838360005b83811015620038f2578181015183820152602001620038d8565b50505050905090810190601f168015620039205780820380516001836020036101000a031916815260200191505b50945050505050602060405180830381600087803b1580156200394257600080fd5b505af115801562003957573d6000803e3d6000fd5b505050506040513d60208110156200396e57600080fd5b5051620039ad5760405162461bcd60e51b8152600401808060200182810382526023815260200180620056d66023913960400191505060405180910390fd5b6005805460010190559392505050565b620039c762003f85565b620039d9856080015161010062003baf565b50509183526001600160a01b031660208301526001600160e01b031916604082015290565b62003a0d826003835162003bec565b62001a4e828263ffffffff62003d0e16565b62000fae8260008362003bec565b6060634042994660e01b6000808460000151856020015186604001518760600151600189608001516000015160405160240180896001600160a01b03166001600160a01b03168152602001888152602001878152602001866001600160a01b03166001600160a01b03168152602001857bffffffffffffffffffffffffffffffffffffffffffffffffffffffff19167bffffffffffffffffffffffffffffffffffffffffffffffffffffffff1916815260200184815260200183815260200180602001828103825283818151815260200191508051906020019080838360005b8381101562003b2757818101518382015260200162003b0d565b50505050905090810190601f16801562003b555780820380516001836020036101000a031916815260200191505b5060408051601f198184030181529190526020810180517bffffffffffffffffffffffffffffffffffffffffffffffffffffffff166001600160e01b0319909d169c909c17909b5250989950505050505050505050919050565b62003bb962003fbc565b602082061562003bcf5760208206602003820191505b506020828101829052604080518085526000815290920101905290565b6017811162003c175762003c108360e0600585901b16831763ffffffff62003d2c16565b5062001a4e565b60ff811162003c525762003c3d836018611fe0600586901b161763ffffffff62003d2c16565b5062003c108382600163ffffffff62003d4816565b61ffff811162003c8e5762003c79836019611fe0600586901b161763ffffffff62003d2c16565b5062003c108382600263ffffffff62003d4816565b63ffffffff811162003ccc5762003cb783601a611fe0600586901b161763ffffffff62003d2c16565b5062003c108382600463ffffffff62003d4816565b67ffffffffffffffff811162001a4e5762003cf983601b611fe0600586901b161763ffffffff62003d2c16565b506200182e8382600863ffffffff62003d4816565b62003d1862003fbc565b620023368384600001515184855162003d6d565b62003d3662003fbc565b62002336838460000151518462003e24565b62003d5262003fbc565b62003d6584856000015151858562003e75565b949350505050565b62003d7762003fbc565b825182111562003d8657600080fd5b8460200151828501111562003db55762003db58562003dac876020015187860162003ed9565b60020262003ef2565b60008086518051876020830101935080888701111562003dd55787860182525b505050602084015b6020841062003dfe5780518252601f19909301926020918201910162003ddd565b51815160001960208690036101000a019081169019919091161790525083949350505050565b62003e2e62003fbc565b8360200151831062003e4d5762003e4d84856020015160020262003ef2565b83518051602085830101848153508085141562003e6b576001810182525b5093949350505050565b62003e7f62003fbc565b8460200151848301111562003e9f5762003e9f8585840160020262003ef2565b60006001836101000a03905085518386820101858319825116178152508051848701111562003ece5783860181525b509495945050505050565b60008183111562003eec57508162002339565b50919050565b815162003f00838362003baf565b506200182e838262003d0e565b82805482825590600052602060002090810192821562003f65579160200282015b8281111562003f6557825182546001600160a01b0319166001600160a01b0390911617825560209092019160019091019062003f2e565b5062003f7392915062003fd6565b5090565b6116618062003ffe83390190565b6040805160a08101825260008082526020820181905291810182905260608101919091526080810162003fb762003fbc565b905290565b604051806040016040528060608152602001600081525090565b62000cc191905b8082111562003f735780546001600160a01b031916815560010162003fdd56fe608060405234801561001057600080fd5b50604051611661380380611661833981810160405260a081101561003357600080fd5b5080516020820151604083015160608401516080909401519293919290919060006100656001600160e01b0361011f16565b600080546001600160a01b0319166001600160a01b0383169081178255604051929350917f8be0079c531659141344cd1fd0a4f28419497f9722a3daafe3b4186f6b6457e0908290a3506003805460ff60a01b19169055600480546001600160a01b03199081166001600160a01b0397881617909155600580548216958716959095179094556007805460ff1916905560018054851693861693909317909255600691909155600280549092169216919091179055610123565b3390565b61152f806101326000396000f3fe608060405234801561001057600080fd5b50600436106101365760003560e01c806366995a46116100b2578063872d7c7911610081578063b8f31a8111610066578063b8f31a81146102de578063be22f546146102e6578063f2fde38b146102ee57610136565b8063872d7c79146102ce5780638da5cb5b146102d657610136565b806366995a4614610275578063715018a61461029b57806379599f96146102a35780637db9abaf146102ab57610136565b806329d188791161010957806337edd7e7116100ee57806337edd7e7146101c45780633db0bfd2146102415780636587b61e1461026d57610136565b806329d18879146101985780632d24947b146101bc57610136565b80630bb8ebf61461013b5780630f15f4c0146101575780632344e4ec14610161578063289cf0d214610190575b600080fd5b610143610314565b604080519115158252519081900360200190f35b61015f6103ad565b005b61017e6004803603602081101561017757600080fd5b503561048a565b60408051918252519081900360200190f35b61015f61067f565b6101a0610754565b604080516001600160a01b039092168252519081900360200190f35b61015f6107ea565b6101cc6109c8565b6040805160208082528351818301528351919283929083019185019080838360005b838110156102065781810151838201526020016101ee565b50505050905090810190601f1680156102335780820380516001836020036101000a031916815260200191505b509250505060405180910390f35b61015f6004803603604081101561025757600080fd5b506001600160a01b038135169060200135610b8e565b61017e610cd7565b61015f6004803603602081101561028b57600080fd5b50356001600160a01b0316610d7a565b61015f610d8d565b61015f610e4e565b61015f600480360360408110156102c157600080fd5b5080359060200135610f28565b61015f610fe3565b6101a061114a565b6101a0611159565b6101a06111d5565b61015f6004803603602081101561030457600080fd5b50356001600160a01b03166111e4565b600354604080517f39e7357c00000000000000000000000000000000000000000000000000000000815290516000926001600160a01b0316916339e7357c916004808301926020929190829003018186803b15801561037257600080fd5b505afa92505050801561039757506040513d602081101561039257600080fd5b505160015b6103a3575060006103aa565b6006541490505b90565b6103b56112fb565b6000546001600160a01b03908116911614610417576040805162461bcd60e51b815260206004820181905260248201527f4f776e61626c653a2063616c6c6572206973206e6f7420746865206f776e6572604482015290519081900360640190fd5b6000600354600160a01b900460ff16600681111561043157fe5b1461046d5760405162461bcd60e51b815260040180806020018281038252602a81526020018061142a602a913960400191505060405180910390fd5b600380546002919060ff60a01b1916600160a01b835b0217905550565b60075460009060ff166104ce5760405162461bcd60e51b815260040180806020018281038252602981526020018061137b6029913960400191505060405180910390fd5b6003546001600160a01b03166104e26112fb565b6001600160a01b0316146105275760405162461bcd60e51b81526004018080602001828103825260258152602001806113566025913960400191505060405180910390fd5b600260009054906101000a90046001600160a01b03166001600160a01b0316630b435c546040518163ffffffff1660e01b815260040160206040518083038186803b15801561057557600080fd5b505afa158015610589573d6000803e3d6000fd5b505050506040513d602081101561059f57600080fd5b505182106105de5760405162461bcd60e51b81526004018080602001828103825260268152602001806114d46026913960400191505060405180910390fd5b600254600654604080517fcee0510f000000000000000000000000000000000000000000000000000000008152600481018690526024810192909252516001600160a01b039092169163cee0510f91604480820192602092909190829003018186803b15801561064d57600080fd5b505afa158015610661573d6000803e3d6000fd5b505050506040513d602081101561067757600080fd5b505192915050565b6106876112fb565b6000546001600160a01b039081169116146106e9576040805162461bcd60e51b815260206004820181905260248201527f4f776e61626c653a2063616c6c6572206973206e6f7420746865206f776e6572604482015290519081900360640190fd5b60075460ff1661071357600380546005919060ff60a01b1916600160a01b835b0217905550610752565b61071b610314565b156107385760038054819060ff60a01b1916600160a01b82610709565b600380546004919060ff60a01b1916600160a01b83610483565b565b6004546000906001600160a01b031661076b6112fb565b6001600160a01b0316148061079f575061078361114a565b6001600160a01b03166107946112fb565b6001600160a01b0316145b6107da5760405162461bcd60e51b815260040180806020018281038252602a8152602001806114aa602a913960400191505060405180910390fd5b506002546001600160a01b031690565b6000600354600160a01b900460ff16600681111561080457fe5b146108405760405162461bcd60e51b815260040180806020018281038252602a81526020018061142a602a913960400191505060405180910390fd5b600154600554604080517ff745adfc00000000000000000000000000000000000000000000000000000000815290516001600160a01b03938416936323b872dd933393911691829163f745adfc916004808301926020929190829003018186803b1580156108ad57600080fd5b505afa1580156108c1573d6000803e3d6000fd5b505050506040513d60208110156108d757600080fd5b5051604080517fffffffff0000000000000000000000000000000000000000000000000000000060e087901b1681526001600160a01b0394851660048201529290931660248301526044820152905160648083019260209291908290030181600087803b15801561094757600080fd5b505af115801561095b573d6000803e3d6000fd5b505050506040513d602081101561097157600080fd5b50516109ae5760405162461bcd60e51b815260040180806020018281038252602a815260200180611454602a913960400191505060405180910390fd5b600380546001919060ff60a01b1916600160a01b83610483565b6004546060906001600160a01b03166109df6112fb565b6001600160a01b03161480610a1357506109f761114a565b6001600160a01b0316610a086112fb565b6001600160a01b0316145b610a4e5760405162461bcd60e51b815260040180806020018281038252602a8152602001806114aa602a913960400191505060405180910390fd5b600260009054906101000a90046001600160a01b03166001600160a01b031663724465436040518163ffffffff1660e01b815260040160006040518083038186803b158015610a9c57600080fd5b505afa158015610ab0573d6000803e3d6000fd5b505050506040513d6000823e601f3d908101601f191682016040526020811015610ad957600080fd5b8101908080516040519392919084640100000000821115610af957600080fd5b908301906020820185811115610b0e57600080fd5b8251640100000000811182820188101715610b2857600080fd5b82525081516020918201929091019080838360005b83811015610b55578181015183820152602001610b3d565b50505050905090810190601f168015610b825780820380516001836020036101000a031916815260200191505b50604052505050905090565b6004546001600160a01b0316610ba26112fb565b6001600160a01b031614610be75760405162461bcd60e51b815260040180806020018281038252602d8152602001806113a4602d913960400191505060405180910390fd5b6002610bf1610cd7565b11610c2d5760405162461bcd60e51b815260040180806020018281038252602c81526020018061147e602c913960400191505060405180910390fd5b600154600554604080517f23b872dd0000000000000000000000000000000000000000000000000000000081526001600160a01b039283166004820152858316602482015260448101859052905191909216916323b872dd9160648083019260209291908290030181600087803b158015610ca757600080fd5b505af1158015610cbb573d6000803e3d6000fd5b505050506040513d6020811015610cd157600080fd5b50505050565b6004546000906001600160a01b0316610cee6112fb565b6001600160a01b03161480610d225750610d0661114a565b6001600160a01b0316610d176112fb565b6001600160a01b0316145b610d5d5760405162461bcd60e51b815260040180806020018281038252602a8152602001806114aa602a913960400191505060405180910390fd5b600354600160a01b900460ff166006811115610d7557fe5b905090565b610d8a8160095460085401610b8e565b50565b610d956112fb565b6000546001600160a01b03908116911614610df7576040805162461bcd60e51b815260206004820181905260248201527f4f776e61626c653a2063616c6c6572206973206e6f7420746865206f776e6572604482015290519081900360640190fd5b600080546040516001600160a01b03909116907f8be0079c531659141344cd1fd0a4f28419497f9722a3daafe3b4186f6b6457e0908390a36000805473ffffffffffffffffffffffffffffffffffffffff19169055565b610e566112fb565b6000546001600160a01b03908116911614610eb8576040805162461bcd60e51b815260206004820181905260248201527f4f776e61626c653a2063616c6c6572206973206e6f7420746865206f776e6572604482015290519081900360640190fd5b6000600354600160a01b900460ff166006811115610ed257fe5b14610f0e5760405162461bcd60e51b815260040180806020018281038252602a81526020018061142a602a913960400191505060405180910390fd5b600380546006919060ff60a01b1916600160a01b83610483565b610f306112fb565b6000546001600160a01b03908116911614610f92576040805162461bcd60e51b815260206004820181905260248201527f4f776e61626c653a2063616c6c6572206973206e6f7420746865206f776e6572604482015290519081900360640190fd5b6002610f9c610cd7565b11610fd85760405162461bcd60e51b81526004018080602001828103825260308152602001806113006030913960400191505060405180910390fd5b600891909155600955565b6002600354600160a01b900460ff166006811115610ffd57fe5b146110395760405162461bcd60e51b815260040180806020018281038252602d8152602001806113d1602d913960400191505060405180910390fd5b60006110436112fb565b9050600460009054906101000a90046001600160a01b03166001600160a01b0316816001600160a01b031663893d20e86040518163ffffffff1660e01b815260040160206040518083038186803b15801561109d57600080fd5b505afa1580156110b1573d6000803e3d6000fd5b505050506040513d60208110156110c757600080fd5b50516001600160a01b03161461110e5760405162461bcd60e51b815260040180806020018281038252602c8152602001806113fe602c913960400191505060405180910390fd5b6003805473ffffffffffffffffffffffffffffffffffffffff19166001600160a01b03929092169190911790556007805460ff19166001179055565b6000546001600160a01b031690565b60006111636112fb565b6000546001600160a01b039081169116146111c5576040805162461bcd60e51b815260206004820181905260248201527f4f776e61626c653a2063616c6c6572206973206e6f7420746865206f776e6572604482015290519081900360640190fd5b506004546001600160a01b031690565b6001546001600160a01b031681565b6111ec6112fb565b6000546001600160a01b0390811691161461124e576040805162461bcd60e51b815260206004820181905260248201527f4f776e61626c653a2063616c6c6572206973206e6f7420746865206f776e6572604482015290519081900360640190fd5b6001600160a01b0381166112935760405162461bcd60e51b81526004018080602001828103825260268152602001806113306026913960400191505060405180910390fd5b600080546040516001600160a01b03808516939216917f8be0079c531659141344cd1fd0a4f28419497f9722a3daafe3b4186f6b6457e091a36000805473ffffffffffffffffffffffffffffffffffffffff19166001600160a01b0392909216919091179055565b339056fe53747564656e744170706c69636174696f6e3a206170706c69636174696f6e206e6f742066696e6973686564207965744f776e61626c653a206e6577206f776e657220697320746865207a65726f206164647265737353747564656e744170706c69636174696f6e3a2061726520796f75206368656174696e673f53747564656e744170706c69636174696f6e3a20616e73776572206e6f74207265676973746572656453747564656e744170706c69636174696f6e3a206f6e6c792073747564656e742063616e20776974686472617753747564656e744170706c69636174696f6e3a206170706c69636174696f6e206973206e6f742061637469766553747564656e744170706c69636174696f6e3a206765744f776e657220726573756c742069732077726f6e6753747564656e744170706c69636174696f6e3a206170706c69636174696f6e206973206e6f74204e657753747564656e744170706c69636174696f6e3a20636f756c64206e6f74207472616e736665722044414953747564656e744170706c69636174696f6e3a206170706c69636174696f6e206e6f742066696e697368656453747564656e744170706c69636174696f6e3a2072656164207065726d697373696f6e2064656e69656453747564656e744170706c69636174696f6e3a2068696e74206e6f7420617661696c61626c65a264697066735822122048979778e450baba17eebc267e2b29077c16e9ff2ec5e9d46fc17fb9aae7402a64736f6c634300060600334f776e61626c653a206e6577206f776e657220697320746865207a65726f2061646472657373436c617373726f6f6d3a2073747564656e7420646f65736e2774206861766520656e6f7567682073636f7265436c617373726f6f6d3a2063616e2774206368616e6765206368616c6c656e6765206e6f77756e61626c6520746f207472616e73666572416e6443616c6c20746f206f7261636c65436c617373726f6f6d3a206e6f7420656e6f7567682044414920746f2070726f63656564436c617373726f6f6d3a2072656164207065726d697373696f6e2064656e696564436c617373726f6f6d3a2073747564656e7473206c697374206e6f7420656d707479436c617373726f6f6d3a2070726f666573736f722063616e277420626520697473206f776e2073747564656e74536166654d6174683a206d756c7469706c69636174696f6e206f766572666c6f77436c617373726f6f6d3a20746f6f20736f6f6e20746f2066696e69736820636f75727365436c617373726f6f6d3a206170706c69636174696f6e7320617265207374696c6c206f70656e4f776e61626c653a2063616c6c6572206973206e6f7420746865206f776e6572436c617373726f6f6d3a20696e7665737420616c6c2062616c616e6365206265666f726520626567696e436c617373726f6f6d3a206170706c69636174696f6e732061726520616c726561647920636c6f736564436c617373726f6f6d3a2073747564656e74206973206e6f742072656769737465726564436c617373726f6f6d3a206170706c69636174696f6e732061726520616c7265616479206f70656e6564536f75726365206d75737420626520746865206f7261636c65206f66207468652072657175657374a26469706673582212201cfb2795b3268c7b7aa78f68601c286eda63929826dfabf9b79e3bf688e4b9bf64736f6c63430006060033756e61626c6520746f207472616e73666572416e6443616c6c20746f206f7261636c6560806040523480156200001157600080fd5b5060405162001eae38038062001eae833981810160405260408110156200003757600080fd5b5080516020909101516000620000556001600160e01b036200021c16565b600080546001600160a01b0319166001600160a01b0383169081178255604051929350917f8be0079c531659141344cd1fd0a4f28419497f9722a3daafe3b4186f6b6457e0908290a35060028290556005805463ffffffff19169055600380546001600160a01b0319166001600160a01b038316179055620000eb6000620000dc6200021c565b6001600160e01b036200022016565b604080516e524541445f53434f52455f524f4c4560881b8152905190819003600f0190206200013690620001276001600160e01b036200021c16565b6001600160e01b036200023916565b60408051704d4f444946595f53434f52455f524f4c4560781b815290519081900360110190206200017190826001600160e01b036200023916565b6001600160a01b0381166200018e6001600160e01b036200021c16565b6001600160a01b0316146200021457604080516e524541445f53434f52455f524f4c4560881b8152905190819003600f019020620001d690826001600160e01b036200023916565b620001ec6000826001600160e01b036200023916565b620002146000620002056001600160e01b036200021c16565b6001600160e01b03620002af16565b5050620005fb565b3390565b6200023582826001600160e01b036200032816565b5050565b6000828152600160205260409020600201546200027290620002636001600160e01b036200021c16565b6001600160e01b03620003ac16565b620002205760405162461bcd60e51b815260040180806020018281038252602f81526020018062001e50602f913960400191505060405180910390fd5b620002c26001600160e01b036200021c16565b6001600160a01b0316816001600160a01b031614620003135760405162461bcd60e51b815260040180806020018281038252602f81526020018062001e7f602f913960400191505060405180910390fd5b6200023582826001600160e01b03620003db16565b60008281526001602090815260409091206200034f918390620014fc6200045f821b17901c565b156200023557620003686001600160e01b036200021c16565b6001600160a01b0316816001600160a01b0316837f2f8788117e7eff1d82e926ec794901d17c78024a50270940304540a733656f0d60405160405180910390a45050565b60008281526001602090815260408220620003d2918490620014dc6200047f821b17901c565b90505b92915050565b600082815260016020908152604090912062000402918390620015116200049f821b17901c565b1562000235576200041b6001600160e01b036200021c16565b6001600160a01b0316816001600160a01b0316837ff6391f5c32d9c69d2a47ea670b442974b53935d1edc7fd64eb21e047a839171b60405160405180910390a45050565b6000620003d2836001600160a01b0384166001600160e01b03620004bf16565b6000620003d2836001600160a01b0384166001600160e01b036200051716565b6000620003d2836001600160a01b0384166001600160e01b036200052f16565b6000620004d683836001600160e01b036200051716565b6200050e57508154600181810184556000848152602080822090930184905584548482528286019093526040902091909155620003d5565b506000620003d5565b60009081526001919091016020526040902054151590565b60008181526001830160205260408120548015620005f057835460001980830191908101906000908790839081106200056457fe5b90600052602060002001549050808760000184815481106200058257fe5b600091825260208083209091019290925582815260018981019092526040902090840190558654879080620005b357fe5b60019003818190600052602060002001600090559055866001016000878152602001908152602001600020600090556001945050505050620003d5565b6000915050620003d5565b611845806200060b6000396000f3fe608060405234801561001057600080fd5b50600436106101b95760003560e01c80638da5cb5b116100f9578063ba6019d311610097578063d547741f11610071578063d547741f146104a7578063db4d5e87146104d3578063efedc66914610501578063f2fde38b14610522576101b9565b8063ba6019d31461044c578063be22f54614610482578063ca15c8731461048a576101b9565b80639fcb17de116100d35780639fcb17de1461038f578063a217fddf146103c5578063a8809410146103cd578063aa4f38c71461042c576101b9565b80638da5cb5b146103245780639010d07c1461032c57806391d148541461034f576101b9565b806331fb5fde1161016657806369e527da1161014057806369e527da146102d3578063715018a6146102f75780637206f3d6146102ff578063898855ed14610307576101b9565b806331fb5fde1461026157806336568abe1461028757806368651350146102b3576101b9565b8063248a9ca311610197578063248a9ca3146101ea578063295869be146102075780632f2ff15d14610235576101b9565b806306fdde03146101be5780631b99219f146101d8578063222baa3a146101e0575b600080fd5b6101c6610548565b60408051918252519081900360200190f35b6101c661054e565b6101e8610583565b005b6101c66004803603602081101561020057600080fd5b5035610612565b6101e86004803603604081101561021d57600080fd5b506001600160a01b0381358116916020013516610627565b6101e86004803603604081101561024b57600080fd5b50803590602001356001600160a01b0316610703565b6101e86004803603602081101561027757600080fd5b50356001600160a01b031661076b565b6101e86004803603604081101561029d57600080fd5b50803590602001356001600160a01b0316610991565b6101e8600480360360208110156102c957600080fd5b503560030b6109f2565b6102db610af3565b604080516001600160a01b039092168252519081900360200190f35b6101e8610b02565b6101c6610bc3565b6101e86004803603602081101561031d57600080fd5b5035610bf8565b6102db610c9d565b6102db6004803603604081101561034257600080fd5b5080359060200135610cac565b61037b6004803603604081101561036557600080fd5b50803590602001356001600160a01b0316610cd3565b604080519115158252519081900360200190f35b6101e8600480360360608110156103a557600080fd5b506001600160a01b03813581169160208101359091169060400135610cf1565b6101c6610dd8565b6101e860048036036101008110156103e457600080fd5b506001600160a01b03813581169160208101359162ffffff6040830135811692606081013590911691608082013560030b9160a08101359160c08201359160e0013516610ddd565b6101e86004803603602081101561044257600080fd5b503560030b610f0e565b6101e86004803603606081101561046257600080fd5b506001600160a01b0381358116916020810135909116906040013561100e565b6102db6110ec565b6101c6600480360360208110156104a057600080fd5b5035611103565b6101e8600480360360408110156104bd57600080fd5b50803590602001356001600160a01b031661111a565b6101e8600480360360408110156104e957600080fd5b506001600160a01b0381358116916020013516611173565b610509611251565b60408051600392830b90920b8252519081900360200190f35b6101e86004803603602081101561053857600080fd5b50356001600160a01b03166112d7565b60025481565b604080517f524541445f53434f52455f524f4c4500000000000000000000000000000000008152905190819003600f01902081565b60005b60045481101561060f576105986113ee565b6001600160a01b0316600482815481106105ae57fe5b6000918252602090912001546001600160a01b03161415610607576000600482815481106105d857fe5b9060005260206000200160006101000a8154816001600160a01b0302191690836001600160a01b031602179055505b600101610586565b50565b60009081526001602052604090206002015490565b61062f6113ee565b6000546001600160a01b03908116911614610691576040805162461bcd60e51b815260206004820181905260248201527f4f776e61626c653a2063616c6c6572206973206e6f7420746865206f776e6572604482015290519081900360640190fd5b6106ff826001600160a01b0316636e8055a76040518163ffffffff1660e01b815260040160206040518083038186803b1580156106cd57600080fd5b505afa1580156106e1573d6000803e3d6000fd5b505050506040513d60208110156106f757600080fd5b505182611173565b5050565b600082815260016020526040902060020154610726906107216113ee565b610cd3565b6107615760405162461bcd60e51b815260040180806020018281038252602f8152602001806116d9602f913960400191505060405180910390fd5b6106ff82826113f2565b6107736113ee565b6000546001600160a01b039081169116146107d5576040805162461bcd60e51b815260206004820181905260248201527f4f776e61626c653a2063616c6c6572206973206e6f7420746865206f776e6572604482015290519081900360640190fd5b600354604080517f85dade610000000000000000000000000000000000000000000000000000000081526001600160a01b038481166004830152915191909216916385dade61916024808301926020929190829003018186803b15801561083b57600080fd5b505afa15801561084f573d6000803e3d6000fd5b505050506040513d602081101561086557600080fd5b50516108a25760405162461bcd60e51b81526004018080602001828103825260298152602001806117e76029913960400191505060405180910390fd5b604080517f524541445f53434f52455f524f4c4500000000000000000000000000000000008152905190819003600f0190206108de9082610703565b806001600160a01b0316631b9dbc606040518163ffffffff1660e01b8152600401600060405180830381600087803b15801561091957600080fd5b505af115801561092d573d6000803e3d6000fd5b5050600480546001810182556000919091527f8a35acfbc15ff81a39ae7d344fd709f28e8600b4aa8c65c6b64bfe7fe36bd19b01805473ffffffffffffffffffffffffffffffffffffffff19166001600160a01b0394909416939093179092555050565b6109996113ee565b6001600160a01b0316816001600160a01b0316146109e85760405162461bcd60e51b815260040180806020018281038252602f8152602001806117b8602f913960400191505060405180910390fd5b6106ff8282611461565b604080517f4d4f444946595f53434f52455f524f4c4500000000000000000000000000000081529051908190036011019020610a30906107216113ee565b610a6b5760405162461bcd60e51b815260040180806020018281038252602e815260200180611708602e913960400191505060405180910390fd5b600554600390810b828103820b910b13610acc576040805162461bcd60e51b815260206004820152601c60248201527f53747564656e743a2062616420677261646573206f766572666c6f7700000000604482015290519081900360640190fd5b60058054600381810b9390930390920b63ffffffff1663ffffffff19909216919091179055565b6006546001600160a01b031681565b610b0a6113ee565b6000546001600160a01b03908116911614610b6c576040805162461bcd60e51b815260206004820181905260248201527f4f776e61626c653a2063616c6c6572206973206e6f7420746865206f776e6572604482015290519081900360640190fd5b600080546040516001600160a01b03909116907f8be0079c531659141344cd1fd0a4f28419497f9722a3daafe3b4186f6b6457e0908390a36000805473ffffffffffffffffffffffffffffffffffffffff19169055565b604080517f4d4f444946595f53434f52455f524f4c450000000000000000000000000000008152905190819003601101902081565b610c006113ee565b6000546001600160a01b03908116911614610c62576040805162461bcd60e51b815260206004820181905260248201527f4f776e61626c653a2063616c6c6572206973206e6f7420746865206f776e6572604482015290519081900360640190fd5b60028190556040805182815290517f9f8929be552430dd6434c446d106c34954b2040ca8c4dbf42a39323dd6cda3ca9181900360200190a150565b6000546001600160a01b031690565b6000828152600160205260408120610cca908363ffffffff6114d016565b90505b92915050565b6000828152600160205260408120610cca908363ffffffff6114dc16565b610cf96113ee565b6000546001600160a01b03908116911614610d5b576040805162461bcd60e51b815260206004820181905260248201527f4f776e61626c653a2063616c6c6572206973206e6f7420746865206f776e6572604482015290519081900360640190fd5b826001600160a01b0316633db0bfd283836040518363ffffffff1660e01b815260040180836001600160a01b03166001600160a01b0316815260200182815260200192505050600060405180830381600087803b158015610dbb57600080fd5b505af1158015610dcf573d6000803e3d6000fd5b50505050505050565b600081565b610de56113ee565b6000546001600160a01b03908116911614610e47576040805162461bcd60e51b815260206004820181905260248201527f4f776e61626c653a2063616c6c6572206973206e6f7420746865206f776e6572604482015290519081900360640190fd5b60038054604080517f7fd5c1080000000000000000000000000000000000000000000000000000000081526001600160a01b038c81166004830152602482018c905262ffffff808c1660448401528a16606483015288850b90940b608482015260a4810187905260c4810186905284841660e482015290519290911691637fd5c108916101048082019260009290919082900301818387803b158015610eec57600080fd5b505af1158015610f00573d6000803e3d6000fd5b505050505050505050505050565b604080517f4d4f444946595f53434f52455f524f4c4500000000000000000000000000000081529051908190036011019020610f4c906107216113ee565b610f875760405162461bcd60e51b815260040180806020018281038252602e815260200180611708602e913960400191505060405180910390fd5b600554600390810b808301820b910b12610fe8576040805162461bcd60e51b815260206004820152601d60248201527f53747564656e743a20676f6f6420677261646573206f766572666c6f77000000604482015290519081900360640190fd5b60058054600381810b90930190920b63ffffffff1663ffffffff19909216919091179055565b6110166113ee565b6000546001600160a01b03908116911614611078576040805162461bcd60e51b815260206004820181905260248201527f4f776e61626c653a2063616c6c6572206973206e6f7420746865206f776e6572604482015290519081900360640190fd5b6110e7836001600160a01b0316636e8055a76040518163ffffffff1660e01b815260040160206040518083038186803b1580156110b457600080fd5b505afa1580156110c8573d6000803e3d6000fd5b505050506040513d60208110156110de57600080fd5b50518383610cf1565b505050565b60055464010000000090046001600160a01b031681565b6000818152600160205260408120610ccd906114f1565b600082815260016020526040902060020154611138906107216113ee565b6109e85760405162461bcd60e51b81526004018080602001828103825260308152602001806117886030913960400191505060405180910390fd5b61117b6113ee565b6000546001600160a01b039081169116146111dd576040805162461bcd60e51b815260206004820181905260248201527f4f776e61626c653a2063616c6c6572206973206e6f7420746865206f776e6572604482015290519081900360640190fd5b816001600160a01b03166366995a46826040518263ffffffff1660e01b815260040180826001600160a01b03166001600160a01b03168152602001915050600060405180830381600087803b15801561123557600080fd5b505af1158015611249573d6000803e3d6000fd5b505050505050565b604080517f524541445f53434f52455f524f4c4500000000000000000000000000000000008152905190819003600f019020600090611292906107216113ee565b6112cd5760405162461bcd60e51b815260040180806020018281038252602c81526020018061175c602c913960400191505060405180910390fd5b5060055460030b90565b6112df6113ee565b6000546001600160a01b03908116911614611341576040805162461bcd60e51b815260206004820181905260248201527f4f776e61626c653a2063616c6c6572206973206e6f7420746865206f776e6572604482015290519081900360640190fd5b6001600160a01b0381166113865760405162461bcd60e51b81526004018080602001828103825260268152602001806117366026913960400191505060405180910390fd5b600080546040516001600160a01b03808516939216917f8be0079c531659141344cd1fd0a4f28419497f9722a3daafe3b4186f6b6457e091a36000805473ffffffffffffffffffffffffffffffffffffffff19166001600160a01b0392909216919091179055565b3390565b6000828152600160205260409020611410908263ffffffff6114fc16565b156106ff5761141d6113ee565b6001600160a01b0316816001600160a01b0316837f2f8788117e7eff1d82e926ec794901d17c78024a50270940304540a733656f0d60405160405180910390a45050565b600082815260016020526040902061147f908263ffffffff61151116565b156106ff5761148c6113ee565b6001600160a01b0316816001600160a01b0316837ff6391f5c32d9c69d2a47ea670b442974b53935d1edc7fd64eb21e047a839171b60405160405180910390a45050565b6000610cca8383611526565b6000610cca836001600160a01b03841661158a565b6000610ccd826115a2565b6000610cca836001600160a01b0384166115a6565b6000610cca836001600160a01b0384166115f0565b815460009082106115685760405162461bcd60e51b81526004018080602001828103825260228152602001806116b76022913960400191505060405180910390fd5b82600001828154811061157757fe5b9060005260206000200154905092915050565b60009081526001919091016020526040902054151590565b5490565b60006115b2838361158a565b6115e857508154600181810184556000848152602080822090930184905584548482528286019093526040902091909155610ccd565b506000610ccd565b600081815260018301602052604081205480156116ac578354600019808301919081019060009087908390811061162357fe5b906000526020600020015490508087600001848154811061164057fe5b60009182526020808320909101929092558281526001898101909252604090209084019055865487908061167057fe5b60019003818190600052602060002001600090559055866001016000878152602001908152602001600020600090556001945050505050610ccd565b6000915050610ccd56fe456e756d657261626c655365743a20696e646578206f7574206f6620626f756e6473416363657373436f6e74726f6c3a2073656e646572206d75737420626520616e2061646d696e20746f206772616e7453747564656e743a2063616c6c657220646f65736e27742068617665204d4f444946595f53434f52455f524f4c454f776e61626c653a206e6577206f776e657220697320746865207a65726f206164647265737353747564656e743a2063616c6c657220646f65736e2774206861766520524541445f53434f52455f524f4c45416363657373436f6e74726f6c3a2073656e646572206d75737420626520616e2061646d696e20746f207265766f6b65416363657373436f6e74726f6c3a2063616e206f6e6c792072656e6f756e636520726f6c657320666f722073656c6653747564656e743a2061646472657373206973206e6f7420612076616c696420636c617373726f6f6da264697066735822122024ecdfce84d32ee8879c32b418eb34d493611097dd7059c36d187e03ebcc4d8064736f6c63430006060033416363657373436f6e74726f6c3a2073656e646572206d75737420626520616e2061646d696e20746f206772616e74416363657373436f6e74726f6c3a2063616e206f6e6c792072656e6f756e636520726f6c657320666f722073656c66456e756d657261626c655365743a20696e646578206f7574206f6620626f756e6473416363657373436f6e74726f6c3a2073656e646572206d75737420626520616e2061646d696e20746f206772616e74556e69766572736974793a2063616c6c657220646f65736e2774206861766520524541445f53545544454e545f4c4953545f524f4c454f776e61626c653a206e6577206f776e657220697320746865207a65726f2061646472657373556e69766572736974793a2063616c6c657220646f65736e277420686176652046554e44535f4d414e414745525f524f4c45556e69766572736974793a2073747564656e7420616c72656164792072656769737465726564556e69766572736974793a2063616c6c6572206973206e6f742073747564656e74206f662074686973206170706c69636174696f6e556e69766572736974793a2063616c6c657220646f65736e2774206861766520434c4153534c4953545f41444d494e5f524f4c45556e69766572736974793a2063616c6c657220646f65736e277420686176652053545544454e545f4944454e544954595f524f4c45436c617373726f6f6d3a2072656164207065726d697373696f6e2064656e696564556e69766572736974793a2063616c6c657220646f65736e2774206861766520434c415353524f4f4d5f50524f464553534f525f524f4c45416363657373436f6e74726f6c3a2073656e646572206d75737420626520616e2061646d696e20746f207265766f6b65556e69766572736974793a206170706c69636174696f6e206973206e6f74207375636365737366756c416363657373436f6e74726f6c3a2063616e206f6e6c792072656e6f756e636520726f6c657320666f722073656c66a2646970667358221220f12e4c0bd9b476019bc3efb1190e0ee20808a8b237865d70759b0e12c761c27264736f6c63430006060033416363657373436f6e74726f6c3a2073656e646572206d75737420626520616e2061646d696e20746f206772616e74",
  "immutableReferences": {},
  "source": "pragma solidity 0.6.6;\r\n\r\nimport \"@openzeppelin/contracts/math/SafeMath.sol\";\r\nimport \"@openzeppelin/contracts/access/AccessControl.sol\";\r\nimport \"@openzeppelin/contracts/access/Ownable.sol\";\r\nimport \"@openzeppelin/contracts/token/ERC20/IERC20.sol\";\r\nimport \"@openzeppelin/contracts/utils/Address.sol\";\r\nimport \"./Classroom.sol\";\r\nimport \"./Student.sol\";\r\nimport \"./StudentApplication.sol\";\r\n\r\n\r\ninterface CERC20 {\r\n    function mint(uint256) external returns (uint256);\r\n\r\n    function exchangeRateCurrent() external returns (uint256);\r\n\r\n    function supplyRatePerBlock() external returns (uint256);\r\n\r\n    function redeem(uint256) external returns (uint256);\r\n\r\n    function redeemUnderlying(uint256) external returns (uint256);\r\n\r\n    function getCash() external returns (uint256);\r\n\r\n    function balanceOfUnderlying(address account) external returns (uint256);\r\n}\r\n\r\n\r\n//TODO: Natspec Document ENVERYTHING\r\n//TODO: Sort function order from all contracts\r\n\r\ncontract University is Ownable, AccessControl {\r\n    using SafeMath for uint256;\r\n\r\n    //CLASSLIST_ADMIN_ROLE can add new manually created classes to the list\r\n    bytes32 public constant CLASSLIST_ADMIN_ROLE = keccak256(\r\n        \"CLASSLIST_ADMIN_ROLE\"\r\n    );\r\n    // FUNDS_MANAGER_ROLE can withdraw funds from the contract\r\n    bytes32 public constant FUNDS_MANAGER_ROLE = keccak256(\r\n        \"FUNDS_MANAGER_ROLE\"\r\n    );\r\n    // GRANTS_MANAGER_ROLE can approve/decline grant claims\r\n    bytes32 public constant GRANTS_MANAGER_ROLE = keccak256(\r\n        \"GRANTS_MANAGER_ROLE\"\r\n    );\r\n    // READ_STUDENT_LIST_ROLE allow reading students list\r\n    bytes32 public constant READ_STUDENT_LIST_ROLE = keccak256(\r\n        \"READ_STUDENT_LIST_ROLE\"\r\n    );\r\n    /// STUDENT_IDENTITY_ROLE allow asking for grants and requesting a classroom from a successful application\r\n    bytes32 public constant STUDENT_IDENTITY_ROLE = keccak256(\r\n        \"STUDENT_IDENTITY_ROLE\"\r\n    );\r\n    /// CLASSROOM_PROFESSOR_ROLE can manage itself inside the University and registering student applications\r\n    bytes32 public constant CLASSROOM_PROFESSOR_ROLE = keccak256(\r\n        \"CLASSROOM_PROFESSOR_ROLE\"\r\n    );\r\n\r\n    // Parameter: Name of this University\r\n    bytes32 public name;\r\n    // Parameter: University cut from professor (Parts per Million)\r\n    uint24 public cut;\r\n    // List of every registered classroom\r\n    Classroom[] public _classList;\r\n    // List of every student\r\n    Student[] _students;\r\n    // Mapping of each student's applications\r\n    mapping(address => address[]) _studentApplicationsMapping;\r\n    // Address list of every donor\r\n    address[] _donors;\r\n\r\n    CERC20 public cToken;\r\n    IERC20 public daiToken;\r\n\r\n    constructor(\r\n        bytes32 _name,\r\n        uint24 _cut,\r\n        address daiAddress,\r\n        address compoundAddress\r\n    ) public {\r\n        name = _name;\r\n        cut = _cut;\r\n        _classList = new Classroom[](0);\r\n        _students = new Student[](0);\r\n        _setupRole(DEFAULT_ADMIN_ROLE, _msgSender());\r\n        grantRole(READ_STUDENT_LIST_ROLE, _msgSender());\r\n        daiToken = IERC20(daiAddress);\r\n        cToken = CERC20(compoundAddress);\r\n    }\r\n\r\n    event LogNewClassroom(bytes32, address);\r\n    event LogChangeName(bytes32);\r\n    event LogChangeCut(uint24);\r\n\r\n    function changeName(bytes32 val) public onlyOwner {\r\n        name = val;\r\n        emit LogChangeName(name);\r\n    }\r\n\r\n    function changeCut(uint24 val) public onlyOwner {\r\n        cut = val;\r\n        emit LogChangeCut(cut);\r\n    }\r\n\r\n    function isValidClassroom(address classroom) public view returns (bool) {\r\n        return hasRole(CLASSROOM_PROFESSOR_ROLE, classroom);\r\n    }\r\n\r\n    function studentIsRegistered(address student) public view returns (bool) {\r\n        require(\r\n            hasRole(READ_STUDENT_LIST_ROLE, _msgSender()),\r\n            \"University: caller doesn't have READ_STUDENT_LIST_ROLE\"\r\n        );\r\n        return hasRole(STUDENT_IDENTITY_ROLE, student);\r\n    }\r\n\r\n    //ex: owner, name, 0.2 * 10**6, 0.5 * 10**6, 0, 50 * (10 ** 18), 30 days, challengeAddress\r\n    function newClassRoom(\r\n        address owner,\r\n        bytes32 cName,\r\n        uint24 cCut,\r\n        uint24 cPCut,\r\n        int32 minScore,\r\n        uint256 entryPrice,\r\n        uint256 duration,\r\n        address challengeAddress\r\n    ) public {\r\n        require(\r\n            hasRole(CLASSLIST_ADMIN_ROLE, _msgSender()),\r\n            \"University: caller doesn't have CLASSLIST_ADMIN_ROLE\"\r\n        );\r\n        _newClassRoom(\r\n            owner,\r\n            cName,\r\n            cCut,\r\n            cPCut,\r\n            minScore,\r\n            entryPrice,\r\n            duration,\r\n            challengeAddress\r\n        );\r\n    }\r\n\r\n    function _newClassRoom(\r\n        address owner,\r\n        bytes32 cName,\r\n        uint24 cCut,\r\n        uint24 cPCut,\r\n        int32 minScore,\r\n        uint256 entryPrice,\r\n        uint256 duration,\r\n        address challengeAddress\r\n    ) internal {\r\n        //TODO: fetch contract from external factory to reduce size\r\n        Classroom classroom = new Classroom(\r\n            cName,\r\n            cCut,\r\n            cPCut,\r\n            minScore,\r\n            entryPrice,\r\n            duration,\r\n            address(this),\r\n            challengeAddress,\r\n            address(daiToken),\r\n            address(cToken)\r\n        );\r\n        classroom.transferOwnership(owner);\r\n        _classList.push(classroom);\r\n        grantRole(READ_STUDENT_LIST_ROLE, address(classroom));\r\n        grantRole(CLASSROOM_PROFESSOR_ROLE, address(classroom));\r\n        emit LogNewClassroom(cName, address(classroom));\r\n    }\r\n\r\n    //TODO: Use GSN to improve UX for new student\r\n    function studentSelfRegister(bytes32 sName) public {\r\n        require(\r\n            _studentApplicationsMapping[_msgSender()].length == 0,\r\n            \"University: student already registered\"\r\n        );\r\n        _newStudent(sName, _msgSender());\r\n    }\r\n\r\n    function _newStudent(bytes32 sName, address addr) internal {\r\n        //Gambiarra: Push address(0) in the mapping to mark that student as registered in the university\r\n        _studentApplicationsMapping[addr].push(address(0));\r\n        //TODO: fetch contract from external factory to reduce size\r\n        Student student = new Student(sName, address(this));\r\n        student.transferOwnership(addr);\r\n        _students.push(student);\r\n        grantRole(STUDENT_IDENTITY_ROLE, address(student));\r\n    }\r\n\r\n    function registerStudentApplication(address student, address application)\r\n        public\r\n    {\r\n        require(\r\n            hasRole(CLASSROOM_PROFESSOR_ROLE, _msgSender()),\r\n            \"University: caller doesn't have CLASSROOM_PROFESSOR_ROLE\"\r\n        );\r\n        _studentApplicationsMapping[student].push(application);\r\n    }\r\n\r\n    function viewMyApplications() public view returns (address[] memory) {\r\n        return viewStudentApplications(_msgSender());\r\n    }\r\n\r\n    function viewStudentApplications(address addr)\r\n        public\r\n        view\r\n        returns (address[] memory)\r\n    {\r\n        require(\r\n            addr == _msgSender() || hasRole(GRANTS_MANAGER_ROLE, _msgSender()),\r\n            \"Classroom: read permission denied\"\r\n        );\r\n        return _studentApplicationsMapping[addr];\r\n    }\r\n\r\n    function studentRequestClassroom(\r\n        address applicationAddr,\r\n        bytes32 cName,\r\n        uint24 cCut,\r\n        uint24 cPCut,\r\n        int32 minScore,\r\n        uint256 entryPrice,\r\n        uint256 duration,\r\n        address challenge\r\n    ) public {\r\n        require(\r\n            hasRole(STUDENT_IDENTITY_ROLE, _msgSender()),\r\n            \"University: caller doesn't have STUDENT_IDENTITY_ROLE\"\r\n        );\r\n        require(\r\n            checkForStudentApplication(_msgSender(), applicationAddr),\r\n            \"University: caller is not student of this application\"\r\n        );\r\n        StudentApplication application = StudentApplication(applicationAddr);\r\n        require(\r\n            application.applicationState() == 3,\r\n            \"University: application is not successful\"\r\n        );\r\n        _newClassRoom(\r\n            Student(_msgSender()).owner(),\r\n            cName,\r\n            cCut,\r\n            cPCut,\r\n            minScore,\r\n            entryPrice,\r\n            duration,\r\n            challenge\r\n        );\r\n    }\r\n\r\n    function checkForStudentApplication(\r\n        address studentAddress,\r\n        address applicationAddress\r\n    ) internal view returns (bool) {\r\n        for (\r\n            uint256 i = 0;\r\n            i < _studentApplicationsMapping[studentAddress].length;\r\n            i++\r\n        ) {\r\n            if (\r\n                _studentApplicationsMapping[studentAddress][i] ==\r\n                applicationAddress\r\n            ) return true;\r\n        }\r\n        return false;\r\n    }\r\n\r\n    function addStudentScore(address student, int32 val) public {\r\n        require(\r\n            hasRole(CLASSROOM_PROFESSOR_ROLE, _msgSender()),\r\n            \"University: caller doesn't have CLASSROOM_PROFESSOR_ROLE\"\r\n        );\r\n        Student(student).addScore(val);\r\n    }\r\n\r\n    function subStudentScore(address student, int32 val) public {\r\n        require(\r\n            hasRole(CLASSROOM_PROFESSOR_ROLE, _msgSender()),\r\n            \"University: caller doesn't have CLASSROOM_PROFESSOR_ROLE\"\r\n        );\r\n        Student(student).subScore(val);\r\n    }\r\n\r\n    function applyFunds(uint256 val) public {\r\n        require(\r\n            hasRole(FUNDS_MANAGER_ROLE, _msgSender()),\r\n            \"University: caller doesn't have FUNDS_MANAGER_ROLE\"\r\n        );\r\n        daiToken.approve(address(cToken), val);\r\n        cToken.mint(val);\r\n    }\r\n\r\n    function recoverFunds(uint256 val) public {\r\n        require(\r\n            hasRole(FUNDS_MANAGER_ROLE, _msgSender()),\r\n            \"University: caller doesn't have FUNDS_MANAGER_ROLE\"\r\n        );\r\n        cToken.redeemUnderlying(val);\r\n    }\r\n\r\n    function spendFunds(address to, uint256 val) public {\r\n        require(\r\n            hasRole(FUNDS_MANAGER_ROLE, _msgSender()),\r\n            \"University: caller doesn't have FUNDS_MANAGER_ROLE\"\r\n        );\r\n        daiToken.transfer(to, val);\r\n    }\r\n\r\n    function allowFunds(address to, uint256 val) public {\r\n        require(\r\n            hasRole(FUNDS_MANAGER_ROLE, _msgSender()),\r\n            \"University: caller doesn't have FUNDS_MANAGER_ROLE\"\r\n        );\r\n        daiToken.approve(to, val);\r\n    }\r\n\r\n    //TODO: manage grants\r\n\r\n    //TODO: implement funds manager\r\n\r\n    //TODO: implement funds manager governance\r\n}\r\n",
  "sourcePath": "/mnt/e/Repositories/Uproot/contracts/University.sol",
  "compiler": {
    "name": "solc",
    "version": "0.6.6+commit.6c089d02.Emscripten.clang"
  },
  "schemaVersion": "3.1.0",
  "updatedAt": "2020-05-04T00:01:58.593Z",
  "devdoc": {
    "methods": {
      "getRoleAdmin(bytes32)": {
        "details": "Returns the admin role that controls `role`. See {grantRole} and {revokeRole}.     * To change a role's admin, use {_setRoleAdmin}."
      },
      "getRoleMember(bytes32,uint256)": {
        "details": "Returns one of the accounts that have `role`. `index` must be a value between 0 and {getRoleMemberCount}, non-inclusive.     * Role bearers are not sorted in any particular way, and their ordering may change at any point.     * WARNING: When using {getRoleMember} and {getRoleMemberCount}, make sure you perform all queries on the same block. See the following https://forum.openzeppelin.com/t/iterating-over-elements-on-enumerableset-in-openzeppelin-contracts/2296[forum post] for more information."
      },
      "getRoleMemberCount(bytes32)": {
        "details": "Returns the number of accounts that have `role`. Can be used together with {getRoleMember} to enumerate all bearers of a role."
      },
      "grantRole(bytes32,address)": {
        "details": "Grants `role` to `account`.     * If `account` had not been already granted `role`, emits a {RoleGranted} event.     * Requirements:     * - the caller must have ``role``'s admin role."
      },
      "hasRole(bytes32,address)": {
        "details": "Returns `true` if `account` has been granted `role`."
      },
      "owner()": {
        "details": "Returns the address of the current owner."
      },
      "renounceOwnership()": {
        "details": "Leaves the contract without owner. It will not be possible to call `onlyOwner` functions anymore. Can only be called by the current owner.     * NOTE: Renouncing ownership will leave the contract without an owner, thereby removing any functionality that is only available to the owner."
      },
      "renounceRole(bytes32,address)": {
        "details": "Revokes `role` from the calling account.     * Roles are often managed via {grantRole} and {revokeRole}: this function's purpose is to provide a mechanism for accounts to lose their privileges if they are compromised (such as when a trusted device is misplaced).     * If the calling account had been granted `role`, emits a {RoleRevoked} event.     * Requirements:     * - the caller must be `account`."
      },
      "revokeRole(bytes32,address)": {
        "details": "Revokes `role` from `account`.     * If `account` had been granted `role`, emits a {RoleRevoked} event.     * Requirements:     * - the caller must have ``role``'s admin role."
      },
      "transferOwnership(address)": {
        "details": "Transfers ownership of the contract to a new account (`newOwner`). Can only be called by the current owner."
      }
    }
  },
  "userdoc": {
    "methods": {}
  }
}