{
  "contractName": "University",
  "abi": [
    {
      "inputs": [
        {
          "internalType": "bytes32",
          "name": "name_",
          "type": "bytes32"
        },
        {
          "internalType": "uint24",
          "name": "cut_",
          "type": "uint24"
        },
        {
          "internalType": "uint256",
          "name": "studentGSNDeposit",
          "type": "uint256"
        },
        {
          "internalType": "address",
          "name": "daiAddress",
          "type": "address"
        },
        {
          "internalType": "address",
          "name": "relayHubAddress",
          "type": "address"
        },
        {
          "internalType": "address",
          "name": "classroomFactoryAddress",
          "type": "address"
        },
        {
          "internalType": "address",
          "name": "studentFactoryAddress",
          "type": "address"
        },
        {
          "internalType": "address",
          "name": "studentApplicationFactoryAddress",
          "type": "address"
        }
      ],
      "stateMutability": "nonpayable",
      "type": "constructor"
    },
    {
      "anonymous": false,
      "inputs": [
        {
          "indexed": false,
          "internalType": "uint24",
          "name": "",
          "type": "uint24"
        }
      ],
      "name": "LogChangeCut",
      "type": "event"
    },
    {
      "anonymous": false,
      "inputs": [
        {
          "indexed": false,
          "internalType": "bytes32",
          "name": "",
          "type": "bytes32"
        }
      ],
      "name": "LogChangeName",
      "type": "event"
    },
    {
      "anonymous": false,
      "inputs": [
        {
          "indexed": false,
          "internalType": "address",
          "name": "",
          "type": "address"
        },
        {
          "indexed": false,
          "internalType": "uint256",
          "name": "",
          "type": "uint256"
        }
      ],
      "name": "LogDonation",
      "type": "event"
    },
    {
      "anonymous": false,
      "inputs": [
        {
          "indexed": false,
          "internalType": "bytes32",
          "name": "",
          "type": "bytes32"
        },
        {
          "indexed": false,
          "internalType": "address",
          "name": "",
          "type": "address"
        }
      ],
      "name": "LogNewClassroom",
      "type": "event"
    },
    {
      "anonymous": false,
      "inputs": [
        {
          "indexed": false,
          "internalType": "address",
          "name": "",
          "type": "address"
        },
        {
          "indexed": false,
          "internalType": "uint256",
          "name": "",
          "type": "uint256"
        }
      ],
      "name": "LogReceived",
      "type": "event"
    },
    {
      "anonymous": false,
      "inputs": [
        {
          "indexed": false,
          "internalType": "address",
          "name": "",
          "type": "address"
        },
        {
          "indexed": false,
          "internalType": "uint256",
          "name": "",
          "type": "uint256"
        }
      ],
      "name": "LogReturn",
      "type": "event"
    },
    {
      "anonymous": false,
      "inputs": [
        {
          "indexed": false,
          "internalType": "address",
          "name": "",
          "type": "address"
        },
        {
          "indexed": false,
          "internalType": "uint256",
          "name": "",
          "type": "uint256"
        }
      ],
      "name": "LogRevenue",
      "type": "event"
    },
    {
      "anonymous": false,
      "inputs": [
        {
          "indexed": true,
          "internalType": "address",
          "name": "previousOwner",
          "type": "address"
        },
        {
          "indexed": true,
          "internalType": "address",
          "name": "newOwner",
          "type": "address"
        }
      ],
      "name": "OwnershipTransferred",
      "type": "event"
    },
    {
      "anonymous": false,
      "inputs": [
        {
          "indexed": true,
          "internalType": "bytes32",
          "name": "role",
          "type": "bytes32"
        },
        {
          "indexed": true,
          "internalType": "address",
          "name": "account",
          "type": "address"
        },
        {
          "indexed": true,
          "internalType": "address",
          "name": "sender",
          "type": "address"
        }
      ],
      "name": "RoleGranted",
      "type": "event"
    },
    {
      "anonymous": false,
      "inputs": [
        {
          "indexed": true,
          "internalType": "bytes32",
          "name": "role",
          "type": "bytes32"
        },
        {
          "indexed": true,
          "internalType": "address",
          "name": "account",
          "type": "address"
        },
        {
          "indexed": true,
          "internalType": "address",
          "name": "sender",
          "type": "address"
        }
      ],
      "name": "RoleRevoked",
      "type": "event"
    },
    {
      "inputs": [],
      "name": "CLASSLIST_ADMIN_ROLE",
      "outputs": [
        {
          "internalType": "bytes32",
          "name": "",
          "type": "bytes32"
        }
      ],
      "stateMutability": "view",
      "type": "function",
      "constant": true
    },
    {
      "inputs": [],
      "name": "CLASSROOM_PROFESSOR_ROLE",
      "outputs": [
        {
          "internalType": "bytes32",
          "name": "",
          "type": "bytes32"
        }
      ],
      "stateMutability": "view",
      "type": "function",
      "constant": true
    },
    {
      "inputs": [],
      "name": "DEFAULT_ADMIN_ROLE",
      "outputs": [
        {
          "internalType": "bytes32",
          "name": "",
          "type": "bytes32"
        }
      ],
      "stateMutability": "view",
      "type": "function",
      "constant": true
    },
    {
      "inputs": [],
      "name": "FUNDS_MANAGER_ROLE",
      "outputs": [
        {
          "internalType": "bytes32",
          "name": "",
          "type": "bytes32"
        }
      ],
      "stateMutability": "view",
      "type": "function",
      "constant": true
    },
    {
      "inputs": [],
      "name": "GRANTS_MANAGER_ROLE",
      "outputs": [
        {
          "internalType": "bytes32",
          "name": "",
          "type": "bytes32"
        }
      ],
      "stateMutability": "view",
      "type": "function",
      "constant": true
    },
    {
      "inputs": [],
      "name": "READ_STUDENT_LIST_ROLE",
      "outputs": [
        {
          "internalType": "bytes32",
          "name": "",
          "type": "bytes32"
        }
      ],
      "stateMutability": "view",
      "type": "function",
      "constant": true
    },
    {
      "inputs": [],
      "name": "REGISTERED_SUPPLIER_ROLE",
      "outputs": [
        {
          "internalType": "bytes32",
          "name": "",
          "type": "bytes32"
        }
      ],
      "stateMutability": "view",
      "type": "function",
      "constant": true
    },
    {
      "inputs": [],
      "name": "STUDENT_IDENTITY_ROLE",
      "outputs": [
        {
          "internalType": "bytes32",
          "name": "",
          "type": "bytes32"
        }
      ],
      "stateMutability": "view",
      "type": "function",
      "constant": true
    },
    {
      "inputs": [],
      "name": "UNIVERSITY_OVERSEER_ROLE",
      "outputs": [
        {
          "internalType": "bytes32",
          "name": "",
          "type": "bytes32"
        }
      ],
      "stateMutability": "view",
      "type": "function",
      "constant": true
    },
    {
      "inputs": [
        {
          "internalType": "uint256",
          "name": "",
          "type": "uint256"
        }
      ],
      "name": "_classList",
      "outputs": [
        {
          "internalType": "address",
          "name": "",
          "type": "address"
        }
      ],
      "stateMutability": "view",
      "type": "function",
      "constant": true
    },
    {
      "inputs": [],
      "name": "_msgSenderGSN",
      "outputs": [
        {
          "internalType": "address",
          "name": "",
          "type": "address"
        }
      ],
      "stateMutability": "view",
      "type": "function",
      "constant": true
    },
    {
      "inputs": [],
      "name": "_uniswapRouter",
      "outputs": [
        {
          "internalType": "contract IUniswapV2Router01",
          "name": "",
          "type": "address"
        }
      ],
      "stateMutability": "view",
      "type": "function",
      "constant": true
    },
    {
      "inputs": [],
      "name": "cDAI",
      "outputs": [
        {
          "internalType": "contract CERC20",
          "name": "",
          "type": "address"
        }
      ],
      "stateMutability": "view",
      "type": "function",
      "constant": true
    },
    {
      "inputs": [],
      "name": "comptroller",
      "outputs": [
        {
          "internalType": "contract IComptroller",
          "name": "",
          "type": "address"
        }
      ],
      "stateMutability": "view",
      "type": "function",
      "constant": true
    },
    {
      "inputs": [],
      "name": "cut",
      "outputs": [
        {
          "internalType": "uint24",
          "name": "",
          "type": "uint24"
        }
      ],
      "stateMutability": "view",
      "type": "function",
      "constant": true
    },
    {
      "inputs": [],
      "name": "daiToken",
      "outputs": [
        {
          "internalType": "contract IERC20",
          "name": "",
          "type": "address"
        }
      ],
      "stateMutability": "view",
      "type": "function",
      "constant": true
    },
    {
      "inputs": [],
      "name": "donationsReceived",
      "outputs": [
        {
          "internalType": "uint256",
          "name": "",
          "type": "uint256"
        }
      ],
      "stateMutability": "view",
      "type": "function",
      "constant": true
    },
    {
      "inputs": [
        {
          "internalType": "address",
          "name": "",
          "type": "address"
        }
      ],
      "name": "donators",
      "outputs": [
        {
          "internalType": "uint256",
          "name": "",
          "type": "uint256"
        }
      ],
      "stateMutability": "view",
      "type": "function",
      "constant": true
    },
    {
      "inputs": [],
      "name": "endowmentLocked",
      "outputs": [
        {
          "internalType": "uint256",
          "name": "",
          "type": "uint256"
        }
      ],
      "stateMutability": "view",
      "type": "function",
      "constant": true
    },
    {
      "inputs": [
        {
          "internalType": "bytes32",
          "name": "role",
          "type": "bytes32"
        }
      ],
      "name": "getRoleAdmin",
      "outputs": [
        {
          "internalType": "bytes32",
          "name": "",
          "type": "bytes32"
        }
      ],
      "stateMutability": "view",
      "type": "function",
      "constant": true
    },
    {
      "inputs": [
        {
          "internalType": "bytes32",
          "name": "role",
          "type": "bytes32"
        },
        {
          "internalType": "uint256",
          "name": "index",
          "type": "uint256"
        }
      ],
      "name": "getRoleMember",
      "outputs": [
        {
          "internalType": "address",
          "name": "",
          "type": "address"
        }
      ],
      "stateMutability": "view",
      "type": "function",
      "constant": true
    },
    {
      "inputs": [
        {
          "internalType": "bytes32",
          "name": "role",
          "type": "bytes32"
        }
      ],
      "name": "getRoleMemberCount",
      "outputs": [
        {
          "internalType": "uint256",
          "name": "",
          "type": "uint256"
        }
      ],
      "stateMutability": "view",
      "type": "function",
      "constant": true
    },
    {
      "inputs": [],
      "name": "getTrustedForwarder",
      "outputs": [
        {
          "internalType": "address",
          "name": "",
          "type": "address"
        }
      ],
      "stateMutability": "view",
      "type": "function",
      "constant": true
    },
    {
      "inputs": [
        {
          "internalType": "bytes32",
          "name": "role",
          "type": "bytes32"
        },
        {
          "internalType": "address",
          "name": "account",
          "type": "address"
        }
      ],
      "name": "grantRole",
      "outputs": [],
      "stateMutability": "nonpayable",
      "type": "function"
    },
    {
      "inputs": [
        {
          "internalType": "bytes32",
          "name": "role",
          "type": "bytes32"
        },
        {
          "internalType": "address",
          "name": "account",
          "type": "address"
        }
      ],
      "name": "hasRole",
      "outputs": [
        {
          "internalType": "bool",
          "name": "",
          "type": "bool"
        }
      ],
      "stateMutability": "view",
      "type": "function",
      "constant": true
    },
    {
      "inputs": [],
      "name": "name",
      "outputs": [
        {
          "internalType": "bytes32",
          "name": "",
          "type": "bytes32"
        }
      ],
      "stateMutability": "view",
      "type": "function",
      "constant": true
    },
    {
      "inputs": [],
      "name": "operationalBudget",
      "outputs": [
        {
          "internalType": "uint256",
          "name": "",
          "type": "uint256"
        }
      ],
      "stateMutability": "view",
      "type": "function",
      "constant": true
    },
    {
      "inputs": [],
      "name": "owner",
      "outputs": [
        {
          "internalType": "address",
          "name": "",
          "type": "address"
        }
      ],
      "stateMutability": "view",
      "type": "function",
      "constant": true
    },
    {
      "inputs": [],
      "name": "priceOracle",
      "outputs": [
        {
          "internalType": "contract IPriceOracle",
          "name": "",
          "type": "address"
        }
      ],
      "stateMutability": "view",
      "type": "function",
      "constant": true
    },
    {
      "inputs": [],
      "name": "relayHub",
      "outputs": [
        {
          "internalType": "contract IRelayHub",
          "name": "",
          "type": "address"
        }
      ],
      "stateMutability": "view",
      "type": "function",
      "constant": true
    },
    {
      "inputs": [],
      "name": "renounceOwnership",
      "outputs": [],
      "stateMutability": "nonpayable",
      "type": "function"
    },
    {
      "inputs": [
        {
          "internalType": "bytes32",
          "name": "role",
          "type": "bytes32"
        },
        {
          "internalType": "address",
          "name": "account",
          "type": "address"
        }
      ],
      "name": "renounceRole",
      "outputs": [],
      "stateMutability": "nonpayable",
      "type": "function"
    },
    {
      "inputs": [],
      "name": "returnsReceived",
      "outputs": [
        {
          "internalType": "uint256",
          "name": "",
          "type": "uint256"
        }
      ],
      "stateMutability": "view",
      "type": "function",
      "constant": true
    },
    {
      "inputs": [],
      "name": "revenueReceived",
      "outputs": [
        {
          "internalType": "uint256",
          "name": "",
          "type": "uint256"
        }
      ],
      "stateMutability": "view",
      "type": "function",
      "constant": true
    },
    {
      "inputs": [
        {
          "internalType": "bytes32",
          "name": "role",
          "type": "bytes32"
        },
        {
          "internalType": "address",
          "name": "account",
          "type": "address"
        }
      ],
      "name": "revokeRole",
      "outputs": [],
      "stateMutability": "nonpayable",
      "type": "function"
    },
    {
      "inputs": [
        {
          "internalType": "address",
          "name": "newOwner",
          "type": "address"
        }
      ],
      "name": "transferOwnership",
      "outputs": [],
      "stateMutability": "nonpayable",
      "type": "function"
    },
    {
      "stateMutability": "payable",
      "type": "receive",
      "payable": true
    },
    {
      "inputs": [
        {
          "internalType": "uint256",
          "name": "val",
          "type": "uint256"
        }
      ],
      "name": "withdraw",
      "outputs": [],
      "stateMutability": "nonpayable",
      "type": "function"
    },
    {
      "inputs": [
        {
          "internalType": "address",
          "name": "compoundDAIAddress",
          "type": "address"
        },
        {
          "internalType": "address",
          "name": "comptrollerAddress",
          "type": "address"
        },
        {
          "internalType": "address",
          "name": "priceOracleAddress",
          "type": "address"
        }
      ],
      "name": "configureCompound",
      "outputs": [],
      "stateMutability": "nonpayable",
      "type": "function"
    },
    {
      "inputs": [
        {
          "internalType": "address",
          "name": "uniswapWETH",
          "type": "address"
        },
        {
          "internalType": "address",
          "name": "uniswapDAI",
          "type": "address"
        },
        {
          "internalType": "address",
          "name": "uniswapRouter",
          "type": "address"
        }
      ],
      "name": "configureUniswap",
      "outputs": [],
      "stateMutability": "nonpayable",
      "type": "function"
    },
    {
      "inputs": [
        {
          "internalType": "address",
          "name": "lendingPoolAddressesProvider",
          "type": "address"
        }
      ],
      "name": "configureAave",
      "outputs": [],
      "stateMutability": "nonpayable",
      "type": "function"
    },
    {
      "inputs": [
        {
          "internalType": "bytes32",
          "name": "val",
          "type": "bytes32"
        }
      ],
      "name": "changeName",
      "outputs": [],
      "stateMutability": "nonpayable",
      "type": "function"
    },
    {
      "inputs": [
        {
          "internalType": "uint24",
          "name": "val",
          "type": "uint24"
        }
      ],
      "name": "changeCut",
      "outputs": [],
      "stateMutability": "nonpayable",
      "type": "function"
    },
    {
      "inputs": [
        {
          "internalType": "uint256",
          "name": "val",
          "type": "uint256"
        }
      ],
      "name": "changeStudentGSNDeposit",
      "outputs": [],
      "stateMutability": "nonpayable",
      "type": "function"
    },
    {
      "inputs": [],
      "name": "availableFundsForInvestment",
      "outputs": [
        {
          "internalType": "uint256",
          "name": "",
          "type": "uint256"
        }
      ],
      "stateMutability": "view",
      "type": "function",
      "constant": true
    },
    {
      "inputs": [],
      "name": "availableFunds",
      "outputs": [
        {
          "internalType": "uint256",
          "name": "",
          "type": "uint256"
        }
      ],
      "stateMutability": "view",
      "type": "function",
      "constant": true
    },
    {
      "inputs": [
        {
          "internalType": "address",
          "name": "classroom",
          "type": "address"
        }
      ],
      "name": "isValidClassroom",
      "outputs": [
        {
          "internalType": "bool",
          "name": "",
          "type": "bool"
        }
      ],
      "stateMutability": "view",
      "type": "function",
      "constant": true
    },
    {
      "inputs": [
        {
          "internalType": "address",
          "name": "student",
          "type": "address"
        }
      ],
      "name": "studentIsRegistered",
      "outputs": [
        {
          "internalType": "bool",
          "name": "",
          "type": "bool"
        }
      ],
      "stateMutability": "view",
      "type": "function",
      "constant": true
    },
    {
      "inputs": [],
      "name": "viewMyApplications",
      "outputs": [
        {
          "internalType": "address[]",
          "name": "",
          "type": "address[]"
        }
      ],
      "stateMutability": "view",
      "type": "function",
      "constant": true
    },
    {
      "inputs": [
        {
          "internalType": "address",
          "name": "addr",
          "type": "address"
        }
      ],
      "name": "viewStudentApplications",
      "outputs": [
        {
          "internalType": "address[]",
          "name": "",
          "type": "address[]"
        }
      ],
      "stateMutability": "view",
      "type": "function",
      "constant": true
    },
    {
      "inputs": [
        {
          "internalType": "bytes32",
          "name": "sName",
          "type": "bytes32"
        }
      ],
      "name": "studentSelfRegisterGSN",
      "outputs": [
        {
          "internalType": "address",
          "name": "",
          "type": "address"
        }
      ],
      "stateMutability": "nonpayable",
      "type": "function"
    },
    {
      "inputs": [
        {
          "internalType": "bytes32",
          "name": "sName",
          "type": "bytes32"
        }
      ],
      "name": "studentSelfRegister",
      "outputs": [
        {
          "internalType": "address",
          "name": "",
          "type": "address"
        }
      ],
      "stateMutability": "nonpayable",
      "type": "function"
    },
    {
      "inputs": [
        {
          "internalType": "address",
          "name": "owner",
          "type": "address"
        },
        {
          "internalType": "bytes32",
          "name": "cName",
          "type": "bytes32"
        },
        {
          "internalType": "uint24",
          "name": "cCut",
          "type": "uint24"
        },
        {
          "internalType": "uint24",
          "name": "cPCut",
          "type": "uint24"
        },
        {
          "internalType": "int32",
          "name": "minScore",
          "type": "int32"
        },
        {
          "internalType": "uint256",
          "name": "entryPrice",
          "type": "uint256"
        },
        {
          "internalType": "uint256",
          "name": "duration",
          "type": "uint256"
        },
        {
          "internalType": "address",
          "name": "challengeAddress",
          "type": "address"
        }
      ],
      "name": "newClassRoom",
      "outputs": [
        {
          "internalType": "address",
          "name": "",
          "type": "address"
        }
      ],
      "stateMutability": "nonpayable",
      "type": "function"
    },
    {
      "inputs": [
        {
          "internalType": "address",
          "name": "applicationAddr",
          "type": "address"
        },
        {
          "internalType": "bytes32",
          "name": "cName",
          "type": "bytes32"
        },
        {
          "internalType": "uint24",
          "name": "cCut",
          "type": "uint24"
        },
        {
          "internalType": "uint24",
          "name": "cPCut",
          "type": "uint24"
        },
        {
          "internalType": "int32",
          "name": "minScore",
          "type": "int32"
        },
        {
          "internalType": "uint256",
          "name": "entryPrice",
          "type": "uint256"
        },
        {
          "internalType": "uint256",
          "name": "duration",
          "type": "uint256"
        },
        {
          "internalType": "address",
          "name": "challenge",
          "type": "address"
        }
      ],
      "name": "studentRequestClassroom",
      "outputs": [
        {
          "internalType": "address",
          "name": "",
          "type": "address"
        }
      ],
      "stateMutability": "nonpayable",
      "type": "function"
    },
    {
      "inputs": [
        {
          "internalType": "address",
          "name": "student",
          "type": "address"
        },
        {
          "internalType": "address",
          "name": "application",
          "type": "address"
        }
      ],
      "name": "registerStudentApplication",
      "outputs": [],
      "stateMutability": "nonpayable",
      "type": "function"
    },
    {
      "inputs": [
        {
          "internalType": "address",
          "name": "student",
          "type": "address"
        },
        {
          "internalType": "int32",
          "name": "val",
          "type": "int32"
        }
      ],
      "name": "addStudentScore",
      "outputs": [],
      "stateMutability": "nonpayable",
      "type": "function"
    },
    {
      "inputs": [
        {
          "internalType": "address",
          "name": "student",
          "type": "address"
        },
        {
          "internalType": "int32",
          "name": "val",
          "type": "int32"
        }
      ],
      "name": "subStudentScore",
      "outputs": [],
      "stateMutability": "nonpayable",
      "type": "function"
    },
    {
      "inputs": [
        {
          "internalType": "uint256",
          "name": "val",
          "type": "uint256"
        }
      ],
      "name": "applyFundsCompound",
      "outputs": [],
      "stateMutability": "nonpayable",
      "type": "function"
    },
    {
      "inputs": [],
      "name": "appliedDAICompound",
      "outputs": [
        {
          "internalType": "uint256",
          "name": "",
          "type": "uint256"
        }
      ],
      "stateMutability": "view",
      "type": "function",
      "constant": true
    },
    {
      "inputs": [
        {
          "internalType": "uint256",
          "name": "val",
          "type": "uint256"
        }
      ],
      "name": "recoverFundsCompound",
      "outputs": [],
      "stateMutability": "nonpayable",
      "type": "function"
    },
    {
      "inputs": [
        {
          "internalType": "uint256",
          "name": "val",
          "type": "uint256"
        }
      ],
      "name": "applyFundsAave",
      "outputs": [],
      "stateMutability": "nonpayable",
      "type": "function"
    },
    {
      "inputs": [],
      "name": "appliedDAIAave",
      "outputs": [
        {
          "internalType": "uint256",
          "name": "",
          "type": "uint256"
        }
      ],
      "stateMutability": "view",
      "type": "function",
      "constant": true
    },
    {
      "inputs": [
        {
          "internalType": "uint256",
          "name": "val",
          "type": "uint256"
        }
      ],
      "name": "recoverFundsAave",
      "outputs": [],
      "stateMutability": "nonpayable",
      "type": "function"
    },
    {
      "inputs": [
        {
          "internalType": "bool",
          "name": "state",
          "type": "bool"
        }
      ],
      "name": "setAaveMarketCollateralForDAI",
      "outputs": [],
      "stateMutability": "nonpayable",
      "type": "function"
    },
    {
      "inputs": [
        {
          "internalType": "address",
          "name": "token",
          "type": "address"
        },
        {
          "internalType": "bool",
          "name": "state",
          "type": "bool"
        }
      ],
      "name": "setAaveMarketCollateral",
      "outputs": [],
      "stateMutability": "nonpayable",
      "type": "function"
    },
    {
      "inputs": [],
      "name": "enterCompoundDAIMarket",
      "outputs": [],
      "stateMutability": "nonpayable",
      "type": "function"
    },
    {
      "inputs": [
        {
          "internalType": "address",
          "name": "token",
          "type": "address"
        }
      ],
      "name": "enterCompoundMarket",
      "outputs": [],
      "stateMutability": "nonpayable",
      "type": "function"
    },
    {
      "inputs": [],
      "name": "exitCompoundDAIMarket",
      "outputs": [],
      "stateMutability": "nonpayable",
      "type": "function"
    },
    {
      "inputs": [
        {
          "internalType": "address",
          "name": "token",
          "type": "address"
        }
      ],
      "name": "exitCompoundMarket",
      "outputs": [],
      "stateMutability": "nonpayable",
      "type": "function"
    },
    {
      "inputs": [],
      "name": "getCompoundLiquidityAndShortfall",
      "outputs": [
        {
          "internalType": "uint256",
          "name": "",
          "type": "uint256"
        },
        {
          "internalType": "uint256",
          "name": "",
          "type": "uint256"
        }
      ],
      "stateMutability": "view",
      "type": "function",
      "constant": true
    },
    {
      "inputs": [
        {
          "internalType": "address",
          "name": "cToken",
          "type": "address"
        }
      ],
      "name": "getCompoundPriceInWEI",
      "outputs": [
        {
          "internalType": "uint256",
          "name": "",
          "type": "uint256"
        }
      ],
      "stateMutability": "view",
      "type": "function",
      "constant": true
    },
    {
      "inputs": [
        {
          "internalType": "address",
          "name": "cToken",
          "type": "address"
        }
      ],
      "name": "getCompoundMaxBorrowInWEI",
      "outputs": [
        {
          "internalType": "uint256",
          "name": "",
          "type": "uint256"
        }
      ],
      "stateMutability": "view",
      "type": "function",
      "constant": true
    },
    {
      "inputs": [
        {
          "internalType": "address",
          "name": "cToken",
          "type": "address"
        },
        {
          "internalType": "uint256",
          "name": "val",
          "type": "uint256"
        }
      ],
      "name": "compoundBorrow",
      "outputs": [],
      "stateMutability": "nonpayable",
      "type": "function"
    },
    {
      "inputs": [
        {
          "internalType": "address",
          "name": "cToken",
          "type": "address"
        }
      ],
      "name": "compoundGetBorrow",
      "outputs": [
        {
          "internalType": "uint256",
          "name": "",
          "type": "uint256"
        }
      ],
      "stateMutability": "view",
      "type": "function",
      "constant": true
    },
    {
      "inputs": [
        {
          "internalType": "address",
          "name": "token",
          "type": "address"
        },
        {
          "internalType": "address",
          "name": "cToken",
          "type": "address"
        },
        {
          "internalType": "uint256",
          "name": "val",
          "type": "uint256"
        }
      ],
      "name": "compoundRepayBorrow",
      "outputs": [],
      "stateMutability": "nonpayable",
      "type": "function"
    },
    {
      "inputs": [
        {
          "internalType": "address",
          "name": "token",
          "type": "address"
        },
        {
          "internalType": "uint256",
          "name": "val",
          "type": "uint256"
        },
        {
          "internalType": "bool",
          "name": "variableRate",
          "type": "bool"
        }
      ],
      "name": "aaveGetBorrow",
      "outputs": [],
      "stateMutability": "nonpayable",
      "type": "function"
    },
    {
      "inputs": [
        {
          "internalType": "address",
          "name": "token",
          "type": "address"
        },
        {
          "internalType": "uint256",
          "name": "val",
          "type": "uint256"
        }
      ],
      "name": "aaveRepayBorrow",
      "outputs": [],
      "stateMutability": "nonpayable",
      "type": "function"
    },
    {
      "inputs": [
        {
          "internalType": "address",
          "name": "token",
          "type": "address"
        }
      ],
      "name": "aaveSwapBorrowRateMode",
      "outputs": [],
      "stateMutability": "nonpayable",
      "type": "function"
    },
    {
      "inputs": [
        {
          "internalType": "uint256",
          "name": "val",
          "type": "uint256"
        }
      ],
      "name": "increaseOperationalBudget",
      "outputs": [],
      "stateMutability": "nonpayable",
      "type": "function"
    },
    {
      "inputs": [
        {
          "internalType": "uint256",
          "name": "val",
          "type": "uint256"
        }
      ],
      "name": "decreaseOperationalBudget",
      "outputs": [],
      "stateMutability": "nonpayable",
      "type": "function"
    },
    {
      "inputs": [
        {
          "internalType": "address",
          "name": "to",
          "type": "address"
        },
        {
          "internalType": "uint256",
          "name": "val",
          "type": "uint256"
        }
      ],
      "name": "spendBudget",
      "outputs": [],
      "stateMutability": "nonpayable",
      "type": "function"
    },
    {
      "inputs": [
        {
          "internalType": "address",
          "name": "studentApplication",
          "type": "address"
        },
        {
          "internalType": "uint256",
          "name": "price",
          "type": "uint256"
        }
      ],
      "name": "giveGrant",
      "outputs": [],
      "stateMutability": "nonpayable",
      "type": "function"
    },
    {
      "inputs": [
        {
          "internalType": "uint256",
          "name": "val",
          "type": "uint256"
        }
      ],
      "name": "reinvestReturns",
      "outputs": [],
      "stateMutability": "nonpayable",
      "type": "function"
    },
    {
      "inputs": [
        {
          "internalType": "address",
          "name": "grantsManager",
          "type": "address"
        }
      ],
      "name": "viewAllStudentsFromGrantManager",
      "outputs": [
        {
          "internalType": "address[]",
          "name": "",
          "type": "address[]"
        }
      ],
      "stateMutability": "nonpayable",
      "type": "function"
    },
    {
      "inputs": [
        {
          "internalType": "address",
          "name": "student",
          "type": "address"
        },
        {
          "internalType": "address",
          "name": "grantsManager",
          "type": "address"
        }
      ],
      "name": "viewAllStudentGrantsFromGrantManager",
      "outputs": [
        {
          "internalType": "uint256[]",
          "name": "",
          "type": "uint256[]"
        }
      ],
      "stateMutability": "nonpayable",
      "type": "function"
    },
    {
      "inputs": [
        {
          "components": [
            {
              "internalType": "address",
              "name": "target",
              "type": "address"
            },
            {
              "internalType": "bytes",
              "name": "encodedFunction",
              "type": "bytes"
            },
            {
              "components": [
                {
                  "internalType": "uint256",
                  "name": "gasLimit",
                  "type": "uint256"
                },
                {
                  "internalType": "uint256",
                  "name": "gasPrice",
                  "type": "uint256"
                },
                {
                  "internalType": "uint256",
                  "name": "pctRelayFee",
                  "type": "uint256"
                },
                {
                  "internalType": "uint256",
                  "name": "baseRelayFee",
                  "type": "uint256"
                }
              ],
              "internalType": "struct GSNTypes.GasData",
              "name": "gasData",
              "type": "tuple"
            },
            {
              "components": [
                {
                  "internalType": "address",
                  "name": "senderAddress",
                  "type": "address"
                },
                {
                  "internalType": "uint256",
                  "name": "senderNonce",
                  "type": "uint256"
                },
                {
                  "internalType": "address",
                  "name": "relayWorker",
                  "type": "address"
                },
                {
                  "internalType": "address",
                  "name": "paymaster",
                  "type": "address"
                }
              ],
              "internalType": "struct GSNTypes.RelayData",
              "name": "relayData",
              "type": "tuple"
            }
          ],
          "internalType": "struct GSNTypes.RelayRequest",
          "name": "relayRequest",
          "type": "tuple"
        },
        {
          "internalType": "bytes",
          "name": "",
          "type": "bytes"
        },
        {
          "internalType": "uint256",
          "name": "",
          "type": "uint256"
        }
      ],
      "name": "acceptRelayedCall",
      "outputs": [
        {
          "internalType": "bytes",
          "name": "context",
          "type": "bytes"
        }
      ],
      "stateMutability": "pure",
      "type": "function",
      "constant": true
    },
    {
      "inputs": [
        {
          "internalType": "uint256",
          "name": "val",
          "type": "uint256"
        }
      ],
      "name": "refillUniversityRelayer",
      "outputs": [],
      "stateMutability": "nonpayable",
      "type": "function"
    },
    {
      "inputs": [
        {
          "internalType": "uint256",
          "name": "amount",
          "type": "uint256"
        },
        {
          "internalType": "uint256",
          "name": "deadline",
          "type": "uint256"
        }
      ],
      "name": "swapDAI_ETH",
      "outputs": [
        {
          "internalType": "uint256[]",
          "name": "amounts",
          "type": "uint256[]"
        }
      ],
      "stateMutability": "nonpayable",
      "type": "function"
    },
    {
      "inputs": [
        {
          "internalType": "uint256",
          "name": "amount",
          "type": "uint256"
        },
        {
          "internalType": "uint256",
          "name": "deadline",
          "type": "uint256"
        }
      ],
      "name": "swapETH_DAI",
      "outputs": [
        {
          "internalType": "uint256[]",
          "name": "amounts",
          "type": "uint256[]"
        }
      ],
      "stateMutability": "nonpayable",
      "type": "function"
    },
    {
      "inputs": [
        {
          "internalType": "uint256",
          "name": "donation",
          "type": "uint256"
        }
      ],
      "name": "donateETH",
      "outputs": [],
      "stateMutability": "payable",
      "type": "function",
      "payable": true
    },
    {
      "inputs": [
        {
          "internalType": "uint256",
          "name": "donation",
          "type": "uint256"
        }
      ],
      "name": "donateDAI",
      "outputs": [],
      "stateMutability": "nonpayable",
      "type": "function"
    },
    {
      "inputs": [
        {
          "internalType": "uint256",
          "name": "revenue",
          "type": "uint256"
        }
      ],
      "name": "accountRevenue",
      "outputs": [],
      "stateMutability": "nonpayable",
      "type": "function"
    }
  ],
  "bytecode": "0x60806040523480156200001157600080fd5b5060405162005e7d38038062005e7d83398101604081905262000034916200036c565b6000620000496001600160e01b036200017316565b600080546001600160a01b0319166001600160a01b0383169081178255604051929350917f8be0079c531659141344cd1fd0a4f28419497f9722a3daafe3b4186f6b6457e0908290a35060038890556004805462ffffff191662ffffff89161790556005869055620000cf6000620000c062000173565b6001600160e01b036200017716565b6200010c604051620000e1906200040f565b604051908190039020620000fd6001600160e01b036200017316565b6001600160e01b036200019016565b601980546001600160a01b03199081166001600160a01b0397881617909155601a8054821695871695909517909455601b8054851693861693909317909255601c80548416918516919091179055601d805490921692169190911790555062000487915050565b3390565b6200018c82826001600160e01b03620001f116565b5050565b600082815260016020526040902060020154620001c990620001ba6001600160e01b036200017316565b6001600160e01b036200027516565b620001775760405162461bcd60e51b8152600401620001e89062000438565b60405180910390fd5b6000828152600160209081526040909120620002189183906200423b620002a4821b17901c565b156200018c57620002316001600160e01b036200017316565b6001600160a01b0316816001600160a01b0316837f2f8788117e7eff1d82e926ec794901d17c78024a50270940304540a733656f0d60405160405180910390a45050565b600082815260016020908152604082206200029b91849062003ee3620002c4821b17901c565b90505b92915050565b60006200029b836001600160a01b0384166001600160e01b03620002e416565b60006200029b836001600160a01b0384166001600160e01b036200033c16565b6000620002fb83836001600160e01b036200033c16565b62000333575081546001818101845560008481526020808220909301849055845484825282860190935260409020919091556200029e565b5060006200029e565b60009081526001919091016020526040902054151590565b80516001600160a01b03811681146200029e57600080fd5b600080600080600080600080610100898b03121562000389578384fd5b88519750602089015162ffffff81168114620003a3578485fd5b60408a01519097509550620003bc8a60608b0162000354565b9450620003cd8a60808b0162000354565b9350620003de8a60a08b0162000354565b9250620003ef8a60c08b0162000354565b9150620004008a60e08b0162000354565b90509295985092959890939650565b7f524541445f53545544454e545f4c4953545f524f4c4500000000000000000000815260160190565b6020808252602f908201527f416363657373436f6e74726f6c3a2073656e646572206d75737420626520616e60408201526e0818591b5a5b881d1bc819dc985b9d608a1b606082015260800190565b6159e680620004976000396000f3fe6080604052600436106105f05760003560e01c806385dade611161030c578063c2b94cd81161019a578063d547741f116100ec578063ef5450ba11610095578063f686484a1161006f578063f686484a14611026578063fa8e506014611046578063ff5d8f631461106657610630565b8063ef5450ba14610fd1578063f2fde38b14610ff1578063f676f43d1461101157610630565b8063e37dd980116100c6578063e37dd98014610f6f578063e6fd604c14610f8f578063e770d7d414610fb157610630565b8063d547741f14610f0f578063db85d2a414610f2f578063e1ba859714610f4f57610630565b8063cb0ce4171161014e578063cef600d711610128578063cef600d714610eba578063d24f8cdd14610ecf578063d3c5704e14610eef57610630565b8063cb0ce41714610e65578063cb4e560114610e85578063ce1b815f14610ea557610630565b8063c4707a831161017f578063c4707a8314610e10578063c799f5e214610e25578063ca15c87314610e4557610630565b8063c2b94cd814610dd0578063c45e108a14610df057610630565b80639e93d0e41161025e578063ab83f98a11610207578063bb9f7b5c116101e1578063bb9f7b5c14610d86578063be22f54614610da6578063be61437914610dbb57610630565b8063ab83f98a14610d26578063adcceca414610d39578063b1ed031f14610d5957610630565b8063a217fddf11610238578063a217fddf14610cd1578063a544594e14610ce6578063a9edd44514610d0657610630565b80639e93d0e414610c875780639fd6cb7a14610ca7578063a026dcc214610cbc57610630565b80638ff2f762116102c05780639b0969ab1161029a5780639b0969ab14610c325780639b5dbe7814610c525780639e1fcfde14610c7257610630565b80638ff2f76214610bd25780639010d07c14610bf257806391d1485414610c1257610630565b8063898855ed116102f1578063898855ed14610b885780638a9f5b7f14610ba85780638da5cb5b14610bbd57610630565b806385dade6114610b4857806387bfe18814610b6857610630565b80633dc3214b116104895780636408a386116103db57806372d6b84b1161038457806380359c841161035e57806380359c8414610af35780638038090614610b13578063820cd75c14610b3357610630565b806372d6b84b14610a9e57806379b4acff14610ab35780637fd5c10814610ad357610630565b80636beb0c03116103b55780636beb0c0314610a5f5780636f6941b914610a74578063715018a614610a8957610630565b80636408a38614610a2057806364d4773114610a3557806365b61b7714610a4a57610630565b806351275dba1161043d5780635caa8e2d116104175780635caa8e2d146109e15780635fe3b567146109f6578063629bca6714610a0b57610630565b806351275dba1461098c5780635a7dd150146109a15780635b8f96de146109c157610630565b8063478ecefb1161046e578063478ecefb1461091f5780634884da051461093f5780634ea962c11461096c57610630565b80633dc3214b146108ea57806346fcff4c1461090a57610630565b8063248a9ca3116105425780632f2ff15d116104f65780633593aad6116104d05780633593aad61461088a57806336568abe146108aa578063377ef77f146108ca57610630565b80632f2ff15d1461083557806331eeae251461085557806332636ac91461087557610630565b8063284755181161052757806328475518146107eb578063289c5e54146108005780632e1a7d4d1461081557610630565b8063248a9ca3146107a95780632630c12f146107c957610630565b80631749201c116105a45780631ec1f9f31161057e5780631ec1f9f31461074757806321ae32111461075c578063238aaf2f1461077c57610630565b80631749201c146106f257806317b1a4cf14610712578063183b26001461072757610630565b8063139de731116105d5578063139de7311461068357806314a2a307146106a557806316ded1ce146106c557610630565b806306fdde031461063557806308186df91461066057610630565b36610630577f60e4c1ac84c9e2c4c0aa82b86b3b1ddf0b1b73fbbeb74c8bc8f8f06041ccfdf63334604051610626929190614b09565b60405180910390a1005b600080fd5b34801561064157600080fd5b5061064a611086565b6040516106579190614c54565b60405180910390f35b34801561066c57600080fd5b5061067561108c565b6040516106579291906158be565b34801561068f57600080fd5b506106a361069e36600461450f565b611167565b005b3480156106b157600080fd5b506106a36106c0366004614415565b611223565b3480156106d157600080fd5b506106e56106e0366004614415565b6112cc565b6040516106579190614c49565b3480156106fe57600080fd5b5061064a61070d366004614415565b61131c565b34801561071e57600080fd5b5061064a6113c3565b34801561073357600080fd5b506106a361074236600461444d565b6113c9565b34801561075357600080fd5b5061064a611432565b34801561076857600080fd5b506106a36107773660046145ff565b611438565b34801561078857600080fd5b5061079c61079736600461444d565b6114ff565b6040516106579190614c05565b3480156107b557600080fd5b5061064a6107c43660046147c0565b6115c7565b3480156107d557600080fd5b506107de6115dc565b6040516106579190614af5565b3480156107f757600080fd5b506107de6115eb565b34801561080c57600080fd5b506107de6115fa565b34801561082157600080fd5b506106a36108303660046147c0565b61167d565b34801561084157600080fd5b506106a36108503660046147d8565b6116c6565b34801561086157600080fd5b506106a3610870366004614415565b61170e565b34801561088157600080fd5b5061064a6117f5565b34801561089657600080fd5b506106a36108a53660046147c0565b61180c565b3480156108b657600080fd5b506106a36108c53660046147d8565b611892565b3480156108d657600080fd5b506106a36108e53660046147c0565b6118d4565b3480156108f657600080fd5b5061079c6109053660046147fc565b61199a565b34801561091657600080fd5b5061064a611a0d565b34801561092b57600080fd5b506106a361093a3660046147c0565b611ae9565b34801561094b57600080fd5b5061095f61095a366004614415565b611b89565b6040516106579190614bf2565b34801561097857600080fd5b506107de61098736600461453c565b611c2d565b34801561099857600080fd5b5061064a611c77565b3480156109ad57600080fd5b506107de6109bc3660046147c0565b611c7d565b3480156109cd57600080fd5b506106a36109dc366004614485565b611c90565b3480156109ed57600080fd5b506106a3611d04565b348015610a0257600080fd5b506107de611d1b565b348015610a1757600080fd5b5061064a611d2a565b348015610a2c57600080fd5b5061095f611d36565b348015610a4157600080fd5b5061064a611d48565b348015610a5657600080fd5b506107de611d54565b348015610a6b57600080fd5b5061064a611d63565b348015610a8057600080fd5b506107de611d69565b348015610a9557600080fd5b506106a3611d78565b348015610aaa57600080fd5b5061064a611df7565b348015610abf57600080fd5b506106a3610ace366004614788565b611e91565b348015610adf57600080fd5b506107de610aee36600461453c565b611ea7565b348015610aff57600080fd5b506106a3610b0e3660046144cf565b61202b565b348015610b1f57600080fd5b506106a3610b2e3660046147c0565b61219a565b348015610b3f57600080fd5b5061064a61222b565b348015610b5457600080fd5b506106e5610b63366004614415565b612237565b348015610b7457600080fd5b506106a3610b833660046145cc565b612248565b348015610b9457600080fd5b506106a3610ba33660046147c0565b6122b8565b348015610bb457600080fd5b5061064a61232d565b348015610bc957600080fd5b506107de612339565b348015610bde57600080fd5b506107de610bed3660046147c0565b612348565b348015610bfe57600080fd5b506107de610c0d3660046147fc565b6123c7565b348015610c1e57600080fd5b506106e5610c2d3660046147d8565b6123e5565b348015610c3e57600080fd5b506106a3610c4d3660046147c0565b612403565b348015610c5e57600080fd5b506106a3610c6d3660046147c0565b612483565b348015610c7e57600080fd5b506106a361251d565b348015610c9357600080fd5b506106a3610ca23660046147c0565b612532565b348015610cb357600080fd5b5061064a61258d565b348015610cc857600080fd5b5061064a612599565b348015610cdd57600080fd5b5061064a612648565b348015610cf257600080fd5b506106a3610d013660046147c0565b61264d565b348015610d1257600080fd5b506106a3610d21366004614415565b61267d565b6106a3610d343660046147c0565b6127bf565b348015610d4557600080fd5b5061064a610d54366004614415565b6127f4565b348015610d6557600080fd5b50610d79610d7436600461481d565b6128b6565b6040516106579190614cdf565b348015610d9257600080fd5b506106a3610da13660046145ff565b61299b565b348015610db257600080fd5b506107de612b3f565b348015610dc757600080fd5b5061064a612b4e565b348015610ddc57600080fd5b506106a3610deb3660046145ff565b612b5a565b348015610dfc57600080fd5b506106a3610e0b366004614485565b612be7565b348015610e1c57600080fd5b5061064a612c5b565b348015610e3157600080fd5b506106a3610e40366004614415565b612c67565b348015610e5157600080fd5b5061064a610e603660046147c0565b612ec7565b348015610e7157600080fd5b5061079c610e803660046147fc565b612ede565b348015610e9157600080fd5b506106a3610ea03660046145ff565b612f51565b348015610eb157600080fd5b506107de613098565b348015610ec657600080fd5b5061064a6130a7565b348015610edb57600080fd5b5061064a610eea366004614415565b6130d8565b348015610efb57600080fd5b5061095f610f0a366004614415565b6130ea565b348015610f1b57600080fd5b506106a3610f2a3660046147d8565b6131ad565b348015610f3b57600080fd5b506106a3610f4a36600461462a565b6131e7565b348015610f5b57600080fd5b5061064a610f6a366004614415565b6132ac565b348015610f7b57600080fd5b506107de610f8a3660046147c0565b6132dd565b348015610f9b57600080fd5b50610fa4613304565b6040516106579190615872565b348015610fbd57600080fd5b506106a3610fcc3660046148ba565b61330f565b348015610fdd57600080fd5b506106a3610fec3660046147c0565b61338d565b348015610ffd57600080fd5b506106a361100c366004614415565b6133c7565b34801561101d57600080fd5b5061064a61347d565b34801561103257600080fd5b506106a36110413660046147c0565b613483565b34801561105257600080fd5b506106a36110613660046147c0565b6134f7565b34801561107257600080fd5b506106a36110813660046145cc565b613586565b60035481565b6013546040517f5ec88c7900000000000000000000000000000000000000000000000000000000815260009182918291829182916001600160a01b031690635ec88c79906110de903090600401614af5565b60606040518083038186803b1580156110f657600080fd5b505afa15801561110a573d6000803e3d6000fd5b505050506040513d601f19601f8201168201806040525081019061112e91906148f5565b9250925092508260001461115d5760405162461bcd60e51b8152600401611154906150e8565b60405180910390fd5b9093509150509091565b61118660405161117690614a51565b6040518091039020610c2d6135f6565b6111a25760405162461bcd60e51b815260040161115490614f65565b6016546040517f5a3b74b90000000000000000000000000000000000000000000000000000000081526001600160a01b0390911690635a3b74b9906111ed9085908590600401614b46565b600060405180830381600087803b15801561120757600080fd5b505af115801561121b573d6000803e3d6000fd5b505050505050565b61123260405161117690614a51565b61124e5760405162461bcd60e51b815260040161115490614f65565b6016546040517f48ca13000000000000000000000000000000000000000000000000000000000081526001600160a01b03909116906348ca130090611297908490600401614af5565b600060405180830381600087803b1580156112b157600080fd5b505af11580156112c5573d6000803e3d6000fd5b5050505050565b60006112dd604051611176906149ad565b6112f95760405162461bcd60e51b815260040161115490614eab565b611316604051611308906149d6565b6040518091039020836123e5565b92915050565b60008061132761108c565b5060145460405163fc57d4df60e01b81529192506113bc916001600160a01b039091169063fc57d4df9061135f908790600401614af5565b60206040518083038186803b15801561137757600080fd5b505afa15801561138b573d6000803e3d6000fd5b505050506040513d601f19601f820116820180604052508101906113af91906148dd565b829063ffffffff6135fa16565b9392505050565b600e5481565b6113d8604051611176906149ff565b6113f45760405162461bcd60e51b81526004016111549061534d565b6001600160a01b0391821660009081526008602090815260408220805460018101825590835291200180546001600160a01b03191691909216179055565b600d5481565b61144760405161117690614a51565b6114635760405162461bcd60e51b815260040161115490614f65565b6040517fc5ebeaec0000000000000000000000000000000000000000000000000000000081526001600160a01b0383169063c5ebeaec906114a8908490600401614c54565b602060405180830381600087803b1580156114c257600080fd5b505af11580156114d6573d6000803e3d6000fd5b505050506040513d601f19601f820116820180604052508101906114fa91906148dd565b505050565b606061151060405161117690614acc565b61152c5760405162461bcd60e51b815260040161115490615553565b6040517fe60d0f4a0000000000000000000000000000000000000000000000000000000081526001600160a01b0383169063e60d0f4a90611571908690600401614af5565b600060405180830381600087803b15801561158b57600080fd5b505af115801561159f573d6000803e3d6000fd5b505050506040513d6000823e601f3d908101601f191682016040526113bc9190810190614701565b60009081526001602052604090206002015490565b6014546001600160a01b031681565b601a546001600160a01b031681565b6000601836108015906116255750611610613098565b6001600160a01b0316336001600160a01b0316145b15611677576116706000368080601f016020809104026020016040519081016040528093929190818152602001838380828437600092019190915250506013193601915061363c9050565b905061167a565b50335b90565b6116856135f6565b6000546001600160a01b039081169116146116b25760405162461bcd60e51b815260040161115490615464565b6116c36116bd6135f6565b8261364d565b50565b6000828152600160205260409020600201546116e490610c2d6135f6565b6117005760405162461bcd60e51b815260040161115490614d94565b61170a82826136da565b5050565b61171d60405161117690614a51565b6117395760405162461bcd60e51b815260040161115490614f65565b6013546040517fede4edd00000000000000000000000000000000000000000000000000000000081526000916001600160a01b03169063ede4edd090611783908590600401614af5565b602060405180830381600087803b15801561179d57600080fd5b505af11580156117b1573d6000803e3d6000fd5b505050506040513d601f19601f820116820180604052508101906117d591906148dd565b9050801561170a5760405162461bcd60e51b8152600401611154906153aa565b604051611801906149d6565b604051809103902081565b6118146135f6565b6000546001600160a01b039081169116146118415760405162461bcd60e51b815260040161115490615464565b80600d5410156118635760405162461bcd60e51b815260040161115490614fc2565b600e54611876908263ffffffff61374916565b600e55600d5461188c908263ffffffff61376e16565b600d5550565b61189a6135f6565b6001600160a01b0316816001600160a01b0316146118ca5760405162461bcd60e51b815260040161115490615815565b61170a82826137b0565b6118e360405161117690614a51565b6118ff5760405162461bcd60e51b815260040161115490614f65565b6012546040517f852a12e30000000000000000000000000000000000000000000000000000000081526001600160a01b039091169063852a12e390611948908490600401614c54565b602060405180830381600087803b15801561196257600080fd5b505af1158015611976573d6000803e3d6000fd5b505050506040513d601f19601f8201168201806040525081019061170a91906148dd565b60606119ab60405161117690614a51565b6119c75760405162461bcd60e51b815260040161115490614f65565b600f546001600160a01b03166119ef5760405162461bcd60e51b815260040161115490615781565b600f546010546113bc916001600160a01b039081169116858561381f565b6019546040516370a0823160e01b815260009182916001600160a01b03909116906370a0823190611a42903090600401614af5565b60206040518083038186803b158015611a5a57600080fd5b505afa158015611a6e573d6000803e3d6000fd5b505050506040513d601f19601f82011682018060405250810190611a9291906148dd565b9050611aab600e54600d5461374990919063ffffffff16565b811015611abc57600091505061167a565b611ae3600e54611ad7600d548461376e90919063ffffffff16565b9063ffffffff61376e16565b91505090565b611af860405161117690614a51565b80611b225750611b06612339565b6001600160a01b0316611b176135f6565b6001600160a01b0316145b611b3e5760405162461bcd60e51b815260040161115490614f65565b601a5460405163aa67c91960e01b81526001600160a01b039091169063aa67c919908390611b70903090600401614af5565b6000604051808303818588803b15801561120757600080fd5b6060611b9a60405161117690614acc565b611bb65760405162461bcd60e51b815260040161115490615553565b816001600160a01b03166369e7af436040518163ffffffff1660e01b8152600401600060405180830381600087803b158015611bf157600080fd5b505af1158015611c05573d6000803e3d6000fd5b505050506040513d6000823e601f3d908101601f191682016040526113169190810190614660565b6000611c3e60405161117690614a28565b611c5a5760405162461bcd60e51b8152600401611154906151d9565b611c6a8989898989898989613955565b9998505050505050505050565b600c5481565b600061131682611c8b6135f6565b613b79565b611c986135f6565b6000546001600160a01b03908116911614611cc55760405162461bcd60e51b815260040161115490615464565b600f80546001600160a01b039485166001600160a01b031991821617909155601080549385169382169390931790925560118054919093169116179055565b601254611d19906001600160a01b031661267d565b565b6013546001600160a01b031681565b60405161180190614a7a565b6060611d43610f0a6135f6565b905090565b60405161180190614aa3565b6011546001600160a01b031681565b600b5481565b6012546001600160a01b031681565b611d806135f6565b6000546001600160a01b03908116911614611dad5760405162461bcd60e51b815260040161115490615464565b600080546040516001600160a01b03909116907f8be0079c531659141344cd1fd0a4f28419497f9722a3daafe3b4186f6b6457e0908390a3600080546001600160a01b0319169055565b6012546040517f3af9e6690000000000000000000000000000000000000000000000000000000081526000916001600160a01b031690633af9e66990611e41903090600401614af5565b60206040518083038186803b158015611e5957600080fd5b505afa158015611e6d573d6000803e3d6000fd5b505050506040513d601f19601f82011682018060405250810190611d4391906148dd565b6019546116c3906001600160a01b031682611167565b6000611eb8604051611176906149d6565b611ed45760405162461bcd60e51b815260040161115490615293565b611ee5611edf6135f6565b8a613d6c565b611f015760405162461bcd60e51b815260040161115490615145565b6000899050806001600160a01b0316636587b61e6040518163ffffffff1660e01b815260040160206040518083038186803b158015611f3f57600080fd5b505afa158015611f53573d6000803e3d6000fd5b505050506040513d601f19601f82011682018060405250810190611f7791906148dd565b600314611f965760405162461bcd60e51b8152600401611154906156c7565b61201d611fa16135f6565b6001600160a01b0316637a6c8b536040518163ffffffff1660e01b815260040160206040518083038186803b158015611fd957600080fd5b505afa158015611fed573d6000803e3d6000fd5b505050506040513d601f19601f820116820180604052508101906120119190614431565b8a8a8a8a8a8a8a613955565b9a9950505050505050505050565b61203a60405161117690614a51565b6120565760405162461bcd60e51b815260040161115490614f65565b6040516370a0823160e01b815281906001600160a01b038516906370a0823190612084903090600401614af5565b60206040518083038186803b15801561209c57600080fd5b505afa1580156120b0573d6000803e3d6000fd5b505050506040513d601f19601f820116820180604052508101906120d491906148dd565b10156120f25760405162461bcd60e51b815260040161115490615236565b6120fd838383613df0565b6040517f0e7527020000000000000000000000000000000000000000000000000000000081526001600160a01b03831690630e75270290612142908490600401614c54565b602060405180830381600087803b15801561215c57600080fd5b505af1158015612170573d6000803e3d6000fd5b505050506040513d601f19601f8201168201806040525081019061219491906148dd565b50505050565b6121a960405161117690614a51565b6121c55760405162461bcd60e51b815260040161115490614f65565b6019546012546121e2916001600160a01b03908116911683613df0565b6012546040517fa0712d680000000000000000000000000000000000000000000000000000000081526001600160a01b039091169063a0712d6890611948908490600401614c54565b60405161180190614a28565b6000611316604051611308906149ff565b612257604051611176906149ff565b6122735760405162461bcd60e51b81526004016111549061534d565b6040517faa4f38c70000000000000000000000000000000000000000000000000000000081526001600160a01b0383169063aa4f38c7906111ed908490600401614cf2565b6122c06135f6565b6000546001600160a01b039081169116146122ed5760405162461bcd60e51b815260040161115490615464565b60038190556040517f9f8929be552430dd6434c446d106c34954b2040ca8c4dbf42a39323dd6cda3ca90612322908390614c54565b60405180910390a150565b604051611801906149ff565b6000546001600160a01b031690565b60008061235783611c8b6115fa565b601a5460055460405163aa67c91960e01b81529293506001600160a01b039091169163aa67c919919061238e908590600401614af5565b6000604051808303818588803b1580156123a757600080fd5b505af11580156123bb573d6000803e3d6000fd5b50939695505050505050565b60008281526001602052604081206113bc908363ffffffff613ed716565b60008281526001602052604081206113bc908363ffffffff613ee316565b61240b6135f6565b6000546001600160a01b039081169116146124385760405162461bcd60e51b815260040161115490615464565b80600e54101561245a5760405162461bcd60e51b815260040161115490614df1565b600e5461246d908263ffffffff61376e16565b600e55600d5461188c908263ffffffff61374916565b61249260405161117690614a51565b6124ae5760405162461bcd60e51b815260040161115490614f65565b6019546017546124cb916001600160a01b03908116911683613df0565b6016546019546040517fd2d0e0660000000000000000000000000000000000000000000000000000000081526001600160a01b039283169263d2d0e06692611297929116908590600090600401614ba0565b601254611d19906001600160a01b031661170e565b61254160405161117690614a51565b61255d5760405162461bcd60e51b815260040161115490614f65565b80612566611a0d565b10156125845760405162461bcd60e51b815260040161115490615054565b6116c381613ef8565b604051611801906149ad565b6019546040516370a0823160e01b815260009182916001600160a01b03909116906370a08231906125ce903090600401614af5565b60206040518083038186803b1580156125e657600080fd5b505afa1580156125fa573d6000803e3d6000fd5b505050506040513d601f19601f8201168201806040525081019061261e91906148dd565b9050600e5481101561263457600091505061167a565b600e54611ae390829063ffffffff61376e16565b600081565b60195461266c906001600160a01b03166126656135f6565b3084613f4d565b6116c36126776135f6565b82614036565b61268c60405161117690614a51565b6126a85760405162461bcd60e51b815260040161115490614f65565b6040805160018082528183019092526060916020808301908036833701905050905081816000815181106126d857fe5b6001600160a01b0392831660209182029290920101526013546040517fc2998238000000000000000000000000000000000000000000000000000000008152606092919091169063c299823890612733908590600401614bf2565b600060405180830381600087803b15801561274d57600080fd5b505af1158015612761573d6000803e3d6000fd5b505050506040513d6000823e601f3d908101601f191682016040526127899190810190614701565b90508060008151811061279857fe5b60200260200101516000146114fa5760405162461bcd60e51b8152600401611154906155b0565b60606127cd8261a8c061199a565b905061170a6127da6135f6565b826001815181106127e757fe5b6020026020010151614036565b600061280560405161117690614a51565b6128215760405162461bcd60e51b815260040161115490614f65565b6040517f17bfdfbc0000000000000000000000000000000000000000000000000000000081526001600160a01b038316906317bfdfbc90612866903090600401614af5565b60206040518083038186803b15801561287e57600080fd5b505afa158015612892573d6000803e3d6000fd5b505050506040513d601f19601f8201168201806040525081019061131691906148dd565b60607f8ff2f762000000000000000000000000000000000000000000000000000000006129236128e960208801886158cc565b8080601f016020809104026020016040519081016040528093929190818152602001838380828437600092018290525092506140e8915050565b7fffffffff0000000000000000000000000000000000000000000000000000000016146129625760405162461bcd60e51b81526004016111549061560d565b61296f6020860186614415565b6000604051602001612982929190614b61565b6040516020818303038152906040529050949350505050565b6129aa60405161117690614a51565b6129c65760405162461bcd60e51b815260040161115490614f65565b6040516370a0823160e01b815281906001600160a01b038416906370a08231906129f4903090600401614af5565b60206040518083038186803b158015612a0c57600080fd5b505afa158015612a20573d6000803e3d6000fd5b505050506040513d601f19601f82011682018060405250810190612a4491906148dd565b1015612a625760405162461bcd60e51b815260040161115490615236565b612af282601560009054906101000a90046001600160a01b03166001600160a01b031663ed6ff7606040518163ffffffff1660e01b815260040160206040518083038186803b158015612ab457600080fd5b505afa158015612ac8573d6000803e3d6000fd5b505050506040513d601f19601f82011682018060405250810190612aec9190614431565b83613df0565b6016546040517f5ceae9c40000000000000000000000000000000000000000000000000000000081526001600160a01b0390911690635ceae9c4906111ed90859085903090600401614b7d565b6019546001600160a01b031681565b60405161180190614acc565b612b6960405161117690614aa3565b612b855760405162461bcd60e51b8152600401611154906154f6565b80612b8e611a0d565b1015612bac5760405162461bcd60e51b815260040161115490615054565b816001600160a01b0316632d24947b6040518163ffffffff1660e01b8152600401600060405180830381600087803b15801561120757600080fd5b612bef6135f6565b6000546001600160a01b03908116911614612c1c5760405162461bcd60e51b815260040161115490615464565b601280546001600160a01b039485166001600160a01b031991821617909155601380549385169382169390931790925560148054919093169116179055565b60405161180190614a51565b612c6f6135f6565b6000546001600160a01b03908116911614612c9c5760405162461bcd60e51b815260040161115490615464565b601580546001600160a01b0319166001600160a01b038381169190911791829055604080517f0261bf8b00000000000000000000000000000000000000000000000000000000815290519290911691630261bf8b91600480820192602092909190829003018186803b158015612d1157600080fd5b505afa158015612d25573d6000803e3d6000fd5b505050506040513d601f19601f82011682018060405250810190612d499190614431565b601680546001600160a01b0319166001600160a01b03928316179055601554604080517fed6ff7600000000000000000000000000000000000000000000000000000000081529051919092169163ed6ff760916004808301926020929190829003018186803b158015612dbb57600080fd5b505afa158015612dcf573d6000803e3d6000fd5b505050506040513d601f19601f82011682018060405250810190612df39190614431565b601780546001600160a01b0319166001600160a01b0392831617908190556019546040517f34b3beee000000000000000000000000000000000000000000000000000000008152918316926334b3beee92612e549290911690600401614af5565b60206040518083038186803b158015612e6c57600080fd5b505afa158015612e80573d6000803e3d6000fd5b505050506040513d601f19601f82011682018060405250810190612ea49190614431565b601880546001600160a01b0319166001600160a01b039290921691909117905550565b600081815260016020526040812061131690614112565b6060612eef60405161117690614a51565b612f0b5760405162461bcd60e51b815260040161115490614f65565b600f546001600160a01b0316612f335760405162461bcd60e51b815260040161115490615781565b601054600f546113bc916001600160a01b039081169116858561381f565b612f6060405161117690614a51565b612f7c5760405162461bcd60e51b815260040161115490614f65565b612f8b60405161130890614a7a565b612fa75760405162461bcd60e51b815260040161115490615724565b80600e541015612fc95760405162461bcd60e51b815260040161115490615499565b6019546040516370a0823160e01b815282916001600160a01b0316906370a0823190612ff9903090600401614af5565b60206040518083038186803b15801561301157600080fd5b505afa158015613025573d6000803e3d6000fd5b505050506040513d601f19601f8201168201806040525081019061304991906148dd565b10156130675760405162461bcd60e51b815260040161115490614e4e565b60195461307e906001600160a01b0316838361411d565b600e54613091908263ffffffff61376e16565b600e555050565b6002546001600160a01b031690565b6018546040516370a0823160e01b81526000916001600160a01b0316906370a0823190611e41903090600401614af5565b60096020526000908152604090205481565b60606130f46135f6565b6001600160a01b0316826001600160a01b0316148061311d575061311d60405161117690614aa3565b6131395760405162461bcd60e51b8152600401611154906152f0565b6001600160a01b038216600090815260086020908152604091829020805483518184028101840190945280845290918301828280156131a157602002820191906000526020600020905b81546001600160a01b03168152600190910190602001808311613183575b50505050509050919050565b6000828152600160205260409020600201546131cb90610c2d6135f6565b6118ca5760405162461bcd60e51b815260040161115490615407565b6131f660405161117690614a51565b6132125760405162461bcd60e51b815260040161115490614f65565b600081613220576001613223565b60025b6016546040517fc858f5f90000000000000000000000000000000000000000000000000000000081529192506001600160a01b03169063c858f5f99061327490879087908690600090600401614bc5565b600060405180830381600087803b15801561328e57600080fd5b505af11580156132a2573d6000803e3d6000fd5b5050505050505050565b60145460405163fc57d4df60e01b81526000916001600160a01b03169063fc57d4df90612866908590600401614af5565b600681815481106132ea57fe5b6000918252602090912001546001600160a01b0316905081565b60045462ffffff1681565b6133176135f6565b6000546001600160a01b039081169116146133445760405162461bcd60e51b815260040161115490615464565b6004805462ffffff191662ffffff83811691909117918290556040517f1add5f7de244142e10bca375bb84823e3c24ddac2c2ec678f35c007d8f02084d92612322921690615872565b6133956135f6565b6000546001600160a01b039081169116146133c25760405162461bcd60e51b815260040161115490615464565b600555565b6133cf6135f6565b6000546001600160a01b039081169116146133fc5760405162461bcd60e51b815260040161115490615464565b6001600160a01b0381166134225760405162461bcd60e51b815260040161115490614f08565b600080546040516001600160a01b03808516939216917f8be0079c531659141344cd1fd0a4f28419497f9722a3daafe3b4186f6b6457e091a3600080546001600160a01b0319166001600160a01b0392909216919091179055565b600a5481565b61349260405161117690614a51565b6134ae5760405162461bcd60e51b815260040161115490614f65565b6018546040517fdb006a750000000000000000000000000000000000000000000000000000000081526001600160a01b039091169063db006a7590611297908490600401614c54565b613506604051611176906149ff565b6135225760405162461bcd60e51b81526004016111549061534d565b600b54613535908263ffffffff61374916565b600b55600d5461354b908263ffffffff61374916565b600d557f37823eae3803e6c1d99512d7c85c87edf37856ffce3f33a2b623ef3197fe6ffc6135776135f6565b82604051612322929190614b09565b613595604051611176906149ff565b6135b15760405162461bcd60e51b81526004016111549061534d565b6040517f686513500000000000000000000000000000000000000000000000000000000081526001600160a01b038316906368651350906111ed908490600401614cf2565b3390565b60006113bc83836040518060400160405280601a81526020017f536166654d6174683a206469766973696f6e206279207a65726f000000000000815250614204565b01601401516001600160a01b031690565b604080516000808252602082019092526001600160a01b0384169083906040516136779190614991565b60006040518083038185875af1925050503d80600081146136b4576040519150601f19603f3d011682016040523d82523d6000602084013e6136b9565b606091505b50509050806114fa5760405162461bcd60e51b81526004016111549061566a565b60008281526001602052604090206136f8908263ffffffff61423b16565b1561170a576137056135f6565b6001600160a01b0316816001600160a01b0316837f2f8788117e7eff1d82e926ec794901d17c78024a50270940304540a733656f0d60405160405180910390a45050565b6000828201838110156113bc5760405162461bcd60e51b8152600401611154906150b1565b60006113bc83836040518060400160405280601e81526020017f536166654d6174683a207375627472616374696f6e206f766572666c6f770000815250614250565b60008281526001602052604090206137ce908263ffffffff61427c16565b1561170a576137db6135f6565b6001600160a01b0316816001600160a01b0316837ff6391f5c32d9c69d2a47ea670b442974b53935d1edc7fd64eb21e047a839171b60405160405180910390a45050565b60115460609061383a9086906001600160a01b031685613df0565b6040805160028082526060808301845292602083019080368337019050509050858160008151811061386857fe5b60200260200101906001600160a01b031690816001600160a01b031681525050848160018151811061389657fe5b6001600160a01b0392831660209182029290920101526011546040517f38ed17390000000000000000000000000000000000000000000000000000000081529116906338ed1739906138f5908790600090869030908a90600401615882565b600060405180830381600087803b15801561390f57600080fd5b505af1158015613923573d6000803e3d6000fd5b505050506040513d6000823e601f3d908101601f1916820160405261394b9190810190614701565b9695505050505050565b600080601b60009054906101000a90046001600160a01b03166001600160a01b031663f9a84f968a8a8a8a8a8a308b601960009054906101000a90046001600160a01b0316601260009054906101000a90046001600160a01b0316601d60009054906101000a90046001600160a01b03166040518c63ffffffff1660e01b81526004016139ec9b9a99989796959493929190614c74565b602060405180830381600087803b158015613a0657600080fd5b505af1158015613a1a573d6000803e3d6000fd5b505050506040513d601f19601f82011682018060405250810190613a3e9190614431565b6040517f18b9533b0000000000000000000000000000000000000000000000000000000081529091506001600160a01b038216906318b9533b90613a86908d90600401614af5565b600060405180830381600087803b158015613aa057600080fd5b505af1158015613ab4573d6000803e3d6000fd5b5050600680546001810182556000919091527ff652222313e28459528d920b65115c16c04f3efc82aaedc97be59f3f377c0d3f0180546001600160a01b0319166001600160a01b03851617905550506040518190613b2390613b15906149ad565b6040518091039020826116c6565b613b32604051613b15906149ff565b7f0e2441b756c0237af490768eeb52214bde66464d79756f8ac3c03b10c9528b3c8a82604051613b63929190614c5d565b60405180910390a19a9950505050505050505050565b600060086000613b876115fa565b6001600160a01b0316815260208101919091526040016000205415613bbe5760405162461bcd60e51b815260040161115490614ff7565b6001600160a01b038083166000908152600860209081526040808320805460018101825590845291832090910180546001600160a01b0319169055601c5490517f8ebf1d2700000000000000000000000000000000000000000000000000000000815291921690638ebf1d2790613c3b9087903090600401614c5d565b602060405180830381600087803b158015613c5557600080fd5b505af1158015613c69573d6000803e3d6000fd5b505050506040513d601f19601f82011682018060405250810190613c8d9190614431565b6040517f18a9e9480000000000000000000000000000000000000000000000000000000081529091506001600160a01b038216906318a9e94890613cd5908690600401614af5565b600060405180830381600087803b158015613cef57600080fd5b505af1158015613d03573d6000803e3d6000fd5b5050600780546001810182556000919091527fa66cc928b5edb82af9bd49922954155ab7b0942694bea4ce44661d9a8736c6880180546001600160a01b0319166001600160a01b03851617905550506040518190613d6490613b15906149d6565b949350505050565b6000805b6001600160a01b038416600090815260086020526040902054811015613de6576001600160a01b03848116600090815260086020526040902080549185169183908110613db957fe5b6000918252602090912001546001600160a01b03161415613dde576001915050611316565b600101613d70565b5060009392505050565b60006060846001600160a01b031663095ea7b38585604051602401613e16929190614b09565b6040516020818303038152906040529060e01b6020820180516001600160e01b038381831617835250505050604051613e4f9190614991565b6000604051808303816000865af19150503d8060008114613e8c576040519150601f19603f3d011682016040523d82523d6000602084013e613e91565b606091505b5091509150818015613ebb575080511580613ebb575080806020019051810190613ebb91906147a4565b6112c55760405162461bcd60e51b8152600401611154906151a2565b60006113bc8383614291565b60006113bc836001600160a01b0384166142d6565b600b54613f0b908263ffffffff61374916565b600c55600d54613f21908263ffffffff61374916565b600d557f13c785d9e4857cfe1f6f81ef8d5119717f6e1b7e2c090e57ab7386cd44f2d79f6135776135f6565b60006060856001600160a01b03166323b872dd868686604051602401613f7593929190614b22565b6040516020818303038152906040529060e01b6020820180516001600160e01b038381831617835250505050604051613fae9190614991565b6000604051808303816000865af19150503d8060008114613feb576040519150601f19603f3d011682016040523d82523d6000602084013e613ff0565b606091505b509150915081801561401a57508051158061401a57508080602001905181019061401a91906147a4565b61121b5760405162461bcd60e51b8152600401611154906157b8565b600a54614049908263ffffffff61374916565b600a55600d5461405f908263ffffffff61374916565b600d556001600160a01b03821660009081526009602052604090205461408b908263ffffffff61374916565b6001600160a01b0383166000908152600960205260409020557f615b82d09530cb171fb9954512b751ee6d5197d08431b056ca6e8c3d8aca68116140cd6135f6565b826040516140dc929190614b09565b60405180910390a15050565b01602001517fffffffff000000000000000000000000000000000000000000000000000000001690565b6000611316826142ee565b60006060846001600160a01b031663a9059cbb8585604051602401614143929190614b09565b6040516020818303038152906040529060e01b6020820180516001600160e01b03838183161783525050505060405161417c9190614991565b6000604051808303816000865af19150503d80600081146141b9576040519150601f19603f3d011682016040523d82523d6000602084013e6141be565b606091505b50915091508180156141e85750805115806141e85750808060200190518101906141e891906147a4565b6112c55760405162461bcd60e51b815260040161115490614d5d565b600081836142255760405162461bcd60e51b81526004016111549190614cdf565b50600083858161423157fe5b0495945050505050565b60006113bc836001600160a01b0384166142f2565b600081848411156142745760405162461bcd60e51b81526004016111549190614cdf565b505050900390565b60006113bc836001600160a01b03841661433c565b815460009082106142b45760405162461bcd60e51b815260040161115490614d00565b8260000182815481106142c357fe5b9060005260206000200154905092915050565b60009081526001919091016020526040902054151590565b5490565b60006142fe83836142d6565b61433457508154600181810184556000848152602080822090930184905584548482528286019093526040902091909155611316565b506000611316565b600081815260018301602052604081205480156143f8578354600019808301919081019060009087908390811061436f57fe5b906000526020600020015490508087600001848154811061438c57fe5b6000918252602080832090910192909255828152600189810190925260409020908401905586548790806143bc57fe5b60019003818190600052602060002001600090559055866001016000878152602001908152602001600020600090556001945050505050611316565b6000915050611316565b803562ffffff8116811461131657600080fd5b600060208284031215614426578081fd5b81356113bc8161598d565b600060208284031215614442578081fd5b81516113bc8161598d565b6000806040838503121561445f578081fd5b823561446a8161598d565b9150602083013561447a8161598d565b809150509250929050565b600080600060608486031215614499578081fd5b83356144a48161598d565b925060208401356144b48161598d565b915060408401356144c48161598d565b809150509250925092565b6000806000606084860312156144e3578283fd5b83356144ee8161598d565b925060208401356144fe8161598d565b929592945050506040919091013590565b60008060408385031215614521578182fd5b823561452c8161598d565b9150602083013561447a816159a2565b600080600080600080600080610100898b031215614558578384fd5b88356145638161598d565b9750602089013596506145798a60408b01614402565b95506145888a60608b01614402565b945060808901358060030b811461459d578485fd5b935060a0890135925060c0890135915060e08901356145bb8161598d565b809150509295985092959890939650565b600080604083850312156145de578182fd5b82356145e98161598d565b91506020830135600381900b811461447a578182fd5b60008060408385031215614611578182fd5b823561461c8161598d565b946020939093013593505050565b60008060006060848603121561463e578081fd5b83356146498161598d565b92506020840135915060408401356144c4816159a2565b60006020808385031215614672578182fd5b825167ffffffffffffffff811115614688578283fd5b80840185601f820112614699578384fd5b805191506146ae6146a983615941565b61591a565b82815283810190828501858502840186018910156146ca578687fd5b8693505b848410156146f55780516146e18161598d565b8352600193909301929185019185016146ce565b50979650505050505050565b60006020808385031215614713578182fd5b825167ffffffffffffffff811115614729578283fd5b80840185601f82011261473a578384fd5b8051915061474a6146a983615941565b8281528381019082850185850284018601891015614766578687fd5b8693505b848410156146f557805183526001939093019291850191850161476a565b600060208284031215614799578081fd5b81356113bc816159a2565b6000602082840312156147b5578081fd5b81516113bc816159a2565b6000602082840312156147d1578081fd5b5035919050565b600080604083850312156147ea578182fd5b82359150602083013561447a8161598d565b6000806040838503121561480e578182fd5b50508035926020909101359150565b60008060008060608587031215614832578182fd5b843567ffffffffffffffff80821115614849578384fd5b818701610140818a03121561485c578485fd5b95506020870135915080821115614871578384fd5b81870188601f820112614882578485fd5b8035925081831115614892578485fd5b8860208483010111156148a3578485fd5b959860209096019750909560400135949350505050565b6000602082840312156148cb578081fd5b813562ffffff811681146113bc578182fd5b6000602082840312156148ee578081fd5b5051919050565b600080600060608486031215614909578081fd5b8351925060208401519150604084015190509250925092565b6000815180845260208085019450808401835b8381101561495a5781516001600160a01b031687529582019590820190600101614935565b509495945050505050565b6000815180845261497d816020860160208601615961565b601f01601f19169290920160200192915050565b600082516149a3818460208701615961565b9190910192915050565b7f524541445f53545544454e545f4c4953545f524f4c4500000000000000000000815260160190565b7f53545544454e545f4944454e544954595f524f4c450000000000000000000000815260150190565b7f434c415353524f4f4d5f50524f464553534f525f524f4c450000000000000000815260180190565b7f434c4153534c4953545f41444d494e5f524f4c45000000000000000000000000815260140190565b7f46554e44535f4d414e414745525f524f4c450000000000000000000000000000815260120190565b7f524547495354455245445f535550504c4945525f524f4c450000000000000000815260180190565b7f4752414e54535f4d414e414745525f524f4c4500000000000000000000000000815260130190565b7f554e49564552534954595f4f564552534545525f524f4c450000000000000000815260180190565b6001600160a01b0391909116815260200190565b6001600160a01b03929092168252602082015260400190565b6001600160a01b039384168152919092166020820152604081019190915260600190565b6001600160a01b039290921682521515602082015260400190565b6001600160a01b0392909216825260ff16602082015260400190565b6001600160a01b0393841681526020810192909252909116604082015260600190565b6001600160a01b03939093168352602083019190915261ffff16604082015260600190565b6001600160a01b03949094168452602084019290925260ff16604083015261ffff16606082015260800190565b6000602082526113bc6020830184614922565b6020808252825182820181905260009190848201906040850190845b81811015614c3d57835183529284019291840191600101614c21565b50909695505050505050565b901515815260200190565b90815260200190565b9182526001600160a01b0316602082015260400190565b9a8b5262ffffff998a1660208c01529790981660408a015260039590950b6060890152608088019390935260a08701919091526001600160a01b0390811660c087015290811660e0860152908116610100850152918216610120840152166101408201526101600190565b6000602082526113bc6020830184614965565b60039190910b815260200190565b60208082526022908201527f456e756d657261626c655365743a20696e646578206f7574206f6620626f756e60408201527f6473000000000000000000000000000000000000000000000000000000000000606082015260800190565b6020808252601f908201527f5472616e7366657248656c7065723a205452414e534645525f4641494c454400604082015260600190565b6020808252602f908201527f416363657373436f6e74726f6c3a2073656e646572206d75737420626520616e60408201527f2061646d696e20746f206772616e740000000000000000000000000000000000606082015260800190565b60208082526029908201527f556e69766572736974793a206e6f7420656e6f7567682062756467657420746f60408201527f2064656372656173650000000000000000000000000000000000000000000000606082015260800190565b6020808252602a908201527f556e69766572736974793a206c697175696461746520736f6d6520706f73697460408201527f696f6e7320666972737400000000000000000000000000000000000000000000606082015260800190565b60208082526036908201527f556e69766572736974793a2063616c6c657220646f65736e277420686176652060408201527f524541445f53545544454e545f4c4953545f524f4c4500000000000000000000606082015260800190565b60208082526026908201527f4f776e61626c653a206e6577206f776e657220697320746865207a65726f206160408201527f6464726573730000000000000000000000000000000000000000000000000000606082015260800190565b60208082526032908201527f556e69766572736974793a2063616c6c657220646f65736e277420686176652060408201527f46554e44535f4d414e414745525f524f4c450000000000000000000000000000606082015260800190565b6020808252818101527f556e69766572736974793a206e6f7420656e6f75676820656e646f776d656e74604082015260600190565b60208082526026908201527f556e69766572736974793a2073747564656e7420616c7265616479207265676960408201527f7374657265640000000000000000000000000000000000000000000000000000606082015260800190565b60208082526026908201527f556e69766572736974793a206e6f7420656e6f75676820617661696c61626c6560408201527f2066756e64730000000000000000000000000000000000000000000000000000606082015260800190565b6020808252601b908201527f536166654d6174683a206164646974696f6e206f766572666c6f770000000000604082015260600190565b60208082526033908201527f556e69766572736974793a20436f6d7074726f6c6c65722e6765744163636f7560408201527f6e744c6971756964697479206661696c65642e00000000000000000000000000606082015260800190565b60208082526035908201527f556e69766572736974793a2063616c6c6572206973206e6f742073747564656e60408201527f74206f662074686973206170706c69636174696f6e0000000000000000000000606082015260800190565b6020808252601e908201527f5472616e7366657248656c7065723a20415050524f56455f4641494c45440000604082015260600190565b60208082526034908201527f556e69766572736974793a2063616c6c657220646f65736e277420686176652060408201527f434c4153534c4953545f41444d494e5f524f4c45000000000000000000000000606082015260800190565b6020808252602b908201527f556e69766572736974793a206e6f7420656e6f756768206f662074686973207460408201527f6f6b656e2073746f726564000000000000000000000000000000000000000000606082015260800190565b60208082526035908201527f556e69766572736974793a2063616c6c657220646f65736e277420686176652060408201527f53545544454e545f4944454e544954595f524f4c450000000000000000000000606082015260800190565b60208082526021908201527f436c617373726f6f6d3a2072656164207065726d697373696f6e2064656e696560408201527f6400000000000000000000000000000000000000000000000000000000000000606082015260800190565b60208082526038908201527f556e69766572736974793a2063616c6c657220646f65736e277420686176652060408201527f434c415353524f4f4d5f50524f464553534f525f524f4c450000000000000000606082015260800190565b6020808252602a908201527f556e69766572736974793a20436f6d7074726f6c6c65722e657869744d61726b60408201527f6574206661696c65642e00000000000000000000000000000000000000000000606082015260800190565b60208082526030908201527f416363657373436f6e74726f6c3a2073656e646572206d75737420626520616e60408201527f2061646d696e20746f207265766f6b6500000000000000000000000000000000606082015260800190565b6020808252818101527f4f776e61626c653a2063616c6c6572206973206e6f7420746865206f776e6572604082015260600190565b60208082526029908201527f556e69766572736974793a206e6f7420656e6f756768206f7065726174696f6e60408201527f616c206275646765740000000000000000000000000000000000000000000000606082015260800190565b60208082526033908201527f556e69766572736974793a2063616c6c657220646f65736e277420686176652060408201527f4752414e54535f4d414e414745525f524f4c4500000000000000000000000000606082015260800190565b60208082526038908201527f556e69766572736974793a2063616c6c657220646f65736e277420686176652060408201527f554e49564552534954595f4f564552534545525f524f4c450000000000000000606082015260800190565b6020808252602c908201527f556e69766572736974793a20436f6d7074726f6c6c65722e656e7465724d617260408201527f6b657473206661696c65642e0000000000000000000000000000000000000000606082015260800190565b6020808252602d908201527f556e69766572736974793a2047534e206e6f7420656e61626c656420666f722060408201527f746869732066756e6374696f6e00000000000000000000000000000000000000606082015260800190565b60208082526023908201527f5472616e7366657248656c7065723a204554485f5452414e534645525f46414960408201527f4c45440000000000000000000000000000000000000000000000000000000000606082015260800190565b60208082526029908201527f556e69766572736974793a206170706c69636174696f6e206973206e6f74207360408201527f75636365737366756c0000000000000000000000000000000000000000000000606082015260800190565b6020808252603a908201527f556e69766572736974793a20726563656976657220646f65736e27742068617660408201527f6520524547495354455245445f535550504c4945525f524f4c45000000000000606082015260800190565b6020808252601f908201527f556e69766572736974793a20736574757020756e697377617020666972737400604082015260600190565b60208082526024908201527f5472616e7366657248656c7065723a205452414e534645525f46524f4d5f464160408201527f494c454400000000000000000000000000000000000000000000000000000000606082015260800190565b6020808252602f908201527f416363657373436f6e74726f6c3a2063616e206f6e6c792072656e6f756e636560408201527f20726f6c657320666f722073656c660000000000000000000000000000000000606082015260800190565b62ffffff91909116815260200190565b600086825285602083015260a060408301526158a160a0830186614922565b6001600160a01b0394909416606083015250608001529392505050565b918252602082015260400190565b6000808335601e198436030181126158e2578283fd5b8084018035925067ffffffffffffffff8311156158fd578384fd5b6020019250503681900382131561591357600080fd5b9250929050565b60405181810167ffffffffffffffff8111828210171561593957600080fd5b604052919050565b600067ffffffffffffffff821115615957578081fd5b5060209081020190565b60005b8381101561597c578181015183820152602001615964565b838111156121945750506000910152565b6001600160a01b03811681146116c357600080fd5b80151581146116c357600080fdfea2646970667358221220fb69157f903f855d69bc6a3f0269d6283667a1b1c7e6ab68aed032199ae90de164736f6c63430006060033",
  "immutableReferences": {},
  "source": "pragma solidity ^0.6.6;\r\npragma experimental ABIEncoderV2;\r\n\r\nimport \"@openzeppelin/contracts/math/SafeMath.sol\";\r\nimport \"@openzeppelin/contracts/access/AccessControl.sol\";\r\nimport \"@openzeppelin/contracts/access/Ownable.sol\";\r\nimport \"@openzeppelin/contracts/token/ERC20/IERC20.sol\";\r\nimport \"@openzeppelin/contracts/utils/Address.sol\";\r\nimport \"@uniswap/v2-periphery/contracts/interfaces/IUniswapV2Router01.sol\";\r\nimport \"@uniswap/lib/contracts/libraries/TransferHelper.sol\";\r\nimport \"./interface/Aave/aToken.sol\";\r\nimport \"./interface/Aave/ILendingPool.sol\";\r\nimport \"./interface/Aave/ILendingPoolAddressesProvider.sol\";\r\nimport \"./gambi/BaseRelayRecipient.sol\";\r\nimport \"./gambi/GSNTypes.sol\";\r\nimport \"./gambi/IRelayHub.sol\";\r\nimport \"./interface/IClassroom.sol\";\r\nimport \"./interface/IStudent.sol\";\r\nimport \"./interface/IStudentApplication.sol\";\r\nimport \"./interface/IClassroomFactory.sol\";\r\nimport \"./interface/IStudentFactory.sol\";\r\nimport \"./interface/IStudentApplicationFactory.sol\";\r\nimport \"./interface/IUniversity.sol\";\r\nimport \"./interface/IGrantsManager.sol\";\r\nimport \"./MyUtils.sol\";\r\n\r\n//TODO: Natspec Document ENVERYTHING\r\n//TODO: Sort function order from all contracts\r\n//TODO: Divide University in smaller contracts\r\n\r\ncontract University is Ownable, AccessControl, BaseRelayRecipient, IUniversity {\r\n    using SafeMath for uint256;\r\n\r\n    //CLASSLIST_ADMIN_ROLE can add new manually created classes to the list\r\n    bytes32 public constant CLASSLIST_ADMIN_ROLE = keccak256(\r\n        \"CLASSLIST_ADMIN_ROLE\"\r\n    );\r\n    // FUNDS_MANAGER_ROLE can withdraw funds from the contract\r\n    bytes32 public constant FUNDS_MANAGER_ROLE = keccak256(\r\n        \"FUNDS_MANAGER_ROLE\"\r\n    );\r\n    // GRANTS_MANAGER_ROLE can approve/decline grant claims\r\n    bytes32 public constant GRANTS_MANAGER_ROLE = keccak256(\r\n        \"GRANTS_MANAGER_ROLE\"\r\n    );\r\n    // READ_STUDENT_LIST_ROLE allow reading students list\r\n    bytes32 public constant READ_STUDENT_LIST_ROLE = keccak256(\r\n        \"READ_STUDENT_LIST_ROLE\"\r\n    );\r\n    /// STUDENT_IDENTITY_ROLE allow asking for grants and requesting a classroom from a successful application\r\n    bytes32 public constant STUDENT_IDENTITY_ROLE = keccak256(\r\n        \"STUDENT_IDENTITY_ROLE\"\r\n    );\r\n    /// CLASSROOM_PROFESSOR_ROLE can manage itself inside the University and registering student applications\r\n    bytes32 public constant CLASSROOM_PROFESSOR_ROLE = keccak256(\r\n        \"CLASSROOM_PROFESSOR_ROLE\"\r\n    );\r\n    /// UNIVERSITY_OVERSEER_ROLE can inspect Grant Managers and Fund Managers, and present cases for funders to vote upon\r\n    bytes32 public constant UNIVERSITY_OVERSEER_ROLE = keccak256(\r\n        \"UNIVERSITY_OVERSEER_ROLE\"\r\n    );/// REGISTERED_SUPPLIER_ROLE can receive transactions to consume the operational budget\r\n    bytes32 public constant REGISTERED_SUPPLIER_ROLE = keccak256(\r\n        \"REGISTERED_SUPPLIER_ROLE\"\r\n    );\r\n\r\n    // Parameter: Name of this University\r\n    bytes32 public override name;\r\n    // Parameter: University cut from professor (Parts per Million)\r\n    uint24 public override cut;\r\n    // Parameter: GSN funds to give students\r\n    uint256 _studentGSNDeposit;\r\n    // List of every registered classroom\r\n    address[] public _classList;\r\n    // List of every student\r\n    address[] _students;\r\n    // Mapping of each student's applications\r\n    mapping(address => address[]) _studentApplicationsMapping;\r\n    // Mapping of every donor and donations\r\n    mapping(address => uint256) public donators;\r\n    // Total amount of donations received so far\r\n    uint256 public donationsReceived;\r\n    // Total amount of operational revenue received so far\r\n    uint256 public revenueReceived;\r\n    // Total amount of financial returns received so far\r\n    uint256 public returnsReceived;\r\n    // Total amount of endowment locked in the fund\r\n    uint256 public endowmentLocked;\r\n    // Total amount of funds allowed for expenses\r\n    uint256 public operationalBudget;\r\n\r\n    //Uniswap Config\r\n    address _uniswapWETH;\r\n    address _uniswapDAI;\r\n    IUniswapV2Router01 public _uniswapRouter;\r\n\r\n    //Compound Config\r\n    CERC20 public cDAI;\r\n    IComptroller public comptroller;\r\n    IPriceOracle public priceOracle;\r\n\r\n    //Aave Config\r\n    ILendingPoolAddressesProvider _aaveProvider;\r\n    ILendingPool _aaveLendingPool;\r\n    address _aaveLendingPoolCore;\r\n    address _aTokenDAI;\r\n\r\n    //Tokens\r\n    IERC20 public daiToken;\r\n\r\n    //GSN\r\n    IRelayHub public relayHub;\r\n\r\n    //Factory\r\n    IClassroomFactory _classroomFactory;\r\n    IStudentFactory _studentFactory;\r\n    address _studentApplicationFactoryAddress;\r\n\r\n    /// @notice Constructor setup the basic variables\r\n    /// @dev Not all variables can be defined in this constructor because the limitation of the stack size\r\n    /// @param name_ Given name for the university\r\n    /// @param cut_ Cut from professor payments, in PPM\r\n    /// @param studentGSNDeposit Ammount of ETH to give relayer hub of students for UX reasons, in WEI\r\n    /// @param daiAddress Adress of contract in the network\r\n    /// @param relayHubAddress Adress of contract in the network\r\n    /// @param classroomFactoryAddress Adress of contract in the network\r\n    /// @param studentFactoryAddress Adress of contract in the network\r\n    /// @param studentApplicationFactoryAddress Adress of contract in the network\r\n    constructor(\r\n        bytes32 name_,\r\n        uint24 cut_,\r\n        uint256 studentGSNDeposit,\r\n        address daiAddress,\r\n        address relayHubAddress,\r\n        address classroomFactoryAddress,\r\n        address studentFactoryAddress,\r\n        address studentApplicationFactoryAddress\r\n    ) public {\r\n        name = name_;\r\n        cut = cut_;\r\n        _studentGSNDeposit = studentGSNDeposit;\r\n        _setupRole(DEFAULT_ADMIN_ROLE, _msgSender());\r\n        grantRole(READ_STUDENT_LIST_ROLE, _msgSender());\r\n        daiToken = IERC20(daiAddress);\r\n        relayHub = IRelayHub(relayHubAddress);\r\n        _classroomFactory = IClassroomFactory(classroomFactoryAddress);\r\n        _studentFactory = IStudentFactory(studentFactoryAddress);\r\n        _studentApplicationFactoryAddress = studentApplicationFactoryAddress;\r\n    }\r\n\r\n    /// @notice Allow receiving ETH\r\n    receive() external payable {\r\n        emit LogReceived(msg.sender, msg.value);\r\n    }\r\n\r\n    /// @notice Allow taking ETH from the contract\r\n    function withdraw(uint256 val) public onlyOwner {\r\n        TransferHelper.safeTransferETH(_msgSender(), val);\r\n    }\r\n\r\n    /// @notice Records the name and address of every new classroom created\r\n    event LogNewClassroom(bytes32, address);\r\n    /// @notice Records the name changes of this University\r\n    event LogChangeName(bytes32);\r\n    /// @notice Records the changes in the Cut parameter\r\n    event LogChangeCut(uint24);\r\n    /// @notice Records ETH received\r\n    event LogReceived(address, uint256);\r\n    /// @notice Records donations received and the address of the donor\r\n    event LogDonation(address, uint256);\r\n    /// @notice Records investment returns received and the address of the caller\r\n    event LogReturn(address, uint256);\r\n    /// @notice Records revenues received and the address of the souce\r\n    event LogRevenue(address, uint256);\r\n\r\n    /// @notice Setup the Compound variables\r\n    /// @dev Not all variables can be defined in the constructor because the limitation of the stack size\r\n    /// @param compoundDAIAddress Address of the contract in the network\r\n    /// @param comptrollerAddress Address of the contract in the network\r\n    /// @param priceOracleAddress Address of the contract in the network\r\n    function configureCompound(\r\n        address compoundDAIAddress,\r\n        address comptrollerAddress,\r\n        address priceOracleAddress\r\n    ) public onlyOwner {\r\n        cDAI = CERC20(compoundDAIAddress);\r\n        comptroller = IComptroller(comptrollerAddress);\r\n        priceOracle = IPriceOracle(priceOracleAddress);\r\n    }\r\n\r\n    /// @notice Setup the Uniswap variables\r\n    /// @dev Not all variables can be defined in the constructor because the limitation of the stack size\r\n    /// @param uniswapWETH Address of the contract in the network\r\n    /// @param uniswapDAI Address of the contract in the network\r\n    /// @param uniswapRouter Address of the contract in the network\r\n    function configureUniswap(\r\n        address uniswapWETH,\r\n        address uniswapDAI,\r\n        address uniswapRouter\r\n    ) public onlyOwner {\r\n        _uniswapWETH = uniswapWETH;\r\n        _uniswapDAI = uniswapDAI;\r\n        _uniswapRouter = IUniswapV2Router01(uniswapRouter);\r\n    }\r\n\r\n    /// @notice Setup the Ava variables\r\n    /// @dev Not all variables can be defined in the constructor because the limitation of the stack size\r\n    /// @param lendingPoolAddressesProvider Address of the contract in the network\r\n    function configureAave(\r\n        address lendingPoolAddressesProvider\r\n    ) public onlyOwner {\r\n        _aaveProvider = ILendingPoolAddressesProvider(lendingPoolAddressesProvider);\r\n        _aaveLendingPool = ILendingPool(_aaveProvider.getLendingPool());\r\n        _aaveLendingPoolCore = _aaveProvider.getLendingPoolCore();\r\n        _aTokenDAI = ILendingPoolCore(_aaveLendingPoolCore)\r\n            .getReserveATokenAddress(address(daiToken));\r\n    }\r\n\r\n    /// @notice Change the name of the University\r\n    /// @param val New value\r\n    function changeName(bytes32 val) public onlyOwner {\r\n        name = val;\r\n        emit LogChangeName(name);\r\n    }\r\n\r\n    /// @notice Change the cut charged from the professors\r\n    /// @param val New value, in PPM\r\n    function changeCut(uint24 val) public onlyOwner {\r\n        cut = val;\r\n        emit LogChangeCut(cut);\r\n    }\r\n\r\n    /// @notice Change the value of ETH deposited in students relay hub\r\n    /// @param val New value, in WEI\r\n    function changeStudentGSNDeposit(uint256 val) public onlyOwner {\r\n        _studentGSNDeposit = val;\r\n    }\r\n\r\n    /// @return the ammount of DAI able for investing\r\n    function availableFundsForInvestment() public view override returns (uint256) {\r\n        uint256 funds = daiToken.balanceOf(address(this));\r\n        if (funds < operationalBudget) return 0;\r\n        return funds.sub(operationalBudget);\r\n    }\r\n\r\n    /// @return the ammount of DAI able for giving grants\r\n    function availableFunds() public view override returns (uint256) {\r\n        uint256 funds = daiToken.balanceOf(address(this));\r\n        if (funds < endowmentLocked.add(operationalBudget)) return 0;\r\n        return funds.sub(endowmentLocked).sub(operationalBudget);\r\n    }\r\n\r\n    /// @return true if the classroom is registered in this University \r\n    function isValidClassroom(address classroom) public view override returns (bool) {\r\n        return hasRole(CLASSROOM_PROFESSOR_ROLE, classroom);\r\n    }\r\n\r\n    /// @return true if the student is registered in this University \r\n    function studentIsRegistered(address student) public view override returns (bool) {\r\n        require(\r\n            hasRole(READ_STUDENT_LIST_ROLE, _msgSender()),\r\n            \"University: caller doesn't have READ_STUDENT_LIST_ROLE\"\r\n        );\r\n        return hasRole(STUDENT_IDENTITY_ROLE, student);\r\n    }\r\n\r\n    /// @return the address of the application of a Student\r\n    function viewMyApplications() public view override returns (address[] memory) {\r\n        return viewStudentApplications(_msgSender());\r\n    }\r\n\r\n    /// @param addr Address of the student\r\n    /// @return the addresses of the applications of a the supplied address\r\n    function viewStudentApplications(address addr)\r\n        public\r\n        view\r\n        override\r\n        returns (address[] memory)\r\n    {\r\n        require(\r\n            addr == _msgSender() || hasRole(GRANTS_MANAGER_ROLE, _msgSender()),\r\n            \"Classroom: read permission denied\"\r\n        );\r\n        return _studentApplicationsMapping[addr];\r\n    }\r\n\r\n    /// @notice Self-register function where an address can create an instance of a Student in this University\r\n    /// @dev This GSN implementation is buggy\r\n    /// @param sName Name of the Student\r\n    /// @return the smart contract address for this Student instance in this University\r\n    function studentSelfRegisterGSN(bytes32 sName) public returns (address) {\r\n        address student = _newStudent(sName, _msgSenderGSN());\r\n        relayHub.depositFor.value(_studentGSNDeposit)(student);\r\n        return student;\r\n    }\r\n\r\n    /// @notice Self-register function where an address can create an instance of a Student in this University\r\n    /// @param sName Name of the Student\r\n    /// @return the smart contract address for this Student instance in this University\r\n    function studentSelfRegister(bytes32 sName) public returns (address) {\r\n        return _newStudent(sName, _msgSender());\r\n    }\r\n\r\n    function _newStudent(bytes32 sName, address caller)\r\n        internal\r\n        returns (address)\r\n    {\r\n        require(\r\n            _studentApplicationsMapping[_msgSenderGSN()].length == 0,\r\n            \"University: student already registered\"\r\n        );\r\n        //Gambiarra: Push address(0) in the mapping to mark that student as registered in the university\r\n        _studentApplicationsMapping[caller].push(address(0));\r\n        address student = _studentFactory.newStudent(sName, address(this));\r\n        IStudent(student).transferOwnershipStudent(caller);\r\n        address studentAddr = address(student);\r\n        _students.push(studentAddr);\r\n        grantRole(STUDENT_IDENTITY_ROLE, studentAddr);\r\n        return address(studentAddr);\r\n    }\r\n\r\n    /// @notice Register function where an Admin can can create an instance of a Classroom in this University\r\n    /// @param owner Address to own this classroom\r\n    /// @param cName Name this classroom\r\n    /// @param cCut Cut of the principal amount deposited that is charged from students, in PPM\r\n    /// @param cPCut Cut of the pooled returns from successful students, in PPM\r\n    /// @param minScore Minimum score value required from students to be able to apply in this classroom\r\n    /// @param entryPrice Required deposit to be applied as principal an locked for the duration of the course, in decimal units of DAI\r\n    /// @param duration Lock time between course opening and closing, in Timestamp\r\n    /// @param challengeAddress Address to the challenge to be solved in this Classroom's courses\r\n    /// @return the smart contract address for this Classroom instance in this University\r\n    function newClassRoom(\r\n        address owner,\r\n        bytes32 cName,\r\n        uint24 cCut,\r\n        uint24 cPCut,\r\n        int32 minScore,\r\n        uint256 entryPrice,\r\n        uint256 duration,\r\n        address challengeAddress\r\n    ) public returns (address) {\r\n        require(\r\n            hasRole(CLASSLIST_ADMIN_ROLE, _msgSender()),\r\n            \"University: caller doesn't have CLASSLIST_ADMIN_ROLE\"\r\n        );\r\n        return\r\n            _newClassRoom(\r\n                owner,\r\n                cName,\r\n                cCut,\r\n                cPCut,\r\n                minScore,\r\n                entryPrice,\r\n                duration,\r\n                challengeAddress\r\n            );\r\n    }\r\n\r\n    function _newClassRoom(\r\n        address owner,\r\n        bytes32 cName,\r\n        uint24 cCut,\r\n        uint24 cPCut,\r\n        int32 minScore,\r\n        uint256 entryPrice,\r\n        uint256 duration,\r\n        address challengeAddress\r\n    ) internal returns (address) {\r\n        address classroom = _classroomFactory.newClassroom(\r\n            cName,\r\n            cCut,\r\n            cPCut,\r\n            minScore,\r\n            entryPrice,\r\n            duration,\r\n            payable (address(this)),\r\n            challengeAddress,\r\n            address(daiToken),\r\n            address(cDAI),\r\n            _studentApplicationFactoryAddress\r\n        );\r\n        IClassroom(classroom).transferOwnershipClassroom(owner);\r\n        address classroomAddr = address(classroom);\r\n        _classList.push(classroomAddr);\r\n        grantRole(READ_STUDENT_LIST_ROLE, classroomAddr);\r\n        grantRole(CLASSROOM_PROFESSOR_ROLE, classroomAddr);\r\n        emit LogNewClassroom(cName, classroomAddr);\r\n        return classroomAddr;\r\n    }\r\n\r\n    /// @notice Register function where an Student can can create an instance of a Classroom in this University, upon being successful in any classroom\r\n    /// @param applicationAddr Address of the successful application\r\n    /// @param cName Name this classroom\r\n    /// @param cCut Cut of the principal amount deposited that is charged from students, in PPM\r\n    /// @param cPCut Cut of the pooled returns from successful students, in PPM\r\n    /// @param minScore Minimum score value required from students to be able to apply in this classroom\r\n    /// @param entryPrice Required deposit to be applied as principal an locked for the duration of the course, in decimal units of DAI\r\n    /// @param duration Lock time between course opening and closing, in Timestamp\r\n    /// @param challenge Address to the challenge to be solved in this Classroom's courses\r\n    /// @return the smart contract address for this Classroom instance in this University\r\n    function studentRequestClassroom(\r\n        address applicationAddr,\r\n        bytes32 cName,\r\n        uint24 cCut,\r\n        uint24 cPCut,\r\n        int32 minScore,\r\n        uint256 entryPrice,\r\n        uint256 duration,\r\n        address challenge\r\n    ) public override returns (address) {\r\n        require(\r\n            hasRole(STUDENT_IDENTITY_ROLE, _msgSender()),\r\n            \"University: caller doesn't have STUDENT_IDENTITY_ROLE\"\r\n        );\r\n        require(\r\n            checkForStudentApplication(_msgSender(), applicationAddr),\r\n            \"University: caller is not student of this application\"\r\n        );\r\n        IStudentApplication application = IStudentApplication(applicationAddr);\r\n        require(\r\n            application.applicationState() == 3,\r\n            \"University: application is not successful\"\r\n        );\r\n        return\r\n            _newClassRoom(\r\n                IStudent(_msgSender()).ownerStudent(),\r\n                cName,\r\n                cCut,\r\n                cPCut,\r\n                minScore,\r\n                entryPrice,\r\n                duration,\r\n                challenge\r\n            );\r\n    }\r\n\r\n    /// @notice Register and map a Student's application to this Student\r\n    /// @param student Address of the Student\r\n    /// @param application Address of the application\r\n    function registerStudentApplication(\r\n        address student,\r\n        address application\r\n    ) public override\r\n    {\r\n        require(\r\n            hasRole(CLASSROOM_PROFESSOR_ROLE, _msgSender()),\r\n            \"University: caller doesn't have CLASSROOM_PROFESSOR_ROLE\"\r\n        );\r\n        _studentApplicationsMapping[student].push(application);\r\n    }\r\n\r\n    /// @notice Check if an application belongs to a specific Student\r\n    /// @param studentAddress Address of the Student\r\n    /// @param applicationAddress Address of the application\r\n    /// @return true if the application belongs to the Student\r\n    function checkForStudentApplication(\r\n        address studentAddress,\r\n        address applicationAddress\r\n    ) internal view returns (bool) {\r\n        for (\r\n            uint256 i = 0;\r\n            i < _studentApplicationsMapping[studentAddress].length;\r\n            i++\r\n        ) {\r\n            if (\r\n                _studentApplicationsMapping[studentAddress][i] ==\r\n                applicationAddress\r\n            ) return true;\r\n        }\r\n        return false;\r\n    }\r\n\r\n    /// @notice Increase a Student's score upon successful application\r\n    /// @param student Address of the Student\r\n    /// @param val Value to be added\r\n    function addStudentScore(address student, int32 val) public override {\r\n        require(\r\n            hasRole(CLASSROOM_PROFESSOR_ROLE, _msgSender()),\r\n            \"University: caller doesn't have CLASSROOM_PROFESSOR_ROLE\"\r\n        );\r\n        IStudent(student).addScore(val);\r\n    }\r\n\r\n    /// @notice Decrease a Student's score upon failed application\r\n    /// @param student Address of the Student\r\n    /// @param val Value to be subtracted\r\n    function subStudentScore(address student, int32 val) public override {\r\n        require(\r\n            hasRole(CLASSROOM_PROFESSOR_ROLE, _msgSender()),\r\n            \"University: caller doesn't have CLASSROOM_PROFESSOR_ROLE\"\r\n        );\r\n        IStudent(student).subScore(val);\r\n    }\r\n\r\n    /// @notice Allow managing the university Funds. Must be called from an appointed Funds Manager\r\n    function applyFundsCompound(uint256 val) public override {\r\n        require(\r\n            hasRole(FUNDS_MANAGER_ROLE, _msgSender()),\r\n            \"University: caller doesn't have FUNDS_MANAGER_ROLE\"\r\n        );\r\n        TransferHelper.safeApprove(address(daiToken), address(cDAI), val);\r\n        cDAI.mint(val);\r\n    }\r\n\r\n    /// @notice Get the ammount of DAI applied in Compound\r\n    /// @return ammount of DAI applied in Compound\r\n    function appliedDAICompound() public view override returns (uint256) {\r\n        return cDAI.balanceOfUnderlying(address(this));\r\n    }\r\n\r\n    /// @notice Allow managing the university Funds. Must be called from an appointed Funds Manager\r\n    function recoverFundsCompound(uint256 val) public override {\r\n        require(\r\n            hasRole(FUNDS_MANAGER_ROLE, _msgSender()),\r\n            \"University: caller doesn't have FUNDS_MANAGER_ROLE\"\r\n        );\r\n        cDAI.redeemUnderlying(val);\r\n    }\r\n\r\n    /// @notice Allow managing the university Funds. Must be called from an appointed Funds Manager\r\n    function applyFundsAave(uint256 val) public override {\r\n        require(\r\n            hasRole(FUNDS_MANAGER_ROLE, _msgSender()),\r\n            \"University: caller doesn't have FUNDS_MANAGER_ROLE\"\r\n        );\r\n        TransferHelper.safeApprove(address(daiToken), _aaveLendingPoolCore, val);\r\n        _aaveLendingPool.deposit(address(daiToken), val, 0);\r\n    }\r\n\r\n    /// @notice Get the ammount of DAI applied in Aave\r\n    /// @return ammount of DAI applied in Aave\r\n    function appliedDAIAave() public view override returns (uint256) {\r\n        return aToken(_aTokenDAI).balanceOf(address(this));\r\n    }\r\n\r\n    /// @notice Allow managing the university Funds. Must be called from an appointed Funds Manager\r\n    function recoverFundsAave(uint256 val) public override {\r\n        require(\r\n            hasRole(FUNDS_MANAGER_ROLE, _msgSender()),\r\n            \"University: caller doesn't have FUNDS_MANAGER_ROLE\"\r\n        );\r\n        aToken(_aTokenDAI).redeem(val);\r\n    }\r\n\r\n    /// @notice Allow managing the university Funds. Must be called from an appointed Funds Manager\r\n    function setAaveMarketCollateralForDAI(bool state) public override {\r\n        setAaveMarketCollateral(address(daiToken), state);\r\n    }\r\n\r\n    /// @notice Allow managing the university Funds. Must be called from an appointed Funds Manager\r\n    function setAaveMarketCollateral(address token, bool state) public override {\r\n        require(\r\n            hasRole(FUNDS_MANAGER_ROLE, _msgSender()),\r\n            \"University: caller doesn't have FUNDS_MANAGER_ROLE\"\r\n        );\r\n        _aaveLendingPool.setUserUseReserveAsCollateral(token, state);\r\n    }\r\n\r\n    /// @notice Allow managing the university Funds. Must be called from an appointed Funds Manager\r\n    function enterCompoundDAIMarket() public override {\r\n        enterCompoundMarket(address(cDAI));\r\n    }\r\n\r\n    /// @notice Allow managing the university Funds. Must be called from an appointed Funds Manager\r\n    function enterCompoundMarket(address token) public override {\r\n        require(\r\n            hasRole(FUNDS_MANAGER_ROLE, _msgSender()),\r\n            \"University: caller doesn't have FUNDS_MANAGER_ROLE\"\r\n        );\r\n        address[] memory cTokens = new address[](1);\r\n        cTokens[0] = token;\r\n        uint256[] memory errors = comptroller.enterMarkets(cTokens);\r\n        if (errors[0] != 0) {\r\n            revert(\"University: Comptroller.enterMarkets failed.\");\r\n        }\r\n    }\r\n\r\n    /// @notice Allow managing the university Funds. Must be called from an appointed Funds Manager\r\n    function exitCompoundDAIMarket() public override {\r\n        exitCompoundMarket(address(cDAI));\r\n    }\r\n\r\n    /// @notice Allow managing the university Funds. Must be called from an appointed Funds Manager\r\n    function exitCompoundMarket(address token) public override {\r\n        require(\r\n            hasRole(FUNDS_MANAGER_ROLE, _msgSender()),\r\n            \"University: caller doesn't have FUNDS_MANAGER_ROLE\"\r\n        );\r\n        uint256 error = comptroller.exitMarket(token);\r\n        if (error != 0) {\r\n            revert(\"University: Comptroller.exitMarket failed.\");\r\n        }\r\n    }\r\n\r\n    /// @notice Get the liquidity state in Compound\r\n    /// @return liquidity and/or shortfall in ETH, expressed in WEI\r\n    function getCompoundLiquidityAndShortfall() \r\n        public \r\n        view \r\n        override\r\n        returns (uint256, uint256) {\r\n        (uint256 error, uint256 liquidity, uint256 shortfall) = \r\n            comptroller\r\n            .getAccountLiquidity(address(this));\r\n        if (error != 0) {\r\n            revert(\"University: Comptroller.getAccountLiquidity failed.\");\r\n        }\r\n        return (liquidity, shortfall);\r\n    }\r\n\r\n    /// @notice Get the price from a specific token in Compound\r\n    /// @param cToken Compound token address to query\r\n    /// @return price in ETH, expressed in WEI\r\n    function getCompoundPriceInWEI(address cToken) \r\n        public \r\n        view \r\n        override\r\n        returns (uint256) {\r\n        return priceOracle.getUnderlyingPrice(cToken);\r\n    }\r\n\r\n    /// @notice Get the maximum volume of tokens to borrow in Compound\r\n    /// @param cToken Compound token address to query\r\n    /// @return maximum borrow volume, expressed in WEI\r\n    /// @dev Borrowing the maximum amount may lead to intant liquidation. Always borrow less than the maximum\r\n    function getCompoundMaxBorrowInWEI(address cToken) \r\n        public \r\n        view \r\n        override\r\n        returns (uint256) {\r\n        (uint256 liquidity, ) = getCompoundLiquidityAndShortfall();\r\n        return liquidity.div(priceOracle.getUnderlyingPrice(cToken));\r\n    }\r\n\r\n    /// @notice Allow managing the university Funds. Must be called from an appointed Funds Manager\r\n    function compoundBorrow(address cToken, uint256 val) \r\n        public \r\n        override {\r\n        require(\r\n            hasRole(FUNDS_MANAGER_ROLE, _msgSender()),\r\n            \"University: caller doesn't have FUNDS_MANAGER_ROLE\"\r\n        );\r\n        CERC20(cToken).borrow(val);\r\n    }\r\n\r\n    /// @notice Allow managing the university Funds. Must be called from an appointed Funds Manager\r\n    function compoundGetBorrow(address cToken) \r\n        public \r\n        view \r\n        override\r\n        returns (uint256) {\r\n        require(\r\n            hasRole(FUNDS_MANAGER_ROLE, _msgSender()),\r\n            \"University: caller doesn't have FUNDS_MANAGER_ROLE\"\r\n        );\r\n        return CERC20(cToken).borrowBalanceCurrent(address(this));\r\n    }\r\n\r\n    /// @notice Allow managing the university Funds. Must be called from an appointed Funds Manager\r\n    function compoundRepayBorrow(address token, address cToken, uint256 val)\r\n        public \r\n        override {\r\n        require(\r\n            hasRole(FUNDS_MANAGER_ROLE, _msgSender()),\r\n            \"University: caller doesn't have FUNDS_MANAGER_ROLE\"\r\n        );\r\n        require(\r\n            IERC20(token).balanceOf(address(this)) >= val,\r\n            \"University: not enough of this token stored\"\r\n        );\r\n        TransferHelper.safeApprove(token, cToken, val);\r\n        CERC20(cToken).repayBorrow(val);\r\n    }\r\n\r\n    /// @notice Allow managing the university Funds. Must be called from an appointed Funds Manager\r\n    function aaveGetBorrow(address token, uint256 val, bool variableRate) public override {\r\n        require(\r\n            hasRole(FUNDS_MANAGER_ROLE, _msgSender()),\r\n            \"University: caller doesn't have FUNDS_MANAGER_ROLE\"\r\n        );\r\n        uint8 vRate = variableRate ? 2 : 1;\r\n        _aaveLendingPool.borrow(token, val, vRate, 0);\r\n    }\r\n\r\n    /// @notice Allow managing the university Funds. Must be called from an appointed Funds Manager\r\n    function aaveRepayBorrow(address token, uint256 val)\r\n        public \r\n        override {\r\n        require(\r\n            hasRole(FUNDS_MANAGER_ROLE, _msgSender()),\r\n            \"University: caller doesn't have FUNDS_MANAGER_ROLE\"\r\n        );\r\n        require(\r\n            IERC20(token).balanceOf(address(this)) >= val,\r\n            \"University: not enough of this token stored\"\r\n        );\r\n        TransferHelper.safeApprove(token, _aaveProvider.getLendingPoolCore(), val);\r\n        _aaveLendingPool.repay(token, val, address(this));\r\n    }\r\n\r\n    /// @notice Allow managing the university Funds. Must be called from an appointed Funds Manager\r\n    function aaveSwapBorrowRateMode(address token) public override {\r\n        require(\r\n            hasRole(FUNDS_MANAGER_ROLE, _msgSender()),\r\n            \"University: caller doesn't have FUNDS_MANAGER_ROLE\"\r\n        );\r\n        _aaveLendingPool.swapBorrowRateMode(token);\r\n    }\r\n\r\n    /// @notice Allow managing how much Funds Manager can draw from funds to cover operational expenses. Must be called from the university admin\r\n    /// @param val Value to increase\r\n    function increaseOperationalBudget(uint256 val) public onlyOwner {\r\n        require(\r\n            endowmentLocked >= val,\r\n            \"University: not enough endowment\"\r\n        );\r\n        operationalBudget = operationalBudget.add(val);\r\n        endowmentLocked = endowmentLocked.sub(val);\r\n    }\r\n\r\n    /// @notice Allow managing how much Funds Manager can draw from funds to cover operational expenses. Must be called from the university admin\r\n    /// @param val Value to decrease\r\n    function decreaseOperationalBudget(uint256 val) public onlyOwner {\r\n        require(\r\n            operationalBudget >= val,\r\n            \"University: not enough budget to decrease\"\r\n        );\r\n        operationalBudget = operationalBudget.sub(val);\r\n        endowmentLocked = endowmentLocked.add(val);\r\n    }\r\n\r\n    /// @notice Allow a Funds Manager to send funds to Registered Suppliers, spending the operational budget set by the University owner\r\n    /// @param to Address of the Registered Supplier\r\n    /// @param val Value to be sent, in DAI decimals\r\n    function spendBudget(address to, uint256 val) public override {\r\n        require(\r\n            hasRole(FUNDS_MANAGER_ROLE, _msgSender()),\r\n            \"University: caller doesn't have FUNDS_MANAGER_ROLE\"\r\n        );\r\n        require(\r\n            hasRole(REGISTERED_SUPPLIER_ROLE, to),\r\n            \"University: receiver doesn't have REGISTERED_SUPPLIER_ROLE\"\r\n        );\r\n        require(\r\n            operationalBudget >= val,\r\n            \"University: not enough operational budget\"\r\n        );\r\n        require(\r\n            daiToken.balanceOf(address(this)) >= val,\r\n            \"University: liquidate some positions first\"\r\n        );\r\n        TransferHelper.safeTransfer(address(daiToken), to, val);\r\n        operationalBudget = operationalBudget.sub(val);\r\n    }\r\n\r\n    /// @notice Allow a Grants Manager to pay a Student's entry price for an application, if the appointed Grants Manager decide so\r\n    /// @param studentApplication Address of the Student\r\n    /// @param price Value of the application's entry price\r\n    function giveGrant(address studentApplication, uint256 price) public override {\r\n        require(\r\n            hasRole(GRANTS_MANAGER_ROLE, _msgSender()),\r\n            \"University: caller doesn't have GRANTS_MANAGER_ROLE\"\r\n        );\r\n        require(\r\n            availableFunds() >= price,\r\n            \"University: not enough available funds\"\r\n        );\r\n        IStudentApplication(studentApplication).payEntryPrice();\r\n    }\r\n\r\n    /// @notice Allow a Funds Manager to redirect surplus funds from liquidated positions to the endowment locked value. Irreversible\r\n    /// @param val Value to be sent, in DAI decimals\r\n    function reinvestReturns(uint256 val) public override {\r\n        require(\r\n            hasRole(FUNDS_MANAGER_ROLE, _msgSender()),\r\n            \"University: caller doesn't have FUNDS_MANAGER_ROLE\"\r\n        );\r\n        require(\r\n            availableFunds() >= val,\r\n            \"University: not enough available funds\"\r\n        );\r\n        accountReturns(val);\r\n    }\r\n\r\n    /// @notice Allow an appointed Overseer to inspect all students that received grants by a specific Grants Manager\r\n    /// @param grantsManager Address of the Grants Manager\r\n    /// @return array of Students addresses\r\n    function viewAllStudentsFromGrantManager(\r\n            address grantsManager\r\n        ) public returns (address[] memory) {\r\n        require(\r\n            hasRole(UNIVERSITY_OVERSEER_ROLE, _msgSender()),\r\n            \"University: caller doesn't have UNIVERSITY_OVERSEER_ROLE\"\r\n        );\r\n        return IGrantsManager(grantsManager).viewAllStudents();\r\n    }\r\n\r\n    /// @notice Allow an appointed Overseer to inspect all grants issued by a specific Grants Manager to a specific Student\r\n    /// @param student Address of the Student\r\n    /// @param grantsManager Address of the Grants Manager\r\n    /// @return array of grant values\r\n    function viewAllStudentGrantsFromGrantManager(\r\n            address student, \r\n            address grantsManager\r\n        ) public returns (uint256[] memory) {\r\n        require(\r\n            hasRole(UNIVERSITY_OVERSEER_ROLE, _msgSender()),\r\n            \"University: caller doesn't have UNIVERSITY_OVERSEER_ROLE\"\r\n        );\r\n        return IGrantsManager(grantsManager).viewAllGrantsForStudent(student);\r\n    }\r\n\r\n    /// @notice GSN specific implementation\r\n    /// @dev The idea here is only to allow GSN interactions with one specific funcion\r\n    function acceptRelayedCall(\r\n        GSNTypes.RelayRequest calldata relayRequest,\r\n        bytes calldata,\r\n        uint256\r\n    ) external pure returns (bytes memory context) {\r\n        require(\r\n            MyUtils.readBytes4(relayRequest.encodedFunction, 0) ==\r\n                this.studentSelfRegisterGSN.selector,\r\n            \"University: GSN not enabled for this function\"\r\n        );\r\n        return abi.encode(relayRequest.target, 0);\r\n    }\r\n\r\n    /// @notice Allow a Funds Manager to refill the GSN relayer using the University ETH funds\r\n    /// @param val Value to be deposited in the relayer, in WEI\r\n    function refillUniversityRelayer(uint256 val) public {\r\n        require(\r\n            hasRole(FUNDS_MANAGER_ROLE, _msgSender()) || _msgSender() == owner(),\r\n            \"University: caller doesn't have FUNDS_MANAGER_ROLE\"\r\n        );\r\n        relayHub.depositFor.value(val)(address(this));\r\n    }\r\n\r\n    /// @notice Allow a Funds Manager to swap University funds in DAI for ETH using Uniswap\r\n    /// @dev The logic for controlling slippage and price should be taken care by the Funds Manager\r\n    /// @param amount amount of DAI to trade, in decimals\r\n    /// @param deadline timestamps to keep the transaction valid before reverting \r\n    function swapDAI_ETH(\r\n        uint256 amount,\r\n        uint256 deadline\r\n    ) public override returns (uint[] memory amounts) {\r\n        require(\r\n            hasRole(FUNDS_MANAGER_ROLE, _msgSender()),\r\n            \"University: caller doesn't have FUNDS_MANAGER_ROLE\"\r\n        );\r\n        require(\r\n            _uniswapWETH != address(0),\r\n            \"University: setup uniswap first\"\r\n        );\r\n        amounts = swapBlind(_uniswapDAI, _uniswapWETH, amount, deadline);\r\n    }\r\n\r\n    /// @notice Allow a Funds Manager to swap University funds in ETH for DAI using Uniswap\r\n    /// @dev The logic for controlling slippage and price should be taken care by the Funds Manager\r\n    /// @param amount amount of ETH to trade, in decimals of WETH\r\n    /// @param deadline timestamps to keep the transaction valid before reverting \r\n    function swapETH_DAI(\r\n        uint256 amount,\r\n        uint256 deadline\r\n    ) public override returns (uint[] memory amounts) {\r\n        require(\r\n            hasRole(FUNDS_MANAGER_ROLE, _msgSender()),\r\n            \"University: caller doesn't have FUNDS_MANAGER_ROLE\"\r\n        );\r\n        require(\r\n            _uniswapWETH != address(0),\r\n            \"University: setup uniswap first\"\r\n        );\r\n        amounts = swapBlind(_uniswapWETH, _uniswapDAI, amount, deadline);\r\n    }\r\n\r\n    function swapBlind(\r\n        address tokenA,\r\n        address tokenB,\r\n        uint256 amount,\r\n        uint256 deadline\r\n    ) internal returns (uint[] memory amounts) {\r\n        TransferHelper.safeApprove(tokenA, address(_uniswapRouter), amount);\r\n        address[] memory path = new address[](2);\r\n        path[0] = tokenA;\r\n        path[1] = tokenB;\r\n        amounts = _uniswapRouter.swapExactTokensForTokens(\r\n            amount,\r\n            0,\r\n            path,\r\n            address(this),\r\n            deadline\r\n        );\r\n    }\r\n    \r\n    /// @notice Allow donating ETH to the University funds\r\n    /// @dev This function is vulnerable to sandwich attacks. Since the very nature of this function is for a donor to donate money, it is not needed to prevent the donor from manipulating its own donation\r\n    /// @param donation amount of ETH to donate, in WEI\r\n    function donateETH(uint256 donation) public payable override {\r\n        uint256[] memory amounts = swapETH_DAI(donation, 12 hours);\r\n        accountDonation(_msgSender(), amounts[1]);\r\n    }\r\n\r\n    /// @notice Allow donating DAI to the University funds. Require allowing the University first\r\n    /// @param donation amount of DAI to donate, in decimals\r\n    function donateDAI(uint256 donation) public override {\r\n        TransferHelper.safeTransferFrom(\r\n            address(daiToken),\r\n            _msgSender(),\r\n            address(this),\r\n            donation\r\n        );\r\n        accountDonation(_msgSender(), donation);\r\n    }\r\n\r\n    function accountDonation(address sender, uint256 donation) internal {\r\n        donationsReceived = donationsReceived.add(donation);\r\n        endowmentLocked = endowmentLocked.add(donation);\r\n        donators[sender] = donators[sender].add(donation);\r\n        LogDonation(_msgSender(), donation);\r\n    }\r\n    \r\n    /// @notice Classroom call to account a revenue received from a completed course\r\n    function accountRevenue(uint256 revenue) public override {\r\n        require(\r\n            hasRole(CLASSROOM_PROFESSOR_ROLE, _msgSender()),\r\n            \"University: caller doesn't have CLASSROOM_PROFESSOR_ROLE\"\r\n        );\r\n        revenueReceived = revenueReceived.add(revenue);\r\n        endowmentLocked = endowmentLocked.add(revenue);\r\n        LogRevenue(_msgSender(), revenue);\r\n    }\r\n\r\n    function accountReturns(uint256 financialReturns) internal {\r\n        returnsReceived = revenueReceived.add(financialReturns);\r\n        endowmentLocked = endowmentLocked.add(financialReturns);\r\n        LogReturn(_msgSender(), financialReturns);\r\n    }\r\n}\r\n",
  "sourcePath": "/mnt/e/Repositories/Uproot/contracts/University.sol",
  "compiler": {
    "name": "solc",
    "version": "0.6.6+commit.6c089d02.Emscripten.clang"
  },
  "schemaVersion": "3.1.0",
  "updatedAt": "2020-05-08T00:10:25.655Z",
  "networkType": "ethereum",
  "devdoc": {
    "methods": {
      "acceptRelayedCall((address,bytes,(uint256,uint256,uint256,uint256),(address,uint256,address,address)),bytes,uint256)": {
        "details": "The idea here is only to allow GSN interactions with one specific funcion"
      },
      "addStudentScore(address,int32)": {
        "params": {
          "student": "Address of the Student",
          "val": "Value to be added"
        }
      },
      "changeCut(uint24)": {
        "params": {
          "val": "New value, in PPM"
        }
      },
      "changeName(bytes32)": {
        "params": {
          "val": "New value"
        }
      },
      "changeStudentGSNDeposit(uint256)": {
        "params": {
          "val": "New value, in WEI"
        }
      },
      "configureAave(address)": {
        "details": "Not all variables can be defined in the constructor because the limitation of the stack size",
        "params": {
          "lendingPoolAddressesProvider": "Address of the contract in the network"
        }
      },
      "configureCompound(address,address,address)": {
        "details": "Not all variables can be defined in the constructor because the limitation of the stack size",
        "params": {
          "compoundDAIAddress": "Address of the contract in the network",
          "comptrollerAddress": "Address of the contract in the network",
          "priceOracleAddress": "Address of the contract in the network"
        }
      },
      "configureUniswap(address,address,address)": {
        "details": "Not all variables can be defined in the constructor because the limitation of the stack size",
        "params": {
          "uniswapDAI": "Address of the contract in the network",
          "uniswapRouter": "Address of the contract in the network",
          "uniswapWETH": "Address of the contract in the network"
        }
      },
      "constructor": {
        "details": "Not all variables can be defined in this constructor because the limitation of the stack size",
        "params": {
          "classroomFactoryAddress": "Adress of contract in the network",
          "cut_": "Cut from professor payments, in PPM",
          "daiAddress": "Adress of contract in the network",
          "name_": "Given name for the university",
          "relayHubAddress": "Adress of contract in the network",
          "studentApplicationFactoryAddress": "Adress of contract in the network",
          "studentFactoryAddress": "Adress of contract in the network",
          "studentGSNDeposit": "Ammount of ETH to give relayer hub of students for UX reasons, in WEI"
        }
      },
      "decreaseOperationalBudget(uint256)": {
        "params": {
          "val": "Value to decrease"
        }
      },
      "donateDAI(uint256)": {
        "params": {
          "donation": "amount of DAI to donate, in decimals"
        }
      },
      "donateETH(uint256)": {
        "details": "This function is vulnerable to sandwich attacks. Since the very nature of this function is for a donor to donate money, it is not needed to prevent the donor from manipulating its own donation",
        "params": {
          "donation": "amount of ETH to donate, in WEI"
        }
      },
      "getCompoundMaxBorrowInWEI(address)": {
        "details": "Borrowing the maximum amount may lead to intant liquidation. Always borrow less than the maximum",
        "params": {
          "cToken": "Compound token address to query"
        },
        "returns": {
          "_0": "maximum borrow volume, expressed in WEI"
        }
      },
      "getCompoundPriceInWEI(address)": {
        "params": {
          "cToken": "Compound token address to query"
        },
        "returns": {
          "_0": "price in ETH, expressed in WEI"
        }
      },
      "getRoleAdmin(bytes32)": {
        "details": "Returns the admin role that controls `role`. See {grantRole} and {revokeRole}.     * To change a role's admin, use {_setRoleAdmin}."
      },
      "getRoleMember(bytes32,uint256)": {
        "details": "Returns one of the accounts that have `role`. `index` must be a value between 0 and {getRoleMemberCount}, non-inclusive.     * Role bearers are not sorted in any particular way, and their ordering may change at any point.     * WARNING: When using {getRoleMember} and {getRoleMemberCount}, make sure you perform all queries on the same block. See the following https://forum.openzeppelin.com/t/iterating-over-elements-on-enumerableset-in-openzeppelin-contracts/2296[forum post] for more information."
      },
      "getRoleMemberCount(bytes32)": {
        "details": "Returns the number of accounts that have `role`. Can be used together with {getRoleMember} to enumerate all bearers of a role."
      },
      "giveGrant(address,uint256)": {
        "params": {
          "price": "Value of the application's entry price",
          "studentApplication": "Address of the Student"
        }
      },
      "grantRole(bytes32,address)": {
        "details": "Grants `role` to `account`.     * If `account` had not been already granted `role`, emits a {RoleGranted} event.     * Requirements:     * - the caller must have ``role``'s admin role."
      },
      "hasRole(bytes32,address)": {
        "details": "Returns `true` if `account` has been granted `role`."
      },
      "increaseOperationalBudget(uint256)": {
        "params": {
          "val": "Value to increase"
        }
      },
      "newClassRoom(address,bytes32,uint24,uint24,int32,uint256,uint256,address)": {
        "params": {
          "cCut": "Cut of the principal amount deposited that is charged from students, in PPM",
          "cName": "Name this classroom",
          "cPCut": "Cut of the pooled returns from successful students, in PPM",
          "challengeAddress": "Address to the challenge to be solved in this Classroom's courses",
          "duration": "Lock time between course opening and closing, in Timestamp",
          "entryPrice": "Required deposit to be applied as principal an locked for the duration of the course, in decimal units of DAI",
          "minScore": "Minimum score value required from students to be able to apply in this classroom",
          "owner": "Address to own this classroom"
        },
        "returns": {
          "_0": "the smart contract address for this Classroom instance in this University"
        }
      },
      "owner()": {
        "details": "Returns the address of the current owner."
      },
      "refillUniversityRelayer(uint256)": {
        "params": {
          "val": "Value to be deposited in the relayer, in WEI"
        }
      },
      "registerStudentApplication(address,address)": {
        "params": {
          "application": "Address of the application",
          "student": "Address of the Student"
        }
      },
      "reinvestReturns(uint256)": {
        "params": {
          "val": "Value to be sent, in DAI decimals"
        }
      },
      "renounceOwnership()": {
        "details": "Leaves the contract without owner. It will not be possible to call `onlyOwner` functions anymore. Can only be called by the current owner.     * NOTE: Renouncing ownership will leave the contract without an owner, thereby removing any functionality that is only available to the owner."
      },
      "renounceRole(bytes32,address)": {
        "details": "Revokes `role` from the calling account.     * Roles are often managed via {grantRole} and {revokeRole}: this function's purpose is to provide a mechanism for accounts to lose their privileges if they are compromised (such as when a trusted device is misplaced).     * If the calling account had been granted `role`, emits a {RoleRevoked} event.     * Requirements:     * - the caller must be `account`."
      },
      "revokeRole(bytes32,address)": {
        "details": "Revokes `role` from `account`.     * If `account` had been granted `role`, emits a {RoleRevoked} event.     * Requirements:     * - the caller must have ``role``'s admin role."
      },
      "spendBudget(address,uint256)": {
        "params": {
          "to": "Address of the Registered Supplier",
          "val": "Value to be sent, in DAI decimals"
        }
      },
      "studentRequestClassroom(address,bytes32,uint24,uint24,int32,uint256,uint256,address)": {
        "params": {
          "applicationAddr": "Address of the successful application",
          "cCut": "Cut of the principal amount deposited that is charged from students, in PPM",
          "cName": "Name this classroom",
          "cPCut": "Cut of the pooled returns from successful students, in PPM",
          "challenge": "Address to the challenge to be solved in this Classroom's courses",
          "duration": "Lock time between course opening and closing, in Timestamp",
          "entryPrice": "Required deposit to be applied as principal an locked for the duration of the course, in decimal units of DAI",
          "minScore": "Minimum score value required from students to be able to apply in this classroom"
        },
        "returns": {
          "_0": "the smart contract address for this Classroom instance in this University"
        }
      },
      "studentSelfRegister(bytes32)": {
        "params": {
          "sName": "Name of the Student"
        },
        "returns": {
          "_0": "the smart contract address for this Student instance in this University"
        }
      },
      "studentSelfRegisterGSN(bytes32)": {
        "details": "This GSN implementation is buggy",
        "params": {
          "sName": "Name of the Student"
        },
        "returns": {
          "_0": "the smart contract address for this Student instance in this University"
        }
      },
      "subStudentScore(address,int32)": {
        "params": {
          "student": "Address of the Student",
          "val": "Value to be subtracted"
        }
      },
      "swapDAI_ETH(uint256,uint256)": {
        "details": "The logic for controlling slippage and price should be taken care by the Funds Manager",
        "params": {
          "amount": "amount of DAI to trade, in decimals",
          "deadline": "timestamps to keep the transaction valid before reverting "
        }
      },
      "swapETH_DAI(uint256,uint256)": {
        "details": "The logic for controlling slippage and price should be taken care by the Funds Manager",
        "params": {
          "amount": "amount of ETH to trade, in decimals of WETH",
          "deadline": "timestamps to keep the transaction valid before reverting "
        }
      },
      "transferOwnership(address)": {
        "details": "Transfers ownership of the contract to a new account (`newOwner`). Can only be called by the current owner."
      },
      "viewAllStudentGrantsFromGrantManager(address,address)": {
        "params": {
          "grantsManager": "Address of the Grants Manager",
          "student": "Address of the Student"
        },
        "returns": {
          "_0": "array of grant values"
        }
      },
      "viewAllStudentsFromGrantManager(address)": {
        "params": {
          "grantsManager": "Address of the Grants Manager"
        },
        "returns": {
          "_0": "array of Students addresses"
        }
      },
      "viewStudentApplications(address)": {
        "params": {
          "addr": "Address of the student"
        },
        "returns": {
          "_0": "the addresses of the applications of a the supplied address"
        }
      }
    }
  },
  "userdoc": {
    "methods": {
      "_msgSenderGSN()": {
        "notice": "return the sender of this call. if the call came through our trusted forwarder, return the original sender. otherwise, return `msg.sender`. should be used in the contract anywhere instead of msg.sender"
      },
      "aaveGetBorrow(address,uint256,bool)": {
        "notice": "Allow managing the university Funds. Must be called from an appointed Funds Manager"
      },
      "aaveRepayBorrow(address,uint256)": {
        "notice": "Allow managing the university Funds. Must be called from an appointed Funds Manager"
      },
      "aaveSwapBorrowRateMode(address)": {
        "notice": "Allow managing the university Funds. Must be called from an appointed Funds Manager"
      },
      "acceptRelayedCall((address,bytes,(uint256,uint256,uint256,uint256),(address,uint256,address,address)),bytes,uint256)": {
        "notice": "GSN specific implementation"
      },
      "accountRevenue(uint256)": {
        "notice": "Classroom call to account a revenue received from a completed course"
      },
      "addStudentScore(address,int32)": {
        "notice": "Increase a Student's score upon successful application"
      },
      "appliedDAIAave()": {
        "notice": "Get the ammount of DAI applied in Aave"
      },
      "appliedDAICompound()": {
        "notice": "Get the ammount of DAI applied in Compound"
      },
      "applyFundsAave(uint256)": {
        "notice": "Allow managing the university Funds. Must be called from an appointed Funds Manager"
      },
      "applyFundsCompound(uint256)": {
        "notice": "Allow managing the university Funds. Must be called from an appointed Funds Manager"
      },
      "changeCut(uint24)": {
        "notice": "Change the cut charged from the professors"
      },
      "changeName(bytes32)": {
        "notice": "Change the name of the University"
      },
      "changeStudentGSNDeposit(uint256)": {
        "notice": "Change the value of ETH deposited in students relay hub"
      },
      "compoundBorrow(address,uint256)": {
        "notice": "Allow managing the university Funds. Must be called from an appointed Funds Manager"
      },
      "compoundGetBorrow(address)": {
        "notice": "Allow managing the university Funds. Must be called from an appointed Funds Manager"
      },
      "compoundRepayBorrow(address,address,uint256)": {
        "notice": "Allow managing the university Funds. Must be called from an appointed Funds Manager"
      },
      "configureAave(address)": {
        "notice": "Setup the Ava variables"
      },
      "configureCompound(address,address,address)": {
        "notice": "Setup the Compound variables"
      },
      "configureUniswap(address,address,address)": {
        "notice": "Setup the Uniswap variables"
      },
      "constructor": "Constructor setup the basic variables",
      "decreaseOperationalBudget(uint256)": {
        "notice": "Allow managing how much Funds Manager can draw from funds to cover operational expenses. Must be called from the university admin"
      },
      "donateDAI(uint256)": {
        "notice": "Allow donating DAI to the University funds. Require allowing the University first"
      },
      "donateETH(uint256)": {
        "notice": "Allow donating ETH to the University funds"
      },
      "enterCompoundDAIMarket()": {
        "notice": "Allow managing the university Funds. Must be called from an appointed Funds Manager"
      },
      "enterCompoundMarket(address)": {
        "notice": "Allow managing the university Funds. Must be called from an appointed Funds Manager"
      },
      "exitCompoundDAIMarket()": {
        "notice": "Allow managing the university Funds. Must be called from an appointed Funds Manager"
      },
      "exitCompoundMarket(address)": {
        "notice": "Allow managing the university Funds. Must be called from an appointed Funds Manager"
      },
      "getCompoundLiquidityAndShortfall()": {
        "notice": "Get the liquidity state in Compound"
      },
      "getCompoundMaxBorrowInWEI(address)": {
        "notice": "Get the maximum volume of tokens to borrow in Compound"
      },
      "getCompoundPriceInWEI(address)": {
        "notice": "Get the price from a specific token in Compound"
      },
      "giveGrant(address,uint256)": {
        "notice": "Allow a Grants Manager to pay a Student's entry price for an application, if the appointed Grants Manager decide so"
      },
      "increaseOperationalBudget(uint256)": {
        "notice": "Allow managing how much Funds Manager can draw from funds to cover operational expenses. Must be called from the university admin"
      },
      "newClassRoom(address,bytes32,uint24,uint24,int32,uint256,uint256,address)": {
        "notice": "Register function where an Admin can can create an instance of a Classroom in this University"
      },
      "recoverFundsAave(uint256)": {
        "notice": "Allow managing the university Funds. Must be called from an appointed Funds Manager"
      },
      "recoverFundsCompound(uint256)": {
        "notice": "Allow managing the university Funds. Must be called from an appointed Funds Manager"
      },
      "refillUniversityRelayer(uint256)": {
        "notice": "Allow a Funds Manager to refill the GSN relayer using the University ETH funds"
      },
      "registerStudentApplication(address,address)": {
        "notice": "Register and map a Student's application to this Student"
      },
      "reinvestReturns(uint256)": {
        "notice": "Allow a Funds Manager to redirect surplus funds from liquidated positions to the endowment locked value. Irreversible"
      },
      "setAaveMarketCollateral(address,bool)": {
        "notice": "Allow managing the university Funds. Must be called from an appointed Funds Manager"
      },
      "setAaveMarketCollateralForDAI(bool)": {
        "notice": "Allow managing the university Funds. Must be called from an appointed Funds Manager"
      },
      "spendBudget(address,uint256)": {
        "notice": "Allow a Funds Manager to send funds to Registered Suppliers, spending the operational budget set by the University owner"
      },
      "studentRequestClassroom(address,bytes32,uint24,uint24,int32,uint256,uint256,address)": {
        "notice": "Register function where an Student can can create an instance of a Classroom in this University, upon being successful in any classroom"
      },
      "studentSelfRegister(bytes32)": {
        "notice": "Self-register function where an address can create an instance of a Student in this University"
      },
      "studentSelfRegisterGSN(bytes32)": {
        "notice": "Self-register function where an address can create an instance of a Student in this University"
      },
      "subStudentScore(address,int32)": {
        "notice": "Decrease a Student's score upon failed application"
      },
      "swapDAI_ETH(uint256,uint256)": {
        "notice": "Allow a Funds Manager to swap University funds in DAI for ETH using Uniswap"
      },
      "swapETH_DAI(uint256,uint256)": {
        "notice": "Allow a Funds Manager to swap University funds in ETH for DAI using Uniswap"
      },
      "viewAllStudentGrantsFromGrantManager(address,address)": {
        "notice": "Allow an appointed Overseer to inspect all grants issued by a specific Grants Manager to a specific Student"
      },
      "viewAllStudentsFromGrantManager(address)": {
        "notice": "Allow an appointed Overseer to inspect all students that received grants by a specific Grants Manager"
      },
      "withdraw(uint256)": {
        "notice": "Allow taking ETH from the contract"
      }
    }
  }
}