{
  "contractName": "University",
  "abi": [
    {
      "inputs": [
        {
          "internalType": "bytes32",
          "name": "_name",
          "type": "bytes32"
        },
        {
          "internalType": "uint24",
          "name": "_cut",
          "type": "uint24"
        },
        {
          "internalType": "address",
          "name": "daiAddress",
          "type": "address"
        },
        {
          "internalType": "address",
          "name": "compoundAddress",
          "type": "address"
        }
      ],
      "stateMutability": "nonpayable",
      "type": "constructor"
    },
    {
      "anonymous": false,
      "inputs": [
        {
          "indexed": false,
          "internalType": "uint24",
          "name": "",
          "type": "uint24"
        }
      ],
      "name": "LogChangeCut",
      "type": "event"
    },
    {
      "anonymous": false,
      "inputs": [
        {
          "indexed": false,
          "internalType": "bytes32",
          "name": "",
          "type": "bytes32"
        }
      ],
      "name": "LogChangeName",
      "type": "event"
    },
    {
      "anonymous": false,
      "inputs": [
        {
          "indexed": false,
          "internalType": "bytes32",
          "name": "",
          "type": "bytes32"
        },
        {
          "indexed": false,
          "internalType": "address",
          "name": "",
          "type": "address"
        }
      ],
      "name": "LogNewClassroom",
      "type": "event"
    },
    {
      "anonymous": false,
      "inputs": [
        {
          "indexed": true,
          "internalType": "address",
          "name": "previousOwner",
          "type": "address"
        },
        {
          "indexed": true,
          "internalType": "address",
          "name": "newOwner",
          "type": "address"
        }
      ],
      "name": "OwnershipTransferred",
      "type": "event"
    },
    {
      "anonymous": false,
      "inputs": [
        {
          "indexed": true,
          "internalType": "bytes32",
          "name": "role",
          "type": "bytes32"
        },
        {
          "indexed": true,
          "internalType": "address",
          "name": "account",
          "type": "address"
        },
        {
          "indexed": true,
          "internalType": "address",
          "name": "sender",
          "type": "address"
        }
      ],
      "name": "RoleGranted",
      "type": "event"
    },
    {
      "anonymous": false,
      "inputs": [
        {
          "indexed": true,
          "internalType": "bytes32",
          "name": "role",
          "type": "bytes32"
        },
        {
          "indexed": true,
          "internalType": "address",
          "name": "account",
          "type": "address"
        },
        {
          "indexed": true,
          "internalType": "address",
          "name": "sender",
          "type": "address"
        }
      ],
      "name": "RoleRevoked",
      "type": "event"
    },
    {
      "inputs": [],
      "name": "CLASSLIST_ADMIN_ROLE",
      "outputs": [
        {
          "internalType": "bytes32",
          "name": "",
          "type": "bytes32"
        }
      ],
      "stateMutability": "view",
      "type": "function"
    },
    {
      "inputs": [],
      "name": "CLASSROOM_ROLE",
      "outputs": [
        {
          "internalType": "bytes32",
          "name": "",
          "type": "bytes32"
        }
      ],
      "stateMutability": "view",
      "type": "function"
    },
    {
      "inputs": [],
      "name": "DEFAULT_ADMIN_ROLE",
      "outputs": [
        {
          "internalType": "bytes32",
          "name": "",
          "type": "bytes32"
        }
      ],
      "stateMutability": "view",
      "type": "function"
    },
    {
      "inputs": [],
      "name": "FUNDS_MANAGER_ROLE",
      "outputs": [
        {
          "internalType": "bytes32",
          "name": "",
          "type": "bytes32"
        }
      ],
      "stateMutability": "view",
      "type": "function"
    },
    {
      "inputs": [],
      "name": "GRANTS_MANAGER_ROLE",
      "outputs": [
        {
          "internalType": "bytes32",
          "name": "",
          "type": "bytes32"
        }
      ],
      "stateMutability": "view",
      "type": "function"
    },
    {
      "inputs": [],
      "name": "READ_STUDENT_LIST_ROLE",
      "outputs": [
        {
          "internalType": "bytes32",
          "name": "",
          "type": "bytes32"
        }
      ],
      "stateMutability": "view",
      "type": "function"
    },
    {
      "inputs": [],
      "name": "STUDENT_ROLE",
      "outputs": [
        {
          "internalType": "bytes32",
          "name": "",
          "type": "bytes32"
        }
      ],
      "stateMutability": "view",
      "type": "function"
    },
    {
      "inputs": [
        {
          "internalType": "uint256",
          "name": "",
          "type": "uint256"
        }
      ],
      "name": "_classList",
      "outputs": [
        {
          "internalType": "contract Classroom",
          "name": "",
          "type": "address"
        }
      ],
      "stateMutability": "view",
      "type": "function"
    },
    {
      "inputs": [],
      "name": "cToken",
      "outputs": [
        {
          "internalType": "contract CERC20",
          "name": "",
          "type": "address"
        }
      ],
      "stateMutability": "view",
      "type": "function"
    },
    {
      "inputs": [],
      "name": "cut",
      "outputs": [
        {
          "internalType": "uint24",
          "name": "",
          "type": "uint24"
        }
      ],
      "stateMutability": "view",
      "type": "function"
    },
    {
      "inputs": [],
      "name": "daiToken",
      "outputs": [
        {
          "internalType": "contract IERC20",
          "name": "",
          "type": "address"
        }
      ],
      "stateMutability": "view",
      "type": "function"
    },
    {
      "inputs": [
        {
          "internalType": "bytes32",
          "name": "role",
          "type": "bytes32"
        }
      ],
      "name": "getRoleAdmin",
      "outputs": [
        {
          "internalType": "bytes32",
          "name": "",
          "type": "bytes32"
        }
      ],
      "stateMutability": "view",
      "type": "function"
    },
    {
      "inputs": [
        {
          "internalType": "bytes32",
          "name": "role",
          "type": "bytes32"
        },
        {
          "internalType": "uint256",
          "name": "index",
          "type": "uint256"
        }
      ],
      "name": "getRoleMember",
      "outputs": [
        {
          "internalType": "address",
          "name": "",
          "type": "address"
        }
      ],
      "stateMutability": "view",
      "type": "function"
    },
    {
      "inputs": [
        {
          "internalType": "bytes32",
          "name": "role",
          "type": "bytes32"
        }
      ],
      "name": "getRoleMemberCount",
      "outputs": [
        {
          "internalType": "uint256",
          "name": "",
          "type": "uint256"
        }
      ],
      "stateMutability": "view",
      "type": "function"
    },
    {
      "inputs": [
        {
          "internalType": "bytes32",
          "name": "role",
          "type": "bytes32"
        },
        {
          "internalType": "address",
          "name": "account",
          "type": "address"
        }
      ],
      "name": "grantRole",
      "outputs": [],
      "stateMutability": "nonpayable",
      "type": "function"
    },
    {
      "inputs": [
        {
          "internalType": "bytes32",
          "name": "role",
          "type": "bytes32"
        },
        {
          "internalType": "address",
          "name": "account",
          "type": "address"
        }
      ],
      "name": "hasRole",
      "outputs": [
        {
          "internalType": "bool",
          "name": "",
          "type": "bool"
        }
      ],
      "stateMutability": "view",
      "type": "function"
    },
    {
      "inputs": [],
      "name": "name",
      "outputs": [
        {
          "internalType": "bytes32",
          "name": "",
          "type": "bytes32"
        }
      ],
      "stateMutability": "view",
      "type": "function"
    },
    {
      "inputs": [],
      "name": "owner",
      "outputs": [
        {
          "internalType": "address",
          "name": "",
          "type": "address"
        }
      ],
      "stateMutability": "view",
      "type": "function"
    },
    {
      "inputs": [],
      "name": "renounceOwnership",
      "outputs": [],
      "stateMutability": "nonpayable",
      "type": "function"
    },
    {
      "inputs": [
        {
          "internalType": "bytes32",
          "name": "role",
          "type": "bytes32"
        },
        {
          "internalType": "address",
          "name": "account",
          "type": "address"
        }
      ],
      "name": "renounceRole",
      "outputs": [],
      "stateMutability": "nonpayable",
      "type": "function"
    },
    {
      "inputs": [
        {
          "internalType": "bytes32",
          "name": "role",
          "type": "bytes32"
        },
        {
          "internalType": "address",
          "name": "account",
          "type": "address"
        }
      ],
      "name": "revokeRole",
      "outputs": [],
      "stateMutability": "nonpayable",
      "type": "function"
    },
    {
      "inputs": [
        {
          "internalType": "address",
          "name": "newOwner",
          "type": "address"
        }
      ],
      "name": "transferOwnership",
      "outputs": [],
      "stateMutability": "nonpayable",
      "type": "function"
    },
    {
      "inputs": [
        {
          "internalType": "bytes32",
          "name": "val",
          "type": "bytes32"
        }
      ],
      "name": "changeName",
      "outputs": [],
      "stateMutability": "nonpayable",
      "type": "function"
    },
    {
      "inputs": [
        {
          "internalType": "uint24",
          "name": "val",
          "type": "uint24"
        }
      ],
      "name": "changeCut",
      "outputs": [],
      "stateMutability": "nonpayable",
      "type": "function"
    },
    {
      "inputs": [
        {
          "internalType": "address",
          "name": "classroom",
          "type": "address"
        }
      ],
      "name": "isValidClassroom",
      "outputs": [
        {
          "internalType": "bool",
          "name": "",
          "type": "bool"
        }
      ],
      "stateMutability": "view",
      "type": "function"
    },
    {
      "inputs": [
        {
          "internalType": "address",
          "name": "student",
          "type": "address"
        }
      ],
      "name": "studentIsRegistered",
      "outputs": [
        {
          "internalType": "bool",
          "name": "",
          "type": "bool"
        }
      ],
      "stateMutability": "view",
      "type": "function"
    },
    {
      "inputs": [
        {
          "internalType": "address",
          "name": "owner",
          "type": "address"
        },
        {
          "internalType": "bytes32",
          "name": "cName",
          "type": "bytes32"
        },
        {
          "internalType": "uint24",
          "name": "cCut",
          "type": "uint24"
        },
        {
          "internalType": "uint24",
          "name": "cPCut",
          "type": "uint24"
        },
        {
          "internalType": "int32",
          "name": "minScore",
          "type": "int32"
        },
        {
          "internalType": "uint256",
          "name": "entryPrice",
          "type": "uint256"
        },
        {
          "internalType": "uint256",
          "name": "duration",
          "type": "uint256"
        },
        {
          "internalType": "address",
          "name": "challengeAddress",
          "type": "address"
        }
      ],
      "name": "newClassRoom",
      "outputs": [],
      "stateMutability": "nonpayable",
      "type": "function"
    },
    {
      "inputs": [
        {
          "internalType": "bytes32",
          "name": "sName",
          "type": "bytes32"
        }
      ],
      "name": "studentSelfRegister",
      "outputs": [],
      "stateMutability": "nonpayable",
      "type": "function"
    },
    {
      "inputs": [
        {
          "internalType": "address",
          "name": "student",
          "type": "address"
        },
        {
          "internalType": "address",
          "name": "application",
          "type": "address"
        }
      ],
      "name": "registerStudentApplication",
      "outputs": [],
      "stateMutability": "nonpayable",
      "type": "function"
    },
    {
      "inputs": [],
      "name": "viewMyApplications",
      "outputs": [
        {
          "internalType": "address[]",
          "name": "",
          "type": "address[]"
        }
      ],
      "stateMutability": "view",
      "type": "function"
    },
    {
      "inputs": [
        {
          "internalType": "address",
          "name": "addr",
          "type": "address"
        }
      ],
      "name": "viewStudentApplications",
      "outputs": [
        {
          "internalType": "address[]",
          "name": "",
          "type": "address[]"
        }
      ],
      "stateMutability": "view",
      "type": "function"
    },
    {
      "inputs": [
        {
          "internalType": "address",
          "name": "applicationAddr",
          "type": "address"
        },
        {
          "internalType": "bytes32",
          "name": "cName",
          "type": "bytes32"
        },
        {
          "internalType": "uint24",
          "name": "cCut",
          "type": "uint24"
        },
        {
          "internalType": "uint24",
          "name": "cPCut",
          "type": "uint24"
        },
        {
          "internalType": "int32",
          "name": "minScore",
          "type": "int32"
        },
        {
          "internalType": "uint256",
          "name": "entryPrice",
          "type": "uint256"
        },
        {
          "internalType": "uint256",
          "name": "duration",
          "type": "uint256"
        },
        {
          "internalType": "address",
          "name": "challenge",
          "type": "address"
        }
      ],
      "name": "studentRequestClassroom",
      "outputs": [],
      "stateMutability": "nonpayable",
      "type": "function"
    },
    {
      "inputs": [
        {
          "internalType": "address",
          "name": "student",
          "type": "address"
        },
        {
          "internalType": "int32",
          "name": "val",
          "type": "int32"
        }
      ],
      "name": "addStudentScore",
      "outputs": [],
      "stateMutability": "nonpayable",
      "type": "function"
    },
    {
      "inputs": [
        {
          "internalType": "address",
          "name": "student",
          "type": "address"
        },
        {
          "internalType": "int32",
          "name": "val",
          "type": "int32"
        }
      ],
      "name": "subStudentScore",
      "outputs": [],
      "stateMutability": "nonpayable",
      "type": "function"
    },
    {
      "inputs": [
        {
          "internalType": "uint256",
          "name": "val",
          "type": "uint256"
        }
      ],
      "name": "applyFunds",
      "outputs": [],
      "stateMutability": "nonpayable",
      "type": "function"
    },
    {
      "inputs": [
        {
          "internalType": "uint256",
          "name": "val",
          "type": "uint256"
        }
      ],
      "name": "recoverFunds",
      "outputs": [],
      "stateMutability": "nonpayable",
      "type": "function"
    },
    {
      "inputs": [
        {
          "internalType": "address",
          "name": "to",
          "type": "address"
        },
        {
          "internalType": "uint256",
          "name": "val",
          "type": "uint256"
        }
      ],
      "name": "spendFunds",
      "outputs": [],
      "stateMutability": "nonpayable",
      "type": "function"
    },
    {
      "inputs": [
        {
          "internalType": "address",
          "name": "to",
          "type": "address"
        },
        {
          "internalType": "uint256",
          "name": "val",
          "type": "uint256"
        }
      ],
      "name": "allowFunds",
      "outputs": [],
      "stateMutability": "nonpayable",
      "type": "function"
    }
  ],
  "bytecode": "0x60806040523480156200001157600080fd5b506040516200e8f23803806200e8f2833981810160405260808110156200003757600080fd5b81019080805190602001909291908051906020019092919080519060200190929190805190602001909291905050506000620000786200030660201b60201c565b9050806000806101000a81548173ffffffffffffffffffffffffffffffffffffffff021916908373ffffffffffffffffffffffffffffffffffffffff1602179055508073ffffffffffffffffffffffffffffffffffffffff16600073ffffffffffffffffffffffffffffffffffffffff167f8be0079c531659141344cd1fd0a4f28419497f9722a3daafe3b4186f6b6457e060405160405180910390a3508360028190555082600360006101000a81548162ffffff021916908362ffffff160217905550600067ffffffffffffffff811180156200015557600080fd5b50604051908082528060200260200182016040528015620001855781602001602082028036833780820191505090505b50600490805190602001906200019d929190620005b2565b50600067ffffffffffffffff81118015620001b757600080fd5b50604051908082528060200260200182016040528015620001e75781602001602082028036833780820191505090505b5060059080519060200190620001ff92919062000641565b50620002246000801b620002186200030660201b60201c565b6200030e60201b60201c565b6200027a60405180807f524541445f53545544454e545f4c4953545f524f4c4500000000000000000000815250601601905060405180910390206200026e6200030660201b60201c565b6200032460201b60201c565b81600960006101000a81548173ffffffffffffffffffffffffffffffffffffffff021916908373ffffffffffffffffffffffffffffffffffffffff16021790555080600860006101000a81548173ffffffffffffffffffffffffffffffffffffffff021916908373ffffffffffffffffffffffffffffffffffffffff160217905550505050506200075c565b600033905090565b620003208282620003c860201b60201c565b5050565b6200035b60016000848152602001908152602001600020600201546200034f6200030660201b60201c565b6200046c60201b60201c565b620003b2576040517f08c379a000000000000000000000000000000000000000000000000000000000815260040180806020018281038252602f8152602001806200e8c3602f913960400191505060405180910390fd5b620003c48282620003c860201b60201c565b5050565b620003f78160016000858152602001908152602001600020600001620004a560201b620031eb1790919060201c565b1562000468576200040d6200030660201b60201c565b73ffffffffffffffffffffffffffffffffffffffff168173ffffffffffffffffffffffffffffffffffffffff16837f2f8788117e7eff1d82e926ec794901d17c78024a50270940304540a733656f0d60405160405180910390a45b5050565b60006200049d8260016000868152602001908152602001600020600001620004dd60201b620031a21790919060201c565b905092915050565b6000620004d5836000018373ffffffffffffffffffffffffffffffffffffffff1660001b6200051560201b60201c565b905092915050565b60006200050d836000018373ffffffffffffffffffffffffffffffffffffffff1660001b6200058f60201b60201c565b905092915050565b60006200052983836200058f60201b60201c565b6200058457826000018290806001815401808255809150506001900390600052602060002001600090919091909150558260000180549050836001016000848152602001908152602001600020819055506001905062000589565b600090505b92915050565b600080836001016000848152602001908152602001600020541415905092915050565b8280548282559060005260206000209081019282156200062e579160200282015b828111156200062d5782518260006101000a81548173ffffffffffffffffffffffffffffffffffffffff021916908373ffffffffffffffffffffffffffffffffffffffff16021790555091602001919060010190620005d3565b5b5090506200063d9190620006d0565b5090565b828054828255906000526020600020908101928215620006bd579160200282015b82811115620006bc5782518260006101000a81548173ffffffffffffffffffffffffffffffffffffffff021916908373ffffffffffffffffffffffffffffffffffffffff1602179055509160200191906001019062000662565b5b509050620006cc919062000716565b5090565b6200071391905b808211156200070f57600081816101000a81549073ffffffffffffffffffffffffffffffffffffffff021916905550600101620006d7565b5090565b90565b6200075991905b808211156200075557600081816101000a81549073ffffffffffffffffffffffffffffffffffffffff0219169055506001016200071d565b5090565b90565b61e157806200076c6000396000f3fe60806040523480156200001157600080fd5b5060043610620002685760003560e01c8063898855ed116200014d578063c4707a8311620000c9578063e6fd604c1162000087578063e6fd604c1462000c51578063e770d7d41462000c7b578063f2fde38b1462000cb1578063f7be43fb1462000cf8578063ff5d8f631462000d185762000268565b8063c4707a831462000a8c578063ca15c8731462000aac578063d3c5704e1462000af1578063d547741f1462000b8f578063e37dd9801462000be05762000268565b80639fd6cb7a11620001175780639fd6cb7a146200097e578063a217fddf146200099e578063be22f54614620009be578063c204a0e01462000a0a578063c419f4321462000a3b5762000268565b8063898855ed146200081d5780638da5cb5b146200084e5780639010d07c146200089a57806391d1485414620009155762000268565b80635070ad9511620001e9578063715018a611620001a7578063715018a6146200068d5780637fd5c1081462000699578063820cd75c146200074a57806385dade61146200076a57806387bfe18814620007c95762000268565b80635070ad95146200053c5780635a7dd150146200058d5780636408a38614620005be57806364d47731146200062157806369e527da14620006415762000268565b80632f2ff15d11620002375780632f2ff15d146200039857806336568abe14620003e95780634ab358c7146200043a5780634cd77d45146200046b5780634ea962c1146200048b5762000268565b806306fdde03146200026d57806316ded1ce146200028d578063183b260014620002ec578063248a9ca31462000353575b600080fd5b6200027762000d6c565b6040518082815260200191505060405180910390f35b620002d260048036036020811015620002a557600080fd5b81019080803573ffffffffffffffffffffffffffffffffffffffff16906020019092919050505062000d72565b604051808215151515815260200191505060405180910390f35b62000351600480360360408110156200030457600080fd5b81019080803573ffffffffffffffffffffffffffffffffffffffff169060200190929190803573ffffffffffffffffffffffffffffffffffffffff16906020019092919050505062000e5d565b005b62000382600480360360208110156200036b57600080fd5b810190808035906020019092919050505062000fa2565b6040518082815260200191505060405180910390f35b620003e760048036036040811015620003b057600080fd5b8101908080359060200190929190803573ffffffffffffffffffffffffffffffffffffffff16906020019092919050505062000fc2565b005b62000438600480360360408110156200040157600080fd5b8101908080359060200190929190803573ffffffffffffffffffffffffffffffffffffffff16906020019092919050505062001054565b005b62000469600480360360208110156200045257600080fd5b8101908080359060200190929190505050620010f3565b005b620004756200124b565b6040518082815260200191505060405180910390f35b6200053a6004803603610100811015620004a457600080fd5b81019080803573ffffffffffffffffffffffffffffffffffffffff16906020019092919080359060200190929190803562ffffff169060200190929190803562ffffff169060200190929190803560030b90602001909291908035906020019092919080359060200190929190803573ffffffffffffffffffffffffffffffffffffffff16906020019092919050505062001284565b005b6200058b600480360360408110156200055457600080fd5b81019080803573ffffffffffffffffffffffffffffffffffffffff1690602001909291908035906020019092919050505062001341565b005b620005bc60048036036020811015620005a557600080fd5b8101908080359060200190929190505050620014ce565b005b620005c86200158c565b6040518080602001828103825283818151815260200191508051906020019060200280838360005b838110156200060d578082015181840152602081019050620005f0565b505050509050019250505060405180910390f35b6200062b620015a7565b6040518082815260200191505060405180910390f35b6200064b620015e0565b604051808273ffffffffffffffffffffffffffffffffffffffff1673ffffffffffffffffffffffffffffffffffffffff16815260200191505060405180910390f35b6200069762001606565b005b620007486004803603610100811015620006b257600080fd5b81019080803573ffffffffffffffffffffffffffffffffffffffff16906020019092919080359060200190929190803562ffffff169060200190929190803562ffffff169060200190929190803560030b90602001909291908035906020019092919080359060200190929190803573ffffffffffffffffffffffffffffffffffffffff16906020019092919050505062001791565b005b6200075462001a2a565b6040518082815260200191505060405180910390f35b620007af600480360360208110156200078257600080fd5b81019080803573ffffffffffffffffffffffffffffffffffffffff16906020019092919050505062001a63565b604051808215151515815260200191505060405180910390f35b6200081b60048036036040811015620007e157600080fd5b81019080803573ffffffffffffffffffffffffffffffffffffffff169060200190929190803560030b906020019092919050505062001aad565b005b6200084c600480360360208110156200083557600080fd5b810190808035906020019092919050505062001bc5565b005b6200085862001cd4565b604051808273ffffffffffffffffffffffffffffffffffffffff1673ffffffffffffffffffffffffffffffffffffffff16815260200191505060405180910390f35b620008d360048036036040811015620008b257600080fd5b81019080803590602001909291908035906020019092919050505062001cfd565b604051808273ffffffffffffffffffffffffffffffffffffffff1673ffffffffffffffffffffffffffffffffffffffff16815260200191505060405180910390f35b62000964600480360360408110156200092d57600080fd5b8101908080359060200190929190803573ffffffffffffffffffffffffffffffffffffffff16906020019092919050505062001d31565b604051808215151515815260200191505060405180910390f35b6200098862001d65565b6040518082815260200191505060405180910390f35b620009a862001d9e565b6040518082815260200191505060405180910390f35b620009c862001da5565b604051808273ffffffffffffffffffffffffffffffffffffffff1673ffffffffffffffffffffffffffffffffffffffff16815260200191505060405180910390f35b62000a396004803603602081101562000a2257600080fd5b810190808035906020019092919050505062001dcb565b005b62000a8a6004803603604081101562000a5357600080fd5b81019080803573ffffffffffffffffffffffffffffffffffffffff169060200190929190803590602001909291905050506200202d565b005b62000a96620021ba565b6040518082815260200191505060405180910390f35b62000adb6004803603602081101562000ac457600080fd5b8101908080359060200190929190505050620021f3565b6040518082815260200191505060405180910390f35b62000b366004803603602081101562000b0957600080fd5b81019080803573ffffffffffffffffffffffffffffffffffffffff1690602001909291905050506200221c565b6040518080602001828103825283818151815260200191508051906020019060200280838360005b8381101562000b7b57808201518184015260208101905062000b5e565b505050509050019250505060405180910390f35b62000bde6004803603604081101562000ba757600080fd5b8101908080359060200190929190803573ffffffffffffffffffffffffffffffffffffffff169060200190929190505050620023cc565b005b62000c0f6004803603602081101562000bf857600080fd5b81019080803590602001909291905050506200245e565b604051808273ffffffffffffffffffffffffffffffffffffffff1673ffffffffffffffffffffffffffffffffffffffff16815260200191505060405180910390f35b62000c5b6200249b565b604051808262ffffff1662ffffff16815260200191505060405180910390f35b62000caf6004803603602081101562000c9357600080fd5b81019080803562ffffff169060200190929190505050620024b0565b005b62000cf66004803603602081101562000cc957600080fd5b81019080803573ffffffffffffffffffffffffffffffffffffffff169060200190929190505050620025f0565b005b62000d0262002802565b6040518082815260200191505060405180910390f35b62000d6a6004803603604081101562000d3057600080fd5b81019080803573ffffffffffffffffffffffffffffffffffffffff169060200190929190803560030b90602001909291905050506200283b565b005b60025481565b600062000dbe60405180807f524541445f53545544454e545f4c4953545f524f4c45000000000000000000008152506016019050604051809103902062000db862002953565b62001d31565b62000e15576040517f08c379a00000000000000000000000000000000000000000000000000000000081526004018080602001828103825260368152602001806200df026036913960400191505060405180910390fd5b62000e5660405180807f53545544454e545f524f4c450000000000000000000000000000000000000000815250600c01905060405180910390208362001d31565b9050919050565b62000ea760405180807f434c415353524f4f4d5f524f4c45000000000000000000000000000000000000815250600e019050604051809103902062000ea162002953565b62001d31565b62000efe576040517f08c379a000000000000000000000000000000000000000000000000000000000815260040180806020018281038252602e8152602001806200e0c5602e913960400191505060405180910390fd5b600660008373ffffffffffffffffffffffffffffffffffffffff1673ffffffffffffffffffffffffffffffffffffffff168152602001908152602001600020819080600181540180825580915050600190039060005260206000200160009091909190916101000a81548173ffffffffffffffffffffffffffffffffffffffff021916908373ffffffffffffffffffffffffffffffffffffffff1602179055505050565b600060016000838152602001908152602001600020600201549050919050565b62000fed600160008481526020019081526020016000206002015462000fe762002953565b62001d31565b62001044576040517f08c379a000000000000000000000000000000000000000000000000000000000815260040180806020018281038252602f8152602001806200ded3602f913960400191505060405180910390fd5b6200105082826200295b565b5050565b6200105e62002953565b73ffffffffffffffffffffffffffffffffffffffff168173ffffffffffffffffffffffffffffffffffffffff1614620010e3576040517f08c379a000000000000000000000000000000000000000000000000000000000815260040180806020018281038252602f8152602001806200e0f3602f913960400191505060405180910390fd5b620010ef8282620029f4565b5050565b6200113d60405180807f46554e44535f4d414e414745525f524f4c450000000000000000000000000000815250601201905060405180910390206200113762002953565b62001d31565b62001194576040517f08c379a00000000000000000000000000000000000000000000000000000000081526004018080602001828103825260328152602001806200df5e6032913960400191505060405180910390fd5b600860009054906101000a900473ffffffffffffffffffffffffffffffffffffffff1673ffffffffffffffffffffffffffffffffffffffff1663852a12e3826040518263ffffffff1660e01b815260040180828152602001915050602060405180830381600087803b1580156200120a57600080fd5b505af11580156200121f573d6000803e3d6000fd5b505050506040513d60208110156200123657600080fd5b81019080805190602001909291905050505050565b60405180807f434c415353524f4f4d5f524f4c45000000000000000000000000000000000000815250600e019050604051809103902081565b620012ce60405180807f434c4153534c4953545f41444d494e5f524f4c4500000000000000000000000081525060140190506040518091039020620012c862002953565b62001d31565b62001325576040517f08c379a00000000000000000000000000000000000000000000000000000000081526004018080602001828103825260348152602001806200dfeb6034913960400191505060405180910390fd5b62001337888888888888888862002a8d565b5050505050505050565b6200138b60405180807f46554e44535f4d414e414745525f524f4c450000000000000000000000000000815250601201905060405180910390206200138562002953565b62001d31565b620013e2576040517f08c379a00000000000000000000000000000000000000000000000000000000081526004018080602001828103825260328152602001806200df5e6032913960400191505060405180910390fd5b600960009054906101000a900473ffffffffffffffffffffffffffffffffffffffff1673ffffffffffffffffffffffffffffffffffffffff1663a9059cbb83836040518363ffffffff1660e01b8152600401808373ffffffffffffffffffffffffffffffffffffffff1673ffffffffffffffffffffffffffffffffffffffff16815260200182815260200192505050602060405180830381600087803b1580156200148c57600080fd5b505af1158015620014a1573d6000803e3d6000fd5b505050506040513d6020811015620014b857600080fd5b8101908080519060200190929190505050505050565b600060066000620014de62002953565b73ffffffffffffffffffffffffffffffffffffffff1673ffffffffffffffffffffffffffffffffffffffff168152602001908152602001600020805490501462001574576040517f08c379a00000000000000000000000000000000000000000000000000000000081526004018080602001828103825260268152602001806200df906026913960400191505060405180910390fd5b62001589816200158362002953565b62002e12565b50565b6060620015a26200159c62002953565b6200221c565b905090565b60405180807f4752414e54535f4d414e414745525f524f4c45000000000000000000000000008152506013019050604051809103902081565b600860009054906101000a900473ffffffffffffffffffffffffffffffffffffffff1681565b6200161062002953565b73ffffffffffffffffffffffffffffffffffffffff166000809054906101000a900473ffffffffffffffffffffffffffffffffffffffff1673ffffffffffffffffffffffffffffffffffffffff1614620016d2576040517f08c379a00000000000000000000000000000000000000000000000000000000081526004018080602001828103825260208152602001807f4f776e61626c653a2063616c6c6572206973206e6f7420746865206f776e657281525060200191505060405180910390fd5b600073ffffffffffffffffffffffffffffffffffffffff166000809054906101000a900473ffffffffffffffffffffffffffffffffffffffff1673ffffffffffffffffffffffffffffffffffffffff167f8be0079c531659141344cd1fd0a4f28419497f9722a3daafe3b4186f6b6457e060405160405180910390a360008060006101000a81548173ffffffffffffffffffffffffffffffffffffffff021916908373ffffffffffffffffffffffffffffffffffffffff160217905550565b620017db60405180807f53545544454e545f524f4c450000000000000000000000000000000000000000815250600c0190506040518091039020620017d562002953565b62001d31565b62001832576040517f08c379a000000000000000000000000000000000000000000000000000000000815260040180806020018281038252602c8152602001806200e070602c913960400191505060405180910390fd5b60008890506200184c6200184562002953565b8a62003064565b620018a3576040517f08c379a00000000000000000000000000000000000000000000000000000000081526004018080602001828103825260358152602001806200dfb66035913960400191505060405180910390fd5b60038173ffffffffffffffffffffffffffffffffffffffff16636587b61e6040518163ffffffff1660e01b815260040160206040518083038186803b158015620018ec57600080fd5b505afa15801562001901573d6000803e3d6000fd5b505050506040513d60208110156200191857600080fd5b81019080805190602001909291905050501462001981576040517f08c379a00000000000000000000000000000000000000000000000000000000081526004018080602001828103825260298152602001806200e09c6029913960400191505060405180910390fd5b62001a1f6200198f62002953565b73ffffffffffffffffffffffffffffffffffffffff16638da5cb5b6040518163ffffffff1660e01b815260040160206040518083038186803b158015620019d557600080fd5b505afa158015620019ea573d6000803e3d6000fd5b505050506040513d602081101562001a0157600080fd5b81019080805190602001909291905050508989898989898962002a8d565b505050505050505050565b60405180807f434c4153534c4953545f41444d494e5f524f4c450000000000000000000000008152506014019050604051809103902081565b600062001aa660405180807f434c415353524f4f4d5f524f4c45000000000000000000000000000000000000815250600e01905060405180910390208362001d31565b9050919050565b62001af760405180807f434c415353524f4f4d5f524f4c45000000000000000000000000000000000000815250600e019050604051809103902062001af162002953565b62001d31565b62001b4e576040517f08c379a000000000000000000000000000000000000000000000000000000000815260040180806020018281038252602e8152602001806200e0c5602e913960400191505060405180910390fd5b8173ffffffffffffffffffffffffffffffffffffffff1663aa4f38c7826040518263ffffffff1660e01b8152600401808260030b60030b8152602001915050600060405180830381600087803b15801562001ba857600080fd5b505af115801562001bbd573d6000803e3d6000fd5b505050505050565b62001bcf62002953565b73ffffffffffffffffffffffffffffffffffffffff166000809054906101000a900473ffffffffffffffffffffffffffffffffffffffff1673ffffffffffffffffffffffffffffffffffffffff161462001c91576040517f08c379a00000000000000000000000000000000000000000000000000000000081526004018080602001828103825260208152602001807f4f776e61626c653a2063616c6c6572206973206e6f7420746865206f776e657281525060200191505060405180910390fd5b806002819055507f9f8929be552430dd6434c446d106c34954b2040ca8c4dbf42a39323dd6cda3ca6002546040518082815260200191505060405180910390a150565b60008060009054906101000a900473ffffffffffffffffffffffffffffffffffffffff16905090565b600062001d2982600160008681526020019081526020016000206000016200318690919063ffffffff16565b905092915050565b600062001d5d8260016000868152602001908152602001600020600001620031a290919063ffffffff16565b905092915050565b60405180807f524541445f53545544454e545f4c4953545f524f4c45000000000000000000008152506016019050604051809103902081565b6000801b81565b600960009054906101000a900473ffffffffffffffffffffffffffffffffffffffff1681565b62001e1560405180807f46554e44535f4d414e414745525f524f4c4500000000000000000000000000008152506012019050604051809103902062001e0f62002953565b62001d31565b62001e6c576040517f08c379a00000000000000000000000000000000000000000000000000000000081526004018080602001828103825260328152602001806200df5e6032913960400191505060405180910390fd5b600960009054906101000a900473ffffffffffffffffffffffffffffffffffffffff1673ffffffffffffffffffffffffffffffffffffffff1663095ea7b3600860009054906101000a900473ffffffffffffffffffffffffffffffffffffffff16836040518363ffffffff1660e01b8152600401808373ffffffffffffffffffffffffffffffffffffffff1673ffffffffffffffffffffffffffffffffffffffff16815260200182815260200192505050602060405180830381600087803b15801562001f3857600080fd5b505af115801562001f4d573d6000803e3d6000fd5b505050506040513d602081101562001f6457600080fd5b810190808051906020019092919050505050600860009054906101000a900473ffffffffffffffffffffffffffffffffffffffff1673ffffffffffffffffffffffffffffffffffffffff1663a0712d68826040518263ffffffff1660e01b815260040180828152602001915050602060405180830381600087803b15801562001fec57600080fd5b505af115801562002001573d6000803e3d6000fd5b505050506040513d60208110156200201857600080fd5b81019080805190602001909291905050505050565b6200207760405180807f46554e44535f4d414e414745525f524f4c450000000000000000000000000000815250601201905060405180910390206200207162002953565b62001d31565b620020ce576040517f08c379a00000000000000000000000000000000000000000000000000000000081526004018080602001828103825260328152602001806200df5e6032913960400191505060405180910390fd5b600960009054906101000a900473ffffffffffffffffffffffffffffffffffffffff1673ffffffffffffffffffffffffffffffffffffffff1663095ea7b383836040518363ffffffff1660e01b8152600401808373ffffffffffffffffffffffffffffffffffffffff1673ffffffffffffffffffffffffffffffffffffffff16815260200182815260200192505050602060405180830381600087803b1580156200217857600080fd5b505af11580156200218d573d6000803e3d6000fd5b505050506040513d6020811015620021a457600080fd5b8101908080519060200190929190505050505050565b60405180807f46554e44535f4d414e414745525f524f4c4500000000000000000000000000008152506012019050604051809103902081565b60006200221560016000848152602001908152602001600020600001620031d4565b9050919050565b60606200222862002953565b73ffffffffffffffffffffffffffffffffffffffff168273ffffffffffffffffffffffffffffffffffffffff161480620022a85750620022a760405180807f4752414e54535f4d414e414745525f524f4c450000000000000000000000000081525060130190506040518091039020620022a162002953565b62001d31565b5b620022ff576040517f08c379a00000000000000000000000000000000000000000000000000000000081526004018080602001828103825260218152602001806200e01f6021913960400191505060405180910390fd5b600660008373ffffffffffffffffffffffffffffffffffffffff1673ffffffffffffffffffffffffffffffffffffffff168152602001908152602001600020805480602002602001604051908101604052809291908181526020018280548015620023c057602002820191906000526020600020905b8160009054906101000a900473ffffffffffffffffffffffffffffffffffffffff1673ffffffffffffffffffffffffffffffffffffffff168152602001906001019080831162002375575b50505050509050919050565b620023f76001600084815260200190815260200160002060020154620023f162002953565b62001d31565b6200244e576040517f08c379a00000000000000000000000000000000000000000000000000000000081526004018080602001828103825260308152602001806200e0406030913960400191505060405180910390fd5b6200245a8282620029f4565b5050565b600481815481106200246c57fe5b906000526020600020016000915054906101000a900473ffffffffffffffffffffffffffffffffffffffff1681565b600360009054906101000a900462ffffff1681565b620024ba62002953565b73ffffffffffffffffffffffffffffffffffffffff166000809054906101000a900473ffffffffffffffffffffffffffffffffffffffff1673ffffffffffffffffffffffffffffffffffffffff16146200257c576040517f08c379a00000000000000000000000000000000000000000000000000000000081526004018080602001828103825260208152602001807f4f776e61626c653a2063616c6c6572206973206e6f7420746865206f776e657281525060200191505060405180910390fd5b80600360006101000a81548162ffffff021916908362ffffff1602179055507f1add5f7de244142e10bca375bb84823e3c24ddac2c2ec678f35c007d8f02084d600360009054906101000a900462ffffff16604051808262ffffff1662ffffff16815260200191505060405180910390a150565b620025fa62002953565b73ffffffffffffffffffffffffffffffffffffffff166000809054906101000a900473ffffffffffffffffffffffffffffffffffffffff1673ffffffffffffffffffffffffffffffffffffffff1614620026bc576040517f08c379a00000000000000000000000000000000000000000000000000000000081526004018080602001828103825260208152602001807f4f776e61626c653a2063616c6c6572206973206e6f7420746865206f776e657281525060200191505060405180910390fd5b600073ffffffffffffffffffffffffffffffffffffffff168173ffffffffffffffffffffffffffffffffffffffff16141562002744576040517f08c379a00000000000000000000000000000000000000000000000000000000081526004018080602001828103825260268152602001806200df386026913960400191505060405180910390fd5b8073ffffffffffffffffffffffffffffffffffffffff166000809054906101000a900473ffffffffffffffffffffffffffffffffffffffff1673ffffffffffffffffffffffffffffffffffffffff167f8be0079c531659141344cd1fd0a4f28419497f9722a3daafe3b4186f6b6457e060405160405180910390a3806000806101000a81548173ffffffffffffffffffffffffffffffffffffffff021916908373ffffffffffffffffffffffffffffffffffffffff16021790555050565b60405180807f53545544454e545f524f4c450000000000000000000000000000000000000000815250600c019050604051809103902081565b6200288560405180807f434c415353524f4f4d5f524f4c45000000000000000000000000000000000000815250600e01905060405180910390206200287f62002953565b62001d31565b620028dc576040517f08c379a000000000000000000000000000000000000000000000000000000000815260040180806020018281038252602e8152602001806200e0c5602e913960400191505060405180910390fd5b8173ffffffffffffffffffffffffffffffffffffffff166368651350826040518263ffffffff1660e01b8152600401808260030b60030b8152602001915050600060405180830381600087803b1580156200293657600080fd5b505af11580156200294b573d6000803e3d6000fd5b505050505050565b600033905090565b620029858160016000858152602001908152602001600020600001620031eb90919063ffffffff16565b15620029f0576200299562002953565b73ffffffffffffffffffffffffffffffffffffffff168173ffffffffffffffffffffffffffffffffffffffff16837f2f8788117e7eff1d82e926ec794901d17c78024a50270940304540a733656f0d60405160405180910390a45b5050565b62002a1e81600160008581526020019081526020016000206000016200321d90919063ffffffff16565b1562002a895762002a2e62002953565b73ffffffffffffffffffffffffffffffffffffffff168173ffffffffffffffffffffffffffffffffffffffff16837ff6391f5c32d9c69d2a47ea670b442974b53935d1edc7fd64eb21e047a839171b60405160405180910390a45b5050565b600087878787878730600960009054906101000a900473ffffffffffffffffffffffffffffffffffffffff16600860009054906101000a900473ffffffffffffffffffffffffffffffffffffffff168a60405162002aeb906200346a565b808b81526020018a62ffffff1662ffffff1681526020018962ffffff1662ffffff1681526020018860030b60030b81526020018781526020018681526020018573ffffffffffffffffffffffffffffffffffffffff1673ffffffffffffffffffffffffffffffffffffffff1681526020018473ffffffffffffffffffffffffffffffffffffffff1673ffffffffffffffffffffffffffffffffffffffff1681526020018373ffffffffffffffffffffffffffffffffffffffff1673ffffffffffffffffffffffffffffffffffffffff1681526020018273ffffffffffffffffffffffffffffffffffffffff1673ffffffffffffffffffffffffffffffffffffffff1681526020019a5050505050505050505050604051809103906000f08015801562002c1b573d6000803e3d6000fd5b5090508073ffffffffffffffffffffffffffffffffffffffff1663f2fde38b8a6040518263ffffffff1660e01b8152600401808273ffffffffffffffffffffffffffffffffffffffff1673ffffffffffffffffffffffffffffffffffffffff168152602001915050600060405180830381600087803b15801562002c9e57600080fd5b505af115801562002cb3573d6000803e3d6000fd5b505050506004819080600181540180825580915050600190039060005260206000200160009091909190916101000a81548173ffffffffffffffffffffffffffffffffffffffff021916908373ffffffffffffffffffffffffffffffffffffffff16021790555062002d5b60405180807f524541445f53545544454e545f4c4953545f524f4c4500000000000000000000815250601601905060405180910390208262000fc2565b62002d9c60405180807f434c415353524f4f4d5f524f4c45000000000000000000000000000000000000815250600e01905060405180910390208262000fc2565b7f0e2441b756c0237af490768eeb52214bde66464d79756f8ac3c03b10c9528b3c8882604051808381526020018273ffffffffffffffffffffffffffffffffffffffff1673ffffffffffffffffffffffffffffffffffffffff1681526020019250505060405180910390a1505050505050505050565b600660008273ffffffffffffffffffffffffffffffffffffffff1673ffffffffffffffffffffffffffffffffffffffff16815260200190815260200160002060009080600181540180825580915050600190039060005260206000200160009091909190916101000a81548173ffffffffffffffffffffffffffffffffffffffff021916908373ffffffffffffffffffffffffffffffffffffffff1602179055506000823060405162002ec59062003478565b808381526020018273ffffffffffffffffffffffffffffffffffffffff1673ffffffffffffffffffffffffffffffffffffffff16815260200192505050604051809103906000f08015801562002f1f573d6000803e3d6000fd5b5090508073ffffffffffffffffffffffffffffffffffffffff1663f2fde38b836040518263ffffffff1660e01b8152600401808273ffffffffffffffffffffffffffffffffffffffff1673ffffffffffffffffffffffffffffffffffffffff168152602001915050600060405180830381600087803b15801562002fa257600080fd5b505af115801562002fb7573d6000803e3d6000fd5b505050506005819080600181540180825580915050600190039060005260206000200160009091909190916101000a81548173ffffffffffffffffffffffffffffffffffffffff021916908373ffffffffffffffffffffffffffffffffffffffff1602179055506200305f60405180807f53545544454e545f524f4c450000000000000000000000000000000000000000815250600c01905060405180910390208262000fc2565b505050565b600080600090505b600660008573ffffffffffffffffffffffffffffffffffffffff1673ffffffffffffffffffffffffffffffffffffffff168152602001908152602001600020805490508110156200317a578273ffffffffffffffffffffffffffffffffffffffff16600660008673ffffffffffffffffffffffffffffffffffffffff1673ffffffffffffffffffffffffffffffffffffffff16815260200190815260200160002082815481106200311957fe5b9060005260206000200160009054906101000a900473ffffffffffffffffffffffffffffffffffffffff1673ffffffffffffffffffffffffffffffffffffffff1614156200316c57600191505062003180565b80806001019150506200306c565b50600090505b92915050565b60006200319783600001836200324f565b60001c905092915050565b6000620031cc836000018373ffffffffffffffffffffffffffffffffffffffff1660001b620032d5565b905092915050565b6000620031e482600001620032f8565b9050919050565b600062003215836000018373ffffffffffffffffffffffffffffffffffffffff1660001b62003309565b905092915050565b600062003247836000018373ffffffffffffffffffffffffffffffffffffffff1660001b6200337d565b905092915050565b600081836000018054905011620032b2576040517f08c379a00000000000000000000000000000000000000000000000000000000081526004018080602001828103825260228152602001806200deb16022913960400191505060405180910390fd5b826000018281548110620032c257fe5b9060005260206000200154905092915050565b600080836001016000848152602001908152602001600020541415905092915050565b600081600001805490509050919050565b6000620033178383620032d5565b6200337257826000018290806001815401808255809150506001900390600052602060002001600090919091909150558260000180549050836001016000848152602001908152602001600020819055506001905062003377565b600090505b92915050565b600080836001016000848152602001908152602001600020549050600081146200345e5760006001820390506000600186600001805490500390506000866000018281548110620033ca57fe5b9060005260206000200154905080876000018481548110620033e857fe5b90600052602060002001819055506001830187600101600083815260200190815260200160002081905550866000018054806200342157fe5b6001900381819060005260206000200160009055905586600101600087815260200190815260200160002060009055600194505050505062003464565b60009150505b92915050565b617c2f806200348783390190565b612dfb806200b0b68339019056fe60806040523480156200001157600080fd5b5060405162007c2f38038062007c2f83398181016040526101408110156200003857600080fd5b81019080805190602001909291908051906020019092919080519060200190929190805190602001909291908051906020019092919080519060200190929190805190602001909291908051906020019092919080519060200190929190805190602001909291905050506000620000b56200032a60201b60201c565b9050806000806101000a81548173ffffffffffffffffffffffffffffffffffffffff021916908373ffffffffffffffffffffffffffffffffffffffff1602179055508073ffffffffffffffffffffffffffffffffffffffff16600073ffffffffffffffffffffffffffffffffffffffff167f8be0079c531659141344cd1fd0a4f28419497f9722a3daafe3b4186f6b6457e060405160405180910390a3508960098190555088600a60006101000a81548162ffffff021916908362ffffff16021790555087600a60036101000a81548162ffffff021916908362ffffff16021790555086600a60066101000a81548163ffffffff021916908360030b63ffffffff16021790555085600b8190555084600c8190555083600160006101000a81548173ffffffffffffffffffffffffffffffffffffffff021916908373ffffffffffffffffffffffffffffffffffffffff1602179055506000600160146101000a81548160ff0219169083151502179055506000601060146101000a81548160ff02191690831515021790555082600e60006101000a81548173ffffffffffffffffffffffffffffffffffffffff021916908373ffffffffffffffffffffffffffffffffffffffff16021790555081600f60006101000a81548173ffffffffffffffffffffffffffffffffffffffff021916908373ffffffffffffffffffffffffffffffffffffffff16021790555080601060006101000a81548173ffffffffffffffffffffffffffffffffffffffff021916908373ffffffffffffffffffffffffffffffffffffffff160217905550620003146200033260201b60201c565b600d81905550505050505050505050506200035a565b600033905090565b60007f52414e444f4d0000000000000000000000000000000000000000000000000000905090565b6178c5806200036a6000396000f3fe60806040523480156200001157600080fd5b5060043610620002685760003560e01c80638155e977116200014d578063ae12894e11620000c9578063e804f1641162000087578063e804f164146200086f578063f2fde38b14620008a5578063f745adfc14620008ec578063fc48258d146200090c578063fe7da9e9146200092c5762000268565b8063ae12894e1462000737578063b594f0861462000783578063bbe3b92614620007b4578063be22f54614620007c0578063dfd78adc146200080c5762000268565b8063a3f73c2d1162000117578063a3f73c2d1462000690578063a46268a814620006d7578063aa055a4014620006fb578063ada02e191462000707578063adf45ef214620007135762000268565b80638155e97714620005b35780638646bcec14620005e9578063898855ed14620006135780638da5cb5b14620006445762000268565b80634c5e789311620001e957806369e7af4311620001a757806369e7af4314620004655780636e8055a714620004c8578063715018a6146200051457806376eada9114620005205780637c0260cb14620005a75762000268565b80634c5e7893146200038b5780634ffb660c14620003975780635aa33a2d14620003cb578063604d394314620003ef57806369e527da14620004195762000268565b806313c2bedc116200023757806313c2bedc146200031d5780631b9dbc60146200034357806331960027146200034f5780633bcd97d4146200035b578063431a16ef146200037f5762000268565b806306fdde03146200026d57806309ea165d146200028d5780630b78cb0e14620002d95780630fb5a6b414620002fd575b600080fd5b620002776200095d565b6040518082815260200191505060405180910390f35b6200029762000963565b604051808273ffffffffffffffffffffffffffffffffffffffff1673ffffffffffffffffffffffffffffffffffffffff16815260200191505060405180910390f35b620002e362000989565b604051808215151515815260200191505060405180910390f35b620003076200099c565b6040518082815260200191505060405180910390f35b62000327620009a2565b604051808260030b60030b815260200191505060405180910390f35b6200034d620009b5565b005b6200035962000d85565b005b6200036562000f61565b604051808215151515815260200191505060405180910390f35b6200038962000f89565b005b6200039562001186565b005b620003c960048036036020811015620003af57600080fd5b81019080803560030b906020019092919050505062001455565b005b620003d562001594565b604051808215151515815260200191505060405180910390f35b620003f9620015a7565b604051808262ffffff1662ffffff16815260200191505060405180910390f35b62000423620015bc565b604051808273ffffffffffffffffffffffffffffffffffffffff1673ffffffffffffffffffffffffffffffffffffffff16815260200191505060405180910390f35b6200046f620015e2565b6040518080602001828103825283818151815260200191508051906020019060200280838360005b83811015620004b457808201518184015260208101905062000497565b505050509050019250505060405180910390f35b620004d26200173e565b604051808273ffffffffffffffffffffffffffffffffffffffff1673ffffffffffffffffffffffffffffffffffffffff16815260200191505060405180910390f35b6200051e62001759565b005b62000565600480360360208110156200053857600080fd5b81019080803573ffffffffffffffffffffffffffffffffffffffff169060200190929190505050620018e4565b604051808273ffffffffffffffffffffffffffffffffffffffff1673ffffffffffffffffffffffffffffffffffffffff16815260200191505060405180910390f35b620005b162001a25565b005b620005e760048036036020811015620005cb57600080fd5b81019080803562ffffff16906020019092919050505062001ba1565b005b620005f362001ce1565b604051808262ffffff1662ffffff16815260200191505060405180910390f35b62000642600480360360208110156200062b57600080fd5b810190808035906020019092919050505062001cf6565b005b6200064e62001e05565b604051808273ffffffffffffffffffffffffffffffffffffffff1673ffffffffffffffffffffffffffffffffffffffff16815260200191505060405180910390f35b620006d560048036036020811015620006a857600080fd5b81019080803573ffffffffffffffffffffffffffffffffffffffff16906020019092919050505062001e2e565b005b620006e162002024565b604051808215151515815260200191505060405180910390f35b6200070562002037565b005b6200071162002314565b005b6200071d62002693565b604051808215151515815260200191505060405180910390f35b62000741620026a2565b604051808273ffffffffffffffffffffffffffffffffffffffff1673ffffffffffffffffffffffffffffffffffffffff16815260200191505060405180910390f35b620007b2600480360360208110156200079b57600080fd5b8101908080359060200190929190505050620026c8565b005b620007be620027d7565b005b620007ca62002b64565b604051808273ffffffffffffffffffffffffffffffffffffffff1673ffffffffffffffffffffffffffffffffffffffff16815260200191505060405180910390f35b6200081662002b8a565b6040518080602001828103825283818151815260200191508051906020019060200280838360005b838110156200085b5780820151818401526020810190506200083e565b505050509050019250505060405180910390f35b620008a3600480360360208110156200088757600080fd5b81019080803562ffffff16906020019092919050505062002ce6565b005b620008ea60048036036020811015620008bd57600080fd5b81019080803573ffffffffffffffffffffffffffffffffffffffff16906020019092919050505062002e26565b005b620008f662003038565b6040518082815260200191505060405180910390f35b620009166200303e565b6040518082815260200191505060405180910390f35b6200095b600480360360208110156200094457600080fd5b810190808035906020019092919050505062003114565b005b60095481565b601060009054906101000a900473ffffffffffffffffffffffffffffffffffffffff1681565b600160149054906101000a900460ff1681565b600c5481565b600a60069054906101000a900460030b81565b620009bf62001e05565b73ffffffffffffffffffffffffffffffffffffffff16620009df62003223565b73ffffffffffffffffffffffffffffffffffffffff16141562000a4e576040517f08c379a000000000000000000000000000000000000000000000000000000000815260040180806020018281038252602d81526020018062007756602d913960400191505060405180910390fd5b600160009054906101000a900473ffffffffffffffffffffffffffffffffffffffff1673ffffffffffffffffffffffffffffffffffffffff166316ded1ce62000a9662003223565b6040518263ffffffff1660e01b8152600401808273ffffffffffffffffffffffffffffffffffffffff1673ffffffffffffffffffffffffffffffffffffffff16815260200191505060206040518083038186803b15801562000af757600080fd5b505afa15801562000b0c573d6000803e3d6000fd5b505050506040513d602081101562000b2357600080fd5b810190808051906020019092919050505062000b8b576040517f08c379a0000000000000000000000000000000000000000000000000000000008152600401808060200182810382526024815260200180620078426024913960400191505060405180910390fd5b600160149054906101000a900460ff1662000c0e576040517f08c379a000000000000000000000000000000000000000000000000000000000815260040180806020018281038252601e8152602001807f436c617373726f6f6d3a206170706c69636174696f6e7320636c6f736564000081525060200191505060405180910390fd5b600062000c1a62003223565b9050600a60069054906101000a900460030b60030b8173ffffffffffffffffffffffffffffffffffffffff1663efedc6696040518163ffffffff1660e01b815260040160206040518083038186803b15801562000c7657600080fd5b505afa15801562000c8b573d6000803e3d6000fd5b505050506040513d602081101562000ca257600080fd5b810190808051906020019092919050505060030b121562000d0f576040517f08c379a000000000000000000000000000000000000000000000000000000000815260040180806020018281038252602c8152602001806200769e602c913960400191505060405180910390fd5b600062000d1c826200322b565b90506002819080600181540180825580915050600190039060005260206000200160009091909190916101000a81548173ffffffffffffffffffffffffffffffffffffffff021916908373ffffffffffffffffffffffffffffffffffffffff1602179055505050565b62000d8f62003223565b73ffffffffffffffffffffffffffffffffffffffff166000809054906101000a900473ffffffffffffffffffffffffffffffffffffffff1673ffffffffffffffffffffffffffffffffffffffff161462000e51576040517f08c379a00000000000000000000000000000000000000000000000000000000081526004018080602001828103825260208152602001807f4f776e61626c653a2063616c6c6572206973206e6f7420746865206f776e657281525060200191505060405180910390fd5b600160149054906101000a900460ff161562000eb9576040517f08c379a000000000000000000000000000000000000000000000000000000000815260040180806020018281038252602a81526020018062007866602a913960400191505060405180910390fd5b60006002805490501462000f19576040517f08c379a0000000000000000000000000000000000000000000000000000000008152600401808060200182810382526022815260200180620077346022913960400191505060405180910390fd5b60018060146101000a81548160ff0219169083151502179055507fa5d188159e8a15dc503f9fde55e9da14c8b2ca589603e2567481c0ef90b7972060405160405180910390a1565b60008062000f83600380549050600280549050620035b990919063ffffffff16565b14905090565b62000f9362003223565b73ffffffffffffffffffffffffffffffffffffffff166000809054906101000a900473ffffffffffffffffffffffffffffffffffffffff1673ffffffffffffffffffffffffffffffffffffffff161462001055576040517f08c379a00000000000000000000000000000000000000000000000000000000081526004018080602001828103825260208152602001807f4f776e61626c653a2063616c6c6572206973206e6f7420746865206f776e657281525060200191505060405180910390fd5b426007541115620010b2576040517f08c379a0000000000000000000000000000000000000000000000000000000008152600401808060200182810382526024815260200180620077a46024913960400191505060405180910390fd5b6000600380549050116200112e576040517f08c379a000000000000000000000000000000000000000000000000000000000815260040180806020018281038252601a8152602001807f436c617373726f6f6d3a206e6f206170706c69636174696f6e7300000000000081525060200191505060405180910390fd5b6200113862003642565b60088190555060018060156101000a81548160ff0219169083151502179055507fadfcc9bbc47b33710f82544eeff8bd0f98c6f78f190e915bd81f4a9dacfdc77760405160405180910390a1565b6200119062003223565b73ffffffffffffffffffffffffffffffffffffffff166000809054906101000a900473ffffffffffffffffffffffffffffffffffffffff1673ffffffffffffffffffffffffffffffffffffffff161462001252576040517f08c379a00000000000000000000000000000000000000000000000000000000081526004018080602001828103825260208152602001807f4f776e61626c653a2063616c6c6572206973206e6f7420746865206f776e657281525060200191505060405180910390fd5b600e60009054906101000a900473ffffffffffffffffffffffffffffffffffffffff1673ffffffffffffffffffffffffffffffffffffffff166323b872dd306200129b62001e05565b600e60009054906101000a900473ffffffffffffffffffffffffffffffffffffffff1673ffffffffffffffffffffffffffffffffffffffff166370a08231306040518263ffffffff1660e01b8152600401808273ffffffffffffffffffffffffffffffffffffffff1673ffffffffffffffffffffffffffffffffffffffff16815260200191505060206040518083038186803b1580156200133b57600080fd5b505afa15801562001350573d6000803e3d6000fd5b505050506040513d60208110156200136757600080fd5b81019080805190602001909291905050506040518463ffffffff1660e01b8152600401808473ffffffffffffffffffffffffffffffffffffffff1673ffffffffffffffffffffffffffffffffffffffff1681526020018373ffffffffffffffffffffffffffffffffffffffff1673ffffffffffffffffffffffffffffffffffffffff1681526020018281526020019350505050602060405180830381600087803b1580156200141557600080fd5b505af11580156200142a573d6000803e3d6000fd5b505050506040513d60208110156200144157600080fd5b810190808051906020019092919050505050565b6200145f62003223565b73ffffffffffffffffffffffffffffffffffffffff166000809054906101000a900473ffffffffffffffffffffffffffffffffffffffff1673ffffffffffffffffffffffffffffffffffffffff161462001521576040517f08c379a00000000000000000000000000000000000000000000000000000000081526004018080602001828103825260208152602001807f4f776e61626c653a2063616c6c6572206973206e6f7420746865206f776e657281525060200191505060405180910390fd5b80600a60066101000a81548163ffffffff021916908360030b63ffffffff1602179055507f258981eaba02423980e2973ff2ae3bbbba3cc807a5b73faf8f0b068dd7b2af64600a60069054906101000a900460030b604051808260030b60030b815260200191505060405180910390a150565b600160159054906101000a900460ff1681565b600a60039054906101000a900462ffffff1681565b600f60009054906101000a900473ffffffffffffffffffffffffffffffffffffffff1681565b6060620015ee62003223565b73ffffffffffffffffffffffffffffffffffffffff166000809054906101000a900473ffffffffffffffffffffffffffffffffffffffff1673ffffffffffffffffffffffffffffffffffffffff1614620016b0576040517f08c379a00000000000000000000000000000000000000000000000000000000081526004018080602001828103825260208152602001807f4f776e61626c653a2063616c6c6572206973206e6f7420746865206f776e657281525060200191505060405180910390fd5b60058054806020026020016040519081016040528092919081815260200182805480156200173457602002820191906000526020600020905b8160009054906101000a900473ffffffffffffffffffffffffffffffffffffffff1673ffffffffffffffffffffffffffffffffffffffff1681526020019060010190808311620016e9575b5050505050905090565b6000620017546200174e62003223565b620018e4565b905090565b6200176362003223565b73ffffffffffffffffffffffffffffffffffffffff166000809054906101000a900473ffffffffffffffffffffffffffffffffffffffff1673ffffffffffffffffffffffffffffffffffffffff161462001825576040517f08c379a00000000000000000000000000000000000000000000000000000000081526004018080602001828103825260208152602001807f4f776e61626c653a2063616c6c6572206973206e6f7420746865206f776e657281525060200191505060405180910390fd5b600073ffffffffffffffffffffffffffffffffffffffff166000809054906101000a900473ffffffffffffffffffffffffffffffffffffffff1673ffffffffffffffffffffffffffffffffffffffff167f8be0079c531659141344cd1fd0a4f28419497f9722a3daafe3b4186f6b6457e060405160405180910390a360008060006101000a81548173ffffffffffffffffffffffffffffffffffffffff021916908373ffffffffffffffffffffffffffffffffffffffff160217905550565b6000620018f062003223565b73ffffffffffffffffffffffffffffffffffffffff168273ffffffffffffffffffffffffffffffffffffffff1614806200196757506200192f62001e05565b73ffffffffffffffffffffffffffffffffffffffff166200194f62003223565b73ffffffffffffffffffffffffffffffffffffffff16145b620019be576040517f08c379a0000000000000000000000000000000000000000000000000000000008152600401808060200182810382526021815260200180620077136021913960400191505060405180910390fd5b600460008373ffffffffffffffffffffffffffffffffffffffff1673ffffffffffffffffffffffffffffffffffffffff16815260200190815260200160002060009054906101000a900473ffffffffffffffffffffffffffffffffffffffff169050919050565b62001a2f62003223565b73ffffffffffffffffffffffffffffffffffffffff166000809054906101000a900473ffffffffffffffffffffffffffffffffffffffff1673ffffffffffffffffffffffffffffffffffffffff161462001af1576040517f08c379a00000000000000000000000000000000000000000000000000000000081526004018080602001828103825260208152602001807f4f776e61626c653a2063616c6c6572206973206e6f7420746865206f776e657281525060200191505060405180910390fd5b600160149054906101000a900460ff1662001b58576040517f08c379a000000000000000000000000000000000000000000000000000000000815260040180806020018281038252602a81526020018062007818602a913960400191505060405180910390fd5b6000600160146101000a81548160ff0219169083151502179055507f747a4734f50e3ae237b3afeeac30a2d2c7cb965cc122fb9680050fd533b7c0f560405160405180910390a1565b62001bab62003223565b73ffffffffffffffffffffffffffffffffffffffff166000809054906101000a900473ffffffffffffffffffffffffffffffffffffffff1673ffffffffffffffffffffffffffffffffffffffff161462001c6d576040517f08c379a00000000000000000000000000000000000000000000000000000000081526004018080602001828103825260208152602001807f4f776e61626c653a2063616c6c6572206973206e6f7420746865206f776e657281525060200191505060405180910390fd5b80600a60006101000a81548162ffffff021916908362ffffff1602179055507fa24cdd22388a51f932026d20d3229c1d693385bb9ac176742e0e40b4586c2447600a60009054906101000a900462ffffff16604051808262ffffff1662ffffff16815260200191505060405180910390a150565b600a60009054906101000a900462ffffff1681565b62001d0062003223565b73ffffffffffffffffffffffffffffffffffffffff166000809054906101000a900473ffffffffffffffffffffffffffffffffffffffff1673ffffffffffffffffffffffffffffffffffffffff161462001dc2576040517f08c379a00000000000000000000000000000000000000000000000000000000081526004018080602001828103825260208152602001807f4f776e61626c653a2063616c6c6572206973206e6f7420746865206f776e657281525060200191505060405180910390fd5b806009819055507f9f8929be552430dd6434c446d106c34954b2040ca8c4dbf42a39323dd6cda3ca6009546040518082815260200191505060405180910390a150565b60008060009054906101000a900473ffffffffffffffffffffffffffffffffffffffff16905090565b62001e3862003223565b73ffffffffffffffffffffffffffffffffffffffff166000809054906101000a900473ffffffffffffffffffffffffffffffffffffffff1673ffffffffffffffffffffffffffffffffffffffff161462001efa576040517f08c379a00000000000000000000000000000000000000000000000000000000081526004018080602001828103825260208152602001807f4f776e61626c653a2063616c6c6572206973206e6f7420746865206f776e657281525060200191505060405180910390fd5b62001f0462000f61565b62001f5b576040517f08c379a0000000000000000000000000000000000000000000000000000000008152600401808060200182810382526025815260200180620076ca6025913960400191505060405180910390fd5b80601060006101000a81548173ffffffffffffffffffffffffffffffffffffffff021916908373ffffffffffffffffffffffffffffffffffffffff1602179055507fdc58b28697ffd1bd5879b16631587874caec982b482d7ed05df69a5302f6e018601060009054906101000a900473ffffffffffffffffffffffffffffffffffffffff16604051808273ffffffffffffffffffffffffffffffffffffffff1673ffffffffffffffffffffffffffffffffffffffff16815260200191505060405180910390a150565b601060149054906101000a900460ff1681565b6200204162003223565b73ffffffffffffffffffffffffffffffffffffffff166000809054906101000a900473ffffffffffffffffffffffffffffffffffffffff1673ffffffffffffffffffffffffffffffffffffffff161462002103576040517f08c379a00000000000000000000000000000000000000000000000000000000081526004018080602001828103825260208152602001807f4f776e61626c653a2063616c6c6572206973206e6f7420746865206f776e657281525060200191505060405180910390fd5b600160159054906101000a900460ff1662002186576040517f08c379a000000000000000000000000000000000000000000000000000000000815260040180806020018281038252601e8152602001807f436c617373726f6f6d3a20636f75727365206e6f742066696e6973686564000081525060200191505060405180910390fd5b600e60009054906101000a900473ffffffffffffffffffffffffffffffffffffffff1673ffffffffffffffffffffffffffffffffffffffff166370a08231306040518263ffffffff1660e01b8152600401808273ffffffffffffffffffffffffffffffffffffffff1673ffffffffffffffffffffffffffffffffffffffff16815260200191505060206040518083038186803b1580156200222657600080fd5b505afa1580156200223b573d6000803e3d6000fd5b505050506040513d60208110156200225257600080fd5b81019080805190602001909291905050506008541115620022bf576040517f08c379a0000000000000000000000000000000000000000000000000000000008152600401808060200182810382526024815260200180620076ef6024913960400191505060405180910390fd5b600080620022cc620037e1565b9150915060006060620022e0848462003a52565b91509150620022ef81620042de565b620022fa8262004457565b6200230462004564565b6200230e62004c60565b50505050565b6200231e62003223565b73ffffffffffffffffffffffffffffffffffffffff166000809054906101000a900473ffffffffffffffffffffffffffffffffffffffff1673ffffffffffffffffffffffffffffffffffffffff1614620023e0576040517f08c379a00000000000000000000000000000000000000000000000000000000081526004018080602001828103825260208152602001807f4f776e61626c653a2063616c6c6572206973206e6f7420746865206f776e657281525060200191505060405180910390fd5b6000600e60009054906101000a900473ffffffffffffffffffffffffffffffffffffffff1673ffffffffffffffffffffffffffffffffffffffff166370a08231306040518263ffffffff1660e01b8152600401808273ffffffffffffffffffffffffffffffffffffffff1673ffffffffffffffffffffffffffffffffffffffff16815260200191505060206040518083038186803b1580156200248257600080fd5b505afa15801562002497573d6000803e3d6000fd5b505050506040513d6020811015620024ae57600080fd5b8101908080519060200190929190505050905060008111620024d1575062002691565b600e60009054906101000a900473ffffffffffffffffffffffffffffffffffffffff1673ffffffffffffffffffffffffffffffffffffffff1663095ea7b3600f60009054906101000a900473ffffffffffffffffffffffffffffffffffffffff16836040518363ffffffff1660e01b8152600401808373ffffffffffffffffffffffffffffffffffffffff1673ffffffffffffffffffffffffffffffffffffffff16815260200182815260200192505050602060405180830381600087803b1580156200259d57600080fd5b505af1158015620025b2573d6000803e3d6000fd5b505050506040513d6020811015620025c957600080fd5b810190808051906020019092919050505050600f60009054906101000a900473ffffffffffffffffffffffffffffffffffffffff1673ffffffffffffffffffffffffffffffffffffffff1663a0712d68826040518263ffffffff1660e01b815260040180828152602001915050602060405180830381600087803b1580156200265157600080fd5b505af115801562002666573d6000803e3d6000fd5b505050506040513d60208110156200267d57600080fd5b810190808051906020019092919050505050505b565b60008060038054905011905090565b600160009054906101000a900473ffffffffffffffffffffffffffffffffffffffff1681565b620026d262003223565b73ffffffffffffffffffffffffffffffffffffffff166000809054906101000a900473ffffffffffffffffffffffffffffffffffffffff1673ffffffffffffffffffffffffffffffffffffffff161462002794576040517f08c379a00000000000000000000000000000000000000000000000000000000081526004018080602001828103825260208152602001807f4f776e61626c653a2063616c6c6572206973206e6f7420746865206f776e657281525060200191505060405180910390fd5b80600c819055507fa67f34afb53d068e81607cde52dc74c58cbf6a05eac699e5543b97d25e3ca5cb600c546040518082815260200191505060405180910390a150565b620027e162003223565b73ffffffffffffffffffffffffffffffffffffffff166000809054906101000a900473ffffffffffffffffffffffffffffffffffffffff1673ffffffffffffffffffffffffffffffffffffffff1614620028a3576040517f08c379a00000000000000000000000000000000000000000000000000000000081526004018080602001828103825260208152602001807f4f776e61626c653a2063616c6c6572206973206e6f7420746865206f776e657281525060200191505060405180910390fd5b600160149054906101000a900460ff16156200290b576040517f08c379a0000000000000000000000000000000000000000000000000000000008152600401808060200182810382526026815260200180620077c86026913960400191505060405180910390fd5b6000600e60009054906101000a900473ffffffffffffffffffffffffffffffffffffffff1673ffffffffffffffffffffffffffffffffffffffff166370a08231306040518263ffffffff1660e01b8152600401808273ffffffffffffffffffffffffffffffffffffffff1673ffffffffffffffffffffffffffffffffffffffff16815260200191505060206040518083038186803b158015620029ad57600080fd5b505afa158015620029c2573d6000803e3d6000fd5b505050506040513d6020811015620029d957600080fd5b81019080805190602001909291905050501462002a42576040517f08c379a000000000000000000000000000000000000000000000000000000000815260040180806020018281038252602a815260200180620077ee602a913960400191505060405180910390fd5b62002a4c62004cf1565b600067ffffffffffffffff8111801562002a6557600080fd5b5060405190808252806020026020018201604052801562002a955781602001602082028036833780820191505090505b506002908051906020019062002aad92919062005263565b5060006003805490501162002b2a576040517f08c379a000000000000000000000000000000000000000000000000000000000815260040180806020018281038252601f8152602001807f436c617373726f6f6d3a206e6f207265616479206170706c69636174696f6e0081525060200191505060405180910390fd5b6001601060146101000a81548160ff02191690831515021790555062002b5c600c5442620035b990919063ffffffff16565b600781905550565b600e60009054906101000a900473ffffffffffffffffffffffffffffffffffffffff1681565b606062002b9662003223565b73ffffffffffffffffffffffffffffffffffffffff166000809054906101000a900473ffffffffffffffffffffffffffffffffffffffff1673ffffffffffffffffffffffffffffffffffffffff161462002c58576040517f08c379a00000000000000000000000000000000000000000000000000000000081526004018080602001828103825260208152602001807f4f776e61626c653a2063616c6c6572206973206e6f7420746865206f776e657281525060200191505060405180910390fd5b600680548060200260200160405190810160405280929190818152602001828054801562002cdc57602002820191906000526020600020905b8160009054906101000a900473ffffffffffffffffffffffffffffffffffffffff1673ffffffffffffffffffffffffffffffffffffffff168152602001906001019080831162002c91575b5050505050905090565b62002cf062003223565b73ffffffffffffffffffffffffffffffffffffffff166000809054906101000a900473ffffffffffffffffffffffffffffffffffffffff1673ffffffffffffffffffffffffffffffffffffffff161462002db2576040517f08c379a00000000000000000000000000000000000000000000000000000000081526004018080602001828103825260208152602001807f4f776e61626c653a2063616c6c6572206973206e6f7420746865206f776e657281525060200191505060405180910390fd5b80600a60036101000a81548162ffffff021916908362ffffff1602179055507f9d9f9ef51b12eb719684b7a2e09fc2f7e916cb0e229aecf5658ce6326dfeb1c5600a60039054906101000a900462ffffff16604051808262ffffff1662ffffff16815260200191505060405180910390a150565b62002e3062003223565b73ffffffffffffffffffffffffffffffffffffffff166000809054906101000a900473ffffffffffffffffffffffffffffffffffffffff1673ffffffffffffffffffffffffffffffffffffffff161462002ef2576040517f08c379a00000000000000000000000000000000000000000000000000000000081526004018080602001828103825260208152602001807f4f776e61626c653a2063616c6c6572206973206e6f7420746865206f776e657281525060200191505060405180910390fd5b600073ffffffffffffffffffffffffffffffffffffffff168173ffffffffffffffffffffffffffffffffffffffff16141562002f7a576040517f08c379a0000000000000000000000000000000000000000000000000000000008152600401808060200182810382526026815260200180620076786026913960400191505060405180910390fd5b8073ffffffffffffffffffffffffffffffffffffffff166000809054906101000a900473ffffffffffffffffffffffffffffffffffffffff1673ffffffffffffffffffffffffffffffffffffffff167f8be0079c531659141344cd1fd0a4f28419497f9722a3daafe3b4186f6b6457e060405160405180910390a3806000806101000a81548173ffffffffffffffffffffffffffffffffffffffff021916908373ffffffffffffffffffffffffffffffffffffffff16021790555050565b600b5481565b60006200304a62003223565b73ffffffffffffffffffffffffffffffffffffffff166000809054906101000a900473ffffffffffffffffffffffffffffffffffffffff1673ffffffffffffffffffffffffffffffffffffffff16146200310c576040517f08c379a00000000000000000000000000000000000000000000000000000000081526004018080602001828103825260208152602001807f4f776e61626c653a2063616c6c6572206973206e6f7420746865206f776e657281525060200191505060405180910390fd5b600d54905090565b6200311e62003223565b73ffffffffffffffffffffffffffffffffffffffff166000809054906101000a900473ffffffffffffffffffffffffffffffffffffffff1673ffffffffffffffffffffffffffffffffffffffff1614620031e0576040517f08c379a00000000000000000000000000000000000000000000000000000000081526004018080602001828103825260208152602001807f4f776e61626c653a2063616c6c6572206973206e6f7420746865206f776e657281525060200191505060405180910390fd5b80600b819055507f84e881bf3fcef92f709a2a62150da178a998fbff128c017f3e846787a2f7f5f5600b546040518082815260200191505060405180910390a150565b600033905090565b6000808230600e60009054906101000a900473ffffffffffffffffffffffffffffffffffffffff16601060009054906101000a900473ffffffffffffffffffffffffffffffffffffffff16600d546040516200328790620052f2565b808673ffffffffffffffffffffffffffffffffffffffff1673ffffffffffffffffffffffffffffffffffffffff1681526020018573ffffffffffffffffffffffffffffffffffffffff1673ffffffffffffffffffffffffffffffffffffffff1681526020018473ffffffffffffffffffffffffffffffffffffffff1673ffffffffffffffffffffffffffffffffffffffff1681526020018373ffffffffffffffffffffffffffffffffffffffff1673ffffffffffffffffffffffffffffffffffffffff16815260200182815260200195505050505050604051809103906000f0801580156200337a573d6000803e3d6000fd5b50905080600460008573ffffffffffffffffffffffffffffffffffffffff1673ffffffffffffffffffffffffffffffffffffffff16815260200190815260200160002060006101000a81548173ffffffffffffffffffffffffffffffffffffffff021916908373ffffffffffffffffffffffffffffffffffffffff160217905550600160009054906101000a900473ffffffffffffffffffffffffffffffffffffffff1673ffffffffffffffffffffffffffffffffffffffff1663183b260084836040518363ffffffff1660e01b8152600401808373ffffffffffffffffffffffffffffffffffffffff1673ffffffffffffffffffffffffffffffffffffffff1681526020018273ffffffffffffffffffffffffffffffffffffffff1673ffffffffffffffffffffffffffffffffffffffff16815260200192505050600060405180830381600087803b158015620034d157600080fd5b505af1158015620034e6573d6000803e3d6000fd5b505050506005839080600181540180825580915050600190039060005260206000200160009091909190916101000a81548173ffffffffffffffffffffffffffffffffffffffff021916908373ffffffffffffffffffffffffffffffffffffffff1602179055506006819080600181540180825580915050600190039060005260206000200160009091909190916101000a81548173ffffffffffffffffffffffffffffffffffffffff021916908373ffffffffffffffffffffffffffffffffffffffff16021790555080915050919050565b60008082840190508381101562003638576040517f08c379a000000000000000000000000000000000000000000000000000000000815260040180806020018281038252601b8152602001807f536166654d6174683a206164646974696f6e206f766572666c6f77000000000081525060200191505060405180910390fd5b8091505092915050565b600080600f60009054906101000a900473ffffffffffffffffffffffffffffffffffffffff1673ffffffffffffffffffffffffffffffffffffffff16633af9e669306040518263ffffffff1660e01b8152600401808273ffffffffffffffffffffffffffffffffffffffff1673ffffffffffffffffffffffffffffffffffffffff168152602001915050602060405180830381600087803b158015620036e757600080fd5b505af1158015620036fc573d6000803e3d6000fd5b505050506040513d60208110156200371357600080fd5b81019080805190602001909291905050509050600f60009054906101000a900473ffffffffffffffffffffffffffffffffffffffff1673ffffffffffffffffffffffffffffffffffffffff1663852a12e3826040518263ffffffff1660e01b815260040180828152602001915050602060405180830381600087803b1580156200379c57600080fd5b505af1158015620037b1573d6000803e3d6000fd5b505050506040513d6020811015620037c857600080fd5b8101908080519060200190929190505050508091505090565b6000806000809050600080905060008090505b60038054905081101562003a4557600381815481106200381057fe5b9060005260206000200160009054906101000a900473ffffffffffffffffffffffffffffffffffffffff1673ffffffffffffffffffffffffffffffffffffffff1663289cf0d26040518163ffffffff1660e01b8152600401600060405180830381600087803b1580156200388357600080fd5b505af115801562003898573d6000803e3d6000fd5b505050506003808281548110620038ab57fe5b9060005260206000200160009054906101000a900473ffffffffffffffffffffffffffffffffffffffff1673ffffffffffffffffffffffffffffffffffffffff16636587b61e6040518163ffffffff1660e01b815260040160206040518083038186803b1580156200391c57600080fd5b505afa15801562003931573d6000803e3d6000fd5b505050506040513d60208110156200394857600080fd5b81019080805190602001909291905050501415620039695782806001019350505b6005600382815481106200397957fe5b9060005260206000200160009054906101000a900473ffffffffffffffffffffffffffffffffffffffff1673ffffffffffffffffffffffffffffffffffffffff16636587b61e6040518163ffffffff1660e01b815260040160206040518083038186803b158015620039ea57600080fd5b505afa158015620039ff573d6000803e3d6000fd5b505050506040513d602081101562003a1657600080fd5b8101908080519060200190929190505050141562003a375781806001019250505b8080600101915050620037f4565b5081819350935050509091565b6000606060006003805490509050600062003a8f62003a7d83600b5462004fb190919063ffffffff16565b6008546200503c90919063ffffffff16565b9050600062003ad7620f424062003ac8600a60009054906101000a900462ffffff1662ffffff16600b5462004fb190919063ffffffff16565b6200508890919063ffffffff16565b9050600062003af282600b546200503c90919063ffffffff16565b9050600062003b1f8562003b108b8762004fb190919063ffffffff16565b6200508890919063ffffffff16565b9050600062003b65620f424062003b56600a60039054906101000a900462ffffff1662ffffff168562004fb190919063ffffffff16565b6200508890919063ffffffff16565b9050600062003b928b62003b8384896200503c90919063ffffffff16565b6200508890919063ffffffff16565b905060608767ffffffffffffffff8111801562003bae57600080fd5b5060405190808252806020026020018201604052801562003bde5781602001602082028036833780820191505090505b50905060008090505b88811015620040a057600380828154811062003bff57fe5b9060005260206000200160009054906101000a900473ffffffffffffffffffffffffffffffffffffffff1673ffffffffffffffffffffffffffffffffffffffff16636587b61e6040518163ffffffff1660e01b815260040160206040518083038186803b15801562003c7057600080fd5b505afa15801562003c85573d6000803e3d6000fd5b505050506040513d602081101562003c9c57600080fd5b8101908080519060200190929190505050141562003d90576003818154811062003cc257fe5b9060005260206000200160009054906101000a900473ffffffffffffffffffffffffffffffffffffffff1673ffffffffffffffffffffffffffffffffffffffff16637db9abaf87856040518363ffffffff1660e01b81526004018083815260200182815260200192505050600060405180830381600087803b15801562003d4857600080fd5b505af115801562003d5d573d6000803e3d6000fd5b5050505062003d768387620035b990919063ffffffff16565b82828151811062003d8357fe5b6020026020010181815250505b60046003828154811062003da057fe5b9060005260206000200160009054906101000a900473ffffffffffffffffffffffffffffffffffffffff1673ffffffffffffffffffffffffffffffffffffffff16636587b61e6040518163ffffffff1660e01b815260040160206040518083038186803b15801562003e1157600080fd5b505afa15801562003e26573d6000803e3d6000fd5b505050506040513d602081101562003e3d57600080fd5b8101908080519060200190929190505050141562003f1e576003818154811062003e6357fe5b9060005260206000200160009054906101000a900473ffffffffffffffffffffffffffffffffffffffff1673ffffffffffffffffffffffffffffffffffffffff16637db9abaf8760006040518363ffffffff1660e01b81526004018083815260200182815260200192505050600060405180830381600087803b15801562003eea57600080fd5b505af115801562003eff573d6000803e3d6000fd5b505050508582828151811062003f1157fe5b6020026020010181815250505b60056003828154811062003f2e57fe5b9060005260206000200160009054906101000a900473ffffffffffffffffffffffffffffffffffffffff1673ffffffffffffffffffffffffffffffffffffffff16636587b61e6040518163ffffffff1660e01b815260040160206040518083038186803b15801562003f9f57600080fd5b505afa15801562003fb4573d6000803e3d6000fd5b505050506040513d602081101562003fcb57600080fd5b8101908080519060200190929190505050141562004092576003818154811062003ff157fe5b9060005260206000200160009054906101000a900473ffffffffffffffffffffffffffffffffffffffff1673ffffffffffffffffffffffffffffffffffffffff16637db9abaf6000806040518363ffffffff1660e01b81526004018083815260200182815260200192505050600060405180830381600087803b1580156200407857600080fd5b505af11580156200408d573d6000803e3d6000fd5b505050505b808060010191505062003be7565b506000620040ba600b548d62004fb190919063ffffffff16565b9050600062004194620f424062004185600160009054906101000a900473ffffffffffffffffffffffffffffffffffffffff1673ffffffffffffffffffffffffffffffffffffffff1663e6fd604c6040518163ffffffff1660e01b815260040160206040518083038186803b1580156200413357600080fd5b505afa15801562004148573d6000803e3d6000fd5b505050506040513d60208110156200415f57600080fd5b810190808051906020019092919050505062ffffff168862004fb190919063ffffffff16565b6200508890919063ffffffff16565b90506000620041ad8e8c6200503c90919063ffffffff16565b905060006200429b620f42406200428c600160009054906101000a900473ffffffffffffffffffffffffffffffffffffffff1673ffffffffffffffffffffffffffffffffffffffff1663e6fd604c6040518163ffffffff1660e01b815260040160206040518083038186803b1580156200422657600080fd5b505afa1580156200423b573d6000803e3d6000fd5b505050506040513d60208110156200425257600080fd5b810190808051906020019092919050505062ffffff166200427d868f62004fb190919063ffffffff16565b62004fb190919063ffffffff16565b6200508890919063ffffffff16565b9050620042c681620042b78587620035b990919063ffffffff16565b620035b990919063ffffffff16565b859d509d505050505050505050505050509250929050565b60008090505b600380549050811015620044535760008282815181106200430157fe5b602002602001015111156200444557600e60009054906101000a900473ffffffffffffffffffffffffffffffffffffffff1673ffffffffffffffffffffffffffffffffffffffff1663095ea7b3600383815481106200435c57fe5b9060005260206000200160009054906101000a900473ffffffffffffffffffffffffffffffffffffffff168484815181106200439457fe5b60200260200101516040518363ffffffff1660e01b8152600401808373ffffffffffffffffffffffffffffffffffffffff1673ffffffffffffffffffffffffffffffffffffffff16815260200182815260200192505050602060405180830381600087803b1580156200440657600080fd5b505af11580156200441b573d6000803e3d6000fd5b505050506040513d60208110156200443257600080fd5b8101908080519060200190929190505050505b8080600101915050620042e4565b5050565b600e60009054906101000a900473ffffffffffffffffffffffffffffffffffffffff1673ffffffffffffffffffffffffffffffffffffffff1663a9059cbb600160009054906101000a900473ffffffffffffffffffffffffffffffffffffffff16836040518363ffffffff1660e01b8152600401808373ffffffffffffffffffffffffffffffffffffffff1673ffffffffffffffffffffffffffffffffffffffff16815260200182815260200192505050602060405180830381600087803b1580156200452357600080fd5b505af115801562004538573d6000803e3d6000fd5b505050506040513d60208110156200454f57600080fd5b81019080805190602001909291905050505050565b60008090505b60038054905081101562004c5d5760038082815481106200458757fe5b9060005260206000200160009054906101000a900473ffffffffffffffffffffffffffffffffffffffff1673ffffffffffffffffffffffffffffffffffffffff16636587b61e6040518163ffffffff1660e01b815260040160206040518083038186803b158015620045f857600080fd5b505afa1580156200460d573d6000803e3d6000fd5b505050506040513d60208110156200462457600080fd5b81019080805190602001909291905050501415620047bf57600160009054906101000a900473ffffffffffffffffffffffffffffffffffffffff1673ffffffffffffffffffffffffffffffffffffffff166387bfe188600383815481106200468857fe5b9060005260206000200160009054906101000a900473ffffffffffffffffffffffffffffffffffffffff1673ffffffffffffffffffffffffffffffffffffffff1663b8f31a816040518163ffffffff1660e01b815260040160206040518083038186803b158015620046f957600080fd5b505afa1580156200470e573d6000803e3d6000fd5b505050506040513d60208110156200472557600080fd5b810190808051906020019092919050505060016040518363ffffffff1660e01b8152600401808373ffffffffffffffffffffffffffffffffffffffff1673ffffffffffffffffffffffffffffffffffffffff1681526020018260030b815260200192505050600060405180830381600087803b158015620047a557600080fd5b505af1158015620047ba573d6000803e3d6000fd5b505050505b600460038281548110620047cf57fe5b9060005260206000200160009054906101000a900473ffffffffffffffffffffffffffffffffffffffff1673ffffffffffffffffffffffffffffffffffffffff16636587b61e6040518163ffffffff1660e01b815260040160206040518083038186803b1580156200484057600080fd5b505afa15801562004855573d6000803e3d6000fd5b505050506040513d60208110156200486c57600080fd5b8101908080519060200190929190505050141562004a0757600160009054906101000a900473ffffffffffffffffffffffffffffffffffffffff1673ffffffffffffffffffffffffffffffffffffffff1663ff5d8f6360038381548110620048d057fe5b9060005260206000200160009054906101000a900473ffffffffffffffffffffffffffffffffffffffff1673ffffffffffffffffffffffffffffffffffffffff1663b8f31a816040518163ffffffff1660e01b815260040160206040518083038186803b1580156200494157600080fd5b505afa15801562004956573d6000803e3d6000fd5b505050506040513d60208110156200496d57600080fd5b810190808051906020019092919050505060016040518363ffffffff1660e01b8152600401808373ffffffffffffffffffffffffffffffffffffffff1673ffffffffffffffffffffffffffffffffffffffff1681526020018260030b815260200192505050600060405180830381600087803b158015620049ed57600080fd5b505af115801562004a02573d6000803e3d6000fd5b505050505b60056003828154811062004a1757fe5b9060005260206000200160009054906101000a900473ffffffffffffffffffffffffffffffffffffffff1673ffffffffffffffffffffffffffffffffffffffff16636587b61e6040518163ffffffff1660e01b815260040160206040518083038186803b15801562004a8857600080fd5b505afa15801562004a9d573d6000803e3d6000fd5b505050506040513d602081101562004ab457600080fd5b8101908080519060200190929190505050141562004c4f57600160009054906101000a900473ffffffffffffffffffffffffffffffffffffffff1673ffffffffffffffffffffffffffffffffffffffff1663ff5d8f636003838154811062004b1857fe5b9060005260206000200160009054906101000a900473ffffffffffffffffffffffffffffffffffffffff1673ffffffffffffffffffffffffffffffffffffffff1663b8f31a816040518163ffffffff1660e01b815260040160206040518083038186803b15801562004b8957600080fd5b505afa15801562004b9e573d6000803e3d6000fd5b505050506040513d602081101562004bb557600080fd5b810190808051906020019092919050505060026040518363ffffffff1660e01b8152600401808373ffffffffffffffffffffffffffffffffffffffff1673ffffffffffffffffffffffffffffffffffffffff1681526020018260030b815260200192505050600060405180830381600087803b15801562004c3557600080fd5b505af115801562004c4a573d6000803e3d6000fd5b505050505b80806001019150506200456a565b50565b600067ffffffffffffffff8111801562004c7957600080fd5b5060405190808252806020026020018201604052801562004ca95781602001602082028036833780820191505090505b506003908051906020019062004cc192919062005263565b5062004ccc62001186565b60006008819055506000600160156101000a81548160ff021916908315150217905550565b60008090505b60028054905081101562004fae5760016002828154811062004d1557fe5b9060005260206000200160009054906101000a900473ffffffffffffffffffffffffffffffffffffffff1673ffffffffffffffffffffffffffffffffffffffff16636587b61e6040518163ffffffff1660e01b815260040160206040518083038186803b15801562004d8657600080fd5b505afa15801562004d9b573d6000803e3d6000fd5b505050506040513d602081101562004db257600080fd5b8101908080519060200190929190505050141562004f05576002818154811062004dd857fe5b9060005260206000200160009054906101000a900473ffffffffffffffffffffffffffffffffffffffff1673ffffffffffffffffffffffffffffffffffffffff16630f15f4c06040518163ffffffff1660e01b8152600401600060405180830381600087803b15801562004e4b57600080fd5b505af115801562004e60573d6000803e3d6000fd5b5050505060036002828154811062004e7457fe5b9060005260206000200160009054906101000a900473ffffffffffffffffffffffffffffffffffffffff169080600181540180825580915050600190039060005260206000200160009091909190916101000a81548173ffffffffffffffffffffffffffffffffffffffff021916908373ffffffffffffffffffffffffffffffffffffffff16021790555062004fa0565b6002818154811062004f1357fe5b9060005260206000200160009054906101000a900473ffffffffffffffffffffffffffffffffffffffff1673ffffffffffffffffffffffffffffffffffffffff166379599f966040518163ffffffff1660e01b8152600401600060405180830381600087803b15801562004f8657600080fd5b505af115801562004f9b573d6000803e3d6000fd5b505050505b808060010191505062004cf7565b50565b60008083141562004fc6576000905062005036565b600082840290508284828162004fd857fe5b041462005031576040517f08c379a0000000000000000000000000000000000000000000000000000000008152600401808060200182810382526021815260200180620077836021913960400191505060405180910390fd5b809150505b92915050565b60006200508083836040518060400160405280601e81526020017f536166654d6174683a207375627472616374696f6e206f766572666c6f770000815250620050d4565b905092915050565b6000620050cc83836040518060400160405280601a81526020017f536166654d6174683a206469766973696f6e206279207a65726f00000000000081525062005198565b905092915050565b600083831115829062005185576040517f08c379a00000000000000000000000000000000000000000000000000000000081526004018080602001828103825283818151815260200191508051906020019080838360005b83811015620051495780820151818401526020810190506200512c565b50505050905090810190601f168015620051775780820380516001836020036101000a031916815260200191505b509250505060405180910390fd5b5060008385039050809150509392505050565b6000808311829062005248576040517f08c379a00000000000000000000000000000000000000000000000000000000081526004018080602001828103825283818151815260200191508051906020019080838360005b838110156200520c578082015181840152602081019050620051ef565b50505050905090810190601f1680156200523a5780820380516001836020036101000a031916815260200191505b509250505060405180910390fd5b5060008385816200525557fe5b049050809150509392505050565b828054828255906000526020600020908101928215620052df579160200282015b82811115620052de5782518260006101000a81548173ffffffffffffffffffffffffffffffffffffffff021916908373ffffffffffffffffffffffffffffffffffffffff1602179055509160200191906001019062005284565b5b509050620052ee919062005300565b5090565b612331806200534783390190565b6200534391905b808211156200533f57600081816101000a81549073ffffffffffffffffffffffffffffffffffffffff02191690555060010162005307565b5090565b9056fe60806040523480156200001157600080fd5b506040516200233138038062002331833981810160405260a08110156200003757600080fd5b8101908080519060200190929190805190602001909291908051906020019092919080519060200190929190805190602001909291905050506000620000826200028660201b60201c565b9050806000806101000a81548173ffffffffffffffffffffffffffffffffffffffff021916908373ffffffffffffffffffffffffffffffffffffffff1602179055508073ffffffffffffffffffffffffffffffffffffffff16600073ffffffffffffffffffffffffffffffffffffffff167f8be0079c531659141344cd1fd0a4f28419497f9722a3daafe3b4186f6b6457e060405160405180910390a3506000600360146101000a81548160ff021916908360068111156200014057fe5b021790555084600460006101000a81548173ffffffffffffffffffffffffffffffffffffffff021916908373ffffffffffffffffffffffffffffffffffffffff16021790555083600560006101000a81548173ffffffffffffffffffffffffffffffffffffffff021916908373ffffffffffffffffffffffffffffffffffffffff1602179055506000600760006101000a81548160ff02191690831515021790555082600160006101000a81548173ffffffffffffffffffffffffffffffffffffffff021916908373ffffffffffffffffffffffffffffffffffffffff16021790555062000234816200028e60201b60201c565b60068190555081600260006101000a81548173ffffffffffffffffffffffffffffffffffffffff021916908373ffffffffffffffffffffffffffffffffffffffff1602179055505050505050620002ba565b600033905090565b60007f52414e444f4d000000000000000000000000000000000000000000000000000082189050919050565b61206780620002ca6000396000f3fe608060405234801561001057600080fd5b50600436106101165760003560e01c806366995a46116100a2578063872d7c7911610071578063872d7c79146103665780638da5cb5b14610370578063b8f31a81146103ba578063be22f54614610404578063f2fde38b1461044e57610116565b806366995a46146102d6578063715018a61461031a57806379599f96146103245780637db9abaf1461032e57610116565b806329d18879116100e957806329d18879146101935780632d24947b146101dd57806337edd7e7146101e75780633db0bfd21461026a5780636587b61e146102b857610116565b80630bb8ebf61461011b5780630f15f4c01461013d5780632344e4ec14610147578063289cf0d214610189575b600080fd5b610123610492565b604051808215151515815260200191505060405180910390f35b610145610549565b005b6101736004803603602081101561015d57600080fd5b81019080803590602001909291905050506106b6565b6040518082815260200191505060405180910390f35b610191610983565b005b61019b610ae6565b604051808273ffffffffffffffffffffffffffffffffffffffff1673ffffffffffffffffffffffffffffffffffffffff16815260200191505060405180910390f35b6101e5610c01565b005b6101ef610ed6565b6040518080602001828103825283818151815260200191508051906020019080838360005b8381101561022f578082015181840152602081019050610214565b50505050905090810190601f16801561025c5780820380516001836020036101000a031916815260200191505b509250505060405180910390f35b6102b66004803603604081101561028057600080fd5b81019080803573ffffffffffffffffffffffffffffffffffffffff1690602001909291908035906020019092919050505061112f565b005b6102c061137b565b6040518082815260200191505060405180910390f35b610318600480360360208110156102ec57600080fd5b81019080803573ffffffffffffffffffffffffffffffffffffffff16906020019092919050505061148e565b005b6103226114a1565b005b61032c611629565b005b6103646004803603604081101561034457600080fd5b810190808035906020019092919080359060200190929190505050611796565b005b61036e6118d1565b005b610378611ae0565b604051808273ffffffffffffffffffffffffffffffffffffffff1673ffffffffffffffffffffffffffffffffffffffff16815260200191505060405180910390f35b6103c2611b09565b604051808273ffffffffffffffffffffffffffffffffffffffff1673ffffffffffffffffffffffffffffffffffffffff16815260200191505060405180910390f35b61040c611bfc565b604051808273ffffffffffffffffffffffffffffffffffffffff1673ffffffffffffffffffffffffffffffffffffffff16815260200191505060405180910390f35b6104906004803603602081101561046457600080fd5b81019080803573ffffffffffffffffffffffffffffffffffffffff169060200190929190505050611c22565b005b6000600360009054906101000a900473ffffffffffffffffffffffffffffffffffffffff1673ffffffffffffffffffffffffffffffffffffffff166339e7357c6040518163ffffffff1660e01b815260040160206040518083038186803b1580156104fc57600080fd5b505afa92505050801561053057506040513d602081101561051c57600080fd5b810190808051906020019092919050505060015b61053d5760009050610546565b60065481149150505b90565b610551611e2f565b73ffffffffffffffffffffffffffffffffffffffff166000809054906101000a900473ffffffffffffffffffffffffffffffffffffffff1673ffffffffffffffffffffffffffffffffffffffff1614610612576040517f08c379a00000000000000000000000000000000000000000000000000000000081526004018080602001828103825260208152602001807f4f776e61626c653a2063616c6c6572206973206e6f7420746865206f776e657281525060200191505060405180910390fd5b6000600681111561061f57fe5b600360149054906101000a900460ff16600681111561063a57fe5b14610690576040517f08c379a000000000000000000000000000000000000000000000000000000000815260040180806020018281038252602a815260200180611f62602a913960400191505060405180910390fd5b6002600360146101000a81548160ff021916908360068111156106af57fe5b0217905550565b6000600760009054906101000a900460ff1661071d576040517f08c379a0000000000000000000000000000000000000000000000000000000008152600401808060200182810382526029815260200180611eb36029913960400191505060405180910390fd5b600360009054906101000a900473ffffffffffffffffffffffffffffffffffffffff1673ffffffffffffffffffffffffffffffffffffffff1661075e611e2f565b73ffffffffffffffffffffffffffffffffffffffff16146107ca576040517f08c379a0000000000000000000000000000000000000000000000000000000008152600401808060200182810382526025815260200180611e8e6025913960400191505060405180910390fd5b600260009054906101000a900473ffffffffffffffffffffffffffffffffffffffff1673ffffffffffffffffffffffffffffffffffffffff16630b435c546040518163ffffffff1660e01b815260040160206040518083038186803b15801561083257600080fd5b505afa158015610846573d6000803e3d6000fd5b505050506040513d602081101561085c57600080fd5b810190808051906020019092919050505082106108c4576040517f08c379a000000000000000000000000000000000000000000000000000000000815260040180806020018281038252602681526020018061200c6026913960400191505060405180910390fd5b600260009054906101000a900473ffffffffffffffffffffffffffffffffffffffff1673ffffffffffffffffffffffffffffffffffffffff1663cee0510f836006546040518363ffffffff1660e01b8152600401808381526020018281526020019250505060206040518083038186803b15801561094157600080fd5b505afa158015610955573d6000803e3d6000fd5b505050506040513d602081101561096b57600080fd5b81019080805190602001909291905050509050919050565b61098b611e2f565b73ffffffffffffffffffffffffffffffffffffffff166000809054906101000a900473ffffffffffffffffffffffffffffffffffffffff1673ffffffffffffffffffffffffffffffffffffffff1614610a4c576040517f08c379a00000000000000000000000000000000000000000000000000000000081526004018080602001828103825260208152602001807f4f776e61626c653a2063616c6c6572206973206e6f7420746865206f776e657281525060200191505060405180910390fd5b600760009054906101000a900460ff16610a89576005600360146101000a81548160ff02191690836006811115610a7f57fe5b0217905550610ae4565b610a91610492565b15610abe5760038060146101000a81548160ff02191690836006811115610ab457fe5b0217905550610ae3565b6004600360146101000a81548160ff02191690836006811115610add57fe5b02179055505b5b565b6000600460009054906101000a900473ffffffffffffffffffffffffffffffffffffffff1673ffffffffffffffffffffffffffffffffffffffff16610b29611e2f565b73ffffffffffffffffffffffffffffffffffffffff161480610b845750610b4e611ae0565b73ffffffffffffffffffffffffffffffffffffffff16610b6c611e2f565b73ffffffffffffffffffffffffffffffffffffffff16145b610bd9576040517f08c379a000000000000000000000000000000000000000000000000000000000815260040180806020018281038252602a815260200180611fe2602a913960400191505060405180910390fd5b600260009054906101000a900473ffffffffffffffffffffffffffffffffffffffff16905090565b60006006811115610c0e57fe5b600360149054906101000a900460ff166006811115610c2957fe5b14610c7f576040517f08c379a000000000000000000000000000000000000000000000000000000000815260040180806020018281038252602a815260200180611f62602a913960400191505060405180910390fd5b600160009054906101000a900473ffffffffffffffffffffffffffffffffffffffff1673ffffffffffffffffffffffffffffffffffffffff166323b872dd33600560009054906101000a900473ffffffffffffffffffffffffffffffffffffffff16600560009054906101000a900473ffffffffffffffffffffffffffffffffffffffff1673ffffffffffffffffffffffffffffffffffffffff1663f745adfc6040518163ffffffff1660e01b815260040160206040518083038186803b158015610d4957600080fd5b505afa158015610d5d573d6000803e3d6000fd5b505050506040513d6020811015610d7357600080fd5b81019080805190602001909291905050506040518463ffffffff1660e01b8152600401808473ffffffffffffffffffffffffffffffffffffffff1673ffffffffffffffffffffffffffffffffffffffff1681526020018373ffffffffffffffffffffffffffffffffffffffff1673ffffffffffffffffffffffffffffffffffffffff1681526020018281526020019350505050602060405180830381600087803b158015610e2057600080fd5b505af1158015610e34573d6000803e3d6000fd5b505050506040513d6020811015610e4a57600080fd5b8101908080519060200190929190505050610eb0576040517f08c379a000000000000000000000000000000000000000000000000000000000815260040180806020018281038252602a815260200180611f8c602a913960400191505060405180910390fd5b6001600360146101000a81548160ff02191690836006811115610ecf57fe5b0217905550565b6060600460009054906101000a900473ffffffffffffffffffffffffffffffffffffffff1673ffffffffffffffffffffffffffffffffffffffff16610f19611e2f565b73ffffffffffffffffffffffffffffffffffffffff161480610f745750610f3e611ae0565b73ffffffffffffffffffffffffffffffffffffffff16610f5c611e2f565b73ffffffffffffffffffffffffffffffffffffffff16145b610fc9576040517f08c379a000000000000000000000000000000000000000000000000000000000815260040180806020018281038252602a815260200180611fe2602a913960400191505060405180910390fd5b600260009054906101000a900473ffffffffffffffffffffffffffffffffffffffff1673ffffffffffffffffffffffffffffffffffffffff1663724465436040518163ffffffff1660e01b815260040160006040518083038186803b15801561103157600080fd5b505afa158015611045573d6000803e3d6000fd5b505050506040513d6000823e3d601f19601f82011682018060405250602081101561106f57600080fd5b810190808051604051939291908464010000000082111561108f57600080fd5b838201915060208201858111156110a557600080fd5b82518660018202830111640100000000821117156110c257600080fd5b8083526020830192505050908051906020019080838360005b838110156110f65780820151818401526020810190506110db565b50505050905090810190601f1680156111235780820380516001836020036101000a031916815260200191505b50604052505050905090565b600460009054906101000a900473ffffffffffffffffffffffffffffffffffffffff1673ffffffffffffffffffffffffffffffffffffffff16611170611e2f565b73ffffffffffffffffffffffffffffffffffffffff16146111dc576040517f08c379a000000000000000000000000000000000000000000000000000000000815260040180806020018281038252602d815260200180611edc602d913960400191505060405180910390fd5b60026111e661137b565b1161123c576040517f08c379a000000000000000000000000000000000000000000000000000000000815260040180806020018281038252602c815260200180611fb6602c913960400191505060405180910390fd5b600160009054906101000a900473ffffffffffffffffffffffffffffffffffffffff1673ffffffffffffffffffffffffffffffffffffffff166323b872dd600560009054906101000a900473ffffffffffffffffffffffffffffffffffffffff1684846040518463ffffffff1660e01b8152600401808473ffffffffffffffffffffffffffffffffffffffff1673ffffffffffffffffffffffffffffffffffffffff1681526020018373ffffffffffffffffffffffffffffffffffffffff1673ffffffffffffffffffffffffffffffffffffffff1681526020018281526020019350505050602060405180830381600087803b15801561133b57600080fd5b505af115801561134f573d6000803e3d6000fd5b505050506040513d602081101561136557600080fd5b8101908080519060200190929190505050505050565b6000600460009054906101000a900473ffffffffffffffffffffffffffffffffffffffff1673ffffffffffffffffffffffffffffffffffffffff166113be611e2f565b73ffffffffffffffffffffffffffffffffffffffff16148061141957506113e3611ae0565b73ffffffffffffffffffffffffffffffffffffffff16611401611e2f565b73ffffffffffffffffffffffffffffffffffffffff16145b61146e576040517f08c379a000000000000000000000000000000000000000000000000000000000815260040180806020018281038252602a815260200180611fe2602a913960400191505060405180910390fd5b600360149054906101000a900460ff16600681111561148957fe5b905090565b61149e816009546008540161112f565b50565b6114a9611e2f565b73ffffffffffffffffffffffffffffffffffffffff166000809054906101000a900473ffffffffffffffffffffffffffffffffffffffff1673ffffffffffffffffffffffffffffffffffffffff161461156a576040517f08c379a00000000000000000000000000000000000000000000000000000000081526004018080602001828103825260208152602001807f4f776e61626c653a2063616c6c6572206973206e6f7420746865206f776e657281525060200191505060405180910390fd5b600073ffffffffffffffffffffffffffffffffffffffff166000809054906101000a900473ffffffffffffffffffffffffffffffffffffffff1673ffffffffffffffffffffffffffffffffffffffff167f8be0079c531659141344cd1fd0a4f28419497f9722a3daafe3b4186f6b6457e060405160405180910390a360008060006101000a81548173ffffffffffffffffffffffffffffffffffffffff021916908373ffffffffffffffffffffffffffffffffffffffff160217905550565b611631611e2f565b73ffffffffffffffffffffffffffffffffffffffff166000809054906101000a900473ffffffffffffffffffffffffffffffffffffffff1673ffffffffffffffffffffffffffffffffffffffff16146116f2576040517f08c379a00000000000000000000000000000000000000000000000000000000081526004018080602001828103825260208152602001807f4f776e61626c653a2063616c6c6572206973206e6f7420746865206f776e657281525060200191505060405180910390fd5b600060068111156116ff57fe5b600360149054906101000a900460ff16600681111561171a57fe5b14611770576040517f08c379a000000000000000000000000000000000000000000000000000000000815260040180806020018281038252602a815260200180611f62602a913960400191505060405180910390fd5b6006600360146101000a81548160ff0219169083600681111561178f57fe5b0217905550565b61179e611e2f565b73ffffffffffffffffffffffffffffffffffffffff166000809054906101000a900473ffffffffffffffffffffffffffffffffffffffff1673ffffffffffffffffffffffffffffffffffffffff161461185f576040517f08c379a00000000000000000000000000000000000000000000000000000000081526004018080602001828103825260208152602001807f4f776e61626c653a2063616c6c6572206973206e6f7420746865206f776e657281525060200191505060405180910390fd5b600261186961137b565b116118bf576040517f08c379a0000000000000000000000000000000000000000000000000000000008152600401808060200182810382526030815260200180611e386030913960400191505060405180910390fd5b81600881905550806009819055505050565b600260068111156118de57fe5b600360149054906101000a900460ff1660068111156118f957fe5b1461194f576040517f08c379a000000000000000000000000000000000000000000000000000000000815260040180806020018281038252602d815260200180611f09602d913960400191505060405180910390fd5b6000611959611e2f565b9050600460009054906101000a900473ffffffffffffffffffffffffffffffffffffffff1673ffffffffffffffffffffffffffffffffffffffff168173ffffffffffffffffffffffffffffffffffffffff1663893d20e86040518163ffffffff1660e01b815260040160206040518083038186803b1580156119da57600080fd5b505afa1580156119ee573d6000803e3d6000fd5b505050506040513d6020811015611a0457600080fd5b810190808051906020019092919050505073ffffffffffffffffffffffffffffffffffffffff1614611a81576040517f08c379a000000000000000000000000000000000000000000000000000000000815260040180806020018281038252602c815260200180611f36602c913960400191505060405180910390fd5b80600360006101000a81548173ffffffffffffffffffffffffffffffffffffffff021916908373ffffffffffffffffffffffffffffffffffffffff1602179055506001600760006101000a81548160ff02191690831515021790555050565b60008060009054906101000a900473ffffffffffffffffffffffffffffffffffffffff16905090565b6000611b13611e2f565b73ffffffffffffffffffffffffffffffffffffffff166000809054906101000a900473ffffffffffffffffffffffffffffffffffffffff1673ffffffffffffffffffffffffffffffffffffffff1614611bd4576040517f08c379a00000000000000000000000000000000000000000000000000000000081526004018080602001828103825260208152602001807f4f776e61626c653a2063616c6c6572206973206e6f7420746865206f776e657281525060200191505060405180910390fd5b600460009054906101000a900473ffffffffffffffffffffffffffffffffffffffff16905090565b600160009054906101000a900473ffffffffffffffffffffffffffffffffffffffff1681565b611c2a611e2f565b73ffffffffffffffffffffffffffffffffffffffff166000809054906101000a900473ffffffffffffffffffffffffffffffffffffffff1673ffffffffffffffffffffffffffffffffffffffff1614611ceb576040517f08c379a00000000000000000000000000000000000000000000000000000000081526004018080602001828103825260208152602001807f4f776e61626c653a2063616c6c6572206973206e6f7420746865206f776e657281525060200191505060405180910390fd5b600073ffffffffffffffffffffffffffffffffffffffff168173ffffffffffffffffffffffffffffffffffffffff161415611d71576040517f08c379a0000000000000000000000000000000000000000000000000000000008152600401808060200182810382526026815260200180611e686026913960400191505060405180910390fd5b8073ffffffffffffffffffffffffffffffffffffffff166000809054906101000a900473ffffffffffffffffffffffffffffffffffffffff1673ffffffffffffffffffffffffffffffffffffffff167f8be0079c531659141344cd1fd0a4f28419497f9722a3daafe3b4186f6b6457e060405160405180910390a3806000806101000a81548173ffffffffffffffffffffffffffffffffffffffff021916908373ffffffffffffffffffffffffffffffffffffffff16021790555050565b60003390509056fe53747564656e744170706c69636174696f6e3a206170706c69636174696f6e206e6f742066696e6973686564207965744f776e61626c653a206e6577206f776e657220697320746865207a65726f206164647265737353747564656e744170706c69636174696f6e3a2061726520796f75206368656174696e673f53747564656e744170706c69636174696f6e3a20616e73776572206e6f74207265676973746572656453747564656e744170706c69636174696f6e3a206f6e6c792073747564656e742063616e20776974686472617753747564656e744170706c69636174696f6e3a206170706c69636174696f6e206973206e6f742061637469766553747564656e744170706c69636174696f6e3a206765744f776e657220726573756c742069732077726f6e6753747564656e744170706c69636174696f6e3a206170706c69636174696f6e206973206e6f74204e657753747564656e744170706c69636174696f6e3a20636f756c64206e6f74207472616e736665722044414953747564656e744170706c69636174696f6e3a206170706c69636174696f6e206e6f742066696e697368656453747564656e744170706c69636174696f6e3a2072656164207065726d697373696f6e2064656e69656453747564656e744170706c69636174696f6e3a2068696e74206e6f7420617661696c61626c65a2646970667358221220ef751cc88871eb22ee568d294875519372971368466a629e4932f93905dc188f64736f6c634300060600334f776e61626c653a206e6577206f776e657220697320746865207a65726f2061646472657373436c617373726f6f6d3a2073747564656e7420646f65736e2774206861766520656e6f7567682073636f7265436c617373726f6f6d3a2063616e2774206368616e6765206368616c6c656e6765206e6f77436c617373726f6f6d3a206e6f7420656e6f7567682044414920746f2070726f63656564436c617373726f6f6d3a2072656164207065726d697373696f6e2064656e696564436c617373726f6f6d3a2073747564656e7473206c697374206e6f7420656d707479436c617373726f6f6d3a2070726f666573736f722063616e277420626520697473206f776e2073747564656e74536166654d6174683a206d756c7469706c69636174696f6e206f766572666c6f77436c617373726f6f6d3a20746f6f20736f6f6e20746f2066696e69736820636f75727365436c617373726f6f6d3a206170706c69636174696f6e7320617265207374696c6c206f70656e436c617373726f6f6d3a20696e7665737420616c6c2062616c616e6365206265666f726520626567696e436c617373726f6f6d3a206170706c69636174696f6e732061726520616c726561647920636c6f736564436c617373726f6f6d3a2073747564656e74206973206e6f742072656769737465726564436c617373726f6f6d3a206170706c69636174696f6e732061726520616c7265616479206f70656e6564a26469706673582212202ee2c530c5573894a15bc908e3da9ed977dbbf9404cdd2933d4ae8aae7d8fc5e64736f6c6343000606003360806040523480156200001157600080fd5b5060405162002dfb38038062002dfb833981810160405260408110156200003757600080fd5b810190808051906020019092919080519060200190929190505050600062000064620002fc60201b60201c565b9050806000806101000a81548173ffffffffffffffffffffffffffffffffffffffff021916908373ffffffffffffffffffffffffffffffffffffffff1602179055508073ffffffffffffffffffffffffffffffffffffffff16600073ffffffffffffffffffffffffffffffffffffffff167f8be0079c531659141344cd1fd0a4f28419497f9722a3daafe3b4186f6b6457e060405160405180910390a350816002819055506000600560006101000a81548163ffffffff021916908360030b63ffffffff16021790555080600360006101000a81548173ffffffffffffffffffffffffffffffffffffffff021916908373ffffffffffffffffffffffffffffffffffffffff160217905550620001936000801b62000187620002fc60201b60201c565b6200030460201b60201c565b620001e960405180807f524541445f53434f52455f524f4c450000000000000000000000000000000000815250600f0190506040518091039020620001dd620002fc60201b60201c565b6200031a60201b60201c565b6200023060405180807f4d4f444946595f53434f52455f524f4c4500000000000000000000000000000081525060110190506040518091039020826200031a60201b60201c565b8073ffffffffffffffffffffffffffffffffffffffff1662000257620002fc60201b60201c565b73ffffffffffffffffffffffffffffffffffffffff1614620002f457620002ba60405180807f524541445f53434f52455f524f4c450000000000000000000000000000000000815250600f0190506040518091039020826200031a60201b60201c565b620002cf6000801b826200031a60201b60201c565b620002f36000801b620002e7620002fc60201b60201c565b620003be60201b60201c565b5b50506200081c565b600033905090565b6200031682826200046960201b60201c565b5050565b62000351600160008481526020019081526020016000206002015462000345620002fc60201b60201c565b6200050d60201b60201c565b620003a8576040517f08c379a000000000000000000000000000000000000000000000000000000000815260040180806020018281038252602f81526020018062002d9d602f913960400191505060405180910390fd5b620003ba82826200046960201b60201c565b5050565b620003ce620002fc60201b60201c565b73ffffffffffffffffffffffffffffffffffffffff168173ffffffffffffffffffffffffffffffffffffffff161462000453576040517f08c379a000000000000000000000000000000000000000000000000000000000815260040180806020018281038252602f81526020018062002dcc602f913960400191505060405180910390fd5b6200046582826200054660201b60201c565b5050565b620004988160016000858152602001908152602001600020600001620005ea60201b620021731790919060201c565b156200050957620004ae620002fc60201b60201c565b73ffffffffffffffffffffffffffffffffffffffff168173ffffffffffffffffffffffffffffffffffffffff16837f2f8788117e7eff1d82e926ec794901d17c78024a50270940304540a733656f0d60405160405180910390a45b5050565b60006200053e82600160008681526020019081526020016000206000016200062260201b6200212e1790919060201c565b905092915050565b6200057581600160008581526020019081526020016000206000016200065a60201b620021a31790919060201c565b15620005e6576200058b620002fc60201b60201c565b73ffffffffffffffffffffffffffffffffffffffff168173ffffffffffffffffffffffffffffffffffffffff16837ff6391f5c32d9c69d2a47ea670b442974b53935d1edc7fd64eb21e047a839171b60405160405180910390a45b5050565b60006200061a836000018373ffffffffffffffffffffffffffffffffffffffff1660001b6200069260201b60201c565b905092915050565b600062000652836000018373ffffffffffffffffffffffffffffffffffffffff1660001b6200070c60201b60201c565b905092915050565b60006200068a836000018373ffffffffffffffffffffffffffffffffffffffff1660001b6200072f60201b60201c565b905092915050565b6000620006a683836200070c60201b60201c565b6200070157826000018290806001815401808255809150506001900390600052602060002001600090919091909150558260000180549050836001016000848152602001908152602001600020819055506001905062000706565b600090505b92915050565b600080836001016000848152602001908152602001600020541415905092915050565b600080836001016000848152602001908152602001600020549050600081146200081057600060018203905060006001866000018054905003905060008660000182815481106200077c57fe5b90600052602060002001549050808760000184815481106200079a57fe5b9060005260206000200181905550600183018760010160008381526020019081526020016000208190555086600001805480620007d357fe5b6001900381819060005260206000200160009055905586600101600087815260200190815260200160002060009055600194505050505062000816565b60009150505b92915050565b612571806200082c6000396000f3fe608060405234801561001057600080fd5b50600436106101a95760003560e01c80638da5cb5b116100f9578063ba6019d311610097578063d547741f11610071578063d547741f146107d8578063db4d5e8714610826578063efedc6691461088a578063f2fde38b146108ae576101a9565b8063ba6019d3146106de578063be22f5461461074c578063ca15c87314610796576101a9565b80639fcb17de116100d35780639fcb17de14610573578063a217fddf146105e1578063a8809410146105ff578063aa4f38c7146106ad576101a9565b80638da5cb5b1461044b5780639010d07c1461049557806391d148541461050d576101a9565b806331fb5fde1161016657806369e527da1161014057806369e527da146103ab578063715018a6146103f55780637206f3d6146103ff578063898855ed1461041d576101a9565b806331fb5fde146102e857806336568abe1461032c578063686513501461037a576101a9565b806306fdde03146101ae5780631b99219f146101cc578063222baa3a146101ea578063248a9ca3146101f4578063295869be146102365780632f2ff15d1461029a575b600080fd5b6101b66108f2565b6040518082815260200191505060405180910390f35b6101d46108f8565b6040518082815260200191505060405180910390f35b6101f2610931565b005b6102206004803603602081101561020a57600080fd5b8101908080359060200190929190505050610a1e565b6040518082815260200191505060405180910390f35b6102986004803603604081101561024c57600080fd5b81019080803573ffffffffffffffffffffffffffffffffffffffff169060200190929190803573ffffffffffffffffffffffffffffffffffffffff169060200190929190505050610a3e565b005b6102e6600480360360408110156102b057600080fd5b8101908080359060200190929190803573ffffffffffffffffffffffffffffffffffffffff169060200190929190505050610b95565b005b61032a600480360360208110156102fe57600080fd5b81019080803573ffffffffffffffffffffffffffffffffffffffff169060200190929190505050610c1f565b005b6103786004803603604081101561034257600080fd5b8101908080359060200190929190803573ffffffffffffffffffffffffffffffffffffffff169060200190929190505050610f1c565b005b6103a96004803603602081101561039057600080fd5b81019080803560030b9060200190929190505050610fb5565b005b6103b3611124565b604051808273ffffffffffffffffffffffffffffffffffffffff1673ffffffffffffffffffffffffffffffffffffffff16815260200191505060405180910390f35b6103fd61114a565b005b6104076112d2565b6040518082815260200191505060405180910390f35b6104496004803603602081101561043357600080fd5b810190808035906020019092919050505061130b565b005b610453611417565b604051808273ffffffffffffffffffffffffffffffffffffffff1673ffffffffffffffffffffffffffffffffffffffff16815260200191505060405180910390f35b6104cb600480360360408110156104ab57600080fd5b810190808035906020019092919080359060200190929190505050611440565b604051808273ffffffffffffffffffffffffffffffffffffffff1673ffffffffffffffffffffffffffffffffffffffff16815260200191505060405180910390f35b6105596004803603604081101561052357600080fd5b8101908080359060200190929190803573ffffffffffffffffffffffffffffffffffffffff169060200190929190505050611472565b604051808215151515815260200191505060405180910390f35b6105df6004803603606081101561058957600080fd5b81019080803573ffffffffffffffffffffffffffffffffffffffff169060200190929190803573ffffffffffffffffffffffffffffffffffffffff169060200190929190803590602001909291905050506114a4565b005b6105e9611611565b6040518082815260200191505060405180910390f35b6106ab600480360361010081101561061657600080fd5b81019080803573ffffffffffffffffffffffffffffffffffffffff16906020019092919080359060200190929190803562ffffff169060200190929190803562ffffff169060200190929190803560030b90602001909291908035906020019092919080359060200190929190803573ffffffffffffffffffffffffffffffffffffffff169060200190929190505050611618565b005b6106dc600480360360208110156106c357600080fd5b81019080803560030b9060200190929190505050611822565b005b61074a600480360360608110156106f457600080fd5b81019080803573ffffffffffffffffffffffffffffffffffffffff169060200190929190803573ffffffffffffffffffffffffffffffffffffffff16906020019092919080359060200190929190505050611991565b005b610754611aea565b604051808273ffffffffffffffffffffffffffffffffffffffff1673ffffffffffffffffffffffffffffffffffffffff16815260200191505060405180910390f35b6107c2600480360360208110156107ac57600080fd5b8101908080359060200190929190505050611b10565b6040518082815260200191505060405180910390f35b610824600480360360408110156107ee57600080fd5b8101908080359060200190929190803573ffffffffffffffffffffffffffffffffffffffff169060200190929190505050611b37565b005b6108886004803603604081101561083c57600080fd5b81019080803573ffffffffffffffffffffffffffffffffffffffff169060200190929190803573ffffffffffffffffffffffffffffffffffffffff169060200190929190505050611bc1565b005b610892611d25565b604051808260030b60030b815260200191505060405180910390f35b6108f0600480360360208110156108c457600080fd5b81019080803573ffffffffffffffffffffffffffffffffffffffff169060200190929190505050611dd7565b005b60025481565b60405180807f524541445f53434f52455f524f4c450000000000000000000000000000000000815250600f019050604051809103902081565b60008090505b600480549050811015610a1b5761094c611fe4565b73ffffffffffffffffffffffffffffffffffffffff166004828154811061096f57fe5b9060005260206000200160009054906101000a900473ffffffffffffffffffffffffffffffffffffffff1673ffffffffffffffffffffffffffffffffffffffff161415610a0e576000600482815481106109c557fe5b9060005260206000200160006101000a81548173ffffffffffffffffffffffffffffffffffffffff021916908373ffffffffffffffffffffffffffffffffffffffff1602179055505b8080600101915050610937565b50565b600060016000838152602001908152602001600020600201549050919050565b610a46611fe4565b73ffffffffffffffffffffffffffffffffffffffff166000809054906101000a900473ffffffffffffffffffffffffffffffffffffffff1673ffffffffffffffffffffffffffffffffffffffff1614610b07576040517f08c379a00000000000000000000000000000000000000000000000000000000081526004018080602001828103825260208152602001807f4f776e61626c653a2063616c6c6572206973206e6f7420746865206f776e657281525060200191505060405180910390fd5b610b918273ffffffffffffffffffffffffffffffffffffffff16636e8055a76040518163ffffffff1660e01b815260040160206040518083038186803b158015610b5057600080fd5b505afa158015610b64573d6000803e3d6000fd5b505050506040513d6020811015610b7a57600080fd5b810190808051906020019092919050505082611bc1565b5050565b610bbc6001600084815260200190815260200160002060020154610bb7611fe4565b611472565b610c11576040517f08c379a000000000000000000000000000000000000000000000000000000000815260040180806020018281038252602f815260200180612405602f913960400191505060405180910390fd5b610c1b8282611fec565b5050565b610c27611fe4565b73ffffffffffffffffffffffffffffffffffffffff166000809054906101000a900473ffffffffffffffffffffffffffffffffffffffff1673ffffffffffffffffffffffffffffffffffffffff1614610ce8576040517f08c379a00000000000000000000000000000000000000000000000000000000081526004018080602001828103825260208152602001807f4f776e61626c653a2063616c6c6572206973206e6f7420746865206f776e657281525060200191505060405180910390fd5b600360009054906101000a900473ffffffffffffffffffffffffffffffffffffffff1673ffffffffffffffffffffffffffffffffffffffff166385dade61826040518263ffffffff1660e01b8152600401808273ffffffffffffffffffffffffffffffffffffffff1673ffffffffffffffffffffffffffffffffffffffff16815260200191505060206040518083038186803b158015610d8757600080fd5b505afa158015610d9b573d6000803e3d6000fd5b505050506040513d6020811015610db157600080fd5b8101908080519060200190929190505050610e17576040517f08c379a00000000000000000000000000000000000000000000000000000000081526004018080602001828103825260298152602001806125136029913960400191505060405180910390fd5b610e5660405180807f524541445f53434f52455f524f4c450000000000000000000000000000000000815250600f019050604051809103902082610b95565b8073ffffffffffffffffffffffffffffffffffffffff16631b9dbc606040518163ffffffff1660e01b8152600401600060405180830381600087803b158015610e9e57600080fd5b505af1158015610eb2573d6000803e3d6000fd5b505050506004819080600181540180825580915050600190039060005260206000200160009091909190916101000a81548173ffffffffffffffffffffffffffffffffffffffff021916908373ffffffffffffffffffffffffffffffffffffffff16021790555050565b610f24611fe4565b73ffffffffffffffffffffffffffffffffffffffff168173ffffffffffffffffffffffffffffffffffffffff1614610fa7576040517f08c379a000000000000000000000000000000000000000000000000000000000815260040180806020018281038252602f8152602001806124e4602f913960400191505060405180910390fd5b610fb18282612080565b5050565b610ffb60405180807f4d4f444946595f53434f52455f524f4c4500000000000000000000000000000081525060110190506040518091039020610ff6611fe4565b611472565b611050576040517f08c379a000000000000000000000000000000000000000000000000000000000815260040180806020018281038252602e815260200180612434602e913960400191505060405180910390fd5b80600560009054906101000a900460030b0360030b600560009054906101000a900460030b60030b136110eb576040517f08c379a000000000000000000000000000000000000000000000000000000000815260040180806020018281038252601c8152602001807f53747564656e743a2062616420677261646573206f766572666c6f770000000081525060200191505060405180910390fd5b80600560008282829054906101000a900460030b0392506101000a81548163ffffffff021916908360030b63ffffffff16021790555050565b600660009054906101000a900473ffffffffffffffffffffffffffffffffffffffff1681565b611152611fe4565b73ffffffffffffffffffffffffffffffffffffffff166000809054906101000a900473ffffffffffffffffffffffffffffffffffffffff1673ffffffffffffffffffffffffffffffffffffffff1614611213576040517f08c379a00000000000000000000000000000000000000000000000000000000081526004018080602001828103825260208152602001807f4f776e61626c653a2063616c6c6572206973206e6f7420746865206f776e657281525060200191505060405180910390fd5b600073ffffffffffffffffffffffffffffffffffffffff166000809054906101000a900473ffffffffffffffffffffffffffffffffffffffff1673ffffffffffffffffffffffffffffffffffffffff167f8be0079c531659141344cd1fd0a4f28419497f9722a3daafe3b4186f6b6457e060405160405180910390a360008060006101000a81548173ffffffffffffffffffffffffffffffffffffffff021916908373ffffffffffffffffffffffffffffffffffffffff160217905550565b60405180807f4d4f444946595f53434f52455f524f4c450000000000000000000000000000008152506011019050604051809103902081565b611313611fe4565b73ffffffffffffffffffffffffffffffffffffffff166000809054906101000a900473ffffffffffffffffffffffffffffffffffffffff1673ffffffffffffffffffffffffffffffffffffffff16146113d4576040517f08c379a00000000000000000000000000000000000000000000000000000000081526004018080602001828103825260208152602001807f4f776e61626c653a2063616c6c6572206973206e6f7420746865206f776e657281525060200191505060405180910390fd5b806002819055507f9f8929be552430dd6434c446d106c34954b2040ca8c4dbf42a39323dd6cda3ca6002546040518082815260200191505060405180910390a150565b60008060009054906101000a900473ffffffffffffffffffffffffffffffffffffffff16905090565b600061146a826001600086815260200190815260200160002060000161211490919063ffffffff16565b905092915050565b600061149c826001600086815260200190815260200160002060000161212e90919063ffffffff16565b905092915050565b6114ac611fe4565b73ffffffffffffffffffffffffffffffffffffffff166000809054906101000a900473ffffffffffffffffffffffffffffffffffffffff1673ffffffffffffffffffffffffffffffffffffffff161461156d576040517f08c379a00000000000000000000000000000000000000000000000000000000081526004018080602001828103825260208152602001807f4f776e61626c653a2063616c6c6572206973206e6f7420746865206f776e657281525060200191505060405180910390fd5b8273ffffffffffffffffffffffffffffffffffffffff16633db0bfd283836040518363ffffffff1660e01b8152600401808373ffffffffffffffffffffffffffffffffffffffff1673ffffffffffffffffffffffffffffffffffffffff16815260200182815260200192505050600060405180830381600087803b1580156115f457600080fd5b505af1158015611608573d6000803e3d6000fd5b50505050505050565b6000801b81565b611620611fe4565b73ffffffffffffffffffffffffffffffffffffffff166000809054906101000a900473ffffffffffffffffffffffffffffffffffffffff1673ffffffffffffffffffffffffffffffffffffffff16146116e1576040517f08c379a00000000000000000000000000000000000000000000000000000000081526004018080602001828103825260208152602001807f4f776e61626c653a2063616c6c6572206973206e6f7420746865206f776e657281525060200191505060405180910390fd5b600360009054906101000a900473ffffffffffffffffffffffffffffffffffffffff1673ffffffffffffffffffffffffffffffffffffffff16637fd5c10889898989898989896040518963ffffffff1660e01b8152600401808973ffffffffffffffffffffffffffffffffffffffff1673ffffffffffffffffffffffffffffffffffffffff1681526020018881526020018762ffffff1662ffffff1681526020018662ffffff1662ffffff1681526020018560030b60030b81526020018481526020018381526020018273ffffffffffffffffffffffffffffffffffffffff1673ffffffffffffffffffffffffffffffffffffffff16815260200198505050505050505050600060405180830381600087803b15801561180057600080fd5b505af1158015611814573d6000803e3d6000fd5b505050505050505050505050565b61186860405180807f4d4f444946595f53434f52455f524f4c4500000000000000000000000000000081525060110190506040518091039020611863611fe4565b611472565b6118bd576040517f08c379a000000000000000000000000000000000000000000000000000000000815260040180806020018281038252602e815260200180612434602e913960400191505060405180910390fd5b80600560009054906101000a900460030b0160030b600560009054906101000a900460030b60030b12611958576040517f08c379a000000000000000000000000000000000000000000000000000000000815260040180806020018281038252601d8152602001807f53747564656e743a20676f6f6420677261646573206f766572666c6f7700000081525060200191505060405180910390fd5b80600560008282829054906101000a900460030b0192506101000a81548163ffffffff021916908360030b63ffffffff16021790555050565b611999611fe4565b73ffffffffffffffffffffffffffffffffffffffff166000809054906101000a900473ffffffffffffffffffffffffffffffffffffffff1673ffffffffffffffffffffffffffffffffffffffff1614611a5a576040517f08c379a00000000000000000000000000000000000000000000000000000000081526004018080602001828103825260208152602001807f4f776e61626c653a2063616c6c6572206973206e6f7420746865206f776e657281525060200191505060405180910390fd5b611ae58373ffffffffffffffffffffffffffffffffffffffff16636e8055a76040518163ffffffff1660e01b815260040160206040518083038186803b158015611aa357600080fd5b505afa158015611ab7573d6000803e3d6000fd5b505050506040513d6020811015611acd57600080fd5b810190808051906020019092919050505083836114a4565b505050565b600560049054906101000a900473ffffffffffffffffffffffffffffffffffffffff1681565b6000611b306001600084815260200190815260200160002060000161215e565b9050919050565b611b5e6001600084815260200190815260200160002060020154611b59611fe4565b611472565b611bb3576040517f08c379a00000000000000000000000000000000000000000000000000000000081526004018080602001828103825260308152602001806124b46030913960400191505060405180910390fd5b611bbd8282612080565b5050565b611bc9611fe4565b73ffffffffffffffffffffffffffffffffffffffff166000809054906101000a900473ffffffffffffffffffffffffffffffffffffffff1673ffffffffffffffffffffffffffffffffffffffff1614611c8a576040517f08c379a00000000000000000000000000000000000000000000000000000000081526004018080602001828103825260208152602001807f4f776e61626c653a2063616c6c6572206973206e6f7420746865206f776e657281525060200191505060405180910390fd5b8173ffffffffffffffffffffffffffffffffffffffff166366995a46826040518263ffffffff1660e01b8152600401808273ffffffffffffffffffffffffffffffffffffffff1673ffffffffffffffffffffffffffffffffffffffff168152602001915050600060405180830381600087803b158015611d0957600080fd5b505af1158015611d1d573d6000803e3d6000fd5b505050505050565b6000611d6d60405180807f524541445f53434f52455f524f4c450000000000000000000000000000000000815250600f0190506040518091039020611d68611fe4565b611472565b611dc2576040517f08c379a000000000000000000000000000000000000000000000000000000000815260040180806020018281038252602c815260200180612488602c913960400191505060405180910390fd5b600560009054906101000a900460030b905090565b611ddf611fe4565b73ffffffffffffffffffffffffffffffffffffffff166000809054906101000a900473ffffffffffffffffffffffffffffffffffffffff1673ffffffffffffffffffffffffffffffffffffffff1614611ea0576040517f08c379a00000000000000000000000000000000000000000000000000000000081526004018080602001828103825260208152602001807f4f776e61626c653a2063616c6c6572206973206e6f7420746865206f776e657281525060200191505060405180910390fd5b600073ffffffffffffffffffffffffffffffffffffffff168173ffffffffffffffffffffffffffffffffffffffff161415611f26576040517f08c379a00000000000000000000000000000000000000000000000000000000081526004018080602001828103825260268152602001806124626026913960400191505060405180910390fd5b8073ffffffffffffffffffffffffffffffffffffffff166000809054906101000a900473ffffffffffffffffffffffffffffffffffffffff1673ffffffffffffffffffffffffffffffffffffffff167f8be0079c531659141344cd1fd0a4f28419497f9722a3daafe3b4186f6b6457e060405160405180910390a3806000806101000a81548173ffffffffffffffffffffffffffffffffffffffff021916908373ffffffffffffffffffffffffffffffffffffffff16021790555050565b600033905090565b612014816001600085815260200190815260200160002060000161217390919063ffffffff16565b1561207c57612021611fe4565b73ffffffffffffffffffffffffffffffffffffffff168173ffffffffffffffffffffffffffffffffffffffff16837f2f8788117e7eff1d82e926ec794901d17c78024a50270940304540a733656f0d60405160405180910390a45b5050565b6120a881600160008581526020019081526020016000206000016121a390919063ffffffff16565b15612110576120b5611fe4565b73ffffffffffffffffffffffffffffffffffffffff168173ffffffffffffffffffffffffffffffffffffffff16837ff6391f5c32d9c69d2a47ea670b442974b53935d1edc7fd64eb21e047a839171b60405160405180910390a45b5050565b600061212383600001836121d3565b60001c905092915050565b6000612156836000018373ffffffffffffffffffffffffffffffffffffffff1660001b612256565b905092915050565b600061216c82600001612279565b9050919050565b600061219b836000018373ffffffffffffffffffffffffffffffffffffffff1660001b61228a565b905092915050565b60006121cb836000018373ffffffffffffffffffffffffffffffffffffffff1660001b6122fa565b905092915050565b600081836000018054905011612234576040517f08c379a00000000000000000000000000000000000000000000000000000000081526004018080602001828103825260228152602001806123e36022913960400191505060405180910390fd5b82600001828154811061224357fe5b9060005260206000200154905092915050565b600080836001016000848152602001908152602001600020541415905092915050565b600081600001805490509050919050565b60006122968383612256565b6122ef5782600001829080600181540180825580915050600190039060005260206000200160009091909190915055826000018054905083600101600084815260200190815260200160002081905550600190506122f4565b600090505b92915050565b600080836001016000848152602001908152602001600020549050600081146123d6576000600182039050600060018660000180549050039050600086600001828154811061234557fe5b906000526020600020015490508087600001848154811061236257fe5b906000526020600020018190555060018301876001016000838152602001908152602001600020819055508660000180548061239a57fe5b600190038181906000526020600020016000905590558660010160008781526020019081526020016000206000905560019450505050506123dc565b60009150505b9291505056fe456e756d657261626c655365743a20696e646578206f7574206f6620626f756e6473416363657373436f6e74726f6c3a2073656e646572206d75737420626520616e2061646d696e20746f206772616e7453747564656e743a2063616c6c657220646f65736e27742068617665204d4f444946595f53434f52455f524f4c454f776e61626c653a206e6577206f776e657220697320746865207a65726f206164647265737353747564656e743a2063616c6c657220646f65736e2774206861766520524541445f53434f52455f524f4c45416363657373436f6e74726f6c3a2073656e646572206d75737420626520616e2061646d696e20746f207265766f6b65416363657373436f6e74726f6c3a2063616e206f6e6c792072656e6f756e636520726f6c657320666f722073656c6653747564656e743a2061646472657373206973206e6f7420612076616c696420636c617373726f6f6da2646970667358221220661baa400094c1e633baf8579854ea12fdda39ec1eabf5ff22063b6b5e02db4164736f6c63430006060033416363657373436f6e74726f6c3a2073656e646572206d75737420626520616e2061646d696e20746f206772616e74416363657373436f6e74726f6c3a2063616e206f6e6c792072656e6f756e636520726f6c657320666f722073656c66456e756d657261626c655365743a20696e646578206f7574206f6620626f756e6473416363657373436f6e74726f6c3a2073656e646572206d75737420626520616e2061646d696e20746f206772616e74556e69766572736974793a2063616c6c657220646f65736e2774206861766520524541445f53545544454e545f4c4953545f524f4c454f776e61626c653a206e6577206f776e657220697320746865207a65726f2061646472657373556e69766572736974793a2063616c6c657220646f65736e277420686176652046554e44535f4d414e414745525f524f4c45556e69766572736974793a2073747564656e7420616c72656164792072656769737465726564556e69766572736974793a2063616c6c6572206973206e6f742073747564656e74206f662074686973206170706c69636174696f6e556e69766572736974793a2063616c6c657220646f65736e2774206861766520434c4153534c4953545f41444d494e5f524f4c45436c617373726f6f6d3a2072656164207065726d697373696f6e2064656e696564416363657373436f6e74726f6c3a2073656e646572206d75737420626520616e2061646d696e20746f207265766f6b65556e69766572736974793a2063616c6c657220646f65736e277420686176652053545544454e545f524f4c45556e69766572736974793a206170706c69636174696f6e206973206e6f74207375636365737366756c556e69766572736974793a2063616c6c657220646f65736e2774206861766520434c415353524f4f4d5f524f4c45416363657373436f6e74726f6c3a2063616e206f6e6c792072656e6f756e636520726f6c657320666f722073656c66a26469706673582212208a5a2939a583588149f0149c1c72c4c17ccaa12dc08f7bd43d9d2fb7b2e8b92a64736f6c63430006060033416363657373436f6e74726f6c3a2073656e646572206d75737420626520616e2061646d696e20746f206772616e74",
  "immutableReferences": {},
  "source": "pragma solidity 0.6.6;\r\n\r\nimport \"@openzeppelin/contracts/math/SafeMath.sol\";\r\nimport \"@openzeppelin/contracts/access/AccessControl.sol\";\r\nimport \"@openzeppelin/contracts/access/Ownable.sol\";\r\nimport \"@openzeppelin/contracts/token/ERC20/IERC20.sol\";\r\nimport \"@openzeppelin/contracts/utils/Address.sol\";\r\nimport \"./Classroom.sol\";\r\nimport \"./Student.sol\";\r\nimport \"./StudentApplication.sol\";\r\n\r\n\r\ninterface CERC20 {\r\n    function mint(uint256) external returns (uint256);\r\n\r\n    function exchangeRateCurrent() external returns (uint256);\r\n\r\n    function supplyRatePerBlock() external returns (uint256);\r\n\r\n    function redeem(uint256) external returns (uint256);\r\n\r\n    function redeemUnderlying(uint256) external returns (uint256);\r\n\r\n    function getCash() external returns (uint256);\r\n\r\n    function balanceOfUnderlying(address account) external returns (uint256);\r\n}\r\n\r\n\r\ncontract University is Ownable, AccessControl {\r\n    using SafeMath for uint256;\r\n\r\n    //CLASSLIST_ADMIN_ROLE can add new manually created classes to the list\r\n    bytes32 public constant CLASSLIST_ADMIN_ROLE = keccak256(\r\n        \"CLASSLIST_ADMIN_ROLE\"\r\n    );\r\n    // FUNDS_MANAGER_ROLE can withdraw funds from the contract\r\n    bytes32 public constant FUNDS_MANAGER_ROLE = keccak256(\r\n        \"FUNDS_MANAGER_ROLE\"\r\n    );\r\n    // GRANTS_MANAGER_ROLE can approve/decline grant claims\r\n    bytes32 public constant GRANTS_MANAGER_ROLE = keccak256(\r\n        \"GRANTS_MANAGER_ROLE\"\r\n    );\r\n    // CLASSROOM_ROLE can manage itself inside the University and registering student applications\r\n    bytes32 public constant CLASSROOM_ROLE = keccak256(\"CLASSROOM_ROLE\");\r\n    // READ_STUDENT_LIST_ROLE allow reading students list\r\n    bytes32 public constant READ_STUDENT_LIST_ROLE = keccak256(\r\n        \"READ_STUDENT_LIST_ROLE\"\r\n    );\r\n    // STUDENT_ROLE allow asking for grants and requesting a classroom from a successful application\r\n    bytes32 public constant STUDENT_ROLE = keccak256(\"STUDENT_ROLE\");\r\n\r\n    // Parameter: Name of this University\r\n    bytes32 public name;\r\n    // Parameter: University cut from professor (Parts per Million)\r\n    uint24 public cut;\r\n    // List of every registered classroom\r\n    Classroom[] public _classList;\r\n    // List of every student\r\n    Student[] _students;\r\n    // Mapping of each student's applications\r\n    mapping(address => address[]) _studentApplicationsMapping;\r\n    // Address list of every donor\r\n    address[] _donors;\r\n\r\n    CERC20 public cToken;\r\n    IERC20 public daiToken;\r\n\r\n    constructor(\r\n        bytes32 _name,\r\n        uint24 _cut,\r\n        address daiAddress,\r\n        address compoundAddress\r\n    ) public {\r\n        name = _name;\r\n        cut = _cut;\r\n        _classList = new Classroom[](0);\r\n        _students = new Student[](0);\r\n        _setupRole(DEFAULT_ADMIN_ROLE, _msgSender());\r\n        grantRole(READ_STUDENT_LIST_ROLE, _msgSender());\r\n        //Kovan address\r\n        daiToken = IERC20(daiAddress);\r\n        cToken = CERC20(compoundAddress);\r\n    }\r\n\r\n    event LogNewClassroom(bytes32, address);\r\n    event LogChangeName(bytes32);\r\n    event LogChangeCut(uint24);\r\n\r\n    function changeName(bytes32 val) public onlyOwner {\r\n        name = val;\r\n        emit LogChangeName(name);\r\n    }\r\n\r\n    function changeCut(uint24 val) public onlyOwner {\r\n        cut = val;\r\n        emit LogChangeCut(cut);\r\n    }\r\n\r\n    function isValidClassroom(address classroom) public view returns (bool) {\r\n        return hasRole(CLASSROOM_ROLE, classroom);\r\n    }\r\n\r\n    function studentIsRegistered(address student) public view returns (bool) {\r\n        require(\r\n            hasRole(READ_STUDENT_LIST_ROLE, _msgSender()),\r\n            \"University: caller doesn't have READ_STUDENT_LIST_ROLE\"\r\n        );\r\n        return hasRole(STUDENT_ROLE, student);\r\n    }\r\n\r\n    //ex: owner, name, 0.2 * 10**6, 0.5 * 10**6, 0, 50 * (10 ** 18), 30 days, challengeAddress\r\n    function newClassRoom(\r\n        address owner,\r\n        bytes32 cName,\r\n        uint24 cCut,\r\n        uint24 cPCut,\r\n        int32 minScore,\r\n        uint256 entryPrice,\r\n        uint256 duration,\r\n        address challengeAddress\r\n    ) public {\r\n        require(\r\n            hasRole(CLASSLIST_ADMIN_ROLE, _msgSender()),\r\n            \"University: caller doesn't have CLASSLIST_ADMIN_ROLE\"\r\n        );\r\n        _newClassRoom(\r\n            owner,\r\n            cName,\r\n            cCut,\r\n            cPCut,\r\n            minScore,\r\n            entryPrice,\r\n            duration,\r\n            challengeAddress\r\n        );\r\n    }\r\n\r\n    function _newClassRoom(\r\n        address owner,\r\n        bytes32 cName,\r\n        uint24 cCut,\r\n        uint24 cPCut,\r\n        int32 minScore,\r\n        uint256 entryPrice,\r\n        uint256 duration,\r\n        address challengeAddress\r\n    ) internal {\r\n        //TODO: fetch contract from external factory to reduce size\r\n        Classroom classroom = new Classroom(\r\n            cName,\r\n            cCut,\r\n            cPCut,\r\n            minScore,\r\n            entryPrice,\r\n            duration,\r\n            address(this),\r\n            address(daiToken),\r\n            address(cToken),\r\n            challengeAddress\r\n        );\r\n        classroom.transferOwnership(owner);\r\n        _classList.push(classroom);\r\n        grantRole(READ_STUDENT_LIST_ROLE, address(classroom));\r\n        grantRole(CLASSROOM_ROLE, address(classroom));\r\n        emit LogNewClassroom(cName, address(classroom));\r\n    }\r\n\r\n    //TODO: Use GSN to improve UX for new student\r\n    function studentSelfRegister(bytes32 sName) public {\r\n        require(\r\n            _studentApplicationsMapping[_msgSender()].length == 0,\r\n            \"University: student already registered\"\r\n        );\r\n        _newStudent(sName, _msgSender());\r\n    }\r\n\r\n    function _newStudent(bytes32 sName, address addr) internal {\r\n        //Gambiarra: Push address(0) in the mapping to mark that student as registered in the university\r\n        _studentApplicationsMapping[addr].push(address(0));\r\n        //TODO: fetch contract from external factory to reduce size\r\n        Student student = new Student(sName, address(this));\r\n        student.transferOwnership(addr);\r\n        _students.push(student);\r\n        grantRole(STUDENT_ROLE, address(student));\r\n    }\r\n\r\n    function registerStudentApplication(address student, address application)\r\n        public\r\n    {\r\n        require(\r\n            hasRole(CLASSROOM_ROLE, _msgSender()),\r\n            \"University: caller doesn't have CLASSROOM_ROLE\"\r\n        );\r\n        _studentApplicationsMapping[student].push(application);\r\n    }\r\n\r\n    function viewMyApplications() public view returns (address[] memory) {\r\n        return viewStudentApplications(_msgSender());\r\n    }\r\n\r\n    function viewStudentApplications(address addr)\r\n        public\r\n        view\r\n        returns (address[] memory)\r\n    {\r\n        require(\r\n            addr == _msgSender() || hasRole(GRANTS_MANAGER_ROLE, _msgSender()),\r\n            \"Classroom: read permission denied\"\r\n        );\r\n        return _studentApplicationsMapping[addr];\r\n    }\r\n\r\n    function studentRequestClassroom(\r\n        address applicationAddr,\r\n        bytes32 cName,\r\n        uint24 cCut,\r\n        uint24 cPCut,\r\n        int32 minScore,\r\n        uint256 entryPrice,\r\n        uint256 duration,\r\n        address challenge\r\n    ) public {\r\n        require(\r\n            hasRole(STUDENT_ROLE, _msgSender()),\r\n            \"University: caller doesn't have STUDENT_ROLE\"\r\n        );\r\n        StudentApplication application = StudentApplication(applicationAddr);\r\n        require(\r\n            checkForStudentApplication(_msgSender(), applicationAddr),\r\n            \"University: caller is not student of this application\"\r\n        );\r\n        require(\r\n            application.applicationState() == 3,\r\n            \"University: application is not successful\"\r\n        );\r\n        _newClassRoom(\r\n            Student(_msgSender()).owner(),\r\n            cName,\r\n            cCut,\r\n            cPCut,\r\n            minScore,\r\n            entryPrice,\r\n            duration,\r\n            challenge\r\n        );\r\n    }\r\n\r\n    function checkForStudentApplication(\r\n        address studentAddress,\r\n        address applicationAddress\r\n    ) internal view returns (bool) {\r\n        for (\r\n            uint256 i = 0;\r\n            i < _studentApplicationsMapping[studentAddress].length;\r\n            i++\r\n        ) {\r\n            if (\r\n                _studentApplicationsMapping[studentAddress][i] ==\r\n                applicationAddress\r\n            ) return true;\r\n        }\r\n        return false;\r\n    }\r\n\r\n    function addStudentScore(address student, int32 val) public {\r\n        require(\r\n            hasRole(CLASSROOM_ROLE, _msgSender()),\r\n            \"University: caller doesn't have CLASSROOM_ROLE\"\r\n        );\r\n        Student(student).addScore(val);\r\n    }\r\n\r\n    function subStudentScore(address student, int32 val) public {\r\n        require(\r\n            hasRole(CLASSROOM_ROLE, _msgSender()),\r\n            \"University: caller doesn't have CLASSROOM_ROLE\"\r\n        );\r\n        Student(student).subScore(val);\r\n    }\r\n\r\n    function applyFunds(uint256 val) public {\r\n        require(\r\n            hasRole(FUNDS_MANAGER_ROLE, _msgSender()),\r\n            \"University: caller doesn't have FUNDS_MANAGER_ROLE\"\r\n        );\r\n        daiToken.approve(address(cToken), val);\r\n        cToken.mint(val);\r\n    }\r\n\r\n    function recoverFunds(uint256 val) public {\r\n        require(\r\n            hasRole(FUNDS_MANAGER_ROLE, _msgSender()),\r\n            \"University: caller doesn't have FUNDS_MANAGER_ROLE\"\r\n        );\r\n        cToken.redeemUnderlying(val);\r\n    }\r\n\r\n    function spendFunds(address to, uint256 val) public {\r\n        require(\r\n            hasRole(FUNDS_MANAGER_ROLE, _msgSender()),\r\n            \"University: caller doesn't have FUNDS_MANAGER_ROLE\"\r\n        );\r\n        daiToken.transfer(to, val);\r\n    }\r\n\r\n    function allowFunds(address to, uint256 val) public {\r\n        require(\r\n            hasRole(FUNDS_MANAGER_ROLE, _msgSender()),\r\n            \"University: caller doesn't have FUNDS_MANAGER_ROLE\"\r\n        );\r\n        daiToken.approve(to, val);\r\n    }\r\n\r\n    //TODO: manage grants\r\n\r\n    //TODO: implement funds manager\r\n\r\n    //TODO: implement funds manager governance\r\n}\r\n",
  "sourcePath": "/mnt/e/Repositories/Uproot/contracts/University.sol",
  "compiler": {
    "name": "solc",
    "version": "0.6.6+commit.6c089d02.Emscripten.clang"
  },
  "schemaVersion": "3.1.0",
  "updatedAt": "2020-05-03T19:47:55.198Z",
  "devdoc": {
    "methods": {
      "getRoleAdmin(bytes32)": {
        "details": "Returns the admin role that controls `role`. See {grantRole} and {revokeRole}.     * To change a role's admin, use {_setRoleAdmin}."
      },
      "getRoleMember(bytes32,uint256)": {
        "details": "Returns one of the accounts that have `role`. `index` must be a value between 0 and {getRoleMemberCount}, non-inclusive.     * Role bearers are not sorted in any particular way, and their ordering may change at any point.     * WARNING: When using {getRoleMember} and {getRoleMemberCount}, make sure you perform all queries on the same block. See the following https://forum.openzeppelin.com/t/iterating-over-elements-on-enumerableset-in-openzeppelin-contracts/2296[forum post] for more information."
      },
      "getRoleMemberCount(bytes32)": {
        "details": "Returns the number of accounts that have `role`. Can be used together with {getRoleMember} to enumerate all bearers of a role."
      },
      "grantRole(bytes32,address)": {
        "details": "Grants `role` to `account`.     * If `account` had not been already granted `role`, emits a {RoleGranted} event.     * Requirements:     * - the caller must have ``role``'s admin role."
      },
      "hasRole(bytes32,address)": {
        "details": "Returns `true` if `account` has been granted `role`."
      },
      "owner()": {
        "details": "Returns the address of the current owner."
      },
      "renounceOwnership()": {
        "details": "Leaves the contract without owner. It will not be possible to call `onlyOwner` functions anymore. Can only be called by the current owner.     * NOTE: Renouncing ownership will leave the contract without an owner, thereby removing any functionality that is only available to the owner."
      },
      "renounceRole(bytes32,address)": {
        "details": "Revokes `role` from the calling account.     * Roles are often managed via {grantRole} and {revokeRole}: this function's purpose is to provide a mechanism for accounts to lose their privileges if they are compromised (such as when a trusted device is misplaced).     * If the calling account had been granted `role`, emits a {RoleRevoked} event.     * Requirements:     * - the caller must be `account`."
      },
      "revokeRole(bytes32,address)": {
        "details": "Revokes `role` from `account`.     * If `account` had been granted `role`, emits a {RoleRevoked} event.     * Requirements:     * - the caller must have ``role``'s admin role."
      },
      "transferOwnership(address)": {
        "details": "Transfers ownership of the contract to a new account (`newOwner`). Can only be called by the current owner."
      }
    }
  },
  "userdoc": {
    "methods": {}
  }
}