{
  "contractName": "University",
  "abi": [
    {
      "inputs": [
        {
          "internalType": "bytes32",
          "name": "_name",
          "type": "bytes32"
        },
        {
          "internalType": "uint24",
          "name": "_cut",
          "type": "uint24"
        },
        {
          "internalType": "uint256",
          "name": "studentGSNDeposit",
          "type": "uint256"
        },
        {
          "internalType": "address",
          "name": "daiAddress",
          "type": "address"
        },
        {
          "internalType": "address",
          "name": "compoundAddress",
          "type": "address"
        },
        {
          "internalType": "address",
          "name": "relayHubAddress",
          "type": "address"
        },
        {
          "internalType": "address",
          "name": "classroomFactoryAddress",
          "type": "address"
        },
        {
          "internalType": "address",
          "name": "studentFactoryAddress",
          "type": "address"
        },
        {
          "internalType": "address",
          "name": "studentApplicationFactoryAddress",
          "type": "address"
        }
      ],
      "stateMutability": "nonpayable",
      "type": "constructor"
    },
    {
      "anonymous": false,
      "inputs": [
        {
          "indexed": false,
          "internalType": "uint24",
          "name": "",
          "type": "uint24"
        }
      ],
      "name": "LogChangeCut",
      "type": "event"
    },
    {
      "anonymous": false,
      "inputs": [
        {
          "indexed": false,
          "internalType": "bytes32",
          "name": "",
          "type": "bytes32"
        }
      ],
      "name": "LogChangeName",
      "type": "event"
    },
    {
      "anonymous": false,
      "inputs": [
        {
          "indexed": false,
          "internalType": "bytes32",
          "name": "",
          "type": "bytes32"
        },
        {
          "indexed": false,
          "internalType": "address",
          "name": "",
          "type": "address"
        }
      ],
      "name": "LogNewClassroom",
      "type": "event"
    },
    {
      "anonymous": false,
      "inputs": [
        {
          "indexed": false,
          "internalType": "address",
          "name": "",
          "type": "address"
        },
        {
          "indexed": false,
          "internalType": "uint256",
          "name": "",
          "type": "uint256"
        }
      ],
      "name": "LogReceived",
      "type": "event"
    },
    {
      "anonymous": false,
      "inputs": [
        {
          "indexed": true,
          "internalType": "address",
          "name": "previousOwner",
          "type": "address"
        },
        {
          "indexed": true,
          "internalType": "address",
          "name": "newOwner",
          "type": "address"
        }
      ],
      "name": "OwnershipTransferred",
      "type": "event"
    },
    {
      "anonymous": false,
      "inputs": [
        {
          "indexed": true,
          "internalType": "bytes32",
          "name": "role",
          "type": "bytes32"
        },
        {
          "indexed": true,
          "internalType": "address",
          "name": "account",
          "type": "address"
        },
        {
          "indexed": true,
          "internalType": "address",
          "name": "sender",
          "type": "address"
        }
      ],
      "name": "RoleGranted",
      "type": "event"
    },
    {
      "anonymous": false,
      "inputs": [
        {
          "indexed": true,
          "internalType": "bytes32",
          "name": "role",
          "type": "bytes32"
        },
        {
          "indexed": true,
          "internalType": "address",
          "name": "account",
          "type": "address"
        },
        {
          "indexed": true,
          "internalType": "address",
          "name": "sender",
          "type": "address"
        }
      ],
      "name": "RoleRevoked",
      "type": "event"
    },
    {
      "inputs": [],
      "name": "CLASSLIST_ADMIN_ROLE",
      "outputs": [
        {
          "internalType": "bytes32",
          "name": "",
          "type": "bytes32"
        }
      ],
      "stateMutability": "view",
      "type": "function",
      "constant": true
    },
    {
      "inputs": [],
      "name": "CLASSROOM_PROFESSOR_ROLE",
      "outputs": [
        {
          "internalType": "bytes32",
          "name": "",
          "type": "bytes32"
        }
      ],
      "stateMutability": "view",
      "type": "function",
      "constant": true
    },
    {
      "inputs": [],
      "name": "DEFAULT_ADMIN_ROLE",
      "outputs": [
        {
          "internalType": "bytes32",
          "name": "",
          "type": "bytes32"
        }
      ],
      "stateMutability": "view",
      "type": "function",
      "constant": true
    },
    {
      "inputs": [],
      "name": "FUNDS_MANAGER_ROLE",
      "outputs": [
        {
          "internalType": "bytes32",
          "name": "",
          "type": "bytes32"
        }
      ],
      "stateMutability": "view",
      "type": "function",
      "constant": true
    },
    {
      "inputs": [],
      "name": "GRANTS_MANAGER_ROLE",
      "outputs": [
        {
          "internalType": "bytes32",
          "name": "",
          "type": "bytes32"
        }
      ],
      "stateMutability": "view",
      "type": "function",
      "constant": true
    },
    {
      "inputs": [],
      "name": "READ_STUDENT_LIST_ROLE",
      "outputs": [
        {
          "internalType": "bytes32",
          "name": "",
          "type": "bytes32"
        }
      ],
      "stateMutability": "view",
      "type": "function",
      "constant": true
    },
    {
      "inputs": [],
      "name": "STUDENT_IDENTITY_ROLE",
      "outputs": [
        {
          "internalType": "bytes32",
          "name": "",
          "type": "bytes32"
        }
      ],
      "stateMutability": "view",
      "type": "function",
      "constant": true
    },
    {
      "inputs": [
        {
          "internalType": "uint256",
          "name": "",
          "type": "uint256"
        }
      ],
      "name": "_classList",
      "outputs": [
        {
          "internalType": "address",
          "name": "",
          "type": "address"
        }
      ],
      "stateMutability": "view",
      "type": "function",
      "constant": true
    },
    {
      "inputs": [],
      "name": "_msgSenderGSN",
      "outputs": [
        {
          "internalType": "address",
          "name": "",
          "type": "address"
        }
      ],
      "stateMutability": "view",
      "type": "function",
      "constant": true
    },
    {
      "inputs": [],
      "name": "cToken",
      "outputs": [
        {
          "internalType": "contract CERC20",
          "name": "",
          "type": "address"
        }
      ],
      "stateMutability": "view",
      "type": "function",
      "constant": true
    },
    {
      "inputs": [],
      "name": "cut",
      "outputs": [
        {
          "internalType": "uint24",
          "name": "",
          "type": "uint24"
        }
      ],
      "stateMutability": "view",
      "type": "function",
      "constant": true
    },
    {
      "inputs": [],
      "name": "daiToken",
      "outputs": [
        {
          "internalType": "contract IERC20",
          "name": "",
          "type": "address"
        }
      ],
      "stateMutability": "view",
      "type": "function",
      "constant": true
    },
    {
      "inputs": [
        {
          "internalType": "bytes32",
          "name": "role",
          "type": "bytes32"
        }
      ],
      "name": "getRoleAdmin",
      "outputs": [
        {
          "internalType": "bytes32",
          "name": "",
          "type": "bytes32"
        }
      ],
      "stateMutability": "view",
      "type": "function",
      "constant": true
    },
    {
      "inputs": [
        {
          "internalType": "bytes32",
          "name": "role",
          "type": "bytes32"
        },
        {
          "internalType": "uint256",
          "name": "index",
          "type": "uint256"
        }
      ],
      "name": "getRoleMember",
      "outputs": [
        {
          "internalType": "address",
          "name": "",
          "type": "address"
        }
      ],
      "stateMutability": "view",
      "type": "function",
      "constant": true
    },
    {
      "inputs": [
        {
          "internalType": "bytes32",
          "name": "role",
          "type": "bytes32"
        }
      ],
      "name": "getRoleMemberCount",
      "outputs": [
        {
          "internalType": "uint256",
          "name": "",
          "type": "uint256"
        }
      ],
      "stateMutability": "view",
      "type": "function",
      "constant": true
    },
    {
      "inputs": [],
      "name": "getTrustedForwarder",
      "outputs": [
        {
          "internalType": "address",
          "name": "",
          "type": "address"
        }
      ],
      "stateMutability": "view",
      "type": "function",
      "constant": true
    },
    {
      "inputs": [
        {
          "internalType": "bytes32",
          "name": "role",
          "type": "bytes32"
        },
        {
          "internalType": "address",
          "name": "account",
          "type": "address"
        }
      ],
      "name": "grantRole",
      "outputs": [],
      "stateMutability": "nonpayable",
      "type": "function"
    },
    {
      "inputs": [
        {
          "internalType": "bytes32",
          "name": "role",
          "type": "bytes32"
        },
        {
          "internalType": "address",
          "name": "account",
          "type": "address"
        }
      ],
      "name": "hasRole",
      "outputs": [
        {
          "internalType": "bool",
          "name": "",
          "type": "bool"
        }
      ],
      "stateMutability": "view",
      "type": "function",
      "constant": true
    },
    {
      "inputs": [],
      "name": "name",
      "outputs": [
        {
          "internalType": "bytes32",
          "name": "",
          "type": "bytes32"
        }
      ],
      "stateMutability": "view",
      "type": "function",
      "constant": true
    },
    {
      "inputs": [],
      "name": "owner",
      "outputs": [
        {
          "internalType": "address",
          "name": "",
          "type": "address"
        }
      ],
      "stateMutability": "view",
      "type": "function",
      "constant": true
    },
    {
      "inputs": [],
      "name": "relayHub",
      "outputs": [
        {
          "internalType": "contract IRelayHub",
          "name": "",
          "type": "address"
        }
      ],
      "stateMutability": "view",
      "type": "function",
      "constant": true
    },
    {
      "inputs": [],
      "name": "renounceOwnership",
      "outputs": [],
      "stateMutability": "nonpayable",
      "type": "function"
    },
    {
      "inputs": [
        {
          "internalType": "bytes32",
          "name": "role",
          "type": "bytes32"
        },
        {
          "internalType": "address",
          "name": "account",
          "type": "address"
        }
      ],
      "name": "renounceRole",
      "outputs": [],
      "stateMutability": "nonpayable",
      "type": "function"
    },
    {
      "inputs": [
        {
          "internalType": "bytes32",
          "name": "role",
          "type": "bytes32"
        },
        {
          "internalType": "address",
          "name": "account",
          "type": "address"
        }
      ],
      "name": "revokeRole",
      "outputs": [],
      "stateMutability": "nonpayable",
      "type": "function"
    },
    {
      "inputs": [
        {
          "internalType": "address",
          "name": "newOwner",
          "type": "address"
        }
      ],
      "name": "transferOwnership",
      "outputs": [],
      "stateMutability": "nonpayable",
      "type": "function"
    },
    {
      "stateMutability": "payable",
      "type": "receive",
      "payable": true
    },
    {
      "inputs": [
        {
          "internalType": "bytes32",
          "name": "val",
          "type": "bytes32"
        }
      ],
      "name": "changeName",
      "outputs": [],
      "stateMutability": "nonpayable",
      "type": "function"
    },
    {
      "inputs": [
        {
          "internalType": "uint24",
          "name": "val",
          "type": "uint24"
        }
      ],
      "name": "changeCut",
      "outputs": [],
      "stateMutability": "nonpayable",
      "type": "function"
    },
    {
      "inputs": [
        {
          "internalType": "uint256",
          "name": "val",
          "type": "uint256"
        }
      ],
      "name": "changeStudentGSNDeposit",
      "outputs": [],
      "stateMutability": "nonpayable",
      "type": "function"
    },
    {
      "inputs": [
        {
          "internalType": "address",
          "name": "classroom",
          "type": "address"
        }
      ],
      "name": "isValidClassroom",
      "outputs": [
        {
          "internalType": "bool",
          "name": "",
          "type": "bool"
        }
      ],
      "stateMutability": "view",
      "type": "function",
      "constant": true
    },
    {
      "inputs": [
        {
          "internalType": "address",
          "name": "student",
          "type": "address"
        }
      ],
      "name": "studentIsRegistered",
      "outputs": [
        {
          "internalType": "bool",
          "name": "",
          "type": "bool"
        }
      ],
      "stateMutability": "view",
      "type": "function",
      "constant": true
    },
    {
      "inputs": [],
      "name": "viewMyApplications",
      "outputs": [
        {
          "internalType": "address[]",
          "name": "",
          "type": "address[]"
        }
      ],
      "stateMutability": "view",
      "type": "function",
      "constant": true
    },
    {
      "inputs": [
        {
          "internalType": "address",
          "name": "addr",
          "type": "address"
        }
      ],
      "name": "viewStudentApplications",
      "outputs": [
        {
          "internalType": "address[]",
          "name": "",
          "type": "address[]"
        }
      ],
      "stateMutability": "view",
      "type": "function",
      "constant": true
    },
    {
      "inputs": [
        {
          "internalType": "bytes32",
          "name": "sName",
          "type": "bytes32"
        }
      ],
      "name": "studentSelfRegisterGSN",
      "outputs": [
        {
          "internalType": "address",
          "name": "",
          "type": "address"
        }
      ],
      "stateMutability": "nonpayable",
      "type": "function"
    },
    {
      "inputs": [
        {
          "internalType": "bytes32",
          "name": "sName",
          "type": "bytes32"
        }
      ],
      "name": "studentSelfRegister",
      "outputs": [
        {
          "internalType": "address",
          "name": "",
          "type": "address"
        }
      ],
      "stateMutability": "nonpayable",
      "type": "function"
    },
    {
      "inputs": [
        {
          "internalType": "address",
          "name": "owner",
          "type": "address"
        },
        {
          "internalType": "bytes32",
          "name": "cName",
          "type": "bytes32"
        },
        {
          "internalType": "uint24",
          "name": "cCut",
          "type": "uint24"
        },
        {
          "internalType": "uint24",
          "name": "cPCut",
          "type": "uint24"
        },
        {
          "internalType": "int32",
          "name": "minScore",
          "type": "int32"
        },
        {
          "internalType": "uint256",
          "name": "entryPrice",
          "type": "uint256"
        },
        {
          "internalType": "uint256",
          "name": "duration",
          "type": "uint256"
        },
        {
          "internalType": "address",
          "name": "challengeAddress",
          "type": "address"
        }
      ],
      "name": "newClassRoom",
      "outputs": [
        {
          "internalType": "address",
          "name": "",
          "type": "address"
        }
      ],
      "stateMutability": "nonpayable",
      "type": "function"
    },
    {
      "inputs": [
        {
          "internalType": "address",
          "name": "applicationAddr",
          "type": "address"
        },
        {
          "internalType": "bytes32",
          "name": "cName",
          "type": "bytes32"
        },
        {
          "internalType": "uint24",
          "name": "cCut",
          "type": "uint24"
        },
        {
          "internalType": "uint24",
          "name": "cPCut",
          "type": "uint24"
        },
        {
          "internalType": "int32",
          "name": "minScore",
          "type": "int32"
        },
        {
          "internalType": "uint256",
          "name": "entryPrice",
          "type": "uint256"
        },
        {
          "internalType": "uint256",
          "name": "duration",
          "type": "uint256"
        },
        {
          "internalType": "address",
          "name": "challenge",
          "type": "address"
        }
      ],
      "name": "studentRequestClassroom",
      "outputs": [
        {
          "internalType": "address",
          "name": "",
          "type": "address"
        }
      ],
      "stateMutability": "nonpayable",
      "type": "function"
    },
    {
      "inputs": [
        {
          "internalType": "address",
          "name": "student",
          "type": "address"
        },
        {
          "internalType": "address",
          "name": "application",
          "type": "address"
        }
      ],
      "name": "registerStudentApplication",
      "outputs": [],
      "stateMutability": "nonpayable",
      "type": "function"
    },
    {
      "inputs": [
        {
          "internalType": "address",
          "name": "student",
          "type": "address"
        },
        {
          "internalType": "int32",
          "name": "val",
          "type": "int32"
        }
      ],
      "name": "addStudentScore",
      "outputs": [],
      "stateMutability": "nonpayable",
      "type": "function"
    },
    {
      "inputs": [
        {
          "internalType": "address",
          "name": "student",
          "type": "address"
        },
        {
          "internalType": "int32",
          "name": "val",
          "type": "int32"
        }
      ],
      "name": "subStudentScore",
      "outputs": [],
      "stateMutability": "nonpayable",
      "type": "function"
    },
    {
      "inputs": [
        {
          "internalType": "uint256",
          "name": "val",
          "type": "uint256"
        }
      ],
      "name": "applyFunds",
      "outputs": [],
      "stateMutability": "nonpayable",
      "type": "function"
    },
    {
      "inputs": [
        {
          "internalType": "uint256",
          "name": "val",
          "type": "uint256"
        }
      ],
      "name": "recoverFunds",
      "outputs": [],
      "stateMutability": "nonpayable",
      "type": "function"
    },
    {
      "inputs": [
        {
          "internalType": "address",
          "name": "to",
          "type": "address"
        },
        {
          "internalType": "uint256",
          "name": "val",
          "type": "uint256"
        }
      ],
      "name": "spendFunds",
      "outputs": [],
      "stateMutability": "nonpayable",
      "type": "function"
    },
    {
      "inputs": [
        {
          "internalType": "address",
          "name": "to",
          "type": "address"
        },
        {
          "internalType": "uint256",
          "name": "val",
          "type": "uint256"
        }
      ],
      "name": "allowFunds",
      "outputs": [],
      "stateMutability": "nonpayable",
      "type": "function"
    },
    {
      "inputs": [
        {
          "components": [
            {
              "internalType": "address",
              "name": "target",
              "type": "address"
            },
            {
              "internalType": "bytes",
              "name": "encodedFunction",
              "type": "bytes"
            },
            {
              "components": [
                {
                  "internalType": "uint256",
                  "name": "gasLimit",
                  "type": "uint256"
                },
                {
                  "internalType": "uint256",
                  "name": "gasPrice",
                  "type": "uint256"
                },
                {
                  "internalType": "uint256",
                  "name": "pctRelayFee",
                  "type": "uint256"
                },
                {
                  "internalType": "uint256",
                  "name": "baseRelayFee",
                  "type": "uint256"
                }
              ],
              "internalType": "struct GSNTypes.GasData",
              "name": "gasData",
              "type": "tuple"
            },
            {
              "components": [
                {
                  "internalType": "address",
                  "name": "senderAddress",
                  "type": "address"
                },
                {
                  "internalType": "uint256",
                  "name": "senderNonce",
                  "type": "uint256"
                },
                {
                  "internalType": "address",
                  "name": "relayWorker",
                  "type": "address"
                },
                {
                  "internalType": "address",
                  "name": "paymaster",
                  "type": "address"
                }
              ],
              "internalType": "struct GSNTypes.RelayData",
              "name": "relayData",
              "type": "tuple"
            }
          ],
          "internalType": "struct GSNTypes.RelayRequest",
          "name": "relayRequest",
          "type": "tuple"
        },
        {
          "internalType": "bytes",
          "name": "",
          "type": "bytes"
        },
        {
          "internalType": "uint256",
          "name": "",
          "type": "uint256"
        }
      ],
      "name": "acceptRelayedCall",
      "outputs": [
        {
          "internalType": "bytes",
          "name": "context",
          "type": "bytes"
        }
      ],
      "stateMutability": "pure",
      "type": "function",
      "constant": true
    },
    {
      "inputs": [
        {
          "internalType": "uint256",
          "name": "val",
          "type": "uint256"
        }
      ],
      "name": "refillUniversityRelayer",
      "outputs": [],
      "stateMutability": "nonpayable",
      "type": "function"
    }
  ],
  "bytecode": "0x60806040523480156200001157600080fd5b5060405162002eb938038062002eb983398101604081905262000034916200037c565b6000620000496001600160e01b036200018316565b600080546001600160a01b0319166001600160a01b0383169081178255604051929350917f8be0079c531659141344cd1fd0a4f28419497f9722a3daafe3b4186f6b6457e0908290a35060038990556004805462ffffff191662ffffff8a161790556009879055620000cf6000620000c062000183565b6001600160e01b036200018716565b6200010c604051620000e19062000433565b604051908190039020620000fd6001600160e01b036200018316565b6001600160e01b03620001a016565b600b80546001600160a01b03199081166001600160a01b0398891617909155600a8054821696881696909617909555600c8054861694871694909417909355600d8054851692861692909217909155600e80548416918516919091179055600f8054909216921691909117905550620004ab915050565b3390565b6200019c82826001600160e01b036200020116565b5050565b600082815260016020526040902060020154620001d990620001ca6001600160e01b036200018316565b6001600160e01b036200028516565b620001875760405162461bcd60e51b8152600401620001f8906200045c565b60405180910390fd5b60008281526001602090815260409091206200022891839062001cc6620002b4821b17901c565b156200019c57620002416001600160e01b036200018316565b6001600160a01b0316816001600160a01b0316837f2f8788117e7eff1d82e926ec794901d17c78024a50270940304540a733656f0d60405160405180910390a45050565b60008281526001602090815260408220620002ab91849062001c7c620002d4821b17901c565b90505b92915050565b6000620002ab836001600160a01b0384166001600160e01b03620002f416565b6000620002ab836001600160a01b0384166001600160e01b036200034c16565b60006200030b83836001600160e01b036200034c16565b6200034357508154600181810184556000848152602080822090930184905584548482528286019093526040902091909155620002ae565b506000620002ae565b60009081526001919091016020526040902054151590565b80516001600160a01b0381168114620002ae57600080fd5b60008060008060008060008060006101208a8c0312156200039b578485fd5b8951985060208a015162ffffff81168114620003b5578586fd5b60408b01519098509650620003ce8b60608c0162000364565b9550620003df8b60808c0162000364565b9450620003f08b60a08c0162000364565b9350620004018b60c08c0162000364565b9250620004128b60e08c0162000364565b9150620004248b6101008c0162000364565b90509295985092959850929598565b7f524541445f53545544454e545f4c4953545f524f4c4500000000000000000000815260160190565b6020808252602f908201527f416363657373436f6e74726f6c3a2073656e646572206d75737420626520616e60408201526e0818591b5a5b881d1bc819dc985b9d608a1b606082015260800190565b6129fe80620004bb6000396000f3fe6080604052600436106102f65760003560e01c8063898855ed1161018f578063c419f432116100e1578063e37dd9801161008a578063ef5450ba11610064578063ef5450ba14610819578063f2fde38b14610839578063ff5d8f631461085957610336565b8063e37dd980146107b7578063e6fd604c146107d7578063e770d7d4146107f957610336565b8063ce1b815f116100bb578063ce1b815f14610762578063d3c5704e14610777578063d547741f1461079757610336565b8063c419f4321461070d578063c4707a831461072d578063ca15c8731461074257610336565b806391d1485411610143578063b1ed031f1161011d578063b1ed031f146106ab578063be22f546146106d8578063c204a0e0146106ed57610336565b806391d14854146106615780639fd6cb7a14610681578063a217fddf1461069657610336565b80638da5cb5b116101745780638da5cb5b1461060c5780638ff2f762146106215780639010d07c1461064157610336565b8063898855ed146105d75780638a9f5b7f146105f757610336565b80634ea962c11161024857806369e527da116101fc578063820cd75c116101d6578063820cd75c1461058257806385dade611461059757806387bfe188146105b757610336565b806369e527da14610538578063715018a61461054d5780637fd5c1081461056257610336565b80635a7dd1501161022d5780635a7dd150146104e15780636408a3861461050157806364d477311461052357610336565b80634ea962c1146104a15780635070ad95146104c157610336565b8063289c5e54116102aa57806336568abe1161028457806336568abe14610441578063478ecefb146104615780634ab358c71461048157610336565b8063289c5e54146103f75780632f2ff15d1461040c57806332636ac91461042c57610336565b8063183b2600116102db578063183b260014610393578063248a9ca3146103b557806328475518146103d557610336565b806306fdde031461033b57806316ded1ce1461036657610336565b36610336577f60e4c1ac84c9e2c4c0aa82b86b3b1ddf0b1b73fbbeb74c8bc8f8f06041ccfdf6333460405161032c929190612231565b60405180910390a1005b600080fd5b34801561034757600080fd5b50610350610879565b60405161035d91906122be565b60405180910390f35b34801561037257600080fd5b50610386610381366004611e74565b61087f565b60405161035d91906122b3565b34801561039f57600080fd5b506103b36103ae366004611eac565b6108e8565b005b3480156103c157600080fd5b506103506103d0366004611ff2565b610951565b3480156103e157600080fd5b506103ea610966565b60405161035d919061221d565b34801561040357600080fd5b506103ea610975565b34801561041857600080fd5b506103b361042736600461200a565b6109f8565b34801561043857600080fd5b50610350610a40565b34801561044d57600080fd5b506103b361045c36600461200a565b610a57565b34801561046d57600080fd5b506103b361047c366004611ff2565b610a99565b34801561048d57600080fd5b506103b361049c366004611ff2565b610b2b565b3480156104ad57600080fd5b506103ea6104bc366004611ee4565b610bf1565b3480156104cd57600080fd5b506103b36104dc366004611fa7565b610c3b565b3480156104ed57600080fd5b506103ea6104fc366004611ff2565b610d08565b34801561050d57600080fd5b50610516610d1b565b60405161035d9190612266565b34801561052f57600080fd5b50610350610d2d565b34801561054457600080fd5b506103ea610d39565b34801561055957600080fd5b506103b3610d48565b34801561056e57600080fd5b506103ea61057d366004611ee4565b610dc7565b34801561058e57600080fd5b50610350610f4b565b3480156105a357600080fd5b506103866105b2366004611e74565b610f57565b3480156105c357600080fd5b506103b36105d2366004611f74565b610f68565b3480156105e357600080fd5b506103b36105f2366004611ff2565b610ff2565b34801561060357600080fd5b50610350611067565b34801561061857600080fd5b506103ea611073565b34801561062d57600080fd5b506103ea61063c366004611ff2565b611082565b34801561064d57600080fd5b506103ea61065c36600461202e565b611101565b34801561066d57600080fd5b5061038661067c36600461200a565b611126565b34801561068d57600080fd5b50610350611144565b3480156106a257600080fd5b50610350611150565b3480156106b757600080fd5b506106cb6106c636600461204f565b611155565b60405161035d9190612349565b3480156106e457600080fd5b506103ea61123a565b3480156106f957600080fd5b506103b3610708366004611ff2565b611249565b34801561071957600080fd5b506103b3610728366004611fa7565b611346565b34801561073957600080fd5b506103506113a3565b34801561074e57600080fd5b5061035061075d366004611ff2565b6113af565b34801561076e57600080fd5b506103ea6113c6565b34801561078357600080fd5b50610516610792366004611e74565b6113d5565b3480156107a357600080fd5b506103b36107b236600461200a565b611498565b3480156107c357600080fd5b506103ea6107d2366004611ff2565b6114d2565b3480156107e357600080fd5b506107ec6114f9565b60405161035d9190612952565b34801561080557600080fd5b506103b36108143660046120ec565b611504565b34801561082557600080fd5b506103b3610834366004611ff2565b611582565b34801561084557600080fd5b506103b3610854366004611e74565b6115bc565b34801561086557600080fd5b506103b3610874366004611f74565b611672565b60035481565b60006108a060405161089090612127565b604051809103902061067c6116e2565b6108c55760405162461bcd60e51b81526004016108bc90612464565b60405180910390fd5b6108e26040516108d490612150565b604051809103902083611126565b92915050565b6108f760405161089090612179565b6109135760405162461bcd60e51b81526004016108bc9061274c565b6001600160a01b0391821660009081526007602090815260408220805460018101825590835291200180546001600160a01b03191691909216179055565b60009081526001602052604090206002015490565b600c546001600160a01b031681565b6000601836108015906109a0575061098b6113c6565b6001600160a01b0316336001600160a01b0316145b156109f2576109eb6000368080601f01602080910402602001604051908101604052809392919081815260200183838082843760009201919091525050601319360191506116e69050565b90506109f5565b50335b90565b600082815260016020526040902060020154610a169061067c6116e2565b610a325760405162461bcd60e51b81526004016108bc90612407565b610a3c82826116f7565b5050565b604051610a4c90612150565b604051809103902081565b610a5f6116e2565b6001600160a01b0316816001600160a01b031614610a8f5760405162461bcd60e51b81526004016108bc906128f5565b610a3c8282611766565b610aa8604051610890906121cb565b610ac45760405162461bcd60e51b81526004016108bc90612692565b600c5460405163aa67c91960e01b81526001600160a01b039091169063aa67c919908390610af690309060040161221d565b6000604051808303818588803b158015610b0f57600080fd5b505af1158015610b23573d6000803e3d6000fd5b505050505050565b610b3a604051610890906121cb565b610b565760405162461bcd60e51b81526004016108bc9061251e565b600a546040517f852a12e30000000000000000000000000000000000000000000000000000000081526001600160a01b039091169063852a12e390610b9f9084906004016122be565b602060405180830381600087803b158015610bb957600080fd5b505af1158015610bcd573d6000803e3d6000fd5b505050506040513d601f19601f82011682018060405250810190610a3c919061210f565b6000610c02604051610890906121a2565b610c1e5760405162461bcd60e51b81526004016108bc90612635565b610c2e89898989898989896117d5565b9998505050505050505050565b610c4a604051610890906121cb565b610c665760405162461bcd60e51b81526004016108bc9061251e565b600b546040517fa9059cbb0000000000000000000000000000000000000000000000000000000081526001600160a01b039091169063a9059cbb90610cb19085908590600401612231565b602060405180830381600087803b158015610ccb57600080fd5b505af1158015610cdf573d6000803e3d6000fd5b505050506040513d601f19601f82011682018060405250810190610d039190611fd2565b505050565b60006108e282610d166116e2565b6119f9565b6060610d286107926116e2565b905090565b604051610a4c906121f4565b600a546001600160a01b031681565b610d506116e2565b6000546001600160a01b03908116911614610d7d5760405162461bcd60e51b81526004016108bc90612806565b600080546040516001600160a01b03909116907f8be0079c531659141344cd1fd0a4f28419497f9722a3daafe3b4186f6b6457e0908390a3600080546001600160a01b0319169055565b6000610dd860405161089090612150565b610df45760405162461bcd60e51b81526004016108bc90612692565b610e05610dff6116e2565b8a611bec565b610e215760405162461bcd60e51b81526004016108bc906125d8565b6000899050806001600160a01b0316636587b61e6040518163ffffffff1660e01b815260040160206040518083038186803b158015610e5f57600080fd5b505afa158015610e73573d6000803e3d6000fd5b505050506040513d601f19601f82011682018060405250810190610e97919061210f565b600314610eb65760405162461bcd60e51b81526004016108bc90612898565b610f3d610ec16116e2565b6001600160a01b0316637a6c8b536040518163ffffffff1660e01b815260040160206040518083038186803b158015610ef957600080fd5b505afa158015610f0d573d6000803e3d6000fd5b505050506040513d601f19601f82011682018060405250810190610f319190611e90565b8a8a8a8a8a8a8a6117d5565b9a9950505050505050505050565b604051610a4c906121a2565b60006108e26040516108d490612179565b610f7760405161089090612179565b610f935760405162461bcd60e51b81526004016108bc9061274c565b6040517faa4f38c70000000000000000000000000000000000000000000000000000000081526001600160a01b0383169063aa4f38c790610fd890849060040161239c565b600060405180830381600087803b158015610b0f57600080fd5b610ffa6116e2565b6000546001600160a01b039081169116146110275760405162461bcd60e51b81526004016108bc90612806565b60038190556040517f9f8929be552430dd6434c446d106c34954b2040ca8c4dbf42a39323dd6cda3ca9061105c9083906122be565b60405180910390a150565b604051610a4c90612179565b6000546001600160a01b031690565b60008061109183610d16610975565b600c5460095460405163aa67c91960e01b81529293506001600160a01b039091169163aa67c91991906110c890859060040161221d565b6000604051808303818588803b1580156110e157600080fd5b505af11580156110f5573d6000803e3d6000fd5b50939695505050505050565b600082815260016020526040812061111f908363ffffffff611c7016565b9392505050565b600082815260016020526040812061111f908363ffffffff611c7c16565b604051610a4c90612127565b600081565b60607f8ff2f762000000000000000000000000000000000000000000000000000000006111c26111886020880188612962565b8080601f01602080910402602001604051908101604052809392919081815260200183838082843760009201829052509250611c91915050565b7fffffffff0000000000000000000000000000000000000000000000000000000016146112015760405162461bcd60e51b81526004016108bc9061283b565b61120e6020860186611e74565b600060405160200161122192919061224a565b6040516020818303038152906040529050949350505050565b600b546001600160a01b031681565b611258604051610890906121cb565b6112745760405162461bcd60e51b81526004016108bc9061251e565b600b54600a5460405163095ea7b360e01b81526001600160a01b039283169263095ea7b3926112aa929116908590600401612231565b602060405180830381600087803b1580156112c457600080fd5b505af11580156112d8573d6000803e3d6000fd5b505050506040513d601f19601f820116820180604052508101906112fc9190611fd2565b50600a546040517fa0712d680000000000000000000000000000000000000000000000000000000081526001600160a01b039091169063a0712d6890610b9f9084906004016122be565b611355604051610890906121cb565b6113715760405162461bcd60e51b81526004016108bc9061251e565b600b5460405163095ea7b360e01b81526001600160a01b039091169063095ea7b390610cb19085908590600401612231565b604051610a4c906121cb565b60008181526001602052604081206108e290611cbb565b6002546001600160a01b031690565b60606113df6116e2565b6001600160a01b0316826001600160a01b031614806114085750611408604051610890906121f4565b6114245760405162461bcd60e51b81526004016108bc906126ef565b6001600160a01b0382166000908152600760209081526040918290208054835181840281018401909452808452909183018282801561148c57602002820191906000526020600020905b81546001600160a01b0316815260019091019060200180831161146e575b50505050509050919050565b6000828152600160205260409020600201546114b69061067c6116e2565b610a8f5760405162461bcd60e51b81526004016108bc906127a9565b600581815481106114df57fe5b6000918252602090912001546001600160a01b0316905081565b60045462ffffff1681565b61150c6116e2565b6000546001600160a01b039081169116146115395760405162461bcd60e51b81526004016108bc90612806565b6004805462ffffff191662ffffff83811691909117918290556040517f1add5f7de244142e10bca375bb84823e3c24ddac2c2ec678f35c007d8f02084d9261105c921690612952565b61158a6116e2565b6000546001600160a01b039081169116146115b75760405162461bcd60e51b81526004016108bc90612806565b600955565b6115c46116e2565b6000546001600160a01b039081169116146115f15760405162461bcd60e51b81526004016108bc90612806565b6001600160a01b0381166116175760405162461bcd60e51b81526004016108bc906124c1565b600080546040516001600160a01b03808516939216917f8be0079c531659141344cd1fd0a4f28419497f9722a3daafe3b4186f6b6457e091a3600080546001600160a01b0319166001600160a01b0392909216919091179055565b61168160405161089090612179565b61169d5760405162461bcd60e51b81526004016108bc9061274c565b6040517f686513500000000000000000000000000000000000000000000000000000000081526001600160a01b03831690636865135090610fd890849060040161239c565b3390565b01601401516001600160a01b031690565b6000828152600160205260409020611715908263ffffffff611cc616565b15610a3c576117226116e2565b6001600160a01b0316816001600160a01b0316837f2f8788117e7eff1d82e926ec794901d17c78024a50270940304540a733656f0d60405160405180910390a45050565b6000828152600160205260409020611784908263ffffffff611cdb16565b15610a3c576117916116e2565b6001600160a01b0316816001600160a01b0316837ff6391f5c32d9c69d2a47ea670b442974b53935d1edc7fd64eb21e047a839171b60405160405180910390a45050565b600080600d60009054906101000a90046001600160a01b03166001600160a01b031663f9a84f968a8a8a8a8a8a308b600b60009054906101000a90046001600160a01b0316600a60009054906101000a90046001600160a01b0316600f60009054906101000a90046001600160a01b03166040518c63ffffffff1660e01b815260040161186c9b9a999897969594939291906122de565b602060405180830381600087803b15801561188657600080fd5b505af115801561189a573d6000803e3d6000fd5b505050506040513d601f19601f820116820180604052508101906118be9190611e90565b6040517f18b9533b0000000000000000000000000000000000000000000000000000000081529091506001600160a01b038216906318b9533b90611906908d9060040161221d565b600060405180830381600087803b15801561192057600080fd5b505af1158015611934573d6000803e3d6000fd5b5050600580546001810182556000919091527f036b6384b5eca791c62761152d0c79bb0604c104a5fb6f4eb0703f3154bb3db00180546001600160a01b0319166001600160a01b038516179055505060405181906119a39061199590612127565b6040518091039020826109f8565b6119b260405161199590612179565b7f0e2441b756c0237af490768eeb52214bde66464d79756f8ac3c03b10c9528b3c8a826040516119e39291906122c7565b60405180910390a19a9950505050505050505050565b600060076000611a07610975565b6001600160a01b0316815260208101919091526040016000205415611a3e5760405162461bcd60e51b81526004016108bc9061257b565b6001600160a01b038083166000908152600760209081526040808320805460018101825590845291832090910180546001600160a01b0319169055600e5490517f8ebf1d2700000000000000000000000000000000000000000000000000000000815291921690638ebf1d2790611abb90879030906004016122c7565b602060405180830381600087803b158015611ad557600080fd5b505af1158015611ae9573d6000803e3d6000fd5b505050506040513d601f19601f82011682018060405250810190611b0d9190611e90565b6040517f18a9e9480000000000000000000000000000000000000000000000000000000081529091506001600160a01b038216906318a9e94890611b5590869060040161221d565b600060405180830381600087803b158015611b6f57600080fd5b505af1158015611b83573d6000803e3d6000fd5b5050600680546001810182556000919091527ff652222313e28459528d920b65115c16c04f3efc82aaedc97be59f3f377c0d3f0180546001600160a01b0319166001600160a01b03851617905550506040518190611be49061199590612150565b949350505050565b6000805b6001600160a01b038416600090815260076020526040902054811015611c66576001600160a01b03848116600090815260076020526040902080549185169183908110611c3957fe5b6000918252602090912001546001600160a01b03161415611c5e5760019150506108e2565b600101611bf0565b5060009392505050565b600061111f8383611cf0565b600061111f836001600160a01b038416611d35565b01602001517fffffffff000000000000000000000000000000000000000000000000000000001690565b60006108e282611d4d565b600061111f836001600160a01b038416611d51565b600061111f836001600160a01b038416611d9b565b81546000908210611d135760405162461bcd60e51b81526004016108bc906123aa565b826000018281548110611d2257fe5b9060005260206000200154905092915050565b60009081526001919091016020526040902054151590565b5490565b6000611d5d8383611d35565b611d93575081546001818101845560008481526020808220909301849055845484825282860190935260409020919091556108e2565b5060006108e2565b60008181526001830160205260408120548015611e575783546000198083019190810190600090879083908110611dce57fe5b9060005260206000200154905080876000018481548110611deb57fe5b600091825260208083209091019290925582815260018981019092526040902090840190558654879080611e1b57fe5b600190038181906000526020600020016000905590558660010160008781526020019081526020016000206000905560019450505050506108e2565b60009150506108e2565b803562ffffff811681146108e257600080fd5b600060208284031215611e85578081fd5b813561111f816129b0565b600060208284031215611ea1578081fd5b815161111f816129b0565b60008060408385031215611ebe578081fd5b8235611ec9816129b0565b91506020830135611ed9816129b0565b809150509250929050565b600080600080600080600080610100898b031215611f00578384fd5b8835611f0b816129b0565b975060208901359650611f218a60408b01611e61565b9550611f308a60608b01611e61565b945060808901358060030b8114611f45578485fd5b935060a0890135925060c0890135915060e0890135611f63816129b0565b809150509295985092959890939650565b60008060408385031215611f86578182fd5b8235611f91816129b0565b91506020830135600381900b8114611ed9578182fd5b60008060408385031215611fb9578182fd5b8235611fc4816129b0565b946020939093013593505050565b600060208284031215611fe3578081fd5b8151801515811461111f578182fd5b600060208284031215612003578081fd5b5035919050565b6000806040838503121561201c578182fd5b823591506020830135611ed9816129b0565b60008060408385031215612040578182fd5b50508035926020909101359150565b60008060008060608587031215612064578384fd5b843567ffffffffffffffff8082111561207b578586fd5b818701610140818a03121561208e578687fd5b955060208701359150808211156120a3578485fd5b81870188601f8201126120b4578586fd5b80359250818311156120c4578586fd5b8860208483010111156120d5578586fd5b959860209096019750909560400135949350505050565b6000602082840312156120fd578081fd5b813562ffffff8116811461111f578182fd5b600060208284031215612120578081fd5b5051919050565b7f524541445f53545544454e545f4c4953545f524f4c4500000000000000000000815260160190565b7f53545544454e545f4944454e544954595f524f4c450000000000000000000000815260150190565b7f434c415353524f4f4d5f50524f464553534f525f524f4c450000000000000000815260180190565b7f434c4153534c4953545f41444d494e5f524f4c45000000000000000000000000815260140190565b7f46554e44535f4d414e414745525f524f4c450000000000000000000000000000815260120190565b7f4752414e54535f4d414e414745525f524f4c4500000000000000000000000000815260130190565b6001600160a01b0391909116815260200190565b6001600160a01b03929092168252602082015260400190565b6001600160a01b0392909216825260ff16602082015260400190565b6020808252825182820181905260009190848201906040850190845b818110156122a75783516001600160a01b031683529284019291840191600101612282565b50909695505050505050565b901515815260200190565b90815260200190565b9182526001600160a01b0316602082015260400190565b9a8b5262ffffff998a1660208c01529790981660408a015260039590950b6060890152608088019390935260a08701919091526001600160a01b0390811660c087015290811660e0860152908116610100850152918216610120840152166101408201526101600190565b6000602080835283518082850152825b8181101561237557858101830151858201604001528201612359565b818111156123865783604083870101525b50601f01601f1916929092016040019392505050565b60039190910b815260200190565b60208082526022908201527f456e756d657261626c655365743a20696e646578206f7574206f6620626f756e60408201527f6473000000000000000000000000000000000000000000000000000000000000606082015260800190565b6020808252602f908201527f416363657373436f6e74726f6c3a2073656e646572206d75737420626520616e60408201527f2061646d696e20746f206772616e740000000000000000000000000000000000606082015260800190565b60208082526036908201527f556e69766572736974793a2063616c6c657220646f65736e277420686176652060408201527f524541445f53545544454e545f4c4953545f524f4c4500000000000000000000606082015260800190565b60208082526026908201527f4f776e61626c653a206e6577206f776e657220697320746865207a65726f206160408201527f6464726573730000000000000000000000000000000000000000000000000000606082015260800190565b60208082526032908201527f556e69766572736974793a2063616c6c657220646f65736e277420686176652060408201527f46554e44535f4d414e414745525f524f4c450000000000000000000000000000606082015260800190565b60208082526026908201527f556e69766572736974793a2073747564656e7420616c7265616479207265676960408201527f7374657265640000000000000000000000000000000000000000000000000000606082015260800190565b60208082526035908201527f556e69766572736974793a2063616c6c6572206973206e6f742073747564656e60408201527f74206f662074686973206170706c69636174696f6e0000000000000000000000606082015260800190565b60208082526034908201527f556e69766572736974793a2063616c6c657220646f65736e277420686176652060408201527f434c4153534c4953545f41444d494e5f524f4c45000000000000000000000000606082015260800190565b60208082526035908201527f556e69766572736974793a2063616c6c657220646f65736e277420686176652060408201527f53545544454e545f4944454e544954595f524f4c450000000000000000000000606082015260800190565b60208082526021908201527f436c617373726f6f6d3a2072656164207065726d697373696f6e2064656e696560408201527f6400000000000000000000000000000000000000000000000000000000000000606082015260800190565b60208082526038908201527f556e69766572736974793a2063616c6c657220646f65736e277420686176652060408201527f434c415353524f4f4d5f50524f464553534f525f524f4c450000000000000000606082015260800190565b60208082526030908201527f416363657373436f6e74726f6c3a2073656e646572206d75737420626520616e60408201527f2061646d696e20746f207265766f6b6500000000000000000000000000000000606082015260800190565b6020808252818101527f4f776e61626c653a2063616c6c6572206973206e6f7420746865206f776e6572604082015260600190565b6020808252602d908201527f556e69766572736974793a2047534e206e6f7420656e61626c656420666f722060408201527f746869732066756e6374696f6e00000000000000000000000000000000000000606082015260800190565b60208082526029908201527f556e69766572736974793a206170706c69636174696f6e206973206e6f74207360408201527f75636365737366756c0000000000000000000000000000000000000000000000606082015260800190565b6020808252602f908201527f416363657373436f6e74726f6c3a2063616e206f6e6c792072656e6f756e636560408201527f20726f6c657320666f722073656c660000000000000000000000000000000000606082015260800190565b62ffffff91909116815260200190565b6000808335601e19843603018112612978578283fd5b8084018035925067ffffffffffffffff831115612993578384fd5b602001925050368190038213156129a957600080fd5b9250929050565b6001600160a01b03811681146129c557600080fd5b5056fea26469706673582212205f1e8715a4430a3fcf2f5da0e4f43dc381532cf655bf384ad19158ae627a99c664736f6c63430006060033",
  "immutableReferences": {},
  "source": "pragma solidity 0.6.6;\r\npragma experimental ABIEncoderV2;\r\n\r\nimport \"@openzeppelin/contracts/math/SafeMath.sol\";\r\nimport \"@openzeppelin/contracts/access/AccessControl.sol\";\r\nimport \"@openzeppelin/contracts/access/Ownable.sol\";\r\nimport \"@openzeppelin/contracts/token/ERC20/IERC20.sol\";\r\nimport \"@openzeppelin/contracts/utils/Address.sol\";\r\nimport \"./gambi/BaseRelayRecipient.sol\";\r\nimport \"./gambi/GSNTypes.sol\";\r\nimport \"./gambi/IRelayHub.sol\";\r\nimport \"./interface/IClassroom.sol\";\r\nimport \"./interface/IStudent.sol\";\r\nimport \"./interface/IStudentApplication.sol\";\r\nimport \"./interface/IGrantsManager.sol\";\r\nimport \"./interface/IClassroomFactory.sol\";\r\nimport \"./interface/IStudentFactory.sol\";\r\nimport \"./interface/IStudentApplicationFactory.sol\";\r\nimport \"./interface/IUniversity.sol\";\r\nimport \"./MyUtils.sol\";\r\n\r\n//TODO: Natspec Document ENVERYTHING\r\n//TODO: Sort function order from all contracts\r\n\r\ncontract University is Ownable, AccessControl, BaseRelayRecipient, IUniversity {\r\n    using SafeMath for uint256;\r\n\r\n    //CLASSLIST_ADMIN_ROLE can add new manually created classes to the list\r\n    bytes32 public constant CLASSLIST_ADMIN_ROLE = keccak256(\r\n        \"CLASSLIST_ADMIN_ROLE\"\r\n    );\r\n    // FUNDS_MANAGER_ROLE can withdraw funds from the contract\r\n    bytes32 public constant FUNDS_MANAGER_ROLE = keccak256(\r\n        \"FUNDS_MANAGER_ROLE\"\r\n    );\r\n    // GRANTS_MANAGER_ROLE can approve/decline grant claims\r\n    bytes32 public constant GRANTS_MANAGER_ROLE = keccak256(\r\n        \"GRANTS_MANAGER_ROLE\"\r\n    );\r\n    // READ_STUDENT_LIST_ROLE allow reading students list\r\n    bytes32 public constant READ_STUDENT_LIST_ROLE = keccak256(\r\n        \"READ_STUDENT_LIST_ROLE\"\r\n    );\r\n    /// STUDENT_IDENTITY_ROLE allow asking for grants and requesting a classroom from a successful application\r\n    bytes32 public constant STUDENT_IDENTITY_ROLE = keccak256(\r\n        \"STUDENT_IDENTITY_ROLE\"\r\n    );\r\n    /// CLASSROOM_PROFESSOR_ROLE can manage itself inside the University and registering student applications\r\n    bytes32 public constant CLASSROOM_PROFESSOR_ROLE = keccak256(\r\n        \"CLASSROOM_PROFESSOR_ROLE\"\r\n    );\r\n\r\n    // Parameter: Name of this University\r\n    bytes32 public name;\r\n    // Parameter: University cut from professor (Parts per Million)\r\n    uint24 public override cut;\r\n    // List of every registered classroom\r\n    address[] public _classList;\r\n    // List of every student\r\n    address[] _students;\r\n    // Mapping of each student's applications\r\n    mapping(address => address[]) _studentApplicationsMapping;\r\n    // Address list of every donor\r\n    address[] _donors;\r\n    // GSN funds to give students\r\n    uint256 _studentGSNDeposit;\r\n\r\n    //TODO: resolve students and classrooms addresses using ENS\r\n\r\n    CERC20 public cToken;\r\n    IERC20 public daiToken;\r\n    IRelayHub public relayHub;\r\n    IClassroomFactory _classroomFactory;\r\n    IStudentFactory _studentFactory;\r\n    address _studentApplicationFactoryAddress;\r\n\r\n    constructor(\r\n        bytes32 _name,\r\n        uint24 _cut,\r\n        uint256 studentGSNDeposit,\r\n        address daiAddress,\r\n        address compoundAddress,\r\n        address relayHubAddress,\r\n        address classroomFactoryAddress,\r\n        address studentFactoryAddress,\r\n        address studentApplicationFactoryAddress\r\n    ) public {\r\n        name = _name;\r\n        cut = _cut;\r\n        _studentGSNDeposit = studentGSNDeposit;\r\n        _setupRole(DEFAULT_ADMIN_ROLE, _msgSender());\r\n        grantRole(READ_STUDENT_LIST_ROLE, _msgSender());\r\n        daiToken = IERC20(daiAddress);\r\n        cToken = CERC20(compoundAddress);\r\n        relayHub = IRelayHub(relayHubAddress);\r\n        _classroomFactory = IClassroomFactory(classroomFactoryAddress);\r\n        _studentFactory = IStudentFactory(studentFactoryAddress);\r\n        _studentApplicationFactoryAddress = studentApplicationFactoryAddress;\r\n    }\r\n\r\n    receive() external payable {\r\n        emit LogReceived(msg.sender, msg.value);\r\n    }\r\n\r\n    event LogNewClassroom(bytes32, address);\r\n    event LogChangeName(bytes32);\r\n    event LogChangeCut(uint24);\r\n    event LogReceived(address, uint256);\r\n\r\n    function changeName(bytes32 val) public onlyOwner {\r\n        name = val;\r\n        emit LogChangeName(name);\r\n    }\r\n\r\n    function changeCut(uint24 val) public onlyOwner {\r\n        cut = val;\r\n        emit LogChangeCut(cut);\r\n    }\r\n\r\n    function changeStudentGSNDeposit(uint256 val) public onlyOwner {\r\n        _studentGSNDeposit = val;\r\n    }\r\n\r\n    function isValidClassroom(address classroom) public view override returns (bool) {\r\n        return hasRole(CLASSROOM_PROFESSOR_ROLE, classroom);\r\n    }\r\n\r\n    function studentIsRegistered(address student) public view override returns (bool) {\r\n        require(\r\n            hasRole(READ_STUDENT_LIST_ROLE, _msgSender()),\r\n            \"University: caller doesn't have READ_STUDENT_LIST_ROLE\"\r\n        );\r\n        return hasRole(STUDENT_IDENTITY_ROLE, student);\r\n    }\r\n\r\n    function viewMyApplications() public view returns (address[] memory) {\r\n        return viewStudentApplications(_msgSender());\r\n    }\r\n\r\n    function viewStudentApplications(address addr)\r\n        public\r\n        view\r\n        returns (address[] memory)\r\n    {\r\n        require(\r\n            addr == _msgSender() || hasRole(GRANTS_MANAGER_ROLE, _msgSender()),\r\n            \"Classroom: read permission denied\"\r\n        );\r\n        return _studentApplicationsMapping[addr];\r\n    }\r\n\r\n    function studentSelfRegisterGSN(bytes32 sName) public returns (address) {\r\n        address student = _newStudent(sName, _msgSenderGSN());\r\n        relayHub.depositFor.value(_studentGSNDeposit)(student);\r\n        return student;\r\n    }\r\n\r\n    function studentSelfRegister(bytes32 sName) public returns (address) {\r\n        return _newStudent(sName, _msgSender());\r\n    }\r\n\r\n    function _newStudent(bytes32 sName, address caller)\r\n        internal\r\n        returns (address)\r\n    {\r\n        require(\r\n            _studentApplicationsMapping[_msgSenderGSN()].length == 0,\r\n            \"University: student already registered\"\r\n        );\r\n        //Gambiarra: Push address(0) in the mapping to mark that student as registered in the university\r\n        _studentApplicationsMapping[caller].push(address(0));\r\n        address student = _studentFactory.newStudent(sName, address(this));\r\n        IStudent(student).transferOwnershipStudent(caller);\r\n        address studentAddr = address(student);\r\n        _students.push(studentAddr);\r\n        grantRole(STUDENT_IDENTITY_ROLE, studentAddr);\r\n        return address(studentAddr);\r\n    }\r\n\r\n    //ex: owner, name, 0.2 * 10**6, 0.5 * 10**6, 0, 50 * (10 ** 18), 30 days, challengeAddress\r\n    function newClassRoom(\r\n        address owner,\r\n        bytes32 cName,\r\n        uint24 cCut,\r\n        uint24 cPCut,\r\n        int32 minScore,\r\n        uint256 entryPrice,\r\n        uint256 duration,\r\n        address challengeAddress\r\n    ) public returns (address) {\r\n        require(\r\n            hasRole(CLASSLIST_ADMIN_ROLE, _msgSender()),\r\n            \"University: caller doesn't have CLASSLIST_ADMIN_ROLE\"\r\n        );\r\n        return\r\n            _newClassRoom(\r\n                owner,\r\n                cName,\r\n                cCut,\r\n                cPCut,\r\n                minScore,\r\n                entryPrice,\r\n                duration,\r\n                challengeAddress\r\n            );\r\n    }\r\n\r\n    function _newClassRoom(\r\n        address owner,\r\n        bytes32 cName,\r\n        uint24 cCut,\r\n        uint24 cPCut,\r\n        int32 minScore,\r\n        uint256 entryPrice,\r\n        uint256 duration,\r\n        address challengeAddress\r\n    ) internal returns (address) {\r\n        address classroom = _classroomFactory.newClassroom(\r\n            cName,\r\n            cCut,\r\n            cPCut,\r\n            minScore,\r\n            entryPrice,\r\n            duration,\r\n            payable (address(this)),\r\n            challengeAddress,\r\n            address(daiToken),\r\n            address(cToken),\r\n            _studentApplicationFactoryAddress\r\n        );\r\n        IClassroom(classroom).transferOwnershipClassroom(owner);\r\n        address classroomAddr = address(classroom);\r\n        _classList.push(classroomAddr);\r\n        grantRole(READ_STUDENT_LIST_ROLE, classroomAddr);\r\n        grantRole(CLASSROOM_PROFESSOR_ROLE, classroomAddr);\r\n        emit LogNewClassroom(cName, classroomAddr);\r\n        return classroomAddr;\r\n    }\r\n\r\n    function studentRequestClassroom(\r\n        address applicationAddr,\r\n        bytes32 cName,\r\n        uint24 cCut,\r\n        uint24 cPCut,\r\n        int32 minScore,\r\n        uint256 entryPrice,\r\n        uint256 duration,\r\n        address challenge\r\n    ) public override returns (address) {\r\n        require(\r\n            hasRole(STUDENT_IDENTITY_ROLE, _msgSender()),\r\n            \"University: caller doesn't have STUDENT_IDENTITY_ROLE\"\r\n        );\r\n        require(\r\n            checkForStudentApplication(_msgSender(), applicationAddr),\r\n            \"University: caller is not student of this application\"\r\n        );\r\n        IStudentApplication application = IStudentApplication(applicationAddr);\r\n        require(\r\n            application.applicationState() == 3,\r\n            \"University: application is not successful\"\r\n        );\r\n        return\r\n            _newClassRoom(\r\n                IStudent(_msgSender()).ownerStudent(),\r\n                cName,\r\n                cCut,\r\n                cPCut,\r\n                minScore,\r\n                entryPrice,\r\n                duration,\r\n                challenge\r\n            );\r\n    }\r\n\r\n    function registerStudentApplication(address student, address application)\r\n        public override\r\n    {\r\n        require(\r\n            hasRole(CLASSROOM_PROFESSOR_ROLE, _msgSender()),\r\n            \"University: caller doesn't have CLASSROOM_PROFESSOR_ROLE\"\r\n        );\r\n        _studentApplicationsMapping[student].push(application);\r\n    }\r\n\r\n    function checkForStudentApplication(\r\n        address studentAddress,\r\n        address applicationAddress\r\n    ) internal view returns (bool) {\r\n        for (\r\n            uint256 i = 0;\r\n            i < _studentApplicationsMapping[studentAddress].length;\r\n            i++\r\n        ) {\r\n            if (\r\n                _studentApplicationsMapping[studentAddress][i] ==\r\n                applicationAddress\r\n            ) return true;\r\n        }\r\n        return false;\r\n    }\r\n\r\n    function addStudentScore(address student, int32 val) public override {\r\n        require(\r\n            hasRole(CLASSROOM_PROFESSOR_ROLE, _msgSender()),\r\n            \"University: caller doesn't have CLASSROOM_PROFESSOR_ROLE\"\r\n        );\r\n        IStudent(student).addScore(val);\r\n    }\r\n\r\n    function subStudentScore(address student, int32 val) public override {\r\n        require(\r\n            hasRole(CLASSROOM_PROFESSOR_ROLE, _msgSender()),\r\n            \"University: caller doesn't have CLASSROOM_PROFESSOR_ROLE\"\r\n        );\r\n        IStudent(student).subScore(val);\r\n    }\r\n\r\n    function applyFunds(uint256 val) public {\r\n        require(\r\n            hasRole(FUNDS_MANAGER_ROLE, _msgSender()),\r\n            \"University: caller doesn't have FUNDS_MANAGER_ROLE\"\r\n        );\r\n        daiToken.approve(address(cToken), val);\r\n        cToken.mint(val);\r\n    }\r\n\r\n    function recoverFunds(uint256 val) public {\r\n        require(\r\n            hasRole(FUNDS_MANAGER_ROLE, _msgSender()),\r\n            \"University: caller doesn't have FUNDS_MANAGER_ROLE\"\r\n        );\r\n        cToken.redeemUnderlying(val);\r\n    }\r\n\r\n    function spendFunds(address to, uint256 val) public {\r\n        require(\r\n            hasRole(FUNDS_MANAGER_ROLE, _msgSender()),\r\n            \"University: caller doesn't have FUNDS_MANAGER_ROLE\"\r\n        );\r\n        daiToken.transfer(to, val);\r\n    }\r\n\r\n    function allowFunds(address to, uint256 val) public {\r\n        require(\r\n            hasRole(FUNDS_MANAGER_ROLE, _msgSender()),\r\n            \"University: caller doesn't have FUNDS_MANAGER_ROLE\"\r\n        );\r\n        daiToken.approve(to, val);\r\n    }\r\n\r\n    function acceptRelayedCall(\r\n        GSNTypes.RelayRequest calldata relayRequest,\r\n        bytes calldata,\r\n        uint256\r\n    ) external pure returns (bytes memory context) {\r\n        require(\r\n            MyUtils.readBytes4(relayRequest.encodedFunction, 0) ==\r\n                this.studentSelfRegisterGSN.selector,\r\n            \"University: GSN not enabled for this function\"\r\n        );\r\n        return abi.encode(relayRequest.target, 0);\r\n    }\r\n\r\n    function refillUniversityRelayer(uint256 val) public {\r\n        require(\r\n            hasRole(FUNDS_MANAGER_ROLE, _msgSender()),\r\n            \"University: caller doesn't have STUDENT_IDENTITY_ROLE\"\r\n        );\r\n        relayHub.depositFor.value(val)(address(this));\r\n    }\r\n\r\n    //TODO: Trade DAI for ETH in Uniswap\r\n\r\n    //TODO: fund\r\n\r\n    //TODO: manage grants\r\n\r\n    //TODO: implement funds manager\r\n\r\n    //TODO: implement funds manager governance\r\n}\r\n",
  "sourcePath": "/mnt/e/Repositories/Uproot/contracts/University.sol",
  "compiler": {
    "name": "solc",
    "version": "0.6.6+commit.6c089d02.Emscripten.clang"
  },
  "schemaVersion": "3.1.0",
  "updatedAt": "2020-05-04T23:31:16.043Z",
  "networkType": "ethereum",
  "devdoc": {
    "methods": {
      "getRoleAdmin(bytes32)": {
        "details": "Returns the admin role that controls `role`. See {grantRole} and {revokeRole}.     * To change a role's admin, use {_setRoleAdmin}."
      },
      "getRoleMember(bytes32,uint256)": {
        "details": "Returns one of the accounts that have `role`. `index` must be a value between 0 and {getRoleMemberCount}, non-inclusive.     * Role bearers are not sorted in any particular way, and their ordering may change at any point.     * WARNING: When using {getRoleMember} and {getRoleMemberCount}, make sure you perform all queries on the same block. See the following https://forum.openzeppelin.com/t/iterating-over-elements-on-enumerableset-in-openzeppelin-contracts/2296[forum post] for more information."
      },
      "getRoleMemberCount(bytes32)": {
        "details": "Returns the number of accounts that have `role`. Can be used together with {getRoleMember} to enumerate all bearers of a role."
      },
      "grantRole(bytes32,address)": {
        "details": "Grants `role` to `account`.     * If `account` had not been already granted `role`, emits a {RoleGranted} event.     * Requirements:     * - the caller must have ``role``'s admin role."
      },
      "hasRole(bytes32,address)": {
        "details": "Returns `true` if `account` has been granted `role`."
      },
      "owner()": {
        "details": "Returns the address of the current owner."
      },
      "renounceOwnership()": {
        "details": "Leaves the contract without owner. It will not be possible to call `onlyOwner` functions anymore. Can only be called by the current owner.     * NOTE: Renouncing ownership will leave the contract without an owner, thereby removing any functionality that is only available to the owner."
      },
      "renounceRole(bytes32,address)": {
        "details": "Revokes `role` from the calling account.     * Roles are often managed via {grantRole} and {revokeRole}: this function's purpose is to provide a mechanism for accounts to lose their privileges if they are compromised (such as when a trusted device is misplaced).     * If the calling account had been granted `role`, emits a {RoleRevoked} event.     * Requirements:     * - the caller must be `account`."
      },
      "revokeRole(bytes32,address)": {
        "details": "Revokes `role` from `account`.     * If `account` had been granted `role`, emits a {RoleRevoked} event.     * Requirements:     * - the caller must have ``role``'s admin role."
      },
      "transferOwnership(address)": {
        "details": "Transfers ownership of the contract to a new account (`newOwner`). Can only be called by the current owner."
      }
    }
  },
  "userdoc": {
    "methods": {
      "_msgSenderGSN()": {
        "notice": "return the sender of this call. if the call came through our trusted forwarder, return the original sender. otherwise, return `msg.sender`. should be used in the contract anywhere instead of msg.sender"
      }
    }
  }
}