{
  "contractName": "University",
  "abi": [
    {
      "inputs": [
        {
          "internalType": "bytes32",
          "name": "_name",
          "type": "bytes32"
        },
        {
          "internalType": "uint24",
          "name": "_cut",
          "type": "uint24"
        },
        {
          "internalType": "uint256",
          "name": "studentGSNDeposit",
          "type": "uint256"
        },
        {
          "internalType": "address",
          "name": "daiAddress",
          "type": "address"
        },
        {
          "internalType": "address",
          "name": "relayHubAddress",
          "type": "address"
        },
        {
          "internalType": "address",
          "name": "classroomFactoryAddress",
          "type": "address"
        },
        {
          "internalType": "address",
          "name": "studentFactoryAddress",
          "type": "address"
        },
        {
          "internalType": "address",
          "name": "studentApplicationFactoryAddress",
          "type": "address"
        }
      ],
      "stateMutability": "nonpayable",
      "type": "constructor"
    },
    {
      "anonymous": false,
      "inputs": [
        {
          "indexed": false,
          "internalType": "uint24",
          "name": "",
          "type": "uint24"
        }
      ],
      "name": "LogChangeCut",
      "type": "event"
    },
    {
      "anonymous": false,
      "inputs": [
        {
          "indexed": false,
          "internalType": "bytes32",
          "name": "",
          "type": "bytes32"
        }
      ],
      "name": "LogChangeName",
      "type": "event"
    },
    {
      "anonymous": false,
      "inputs": [
        {
          "indexed": false,
          "internalType": "bytes32",
          "name": "",
          "type": "bytes32"
        },
        {
          "indexed": false,
          "internalType": "address",
          "name": "",
          "type": "address"
        }
      ],
      "name": "LogNewClassroom",
      "type": "event"
    },
    {
      "anonymous": false,
      "inputs": [
        {
          "indexed": false,
          "internalType": "address",
          "name": "",
          "type": "address"
        },
        {
          "indexed": false,
          "internalType": "uint256",
          "name": "",
          "type": "uint256"
        }
      ],
      "name": "LogReceived",
      "type": "event"
    },
    {
      "anonymous": false,
      "inputs": [
        {
          "indexed": true,
          "internalType": "address",
          "name": "previousOwner",
          "type": "address"
        },
        {
          "indexed": true,
          "internalType": "address",
          "name": "newOwner",
          "type": "address"
        }
      ],
      "name": "OwnershipTransferred",
      "type": "event"
    },
    {
      "anonymous": false,
      "inputs": [
        {
          "indexed": true,
          "internalType": "bytes32",
          "name": "role",
          "type": "bytes32"
        },
        {
          "indexed": true,
          "internalType": "address",
          "name": "account",
          "type": "address"
        },
        {
          "indexed": true,
          "internalType": "address",
          "name": "sender",
          "type": "address"
        }
      ],
      "name": "RoleGranted",
      "type": "event"
    },
    {
      "anonymous": false,
      "inputs": [
        {
          "indexed": true,
          "internalType": "bytes32",
          "name": "role",
          "type": "bytes32"
        },
        {
          "indexed": true,
          "internalType": "address",
          "name": "account",
          "type": "address"
        },
        {
          "indexed": true,
          "internalType": "address",
          "name": "sender",
          "type": "address"
        }
      ],
      "name": "RoleRevoked",
      "type": "event"
    },
    {
      "inputs": [],
      "name": "CLASSLIST_ADMIN_ROLE",
      "outputs": [
        {
          "internalType": "bytes32",
          "name": "",
          "type": "bytes32"
        }
      ],
      "stateMutability": "view",
      "type": "function"
    },
    {
      "inputs": [],
      "name": "CLASSROOM_PROFESSOR_ROLE",
      "outputs": [
        {
          "internalType": "bytes32",
          "name": "",
          "type": "bytes32"
        }
      ],
      "stateMutability": "view",
      "type": "function"
    },
    {
      "inputs": [],
      "name": "DEFAULT_ADMIN_ROLE",
      "outputs": [
        {
          "internalType": "bytes32",
          "name": "",
          "type": "bytes32"
        }
      ],
      "stateMutability": "view",
      "type": "function"
    },
    {
      "inputs": [],
      "name": "FUNDS_MANAGER_ROLE",
      "outputs": [
        {
          "internalType": "bytes32",
          "name": "",
          "type": "bytes32"
        }
      ],
      "stateMutability": "view",
      "type": "function"
    },
    {
      "inputs": [],
      "name": "GRANTS_MANAGER_ROLE",
      "outputs": [
        {
          "internalType": "bytes32",
          "name": "",
          "type": "bytes32"
        }
      ],
      "stateMutability": "view",
      "type": "function"
    },
    {
      "inputs": [],
      "name": "READ_STUDENT_LIST_ROLE",
      "outputs": [
        {
          "internalType": "bytes32",
          "name": "",
          "type": "bytes32"
        }
      ],
      "stateMutability": "view",
      "type": "function"
    },
    {
      "inputs": [],
      "name": "REGISTERED_SUPPLIER_ROLE",
      "outputs": [
        {
          "internalType": "bytes32",
          "name": "",
          "type": "bytes32"
        }
      ],
      "stateMutability": "view",
      "type": "function"
    },
    {
      "inputs": [],
      "name": "STUDENT_IDENTITY_ROLE",
      "outputs": [
        {
          "internalType": "bytes32",
          "name": "",
          "type": "bytes32"
        }
      ],
      "stateMutability": "view",
      "type": "function"
    },
    {
      "inputs": [],
      "name": "UNIVERSITY_OVERSEER_ROLE",
      "outputs": [
        {
          "internalType": "bytes32",
          "name": "",
          "type": "bytes32"
        }
      ],
      "stateMutability": "view",
      "type": "function"
    },
    {
      "inputs": [
        {
          "internalType": "uint256",
          "name": "",
          "type": "uint256"
        }
      ],
      "name": "_classList",
      "outputs": [
        {
          "internalType": "address",
          "name": "",
          "type": "address"
        }
      ],
      "stateMutability": "view",
      "type": "function"
    },
    {
      "inputs": [],
      "name": "_msgSenderGSN",
      "outputs": [
        {
          "internalType": "address",
          "name": "",
          "type": "address"
        }
      ],
      "stateMutability": "view",
      "type": "function"
    },
    {
      "inputs": [],
      "name": "_uniswapRouter",
      "outputs": [
        {
          "internalType": "contract IUniswapV2Router01",
          "name": "",
          "type": "address"
        }
      ],
      "stateMutability": "view",
      "type": "function"
    },
    {
      "inputs": [],
      "name": "cDAI",
      "outputs": [
        {
          "internalType": "contract CERC20",
          "name": "",
          "type": "address"
        }
      ],
      "stateMutability": "view",
      "type": "function"
    },
    {
      "inputs": [],
      "name": "comptroller",
      "outputs": [
        {
          "internalType": "contract IComptroller",
          "name": "",
          "type": "address"
        }
      ],
      "stateMutability": "view",
      "type": "function"
    },
    {
      "inputs": [],
      "name": "cut",
      "outputs": [
        {
          "internalType": "uint24",
          "name": "",
          "type": "uint24"
        }
      ],
      "stateMutability": "view",
      "type": "function"
    },
    {
      "inputs": [],
      "name": "daiToken",
      "outputs": [
        {
          "internalType": "contract IERC20",
          "name": "",
          "type": "address"
        }
      ],
      "stateMutability": "view",
      "type": "function"
    },
    {
      "inputs": [],
      "name": "donationsReceived",
      "outputs": [
        {
          "internalType": "uint256",
          "name": "",
          "type": "uint256"
        }
      ],
      "stateMutability": "view",
      "type": "function"
    },
    {
      "inputs": [
        {
          "internalType": "address",
          "name": "",
          "type": "address"
        }
      ],
      "name": "donators",
      "outputs": [
        {
          "internalType": "uint256",
          "name": "",
          "type": "uint256"
        }
      ],
      "stateMutability": "view",
      "type": "function"
    },
    {
      "inputs": [],
      "name": "endowmentLocked",
      "outputs": [
        {
          "internalType": "uint256",
          "name": "",
          "type": "uint256"
        }
      ],
      "stateMutability": "view",
      "type": "function"
    },
    {
      "inputs": [
        {
          "internalType": "bytes32",
          "name": "role",
          "type": "bytes32"
        }
      ],
      "name": "getRoleAdmin",
      "outputs": [
        {
          "internalType": "bytes32",
          "name": "",
          "type": "bytes32"
        }
      ],
      "stateMutability": "view",
      "type": "function"
    },
    {
      "inputs": [
        {
          "internalType": "bytes32",
          "name": "role",
          "type": "bytes32"
        },
        {
          "internalType": "uint256",
          "name": "index",
          "type": "uint256"
        }
      ],
      "name": "getRoleMember",
      "outputs": [
        {
          "internalType": "address",
          "name": "",
          "type": "address"
        }
      ],
      "stateMutability": "view",
      "type": "function"
    },
    {
      "inputs": [
        {
          "internalType": "bytes32",
          "name": "role",
          "type": "bytes32"
        }
      ],
      "name": "getRoleMemberCount",
      "outputs": [
        {
          "internalType": "uint256",
          "name": "",
          "type": "uint256"
        }
      ],
      "stateMutability": "view",
      "type": "function"
    },
    {
      "inputs": [],
      "name": "getTrustedForwarder",
      "outputs": [
        {
          "internalType": "address",
          "name": "",
          "type": "address"
        }
      ],
      "stateMutability": "view",
      "type": "function"
    },
    {
      "inputs": [
        {
          "internalType": "bytes32",
          "name": "role",
          "type": "bytes32"
        },
        {
          "internalType": "address",
          "name": "account",
          "type": "address"
        }
      ],
      "name": "grantRole",
      "outputs": [],
      "stateMutability": "nonpayable",
      "type": "function"
    },
    {
      "inputs": [
        {
          "internalType": "bytes32",
          "name": "role",
          "type": "bytes32"
        },
        {
          "internalType": "address",
          "name": "account",
          "type": "address"
        }
      ],
      "name": "hasRole",
      "outputs": [
        {
          "internalType": "bool",
          "name": "",
          "type": "bool"
        }
      ],
      "stateMutability": "view",
      "type": "function"
    },
    {
      "inputs": [],
      "name": "name",
      "outputs": [
        {
          "internalType": "bytes32",
          "name": "",
          "type": "bytes32"
        }
      ],
      "stateMutability": "view",
      "type": "function"
    },
    {
      "inputs": [],
      "name": "operationalBudget",
      "outputs": [
        {
          "internalType": "uint256",
          "name": "",
          "type": "uint256"
        }
      ],
      "stateMutability": "view",
      "type": "function"
    },
    {
      "inputs": [],
      "name": "owner",
      "outputs": [
        {
          "internalType": "address",
          "name": "",
          "type": "address"
        }
      ],
      "stateMutability": "view",
      "type": "function"
    },
    {
      "inputs": [],
      "name": "priceOracle",
      "outputs": [
        {
          "internalType": "contract IPriceOracle",
          "name": "",
          "type": "address"
        }
      ],
      "stateMutability": "view",
      "type": "function"
    },
    {
      "inputs": [],
      "name": "relayHub",
      "outputs": [
        {
          "internalType": "contract IRelayHub",
          "name": "",
          "type": "address"
        }
      ],
      "stateMutability": "view",
      "type": "function"
    },
    {
      "inputs": [],
      "name": "renounceOwnership",
      "outputs": [],
      "stateMutability": "nonpayable",
      "type": "function"
    },
    {
      "inputs": [
        {
          "internalType": "bytes32",
          "name": "role",
          "type": "bytes32"
        },
        {
          "internalType": "address",
          "name": "account",
          "type": "address"
        }
      ],
      "name": "renounceRole",
      "outputs": [],
      "stateMutability": "nonpayable",
      "type": "function"
    },
    {
      "inputs": [],
      "name": "returnsReceived",
      "outputs": [
        {
          "internalType": "uint256",
          "name": "",
          "type": "uint256"
        }
      ],
      "stateMutability": "view",
      "type": "function"
    },
    {
      "inputs": [],
      "name": "revenueReceived",
      "outputs": [
        {
          "internalType": "uint256",
          "name": "",
          "type": "uint256"
        }
      ],
      "stateMutability": "view",
      "type": "function"
    },
    {
      "inputs": [
        {
          "internalType": "bytes32",
          "name": "role",
          "type": "bytes32"
        },
        {
          "internalType": "address",
          "name": "account",
          "type": "address"
        }
      ],
      "name": "revokeRole",
      "outputs": [],
      "stateMutability": "nonpayable",
      "type": "function"
    },
    {
      "inputs": [
        {
          "internalType": "address",
          "name": "newOwner",
          "type": "address"
        }
      ],
      "name": "transferOwnership",
      "outputs": [],
      "stateMutability": "nonpayable",
      "type": "function"
    },
    {
      "stateMutability": "payable",
      "type": "receive"
    },
    {
      "inputs": [
        {
          "internalType": "address",
          "name": "compoundDAIAddress",
          "type": "address"
        },
        {
          "internalType": "address",
          "name": "comptrollerAddress",
          "type": "address"
        },
        {
          "internalType": "address",
          "name": "priceOracleAddress",
          "type": "address"
        }
      ],
      "name": "configureCompound",
      "outputs": [],
      "stateMutability": "nonpayable",
      "type": "function"
    },
    {
      "inputs": [
        {
          "internalType": "address",
          "name": "uniswapWETH",
          "type": "address"
        },
        {
          "internalType": "address",
          "name": "uniswapDAI",
          "type": "address"
        },
        {
          "internalType": "address",
          "name": "uniswapRouter",
          "type": "address"
        }
      ],
      "name": "configureUniswap",
      "outputs": [],
      "stateMutability": "nonpayable",
      "type": "function"
    },
    {
      "inputs": [
        {
          "internalType": "bytes32",
          "name": "val",
          "type": "bytes32"
        }
      ],
      "name": "changeName",
      "outputs": [],
      "stateMutability": "nonpayable",
      "type": "function"
    },
    {
      "inputs": [
        {
          "internalType": "uint24",
          "name": "val",
          "type": "uint24"
        }
      ],
      "name": "changeCut",
      "outputs": [],
      "stateMutability": "nonpayable",
      "type": "function"
    },
    {
      "inputs": [
        {
          "internalType": "uint256",
          "name": "val",
          "type": "uint256"
        }
      ],
      "name": "changeStudentGSNDeposit",
      "outputs": [],
      "stateMutability": "nonpayable",
      "type": "function"
    },
    {
      "inputs": [],
      "name": "availableFunds",
      "outputs": [
        {
          "internalType": "uint256",
          "name": "",
          "type": "uint256"
        }
      ],
      "stateMutability": "view",
      "type": "function"
    },
    {
      "inputs": [
        {
          "internalType": "address",
          "name": "classroom",
          "type": "address"
        }
      ],
      "name": "isValidClassroom",
      "outputs": [
        {
          "internalType": "bool",
          "name": "",
          "type": "bool"
        }
      ],
      "stateMutability": "view",
      "type": "function"
    },
    {
      "inputs": [
        {
          "internalType": "address",
          "name": "student",
          "type": "address"
        }
      ],
      "name": "studentIsRegistered",
      "outputs": [
        {
          "internalType": "bool",
          "name": "",
          "type": "bool"
        }
      ],
      "stateMutability": "view",
      "type": "function"
    },
    {
      "inputs": [],
      "name": "viewMyApplications",
      "outputs": [
        {
          "internalType": "address[]",
          "name": "",
          "type": "address[]"
        }
      ],
      "stateMutability": "view",
      "type": "function"
    },
    {
      "inputs": [
        {
          "internalType": "address",
          "name": "addr",
          "type": "address"
        }
      ],
      "name": "viewStudentApplications",
      "outputs": [
        {
          "internalType": "address[]",
          "name": "",
          "type": "address[]"
        }
      ],
      "stateMutability": "view",
      "type": "function"
    },
    {
      "inputs": [
        {
          "internalType": "bytes32",
          "name": "sName",
          "type": "bytes32"
        }
      ],
      "name": "studentSelfRegisterGSN",
      "outputs": [
        {
          "internalType": "address",
          "name": "",
          "type": "address"
        }
      ],
      "stateMutability": "nonpayable",
      "type": "function"
    },
    {
      "inputs": [
        {
          "internalType": "bytes32",
          "name": "sName",
          "type": "bytes32"
        }
      ],
      "name": "studentSelfRegister",
      "outputs": [
        {
          "internalType": "address",
          "name": "",
          "type": "address"
        }
      ],
      "stateMutability": "nonpayable",
      "type": "function"
    },
    {
      "inputs": [
        {
          "internalType": "address",
          "name": "owner",
          "type": "address"
        },
        {
          "internalType": "bytes32",
          "name": "cName",
          "type": "bytes32"
        },
        {
          "internalType": "uint24",
          "name": "cCut",
          "type": "uint24"
        },
        {
          "internalType": "uint24",
          "name": "cPCut",
          "type": "uint24"
        },
        {
          "internalType": "int32",
          "name": "minScore",
          "type": "int32"
        },
        {
          "internalType": "uint256",
          "name": "entryPrice",
          "type": "uint256"
        },
        {
          "internalType": "uint256",
          "name": "duration",
          "type": "uint256"
        },
        {
          "internalType": "address",
          "name": "challengeAddress",
          "type": "address"
        }
      ],
      "name": "newClassRoom",
      "outputs": [
        {
          "internalType": "address",
          "name": "",
          "type": "address"
        }
      ],
      "stateMutability": "nonpayable",
      "type": "function"
    },
    {
      "inputs": [
        {
          "internalType": "address",
          "name": "applicationAddr",
          "type": "address"
        },
        {
          "internalType": "bytes32",
          "name": "cName",
          "type": "bytes32"
        },
        {
          "internalType": "uint24",
          "name": "cCut",
          "type": "uint24"
        },
        {
          "internalType": "uint24",
          "name": "cPCut",
          "type": "uint24"
        },
        {
          "internalType": "int32",
          "name": "minScore",
          "type": "int32"
        },
        {
          "internalType": "uint256",
          "name": "entryPrice",
          "type": "uint256"
        },
        {
          "internalType": "uint256",
          "name": "duration",
          "type": "uint256"
        },
        {
          "internalType": "address",
          "name": "challenge",
          "type": "address"
        }
      ],
      "name": "studentRequestClassroom",
      "outputs": [
        {
          "internalType": "address",
          "name": "",
          "type": "address"
        }
      ],
      "stateMutability": "nonpayable",
      "type": "function"
    },
    {
      "inputs": [
        {
          "internalType": "address",
          "name": "student",
          "type": "address"
        },
        {
          "internalType": "address",
          "name": "application",
          "type": "address"
        }
      ],
      "name": "registerStudentApplication",
      "outputs": [],
      "stateMutability": "nonpayable",
      "type": "function"
    },
    {
      "inputs": [
        {
          "internalType": "address",
          "name": "student",
          "type": "address"
        },
        {
          "internalType": "int32",
          "name": "val",
          "type": "int32"
        }
      ],
      "name": "addStudentScore",
      "outputs": [],
      "stateMutability": "nonpayable",
      "type": "function"
    },
    {
      "inputs": [
        {
          "internalType": "address",
          "name": "student",
          "type": "address"
        },
        {
          "internalType": "int32",
          "name": "val",
          "type": "int32"
        }
      ],
      "name": "subStudentScore",
      "outputs": [],
      "stateMutability": "nonpayable",
      "type": "function"
    },
    {
      "inputs": [
        {
          "internalType": "uint256",
          "name": "val",
          "type": "uint256"
        }
      ],
      "name": "applyFundsCompound",
      "outputs": [],
      "stateMutability": "nonpayable",
      "type": "function"
    },
    {
      "inputs": [],
      "name": "enterCompoundDAIMarket",
      "outputs": [],
      "stateMutability": "nonpayable",
      "type": "function"
    },
    {
      "inputs": [],
      "name": "exitCompoundDAIMarket",
      "outputs": [],
      "stateMutability": "nonpayable",
      "type": "function"
    },
    {
      "inputs": [],
      "name": "getCompoundLiquidityAndShortfall",
      "outputs": [
        {
          "internalType": "uint256",
          "name": "",
          "type": "uint256"
        },
        {
          "internalType": "uint256",
          "name": "",
          "type": "uint256"
        }
      ],
      "stateMutability": "view",
      "type": "function"
    },
    {
      "inputs": [
        {
          "internalType": "address",
          "name": "cToken",
          "type": "address"
        }
      ],
      "name": "getCompoundPriceInWEI",
      "outputs": [
        {
          "internalType": "uint256",
          "name": "",
          "type": "uint256"
        }
      ],
      "stateMutability": "view",
      "type": "function"
    },
    {
      "inputs": [
        {
          "internalType": "address",
          "name": "cToken",
          "type": "address"
        }
      ],
      "name": "getCompoundMaxBorrowInWei",
      "outputs": [
        {
          "internalType": "uint256",
          "name": "",
          "type": "uint256"
        }
      ],
      "stateMutability": "view",
      "type": "function"
    },
    {
      "inputs": [
        {
          "internalType": "address",
          "name": "cToken",
          "type": "address"
        },
        {
          "internalType": "uint256",
          "name": "val",
          "type": "uint256"
        }
      ],
      "name": "compoundBorrow",
      "outputs": [],
      "stateMutability": "nonpayable",
      "type": "function"
    },
    {
      "inputs": [
        {
          "internalType": "address",
          "name": "cToken",
          "type": "address"
        }
      ],
      "name": "compoundGetBorrow",
      "outputs": [
        {
          "internalType": "uint256",
          "name": "",
          "type": "uint256"
        }
      ],
      "stateMutability": "view",
      "type": "function"
    },
    {
      "inputs": [
        {
          "internalType": "address",
          "name": "token",
          "type": "address"
        },
        {
          "internalType": "address",
          "name": "cToken",
          "type": "address"
        },
        {
          "internalType": "uint256",
          "name": "val",
          "type": "uint256"
        }
      ],
      "name": "compoundRepayBorrow",
      "outputs": [],
      "stateMutability": "nonpayable",
      "type": "function"
    },
    {
      "inputs": [
        {
          "internalType": "uint256",
          "name": "val",
          "type": "uint256"
        }
      ],
      "name": "recoverFundsCompound",
      "outputs": [],
      "stateMutability": "nonpayable",
      "type": "function"
    },
    {
      "inputs": [
        {
          "internalType": "uint256",
          "name": "val",
          "type": "uint256"
        }
      ],
      "name": "increaseOperationalBudget",
      "outputs": [],
      "stateMutability": "nonpayable",
      "type": "function"
    },
    {
      "inputs": [
        {
          "internalType": "address",
          "name": "to",
          "type": "address"
        },
        {
          "internalType": "uint256",
          "name": "val",
          "type": "uint256"
        }
      ],
      "name": "spendBudget",
      "outputs": [],
      "stateMutability": "nonpayable",
      "type": "function"
    },
    {
      "inputs": [
        {
          "internalType": "address",
          "name": "studentApplication",
          "type": "address"
        },
        {
          "internalType": "uint256",
          "name": "price",
          "type": "uint256"
        }
      ],
      "name": "giveGrant",
      "outputs": [],
      "stateMutability": "nonpayable",
      "type": "function"
    },
    {
      "inputs": [
        {
          "internalType": "uint256",
          "name": "val",
          "type": "uint256"
        }
      ],
      "name": "reinvestReturns",
      "outputs": [],
      "stateMutability": "nonpayable",
      "type": "function"
    },
    {
      "inputs": [
        {
          "internalType": "address",
          "name": "grantsManager",
          "type": "address"
        }
      ],
      "name": "viewAllStudentsFromGrantManager",
      "outputs": [
        {
          "internalType": "address[]",
          "name": "",
          "type": "address[]"
        }
      ],
      "stateMutability": "nonpayable",
      "type": "function"
    },
    {
      "inputs": [
        {
          "internalType": "address",
          "name": "student",
          "type": "address"
        },
        {
          "internalType": "address",
          "name": "grantsManager",
          "type": "address"
        }
      ],
      "name": "viewAllStudentGrantsFromGrantManager",
      "outputs": [
        {
          "internalType": "uint256[]",
          "name": "",
          "type": "uint256[]"
        }
      ],
      "stateMutability": "nonpayable",
      "type": "function"
    },
    {
      "inputs": [
        {
          "components": [
            {
              "internalType": "address",
              "name": "target",
              "type": "address"
            },
            {
              "internalType": "bytes",
              "name": "encodedFunction",
              "type": "bytes"
            },
            {
              "components": [
                {
                  "internalType": "uint256",
                  "name": "gasLimit",
                  "type": "uint256"
                },
                {
                  "internalType": "uint256",
                  "name": "gasPrice",
                  "type": "uint256"
                },
                {
                  "internalType": "uint256",
                  "name": "pctRelayFee",
                  "type": "uint256"
                },
                {
                  "internalType": "uint256",
                  "name": "baseRelayFee",
                  "type": "uint256"
                }
              ],
              "internalType": "struct GSNTypes.GasData",
              "name": "gasData",
              "type": "tuple"
            },
            {
              "components": [
                {
                  "internalType": "address",
                  "name": "senderAddress",
                  "type": "address"
                },
                {
                  "internalType": "uint256",
                  "name": "senderNonce",
                  "type": "uint256"
                },
                {
                  "internalType": "address",
                  "name": "relayWorker",
                  "type": "address"
                },
                {
                  "internalType": "address",
                  "name": "paymaster",
                  "type": "address"
                }
              ],
              "internalType": "struct GSNTypes.RelayData",
              "name": "relayData",
              "type": "tuple"
            }
          ],
          "internalType": "struct GSNTypes.RelayRequest",
          "name": "relayRequest",
          "type": "tuple"
        },
        {
          "internalType": "bytes",
          "name": "",
          "type": "bytes"
        },
        {
          "internalType": "uint256",
          "name": "",
          "type": "uint256"
        }
      ],
      "name": "acceptRelayedCall",
      "outputs": [
        {
          "internalType": "bytes",
          "name": "context",
          "type": "bytes"
        }
      ],
      "stateMutability": "pure",
      "type": "function"
    },
    {
      "inputs": [
        {
          "internalType": "uint256",
          "name": "val",
          "type": "uint256"
        }
      ],
      "name": "refillUniversityRelayer",
      "outputs": [],
      "stateMutability": "nonpayable",
      "type": "function"
    },
    {
      "inputs": [
        {
          "internalType": "uint256",
          "name": "amount",
          "type": "uint256"
        },
        {
          "internalType": "uint256",
          "name": "deadline",
          "type": "uint256"
        }
      ],
      "name": "swapDAI_ETH",
      "outputs": [
        {
          "internalType": "uint256[]",
          "name": "amounts",
          "type": "uint256[]"
        }
      ],
      "stateMutability": "nonpayable",
      "type": "function"
    },
    {
      "inputs": [
        {
          "internalType": "uint256",
          "name": "amount",
          "type": "uint256"
        },
        {
          "internalType": "uint256",
          "name": "deadline",
          "type": "uint256"
        }
      ],
      "name": "swapETH_DAI",
      "outputs": [
        {
          "internalType": "uint256[]",
          "name": "amounts",
          "type": "uint256[]"
        }
      ],
      "stateMutability": "nonpayable",
      "type": "function"
    },
    {
      "inputs": [
        {
          "internalType": "uint256",
          "name": "donation",
          "type": "uint256"
        }
      ],
      "name": "donateETH",
      "outputs": [],
      "stateMutability": "payable",
      "type": "function"
    },
    {
      "inputs": [
        {
          "internalType": "uint256",
          "name": "donation",
          "type": "uint256"
        }
      ],
      "name": "donateDAI",
      "outputs": [],
      "stateMutability": "nonpayable",
      "type": "function"
    },
    {
      "inputs": [
        {
          "internalType": "uint256",
          "name": "revenue",
          "type": "uint256"
        }
      ],
      "name": "accountRevenue",
      "outputs": [],
      "stateMutability": "nonpayable",
      "type": "function"
    }
  ],
  "bytecode": "0x60806040523480156200001157600080fd5b50604051620050203803806200502083398101604081905262000034916200036c565b6000620000496001600160e01b036200017316565b600080546001600160a01b0319166001600160a01b0383169081178255604051929350917f8be0079c531659141344cd1fd0a4f28419497f9722a3daafe3b4186f6b6457e0908290a35060038890556004805462ffffff191662ffffff89161790556005869055620000cf6000620000c062000173565b6001600160e01b036200017716565b6200010c604051620000e1906200040f565b604051908190039020620000fd6001600160e01b036200017316565b6001600160e01b036200019016565b601580546001600160a01b03199081166001600160a01b039788161790915560168054821695871695909517909455601780548516938616939093179092556018805484169185169190911790556019805490921692169190911790555062000487915050565b3390565b6200018c82826001600160e01b03620001f116565b5050565b600082815260016020526040902060020154620001c990620001ba6001600160e01b036200017316565b6001600160e01b036200027516565b620001775760405162461bcd60e51b8152600401620001e89062000438565b60405180910390fd5b6000828152600160209081526040909120620002189183906200357a620002a4821b17901c565b156200018c57620002316001600160e01b036200017316565b6001600160a01b0316816001600160a01b0316837f2f8788117e7eff1d82e926ec794901d17c78024a50270940304540a733656f0d60405160405180910390a45050565b600082815260016020908152604082206200029b918490620032a1620002c4821b17901c565b90505b92915050565b60006200029b836001600160a01b0384166001600160e01b03620002e416565b60006200029b836001600160a01b0384166001600160e01b036200033c16565b6000620002fb83836001600160e01b036200033c16565b62000333575081546001818101845560008481526020808220909301849055845484825282860190935260409020919091556200029e565b5060006200029e565b60009081526001919091016020526040902054151590565b80516001600160a01b03811681146200029e57600080fd5b600080600080600080600080610100898b03121562000389578384fd5b88519750602089015162ffffff81168114620003a3578485fd5b60408a01519097509550620003bc8a60608b0162000354565b9450620003cd8a60808b0162000354565b9350620003de8a60a08b0162000354565b9250620003ef8a60c08b0162000354565b9150620004008a60e08b0162000354565b90509295985092959890939650565b7f524541445f53545544454e545f4c4953545f524f4c4500000000000000000000815260160190565b6020808252602f908201527f416363657373436f6e74726f6c3a2073656e646572206d75737420626520616e60408201526e0818591b5a5b881d1bc819dc985b9d608a1b606082015260800190565b614b8980620004976000396000f3fe60806040526004361061050b5760003560e01c806385dade6111610294578063c45e108a1161015e578063e1ba8597116100d6578063f2fde38b1161008a578063fa8e50601161006f578063fa8e506014610d82578063fee7e26814610da2578063ff5d8f6314610dc25761054b565b8063f2fde38b14610d4d578063f676f43d14610d6d5761054b565b8063e6fd604c116100bb578063e6fd604c14610ceb578063e770d7d414610d0d578063ef5450ba14610d2d5761054b565b8063e1ba859714610cab578063e37dd98014610ccb5761054b565b8063cb4e56011161012d578063d24f8cdd11610112578063d24f8cdd14610c4b578063d3c5704e14610c6b578063d547741f14610c8b5761054b565b8063cb4e560114610c16578063ce1b815f14610c365761054b565b8063c45e108a14610ba1578063c4707a8314610bc1578063ca15c87314610bd6578063cb0ce41714610bf65761054b565b80639e93d0e41161020c578063adcceca4116101c0578063be22f546116101a5578063be22f54614610b57578063be61437914610b6c578063c2b94cd814610b815761054b565b8063adcceca414610b0a578063b1ed031f14610b2a5761054b565b8063a217fddf116101f1578063a217fddf14610ac2578063a544594e14610ad7578063ab83f98a14610af75761054b565b80639e93d0e414610a8d5780639fd6cb7a14610aad5761054b565b80638da5cb5b116102635780639010d07c116102485780639010d07c14610a3857806391d1485414610a585780639e1fcfde14610a785761054b565b80638da5cb5b14610a035780638ff2f76214610a185761054b565b806385dade611461098e57806387bfe188146109ae578063898855ed146109ce5780638a9f5b7f146109ee5761054b565b8063478ecefb116103d55780636408a3861161034d578063715018a61161030157806380359c84116102e657806380359c84146109395780638038090614610959578063820cd75c146109795761054b565b8063715018a6146109045780637fd5c108146109195761054b565b806365b61b771161033257806365b61b77146108c55780636beb0c03146108da5780636f6941b9146108ef5761054b565b80636408a3861461089b57806364d47731146108b05761054b565b80635a7dd150116103a45780635caa8e2d116103895780635caa8e2d1461085c5780635fe3b56714610871578063629bca67146108865761054b565b80635a7dd1501461081c5780635b8f96de1461083c5761054b565b8063478ecefb1461079a5780634884da05146107ba5780634ea962c1146107e757806351275dba146108075761054b565b80632630c12f116104835780633593aad611610437578063377ef77f1161041c578063377ef77f146107455780633dc3214b1461076557806346fcff4c146107855761054b565b80633593aad61461070557806336568abe146107255761054b565b8063289c5e5411610468578063289c5e54146106bb5780632f2ff15d146106d057806332636ac9146106f05761054b565b80632630c12f1461068457806328475518146106a65761054b565b8063183b2600116104da57806321ae3211116104bf57806321ae321114610617578063238aaf2f14610637578063248a9ca3146106645761054b565b8063183b2600146105e05780631ec1f9f3146106025761054b565b806306fdde031461055057806308186df91461057b57806316ded1ce1461059e57806317b1a4cf146105cb5761054b565b3661054b577f60e4c1ac84c9e2c4c0aa82b86b3b1ddf0b1b73fbbeb74c8bc8f8f06041ccfdf63334604051610541929190613e04565b60405180910390a1005b600080fd5b34801561055c57600080fd5b50610565610de2565b6040516105729190613ebf565b60405180910390f35b34801561058757600080fd5b50610590610de8565b604051610572929190614a6f565b3480156105aa57600080fd5b506105be6105b936600461378b565b610efd565b6040516105729190613eb4565b3480156105d757600080fd5b50610565610f4d565b3480156105ec57600080fd5b506106006105fb3660046137c3565b610f53565b005b34801561060e57600080fd5b50610565610fbc565b34801561062357600080fd5b50610600610632366004613948565b610fc2565b34801561064357600080fd5b506106576106523660046137c3565b611089565b6040516105729190613e70565b34801561067057600080fd5b5061056561067f366004613abb565b611158565b34801561069057600080fd5b5061069961116d565b6040516105729190613df0565b3480156106b257600080fd5b5061069961117c565b3480156106c757600080fd5b5061069961118b565b3480156106dc57600080fd5b506106006106eb366004613ad3565b61120e565b3480156106fc57600080fd5b50610565611256565b34801561071157600080fd5b50610600610720366004613abb565b61126d565b34801561073157600080fd5b50610600610740366004613ad3565b6112f3565b34801561075157600080fd5b50610600610760366004613abb565b611335565b34801561077157600080fd5b50610657610780366004613af7565b6113fb565b34801561079157600080fd5b5061056561146e565b3480156107a657600080fd5b506106006107b5366004613abb565b61154a565b3480156107c657600080fd5b506107da6107d536600461378b565b611606565b6040516105729190613e5d565b3480156107f357600080fd5b50610699610802366004613885565b6116aa565b34801561081357600080fd5b506105656116f4565b34801561082857600080fd5b50610699610837366004613abb565b6116fa565b34801561084857600080fd5b506106006108573660046137fb565b61170d565b34801561086857600080fd5b50610600611781565b34801561087d57600080fd5b506106996118cf565b34801561089257600080fd5b506105656118de565b3480156108a757600080fd5b506107da6118ea565b3480156108bc57600080fd5b506105656118fc565b3480156108d157600080fd5b50610699611908565b3480156108e657600080fd5b50610565611917565b3480156108fb57600080fd5b5061069961191d565b34801561091057600080fd5b5061060061192c565b34801561092557600080fd5b50610699610934366004613885565b6119ab565b34801561094557600080fd5b50610600610954366004613845565b611b2f565b34801561096557600080fd5b50610600610974366004613abb565b611c9e565b34801561098557600080fd5b50610565611d2f565b34801561099a57600080fd5b506105be6109a936600461378b565b611d3b565b3480156109ba57600080fd5b506106006109c9366004613915565b611d4c565b3480156109da57600080fd5b506106006109e9366004613abb565b611dd6565b3480156109fa57600080fd5b50610565611e4b565b348015610a0f57600080fd5b50610699611e57565b348015610a2457600080fd5b50610699610a33366004613abb565b611e66565b348015610a4457600080fd5b50610699610a53366004613af7565b611ee5565b348015610a6457600080fd5b506105be610a73366004613ad3565b611f03565b348015610a8457600080fd5b50610600611f21565b348015610a9957600080fd5b50610600610aa8366004613abb565b612012565b348015610ab957600080fd5b5061056561206d565b348015610ace57600080fd5b50610565612079565b348015610ae357600080fd5b50610600610af2366004613abb565b61207e565b610600610b05366004613abb565b612102565b348015610b1657600080fd5b50610565610b2536600461378b565b612183565b348015610b3657600080fd5b50610b4a610b45366004613b18565b612245565b6040516105729190613f4a565b348015610b6357600080fd5b5061069961232a565b348015610b7857600080fd5b50610565612339565b348015610b8d57600080fd5b50610600610b9c366004613948565b612345565b348015610bad57600080fd5b50610600610bbc3660046137fb565b6123d2565b348015610bcd57600080fd5b50610565612446565b348015610be257600080fd5b50610565610bf1366004613abb565b612452565b348015610c0257600080fd5b50610657610c11366004613af7565b612469565b348015610c2257600080fd5b50610600610c31366004613948565b6124dc565b348015610c4257600080fd5b50610699612623565b348015610c5757600080fd5b50610565610c6636600461378b565b612632565b348015610c7757600080fd5b506107da610c8636600461378b565b612644565b348015610c9757600080fd5b50610600610ca6366004613ad3565b612707565b348015610cb757600080fd5b50610565610cc636600461378b565b612741565b348015610cd757600080fd5b50610699610ce6366004613abb565b612772565b348015610cf757600080fd5b50610d00612799565b6040516105729190614a23565b348015610d1957600080fd5b50610600610d28366004613bb5565b6127a4565b348015610d3957600080fd5b50610600610d48366004613abb565b612822565b348015610d5957600080fd5b50610600610d6836600461378b565b61285c565b348015610d7957600080fd5b50610565612912565b348015610d8e57600080fd5b50610600610d9d366004613abb565b612918565b348015610dae57600080fd5b50610565610dbd36600461378b565b61296c565b348015610dce57600080fd5b50610600610ddd366004613915565b612a0c565b60035481565b600080610e0a604051610dfa90613d4c565b6040518091039020610a73612a7c565b610e2f5760405162461bcd60e51b8152600401610e2690614173565b60405180910390fd5b6013546040517f5ec88c79000000000000000000000000000000000000000000000000000000008152600091829182916001600160a01b031690635ec88c7990610e7d903090600401613df0565b60606040518083038186803b158015610e9557600080fd5b505afa158015610ea9573d6000803e3d6000fd5b505050506040513d601f19601f82011682018060405250810190610ecd9190613bf0565b92509250925082600014610ef35760405162461bcd60e51b8152600401610e26906142f6565b9093509150509091565b6000610f0e604051610dfa90613ca8565b610f2a5760405162461bcd60e51b8152600401610e26906140b9565b610f47604051610f3990613cd1565b604051809103902083611f03565b92915050565b600e5481565b610f62604051610dfa90613cfa565b610f7e5760405162461bcd60e51b8152600401610e269061455b565b6001600160a01b0391821660009081526008602090815260408220805460018101825590835291200180546001600160a01b03191691909216179055565b600d5481565b610fd1604051610dfa90613d4c565b610fed5760405162461bcd60e51b8152600401610e2690614173565b6040517fc5ebeaec0000000000000000000000000000000000000000000000000000000081526001600160a01b0383169063c5ebeaec90611032908490600401613ebf565b602060405180830381600087803b15801561104c57600080fd5b505af1158015611060573d6000803e3d6000fd5b505050506040513d601f19601f820116820180604052508101906110849190613bd8565b505050565b606061109a604051610dfa90613dc7565b6110b65760405162461bcd60e51b8152600401610e2690614761565b6040517fe60d0f4a0000000000000000000000000000000000000000000000000000000081526001600160a01b0383169063e60d0f4a906110fb908690600401613df0565b600060405180830381600087803b15801561111557600080fd5b505af1158015611129573d6000803e3d6000fd5b505050506040513d6000823e601f3d908101601f191682016040526111519190810190613a14565b9392505050565b60009081526001602052604090206002015490565b6014546001600160a01b031681565b6016546001600160a01b031681565b6000601836108015906111b657506111a1612623565b6001600160a01b0316336001600160a01b0316145b15611208576112016000368080601f0160208091040260200160405190810160405280939291908181526020018383808284376000920191909152505060131936019150612a809050565b905061120b565b50335b90565b60008281526001602052604090206002015461122c90610a73612a7c565b6112485760405162461bcd60e51b8152600401610e2690613fff565b6112528282612a91565b5050565b60405161126290613cd1565b604051809103902081565b611275612a7c565b6000546001600160a01b039081169116146112a25760405162461bcd60e51b8152600401610e2690614672565b80600d5410156112c45760405162461bcd60e51b8152600401610e26906141d0565b600e546112d7908263ffffffff612b0016565b600e55600d546112ed908263ffffffff612b2516565b600d5550565b6112fb612a7c565b6001600160a01b0316816001600160a01b03161461132b5760405162461bcd60e51b8152600401610e26906149c6565b6112528282612b67565b611344604051610dfa90613d4c565b6113605760405162461bcd60e51b8152600401610e2690614173565b6012546040517f852a12e30000000000000000000000000000000000000000000000000000000081526001600160a01b039091169063852a12e3906113a9908490600401613ebf565b602060405180830381600087803b1580156113c357600080fd5b505af11580156113d7573d6000803e3d6000fd5b505050506040513d601f19601f820116820180604052508101906112529190613bd8565b606061140c604051610dfa90613d4c565b6114285760405162461bcd60e51b8152600401610e2690614173565b600f546001600160a01b03166114505760405162461bcd60e51b8152600401610e2690614932565b600f54601054611151916001600160a01b0390811691168585612bd6565b6015546040516370a0823160e01b815260009182916001600160a01b03909116906370a08231906114a3903090600401613df0565b60206040518083038186803b1580156114bb57600080fd5b505afa1580156114cf573d6000803e3d6000fd5b505050506040513d601f19601f820116820180604052508101906114f39190613bd8565b905061150c600e54600d54612b0090919063ffffffff16565b81101561151d57600091505061120b565b611544600e54611538600d5484612b2590919063ffffffff16565b9063ffffffff612b2516565b91505090565b611559604051610dfa90613d4c565b806115835750611567611e57565b6001600160a01b0316611578612a7c565b6001600160a01b0316145b61159f5760405162461bcd60e51b8152600401610e2690614173565b60165460405163aa67c91960e01b81526001600160a01b039091169063aa67c9199083906115d1903090600401613df0565b6000604051808303818588803b1580156115ea57600080fd5b505af11580156115fe573d6000803e3d6000fd5b505050505050565b6060611617604051610dfa90613dc7565b6116335760405162461bcd60e51b8152600401610e2690614761565b816001600160a01b03166369e7af436040518163ffffffff1660e01b8152600401600060405180830381600087803b15801561166e57600080fd5b505af1158015611682573d6000803e3d6000fd5b505050506040513d6000823e601f3d908101601f19168201604052610f479190810190613973565b60006116bb604051610dfa90613d23565b6116d75760405162461bcd60e51b8152600401610e26906143e7565b6116e78989898989898989612d0c565b9998505050505050505050565b600c5481565b6000610f4782611708612a7c565b612f30565b611715612a7c565b6000546001600160a01b039081169116146117425760405162461bcd60e51b8152600401610e2690614672565b600f80546001600160a01b039485166001600160a01b031991821617909155601080549385169382169390931790925560118054919093169116179055565b611790604051610dfa90613d4c565b6117ac5760405162461bcd60e51b8152600401610e2690614173565b60408051600180825281830190925260609160208083019080368337505060125482519293506001600160a01b0316918391506000906117e857fe5b6001600160a01b0392831660209182029290920101526013546040517fc2998238000000000000000000000000000000000000000000000000000000008152606092919091169063c299823890611843908590600401613e5d565b600060405180830381600087803b15801561185d57600080fd5b505af1158015611871573d6000803e3d6000fd5b505050506040513d6000823e601f3d908101601f191682016040526118999190810190613a14565b9050806000815181106118a857fe5b60200260200101516000146112525760405162461bcd60e51b8152600401610e26906147be565b6013546001600160a01b031681565b60405161126290613d75565b60606118f7610c86612a7c565b905090565b60405161126290613d9e565b6011546001600160a01b031681565b600b5481565b6012546001600160a01b031681565b611934612a7c565b6000546001600160a01b039081169116146119615760405162461bcd60e51b8152600401610e2690614672565b600080546040516001600160a01b03909116907f8be0079c531659141344cd1fd0a4f28419497f9722a3daafe3b4186f6b6457e0908390a3600080546001600160a01b0319169055565b60006119bc604051610dfa90613cd1565b6119d85760405162461bcd60e51b8152600401610e26906144a1565b6119e96119e3612a7c565b8a613123565b611a055760405162461bcd60e51b8152600401610e2690614353565b6000899050806001600160a01b0316636587b61e6040518163ffffffff1660e01b815260040160206040518083038186803b158015611a4357600080fd5b505afa158015611a57573d6000803e3d6000fd5b505050506040513d601f19601f82011682018060405250810190611a7b9190613bd8565b600314611a9a5760405162461bcd60e51b8152600401610e2690614878565b611b21611aa5612a7c565b6001600160a01b0316637a6c8b536040518163ffffffff1660e01b815260040160206040518083038186803b158015611add57600080fd5b505afa158015611af1573d6000803e3d6000fd5b505050506040513d601f19601f82011682018060405250810190611b1591906137a7565b8a8a8a8a8a8a8a612d0c565b9a9950505050505050505050565b611b3e604051610dfa90613d4c565b611b5a5760405162461bcd60e51b8152600401610e2690614173565b6040516370a0823160e01b815281906001600160a01b038516906370a0823190611b88903090600401613df0565b60206040518083038186803b158015611ba057600080fd5b505afa158015611bb4573d6000803e3d6000fd5b505050506040513d601f19601f82011682018060405250810190611bd89190613bd8565b1015611bf65760405162461bcd60e51b8152600401610e2690614444565b611c018383836131a7565b6040517f0e7527020000000000000000000000000000000000000000000000000000000081526001600160a01b03831690630e75270290611c46908490600401613ebf565b602060405180830381600087803b158015611c6057600080fd5b505af1158015611c74573d6000803e3d6000fd5b505050506040513d601f19601f82011682018060405250810190611c989190613bd8565b50505050565b611cad604051610dfa90613d4c565b611cc95760405162461bcd60e51b8152600401610e2690614173565b601554601254611ce6916001600160a01b039081169116836131a7565b6012546040517fa0712d680000000000000000000000000000000000000000000000000000000081526001600160a01b039091169063a0712d68906113a9908490600401613ebf565b60405161126290613d23565b6000610f47604051610f3990613cfa565b611d5b604051610dfa90613cfa565b611d775760405162461bcd60e51b8152600401610e269061455b565b6040517faa4f38c70000000000000000000000000000000000000000000000000000000081526001600160a01b0383169063aa4f38c790611dbc908490600401613f5d565b600060405180830381600087803b1580156115ea57600080fd5b611dde612a7c565b6000546001600160a01b03908116911614611e0b5760405162461bcd60e51b8152600401610e2690614672565b60038190556040517f9f8929be552430dd6434c446d106c34954b2040ca8c4dbf42a39323dd6cda3ca90611e40908390613ebf565b60405180910390a150565b60405161126290613cfa565b6000546001600160a01b031690565b600080611e758361170861118b565b60165460055460405163aa67c91960e01b81529293506001600160a01b039091169163aa67c9199190611eac908590600401613df0565b6000604051808303818588803b158015611ec557600080fd5b505af1158015611ed9573d6000803e3d6000fd5b50939695505050505050565b6000828152600160205260408120611151908363ffffffff61329516565b6000828152600160205260408120611151908363ffffffff6132a116565b611f30604051610dfa90613d4c565b611f4c5760405162461bcd60e51b8152600401610e2690614173565b6013546012546040517fede4edd00000000000000000000000000000000000000000000000000000000081526000926001600160a01b039081169263ede4edd092611f9d9290911690600401613df0565b602060405180830381600087803b158015611fb757600080fd5b505af1158015611fcb573d6000803e3d6000fd5b505050506040513d601f19601f82011682018060405250810190611fef9190613bd8565b9050801561200f5760405162461bcd60e51b8152600401610e26906145b8565b50565b612021604051610dfa90613d4c565b61203d5760405162461bcd60e51b8152600401610e2690614173565b8061204661146e565b10156120645760405162461bcd60e51b8152600401610e2690614262565b61200f816132b6565b60405161126290613ca8565b600081565b60155461209d906001600160a01b0316612096612a7c565b308461330a565b6120d381600960006120ad612a7c565b6001600160a01b031681526020810191909152604001600020549063ffffffff612b0016565b600960006120df612a7c565b6001600160a01b0316815260208101919091526040016000205561200f816133f3565b60606121108261a8c06113fb565b90506121368160018151811061212257fe5b6020026020010151600960006120ad612a7c565b60096000612142612a7c565b6001600160a01b03166001600160a01b03168152602001908152602001600020819055506112528160018151811061217657fe5b60200260200101516133f3565b6000612194604051610dfa90613d4c565b6121b05760405162461bcd60e51b8152600401610e2690614173565b6040517f17bfdfbc0000000000000000000000000000000000000000000000000000000081526001600160a01b038316906317bfdfbc906121f5903090600401613df0565b60206040518083038186803b15801561220d57600080fd5b505afa158015612221573d6000803e3d6000fd5b505050506040513d601f19601f82011682018060405250810190610f479190613bd8565b60607f8ff2f762000000000000000000000000000000000000000000000000000000006122b26122786020880188614a7d565b8080601f0160208091040260200160405190810160405280939291908181526020018383808284376000920182905250925061341c915050565b7fffffffff0000000000000000000000000000000000000000000000000000000016146122f15760405162461bcd60e51b8152600401610e269061481b565b6122fe602086018661378b565b6000604051602001612311929190613e41565b6040516020818303038152906040529050949350505050565b6015546001600160a01b031681565b60405161126290613dc7565b612354604051610dfa90613d9e565b6123705760405162461bcd60e51b8152600401610e2690614704565b8061237961146e565b10156123975760405162461bcd60e51b8152600401610e2690614262565b816001600160a01b0316632d24947b6040518163ffffffff1660e01b8152600401600060405180830381600087803b1580156115ea57600080fd5b6123da612a7c565b6000546001600160a01b039081169116146124075760405162461bcd60e51b8152600401610e2690614672565b601280546001600160a01b039485166001600160a01b031991821617909155601380549385169382169390931790925560148054919093169116179055565b60405161126290613d4c565b6000818152600160205260408120610f4790613446565b606061247a604051610dfa90613d4c565b6124965760405162461bcd60e51b8152600401610e2690614173565b600f546001600160a01b03166124be5760405162461bcd60e51b8152600401610e2690614932565b601054600f54611151916001600160a01b0390811691168585612bd6565b6124eb604051610dfa90613d4c565b6125075760405162461bcd60e51b8152600401610e2690614173565b612516604051610f3990613d75565b6125325760405162461bcd60e51b8152600401610e26906148d5565b80600e5410156125545760405162461bcd60e51b8152600401610e26906146a7565b6015546040516370a0823160e01b815282916001600160a01b0316906370a0823190612584903090600401613df0565b60206040518083038186803b15801561259c57600080fd5b505afa1580156125b0573d6000803e3d6000fd5b505050506040513d601f19601f820116820180604052508101906125d49190613bd8565b10156125f25760405162461bcd60e51b8152600401610e269061405c565b601554612609906001600160a01b03168383613451565b600e5461261c908263ffffffff612b2516565b600e555050565b6002546001600160a01b031690565b60096020526000908152604090205481565b606061264e612a7c565b6001600160a01b0316826001600160a01b031614806126775750612677604051610dfa90613d9e565b6126935760405162461bcd60e51b8152600401610e26906144fe565b6001600160a01b038216600090815260086020908152604091829020805483518184028101840190945280845290918301828280156126fb57602002820191906000526020600020905b81546001600160a01b031681526001909101906020018083116126dd575b50505050509050919050565b60008281526001602052604090206002015461272590610a73612a7c565b61132b5760405162461bcd60e51b8152600401610e2690614615565b60145460405163fc57d4df60e01b81526000916001600160a01b03169063fc57d4df906121f5908590600401613df0565b6006818154811061277f57fe5b6000918252602090912001546001600160a01b0316905081565b60045462ffffff1681565b6127ac612a7c565b6000546001600160a01b039081169116146127d95760405162461bcd60e51b8152600401610e2690614672565b6004805462ffffff191662ffffff83811691909117918290556040517f1add5f7de244142e10bca375bb84823e3c24ddac2c2ec678f35c007d8f02084d92611e40921690614a23565b61282a612a7c565b6000546001600160a01b039081169116146128575760405162461bcd60e51b8152600401610e2690614672565b600555565b612864612a7c565b6000546001600160a01b039081169116146128915760405162461bcd60e51b8152600401610e2690614672565b6001600160a01b0381166128b75760405162461bcd60e51b8152600401610e2690614116565b600080546040516001600160a01b03808516939216917f8be0079c531659141344cd1fd0a4f28419497f9722a3daafe3b4186f6b6457e091a3600080546001600160a01b0319166001600160a01b0392909216919091179055565b600a5481565b612927604051610dfa90613cfa565b6129435760405162461bcd60e51b8152600401610e269061455b565b600b54612956908263ffffffff612b0016565b600b55600d546112ed908263ffffffff612b0016565b600080612977610de8565b5060145460405163fc57d4df60e01b8152919250611151916001600160a01b039091169063fc57d4df906129af908790600401613df0565b60206040518083038186803b1580156129c757600080fd5b505afa1580156129db573d6000803e3d6000fd5b505050506040513d601f19601f820116820180604052508101906129ff9190613bd8565b829063ffffffff61353816565b612a1b604051610dfa90613cfa565b612a375760405162461bcd60e51b8152600401610e269061455b565b6040517f686513500000000000000000000000000000000000000000000000000000000081526001600160a01b03831690636865135090611dbc908490600401613f5d565b3390565b01601401516001600160a01b031690565b6000828152600160205260409020612aaf908263ffffffff61357a16565b1561125257612abc612a7c565b6001600160a01b0316816001600160a01b0316837f2f8788117e7eff1d82e926ec794901d17c78024a50270940304540a733656f0d60405160405180910390a45050565b6000828201838110156111515760405162461bcd60e51b8152600401610e26906142bf565b600061115183836040518060400160405280601e81526020017f536166654d6174683a207375627472616374696f6e206f766572666c6f77000081525061358f565b6000828152600160205260409020612b85908263ffffffff6135bb16565b1561125257612b92612a7c565b6001600160a01b0316816001600160a01b0316837ff6391f5c32d9c69d2a47ea670b442974b53935d1edc7fd64eb21e047a839171b60405160405180910390a45050565b601154606090612bf19086906001600160a01b0316856131a7565b60408051600280825260608083018452926020830190803683370190505090508581600081518110612c1f57fe5b60200260200101906001600160a01b031690816001600160a01b0316815250508481600181518110612c4d57fe5b6001600160a01b0392831660209182029290920101526011546040517f38ed17390000000000000000000000000000000000000000000000000000000081529116906338ed173990612cac908790600090869030908a90600401614a33565b600060405180830381600087803b158015612cc657600080fd5b505af1158015612cda573d6000803e3d6000fd5b505050506040513d6000823e601f3d908101601f19168201604052612d029190810190613a14565b9695505050505050565b600080601760009054906101000a90046001600160a01b03166001600160a01b031663f9a84f968a8a8a8a8a8a308b601560009054906101000a90046001600160a01b0316601260009054906101000a90046001600160a01b0316601960009054906101000a90046001600160a01b03166040518c63ffffffff1660e01b8152600401612da39b9a99989796959493929190613edf565b602060405180830381600087803b158015612dbd57600080fd5b505af1158015612dd1573d6000803e3d6000fd5b505050506040513d601f19601f82011682018060405250810190612df591906137a7565b6040517f18b9533b0000000000000000000000000000000000000000000000000000000081529091506001600160a01b038216906318b9533b90612e3d908d90600401613df0565b600060405180830381600087803b158015612e5757600080fd5b505af1158015612e6b573d6000803e3d6000fd5b5050600680546001810182556000919091527ff652222313e28459528d920b65115c16c04f3efc82aaedc97be59f3f377c0d3f0180546001600160a01b0319166001600160a01b03851617905550506040518190612eda90612ecc90613ca8565b60405180910390208261120e565b612ee9604051612ecc90613cfa565b7f0e2441b756c0237af490768eeb52214bde66464d79756f8ac3c03b10c9528b3c8a82604051612f1a929190613ec8565b60405180910390a19a9950505050505050505050565b600060086000612f3e61118b565b6001600160a01b0316815260208101919091526040016000205415612f755760405162461bcd60e51b8152600401610e2690614205565b6001600160a01b038083166000908152600860209081526040808320805460018101825590845291832090910180546001600160a01b031916905560185490517f8ebf1d2700000000000000000000000000000000000000000000000000000000815291921690638ebf1d2790612ff29087903090600401613ec8565b602060405180830381600087803b15801561300c57600080fd5b505af1158015613020573d6000803e3d6000fd5b505050506040513d601f19601f8201168201806040525081019061304491906137a7565b6040517f18a9e9480000000000000000000000000000000000000000000000000000000081529091506001600160a01b038216906318a9e9489061308c908690600401613df0565b600060405180830381600087803b1580156130a657600080fd5b505af11580156130ba573d6000803e3d6000fd5b5050600780546001810182556000919091527fa66cc928b5edb82af9bd49922954155ab7b0942694bea4ce44661d9a8736c6880180546001600160a01b0319166001600160a01b0385161790555050604051819061311b90612ecc90613cd1565b949350505050565b6000805b6001600160a01b03841660009081526008602052604090205481101561319d576001600160a01b0384811660009081526008602052604090208054918516918390811061317057fe5b6000918252602090912001546001600160a01b03161415613195576001915050610f47565b600101613127565b5060009392505050565b60006060846001600160a01b031663095ea7b385856040516024016131cd929190613e04565b6040516020818303038152906040529060e01b6020820180516001600160e01b0383818316178352505050506040516132069190613c8c565b6000604051808303816000865af19150503d8060008114613243576040519150601f19603f3d011682016040523d82523d6000602084013e613248565b606091505b50915091508180156132725750805115806132725750808060200190518101906132729190613a9b565b61328e5760405162461bcd60e51b8152600401610e26906143b0565b5050505050565b600061115183836135d0565b6000611151836001600160a01b038416613615565b6132c5604051610dfa90613cfa565b6132e15760405162461bcd60e51b8152600401610e269061455b565b600b546132f4908263ffffffff612b0016565b600c55600d546112ed908263ffffffff612b0016565b60006060856001600160a01b03166323b872dd86868660405160240161333293929190613e1d565b6040516020818303038152906040529060e01b6020820180516001600160e01b03838183161783525050505060405161336b9190613c8c565b6000604051808303816000865af19150503d80600081146133a8576040519150601f19603f3d011682016040523d82523d6000602084013e6133ad565b606091505b50915091508180156133d75750805115806133d75750808060200190518101906133d79190613a9b565b6115fe5760405162461bcd60e51b8152600401610e2690614969565b600a54613406908263ffffffff612b0016565b600a55600d546112ed908263ffffffff612b0016565b01602001517fffffffff000000000000000000000000000000000000000000000000000000001690565b6000610f478261362d565b60006060846001600160a01b031663a9059cbb8585604051602401613477929190613e04565b6040516020818303038152906040529060e01b6020820180516001600160e01b0383818316178352505050506040516134b09190613c8c565b6000604051808303816000865af19150503d80600081146134ed576040519150601f19603f3d011682016040523d82523d6000602084013e6134f2565b606091505b509150915081801561351c57508051158061351c57508080602001905181019061351c9190613a9b565b61328e5760405162461bcd60e51b8152600401610e2690613fc8565b600061115183836040518060400160405280601a81526020017f536166654d6174683a206469766973696f6e206279207a65726f000000000000815250613631565b6000611151836001600160a01b038416613668565b600081848411156135b35760405162461bcd60e51b8152600401610e269190613f4a565b505050900390565b6000611151836001600160a01b0384166136b2565b815460009082106135f35760405162461bcd60e51b8152600401610e2690613f6b565b82600001828154811061360257fe5b9060005260206000200154905092915050565b60009081526001919091016020526040902054151590565b5490565b600081836136525760405162461bcd60e51b8152600401610e269190613f4a565b50600083858161365e57fe5b0495945050505050565b60006136748383613615565b6136aa57508154600181810184556000848152602080822090930184905584548482528286019093526040902091909155610f47565b506000610f47565b6000818152600183016020526040812054801561376e57835460001980830191908101906000908790839081106136e557fe5b906000526020600020015490508087600001848154811061370257fe5b60009182526020808320909101929092558281526001898101909252604090209084019055865487908061373257fe5b60019003818190600052602060002001600090559055866001016000878152602001908152602001600020600090556001945050505050610f47565b6000915050610f47565b803562ffffff81168114610f4757600080fd5b60006020828403121561379c578081fd5b813561115181614b3e565b6000602082840312156137b8578081fd5b815161115181614b3e565b600080604083850312156137d5578081fd5b82356137e081614b3e565b915060208301356137f081614b3e565b809150509250929050565b60008060006060848603121561380f578081fd5b833561381a81614b3e565b9250602084013561382a81614b3e565b9150604084013561383a81614b3e565b809150509250925092565b600080600060608486031215613859578283fd5b833561386481614b3e565b9250602084013561387481614b3e565b929592945050506040919091013590565b600080600080600080600080610100898b0312156138a1578384fd5b88356138ac81614b3e565b9750602089013596506138c28a60408b01613778565b95506138d18a60608b01613778565b945060808901358060030b81146138e6578485fd5b935060a0890135925060c0890135915060e089013561390481614b3e565b809150509295985092959890939650565b60008060408385031215613927578182fd5b823561393281614b3e565b91506020830135600381900b81146137f0578182fd5b6000806040838503121561395a578182fd5b823561396581614b3e565b946020939093013593505050565b60006020808385031215613985578182fd5b825167ffffffffffffffff81111561399b578283fd5b80840185601f8201126139ac578384fd5b805191506139c16139bc83614af2565b614acb565b82815283810190828501858502840186018910156139dd578687fd5b8693505b84841015613a085780516139f481614b3e565b8352600193909301929185019185016139e1565b50979650505050505050565b60006020808385031215613a26578182fd5b825167ffffffffffffffff811115613a3c578283fd5b80840185601f820112613a4d578384fd5b80519150613a5d6139bc83614af2565b8281528381019082850185850284018601891015613a79578687fd5b8693505b84841015613a08578051835260019390930192918501918501613a7d565b600060208284031215613aac578081fd5b81518015158114611151578182fd5b600060208284031215613acc578081fd5b5035919050565b60008060408385031215613ae5578182fd5b8235915060208301356137f081614b3e565b60008060408385031215613b09578182fd5b50508035926020909101359150565b60008060008060608587031215613b2d578182fd5b843567ffffffffffffffff80821115613b44578384fd5b818701610140818a031215613b57578485fd5b95506020870135915080821115613b6c578384fd5b81870188601f820112613b7d578485fd5b8035925081831115613b8d578485fd5b886020848301011115613b9e578485fd5b959860209096019750909560400135949350505050565b600060208284031215613bc6578081fd5b813562ffffff81168114611151578182fd5b600060208284031215613be9578081fd5b5051919050565b600080600060608486031215613c04578081fd5b8351925060208401519150604084015190509250925092565b6000815180845260208085019450808401835b83811015613c555781516001600160a01b031687529582019590820190600101613c30565b509495945050505050565b60008151808452613c78816020860160208601614b12565b601f01601f19169290920160200192915050565b60008251613c9e818460208701614b12565b9190910192915050565b7f524541445f53545544454e545f4c4953545f524f4c4500000000000000000000815260160190565b7f53545544454e545f4944454e544954595f524f4c450000000000000000000000815260150190565b7f434c415353524f4f4d5f50524f464553534f525f524f4c450000000000000000815260180190565b7f434c4153534c4953545f41444d494e5f524f4c45000000000000000000000000815260140190565b7f46554e44535f4d414e414745525f524f4c450000000000000000000000000000815260120190565b7f524547495354455245445f535550504c4945525f524f4c450000000000000000815260180190565b7f4752414e54535f4d414e414745525f524f4c4500000000000000000000000000815260130190565b7f554e49564552534954595f4f564552534545525f524f4c450000000000000000815260180190565b6001600160a01b0391909116815260200190565b6001600160a01b03929092168252602082015260400190565b6001600160a01b039384168152919092166020820152604081019190915260600190565b6001600160a01b0392909216825260ff16602082015260400190565b6000602082526111516020830184613c1d565b6020808252825182820181905260009190848201906040850190845b81811015613ea857835183529284019291840191600101613e8c565b50909695505050505050565b901515815260200190565b90815260200190565b9182526001600160a01b0316602082015260400190565b9a8b5262ffffff998a1660208c01529790981660408a015260039590950b6060890152608088019390935260a08701919091526001600160a01b0390811660c087015290811660e0860152908116610100850152918216610120840152166101408201526101600190565b6000602082526111516020830184613c60565b60039190910b815260200190565b60208082526022908201527f456e756d657261626c655365743a20696e646578206f7574206f6620626f756e60408201527f6473000000000000000000000000000000000000000000000000000000000000606082015260800190565b6020808252601f908201527f5472616e7366657248656c7065723a205452414e534645525f4641494c454400604082015260600190565b6020808252602f908201527f416363657373436f6e74726f6c3a2073656e646572206d75737420626520616e60408201527f2061646d696e20746f206772616e740000000000000000000000000000000000606082015260800190565b6020808252602a908201527f556e69766572736974793a206c697175696461746520736f6d6520706f73697460408201527f696f6e7320666972737400000000000000000000000000000000000000000000606082015260800190565b60208082526036908201527f556e69766572736974793a2063616c6c657220646f65736e277420686176652060408201527f524541445f53545544454e545f4c4953545f524f4c4500000000000000000000606082015260800190565b60208082526026908201527f4f776e61626c653a206e6577206f776e657220697320746865207a65726f206160408201527f6464726573730000000000000000000000000000000000000000000000000000606082015260800190565b60208082526032908201527f556e69766572736974793a2063616c6c657220646f65736e277420686176652060408201527f46554e44535f4d414e414745525f524f4c450000000000000000000000000000606082015260800190565b6020808252818101527f556e69766572736974793a206e6f7420656e6f75676820656e646f776d656e74604082015260600190565b60208082526026908201527f556e69766572736974793a2073747564656e7420616c7265616479207265676960408201527f7374657265640000000000000000000000000000000000000000000000000000606082015260800190565b60208082526026908201527f556e69766572736974793a206e6f7420656e6f75676820617661696c61626c6560408201527f2066756e64730000000000000000000000000000000000000000000000000000606082015260800190565b6020808252601b908201527f536166654d6174683a206164646974696f6e206f766572666c6f770000000000604082015260600190565b60208082526033908201527f556e69766572736974793a20436f6d7074726f6c6c65722e6765744163636f7560408201527f6e744c6971756964697479206661696c65642e00000000000000000000000000606082015260800190565b60208082526035908201527f556e69766572736974793a2063616c6c6572206973206e6f742073747564656e60408201527f74206f662074686973206170706c69636174696f6e0000000000000000000000606082015260800190565b6020808252601e908201527f5472616e7366657248656c7065723a20415050524f56455f4641494c45440000604082015260600190565b60208082526034908201527f556e69766572736974793a2063616c6c657220646f65736e277420686176652060408201527f434c4153534c4953545f41444d494e5f524f4c45000000000000000000000000606082015260800190565b6020808252602b908201527f556e69766572736974793a206e6f7420656e6f756768206f662074686973207460408201527f6f6b656e2073746f726564000000000000000000000000000000000000000000606082015260800190565b60208082526035908201527f556e69766572736974793a2063616c6c657220646f65736e277420686176652060408201527f53545544454e545f4944454e544954595f524f4c450000000000000000000000606082015260800190565b60208082526021908201527f436c617373726f6f6d3a2072656164207065726d697373696f6e2064656e696560408201527f6400000000000000000000000000000000000000000000000000000000000000606082015260800190565b60208082526038908201527f556e69766572736974793a2063616c6c657220646f65736e277420686176652060408201527f434c415353524f4f4d5f50524f464553534f525f524f4c450000000000000000606082015260800190565b6020808252602a908201527f556e69766572736974793a20436f6d7074726f6c6c65722e657869744d61726b60408201527f6574206661696c65642e00000000000000000000000000000000000000000000606082015260800190565b60208082526030908201527f416363657373436f6e74726f6c3a2073656e646572206d75737420626520616e60408201527f2061646d696e20746f207265766f6b6500000000000000000000000000000000606082015260800190565b6020808252818101527f4f776e61626c653a2063616c6c6572206973206e6f7420746865206f776e6572604082015260600190565b60208082526029908201527f556e69766572736974793a206e6f7420656e6f756768206f7065726174696f6e60408201527f616c206275646765740000000000000000000000000000000000000000000000606082015260800190565b60208082526033908201527f556e69766572736974793a2063616c6c657220646f65736e277420686176652060408201527f4752414e54535f4d414e414745525f524f4c4500000000000000000000000000606082015260800190565b60208082526038908201527f556e69766572736974793a2063616c6c657220646f65736e277420686176652060408201527f554e49564552534954595f4f564552534545525f524f4c450000000000000000606082015260800190565b6020808252602c908201527f556e69766572736974793a20436f6d7074726f6c6c65722e656e7465724d617260408201527f6b657473206661696c65642e0000000000000000000000000000000000000000606082015260800190565b6020808252602d908201527f556e69766572736974793a2047534e206e6f7420656e61626c656420666f722060408201527f746869732066756e6374696f6e00000000000000000000000000000000000000606082015260800190565b60208082526029908201527f556e69766572736974793a206170706c69636174696f6e206973206e6f74207360408201527f75636365737366756c0000000000000000000000000000000000000000000000606082015260800190565b6020808252603a908201527f556e69766572736974793a20726563656976657220646f65736e27742068617660408201527f6520524547495354455245445f535550504c4945525f524f4c45000000000000606082015260800190565b6020808252601f908201527f556e69766572736974793a20736574757020756e697377617020666972737400604082015260600190565b60208082526024908201527f5472616e7366657248656c7065723a205452414e534645525f46524f4d5f464160408201527f494c454400000000000000000000000000000000000000000000000000000000606082015260800190565b6020808252602f908201527f416363657373436f6e74726f6c3a2063616e206f6e6c792072656e6f756e636560408201527f20726f6c657320666f722073656c660000000000000000000000000000000000606082015260800190565b62ffffff91909116815260200190565b600086825285602083015260a06040830152614a5260a0830186613c1d565b6001600160a01b0394909416606083015250608001529392505050565b918252602082015260400190565b6000808335601e19843603018112614a93578283fd5b8084018035925067ffffffffffffffff831115614aae578384fd5b60200192505036819003821315614ac457600080fd5b9250929050565b60405181810167ffffffffffffffff81118282101715614aea57600080fd5b604052919050565b600067ffffffffffffffff821115614b08578081fd5b5060209081020190565b60005b83811015614b2d578181015183820152602001614b15565b83811115611c985750506000910152565b6001600160a01b038116811461200f57600080fdfea26469706673582212202f831134bebbd2a7f9c758b41406e1f0998af08e98470d1799e32b07fbf0fece64736f6c63430006060033",
  "immutableReferences": {},
  "source": "pragma solidity 0.6.6;\r\npragma experimental ABIEncoderV2;\r\n\r\nimport \"@openzeppelin/contracts/math/SafeMath.sol\";\r\nimport \"@openzeppelin/contracts/access/AccessControl.sol\";\r\nimport \"@openzeppelin/contracts/access/Ownable.sol\";\r\nimport \"@openzeppelin/contracts/token/ERC20/IERC20.sol\";\r\nimport \"@openzeppelin/contracts/utils/Address.sol\";\r\nimport \"@uniswap/v2-periphery/contracts/interfaces/IUniswapV2Router01.sol\";\r\nimport \"@uniswap/lib/contracts/libraries/TransferHelper.sol\";\r\nimport \"./gambi/BaseRelayRecipient.sol\";\r\nimport \"./gambi/GSNTypes.sol\";\r\nimport \"./gambi/IRelayHub.sol\";\r\nimport \"./interface/IClassroom.sol\";\r\nimport \"./interface/IStudent.sol\";\r\nimport \"./interface/IStudentApplication.sol\";\r\nimport \"./interface/IClassroomFactory.sol\";\r\nimport \"./interface/IStudentFactory.sol\";\r\nimport \"./interface/IStudentApplicationFactory.sol\";\r\nimport \"./interface/IUniversity.sol\";\r\nimport \"./interface/IGrantsManager.sol\";\r\nimport \"./MyUtils.sol\";\r\n\r\n//TODO: Natspec Document ENVERYTHING\r\n//TODO: Sort function order from all contracts\r\n\r\ncontract University is Ownable, AccessControl, BaseRelayRecipient, IUniversity {\r\n    using SafeMath for uint256;\r\n\r\n    //CLASSLIST_ADMIN_ROLE can add new manually created classes to the list\r\n    bytes32 public constant CLASSLIST_ADMIN_ROLE = keccak256(\r\n        \"CLASSLIST_ADMIN_ROLE\"\r\n    );\r\n    // FUNDS_MANAGER_ROLE can withdraw funds from the contract\r\n    bytes32 public constant FUNDS_MANAGER_ROLE = keccak256(\r\n        \"FUNDS_MANAGER_ROLE\"\r\n    );\r\n    // GRANTS_MANAGER_ROLE can approve/decline grant claims\r\n    bytes32 public constant GRANTS_MANAGER_ROLE = keccak256(\r\n        \"GRANTS_MANAGER_ROLE\"\r\n    );\r\n    // READ_STUDENT_LIST_ROLE allow reading students list\r\n    bytes32 public constant READ_STUDENT_LIST_ROLE = keccak256(\r\n        \"READ_STUDENT_LIST_ROLE\"\r\n    );\r\n    /// STUDENT_IDENTITY_ROLE allow asking for grants and requesting a classroom from a successful application\r\n    bytes32 public constant STUDENT_IDENTITY_ROLE = keccak256(\r\n        \"STUDENT_IDENTITY_ROLE\"\r\n    );\r\n    /// CLASSROOM_PROFESSOR_ROLE can manage itself inside the University and registering student applications\r\n    bytes32 public constant CLASSROOM_PROFESSOR_ROLE = keccak256(\r\n        \"CLASSROOM_PROFESSOR_ROLE\"\r\n    );\r\n    /// UNIVERSITY_OVERSEER_ROLE can inspect Grant Managers and Fund Managers, and present cases for funders to vote upon\r\n    bytes32 public constant UNIVERSITY_OVERSEER_ROLE = keccak256(\r\n        \"UNIVERSITY_OVERSEER_ROLE\"\r\n    );/// REGISTERED_SUPPLIER_ROLE can receive transactions to consume the operational budget\r\n    bytes32 public constant REGISTERED_SUPPLIER_ROLE = keccak256(\r\n        \"REGISTERED_SUPPLIER_ROLE\"\r\n    );\r\n\r\n    // Parameter: Name of this University\r\n    bytes32 public override name;\r\n    // Parameter: University cut from professor (Parts per Million)\r\n    uint24 public override cut;\r\n    // Parameter: GSN funds to give students\r\n    uint256 _studentGSNDeposit;\r\n    // List of every registered classroom\r\n    address[] public _classList;\r\n    // List of every student\r\n    address[] _students;\r\n    // Mapping of each student's applications\r\n    mapping(address => address[]) _studentApplicationsMapping;\r\n    // Mapping of every donor and donations\r\n    mapping(address => uint256) public donators;\r\n    // Total amount of donations received so far\r\n    uint256 public donationsReceived;\r\n    // Total amount of operational revenue received so far\r\n    uint256 public revenueReceived;\r\n    // Total amount of financial returns received so far\r\n    uint256 public returnsReceived;\r\n    // Total amount of endowment locked in the fund\r\n    uint256 public endowmentLocked;\r\n    // Total amount of funds allowed for expenses\r\n    uint256 public operationalBudget;\r\n\r\n    //TODO: resolve students and classrooms addresses using ENS\r\n\r\n    //Uniswap Config\r\n    address _uniswapWETH;\r\n    address _uniswapDAI;\r\n    IUniswapV2Router01 public _uniswapRouter;\r\n\r\n    //Compound Config\r\n    CERC20 public cDAI;\r\n    IComptroller public comptroller;\r\n    IPriceOracle public priceOracle;\r\n\r\n    IERC20 public daiToken;\r\n    IRelayHub public relayHub;\r\n    IClassroomFactory _classroomFactory;\r\n    IStudentFactory _studentFactory;\r\n    address _studentApplicationFactoryAddress;\r\n\r\n    constructor(\r\n        bytes32 _name,\r\n        uint24 _cut,\r\n        uint256 studentGSNDeposit,\r\n        address daiAddress,\r\n        address relayHubAddress,\r\n        address classroomFactoryAddress,\r\n        address studentFactoryAddress,\r\n        address studentApplicationFactoryAddress\r\n    ) public {\r\n        name = _name;\r\n        cut = _cut;\r\n        _studentGSNDeposit = studentGSNDeposit;\r\n        _setupRole(DEFAULT_ADMIN_ROLE, _msgSender());\r\n        grantRole(READ_STUDENT_LIST_ROLE, _msgSender());\r\n        daiToken = IERC20(daiAddress);\r\n        relayHub = IRelayHub(relayHubAddress);\r\n        _classroomFactory = IClassroomFactory(classroomFactoryAddress);\r\n        _studentFactory = IStudentFactory(studentFactoryAddress);\r\n        _studentApplicationFactoryAddress = studentApplicationFactoryAddress;\r\n    }\r\n\r\n    receive() external payable {\r\n        emit LogReceived(msg.sender, msg.value);\r\n    }\r\n\r\n    event LogNewClassroom(bytes32, address);\r\n    event LogChangeName(bytes32);\r\n    event LogChangeCut(uint24);\r\n    event LogReceived(address, uint256);\r\n\r\n    function configureCompound(\r\n        address compoundDAIAddress,\r\n        address comptrollerAddress,\r\n        address priceOracleAddress\r\n    ) public onlyOwner {\r\n        cDAI = CERC20(compoundDAIAddress);\r\n        comptroller = IComptroller(comptrollerAddress);\r\n        priceOracle = IPriceOracle(priceOracleAddress);\r\n    }\r\n\r\n    function configureUniswap(\r\n        address uniswapWETH,\r\n        address uniswapDAI,\r\n        address uniswapRouter\r\n    ) public onlyOwner {\r\n        _uniswapWETH = uniswapWETH;\r\n        _uniswapDAI = uniswapDAI;\r\n        _uniswapRouter = IUniswapV2Router01(uniswapRouter);\r\n    }\r\n\r\n    function changeName(bytes32 val) public onlyOwner {\r\n        name = val;\r\n        emit LogChangeName(name);\r\n    }\r\n\r\n    function changeCut(uint24 val) public onlyOwner {\r\n        cut = val;\r\n        emit LogChangeCut(cut);\r\n    }\r\n\r\n    function changeStudentGSNDeposit(uint256 val) public onlyOwner {\r\n        _studentGSNDeposit = val;\r\n    }\r\n\r\n    function availableFunds() public view override returns (uint256) {\r\n        uint256 funds = daiToken.balanceOf(address(this));\r\n        if (funds < endowmentLocked.add(operationalBudget)) return 0;\r\n        return funds.sub(endowmentLocked).sub(operationalBudget);\r\n    }\r\n\r\n    function isValidClassroom(address classroom) public view override returns (bool) {\r\n        return hasRole(CLASSROOM_PROFESSOR_ROLE, classroom);\r\n    }\r\n\r\n    function studentIsRegistered(address student) public view override returns (bool) {\r\n        require(\r\n            hasRole(READ_STUDENT_LIST_ROLE, _msgSender()),\r\n            \"University: caller doesn't have READ_STUDENT_LIST_ROLE\"\r\n        );\r\n        return hasRole(STUDENT_IDENTITY_ROLE, student);\r\n    }\r\n\r\n    function viewMyApplications() public view override returns (address[] memory) {\r\n        return viewStudentApplications(_msgSender());\r\n    }\r\n\r\n    function viewStudentApplications(address addr)\r\n        public\r\n        view\r\n        override\r\n        returns (address[] memory)\r\n    {\r\n        require(\r\n            addr == _msgSender() || hasRole(GRANTS_MANAGER_ROLE, _msgSender()),\r\n            \"Classroom: read permission denied\"\r\n        );\r\n        return _studentApplicationsMapping[addr];\r\n    }\r\n\r\n    function studentSelfRegisterGSN(bytes32 sName) public returns (address) {\r\n        address student = _newStudent(sName, _msgSenderGSN());\r\n        relayHub.depositFor.value(_studentGSNDeposit)(student);\r\n        return student;\r\n    }\r\n\r\n    function studentSelfRegister(bytes32 sName) public returns (address) {\r\n        return _newStudent(sName, _msgSender());\r\n    }\r\n\r\n    function _newStudent(bytes32 sName, address caller)\r\n        internal\r\n        returns (address)\r\n    {\r\n        require(\r\n            _studentApplicationsMapping[_msgSenderGSN()].length == 0,\r\n            \"University: student already registered\"\r\n        );\r\n        //Gambiarra: Push address(0) in the mapping to mark that student as registered in the university\r\n        _studentApplicationsMapping[caller].push(address(0));\r\n        address student = _studentFactory.newStudent(sName, address(this));\r\n        IStudent(student).transferOwnershipStudent(caller);\r\n        address studentAddr = address(student);\r\n        _students.push(studentAddr);\r\n        grantRole(STUDENT_IDENTITY_ROLE, studentAddr);\r\n        return address(studentAddr);\r\n    }\r\n\r\n    //ex: owner, name, 0.2 * 10**6, 0.5 * 10**6, 0, 50 * (10 ** 18), 30 days, challengeAddress\r\n    function newClassRoom(\r\n        address owner,\r\n        bytes32 cName,\r\n        uint24 cCut,\r\n        uint24 cPCut,\r\n        int32 minScore,\r\n        uint256 entryPrice,\r\n        uint256 duration,\r\n        address challengeAddress\r\n    ) public returns (address) {\r\n        require(\r\n            hasRole(CLASSLIST_ADMIN_ROLE, _msgSender()),\r\n            \"University: caller doesn't have CLASSLIST_ADMIN_ROLE\"\r\n        );\r\n        return\r\n            _newClassRoom(\r\n                owner,\r\n                cName,\r\n                cCut,\r\n                cPCut,\r\n                minScore,\r\n                entryPrice,\r\n                duration,\r\n                challengeAddress\r\n            );\r\n    }\r\n\r\n    function _newClassRoom(\r\n        address owner,\r\n        bytes32 cName,\r\n        uint24 cCut,\r\n        uint24 cPCut,\r\n        int32 minScore,\r\n        uint256 entryPrice,\r\n        uint256 duration,\r\n        address challengeAddress\r\n    ) internal returns (address) {\r\n        address classroom = _classroomFactory.newClassroom(\r\n            cName,\r\n            cCut,\r\n            cPCut,\r\n            minScore,\r\n            entryPrice,\r\n            duration,\r\n            payable (address(this)),\r\n            challengeAddress,\r\n            address(daiToken),\r\n            address(cDAI),\r\n            _studentApplicationFactoryAddress\r\n        );\r\n        IClassroom(classroom).transferOwnershipClassroom(owner);\r\n        address classroomAddr = address(classroom);\r\n        _classList.push(classroomAddr);\r\n        grantRole(READ_STUDENT_LIST_ROLE, classroomAddr);\r\n        grantRole(CLASSROOM_PROFESSOR_ROLE, classroomAddr);\r\n        emit LogNewClassroom(cName, classroomAddr);\r\n        return classroomAddr;\r\n    }\r\n\r\n    function studentRequestClassroom(\r\n        address applicationAddr,\r\n        bytes32 cName,\r\n        uint24 cCut,\r\n        uint24 cPCut,\r\n        int32 minScore,\r\n        uint256 entryPrice,\r\n        uint256 duration,\r\n        address challenge\r\n    ) public override returns (address) {\r\n        require(\r\n            hasRole(STUDENT_IDENTITY_ROLE, _msgSender()),\r\n            \"University: caller doesn't have STUDENT_IDENTITY_ROLE\"\r\n        );\r\n        require(\r\n            checkForStudentApplication(_msgSender(), applicationAddr),\r\n            \"University: caller is not student of this application\"\r\n        );\r\n        IStudentApplication application = IStudentApplication(applicationAddr);\r\n        require(\r\n            application.applicationState() == 3,\r\n            \"University: application is not successful\"\r\n        );\r\n        return\r\n            _newClassRoom(\r\n                IStudent(_msgSender()).ownerStudent(),\r\n                cName,\r\n                cCut,\r\n                cPCut,\r\n                minScore,\r\n                entryPrice,\r\n                duration,\r\n                challenge\r\n            );\r\n    }\r\n\r\n    function registerStudentApplication(\r\n        address student,\r\n        address application\r\n    ) public override\r\n    {\r\n        require(\r\n            hasRole(CLASSROOM_PROFESSOR_ROLE, _msgSender()),\r\n            \"University: caller doesn't have CLASSROOM_PROFESSOR_ROLE\"\r\n        );\r\n        _studentApplicationsMapping[student].push(application);\r\n    }\r\n\r\n    function checkForStudentApplication(\r\n        address studentAddress,\r\n        address applicationAddress\r\n    ) internal view returns (bool) {\r\n        for (\r\n            uint256 i = 0;\r\n            i < _studentApplicationsMapping[studentAddress].length;\r\n            i++\r\n        ) {\r\n            if (\r\n                _studentApplicationsMapping[studentAddress][i] ==\r\n                applicationAddress\r\n            ) return true;\r\n        }\r\n        return false;\r\n    }\r\n\r\n    function addStudentScore(address student, int32 val) public override {\r\n        require(\r\n            hasRole(CLASSROOM_PROFESSOR_ROLE, _msgSender()),\r\n            \"University: caller doesn't have CLASSROOM_PROFESSOR_ROLE\"\r\n        );\r\n        IStudent(student).addScore(val);\r\n    }\r\n\r\n    function subStudentScore(address student, int32 val) public override {\r\n        require(\r\n            hasRole(CLASSROOM_PROFESSOR_ROLE, _msgSender()),\r\n            \"University: caller doesn't have CLASSROOM_PROFESSOR_ROLE\"\r\n        );\r\n        IStudent(student).subScore(val);\r\n    }\r\n\r\n    function applyFundsCompound(uint256 val) public override {\r\n        require(\r\n            hasRole(FUNDS_MANAGER_ROLE, _msgSender()),\r\n            \"University: caller doesn't have FUNDS_MANAGER_ROLE\"\r\n        );\r\n        TransferHelper.safeApprove(address(daiToken), address(cDAI), val);\r\n        cDAI.mint(val);\r\n    }\r\n\r\n    function enterCompoundDAIMarket() public {\r\n        //TODO: add interface\r\n        require(\r\n            hasRole(FUNDS_MANAGER_ROLE, _msgSender()),\r\n            \"University: caller doesn't have FUNDS_MANAGER_ROLE\"\r\n        );\r\n        address[] memory cTokens = new address[](1);\r\n        cTokens[0] = address(cDAI);\r\n        uint256[] memory errors = comptroller.enterMarkets(cTokens);\r\n        if (errors[0] != 0) {\r\n            revert(\"University: Comptroller.enterMarkets failed.\");\r\n        }\r\n    }\r\n\r\n    function exitCompoundDAIMarket() public {\r\n        //TODO: add interface\r\n        require(\r\n            hasRole(FUNDS_MANAGER_ROLE, _msgSender()),\r\n            \"University: caller doesn't have FUNDS_MANAGER_ROLE\"\r\n        );\r\n        uint256 error = comptroller.exitMarket(address(cDAI));\r\n        if (error != 0) {\r\n            revert(\"University: Comptroller.exitMarket failed.\");\r\n        }\r\n    }\r\n\r\n    function getCompoundLiquidityAndShortfall() \r\n        public \r\n        view \r\n        returns (uint256, uint256) {\r\n        //TODO: add interface\r\n        require(\r\n            hasRole(FUNDS_MANAGER_ROLE, _msgSender()),\r\n            \"University: caller doesn't have FUNDS_MANAGER_ROLE\"\r\n        );\r\n        (uint256 error, uint256 liquidity, uint256 shortfall) = \r\n            comptroller\r\n            .getAccountLiquidity(address(this));\r\n        if (error != 0) {\r\n            revert(\"University: Comptroller.getAccountLiquidity failed.\");\r\n        }\r\n        return (liquidity, shortfall);\r\n    }\r\n\r\n    function getCompoundPriceInWEI(address cToken) \r\n        public \r\n        view \r\n        returns (uint256) {\r\n        //TODO: add interface\r\n        return priceOracle.getUnderlyingPrice(cToken);\r\n    }\r\n\r\n    function getCompoundMaxBorrowInWei(address cToken) \r\n        public \r\n        view \r\n        returns (uint256) {\r\n        //TODO: add interface\r\n        (uint256 liquidity, ) = getCompoundLiquidityAndShortfall();\r\n        return liquidity.div(priceOracle.getUnderlyingPrice(cToken));\r\n    }\r\n\r\n    function compoundBorrow(address cToken, uint256 val) public {\r\n        //TODO: add interface\r\n        require(\r\n            hasRole(FUNDS_MANAGER_ROLE, _msgSender()),\r\n            \"University: caller doesn't have FUNDS_MANAGER_ROLE\"\r\n        );\r\n        CERC20(cToken).borrow(val);\r\n    }\r\n\r\n    function compoundGetBorrow(address cToken) public view returns (uint256) {\r\n        //TODO: add interface\r\n        require(\r\n            hasRole(FUNDS_MANAGER_ROLE, _msgSender()),\r\n            \"University: caller doesn't have FUNDS_MANAGER_ROLE\"\r\n        );\r\n        return CERC20(cToken).borrowBalanceCurrent(address(this));\r\n    }\r\n\r\n    function compoundRepayBorrow(address token, address cToken, uint256 val) public {\r\n        //TODO: add interface\r\n        require(\r\n            hasRole(FUNDS_MANAGER_ROLE, _msgSender()),\r\n            \"University: caller doesn't have FUNDS_MANAGER_ROLE\"\r\n        );\r\n        require(\r\n            IERC20(token).balanceOf(address(this)) >= val,\r\n            \"University: not enough of this token stored\"\r\n        );\r\n        TransferHelper.safeApprove(token, cToken, val);\r\n        CERC20(cToken).repayBorrow(val);\r\n    }\r\n\r\n    function recoverFundsCompound(uint256 val) public override {\r\n        require(\r\n            hasRole(FUNDS_MANAGER_ROLE, _msgSender()),\r\n            \"University: caller doesn't have FUNDS_MANAGER_ROLE\"\r\n        );\r\n        cDAI.redeemUnderlying(val);\r\n    }\r\n\r\n    function increaseOperationalBudget(uint256 val) public onlyOwner {\r\n        require(\r\n            endowmentLocked >= val,\r\n            \"University: not enough endowment\"\r\n        );\r\n        operationalBudget = operationalBudget.add(val);\r\n        endowmentLocked = endowmentLocked.sub(val);\r\n    }\r\n\r\n    function spendBudget(address to, uint256 val) public override {\r\n        require(\r\n            hasRole(FUNDS_MANAGER_ROLE, _msgSender()),\r\n            \"University: caller doesn't have FUNDS_MANAGER_ROLE\"\r\n        );\r\n        require(\r\n            hasRole(REGISTERED_SUPPLIER_ROLE, to),\r\n            \"University: receiver doesn't have REGISTERED_SUPPLIER_ROLE\"\r\n        );\r\n        require(\r\n            operationalBudget >= val,\r\n            \"University: not enough operational budget\"\r\n        );\r\n        require(\r\n            daiToken.balanceOf(address(this)) >= val,\r\n            \"University: liquidate some positions first\"\r\n        );\r\n        TransferHelper.safeTransfer(address(daiToken), to, val);\r\n        operationalBudget = operationalBudget.sub(val);\r\n    }\r\n\r\n    function giveGrant(address studentApplication, uint256 price) public override {\r\n        require(\r\n            hasRole(GRANTS_MANAGER_ROLE, _msgSender()),\r\n            \"University: caller doesn't have GRANTS_MANAGER_ROLE\"\r\n        );\r\n        require(\r\n            availableFunds() >= price,\r\n            \"University: not enough available funds\"\r\n        );\r\n        IStudentApplication(studentApplication).payEntryPrice();\r\n    }\r\n\r\n    function reinvestReturns(uint256 val) public override {\r\n        require(\r\n            hasRole(FUNDS_MANAGER_ROLE, _msgSender()),\r\n            \"University: caller doesn't have FUNDS_MANAGER_ROLE\"\r\n        );\r\n        require(\r\n            availableFunds() >= val,\r\n            \"University: not enough available funds\"\r\n        );\r\n        accountReturns(val);\r\n    }\r\n\r\n    function viewAllStudentsFromGrantManager(\r\n            address grantsManager\r\n        ) public returns (address[] memory) {\r\n        require(\r\n            hasRole(UNIVERSITY_OVERSEER_ROLE, _msgSender()),\r\n            \"University: caller doesn't have UNIVERSITY_OVERSEER_ROLE\"\r\n        );\r\n        return IGrantsManager(grantsManager).viewAllStudents();\r\n    }\r\n\r\n    function viewAllStudentGrantsFromGrantManager(\r\n            address student, \r\n            address grantsManager\r\n        ) public returns (uint256[] memory) {\r\n        require(\r\n            hasRole(UNIVERSITY_OVERSEER_ROLE, _msgSender()),\r\n            \"University: caller doesn't have UNIVERSITY_OVERSEER_ROLE\"\r\n        );\r\n        return IGrantsManager(grantsManager).viewAllGrantsForStudent(student);\r\n    }\r\n\r\n    function acceptRelayedCall(\r\n        GSNTypes.RelayRequest calldata relayRequest,\r\n        bytes calldata,\r\n        uint256\r\n    ) external pure returns (bytes memory context) {\r\n        require(\r\n            MyUtils.readBytes4(relayRequest.encodedFunction, 0) ==\r\n                this.studentSelfRegisterGSN.selector,\r\n            \"University: GSN not enabled for this function\"\r\n        );\r\n        return abi.encode(relayRequest.target, 0);\r\n    }\r\n\r\n    function refillUniversityRelayer(uint256 val) public {\r\n        require(\r\n            hasRole(FUNDS_MANAGER_ROLE, _msgSender()) || _msgSender() == owner(),\r\n            \"University: caller doesn't have FUNDS_MANAGER_ROLE\"\r\n        );\r\n        relayHub.depositFor.value(val)(address(this));\r\n    }\r\n\r\n    function swapDAI_ETH(\r\n        uint256 amount,\r\n        uint256 deadline\r\n    ) public override returns (uint[] memory amounts) {\r\n        require(\r\n            hasRole(FUNDS_MANAGER_ROLE, _msgSender()),\r\n            \"University: caller doesn't have FUNDS_MANAGER_ROLE\"\r\n        );\r\n        require(\r\n            _uniswapWETH != address(0),\r\n            \"University: setup uniswap first\"\r\n        );\r\n        amounts = swapBlind(_uniswapDAI, _uniswapWETH, amount, deadline);\r\n    }\r\n\r\n    function swapETH_DAI(\r\n        uint256 amount,\r\n        uint256 deadline\r\n    ) public override returns (uint[] memory amounts) {\r\n        require(\r\n            hasRole(FUNDS_MANAGER_ROLE, _msgSender()),\r\n            \"University: caller doesn't have FUNDS_MANAGER_ROLE\"\r\n        );\r\n        require(\r\n            _uniswapWETH != address(0),\r\n            \"University: setup uniswap first\"\r\n        );\r\n        amounts = swapBlind(_uniswapWETH, _uniswapDAI, amount, deadline);\r\n    }\r\n\r\n    function swapBlind(\r\n        address tokenA,\r\n        address tokenB,\r\n        uint256 amount,\r\n        uint256 deadline\r\n    ) internal returns (uint[] memory amounts) {\r\n        TransferHelper.safeApprove(tokenA, address(_uniswapRouter), amount);\r\n        address[] memory path = new address[](2);\r\n        path[0] = tokenA;\r\n        path[1] = tokenB;\r\n        amounts = _uniswapRouter.swapExactTokensForTokens(\r\n            amount,\r\n            0,\r\n            path,\r\n            address(this),\r\n            deadline\r\n        );\r\n    }\r\n\r\n    // This function is vulnerable to sandwich attacks. Since the very nature of this function is for a donor to donate money, it is not needed to prevent the donor from manipulating its own donation\r\n    function donateETH(uint256 donation) public payable override {\r\n        uint256[] memory amounts = swapETH_DAI(donation, 12 hours);\r\n        donators[_msgSender()] = donators[_msgSender()].add(amounts[1]);\r\n        accountDonation(amounts[1]);\r\n    }\r\n\r\n    function donateDAI(uint256 donation) public override {\r\n        TransferHelper.safeTransferFrom(\r\n            address(daiToken),\r\n            _msgSender(),\r\n            address(this),\r\n            donation\r\n        );\r\n        donators[_msgSender()] = donators[_msgSender()].add(donation);\r\n        accountDonation(donation);\r\n    }\r\n\r\n    function accountDonation(uint256 donation) internal {\r\n        donationsReceived = donationsReceived.add(donation);\r\n        endowmentLocked = endowmentLocked.add(donation);\r\n    }\r\n\r\n    function accountRevenue(uint256 revenue) public override {\r\n        require(\r\n            hasRole(CLASSROOM_PROFESSOR_ROLE, _msgSender()),\r\n            \"University: caller doesn't have CLASSROOM_PROFESSOR_ROLE\"\r\n        );\r\n        revenueReceived = revenueReceived.add(revenue);\r\n        endowmentLocked = endowmentLocked.add(revenue);\r\n    }\r\n\r\n    function accountReturns(uint256 financialReturns) internal {\r\n        require(\r\n            hasRole(CLASSROOM_PROFESSOR_ROLE, _msgSender()),\r\n            \"University: caller doesn't have CLASSROOM_PROFESSOR_ROLE\"\r\n        );\r\n        returnsReceived = revenueReceived.add(financialReturns);\r\n        endowmentLocked = endowmentLocked.add(financialReturns);\r\n    }\r\n\r\n\r\n    //TODO: implement funds manager\r\n}\r\n",
  "sourcePath": "/mnt/e/Repositories/Uproot/contracts/University.sol",
  "compiler": {
    "name": "solc",
    "version": "0.6.6+commit.6c089d02.Emscripten.clang"
  },
  "schemaVersion": "3.1.0",
  "updatedAt": "2020-05-06T15:49:47.058Z",
  "devdoc": {
    "methods": {
      "getRoleAdmin(bytes32)": {
        "details": "Returns the admin role that controls `role`. See {grantRole} and {revokeRole}.     * To change a role's admin, use {_setRoleAdmin}."
      },
      "getRoleMember(bytes32,uint256)": {
        "details": "Returns one of the accounts that have `role`. `index` must be a value between 0 and {getRoleMemberCount}, non-inclusive.     * Role bearers are not sorted in any particular way, and their ordering may change at any point.     * WARNING: When using {getRoleMember} and {getRoleMemberCount}, make sure you perform all queries on the same block. See the following https://forum.openzeppelin.com/t/iterating-over-elements-on-enumerableset-in-openzeppelin-contracts/2296[forum post] for more information."
      },
      "getRoleMemberCount(bytes32)": {
        "details": "Returns the number of accounts that have `role`. Can be used together with {getRoleMember} to enumerate all bearers of a role."
      },
      "grantRole(bytes32,address)": {
        "details": "Grants `role` to `account`.     * If `account` had not been already granted `role`, emits a {RoleGranted} event.     * Requirements:     * - the caller must have ``role``'s admin role."
      },
      "hasRole(bytes32,address)": {
        "details": "Returns `true` if `account` has been granted `role`."
      },
      "owner()": {
        "details": "Returns the address of the current owner."
      },
      "renounceOwnership()": {
        "details": "Leaves the contract without owner. It will not be possible to call `onlyOwner` functions anymore. Can only be called by the current owner.     * NOTE: Renouncing ownership will leave the contract without an owner, thereby removing any functionality that is only available to the owner."
      },
      "renounceRole(bytes32,address)": {
        "details": "Revokes `role` from the calling account.     * Roles are often managed via {grantRole} and {revokeRole}: this function's purpose is to provide a mechanism for accounts to lose their privileges if they are compromised (such as when a trusted device is misplaced).     * If the calling account had been granted `role`, emits a {RoleRevoked} event.     * Requirements:     * - the caller must be `account`."
      },
      "revokeRole(bytes32,address)": {
        "details": "Revokes `role` from `account`.     * If `account` had been granted `role`, emits a {RoleRevoked} event.     * Requirements:     * - the caller must have ``role``'s admin role."
      },
      "transferOwnership(address)": {
        "details": "Transfers ownership of the contract to a new account (`newOwner`). Can only be called by the current owner."
      }
    }
  },
  "userdoc": {
    "methods": {
      "_msgSenderGSN()": {
        "notice": "return the sender of this call. if the call came through our trusted forwarder, return the original sender. otherwise, return `msg.sender`. should be used in the contract anywhere instead of msg.sender"
      }
    }
  }
}