{
  "contractName": "University",
  "abi": [
    {
      "inputs": [
        {
          "internalType": "bytes32",
          "name": "_name",
          "type": "bytes32"
        },
        {
          "internalType": "uint24",
          "name": "_cut",
          "type": "uint24"
        },
        {
          "internalType": "uint256",
          "name": "studentGSNDeposit",
          "type": "uint256"
        },
        {
          "internalType": "address",
          "name": "daiAddress",
          "type": "address"
        },
        {
          "internalType": "address",
          "name": "compoundDAIAddress",
          "type": "address"
        },
        {
          "internalType": "address",
          "name": "relayHubAddress",
          "type": "address"
        },
        {
          "internalType": "address",
          "name": "classroomFactoryAddress",
          "type": "address"
        },
        {
          "internalType": "address",
          "name": "studentFactoryAddress",
          "type": "address"
        },
        {
          "internalType": "address",
          "name": "studentApplicationFactoryAddress",
          "type": "address"
        }
      ],
      "stateMutability": "nonpayable",
      "type": "constructor"
    },
    {
      "anonymous": false,
      "inputs": [
        {
          "indexed": false,
          "internalType": "uint24",
          "name": "",
          "type": "uint24"
        }
      ],
      "name": "LogChangeCut",
      "type": "event"
    },
    {
      "anonymous": false,
      "inputs": [
        {
          "indexed": false,
          "internalType": "bytes32",
          "name": "",
          "type": "bytes32"
        }
      ],
      "name": "LogChangeName",
      "type": "event"
    },
    {
      "anonymous": false,
      "inputs": [
        {
          "indexed": false,
          "internalType": "bytes32",
          "name": "",
          "type": "bytes32"
        },
        {
          "indexed": false,
          "internalType": "address",
          "name": "",
          "type": "address"
        }
      ],
      "name": "LogNewClassroom",
      "type": "event"
    },
    {
      "anonymous": false,
      "inputs": [
        {
          "indexed": false,
          "internalType": "address",
          "name": "",
          "type": "address"
        },
        {
          "indexed": false,
          "internalType": "uint256",
          "name": "",
          "type": "uint256"
        }
      ],
      "name": "LogReceived",
      "type": "event"
    },
    {
      "anonymous": false,
      "inputs": [
        {
          "indexed": true,
          "internalType": "address",
          "name": "previousOwner",
          "type": "address"
        },
        {
          "indexed": true,
          "internalType": "address",
          "name": "newOwner",
          "type": "address"
        }
      ],
      "name": "OwnershipTransferred",
      "type": "event"
    },
    {
      "anonymous": false,
      "inputs": [
        {
          "indexed": true,
          "internalType": "bytes32",
          "name": "role",
          "type": "bytes32"
        },
        {
          "indexed": true,
          "internalType": "address",
          "name": "account",
          "type": "address"
        },
        {
          "indexed": true,
          "internalType": "address",
          "name": "sender",
          "type": "address"
        }
      ],
      "name": "RoleGranted",
      "type": "event"
    },
    {
      "anonymous": false,
      "inputs": [
        {
          "indexed": true,
          "internalType": "bytes32",
          "name": "role",
          "type": "bytes32"
        },
        {
          "indexed": true,
          "internalType": "address",
          "name": "account",
          "type": "address"
        },
        {
          "indexed": true,
          "internalType": "address",
          "name": "sender",
          "type": "address"
        }
      ],
      "name": "RoleRevoked",
      "type": "event"
    },
    {
      "inputs": [],
      "name": "CLASSLIST_ADMIN_ROLE",
      "outputs": [
        {
          "internalType": "bytes32",
          "name": "",
          "type": "bytes32"
        }
      ],
      "stateMutability": "view",
      "type": "function"
    },
    {
      "inputs": [],
      "name": "CLASSROOM_PROFESSOR_ROLE",
      "outputs": [
        {
          "internalType": "bytes32",
          "name": "",
          "type": "bytes32"
        }
      ],
      "stateMutability": "view",
      "type": "function"
    },
    {
      "inputs": [],
      "name": "DEFAULT_ADMIN_ROLE",
      "outputs": [
        {
          "internalType": "bytes32",
          "name": "",
          "type": "bytes32"
        }
      ],
      "stateMutability": "view",
      "type": "function"
    },
    {
      "inputs": [],
      "name": "FUNDS_MANAGER_ROLE",
      "outputs": [
        {
          "internalType": "bytes32",
          "name": "",
          "type": "bytes32"
        }
      ],
      "stateMutability": "view",
      "type": "function"
    },
    {
      "inputs": [],
      "name": "GRANTS_MANAGER_ROLE",
      "outputs": [
        {
          "internalType": "bytes32",
          "name": "",
          "type": "bytes32"
        }
      ],
      "stateMutability": "view",
      "type": "function"
    },
    {
      "inputs": [],
      "name": "READ_STUDENT_LIST_ROLE",
      "outputs": [
        {
          "internalType": "bytes32",
          "name": "",
          "type": "bytes32"
        }
      ],
      "stateMutability": "view",
      "type": "function"
    },
    {
      "inputs": [],
      "name": "REGISTERED_SUPPLIER_ROLE",
      "outputs": [
        {
          "internalType": "bytes32",
          "name": "",
          "type": "bytes32"
        }
      ],
      "stateMutability": "view",
      "type": "function"
    },
    {
      "inputs": [],
      "name": "STUDENT_IDENTITY_ROLE",
      "outputs": [
        {
          "internalType": "bytes32",
          "name": "",
          "type": "bytes32"
        }
      ],
      "stateMutability": "view",
      "type": "function"
    },
    {
      "inputs": [],
      "name": "UNIVERSITY_OVERSEER_ROLE",
      "outputs": [
        {
          "internalType": "bytes32",
          "name": "",
          "type": "bytes32"
        }
      ],
      "stateMutability": "view",
      "type": "function"
    },
    {
      "inputs": [
        {
          "internalType": "uint256",
          "name": "",
          "type": "uint256"
        }
      ],
      "name": "_classList",
      "outputs": [
        {
          "internalType": "address",
          "name": "",
          "type": "address"
        }
      ],
      "stateMutability": "view",
      "type": "function"
    },
    {
      "inputs": [],
      "name": "_msgSenderGSN",
      "outputs": [
        {
          "internalType": "address",
          "name": "",
          "type": "address"
        }
      ],
      "stateMutability": "view",
      "type": "function"
    },
    {
      "inputs": [],
      "name": "_uniswapRouter",
      "outputs": [
        {
          "internalType": "contract IUniswapV2Router01",
          "name": "",
          "type": "address"
        }
      ],
      "stateMutability": "view",
      "type": "function"
    },
    {
      "inputs": [],
      "name": "cDAI",
      "outputs": [
        {
          "internalType": "contract CERC20",
          "name": "",
          "type": "address"
        }
      ],
      "stateMutability": "view",
      "type": "function"
    },
    {
      "inputs": [],
      "name": "cut",
      "outputs": [
        {
          "internalType": "uint24",
          "name": "",
          "type": "uint24"
        }
      ],
      "stateMutability": "view",
      "type": "function"
    },
    {
      "inputs": [],
      "name": "daiToken",
      "outputs": [
        {
          "internalType": "contract IERC20",
          "name": "",
          "type": "address"
        }
      ],
      "stateMutability": "view",
      "type": "function"
    },
    {
      "inputs": [],
      "name": "donationsReceived",
      "outputs": [
        {
          "internalType": "uint256",
          "name": "",
          "type": "uint256"
        }
      ],
      "stateMutability": "view",
      "type": "function"
    },
    {
      "inputs": [
        {
          "internalType": "address",
          "name": "",
          "type": "address"
        }
      ],
      "name": "donators",
      "outputs": [
        {
          "internalType": "uint256",
          "name": "",
          "type": "uint256"
        }
      ],
      "stateMutability": "view",
      "type": "function"
    },
    {
      "inputs": [],
      "name": "endowmentLocked",
      "outputs": [
        {
          "internalType": "uint256",
          "name": "",
          "type": "uint256"
        }
      ],
      "stateMutability": "view",
      "type": "function"
    },
    {
      "inputs": [
        {
          "internalType": "bytes32",
          "name": "role",
          "type": "bytes32"
        }
      ],
      "name": "getRoleAdmin",
      "outputs": [
        {
          "internalType": "bytes32",
          "name": "",
          "type": "bytes32"
        }
      ],
      "stateMutability": "view",
      "type": "function"
    },
    {
      "inputs": [
        {
          "internalType": "bytes32",
          "name": "role",
          "type": "bytes32"
        },
        {
          "internalType": "uint256",
          "name": "index",
          "type": "uint256"
        }
      ],
      "name": "getRoleMember",
      "outputs": [
        {
          "internalType": "address",
          "name": "",
          "type": "address"
        }
      ],
      "stateMutability": "view",
      "type": "function"
    },
    {
      "inputs": [
        {
          "internalType": "bytes32",
          "name": "role",
          "type": "bytes32"
        }
      ],
      "name": "getRoleMemberCount",
      "outputs": [
        {
          "internalType": "uint256",
          "name": "",
          "type": "uint256"
        }
      ],
      "stateMutability": "view",
      "type": "function"
    },
    {
      "inputs": [],
      "name": "getTrustedForwarder",
      "outputs": [
        {
          "internalType": "address",
          "name": "",
          "type": "address"
        }
      ],
      "stateMutability": "view",
      "type": "function"
    },
    {
      "inputs": [
        {
          "internalType": "bytes32",
          "name": "role",
          "type": "bytes32"
        },
        {
          "internalType": "address",
          "name": "account",
          "type": "address"
        }
      ],
      "name": "grantRole",
      "outputs": [],
      "stateMutability": "nonpayable",
      "type": "function"
    },
    {
      "inputs": [
        {
          "internalType": "bytes32",
          "name": "role",
          "type": "bytes32"
        },
        {
          "internalType": "address",
          "name": "account",
          "type": "address"
        }
      ],
      "name": "hasRole",
      "outputs": [
        {
          "internalType": "bool",
          "name": "",
          "type": "bool"
        }
      ],
      "stateMutability": "view",
      "type": "function"
    },
    {
      "inputs": [],
      "name": "name",
      "outputs": [
        {
          "internalType": "bytes32",
          "name": "",
          "type": "bytes32"
        }
      ],
      "stateMutability": "view",
      "type": "function"
    },
    {
      "inputs": [],
      "name": "operationalBudget",
      "outputs": [
        {
          "internalType": "uint256",
          "name": "",
          "type": "uint256"
        }
      ],
      "stateMutability": "view",
      "type": "function"
    },
    {
      "inputs": [],
      "name": "owner",
      "outputs": [
        {
          "internalType": "address",
          "name": "",
          "type": "address"
        }
      ],
      "stateMutability": "view",
      "type": "function"
    },
    {
      "inputs": [],
      "name": "relayHub",
      "outputs": [
        {
          "internalType": "contract IRelayHub",
          "name": "",
          "type": "address"
        }
      ],
      "stateMutability": "view",
      "type": "function"
    },
    {
      "inputs": [],
      "name": "renounceOwnership",
      "outputs": [],
      "stateMutability": "nonpayable",
      "type": "function"
    },
    {
      "inputs": [
        {
          "internalType": "bytes32",
          "name": "role",
          "type": "bytes32"
        },
        {
          "internalType": "address",
          "name": "account",
          "type": "address"
        }
      ],
      "name": "renounceRole",
      "outputs": [],
      "stateMutability": "nonpayable",
      "type": "function"
    },
    {
      "inputs": [],
      "name": "revenueReceived",
      "outputs": [
        {
          "internalType": "uint256",
          "name": "",
          "type": "uint256"
        }
      ],
      "stateMutability": "view",
      "type": "function"
    },
    {
      "inputs": [
        {
          "internalType": "bytes32",
          "name": "role",
          "type": "bytes32"
        },
        {
          "internalType": "address",
          "name": "account",
          "type": "address"
        }
      ],
      "name": "revokeRole",
      "outputs": [],
      "stateMutability": "nonpayable",
      "type": "function"
    },
    {
      "inputs": [
        {
          "internalType": "address",
          "name": "newOwner",
          "type": "address"
        }
      ],
      "name": "transferOwnership",
      "outputs": [],
      "stateMutability": "nonpayable",
      "type": "function"
    },
    {
      "stateMutability": "payable",
      "type": "receive"
    },
    {
      "inputs": [
        {
          "internalType": "address",
          "name": "uniswapWETH",
          "type": "address"
        },
        {
          "internalType": "address",
          "name": "uniswapDAI",
          "type": "address"
        },
        {
          "internalType": "address",
          "name": "uniswapRouter",
          "type": "address"
        }
      ],
      "name": "configureUniswap",
      "outputs": [],
      "stateMutability": "nonpayable",
      "type": "function"
    },
    {
      "inputs": [
        {
          "internalType": "bytes32",
          "name": "val",
          "type": "bytes32"
        }
      ],
      "name": "changeName",
      "outputs": [],
      "stateMutability": "nonpayable",
      "type": "function"
    },
    {
      "inputs": [
        {
          "internalType": "uint24",
          "name": "val",
          "type": "uint24"
        }
      ],
      "name": "changeCut",
      "outputs": [],
      "stateMutability": "nonpayable",
      "type": "function"
    },
    {
      "inputs": [
        {
          "internalType": "uint256",
          "name": "val",
          "type": "uint256"
        }
      ],
      "name": "changeStudentGSNDeposit",
      "outputs": [],
      "stateMutability": "nonpayable",
      "type": "function"
    },
    {
      "inputs": [],
      "name": "availableFunds",
      "outputs": [
        {
          "internalType": "uint256",
          "name": "",
          "type": "uint256"
        }
      ],
      "stateMutability": "view",
      "type": "function"
    },
    {
      "inputs": [
        {
          "internalType": "address",
          "name": "classroom",
          "type": "address"
        }
      ],
      "name": "isValidClassroom",
      "outputs": [
        {
          "internalType": "bool",
          "name": "",
          "type": "bool"
        }
      ],
      "stateMutability": "view",
      "type": "function"
    },
    {
      "inputs": [
        {
          "internalType": "address",
          "name": "student",
          "type": "address"
        }
      ],
      "name": "studentIsRegistered",
      "outputs": [
        {
          "internalType": "bool",
          "name": "",
          "type": "bool"
        }
      ],
      "stateMutability": "view",
      "type": "function"
    },
    {
      "inputs": [],
      "name": "viewMyApplications",
      "outputs": [
        {
          "internalType": "address[]",
          "name": "",
          "type": "address[]"
        }
      ],
      "stateMutability": "view",
      "type": "function"
    },
    {
      "inputs": [
        {
          "internalType": "address",
          "name": "addr",
          "type": "address"
        }
      ],
      "name": "viewStudentApplications",
      "outputs": [
        {
          "internalType": "address[]",
          "name": "",
          "type": "address[]"
        }
      ],
      "stateMutability": "view",
      "type": "function"
    },
    {
      "inputs": [
        {
          "internalType": "bytes32",
          "name": "sName",
          "type": "bytes32"
        }
      ],
      "name": "studentSelfRegisterGSN",
      "outputs": [
        {
          "internalType": "address",
          "name": "",
          "type": "address"
        }
      ],
      "stateMutability": "nonpayable",
      "type": "function"
    },
    {
      "inputs": [
        {
          "internalType": "bytes32",
          "name": "sName",
          "type": "bytes32"
        }
      ],
      "name": "studentSelfRegister",
      "outputs": [
        {
          "internalType": "address",
          "name": "",
          "type": "address"
        }
      ],
      "stateMutability": "nonpayable",
      "type": "function"
    },
    {
      "inputs": [
        {
          "internalType": "address",
          "name": "owner",
          "type": "address"
        },
        {
          "internalType": "bytes32",
          "name": "cName",
          "type": "bytes32"
        },
        {
          "internalType": "uint24",
          "name": "cCut",
          "type": "uint24"
        },
        {
          "internalType": "uint24",
          "name": "cPCut",
          "type": "uint24"
        },
        {
          "internalType": "int32",
          "name": "minScore",
          "type": "int32"
        },
        {
          "internalType": "uint256",
          "name": "entryPrice",
          "type": "uint256"
        },
        {
          "internalType": "uint256",
          "name": "duration",
          "type": "uint256"
        },
        {
          "internalType": "address",
          "name": "challengeAddress",
          "type": "address"
        }
      ],
      "name": "newClassRoom",
      "outputs": [
        {
          "internalType": "address",
          "name": "",
          "type": "address"
        }
      ],
      "stateMutability": "nonpayable",
      "type": "function"
    },
    {
      "inputs": [
        {
          "internalType": "address",
          "name": "applicationAddr",
          "type": "address"
        },
        {
          "internalType": "bytes32",
          "name": "cName",
          "type": "bytes32"
        },
        {
          "internalType": "uint24",
          "name": "cCut",
          "type": "uint24"
        },
        {
          "internalType": "uint24",
          "name": "cPCut",
          "type": "uint24"
        },
        {
          "internalType": "int32",
          "name": "minScore",
          "type": "int32"
        },
        {
          "internalType": "uint256",
          "name": "entryPrice",
          "type": "uint256"
        },
        {
          "internalType": "uint256",
          "name": "duration",
          "type": "uint256"
        },
        {
          "internalType": "address",
          "name": "challenge",
          "type": "address"
        }
      ],
      "name": "studentRequestClassroom",
      "outputs": [
        {
          "internalType": "address",
          "name": "",
          "type": "address"
        }
      ],
      "stateMutability": "nonpayable",
      "type": "function"
    },
    {
      "inputs": [
        {
          "internalType": "address",
          "name": "student",
          "type": "address"
        },
        {
          "internalType": "address",
          "name": "application",
          "type": "address"
        }
      ],
      "name": "registerStudentApplication",
      "outputs": [],
      "stateMutability": "nonpayable",
      "type": "function"
    },
    {
      "inputs": [
        {
          "internalType": "address",
          "name": "student",
          "type": "address"
        },
        {
          "internalType": "int32",
          "name": "val",
          "type": "int32"
        }
      ],
      "name": "addStudentScore",
      "outputs": [],
      "stateMutability": "nonpayable",
      "type": "function"
    },
    {
      "inputs": [
        {
          "internalType": "address",
          "name": "student",
          "type": "address"
        },
        {
          "internalType": "int32",
          "name": "val",
          "type": "int32"
        }
      ],
      "name": "subStudentScore",
      "outputs": [],
      "stateMutability": "nonpayable",
      "type": "function"
    },
    {
      "inputs": [
        {
          "internalType": "uint256",
          "name": "val",
          "type": "uint256"
        }
      ],
      "name": "applyFundsCompound",
      "outputs": [],
      "stateMutability": "nonpayable",
      "type": "function"
    },
    {
      "inputs": [
        {
          "internalType": "uint256",
          "name": "val",
          "type": "uint256"
        }
      ],
      "name": "recoverFundsCompound",
      "outputs": [],
      "stateMutability": "nonpayable",
      "type": "function"
    },
    {
      "inputs": [
        {
          "internalType": "uint256",
          "name": "val",
          "type": "uint256"
        }
      ],
      "name": "increaseOperationalBudget",
      "outputs": [],
      "stateMutability": "nonpayable",
      "type": "function"
    },
    {
      "inputs": [
        {
          "internalType": "address",
          "name": "to",
          "type": "address"
        },
        {
          "internalType": "uint256",
          "name": "val",
          "type": "uint256"
        }
      ],
      "name": "spendBudget",
      "outputs": [],
      "stateMutability": "nonpayable",
      "type": "function"
    },
    {
      "inputs": [
        {
          "internalType": "address",
          "name": "studentApplication",
          "type": "address"
        },
        {
          "internalType": "uint256",
          "name": "price",
          "type": "uint256"
        }
      ],
      "name": "giveGrant",
      "outputs": [],
      "stateMutability": "nonpayable",
      "type": "function"
    },
    {
      "inputs": [
        {
          "internalType": "address",
          "name": "grantsManager",
          "type": "address"
        }
      ],
      "name": "viewAllStudentsFromGrantManager",
      "outputs": [
        {
          "internalType": "address[]",
          "name": "",
          "type": "address[]"
        }
      ],
      "stateMutability": "nonpayable",
      "type": "function"
    },
    {
      "inputs": [
        {
          "internalType": "address",
          "name": "student",
          "type": "address"
        },
        {
          "internalType": "address",
          "name": "grantsManager",
          "type": "address"
        }
      ],
      "name": "viewAllStudentGrantsFromGrantManager",
      "outputs": [
        {
          "internalType": "uint256[]",
          "name": "",
          "type": "uint256[]"
        }
      ],
      "stateMutability": "nonpayable",
      "type": "function"
    },
    {
      "inputs": [
        {
          "components": [
            {
              "internalType": "address",
              "name": "target",
              "type": "address"
            },
            {
              "internalType": "bytes",
              "name": "encodedFunction",
              "type": "bytes"
            },
            {
              "components": [
                {
                  "internalType": "uint256",
                  "name": "gasLimit",
                  "type": "uint256"
                },
                {
                  "internalType": "uint256",
                  "name": "gasPrice",
                  "type": "uint256"
                },
                {
                  "internalType": "uint256",
                  "name": "pctRelayFee",
                  "type": "uint256"
                },
                {
                  "internalType": "uint256",
                  "name": "baseRelayFee",
                  "type": "uint256"
                }
              ],
              "internalType": "struct GSNTypes.GasData",
              "name": "gasData",
              "type": "tuple"
            },
            {
              "components": [
                {
                  "internalType": "address",
                  "name": "senderAddress",
                  "type": "address"
                },
                {
                  "internalType": "uint256",
                  "name": "senderNonce",
                  "type": "uint256"
                },
                {
                  "internalType": "address",
                  "name": "relayWorker",
                  "type": "address"
                },
                {
                  "internalType": "address",
                  "name": "paymaster",
                  "type": "address"
                }
              ],
              "internalType": "struct GSNTypes.RelayData",
              "name": "relayData",
              "type": "tuple"
            }
          ],
          "internalType": "struct GSNTypes.RelayRequest",
          "name": "relayRequest",
          "type": "tuple"
        },
        {
          "internalType": "bytes",
          "name": "",
          "type": "bytes"
        },
        {
          "internalType": "uint256",
          "name": "",
          "type": "uint256"
        }
      ],
      "name": "acceptRelayedCall",
      "outputs": [
        {
          "internalType": "bytes",
          "name": "context",
          "type": "bytes"
        }
      ],
      "stateMutability": "pure",
      "type": "function"
    },
    {
      "inputs": [
        {
          "internalType": "uint256",
          "name": "val",
          "type": "uint256"
        }
      ],
      "name": "refillUniversityRelayer",
      "outputs": [],
      "stateMutability": "nonpayable",
      "type": "function"
    },
    {
      "inputs": [
        {
          "internalType": "uint256",
          "name": "amount",
          "type": "uint256"
        },
        {
          "internalType": "uint256",
          "name": "deadline",
          "type": "uint256"
        }
      ],
      "name": "swapDAI_ETH",
      "outputs": [
        {
          "internalType": "uint256[]",
          "name": "amounts",
          "type": "uint256[]"
        }
      ],
      "stateMutability": "nonpayable",
      "type": "function"
    },
    {
      "inputs": [
        {
          "internalType": "uint256",
          "name": "amount",
          "type": "uint256"
        },
        {
          "internalType": "uint256",
          "name": "deadline",
          "type": "uint256"
        }
      ],
      "name": "swapETH_DAI",
      "outputs": [
        {
          "internalType": "uint256[]",
          "name": "amounts",
          "type": "uint256[]"
        }
      ],
      "stateMutability": "nonpayable",
      "type": "function"
    },
    {
      "inputs": [
        {
          "internalType": "uint256",
          "name": "donation",
          "type": "uint256"
        }
      ],
      "name": "donateETH",
      "outputs": [],
      "stateMutability": "payable",
      "type": "function"
    },
    {
      "inputs": [
        {
          "internalType": "uint256",
          "name": "donation",
          "type": "uint256"
        }
      ],
      "name": "donateDAI",
      "outputs": [],
      "stateMutability": "nonpayable",
      "type": "function"
    },
    {
      "inputs": [
        {
          "internalType": "uint256",
          "name": "revenue",
          "type": "uint256"
        }
      ],
      "name": "accountRevenue",
      "outputs": [],
      "stateMutability": "nonpayable",
      "type": "function"
    }
  ],
  "bytecode": "0x60806040523480156200001157600080fd5b50604051620041d1380380620041d183398101604081905262000034916200037c565b6000620000496001600160e01b036200018316565b600080546001600160a01b0319166001600160a01b0383169081178255604051929350917f8be0079c531659141344cd1fd0a4f28419497f9722a3daafe3b4186f6b6457e0908290a35060038990556004805462ffffff191662ffffff8a161790556005879055620000cf6000620000c062000183565b6001600160e01b036200018716565b6200010c604051620000e19062000433565b604051908190039020620000fd6001600160e01b036200018316565b6001600160e01b03620001a016565b601280546001600160a01b03199081166001600160a01b039889161790915560118054821696881696909617909555601380548616948716949094179093556014805485169286169290921790915560158054841691851691909117905560168054909216921691909117905550620004ab915050565b3390565b6200019c82826001600160e01b036200020116565b5050565b600082815260016020526040902060020154620001d990620001ca6001600160e01b036200018316565b6001600160e01b036200028516565b620001875760405162461bcd60e51b8152600401620001f8906200045c565b60405180910390fd5b60008281526001602090815260409091206200022891839062002986620002b4821b17901c565b156200019c57620002416001600160e01b036200018316565b6001600160a01b0316816001600160a01b0316837f2f8788117e7eff1d82e926ec794901d17c78024a50270940304540a733656f0d60405160405180910390a45050565b60008281526001602090815260408220620002ab91849062002743620002d4821b17901c565b90505b92915050565b6000620002ab836001600160a01b0384166001600160e01b03620002f416565b6000620002ab836001600160a01b0384166001600160e01b036200034c16565b60006200030b83836001600160e01b036200034c16565b6200034357508154600181810184556000848152602080822090930184905584548482528286019093526040902091909155620002ae565b506000620002ae565b60009081526001919091016020526040902054151590565b80516001600160a01b0381168114620002ae57600080fd5b60008060008060008060008060006101208a8c0312156200039b578485fd5b8951985060208a015162ffffff81168114620003b5578586fd5b60408b01519098509650620003ce8b60608c0162000364565b9550620003df8b60808c0162000364565b9450620003f08b60a08c0162000364565b9350620004018b60c08c0162000364565b9250620004128b60e08c0162000364565b9150620004248b6101008c0162000364565b90509295985092959850929598565b7f524541445f53545544454e545f4c4953545f524f4c4500000000000000000000815260160190565b6020808252602f908201527f416363657373436f6e74726f6c3a2073656e646572206d75737420626520616e60408201526e0818591b5a5b881d1bc819dc985b9d608a1b606082015260800190565b613d1680620004bb6000396000f3fe6080604052600436106103bc5760003560e01c806385dade61116101f2578063c4707a831161010d578063e37dd980116100a0578063f2fde38b1161006f578063f2fde38b14610ab2578063f676f43d14610ad2578063fa8e506014610ae7578063ff5d8f6314610b07576103fc565b8063e37dd98014610a30578063e6fd604c14610a50578063e770d7d414610a72578063ef5450ba14610a92576103fc565b8063ce1b815f116100dc578063ce1b815f146109bb578063d24f8cdd146109d0578063d3c5704e146109f0578063d547741f14610a10576103fc565b8063c4707a8314610946578063ca15c8731461095b578063cb0ce4171461097b578063cb4e56011461099b576103fc565b80639fd6cb7a11610185578063b1ed031f11610154578063b1ed031f146108cf578063be22f546146108fc578063be61437914610911578063c2b94cd814610926576103fc565b80639fd6cb7a14610872578063a217fddf14610887578063a544594e1461089c578063ab83f98a146108bc576103fc565b80638da5cb5b116101c15780638da5cb5b146107fd5780638ff2f762146108125780639010d07c1461083257806391d1485414610852576103fc565b806385dade611461078857806387bfe188146107a8578063898855ed146107c85780638a9f5b7f146107e8576103fc565b806346fcff4c116102e257806364d4773111610275578063715018a611610244578063715018a61461071e5780637fd5c108146107335780638038090614610753578063820cd75c14610773576103fc565b806364d47731146106ca57806365b61b77146106df5780636beb0c03146106f45780636f6941b914610709576103fc565b80635a7dd150116102b15780635a7dd150146106605780635b8f96de14610680578063629bca67146106a05780636408a386146106b5576103fc565b806346fcff4c146105de578063478ecefb146105f35780634884da05146106135780634ea962c114610640576103fc565b8063284755181161035a5780633593aad6116103295780633593aad61461055e57806336568abe1461057e578063377ef77f1461059e5780633dc3214b146105be576103fc565b806328475518146104f2578063289c5e54146105145780632f2ff15d1461052957806332636ac914610549576103fc565b8063183b260011610396578063183b26001461046e5780631ec1f9f314610490578063238aaf2f146104a5578063248a9ca3146104d2576103fc565b806306fdde031461040157806316ded1ce1461042c57806317b1a4cf14610459576103fc565b366103fc577f60e4c1ac84c9e2c4c0aa82b86b3b1ddf0b1b73fbbeb74c8bc8f8f06041ccfdf633346040516103f292919061316c565b60405180910390a1005b600080fd5b34801561040d57600080fd5b50610416610b27565b6040516104239190613227565b60405180910390f35b34801561043857600080fd5b5061044c610447366004612b60565b610b2d565b604051610423919061321c565b34801561046557600080fd5b50610416610b96565b34801561047a57600080fd5b5061048e610489366004612b98565b610b9c565b005b34801561049c57600080fd5b50610416610c05565b3480156104b157600080fd5b506104c56104c0366004612b98565b610c0b565b60405161042391906131d8565b3480156104de57600080fd5b506104166104ed366004612e50565b610cda565b3480156104fe57600080fd5b50610507610cef565b6040516104239190613158565b34801561052057600080fd5b50610507610cfe565b34801561053557600080fd5b5061048e610544366004612e68565b610d81565b34801561055557600080fd5b50610416610dc9565b34801561056a57600080fd5b5061048e610579366004612e50565b610de0565b34801561058a57600080fd5b5061048e610599366004612e68565b610e66565b3480156105aa57600080fd5b5061048e6105b9366004612e50565b610ea8565b3480156105ca57600080fd5b506104c56105d9366004612e8c565b610f6e565b3480156105ea57600080fd5b50610416610fe1565b3480156105ff57600080fd5b5061048e61060e366004612e50565b6110d6565b34801561061f57600080fd5b5061063361062e366004612b60565b611168565b60405161042391906131c5565b34801561064c57600080fd5b5061050761065b366004612c1a565b61120c565b34801561066c57600080fd5b5061050761067b366004612e50565b611256565b34801561068c57600080fd5b5061048e61069b366004612bd0565b611269565b3480156106ac57600080fd5b506104166112dd565b3480156106c157600080fd5b506106336112e9565b3480156106d657600080fd5b506104166112fb565b3480156106eb57600080fd5b50610507611307565b34801561070057600080fd5b50610416611316565b34801561071557600080fd5b5061050761131c565b34801561072a57600080fd5b5061048e61132b565b34801561073f57600080fd5b5061050761074e366004612c1a565b6113aa565b34801561075f57600080fd5b5061048e61076e366004612e50565b61152e565b34801561077f57600080fd5b506104166115bf565b34801561079457600080fd5b5061044c6107a3366004612b60565b6115cb565b3480156107b457600080fd5b5061048e6107c3366004612caa565b6115dc565b3480156107d457600080fd5b5061048e6107e3366004612e50565b611666565b3480156107f457600080fd5b506104166116db565b34801561080957600080fd5b506105076116e7565b34801561081e57600080fd5b5061050761082d366004612e50565b6116f6565b34801561083e57600080fd5b5061050761084d366004612e8c565b611775565b34801561085e57600080fd5b5061044c61086d366004612e68565b611793565b34801561087e57600080fd5b506104166117b1565b34801561089357600080fd5b506104166117bd565b3480156108a857600080fd5b5061048e6108b7366004612e50565b6117c2565b61048e6108ca366004612e50565b611849565b3480156108db57600080fd5b506108ef6108ea366004612ead565b6118ca565b60405161042391906132b2565b34801561090857600080fd5b506105076119af565b34801561091d57600080fd5b506104166119be565b34801561093257600080fd5b5061048e610941366004612cdd565b6119ca565b34801561095257600080fd5b50610416611a57565b34801561096757600080fd5b50610416610976366004612e50565b611a63565b34801561098757600080fd5b506104c5610996366004612e8c565b611a7a565b3480156109a757600080fd5b5061048e6109b6366004612cdd565b611aed565b3480156109c757600080fd5b50610507611b96565b3480156109dc57600080fd5b506104166109eb366004612b60565b611ba5565b3480156109fc57600080fd5b50610633610a0b366004612b60565b611bb7565b348015610a1c57600080fd5b5061048e610a2b366004612e68565b611c7a565b348015610a3c57600080fd5b50610507610a4b366004612e50565b611cb4565b348015610a5c57600080fd5b50610a65611cdb565b6040516104239190613bba565b348015610a7e57600080fd5b5061048e610a8d366004612f4a565b611ce6565b348015610a9e57600080fd5b5061048e610aad366004612e50565b611d64565b348015610abe57600080fd5b5061048e610acd366004612b60565b611d9e565b348015610ade57600080fd5b50610416611e54565b348015610af357600080fd5b5061048e610b02366004612e50565b611e5a565b348015610b1357600080fd5b5061048e610b22366004612caa565b611eae565b60035481565b6000610b4e604051610b3e90613010565b604051809103902061086d611f1e565b610b735760405162461bcd60e51b8152600401610b6a906133c4565b60405180910390fd5b610b90604051610b8290613039565b604051809103902083611793565b92915050565b600d5481565b610bab604051610b3e90613062565b610bc75760405162461bcd60e51b8152600401610b6a906137ac565b6001600160a01b0391821660009081526008602090815260408220805460018101825590835291200180546001600160a01b03191691909216179055565b600c5481565b6060610c1c604051610b3e9061312f565b610c385760405162461bcd60e51b8152600401610b6a90613955565b6040517fe60d0f4a0000000000000000000000000000000000000000000000000000000081526001600160a01b0383169063e60d0f4a90610c7d908690600401613158565b600060405180830381600087803b158015610c9757600080fd5b505af1158015610cab573d6000803e3d6000fd5b505050506040513d6000823e601f3d908101601f19168201604052610cd39190810190612da9565b9392505050565b60009081526001602052604090206002015490565b6013546001600160a01b031681565b600060183610801590610d295750610d14611b96565b6001600160a01b0316336001600160a01b0316145b15610d7b57610d746000368080601f0160208091040260200160405190810160405280939291908181526020018383808284376000920191909152505060131936019150611f229050565b9050610d7e565b50335b90565b600082815260016020526040902060020154610d9f9061086d611f1e565b610dbb5760405162461bcd60e51b8152600401610b6a90613367565b610dc58282611f33565b5050565b604051610dd590613039565b604051809103902081565b610de8611f1e565b6000546001600160a01b03908116911614610e155760405162461bcd60e51b8152600401610b6a90613866565b80600c541015610e375760405162461bcd60e51b8152600401610b6a906134db565b600d54610e4a908263ffffffff611fa216565b600d55600c54610e60908263ffffffff611fc716565b600c5550565b610e6e611f1e565b6001600160a01b0316816001600160a01b031614610e9e5760405162461bcd60e51b8152600401610b6a90613b5d565b610dc58282612009565b610eb7604051610b3e906130b4565b610ed35760405162461bcd60e51b8152600401610b6a9061347e565b6011546040517f852a12e30000000000000000000000000000000000000000000000000000000081526001600160a01b039091169063852a12e390610f1c908490600401613227565b602060405180830381600087803b158015610f3657600080fd5b505af1158015610f4a573d6000803e3d6000fd5b505050506040513d601f19601f82011682018060405250810190610dc59190612f6d565b6060610f7f604051610b3e906130b4565b610f9b5760405162461bcd60e51b8152600401610b6a9061347e565b600e546001600160a01b0316610fc35760405162461bcd60e51b8152600401610b6a90613ac9565b600e54600f54610cd3916001600160a01b0390811691168585612078565b6012546040517f70a0823100000000000000000000000000000000000000000000000000000000815260009182916001600160a01b03909116906370a082319061102f903090600401613158565b60206040518083038186803b15801561104757600080fd5b505afa15801561105b573d6000803e3d6000fd5b505050506040513d601f19601f8201168201806040525081019061107f9190612f6d565b9050611098600d54600c54611fa290919063ffffffff16565b8110156110a9576000915050610d7e565b6110d0600d546110c4600c5484611fc790919063ffffffff16565b9063ffffffff611fc716565b91505090565b6110e5604051610b3e906130b4565b6111015760405162461bcd60e51b8152600401610b6a9061347e565b60135460405163aa67c91960e01b81526001600160a01b039091169063aa67c919908390611133903090600401613158565b6000604051808303818588803b15801561114c57600080fd5b505af1158015611160573d6000803e3d6000fd5b505050505050565b6060611179604051610b3e9061312f565b6111955760405162461bcd60e51b8152600401610b6a90613955565b816001600160a01b03166369e7af436040518163ffffffff1660e01b8152600401600060405180830381600087803b1580156111d057600080fd5b505af11580156111e4573d6000803e3d6000fd5b505050506040513d6000823e601f3d908101601f19168201604052610b909190810190612d08565b600061121d604051610b3e9061308b565b6112395760405162461bcd60e51b8152600401610b6a90613695565b61124989898989898989896121ae565b9998505050505050505050565b6000610b9082611264611f1e565b6123d2565b611271611f1e565b6000546001600160a01b0390811691161461129e5760405162461bcd60e51b8152600401610b6a90613866565b600e80546001600160a01b039485166001600160a01b031991821617909155600f80549385169382169390931790925560108054919093169116179055565b604051610dd5906130dd565b60606112f6610a0b611f1e565b905090565b604051610dd590613106565b6010546001600160a01b031681565b600b5481565b6011546001600160a01b031681565b611333611f1e565b6000546001600160a01b039081169116146113605760405162461bcd60e51b8152600401610b6a90613866565b600080546040516001600160a01b03909116907f8be0079c531659141344cd1fd0a4f28419497f9722a3daafe3b4186f6b6457e0908390a3600080546001600160a01b0319169055565b60006113bb604051610b3e90613039565b6113d75760405162461bcd60e51b8152600401610b6a906136f2565b6113e86113e2611f1e565b8a6125c5565b6114045760405162461bcd60e51b8152600401610b6a90613601565b6000899050806001600160a01b0316636587b61e6040518163ffffffff1660e01b815260040160206040518083038186803b15801561144257600080fd5b505afa158015611456573d6000803e3d6000fd5b505050506040513d601f19601f8201168201806040525081019061147a9190612f6d565b6003146114995760405162461bcd60e51b8152600401610b6a90613a0f565b6115206114a4611f1e565b6001600160a01b0316637a6c8b536040518163ffffffff1660e01b815260040160206040518083038186803b1580156114dc57600080fd5b505afa1580156114f0573d6000803e3d6000fd5b505050506040513d601f19601f820116820180604052508101906115149190612b7c565b8a8a8a8a8a8a8a6121ae565b9a9950505050505050505050565b61153d604051610b3e906130b4565b6115595760405162461bcd60e51b8152600401610b6a9061347e565b601254601154611576916001600160a01b03908116911683612649565b6011546040517fa0712d680000000000000000000000000000000000000000000000000000000081526001600160a01b039091169063a0712d6890610f1c908490600401613227565b604051610dd59061308b565b6000610b90604051610b8290613062565b6115eb604051610b3e90613062565b6116075760405162461bcd60e51b8152600401610b6a906137ac565b6040517faa4f38c70000000000000000000000000000000000000000000000000000000081526001600160a01b0383169063aa4f38c79061164c9084906004016132c5565b600060405180830381600087803b15801561114c57600080fd5b61166e611f1e565b6000546001600160a01b0390811691161461169b5760405162461bcd60e51b8152600401610b6a90613866565b60038190556040517f9f8929be552430dd6434c446d106c34954b2040ca8c4dbf42a39323dd6cda3ca906116d0908390613227565b60405180910390a150565b604051610dd590613062565b6000546001600160a01b031690565b60008061170583611264610cfe565b60135460055460405163aa67c91960e01b81529293506001600160a01b039091169163aa67c919919061173c908590600401613158565b6000604051808303818588803b15801561175557600080fd5b505af1158015611769573d6000803e3d6000fd5b50939695505050505050565b6000828152600160205260408120610cd3908363ffffffff61273716565b6000828152600160205260408120610cd3908363ffffffff61274316565b604051610dd590613010565b600081565b6012546117e1906001600160a01b03166117da611f1e565b3084612758565b61181781600960006117f1611f1e565b6001600160a01b031681526020810191909152604001600020549063ffffffff611fa216565b60096000611823611f1e565b6001600160a01b0316815260208101919091526040016000205561184681612841565b50565b60606118578261a8c0610f6e565b905061187d8160018151811061186957fe5b6020026020010151600960006117f1611f1e565b60096000611889611f1e565b6001600160a01b03166001600160a01b0316815260200190815260200160002081905550610dc5816001815181106118bd57fe5b6020026020010151612841565b60607f8ff2f762000000000000000000000000000000000000000000000000000000006119376118fd6020880188613c06565b8080601f0160208091040260200160405190810160405280939291908181526020018383808284376000920182905250925061286a915050565b7fffffffff0000000000000000000000000000000000000000000000000000000016146119765760405162461bcd60e51b8152600401610b6a906139b2565b6119836020860186612b60565b60006040516020016119969291906131a9565b6040516020818303038152906040529050949350505050565b6012546001600160a01b031681565b604051610dd59061312f565b6119d9604051610b3e90613106565b6119f55760405162461bcd60e51b8152600401610b6a906138f8565b806119fe610fe1565b1015611a1c5760405162461bcd60e51b8152600401610b6a9061356d565b816001600160a01b0316632d24947b6040518163ffffffff1660e01b8152600401600060405180830381600087803b15801561114c57600080fd5b604051610dd5906130b4565b6000818152600160205260408120610b9090612894565b6060611a8b604051610b3e906130b4565b611aa75760405162461bcd60e51b8152600401610b6a9061347e565b600e546001600160a01b0316611acf5760405162461bcd60e51b8152600401610b6a90613ac9565b600f54600e54610cd3916001600160a01b0390811691168585612078565b611afc604051610b3e906130b4565b611b185760405162461bcd60e51b8152600401610b6a9061347e565b611b27604051610b82906130dd565b611b435760405162461bcd60e51b8152600401610b6a90613a6c565b80600d541015611b655760405162461bcd60e51b8152600401610b6a9061389b565b601254611b7c906001600160a01b0316838361289f565b600d54611b8f908263ffffffff611fc716565b600d555050565b6002546001600160a01b031690565b60096020526000908152604090205481565b6060611bc1611f1e565b6001600160a01b0316826001600160a01b03161480611bea5750611bea604051610b3e90613106565b611c065760405162461bcd60e51b8152600401610b6a9061374f565b6001600160a01b03821660009081526008602090815260409182902080548351818402810184019094528084529091830182828015611c6e57602002820191906000526020600020905b81546001600160a01b03168152600190910190602001808311611c50575b50505050509050919050565b600082815260016020526040902060020154611c989061086d611f1e565b610e9e5760405162461bcd60e51b8152600401610b6a90613809565b60068181548110611cc157fe5b6000918252602090912001546001600160a01b0316905081565b60045462ffffff1681565b611cee611f1e565b6000546001600160a01b03908116911614611d1b5760405162461bcd60e51b8152600401610b6a90613866565b6004805462ffffff191662ffffff83811691909117918290556040517f1add5f7de244142e10bca375bb84823e3c24ddac2c2ec678f35c007d8f02084d926116d0921690613bba565b611d6c611f1e565b6000546001600160a01b03908116911614611d995760405162461bcd60e51b8152600401610b6a90613866565b600555565b611da6611f1e565b6000546001600160a01b03908116911614611dd35760405162461bcd60e51b8152600401610b6a90613866565b6001600160a01b038116611df95760405162461bcd60e51b8152600401610b6a90613421565b600080546040516001600160a01b03808516939216917f8be0079c531659141344cd1fd0a4f28419497f9722a3daafe3b4186f6b6457e091a3600080546001600160a01b0319166001600160a01b0392909216919091179055565b600a5481565b611e69604051610b3e90613062565b611e855760405162461bcd60e51b8152600401610b6a906137ac565b600b54611e98908263ffffffff611fa216565b600b55600c54610e60908263ffffffff611fa216565b611ebd604051610b3e90613062565b611ed95760405162461bcd60e51b8152600401610b6a906137ac565b6040517f686513500000000000000000000000000000000000000000000000000000000081526001600160a01b0383169063686513509061164c9084906004016132c5565b3390565b01601401516001600160a01b031690565b6000828152600160205260409020611f51908263ffffffff61298616565b15610dc557611f5e611f1e565b6001600160a01b0316816001600160a01b0316837f2f8788117e7eff1d82e926ec794901d17c78024a50270940304540a733656f0d60405160405180910390a45050565b600082820183811015610cd35760405162461bcd60e51b8152600401610b6a906135ca565b6000610cd383836040518060400160405280601e81526020017f536166654d6174683a207375627472616374696f6e206f766572666c6f77000081525061299b565b6000828152600160205260409020612027908263ffffffff6129c716565b15610dc557612034611f1e565b6001600160a01b0316816001600160a01b0316837ff6391f5c32d9c69d2a47ea670b442974b53935d1edc7fd64eb21e047a839171b60405160405180910390a45050565b6010546060906120939086906001600160a01b031685612649565b604080516002808252606080830184529260208301908036833701905050905085816000815181106120c157fe5b60200260200101906001600160a01b031690816001600160a01b03168152505084816001815181106120ef57fe5b6001600160a01b0392831660209182029290920101526010546040517f38ed17390000000000000000000000000000000000000000000000000000000081529116906338ed17399061214e908790600090869030908a90600401613bca565b600060405180830381600087803b15801561216857600080fd5b505af115801561217c573d6000803e3d6000fd5b505050506040513d6000823e601f3d908101601f191682016040526121a49190810190612da9565b9695505050505050565b600080601460009054906101000a90046001600160a01b03166001600160a01b031663f9a84f968a8a8a8a8a8a308b601260009054906101000a90046001600160a01b0316601160009054906101000a90046001600160a01b0316601660009054906101000a90046001600160a01b03166040518c63ffffffff1660e01b81526004016122459b9a99989796959493929190613247565b602060405180830381600087803b15801561225f57600080fd5b505af1158015612273573d6000803e3d6000fd5b505050506040513d601f19601f820116820180604052508101906122979190612b7c565b6040517f18b9533b0000000000000000000000000000000000000000000000000000000081529091506001600160a01b038216906318b9533b906122df908d90600401613158565b600060405180830381600087803b1580156122f957600080fd5b505af115801561230d573d6000803e3d6000fd5b5050600680546001810182556000919091527ff652222313e28459528d920b65115c16c04f3efc82aaedc97be59f3f377c0d3f0180546001600160a01b0319166001600160a01b0385161790555050604051819061237c9061236e90613010565b604051809103902082610d81565b61238b60405161236e90613062565b7f0e2441b756c0237af490768eeb52214bde66464d79756f8ac3c03b10c9528b3c8a826040516123bc929190613230565b60405180910390a19a9950505050505050505050565b6000600860006123e0610cfe565b6001600160a01b03168152602081019190915260400160002054156124175760405162461bcd60e51b8152600401610b6a90613510565b6001600160a01b038083166000908152600860209081526040808320805460018101825590845291832090910180546001600160a01b031916905560155490517f8ebf1d2700000000000000000000000000000000000000000000000000000000815291921690638ebf1d27906124949087903090600401613230565b602060405180830381600087803b1580156124ae57600080fd5b505af11580156124c2573d6000803e3d6000fd5b505050506040513d601f19601f820116820180604052508101906124e69190612b7c565b6040517f18a9e9480000000000000000000000000000000000000000000000000000000081529091506001600160a01b038216906318a9e9489061252e908690600401613158565b600060405180830381600087803b15801561254857600080fd5b505af115801561255c573d6000803e3d6000fd5b5050600780546001810182556000919091527fa66cc928b5edb82af9bd49922954155ab7b0942694bea4ce44661d9a8736c6880180546001600160a01b0319166001600160a01b038516179055505060405181906125bd9061236e90613039565b949350505050565b6000805b6001600160a01b03841660009081526008602052604090205481101561263f576001600160a01b0384811660009081526008602052604090208054918516918390811061261257fe5b6000918252602090912001546001600160a01b03161415612637576001915050610b90565b6001016125c9565b5060009392505050565b60006060846001600160a01b031663095ea7b3858560405160240161266f92919061316c565b6040516020818303038152906040529060e01b6020820180516001600160e01b0383818316178352505050506040516126a89190612ff4565b6000604051808303816000865af19150503d80600081146126e5576040519150601f19603f3d011682016040523d82523d6000602084013e6126ea565b606091505b50915091508180156127145750805115806127145750808060200190518101906127149190612e30565b6127305760405162461bcd60e51b8152600401610b6a9061365e565b5050505050565b6000610cd383836129dc565b6000610cd3836001600160a01b038416612a21565b60006060856001600160a01b03166323b872dd86868660405160240161278093929190613185565b6040516020818303038152906040529060e01b6020820180516001600160e01b0383818316178352505050506040516127b99190612ff4565b6000604051808303816000865af19150503d80600081146127f6576040519150601f19603f3d011682016040523d82523d6000602084013e6127fb565b606091505b50915091508180156128255750805115806128255750808060200190518101906128259190612e30565b6111605760405162461bcd60e51b8152600401610b6a90613b00565b600a54612854908263ffffffff611fa216565b600a55600c54610e60908263ffffffff611fa216565b01602001517fffffffff000000000000000000000000000000000000000000000000000000001690565b6000610b9082612a39565b60006060846001600160a01b031663a9059cbb85856040516024016128c592919061316c565b6040516020818303038152906040529060e01b6020820180516001600160e01b0383818316178352505050506040516128fe9190612ff4565b6000604051808303816000865af19150503d806000811461293b576040519150601f19603f3d011682016040523d82523d6000602084013e612940565b606091505b509150915081801561296a57508051158061296a57508080602001905181019061296a9190612e30565b6127305760405162461bcd60e51b8152600401610b6a90613330565b6000610cd3836001600160a01b038416612a3d565b600081848411156129bf5760405162461bcd60e51b8152600401610b6a91906132b2565b505050900390565b6000610cd3836001600160a01b038416612a87565b815460009082106129ff5760405162461bcd60e51b8152600401610b6a906132d3565b826000018281548110612a0e57fe5b9060005260206000200154905092915050565b60009081526001919091016020526040902054151590565b5490565b6000612a498383612a21565b612a7f57508154600181810184556000848152602080822090930184905584548482528286019093526040902091909155610b90565b506000610b90565b60008181526001830160205260408120548015612b435783546000198083019190810190600090879083908110612aba57fe5b9060005260206000200154905080876000018481548110612ad757fe5b600091825260208083209091019290925582815260018981019092526040902090840190558654879080612b0757fe5b60019003818190600052602060002001600090559055866001016000878152602001908152602001600020600090556001945050505050610b90565b6000915050610b90565b803562ffffff81168114610b9057600080fd5b600060208284031215612b71578081fd5b8135610cd381613ccb565b600060208284031215612b8d578081fd5b8151610cd381613ccb565b60008060408385031215612baa578081fd5b8235612bb581613ccb565b91506020830135612bc581613ccb565b809150509250929050565b600080600060608486031215612be4578081fd5b8335612bef81613ccb565b92506020840135612bff81613ccb565b91506040840135612c0f81613ccb565b809150509250925092565b600080600080600080600080610100898b031215612c36578384fd5b8835612c4181613ccb565b975060208901359650612c578a60408b01612b4d565b9550612c668a60608b01612b4d565b945060808901358060030b8114612c7b578485fd5b935060a0890135925060c0890135915060e0890135612c9981613ccb565b809150509295985092959890939650565b60008060408385031215612cbc578182fd5b8235612cc781613ccb565b91506020830135600381900b8114612bc5578182fd5b60008060408385031215612cef578182fd5b8235612cfa81613ccb565b946020939093013593505050565b60006020808385031215612d1a578182fd5b825167ffffffffffffffff811115612d30578283fd5b80840185601f820112612d41578384fd5b80519150612d56612d5183613c7b565b613c54565b8281528381019082850185850284018601891015612d72578687fd5b8693505b84841015612d9d578051612d8981613ccb565b835260019390930192918501918501612d76565b50979650505050505050565b60006020808385031215612dbb578182fd5b825167ffffffffffffffff811115612dd1578283fd5b80840185601f820112612de2578384fd5b80519150612df2612d5183613c7b565b8281528381019082850185850284018601891015612e0e578687fd5b8693505b84841015612d9d578051835260019390930192918501918501612e12565b600060208284031215612e41578081fd5b81518015158114610cd3578182fd5b600060208284031215612e61578081fd5b5035919050565b60008060408385031215612e7a578182fd5b823591506020830135612bc581613ccb565b60008060408385031215612e9e578182fd5b50508035926020909101359150565b60008060008060608587031215612ec2578182fd5b843567ffffffffffffffff80821115612ed9578384fd5b818701610140818a031215612eec578485fd5b95506020870135915080821115612f01578384fd5b81870188601f820112612f12578485fd5b8035925081831115612f22578485fd5b886020848301011115612f33578485fd5b959860209096019750909560400135949350505050565b600060208284031215612f5b578081fd5b813562ffffff81168114610cd3578182fd5b600060208284031215612f7e578081fd5b5051919050565b6000815180845260208085019450808401835b83811015612fbd5781516001600160a01b031687529582019590820190600101612f98565b509495945050505050565b60008151808452612fe0816020860160208601613c9b565b601f01601f19169290920160200192915050565b60008251613006818460208701613c9b565b9190910192915050565b7f524541445f53545544454e545f4c4953545f524f4c4500000000000000000000815260160190565b7f53545544454e545f4944454e544954595f524f4c450000000000000000000000815260150190565b7f434c415353524f4f4d5f50524f464553534f525f524f4c450000000000000000815260180190565b7f434c4153534c4953545f41444d494e5f524f4c45000000000000000000000000815260140190565b7f46554e44535f4d414e414745525f524f4c450000000000000000000000000000815260120190565b7f524547495354455245445f535550504c4945525f524f4c450000000000000000815260180190565b7f4752414e54535f4d414e414745525f524f4c4500000000000000000000000000815260130190565b7f554e49564552534954595f4f564552534545525f524f4c450000000000000000815260180190565b6001600160a01b0391909116815260200190565b6001600160a01b03929092168252602082015260400190565b6001600160a01b039384168152919092166020820152604081019190915260600190565b6001600160a01b0392909216825260ff16602082015260400190565b600060208252610cd36020830184612f85565b6020808252825182820181905260009190848201906040850190845b81811015613210578351835292840192918401916001016131f4565b50909695505050505050565b901515815260200190565b90815260200190565b9182526001600160a01b0316602082015260400190565b9a8b5262ffffff998a1660208c01529790981660408a015260039590950b6060890152608088019390935260a08701919091526001600160a01b0390811660c087015290811660e0860152908116610100850152918216610120840152166101408201526101600190565b600060208252610cd36020830184612fc8565b60039190910b815260200190565b60208082526022908201527f456e756d657261626c655365743a20696e646578206f7574206f6620626f756e60408201527f6473000000000000000000000000000000000000000000000000000000000000606082015260800190565b6020808252601f908201527f5472616e7366657248656c7065723a205452414e534645525f4641494c454400604082015260600190565b6020808252602f908201527f416363657373436f6e74726f6c3a2073656e646572206d75737420626520616e60408201527f2061646d696e20746f206772616e740000000000000000000000000000000000606082015260800190565b60208082526036908201527f556e69766572736974793a2063616c6c657220646f65736e277420686176652060408201527f524541445f53545544454e545f4c4953545f524f4c4500000000000000000000606082015260800190565b60208082526026908201527f4f776e61626c653a206e6577206f776e657220697320746865207a65726f206160408201527f6464726573730000000000000000000000000000000000000000000000000000606082015260800190565b60208082526032908201527f556e69766572736974793a2063616c6c657220646f65736e277420686176652060408201527f46554e44535f4d414e414745525f524f4c450000000000000000000000000000606082015260800190565b6020808252818101527f556e69766572736974793a206e6f7420656e6f75676820656e646f776d656e74604082015260600190565b60208082526026908201527f556e69766572736974793a2073747564656e7420616c7265616479207265676960408201527f7374657265640000000000000000000000000000000000000000000000000000606082015260800190565b60208082526026908201527f556e69766572736974793a206e6f7420656e6f75676820617661696c61626c6560408201527f2066756e64730000000000000000000000000000000000000000000000000000606082015260800190565b6020808252601b908201527f536166654d6174683a206164646974696f6e206f766572666c6f770000000000604082015260600190565b60208082526035908201527f556e69766572736974793a2063616c6c6572206973206e6f742073747564656e60408201527f74206f662074686973206170706c69636174696f6e0000000000000000000000606082015260800190565b6020808252601e908201527f5472616e7366657248656c7065723a20415050524f56455f4641494c45440000604082015260600190565b60208082526034908201527f556e69766572736974793a2063616c6c657220646f65736e277420686176652060408201527f434c4153534c4953545f41444d494e5f524f4c45000000000000000000000000606082015260800190565b60208082526035908201527f556e69766572736974793a2063616c6c657220646f65736e277420686176652060408201527f53545544454e545f4944454e544954595f524f4c450000000000000000000000606082015260800190565b60208082526021908201527f436c617373726f6f6d3a2072656164207065726d697373696f6e2064656e696560408201527f6400000000000000000000000000000000000000000000000000000000000000606082015260800190565b60208082526038908201527f556e69766572736974793a2063616c6c657220646f65736e277420686176652060408201527f434c415353524f4f4d5f50524f464553534f525f524f4c450000000000000000606082015260800190565b60208082526030908201527f416363657373436f6e74726f6c3a2073656e646572206d75737420626520616e60408201527f2061646d696e20746f207265766f6b6500000000000000000000000000000000606082015260800190565b6020808252818101527f4f776e61626c653a2063616c6c6572206973206e6f7420746865206f776e6572604082015260600190565b60208082526029908201527f556e69766572736974793a206e6f7420656e6f756768206f7065726174696f6e60408201527f616c206275646765740000000000000000000000000000000000000000000000606082015260800190565b60208082526033908201527f556e69766572736974793a2063616c6c657220646f65736e277420686176652060408201527f4752414e54535f4d414e414745525f524f4c4500000000000000000000000000606082015260800190565b60208082526038908201527f556e69766572736974793a2063616c6c657220646f65736e277420686176652060408201527f554e49564552534954595f4f564552534545525f524f4c450000000000000000606082015260800190565b6020808252602d908201527f556e69766572736974793a2047534e206e6f7420656e61626c656420666f722060408201527f746869732066756e6374696f6e00000000000000000000000000000000000000606082015260800190565b60208082526029908201527f556e69766572736974793a206170706c69636174696f6e206973206e6f74207360408201527f75636365737366756c0000000000000000000000000000000000000000000000606082015260800190565b6020808252603a908201527f556e69766572736974793a20726563656976657220646f65736e27742068617660408201527f6520524547495354455245445f535550504c4945525f524f4c45000000000000606082015260800190565b6020808252601f908201527f556e69766572736974793a20736574757020756e697377617020666972737400604082015260600190565b60208082526024908201527f5472616e7366657248656c7065723a205452414e534645525f46524f4d5f464160408201527f494c454400000000000000000000000000000000000000000000000000000000606082015260800190565b6020808252602f908201527f416363657373436f6e74726f6c3a2063616e206f6e6c792072656e6f756e636560408201527f20726f6c657320666f722073656c660000000000000000000000000000000000606082015260800190565b62ffffff91909116815260200190565b600086825285602083015260a06040830152613be960a0830186612f85565b6001600160a01b0394909416606083015250608001529392505050565b6000808335601e19843603018112613c1c578283fd5b8084018035925067ffffffffffffffff831115613c37578384fd5b60200192505036819003821315613c4d57600080fd5b9250929050565b60405181810167ffffffffffffffff81118282101715613c7357600080fd5b604052919050565b600067ffffffffffffffff821115613c91578081fd5b5060209081020190565b60005b83811015613cb6578181015183820152602001613c9e565b83811115613cc5576000848401525b50505050565b6001600160a01b038116811461184657600080fdfea2646970667358221220ed5548fc0e4f38bf4e9d7ed8f451eedcce408355f9be890afef36b81b1ade10764736f6c63430006060033",
  "immutableReferences": {},
  "source": "pragma solidity 0.6.6;\r\npragma experimental ABIEncoderV2;\r\n\r\nimport \"@openzeppelin/contracts/math/SafeMath.sol\";\r\nimport \"@openzeppelin/contracts/access/AccessControl.sol\";\r\nimport \"@openzeppelin/contracts/access/Ownable.sol\";\r\nimport \"@openzeppelin/contracts/token/ERC20/IERC20.sol\";\r\nimport \"@openzeppelin/contracts/utils/Address.sol\";\r\nimport \"@uniswap/v2-periphery/contracts/interfaces/IUniswapV2Router01.sol\";\r\nimport \"@uniswap/lib/contracts/libraries/TransferHelper.sol\";\r\nimport \"./gambi/BaseRelayRecipient.sol\";\r\nimport \"./gambi/GSNTypes.sol\";\r\nimport \"./gambi/IRelayHub.sol\";\r\nimport \"./interface/IClassroom.sol\";\r\nimport \"./interface/IStudent.sol\";\r\nimport \"./interface/IStudentApplication.sol\";\r\nimport \"./interface/IClassroomFactory.sol\";\r\nimport \"./interface/IStudentFactory.sol\";\r\nimport \"./interface/IStudentApplicationFactory.sol\";\r\nimport \"./interface/IUniversity.sol\";\r\nimport \"./interface/IGrantsManager.sol\";\r\nimport \"./MyUtils.sol\";\r\n\r\n//TODO: Natspec Document ENVERYTHING\r\n//TODO: Sort function order from all contracts\r\n\r\ncontract University is Ownable, AccessControl, BaseRelayRecipient, IUniversity {\r\n    using SafeMath for uint256;\r\n\r\n    //CLASSLIST_ADMIN_ROLE can add new manually created classes to the list\r\n    bytes32 public constant CLASSLIST_ADMIN_ROLE = keccak256(\r\n        \"CLASSLIST_ADMIN_ROLE\"\r\n    );\r\n    // FUNDS_MANAGER_ROLE can withdraw funds from the contract\r\n    bytes32 public constant FUNDS_MANAGER_ROLE = keccak256(\r\n        \"FUNDS_MANAGER_ROLE\"\r\n    );\r\n    // GRANTS_MANAGER_ROLE can approve/decline grant claims\r\n    bytes32 public constant GRANTS_MANAGER_ROLE = keccak256(\r\n        \"GRANTS_MANAGER_ROLE\"\r\n    );\r\n    // READ_STUDENT_LIST_ROLE allow reading students list\r\n    bytes32 public constant READ_STUDENT_LIST_ROLE = keccak256(\r\n        \"READ_STUDENT_LIST_ROLE\"\r\n    );\r\n    /// STUDENT_IDENTITY_ROLE allow asking for grants and requesting a classroom from a successful application\r\n    bytes32 public constant STUDENT_IDENTITY_ROLE = keccak256(\r\n        \"STUDENT_IDENTITY_ROLE\"\r\n    );\r\n    /// CLASSROOM_PROFESSOR_ROLE can manage itself inside the University and registering student applications\r\n    bytes32 public constant CLASSROOM_PROFESSOR_ROLE = keccak256(\r\n        \"CLASSROOM_PROFESSOR_ROLE\"\r\n    );\r\n    /// UNIVERSITY_OVERSEER_ROLE can inspect Grant Managers and Fund Managers, and present cases for funders to vote upon\r\n    bytes32 public constant UNIVERSITY_OVERSEER_ROLE = keccak256(\r\n        \"UNIVERSITY_OVERSEER_ROLE\"\r\n    );/// REGISTERED_SUPPLIER_ROLE can receive transactions to consume the operational budget\r\n    bytes32 public constant REGISTERED_SUPPLIER_ROLE = keccak256(\r\n        \"REGISTERED_SUPPLIER_ROLE\"\r\n    );\r\n\r\n    // Parameter: Name of this University\r\n    bytes32 public override name;\r\n    // Parameter: University cut from professor (Parts per Million)\r\n    uint24 public override cut;\r\n    // Parameter: GSN funds to give students\r\n    uint256 _studentGSNDeposit;\r\n    // List of every registered classroom\r\n    address[] public _classList;\r\n    // List of every student\r\n    address[] _students;\r\n    // Mapping of each student's applications\r\n    mapping(address => address[]) _studentApplicationsMapping;\r\n    // Mapping of every donor and donations\r\n    mapping(address => uint256) public donators;\r\n    // Total amount of donations received so far\r\n    uint256 public donationsReceived;\r\n    // Total amount of operational revenue received so far\r\n    uint256 public revenueReceived;\r\n    // Total amount of endowment locked in the fund\r\n    uint256 public endowmentLocked;\r\n    // Total amount of funds allowed for expenses\r\n    uint256 public operationalBudget;\r\n\r\n    //TODO: resolve students and classrooms addresses using ENS\r\n\r\n    //Uniswap Config\r\n    address _uniswapWETH;\r\n    address _uniswapDAI;\r\n    IUniswapV2Router01 public _uniswapRouter;\r\n\r\n    CERC20 public cDAI;\r\n    IERC20 public daiToken;\r\n    IRelayHub public relayHub;\r\n    IClassroomFactory _classroomFactory;\r\n    IStudentFactory _studentFactory;\r\n    address _studentApplicationFactoryAddress;\r\n\r\n    constructor(\r\n        bytes32 _name,\r\n        uint24 _cut,\r\n        uint256 studentGSNDeposit,\r\n        address daiAddress,\r\n        address compoundDAIAddress,\r\n        address relayHubAddress,\r\n        address classroomFactoryAddress,\r\n        address studentFactoryAddress,\r\n        address studentApplicationFactoryAddress\r\n    ) public {\r\n        name = _name;\r\n        cut = _cut;\r\n        _studentGSNDeposit = studentGSNDeposit;\r\n        _setupRole(DEFAULT_ADMIN_ROLE, _msgSender());\r\n        grantRole(READ_STUDENT_LIST_ROLE, _msgSender());\r\n        daiToken = IERC20(daiAddress);\r\n        cDAI = CERC20(compoundDAIAddress);\r\n        relayHub = IRelayHub(relayHubAddress);\r\n        _classroomFactory = IClassroomFactory(classroomFactoryAddress);\r\n        _studentFactory = IStudentFactory(studentFactoryAddress);\r\n        _studentApplicationFactoryAddress = studentApplicationFactoryAddress;\r\n    }\r\n\r\n    receive() external payable {\r\n        emit LogReceived(msg.sender, msg.value);\r\n    }\r\n\r\n    event LogNewClassroom(bytes32, address);\r\n    event LogChangeName(bytes32);\r\n    event LogChangeCut(uint24);\r\n    event LogReceived(address, uint256);\r\n\r\n    function configureUniswap(\r\n        address uniswapWETH,\r\n        address uniswapDAI,\r\n        address uniswapRouter\r\n    ) public onlyOwner {\r\n        _uniswapWETH = uniswapWETH;\r\n        _uniswapDAI = uniswapDAI;\r\n        _uniswapRouter = IUniswapV2Router01(uniswapRouter);\r\n    }\r\n\r\n    function changeName(bytes32 val) public onlyOwner {\r\n        name = val;\r\n        emit LogChangeName(name);\r\n    }\r\n\r\n    function changeCut(uint24 val) public onlyOwner {\r\n        cut = val;\r\n        emit LogChangeCut(cut);\r\n    }\r\n\r\n    function changeStudentGSNDeposit(uint256 val) public onlyOwner {\r\n        _studentGSNDeposit = val;\r\n    }\r\n\r\n    function availableFunds() public view override returns (uint256) {\r\n        uint256 funds = daiToken.balanceOf(address(this));\r\n        if (funds < endowmentLocked.add(operationalBudget)) return 0;\r\n        return funds.sub(endowmentLocked).sub(operationalBudget);\r\n    }\r\n\r\n    function isValidClassroom(address classroom) public view override returns (bool) {\r\n        return hasRole(CLASSROOM_PROFESSOR_ROLE, classroom);\r\n    }\r\n\r\n    function studentIsRegistered(address student) public view override returns (bool) {\r\n        require(\r\n            hasRole(READ_STUDENT_LIST_ROLE, _msgSender()),\r\n            \"University: caller doesn't have READ_STUDENT_LIST_ROLE\"\r\n        );\r\n        return hasRole(STUDENT_IDENTITY_ROLE, student);\r\n    }\r\n\r\n    function viewMyApplications() public view override returns (address[] memory) {\r\n        return viewStudentApplications(_msgSender());\r\n    }\r\n\r\n    function viewStudentApplications(address addr)\r\n        public\r\n        view\r\n        override\r\n        returns (address[] memory)\r\n    {\r\n        require(\r\n            addr == _msgSender() || hasRole(GRANTS_MANAGER_ROLE, _msgSender()),\r\n            \"Classroom: read permission denied\"\r\n        );\r\n        return _studentApplicationsMapping[addr];\r\n    }\r\n\r\n    function studentSelfRegisterGSN(bytes32 sName) public returns (address) {\r\n        address student = _newStudent(sName, _msgSenderGSN());\r\n        relayHub.depositFor.value(_studentGSNDeposit)(student);\r\n        return student;\r\n    }\r\n\r\n    function studentSelfRegister(bytes32 sName) public returns (address) {\r\n        return _newStudent(sName, _msgSender());\r\n    }\r\n\r\n    function _newStudent(bytes32 sName, address caller)\r\n        internal\r\n        returns (address)\r\n    {\r\n        require(\r\n            _studentApplicationsMapping[_msgSenderGSN()].length == 0,\r\n            \"University: student already registered\"\r\n        );\r\n        //Gambiarra: Push address(0) in the mapping to mark that student as registered in the university\r\n        _studentApplicationsMapping[caller].push(address(0));\r\n        address student = _studentFactory.newStudent(sName, address(this));\r\n        IStudent(student).transferOwnershipStudent(caller);\r\n        address studentAddr = address(student);\r\n        _students.push(studentAddr);\r\n        grantRole(STUDENT_IDENTITY_ROLE, studentAddr);\r\n        return address(studentAddr);\r\n    }\r\n\r\n    //ex: owner, name, 0.2 * 10**6, 0.5 * 10**6, 0, 50 * (10 ** 18), 30 days, challengeAddress\r\n    function newClassRoom(\r\n        address owner,\r\n        bytes32 cName,\r\n        uint24 cCut,\r\n        uint24 cPCut,\r\n        int32 minScore,\r\n        uint256 entryPrice,\r\n        uint256 duration,\r\n        address challengeAddress\r\n    ) public returns (address) {\r\n        require(\r\n            hasRole(CLASSLIST_ADMIN_ROLE, _msgSender()),\r\n            \"University: caller doesn't have CLASSLIST_ADMIN_ROLE\"\r\n        );\r\n        return\r\n            _newClassRoom(\r\n                owner,\r\n                cName,\r\n                cCut,\r\n                cPCut,\r\n                minScore,\r\n                entryPrice,\r\n                duration,\r\n                challengeAddress\r\n            );\r\n    }\r\n\r\n    function _newClassRoom(\r\n        address owner,\r\n        bytes32 cName,\r\n        uint24 cCut,\r\n        uint24 cPCut,\r\n        int32 minScore,\r\n        uint256 entryPrice,\r\n        uint256 duration,\r\n        address challengeAddress\r\n    ) internal returns (address) {\r\n        address classroom = _classroomFactory.newClassroom(\r\n            cName,\r\n            cCut,\r\n            cPCut,\r\n            minScore,\r\n            entryPrice,\r\n            duration,\r\n            payable (address(this)),\r\n            challengeAddress,\r\n            address(daiToken),\r\n            address(cDAI),\r\n            _studentApplicationFactoryAddress\r\n        );\r\n        IClassroom(classroom).transferOwnershipClassroom(owner);\r\n        address classroomAddr = address(classroom);\r\n        _classList.push(classroomAddr);\r\n        grantRole(READ_STUDENT_LIST_ROLE, classroomAddr);\r\n        grantRole(CLASSROOM_PROFESSOR_ROLE, classroomAddr);\r\n        emit LogNewClassroom(cName, classroomAddr);\r\n        return classroomAddr;\r\n    }\r\n\r\n    function studentRequestClassroom(\r\n        address applicationAddr,\r\n        bytes32 cName,\r\n        uint24 cCut,\r\n        uint24 cPCut,\r\n        int32 minScore,\r\n        uint256 entryPrice,\r\n        uint256 duration,\r\n        address challenge\r\n    ) public override returns (address) {\r\n        require(\r\n            hasRole(STUDENT_IDENTITY_ROLE, _msgSender()),\r\n            \"University: caller doesn't have STUDENT_IDENTITY_ROLE\"\r\n        );\r\n        require(\r\n            checkForStudentApplication(_msgSender(), applicationAddr),\r\n            \"University: caller is not student of this application\"\r\n        );\r\n        IStudentApplication application = IStudentApplication(applicationAddr);\r\n        require(\r\n            application.applicationState() == 3,\r\n            \"University: application is not successful\"\r\n        );\r\n        return\r\n            _newClassRoom(\r\n                IStudent(_msgSender()).ownerStudent(),\r\n                cName,\r\n                cCut,\r\n                cPCut,\r\n                minScore,\r\n                entryPrice,\r\n                duration,\r\n                challenge\r\n            );\r\n    }\r\n\r\n    function registerStudentApplication(\r\n        address student,\r\n        address application\r\n    ) public override\r\n    {\r\n        require(\r\n            hasRole(CLASSROOM_PROFESSOR_ROLE, _msgSender()),\r\n            \"University: caller doesn't have CLASSROOM_PROFESSOR_ROLE\"\r\n        );\r\n        _studentApplicationsMapping[student].push(application);\r\n    }\r\n\r\n    function checkForStudentApplication(\r\n        address studentAddress,\r\n        address applicationAddress\r\n    ) internal view returns (bool) {\r\n        for (\r\n            uint256 i = 0;\r\n            i < _studentApplicationsMapping[studentAddress].length;\r\n            i++\r\n        ) {\r\n            if (\r\n                _studentApplicationsMapping[studentAddress][i] ==\r\n                applicationAddress\r\n            ) return true;\r\n        }\r\n        return false;\r\n    }\r\n\r\n    function addStudentScore(address student, int32 val) public override {\r\n        require(\r\n            hasRole(CLASSROOM_PROFESSOR_ROLE, _msgSender()),\r\n            \"University: caller doesn't have CLASSROOM_PROFESSOR_ROLE\"\r\n        );\r\n        IStudent(student).addScore(val);\r\n    }\r\n\r\n    function subStudentScore(address student, int32 val) public override {\r\n        require(\r\n            hasRole(CLASSROOM_PROFESSOR_ROLE, _msgSender()),\r\n            \"University: caller doesn't have CLASSROOM_PROFESSOR_ROLE\"\r\n        );\r\n        IStudent(student).subScore(val);\r\n    }\r\n\r\n    function applyFundsCompound(uint256 val) public {\r\n        require(\r\n            hasRole(FUNDS_MANAGER_ROLE, _msgSender()),\r\n            \"University: caller doesn't have FUNDS_MANAGER_ROLE\"\r\n        );\r\n        TransferHelper.safeApprove(address(daiToken), address(cDAI), val);\r\n        cDAI.mint(val);\r\n    }\r\n\r\n    function recoverFundsCompound(uint256 val) public {\r\n        require(\r\n            hasRole(FUNDS_MANAGER_ROLE, _msgSender()),\r\n            \"University: caller doesn't have FUNDS_MANAGER_ROLE\"\r\n        );\r\n        cDAI.redeemUnderlying(val);\r\n    }\r\n\r\n    function increaseOperationalBudget(uint256 val) public onlyOwner {\r\n        require(\r\n            endowmentLocked >= val,\r\n            \"University: not enough endowment\"\r\n        );\r\n        operationalBudget = operationalBudget.add(val);\r\n        endowmentLocked = endowmentLocked.sub(val);\r\n    }\r\n\r\n    function spendBudget(address to, uint256 val) public {\r\n        require(\r\n            hasRole(FUNDS_MANAGER_ROLE, _msgSender()),\r\n            \"University: caller doesn't have FUNDS_MANAGER_ROLE\"\r\n        );\r\n        require(\r\n            hasRole(REGISTERED_SUPPLIER_ROLE, to),\r\n            \"University: receiver doesn't have REGISTERED_SUPPLIER_ROLE\"\r\n        );\r\n        require(\r\n            operationalBudget >= val,\r\n            \"University: not enough operational budget\"\r\n        );\r\n        TransferHelper.safeTransfer(address(daiToken), to, val);\r\n        operationalBudget = operationalBudget.sub(val);\r\n    }\r\n\r\n    function giveGrant(address studentApplication, uint256 price) public override {\r\n        require(\r\n            hasRole(GRANTS_MANAGER_ROLE, _msgSender()),\r\n            \"University: caller doesn't have GRANTS_MANAGER_ROLE\"\r\n        );\r\n        require(\r\n            availableFunds() >= price,\r\n            \"University: not enough available funds\"\r\n        );\r\n        IStudentApplication(studentApplication).payEntryPrice();\r\n    }\r\n\r\n    function viewAllStudentsFromGrantManager(\r\n            address grantsManager\r\n        ) public returns (address[] memory) {\r\n        require(\r\n            hasRole(UNIVERSITY_OVERSEER_ROLE, _msgSender()),\r\n            \"University: caller doesn't have UNIVERSITY_OVERSEER_ROLE\"\r\n        );\r\n        return IGrantsManager(grantsManager).viewAllStudents();\r\n    }\r\n\r\n    function viewAllStudentGrantsFromGrantManager(\r\n            address student, \r\n            address grantsManager\r\n        ) public returns (uint256[] memory) {\r\n        require(\r\n            hasRole(UNIVERSITY_OVERSEER_ROLE, _msgSender()),\r\n            \"University: caller doesn't have UNIVERSITY_OVERSEER_ROLE\"\r\n        );\r\n        return IGrantsManager(grantsManager).viewAllGrantsForStudent(student);\r\n    }\r\n\r\n    function acceptRelayedCall(\r\n        GSNTypes.RelayRequest calldata relayRequest,\r\n        bytes calldata,\r\n        uint256\r\n    ) external pure returns (bytes memory context) {\r\n        require(\r\n            MyUtils.readBytes4(relayRequest.encodedFunction, 0) ==\r\n                this.studentSelfRegisterGSN.selector,\r\n            \"University: GSN not enabled for this function\"\r\n        );\r\n        return abi.encode(relayRequest.target, 0);\r\n    }\r\n\r\n    function refillUniversityRelayer(uint256 val) public {\r\n        require(\r\n            hasRole(FUNDS_MANAGER_ROLE, _msgSender()),\r\n            \"University: caller doesn't have FUNDS_MANAGER_ROLE\"\r\n        );\r\n        relayHub.depositFor.value(val)(address(this));\r\n    }\r\n\r\n    function swapDAI_ETH(\r\n        uint256 amount,\r\n        uint256 deadline\r\n    ) public override returns (uint[] memory amounts) {\r\n        require(\r\n            hasRole(FUNDS_MANAGER_ROLE, _msgSender()),\r\n            \"University: caller doesn't have FUNDS_MANAGER_ROLE\"\r\n        );\r\n        require(\r\n            _uniswapWETH != address(0),\r\n            \"University: setup uniswap first\"\r\n        );\r\n        amounts = swapBlind(_uniswapDAI, _uniswapWETH, amount, deadline);\r\n    }\r\n\r\n    function swapETH_DAI(\r\n        uint256 amount,\r\n        uint256 deadline\r\n    ) public override returns (uint[] memory amounts) {\r\n        require(\r\n            hasRole(FUNDS_MANAGER_ROLE, _msgSender()),\r\n            \"University: caller doesn't have FUNDS_MANAGER_ROLE\"\r\n        );\r\n        require(\r\n            _uniswapWETH != address(0),\r\n            \"University: setup uniswap first\"\r\n        );\r\n        amounts = swapBlind(_uniswapWETH, _uniswapDAI, amount, deadline);\r\n    }\r\n\r\n    function swapBlind(\r\n        address tokenA,\r\n        address tokenB,\r\n        uint256 amount,\r\n        uint256 deadline\r\n    ) internal returns (uint[] memory amounts) {\r\n        TransferHelper.safeApprove(tokenA, address(_uniswapRouter), amount);\r\n        address[] memory path = new address[](2);\r\n        path[0] = tokenA;\r\n        path[1] = tokenB;\r\n        amounts = _uniswapRouter.swapExactTokensForTokens(\r\n            amount,\r\n            0,\r\n            path,\r\n            address(this),\r\n            deadline\r\n        );\r\n    }\r\n\r\n    // This function is vulnerable to sandwich attacks. Since the very nature of this function is for a donor to donate money, it is not needed to prevent the donor from manipulating its own donation\r\n    function donateETH(uint256 donation) public payable override {\r\n        uint256[] memory amounts = swapETH_DAI(donation, 12 hours);\r\n        donators[_msgSender()] = donators[_msgSender()].add(amounts[1]);\r\n        accountDonation(amounts[1]);\r\n    }\r\n\r\n    function donateDAI(uint256 donation) public override {\r\n        TransferHelper.safeTransferFrom(\r\n            address(daiToken),\r\n            _msgSender(),\r\n            address(this),\r\n            donation\r\n        );\r\n        donators[_msgSender()] = donators[_msgSender()].add(donation);\r\n        accountDonation(donation);\r\n    }\r\n\r\n    function accountDonation(uint256 donation) internal {\r\n        donationsReceived = donationsReceived.add(donation);\r\n        endowmentLocked = endowmentLocked.add(donation);\r\n    }\r\n\r\n    function accountRevenue(uint256 revenue) public override {\r\n        require(\r\n            hasRole(CLASSROOM_PROFESSOR_ROLE, _msgSender()),\r\n            \"University: caller doesn't have CLASSROOM_PROFESSOR_ROLE\"\r\n        );\r\n        revenueReceived = revenueReceived.add(revenue);\r\n        endowmentLocked = endowmentLocked.add(revenue);\r\n    }\r\n\r\n\r\n    //TODO: implement funds manager\r\n}\r\n",
  "sourcePath": "/mnt/e/Repositories/Uproot/contracts/University.sol",
  "compiler": {
    "name": "solc",
    "version": "0.6.6+commit.6c089d02.Emscripten.clang"
  },
  "schemaVersion": "3.1.0",
  "updatedAt": "2020-05-06T13:47:14.780Z",
  "devdoc": {
    "methods": {
      "getRoleAdmin(bytes32)": {
        "details": "Returns the admin role that controls `role`. See {grantRole} and {revokeRole}.     * To change a role's admin, use {_setRoleAdmin}."
      },
      "getRoleMember(bytes32,uint256)": {
        "details": "Returns one of the accounts that have `role`. `index` must be a value between 0 and {getRoleMemberCount}, non-inclusive.     * Role bearers are not sorted in any particular way, and their ordering may change at any point.     * WARNING: When using {getRoleMember} and {getRoleMemberCount}, make sure you perform all queries on the same block. See the following https://forum.openzeppelin.com/t/iterating-over-elements-on-enumerableset-in-openzeppelin-contracts/2296[forum post] for more information."
      },
      "getRoleMemberCount(bytes32)": {
        "details": "Returns the number of accounts that have `role`. Can be used together with {getRoleMember} to enumerate all bearers of a role."
      },
      "grantRole(bytes32,address)": {
        "details": "Grants `role` to `account`.     * If `account` had not been already granted `role`, emits a {RoleGranted} event.     * Requirements:     * - the caller must have ``role``'s admin role."
      },
      "hasRole(bytes32,address)": {
        "details": "Returns `true` if `account` has been granted `role`."
      },
      "owner()": {
        "details": "Returns the address of the current owner."
      },
      "renounceOwnership()": {
        "details": "Leaves the contract without owner. It will not be possible to call `onlyOwner` functions anymore. Can only be called by the current owner.     * NOTE: Renouncing ownership will leave the contract without an owner, thereby removing any functionality that is only available to the owner."
      },
      "renounceRole(bytes32,address)": {
        "details": "Revokes `role` from the calling account.     * Roles are often managed via {grantRole} and {revokeRole}: this function's purpose is to provide a mechanism for accounts to lose their privileges if they are compromised (such as when a trusted device is misplaced).     * If the calling account had been granted `role`, emits a {RoleRevoked} event.     * Requirements:     * - the caller must be `account`."
      },
      "revokeRole(bytes32,address)": {
        "details": "Revokes `role` from `account`.     * If `account` had been granted `role`, emits a {RoleRevoked} event.     * Requirements:     * - the caller must have ``role``'s admin role."
      },
      "transferOwnership(address)": {
        "details": "Transfers ownership of the contract to a new account (`newOwner`). Can only be called by the current owner."
      }
    }
  },
  "userdoc": {
    "methods": {
      "_msgSenderGSN()": {
        "notice": "return the sender of this call. if the call came through our trusted forwarder, return the original sender. otherwise, return `msg.sender`. should be used in the contract anywhere instead of msg.sender"
      }
    }
  }
}