{
  "contractName": "University",
  "abi": [
    {
      "inputs": [
        {
          "internalType": "bytes32",
          "name": "_name",
          "type": "bytes32"
        },
        {
          "internalType": "uint24",
          "name": "_cut",
          "type": "uint24"
        },
        {
          "internalType": "uint256",
          "name": "studentGSNDeposit",
          "type": "uint256"
        },
        {
          "internalType": "address",
          "name": "daiAddress",
          "type": "address"
        },
        {
          "internalType": "address",
          "name": "compoundAddress",
          "type": "address"
        },
        {
          "internalType": "address",
          "name": "relayHubAddress",
          "type": "address"
        },
        {
          "internalType": "address",
          "name": "classroomFactoryAddress",
          "type": "address"
        },
        {
          "internalType": "address",
          "name": "studentFactoryAddress",
          "type": "address"
        },
        {
          "internalType": "address",
          "name": "studentApplicationFactoryAddress",
          "type": "address"
        }
      ],
      "stateMutability": "nonpayable",
      "type": "constructor"
    },
    {
      "anonymous": false,
      "inputs": [
        {
          "indexed": false,
          "internalType": "uint24",
          "name": "",
          "type": "uint24"
        }
      ],
      "name": "LogChangeCut",
      "type": "event"
    },
    {
      "anonymous": false,
      "inputs": [
        {
          "indexed": false,
          "internalType": "bytes32",
          "name": "",
          "type": "bytes32"
        }
      ],
      "name": "LogChangeName",
      "type": "event"
    },
    {
      "anonymous": false,
      "inputs": [
        {
          "indexed": false,
          "internalType": "bytes32",
          "name": "",
          "type": "bytes32"
        },
        {
          "indexed": false,
          "internalType": "address",
          "name": "",
          "type": "address"
        }
      ],
      "name": "LogNewClassroom",
      "type": "event"
    },
    {
      "anonymous": false,
      "inputs": [
        {
          "indexed": false,
          "internalType": "address",
          "name": "",
          "type": "address"
        },
        {
          "indexed": false,
          "internalType": "uint256",
          "name": "",
          "type": "uint256"
        }
      ],
      "name": "LogReceived",
      "type": "event"
    },
    {
      "anonymous": false,
      "inputs": [
        {
          "indexed": true,
          "internalType": "address",
          "name": "previousOwner",
          "type": "address"
        },
        {
          "indexed": true,
          "internalType": "address",
          "name": "newOwner",
          "type": "address"
        }
      ],
      "name": "OwnershipTransferred",
      "type": "event"
    },
    {
      "anonymous": false,
      "inputs": [
        {
          "indexed": true,
          "internalType": "bytes32",
          "name": "role",
          "type": "bytes32"
        },
        {
          "indexed": true,
          "internalType": "address",
          "name": "account",
          "type": "address"
        },
        {
          "indexed": true,
          "internalType": "address",
          "name": "sender",
          "type": "address"
        }
      ],
      "name": "RoleGranted",
      "type": "event"
    },
    {
      "anonymous": false,
      "inputs": [
        {
          "indexed": true,
          "internalType": "bytes32",
          "name": "role",
          "type": "bytes32"
        },
        {
          "indexed": true,
          "internalType": "address",
          "name": "account",
          "type": "address"
        },
        {
          "indexed": true,
          "internalType": "address",
          "name": "sender",
          "type": "address"
        }
      ],
      "name": "RoleRevoked",
      "type": "event"
    },
    {
      "inputs": [],
      "name": "CLASSLIST_ADMIN_ROLE",
      "outputs": [
        {
          "internalType": "bytes32",
          "name": "",
          "type": "bytes32"
        }
      ],
      "stateMutability": "view",
      "type": "function"
    },
    {
      "inputs": [],
      "name": "CLASSROOM_PROFESSOR_ROLE",
      "outputs": [
        {
          "internalType": "bytes32",
          "name": "",
          "type": "bytes32"
        }
      ],
      "stateMutability": "view",
      "type": "function"
    },
    {
      "inputs": [],
      "name": "DEFAULT_ADMIN_ROLE",
      "outputs": [
        {
          "internalType": "bytes32",
          "name": "",
          "type": "bytes32"
        }
      ],
      "stateMutability": "view",
      "type": "function"
    },
    {
      "inputs": [],
      "name": "FUNDS_MANAGER_ROLE",
      "outputs": [
        {
          "internalType": "bytes32",
          "name": "",
          "type": "bytes32"
        }
      ],
      "stateMutability": "view",
      "type": "function"
    },
    {
      "inputs": [],
      "name": "GRANTS_MANAGER_ROLE",
      "outputs": [
        {
          "internalType": "bytes32",
          "name": "",
          "type": "bytes32"
        }
      ],
      "stateMutability": "view",
      "type": "function"
    },
    {
      "inputs": [],
      "name": "READ_STUDENT_LIST_ROLE",
      "outputs": [
        {
          "internalType": "bytes32",
          "name": "",
          "type": "bytes32"
        }
      ],
      "stateMutability": "view",
      "type": "function"
    },
    {
      "inputs": [],
      "name": "STUDENT_IDENTITY_ROLE",
      "outputs": [
        {
          "internalType": "bytes32",
          "name": "",
          "type": "bytes32"
        }
      ],
      "stateMutability": "view",
      "type": "function"
    },
    {
      "inputs": [
        {
          "internalType": "uint256",
          "name": "",
          "type": "uint256"
        }
      ],
      "name": "_classList",
      "outputs": [
        {
          "internalType": "address",
          "name": "",
          "type": "address"
        }
      ],
      "stateMutability": "view",
      "type": "function"
    },
    {
      "inputs": [],
      "name": "_msgSenderGSN",
      "outputs": [
        {
          "internalType": "address",
          "name": "",
          "type": "address"
        }
      ],
      "stateMutability": "view",
      "type": "function"
    },
    {
      "inputs": [],
      "name": "cToken",
      "outputs": [
        {
          "internalType": "contract CERC20",
          "name": "",
          "type": "address"
        }
      ],
      "stateMutability": "view",
      "type": "function"
    },
    {
      "inputs": [],
      "name": "cut",
      "outputs": [
        {
          "internalType": "uint24",
          "name": "",
          "type": "uint24"
        }
      ],
      "stateMutability": "view",
      "type": "function"
    },
    {
      "inputs": [],
      "name": "daiToken",
      "outputs": [
        {
          "internalType": "contract IERC20",
          "name": "",
          "type": "address"
        }
      ],
      "stateMutability": "view",
      "type": "function"
    },
    {
      "inputs": [
        {
          "internalType": "bytes32",
          "name": "role",
          "type": "bytes32"
        }
      ],
      "name": "getRoleAdmin",
      "outputs": [
        {
          "internalType": "bytes32",
          "name": "",
          "type": "bytes32"
        }
      ],
      "stateMutability": "view",
      "type": "function"
    },
    {
      "inputs": [
        {
          "internalType": "bytes32",
          "name": "role",
          "type": "bytes32"
        },
        {
          "internalType": "uint256",
          "name": "index",
          "type": "uint256"
        }
      ],
      "name": "getRoleMember",
      "outputs": [
        {
          "internalType": "address",
          "name": "",
          "type": "address"
        }
      ],
      "stateMutability": "view",
      "type": "function"
    },
    {
      "inputs": [
        {
          "internalType": "bytes32",
          "name": "role",
          "type": "bytes32"
        }
      ],
      "name": "getRoleMemberCount",
      "outputs": [
        {
          "internalType": "uint256",
          "name": "",
          "type": "uint256"
        }
      ],
      "stateMutability": "view",
      "type": "function"
    },
    {
      "inputs": [],
      "name": "getTrustedForwarder",
      "outputs": [
        {
          "internalType": "address",
          "name": "",
          "type": "address"
        }
      ],
      "stateMutability": "view",
      "type": "function"
    },
    {
      "inputs": [
        {
          "internalType": "bytes32",
          "name": "role",
          "type": "bytes32"
        },
        {
          "internalType": "address",
          "name": "account",
          "type": "address"
        }
      ],
      "name": "grantRole",
      "outputs": [],
      "stateMutability": "nonpayable",
      "type": "function"
    },
    {
      "inputs": [
        {
          "internalType": "bytes32",
          "name": "role",
          "type": "bytes32"
        },
        {
          "internalType": "address",
          "name": "account",
          "type": "address"
        }
      ],
      "name": "hasRole",
      "outputs": [
        {
          "internalType": "bool",
          "name": "",
          "type": "bool"
        }
      ],
      "stateMutability": "view",
      "type": "function"
    },
    {
      "inputs": [],
      "name": "name",
      "outputs": [
        {
          "internalType": "bytes32",
          "name": "",
          "type": "bytes32"
        }
      ],
      "stateMutability": "view",
      "type": "function"
    },
    {
      "inputs": [],
      "name": "owner",
      "outputs": [
        {
          "internalType": "address",
          "name": "",
          "type": "address"
        }
      ],
      "stateMutability": "view",
      "type": "function"
    },
    {
      "inputs": [],
      "name": "relayHub",
      "outputs": [
        {
          "internalType": "contract IRelayHub",
          "name": "",
          "type": "address"
        }
      ],
      "stateMutability": "view",
      "type": "function"
    },
    {
      "inputs": [],
      "name": "renounceOwnership",
      "outputs": [],
      "stateMutability": "nonpayable",
      "type": "function"
    },
    {
      "inputs": [
        {
          "internalType": "bytes32",
          "name": "role",
          "type": "bytes32"
        },
        {
          "internalType": "address",
          "name": "account",
          "type": "address"
        }
      ],
      "name": "renounceRole",
      "outputs": [],
      "stateMutability": "nonpayable",
      "type": "function"
    },
    {
      "inputs": [
        {
          "internalType": "bytes32",
          "name": "role",
          "type": "bytes32"
        },
        {
          "internalType": "address",
          "name": "account",
          "type": "address"
        }
      ],
      "name": "revokeRole",
      "outputs": [],
      "stateMutability": "nonpayable",
      "type": "function"
    },
    {
      "inputs": [
        {
          "internalType": "address",
          "name": "newOwner",
          "type": "address"
        }
      ],
      "name": "transferOwnership",
      "outputs": [],
      "stateMutability": "nonpayable",
      "type": "function"
    },
    {
      "stateMutability": "payable",
      "type": "receive"
    },
    {
      "inputs": [
        {
          "internalType": "bytes32",
          "name": "val",
          "type": "bytes32"
        }
      ],
      "name": "changeName",
      "outputs": [],
      "stateMutability": "nonpayable",
      "type": "function"
    },
    {
      "inputs": [
        {
          "internalType": "uint24",
          "name": "val",
          "type": "uint24"
        }
      ],
      "name": "changeCut",
      "outputs": [],
      "stateMutability": "nonpayable",
      "type": "function"
    },
    {
      "inputs": [
        {
          "internalType": "uint256",
          "name": "val",
          "type": "uint256"
        }
      ],
      "name": "changeStudentGSNDeposit",
      "outputs": [],
      "stateMutability": "nonpayable",
      "type": "function"
    },
    {
      "inputs": [
        {
          "internalType": "address",
          "name": "classroom",
          "type": "address"
        }
      ],
      "name": "isValidClassroom",
      "outputs": [
        {
          "internalType": "bool",
          "name": "",
          "type": "bool"
        }
      ],
      "stateMutability": "view",
      "type": "function"
    },
    {
      "inputs": [
        {
          "internalType": "address",
          "name": "student",
          "type": "address"
        }
      ],
      "name": "studentIsRegistered",
      "outputs": [
        {
          "internalType": "bool",
          "name": "",
          "type": "bool"
        }
      ],
      "stateMutability": "view",
      "type": "function"
    },
    {
      "inputs": [],
      "name": "viewMyApplications",
      "outputs": [
        {
          "internalType": "address[]",
          "name": "",
          "type": "address[]"
        }
      ],
      "stateMutability": "view",
      "type": "function"
    },
    {
      "inputs": [
        {
          "internalType": "address",
          "name": "addr",
          "type": "address"
        }
      ],
      "name": "viewStudentApplications",
      "outputs": [
        {
          "internalType": "address[]",
          "name": "",
          "type": "address[]"
        }
      ],
      "stateMutability": "view",
      "type": "function"
    },
    {
      "inputs": [
        {
          "internalType": "bytes32",
          "name": "sName",
          "type": "bytes32"
        }
      ],
      "name": "studentSelfRegisterGSN",
      "outputs": [
        {
          "internalType": "address",
          "name": "",
          "type": "address"
        }
      ],
      "stateMutability": "nonpayable",
      "type": "function"
    },
    {
      "inputs": [
        {
          "internalType": "bytes32",
          "name": "sName",
          "type": "bytes32"
        }
      ],
      "name": "studentSelfRegister",
      "outputs": [
        {
          "internalType": "address",
          "name": "",
          "type": "address"
        }
      ],
      "stateMutability": "nonpayable",
      "type": "function"
    },
    {
      "inputs": [
        {
          "internalType": "address",
          "name": "owner",
          "type": "address"
        },
        {
          "internalType": "bytes32",
          "name": "cName",
          "type": "bytes32"
        },
        {
          "internalType": "uint24",
          "name": "cCut",
          "type": "uint24"
        },
        {
          "internalType": "uint24",
          "name": "cPCut",
          "type": "uint24"
        },
        {
          "internalType": "int32",
          "name": "minScore",
          "type": "int32"
        },
        {
          "internalType": "uint256",
          "name": "entryPrice",
          "type": "uint256"
        },
        {
          "internalType": "uint256",
          "name": "duration",
          "type": "uint256"
        },
        {
          "internalType": "address",
          "name": "challengeAddress",
          "type": "address"
        }
      ],
      "name": "newClassRoom",
      "outputs": [
        {
          "internalType": "address",
          "name": "",
          "type": "address"
        }
      ],
      "stateMutability": "nonpayable",
      "type": "function"
    },
    {
      "inputs": [
        {
          "internalType": "address",
          "name": "applicationAddr",
          "type": "address"
        },
        {
          "internalType": "bytes32",
          "name": "cName",
          "type": "bytes32"
        },
        {
          "internalType": "uint24",
          "name": "cCut",
          "type": "uint24"
        },
        {
          "internalType": "uint24",
          "name": "cPCut",
          "type": "uint24"
        },
        {
          "internalType": "int32",
          "name": "minScore",
          "type": "int32"
        },
        {
          "internalType": "uint256",
          "name": "entryPrice",
          "type": "uint256"
        },
        {
          "internalType": "uint256",
          "name": "duration",
          "type": "uint256"
        },
        {
          "internalType": "address",
          "name": "challenge",
          "type": "address"
        }
      ],
      "name": "studentRequestClassroom",
      "outputs": [
        {
          "internalType": "address",
          "name": "",
          "type": "address"
        }
      ],
      "stateMutability": "nonpayable",
      "type": "function"
    },
    {
      "inputs": [
        {
          "internalType": "address",
          "name": "student",
          "type": "address"
        },
        {
          "internalType": "address",
          "name": "application",
          "type": "address"
        }
      ],
      "name": "registerStudentApplication",
      "outputs": [],
      "stateMutability": "nonpayable",
      "type": "function"
    },
    {
      "inputs": [
        {
          "internalType": "address",
          "name": "student",
          "type": "address"
        },
        {
          "internalType": "int32",
          "name": "val",
          "type": "int32"
        }
      ],
      "name": "addStudentScore",
      "outputs": [],
      "stateMutability": "nonpayable",
      "type": "function"
    },
    {
      "inputs": [
        {
          "internalType": "address",
          "name": "student",
          "type": "address"
        },
        {
          "internalType": "int32",
          "name": "val",
          "type": "int32"
        }
      ],
      "name": "subStudentScore",
      "outputs": [],
      "stateMutability": "nonpayable",
      "type": "function"
    },
    {
      "inputs": [
        {
          "internalType": "uint256",
          "name": "val",
          "type": "uint256"
        }
      ],
      "name": "applyFunds",
      "outputs": [],
      "stateMutability": "nonpayable",
      "type": "function"
    },
    {
      "inputs": [
        {
          "internalType": "uint256",
          "name": "val",
          "type": "uint256"
        }
      ],
      "name": "recoverFunds",
      "outputs": [],
      "stateMutability": "nonpayable",
      "type": "function"
    },
    {
      "inputs": [
        {
          "internalType": "address",
          "name": "to",
          "type": "address"
        },
        {
          "internalType": "uint256",
          "name": "val",
          "type": "uint256"
        }
      ],
      "name": "spendFunds",
      "outputs": [],
      "stateMutability": "nonpayable",
      "type": "function"
    },
    {
      "inputs": [
        {
          "internalType": "address",
          "name": "to",
          "type": "address"
        },
        {
          "internalType": "uint256",
          "name": "val",
          "type": "uint256"
        }
      ],
      "name": "allowFunds",
      "outputs": [],
      "stateMutability": "nonpayable",
      "type": "function"
    },
    {
      "inputs": [
        {
          "internalType": "address",
          "name": "studentApplication",
          "type": "address"
        }
      ],
      "name": "giveGrant",
      "outputs": [],
      "stateMutability": "nonpayable",
      "type": "function"
    },
    {
      "inputs": [
        {
          "components": [
            {
              "internalType": "address",
              "name": "target",
              "type": "address"
            },
            {
              "internalType": "bytes",
              "name": "encodedFunction",
              "type": "bytes"
            },
            {
              "components": [
                {
                  "internalType": "uint256",
                  "name": "gasLimit",
                  "type": "uint256"
                },
                {
                  "internalType": "uint256",
                  "name": "gasPrice",
                  "type": "uint256"
                },
                {
                  "internalType": "uint256",
                  "name": "pctRelayFee",
                  "type": "uint256"
                },
                {
                  "internalType": "uint256",
                  "name": "baseRelayFee",
                  "type": "uint256"
                }
              ],
              "internalType": "struct GSNTypes.GasData",
              "name": "gasData",
              "type": "tuple"
            },
            {
              "components": [
                {
                  "internalType": "address",
                  "name": "senderAddress",
                  "type": "address"
                },
                {
                  "internalType": "uint256",
                  "name": "senderNonce",
                  "type": "uint256"
                },
                {
                  "internalType": "address",
                  "name": "relayWorker",
                  "type": "address"
                },
                {
                  "internalType": "address",
                  "name": "paymaster",
                  "type": "address"
                }
              ],
              "internalType": "struct GSNTypes.RelayData",
              "name": "relayData",
              "type": "tuple"
            }
          ],
          "internalType": "struct GSNTypes.RelayRequest",
          "name": "relayRequest",
          "type": "tuple"
        },
        {
          "internalType": "bytes",
          "name": "",
          "type": "bytes"
        },
        {
          "internalType": "uint256",
          "name": "",
          "type": "uint256"
        }
      ],
      "name": "acceptRelayedCall",
      "outputs": [
        {
          "internalType": "bytes",
          "name": "context",
          "type": "bytes"
        }
      ],
      "stateMutability": "pure",
      "type": "function"
    },
    {
      "inputs": [
        {
          "internalType": "uint256",
          "name": "val",
          "type": "uint256"
        }
      ],
      "name": "refillUniversityRelayer",
      "outputs": [],
      "stateMutability": "nonpayable",
      "type": "function"
    }
  ],
  "bytecode": "0x60806040523480156200001157600080fd5b5060405162002fc238038062002fc283398101604081905262000034916200037c565b6000620000496001600160e01b036200018316565b600080546001600160a01b0319166001600160a01b0383169081178255604051929350917f8be0079c531659141344cd1fd0a4f28419497f9722a3daafe3b4186f6b6457e0908290a35060038990556004805462ffffff191662ffffff8a161790556009879055620000cf6000620000c062000183565b6001600160e01b036200018716565b6200010c604051620000e19062000433565b604051908190039020620000fd6001600160e01b036200018316565b6001600160e01b03620001a016565b600b80546001600160a01b03199081166001600160a01b0398891617909155600a8054821696881696909617909555600c8054861694871694909417909355600d8054851692861692909217909155600e80548416918516919091179055600f8054909216921691909117905550620004ab915050565b3390565b6200019c82826001600160e01b036200020116565b5050565b600082815260016020526040902060020154620001d990620001ca6001600160e01b036200018316565b6001600160e01b036200028516565b620001875760405162461bcd60e51b8152600401620001f8906200045c565b60405180910390fd5b60008281526001602090815260409091206200022891839062001d72620002b4821b17901c565b156200019c57620002416001600160e01b036200018316565b6001600160a01b0316816001600160a01b0316837f2f8788117e7eff1d82e926ec794901d17c78024a50270940304540a733656f0d60405160405180910390a45050565b60008281526001602090815260408220620002ab91849062001d28620002d4821b17901c565b90505b92915050565b6000620002ab836001600160a01b0384166001600160e01b03620002f416565b6000620002ab836001600160a01b0384166001600160e01b036200034c16565b60006200030b83836001600160e01b036200034c16565b6200034357508154600181810184556000848152602080822090930184905584548482528286019093526040902091909155620002ae565b506000620002ae565b60009081526001919091016020526040902054151590565b80516001600160a01b0381168114620002ae57600080fd5b60008060008060008060008060006101208a8c0312156200039b578485fd5b8951985060208a015162ffffff81168114620003b5578586fd5b60408b01519098509650620003ce8b60608c0162000364565b9550620003df8b60808c0162000364565b9450620003f08b60a08c0162000364565b9350620004018b60c08c0162000364565b9250620004128b60e08c0162000364565b9150620004248b6101008c0162000364565b90509295985092959850929598565b7f524541445f53545544454e545f4c4953545f524f4c4500000000000000000000815260160190565b6020808252602f908201527f416363657373436f6e74726f6c3a2073656e646572206d75737420626520616e60408201526e0818591b5a5b881d1bc819dc985b9d608a1b606082015260800190565b612b0780620004bb6000396000f3fe6080604052600436106103015760003560e01c8063898855ed1161018f578063c419f432116100e1578063e37dd9801161008a578063ef5450ba11610064578063ef5450ba14610844578063f2fde38b14610864578063ff5d8f631461088457610341565b8063e37dd980146107e2578063e6fd604c14610802578063e770d7d41461082457610341565b8063ce1b815f116100bb578063ce1b815f1461078d578063d3c5704e146107a2578063d547741f146107c257610341565b8063c419f43214610738578063c4707a8314610758578063ca15c8731461076d57610341565b806391d1485411610143578063b1ed031f1161011d578063b1ed031f146106d6578063be22f54614610703578063c204a0e01461071857610341565b806391d148541461068c5780639fd6cb7a146106ac578063a217fddf146106c157610341565b80638da5cb5b116101745780638da5cb5b146106375780638ff2f7621461064c5780639010d07c1461066c57610341565b8063898855ed146106025780638a9f5b7f1461062257610341565b80634ea962c111610253578063715018a6116101fc578063820cd75c116101d6578063820cd75c146105ad57806385dade61146105c257806387bfe188146105e257610341565b8063715018a6146105585780637784e6b21461056d5780637fd5c1081461058d57610341565b80636408a3861161022d5780636408a3861461050c57806364d477311461052e57806369e527da1461054357610341565b80634ea962c1146104ac5780635070ad95146104cc5780635a7dd150146104ec57610341565b8063289c5e54116102b557806336568abe1161028f57806336568abe1461044c578063478ecefb1461046c5780634ab358c71461048c57610341565b8063289c5e54146104025780632f2ff15d1461041757806332636ac91461043757610341565b8063183b2600116102e6578063183b26001461039e578063248a9ca3146103c057806328475518146103e057610341565b806306fdde031461034657806316ded1ce1461037157610341565b36610341577f60e4c1ac84c9e2c4c0aa82b86b3b1ddf0b1b73fbbeb74c8bc8f8f06041ccfdf633346040516103379291906122dd565b60405180910390a1005b600080fd5b34801561035257600080fd5b5061035b6108a4565b604051610368919061236a565b60405180910390f35b34801561037d57600080fd5b5061039161038c366004611f20565b6108aa565b604051610368919061235f565b3480156103aa57600080fd5b506103be6103b9366004611f58565b610913565b005b3480156103cc57600080fd5b5061035b6103db36600461209e565b61097c565b3480156103ec57600080fd5b506103f5610991565b60405161036891906122c9565b34801561040e57600080fd5b506103f56109a0565b34801561042357600080fd5b506103be6104323660046120b6565b610a23565b34801561044357600080fd5b5061035b610a6b565b34801561045857600080fd5b506103be6104673660046120b6565b610a82565b34801561047857600080fd5b506103be61048736600461209e565b610ac4565b34801561049857600080fd5b506103be6104a736600461209e565b610b56565b3480156104b857600080fd5b506103f56104c7366004611f90565b610c1c565b3480156104d857600080fd5b506103be6104e7366004612053565b610c66565b3480156104f857600080fd5b506103f561050736600461209e565b610d33565b34801561051857600080fd5b50610521610d46565b6040516103689190612312565b34801561053a57600080fd5b5061035b610d58565b34801561054f57600080fd5b506103f5610d64565b34801561056457600080fd5b506103be610d73565b34801561057957600080fd5b506103be610588366004611f20565b610df2565b34801561059957600080fd5b506103f56105a8366004611f90565b610e73565b3480156105b957600080fd5b5061035b610ff7565b3480156105ce57600080fd5b506103916105dd366004611f20565b611003565b3480156105ee57600080fd5b506103be6105fd366004612020565b611014565b34801561060e57600080fd5b506103be61061d36600461209e565b61109e565b34801561062e57600080fd5b5061035b611113565b34801561064357600080fd5b506103f561111f565b34801561065857600080fd5b506103f561066736600461209e565b61112e565b34801561067857600080fd5b506103f56106873660046120da565b6111ad565b34801561069857600080fd5b506103916106a73660046120b6565b6111d2565b3480156106b857600080fd5b5061035b6111f0565b3480156106cd57600080fd5b5061035b6111fc565b3480156106e257600080fd5b506106f66106f13660046120fb565b611201565b60405161036891906123f5565b34801561070f57600080fd5b506103f56112e6565b34801561072457600080fd5b506103be61073336600461209e565b6112f5565b34801561074457600080fd5b506103be610753366004612053565b6113f2565b34801561076457600080fd5b5061035b61144f565b34801561077957600080fd5b5061035b61078836600461209e565b61145b565b34801561079957600080fd5b506103f5611472565b3480156107ae57600080fd5b506105216107bd366004611f20565b611481565b3480156107ce57600080fd5b506103be6107dd3660046120b6565b611544565b3480156107ee57600080fd5b506103f56107fd36600461209e565b61157e565b34801561080e57600080fd5b506108176115a5565b6040516103689190612a5b565b34801561083057600080fd5b506103be61083f366004612198565b6115b0565b34801561085057600080fd5b506103be61085f36600461209e565b61162e565b34801561087057600080fd5b506103be61087f366004611f20565b611668565b34801561089057600080fd5b506103be61089f366004612020565b61171e565b60035481565b60006108cb6040516108bb906121d3565b60405180910390206106a761178e565b6108f05760405162461bcd60e51b81526004016108e790612510565b60405180910390fd5b61090d6040516108ff906121fc565b6040518091039020836111d2565b92915050565b6109226040516108bb90612225565b61093e5760405162461bcd60e51b81526004016108e7906127f8565b6001600160a01b0391821660009081526007602090815260408220805460018101825590835291200180546001600160a01b03191691909216179055565b60009081526001602052604090206002015490565b600c546001600160a01b031681565b6000601836108015906109cb57506109b6611472565b6001600160a01b0316336001600160a01b0316145b15610a1d57610a166000368080601f01602080910402602001604051908101604052809392919081815260200183838082843760009201919091525050601319360191506117929050565b9050610a20565b50335b90565b600082815260016020526040902060020154610a41906106a761178e565b610a5d5760405162461bcd60e51b81526004016108e7906124b3565b610a6782826117a3565b5050565b604051610a77906121fc565b604051809103902081565b610a8a61178e565b6001600160a01b0316816001600160a01b031614610aba5760405162461bcd60e51b81526004016108e7906129fe565b610a678282611812565b610ad36040516108bb90612277565b610aef5760405162461bcd60e51b81526004016108e79061273e565b600c5460405163aa67c91960e01b81526001600160a01b039091169063aa67c919908390610b219030906004016122c9565b6000604051808303818588803b158015610b3a57600080fd5b505af1158015610b4e573d6000803e3d6000fd5b505050505050565b610b656040516108bb90612277565b610b815760405162461bcd60e51b81526004016108e7906125ca565b600a546040517f852a12e30000000000000000000000000000000000000000000000000000000081526001600160a01b039091169063852a12e390610bca90849060040161236a565b602060405180830381600087803b158015610be457600080fd5b505af1158015610bf8573d6000803e3d6000fd5b505050506040513d601f19601f82011682018060405250810190610a6791906121bb565b6000610c2d6040516108bb9061224e565b610c495760405162461bcd60e51b81526004016108e7906126e1565b610c598989898989898989611881565b9998505050505050505050565b610c756040516108bb90612277565b610c915760405162461bcd60e51b81526004016108e7906125ca565b600b546040517fa9059cbb0000000000000000000000000000000000000000000000000000000081526001600160a01b039091169063a9059cbb90610cdc90859085906004016122dd565b602060405180830381600087803b158015610cf657600080fd5b505af1158015610d0a573d6000803e3d6000fd5b505050506040513d601f19601f82011682018060405250810190610d2e919061207e565b505050565b600061090d82610d4161178e565b611aa5565b6060610d536107bd61178e565b905090565b604051610a77906122a0565b600a546001600160a01b031681565b610d7b61178e565b6000546001600160a01b03908116911614610da85760405162461bcd60e51b81526004016108e7906128b2565b600080546040516001600160a01b03909116907f8be0079c531659141344cd1fd0a4f28419497f9722a3daafe3b4186f6b6457e0908390a3600080546001600160a01b0319169055565b610e016040516108bb906122a0565b610e1d5760405162461bcd60e51b81526004016108e7906128e7565b806001600160a01b0316632d24947b6040518163ffffffff1660e01b8152600401600060405180830381600087803b158015610e5857600080fd5b505af1158015610e6c573d6000803e3d6000fd5b5050505050565b6000610e846040516108bb906121fc565b610ea05760405162461bcd60e51b81526004016108e79061273e565b610eb1610eab61178e565b8a611c98565b610ecd5760405162461bcd60e51b81526004016108e790612684565b6000899050806001600160a01b0316636587b61e6040518163ffffffff1660e01b815260040160206040518083038186803b158015610f0b57600080fd5b505afa158015610f1f573d6000803e3d6000fd5b505050506040513d601f19601f82011682018060405250810190610f4391906121bb565b600314610f625760405162461bcd60e51b81526004016108e7906129a1565b610fe9610f6d61178e565b6001600160a01b0316637a6c8b536040518163ffffffff1660e01b815260040160206040518083038186803b158015610fa557600080fd5b505afa158015610fb9573d6000803e3d6000fd5b505050506040513d601f19601f82011682018060405250810190610fdd9190611f3c565b8a8a8a8a8a8a8a611881565b9a9950505050505050505050565b604051610a779061224e565b600061090d6040516108ff90612225565b6110236040516108bb90612225565b61103f5760405162461bcd60e51b81526004016108e7906127f8565b6040517faa4f38c70000000000000000000000000000000000000000000000000000000081526001600160a01b0383169063aa4f38c790611084908490600401612448565b600060405180830381600087803b158015610b3a57600080fd5b6110a661178e565b6000546001600160a01b039081169116146110d35760405162461bcd60e51b81526004016108e7906128b2565b60038190556040517f9f8929be552430dd6434c446d106c34954b2040ca8c4dbf42a39323dd6cda3ca9061110890839061236a565b60405180910390a150565b604051610a7790612225565b6000546001600160a01b031690565b60008061113d83610d416109a0565b600c5460095460405163aa67c91960e01b81529293506001600160a01b039091169163aa67c91991906111749085906004016122c9565b6000604051808303818588803b15801561118d57600080fd5b505af11580156111a1573d6000803e3d6000fd5b50939695505050505050565b60008281526001602052604081206111cb908363ffffffff611d1c16565b9392505050565b60008281526001602052604081206111cb908363ffffffff611d2816565b604051610a77906121d3565b600081565b60607f8ff2f7620000000000000000000000000000000000000000000000000000000061126e6112346020880188612a6b565b8080601f01602080910402602001604051908101604052809392919081815260200183838082843760009201829052509250611d3d915050565b7fffffffff0000000000000000000000000000000000000000000000000000000016146112ad5760405162461bcd60e51b81526004016108e790612944565b6112ba6020860186611f20565b60006040516020016112cd9291906122f6565b6040516020818303038152906040529050949350505050565b600b546001600160a01b031681565b6113046040516108bb90612277565b6113205760405162461bcd60e51b81526004016108e7906125ca565b600b54600a5460405163095ea7b360e01b81526001600160a01b039283169263095ea7b3926113569291169085906004016122dd565b602060405180830381600087803b15801561137057600080fd5b505af1158015611384573d6000803e3d6000fd5b505050506040513d601f19601f820116820180604052508101906113a8919061207e565b50600a546040517fa0712d680000000000000000000000000000000000000000000000000000000081526001600160a01b039091169063a0712d6890610bca90849060040161236a565b6114016040516108bb90612277565b61141d5760405162461bcd60e51b81526004016108e7906125ca565b600b5460405163095ea7b360e01b81526001600160a01b039091169063095ea7b390610cdc90859085906004016122dd565b604051610a7790612277565b600081815260016020526040812061090d90611d67565b6002546001600160a01b031690565b606061148b61178e565b6001600160a01b0316826001600160a01b031614806114b457506114b46040516108bb906122a0565b6114d05760405162461bcd60e51b81526004016108e79061279b565b6001600160a01b0382166000908152600760209081526040918290208054835181840281018401909452808452909183018282801561153857602002820191906000526020600020905b81546001600160a01b0316815260019091019060200180831161151a575b50505050509050919050565b600082815260016020526040902060020154611562906106a761178e565b610aba5760405162461bcd60e51b81526004016108e790612855565b6005818154811061158b57fe5b6000918252602090912001546001600160a01b0316905081565b60045462ffffff1681565b6115b861178e565b6000546001600160a01b039081169116146115e55760405162461bcd60e51b81526004016108e7906128b2565b6004805462ffffff191662ffffff83811691909117918290556040517f1add5f7de244142e10bca375bb84823e3c24ddac2c2ec678f35c007d8f02084d92611108921690612a5b565b61163661178e565b6000546001600160a01b039081169116146116635760405162461bcd60e51b81526004016108e7906128b2565b600955565b61167061178e565b6000546001600160a01b0390811691161461169d5760405162461bcd60e51b81526004016108e7906128b2565b6001600160a01b0381166116c35760405162461bcd60e51b81526004016108e79061256d565b600080546040516001600160a01b03808516939216917f8be0079c531659141344cd1fd0a4f28419497f9722a3daafe3b4186f6b6457e091a3600080546001600160a01b0319166001600160a01b0392909216919091179055565b61172d6040516108bb90612225565b6117495760405162461bcd60e51b81526004016108e7906127f8565b6040517f686513500000000000000000000000000000000000000000000000000000000081526001600160a01b03831690636865135090611084908490600401612448565b3390565b01601401516001600160a01b031690565b60008281526001602052604090206117c1908263ffffffff611d7216565b15610a67576117ce61178e565b6001600160a01b0316816001600160a01b0316837f2f8788117e7eff1d82e926ec794901d17c78024a50270940304540a733656f0d60405160405180910390a45050565b6000828152600160205260409020611830908263ffffffff611d8716565b15610a675761183d61178e565b6001600160a01b0316816001600160a01b0316837ff6391f5c32d9c69d2a47ea670b442974b53935d1edc7fd64eb21e047a839171b60405160405180910390a45050565b600080600d60009054906101000a90046001600160a01b03166001600160a01b031663f9a84f968a8a8a8a8a8a308b600b60009054906101000a90046001600160a01b0316600a60009054906101000a90046001600160a01b0316600f60009054906101000a90046001600160a01b03166040518c63ffffffff1660e01b81526004016119189b9a9998979695949392919061238a565b602060405180830381600087803b15801561193257600080fd5b505af1158015611946573d6000803e3d6000fd5b505050506040513d601f19601f8201168201806040525081019061196a9190611f3c565b6040517f18b9533b0000000000000000000000000000000000000000000000000000000081529091506001600160a01b038216906318b9533b906119b2908d906004016122c9565b600060405180830381600087803b1580156119cc57600080fd5b505af11580156119e0573d6000803e3d6000fd5b5050600580546001810182556000919091527f036b6384b5eca791c62761152d0c79bb0604c104a5fb6f4eb0703f3154bb3db00180546001600160a01b0319166001600160a01b03851617905550506040518190611a4f90611a41906121d3565b604051809103902082610a23565b611a5e604051611a4190612225565b7f0e2441b756c0237af490768eeb52214bde66464d79756f8ac3c03b10c9528b3c8a82604051611a8f929190612373565b60405180910390a19a9950505050505050505050565b600060076000611ab36109a0565b6001600160a01b0316815260208101919091526040016000205415611aea5760405162461bcd60e51b81526004016108e790612627565b6001600160a01b038083166000908152600760209081526040808320805460018101825590845291832090910180546001600160a01b0319169055600e5490517f8ebf1d2700000000000000000000000000000000000000000000000000000000815291921690638ebf1d2790611b679087903090600401612373565b602060405180830381600087803b158015611b8157600080fd5b505af1158015611b95573d6000803e3d6000fd5b505050506040513d601f19601f82011682018060405250810190611bb99190611f3c565b6040517f18a9e9480000000000000000000000000000000000000000000000000000000081529091506001600160a01b038216906318a9e94890611c019086906004016122c9565b600060405180830381600087803b158015611c1b57600080fd5b505af1158015611c2f573d6000803e3d6000fd5b5050600680546001810182556000919091527ff652222313e28459528d920b65115c16c04f3efc82aaedc97be59f3f377c0d3f0180546001600160a01b0319166001600160a01b03851617905550506040518190611c9090611a41906121fc565b949350505050565b6000805b6001600160a01b038416600090815260076020526040902054811015611d12576001600160a01b03848116600090815260076020526040902080549185169183908110611ce557fe5b6000918252602090912001546001600160a01b03161415611d0a57600191505061090d565b600101611c9c565b5060009392505050565b60006111cb8383611d9c565b60006111cb836001600160a01b038416611de1565b01602001517fffffffff000000000000000000000000000000000000000000000000000000001690565b600061090d82611df9565b60006111cb836001600160a01b038416611dfd565b60006111cb836001600160a01b038416611e47565b81546000908210611dbf5760405162461bcd60e51b81526004016108e790612456565b826000018281548110611dce57fe5b9060005260206000200154905092915050565b60009081526001919091016020526040902054151590565b5490565b6000611e098383611de1565b611e3f5750815460018181018455600084815260208082209093018490558454848252828601909352604090209190915561090d565b50600061090d565b60008181526001830160205260408120548015611f035783546000198083019190810190600090879083908110611e7a57fe5b9060005260206000200154905080876000018481548110611e9757fe5b600091825260208083209091019290925582815260018981019092526040902090840190558654879080611ec757fe5b6001900381819060005260206000200160009055905586600101600087815260200190815260200160002060009055600194505050505061090d565b600091505061090d565b803562ffffff8116811461090d57600080fd5b600060208284031215611f31578081fd5b81356111cb81612ab9565b600060208284031215611f4d578081fd5b81516111cb81612ab9565b60008060408385031215611f6a578081fd5b8235611f7581612ab9565b91506020830135611f8581612ab9565b809150509250929050565b600080600080600080600080610100898b031215611fac578384fd5b8835611fb781612ab9565b975060208901359650611fcd8a60408b01611f0d565b9550611fdc8a60608b01611f0d565b945060808901358060030b8114611ff1578485fd5b935060a0890135925060c0890135915060e089013561200f81612ab9565b809150509295985092959890939650565b60008060408385031215612032578182fd5b823561203d81612ab9565b91506020830135600381900b8114611f85578182fd5b60008060408385031215612065578182fd5b823561207081612ab9565b946020939093013593505050565b60006020828403121561208f578081fd5b815180151581146111cb578182fd5b6000602082840312156120af578081fd5b5035919050565b600080604083850312156120c8578182fd5b823591506020830135611f8581612ab9565b600080604083850312156120ec578182fd5b50508035926020909101359150565b60008060008060608587031215612110578384fd5b843567ffffffffffffffff80821115612127578586fd5b818701610140818a03121561213a578687fd5b9550602087013591508082111561214f578485fd5b81870188601f820112612160578586fd5b8035925081831115612170578586fd5b886020848301011115612181578586fd5b959860209096019750909560400135949350505050565b6000602082840312156121a9578081fd5b813562ffffff811681146111cb578182fd5b6000602082840312156121cc578081fd5b5051919050565b7f524541445f53545544454e545f4c4953545f524f4c4500000000000000000000815260160190565b7f53545544454e545f4944454e544954595f524f4c450000000000000000000000815260150190565b7f434c415353524f4f4d5f50524f464553534f525f524f4c450000000000000000815260180190565b7f434c4153534c4953545f41444d494e5f524f4c45000000000000000000000000815260140190565b7f46554e44535f4d414e414745525f524f4c450000000000000000000000000000815260120190565b7f4752414e54535f4d414e414745525f524f4c4500000000000000000000000000815260130190565b6001600160a01b0391909116815260200190565b6001600160a01b03929092168252602082015260400190565b6001600160a01b0392909216825260ff16602082015260400190565b6020808252825182820181905260009190848201906040850190845b818110156123535783516001600160a01b03168352928401929184019160010161232e565b50909695505050505050565b901515815260200190565b90815260200190565b9182526001600160a01b0316602082015260400190565b9a8b5262ffffff998a1660208c01529790981660408a015260039590950b6060890152608088019390935260a08701919091526001600160a01b0390811660c087015290811660e0860152908116610100850152918216610120840152166101408201526101600190565b6000602080835283518082850152825b8181101561242157858101830151858201604001528201612405565b818111156124325783604083870101525b50601f01601f1916929092016040019392505050565b60039190910b815260200190565b60208082526022908201527f456e756d657261626c655365743a20696e646578206f7574206f6620626f756e60408201527f6473000000000000000000000000000000000000000000000000000000000000606082015260800190565b6020808252602f908201527f416363657373436f6e74726f6c3a2073656e646572206d75737420626520616e60408201527f2061646d696e20746f206772616e740000000000000000000000000000000000606082015260800190565b60208082526036908201527f556e69766572736974793a2063616c6c657220646f65736e277420686176652060408201527f524541445f53545544454e545f4c4953545f524f4c4500000000000000000000606082015260800190565b60208082526026908201527f4f776e61626c653a206e6577206f776e657220697320746865207a65726f206160408201527f6464726573730000000000000000000000000000000000000000000000000000606082015260800190565b60208082526032908201527f556e69766572736974793a2063616c6c657220646f65736e277420686176652060408201527f46554e44535f4d414e414745525f524f4c450000000000000000000000000000606082015260800190565b60208082526026908201527f556e69766572736974793a2073747564656e7420616c7265616479207265676960408201527f7374657265640000000000000000000000000000000000000000000000000000606082015260800190565b60208082526035908201527f556e69766572736974793a2063616c6c6572206973206e6f742073747564656e60408201527f74206f662074686973206170706c69636174696f6e0000000000000000000000606082015260800190565b60208082526034908201527f556e69766572736974793a2063616c6c657220646f65736e277420686176652060408201527f434c4153534c4953545f41444d494e5f524f4c45000000000000000000000000606082015260800190565b60208082526035908201527f556e69766572736974793a2063616c6c657220646f65736e277420686176652060408201527f53545544454e545f4944454e544954595f524f4c450000000000000000000000606082015260800190565b60208082526021908201527f436c617373726f6f6d3a2072656164207065726d697373696f6e2064656e696560408201527f6400000000000000000000000000000000000000000000000000000000000000606082015260800190565b60208082526038908201527f556e69766572736974793a2063616c6c657220646f65736e277420686176652060408201527f434c415353524f4f4d5f50524f464553534f525f524f4c450000000000000000606082015260800190565b60208082526030908201527f416363657373436f6e74726f6c3a2073656e646572206d75737420626520616e60408201527f2061646d696e20746f207265766f6b6500000000000000000000000000000000606082015260800190565b6020808252818101527f4f776e61626c653a2063616c6c6572206973206e6f7420746865206f776e6572604082015260600190565b60208082526033908201527f556e69766572736974793a2063616c6c657220646f65736e277420686176652060408201527f4752414e54535f4d414e414745525f524f4c4500000000000000000000000000606082015260800190565b6020808252602d908201527f556e69766572736974793a2047534e206e6f7420656e61626c656420666f722060408201527f746869732066756e6374696f6e00000000000000000000000000000000000000606082015260800190565b60208082526029908201527f556e69766572736974793a206170706c69636174696f6e206973206e6f74207360408201527f75636365737366756c0000000000000000000000000000000000000000000000606082015260800190565b6020808252602f908201527f416363657373436f6e74726f6c3a2063616e206f6e6c792072656e6f756e636560408201527f20726f6c657320666f722073656c660000000000000000000000000000000000606082015260800190565b62ffffff91909116815260200190565b6000808335601e19843603018112612a81578283fd5b8084018035925067ffffffffffffffff831115612a9c578384fd5b60200192505036819003821315612ab257600080fd5b9250929050565b6001600160a01b0381168114612ace57600080fd5b5056fea264697066735822122062696387ecf539b0a1dca55839f338014cd8352c66d105951b50955bf5c3be2c64736f6c63430006060033",
  "immutableReferences": {},
  "source": "pragma solidity 0.6.6;\r\npragma experimental ABIEncoderV2;\r\n\r\nimport \"@openzeppelin/contracts/math/SafeMath.sol\";\r\nimport \"@openzeppelin/contracts/access/AccessControl.sol\";\r\nimport \"@openzeppelin/contracts/access/Ownable.sol\";\r\nimport \"@openzeppelin/contracts/token/ERC20/IERC20.sol\";\r\nimport \"@openzeppelin/contracts/utils/Address.sol\";\r\nimport \"./gambi/BaseRelayRecipient.sol\";\r\nimport \"./gambi/GSNTypes.sol\";\r\nimport \"./gambi/IRelayHub.sol\";\r\nimport \"./interface/IClassroom.sol\";\r\nimport \"./interface/IStudent.sol\";\r\nimport \"./interface/IStudentApplication.sol\";\r\nimport \"./interface/IClassroomFactory.sol\";\r\nimport \"./interface/IStudentFactory.sol\";\r\nimport \"./interface/IStudentApplicationFactory.sol\";\r\nimport \"./interface/IUniversity.sol\";\r\nimport \"./MyUtils.sol\";\r\n\r\n//TODO: Natspec Document ENVERYTHING\r\n//TODO: Sort function order from all contracts\r\n\r\ncontract University is Ownable, AccessControl, BaseRelayRecipient, IUniversity {\r\n    using SafeMath for uint256;\r\n\r\n    //CLASSLIST_ADMIN_ROLE can add new manually created classes to the list\r\n    bytes32 public constant CLASSLIST_ADMIN_ROLE = keccak256(\r\n        \"CLASSLIST_ADMIN_ROLE\"\r\n    );\r\n    // FUNDS_MANAGER_ROLE can withdraw funds from the contract\r\n    bytes32 public constant FUNDS_MANAGER_ROLE = keccak256(\r\n        \"FUNDS_MANAGER_ROLE\"\r\n    );\r\n    // GRANTS_MANAGER_ROLE can approve/decline grant claims\r\n    bytes32 public constant GRANTS_MANAGER_ROLE = keccak256(\r\n        \"GRANTS_MANAGER_ROLE\"\r\n    );\r\n    // READ_STUDENT_LIST_ROLE allow reading students list\r\n    bytes32 public constant READ_STUDENT_LIST_ROLE = keccak256(\r\n        \"READ_STUDENT_LIST_ROLE\"\r\n    );\r\n    /// STUDENT_IDENTITY_ROLE allow asking for grants and requesting a classroom from a successful application\r\n    bytes32 public constant STUDENT_IDENTITY_ROLE = keccak256(\r\n        \"STUDENT_IDENTITY_ROLE\"\r\n    );\r\n    /// CLASSROOM_PROFESSOR_ROLE can manage itself inside the University and registering student applications\r\n    bytes32 public constant CLASSROOM_PROFESSOR_ROLE = keccak256(\r\n        \"CLASSROOM_PROFESSOR_ROLE\"\r\n    );\r\n\r\n    // Parameter: Name of this University\r\n    bytes32 public name;\r\n    // Parameter: University cut from professor (Parts per Million)\r\n    uint24 public override cut;\r\n    // List of every registered classroom\r\n    address[] public _classList;\r\n    // List of every student\r\n    address[] _students;\r\n    // Mapping of each student's applications\r\n    mapping(address => address[]) _studentApplicationsMapping;\r\n    // Address list of every donor\r\n    address[] _donors;\r\n    // GSN funds to give students\r\n    uint256 _studentGSNDeposit;\r\n\r\n    //TODO: resolve students and classrooms addresses using ENS\r\n\r\n    CERC20 public cToken;\r\n    IERC20 public daiToken;\r\n    IRelayHub public relayHub;\r\n    IClassroomFactory _classroomFactory;\r\n    IStudentFactory _studentFactory;\r\n    address _studentApplicationFactoryAddress;\r\n\r\n    constructor(\r\n        bytes32 _name,\r\n        uint24 _cut,\r\n        uint256 studentGSNDeposit,\r\n        address daiAddress,\r\n        address compoundAddress,\r\n        address relayHubAddress,\r\n        address classroomFactoryAddress,\r\n        address studentFactoryAddress,\r\n        address studentApplicationFactoryAddress\r\n    ) public {\r\n        name = _name;\r\n        cut = _cut;\r\n        _studentGSNDeposit = studentGSNDeposit;\r\n        _setupRole(DEFAULT_ADMIN_ROLE, _msgSender());\r\n        grantRole(READ_STUDENT_LIST_ROLE, _msgSender());\r\n        daiToken = IERC20(daiAddress);\r\n        cToken = CERC20(compoundAddress);\r\n        relayHub = IRelayHub(relayHubAddress);\r\n        _classroomFactory = IClassroomFactory(classroomFactoryAddress);\r\n        _studentFactory = IStudentFactory(studentFactoryAddress);\r\n        _studentApplicationFactoryAddress = studentApplicationFactoryAddress;\r\n    }\r\n\r\n    receive() external payable {\r\n        emit LogReceived(msg.sender, msg.value);\r\n    }\r\n\r\n    event LogNewClassroom(bytes32, address);\r\n    event LogChangeName(bytes32);\r\n    event LogChangeCut(uint24);\r\n    event LogReceived(address, uint256);\r\n\r\n    function changeName(bytes32 val) public onlyOwner {\r\n        name = val;\r\n        emit LogChangeName(name);\r\n    }\r\n\r\n    function changeCut(uint24 val) public onlyOwner {\r\n        cut = val;\r\n        emit LogChangeCut(cut);\r\n    }\r\n\r\n    function changeStudentGSNDeposit(uint256 val) public onlyOwner {\r\n        _studentGSNDeposit = val;\r\n    }\r\n\r\n    function isValidClassroom(address classroom) public view override returns (bool) {\r\n        return hasRole(CLASSROOM_PROFESSOR_ROLE, classroom);\r\n    }\r\n\r\n    function studentIsRegistered(address student) public view override returns (bool) {\r\n        require(\r\n            hasRole(READ_STUDENT_LIST_ROLE, _msgSender()),\r\n            \"University: caller doesn't have READ_STUDENT_LIST_ROLE\"\r\n        );\r\n        return hasRole(STUDENT_IDENTITY_ROLE, student);\r\n    }\r\n\r\n    function viewMyApplications() public view override returns (address[] memory) {\r\n        return viewStudentApplications(_msgSender());\r\n    }\r\n\r\n    function viewStudentApplications(address addr)\r\n        public\r\n        view\r\n        override\r\n        returns (address[] memory)\r\n    {\r\n        require(\r\n            addr == _msgSender() || hasRole(GRANTS_MANAGER_ROLE, _msgSender()),\r\n            \"Classroom: read permission denied\"\r\n        );\r\n        return _studentApplicationsMapping[addr];\r\n    }\r\n\r\n    function studentSelfRegisterGSN(bytes32 sName) public returns (address) {\r\n        address student = _newStudent(sName, _msgSenderGSN());\r\n        relayHub.depositFor.value(_studentGSNDeposit)(student);\r\n        return student;\r\n    }\r\n\r\n    function studentSelfRegister(bytes32 sName) public returns (address) {\r\n        return _newStudent(sName, _msgSender());\r\n    }\r\n\r\n    function _newStudent(bytes32 sName, address caller)\r\n        internal\r\n        returns (address)\r\n    {\r\n        require(\r\n            _studentApplicationsMapping[_msgSenderGSN()].length == 0,\r\n            \"University: student already registered\"\r\n        );\r\n        //Gambiarra: Push address(0) in the mapping to mark that student as registered in the university\r\n        _studentApplicationsMapping[caller].push(address(0));\r\n        address student = _studentFactory.newStudent(sName, address(this));\r\n        IStudent(student).transferOwnershipStudent(caller);\r\n        address studentAddr = address(student);\r\n        _students.push(studentAddr);\r\n        grantRole(STUDENT_IDENTITY_ROLE, studentAddr);\r\n        return address(studentAddr);\r\n    }\r\n\r\n    //ex: owner, name, 0.2 * 10**6, 0.5 * 10**6, 0, 50 * (10 ** 18), 30 days, challengeAddress\r\n    function newClassRoom(\r\n        address owner,\r\n        bytes32 cName,\r\n        uint24 cCut,\r\n        uint24 cPCut,\r\n        int32 minScore,\r\n        uint256 entryPrice,\r\n        uint256 duration,\r\n        address challengeAddress\r\n    ) public returns (address) {\r\n        require(\r\n            hasRole(CLASSLIST_ADMIN_ROLE, _msgSender()),\r\n            \"University: caller doesn't have CLASSLIST_ADMIN_ROLE\"\r\n        );\r\n        return\r\n            _newClassRoom(\r\n                owner,\r\n                cName,\r\n                cCut,\r\n                cPCut,\r\n                minScore,\r\n                entryPrice,\r\n                duration,\r\n                challengeAddress\r\n            );\r\n    }\r\n\r\n    function _newClassRoom(\r\n        address owner,\r\n        bytes32 cName,\r\n        uint24 cCut,\r\n        uint24 cPCut,\r\n        int32 minScore,\r\n        uint256 entryPrice,\r\n        uint256 duration,\r\n        address challengeAddress\r\n    ) internal returns (address) {\r\n        address classroom = _classroomFactory.newClassroom(\r\n            cName,\r\n            cCut,\r\n            cPCut,\r\n            minScore,\r\n            entryPrice,\r\n            duration,\r\n            payable (address(this)),\r\n            challengeAddress,\r\n            address(daiToken),\r\n            address(cToken),\r\n            _studentApplicationFactoryAddress\r\n        );\r\n        IClassroom(classroom).transferOwnershipClassroom(owner);\r\n        address classroomAddr = address(classroom);\r\n        _classList.push(classroomAddr);\r\n        grantRole(READ_STUDENT_LIST_ROLE, classroomAddr);\r\n        grantRole(CLASSROOM_PROFESSOR_ROLE, classroomAddr);\r\n        emit LogNewClassroom(cName, classroomAddr);\r\n        return classroomAddr;\r\n    }\r\n\r\n    function studentRequestClassroom(\r\n        address applicationAddr,\r\n        bytes32 cName,\r\n        uint24 cCut,\r\n        uint24 cPCut,\r\n        int32 minScore,\r\n        uint256 entryPrice,\r\n        uint256 duration,\r\n        address challenge\r\n    ) public override returns (address) {\r\n        require(\r\n            hasRole(STUDENT_IDENTITY_ROLE, _msgSender()),\r\n            \"University: caller doesn't have STUDENT_IDENTITY_ROLE\"\r\n        );\r\n        require(\r\n            checkForStudentApplication(_msgSender(), applicationAddr),\r\n            \"University: caller is not student of this application\"\r\n        );\r\n        IStudentApplication application = IStudentApplication(applicationAddr);\r\n        require(\r\n            application.applicationState() == 3,\r\n            \"University: application is not successful\"\r\n        );\r\n        return\r\n            _newClassRoom(\r\n                IStudent(_msgSender()).ownerStudent(),\r\n                cName,\r\n                cCut,\r\n                cPCut,\r\n                minScore,\r\n                entryPrice,\r\n                duration,\r\n                challenge\r\n            );\r\n    }\r\n\r\n    function registerStudentApplication(address student, address application)\r\n        public override\r\n    {\r\n        require(\r\n            hasRole(CLASSROOM_PROFESSOR_ROLE, _msgSender()),\r\n            \"University: caller doesn't have CLASSROOM_PROFESSOR_ROLE\"\r\n        );\r\n        _studentApplicationsMapping[student].push(application);\r\n    }\r\n\r\n    function checkForStudentApplication(\r\n        address studentAddress,\r\n        address applicationAddress\r\n    ) internal view returns (bool) {\r\n        for (\r\n            uint256 i = 0;\r\n            i < _studentApplicationsMapping[studentAddress].length;\r\n            i++\r\n        ) {\r\n            if (\r\n                _studentApplicationsMapping[studentAddress][i] ==\r\n                applicationAddress\r\n            ) return true;\r\n        }\r\n        return false;\r\n    }\r\n\r\n    function addStudentScore(address student, int32 val) public override {\r\n        require(\r\n            hasRole(CLASSROOM_PROFESSOR_ROLE, _msgSender()),\r\n            \"University: caller doesn't have CLASSROOM_PROFESSOR_ROLE\"\r\n        );\r\n        IStudent(student).addScore(val);\r\n    }\r\n\r\n    function subStudentScore(address student, int32 val) public override {\r\n        require(\r\n            hasRole(CLASSROOM_PROFESSOR_ROLE, _msgSender()),\r\n            \"University: caller doesn't have CLASSROOM_PROFESSOR_ROLE\"\r\n        );\r\n        IStudent(student).subScore(val);\r\n    }\r\n\r\n    function applyFunds(uint256 val) public {\r\n        require(\r\n            hasRole(FUNDS_MANAGER_ROLE, _msgSender()),\r\n            \"University: caller doesn't have FUNDS_MANAGER_ROLE\"\r\n        );\r\n        daiToken.approve(address(cToken), val);\r\n        cToken.mint(val);\r\n    }\r\n\r\n    function recoverFunds(uint256 val) public {\r\n        require(\r\n            hasRole(FUNDS_MANAGER_ROLE, _msgSender()),\r\n            \"University: caller doesn't have FUNDS_MANAGER_ROLE\"\r\n        );\r\n        cToken.redeemUnderlying(val);\r\n    }\r\n\r\n    function spendFunds(address to, uint256 val) public {\r\n        require(\r\n            hasRole(FUNDS_MANAGER_ROLE, _msgSender()),\r\n            \"University: caller doesn't have FUNDS_MANAGER_ROLE\"\r\n        );\r\n        daiToken.transfer(to, val);\r\n    }\r\n\r\n    function allowFunds(address to, uint256 val) public {\r\n        require(\r\n            hasRole(FUNDS_MANAGER_ROLE, _msgSender()),\r\n            \"University: caller doesn't have FUNDS_MANAGER_ROLE\"\r\n        );\r\n        daiToken.approve(to, val);\r\n    }\r\n\r\n    function giveGrant(address studentApplication) public override {\r\n        require(\r\n            hasRole(GRANTS_MANAGER_ROLE, _msgSender()),\r\n            \"University: caller doesn't have GRANTS_MANAGER_ROLE\"\r\n        );\r\n        IStudentApplication(studentApplication).payEntryPrice();\r\n    }\r\n\r\n    function acceptRelayedCall(\r\n        GSNTypes.RelayRequest calldata relayRequest,\r\n        bytes calldata,\r\n        uint256\r\n    ) external pure returns (bytes memory context) {\r\n        require(\r\n            MyUtils.readBytes4(relayRequest.encodedFunction, 0) ==\r\n                this.studentSelfRegisterGSN.selector,\r\n            \"University: GSN not enabled for this function\"\r\n        );\r\n        return abi.encode(relayRequest.target, 0);\r\n    }\r\n\r\n    function refillUniversityRelayer(uint256 val) public {\r\n        require(\r\n            hasRole(FUNDS_MANAGER_ROLE, _msgSender()),\r\n            \"University: caller doesn't have STUDENT_IDENTITY_ROLE\"\r\n        );\r\n        relayHub.depositFor.value(val)(address(this));\r\n    }\r\n\r\n    //TODO: Trade DAI for ETH in Uniswap\r\n\r\n    //TODO: fund\r\n\r\n    //TODO: manage grants\r\n\r\n    //TODO: implement funds manager\r\n\r\n    //TODO: implement funds manager governance\r\n}\r\n",
  "sourcePath": "/mnt/e/Repositories/Uproot/contracts/University.sol",
  "compiler": {
    "name": "solc",
    "version": "0.6.6+commit.6c089d02.Emscripten.clang"
  },
  "schemaVersion": "3.1.0",
  "updatedAt": "2020-05-05T01:20:38.402Z",
  "devdoc": {
    "methods": {
      "getRoleAdmin(bytes32)": {
        "details": "Returns the admin role that controls `role`. See {grantRole} and {revokeRole}.     * To change a role's admin, use {_setRoleAdmin}."
      },
      "getRoleMember(bytes32,uint256)": {
        "details": "Returns one of the accounts that have `role`. `index` must be a value between 0 and {getRoleMemberCount}, non-inclusive.     * Role bearers are not sorted in any particular way, and their ordering may change at any point.     * WARNING: When using {getRoleMember} and {getRoleMemberCount}, make sure you perform all queries on the same block. See the following https://forum.openzeppelin.com/t/iterating-over-elements-on-enumerableset-in-openzeppelin-contracts/2296[forum post] for more information."
      },
      "getRoleMemberCount(bytes32)": {
        "details": "Returns the number of accounts that have `role`. Can be used together with {getRoleMember} to enumerate all bearers of a role."
      },
      "grantRole(bytes32,address)": {
        "details": "Grants `role` to `account`.     * If `account` had not been already granted `role`, emits a {RoleGranted} event.     * Requirements:     * - the caller must have ``role``'s admin role."
      },
      "hasRole(bytes32,address)": {
        "details": "Returns `true` if `account` has been granted `role`."
      },
      "owner()": {
        "details": "Returns the address of the current owner."
      },
      "renounceOwnership()": {
        "details": "Leaves the contract without owner. It will not be possible to call `onlyOwner` functions anymore. Can only be called by the current owner.     * NOTE: Renouncing ownership will leave the contract without an owner, thereby removing any functionality that is only available to the owner."
      },
      "renounceRole(bytes32,address)": {
        "details": "Revokes `role` from the calling account.     * Roles are often managed via {grantRole} and {revokeRole}: this function's purpose is to provide a mechanism for accounts to lose their privileges if they are compromised (such as when a trusted device is misplaced).     * If the calling account had been granted `role`, emits a {RoleRevoked} event.     * Requirements:     * - the caller must be `account`."
      },
      "revokeRole(bytes32,address)": {
        "details": "Revokes `role` from `account`.     * If `account` had been granted `role`, emits a {RoleRevoked} event.     * Requirements:     * - the caller must have ``role``'s admin role."
      },
      "transferOwnership(address)": {
        "details": "Transfers ownership of the contract to a new account (`newOwner`). Can only be called by the current owner."
      }
    }
  },
  "userdoc": {
    "methods": {
      "_msgSenderGSN()": {
        "notice": "return the sender of this call. if the call came through our trusted forwarder, return the original sender. otherwise, return `msg.sender`. should be used in the contract anywhere instead of msg.sender"
      }
    }
  }
}