{
  "contractName": "University",
  "abi": [
    {
      "inputs": [
        {
          "internalType": "bytes32",
          "name": "_name",
          "type": "bytes32"
        },
        {
          "internalType": "uint24",
          "name": "_cut",
          "type": "uint24"
        },
        {
          "internalType": "uint256",
          "name": "studentGSNDeposit",
          "type": "uint256"
        },
        {
          "internalType": "address",
          "name": "daiAddress",
          "type": "address"
        },
        {
          "internalType": "address",
          "name": "relayHubAddress",
          "type": "address"
        },
        {
          "internalType": "address",
          "name": "classroomFactoryAddress",
          "type": "address"
        },
        {
          "internalType": "address",
          "name": "studentFactoryAddress",
          "type": "address"
        },
        {
          "internalType": "address",
          "name": "studentApplicationFactoryAddress",
          "type": "address"
        }
      ],
      "stateMutability": "nonpayable",
      "type": "constructor"
    },
    {
      "anonymous": false,
      "inputs": [
        {
          "indexed": false,
          "internalType": "uint24",
          "name": "",
          "type": "uint24"
        }
      ],
      "name": "LogChangeCut",
      "type": "event"
    },
    {
      "anonymous": false,
      "inputs": [
        {
          "indexed": false,
          "internalType": "bytes32",
          "name": "",
          "type": "bytes32"
        }
      ],
      "name": "LogChangeName",
      "type": "event"
    },
    {
      "anonymous": false,
      "inputs": [
        {
          "indexed": false,
          "internalType": "bytes32",
          "name": "",
          "type": "bytes32"
        },
        {
          "indexed": false,
          "internalType": "address",
          "name": "",
          "type": "address"
        }
      ],
      "name": "LogNewClassroom",
      "type": "event"
    },
    {
      "anonymous": false,
      "inputs": [
        {
          "indexed": false,
          "internalType": "address",
          "name": "",
          "type": "address"
        },
        {
          "indexed": false,
          "internalType": "uint256",
          "name": "",
          "type": "uint256"
        }
      ],
      "name": "LogReceived",
      "type": "event"
    },
    {
      "anonymous": false,
      "inputs": [
        {
          "indexed": true,
          "internalType": "address",
          "name": "previousOwner",
          "type": "address"
        },
        {
          "indexed": true,
          "internalType": "address",
          "name": "newOwner",
          "type": "address"
        }
      ],
      "name": "OwnershipTransferred",
      "type": "event"
    },
    {
      "anonymous": false,
      "inputs": [
        {
          "indexed": true,
          "internalType": "bytes32",
          "name": "role",
          "type": "bytes32"
        },
        {
          "indexed": true,
          "internalType": "address",
          "name": "account",
          "type": "address"
        },
        {
          "indexed": true,
          "internalType": "address",
          "name": "sender",
          "type": "address"
        }
      ],
      "name": "RoleGranted",
      "type": "event"
    },
    {
      "anonymous": false,
      "inputs": [
        {
          "indexed": true,
          "internalType": "bytes32",
          "name": "role",
          "type": "bytes32"
        },
        {
          "indexed": true,
          "internalType": "address",
          "name": "account",
          "type": "address"
        },
        {
          "indexed": true,
          "internalType": "address",
          "name": "sender",
          "type": "address"
        }
      ],
      "name": "RoleRevoked",
      "type": "event"
    },
    {
      "inputs": [],
      "name": "CLASSLIST_ADMIN_ROLE",
      "outputs": [
        {
          "internalType": "bytes32",
          "name": "",
          "type": "bytes32"
        }
      ],
      "stateMutability": "view",
      "type": "function"
    },
    {
      "inputs": [],
      "name": "CLASSROOM_PROFESSOR_ROLE",
      "outputs": [
        {
          "internalType": "bytes32",
          "name": "",
          "type": "bytes32"
        }
      ],
      "stateMutability": "view",
      "type": "function"
    },
    {
      "inputs": [],
      "name": "DEFAULT_ADMIN_ROLE",
      "outputs": [
        {
          "internalType": "bytes32",
          "name": "",
          "type": "bytes32"
        }
      ],
      "stateMutability": "view",
      "type": "function"
    },
    {
      "inputs": [],
      "name": "FUNDS_MANAGER_ROLE",
      "outputs": [
        {
          "internalType": "bytes32",
          "name": "",
          "type": "bytes32"
        }
      ],
      "stateMutability": "view",
      "type": "function"
    },
    {
      "inputs": [],
      "name": "GRANTS_MANAGER_ROLE",
      "outputs": [
        {
          "internalType": "bytes32",
          "name": "",
          "type": "bytes32"
        }
      ],
      "stateMutability": "view",
      "type": "function"
    },
    {
      "inputs": [],
      "name": "READ_STUDENT_LIST_ROLE",
      "outputs": [
        {
          "internalType": "bytes32",
          "name": "",
          "type": "bytes32"
        }
      ],
      "stateMutability": "view",
      "type": "function"
    },
    {
      "inputs": [],
      "name": "REGISTERED_SUPPLIER_ROLE",
      "outputs": [
        {
          "internalType": "bytes32",
          "name": "",
          "type": "bytes32"
        }
      ],
      "stateMutability": "view",
      "type": "function"
    },
    {
      "inputs": [],
      "name": "STUDENT_IDENTITY_ROLE",
      "outputs": [
        {
          "internalType": "bytes32",
          "name": "",
          "type": "bytes32"
        }
      ],
      "stateMutability": "view",
      "type": "function"
    },
    {
      "inputs": [],
      "name": "UNIVERSITY_OVERSEER_ROLE",
      "outputs": [
        {
          "internalType": "bytes32",
          "name": "",
          "type": "bytes32"
        }
      ],
      "stateMutability": "view",
      "type": "function"
    },
    {
      "inputs": [
        {
          "internalType": "uint256",
          "name": "",
          "type": "uint256"
        }
      ],
      "name": "_classList",
      "outputs": [
        {
          "internalType": "address",
          "name": "",
          "type": "address"
        }
      ],
      "stateMutability": "view",
      "type": "function"
    },
    {
      "inputs": [],
      "name": "_msgSenderGSN",
      "outputs": [
        {
          "internalType": "address",
          "name": "",
          "type": "address"
        }
      ],
      "stateMutability": "view",
      "type": "function"
    },
    {
      "inputs": [],
      "name": "_uniswapRouter",
      "outputs": [
        {
          "internalType": "contract IUniswapV2Router01",
          "name": "",
          "type": "address"
        }
      ],
      "stateMutability": "view",
      "type": "function"
    },
    {
      "inputs": [],
      "name": "cDAI",
      "outputs": [
        {
          "internalType": "contract CERC20",
          "name": "",
          "type": "address"
        }
      ],
      "stateMutability": "view",
      "type": "function"
    },
    {
      "inputs": [],
      "name": "comptroller",
      "outputs": [
        {
          "internalType": "contract IComptroller",
          "name": "",
          "type": "address"
        }
      ],
      "stateMutability": "view",
      "type": "function"
    },
    {
      "inputs": [],
      "name": "cut",
      "outputs": [
        {
          "internalType": "uint24",
          "name": "",
          "type": "uint24"
        }
      ],
      "stateMutability": "view",
      "type": "function"
    },
    {
      "inputs": [],
      "name": "daiToken",
      "outputs": [
        {
          "internalType": "contract IERC20",
          "name": "",
          "type": "address"
        }
      ],
      "stateMutability": "view",
      "type": "function"
    },
    {
      "inputs": [],
      "name": "donationsReceived",
      "outputs": [
        {
          "internalType": "uint256",
          "name": "",
          "type": "uint256"
        }
      ],
      "stateMutability": "view",
      "type": "function"
    },
    {
      "inputs": [
        {
          "internalType": "address",
          "name": "",
          "type": "address"
        }
      ],
      "name": "donators",
      "outputs": [
        {
          "internalType": "uint256",
          "name": "",
          "type": "uint256"
        }
      ],
      "stateMutability": "view",
      "type": "function"
    },
    {
      "inputs": [],
      "name": "endowmentLocked",
      "outputs": [
        {
          "internalType": "uint256",
          "name": "",
          "type": "uint256"
        }
      ],
      "stateMutability": "view",
      "type": "function"
    },
    {
      "inputs": [
        {
          "internalType": "bytes32",
          "name": "role",
          "type": "bytes32"
        }
      ],
      "name": "getRoleAdmin",
      "outputs": [
        {
          "internalType": "bytes32",
          "name": "",
          "type": "bytes32"
        }
      ],
      "stateMutability": "view",
      "type": "function"
    },
    {
      "inputs": [
        {
          "internalType": "bytes32",
          "name": "role",
          "type": "bytes32"
        },
        {
          "internalType": "uint256",
          "name": "index",
          "type": "uint256"
        }
      ],
      "name": "getRoleMember",
      "outputs": [
        {
          "internalType": "address",
          "name": "",
          "type": "address"
        }
      ],
      "stateMutability": "view",
      "type": "function"
    },
    {
      "inputs": [
        {
          "internalType": "bytes32",
          "name": "role",
          "type": "bytes32"
        }
      ],
      "name": "getRoleMemberCount",
      "outputs": [
        {
          "internalType": "uint256",
          "name": "",
          "type": "uint256"
        }
      ],
      "stateMutability": "view",
      "type": "function"
    },
    {
      "inputs": [],
      "name": "getTrustedForwarder",
      "outputs": [
        {
          "internalType": "address",
          "name": "",
          "type": "address"
        }
      ],
      "stateMutability": "view",
      "type": "function"
    },
    {
      "inputs": [
        {
          "internalType": "bytes32",
          "name": "role",
          "type": "bytes32"
        },
        {
          "internalType": "address",
          "name": "account",
          "type": "address"
        }
      ],
      "name": "grantRole",
      "outputs": [],
      "stateMutability": "nonpayable",
      "type": "function"
    },
    {
      "inputs": [
        {
          "internalType": "bytes32",
          "name": "role",
          "type": "bytes32"
        },
        {
          "internalType": "address",
          "name": "account",
          "type": "address"
        }
      ],
      "name": "hasRole",
      "outputs": [
        {
          "internalType": "bool",
          "name": "",
          "type": "bool"
        }
      ],
      "stateMutability": "view",
      "type": "function"
    },
    {
      "inputs": [],
      "name": "name",
      "outputs": [
        {
          "internalType": "bytes32",
          "name": "",
          "type": "bytes32"
        }
      ],
      "stateMutability": "view",
      "type": "function"
    },
    {
      "inputs": [],
      "name": "operationalBudget",
      "outputs": [
        {
          "internalType": "uint256",
          "name": "",
          "type": "uint256"
        }
      ],
      "stateMutability": "view",
      "type": "function"
    },
    {
      "inputs": [],
      "name": "owner",
      "outputs": [
        {
          "internalType": "address",
          "name": "",
          "type": "address"
        }
      ],
      "stateMutability": "view",
      "type": "function"
    },
    {
      "inputs": [],
      "name": "priceOracle",
      "outputs": [
        {
          "internalType": "contract IPriceOracle",
          "name": "",
          "type": "address"
        }
      ],
      "stateMutability": "view",
      "type": "function"
    },
    {
      "inputs": [],
      "name": "relayHub",
      "outputs": [
        {
          "internalType": "contract IRelayHub",
          "name": "",
          "type": "address"
        }
      ],
      "stateMutability": "view",
      "type": "function"
    },
    {
      "inputs": [],
      "name": "renounceOwnership",
      "outputs": [],
      "stateMutability": "nonpayable",
      "type": "function"
    },
    {
      "inputs": [
        {
          "internalType": "bytes32",
          "name": "role",
          "type": "bytes32"
        },
        {
          "internalType": "address",
          "name": "account",
          "type": "address"
        }
      ],
      "name": "renounceRole",
      "outputs": [],
      "stateMutability": "nonpayable",
      "type": "function"
    },
    {
      "inputs": [],
      "name": "returnsReceived",
      "outputs": [
        {
          "internalType": "uint256",
          "name": "",
          "type": "uint256"
        }
      ],
      "stateMutability": "view",
      "type": "function"
    },
    {
      "inputs": [],
      "name": "revenueReceived",
      "outputs": [
        {
          "internalType": "uint256",
          "name": "",
          "type": "uint256"
        }
      ],
      "stateMutability": "view",
      "type": "function"
    },
    {
      "inputs": [
        {
          "internalType": "bytes32",
          "name": "role",
          "type": "bytes32"
        },
        {
          "internalType": "address",
          "name": "account",
          "type": "address"
        }
      ],
      "name": "revokeRole",
      "outputs": [],
      "stateMutability": "nonpayable",
      "type": "function"
    },
    {
      "inputs": [
        {
          "internalType": "address",
          "name": "newOwner",
          "type": "address"
        }
      ],
      "name": "transferOwnership",
      "outputs": [],
      "stateMutability": "nonpayable",
      "type": "function"
    },
    {
      "stateMutability": "payable",
      "type": "receive"
    },
    {
      "inputs": [
        {
          "internalType": "address",
          "name": "compoundDAIAddress",
          "type": "address"
        },
        {
          "internalType": "address",
          "name": "comptrollerAddress",
          "type": "address"
        },
        {
          "internalType": "address",
          "name": "priceOracleAddress",
          "type": "address"
        }
      ],
      "name": "configureCompound",
      "outputs": [],
      "stateMutability": "nonpayable",
      "type": "function"
    },
    {
      "inputs": [
        {
          "internalType": "address",
          "name": "uniswapWETH",
          "type": "address"
        },
        {
          "internalType": "address",
          "name": "uniswapDAI",
          "type": "address"
        },
        {
          "internalType": "address",
          "name": "uniswapRouter",
          "type": "address"
        }
      ],
      "name": "configureUniswap",
      "outputs": [],
      "stateMutability": "nonpayable",
      "type": "function"
    },
    {
      "inputs": [
        {
          "internalType": "address",
          "name": "lendingPoolAddressesProvider",
          "type": "address"
        }
      ],
      "name": "configureAave",
      "outputs": [],
      "stateMutability": "nonpayable",
      "type": "function"
    },
    {
      "inputs": [
        {
          "internalType": "bytes32",
          "name": "val",
          "type": "bytes32"
        }
      ],
      "name": "changeName",
      "outputs": [],
      "stateMutability": "nonpayable",
      "type": "function"
    },
    {
      "inputs": [
        {
          "internalType": "uint24",
          "name": "val",
          "type": "uint24"
        }
      ],
      "name": "changeCut",
      "outputs": [],
      "stateMutability": "nonpayable",
      "type": "function"
    },
    {
      "inputs": [
        {
          "internalType": "uint256",
          "name": "val",
          "type": "uint256"
        }
      ],
      "name": "changeStudentGSNDeposit",
      "outputs": [],
      "stateMutability": "nonpayable",
      "type": "function"
    },
    {
      "inputs": [],
      "name": "availableFundsForInvestment",
      "outputs": [
        {
          "internalType": "uint256",
          "name": "",
          "type": "uint256"
        }
      ],
      "stateMutability": "view",
      "type": "function"
    },
    {
      "inputs": [],
      "name": "availableFunds",
      "outputs": [
        {
          "internalType": "uint256",
          "name": "",
          "type": "uint256"
        }
      ],
      "stateMutability": "view",
      "type": "function"
    },
    {
      "inputs": [
        {
          "internalType": "address",
          "name": "classroom",
          "type": "address"
        }
      ],
      "name": "isValidClassroom",
      "outputs": [
        {
          "internalType": "bool",
          "name": "",
          "type": "bool"
        }
      ],
      "stateMutability": "view",
      "type": "function"
    },
    {
      "inputs": [
        {
          "internalType": "address",
          "name": "student",
          "type": "address"
        }
      ],
      "name": "studentIsRegistered",
      "outputs": [
        {
          "internalType": "bool",
          "name": "",
          "type": "bool"
        }
      ],
      "stateMutability": "view",
      "type": "function"
    },
    {
      "inputs": [],
      "name": "viewMyApplications",
      "outputs": [
        {
          "internalType": "address[]",
          "name": "",
          "type": "address[]"
        }
      ],
      "stateMutability": "view",
      "type": "function"
    },
    {
      "inputs": [
        {
          "internalType": "address",
          "name": "addr",
          "type": "address"
        }
      ],
      "name": "viewStudentApplications",
      "outputs": [
        {
          "internalType": "address[]",
          "name": "",
          "type": "address[]"
        }
      ],
      "stateMutability": "view",
      "type": "function"
    },
    {
      "inputs": [
        {
          "internalType": "bytes32",
          "name": "sName",
          "type": "bytes32"
        }
      ],
      "name": "studentSelfRegisterGSN",
      "outputs": [
        {
          "internalType": "address",
          "name": "",
          "type": "address"
        }
      ],
      "stateMutability": "nonpayable",
      "type": "function"
    },
    {
      "inputs": [
        {
          "internalType": "bytes32",
          "name": "sName",
          "type": "bytes32"
        }
      ],
      "name": "studentSelfRegister",
      "outputs": [
        {
          "internalType": "address",
          "name": "",
          "type": "address"
        }
      ],
      "stateMutability": "nonpayable",
      "type": "function"
    },
    {
      "inputs": [
        {
          "internalType": "address",
          "name": "owner",
          "type": "address"
        },
        {
          "internalType": "bytes32",
          "name": "cName",
          "type": "bytes32"
        },
        {
          "internalType": "uint24",
          "name": "cCut",
          "type": "uint24"
        },
        {
          "internalType": "uint24",
          "name": "cPCut",
          "type": "uint24"
        },
        {
          "internalType": "int32",
          "name": "minScore",
          "type": "int32"
        },
        {
          "internalType": "uint256",
          "name": "entryPrice",
          "type": "uint256"
        },
        {
          "internalType": "uint256",
          "name": "duration",
          "type": "uint256"
        },
        {
          "internalType": "address",
          "name": "challengeAddress",
          "type": "address"
        }
      ],
      "name": "newClassRoom",
      "outputs": [
        {
          "internalType": "address",
          "name": "",
          "type": "address"
        }
      ],
      "stateMutability": "nonpayable",
      "type": "function"
    },
    {
      "inputs": [
        {
          "internalType": "address",
          "name": "applicationAddr",
          "type": "address"
        },
        {
          "internalType": "bytes32",
          "name": "cName",
          "type": "bytes32"
        },
        {
          "internalType": "uint24",
          "name": "cCut",
          "type": "uint24"
        },
        {
          "internalType": "uint24",
          "name": "cPCut",
          "type": "uint24"
        },
        {
          "internalType": "int32",
          "name": "minScore",
          "type": "int32"
        },
        {
          "internalType": "uint256",
          "name": "entryPrice",
          "type": "uint256"
        },
        {
          "internalType": "uint256",
          "name": "duration",
          "type": "uint256"
        },
        {
          "internalType": "address",
          "name": "challenge",
          "type": "address"
        }
      ],
      "name": "studentRequestClassroom",
      "outputs": [
        {
          "internalType": "address",
          "name": "",
          "type": "address"
        }
      ],
      "stateMutability": "nonpayable",
      "type": "function"
    },
    {
      "inputs": [
        {
          "internalType": "address",
          "name": "student",
          "type": "address"
        },
        {
          "internalType": "address",
          "name": "application",
          "type": "address"
        }
      ],
      "name": "registerStudentApplication",
      "outputs": [],
      "stateMutability": "nonpayable",
      "type": "function"
    },
    {
      "inputs": [
        {
          "internalType": "address",
          "name": "student",
          "type": "address"
        },
        {
          "internalType": "int32",
          "name": "val",
          "type": "int32"
        }
      ],
      "name": "addStudentScore",
      "outputs": [],
      "stateMutability": "nonpayable",
      "type": "function"
    },
    {
      "inputs": [
        {
          "internalType": "address",
          "name": "student",
          "type": "address"
        },
        {
          "internalType": "int32",
          "name": "val",
          "type": "int32"
        }
      ],
      "name": "subStudentScore",
      "outputs": [],
      "stateMutability": "nonpayable",
      "type": "function"
    },
    {
      "inputs": [
        {
          "internalType": "uint256",
          "name": "val",
          "type": "uint256"
        }
      ],
      "name": "applyFundsCompound",
      "outputs": [],
      "stateMutability": "nonpayable",
      "type": "function"
    },
    {
      "inputs": [],
      "name": "appliedDAICompound",
      "outputs": [
        {
          "internalType": "uint256",
          "name": "",
          "type": "uint256"
        }
      ],
      "stateMutability": "view",
      "type": "function"
    },
    {
      "inputs": [
        {
          "internalType": "uint256",
          "name": "val",
          "type": "uint256"
        }
      ],
      "name": "recoverFundsCompound",
      "outputs": [],
      "stateMutability": "nonpayable",
      "type": "function"
    },
    {
      "inputs": [
        {
          "internalType": "uint256",
          "name": "val",
          "type": "uint256"
        }
      ],
      "name": "applyFundsAave",
      "outputs": [],
      "stateMutability": "nonpayable",
      "type": "function"
    },
    {
      "inputs": [],
      "name": "appliedDAIAave",
      "outputs": [
        {
          "internalType": "uint256",
          "name": "",
          "type": "uint256"
        }
      ],
      "stateMutability": "view",
      "type": "function"
    },
    {
      "inputs": [
        {
          "internalType": "uint256",
          "name": "val",
          "type": "uint256"
        }
      ],
      "name": "recoverFundsAave",
      "outputs": [],
      "stateMutability": "nonpayable",
      "type": "function"
    },
    {
      "inputs": [
        {
          "internalType": "bool",
          "name": "state",
          "type": "bool"
        }
      ],
      "name": "setAaveMarketCollateralForDAI",
      "outputs": [],
      "stateMutability": "nonpayable",
      "type": "function"
    },
    {
      "inputs": [
        {
          "internalType": "address",
          "name": "token",
          "type": "address"
        },
        {
          "internalType": "bool",
          "name": "state",
          "type": "bool"
        }
      ],
      "name": "setAaveMarketCollateral",
      "outputs": [],
      "stateMutability": "nonpayable",
      "type": "function"
    },
    {
      "inputs": [],
      "name": "enterCompoundDAIMarket",
      "outputs": [],
      "stateMutability": "nonpayable",
      "type": "function"
    },
    {
      "inputs": [
        {
          "internalType": "address",
          "name": "token",
          "type": "address"
        }
      ],
      "name": "enterCompoundMarket",
      "outputs": [],
      "stateMutability": "nonpayable",
      "type": "function"
    },
    {
      "inputs": [],
      "name": "exitCompoundDAIMarket",
      "outputs": [],
      "stateMutability": "nonpayable",
      "type": "function"
    },
    {
      "inputs": [
        {
          "internalType": "address",
          "name": "token",
          "type": "address"
        }
      ],
      "name": "exitCompoundMarket",
      "outputs": [],
      "stateMutability": "nonpayable",
      "type": "function"
    },
    {
      "inputs": [],
      "name": "getCompoundLiquidityAndShortfall",
      "outputs": [
        {
          "internalType": "uint256",
          "name": "",
          "type": "uint256"
        },
        {
          "internalType": "uint256",
          "name": "",
          "type": "uint256"
        }
      ],
      "stateMutability": "view",
      "type": "function"
    },
    {
      "inputs": [
        {
          "internalType": "address",
          "name": "cToken",
          "type": "address"
        }
      ],
      "name": "getCompoundPriceInWEI",
      "outputs": [
        {
          "internalType": "uint256",
          "name": "",
          "type": "uint256"
        }
      ],
      "stateMutability": "view",
      "type": "function"
    },
    {
      "inputs": [
        {
          "internalType": "address",
          "name": "cToken",
          "type": "address"
        }
      ],
      "name": "getCompoundMaxBorrowInWEI",
      "outputs": [
        {
          "internalType": "uint256",
          "name": "",
          "type": "uint256"
        }
      ],
      "stateMutability": "view",
      "type": "function"
    },
    {
      "inputs": [
        {
          "internalType": "address",
          "name": "cToken",
          "type": "address"
        },
        {
          "internalType": "uint256",
          "name": "val",
          "type": "uint256"
        }
      ],
      "name": "compoundBorrow",
      "outputs": [],
      "stateMutability": "nonpayable",
      "type": "function"
    },
    {
      "inputs": [
        {
          "internalType": "address",
          "name": "cToken",
          "type": "address"
        }
      ],
      "name": "compoundGetBorrow",
      "outputs": [
        {
          "internalType": "uint256",
          "name": "",
          "type": "uint256"
        }
      ],
      "stateMutability": "view",
      "type": "function"
    },
    {
      "inputs": [
        {
          "internalType": "address",
          "name": "token",
          "type": "address"
        },
        {
          "internalType": "address",
          "name": "cToken",
          "type": "address"
        },
        {
          "internalType": "uint256",
          "name": "val",
          "type": "uint256"
        }
      ],
      "name": "compoundRepayBorrow",
      "outputs": [],
      "stateMutability": "nonpayable",
      "type": "function"
    },
    {
      "inputs": [
        {
          "internalType": "address",
          "name": "token",
          "type": "address"
        },
        {
          "internalType": "uint256",
          "name": "val",
          "type": "uint256"
        },
        {
          "internalType": "bool",
          "name": "variableRate",
          "type": "bool"
        }
      ],
      "name": "aaveGetBorrow",
      "outputs": [],
      "stateMutability": "nonpayable",
      "type": "function"
    },
    {
      "inputs": [
        {
          "internalType": "address",
          "name": "token",
          "type": "address"
        },
        {
          "internalType": "uint256",
          "name": "val",
          "type": "uint256"
        }
      ],
      "name": "aaveRepayBorrow",
      "outputs": [],
      "stateMutability": "nonpayable",
      "type": "function"
    },
    {
      "inputs": [
        {
          "internalType": "address",
          "name": "token",
          "type": "address"
        }
      ],
      "name": "aaveSwapBorrowRateMode",
      "outputs": [],
      "stateMutability": "nonpayable",
      "type": "function"
    },
    {
      "inputs": [
        {
          "internalType": "uint256",
          "name": "val",
          "type": "uint256"
        }
      ],
      "name": "increaseOperationalBudget",
      "outputs": [],
      "stateMutability": "nonpayable",
      "type": "function"
    },
    {
      "inputs": [
        {
          "internalType": "address",
          "name": "to",
          "type": "address"
        },
        {
          "internalType": "uint256",
          "name": "val",
          "type": "uint256"
        }
      ],
      "name": "spendBudget",
      "outputs": [],
      "stateMutability": "nonpayable",
      "type": "function"
    },
    {
      "inputs": [
        {
          "internalType": "address",
          "name": "studentApplication",
          "type": "address"
        },
        {
          "internalType": "uint256",
          "name": "price",
          "type": "uint256"
        }
      ],
      "name": "giveGrant",
      "outputs": [],
      "stateMutability": "nonpayable",
      "type": "function"
    },
    {
      "inputs": [
        {
          "internalType": "uint256",
          "name": "val",
          "type": "uint256"
        }
      ],
      "name": "reinvestReturns",
      "outputs": [],
      "stateMutability": "nonpayable",
      "type": "function"
    },
    {
      "inputs": [
        {
          "internalType": "address",
          "name": "grantsManager",
          "type": "address"
        }
      ],
      "name": "viewAllStudentsFromGrantManager",
      "outputs": [
        {
          "internalType": "address[]",
          "name": "",
          "type": "address[]"
        }
      ],
      "stateMutability": "nonpayable",
      "type": "function"
    },
    {
      "inputs": [
        {
          "internalType": "address",
          "name": "student",
          "type": "address"
        },
        {
          "internalType": "address",
          "name": "grantsManager",
          "type": "address"
        }
      ],
      "name": "viewAllStudentGrantsFromGrantManager",
      "outputs": [
        {
          "internalType": "uint256[]",
          "name": "",
          "type": "uint256[]"
        }
      ],
      "stateMutability": "nonpayable",
      "type": "function"
    },
    {
      "inputs": [
        {
          "components": [
            {
              "internalType": "address",
              "name": "target",
              "type": "address"
            },
            {
              "internalType": "bytes",
              "name": "encodedFunction",
              "type": "bytes"
            },
            {
              "components": [
                {
                  "internalType": "uint256",
                  "name": "gasLimit",
                  "type": "uint256"
                },
                {
                  "internalType": "uint256",
                  "name": "gasPrice",
                  "type": "uint256"
                },
                {
                  "internalType": "uint256",
                  "name": "pctRelayFee",
                  "type": "uint256"
                },
                {
                  "internalType": "uint256",
                  "name": "baseRelayFee",
                  "type": "uint256"
                }
              ],
              "internalType": "struct GSNTypes.GasData",
              "name": "gasData",
              "type": "tuple"
            },
            {
              "components": [
                {
                  "internalType": "address",
                  "name": "senderAddress",
                  "type": "address"
                },
                {
                  "internalType": "uint256",
                  "name": "senderNonce",
                  "type": "uint256"
                },
                {
                  "internalType": "address",
                  "name": "relayWorker",
                  "type": "address"
                },
                {
                  "internalType": "address",
                  "name": "paymaster",
                  "type": "address"
                }
              ],
              "internalType": "struct GSNTypes.RelayData",
              "name": "relayData",
              "type": "tuple"
            }
          ],
          "internalType": "struct GSNTypes.RelayRequest",
          "name": "relayRequest",
          "type": "tuple"
        },
        {
          "internalType": "bytes",
          "name": "",
          "type": "bytes"
        },
        {
          "internalType": "uint256",
          "name": "",
          "type": "uint256"
        }
      ],
      "name": "acceptRelayedCall",
      "outputs": [
        {
          "internalType": "bytes",
          "name": "context",
          "type": "bytes"
        }
      ],
      "stateMutability": "pure",
      "type": "function"
    },
    {
      "inputs": [
        {
          "internalType": "uint256",
          "name": "val",
          "type": "uint256"
        }
      ],
      "name": "refillUniversityRelayer",
      "outputs": [],
      "stateMutability": "nonpayable",
      "type": "function"
    },
    {
      "inputs": [
        {
          "internalType": "uint256",
          "name": "amount",
          "type": "uint256"
        },
        {
          "internalType": "uint256",
          "name": "deadline",
          "type": "uint256"
        }
      ],
      "name": "swapDAI_ETH",
      "outputs": [
        {
          "internalType": "uint256[]",
          "name": "amounts",
          "type": "uint256[]"
        }
      ],
      "stateMutability": "nonpayable",
      "type": "function"
    },
    {
      "inputs": [
        {
          "internalType": "uint256",
          "name": "amount",
          "type": "uint256"
        },
        {
          "internalType": "uint256",
          "name": "deadline",
          "type": "uint256"
        }
      ],
      "name": "swapETH_DAI",
      "outputs": [
        {
          "internalType": "uint256[]",
          "name": "amounts",
          "type": "uint256[]"
        }
      ],
      "stateMutability": "nonpayable",
      "type": "function"
    },
    {
      "inputs": [
        {
          "internalType": "uint256",
          "name": "donation",
          "type": "uint256"
        }
      ],
      "name": "donateETH",
      "outputs": [],
      "stateMutability": "payable",
      "type": "function"
    },
    {
      "inputs": [
        {
          "internalType": "uint256",
          "name": "donation",
          "type": "uint256"
        }
      ],
      "name": "donateDAI",
      "outputs": [],
      "stateMutability": "nonpayable",
      "type": "function"
    },
    {
      "inputs": [
        {
          "internalType": "uint256",
          "name": "revenue",
          "type": "uint256"
        }
      ],
      "name": "accountRevenue",
      "outputs": [],
      "stateMutability": "nonpayable",
      "type": "function"
    }
  ],
  "bytecode": "0x60806040523480156200001157600080fd5b5060405162005c1f38038062005c1f83398101604081905262000034916200036c565b6000620000496001600160e01b036200017316565b600080546001600160a01b0319166001600160a01b0383169081178255604051929350917f8be0079c531659141344cd1fd0a4f28419497f9722a3daafe3b4186f6b6457e0908290a35060038890556004805462ffffff191662ffffff89161790556005869055620000cf6000620000c062000173565b6001600160e01b036200017716565b6200010c604051620000e1906200040f565b604051908190039020620000fd6001600160e01b036200017316565b6001600160e01b036200019016565b601980546001600160a01b03199081166001600160a01b0397881617909155601a8054821695871695909517909455601b8054851693861693909317909255601c80548416918516919091179055601d805490921692169190911790555062000487915050565b3390565b6200018c82826001600160e01b03620001f116565b5050565b600082815260016020526040902060020154620001c990620001ba6001600160e01b036200017316565b6001600160e01b036200027516565b620001775760405162461bcd60e51b8152600401620001e89062000438565b60405180910390fd5b60008281526001602090815260409091206200021891839062004097620002a4821b17901c565b156200018c57620002316001600160e01b036200017316565b6001600160a01b0316816001600160a01b0316837f2f8788117e7eff1d82e926ec794901d17c78024a50270940304540a733656f0d60405160405180910390a45050565b600082815260016020908152604082206200029b91849062003dc9620002c4821b17901c565b90505b92915050565b60006200029b836001600160a01b0384166001600160e01b03620002e416565b60006200029b836001600160a01b0384166001600160e01b036200033c16565b6000620002fb83836001600160e01b036200033c16565b62000333575081546001818101845560008481526020808220909301849055845484825282860190935260409020919091556200029e565b5060006200029e565b60009081526001919091016020526040902054151590565b80516001600160a01b03811681146200029e57600080fd5b600080600080600080600080610100898b03121562000389578384fd5b88519750602089015162ffffff81168114620003a3578485fd5b60408a01519097509550620003bc8a60608b0162000354565b9450620003cd8a60808b0162000354565b9350620003de8a60a08b0162000354565b9250620003ef8a60c08b0162000354565b9150620004008a60e08b0162000354565b90509295985092959890939650565b7f524541445f53545544454e545f4c4953545f524f4c4500000000000000000000815260160190565b6020808252602f908201527f416363657373436f6e74726f6c3a2073656e646572206d75737420626520616e60408201526e0818591b5a5b881d1bc819dc985b9d608a1b606082015260800190565b61578880620004976000396000f3fe6080604052600436106105da5760003560e01c806385dade6111610301578063c2b94cd81161019a578063d547741f116100ec578063ef5450ba11610095578063f686484a1161006f578063f686484a14610fd0578063fa8e506014610ff0578063ff5d8f63146110105761061a565b8063ef5450ba14610f7b578063f2fde38b14610f9b578063f676f43d14610fbb5761061a565b8063e37dd980116100c6578063e37dd98014610f19578063e6fd604c14610f39578063e770d7d414610f5b5761061a565b8063d547741f14610eb9578063db85d2a414610ed9578063e1ba859714610ef95761061a565b8063cb0ce4171161014e578063cef600d711610128578063cef600d714610e64578063d24f8cdd14610e79578063d3c5704e14610e995761061a565b8063cb0ce41714610e0f578063cb4e560114610e2f578063ce1b815f14610e4f5761061a565b8063c4707a831161017f578063c4707a8314610dba578063c799f5e214610dcf578063ca15c87314610def5761061a565b8063c2b94cd814610d7a578063c45e108a14610d9a5761061a565b80639fd6cb7a11610253578063ab83f98a11610207578063bb9f7b5c116101e1578063bb9f7b5c14610d30578063be22f54614610d50578063be61437914610d655761061a565b8063ab83f98a14610cd0578063adcceca414610ce3578063b1ed031f14610d035761061a565b8063a217fddf11610238578063a217fddf14610c7b578063a544594e14610c90578063a9edd44514610cb05761061a565b80639fd6cb7a14610c51578063a026dcc214610c665761061a565b80638ff2f762116102b55780639b5dbe781161028f5780639b5dbe7814610bfc5780639e1fcfde14610c1c5780639e93d0e414610c315761061a565b80638ff2f76214610b9c5780639010d07c14610bbc57806391d1485414610bdc5761061a565b8063898855ed116102e6578063898855ed14610b525780638a9f5b7f14610b725780638da5cb5b14610b875761061a565b806385dade6114610b1257806387bfe18814610b325761061a565b806346fcff4c1161047357806364d47731116103c557806372d6b84b1161037957806380359c841161035357806380359c8414610abd5780638038090614610add578063820cd75c14610afd5761061a565b806372d6b84b14610a6857806379b4acff14610a7d5780637fd5c10814610a9d5761061a565b80636beb0c03116103aa5780636beb0c0314610a295780636f6941b914610a3e578063715018a614610a535761061a565b806364d47731146109ff57806365b61b7714610a145761061a565b80635a7dd150116104275780635fe3b567116104015780635fe3b567146109c0578063629bca67146109d55780636408a386146109ea5761061a565b80635a7dd1501461096b5780635b8f96de1461098b5780635caa8e2d146109ab5761061a565b80634884da05116104585780634884da05146109095780634ea962c11461093657806351275dba146109565761061a565b806346fcff4c146108d4578063478ecefb146108e95761061a565b8063248a9ca31161052c57806331eeae25116104e057806336568abe116104ba57806336568abe14610874578063377ef77f146108945780633dc3214b146108b45761061a565b806331eeae251461081f57806332636ac91461083f5780633593aad6146108545761061a565b8063284755181161051157806328475518146107d5578063289c5e54146107ea5780632f2ff15d146107ff5761061a565b8063248a9ca3146107935780632630c12f146107b35761061a565b80631749201c1161058e5780631ec1f9f3116105685780631ec1f9f31461073157806321ae321114610746578063238aaf2f146107665761061a565b80631749201c146106dc57806317b1a4cf146106fc578063183b2600146107115761061a565b8063139de731116105bf578063139de7311461066d57806314a2a3071461068f57806316ded1ce146106af5761061a565b806306fdde031461061f57806308186df91461064a5761061a565b3661061a577f60e4c1ac84c9e2c4c0aa82b86b3b1ddf0b1b73fbbeb74c8bc8f8f06041ccfdf63334604051610610929190614965565b60405180910390a1005b600080fd5b34801561062b57600080fd5b50610634611030565b6040516106419190614ab0565b60405180910390f35b34801561065657600080fd5b5061065f611036565b604051610641929190615660565b34801561067957600080fd5b5061068d61068836600461436b565b61114b565b005b34801561069b57600080fd5b5061068d6106aa366004614271565b6111f7565b3480156106bb57600080fd5b506106cf6106ca366004614271565b6112a0565b6040516106419190614aa5565b3480156106e857600080fd5b506106346106f7366004614271565b6112f0565b34801561070857600080fd5b50610634611397565b34801561071d57600080fd5b5061068d61072c3660046142a9565b61139d565b34801561073d57600080fd5b50610634611406565b34801561075257600080fd5b5061068d61076136600461445b565b61140c565b34801561077257600080fd5b506107866107813660046142a9565b6114d3565b6040516106419190614a61565b34801561079f57600080fd5b506106346107ae36600461461c565b61159b565b3480156107bf57600080fd5b506107c86115b0565b6040516106419190614951565b3480156107e157600080fd5b506107c86115bf565b3480156107f657600080fd5b506107c86115ce565b34801561080b57600080fd5b5061068d61081a366004614634565b611651565b34801561082b57600080fd5b5061068d61083a366004614271565b611699565b34801561084b57600080fd5b50610634611780565b34801561086057600080fd5b5061068d61086f36600461461c565b611797565b34801561088057600080fd5b5061068d61088f366004614634565b61181d565b3480156108a057600080fd5b5061068d6108af36600461461c565b61185f565b3480156108c057600080fd5b506107866108cf366004614658565b611925565b3480156108e057600080fd5b50610634611998565b3480156108f557600080fd5b5061068d61090436600461461c565b611a74565b34801561091557600080fd5b50610929610924366004614271565b611b14565b6040516106419190614a4e565b34801561094257600080fd5b506107c8610951366004614398565b611bb8565b34801561096257600080fd5b50610634611c02565b34801561097757600080fd5b506107c861098636600461461c565b611c08565b34801561099757600080fd5b5061068d6109a63660046142e1565b611c1b565b3480156109b757600080fd5b5061068d611c8f565b3480156109cc57600080fd5b506107c8611ca6565b3480156109e157600080fd5b50610634611cb5565b3480156109f657600080fd5b50610929611cc1565b348015610a0b57600080fd5b50610634611cd3565b348015610a2057600080fd5b506107c8611cdf565b348015610a3557600080fd5b50610634611cee565b348015610a4a57600080fd5b506107c8611cf4565b348015610a5f57600080fd5b5061068d611d03565b348015610a7457600080fd5b50610634611d82565b348015610a8957600080fd5b5061068d610a983660046145e4565b611e1c565b348015610aa957600080fd5b506107c8610ab8366004614398565b611e35565b348015610ac957600080fd5b5061068d610ad836600461432b565b611fb9565b348015610ae957600080fd5b5061068d610af836600461461c565b612128565b348015610b0957600080fd5b506106346121b9565b348015610b1e57600080fd5b506106cf610b2d366004614271565b6121c5565b348015610b3e57600080fd5b5061068d610b4d366004614428565b6121d6565b348015610b5e57600080fd5b5061068d610b6d36600461461c565b612246565b348015610b7e57600080fd5b506106346122bb565b348015610b9357600080fd5b506107c86122c7565b348015610ba857600080fd5b506107c8610bb736600461461c565b6122d6565b348015610bc857600080fd5b506107c8610bd7366004614658565b612355565b348015610be857600080fd5b506106cf610bf7366004614634565b612373565b348015610c0857600080fd5b5061068d610c1736600461461c565b612391565b348015610c2857600080fd5b5061068d61242b565b348015610c3d57600080fd5b5061068d610c4c36600461461c565b612440565b348015610c5d57600080fd5b5061063461249b565b348015610c7257600080fd5b506106346124a7565b348015610c8757600080fd5b50610634612556565b348015610c9c57600080fd5b5061068d610cab36600461461c565b61255b565b348015610cbc57600080fd5b5061068d610ccb366004614271565b6125df565b61068d610cde36600461461c565b612721565b348015610cef57600080fd5b50610634610cfe366004614271565b6127a2565b348015610d0f57600080fd5b50610d23610d1e366004614679565b612864565b6040516106419190614b3b565b348015610d3c57600080fd5b5061068d610d4b36600461445b565b612949565b348015610d5c57600080fd5b506107c8612aed565b348015610d7157600080fd5b50610634612afc565b348015610d8657600080fd5b5061068d610d9536600461445b565b612b08565b348015610da657600080fd5b5061068d610db53660046142e1565b612b95565b348015610dc657600080fd5b50610634612c09565b348015610ddb57600080fd5b5061068d610dea366004614271565b612c15565b348015610dfb57600080fd5b50610634610e0a36600461461c565b612e75565b348015610e1b57600080fd5b50610786610e2a366004614658565b612e8c565b348015610e3b57600080fd5b5061068d610e4a36600461445b565b612eff565b348015610e5b57600080fd5b506107c8613046565b348015610e7057600080fd5b50610634613055565b348015610e8557600080fd5b50610634610e94366004614271565b613086565b348015610ea557600080fd5b50610929610eb4366004614271565b613098565b348015610ec557600080fd5b5061068d610ed4366004614634565b61315b565b348015610ee557600080fd5b5061068d610ef4366004614486565b613195565b348015610f0557600080fd5b50610634610f14366004614271565b61325a565b348015610f2557600080fd5b506107c8610f3436600461461c565b61328b565b348015610f4557600080fd5b50610f4e6132b2565b6040516106419190615614565b348015610f6757600080fd5b5061068d610f76366004614716565b6132bd565b348015610f8757600080fd5b5061068d610f9636600461461c565b61333b565b348015610fa757600080fd5b5061068d610fb6366004614271565b613375565b348015610fc757600080fd5b5061063461342b565b348015610fdc57600080fd5b5061068d610feb36600461461c565b613431565b348015610ffc57600080fd5b5061068d61100b36600461461c565b6134a5565b34801561101c57600080fd5b5061068d61102b366004614428565b6134f9565b60035481565b600080611058604051611048906148ad565b6040518091039020610bf7613569565b61107d5760405162461bcd60e51b815260040161107490614d64565b60405180910390fd5b6013546040517f5ec88c79000000000000000000000000000000000000000000000000000000008152600091829182916001600160a01b031690635ec88c79906110cb903090600401614951565b60606040518083038186803b1580156110e357600080fd5b505afa1580156110f7573d6000803e3d6000fd5b505050506040513d601f19601f8201168201806040525081019061111b9190614751565b925092509250826000146111415760405162461bcd60e51b815260040161107490614ee7565b9093509150509091565b61115a604051611048906148ad565b6111765760405162461bcd60e51b815260040161107490614d64565b6016546040517f5a3b74b90000000000000000000000000000000000000000000000000000000081526001600160a01b0390911690635a3b74b9906111c190859085906004016149a2565b600060405180830381600087803b1580156111db57600080fd5b505af11580156111ef573d6000803e3d6000fd5b505050505050565b611206604051611048906148ad565b6112225760405162461bcd60e51b815260040161107490614d64565b6016546040517f48ca13000000000000000000000000000000000000000000000000000000000081526001600160a01b03909116906348ca13009061126b908490600401614951565b600060405180830381600087803b15801561128557600080fd5b505af1158015611299573d6000803e3d6000fd5b5050505050565b60006112b160405161104890614809565b6112cd5760405162461bcd60e51b815260040161107490614caa565b6112ea6040516112dc90614832565b604051809103902083612373565b92915050565b6000806112fb611036565b5060145460405163fc57d4df60e01b8152919250611390916001600160a01b039091169063fc57d4df90611333908790600401614951565b60206040518083038186803b15801561134b57600080fd5b505afa15801561135f573d6000803e3d6000fd5b505050506040513d601f19601f820116820180604052508101906113839190614739565b829063ffffffff61356d16565b9392505050565b600e5481565b6113ac6040516110489061485b565b6113c85760405162461bcd60e51b81526004016110749061514c565b6001600160a01b0391821660009081526008602090815260408220805460018101825590835291200180546001600160a01b03191691909216179055565b600d5481565b61141b604051611048906148ad565b6114375760405162461bcd60e51b815260040161107490614d64565b6040517fc5ebeaec0000000000000000000000000000000000000000000000000000000081526001600160a01b0383169063c5ebeaec9061147c908490600401614ab0565b602060405180830381600087803b15801561149657600080fd5b505af11580156114aa573d6000803e3d6000fd5b505050506040513d601f19601f820116820180604052508101906114ce9190614739565b505050565b60606114e460405161104890614928565b6115005760405162461bcd60e51b815260040161107490615352565b6040517fe60d0f4a0000000000000000000000000000000000000000000000000000000081526001600160a01b0383169063e60d0f4a90611545908690600401614951565b600060405180830381600087803b15801561155f57600080fd5b505af1158015611573573d6000803e3d6000fd5b505050506040513d6000823e601f3d908101601f19168201604052611390919081019061455d565b60009081526001602052604090206002015490565b6014546001600160a01b031681565b601a546001600160a01b031681565b6000601836108015906115f957506115e4613046565b6001600160a01b0316336001600160a01b0316145b1561164b576116446000368080601f01602080910402602001604051908101604052809392919081815260200183838082843760009201919091525050601319360191506135af9050565b905061164e565b50335b90565b60008281526001602052604090206002015461166f90610bf7613569565b61168b5760405162461bcd60e51b815260040161107490614bf0565b61169582826135c0565b5050565b6116a8604051611048906148ad565b6116c45760405162461bcd60e51b815260040161107490614d64565b6013546040517fede4edd00000000000000000000000000000000000000000000000000000000081526000916001600160a01b03169063ede4edd09061170e908590600401614951565b602060405180830381600087803b15801561172857600080fd5b505af115801561173c573d6000803e3d6000fd5b505050506040513d601f19601f820116820180604052508101906117609190614739565b905080156116955760405162461bcd60e51b8152600401611074906151a9565b60405161178c90614832565b604051809103902081565b61179f613569565b6000546001600160a01b039081169116146117cc5760405162461bcd60e51b815260040161107490615263565b80600d5410156117ee5760405162461bcd60e51b815260040161107490614dc1565b600e54611801908263ffffffff61362f16565b600e55600d54611817908263ffffffff61365416565b600d5550565b611825613569565b6001600160a01b0316816001600160a01b0316146118555760405162461bcd60e51b8152600401611074906155b7565b6116958282613696565b61186e604051611048906148ad565b61188a5760405162461bcd60e51b815260040161107490614d64565b6012546040517f852a12e30000000000000000000000000000000000000000000000000000000081526001600160a01b039091169063852a12e3906118d3908490600401614ab0565b602060405180830381600087803b1580156118ed57600080fd5b505af1158015611901573d6000803e3d6000fd5b505050506040513d601f19601f820116820180604052508101906116959190614739565b6060611936604051611048906148ad565b6119525760405162461bcd60e51b815260040161107490614d64565b600f546001600160a01b031661197a5760405162461bcd60e51b815260040161107490615523565b600f54601054611390916001600160a01b0390811691168585613705565b6019546040516370a0823160e01b815260009182916001600160a01b03909116906370a08231906119cd903090600401614951565b60206040518083038186803b1580156119e557600080fd5b505afa1580156119f9573d6000803e3d6000fd5b505050506040513d601f19601f82011682018060405250810190611a1d9190614739565b9050611a36600e54600d5461362f90919063ffffffff16565b811015611a4757600091505061164e565b611a6e600e54611a62600d548461365490919063ffffffff16565b9063ffffffff61365416565b91505090565b611a83604051611048906148ad565b80611aad5750611a916122c7565b6001600160a01b0316611aa2613569565b6001600160a01b0316145b611ac95760405162461bcd60e51b815260040161107490614d64565b601a5460405163aa67c91960e01b81526001600160a01b039091169063aa67c919908390611afb903090600401614951565b6000604051808303818588803b1580156111db57600080fd5b6060611b2560405161104890614928565b611b415760405162461bcd60e51b815260040161107490615352565b816001600160a01b03166369e7af436040518163ffffffff1660e01b8152600401600060405180830381600087803b158015611b7c57600080fd5b505af1158015611b90573d6000803e3d6000fd5b505050506040513d6000823e601f3d908101601f191682016040526112ea91908101906144bc565b6000611bc960405161104890614884565b611be55760405162461bcd60e51b815260040161107490614fd8565b611bf5898989898989898961383b565b9998505050505050505050565b600c5481565b60006112ea82611c16613569565b613a5f565b611c23613569565b6000546001600160a01b03908116911614611c505760405162461bcd60e51b815260040161107490615263565b600f80546001600160a01b039485166001600160a01b031991821617909155601080549385169382169390931790925560118054919093169116179055565b601254611ca4906001600160a01b03166125df565b565b6013546001600160a01b031681565b60405161178c906148d6565b6060611cce610eb4613569565b905090565b60405161178c906148ff565b6011546001600160a01b031681565b600b5481565b6012546001600160a01b031681565b611d0b613569565b6000546001600160a01b03908116911614611d385760405162461bcd60e51b815260040161107490615263565b600080546040516001600160a01b03909116907f8be0079c531659141344cd1fd0a4f28419497f9722a3daafe3b4186f6b6457e0908390a3600080546001600160a01b0319169055565b6012546040517f3af9e6690000000000000000000000000000000000000000000000000000000081526000916001600160a01b031690633af9e66990611dcc903090600401614951565b60206040518083038186803b158015611de457600080fd5b505afa158015611df8573d6000803e3d6000fd5b505050506040513d601f19601f82011682018060405250810190611cce9190614739565b601954611e32906001600160a01b03168261114b565b50565b6000611e4660405161104890614832565b611e625760405162461bcd60e51b815260040161107490615092565b611e73611e6d613569565b8a613c52565b611e8f5760405162461bcd60e51b815260040161107490614f44565b6000899050806001600160a01b0316636587b61e6040518163ffffffff1660e01b815260040160206040518083038186803b158015611ecd57600080fd5b505afa158015611ee1573d6000803e3d6000fd5b505050506040513d601f19601f82011682018060405250810190611f059190614739565b600314611f245760405162461bcd60e51b815260040161107490615469565b611fab611f2f613569565b6001600160a01b0316637a6c8b536040518163ffffffff1660e01b815260040160206040518083038186803b158015611f6757600080fd5b505afa158015611f7b573d6000803e3d6000fd5b505050506040513d601f19601f82011682018060405250810190611f9f919061428d565b8a8a8a8a8a8a8a61383b565b9a9950505050505050505050565b611fc8604051611048906148ad565b611fe45760405162461bcd60e51b815260040161107490614d64565b6040516370a0823160e01b815281906001600160a01b038516906370a0823190612012903090600401614951565b60206040518083038186803b15801561202a57600080fd5b505afa15801561203e573d6000803e3d6000fd5b505050506040513d601f19601f820116820180604052508101906120629190614739565b10156120805760405162461bcd60e51b815260040161107490615035565b61208b838383613cd6565b6040517f0e7527020000000000000000000000000000000000000000000000000000000081526001600160a01b03831690630e752702906120d0908490600401614ab0565b602060405180830381600087803b1580156120ea57600080fd5b505af11580156120fe573d6000803e3d6000fd5b505050506040513d601f19601f820116820180604052508101906121229190614739565b50505050565b612137604051611048906148ad565b6121535760405162461bcd60e51b815260040161107490614d64565b601954601254612170916001600160a01b03908116911683613cd6565b6012546040517fa0712d680000000000000000000000000000000000000000000000000000000081526001600160a01b039091169063a0712d68906118d3908490600401614ab0565b60405161178c90614884565b60006112ea6040516112dc9061485b565b6121e56040516110489061485b565b6122015760405162461bcd60e51b81526004016110749061514c565b6040517faa4f38c70000000000000000000000000000000000000000000000000000000081526001600160a01b0383169063aa4f38c7906111c1908490600401614b4e565b61224e613569565b6000546001600160a01b0390811691161461227b5760405162461bcd60e51b815260040161107490615263565b60038190556040517f9f8929be552430dd6434c446d106c34954b2040ca8c4dbf42a39323dd6cda3ca906122b0908390614ab0565b60405180910390a150565b60405161178c9061485b565b6000546001600160a01b031690565b6000806122e583611c166115ce565b601a5460055460405163aa67c91960e01b81529293506001600160a01b039091169163aa67c919919061231c908590600401614951565b6000604051808303818588803b15801561233557600080fd5b505af1158015612349573d6000803e3d6000fd5b50939695505050505050565b6000828152600160205260408120611390908363ffffffff613dbd16565b6000828152600160205260408120611390908363ffffffff613dc916565b6123a0604051611048906148ad565b6123bc5760405162461bcd60e51b815260040161107490614d64565b6019546017546123d9916001600160a01b03908116911683613cd6565b6016546019546040517fd2d0e0660000000000000000000000000000000000000000000000000000000081526001600160a01b039283169263d2d0e0669261126b9291169085906000906004016149fc565b601254611ca4906001600160a01b0316611699565b61244f604051611048906148ad565b61246b5760405162461bcd60e51b815260040161107490614d64565b80612474611998565b10156124925760405162461bcd60e51b815260040161107490614e53565b611e3281613dde565b60405161178c90614809565b6019546040516370a0823160e01b815260009182916001600160a01b03909116906370a08231906124dc903090600401614951565b60206040518083038186803b1580156124f457600080fd5b505afa158015612508573d6000803e3d6000fd5b505050506040513d601f19601f8201168201806040525081019061252c9190614739565b9050600e5481101561254257600091505061164e565b600e54611a6e90829063ffffffff61365416565b600081565b60195461257a906001600160a01b0316612573613569565b3084613e32565b6125b0816009600061258a613569565b6001600160a01b031681526020810191909152604001600020549063ffffffff61362f16565b600960006125bc613569565b6001600160a01b03168152602081019190915260400160002055611e3281613f1b565b6125ee604051611048906148ad565b61260a5760405162461bcd60e51b815260040161107490614d64565b60408051600180825281830190925260609160208083019080368337019050509050818160008151811061263a57fe5b6001600160a01b0392831660209182029290920101526013546040517fc2998238000000000000000000000000000000000000000000000000000000008152606092919091169063c299823890612695908590600401614a4e565b600060405180830381600087803b1580156126af57600080fd5b505af11580156126c3573d6000803e3d6000fd5b505050506040513d6000823e601f3d908101601f191682016040526126eb919081019061455d565b9050806000815181106126fa57fe5b60200260200101516000146114ce5760405162461bcd60e51b8152600401611074906153af565b606061272f8261a8c0611925565b90506127558160018151811061274157fe5b60200260200101516009600061258a613569565b60096000612761613569565b6001600160a01b03166001600160a01b03168152602001908152602001600020819055506116958160018151811061279557fe5b6020026020010151613f1b565b60006127b3604051611048906148ad565b6127cf5760405162461bcd60e51b815260040161107490614d64565b6040517f17bfdfbc0000000000000000000000000000000000000000000000000000000081526001600160a01b038316906317bfdfbc90612814903090600401614951565b60206040518083038186803b15801561282c57600080fd5b505afa158015612840573d6000803e3d6000fd5b505050506040513d601f19601f820116820180604052508101906112ea9190614739565b60607f8ff2f762000000000000000000000000000000000000000000000000000000006128d1612897602088018861566e565b8080601f01602080910402602001604051908101604052809392919081815260200183838082843760009201829052509250613f44915050565b7fffffffff0000000000000000000000000000000000000000000000000000000016146129105760405162461bcd60e51b81526004016110749061540c565b61291d6020860186614271565b60006040516020016129309291906149bd565b6040516020818303038152906040529050949350505050565b612958604051611048906148ad565b6129745760405162461bcd60e51b815260040161107490614d64565b6040516370a0823160e01b815281906001600160a01b038416906370a08231906129a2903090600401614951565b60206040518083038186803b1580156129ba57600080fd5b505afa1580156129ce573d6000803e3d6000fd5b505050506040513d601f19601f820116820180604052508101906129f29190614739565b1015612a105760405162461bcd60e51b815260040161107490615035565b612aa082601560009054906101000a90046001600160a01b03166001600160a01b031663ed6ff7606040518163ffffffff1660e01b815260040160206040518083038186803b158015612a6257600080fd5b505afa158015612a76573d6000803e3d6000fd5b505050506040513d601f19601f82011682018060405250810190612a9a919061428d565b83613cd6565b6016546040517f5ceae9c40000000000000000000000000000000000000000000000000000000081526001600160a01b0390911690635ceae9c4906111c1908590859030906004016149d9565b6019546001600160a01b031681565b60405161178c90614928565b612b17604051611048906148ff565b612b335760405162461bcd60e51b8152600401611074906152f5565b80612b3c611998565b1015612b5a5760405162461bcd60e51b815260040161107490614e53565b816001600160a01b0316632d24947b6040518163ffffffff1660e01b8152600401600060405180830381600087803b1580156111db57600080fd5b612b9d613569565b6000546001600160a01b03908116911614612bca5760405162461bcd60e51b815260040161107490615263565b601280546001600160a01b039485166001600160a01b031991821617909155601380549385169382169390931790925560148054919093169116179055565b60405161178c906148ad565b612c1d613569565b6000546001600160a01b03908116911614612c4a5760405162461bcd60e51b815260040161107490615263565b601580546001600160a01b0319166001600160a01b038381169190911791829055604080517f0261bf8b00000000000000000000000000000000000000000000000000000000815290519290911691630261bf8b91600480820192602092909190829003018186803b158015612cbf57600080fd5b505afa158015612cd3573d6000803e3d6000fd5b505050506040513d601f19601f82011682018060405250810190612cf7919061428d565b601680546001600160a01b0319166001600160a01b03928316179055601554604080517fed6ff7600000000000000000000000000000000000000000000000000000000081529051919092169163ed6ff760916004808301926020929190829003018186803b158015612d6957600080fd5b505afa158015612d7d573d6000803e3d6000fd5b505050506040513d601f19601f82011682018060405250810190612da1919061428d565b601780546001600160a01b0319166001600160a01b0392831617908190556019546040517f34b3beee000000000000000000000000000000000000000000000000000000008152918316926334b3beee92612e029290911690600401614951565b60206040518083038186803b158015612e1a57600080fd5b505afa158015612e2e573d6000803e3d6000fd5b505050506040513d601f19601f82011682018060405250810190612e52919061428d565b601880546001600160a01b0319166001600160a01b039290921691909117905550565b60008181526001602052604081206112ea90613f6e565b6060612e9d604051611048906148ad565b612eb95760405162461bcd60e51b815260040161107490614d64565b600f546001600160a01b0316612ee15760405162461bcd60e51b815260040161107490615523565b601054600f54611390916001600160a01b0390811691168585613705565b612f0e604051611048906148ad565b612f2a5760405162461bcd60e51b815260040161107490614d64565b612f396040516112dc906148d6565b612f555760405162461bcd60e51b8152600401611074906154c6565b80600e541015612f775760405162461bcd60e51b815260040161107490615298565b6019546040516370a0823160e01b815282916001600160a01b0316906370a0823190612fa7903090600401614951565b60206040518083038186803b158015612fbf57600080fd5b505afa158015612fd3573d6000803e3d6000fd5b505050506040513d601f19601f82011682018060405250810190612ff79190614739565b10156130155760405162461bcd60e51b815260040161107490614c4d565b60195461302c906001600160a01b03168383613f79565b600e5461303f908263ffffffff61365416565b600e555050565b6002546001600160a01b031690565b6018546040516370a0823160e01b81526000916001600160a01b0316906370a0823190611dcc903090600401614951565b60096020526000908152604090205481565b60606130a2613569565b6001600160a01b0316826001600160a01b031614806130cb57506130cb604051611048906148ff565b6130e75760405162461bcd60e51b8152600401611074906150ef565b6001600160a01b0382166000908152600860209081526040918290208054835181840281018401909452808452909183018282801561314f57602002820191906000526020600020905b81546001600160a01b03168152600190910190602001808311613131575b50505050509050919050565b60008281526001602052604090206002015461317990610bf7613569565b6118555760405162461bcd60e51b815260040161107490615206565b6131a4604051611048906148ad565b6131c05760405162461bcd60e51b815260040161107490614d64565b6000816131ce5760016131d1565b60025b6016546040517fc858f5f90000000000000000000000000000000000000000000000000000000081529192506001600160a01b03169063c858f5f99061322290879087908690600090600401614a21565b600060405180830381600087803b15801561323c57600080fd5b505af1158015613250573d6000803e3d6000fd5b5050505050505050565b60145460405163fc57d4df60e01b81526000916001600160a01b03169063fc57d4df90612814908590600401614951565b6006818154811061329857fe5b6000918252602090912001546001600160a01b0316905081565b60045462ffffff1681565b6132c5613569565b6000546001600160a01b039081169116146132f25760405162461bcd60e51b815260040161107490615263565b6004805462ffffff191662ffffff83811691909117918290556040517f1add5f7de244142e10bca375bb84823e3c24ddac2c2ec678f35c007d8f02084d926122b0921690615614565b613343613569565b6000546001600160a01b039081169116146133705760405162461bcd60e51b815260040161107490615263565b600555565b61337d613569565b6000546001600160a01b039081169116146133aa5760405162461bcd60e51b815260040161107490615263565b6001600160a01b0381166133d05760405162461bcd60e51b815260040161107490614d07565b600080546040516001600160a01b03808516939216917f8be0079c531659141344cd1fd0a4f28419497f9722a3daafe3b4186f6b6457e091a3600080546001600160a01b0319166001600160a01b0392909216919091179055565b600a5481565b613440604051611048906148ad565b61345c5760405162461bcd60e51b815260040161107490614d64565b6018546040517fdb006a750000000000000000000000000000000000000000000000000000000081526001600160a01b039091169063db006a759061126b908490600401614ab0565b6134b46040516110489061485b565b6134d05760405162461bcd60e51b81526004016110749061514c565b600b546134e3908263ffffffff61362f16565b600b55600d54611817908263ffffffff61362f16565b6135086040516110489061485b565b6135245760405162461bcd60e51b81526004016110749061514c565b6040517f686513500000000000000000000000000000000000000000000000000000000081526001600160a01b038316906368651350906111c1908490600401614b4e565b3390565b600061139083836040518060400160405280601a81526020017f536166654d6174683a206469766973696f6e206279207a65726f000000000000815250614060565b01601401516001600160a01b031690565b60008281526001602052604090206135de908263ffffffff61409716565b15611695576135eb613569565b6001600160a01b0316816001600160a01b0316837f2f8788117e7eff1d82e926ec794901d17c78024a50270940304540a733656f0d60405160405180910390a45050565b6000828201838110156113905760405162461bcd60e51b815260040161107490614eb0565b600061139083836040518060400160405280601e81526020017f536166654d6174683a207375627472616374696f6e206f766572666c6f7700008152506140ac565b60008281526001602052604090206136b4908263ffffffff6140d816565b15611695576136c1613569565b6001600160a01b0316816001600160a01b0316837ff6391f5c32d9c69d2a47ea670b442974b53935d1edc7fd64eb21e047a839171b60405160405180910390a45050565b6011546060906137209086906001600160a01b031685613cd6565b6040805160028082526060808301845292602083019080368337019050509050858160008151811061374e57fe5b60200260200101906001600160a01b031690816001600160a01b031681525050848160018151811061377c57fe5b6001600160a01b0392831660209182029290920101526011546040517f38ed17390000000000000000000000000000000000000000000000000000000081529116906338ed1739906137db908790600090869030908a90600401615624565b600060405180830381600087803b1580156137f557600080fd5b505af1158015613809573d6000803e3d6000fd5b505050506040513d6000823e601f3d908101601f19168201604052613831919081019061455d565b9695505050505050565b600080601b60009054906101000a90046001600160a01b03166001600160a01b031663f9a84f968a8a8a8a8a8a308b601960009054906101000a90046001600160a01b0316601260009054906101000a90046001600160a01b0316601d60009054906101000a90046001600160a01b03166040518c63ffffffff1660e01b81526004016138d29b9a99989796959493929190614ad0565b602060405180830381600087803b1580156138ec57600080fd5b505af1158015613900573d6000803e3d6000fd5b505050506040513d601f19601f82011682018060405250810190613924919061428d565b6040517f18b9533b0000000000000000000000000000000000000000000000000000000081529091506001600160a01b038216906318b9533b9061396c908d90600401614951565b600060405180830381600087803b15801561398657600080fd5b505af115801561399a573d6000803e3d6000fd5b5050600680546001810182556000919091527ff652222313e28459528d920b65115c16c04f3efc82aaedc97be59f3f377c0d3f0180546001600160a01b0319166001600160a01b03851617905550506040518190613a09906139fb90614809565b604051809103902082611651565b613a186040516139fb9061485b565b7f0e2441b756c0237af490768eeb52214bde66464d79756f8ac3c03b10c9528b3c8a82604051613a49929190614ab9565b60405180910390a19a9950505050505050505050565b600060086000613a6d6115ce565b6001600160a01b0316815260208101919091526040016000205415613aa45760405162461bcd60e51b815260040161107490614df6565b6001600160a01b038083166000908152600860209081526040808320805460018101825590845291832090910180546001600160a01b0319169055601c5490517f8ebf1d2700000000000000000000000000000000000000000000000000000000815291921690638ebf1d2790613b219087903090600401614ab9565b602060405180830381600087803b158015613b3b57600080fd5b505af1158015613b4f573d6000803e3d6000fd5b505050506040513d601f19601f82011682018060405250810190613b73919061428d565b6040517f18a9e9480000000000000000000000000000000000000000000000000000000081529091506001600160a01b038216906318a9e94890613bbb908690600401614951565b600060405180830381600087803b158015613bd557600080fd5b505af1158015613be9573d6000803e3d6000fd5b5050600780546001810182556000919091527fa66cc928b5edb82af9bd49922954155ab7b0942694bea4ce44661d9a8736c6880180546001600160a01b0319166001600160a01b03851617905550506040518190613c4a906139fb90614832565b949350505050565b6000805b6001600160a01b038416600090815260086020526040902054811015613ccc576001600160a01b03848116600090815260086020526040902080549185169183908110613c9f57fe5b6000918252602090912001546001600160a01b03161415613cc45760019150506112ea565b600101613c56565b5060009392505050565b60006060846001600160a01b031663095ea7b38585604051602401613cfc929190614965565b6040516020818303038152906040529060e01b6020820180516001600160e01b038381831617835250505050604051613d3591906147ed565b6000604051808303816000865af19150503d8060008114613d72576040519150601f19603f3d011682016040523d82523d6000602084013e613d77565b606091505b5091509150818015613da1575080511580613da1575080806020019051810190613da19190614600565b6112995760405162461bcd60e51b815260040161107490614fa1565b600061139083836140ed565b6000611390836001600160a01b038416614132565b613ded6040516110489061485b565b613e095760405162461bcd60e51b81526004016110749061514c565b600b54613e1c908263ffffffff61362f16565b600c55600d54611817908263ffffffff61362f16565b60006060856001600160a01b03166323b872dd868686604051602401613e5a9392919061497e565b6040516020818303038152906040529060e01b6020820180516001600160e01b038381831617835250505050604051613e9391906147ed565b6000604051808303816000865af19150503d8060008114613ed0576040519150601f19603f3d011682016040523d82523d6000602084013e613ed5565b606091505b5091509150818015613eff575080511580613eff575080806020019051810190613eff9190614600565b6111ef5760405162461bcd60e51b81526004016110749061555a565b600a54613f2e908263ffffffff61362f16565b600a55600d54611817908263ffffffff61362f16565b01602001517fffffffff000000000000000000000000000000000000000000000000000000001690565b60006112ea8261414a565b60006060846001600160a01b031663a9059cbb8585604051602401613f9f929190614965565b6040516020818303038152906040529060e01b6020820180516001600160e01b038381831617835250505050604051613fd891906147ed565b6000604051808303816000865af19150503d8060008114614015576040519150601f19603f3d011682016040523d82523d6000602084013e61401a565b606091505b50915091508180156140445750805115806140445750808060200190518101906140449190614600565b6112995760405162461bcd60e51b815260040161107490614bb9565b600081836140815760405162461bcd60e51b81526004016110749190614b3b565b50600083858161408d57fe5b0495945050505050565b6000611390836001600160a01b03841661414e565b600081848411156140d05760405162461bcd60e51b81526004016110749190614b3b565b505050900390565b6000611390836001600160a01b038416614198565b815460009082106141105760405162461bcd60e51b815260040161107490614b5c565b82600001828154811061411f57fe5b9060005260206000200154905092915050565b60009081526001919091016020526040902054151590565b5490565b600061415a8383614132565b614190575081546001818101845560008481526020808220909301849055845484825282860190935260409020919091556112ea565b5060006112ea565b6000818152600183016020526040812054801561425457835460001980830191908101906000908790839081106141cb57fe5b90600052602060002001549050808760000184815481106141e857fe5b60009182526020808320909101929092558281526001898101909252604090209084019055865487908061421857fe5b600190038181906000526020600020016000905590558660010160008781526020019081526020016000206000905560019450505050506112ea565b60009150506112ea565b803562ffffff811681146112ea57600080fd5b600060208284031215614282578081fd5b81356113908161572f565b60006020828403121561429e578081fd5b81516113908161572f565b600080604083850312156142bb578081fd5b82356142c68161572f565b915060208301356142d68161572f565b809150509250929050565b6000806000606084860312156142f5578081fd5b83356143008161572f565b925060208401356143108161572f565b915060408401356143208161572f565b809150509250925092565b60008060006060848603121561433f578283fd5b833561434a8161572f565b9250602084013561435a8161572f565b929592945050506040919091013590565b6000806040838503121561437d578182fd5b82356143888161572f565b915060208301356142d681615744565b600080600080600080600080610100898b0312156143b4578384fd5b88356143bf8161572f565b9750602089013596506143d58a60408b0161425e565b95506143e48a60608b0161425e565b945060808901358060030b81146143f9578485fd5b935060a0890135925060c0890135915060e08901356144178161572f565b809150509295985092959890939650565b6000806040838503121561443a578182fd5b82356144458161572f565b91506020830135600381900b81146142d6578182fd5b6000806040838503121561446d578182fd5b82356144788161572f565b946020939093013593505050565b60008060006060848603121561449a578081fd5b83356144a58161572f565b925060208401359150604084013561432081615744565b600060208083850312156144ce578182fd5b825167ffffffffffffffff8111156144e4578283fd5b80840185601f8201126144f5578384fd5b8051915061450a614505836156e3565b6156bc565b8281528381019082850185850284018601891015614526578687fd5b8693505b8484101561455157805161453d8161572f565b83526001939093019291850191850161452a565b50979650505050505050565b6000602080838503121561456f578182fd5b825167ffffffffffffffff811115614585578283fd5b80840185601f820112614596578384fd5b805191506145a6614505836156e3565b82815283810190828501858502840186018910156145c2578687fd5b8693505b848410156145515780518352600193909301929185019185016145c6565b6000602082840312156145f5578081fd5b813561139081615744565b600060208284031215614611578081fd5b815161139081615744565b60006020828403121561462d578081fd5b5035919050565b60008060408385031215614646578182fd5b8235915060208301356142d68161572f565b6000806040838503121561466a578182fd5b50508035926020909101359150565b6000806000806060858703121561468e578182fd5b843567ffffffffffffffff808211156146a5578384fd5b818701610140818a0312156146b8578485fd5b955060208701359150808211156146cd578384fd5b81870188601f8201126146de578485fd5b80359250818311156146ee578485fd5b8860208483010111156146ff578485fd5b959860209096019750909560400135949350505050565b600060208284031215614727578081fd5b813562ffffff81168114611390578182fd5b60006020828403121561474a578081fd5b5051919050565b600080600060608486031215614765578081fd5b8351925060208401519150604084015190509250925092565b6000815180845260208085019450808401835b838110156147b65781516001600160a01b031687529582019590820190600101614791565b509495945050505050565b600081518084526147d9816020860160208601615703565b601f01601f19169290920160200192915050565b600082516147ff818460208701615703565b9190910192915050565b7f524541445f53545544454e545f4c4953545f524f4c4500000000000000000000815260160190565b7f53545544454e545f4944454e544954595f524f4c450000000000000000000000815260150190565b7f434c415353524f4f4d5f50524f464553534f525f524f4c450000000000000000815260180190565b7f434c4153534c4953545f41444d494e5f524f4c45000000000000000000000000815260140190565b7f46554e44535f4d414e414745525f524f4c450000000000000000000000000000815260120190565b7f524547495354455245445f535550504c4945525f524f4c450000000000000000815260180190565b7f4752414e54535f4d414e414745525f524f4c4500000000000000000000000000815260130190565b7f554e49564552534954595f4f564552534545525f524f4c450000000000000000815260180190565b6001600160a01b0391909116815260200190565b6001600160a01b03929092168252602082015260400190565b6001600160a01b039384168152919092166020820152604081019190915260600190565b6001600160a01b039290921682521515602082015260400190565b6001600160a01b0392909216825260ff16602082015260400190565b6001600160a01b0393841681526020810192909252909116604082015260600190565b6001600160a01b03939093168352602083019190915261ffff16604082015260600190565b6001600160a01b03949094168452602084019290925260ff16604083015261ffff16606082015260800190565b600060208252611390602083018461477e565b6020808252825182820181905260009190848201906040850190845b81811015614a9957835183529284019291840191600101614a7d565b50909695505050505050565b901515815260200190565b90815260200190565b9182526001600160a01b0316602082015260400190565b9a8b5262ffffff998a1660208c01529790981660408a015260039590950b6060890152608088019390935260a08701919091526001600160a01b0390811660c087015290811660e0860152908116610100850152918216610120840152166101408201526101600190565b60006020825261139060208301846147c1565b60039190910b815260200190565b60208082526022908201527f456e756d657261626c655365743a20696e646578206f7574206f6620626f756e60408201527f6473000000000000000000000000000000000000000000000000000000000000606082015260800190565b6020808252601f908201527f5472616e7366657248656c7065723a205452414e534645525f4641494c454400604082015260600190565b6020808252602f908201527f416363657373436f6e74726f6c3a2073656e646572206d75737420626520616e60408201527f2061646d696e20746f206772616e740000000000000000000000000000000000606082015260800190565b6020808252602a908201527f556e69766572736974793a206c697175696461746520736f6d6520706f73697460408201527f696f6e7320666972737400000000000000000000000000000000000000000000606082015260800190565b60208082526036908201527f556e69766572736974793a2063616c6c657220646f65736e277420686176652060408201527f524541445f53545544454e545f4c4953545f524f4c4500000000000000000000606082015260800190565b60208082526026908201527f4f776e61626c653a206e6577206f776e657220697320746865207a65726f206160408201527f6464726573730000000000000000000000000000000000000000000000000000606082015260800190565b60208082526032908201527f556e69766572736974793a2063616c6c657220646f65736e277420686176652060408201527f46554e44535f4d414e414745525f524f4c450000000000000000000000000000606082015260800190565b6020808252818101527f556e69766572736974793a206e6f7420656e6f75676820656e646f776d656e74604082015260600190565b60208082526026908201527f556e69766572736974793a2073747564656e7420616c7265616479207265676960408201527f7374657265640000000000000000000000000000000000000000000000000000606082015260800190565b60208082526026908201527f556e69766572736974793a206e6f7420656e6f75676820617661696c61626c6560408201527f2066756e64730000000000000000000000000000000000000000000000000000606082015260800190565b6020808252601b908201527f536166654d6174683a206164646974696f6e206f766572666c6f770000000000604082015260600190565b60208082526033908201527f556e69766572736974793a20436f6d7074726f6c6c65722e6765744163636f7560408201527f6e744c6971756964697479206661696c65642e00000000000000000000000000606082015260800190565b60208082526035908201527f556e69766572736974793a2063616c6c6572206973206e6f742073747564656e60408201527f74206f662074686973206170706c69636174696f6e0000000000000000000000606082015260800190565b6020808252601e908201527f5472616e7366657248656c7065723a20415050524f56455f4641494c45440000604082015260600190565b60208082526034908201527f556e69766572736974793a2063616c6c657220646f65736e277420686176652060408201527f434c4153534c4953545f41444d494e5f524f4c45000000000000000000000000606082015260800190565b6020808252602b908201527f556e69766572736974793a206e6f7420656e6f756768206f662074686973207460408201527f6f6b656e2073746f726564000000000000000000000000000000000000000000606082015260800190565b60208082526035908201527f556e69766572736974793a2063616c6c657220646f65736e277420686176652060408201527f53545544454e545f4944454e544954595f524f4c450000000000000000000000606082015260800190565b60208082526021908201527f436c617373726f6f6d3a2072656164207065726d697373696f6e2064656e696560408201527f6400000000000000000000000000000000000000000000000000000000000000606082015260800190565b60208082526038908201527f556e69766572736974793a2063616c6c657220646f65736e277420686176652060408201527f434c415353524f4f4d5f50524f464553534f525f524f4c450000000000000000606082015260800190565b6020808252602a908201527f556e69766572736974793a20436f6d7074726f6c6c65722e657869744d61726b60408201527f6574206661696c65642e00000000000000000000000000000000000000000000606082015260800190565b60208082526030908201527f416363657373436f6e74726f6c3a2073656e646572206d75737420626520616e60408201527f2061646d696e20746f207265766f6b6500000000000000000000000000000000606082015260800190565b6020808252818101527f4f776e61626c653a2063616c6c6572206973206e6f7420746865206f776e6572604082015260600190565b60208082526029908201527f556e69766572736974793a206e6f7420656e6f756768206f7065726174696f6e60408201527f616c206275646765740000000000000000000000000000000000000000000000606082015260800190565b60208082526033908201527f556e69766572736974793a2063616c6c657220646f65736e277420686176652060408201527f4752414e54535f4d414e414745525f524f4c4500000000000000000000000000606082015260800190565b60208082526038908201527f556e69766572736974793a2063616c6c657220646f65736e277420686176652060408201527f554e49564552534954595f4f564552534545525f524f4c450000000000000000606082015260800190565b6020808252602c908201527f556e69766572736974793a20436f6d7074726f6c6c65722e656e7465724d617260408201527f6b657473206661696c65642e0000000000000000000000000000000000000000606082015260800190565b6020808252602d908201527f556e69766572736974793a2047534e206e6f7420656e61626c656420666f722060408201527f746869732066756e6374696f6e00000000000000000000000000000000000000606082015260800190565b60208082526029908201527f556e69766572736974793a206170706c69636174696f6e206973206e6f74207360408201527f75636365737366756c0000000000000000000000000000000000000000000000606082015260800190565b6020808252603a908201527f556e69766572736974793a20726563656976657220646f65736e27742068617660408201527f6520524547495354455245445f535550504c4945525f524f4c45000000000000606082015260800190565b6020808252601f908201527f556e69766572736974793a20736574757020756e697377617020666972737400604082015260600190565b60208082526024908201527f5472616e7366657248656c7065723a205452414e534645525f46524f4d5f464160408201527f494c454400000000000000000000000000000000000000000000000000000000606082015260800190565b6020808252602f908201527f416363657373436f6e74726f6c3a2063616e206f6e6c792072656e6f756e636560408201527f20726f6c657320666f722073656c660000000000000000000000000000000000606082015260800190565b62ffffff91909116815260200190565b600086825285602083015260a0604083015261564360a083018661477e565b6001600160a01b0394909416606083015250608001529392505050565b918252602082015260400190565b6000808335601e19843603018112615684578283fd5b8084018035925067ffffffffffffffff83111561569f578384fd5b602001925050368190038213156156b557600080fd5b9250929050565b60405181810167ffffffffffffffff811182821017156156db57600080fd5b604052919050565b600067ffffffffffffffff8211156156f9578081fd5b5060209081020190565b60005b8381101561571e578181015183820152602001615706565b838111156121225750506000910152565b6001600160a01b0381168114611e3257600080fd5b8015158114611e3257600080fdfea26469706673582212208c49c5719321722206751e1aa0ff60208bfaee464b431091cb25258d6810a84f64736f6c63430006060033",
  "immutableReferences": {},
  "source": "pragma solidity ^0.6.6;\r\npragma experimental ABIEncoderV2;\r\n\r\nimport \"@openzeppelin/contracts/math/SafeMath.sol\";\r\nimport \"@openzeppelin/contracts/access/AccessControl.sol\";\r\nimport \"@openzeppelin/contracts/access/Ownable.sol\";\r\nimport \"@openzeppelin/contracts/token/ERC20/IERC20.sol\";\r\nimport \"@openzeppelin/contracts/utils/Address.sol\";\r\nimport \"@uniswap/v2-periphery/contracts/interfaces/IUniswapV2Router01.sol\";\r\nimport \"@uniswap/lib/contracts/libraries/TransferHelper.sol\";\r\nimport \"./interface/Aave/aToken.sol\";\r\nimport \"./interface/Aave/ILendingPool.sol\";\r\nimport \"./interface/Aave/ILendingPoolAddressesProvider.sol\";\r\nimport \"./gambi/BaseRelayRecipient.sol\";\r\nimport \"./gambi/GSNTypes.sol\";\r\nimport \"./gambi/IRelayHub.sol\";\r\nimport \"./interface/IClassroom.sol\";\r\nimport \"./interface/IStudent.sol\";\r\nimport \"./interface/IStudentApplication.sol\";\r\nimport \"./interface/IClassroomFactory.sol\";\r\nimport \"./interface/IStudentFactory.sol\";\r\nimport \"./interface/IStudentApplicationFactory.sol\";\r\nimport \"./interface/IUniversity.sol\";\r\nimport \"./interface/IGrantsManager.sol\";\r\nimport \"./MyUtils.sol\";\r\n\r\n//TODO: Natspec Document ENVERYTHING\r\n//TODO: Sort function order from all contracts\r\n//TODO: Divide University in smaller contracts\r\n\r\ncontract University is Ownable, AccessControl, BaseRelayRecipient, IUniversity {\r\n    using SafeMath for uint256;\r\n\r\n    //CLASSLIST_ADMIN_ROLE can add new manually created classes to the list\r\n    bytes32 public constant CLASSLIST_ADMIN_ROLE = keccak256(\r\n        \"CLASSLIST_ADMIN_ROLE\"\r\n    );\r\n    // FUNDS_MANAGER_ROLE can withdraw funds from the contract\r\n    bytes32 public constant FUNDS_MANAGER_ROLE = keccak256(\r\n        \"FUNDS_MANAGER_ROLE\"\r\n    );\r\n    // GRANTS_MANAGER_ROLE can approve/decline grant claims\r\n    bytes32 public constant GRANTS_MANAGER_ROLE = keccak256(\r\n        \"GRANTS_MANAGER_ROLE\"\r\n    );\r\n    // READ_STUDENT_LIST_ROLE allow reading students list\r\n    bytes32 public constant READ_STUDENT_LIST_ROLE = keccak256(\r\n        \"READ_STUDENT_LIST_ROLE\"\r\n    );\r\n    /// STUDENT_IDENTITY_ROLE allow asking for grants and requesting a classroom from a successful application\r\n    bytes32 public constant STUDENT_IDENTITY_ROLE = keccak256(\r\n        \"STUDENT_IDENTITY_ROLE\"\r\n    );\r\n    /// CLASSROOM_PROFESSOR_ROLE can manage itself inside the University and registering student applications\r\n    bytes32 public constant CLASSROOM_PROFESSOR_ROLE = keccak256(\r\n        \"CLASSROOM_PROFESSOR_ROLE\"\r\n    );\r\n    /// UNIVERSITY_OVERSEER_ROLE can inspect Grant Managers and Fund Managers, and present cases for funders to vote upon\r\n    bytes32 public constant UNIVERSITY_OVERSEER_ROLE = keccak256(\r\n        \"UNIVERSITY_OVERSEER_ROLE\"\r\n    );/// REGISTERED_SUPPLIER_ROLE can receive transactions to consume the operational budget\r\n    bytes32 public constant REGISTERED_SUPPLIER_ROLE = keccak256(\r\n        \"REGISTERED_SUPPLIER_ROLE\"\r\n    );\r\n\r\n    // Parameter: Name of this University\r\n    bytes32 public override name;\r\n    // Parameter: University cut from professor (Parts per Million)\r\n    uint24 public override cut;\r\n    // Parameter: GSN funds to give students\r\n    uint256 _studentGSNDeposit;\r\n    // List of every registered classroom\r\n    address[] public _classList;\r\n    // List of every student\r\n    address[] _students;\r\n    // Mapping of each student's applications\r\n    mapping(address => address[]) _studentApplicationsMapping;\r\n    // Mapping of every donor and donations\r\n    mapping(address => uint256) public donators;\r\n    // Total amount of donations received so far\r\n    uint256 public donationsReceived;\r\n    // Total amount of operational revenue received so far\r\n    uint256 public revenueReceived;\r\n    // Total amount of financial returns received so far\r\n    uint256 public returnsReceived;\r\n    // Total amount of endowment locked in the fund\r\n    uint256 public endowmentLocked;\r\n    // Total amount of funds allowed for expenses\r\n    uint256 public operationalBudget;\r\n\r\n    //Uniswap Config\r\n    address _uniswapWETH;\r\n    address _uniswapDAI;\r\n    IUniswapV2Router01 public _uniswapRouter;\r\n\r\n    //Compound Config\r\n    CERC20 public cDAI;\r\n    IComptroller public comptroller;\r\n    IPriceOracle public priceOracle;\r\n\r\n    //Aave Config\r\n    ILendingPoolAddressesProvider _aaveProvider;\r\n    ILendingPool _aaveLendingPool;\r\n    address _aaveLendingPoolCore;\r\n    address _aTokenDAI;\r\n\r\n    //Tokens\r\n    IERC20 public daiToken;\r\n\r\n    //GSN\r\n    IRelayHub public relayHub;\r\n\r\n    //Factory\r\n    IClassroomFactory _classroomFactory;\r\n    IStudentFactory _studentFactory;\r\n    address _studentApplicationFactoryAddress;\r\n\r\n    constructor(\r\n        bytes32 _name,\r\n        uint24 _cut,\r\n        uint256 studentGSNDeposit,\r\n        address daiAddress,\r\n        address relayHubAddress,\r\n        address classroomFactoryAddress,\r\n        address studentFactoryAddress,\r\n        address studentApplicationFactoryAddress\r\n    ) public {\r\n        name = _name;\r\n        cut = _cut;\r\n        _studentGSNDeposit = studentGSNDeposit;\r\n        _setupRole(DEFAULT_ADMIN_ROLE, _msgSender());\r\n        grantRole(READ_STUDENT_LIST_ROLE, _msgSender());\r\n        daiToken = IERC20(daiAddress);\r\n        relayHub = IRelayHub(relayHubAddress);\r\n        _classroomFactory = IClassroomFactory(classroomFactoryAddress);\r\n        _studentFactory = IStudentFactory(studentFactoryAddress);\r\n        _studentApplicationFactoryAddress = studentApplicationFactoryAddress;\r\n    }\r\n\r\n    receive() external payable {\r\n        emit LogReceived(msg.sender, msg.value);\r\n    }\r\n\r\n    event LogNewClassroom(bytes32, address);\r\n    event LogChangeName(bytes32);\r\n    event LogChangeCut(uint24);\r\n    event LogReceived(address, uint256);\r\n\r\n    function configureCompound(\r\n        address compoundDAIAddress,\r\n        address comptrollerAddress,\r\n        address priceOracleAddress\r\n    ) public onlyOwner {\r\n        cDAI = CERC20(compoundDAIAddress);\r\n        comptroller = IComptroller(comptrollerAddress);\r\n        priceOracle = IPriceOracle(priceOracleAddress);\r\n    }\r\n\r\n    function configureUniswap(\r\n        address uniswapWETH,\r\n        address uniswapDAI,\r\n        address uniswapRouter\r\n    ) public onlyOwner {\r\n        _uniswapWETH = uniswapWETH;\r\n        _uniswapDAI = uniswapDAI;\r\n        _uniswapRouter = IUniswapV2Router01(uniswapRouter);\r\n    }\r\n\r\n    function configureAave(\r\n        address lendingPoolAddressesProvider\r\n    ) public onlyOwner {\r\n        _aaveProvider = ILendingPoolAddressesProvider(lendingPoolAddressesProvider);\r\n        _aaveLendingPool = ILendingPool(_aaveProvider.getLendingPool());\r\n        _aaveLendingPoolCore = _aaveProvider.getLendingPoolCore();\r\n        _aTokenDAI = ILendingPoolCore(_aaveLendingPoolCore)\r\n            .getReserveATokenAddress(address(daiToken));\r\n    }\r\n\r\n    function changeName(bytes32 val) public onlyOwner {\r\n        name = val;\r\n        emit LogChangeName(name);\r\n    }\r\n\r\n    function changeCut(uint24 val) public onlyOwner {\r\n        cut = val;\r\n        emit LogChangeCut(cut);\r\n    }\r\n\r\n    function changeStudentGSNDeposit(uint256 val) public onlyOwner {\r\n        _studentGSNDeposit = val;\r\n    }\r\n\r\n    function availableFundsForInvestment() public view override returns (uint256) {\r\n        uint256 funds = daiToken.balanceOf(address(this));\r\n        if (funds < operationalBudget) return 0;\r\n        return funds.sub(operationalBudget);\r\n    }\r\n\r\n    function availableFunds() public view override returns (uint256) {\r\n        uint256 funds = daiToken.balanceOf(address(this));\r\n        if (funds < endowmentLocked.add(operationalBudget)) return 0;\r\n        return funds.sub(endowmentLocked).sub(operationalBudget);\r\n    }\r\n\r\n    function isValidClassroom(address classroom) public view override returns (bool) {\r\n        return hasRole(CLASSROOM_PROFESSOR_ROLE, classroom);\r\n    }\r\n\r\n    function studentIsRegistered(address student) public view override returns (bool) {\r\n        require(\r\n            hasRole(READ_STUDENT_LIST_ROLE, _msgSender()),\r\n            \"University: caller doesn't have READ_STUDENT_LIST_ROLE\"\r\n        );\r\n        return hasRole(STUDENT_IDENTITY_ROLE, student);\r\n    }\r\n\r\n    function viewMyApplications() public view override returns (address[] memory) {\r\n        return viewStudentApplications(_msgSender());\r\n    }\r\n\r\n    function viewStudentApplications(address addr)\r\n        public\r\n        view\r\n        override\r\n        returns (address[] memory)\r\n    {\r\n        require(\r\n            addr == _msgSender() || hasRole(GRANTS_MANAGER_ROLE, _msgSender()),\r\n            \"Classroom: read permission denied\"\r\n        );\r\n        return _studentApplicationsMapping[addr];\r\n    }\r\n\r\n    function studentSelfRegisterGSN(bytes32 sName) public returns (address) {\r\n        address student = _newStudent(sName, _msgSenderGSN());\r\n        relayHub.depositFor.value(_studentGSNDeposit)(student);\r\n        return student;\r\n    }\r\n\r\n    function studentSelfRegister(bytes32 sName) public returns (address) {\r\n        return _newStudent(sName, _msgSender());\r\n    }\r\n\r\n    function _newStudent(bytes32 sName, address caller)\r\n        internal\r\n        returns (address)\r\n    {\r\n        require(\r\n            _studentApplicationsMapping[_msgSenderGSN()].length == 0,\r\n            \"University: student already registered\"\r\n        );\r\n        //Gambiarra: Push address(0) in the mapping to mark that student as registered in the university\r\n        _studentApplicationsMapping[caller].push(address(0));\r\n        address student = _studentFactory.newStudent(sName, address(this));\r\n        IStudent(student).transferOwnershipStudent(caller);\r\n        address studentAddr = address(student);\r\n        _students.push(studentAddr);\r\n        grantRole(STUDENT_IDENTITY_ROLE, studentAddr);\r\n        return address(studentAddr);\r\n    }\r\n\r\n    function newClassRoom(\r\n        address owner,\r\n        bytes32 cName,\r\n        uint24 cCut,\r\n        uint24 cPCut,\r\n        int32 minScore,\r\n        uint256 entryPrice,\r\n        uint256 duration,\r\n        address challengeAddress\r\n    ) public returns (address) {\r\n        require(\r\n            hasRole(CLASSLIST_ADMIN_ROLE, _msgSender()),\r\n            \"University: caller doesn't have CLASSLIST_ADMIN_ROLE\"\r\n        );\r\n        return\r\n            _newClassRoom(\r\n                owner,\r\n                cName,\r\n                cCut,\r\n                cPCut,\r\n                minScore,\r\n                entryPrice,\r\n                duration,\r\n                challengeAddress\r\n            );\r\n    }\r\n\r\n    function _newClassRoom(\r\n        address owner,\r\n        bytes32 cName,\r\n        uint24 cCut,\r\n        uint24 cPCut,\r\n        int32 minScore,\r\n        uint256 entryPrice,\r\n        uint256 duration,\r\n        address challengeAddress\r\n    ) internal returns (address) {\r\n        address classroom = _classroomFactory.newClassroom(\r\n            cName,\r\n            cCut,\r\n            cPCut,\r\n            minScore,\r\n            entryPrice,\r\n            duration,\r\n            payable (address(this)),\r\n            challengeAddress,\r\n            address(daiToken),\r\n            address(cDAI),\r\n            _studentApplicationFactoryAddress\r\n        );\r\n        IClassroom(classroom).transferOwnershipClassroom(owner);\r\n        address classroomAddr = address(classroom);\r\n        _classList.push(classroomAddr);\r\n        grantRole(READ_STUDENT_LIST_ROLE, classroomAddr);\r\n        grantRole(CLASSROOM_PROFESSOR_ROLE, classroomAddr);\r\n        emit LogNewClassroom(cName, classroomAddr);\r\n        return classroomAddr;\r\n    }\r\n\r\n    function studentRequestClassroom(\r\n        address applicationAddr,\r\n        bytes32 cName,\r\n        uint24 cCut,\r\n        uint24 cPCut,\r\n        int32 minScore,\r\n        uint256 entryPrice,\r\n        uint256 duration,\r\n        address challenge\r\n    ) public override returns (address) {\r\n        require(\r\n            hasRole(STUDENT_IDENTITY_ROLE, _msgSender()),\r\n            \"University: caller doesn't have STUDENT_IDENTITY_ROLE\"\r\n        );\r\n        require(\r\n            checkForStudentApplication(_msgSender(), applicationAddr),\r\n            \"University: caller is not student of this application\"\r\n        );\r\n        IStudentApplication application = IStudentApplication(applicationAddr);\r\n        require(\r\n            application.applicationState() == 3,\r\n            \"University: application is not successful\"\r\n        );\r\n        return\r\n            _newClassRoom(\r\n                IStudent(_msgSender()).ownerStudent(),\r\n                cName,\r\n                cCut,\r\n                cPCut,\r\n                minScore,\r\n                entryPrice,\r\n                duration,\r\n                challenge\r\n            );\r\n    }\r\n\r\n    function registerStudentApplication(\r\n        address student,\r\n        address application\r\n    ) public override\r\n    {\r\n        require(\r\n            hasRole(CLASSROOM_PROFESSOR_ROLE, _msgSender()),\r\n            \"University: caller doesn't have CLASSROOM_PROFESSOR_ROLE\"\r\n        );\r\n        _studentApplicationsMapping[student].push(application);\r\n    }\r\n\r\n    function checkForStudentApplication(\r\n        address studentAddress,\r\n        address applicationAddress\r\n    ) internal view returns (bool) {\r\n        for (\r\n            uint256 i = 0;\r\n            i < _studentApplicationsMapping[studentAddress].length;\r\n            i++\r\n        ) {\r\n            if (\r\n                _studentApplicationsMapping[studentAddress][i] ==\r\n                applicationAddress\r\n            ) return true;\r\n        }\r\n        return false;\r\n    }\r\n\r\n    function addStudentScore(address student, int32 val) public override {\r\n        require(\r\n            hasRole(CLASSROOM_PROFESSOR_ROLE, _msgSender()),\r\n            \"University: caller doesn't have CLASSROOM_PROFESSOR_ROLE\"\r\n        );\r\n        IStudent(student).addScore(val);\r\n    }\r\n\r\n    function subStudentScore(address student, int32 val) public override {\r\n        require(\r\n            hasRole(CLASSROOM_PROFESSOR_ROLE, _msgSender()),\r\n            \"University: caller doesn't have CLASSROOM_PROFESSOR_ROLE\"\r\n        );\r\n        IStudent(student).subScore(val);\r\n    }\r\n\r\n    function applyFundsCompound(uint256 val) public override {\r\n        require(\r\n            hasRole(FUNDS_MANAGER_ROLE, _msgSender()),\r\n            \"University: caller doesn't have FUNDS_MANAGER_ROLE\"\r\n        );\r\n        TransferHelper.safeApprove(address(daiToken), address(cDAI), val);\r\n        cDAI.mint(val);\r\n    }\r\n\r\n    function appliedDAICompound() public view override returns (uint256) {\r\n        return cDAI.balanceOfUnderlying(address(this));\r\n    }\r\n\r\n    function recoverFundsCompound(uint256 val) public override {\r\n        require(\r\n            hasRole(FUNDS_MANAGER_ROLE, _msgSender()),\r\n            \"University: caller doesn't have FUNDS_MANAGER_ROLE\"\r\n        );\r\n        cDAI.redeemUnderlying(val);\r\n    }\r\n\r\n    function applyFundsAave(uint256 val) public override {\r\n        require(\r\n            hasRole(FUNDS_MANAGER_ROLE, _msgSender()),\r\n            \"University: caller doesn't have FUNDS_MANAGER_ROLE\"\r\n        );\r\n        TransferHelper.safeApprove(address(daiToken), _aaveLendingPoolCore, val);\r\n        _aaveLendingPool.deposit(address(daiToken), val, 0);\r\n    }\r\n\r\n    function appliedDAIAave() public view override returns (uint256) {\r\n        return aToken(_aTokenDAI).balanceOf(address(this));\r\n    }\r\n\r\n    function recoverFundsAave(uint256 val) public override {\r\n        require(\r\n            hasRole(FUNDS_MANAGER_ROLE, _msgSender()),\r\n            \"University: caller doesn't have FUNDS_MANAGER_ROLE\"\r\n        );\r\n        aToken(_aTokenDAI).redeem(val);\r\n    }\r\n\r\n    function setAaveMarketCollateralForDAI(bool state) public override {\r\n        setAaveMarketCollateral(address(daiToken), state);\r\n    }\r\n\r\n    function setAaveMarketCollateral(address token, bool state) public override {\r\n        require(\r\n            hasRole(FUNDS_MANAGER_ROLE, _msgSender()),\r\n            \"University: caller doesn't have FUNDS_MANAGER_ROLE\"\r\n        );\r\n        _aaveLendingPool.setUserUseReserveAsCollateral(token, state);\r\n    }\r\n\r\n    function enterCompoundDAIMarket() public override {\r\n        enterCompoundMarket(address(cDAI));\r\n    }\r\n\r\n    function enterCompoundMarket(address token) public override {\r\n        require(\r\n            hasRole(FUNDS_MANAGER_ROLE, _msgSender()),\r\n            \"University: caller doesn't have FUNDS_MANAGER_ROLE\"\r\n        );\r\n        address[] memory cTokens = new address[](1);\r\n        cTokens[0] = token;\r\n        uint256[] memory errors = comptroller.enterMarkets(cTokens);\r\n        if (errors[0] != 0) {\r\n            revert(\"University: Comptroller.enterMarkets failed.\");\r\n        }\r\n    }\r\n\r\n    function exitCompoundDAIMarket() public override {\r\n        exitCompoundMarket(address(cDAI));\r\n    }\r\n\r\n    function exitCompoundMarket(address token) public override {\r\n        require(\r\n            hasRole(FUNDS_MANAGER_ROLE, _msgSender()),\r\n            \"University: caller doesn't have FUNDS_MANAGER_ROLE\"\r\n        );\r\n        uint256 error = comptroller.exitMarket(token);\r\n        if (error != 0) {\r\n            revert(\"University: Comptroller.exitMarket failed.\");\r\n        }\r\n    }\r\n\r\n    function getCompoundLiquidityAndShortfall() \r\n        public \r\n        view \r\n        override\r\n        returns (uint256, uint256) {\r\n        require(\r\n            hasRole(FUNDS_MANAGER_ROLE, _msgSender()),\r\n            \"University: caller doesn't have FUNDS_MANAGER_ROLE\"\r\n        );\r\n        (uint256 error, uint256 liquidity, uint256 shortfall) = \r\n            comptroller\r\n            .getAccountLiquidity(address(this));\r\n        if (error != 0) {\r\n            revert(\"University: Comptroller.getAccountLiquidity failed.\");\r\n        }\r\n        return (liquidity, shortfall);\r\n    }\r\n\r\n    function getCompoundPriceInWEI(address cToken) \r\n        public \r\n        view \r\n        override\r\n        returns (uint256) {\r\n        return priceOracle.getUnderlyingPrice(cToken);\r\n    }\r\n\r\n    function getCompoundMaxBorrowInWEI(address cToken) \r\n        public \r\n        view \r\n        override\r\n        returns (uint256) {\r\n        (uint256 liquidity, ) = getCompoundLiquidityAndShortfall();\r\n        return liquidity.div(priceOracle.getUnderlyingPrice(cToken));\r\n    }\r\n\r\n    function compoundBorrow(address cToken, uint256 val) \r\n        public \r\n        override {\r\n        require(\r\n            hasRole(FUNDS_MANAGER_ROLE, _msgSender()),\r\n            \"University: caller doesn't have FUNDS_MANAGER_ROLE\"\r\n        );\r\n        CERC20(cToken).borrow(val);\r\n    }\r\n\r\n    function compoundGetBorrow(address cToken) \r\n        public \r\n        view \r\n        override\r\n        returns (uint256) {\r\n        require(\r\n            hasRole(FUNDS_MANAGER_ROLE, _msgSender()),\r\n            \"University: caller doesn't have FUNDS_MANAGER_ROLE\"\r\n        );\r\n        return CERC20(cToken).borrowBalanceCurrent(address(this));\r\n    }\r\n\r\n    function compoundRepayBorrow(address token, address cToken, uint256 val)\r\n        public \r\n        override {\r\n        require(\r\n            hasRole(FUNDS_MANAGER_ROLE, _msgSender()),\r\n            \"University: caller doesn't have FUNDS_MANAGER_ROLE\"\r\n        );\r\n        require(\r\n            IERC20(token).balanceOf(address(this)) >= val,\r\n            \"University: not enough of this token stored\"\r\n        );\r\n        TransferHelper.safeApprove(token, cToken, val);\r\n        CERC20(cToken).repayBorrow(val);\r\n    }\r\n\r\n    function aaveGetBorrow(address token, uint256 val, bool variableRate) public override {\r\n        require(\r\n            hasRole(FUNDS_MANAGER_ROLE, _msgSender()),\r\n            \"University: caller doesn't have FUNDS_MANAGER_ROLE\"\r\n        );\r\n        uint8 vRate = variableRate ? 2 : 1;\r\n        _aaveLendingPool.borrow(token, val, vRate, 0);\r\n    }\r\n\r\n    function aaveRepayBorrow(address token, uint256 val)\r\n        public \r\n        override {\r\n        require(\r\n            hasRole(FUNDS_MANAGER_ROLE, _msgSender()),\r\n            \"University: caller doesn't have FUNDS_MANAGER_ROLE\"\r\n        );\r\n        require(\r\n            IERC20(token).balanceOf(address(this)) >= val,\r\n            \"University: not enough of this token stored\"\r\n        );\r\n        TransferHelper.safeApprove(token, _aaveProvider.getLendingPoolCore(), val);\r\n        _aaveLendingPool.repay(token, val, address(this));\r\n    }\r\n\r\n    function aaveSwapBorrowRateMode(address token) public override {\r\n        require(\r\n            hasRole(FUNDS_MANAGER_ROLE, _msgSender()),\r\n            \"University: caller doesn't have FUNDS_MANAGER_ROLE\"\r\n        );\r\n        _aaveLendingPool.swapBorrowRateMode(token);\r\n    }\r\n\r\n    function increaseOperationalBudget(uint256 val) public onlyOwner {\r\n        require(\r\n            endowmentLocked >= val,\r\n            \"University: not enough endowment\"\r\n        );\r\n        operationalBudget = operationalBudget.add(val);\r\n        endowmentLocked = endowmentLocked.sub(val);\r\n    }\r\n\r\n    function spendBudget(address to, uint256 val) public override {\r\n        require(\r\n            hasRole(FUNDS_MANAGER_ROLE, _msgSender()),\r\n            \"University: caller doesn't have FUNDS_MANAGER_ROLE\"\r\n        );\r\n        require(\r\n            hasRole(REGISTERED_SUPPLIER_ROLE, to),\r\n            \"University: receiver doesn't have REGISTERED_SUPPLIER_ROLE\"\r\n        );\r\n        require(\r\n            operationalBudget >= val,\r\n            \"University: not enough operational budget\"\r\n        );\r\n        require(\r\n            daiToken.balanceOf(address(this)) >= val,\r\n            \"University: liquidate some positions first\"\r\n        );\r\n        TransferHelper.safeTransfer(address(daiToken), to, val);\r\n        operationalBudget = operationalBudget.sub(val);\r\n    }\r\n\r\n    function giveGrant(address studentApplication, uint256 price) public override {\r\n        require(\r\n            hasRole(GRANTS_MANAGER_ROLE, _msgSender()),\r\n            \"University: caller doesn't have GRANTS_MANAGER_ROLE\"\r\n        );\r\n        require(\r\n            availableFunds() >= price,\r\n            \"University: not enough available funds\"\r\n        );\r\n        IStudentApplication(studentApplication).payEntryPrice();\r\n    }\r\n\r\n    function reinvestReturns(uint256 val) public override {\r\n        require(\r\n            hasRole(FUNDS_MANAGER_ROLE, _msgSender()),\r\n            \"University: caller doesn't have FUNDS_MANAGER_ROLE\"\r\n        );\r\n        require(\r\n            availableFunds() >= val,\r\n            \"University: not enough available funds\"\r\n        );\r\n        accountReturns(val);\r\n    }\r\n\r\n    function viewAllStudentsFromGrantManager(\r\n            address grantsManager\r\n        ) public returns (address[] memory) {\r\n        require(\r\n            hasRole(UNIVERSITY_OVERSEER_ROLE, _msgSender()),\r\n            \"University: caller doesn't have UNIVERSITY_OVERSEER_ROLE\"\r\n        );\r\n        return IGrantsManager(grantsManager).viewAllStudents();\r\n    }\r\n\r\n    function viewAllStudentGrantsFromGrantManager(\r\n            address student, \r\n            address grantsManager\r\n        ) public returns (uint256[] memory) {\r\n        require(\r\n            hasRole(UNIVERSITY_OVERSEER_ROLE, _msgSender()),\r\n            \"University: caller doesn't have UNIVERSITY_OVERSEER_ROLE\"\r\n        );\r\n        return IGrantsManager(grantsManager).viewAllGrantsForStudent(student);\r\n    }\r\n\r\n    function acceptRelayedCall(\r\n        GSNTypes.RelayRequest calldata relayRequest,\r\n        bytes calldata,\r\n        uint256\r\n    ) external pure returns (bytes memory context) {\r\n        require(\r\n            MyUtils.readBytes4(relayRequest.encodedFunction, 0) ==\r\n                this.studentSelfRegisterGSN.selector,\r\n            \"University: GSN not enabled for this function\"\r\n        );\r\n        return abi.encode(relayRequest.target, 0);\r\n    }\r\n\r\n    function refillUniversityRelayer(uint256 val) public {\r\n        require(\r\n            hasRole(FUNDS_MANAGER_ROLE, _msgSender()) || _msgSender() == owner(),\r\n            \"University: caller doesn't have FUNDS_MANAGER_ROLE\"\r\n        );\r\n        relayHub.depositFor.value(val)(address(this));\r\n    }\r\n\r\n    function swapDAI_ETH(\r\n        uint256 amount,\r\n        uint256 deadline\r\n    ) public override returns (uint[] memory amounts) {\r\n        require(\r\n            hasRole(FUNDS_MANAGER_ROLE, _msgSender()),\r\n            \"University: caller doesn't have FUNDS_MANAGER_ROLE\"\r\n        );\r\n        require(\r\n            _uniswapWETH != address(0),\r\n            \"University: setup uniswap first\"\r\n        );\r\n        amounts = swapBlind(_uniswapDAI, _uniswapWETH, amount, deadline);\r\n    }\r\n\r\n    function swapETH_DAI(\r\n        uint256 amount,\r\n        uint256 deadline\r\n    ) public override returns (uint[] memory amounts) {\r\n        require(\r\n            hasRole(FUNDS_MANAGER_ROLE, _msgSender()),\r\n            \"University: caller doesn't have FUNDS_MANAGER_ROLE\"\r\n        );\r\n        require(\r\n            _uniswapWETH != address(0),\r\n            \"University: setup uniswap first\"\r\n        );\r\n        amounts = swapBlind(_uniswapWETH, _uniswapDAI, amount, deadline);\r\n    }\r\n\r\n    function swapBlind(\r\n        address tokenA,\r\n        address tokenB,\r\n        uint256 amount,\r\n        uint256 deadline\r\n    ) internal returns (uint[] memory amounts) {\r\n        TransferHelper.safeApprove(tokenA, address(_uniswapRouter), amount);\r\n        address[] memory path = new address[](2);\r\n        path[0] = tokenA;\r\n        path[1] = tokenB;\r\n        amounts = _uniswapRouter.swapExactTokensForTokens(\r\n            amount,\r\n            0,\r\n            path,\r\n            address(this),\r\n            deadline\r\n        );\r\n    }\r\n    \r\n    function donateETH(uint256 donation) public payable override {\r\n        // This function is vulnerable to sandwich attacks. Since the very nature of this function is for a donor to donate money, it is not needed to prevent the donor from manipulating its own donation\r\n        uint256[] memory amounts = swapETH_DAI(donation, 12 hours);\r\n        donators[_msgSender()] = donators[_msgSender()].add(amounts[1]);\r\n        accountDonation(amounts[1]);\r\n    }\r\n\r\n    function donateDAI(uint256 donation) public override {\r\n        TransferHelper.safeTransferFrom(\r\n            address(daiToken),\r\n            _msgSender(),\r\n            address(this),\r\n            donation\r\n        );\r\n        donators[_msgSender()] = donators[_msgSender()].add(donation);\r\n        accountDonation(donation);\r\n    }\r\n\r\n    function accountDonation(uint256 donation) internal {\r\n        donationsReceived = donationsReceived.add(donation);\r\n        endowmentLocked = endowmentLocked.add(donation);\r\n    }\r\n\r\n    function accountRevenue(uint256 revenue) public override {\r\n        require(\r\n            hasRole(CLASSROOM_PROFESSOR_ROLE, _msgSender()),\r\n            \"University: caller doesn't have CLASSROOM_PROFESSOR_ROLE\"\r\n        );\r\n        revenueReceived = revenueReceived.add(revenue);\r\n        endowmentLocked = endowmentLocked.add(revenue);\r\n    }\r\n\r\n    function accountReturns(uint256 financialReturns) internal {\r\n        require(\r\n            hasRole(CLASSROOM_PROFESSOR_ROLE, _msgSender()),\r\n            \"University: caller doesn't have CLASSROOM_PROFESSOR_ROLE\"\r\n        );\r\n        returnsReceived = revenueReceived.add(financialReturns);\r\n        endowmentLocked = endowmentLocked.add(financialReturns);\r\n    }\r\n}\r\n",
  "sourcePath": "/mnt/e/Repositories/Uproot/contracts/University.sol",
  "compiler": {
    "name": "solc",
    "version": "0.6.6+commit.6c089d02.Emscripten.clang"
  },
  "schemaVersion": "3.1.0",
  "updatedAt": "2020-05-07T18:05:29.412Z",
  "devdoc": {
    "methods": {
      "getRoleAdmin(bytes32)": {
        "details": "Returns the admin role that controls `role`. See {grantRole} and {revokeRole}.     * To change a role's admin, use {_setRoleAdmin}."
      },
      "getRoleMember(bytes32,uint256)": {
        "details": "Returns one of the accounts that have `role`. `index` must be a value between 0 and {getRoleMemberCount}, non-inclusive.     * Role bearers are not sorted in any particular way, and their ordering may change at any point.     * WARNING: When using {getRoleMember} and {getRoleMemberCount}, make sure you perform all queries on the same block. See the following https://forum.openzeppelin.com/t/iterating-over-elements-on-enumerableset-in-openzeppelin-contracts/2296[forum post] for more information."
      },
      "getRoleMemberCount(bytes32)": {
        "details": "Returns the number of accounts that have `role`. Can be used together with {getRoleMember} to enumerate all bearers of a role."
      },
      "grantRole(bytes32,address)": {
        "details": "Grants `role` to `account`.     * If `account` had not been already granted `role`, emits a {RoleGranted} event.     * Requirements:     * - the caller must have ``role``'s admin role."
      },
      "hasRole(bytes32,address)": {
        "details": "Returns `true` if `account` has been granted `role`."
      },
      "owner()": {
        "details": "Returns the address of the current owner."
      },
      "renounceOwnership()": {
        "details": "Leaves the contract without owner. It will not be possible to call `onlyOwner` functions anymore. Can only be called by the current owner.     * NOTE: Renouncing ownership will leave the contract without an owner, thereby removing any functionality that is only available to the owner."
      },
      "renounceRole(bytes32,address)": {
        "details": "Revokes `role` from the calling account.     * Roles are often managed via {grantRole} and {revokeRole}: this function's purpose is to provide a mechanism for accounts to lose their privileges if they are compromised (such as when a trusted device is misplaced).     * If the calling account had been granted `role`, emits a {RoleRevoked} event.     * Requirements:     * - the caller must be `account`."
      },
      "revokeRole(bytes32,address)": {
        "details": "Revokes `role` from `account`.     * If `account` had been granted `role`, emits a {RoleRevoked} event.     * Requirements:     * - the caller must have ``role``'s admin role."
      },
      "transferOwnership(address)": {
        "details": "Transfers ownership of the contract to a new account (`newOwner`). Can only be called by the current owner."
      }
    }
  },
  "userdoc": {
    "methods": {
      "_msgSenderGSN()": {
        "notice": "return the sender of this call. if the call came through our trusted forwarder, return the original sender. otherwise, return `msg.sender`. should be used in the contract anywhere instead of msg.sender"
      }
    }
  }
}