{
  "contractName": "University",
  "abi": [
    {
      "inputs": [
        {
          "internalType": "bytes32",
          "name": "_name",
          "type": "bytes32"
        },
        {
          "internalType": "uint24",
          "name": "_cut",
          "type": "uint24"
        },
        {
          "internalType": "uint256",
          "name": "studentGSNDeposit",
          "type": "uint256"
        },
        {
          "internalType": "address",
          "name": "daiAddress",
          "type": "address"
        },
        {
          "internalType": "address",
          "name": "compoundAddress",
          "type": "address"
        },
        {
          "internalType": "address",
          "name": "relayHubAddress",
          "type": "address"
        },
        {
          "internalType": "address",
          "name": "classroomFactoryAddress",
          "type": "address"
        },
        {
          "internalType": "address",
          "name": "studentFactoryAddress",
          "type": "address"
        },
        {
          "internalType": "address",
          "name": "studentApplicationFactoryAddress",
          "type": "address"
        }
      ],
      "stateMutability": "nonpayable",
      "type": "constructor"
    },
    {
      "anonymous": false,
      "inputs": [
        {
          "indexed": false,
          "internalType": "uint24",
          "name": "",
          "type": "uint24"
        }
      ],
      "name": "LogChangeCut",
      "type": "event"
    },
    {
      "anonymous": false,
      "inputs": [
        {
          "indexed": false,
          "internalType": "bytes32",
          "name": "",
          "type": "bytes32"
        }
      ],
      "name": "LogChangeName",
      "type": "event"
    },
    {
      "anonymous": false,
      "inputs": [
        {
          "indexed": false,
          "internalType": "bytes32",
          "name": "",
          "type": "bytes32"
        },
        {
          "indexed": false,
          "internalType": "address",
          "name": "",
          "type": "address"
        }
      ],
      "name": "LogNewClassroom",
      "type": "event"
    },
    {
      "anonymous": false,
      "inputs": [
        {
          "indexed": false,
          "internalType": "address",
          "name": "",
          "type": "address"
        },
        {
          "indexed": false,
          "internalType": "uint256",
          "name": "",
          "type": "uint256"
        }
      ],
      "name": "LogReceived",
      "type": "event"
    },
    {
      "anonymous": false,
      "inputs": [
        {
          "indexed": true,
          "internalType": "address",
          "name": "previousOwner",
          "type": "address"
        },
        {
          "indexed": true,
          "internalType": "address",
          "name": "newOwner",
          "type": "address"
        }
      ],
      "name": "OwnershipTransferred",
      "type": "event"
    },
    {
      "anonymous": false,
      "inputs": [
        {
          "indexed": true,
          "internalType": "bytes32",
          "name": "role",
          "type": "bytes32"
        },
        {
          "indexed": true,
          "internalType": "address",
          "name": "account",
          "type": "address"
        },
        {
          "indexed": true,
          "internalType": "address",
          "name": "sender",
          "type": "address"
        }
      ],
      "name": "RoleGranted",
      "type": "event"
    },
    {
      "anonymous": false,
      "inputs": [
        {
          "indexed": true,
          "internalType": "bytes32",
          "name": "role",
          "type": "bytes32"
        },
        {
          "indexed": true,
          "internalType": "address",
          "name": "account",
          "type": "address"
        },
        {
          "indexed": true,
          "internalType": "address",
          "name": "sender",
          "type": "address"
        }
      ],
      "name": "RoleRevoked",
      "type": "event"
    },
    {
      "inputs": [],
      "name": "CLASSLIST_ADMIN_ROLE",
      "outputs": [
        {
          "internalType": "bytes32",
          "name": "",
          "type": "bytes32"
        }
      ],
      "stateMutability": "view",
      "type": "function",
      "constant": true
    },
    {
      "inputs": [],
      "name": "CLASSROOM_PROFESSOR_ROLE",
      "outputs": [
        {
          "internalType": "bytes32",
          "name": "",
          "type": "bytes32"
        }
      ],
      "stateMutability": "view",
      "type": "function",
      "constant": true
    },
    {
      "inputs": [],
      "name": "DEFAULT_ADMIN_ROLE",
      "outputs": [
        {
          "internalType": "bytes32",
          "name": "",
          "type": "bytes32"
        }
      ],
      "stateMutability": "view",
      "type": "function",
      "constant": true
    },
    {
      "inputs": [],
      "name": "FUNDS_MANAGER_ROLE",
      "outputs": [
        {
          "internalType": "bytes32",
          "name": "",
          "type": "bytes32"
        }
      ],
      "stateMutability": "view",
      "type": "function",
      "constant": true
    },
    {
      "inputs": [],
      "name": "GRANTS_MANAGER_ROLE",
      "outputs": [
        {
          "internalType": "bytes32",
          "name": "",
          "type": "bytes32"
        }
      ],
      "stateMutability": "view",
      "type": "function",
      "constant": true
    },
    {
      "inputs": [],
      "name": "READ_STUDENT_LIST_ROLE",
      "outputs": [
        {
          "internalType": "bytes32",
          "name": "",
          "type": "bytes32"
        }
      ],
      "stateMutability": "view",
      "type": "function",
      "constant": true
    },
    {
      "inputs": [],
      "name": "STUDENT_IDENTITY_ROLE",
      "outputs": [
        {
          "internalType": "bytes32",
          "name": "",
          "type": "bytes32"
        }
      ],
      "stateMutability": "view",
      "type": "function",
      "constant": true
    },
    {
      "inputs": [],
      "name": "UNIVERSITY_OVERSEER_ROLE",
      "outputs": [
        {
          "internalType": "bytes32",
          "name": "",
          "type": "bytes32"
        }
      ],
      "stateMutability": "view",
      "type": "function",
      "constant": true
    },
    {
      "inputs": [
        {
          "internalType": "uint256",
          "name": "",
          "type": "uint256"
        }
      ],
      "name": "_classList",
      "outputs": [
        {
          "internalType": "address",
          "name": "",
          "type": "address"
        }
      ],
      "stateMutability": "view",
      "type": "function",
      "constant": true
    },
    {
      "inputs": [],
      "name": "_msgSenderGSN",
      "outputs": [
        {
          "internalType": "address",
          "name": "",
          "type": "address"
        }
      ],
      "stateMutability": "view",
      "type": "function",
      "constant": true
    },
    {
      "inputs": [],
      "name": "cToken",
      "outputs": [
        {
          "internalType": "contract CERC20",
          "name": "",
          "type": "address"
        }
      ],
      "stateMutability": "view",
      "type": "function",
      "constant": true
    },
    {
      "inputs": [],
      "name": "cut",
      "outputs": [
        {
          "internalType": "uint24",
          "name": "",
          "type": "uint24"
        }
      ],
      "stateMutability": "view",
      "type": "function",
      "constant": true
    },
    {
      "inputs": [],
      "name": "daiToken",
      "outputs": [
        {
          "internalType": "contract IERC20",
          "name": "",
          "type": "address"
        }
      ],
      "stateMutability": "view",
      "type": "function",
      "constant": true
    },
    {
      "inputs": [],
      "name": "donationsReceived",
      "outputs": [
        {
          "internalType": "uint256",
          "name": "",
          "type": "uint256"
        }
      ],
      "stateMutability": "view",
      "type": "function",
      "constant": true
    },
    {
      "inputs": [
        {
          "internalType": "address",
          "name": "",
          "type": "address"
        }
      ],
      "name": "donators",
      "outputs": [
        {
          "internalType": "uint256",
          "name": "",
          "type": "uint256"
        }
      ],
      "stateMutability": "view",
      "type": "function",
      "constant": true
    },
    {
      "inputs": [
        {
          "internalType": "bytes32",
          "name": "role",
          "type": "bytes32"
        }
      ],
      "name": "getRoleAdmin",
      "outputs": [
        {
          "internalType": "bytes32",
          "name": "",
          "type": "bytes32"
        }
      ],
      "stateMutability": "view",
      "type": "function",
      "constant": true
    },
    {
      "inputs": [
        {
          "internalType": "bytes32",
          "name": "role",
          "type": "bytes32"
        },
        {
          "internalType": "uint256",
          "name": "index",
          "type": "uint256"
        }
      ],
      "name": "getRoleMember",
      "outputs": [
        {
          "internalType": "address",
          "name": "",
          "type": "address"
        }
      ],
      "stateMutability": "view",
      "type": "function",
      "constant": true
    },
    {
      "inputs": [
        {
          "internalType": "bytes32",
          "name": "role",
          "type": "bytes32"
        }
      ],
      "name": "getRoleMemberCount",
      "outputs": [
        {
          "internalType": "uint256",
          "name": "",
          "type": "uint256"
        }
      ],
      "stateMutability": "view",
      "type": "function",
      "constant": true
    },
    {
      "inputs": [],
      "name": "getTrustedForwarder",
      "outputs": [
        {
          "internalType": "address",
          "name": "",
          "type": "address"
        }
      ],
      "stateMutability": "view",
      "type": "function",
      "constant": true
    },
    {
      "inputs": [
        {
          "internalType": "bytes32",
          "name": "role",
          "type": "bytes32"
        },
        {
          "internalType": "address",
          "name": "account",
          "type": "address"
        }
      ],
      "name": "grantRole",
      "outputs": [],
      "stateMutability": "nonpayable",
      "type": "function"
    },
    {
      "inputs": [
        {
          "internalType": "bytes32",
          "name": "role",
          "type": "bytes32"
        },
        {
          "internalType": "address",
          "name": "account",
          "type": "address"
        }
      ],
      "name": "hasRole",
      "outputs": [
        {
          "internalType": "bool",
          "name": "",
          "type": "bool"
        }
      ],
      "stateMutability": "view",
      "type": "function",
      "constant": true
    },
    {
      "inputs": [],
      "name": "name",
      "outputs": [
        {
          "internalType": "bytes32",
          "name": "",
          "type": "bytes32"
        }
      ],
      "stateMutability": "view",
      "type": "function",
      "constant": true
    },
    {
      "inputs": [],
      "name": "owner",
      "outputs": [
        {
          "internalType": "address",
          "name": "",
          "type": "address"
        }
      ],
      "stateMutability": "view",
      "type": "function",
      "constant": true
    },
    {
      "inputs": [],
      "name": "relayHub",
      "outputs": [
        {
          "internalType": "contract IRelayHub",
          "name": "",
          "type": "address"
        }
      ],
      "stateMutability": "view",
      "type": "function",
      "constant": true
    },
    {
      "inputs": [],
      "name": "renounceOwnership",
      "outputs": [],
      "stateMutability": "nonpayable",
      "type": "function"
    },
    {
      "inputs": [
        {
          "internalType": "bytes32",
          "name": "role",
          "type": "bytes32"
        },
        {
          "internalType": "address",
          "name": "account",
          "type": "address"
        }
      ],
      "name": "renounceRole",
      "outputs": [],
      "stateMutability": "nonpayable",
      "type": "function"
    },
    {
      "inputs": [
        {
          "internalType": "bytes32",
          "name": "role",
          "type": "bytes32"
        },
        {
          "internalType": "address",
          "name": "account",
          "type": "address"
        }
      ],
      "name": "revokeRole",
      "outputs": [],
      "stateMutability": "nonpayable",
      "type": "function"
    },
    {
      "inputs": [
        {
          "internalType": "address",
          "name": "newOwner",
          "type": "address"
        }
      ],
      "name": "transferOwnership",
      "outputs": [],
      "stateMutability": "nonpayable",
      "type": "function"
    },
    {
      "stateMutability": "payable",
      "type": "receive",
      "payable": true
    },
    {
      "inputs": [
        {
          "internalType": "bytes32",
          "name": "val",
          "type": "bytes32"
        }
      ],
      "name": "changeName",
      "outputs": [],
      "stateMutability": "nonpayable",
      "type": "function"
    },
    {
      "inputs": [
        {
          "internalType": "uint24",
          "name": "val",
          "type": "uint24"
        }
      ],
      "name": "changeCut",
      "outputs": [],
      "stateMutability": "nonpayable",
      "type": "function"
    },
    {
      "inputs": [
        {
          "internalType": "uint256",
          "name": "val",
          "type": "uint256"
        }
      ],
      "name": "changeStudentGSNDeposit",
      "outputs": [],
      "stateMutability": "nonpayable",
      "type": "function"
    },
    {
      "inputs": [
        {
          "internalType": "address",
          "name": "classroom",
          "type": "address"
        }
      ],
      "name": "isValidClassroom",
      "outputs": [
        {
          "internalType": "bool",
          "name": "",
          "type": "bool"
        }
      ],
      "stateMutability": "view",
      "type": "function",
      "constant": true
    },
    {
      "inputs": [
        {
          "internalType": "address",
          "name": "student",
          "type": "address"
        }
      ],
      "name": "studentIsRegistered",
      "outputs": [
        {
          "internalType": "bool",
          "name": "",
          "type": "bool"
        }
      ],
      "stateMutability": "view",
      "type": "function",
      "constant": true
    },
    {
      "inputs": [],
      "name": "viewMyApplications",
      "outputs": [
        {
          "internalType": "address[]",
          "name": "",
          "type": "address[]"
        }
      ],
      "stateMutability": "view",
      "type": "function",
      "constant": true
    },
    {
      "inputs": [
        {
          "internalType": "address",
          "name": "addr",
          "type": "address"
        }
      ],
      "name": "viewStudentApplications",
      "outputs": [
        {
          "internalType": "address[]",
          "name": "",
          "type": "address[]"
        }
      ],
      "stateMutability": "view",
      "type": "function",
      "constant": true
    },
    {
      "inputs": [
        {
          "internalType": "bytes32",
          "name": "sName",
          "type": "bytes32"
        }
      ],
      "name": "studentSelfRegisterGSN",
      "outputs": [
        {
          "internalType": "address",
          "name": "",
          "type": "address"
        }
      ],
      "stateMutability": "nonpayable",
      "type": "function"
    },
    {
      "inputs": [
        {
          "internalType": "bytes32",
          "name": "sName",
          "type": "bytes32"
        }
      ],
      "name": "studentSelfRegister",
      "outputs": [
        {
          "internalType": "address",
          "name": "",
          "type": "address"
        }
      ],
      "stateMutability": "nonpayable",
      "type": "function"
    },
    {
      "inputs": [
        {
          "internalType": "address",
          "name": "owner",
          "type": "address"
        },
        {
          "internalType": "bytes32",
          "name": "cName",
          "type": "bytes32"
        },
        {
          "internalType": "uint24",
          "name": "cCut",
          "type": "uint24"
        },
        {
          "internalType": "uint24",
          "name": "cPCut",
          "type": "uint24"
        },
        {
          "internalType": "int32",
          "name": "minScore",
          "type": "int32"
        },
        {
          "internalType": "uint256",
          "name": "entryPrice",
          "type": "uint256"
        },
        {
          "internalType": "uint256",
          "name": "duration",
          "type": "uint256"
        },
        {
          "internalType": "address",
          "name": "challengeAddress",
          "type": "address"
        }
      ],
      "name": "newClassRoom",
      "outputs": [
        {
          "internalType": "address",
          "name": "",
          "type": "address"
        }
      ],
      "stateMutability": "nonpayable",
      "type": "function"
    },
    {
      "inputs": [
        {
          "internalType": "address",
          "name": "applicationAddr",
          "type": "address"
        },
        {
          "internalType": "bytes32",
          "name": "cName",
          "type": "bytes32"
        },
        {
          "internalType": "uint24",
          "name": "cCut",
          "type": "uint24"
        },
        {
          "internalType": "uint24",
          "name": "cPCut",
          "type": "uint24"
        },
        {
          "internalType": "int32",
          "name": "minScore",
          "type": "int32"
        },
        {
          "internalType": "uint256",
          "name": "entryPrice",
          "type": "uint256"
        },
        {
          "internalType": "uint256",
          "name": "duration",
          "type": "uint256"
        },
        {
          "internalType": "address",
          "name": "challenge",
          "type": "address"
        }
      ],
      "name": "studentRequestClassroom",
      "outputs": [
        {
          "internalType": "address",
          "name": "",
          "type": "address"
        }
      ],
      "stateMutability": "nonpayable",
      "type": "function"
    },
    {
      "inputs": [
        {
          "internalType": "address",
          "name": "student",
          "type": "address"
        },
        {
          "internalType": "address",
          "name": "application",
          "type": "address"
        }
      ],
      "name": "registerStudentApplication",
      "outputs": [],
      "stateMutability": "nonpayable",
      "type": "function"
    },
    {
      "inputs": [
        {
          "internalType": "address",
          "name": "student",
          "type": "address"
        },
        {
          "internalType": "int32",
          "name": "val",
          "type": "int32"
        }
      ],
      "name": "addStudentScore",
      "outputs": [],
      "stateMutability": "nonpayable",
      "type": "function"
    },
    {
      "inputs": [
        {
          "internalType": "address",
          "name": "student",
          "type": "address"
        },
        {
          "internalType": "int32",
          "name": "val",
          "type": "int32"
        }
      ],
      "name": "subStudentScore",
      "outputs": [],
      "stateMutability": "nonpayable",
      "type": "function"
    },
    {
      "inputs": [
        {
          "internalType": "uint256",
          "name": "val",
          "type": "uint256"
        }
      ],
      "name": "applyFunds",
      "outputs": [],
      "stateMutability": "nonpayable",
      "type": "function"
    },
    {
      "inputs": [
        {
          "internalType": "uint256",
          "name": "val",
          "type": "uint256"
        }
      ],
      "name": "recoverFunds",
      "outputs": [],
      "stateMutability": "nonpayable",
      "type": "function"
    },
    {
      "inputs": [
        {
          "internalType": "address",
          "name": "to",
          "type": "address"
        },
        {
          "internalType": "uint256",
          "name": "val",
          "type": "uint256"
        }
      ],
      "name": "spendFunds",
      "outputs": [],
      "stateMutability": "nonpayable",
      "type": "function"
    },
    {
      "inputs": [
        {
          "internalType": "address",
          "name": "to",
          "type": "address"
        },
        {
          "internalType": "uint256",
          "name": "val",
          "type": "uint256"
        }
      ],
      "name": "allowFunds",
      "outputs": [],
      "stateMutability": "nonpayable",
      "type": "function"
    },
    {
      "inputs": [
        {
          "internalType": "address",
          "name": "studentApplication",
          "type": "address"
        }
      ],
      "name": "giveGrant",
      "outputs": [],
      "stateMutability": "nonpayable",
      "type": "function"
    },
    {
      "inputs": [
        {
          "internalType": "address",
          "name": "grantsManager",
          "type": "address"
        }
      ],
      "name": "viewAllStudentsFromGrantManager",
      "outputs": [
        {
          "internalType": "address[]",
          "name": "",
          "type": "address[]"
        }
      ],
      "stateMutability": "nonpayable",
      "type": "function"
    },
    {
      "inputs": [
        {
          "internalType": "address",
          "name": "student",
          "type": "address"
        },
        {
          "internalType": "address",
          "name": "grantsManager",
          "type": "address"
        }
      ],
      "name": "viewAllStudentGrantsFromGrantManager",
      "outputs": [
        {
          "internalType": "uint256[]",
          "name": "",
          "type": "uint256[]"
        }
      ],
      "stateMutability": "nonpayable",
      "type": "function"
    },
    {
      "inputs": [
        {
          "components": [
            {
              "internalType": "address",
              "name": "target",
              "type": "address"
            },
            {
              "internalType": "bytes",
              "name": "encodedFunction",
              "type": "bytes"
            },
            {
              "components": [
                {
                  "internalType": "uint256",
                  "name": "gasLimit",
                  "type": "uint256"
                },
                {
                  "internalType": "uint256",
                  "name": "gasPrice",
                  "type": "uint256"
                },
                {
                  "internalType": "uint256",
                  "name": "pctRelayFee",
                  "type": "uint256"
                },
                {
                  "internalType": "uint256",
                  "name": "baseRelayFee",
                  "type": "uint256"
                }
              ],
              "internalType": "struct GSNTypes.GasData",
              "name": "gasData",
              "type": "tuple"
            },
            {
              "components": [
                {
                  "internalType": "address",
                  "name": "senderAddress",
                  "type": "address"
                },
                {
                  "internalType": "uint256",
                  "name": "senderNonce",
                  "type": "uint256"
                },
                {
                  "internalType": "address",
                  "name": "relayWorker",
                  "type": "address"
                },
                {
                  "internalType": "address",
                  "name": "paymaster",
                  "type": "address"
                }
              ],
              "internalType": "struct GSNTypes.RelayData",
              "name": "relayData",
              "type": "tuple"
            }
          ],
          "internalType": "struct GSNTypes.RelayRequest",
          "name": "relayRequest",
          "type": "tuple"
        },
        {
          "internalType": "bytes",
          "name": "",
          "type": "bytes"
        },
        {
          "internalType": "uint256",
          "name": "",
          "type": "uint256"
        }
      ],
      "name": "acceptRelayedCall",
      "outputs": [
        {
          "internalType": "bytes",
          "name": "context",
          "type": "bytes"
        }
      ],
      "stateMutability": "pure",
      "type": "function",
      "constant": true
    },
    {
      "inputs": [
        {
          "internalType": "uint256",
          "name": "val",
          "type": "uint256"
        }
      ],
      "name": "refillUniversityRelayer",
      "outputs": [],
      "stateMutability": "nonpayable",
      "type": "function"
    },
    {
      "inputs": [
        {
          "internalType": "uint256",
          "name": "donation",
          "type": "uint256"
        }
      ],
      "name": "donateDai",
      "outputs": [],
      "stateMutability": "nonpayable",
      "type": "function"
    }
  ],
  "bytecode": "0x60806040523480156200001157600080fd5b50604051620035e3380380620035e383398101604081905262000034916200037c565b6000620000496001600160e01b036200018316565b600080546001600160a01b0319166001600160a01b0383169081178255604051929350917f8be0079c531659141344cd1fd0a4f28419497f9722a3daafe3b4186f6b6457e0908290a35060038990556004805462ffffff191662ffffff8a161790556005879055620000cf6000620000c062000183565b6001600160e01b036200018716565b6200010c604051620000e19062000433565b604051908190039020620000fd6001600160e01b036200018316565b6001600160e01b03620001a016565b600c80546001600160a01b03199081166001600160a01b0398891617909155600b8054821696881696909617909555600d8054861694871694909417909355600e8054851692861692909217909155600f8054841691851691909117905560108054909216921691909117905550620004ab915050565b3390565b6200019c82826001600160e01b036200020116565b5050565b600082815260016020526040902060020154620001d990620001ca6001600160e01b036200018316565b6001600160e01b036200028516565b620001875760405162461bcd60e51b8152600401620001f8906200045c565b60405180910390fd5b6000828152600160209081526040909120620002289183906200210b620002b4821b17901c565b156200019c57620002416001600160e01b036200018316565b6001600160a01b0316816001600160a01b0316837f2f8788117e7eff1d82e926ec794901d17c78024a50270940304540a733656f0d60405160405180910390a45050565b60008281526001602090815260408220620002ab918490620020c1620002d4821b17901c565b90505b92915050565b6000620002ab836001600160a01b0384166001600160e01b03620002f416565b6000620002ab836001600160a01b0384166001600160e01b036200034c16565b60006200030b83836001600160e01b036200034c16565b6200034357508154600181810184556000848152602080822090930184905584548482528286019093526040902091909155620002ae565b506000620002ae565b60009081526001919091016020526040902054151590565b80516001600160a01b0381168114620002ae57600080fd5b60008060008060008060008060006101208a8c0312156200039b578485fd5b8951985060208a015162ffffff81168114620003b5578586fd5b60408b01519098509650620003ce8b60608c0162000364565b9550620003df8b60808c0162000364565b9450620003f08b60a08c0162000364565b9350620004018b60c08c0162000364565b9250620004128b60e08c0162000364565b9150620004248b6101008c0162000364565b90509295985092959850929598565b7f524541445f53545544454e545f4c4953545f524f4c4500000000000000000000815260160190565b6020808252602f908201527f416363657373436f6e74726f6c3a2073656e646572206d75737420626520616e60408201526e0818591b5a5b881d1bc819dc985b9d608a1b606082015260800190565b61312880620004bb6000396000f3fe6080604052600436106103435760003560e01c8063898855ed116101b0578063c4707a83116100ec578063e37dd98011610095578063ef5450ba1161006f578063ef5450ba14610928578063f2fde38b14610948578063f676f43d14610968578063ff5d8f631461097d57610383565b8063e37dd980146108c6578063e6fd604c146108e6578063e770d7d41461090857610383565b8063d24f8cdd116100c6578063d24f8cdd14610866578063d3c5704e14610886578063d547741f146108a657610383565b8063c4707a831461081c578063ca15c87314610831578063ce1b815f1461085157610383565b80639fd6cb7a11610159578063be22f54611610133578063be22f546146107b2578063be614379146107c7578063c204a0e0146107dc578063c419f432146107fc57610383565b80639fd6cb7a1461075b578063a217fddf14610770578063b1ed031f1461078557610383565b80638ff2f7621161018a5780638ff2f762146106fb5780639010d07c1461071b57806391d148541461073b57610383565b8063898855ed146106b15780638a9f5b7f146106d15780638da5cb5b146106e657610383565b80634ab358c71161027f57806369e527da116102285780637fd5c108116102025780637fd5c1081461063c578063820cd75c1461065c57806385dade611461067157806387bfe1881461069157610383565b806369e527da146105f2578063715018a6146106075780637784e6b21461061c57610383565b80635a7dd150116102595780635a7dd150146105a85780636408a386146105c857806364d47731146105dd57610383565b80634ab358c7146105485780634ea962c1146105685780635070ad951461058857610383565b806328475518116102ec57806332636ac9116102c657806332636ac9146104c657806336568abe146104db578063478ecefb146104fb5780634884da051461051b57610383565b8063284755181461046f578063289c5e54146104915780632f2ff15d146104a657610383565b80631d8446af1161031d5780631d8446af14610402578063238aaf2f14610422578063248a9ca31461044f57610383565b806306fdde031461038857806316ded1ce146103b3578063183b2600146103e057610383565b36610383577f60e4c1ac84c9e2c4c0aa82b86b3b1ddf0b1b73fbbeb74c8bc8f8f06041ccfdf633346040516103799291906127eb565b60405180910390a1005b600080fd5b34801561039457600080fd5b5061039d61099d565b6040516103aa91906128b0565b60405180910390f35b3480156103bf57600080fd5b506103d36103ce3660046122b9565b6109a3565b6040516103aa91906128a5565b3480156103ec57600080fd5b506104006103fb3660046122f1565b610a0c565b005b34801561040e57600080fd5b5061040061041d36600461255f565b610a75565b34801561042e57600080fd5b5061044261043d3660046122f1565b610b60565b6040516103aa919061286d565b34801561045b57600080fd5b5061039d61046a36600461255f565b610c2f565b34801561047b57600080fd5b50610484610c44565b6040516103aa91906127b3565b34801561049d57600080fd5b50610484610c53565b3480156104b257600080fd5b506104006104c1366004612577565b610cd6565b3480156104d257600080fd5b5061039d610d1e565b3480156104e757600080fd5b506104006104f6366004612577565b610d35565b34801561050757600080fd5b5061040061051636600461255f565b610d77565b34801561052757600080fd5b5061053b6105363660046122b9565b610e09565b6040516103aa9190612820565b34801561055457600080fd5b5061040061056336600461255f565b610ead565b34801561057457600080fd5b50610484610583366004612329565b610f73565b34801561059457600080fd5b506104006105a33660046123ec565b610fbd565b3480156105b457600080fd5b506104846105c336600461255f565b61108a565b3480156105d457600080fd5b5061053b61109d565b3480156105e957600080fd5b5061039d6110af565b3480156105fe57600080fd5b506104846110bb565b34801561061357600080fd5b506104006110ca565b34801561062857600080fd5b506104006106373660046122b9565b611149565b34801561064857600080fd5b50610484610657366004612329565b6111ca565b34801561066857600080fd5b5061039d61134e565b34801561067d57600080fd5b506103d361068c3660046122b9565b61135a565b34801561069d57600080fd5b506104006106ac3660046123b9565b61136b565b3480156106bd57600080fd5b506104006106cc36600461255f565b6113f5565b3480156106dd57600080fd5b5061039d61146a565b3480156106f257600080fd5b50610484611476565b34801561070757600080fd5b5061048461071636600461255f565b611485565b34801561072757600080fd5b5061048461073636600461259b565b611504565b34801561074757600080fd5b506103d3610756366004612577565b611522565b34801561076757600080fd5b5061039d611540565b34801561077c57600080fd5b5061039d61154c565b34801561079157600080fd5b506107a56107a03660046125bc565b611551565b6040516103aa919061293b565b3480156107be57600080fd5b50610484611636565b3480156107d357600080fd5b5061039d611645565b3480156107e857600080fd5b506104006107f736600461255f565b611651565b34801561080857600080fd5b506104006108173660046123ec565b61174e565b34801561082857600080fd5b5061039d6117ab565b34801561083d57600080fd5b5061039d61084c36600461255f565b6117b7565b34801561085d57600080fd5b506104846117ce565b34801561087257600080fd5b5061039d6108813660046122b9565b6117dd565b34801561089257600080fd5b5061053b6108a13660046122b9565b6117ef565b3480156108b257600080fd5b506104006108c1366004612577565b6118b2565b3480156108d257600080fd5b506104846108e136600461255f565b6118ec565b3480156108f257600080fd5b506108fb611913565b6040516103aa9190613035565b34801561091457600080fd5b50610400610923366004612659565b61191e565b34801561093457600080fd5b5061040061094336600461255f565b61199c565b34801561095457600080fd5b506104006109633660046122b9565b6119d6565b34801561097457600080fd5b5061039d611a8c565b34801561098957600080fd5b506104006109983660046123b9565b611a92565b60035481565b60006109c46040516109b490612694565b6040518091039020610756611b02565b6109e95760405162461bcd60e51b81526004016109e090612a56565b60405180910390fd5b610a066040516109f8906126bd565b604051809103902083611522565b92915050565b610a1b6040516109b4906126e6565b610a375760405162461bcd60e51b81526004016109e090612d75565b6001600160a01b0391821660009081526008602090815260408220805460018101825590835291200180546001600160a01b03191691909216179055565b600c546001600160a01b03166323b872dd610a8e611b02565b30846040518463ffffffff1660e01b8152600401610aae939291906127c7565b602060405180830381600087803b158015610ac857600080fd5b505af1158015610adc573d6000803e3d6000fd5b505050506040513d601f19601f82011682018060405250810190610b00919061253f565b50610b378160096000610b11611b02565b6001600160a01b031681526020810191909152604001600020549063ffffffff611b0616565b60096000610b43611b02565b6001600160a01b0316815260208101919091526040016000205550565b6060610b716040516109b49061278a565b610b8d5760405162461bcd60e51b81526004016109e090612ec1565b6040517fe60d0f4a0000000000000000000000000000000000000000000000000000000081526001600160a01b0383169063e60d0f4a90610bd29086906004016127b3565b600060405180830381600087803b158015610bec57600080fd5b505af1158015610c00573d6000803e3d6000fd5b505050506040513d6000823e601f3d908101601f19168201604052610c2891908101906124b8565b9392505050565b60009081526001602052604090206002015490565b600d546001600160a01b031681565b600060183610801590610c7e5750610c696117ce565b6001600160a01b0316336001600160a01b0316145b15610cd057610cc96000368080601f0160208091040260200160405190810160405280939291908181526020018383808284376000920191909152505060131936019150611b2b9050565b9050610cd3565b50335b90565b600082815260016020526040902060020154610cf490610756611b02565b610d105760405162461bcd60e51b81526004016109e0906129f9565b610d1a8282611b3c565b5050565b604051610d2a906126bd565b604051809103902081565b610d3d611b02565b6001600160a01b0316816001600160a01b031614610d6d5760405162461bcd60e51b81526004016109e090612fd8565b610d1a8282611bab565b610d866040516109b490612738565b610da25760405162461bcd60e51b81526004016109e090612cbb565b600d5460405163aa67c91960e01b81526001600160a01b039091169063aa67c919908390610dd49030906004016127b3565b6000604051808303818588803b158015610ded57600080fd5b505af1158015610e01573d6000803e3d6000fd5b505050505050565b6060610e1a6040516109b49061278a565b610e365760405162461bcd60e51b81526004016109e090612ec1565b816001600160a01b03166369e7af436040518163ffffffff1660e01b8152600401600060405180830381600087803b158015610e7157600080fd5b505af1158015610e85573d6000803e3d6000fd5b505050506040513d6000823e601f3d908101601f19168201604052610a069190810190612417565b610ebc6040516109b490612738565b610ed85760405162461bcd60e51b81526004016109e090612b10565b600b546040517f852a12e30000000000000000000000000000000000000000000000000000000081526001600160a01b039091169063852a12e390610f219084906004016128b0565b602060405180830381600087803b158015610f3b57600080fd5b505af1158015610f4f573d6000803e3d6000fd5b505050506040513d601f19601f82011682018060405250810190610d1a919061267c565b6000610f846040516109b49061270f565b610fa05760405162461bcd60e51b81526004016109e090612c5e565b610fb08989898989898989611c1a565b9998505050505050505050565b610fcc6040516109b490612738565b610fe85760405162461bcd60e51b81526004016109e090612b10565b600c546040517fa9059cbb0000000000000000000000000000000000000000000000000000000081526001600160a01b039091169063a9059cbb9061103390859085906004016127eb565b602060405180830381600087803b15801561104d57600080fd5b505af1158015611061573d6000803e3d6000fd5b505050506040513d601f19601f82011682018060405250810190611085919061253f565b505050565b6000610a0682611098611b02565b611e3e565b60606110aa6108a1611b02565b905090565b604051610d2a90612761565b600b546001600160a01b031681565b6110d2611b02565b6000546001600160a01b039081169116146110ff5760405162461bcd60e51b81526004016109e090612e2f565b600080546040516001600160a01b03909116907f8be0079c531659141344cd1fd0a4f28419497f9722a3daafe3b4186f6b6457e0908390a3600080546001600160a01b0319169055565b6111586040516109b490612761565b6111745760405162461bcd60e51b81526004016109e090612e64565b806001600160a01b0316632d24947b6040518163ffffffff1660e01b8152600401600060405180830381600087803b1580156111af57600080fd5b505af11580156111c3573d6000803e3d6000fd5b5050505050565b60006111db6040516109b4906126bd565b6111f75760405162461bcd60e51b81526004016109e090612cbb565b611208611202611b02565b8a612031565b6112245760405162461bcd60e51b81526004016109e090612c01565b6000899050806001600160a01b0316636587b61e6040518163ffffffff1660e01b815260040160206040518083038186803b15801561126257600080fd5b505afa158015611276573d6000803e3d6000fd5b505050506040513d601f19601f8201168201806040525081019061129a919061267c565b6003146112b95760405162461bcd60e51b81526004016109e090612f7b565b6113406112c4611b02565b6001600160a01b0316637a6c8b536040518163ffffffff1660e01b815260040160206040518083038186803b1580156112fc57600080fd5b505afa158015611310573d6000803e3d6000fd5b505050506040513d601f19601f8201168201806040525081019061133491906122d5565b8a8a8a8a8a8a8a611c1a565b9a9950505050505050505050565b604051610d2a9061270f565b6000610a066040516109f8906126e6565b61137a6040516109b4906126e6565b6113965760405162461bcd60e51b81526004016109e090612d75565b6040517faa4f38c70000000000000000000000000000000000000000000000000000000081526001600160a01b0383169063aa4f38c7906113db90849060040161298e565b600060405180830381600087803b158015610ded57600080fd5b6113fd611b02565b6000546001600160a01b0390811691161461142a5760405162461bcd60e51b81526004016109e090612e2f565b60038190556040517f9f8929be552430dd6434c446d106c34954b2040ca8c4dbf42a39323dd6cda3ca9061145f9083906128b0565b60405180910390a150565b604051610d2a906126e6565b6000546001600160a01b031690565b60008061149483611098610c53565b600d5460055460405163aa67c91960e01b81529293506001600160a01b039091169163aa67c91991906114cb9085906004016127b3565b6000604051808303818588803b1580156114e457600080fd5b505af11580156114f8573d6000803e3d6000fd5b50939695505050505050565b6000828152600160205260408120610c28908363ffffffff6120b516565b6000828152600160205260408120610c28908363ffffffff6120c116565b604051610d2a90612694565b600081565b60607f8ff2f762000000000000000000000000000000000000000000000000000000006115be6115846020880188613045565b8080601f016020809104026020016040519081016040528093929190818152602001838380828437600092018290525092506120d6915050565b7fffffffff0000000000000000000000000000000000000000000000000000000016146115fd5760405162461bcd60e51b81526004016109e090612f1e565b61160a60208601866122b9565b600060405160200161161d929190612804565b6040516020818303038152906040529050949350505050565b600c546001600160a01b031681565b604051610d2a9061278a565b6116606040516109b490612738565b61167c5760405162461bcd60e51b81526004016109e090612b10565b600c54600b5460405163095ea7b360e01b81526001600160a01b039283169263095ea7b3926116b29291169085906004016127eb565b602060405180830381600087803b1580156116cc57600080fd5b505af11580156116e0573d6000803e3d6000fd5b505050506040513d601f19601f82011682018060405250810190611704919061253f565b50600b546040517fa0712d680000000000000000000000000000000000000000000000000000000081526001600160a01b039091169063a0712d6890610f219084906004016128b0565b61175d6040516109b490612738565b6117795760405162461bcd60e51b81526004016109e090612b10565b600c5460405163095ea7b360e01b81526001600160a01b039091169063095ea7b39061103390859085906004016127eb565b604051610d2a90612738565b6000818152600160205260408120610a0690612100565b6002546001600160a01b031690565b60096020526000908152604090205481565b60606117f9611b02565b6001600160a01b0316826001600160a01b0316148061182257506118226040516109b490612761565b61183e5760405162461bcd60e51b81526004016109e090612d18565b6001600160a01b038216600090815260086020908152604091829020805483518184028101840190945280845290918301828280156118a657602002820191906000526020600020905b81546001600160a01b03168152600190910190602001808311611888575b50505050509050919050565b6000828152600160205260409020600201546118d090610756611b02565b610d6d5760405162461bcd60e51b81526004016109e090612dd2565b600681815481106118f957fe5b6000918252602090912001546001600160a01b0316905081565b60045462ffffff1681565b611926611b02565b6000546001600160a01b039081169116146119535760405162461bcd60e51b81526004016109e090612e2f565b6004805462ffffff191662ffffff83811691909117918290556040517f1add5f7de244142e10bca375bb84823e3c24ddac2c2ec678f35c007d8f02084d9261145f921690613035565b6119a4611b02565b6000546001600160a01b039081169116146119d15760405162461bcd60e51b81526004016109e090612e2f565b600555565b6119de611b02565b6000546001600160a01b03908116911614611a0b5760405162461bcd60e51b81526004016109e090612e2f565b6001600160a01b038116611a315760405162461bcd60e51b81526004016109e090612ab3565b600080546040516001600160a01b03808516939216917f8be0079c531659141344cd1fd0a4f28419497f9722a3daafe3b4186f6b6457e091a3600080546001600160a01b0319166001600160a01b0392909216919091179055565b600a5481565b611aa16040516109b4906126e6565b611abd5760405162461bcd60e51b81526004016109e090612d75565b6040517f686513500000000000000000000000000000000000000000000000000000000081526001600160a01b038316906368651350906113db90849060040161298e565b3390565b600082820183811015610c285760405162461bcd60e51b81526004016109e090612bca565b01601401516001600160a01b031690565b6000828152600160205260409020611b5a908263ffffffff61210b16565b15610d1a57611b67611b02565b6001600160a01b0316816001600160a01b0316837f2f8788117e7eff1d82e926ec794901d17c78024a50270940304540a733656f0d60405160405180910390a45050565b6000828152600160205260409020611bc9908263ffffffff61212016565b15610d1a57611bd6611b02565b6001600160a01b0316816001600160a01b0316837ff6391f5c32d9c69d2a47ea670b442974b53935d1edc7fd64eb21e047a839171b60405160405180910390a45050565b600080600e60009054906101000a90046001600160a01b03166001600160a01b031663f9a84f968a8a8a8a8a8a308b600c60009054906101000a90046001600160a01b0316600b60009054906101000a90046001600160a01b0316601060009054906101000a90046001600160a01b03166040518c63ffffffff1660e01b8152600401611cb19b9a999897969594939291906128d0565b602060405180830381600087803b158015611ccb57600080fd5b505af1158015611cdf573d6000803e3d6000fd5b505050506040513d601f19601f82011682018060405250810190611d0391906122d5565b6040517f18b9533b0000000000000000000000000000000000000000000000000000000081529091506001600160a01b038216906318b9533b90611d4b908d906004016127b3565b600060405180830381600087803b158015611d6557600080fd5b505af1158015611d79573d6000803e3d6000fd5b5050600680546001810182556000919091527ff652222313e28459528d920b65115c16c04f3efc82aaedc97be59f3f377c0d3f0180546001600160a01b0319166001600160a01b03851617905550506040518190611de890611dda90612694565b604051809103902082610cd6565b611df7604051611dda906126e6565b7f0e2441b756c0237af490768eeb52214bde66464d79756f8ac3c03b10c9528b3c8a82604051611e289291906128b9565b60405180910390a19a9950505050505050505050565b600060086000611e4c610c53565b6001600160a01b0316815260208101919091526040016000205415611e835760405162461bcd60e51b81526004016109e090612b6d565b6001600160a01b038083166000908152600860209081526040808320805460018101825590845291832090910180546001600160a01b0319169055600f5490517f8ebf1d2700000000000000000000000000000000000000000000000000000000815291921690638ebf1d2790611f0090879030906004016128b9565b602060405180830381600087803b158015611f1a57600080fd5b505af1158015611f2e573d6000803e3d6000fd5b505050506040513d601f19601f82011682018060405250810190611f5291906122d5565b6040517f18a9e9480000000000000000000000000000000000000000000000000000000081529091506001600160a01b038216906318a9e94890611f9a9086906004016127b3565b600060405180830381600087803b158015611fb457600080fd5b505af1158015611fc8573d6000803e3d6000fd5b5050600780546001810182556000919091527fa66cc928b5edb82af9bd49922954155ab7b0942694bea4ce44661d9a8736c6880180546001600160a01b0319166001600160a01b0385161790555050604051819061202990611dda906126bd565b949350505050565b6000805b6001600160a01b0384166000908152600860205260409020548110156120ab576001600160a01b0384811660009081526008602052604090208054918516918390811061207e57fe5b6000918252602090912001546001600160a01b031614156120a3576001915050610a06565b600101612035565b5060009392505050565b6000610c288383612135565b6000610c28836001600160a01b03841661217a565b01602001517fffffffff000000000000000000000000000000000000000000000000000000001690565b6000610a0682612192565b6000610c28836001600160a01b038416612196565b6000610c28836001600160a01b0384166121e0565b815460009082106121585760405162461bcd60e51b81526004016109e09061299c565b82600001828154811061216757fe5b9060005260206000200154905092915050565b60009081526001919091016020526040902054151590565b5490565b60006121a2838361217a565b6121d857508154600181810184556000848152602080822090930184905584548482528286019093526040902091909155610a06565b506000610a06565b6000818152600183016020526040812054801561229c578354600019808301919081019060009087908390811061221357fe5b906000526020600020015490508087600001848154811061223057fe5b60009182526020808320909101929092558281526001898101909252604090209084019055865487908061226057fe5b60019003818190600052602060002001600090559055866001016000878152602001908152602001600020600090556001945050505050610a06565b6000915050610a06565b803562ffffff81168114610a0657600080fd5b6000602082840312156122ca578081fd5b8135610c28816130da565b6000602082840312156122e6578081fd5b8151610c28816130da565b60008060408385031215612303578081fd5b823561230e816130da565b9150602083013561231e816130da565b809150509250929050565b600080600080600080600080610100898b031215612345578384fd5b8835612350816130da565b9750602089013596506123668a60408b016122a6565b95506123758a60608b016122a6565b945060808901358060030b811461238a578485fd5b935060a0890135925060c0890135915060e08901356123a8816130da565b809150509295985092959890939650565b600080604083850312156123cb578182fd5b82356123d6816130da565b91506020830135600381900b811461231e578182fd5b600080604083850312156123fe578182fd5b8235612409816130da565b946020939093013593505050565b60006020808385031215612429578182fd5b825167ffffffffffffffff81111561243f578283fd5b80840185601f820112612450578384fd5b80519150612465612460836130ba565b613093565b8281528381019082850185850284018601891015612481578687fd5b8693505b848410156124ac578051612498816130da565b835260019390930192918501918501612485565b50979650505050505050565b600060208083850312156124ca578182fd5b825167ffffffffffffffff8111156124e0578283fd5b80840185601f8201126124f1578384fd5b80519150612501612460836130ba565b828152838101908285018585028401860189101561251d578687fd5b8693505b848410156124ac578051835260019390930192918501918501612521565b600060208284031215612550578081fd5b81518015158114610c28578182fd5b600060208284031215612570578081fd5b5035919050565b60008060408385031215612589578182fd5b82359150602083013561231e816130da565b600080604083850312156125ad578182fd5b50508035926020909101359150565b600080600080606085870312156125d1578182fd5b843567ffffffffffffffff808211156125e8578384fd5b818701610140818a0312156125fb578485fd5b95506020870135915080821115612610578384fd5b81870188601f820112612621578485fd5b8035925081831115612631578485fd5b886020848301011115612642578485fd5b959860209096019750909560400135949350505050565b60006020828403121561266a578081fd5b813562ffffff81168114610c28578182fd5b60006020828403121561268d578081fd5b5051919050565b7f524541445f53545544454e545f4c4953545f524f4c4500000000000000000000815260160190565b7f53545544454e545f4944454e544954595f524f4c450000000000000000000000815260150190565b7f434c415353524f4f4d5f50524f464553534f525f524f4c450000000000000000815260180190565b7f434c4153534c4953545f41444d494e5f524f4c45000000000000000000000000815260140190565b7f46554e44535f4d414e414745525f524f4c450000000000000000000000000000815260120190565b7f4752414e54535f4d414e414745525f524f4c4500000000000000000000000000815260130190565b7f554e49564552534954595f4f564552534545525f524f4c450000000000000000815260180190565b6001600160a01b0391909116815260200190565b6001600160a01b039384168152919092166020820152604081019190915260600190565b6001600160a01b03929092168252602082015260400190565b6001600160a01b0392909216825260ff16602082015260400190565b6020808252825182820181905260009190848201906040850190845b818110156128615783516001600160a01b03168352928401929184019160010161283c565b50909695505050505050565b6020808252825182820181905260009190848201906040850190845b8181101561286157835183529284019291840191600101612889565b901515815260200190565b90815260200190565b9182526001600160a01b0316602082015260400190565b9a8b5262ffffff998a1660208c01529790981660408a015260039590950b6060890152608088019390935260a08701919091526001600160a01b0390811660c087015290811660e0860152908116610100850152918216610120840152166101408201526101600190565b6000602080835283518082850152825b818110156129675785810183015185820160400152820161294b565b818111156129785783604083870101525b50601f01601f1916929092016040019392505050565b60039190910b815260200190565b60208082526022908201527f456e756d657261626c655365743a20696e646578206f7574206f6620626f756e60408201527f6473000000000000000000000000000000000000000000000000000000000000606082015260800190565b6020808252602f908201527f416363657373436f6e74726f6c3a2073656e646572206d75737420626520616e60408201527f2061646d696e20746f206772616e740000000000000000000000000000000000606082015260800190565b60208082526036908201527f556e69766572736974793a2063616c6c657220646f65736e277420686176652060408201527f524541445f53545544454e545f4c4953545f524f4c4500000000000000000000606082015260800190565b60208082526026908201527f4f776e61626c653a206e6577206f776e657220697320746865207a65726f206160408201527f6464726573730000000000000000000000000000000000000000000000000000606082015260800190565b60208082526032908201527f556e69766572736974793a2063616c6c657220646f65736e277420686176652060408201527f46554e44535f4d414e414745525f524f4c450000000000000000000000000000606082015260800190565b60208082526026908201527f556e69766572736974793a2073747564656e7420616c7265616479207265676960408201527f7374657265640000000000000000000000000000000000000000000000000000606082015260800190565b6020808252601b908201527f536166654d6174683a206164646974696f6e206f766572666c6f770000000000604082015260600190565b60208082526035908201527f556e69766572736974793a2063616c6c6572206973206e6f742073747564656e60408201527f74206f662074686973206170706c69636174696f6e0000000000000000000000606082015260800190565b60208082526034908201527f556e69766572736974793a2063616c6c657220646f65736e277420686176652060408201527f434c4153534c4953545f41444d494e5f524f4c45000000000000000000000000606082015260800190565b60208082526035908201527f556e69766572736974793a2063616c6c657220646f65736e277420686176652060408201527f53545544454e545f4944454e544954595f524f4c450000000000000000000000606082015260800190565b60208082526021908201527f436c617373726f6f6d3a2072656164207065726d697373696f6e2064656e696560408201527f6400000000000000000000000000000000000000000000000000000000000000606082015260800190565b60208082526038908201527f556e69766572736974793a2063616c6c657220646f65736e277420686176652060408201527f434c415353524f4f4d5f50524f464553534f525f524f4c450000000000000000606082015260800190565b60208082526030908201527f416363657373436f6e74726f6c3a2073656e646572206d75737420626520616e60408201527f2061646d696e20746f207265766f6b6500000000000000000000000000000000606082015260800190565b6020808252818101527f4f776e61626c653a2063616c6c6572206973206e6f7420746865206f776e6572604082015260600190565b60208082526033908201527f556e69766572736974793a2063616c6c657220646f65736e277420686176652060408201527f4752414e54535f4d414e414745525f524f4c4500000000000000000000000000606082015260800190565b60208082526038908201527f556e69766572736974793a2063616c6c657220646f65736e277420686176652060408201527f554e49564552534954595f4f564552534545525f524f4c450000000000000000606082015260800190565b6020808252602d908201527f556e69766572736974793a2047534e206e6f7420656e61626c656420666f722060408201527f746869732066756e6374696f6e00000000000000000000000000000000000000606082015260800190565b60208082526029908201527f556e69766572736974793a206170706c69636174696f6e206973206e6f74207360408201527f75636365737366756c0000000000000000000000000000000000000000000000606082015260800190565b6020808252602f908201527f416363657373436f6e74726f6c3a2063616e206f6e6c792072656e6f756e636560408201527f20726f6c657320666f722073656c660000000000000000000000000000000000606082015260800190565b62ffffff91909116815260200190565b6000808335601e1984360301811261305b578283fd5b8084018035925067ffffffffffffffff831115613076578384fd5b6020019250503681900382131561308c57600080fd5b9250929050565b60405181810167ffffffffffffffff811182821017156130b257600080fd5b604052919050565b600067ffffffffffffffff8211156130d0578081fd5b5060209081020190565b6001600160a01b03811681146130ef57600080fd5b5056fea26469706673582212206fc488b62bb8c95146cef723250136c83dd68bf582f9acc99112bb96685b557864736f6c63430006060033",
  "immutableReferences": {},
  "source": "pragma solidity 0.6.6;\npragma experimental ABIEncoderV2;\n\nimport \"@openzeppelin/contracts/math/SafeMath.sol\";\nimport \"@openzeppelin/contracts/access/AccessControl.sol\";\nimport \"@openzeppelin/contracts/access/Ownable.sol\";\nimport \"@openzeppelin/contracts/token/ERC20/IERC20.sol\";\nimport \"@openzeppelin/contracts/utils/Address.sol\";\nimport \"./gambi/BaseRelayRecipient.sol\";\nimport \"./gambi/GSNTypes.sol\";\nimport \"./gambi/IRelayHub.sol\";\nimport \"./interface/IClassroom.sol\";\nimport \"./interface/IStudent.sol\";\nimport \"./interface/IStudentApplication.sol\";\nimport \"./interface/IClassroomFactory.sol\";\nimport \"./interface/IStudentFactory.sol\";\nimport \"./interface/IStudentApplicationFactory.sol\";\nimport \"./interface/IUniversity.sol\";\nimport \"./interface/IGrantsManager.sol\";\nimport \"./MyUtils.sol\";\n\n//TODO: Natspec Document ENVERYTHING\n//TODO: Sort function order from all contracts\n\ncontract University is Ownable, AccessControl, BaseRelayRecipient, IUniversity {\n    using SafeMath for uint256;\n\n    //CLASSLIST_ADMIN_ROLE can add new manually created classes to the list\n    bytes32 public constant CLASSLIST_ADMIN_ROLE = keccak256(\n        \"CLASSLIST_ADMIN_ROLE\"\n    );\n    // FUNDS_MANAGER_ROLE can withdraw funds from the contract\n    bytes32 public constant FUNDS_MANAGER_ROLE = keccak256(\n        \"FUNDS_MANAGER_ROLE\"\n    );\n    // GRANTS_MANAGER_ROLE can approve/decline grant claims\n    bytes32 public constant GRANTS_MANAGER_ROLE = keccak256(\n        \"GRANTS_MANAGER_ROLE\"\n    );\n    // READ_STUDENT_LIST_ROLE allow reading students list\n    bytes32 public constant READ_STUDENT_LIST_ROLE = keccak256(\n        \"READ_STUDENT_LIST_ROLE\"\n    );\n    /// STUDENT_IDENTITY_ROLE allow asking for grants and requesting a classroom from a successful application\n    bytes32 public constant STUDENT_IDENTITY_ROLE = keccak256(\n        \"STUDENT_IDENTITY_ROLE\"\n    );\n    /// CLASSROOM_PROFESSOR_ROLE can manage itself inside the University and registering student applications\n    bytes32 public constant CLASSROOM_PROFESSOR_ROLE = keccak256(\n        \"CLASSROOM_PROFESSOR_ROLE\"\n    );\n    /// UNIVERSITY_OVERSEER_ROLE can inspect Grant Managers and Fund Managers, and present cases for funders to vote upon\n    bytes32 public constant UNIVERSITY_OVERSEER_ROLE = keccak256(\n        \"UNIVERSITY_OVERSEER_ROLE\"\n    );\n\n    // Parameter: Name of this University\n    bytes32 public override name;\n    // Parameter: University cut from professor (Parts per Million)\n    uint24 public override cut;\n    // Parameter: GSN funds to give students\n    uint256 _studentGSNDeposit;\n    // List of every registered classroom\n    address[] public _classList;\n    // List of every student\n    address[] _students;\n    // Mapping of each student's applications\n    mapping(address => address[]) _studentApplicationsMapping;\n    // Mapping of every donor and donations\n    mapping(address => uint256) public donators;\n    // Total amount of donations received so far\n    uint256 public donationsReceived;\n\n    //TODO: resolve students and classrooms addresses using ENS\n\n    CERC20 public cToken;\n    IERC20 public daiToken;\n    IRelayHub public relayHub;\n    IClassroomFactory _classroomFactory;\n    IStudentFactory _studentFactory;\n    address _studentApplicationFactoryAddress;\n\n    constructor(\n        bytes32 _name,\n        uint24 _cut,\n        uint256 studentGSNDeposit,\n        address daiAddress,\n        address compoundAddress,\n        address relayHubAddress,\n        address classroomFactoryAddress,\n        address studentFactoryAddress,\n        address studentApplicationFactoryAddress\n    ) public {\n        name = _name;\n        cut = _cut;\n        _studentGSNDeposit = studentGSNDeposit;\n        _setupRole(DEFAULT_ADMIN_ROLE, _msgSender());\n        grantRole(READ_STUDENT_LIST_ROLE, _msgSender());\n        daiToken = IERC20(daiAddress);\n        cToken = CERC20(compoundAddress);\n        relayHub = IRelayHub(relayHubAddress);\n        _classroomFactory = IClassroomFactory(classroomFactoryAddress);\n        _studentFactory = IStudentFactory(studentFactoryAddress);\n        _studentApplicationFactoryAddress = studentApplicationFactoryAddress;\n    }\n\n    receive() external payable {\n        emit LogReceived(msg.sender, msg.value);\n    }\n\n    event LogNewClassroom(bytes32, address);\n    event LogChangeName(bytes32);\n    event LogChangeCut(uint24);\n    event LogReceived(address, uint256);\n\n    function changeName(bytes32 val) public onlyOwner {\n        name = val;\n        emit LogChangeName(name);\n    }\n\n    function changeCut(uint24 val) public onlyOwner {\n        cut = val;\n        emit LogChangeCut(cut);\n    }\n\n    function changeStudentGSNDeposit(uint256 val) public onlyOwner {\n        _studentGSNDeposit = val;\n    }\n\n    function isValidClassroom(address classroom) public view override returns (bool) {\n        return hasRole(CLASSROOM_PROFESSOR_ROLE, classroom);\n    }\n\n    function studentIsRegistered(address student) public view override returns (bool) {\n        require(\n            hasRole(READ_STUDENT_LIST_ROLE, _msgSender()),\n            \"University: caller doesn't have READ_STUDENT_LIST_ROLE\"\n        );\n        return hasRole(STUDENT_IDENTITY_ROLE, student);\n    }\n\n    function viewMyApplications() public view override returns (address[] memory) {\n        return viewStudentApplications(_msgSender());\n    }\n\n    function viewStudentApplications(address addr)\n        public\n        view\n        override\n        returns (address[] memory)\n    {\n        require(\n            addr == _msgSender() || hasRole(GRANTS_MANAGER_ROLE, _msgSender()),\n            \"Classroom: read permission denied\"\n        );\n        return _studentApplicationsMapping[addr];\n    }\n\n    function studentSelfRegisterGSN(bytes32 sName) public returns (address) {\n        address student = _newStudent(sName, _msgSenderGSN());\n        relayHub.depositFor.value(_studentGSNDeposit)(student);\n        return student;\n    }\n\n    function studentSelfRegister(bytes32 sName) public returns (address) {\n        return _newStudent(sName, _msgSender());\n    }\n\n    function _newStudent(bytes32 sName, address caller)\n        internal\n        returns (address)\n    {\n        require(\n            _studentApplicationsMapping[_msgSenderGSN()].length == 0,\n            \"University: student already registered\"\n        );\n        //Gambiarra: Push address(0) in the mapping to mark that student as registered in the university\n        _studentApplicationsMapping[caller].push(address(0));\n        address student = _studentFactory.newStudent(sName, address(this));\n        IStudent(student).transferOwnershipStudent(caller);\n        address studentAddr = address(student);\n        _students.push(studentAddr);\n        grantRole(STUDENT_IDENTITY_ROLE, studentAddr);\n        return address(studentAddr);\n    }\n\n    //ex: owner, name, 0.2 * 10**6, 0.5 * 10**6, 0, 50 * (10 ** 18), 30 days, challengeAddress\n    function newClassRoom(\n        address owner,\n        bytes32 cName,\n        uint24 cCut,\n        uint24 cPCut,\n        int32 minScore,\n        uint256 entryPrice,\n        uint256 duration,\n        address challengeAddress\n    ) public returns (address) {\n        require(\n            hasRole(CLASSLIST_ADMIN_ROLE, _msgSender()),\n            \"University: caller doesn't have CLASSLIST_ADMIN_ROLE\"\n        );\n        return\n            _newClassRoom(\n                owner,\n                cName,\n                cCut,\n                cPCut,\n                minScore,\n                entryPrice,\n                duration,\n                challengeAddress\n            );\n    }\n\n    function _newClassRoom(\n        address owner,\n        bytes32 cName,\n        uint24 cCut,\n        uint24 cPCut,\n        int32 minScore,\n        uint256 entryPrice,\n        uint256 duration,\n        address challengeAddress\n    ) internal returns (address) {\n        address classroom = _classroomFactory.newClassroom(\n            cName,\n            cCut,\n            cPCut,\n            minScore,\n            entryPrice,\n            duration,\n            payable (address(this)),\n            challengeAddress,\n            address(daiToken),\n            address(cToken),\n            _studentApplicationFactoryAddress\n        );\n        IClassroom(classroom).transferOwnershipClassroom(owner);\n        address classroomAddr = address(classroom);\n        _classList.push(classroomAddr);\n        grantRole(READ_STUDENT_LIST_ROLE, classroomAddr);\n        grantRole(CLASSROOM_PROFESSOR_ROLE, classroomAddr);\n        emit LogNewClassroom(cName, classroomAddr);\n        return classroomAddr;\n    }\n\n    function studentRequestClassroom(\n        address applicationAddr,\n        bytes32 cName,\n        uint24 cCut,\n        uint24 cPCut,\n        int32 minScore,\n        uint256 entryPrice,\n        uint256 duration,\n        address challenge\n    ) public override returns (address) {\n        require(\n            hasRole(STUDENT_IDENTITY_ROLE, _msgSender()),\n            \"University: caller doesn't have STUDENT_IDENTITY_ROLE\"\n        );\n        require(\n            checkForStudentApplication(_msgSender(), applicationAddr),\n            \"University: caller is not student of this application\"\n        );\n        IStudentApplication application = IStudentApplication(applicationAddr);\n        require(\n            application.applicationState() == 3,\n            \"University: application is not successful\"\n        );\n        return\n            _newClassRoom(\n                IStudent(_msgSender()).ownerStudent(),\n                cName,\n                cCut,\n                cPCut,\n                minScore,\n                entryPrice,\n                duration,\n                challenge\n            );\n    }\n\n    function registerStudentApplication(address student, address application)\n        public override\n    {\n        require(\n            hasRole(CLASSROOM_PROFESSOR_ROLE, _msgSender()),\n            \"University: caller doesn't have CLASSROOM_PROFESSOR_ROLE\"\n        );\n        _studentApplicationsMapping[student].push(application);\n    }\n\n    function checkForStudentApplication(\n        address studentAddress,\n        address applicationAddress\n    ) internal view returns (bool) {\n        for (\n            uint256 i = 0;\n            i < _studentApplicationsMapping[studentAddress].length;\n            i++\n        ) {\n            if (\n                _studentApplicationsMapping[studentAddress][i] ==\n                applicationAddress\n            ) return true;\n        }\n        return false;\n    }\n\n    function addStudentScore(address student, int32 val) public override {\n        require(\n            hasRole(CLASSROOM_PROFESSOR_ROLE, _msgSender()),\n            \"University: caller doesn't have CLASSROOM_PROFESSOR_ROLE\"\n        );\n        IStudent(student).addScore(val);\n    }\n\n    function subStudentScore(address student, int32 val) public override {\n        require(\n            hasRole(CLASSROOM_PROFESSOR_ROLE, _msgSender()),\n            \"University: caller doesn't have CLASSROOM_PROFESSOR_ROLE\"\n        );\n        IStudent(student).subScore(val);\n    }\n\n    function applyFunds(uint256 val) public {\n        require(\n            hasRole(FUNDS_MANAGER_ROLE, _msgSender()),\n            \"University: caller doesn't have FUNDS_MANAGER_ROLE\"\n        );\n        daiToken.approve(address(cToken), val);\n        cToken.mint(val);\n    }\n\n    function recoverFunds(uint256 val) public {\n        require(\n            hasRole(FUNDS_MANAGER_ROLE, _msgSender()),\n            \"University: caller doesn't have FUNDS_MANAGER_ROLE\"\n        );\n        cToken.redeemUnderlying(val);\n    }\n\n    function spendFunds(address to, uint256 val) public {\n        require(\n            hasRole(FUNDS_MANAGER_ROLE, _msgSender()),\n            \"University: caller doesn't have FUNDS_MANAGER_ROLE\"\n        );\n        daiToken.transfer(to, val);\n    }\n\n    function allowFunds(address to, uint256 val) public {\n        require(\n            hasRole(FUNDS_MANAGER_ROLE, _msgSender()),\n            \"University: caller doesn't have FUNDS_MANAGER_ROLE\"\n        );\n        daiToken.approve(to, val);\n    }\n\n    function giveGrant(address studentApplication) public override {\n        require(\n            hasRole(GRANTS_MANAGER_ROLE, _msgSender()),\n            \"University: caller doesn't have GRANTS_MANAGER_ROLE\"\n        );\n        IStudentApplication(studentApplication).payEntryPrice();\n    }\n\n    function viewAllStudentsFromGrantManager(\n            address grantsManager\n        ) public returns (address[] memory) {\n        require(\n            hasRole(UNIVERSITY_OVERSEER_ROLE, _msgSender()),\n            \"University: caller doesn't have UNIVERSITY_OVERSEER_ROLE\"\n        );\n        return IGrantsManager(grantsManager).viewAllStudents();\n    }\n\n    function viewAllStudentGrantsFromGrantManager(\n            address student, \n            address grantsManager\n        ) public returns (uint256[] memory) {\n        require(\n            hasRole(UNIVERSITY_OVERSEER_ROLE, _msgSender()),\n            \"University: caller doesn't have UNIVERSITY_OVERSEER_ROLE\"\n        );\n        return IGrantsManager(grantsManager).viewAllGrantsForStudent(student);\n    }\n\n    function acceptRelayedCall(\n        GSNTypes.RelayRequest calldata relayRequest,\n        bytes calldata,\n        uint256\n    ) external pure returns (bytes memory context) {\n        require(\n            MyUtils.readBytes4(relayRequest.encodedFunction, 0) ==\n                this.studentSelfRegisterGSN.selector,\n            \"University: GSN not enabled for this function\"\n        );\n        return abi.encode(relayRequest.target, 0);\n    }\n\n    function refillUniversityRelayer(uint256 val) public {\n        require(\n            hasRole(FUNDS_MANAGER_ROLE, _msgSender()),\n            \"University: caller doesn't have STUDENT_IDENTITY_ROLE\"\n        );\n        relayHub.depositFor.value(val)(address(this));\n    }\n\n    //TODO: Trade DAI for ETH in Uniswap\n\n    //TODO: Allow donations in ETH and convert to DAI in Uniswap\n\n    function donateDai(uint256 donation) public override {\n        daiToken.transferFrom(_msgSender(), address(this), donation);\n        donators[_msgSender()] = donators[_msgSender()].add(donation);\n    }\n\n    //TODO: implement funds manager\n}\n",
  "sourcePath": "/Users/flavioneto/Uproot/contracts/University.sol",
  "compiler": {
    "name": "solc",
    "version": "0.6.6+commit.6c089d02.Emscripten.clang"
  },
  "schemaVersion": "3.1.0",
  "updatedAt": "2020-05-06T00:54:07.303Z",
  "networkType": "ethereum",
  "devdoc": {
    "methods": {
      "getRoleAdmin(bytes32)": {
        "details": "Returns the admin role that controls `role`. See {grantRole} and {revokeRole}.     * To change a role's admin, use {_setRoleAdmin}."
      },
      "getRoleMember(bytes32,uint256)": {
        "details": "Returns one of the accounts that have `role`. `index` must be a value between 0 and {getRoleMemberCount}, non-inclusive.     * Role bearers are not sorted in any particular way, and their ordering may change at any point.     * WARNING: When using {getRoleMember} and {getRoleMemberCount}, make sure you perform all queries on the same block. See the following https://forum.openzeppelin.com/t/iterating-over-elements-on-enumerableset-in-openzeppelin-contracts/2296[forum post] for more information."
      },
      "getRoleMemberCount(bytes32)": {
        "details": "Returns the number of accounts that have `role`. Can be used together with {getRoleMember} to enumerate all bearers of a role."
      },
      "grantRole(bytes32,address)": {
        "details": "Grants `role` to `account`.     * If `account` had not been already granted `role`, emits a {RoleGranted} event.     * Requirements:     * - the caller must have ``role``'s admin role."
      },
      "hasRole(bytes32,address)": {
        "details": "Returns `true` if `account` has been granted `role`."
      },
      "owner()": {
        "details": "Returns the address of the current owner."
      },
      "renounceOwnership()": {
        "details": "Leaves the contract without owner. It will not be possible to call `onlyOwner` functions anymore. Can only be called by the current owner.     * NOTE: Renouncing ownership will leave the contract without an owner, thereby removing any functionality that is only available to the owner."
      },
      "renounceRole(bytes32,address)": {
        "details": "Revokes `role` from the calling account.     * Roles are often managed via {grantRole} and {revokeRole}: this function's purpose is to provide a mechanism for accounts to lose their privileges if they are compromised (such as when a trusted device is misplaced).     * If the calling account had been granted `role`, emits a {RoleRevoked} event.     * Requirements:     * - the caller must be `account`."
      },
      "revokeRole(bytes32,address)": {
        "details": "Revokes `role` from `account`.     * If `account` had been granted `role`, emits a {RoleRevoked} event.     * Requirements:     * - the caller must have ``role``'s admin role."
      },
      "transferOwnership(address)": {
        "details": "Transfers ownership of the contract to a new account (`newOwner`). Can only be called by the current owner."
      }
    }
  },
  "userdoc": {
    "methods": {
      "_msgSenderGSN()": {
        "notice": "return the sender of this call. if the call came through our trusted forwarder, return the original sender. otherwise, return `msg.sender`. should be used in the contract anywhere instead of msg.sender"
      }
    }
  }
}