{
  "contractName": "University",
  "abi": [
    {
      "inputs": [
        {
          "internalType": "bytes32",
          "name": "_name",
          "type": "bytes32"
        },
        {
          "internalType": "uint24",
          "name": "_cut",
          "type": "uint24"
        },
        {
          "internalType": "address",
          "name": "daiAddress",
          "type": "address"
        },
        {
          "internalType": "address",
          "name": "compoundAddress",
          "type": "address"
        }
      ],
      "stateMutability": "nonpayable",
      "type": "constructor"
    },
    {
      "anonymous": false,
      "inputs": [
        {
          "indexed": false,
          "internalType": "uint24",
          "name": "",
          "type": "uint24"
        }
      ],
      "name": "LogChangeCut",
      "type": "event"
    },
    {
      "anonymous": false,
      "inputs": [
        {
          "indexed": false,
          "internalType": "bytes32",
          "name": "",
          "type": "bytes32"
        }
      ],
      "name": "LogChangeName",
      "type": "event"
    },
    {
      "anonymous": false,
      "inputs": [
        {
          "indexed": false,
          "internalType": "bytes32",
          "name": "",
          "type": "bytes32"
        },
        {
          "indexed": false,
          "internalType": "address",
          "name": "",
          "type": "address"
        }
      ],
      "name": "LogNewClassroom",
      "type": "event"
    },
    {
      "anonymous": false,
      "inputs": [
        {
          "indexed": true,
          "internalType": "address",
          "name": "previousOwner",
          "type": "address"
        },
        {
          "indexed": true,
          "internalType": "address",
          "name": "newOwner",
          "type": "address"
        }
      ],
      "name": "OwnershipTransferred",
      "type": "event"
    },
    {
      "anonymous": false,
      "inputs": [
        {
          "indexed": true,
          "internalType": "bytes32",
          "name": "role",
          "type": "bytes32"
        },
        {
          "indexed": true,
          "internalType": "address",
          "name": "account",
          "type": "address"
        },
        {
          "indexed": true,
          "internalType": "address",
          "name": "sender",
          "type": "address"
        }
      ],
      "name": "RoleGranted",
      "type": "event"
    },
    {
      "anonymous": false,
      "inputs": [
        {
          "indexed": true,
          "internalType": "bytes32",
          "name": "role",
          "type": "bytes32"
        },
        {
          "indexed": true,
          "internalType": "address",
          "name": "account",
          "type": "address"
        },
        {
          "indexed": true,
          "internalType": "address",
          "name": "sender",
          "type": "address"
        }
      ],
      "name": "RoleRevoked",
      "type": "event"
    },
    {
      "inputs": [],
      "name": "CLASSLIST_ADMIN_ROLE",
      "outputs": [
        {
          "internalType": "bytes32",
          "name": "",
          "type": "bytes32"
        }
      ],
      "stateMutability": "view",
      "type": "function"
    },
    {
      "inputs": [],
      "name": "CLASSROOM_PROFESSOR_ROLE",
      "outputs": [
        {
          "internalType": "bytes32",
          "name": "",
          "type": "bytes32"
        }
      ],
      "stateMutability": "view",
      "type": "function"
    },
    {
      "inputs": [],
      "name": "DEFAULT_ADMIN_ROLE",
      "outputs": [
        {
          "internalType": "bytes32",
          "name": "",
          "type": "bytes32"
        }
      ],
      "stateMutability": "view",
      "type": "function"
    },
    {
      "inputs": [],
      "name": "FUNDS_MANAGER_ROLE",
      "outputs": [
        {
          "internalType": "bytes32",
          "name": "",
          "type": "bytes32"
        }
      ],
      "stateMutability": "view",
      "type": "function"
    },
    {
      "inputs": [],
      "name": "GRANTS_MANAGER_ROLE",
      "outputs": [
        {
          "internalType": "bytes32",
          "name": "",
          "type": "bytes32"
        }
      ],
      "stateMutability": "view",
      "type": "function"
    },
    {
      "inputs": [],
      "name": "READ_STUDENT_LIST_ROLE",
      "outputs": [
        {
          "internalType": "bytes32",
          "name": "",
          "type": "bytes32"
        }
      ],
      "stateMutability": "view",
      "type": "function"
    },
    {
      "inputs": [],
      "name": "STUDENT_IDENTITY_ROLE",
      "outputs": [
        {
          "internalType": "bytes32",
          "name": "",
          "type": "bytes32"
        }
      ],
      "stateMutability": "view",
      "type": "function"
    },
    {
      "inputs": [
        {
          "internalType": "uint256",
          "name": "",
          "type": "uint256"
        }
      ],
      "name": "_classList",
      "outputs": [
        {
          "internalType": "contract Classroom",
          "name": "",
          "type": "address"
        }
      ],
      "stateMutability": "view",
      "type": "function"
    },
    {
      "inputs": [],
      "name": "_msgSenderGSN",
      "outputs": [
        {
          "internalType": "address",
          "name": "",
          "type": "address"
        }
      ],
      "stateMutability": "view",
      "type": "function"
    },
    {
      "inputs": [],
      "name": "cToken",
      "outputs": [
        {
          "internalType": "contract CERC20",
          "name": "",
          "type": "address"
        }
      ],
      "stateMutability": "view",
      "type": "function"
    },
    {
      "inputs": [],
      "name": "cut",
      "outputs": [
        {
          "internalType": "uint24",
          "name": "",
          "type": "uint24"
        }
      ],
      "stateMutability": "view",
      "type": "function"
    },
    {
      "inputs": [],
      "name": "daiToken",
      "outputs": [
        {
          "internalType": "contract IERC20",
          "name": "",
          "type": "address"
        }
      ],
      "stateMutability": "view",
      "type": "function"
    },
    {
      "inputs": [
        {
          "internalType": "bytes32",
          "name": "role",
          "type": "bytes32"
        }
      ],
      "name": "getRoleAdmin",
      "outputs": [
        {
          "internalType": "bytes32",
          "name": "",
          "type": "bytes32"
        }
      ],
      "stateMutability": "view",
      "type": "function"
    },
    {
      "inputs": [
        {
          "internalType": "bytes32",
          "name": "role",
          "type": "bytes32"
        },
        {
          "internalType": "uint256",
          "name": "index",
          "type": "uint256"
        }
      ],
      "name": "getRoleMember",
      "outputs": [
        {
          "internalType": "address",
          "name": "",
          "type": "address"
        }
      ],
      "stateMutability": "view",
      "type": "function"
    },
    {
      "inputs": [
        {
          "internalType": "bytes32",
          "name": "role",
          "type": "bytes32"
        }
      ],
      "name": "getRoleMemberCount",
      "outputs": [
        {
          "internalType": "uint256",
          "name": "",
          "type": "uint256"
        }
      ],
      "stateMutability": "view",
      "type": "function"
    },
    {
      "inputs": [],
      "name": "getTrustedForwarder",
      "outputs": [
        {
          "internalType": "address",
          "name": "",
          "type": "address"
        }
      ],
      "stateMutability": "view",
      "type": "function"
    },
    {
      "inputs": [
        {
          "internalType": "bytes32",
          "name": "role",
          "type": "bytes32"
        },
        {
          "internalType": "address",
          "name": "account",
          "type": "address"
        }
      ],
      "name": "grantRole",
      "outputs": [],
      "stateMutability": "nonpayable",
      "type": "function"
    },
    {
      "inputs": [
        {
          "internalType": "bytes32",
          "name": "role",
          "type": "bytes32"
        },
        {
          "internalType": "address",
          "name": "account",
          "type": "address"
        }
      ],
      "name": "hasRole",
      "outputs": [
        {
          "internalType": "bool",
          "name": "",
          "type": "bool"
        }
      ],
      "stateMutability": "view",
      "type": "function"
    },
    {
      "inputs": [],
      "name": "name",
      "outputs": [
        {
          "internalType": "bytes32",
          "name": "",
          "type": "bytes32"
        }
      ],
      "stateMutability": "view",
      "type": "function"
    },
    {
      "inputs": [],
      "name": "owner",
      "outputs": [
        {
          "internalType": "address",
          "name": "",
          "type": "address"
        }
      ],
      "stateMutability": "view",
      "type": "function"
    },
    {
      "inputs": [],
      "name": "renounceOwnership",
      "outputs": [],
      "stateMutability": "nonpayable",
      "type": "function"
    },
    {
      "inputs": [
        {
          "internalType": "bytes32",
          "name": "role",
          "type": "bytes32"
        },
        {
          "internalType": "address",
          "name": "account",
          "type": "address"
        }
      ],
      "name": "renounceRole",
      "outputs": [],
      "stateMutability": "nonpayable",
      "type": "function"
    },
    {
      "inputs": [
        {
          "internalType": "bytes32",
          "name": "role",
          "type": "bytes32"
        },
        {
          "internalType": "address",
          "name": "account",
          "type": "address"
        }
      ],
      "name": "revokeRole",
      "outputs": [],
      "stateMutability": "nonpayable",
      "type": "function"
    },
    {
      "inputs": [
        {
          "internalType": "address",
          "name": "newOwner",
          "type": "address"
        }
      ],
      "name": "transferOwnership",
      "outputs": [],
      "stateMutability": "nonpayable",
      "type": "function"
    },
    {
      "inputs": [
        {
          "components": [
            {
              "internalType": "address",
              "name": "target",
              "type": "address"
            },
            {
              "internalType": "bytes",
              "name": "encodedFunction",
              "type": "bytes"
            },
            {
              "components": [
                {
                  "internalType": "uint256",
                  "name": "gasLimit",
                  "type": "uint256"
                },
                {
                  "internalType": "uint256",
                  "name": "gasPrice",
                  "type": "uint256"
                },
                {
                  "internalType": "uint256",
                  "name": "pctRelayFee",
                  "type": "uint256"
                },
                {
                  "internalType": "uint256",
                  "name": "baseRelayFee",
                  "type": "uint256"
                }
              ],
              "internalType": "struct GSNTypes.GasData",
              "name": "gasData",
              "type": "tuple"
            },
            {
              "components": [
                {
                  "internalType": "address",
                  "name": "senderAddress",
                  "type": "address"
                },
                {
                  "internalType": "uint256",
                  "name": "senderNonce",
                  "type": "uint256"
                },
                {
                  "internalType": "address",
                  "name": "relayWorker",
                  "type": "address"
                },
                {
                  "internalType": "address",
                  "name": "paymaster",
                  "type": "address"
                }
              ],
              "internalType": "struct GSNTypes.RelayData",
              "name": "relayData",
              "type": "tuple"
            }
          ],
          "internalType": "struct GSNTypes.RelayRequest",
          "name": "relayRequest",
          "type": "tuple"
        },
        {
          "internalType": "bytes",
          "name": "approvalData",
          "type": "bytes"
        },
        {
          "internalType": "uint256",
          "name": "maxPossibleGas",
          "type": "uint256"
        }
      ],
      "name": "acceptRelayedCall",
      "outputs": [
        {
          "internalType": "bytes",
          "name": "context",
          "type": "bytes"
        }
      ],
      "stateMutability": "view",
      "type": "function"
    },
    {
      "inputs": [
        {
          "internalType": "bytes",
          "name": "context",
          "type": "bytes"
        }
      ],
      "name": "preRelayedCall",
      "outputs": [
        {
          "internalType": "bytes32",
          "name": "",
          "type": "bytes32"
        }
      ],
      "stateMutability": "nonpayable",
      "type": "function"
    },
    {
      "inputs": [
        {
          "internalType": "bytes",
          "name": "context",
          "type": "bytes"
        },
        {
          "internalType": "bool",
          "name": "success",
          "type": "bool"
        },
        {
          "internalType": "bytes32",
          "name": "preRetVal",
          "type": "bytes32"
        },
        {
          "internalType": "uint256",
          "name": "gasUseWithoutPost",
          "type": "uint256"
        },
        {
          "components": [
            {
              "internalType": "uint256",
              "name": "gasLimit",
              "type": "uint256"
            },
            {
              "internalType": "uint256",
              "name": "gasPrice",
              "type": "uint256"
            },
            {
              "internalType": "uint256",
              "name": "pctRelayFee",
              "type": "uint256"
            },
            {
              "internalType": "uint256",
              "name": "baseRelayFee",
              "type": "uint256"
            }
          ],
          "internalType": "struct GSNTypes.GasData",
          "name": "gasData",
          "type": "tuple"
        }
      ],
      "name": "postRelayedCall",
      "outputs": [],
      "stateMutability": "nonpayable",
      "type": "function"
    },
    {
      "inputs": [
        {
          "internalType": "bytes32",
          "name": "val",
          "type": "bytes32"
        }
      ],
      "name": "changeName",
      "outputs": [],
      "stateMutability": "nonpayable",
      "type": "function"
    },
    {
      "inputs": [
        {
          "internalType": "uint24",
          "name": "val",
          "type": "uint24"
        }
      ],
      "name": "changeCut",
      "outputs": [],
      "stateMutability": "nonpayable",
      "type": "function"
    },
    {
      "inputs": [
        {
          "internalType": "address",
          "name": "classroom",
          "type": "address"
        }
      ],
      "name": "isValidClassroom",
      "outputs": [
        {
          "internalType": "bool",
          "name": "",
          "type": "bool"
        }
      ],
      "stateMutability": "view",
      "type": "function"
    },
    {
      "inputs": [
        {
          "internalType": "address",
          "name": "student",
          "type": "address"
        }
      ],
      "name": "studentIsRegistered",
      "outputs": [
        {
          "internalType": "bool",
          "name": "",
          "type": "bool"
        }
      ],
      "stateMutability": "view",
      "type": "function"
    },
    {
      "inputs": [
        {
          "internalType": "address",
          "name": "owner",
          "type": "address"
        },
        {
          "internalType": "bytes32",
          "name": "cName",
          "type": "bytes32"
        },
        {
          "internalType": "uint24",
          "name": "cCut",
          "type": "uint24"
        },
        {
          "internalType": "uint24",
          "name": "cPCut",
          "type": "uint24"
        },
        {
          "internalType": "int32",
          "name": "minScore",
          "type": "int32"
        },
        {
          "internalType": "uint256",
          "name": "entryPrice",
          "type": "uint256"
        },
        {
          "internalType": "uint256",
          "name": "duration",
          "type": "uint256"
        },
        {
          "internalType": "address",
          "name": "challengeAddress",
          "type": "address"
        }
      ],
      "name": "newClassRoom",
      "outputs": [],
      "stateMutability": "nonpayable",
      "type": "function"
    },
    {
      "inputs": [
        {
          "internalType": "bytes32",
          "name": "sName",
          "type": "bytes32"
        }
      ],
      "name": "studentSelfRegister",
      "outputs": [],
      "stateMutability": "nonpayable",
      "type": "function"
    },
    {
      "inputs": [
        {
          "internalType": "address",
          "name": "student",
          "type": "address"
        },
        {
          "internalType": "address",
          "name": "application",
          "type": "address"
        }
      ],
      "name": "registerStudentApplication",
      "outputs": [],
      "stateMutability": "nonpayable",
      "type": "function"
    },
    {
      "inputs": [],
      "name": "viewMyApplications",
      "outputs": [
        {
          "internalType": "address[]",
          "name": "",
          "type": "address[]"
        }
      ],
      "stateMutability": "view",
      "type": "function"
    },
    {
      "inputs": [
        {
          "internalType": "address",
          "name": "addr",
          "type": "address"
        }
      ],
      "name": "viewStudentApplications",
      "outputs": [
        {
          "internalType": "address[]",
          "name": "",
          "type": "address[]"
        }
      ],
      "stateMutability": "view",
      "type": "function"
    },
    {
      "inputs": [
        {
          "internalType": "address",
          "name": "applicationAddr",
          "type": "address"
        },
        {
          "internalType": "bytes32",
          "name": "cName",
          "type": "bytes32"
        },
        {
          "internalType": "uint24",
          "name": "cCut",
          "type": "uint24"
        },
        {
          "internalType": "uint24",
          "name": "cPCut",
          "type": "uint24"
        },
        {
          "internalType": "int32",
          "name": "minScore",
          "type": "int32"
        },
        {
          "internalType": "uint256",
          "name": "entryPrice",
          "type": "uint256"
        },
        {
          "internalType": "uint256",
          "name": "duration",
          "type": "uint256"
        },
        {
          "internalType": "address",
          "name": "challenge",
          "type": "address"
        }
      ],
      "name": "studentRequestClassroom",
      "outputs": [],
      "stateMutability": "nonpayable",
      "type": "function"
    },
    {
      "inputs": [
        {
          "internalType": "address",
          "name": "student",
          "type": "address"
        },
        {
          "internalType": "int32",
          "name": "val",
          "type": "int32"
        }
      ],
      "name": "addStudentScore",
      "outputs": [],
      "stateMutability": "nonpayable",
      "type": "function"
    },
    {
      "inputs": [
        {
          "internalType": "address",
          "name": "student",
          "type": "address"
        },
        {
          "internalType": "int32",
          "name": "val",
          "type": "int32"
        }
      ],
      "name": "subStudentScore",
      "outputs": [],
      "stateMutability": "nonpayable",
      "type": "function"
    },
    {
      "inputs": [
        {
          "internalType": "uint256",
          "name": "val",
          "type": "uint256"
        }
      ],
      "name": "applyFunds",
      "outputs": [],
      "stateMutability": "nonpayable",
      "type": "function"
    },
    {
      "inputs": [
        {
          "internalType": "uint256",
          "name": "val",
          "type": "uint256"
        }
      ],
      "name": "recoverFunds",
      "outputs": [],
      "stateMutability": "nonpayable",
      "type": "function"
    },
    {
      "inputs": [
        {
          "internalType": "address",
          "name": "to",
          "type": "address"
        },
        {
          "internalType": "uint256",
          "name": "val",
          "type": "uint256"
        }
      ],
      "name": "spendFunds",
      "outputs": [],
      "stateMutability": "nonpayable",
      "type": "function"
    },
    {
      "inputs": [
        {
          "internalType": "address",
          "name": "to",
          "type": "address"
        },
        {
          "internalType": "uint256",
          "name": "val",
          "type": "uint256"
        }
      ],
      "name": "allowFunds",
      "outputs": [],
      "stateMutability": "nonpayable",
      "type": "function"
    }
  ],
  "bytecode": "0x60806040523480156200001157600080fd5b506040516200aa483803806200aa48833981016040819052620000349162000410565b6000620000496001600160e01b036200018516565b600080546001600160a01b0319166001600160a01b0383169081178255604051929350917f8be0079c531659141344cd1fd0a4f28419497f9722a3daafe3b4186f6b6457e0908290a35060038490556004805462ffffff191662ffffff85161790556040805160008152602081019182905251620000ca9160059162000367565b506040805160008152602081019182905251620000ea9160069162000367565b50620001136000620001046001600160e01b036200018516565b6001600160e01b036200018a16565b6200015060405162000125906200046d565b604051908190039020620001416001600160e01b036200018516565b6001600160e01b03620001a316565b600a80546001600160a01b039384166001600160a01b0319918216179091556009805492909316911617905550620004e59050565b335b90565b6200019f82826001600160e01b036200020416565b5050565b600082815260016020526040902060020154620001dc90620001cd6001600160e01b036200018516565b6001600160e01b036200028816565b6200018a5760405162461bcd60e51b8152600401620001fb9062000496565b60405180910390fd5b60008281526001602090815260409091206200022b918390620019b8620002b7821b17901c565b156200019f57620002446001600160e01b036200018516565b6001600160a01b0316816001600160a01b0316837f2f8788117e7eff1d82e926ec794901d17c78024a50270940304540a733656f0d60405160405180910390a45050565b60008281526001602090815260408220620002ae9184906200196a620002d7821b17901c565b90505b92915050565b6000620002ae836001600160a01b0384166001600160e01b03620002f716565b6000620002ae836001600160a01b0384166001600160e01b036200034f16565b60006200030e83836001600160e01b036200034f16565b6200034657508154600181810184556000848152602080822090930184905584548482528286019093526040902091909155620002b1565b506000620002b1565b60009081526001919091016020526040902054151590565b828054828255906000526020600020908101928215620003bf579160200282015b82811115620003bf57825182546001600160a01b0319166001600160a01b0390911617825560209092019160019091019062000388565b50620003cd929150620003d1565b5090565b6200018791905b80821115620003cd5780546001600160a01b0319168155600101620003d8565b80516001600160a01b0381168114620002b157600080fd5b6000806000806080858703121562000426578384fd5b84519350602085015162ffffff8116811462000440578384fd5b9250620004518660408701620003f8565b9150620004628660608701620003f8565b905092959194509250565b7f524541445f53545544454e545f4c4953545f524f4c4500000000000000000000815260160190565b6020808252602f908201527f416363657373436f6e74726f6c3a2073656e646572206d75737420626520616e60408201526e0818591b5a5b881d1bc819dc985b9d608a1b606082015260800190565b61a55380620004f56000396000f3fe60806040523480156200001157600080fd5b5060043610620003345760003560e01c8063898855ed11620001b9578063c4707a8311620000f9578063e37dd98011620000a5578063f2fde38b116200007b578063f2fde38b1462000666578063fbfbd0f2146200067d578063ff5d8f6314620006945762000334565b8063e37dd980146200061f578063e6fd604c1462000636578063e770d7d4146200064f5762000334565b8063ce1b815f11620000db578063ce1b815f14620005e7578063d3c5704e14620005f1578063d547741f14620006085762000334565b8063c4707a8314620005c6578063ca15c87314620005d05762000334565b80639fd6cb7a1162000165578063be22f546116200013b578063be22f546146200058e578063c204a0e01462000598578063c419f43214620005af5762000334565b80639fd6cb7a1462000554578063a217fddf146200055e578063b1ed031f14620005685762000334565b80638da5cb5b116200019b5780638da5cb5b146200051c5780639010d07c146200052657806391d14854146200053d5762000334565b8063898855ed14620004fb5780638a9f5b7f14620005125762000334565b80635070ad951162000285578063715018a61162000231578063820cd75c1162000207578063820cd75c14620004c357806385dade6114620004cd57806387bfe18814620004e45762000334565b8063715018a6146200048b5780637fd5c108146200049557806380274db714620004ac5762000334565b80636408a38611620002675780636408a386146200045e57806364d47731146200047757806369e527da14620004815762000334565b80635070ad9514620004305780635a7dd15014620004475762000334565b80632f2ff15d11620002e557806336568abe11620002c757806336568abe14620003eb5780634ab358c714620004025780634ea962c114620004195762000334565b80632f2ff15d14620003ca57806332636ac914620003e15762000334565b8063183b2600116200031b578063183b26001462000381578063248a9ca3146200039a578063289c5e5414620003b15762000334565b806306fdde03146200033957806316ded1ce146200035b575b600080fd5b62000343620006ab565b604051620003529190620020f9565b60405180910390f35b620003726200036c36600462001be0565b620006b1565b604051620003529190620020ee565b620003986200039236600462001c1e565b62000726565b005b62000343620003ab36600462001d79565b62000795565b620003bb620007aa565b60405162000352919062002056565b62000398620003db36600462001d92565b62000834565b6200034362000884565b62000398620003fc36600462001d92565b6200089d565b620003986200041336600462001d79565b620008e6565b620003986200042a36600462001c5b565b620009b8565b620003986200044136600462001d2c565b62000a05565b620003986200045836600462001d79565b62000ade565b6200046862000b3e565b6040516200035291906200209f565b6200034362000b53565b620003bb62000b61565b6200039862000b70565b62000398620004a636600462001c5b565b62000bf4565b62000343620004bd36600462001ddb565b62000d8f565b6200034362000d97565b62000372620004de36600462001be0565b62000da5565b62000398620004f536600462001cf5565b62000db9565b620003986200050c36600462001d79565b62000e69565b6200034362000ee5565b620003bb62000ef3565b620003bb6200053736600462001db9565b62000f02565b620003726200054e36600462001d92565b62000f29565b6200034362000f49565b6200034362000f57565b6200057f6200057936600462001ea8565b62000f5c565b60405162000352919062002178565b620003bb6200104c565b62000398620005a936600462001d79565b6200105b565b62000398620005c036600462001d2c565b62001166565b62000343620011cb565b62000343620005e136600462001d79565b620011d9565b620003bb620011f2565b620004686200060236600462001be0565b62001201565b620003986200061936600462001d92565b620012cf565b620003bb6200063036600462001d79565b6200130f565b6200064062001337565b60405162000352919062002784565b620003986200066036600462001f22565b62001342565b620003986200067736600462001be0565b620013c7565b620003986200068e36600462001e1f565b62000e61565b62000398620006a536600462001cf5565b62001485565b60035481565b6000620006d7604051620006c59062001f60565b60405180910390206200054e620014fd565b620006ff5760405162461bcd60e51b8152600401620006f69062002296565b60405180910390fd5b62000720604051620007119062001f89565b60405180910390208362000f29565b92915050565b62000738604051620006c59062001fb2565b620007575760405162461bcd60e51b8152600401620006f6906200257e565b6001600160a01b0391821660009081526007602090815260408220805460018101825590835291200180546001600160a01b03191691909216179055565b60009081526001602052604090206002015490565b600060183610801590620007d85750620007c3620011f2565b6001600160a01b0316336001600160a01b0316145b156200082e57620008266000368080601f0160208091040260200160405190810160405280939291908181526020018383808284376000920191909152505060131936019150620015019050565b905062000831565b50335b90565b60008281526001602052604090206002015462000855906200054e620014fd565b620008745760405162461bcd60e51b8152600401620006f69062002239565b62000880828262001512565b5050565b604051620008929062001f89565b604051809103902081565b620008a7620014fd565b6001600160a01b0316816001600160a01b031614620008da5760405162461bcd60e51b8152600401620006f69062002727565b62000880828262001586565b620008f8604051620006c59062002004565b620009175760405162461bcd60e51b8152600401620006f69062002350565b6009546040517f852a12e30000000000000000000000000000000000000000000000000000000081526001600160a01b039091169063852a12e39062000962908490600401620020f9565b602060405180830381600087803b1580156200097d57600080fd5b505af115801562000992573d6000803e3d6000fd5b505050506040513d601f19601f8201168201806040525081019062000880919062001f47565b620009ca604051620006c59062001fdb565b620009e95760405162461bcd60e51b8152600401620006f69062002467565b620009fb8888888888888888620015fa565b5050505050505050565b62000a17604051620006c59062002004565b62000a365760405162461bcd60e51b8152600401620006f69062002350565b600a546040517fa9059cbb0000000000000000000000000000000000000000000000000000000081526001600160a01b039091169063a9059cbb9062000a83908590859060040162002086565b602060405180830381600087803b15801562000a9e57600080fd5b505af115801562000ab3573d6000803e3d6000fd5b505050506040513d601f19601f8201168201806040525081019062000ad9919062001d5a565b505050565b6007600062000aec620007aa565b6001600160a01b031681526020810191909152604001600020541562000b265760405162461bcd60e51b8152600401620006f690620023ad565b62000b3b8162000b35620007aa565b6200179b565b50565b606062000b4e62000602620014fd565b905090565b60405162000892906200202d565b6009546001600160a01b031681565b62000b7a620014fd565b6000546001600160a01b0390811691161462000baa5760405162461bcd60e51b8152600401620006f69062002638565b600080546040516001600160a01b03909116907f8be0079c531659141344cd1fd0a4f28419497f9722a3daafe3b4186f6b6457e0908390a3600080546001600160a01b0319169055565b62000c06604051620006c59062001f89565b62000c255760405162461bcd60e51b8152600401620006f690620024c4565b62000c3a62000c33620014fd565b89620018d3565b62000c595760405162461bcd60e51b8152600401620006f6906200240a565b6000889050806001600160a01b0316636587b61e6040518163ffffffff1660e01b815260040160206040518083038186803b15801562000c9857600080fd5b505afa15801562000cad573d6000803e3d6000fd5b505050506040513d601f19601f8201168201806040525081019062000cd3919062001f47565b60031462000cf55760405162461bcd60e51b8152600401620006f690620026ca565b62000d8462000d03620014fd565b6001600160a01b0316638da5cb5b6040518163ffffffff1660e01b815260040160206040518083038186803b15801562000d3c57600080fd5b505afa15801562000d51573d6000803e3d6000fd5b505050506040513d601f19601f8201168201806040525081019062000d77919062001bff565b89898989898989620015fa565b505050505050505050565b600092915050565b604051620008929062001fdb565b600062000720604051620007119062001fb2565b62000dcb604051620006c59062001fb2565b62000dea5760405162461bcd60e51b8152600401620006f6906200257e565b6040517faa4f38c70000000000000000000000000000000000000000000000000000000081526001600160a01b0383169063aa4f38c79062000e31908490600401620021ce565b600060405180830381600087803b15801562000e4c57600080fd5b505af115801562000e61573d6000803e3d6000fd5b505050505050565b62000e73620014fd565b6000546001600160a01b0390811691161462000ea35760405162461bcd60e51b8152600401620006f69062002638565b60038190556040517f9f8929be552430dd6434c446d106c34954b2040ca8c4dbf42a39323dd6cda3ca9062000eda908390620020f9565b60405180910390a150565b604051620008929062001fb2565b6000546001600160a01b031690565b600082815260016020526040812062000f22908363ffffffff6200195c16565b9392505050565b600082815260016020526040812062000f22908363ffffffff6200196a16565b604051620008929062001f60565b600081565b60607f5a7dd1500000000000000000000000000000000000000000000000000000000062000fcd62000f92602088018862002794565b8080601f0160208091040260200160405190810160405280939291908181526020018383808284376000920182905250925062001981915050565b7fffffffff0000000000000000000000000000000000000000000000000000000016146200100f5760405162461bcd60e51b8152600401620006f6906200266d565b6200101e602086018662001be0565b6000604051602001620010339291906200206a565b6040516020818303038152906040529050949350505050565b600a546001600160a01b031681565b6200106d604051620006c59062002004565b6200108c5760405162461bcd60e51b8152600401620006f69062002350565b600a5460095460405163095ea7b360e01b81526001600160a01b039283169263095ea7b392620010c492911690859060040162002086565b602060405180830381600087803b158015620010df57600080fd5b505af1158015620010f4573d6000803e3d6000fd5b505050506040513d601f19601f820116820180604052508101906200111a919062001d5a565b506009546040517fa0712d680000000000000000000000000000000000000000000000000000000081526001600160a01b039091169063a0712d689062000962908490600401620020f9565b62001178604051620006c59062002004565b620011975760405162461bcd60e51b8152600401620006f69062002350565b600a5460405163095ea7b360e01b81526001600160a01b039091169063095ea7b39062000a83908590859060040162002086565b604051620008929062002004565b60008181526001602052604081206200072090620019ab565b6002546001600160a01b031690565b60606200120d620014fd565b6001600160a01b0316826001600160a01b031614806200123a57506200123a604051620006c5906200202d565b620012595760405162461bcd60e51b8152600401620006f69062002521565b6001600160a01b03821660009081526007602090815260409182902080548351818402810184019094528084529091830182828015620012c357602002820191906000526020600020905b81546001600160a01b03168152600190910190602001808311620012a4575b50505050509050919050565b600082815260016020526040902060020154620012f0906200054e620014fd565b620008da5760405162461bcd60e51b8152600401620006f690620025db565b600581815481106200131d57fe5b6000918252602090912001546001600160a01b0316905081565b60045462ffffff1681565b6200134c620014fd565b6000546001600160a01b039081169116146200137c5760405162461bcd60e51b8152600401620006f69062002638565b6004805462ffffff191662ffffff83811691909117918290556040517f1add5f7de244142e10bca375bb84823e3c24ddac2c2ec678f35c007d8f02084d9262000eda92169062002784565b620013d1620014fd565b6000546001600160a01b03908116911614620014015760405162461bcd60e51b8152600401620006f69062002638565b6001600160a01b0381166200142a5760405162461bcd60e51b8152600401620006f690620022f3565b600080546040516001600160a01b03808516939216917f8be0079c531659141344cd1fd0a4f28419497f9722a3daafe3b4186f6b6457e091a3600080546001600160a01b0319166001600160a01b0392909216919091179055565b62001497604051620006c59062001fb2565b620014b65760405162461bcd60e51b8152600401620006f6906200257e565b6040517f686513500000000000000000000000000000000000000000000000000000000081526001600160a01b0383169063686513509062000e31908490600401620021ce565b3390565b01601401516001600160a01b031690565b600082815260016020526040902062001532908263ffffffff620019b816565b15620008805762001542620014fd565b6001600160a01b0316816001600160a01b0316837f2f8788117e7eff1d82e926ec794901d17c78024a50270940304540a733656f0d60405160405180910390a45050565b6000828152600160205260409020620015a6908263ffffffff620019cf16565b156200088057620015b6620014fd565b6001600160a01b0316816001600160a01b0316837ff6391f5c32d9c69d2a47ea670b442974b53935d1edc7fd64eb21e047a839171b60405160405180910390a45050565b60008787878787873088600a60009054906101000a90046001600160a01b0316600960009054906101000a90046001600160a01b03166040516200163e9062001b66565b620016539a9998979695949392919062002119565b604051809103906000f08015801562001670573d6000803e3d6000fd5b5060405163f2fde38b60e01b81529091506001600160a01b0382169063f2fde38b90620016a2908c9060040162002056565b600060405180830381600087803b158015620016bd57600080fd5b505af1158015620016d2573d6000803e3d6000fd5b5050600580546001810182556000919091527f036b6384b5eca791c62761152d0c79bb0604c104a5fb6f4eb0703f3154bb3db00180546001600160a01b0319166001600160a01b03851617905550506040516200174390620017349062001f60565b60405180910390208262000834565b62001755604051620017349062001fb2565b7f0e2441b756c0237af490768eeb52214bde66464d79756f8ac3c03b10c9528b3c88826040516200178892919062002102565b60405180910390a1505050505050505050565b6001600160a01b0381166000908152600760209081526040808320805460018101825590845291832090910180546001600160a01b03191690555183903090620017e59062001b74565b620017f292919062002102565b604051809103906000f0801580156200180f573d6000803e3d6000fd5b5060405163f2fde38b60e01b81529091506001600160a01b0382169063f2fde38b906200184190859060040162002056565b600060405180830381600087803b1580156200185c57600080fd5b505af115801562001871573d6000803e3d6000fd5b5050600680546001810182556000919091527ff652222313e28459528d920b65115c16c04f3efc82aaedc97be59f3f377c0d3f0180546001600160a01b0319166001600160a01b038516179055505060405162000ad990620017349062001f89565b6000805b6001600160a01b03841660009081526007602052604090205481101562001952576001600160a01b038481166000908152600760205260409020805491851691839081106200192257fe5b6000918252602090912001546001600160a01b031614156200194957600191505062000720565b600101620018d7565b5060009392505050565b600062000f228383620019e6565b600062000f22836001600160a01b03841662001a2f565b01602001517fffffffff000000000000000000000000000000000000000000000000000000001690565b6000620007208262001a47565b600062000f22836001600160a01b03841662001a4b565b600062000f22836001600160a01b03841662001a9a565b8154600090821062001a0c5760405162461bcd60e51b8152600401620006f690620021dc565b82600001828154811062001a1c57fe5b9060005260206000200154905092915050565b60009081526001919091016020526040902054151590565b5490565b600062001a59838362001a2f565b62001a915750815460018181018455600084815260208082209093018490558454848252828601909352604090209190915562000720565b50600062000720565b6000818152600183016020526040812054801562001b5b578354600019808301919081019060009087908390811062001acf57fe5b906000526020600020015490508087600001848154811062001aed57fe5b60009182526020808320909101929092558281526001898101909252604090209084019055865487908062001b1e57fe5b6001900381819060005260206000200160009055905586600101600087815260200190815260200160002060009055600194505050505062000720565b600091505062000720565b615eba806200280483390190565b611e6080620086be83390190565b60008083601f84011262001b94578182fd5b50813567ffffffffffffffff81111562001bac578182fd5b60208301915083602082850101111562001bc557600080fd5b9250929050565b803562ffffff811681146200072057600080fd5b60006020828403121562001bf2578081fd5b813562000f2281620027de565b60006020828403121562001c11578081fd5b815162000f2281620027de565b6000806040838503121562001c31578081fd5b823562001c3e81620027de565b9150602083013562001c5081620027de565b809150509250929050565b600080600080600080600080610100898b03121562001c78578384fd5b883562001c8581620027de565b97506020890135965062001c9d8a60408b0162001bcc565b955062001cae8a60608b0162001bcc565b945060808901358060030b811462001cc4578485fd5b935060a0890135925060c0890135915060e089013562001ce481620027de565b809150509295985092959890939650565b6000806040838503121562001d08578182fd5b823562001d1581620027de565b91506020830135600381900b811462001c50578182fd5b6000806040838503121562001d3f578182fd5b823562001d4c81620027de565b946020939093013593505050565b60006020828403121562001d6c578081fd5b815162000f2281620027f4565b60006020828403121562001d8b578081fd5b5035919050565b6000806040838503121562001da5578182fd5b82359150602083013562001c5081620027de565b6000806040838503121562001dcc578182fd5b50508035926020909101359150565b6000806020838503121562001dee578182fd5b823567ffffffffffffffff81111562001e05578283fd5b62001e138582860162001b82565b90969095509350505050565b60008060008060008086880361010081121562001e3a578283fd5b873567ffffffffffffffff81111562001e51578384fd5b62001e5f8a828b0162001b82565b909850965050602088013562001e7581620027f4565b945060408801359350606088013592506080607f198201121562001e97578182fd5b506080870190509295509295509295565b6000806000806060858703121562001ebe578182fd5b843567ffffffffffffffff8082111562001ed6578384fd5b818701610140818a03121562001eea578485fd5b9550602087013591508082111562001f00578384fd5b5062001f0f8782880162001b82565b9598909750949560400135949350505050565b60006020828403121562001f34578081fd5b813562ffffff8116811462000f22578182fd5b60006020828403121562001f59578081fd5b5051919050565b7f524541445f53545544454e545f4c4953545f524f4c4500000000000000000000815260160190565b7f53545544454e545f4944454e544954595f524f4c450000000000000000000000815260150190565b7f434c415353524f4f4d5f50524f464553534f525f524f4c450000000000000000815260180190565b7f434c4153534c4953545f41444d494e5f524f4c45000000000000000000000000815260140190565b7f46554e44535f4d414e414745525f524f4c450000000000000000000000000000815260120190565b7f4752414e54535f4d414e414745525f524f4c4500000000000000000000000000815260130190565b6001600160a01b0391909116815260200190565b6001600160a01b0392909216825260ff16602082015260400190565b6001600160a01b03929092168252602082015260400190565b6020808252825182820181905260009190848201906040850190845b81811015620020e25783516001600160a01b031683529284019291840191600101620020bb565b50909695505050505050565b901515815260200190565b90815260200190565b9182526001600160a01b0316602082015260400190565b998a5262ffffff98891660208b015296909716604089015260039490940b6060880152608087019290925260a08601526001600160a01b0390811660c086015290811660e0850152918216610100840152166101208201526101400190565b6000602080835283518082850152825b81811015620021a65785810183015185820160400152820162002188565b81811115620021b85783604083870101525b50601f01601f1916929092016040019392505050565b60039190910b815260200190565b60208082526022908201527f456e756d657261626c655365743a20696e646578206f7574206f6620626f756e60408201527f6473000000000000000000000000000000000000000000000000000000000000606082015260800190565b6020808252602f908201527f416363657373436f6e74726f6c3a2073656e646572206d75737420626520616e60408201527f2061646d696e20746f206772616e740000000000000000000000000000000000606082015260800190565b60208082526036908201527f556e69766572736974793a2063616c6c657220646f65736e277420686176652060408201527f524541445f53545544454e545f4c4953545f524f4c4500000000000000000000606082015260800190565b60208082526026908201527f4f776e61626c653a206e6577206f776e657220697320746865207a65726f206160408201527f6464726573730000000000000000000000000000000000000000000000000000606082015260800190565b60208082526032908201527f556e69766572736974793a2063616c6c657220646f65736e277420686176652060408201527f46554e44535f4d414e414745525f524f4c450000000000000000000000000000606082015260800190565b60208082526026908201527f556e69766572736974793a2073747564656e7420616c7265616479207265676960408201527f7374657265640000000000000000000000000000000000000000000000000000606082015260800190565b60208082526035908201527f556e69766572736974793a2063616c6c6572206973206e6f742073747564656e60408201527f74206f662074686973206170706c69636174696f6e0000000000000000000000606082015260800190565b60208082526034908201527f556e69766572736974793a2063616c6c657220646f65736e277420686176652060408201527f434c4153534c4953545f41444d494e5f524f4c45000000000000000000000000606082015260800190565b60208082526035908201527f556e69766572736974793a2063616c6c657220646f65736e277420686176652060408201527f53545544454e545f4944454e544954595f524f4c450000000000000000000000606082015260800190565b60208082526021908201527f436c617373726f6f6d3a2072656164207065726d697373696f6e2064656e696560408201527f6400000000000000000000000000000000000000000000000000000000000000606082015260800190565b60208082526038908201527f556e69766572736974793a2063616c6c657220646f65736e277420686176652060408201527f434c415353524f4f4d5f50524f464553534f525f524f4c450000000000000000606082015260800190565b60208082526030908201527f416363657373436f6e74726f6c3a2073656e646572206d75737420626520616e60408201527f2061646d696e20746f207265766f6b6500000000000000000000000000000000606082015260800190565b6020808252818101527f4f776e61626c653a2063616c6c6572206973206e6f7420746865206f776e6572604082015260600190565b6020808252602d908201527f556e69766572736974793a2047534e206e6f7420656e61626c656420666f722060408201527f746869732066756e6374696f6e00000000000000000000000000000000000000606082015260800190565b60208082526029908201527f556e69766572736974793a206170706c69636174696f6e206973206e6f74207360408201527f75636365737366756c0000000000000000000000000000000000000000000000606082015260800190565b6020808252602f908201527f416363657373436f6e74726f6c3a2063616e206f6e6c792072656e6f756e636560408201527f20726f6c657320666f722073656c660000000000000000000000000000000000606082015260800190565b62ffffff91909116815260200190565b6000808335601e19843603018112620027ab578283fd5b8084018035925067ffffffffffffffff831115620027c7578384fd5b6020019250503681900382131562001bc557600080fd5b6001600160a01b038116811462000b3b57600080fd5b801515811462000b3b57600080fdfe608060405260016005553480156200001657600080fd5b5060405162005eba38038062005eba83398181016040526101408110156200003d57600080fd5b508051602082015160408301516060840151608085015160a086015160c087015160e088015161010089015161012090990151979896979596949593949293919290916000620000956001600160e01b03620001a916565b600080546001600160a01b0319166001600160a01b0383169081178255604051929350917f8be0079c531659141344cd1fd0a4f28419497f9722a3daafe3b4186f6b6457e0908290a35060108a90556011805462ffffff191662ffffff8b81169190911765ffffff00000019166301000000918b16919091021763ffffffff60301b1916660100000000000063ffffffff60038b900b16021790556012869055601385905560078054601680546001600160a01b03199081166001600160a01b03888116919091179092559182168782161762ff00ff60a01b19169092556014805482168584161790556015805490911691831691909117905562000199620001ad565b5050505050505050505062000648565b3390565b620001b7620005f7565b601854620001d7903063100b510360e11b6001600160e01b036200020616565b60175460195491925062000202916001600160a01b039091169083906001600160e01b036200024116565b5050565b62000210620005f7565b6200021a620005f7565b62000238858585846200042b60201b6200392417909392919060201c565b95945050505050565b6005546040805130606090811b60208084019190915260348084018690528451808503909101815260549093018452825192810192909220908601939093526000838152600690915281812080546001600160a01b0319166001600160a01b038816179055905182917fb5e6e01e79f91267dc17b4e6314d5d4d03593d2ceee0fbb452b750bd70ea5af991a26003546001600160a01b0316634000aea08584620002f4876001600160e01b036200047716565b6040518463ffffffff1660e01b815260040180846001600160a01b03166001600160a01b0316815260200183815260200180602001828103825283818151815260200191508051906020019080838360005b838110156200036057818101518382015260200162000346565b50505050905090810190601f1680156200038e5780820380516001836020036101000a031916815260200191505b50945050505050602060405180830381600087803b158015620003b057600080fd5b505af1158015620003c5573d6000803e3d6000fd5b505050506040513d6020811015620003dc57600080fd5b50516200041b5760405162461bcd60e51b815260040180806020018281038252602381526020018062005e976023913960400191505060405180910390fd5b6005805460010190559392505050565b62000435620005f7565b620004528560800151610100620005ba60201b62003ad71760201c565b50509183526001600160a01b031660208301526001600160e01b031916604082015290565b6060634042994660e01b6000808460000151856020015186604001518760600151600189608001516000015160405160240180896001600160a01b03166001600160a01b03168152602001888152602001878152602001866001600160a01b03166001600160a01b03168152602001856001600160e01b0319166001600160e01b031916815260200184815260200183815260200180602001828103825283818151815260200191508051906020019080838360005b83811015620005475781810151838201526020016200052d565b50505050905090810190601f168015620005755780820380516001836020036101000a031916815260200191505b5060408051601f198184030181529190526020810180516001600160e01b03166001600160e01b0319909d169c909c17909b5250989950505050505050505050919050565b620005c46200062e565b6020820615620005da5760208206602003820191505b506020828101829052604080518085526000815290920101905290565b6040805160a081018252600080825260208201819052918101829052606081019190915260808101620006296200062e565b905290565b604051806040016040528060608152602001600081525090565b61583f80620006586000396000f3fe60806040523480156200001157600080fd5b5060043610620003105760003560e01c80637c0260cb11620001a1578063ae12894e11620000ed578063e804f1641162000099578063f745adfc116200007b578063f745adfc1462000658578063f87c5cb11462000662578063fe7da9e914620006ad5762000310565b8063e804f164146200060a578063f2fde38b146200062f5762000310565b8063bbe3b92611620000cf578063bbe3b92614620005ec578063be22f54614620005f6578063dfd78adc14620006005762000310565b8063ae12894e14620005c2578063b594f08614620005cc5762000310565b8063a3f73c2d116200014d578063aa055a40116200012f578063aa055a4014620005a4578063ada02e1914620005ae578063adf45ef214620005b85762000310565b8063a3f73c2d1462000571578063a46268a8146200059a5762000310565b80638646bcec11620001835780638646bcec146200053d578063898855ed14620005475780638da5cb5b14620005675762000310565b80637c0260cb146200050e5780638155e97714620005185762000310565b8063431a16ef116200026157806369e527da116200020d5780636e8055a711620001ef5780636e8055a714620004d1578063715018a614620004db57806376eada9114620004e55762000310565b806369e527da146200046b57806369e7af4314620004755762000310565b80634ffb660c11620002435780634ffb660c146200041c5780635aa33a2d146200043f578063604d394314620004495762000310565b8063431a16ef14620004085780634c5e789314620004125762000310565b806313c2bedc11620002c15780632016a20611620002a35780632016a20614620003ce5780633196002714620003f45780633bcd97d414620003fe5762000310565b806313c2bedc14620003a15780631b9dbc6014620003c45762000310565b80630aab456911620002f75780630aab456914620003575780630b78cb0e14620003795780630fb5a6b414620003975762000310565b806306fdde03146200031557806309ea165d1462000331575b600080fd5b6200031f620006cd565b60408051918252519081900360200190f35b6200033b620006d3565b604080516001600160a01b039092168252519081900360200190f35b62000377600480360360208110156200036f57600080fd5b5035620006e2565b005b62000383620007b0565b604080519115158252519081900360200190f35b6200031f620007c0565b620003ab620007c6565b60408051600392830b90920b8252519081900360200190f35b62000377620007d9565b6200037760048036036040811015620003e657600080fd5b508035906020013562000a96565b6200037762000b4d565b6200038362000c73565b6200037762000c95565b6200037762000df6565b62000377600480360360208110156200043457600080fd5b503560030b62000f6f565b620003836200103b565b620004536200104b565b6040805162ffffff9092168252519081900360200190f35b6200033b6200105d565b6200047f6200106c565b60408051602080825283518183015283519192839290830191858101910280838360005b83811015620004bd578181015183820152602001620004a3565b505050509050019250505060405180910390f35b6200033b6200112c565b6200037762001147565b6200033b60048036036020811015620004fd57600080fd5b50356001600160a01b0316620011ed565b6200037762001298565b62000377600480360360208110156200053057600080fd5b503562ffffff1662001376565b6200045362001424565b62000377600480360360208110156200055f57600080fd5b50356200142f565b6200033b620014c6565b62000377600480360360208110156200058957600080fd5b50356001600160a01b0316620014d5565b62000383620015d2565b62000377620015e2565b62000377620017ae565b62000383620019ce565b6200033b620019d6565b6200037760048036036020811015620005e457600080fd5b5035620019e5565b6200037762001a7c565b6200033b62001c92565b6200047f62001ca1565b62000377600480360360208110156200062257600080fd5b503562ffffff1662001d5f565b62000377600480360360208110156200064757600080fd5b50356001600160a01b031662001e1b565b6200031f62001f19565b62000377600480360360c08110156200067a57600080fd5b506001600160a01b03813581169160208101359160408201359160608101359091169060808101359060a0013562001f1f565b6200037760048036036020811015620006c557600080fd5b503562001fbe565b60105481565b6016546001600160a01b031681565b60008181526006602052604090205481906001600160a01b031633146200073b5760405162461bcd60e51b8152600401808060200182810382526028815260200180620057e26028913960400191505060405180910390fd5b60008181526006602052604080822080546001600160a01b03191690555182917f7cc135e0cebb02c3480ae5d74d377283180a2601f8f644edf7987b009316c63a91a25050600780547fffffffffffffffff00ffffffffffffffffffffffffffffffffffffffffffffff16600160b81b179055565b600754600160a01b900460ff1681565b60135481565b6011546601000000000000900460030b81565b620007e3620014c6565b6001600160a01b0316620007f662002055565b6001600160a01b031614156200083e5760405162461bcd60e51b815260040180806020018281038252602d81526020018062005688602d913960400191505060405180910390fd5b6007546001600160a01b03166316ded1ce6200085962002055565b6040518263ffffffff1660e01b815260040180826001600160a01b03166001600160a01b0316815260200191505060206040518083038186803b158015620008a057600080fd5b505afa158015620008b5573d6000803e3d6000fd5b505050506040513d6020811015620008cc57600080fd5b50516200090b5760405162461bcd60e51b8152600401808060200182810382526024815260200180620057946024913960400191505060405180910390fd5b600754600160a01b900460ff166200096a576040805162461bcd60e51b815260206004820152601e60248201527f436c617373726f6f6d3a206170706c69636174696f6e7320636c6f7365640000604482015290519081900360640190fd5b60006200097662002055565b9050601160069054906101000a900460030b60030b816001600160a01b031663efedc6696040518163ffffffff1660e01b815260040160206040518083038186803b158015620009c557600080fd5b505afa158015620009da573d6000803e3d6000fd5b505050506040513d6020811015620009f157600080fd5b505160030b121562000a355760405162461bcd60e51b815260040180806020018281038252602c815260200180620055ad602c913960400191505060405180910390fd5b600062000a428262002059565b600880546001810182556000919091527ff3f7a9fe364faab93b216da50a3214154f22a0a2b415b23a84c8169e8b636ee30180546001600160a01b0319166001600160a01b03929092169190911790555050565b60008281526006602052604090205482906001600160a01b0316331462000aef5760405162461bcd60e51b8152600401808060200182810382526028815260200180620057e26028913960400191505060405180910390fd5b60008181526006602052604080822080546001600160a01b03191690555182917f7cc135e0cebb02c3480ae5d74d377283180a2601f8f644edf7987b009316c63a91a262000b3d8262002218565b8051602090910120600f55505050565b62000b5762002055565b6000546001600160a01b0390811691161462000ba9576040805162461bcd60e51b8152602060048201819052602482015260008051602062005720833981519152604482015290519081900360640190fd5b600754600160a01b900460ff161562000bf45760405162461bcd60e51b815260040180806020018281038252602a815260200180620057b8602a913960400191505060405180910390fd5b6008541562000c355760405162461bcd60e51b8152600401808060200182810382526022815260200180620056666022913960400191505060405180910390fd5b6007805460ff60a01b1916600160a01b1790556040517fa5d188159e8a15dc503f9fde55e9da14c8b2ca589603e2567481c0ef90b7972090600090a1565b60095460085460009162000c8e919063ffffffff6200224216565b1590505b90565b62000c9f62002055565b6000546001600160a01b0390811691161462000cf1576040805162461bcd60e51b8152602060048201819052602482015260008051602062005720833981519152604482015290519081900360640190fd5b600754600160b81b900460ff1662000d3b5760405162461bcd60e51b8152600401808060200182810382526024815260200180620056d66024913960400191505060405180910390fd5b60095462000d90576040805162461bcd60e51b815260206004820152601a60248201527f436c617373726f6f6d3a206e6f206170706c69636174696f6e73000000000000604482015290519081900360640190fd5b62000d9a620022a6565b600e55600780547fffffffffffffffffffff00ffffffffffffffffffffffffffffffffffffffffff16600160a81b1790556040517fadfcc9bbc47b33710f82544eeff8bd0f98c6f78f190e915bd81f4a9dacfdc77790600090a1565b62000e0062002055565b6000546001600160a01b0390811691161462000e52576040805162461bcd60e51b8152602060048201819052602482015260008051602062005720833981519152604482015290519081900360640190fd5b6014546001600160a01b03166323b872dd3062000e6e620014c6565b601454604080516370a0823160e01b815230600482015290516001600160a01b03909216916370a0823191602480820192602092909190829003018186803b15801562000eba57600080fd5b505afa15801562000ecf573d6000803e3d6000fd5b505050506040513d602081101562000ee657600080fd5b5051604080516001600160e01b031960e087901b1681526001600160a01b0394851660048201529290931660248301526044820152905160648083019260209291908290030181600087803b15801562000f3f57600080fd5b505af115801562000f54573d6000803e3d6000fd5b505050506040513d602081101562000f6b57600080fd5b5050565b62000f7962002055565b6000546001600160a01b0390811691161462000fcb576040805162461bcd60e51b8152602060048201819052602482015260008051602062005720833981519152604482015290519081900360640190fd5b60118054600383810b63ffffffff16660100000000000090810269ffffffff0000000000001990931692909217928390556040805192909304810b810b900b815290517f258981eaba02423980e2973ff2ae3bbbba3cc807a5b73faf8f0b068dd7b2af649181900360200190a150565b600754600160a81b900460ff1681565b6011546301000000900462ffffff1681565b6015546001600160a01b031681565b60606200107862002055565b6000546001600160a01b03908116911614620010ca576040805162461bcd60e51b8152602060048201819052602482015260008051602062005720833981519152604482015290519081900360640190fd5b600b8054806020026020016040519081016040528092919081815260200182805480156200112257602002820191906000526020600020905b81546001600160a01b0316815260019091019060200180831162001103575b5050505050905090565b6000620011426200113c62002055565b620011ed565b905090565b6200115162002055565b6000546001600160a01b03908116911614620011a3576040805162461bcd60e51b8152602060048201819052602482015260008051602062005720833981519152604482015290519081900360640190fd5b600080546040516001600160a01b03909116907f8be0079c531659141344cd1fd0a4f28419497f9722a3daafe3b4186f6b6457e0908390a3600080546001600160a01b0319169055565b6000620011f962002055565b6001600160a01b0316826001600160a01b031614806200123c57506200121e620014c6565b6001600160a01b03166200123162002055565b6001600160a01b0316145b620012795760405162461bcd60e51b8152600401808060200182810382526021815260200180620056456021913960400191505060405180910390fd5b506001600160a01b039081166000908152600a60205260409020541690565b620012a262002055565b6000546001600160a01b03908116911614620012f4576040805162461bcd60e51b8152602060048201819052602482015260008051602062005720833981519152604482015290519081900360640190fd5b600754600160a01b900460ff166200133e5760405162461bcd60e51b815260040180806020018281038252602a8152602001806200576a602a913960400191505060405180910390fd5b6007805460ff60a01b191690556040517f747a4734f50e3ae237b3afeeac30a2d2c7cb965cc122fb9680050fd533b7c0f590600090a1565b6200138062002055565b6000546001600160a01b03908116911614620013d2576040805162461bcd60e51b8152602060048201819052602482015260008051602062005720833981519152604482015290519081900360640190fd5b6011805462ffffff191662ffffff838116919091179182905560408051929091168252517fa24cdd22388a51f932026d20d3229c1d693385bb9ac176742e0e40b4586c2447916020908290030190a150565b60115462ffffff1681565b6200143962002055565b6000546001600160a01b039081169116146200148b576040805162461bcd60e51b8152602060048201819052602482015260008051602062005720833981519152604482015290519081900360640190fd5b60108190556040805182815290517f9f8929be552430dd6434c446d106c34954b2040ca8c4dbf42a39323dd6cda3ca9181900360200190a150565b6000546001600160a01b031690565b620014df62002055565b6000546001600160a01b0390811691161462001531576040805162461bcd60e51b8152602060048201819052602482015260008051602062005720833981519152604482015290519081900360640190fd5b6200153b62000c73565b620015785760405162461bcd60e51b8152600401808060200182810382526025815260200180620055d96025913960400191505060405180910390fd5b601680546001600160a01b0319166001600160a01b03838116919091179182905560408051929091168252517fdc58b28697ffd1bd5879b16631587874caec982b482d7ed05df69a5302f6e018916020908290030190a150565b600754600160b01b900460ff1681565b620015ec62002055565b6000546001600160a01b039081169116146200163e576040805162461bcd60e51b8152602060048201819052602482015260008051602062005720833981519152604482015290519081900360640190fd5b600754600160a81b900460ff166200169d576040805162461bcd60e51b815260206004820152601e60248201527f436c617373726f6f6d3a20636f75727365206e6f742066696e69736865640000604482015290519081900360640190fd5b601454604080516370a0823160e01b815230600482015290516001600160a01b03909216916370a0823191602480820192602092909190829003018186803b158015620016e957600080fd5b505afa158015620016fe573d6000803e3d6000fd5b505050506040513d60208110156200171557600080fd5b5051600e541115620017595760405162461bcd60e51b8152600401808060200182810382526024815260200180620056216024913960400191505060405180910390fd5b60008062001766620023de565b91509150600060606200177a8484620025b8565b91509150620017898162002c32565b620017948262002d3e565b6200179e62002db1565b620017a862003287565b50505050565b620017b862002055565b6000546001600160a01b039081169116146200180a576040805162461bcd60e51b8152602060048201819052602482015260008051602062005720833981519152604482015290519081900360640190fd5b601454604080516370a0823160e01b815230600482015290516000926001600160a01b0316916370a08231916024808301926020929190829003018186803b1580156200185657600080fd5b505afa1580156200186b573d6000803e3d6000fd5b505050506040513d60208110156200188257600080fd5b5051905080620018935750620019cc565b601454601554604080517f095ea7b30000000000000000000000000000000000000000000000000000000081526001600160a01b039283166004820152602481018590529051919092169163095ea7b39160448083019260209291908290030181600087803b1580156200190657600080fd5b505af11580156200191b573d6000803e3d6000fd5b505050506040513d60208110156200193257600080fd5b5050601554604080517fa0712d680000000000000000000000000000000000000000000000000000000081526004810184905290516001600160a01b039092169163a0712d68916024808201926020929091908290030181600087803b1580156200199c57600080fd5b505af1158015620019b1573d6000803e3d6000fd5b505050506040513d6020811015620019c857600080fd5b5050505b565b600954151590565b6007546001600160a01b031681565b620019ef62002055565b6000546001600160a01b0390811691161462001a41576040805162461bcd60e51b8152602060048201819052602482015260008051602062005720833981519152604482015290519081900360640190fd5b60138190556040805182815290517fa67f34afb53d068e81607cde52dc74c58cbf6a05eac699e5543b97d25e3ca5cb9181900360200190a150565b62001a8662002055565b6000546001600160a01b0390811691161462001ad8576040805162461bcd60e51b8152602060048201819052602482015260008051602062005720833981519152604482015290519081900360640190fd5b600754600160a01b900460ff161562001b235760405162461bcd60e51b8152600401808060200182810382526026815260200180620056fa6026913960400191505060405180910390fd5b601454604080516370a0823160e01b815230600482015290516001600160a01b03909216916370a0823191602480820192602092909190829003018186803b15801562001b6f57600080fd5b505afa15801562001b84573d6000803e3d6000fd5b505050506040513d602081101562001b9b57600080fd5b50511562001bdb5760405162461bcd60e51b815260040180806020018281038252602a81526020018062005740602a913960400191505060405180910390fd5b62001be5620032e8565b604080516000815260208101918290525162001c049160089162003e35565b5060095462001c5a576040805162461bcd60e51b815260206004820152601f60248201527f436c617373726f6f6d3a206e6f207265616479206170706c69636174696f6e00604482015290519081900360640190fd5b600780547fffffffffffffffffff00ffffffffffffffffffffffffffffffffffffffffffff16600160b01b179055620019cc620034f2565b6014546001600160a01b031681565b606062001cad62002055565b6000546001600160a01b0390811691161462001cff576040805162461bcd60e51b8152602060048201819052602482015260008051602062005720833981519152604482015290519081900360640190fd5b600c80548060200260200160405190810160405280929190818152602001828054801562001122576020028201919060005260206000209081546001600160a01b0316815260019091019060200180831162001103575050505050905090565b62001d6962002055565b6000546001600160a01b0390811691161462001dbb576040805162461bcd60e51b8152602060048201819052602482015260008051602062005720833981519152604482015290519081900360640190fd5b6011805462ffffff808416630100000090810265ffffff000000199093169290921792839055604080519290930416815290517f9d9f9ef51b12eb719684b7a2e09fc2f7e916cb0e229aecf5658ce6326dfeb1c59181900360200190a150565b62001e2562002055565b6000546001600160a01b0390811691161462001e77576040805162461bcd60e51b8152602060048201819052602482015260008051602062005720833981519152604482015290519081900360640190fd5b6001600160a01b03811662001ebe5760405162461bcd60e51b8152600401808060200182810382526026815260200180620055876026913960400191505060405180910390fd5b600080546040516001600160a01b03808516939216917f8be0079c531659141344cd1fd0a4f28419497f9722a3daafe3b4186f6b6457e091a3600080546001600160a01b0319166001600160a01b0392909216919091179055565b60125481565b62001f2962002055565b6000546001600160a01b0390811691161462001f7b576040805162461bcd60e51b8152602060048201819052602482015260008051602062005720833981519152604482015290519081900360640190fd5b601780546001600160a01b039788166001600160a01b031991821617909155601895909555601993909355601a8054929095169190931617909255601b55601c55565b62001fc862002055565b6000546001600160a01b039081169116146200201a576040805162461bcd60e51b8152602060048201819052602482015260008051602062005720833981519152604482015290519081900360640190fd5b60128190556040805182815290517f84e881bf3fcef92f709a2a62150da178a998fbff128c017f3e846787a2f7f5f59181900360200190a150565b3390565b6014546016546000918291849130916001600160a01b0391821691166200207f6200359b565b6040516200208d9062003e9f565b6001600160a01b039586168152938516602085015291841660408085019190915293166060830152608082015290519081900360a001906000f080158015620020da573d6000803e3d6000fd5b506001600160a01b038481166000818152600a602052604080822080546001600160a01b03191686861690811790915560075482517f183b26000000000000000000000000000000000000000000000000000000000081526004810195909552602485019190915290519495509092169263183b26009260448084019391929182900301818387803b1580156200217057600080fd5b505af115801562002185573d6000803e3d6000fd5b5050600b805460018181019092557f0175b7a638427703f0dbe7bb9bbf987a2551717b34e79f33b5b1008d1fa01db90180546001600160a01b038089166001600160a01b031992831617909255600c805493840181556000527fdf6966c971051c3d54ec59162606531493a51404a002842f56009d7e5cf4a8c79092018054918616919092161790555090915050919050565b60408051602080825281830190925260609160208201818036833750505060208101929092525090565b6000828201838110156200229d576040805162461bcd60e51b815260206004820152601b60248201527f536166654d6174683a206164646974696f6e206f766572666c6f770000000000604482015290519081900360640190fd5b90505b92915050565b601554604080517f3af9e669000000000000000000000000000000000000000000000000000000008152306004820152905160009283926001600160a01b0390911691633af9e6699160248082019260209290919082900301818787803b1580156200231157600080fd5b505af115801562002326573d6000803e3d6000fd5b505050506040513d60208110156200233d57600080fd5b5051601554604080517f852a12e30000000000000000000000000000000000000000000000000000000081526004810184905290519293506001600160a01b039091169163852a12e3916024808201926020929091908290030181600087803b158015620023aa57600080fd5b505af1158015620023bf573d6000803e3d6000fd5b505050506040513d6020811015620023d657600080fd5b509091505090565b6000808080805b600954811015620025ae5760098181548110620023fe57fe5b6000918252602082200154604080517f289cf0d200000000000000000000000000000000000000000000000000000000815290516001600160a01b039092169263289cf0d29260048084019382900301818387803b1580156200246057600080fd5b505af115801562002475573d6000803e3d6000fd5b50505050600981815481106200248757fe5b60009182526020918290200154604080516332c3db0f60e11b815290516001600160a01b0390921692636587b61e92600480840193829003018186803b158015620024d157600080fd5b505afa158015620024e6573d6000803e3d6000fd5b505050506040513d6020811015620024fd57600080fd5b5051600314156200250f576001909201915b600981815481106200251d57fe5b60009182526020918290200154604080516332c3db0f60e11b815290516001600160a01b0390921692636587b61e92600480840193829003018186803b1580156200256757600080fd5b505afa1580156200257c573d6000803e3d6000fd5b505050506040513d60208110156200259357600080fd5b505160051415620025a5576001909101905b600101620023e5565b5090925090509091565b6009546012546000916060918390620025ed90620025dd908463ffffffff620035a516565b600e549063ffffffff6200360316565b6011546012549192506000916200262691620f424091620026199162ffffff1663ffffffff620035a516565b9063ffffffff6200366116565b9050600062002641826012546200360390919063ffffffff16565b905060006200265c8562002619868c63ffffffff620035a516565b6011549091506000906200268890620f424090620026199085906301000000900462ffffff16620035a5565b90506000620026a38b62002619888563ffffffff6200360316565b905060608767ffffffffffffffff81118015620026bf57600080fd5b50604051908082528060200260200182016040528015620026ea578160200160208202803683370190505b50905060005b8881101562002a7457600981815481106200270757fe5b60009182526020918290200154604080516332c3db0f60e11b815290516001600160a01b0390921692636587b61e92600480840193829003018186803b1580156200275157600080fd5b505afa15801562002766573d6000803e3d6000fd5b505050506040513d60208110156200277d57600080fd5b5051600314156200283557600981815481106200279657fe5b600091825260208220015460408051637db9abaf60e01b8152600481018a90526024810187905290516001600160a01b0390921692637db9abaf9260448084019382900301818387803b158015620027ed57600080fd5b505af115801562002802573d6000803e3d6000fd5b505050506200281b83876200224290919063ffffffff16565b8282815181106200282857fe5b6020026020010181815250505b600981815481106200284357fe5b60009182526020918290200154604080516332c3db0f60e11b815290516001600160a01b0390921692636587b61e92600480840193829003018186803b1580156200288d57600080fd5b505afa158015620028a2573d6000803e3d6000fd5b505050506040513d6020811015620028b957600080fd5b5051600414156200295d5760098181548110620028d257fe5b600091825260208220015460408051637db9abaf60e01b8152600481018a90526024810184905290516001600160a01b0390921692637db9abaf9260448084019382900301818387803b1580156200292957600080fd5b505af11580156200293e573d6000803e3d6000fd5b50505050858282815181106200295057fe5b6020026020010181815250505b600981815481106200296b57fe5b60009182526020918290200154604080516332c3db0f60e11b815290516001600160a01b0390921692636587b61e92600480840193829003018186803b158015620029b557600080fd5b505afa158015620029ca573d6000803e3d6000fd5b505050506040513d6020811015620029e157600080fd5b50516005141562002a6b5760098181548110620029fa57fe5b600091825260208220015460408051637db9abaf60e01b8152600481018490526024810184905290516001600160a01b0390921692637db9abaf9260448084019382900301818387803b15801562002a5157600080fd5b505af115801562002a66573d6000803e3d6000fd5b505050505b600101620026f0565b50600062002a8e6012548d620035a590919063ffffffff16565b9050600062002b2e620f424062002619600760009054906101000a90046001600160a01b03166001600160a01b031663e6fd604c6040518163ffffffff1660e01b815260040160206040518083038186803b15801562002aed57600080fd5b505afa15801562002b02573d6000803e3d6000fd5b505050506040513d602081101562002b1957600080fd5b5051889062ffffff1663ffffffff620035a516565b9050600062002b448b8f63ffffffff6200360316565b9050600062002bf5620f424062002619600760009054906101000a90046001600160a01b03166001600160a01b031663e6fd604c6040518163ffffffff1660e01b815260040160206040518083038186803b15801562002ba357600080fd5b505afa15801562002bb8573d6000803e3d6000fd5b505050506040513d602081101562002bcf57600080fd5b505162ffffff1662002be88e8763ffffffff620035a516565b9063ffffffff620035a516565b905062002c1b8162002c0e868663ffffffff6200224216565b9063ffffffff6200224216565b9d50939b5050505050505050505050509250929050565b60005b60095481101562000f6b57600082828151811062002c4f57fe5b6020026020010151111562002d3557601454600980546001600160a01b039092169163095ea7b391908490811062002c8357fe5b9060005260206000200160009054906101000a90046001600160a01b031684848151811062002cae57fe5b60200260200101516040518363ffffffff1660e01b815260040180836001600160a01b03166001600160a01b0316815260200182815260200192505050602060405180830381600087803b15801562002d0657600080fd5b505af115801562002d1b573d6000803e3d6000fd5b505050506040513d602081101562002d3257600080fd5b50505b60010162002c35565b601454600754604080517fa9059cbb0000000000000000000000000000000000000000000000000000000081526001600160a01b039283166004820152602481018590529051919092169163a9059cbb9160448083019260209291908290030181600087803b1580156200199c57600080fd5b60005b60095481101562003284576009818154811062002dcd57fe5b60009182526020918290200154604080516332c3db0f60e11b815290516001600160a01b0390921692636587b61e92600480840193829003018186803b15801562002e1757600080fd5b505afa15801562002e2c573d6000803e3d6000fd5b505050506040513d602081101562002e4357600080fd5b50516003141562002f5357600754600980546001600160a01b03909216916387bfe18891908490811062002e7357fe5b600091825260209182902001546040805163b8f31a8160e01b815290516001600160a01b039092169263b8f31a8192600480840193829003018186803b15801562002ebd57600080fd5b505afa15801562002ed2573d6000803e3d6000fd5b505050506040513d602081101562002ee957600080fd5b5051604080516001600160e01b031960e085901b1681526001600160a01b0390921660048301526001602483015251604480830192600092919082900301818387803b15801562002f3957600080fd5b505af115801562002f4e573d6000803e3d6000fd5b505050505b6009818154811062002f6157fe5b60009182526020918290200154604080516332c3db0f60e11b815290516001600160a01b0390921692636587b61e92600480840193829003018186803b15801562002fab57600080fd5b505afa15801562002fc0573d6000803e3d6000fd5b505050506040513d602081101562002fd757600080fd5b505160041415620030e757600754600980546001600160a01b039092169163ff5d8f639190849081106200300757fe5b600091825260209182902001546040805163b8f31a8160e01b815290516001600160a01b039092169263b8f31a8192600480840193829003018186803b1580156200305157600080fd5b505afa15801562003066573d6000803e3d6000fd5b505050506040513d60208110156200307d57600080fd5b5051604080516001600160e01b031960e085901b1681526001600160a01b0390921660048301526001602483015251604480830192600092919082900301818387803b158015620030cd57600080fd5b505af1158015620030e2573d6000803e3d6000fd5b505050505b60098181548110620030f557fe5b60009182526020918290200154604080516332c3db0f60e11b815290516001600160a01b0390921692636587b61e92600480840193829003018186803b1580156200313f57600080fd5b505afa15801562003154573d6000803e3d6000fd5b505050506040513d60208110156200316b57600080fd5b5051600514156200327b57600754600980546001600160a01b039092169163ff5d8f639190849081106200319b57fe5b600091825260209182902001546040805163b8f31a8160e01b815290516001600160a01b039092169263b8f31a8192600480840193829003018186803b158015620031e557600080fd5b505afa158015620031fa573d6000803e3d6000fd5b505050506040513d60208110156200321157600080fd5b5051604080516001600160e01b031960e085901b1681526001600160a01b0390921660048301526002602483015251604480830192600092919082900301818387803b1580156200326157600080fd5b505af115801562003276573d6000803e3d6000fd5b505050505b60010162002db4565b50565b6040805160008152602081019182905251620032a69160099162003e35565b50620032b162000df6565b6000600e55600780547fffffffffffffffff00ff00ffffffffffffffffffffffffffffffffffffffffff169055620019cc620036cd565b60005b6008548110156200328457600881815481106200330457fe5b60009182526020918290200154604080516332c3db0f60e11b815290516001600160a01b0390921692636587b61e92600480840193829003018186803b1580156200334e57600080fd5b505afa15801562003363573d6000803e3d6000fd5b505050506040513d60208110156200337a57600080fd5b5051600114156200345f57600881815481106200339357fe5b6000918252602082200154604080517f0f15f4c000000000000000000000000000000000000000000000000000000000815290516001600160a01b0390921692630f15f4c09260048084019382900301818387803b158015620033f557600080fd5b505af11580156200340a573d6000803e3d6000fd5b505050506009600882815481106200341e57fe5b60009182526020808320909101548354600181018555938352912090910180546001600160a01b0319166001600160a01b03909216919091179055620034e9565b600881815481106200346d57fe5b6000918252602082200154604080517f79599f9600000000000000000000000000000000000000000000000000000000815290516001600160a01b03909216926379599f969260048084019382900301818387803b158015620034cf57600080fd5b505af1158015620034e4573d6000803e3d6000fd5b505050505b600101620032eb565b620034fc62003ead565b601b546200352c90307f0aab456900000000000000000000000000000000000000000000000000000000620036e4565b90506200357e6040518060400160405280600581526020017f756e74696c000000000000000000000000000000000000000000000000000000815250601354420183620037159092919063ffffffff16565b601a54601c5462000f6b916001600160a01b031690839062003743565b600f546000401890565b600082620035b657506000620022a0565b82820282848281620035c457fe5b04146200229d5760405162461bcd60e51b8152600401808060200182810382526021815260200180620056b56021913960400191505060405180910390fd5b6000828211156200365b576040805162461bcd60e51b815260206004820152601e60248201527f536166654d6174683a207375627472616374696f6e206f766572666c6f770000604482015290519081900360640190fd5b50900390565b6000808211620036b8576040805162461bcd60e51b815260206004820152601a60248201527f536166654d6174683a206469766973696f6e206279207a65726f000000000000604482015290519081900360640190fd5b6000828481620036c457fe5b04949350505050565b600140600f5416600040600f541617600f81905550565b620036ee62003ead565b620036f862003ead565b6200370c8186868663ffffffff6200392416565b95945050505050565b60808301516200372c908363ffffffff6200396516565b6080830151620019c8908263ffffffff6200398616565b6005546040805130606090811b60208084019190915260348084018690528451808503909101815260549093018452825192810192909220908601939093526000838152600690915281812080546001600160a01b0319166001600160a01b038816179055905182917fb5e6e01e79f91267dc17b4e6314d5d4d03593d2ceee0fbb452b750bd70ea5af991a26003546001600160a01b0316634000aea08584620037ed8762003994565b6040518463ffffffff1660e01b815260040180846001600160a01b03166001600160a01b0316815260200183815260200180602001828103825283818151815260200191508051906020019080838360005b83811015620038595781810151838201526020016200383f565b50505050905090810190601f168015620038875780820380516001836020036101000a031916815260200191505b50945050505050602060405180830381600087803b158015620038a957600080fd5b505af1158015620038be573d6000803e3d6000fd5b505050506040513d6020811015620038d557600080fd5b5051620039145760405162461bcd60e51b8152600401808060200182810382526023815260200180620055fe6023913960400191505060405180910390fd5b6005805460010190559392505050565b6200392e62003ead565b62003940856080015161010062003ad7565b50509183526001600160a01b031660208301526001600160e01b031916604082015290565b62003974826003835162003b14565b620019c8828263ffffffff62003c3616565b62000f6b8260008362003b14565b6060634042994660e01b6000808460000151856020015186604001518760600151600189608001516000015160405160240180896001600160a01b03166001600160a01b03168152602001888152602001878152602001866001600160a01b03166001600160a01b03168152602001856001600160e01b0319166001600160e01b031916815260200184815260200183815260200180602001828103825283818151815260200191508051906020019080838360005b8381101562003a6457818101518382015260200162003a4a565b50505050905090810190601f16801562003a925780820380516001836020036101000a031916815260200191505b5060408051601f198184030181529190526020810180516001600160e01b03166001600160e01b0319909d169c909c17909b5250989950505050505050505050919050565b62003ae162003ee4565b602082061562003af75760208206602003820191505b506020828101829052604080518085526000815290920101905290565b6017811162003b3f5762003b388360e0600585901b16831763ffffffff62003c5416565b50620019c8565b60ff811162003b7a5762003b65836018611fe0600586901b161763ffffffff62003c5416565b5062003b388382600163ffffffff62003c7016565b61ffff811162003bb65762003ba1836019611fe0600586901b161763ffffffff62003c5416565b5062003b388382600263ffffffff62003c7016565b63ffffffff811162003bf45762003bdf83601a611fe0600586901b161763ffffffff62003c5416565b5062003b388382600463ffffffff62003c7016565b67ffffffffffffffff8111620019c85762003c2183601b611fe0600586901b161763ffffffff62003c5416565b50620017a88382600863ffffffff62003c7016565b62003c4062003ee4565b6200229d8384600001515184855162003c95565b62003c5e62003ee4565b6200229d838460000151518462003d4c565b62003c7a62003ee4565b62003c8d84856000015151858562003d9d565b949350505050565b62003c9f62003ee4565b825182111562003cae57600080fd5b8460200151828501111562003cdd5762003cdd8562003cd4876020015187860162003e01565b60020262003e1a565b60008086518051876020830101935080888701111562003cfd5787860182525b505050602084015b6020841062003d265780518252601f19909301926020918201910162003d05565b51815160001960208690036101000a019081169019919091161790525083949350505050565b62003d5662003ee4565b8360200151831062003d755762003d7584856020015160020262003e1a565b83518051602085830101848153508085141562003d93576001810182525b5093949350505050565b62003da762003ee4565b8460200151848301111562003dc75762003dc78585840160020262003e1a565b60006001836101000a03905085518386820101858319825116178152508051848701111562003df65783860181525b509495945050505050565b60008183111562003e14575081620022a0565b50919050565b815162003e28838362003ad7565b50620017a8838262003c36565b82805482825590600052602060002090810192821562003e8d579160200282015b8281111562003e8d57825182546001600160a01b0319166001600160a01b0390911617825560209092019160019091019062003e56565b5062003e9b92915062003efe565b5090565b6116618062003f2683390190565b6040805160a08101825260008082526020820181905291810182905260608101919091526080810162003edf62003ee4565b905290565b604051806040016040528060608152602001600081525090565b62000c9291905b8082111562003e9b5780546001600160a01b031916815560010162003f0556fe608060405234801561001057600080fd5b50604051611661380380611661833981810160405260a081101561003357600080fd5b5080516020820151604083015160608401516080909401519293919290919060006100656001600160e01b0361011f16565b600080546001600160a01b0319166001600160a01b0383169081178255604051929350917f8be0079c531659141344cd1fd0a4f28419497f9722a3daafe3b4186f6b6457e0908290a3506003805460ff60a01b19169055600480546001600160a01b03199081166001600160a01b0397881617909155600580548216958716959095179094556007805460ff1916905560018054851693861693909317909255600691909155600280549092169216919091179055610123565b3390565b61152f806101326000396000f3fe608060405234801561001057600080fd5b50600436106101365760003560e01c806366995a46116100b2578063872d7c7911610081578063b8f31a8111610066578063b8f31a81146102de578063be22f546146102e6578063f2fde38b146102ee57610136565b8063872d7c79146102ce5780638da5cb5b146102d657610136565b806366995a4614610275578063715018a61461029b57806379599f96146102a35780637db9abaf146102ab57610136565b806329d188791161010957806337edd7e7116100ee57806337edd7e7146101c45780633db0bfd2146102415780636587b61e1461026d57610136565b806329d18879146101985780632d24947b146101bc57610136565b80630bb8ebf61461013b5780630f15f4c0146101575780632344e4ec14610161578063289cf0d214610190575b600080fd5b610143610314565b604080519115158252519081900360200190f35b61015f6103ad565b005b61017e6004803603602081101561017757600080fd5b503561048a565b60408051918252519081900360200190f35b61015f61067f565b6101a0610754565b604080516001600160a01b039092168252519081900360200190f35b61015f6107ea565b6101cc6109c8565b6040805160208082528351818301528351919283929083019185019080838360005b838110156102065781810151838201526020016101ee565b50505050905090810190601f1680156102335780820380516001836020036101000a031916815260200191505b509250505060405180910390f35b61015f6004803603604081101561025757600080fd5b506001600160a01b038135169060200135610b8e565b61017e610cd7565b61015f6004803603602081101561028b57600080fd5b50356001600160a01b0316610d7a565b61015f610d8d565b61015f610e4e565b61015f600480360360408110156102c157600080fd5b5080359060200135610f28565b61015f610fe3565b6101a061114a565b6101a0611159565b6101a06111d5565b61015f6004803603602081101561030457600080fd5b50356001600160a01b03166111e4565b600354604080517f39e7357c00000000000000000000000000000000000000000000000000000000815290516000926001600160a01b0316916339e7357c916004808301926020929190829003018186803b15801561037257600080fd5b505afa92505050801561039757506040513d602081101561039257600080fd5b505160015b6103a3575060006103aa565b6006541490505b90565b6103b56112fb565b6000546001600160a01b03908116911614610417576040805162461bcd60e51b815260206004820181905260248201527f4f776e61626c653a2063616c6c6572206973206e6f7420746865206f776e6572604482015290519081900360640190fd5b6000600354600160a01b900460ff16600681111561043157fe5b1461046d5760405162461bcd60e51b815260040180806020018281038252602a81526020018061142a602a913960400191505060405180910390fd5b600380546002919060ff60a01b1916600160a01b835b0217905550565b60075460009060ff166104ce5760405162461bcd60e51b815260040180806020018281038252602981526020018061137b6029913960400191505060405180910390fd5b6003546001600160a01b03166104e26112fb565b6001600160a01b0316146105275760405162461bcd60e51b81526004018080602001828103825260258152602001806113566025913960400191505060405180910390fd5b600260009054906101000a90046001600160a01b03166001600160a01b0316630b435c546040518163ffffffff1660e01b815260040160206040518083038186803b15801561057557600080fd5b505afa158015610589573d6000803e3d6000fd5b505050506040513d602081101561059f57600080fd5b505182106105de5760405162461bcd60e51b81526004018080602001828103825260268152602001806114d46026913960400191505060405180910390fd5b600254600654604080517fcee0510f000000000000000000000000000000000000000000000000000000008152600481018690526024810192909252516001600160a01b039092169163cee0510f91604480820192602092909190829003018186803b15801561064d57600080fd5b505afa158015610661573d6000803e3d6000fd5b505050506040513d602081101561067757600080fd5b505192915050565b6106876112fb565b6000546001600160a01b039081169116146106e9576040805162461bcd60e51b815260206004820181905260248201527f4f776e61626c653a2063616c6c6572206973206e6f7420746865206f776e6572604482015290519081900360640190fd5b60075460ff1661071357600380546005919060ff60a01b1916600160a01b835b0217905550610752565b61071b610314565b156107385760038054819060ff60a01b1916600160a01b82610709565b600380546004919060ff60a01b1916600160a01b83610483565b565b6004546000906001600160a01b031661076b6112fb565b6001600160a01b0316148061079f575061078361114a565b6001600160a01b03166107946112fb565b6001600160a01b0316145b6107da5760405162461bcd60e51b815260040180806020018281038252602a8152602001806114aa602a913960400191505060405180910390fd5b506002546001600160a01b031690565b6000600354600160a01b900460ff16600681111561080457fe5b146108405760405162461bcd60e51b815260040180806020018281038252602a81526020018061142a602a913960400191505060405180910390fd5b600154600554604080517ff745adfc00000000000000000000000000000000000000000000000000000000815290516001600160a01b03938416936323b872dd933393911691829163f745adfc916004808301926020929190829003018186803b1580156108ad57600080fd5b505afa1580156108c1573d6000803e3d6000fd5b505050506040513d60208110156108d757600080fd5b5051604080517fffffffff0000000000000000000000000000000000000000000000000000000060e087901b1681526001600160a01b0394851660048201529290931660248301526044820152905160648083019260209291908290030181600087803b15801561094757600080fd5b505af115801561095b573d6000803e3d6000fd5b505050506040513d602081101561097157600080fd5b50516109ae5760405162461bcd60e51b815260040180806020018281038252602a815260200180611454602a913960400191505060405180910390fd5b600380546001919060ff60a01b1916600160a01b83610483565b6004546060906001600160a01b03166109df6112fb565b6001600160a01b03161480610a1357506109f761114a565b6001600160a01b0316610a086112fb565b6001600160a01b0316145b610a4e5760405162461bcd60e51b815260040180806020018281038252602a8152602001806114aa602a913960400191505060405180910390fd5b600260009054906101000a90046001600160a01b03166001600160a01b031663724465436040518163ffffffff1660e01b815260040160006040518083038186803b158015610a9c57600080fd5b505afa158015610ab0573d6000803e3d6000fd5b505050506040513d6000823e601f3d908101601f191682016040526020811015610ad957600080fd5b8101908080516040519392919084640100000000821115610af957600080fd5b908301906020820185811115610b0e57600080fd5b8251640100000000811182820188101715610b2857600080fd5b82525081516020918201929091019080838360005b83811015610b55578181015183820152602001610b3d565b50505050905090810190601f168015610b825780820380516001836020036101000a031916815260200191505b50604052505050905090565b6004546001600160a01b0316610ba26112fb565b6001600160a01b031614610be75760405162461bcd60e51b815260040180806020018281038252602d8152602001806113a4602d913960400191505060405180910390fd5b6002610bf1610cd7565b11610c2d5760405162461bcd60e51b815260040180806020018281038252602c81526020018061147e602c913960400191505060405180910390fd5b600154600554604080517f23b872dd0000000000000000000000000000000000000000000000000000000081526001600160a01b039283166004820152858316602482015260448101859052905191909216916323b872dd9160648083019260209291908290030181600087803b158015610ca757600080fd5b505af1158015610cbb573d6000803e3d6000fd5b505050506040513d6020811015610cd157600080fd5b50505050565b6004546000906001600160a01b0316610cee6112fb565b6001600160a01b03161480610d225750610d0661114a565b6001600160a01b0316610d176112fb565b6001600160a01b0316145b610d5d5760405162461bcd60e51b815260040180806020018281038252602a8152602001806114aa602a913960400191505060405180910390fd5b600354600160a01b900460ff166006811115610d7557fe5b905090565b610d8a8160095460085401610b8e565b50565b610d956112fb565b6000546001600160a01b03908116911614610df7576040805162461bcd60e51b815260206004820181905260248201527f4f776e61626c653a2063616c6c6572206973206e6f7420746865206f776e6572604482015290519081900360640190fd5b600080546040516001600160a01b03909116907f8be0079c531659141344cd1fd0a4f28419497f9722a3daafe3b4186f6b6457e0908390a36000805473ffffffffffffffffffffffffffffffffffffffff19169055565b610e566112fb565b6000546001600160a01b03908116911614610eb8576040805162461bcd60e51b815260206004820181905260248201527f4f776e61626c653a2063616c6c6572206973206e6f7420746865206f776e6572604482015290519081900360640190fd5b6000600354600160a01b900460ff166006811115610ed257fe5b14610f0e5760405162461bcd60e51b815260040180806020018281038252602a81526020018061142a602a913960400191505060405180910390fd5b600380546006919060ff60a01b1916600160a01b83610483565b610f306112fb565b6000546001600160a01b03908116911614610f92576040805162461bcd60e51b815260206004820181905260248201527f4f776e61626c653a2063616c6c6572206973206e6f7420746865206f776e6572604482015290519081900360640190fd5b6002610f9c610cd7565b11610fd85760405162461bcd60e51b81526004018080602001828103825260308152602001806113006030913960400191505060405180910390fd5b600891909155600955565b6002600354600160a01b900460ff166006811115610ffd57fe5b146110395760405162461bcd60e51b815260040180806020018281038252602d8152602001806113d1602d913960400191505060405180910390fd5b60006110436112fb565b9050600460009054906101000a90046001600160a01b03166001600160a01b0316816001600160a01b031663893d20e86040518163ffffffff1660e01b815260040160206040518083038186803b15801561109d57600080fd5b505afa1580156110b1573d6000803e3d6000fd5b505050506040513d60208110156110c757600080fd5b50516001600160a01b03161461110e5760405162461bcd60e51b815260040180806020018281038252602c8152602001806113fe602c913960400191505060405180910390fd5b6003805473ffffffffffffffffffffffffffffffffffffffff19166001600160a01b03929092169190911790556007805460ff19166001179055565b6000546001600160a01b031690565b60006111636112fb565b6000546001600160a01b039081169116146111c5576040805162461bcd60e51b815260206004820181905260248201527f4f776e61626c653a2063616c6c6572206973206e6f7420746865206f776e6572604482015290519081900360640190fd5b506004546001600160a01b031690565b6001546001600160a01b031681565b6111ec6112fb565b6000546001600160a01b0390811691161461124e576040805162461bcd60e51b815260206004820181905260248201527f4f776e61626c653a2063616c6c6572206973206e6f7420746865206f776e6572604482015290519081900360640190fd5b6001600160a01b0381166112935760405162461bcd60e51b81526004018080602001828103825260268152602001806113306026913960400191505060405180910390fd5b600080546040516001600160a01b03808516939216917f8be0079c531659141344cd1fd0a4f28419497f9722a3daafe3b4186f6b6457e091a36000805473ffffffffffffffffffffffffffffffffffffffff19166001600160a01b0392909216919091179055565b339056fe53747564656e744170706c69636174696f6e3a206170706c69636174696f6e206e6f742066696e6973686564207965744f776e61626c653a206e6577206f776e657220697320746865207a65726f206164647265737353747564656e744170706c69636174696f6e3a2061726520796f75206368656174696e673f53747564656e744170706c69636174696f6e3a20616e73776572206e6f74207265676973746572656453747564656e744170706c69636174696f6e3a206f6e6c792073747564656e742063616e20776974686472617753747564656e744170706c69636174696f6e3a206170706c69636174696f6e206973206e6f742061637469766553747564656e744170706c69636174696f6e3a206765744f776e657220726573756c742069732077726f6e6753747564656e744170706c69636174696f6e3a206170706c69636174696f6e206973206e6f74204e657753747564656e744170706c69636174696f6e3a20636f756c64206e6f74207472616e736665722044414953747564656e744170706c69636174696f6e3a206170706c69636174696f6e206e6f742066696e697368656453747564656e744170706c69636174696f6e3a2072656164207065726d697373696f6e2064656e69656453747564656e744170706c69636174696f6e3a2068696e74206e6f7420617661696c61626c65a2646970667358221220ffd404023d7322a2a7fe66290717c1846594157f97e03a9c4b4f223c5de5294064736f6c634300060600334f776e61626c653a206e6577206f776e657220697320746865207a65726f2061646472657373436c617373726f6f6d3a2073747564656e7420646f65736e2774206861766520656e6f7567682073636f7265436c617373726f6f6d3a2063616e2774206368616e6765206368616c6c656e6765206e6f77756e61626c6520746f207472616e73666572416e6443616c6c20746f206f7261636c65436c617373726f6f6d3a206e6f7420656e6f7567682044414920746f2070726f63656564436c617373726f6f6d3a2072656164207065726d697373696f6e2064656e696564436c617373726f6f6d3a2073747564656e7473206c697374206e6f7420656d707479436c617373726f6f6d3a2070726f666573736f722063616e277420626520697473206f776e2073747564656e74536166654d6174683a206d756c7469706c69636174696f6e206f766572666c6f77436c617373726f6f6d3a20746f6f20736f6f6e20746f2066696e69736820636f75727365436c617373726f6f6d3a206170706c69636174696f6e7320617265207374696c6c206f70656e4f776e61626c653a2063616c6c6572206973206e6f7420746865206f776e6572436c617373726f6f6d3a20696e7665737420616c6c2062616c616e6365206265666f726520626567696e436c617373726f6f6d3a206170706c69636174696f6e732061726520616c726561647920636c6f736564436c617373726f6f6d3a2073747564656e74206973206e6f742072656769737465726564436c617373726f6f6d3a206170706c69636174696f6e732061726520616c7265616479206f70656e6564536f75726365206d75737420626520746865206f7261636c65206f66207468652072657175657374a2646970667358221220448ee2a08735622ceaa0d547e7f2b5853af14aaf273761c2c4383fc06172ad8b64736f6c63430006060033756e61626c6520746f207472616e73666572416e6443616c6c20746f206f7261636c6560806040523480156200001157600080fd5b5060405162001e6038038062001e60833981810160405260408110156200003757600080fd5b5080516020909101516000620000556001600160e01b036200021c16565b600080546001600160a01b0319166001600160a01b0383169081178255604051929350917f8be0079c531659141344cd1fd0a4f28419497f9722a3daafe3b4186f6b6457e0908290a35060028290556005805463ffffffff19169055600380546001600160a01b0319166001600160a01b038316179055620000eb6000620000dc6200021c565b6001600160e01b036200022016565b604080516e524541445f53434f52455f524f4c4560881b8152905190819003600f0190206200013690620001276001600160e01b036200021c16565b6001600160e01b036200023916565b60408051704d4f444946595f53434f52455f524f4c4560781b815290519081900360110190206200017190826001600160e01b036200023916565b6001600160a01b0381166200018e6001600160e01b036200021c16565b6001600160a01b0316146200021457604080516e524541445f53434f52455f524f4c4560881b8152905190819003600f019020620001d690826001600160e01b036200023916565b620001ec6000826001600160e01b036200023916565b620002146000620002056001600160e01b036200021c16565b6001600160e01b03620002af16565b5050620005fb565b3390565b6200023582826001600160e01b036200032816565b5050565b6000828152600160205260409020600201546200027290620002636001600160e01b036200021c16565b6001600160e01b03620003ac16565b620002205760405162461bcd60e51b815260040180806020018281038252602f81526020018062001e02602f913960400191505060405180910390fd5b620002c26001600160e01b036200021c16565b6001600160a01b0316816001600160a01b031614620003135760405162461bcd60e51b815260040180806020018281038252602f81526020018062001e31602f913960400191505060405180910390fd5b6200023582826001600160e01b03620003db16565b60008281526001602090815260409091206200034f918390620014ae6200045f821b17901c565b156200023557620003686001600160e01b036200021c16565b6001600160a01b0316816001600160a01b0316837f2f8788117e7eff1d82e926ec794901d17c78024a50270940304540a733656f0d60405160405180910390a45050565b60008281526001602090815260408220620003d29184906200148e6200047f821b17901c565b90505b92915050565b600082815260016020908152604090912062000402918390620014c36200049f821b17901c565b1562000235576200041b6001600160e01b036200021c16565b6001600160a01b0316816001600160a01b0316837ff6391f5c32d9c69d2a47ea670b442974b53935d1edc7fd64eb21e047a839171b60405160405180910390a45050565b6000620003d2836001600160a01b0384166001600160e01b03620004bf16565b6000620003d2836001600160a01b0384166001600160e01b036200051716565b6000620003d2836001600160a01b0384166001600160e01b036200052f16565b6000620004d683836001600160e01b036200051716565b6200050e57508154600181810184556000848152602080822090930184905584548482528286019093526040902091909155620003d5565b506000620003d5565b60009081526001919091016020526040902054151590565b60008181526001830160205260408120548015620005f057835460001980830191908101906000908790839081106200056457fe5b90600052602060002001549050808760000184815481106200058257fe5b600091825260208083209091019290925582815260018981019092526040902090840190558654879080620005b357fe5b60019003818190600052602060002001600090559055866001016000878152602001908152602001600020600090556001945050505050620003d5565b6000915050620003d5565b6117f7806200060b6000396000f3fe608060405234801561001057600080fd5b50600436106101b95760003560e01c80638da5cb5b116100f9578063ba6019d311610097578063d547741f11610071578063d547741f146104a7578063db4d5e87146104d3578063efedc66914610501578063f2fde38b14610522576101b9565b8063ba6019d31461044c578063be22f54614610482578063ca15c8731461048a576101b9565b80639fcb17de116100d35780639fcb17de1461038f578063a217fddf146103c5578063a8809410146103cd578063aa4f38c71461042c576101b9565b80638da5cb5b146103245780639010d07c1461032c57806391d148541461034f576101b9565b806331fb5fde1161016657806369e527da1161014057806369e527da146102d3578063715018a6146102f75780637206f3d6146102ff578063898855ed14610307576101b9565b806331fb5fde1461026157806336568abe1461028757806368651350146102b3576101b9565b8063248a9ca311610197578063248a9ca3146101ea578063295869be146102075780632f2ff15d14610235576101b9565b806306fdde03146101be5780631b99219f146101d8578063222baa3a146101e0575b600080fd5b6101c6610548565b60408051918252519081900360200190f35b6101c661054e565b6101e8610575565b005b6101c66004803603602081101561020057600080fd5b5035610604565b6101e86004803603604081101561021d57600080fd5b506001600160a01b0381358116916020013516610619565b6101e86004803603604081101561024b57600080fd5b50803590602001356001600160a01b03166106f5565b6101e86004803603602081101561027757600080fd5b50356001600160a01b031661075d565b6101e86004803603604081101561029d57600080fd5b50803590602001356001600160a01b0316610975565b6101e8600480360360208110156102c957600080fd5b503560030b6109d6565b6102db610acb565b604080516001600160a01b039092168252519081900360200190f35b6101e8610ada565b6101c6610b9b565b6101e86004803603602081101561031d57600080fd5b5035610bc4565b6102db610c69565b6102db6004803603604081101561034257600080fd5b5080359060200135610c78565b61037b6004803603604081101561036557600080fd5b50803590602001356001600160a01b0316610c9f565b604080519115158252519081900360200190f35b6101e8600480360360608110156103a557600080fd5b506001600160a01b03813581169160208101359091169060400135610cbd565b6101c6610da4565b6101e860048036036101008110156103e457600080fd5b506001600160a01b03813581169160208101359162ffffff6040830135811692606081013590911691608082013560030b9160a08101359160c08201359160e0013516610da9565b6101e86004803603602081101561044257600080fd5b503560030b610eda565b6101e86004803603606081101561046257600080fd5b506001600160a01b03813581169160208101359091169060400135610fce565b6102db6110ac565b6101c6600480360360208110156104a057600080fd5b50356110c3565b6101e8600480360360408110156104bd57600080fd5b50803590602001356001600160a01b03166110da565b6101e8600480360360408110156104e957600080fd5b506001600160a01b0381358116916020013516611133565b610509611211565b60408051600392830b90920b8252519081900360200190f35b6101e86004803603602081101561053857600080fd5b50356001600160a01b0316611289565b60025481565b604080516e524541445f53434f52455f524f4c4560881b8152905190819003600f01902081565b60005b6004548110156106015761058a6113a0565b6001600160a01b0316600482815481106105a057fe5b6000918252602090912001546001600160a01b031614156105f9576000600482815481106105ca57fe5b9060005260206000200160006101000a8154816001600160a01b0302191690836001600160a01b031602179055505b600101610578565b50565b60009081526001602052604090206002015490565b6106216113a0565b6000546001600160a01b03908116911614610683576040805162461bcd60e51b815260206004820181905260248201527f4f776e61626c653a2063616c6c6572206973206e6f7420746865206f776e6572604482015290519081900360640190fd5b6106f1826001600160a01b0316636e8055a76040518163ffffffff1660e01b815260040160206040518083038186803b1580156106bf57600080fd5b505afa1580156106d3573d6000803e3d6000fd5b505050506040513d60208110156106e957600080fd5b505182611133565b5050565b600082815260016020526040902060020154610718906107136113a0565b610c9f565b6107535760405162461bcd60e51b815260040180806020018281038252602f81526020018061168b602f913960400191505060405180910390fd5b6106f182826113a4565b6107656113a0565b6000546001600160a01b039081169116146107c7576040805162461bcd60e51b815260206004820181905260248201527f4f776e61626c653a2063616c6c6572206973206e6f7420746865206f776e6572604482015290519081900360640190fd5b600354604080517f85dade610000000000000000000000000000000000000000000000000000000081526001600160a01b038481166004830152915191909216916385dade61916024808301926020929190829003018186803b15801561082d57600080fd5b505afa158015610841573d6000803e3d6000fd5b505050506040513d602081101561085757600080fd5b50516108945760405162461bcd60e51b81526004018080602001828103825260298152602001806117996029913960400191505060405180910390fd5b604080516e524541445f53434f52455f524f4c4560881b8152905190819003600f0190206108c290826106f5565b806001600160a01b0316631b9dbc606040518163ffffffff1660e01b8152600401600060405180830381600087803b1580156108fd57600080fd5b505af1158015610911573d6000803e3d6000fd5b5050600480546001810182556000919091527f8a35acfbc15ff81a39ae7d344fd709f28e8600b4aa8c65c6b64bfe7fe36bd19b01805473ffffffffffffffffffffffffffffffffffffffff19166001600160a01b0394909416939093179092555050565b61097d6113a0565b6001600160a01b0316816001600160a01b0316146109cc5760405162461bcd60e51b815260040180806020018281038252602f81526020018061176a602f913960400191505060405180910390fd5b6106f18282611413565b60408051704d4f444946595f53434f52455f524f4c4560781b81529051908190036011019020610a08906107136113a0565b610a435760405162461bcd60e51b815260040180806020018281038252602e8152602001806116ba602e913960400191505060405180910390fd5b600554600390810b828103820b910b13610aa4576040805162461bcd60e51b815260206004820152601c60248201527f53747564656e743a2062616420677261646573206f766572666c6f7700000000604482015290519081900360640190fd5b60058054600381810b9390930390920b63ffffffff1663ffffffff19909216919091179055565b6006546001600160a01b031681565b610ae26113a0565b6000546001600160a01b03908116911614610b44576040805162461bcd60e51b815260206004820181905260248201527f4f776e61626c653a2063616c6c6572206973206e6f7420746865206f776e6572604482015290519081900360640190fd5b600080546040516001600160a01b03909116907f8be0079c531659141344cd1fd0a4f28419497f9722a3daafe3b4186f6b6457e0908390a36000805473ffffffffffffffffffffffffffffffffffffffff19169055565b60408051704d4f444946595f53434f52455f524f4c4560781b8152905190819003601101902081565b610bcc6113a0565b6000546001600160a01b03908116911614610c2e576040805162461bcd60e51b815260206004820181905260248201527f4f776e61626c653a2063616c6c6572206973206e6f7420746865206f776e6572604482015290519081900360640190fd5b60028190556040805182815290517f9f8929be552430dd6434c446d106c34954b2040ca8c4dbf42a39323dd6cda3ca9181900360200190a150565b6000546001600160a01b031690565b6000828152600160205260408120610c96908363ffffffff61148216565b90505b92915050565b6000828152600160205260408120610c96908363ffffffff61148e16565b610cc56113a0565b6000546001600160a01b03908116911614610d27576040805162461bcd60e51b815260206004820181905260248201527f4f776e61626c653a2063616c6c6572206973206e6f7420746865206f776e6572604482015290519081900360640190fd5b826001600160a01b0316633db0bfd283836040518363ffffffff1660e01b815260040180836001600160a01b03166001600160a01b0316815260200182815260200192505050600060405180830381600087803b158015610d8757600080fd5b505af1158015610d9b573d6000803e3d6000fd5b50505050505050565b600081565b610db16113a0565b6000546001600160a01b03908116911614610e13576040805162461bcd60e51b815260206004820181905260248201527f4f776e61626c653a2063616c6c6572206973206e6f7420746865206f776e6572604482015290519081900360640190fd5b60038054604080517f7fd5c1080000000000000000000000000000000000000000000000000000000081526001600160a01b038c81166004830152602482018c905262ffffff808c1660448401528a16606483015288850b90940b608482015260a4810187905260c4810186905284841660e482015290519290911691637fd5c108916101048082019260009290919082900301818387803b158015610eb857600080fd5b505af1158015610ecc573d6000803e3d6000fd5b505050505050505050505050565b60408051704d4f444946595f53434f52455f524f4c4560781b81529051908190036011019020610f0c906107136113a0565b610f475760405162461bcd60e51b815260040180806020018281038252602e8152602001806116ba602e913960400191505060405180910390fd5b600554600390810b808301820b910b12610fa8576040805162461bcd60e51b815260206004820152601d60248201527f53747564656e743a20676f6f6420677261646573206f766572666c6f77000000604482015290519081900360640190fd5b60058054600381810b90930190920b63ffffffff1663ffffffff19909216919091179055565b610fd66113a0565b6000546001600160a01b03908116911614611038576040805162461bcd60e51b815260206004820181905260248201527f4f776e61626c653a2063616c6c6572206973206e6f7420746865206f776e6572604482015290519081900360640190fd5b6110a7836001600160a01b0316636e8055a76040518163ffffffff1660e01b815260040160206040518083038186803b15801561107457600080fd5b505afa158015611088573d6000803e3d6000fd5b505050506040513d602081101561109e57600080fd5b50518383610cbd565b505050565b60055464010000000090046001600160a01b031681565b6000818152600160205260408120610c99906114a3565b6000828152600160205260409020600201546110f8906107136113a0565b6109cc5760405162461bcd60e51b815260040180806020018281038252603081526020018061173a6030913960400191505060405180910390fd5b61113b6113a0565b6000546001600160a01b0390811691161461119d576040805162461bcd60e51b815260206004820181905260248201527f4f776e61626c653a2063616c6c6572206973206e6f7420746865206f776e6572604482015290519081900360640190fd5b816001600160a01b03166366995a46826040518263ffffffff1660e01b815260040180826001600160a01b03166001600160a01b03168152602001915050600060405180830381600087803b1580156111f557600080fd5b505af1158015611209573d6000803e3d6000fd5b505050505050565b604080516e524541445f53434f52455f524f4c4560881b8152905190819003600f019020600090611244906107136113a0565b61127f5760405162461bcd60e51b815260040180806020018281038252602c81526020018061170e602c913960400191505060405180910390fd5b5060055460030b90565b6112916113a0565b6000546001600160a01b039081169116146112f3576040805162461bcd60e51b815260206004820181905260248201527f4f776e61626c653a2063616c6c6572206973206e6f7420746865206f776e6572604482015290519081900360640190fd5b6001600160a01b0381166113385760405162461bcd60e51b81526004018080602001828103825260268152602001806116e86026913960400191505060405180910390fd5b600080546040516001600160a01b03808516939216917f8be0079c531659141344cd1fd0a4f28419497f9722a3daafe3b4186f6b6457e091a36000805473ffffffffffffffffffffffffffffffffffffffff19166001600160a01b0392909216919091179055565b3390565b60008281526001602052604090206113c2908263ffffffff6114ae16565b156106f1576113cf6113a0565b6001600160a01b0316816001600160a01b0316837f2f8788117e7eff1d82e926ec794901d17c78024a50270940304540a733656f0d60405160405180910390a45050565b6000828152600160205260409020611431908263ffffffff6114c316565b156106f15761143e6113a0565b6001600160a01b0316816001600160a01b0316837ff6391f5c32d9c69d2a47ea670b442974b53935d1edc7fd64eb21e047a839171b60405160405180910390a45050565b6000610c9683836114d8565b6000610c96836001600160a01b03841661153c565b6000610c9982611554565b6000610c96836001600160a01b038416611558565b6000610c96836001600160a01b0384166115a2565b8154600090821061151a5760405162461bcd60e51b81526004018080602001828103825260228152602001806116696022913960400191505060405180910390fd5b82600001828154811061152957fe5b9060005260206000200154905092915050565b60009081526001919091016020526040902054151590565b5490565b6000611564838361153c565b61159a57508154600181810184556000848152602080822090930184905584548482528286019093526040902091909155610c99565b506000610c99565b6000818152600183016020526040812054801561165e57835460001980830191908101906000908790839081106115d557fe5b90600052602060002001549050808760000184815481106115f257fe5b60009182526020808320909101929092558281526001898101909252604090209084019055865487908061162257fe5b60019003818190600052602060002001600090559055866001016000878152602001908152602001600020600090556001945050505050610c99565b6000915050610c9956fe456e756d657261626c655365743a20696e646578206f7574206f6620626f756e6473416363657373436f6e74726f6c3a2073656e646572206d75737420626520616e2061646d696e20746f206772616e7453747564656e743a2063616c6c657220646f65736e27742068617665204d4f444946595f53434f52455f524f4c454f776e61626c653a206e6577206f776e657220697320746865207a65726f206164647265737353747564656e743a2063616c6c657220646f65736e2774206861766520524541445f53434f52455f524f4c45416363657373436f6e74726f6c3a2073656e646572206d75737420626520616e2061646d696e20746f207265766f6b65416363657373436f6e74726f6c3a2063616e206f6e6c792072656e6f756e636520726f6c657320666f722073656c6653747564656e743a2061646472657373206973206e6f7420612076616c696420636c617373726f6f6da26469706673582212203a38267ce4e8418cbf9196555cb2e6bd301376030282a0e36fc3bf28ec40916d64736f6c63430006060033416363657373436f6e74726f6c3a2073656e646572206d75737420626520616e2061646d696e20746f206772616e74416363657373436f6e74726f6c3a2063616e206f6e6c792072656e6f756e636520726f6c657320666f722073656c66a2646970667358221220fdb1a72f6914add07494ad983df25e1a60b8b4ddf2050b326aebd2a6a1abacd864736f6c63430006060033",
  "immutableReferences": {},
  "source": "pragma solidity 0.6.6;\r\npragma experimental ABIEncoderV2;\r\n\r\nimport \"@openzeppelin/contracts/math/SafeMath.sol\";\r\nimport \"@openzeppelin/contracts/access/AccessControl.sol\";\r\nimport \"@openzeppelin/contracts/access/Ownable.sol\";\r\nimport \"@openzeppelin/contracts/token/ERC20/IERC20.sol\";\r\nimport \"@openzeppelin/contracts/utils/Address.sol\";\r\nimport \"./BaseRelayRecipient.sol\";\r\nimport \"./GSNTypes.sol\";\r\nimport \"./Classroom.sol\";\r\nimport \"./Student.sol\";\r\nimport \"./StudentApplication.sol\";\r\n\r\n\r\ninterface CERC20 {\r\n    function mint(uint256) external returns (uint256);\r\n\r\n    function exchangeRateCurrent() external returns (uint256);\r\n\r\n    function supplyRatePerBlock() external returns (uint256);\r\n\r\n    function redeem(uint256) external returns (uint256);\r\n\r\n    function redeemUnderlying(uint256) external returns (uint256);\r\n\r\n    function getCash() external returns (uint256);\r\n\r\n    function balanceOfUnderlying(address) external returns (uint256);\r\n\r\n    function borrow(uint256) external returns (uint256);\r\n\r\n    function repayBorrow(uint256) external returns (uint256);\r\n\r\n    function repayBorrowBehalf(address, uint256) external returns (uint256);\r\n}\r\n\r\n\r\n//TODO: Natspec Document ENVERYTHING\r\n//TODO: Sort function order from all contracts\r\n\r\ncontract University is Ownable, AccessControl, BaseRelayRecipient {\r\n    using SafeMath for uint256;\r\n\r\n    //CLASSLIST_ADMIN_ROLE can add new manually created classes to the list\r\n    bytes32 public constant CLASSLIST_ADMIN_ROLE = keccak256(\r\n        \"CLASSLIST_ADMIN_ROLE\"\r\n    );\r\n    // FUNDS_MANAGER_ROLE can withdraw funds from the contract\r\n    bytes32 public constant FUNDS_MANAGER_ROLE = keccak256(\r\n        \"FUNDS_MANAGER_ROLE\"\r\n    );\r\n    // GRANTS_MANAGER_ROLE can approve/decline grant claims\r\n    bytes32 public constant GRANTS_MANAGER_ROLE = keccak256(\r\n        \"GRANTS_MANAGER_ROLE\"\r\n    );\r\n    // READ_STUDENT_LIST_ROLE allow reading students list\r\n    bytes32 public constant READ_STUDENT_LIST_ROLE = keccak256(\r\n        \"READ_STUDENT_LIST_ROLE\"\r\n    );\r\n    /// STUDENT_IDENTITY_ROLE allow asking for grants and requesting a classroom from a successful application\r\n    bytes32 public constant STUDENT_IDENTITY_ROLE = keccak256(\r\n        \"STUDENT_IDENTITY_ROLE\"\r\n    );\r\n    /// CLASSROOM_PROFESSOR_ROLE can manage itself inside the University and registering student applications\r\n    bytes32 public constant CLASSROOM_PROFESSOR_ROLE = keccak256(\r\n        \"CLASSROOM_PROFESSOR_ROLE\"\r\n    );\r\n\r\n    // Parameter: Name of this University\r\n    bytes32 public name;\r\n    // Parameter: University cut from professor (Parts per Million)\r\n    uint24 public cut;\r\n    // List of every registered classroom\r\n    Classroom[] public _classList;\r\n    // List of every student\r\n    Student[] _students;\r\n    // Mapping of each student's applications\r\n    mapping(address => address[]) _studentApplicationsMapping;\r\n    // Address list of every donor\r\n    address[] _donors;\r\n\r\n    //TODO: resolve students and classrooms addresses using ENS\r\n\r\n    CERC20 public cToken;\r\n    IERC20 public daiToken;\r\n\r\n    constructor(\r\n        bytes32 _name,\r\n        uint24 _cut,\r\n        address daiAddress,\r\n        address compoundAddress\r\n    ) public {\r\n        name = _name;\r\n        cut = _cut;\r\n        _classList = new Classroom[](0);\r\n        _students = new Student[](0);\r\n        _setupRole(DEFAULT_ADMIN_ROLE, _msgSender());\r\n        grantRole(READ_STUDENT_LIST_ROLE, _msgSender());\r\n        daiToken = IERC20(daiAddress);\r\n        cToken = CERC20(compoundAddress);\r\n    }\r\n\r\n    event LogNewClassroom(bytes32, address);\r\n    event LogChangeName(bytes32);\r\n    event LogChangeCut(uint24);\r\n\r\n    function acceptRelayedCall(\r\n        GSNTypes.RelayRequest calldata relayRequest,\r\n        bytes calldata approvalData,\r\n        uint256 maxPossibleGas\r\n    )\r\n    external\r\n    view\r\n    returns (bytes memory context) {\r\n        (approvalData);\r\n        require(readBytes4(relayRequest.encodedFunction, 0) == this.studentSelfRegister.selector, \"University: GSN not enabled for this function\");\r\n        return abi.encode(relayRequest.target, 0);\r\n    }\r\n\r\n    function readBytes4(bytes memory b, uint256 index)\r\n        internal\r\n        pure\r\n        returns (bytes4 result)\r\n    {\r\n        index += 32;\r\n        assembly {\r\n            result := mload(add(b, index))\r\n            result := and(\r\n                result,\r\n                0xFFFFFFFF00000000000000000000000000000000000000000000000000000000\r\n            )\r\n        }\r\n        return result;\r\n    }\r\n\r\n    function preRelayedCall(bytes calldata context) external returns (bytes32) {\r\n\r\n    }\r\n\r\n    function postRelayedCall(\r\n        bytes calldata context,\r\n        bool success,\r\n        bytes32 preRetVal,\r\n        uint256 gasUseWithoutPost,\r\n        GSNTypes.GasData calldata gasData\r\n    ) external {\r\n\r\n    }\r\n\r\n    function changeName(bytes32 val) public onlyOwner {\r\n        name = val;\r\n        emit LogChangeName(name);\r\n    }\r\n\r\n    function changeCut(uint24 val) public onlyOwner {\r\n        cut = val;\r\n        emit LogChangeCut(cut);\r\n    }\r\n\r\n    function isValidClassroom(address classroom) public view returns (bool) {\r\n        return hasRole(CLASSROOM_PROFESSOR_ROLE, classroom);\r\n    }\r\n\r\n    function studentIsRegistered(address student) public view returns (bool) {\r\n        require(\r\n            hasRole(READ_STUDENT_LIST_ROLE, _msgSender()),\r\n            \"University: caller doesn't have READ_STUDENT_LIST_ROLE\"\r\n        );\r\n        return hasRole(STUDENT_IDENTITY_ROLE, student);\r\n    }\r\n\r\n    //ex: owner, name, 0.2 * 10**6, 0.5 * 10**6, 0, 50 * (10 ** 18), 30 days, challengeAddress\r\n    function newClassRoom(\r\n        address owner,\r\n        bytes32 cName,\r\n        uint24 cCut,\r\n        uint24 cPCut,\r\n        int32 minScore,\r\n        uint256 entryPrice,\r\n        uint256 duration,\r\n        address challengeAddress\r\n    ) public {\r\n        require(\r\n            hasRole(CLASSLIST_ADMIN_ROLE, _msgSender()),\r\n            \"University: caller doesn't have CLASSLIST_ADMIN_ROLE\"\r\n        );\r\n        _newClassRoom(\r\n            owner,\r\n            cName,\r\n            cCut,\r\n            cPCut,\r\n            minScore,\r\n            entryPrice,\r\n            duration,\r\n            challengeAddress\r\n        );\r\n    }\r\n\r\n    function _newClassRoom(\r\n        address owner,\r\n        bytes32 cName,\r\n        uint24 cCut,\r\n        uint24 cPCut,\r\n        int32 minScore,\r\n        uint256 entryPrice,\r\n        uint256 duration,\r\n        address challengeAddress\r\n    ) internal {\r\n        //TODO: fetch contract from external factory to reduce size\r\n        Classroom classroom = new Classroom(\r\n            cName,\r\n            cCut,\r\n            cPCut,\r\n            minScore,\r\n            entryPrice,\r\n            duration,\r\n            address(this),\r\n            challengeAddress,\r\n            address(daiToken),\r\n            address(cToken)\r\n        );\r\n        classroom.transferOwnership(owner);\r\n        _classList.push(classroom);\r\n        grantRole(READ_STUDENT_LIST_ROLE, address(classroom));\r\n        grantRole(CLASSROOM_PROFESSOR_ROLE, address(classroom));\r\n        emit LogNewClassroom(cName, address(classroom));\r\n    }\r\n\r\n    function studentSelfRegister(bytes32 sName) public {\r\n        require(\r\n            _studentApplicationsMapping[_msgSenderGSN()].length == 0,\r\n            \"University: student already registered\"\r\n        );\r\n        _newStudent(sName, _msgSenderGSN());\r\n    }\r\n\r\n    function _newStudent(bytes32 sName, address addr) internal {\r\n        //Gambiarra: Push address(0) in the mapping to mark that student as registered in the university\r\n        _studentApplicationsMapping[addr].push(address(0));\r\n        //TODO: fetch contract from external factory to reduce size\r\n        Student student = new Student(sName, address(this));\r\n        student.transferOwnership(addr);\r\n        _students.push(student);\r\n        grantRole(STUDENT_IDENTITY_ROLE, address(student));\r\n    }\r\n\r\n    function registerStudentApplication(address student, address application)\r\n        public\r\n    {\r\n        require(\r\n            hasRole(CLASSROOM_PROFESSOR_ROLE, _msgSender()),\r\n            \"University: caller doesn't have CLASSROOM_PROFESSOR_ROLE\"\r\n        );\r\n        _studentApplicationsMapping[student].push(application);\r\n    }\r\n\r\n    function viewMyApplications() public view returns (address[] memory) {\r\n        return viewStudentApplications(_msgSender());\r\n    }\r\n\r\n    function viewStudentApplications(address addr)\r\n        public\r\n        view\r\n        returns (address[] memory)\r\n    {\r\n        require(\r\n            addr == _msgSender() || hasRole(GRANTS_MANAGER_ROLE, _msgSender()),\r\n            \"Classroom: read permission denied\"\r\n        );\r\n        return _studentApplicationsMapping[addr];\r\n    }\r\n\r\n    function studentRequestClassroom(\r\n        address applicationAddr,\r\n        bytes32 cName,\r\n        uint24 cCut,\r\n        uint24 cPCut,\r\n        int32 minScore,\r\n        uint256 entryPrice,\r\n        uint256 duration,\r\n        address challenge\r\n    ) public {\r\n        require(\r\n            hasRole(STUDENT_IDENTITY_ROLE, _msgSender()),\r\n            \"University: caller doesn't have STUDENT_IDENTITY_ROLE\"\r\n        );\r\n        require(\r\n            checkForStudentApplication(_msgSender(), applicationAddr),\r\n            \"University: caller is not student of this application\"\r\n        );\r\n        StudentApplication application = StudentApplication(applicationAddr);\r\n        require(\r\n            application.applicationState() == 3,\r\n            \"University: application is not successful\"\r\n        );\r\n        _newClassRoom(\r\n            Student(_msgSender()).owner(),\r\n            cName,\r\n            cCut,\r\n            cPCut,\r\n            minScore,\r\n            entryPrice,\r\n            duration,\r\n            challenge\r\n        );\r\n    }\r\n\r\n    function checkForStudentApplication(\r\n        address studentAddress,\r\n        address applicationAddress\r\n    ) internal view returns (bool) {\r\n        for (\r\n            uint256 i = 0;\r\n            i < _studentApplicationsMapping[studentAddress].length;\r\n            i++\r\n        ) {\r\n            if (\r\n                _studentApplicationsMapping[studentAddress][i] ==\r\n                applicationAddress\r\n            ) return true;\r\n        }\r\n        return false;\r\n    }\r\n\r\n    function addStudentScore(address student, int32 val) public {\r\n        require(\r\n            hasRole(CLASSROOM_PROFESSOR_ROLE, _msgSender()),\r\n            \"University: caller doesn't have CLASSROOM_PROFESSOR_ROLE\"\r\n        );\r\n        Student(student).addScore(val);\r\n    }\r\n\r\n    function subStudentScore(address student, int32 val) public {\r\n        require(\r\n            hasRole(CLASSROOM_PROFESSOR_ROLE, _msgSender()),\r\n            \"University: caller doesn't have CLASSROOM_PROFESSOR_ROLE\"\r\n        );\r\n        Student(student).subScore(val);\r\n    }\r\n\r\n    function applyFunds(uint256 val) public {\r\n        require(\r\n            hasRole(FUNDS_MANAGER_ROLE, _msgSender()),\r\n            \"University: caller doesn't have FUNDS_MANAGER_ROLE\"\r\n        );\r\n        daiToken.approve(address(cToken), val);\r\n        cToken.mint(val);\r\n    }\r\n\r\n    function recoverFunds(uint256 val) public {\r\n        require(\r\n            hasRole(FUNDS_MANAGER_ROLE, _msgSender()),\r\n            \"University: caller doesn't have FUNDS_MANAGER_ROLE\"\r\n        );\r\n        cToken.redeemUnderlying(val);\r\n    }\r\n\r\n    function spendFunds(address to, uint256 val) public {\r\n        require(\r\n            hasRole(FUNDS_MANAGER_ROLE, _msgSender()),\r\n            \"University: caller doesn't have FUNDS_MANAGER_ROLE\"\r\n        );\r\n        daiToken.transfer(to, val);\r\n    }\r\n\r\n    function allowFunds(address to, uint256 val) public {\r\n        require(\r\n            hasRole(FUNDS_MANAGER_ROLE, _msgSender()),\r\n            \"University: caller doesn't have FUNDS_MANAGER_ROLE\"\r\n        );\r\n        daiToken.approve(to, val);\r\n    }\r\n\r\n    //TODO: fund\r\n\r\n    //TODO: manage grants\r\n\r\n    //TODO: implement funds manager\r\n\r\n    //TODO: implement funds manager governance\r\n}\r\n",
  "sourcePath": "/mnt/e/Repositories/Uproot/contracts/University.sol",
  "compiler": {
    "name": "solc",
    "version": "0.6.6+commit.6c089d02.Emscripten.clang"
  },
  "schemaVersion": "3.1.0",
  "updatedAt": "2020-05-04T03:18:02.606Z",
  "devdoc": {
    "methods": {
      "getRoleAdmin(bytes32)": {
        "details": "Returns the admin role that controls `role`. See {grantRole} and {revokeRole}.     * To change a role's admin, use {_setRoleAdmin}."
      },
      "getRoleMember(bytes32,uint256)": {
        "details": "Returns one of the accounts that have `role`. `index` must be a value between 0 and {getRoleMemberCount}, non-inclusive.     * Role bearers are not sorted in any particular way, and their ordering may change at any point.     * WARNING: When using {getRoleMember} and {getRoleMemberCount}, make sure you perform all queries on the same block. See the following https://forum.openzeppelin.com/t/iterating-over-elements-on-enumerableset-in-openzeppelin-contracts/2296[forum post] for more information."
      },
      "getRoleMemberCount(bytes32)": {
        "details": "Returns the number of accounts that have `role`. Can be used together with {getRoleMember} to enumerate all bearers of a role."
      },
      "grantRole(bytes32,address)": {
        "details": "Grants `role` to `account`.     * If `account` had not been already granted `role`, emits a {RoleGranted} event.     * Requirements:     * - the caller must have ``role``'s admin role."
      },
      "hasRole(bytes32,address)": {
        "details": "Returns `true` if `account` has been granted `role`."
      },
      "owner()": {
        "details": "Returns the address of the current owner."
      },
      "renounceOwnership()": {
        "details": "Leaves the contract without owner. It will not be possible to call `onlyOwner` functions anymore. Can only be called by the current owner.     * NOTE: Renouncing ownership will leave the contract without an owner, thereby removing any functionality that is only available to the owner."
      },
      "renounceRole(bytes32,address)": {
        "details": "Revokes `role` from the calling account.     * Roles are often managed via {grantRole} and {revokeRole}: this function's purpose is to provide a mechanism for accounts to lose their privileges if they are compromised (such as when a trusted device is misplaced).     * If the calling account had been granted `role`, emits a {RoleRevoked} event.     * Requirements:     * - the caller must be `account`."
      },
      "revokeRole(bytes32,address)": {
        "details": "Revokes `role` from `account`.     * If `account` had been granted `role`, emits a {RoleRevoked} event.     * Requirements:     * - the caller must have ``role``'s admin role."
      },
      "transferOwnership(address)": {
        "details": "Transfers ownership of the contract to a new account (`newOwner`). Can only be called by the current owner."
      }
    }
  },
  "userdoc": {
    "methods": {
      "_msgSenderGSN()": {
        "notice": "return the sender of this call. if the call came through our trusted forwarder, return the original sender. otherwise, return `msg.sender`. should be used in the contract anywhere instead of msg.sender"
      }
    }
  }
}